{
  "_format": "hh-sol-artifact-1",
  "contractName": "ClaimsData",
  "sourceName": "contracts/NexusMutual/modules/claims/ClaimsData.sol",
  "abi": [
    {
      "inputs": [],
      "payable": false,
      "stateMutability": "nonpayable",
      "type": "constructor"
    },
    {
      "anonymous": false,
      "inputs": [
        {
          "indexed": true,
          "internalType": "uint256",
          "name": "coverId",
          "type": "uint256"
        },
        {
          "indexed": true,
          "internalType": "address",
          "name": "userAddress",
          "type": "address"
        },
        {
          "indexed": false,
          "internalType": "uint256",
          "name": "claimId",
          "type": "uint256"
        },
        {
          "indexed": false,
          "internalType": "uint256",
          "name": "dateSubmit",
          "type": "uint256"
        }
      ],
      "name": "ClaimRaise",
      "type": "event"
    },
    {
      "anonymous": false,
      "inputs": [
        {
          "indexed": true,
          "internalType": "address",
          "name": "userAddress",
          "type": "address"
        },
        {
          "indexed": true,
          "internalType": "uint256",
          "name": "claimId",
          "type": "uint256"
        },
        {
          "indexed": true,
          "internalType": "bytes4",
          "name": "typeOf",
          "type": "bytes4"
        },
        {
          "indexed": false,
          "internalType": "uint256",
          "name": "tokens",
          "type": "uint256"
        },
        {
          "indexed": false,
          "internalType": "uint256",
          "name": "submitDate",
          "type": "uint256"
        },
        {
          "indexed": false,
          "internalType": "int8",
          "name": "verdict",
          "type": "int8"
        }
      ],
      "name": "VoteCast",
      "type": "event"
    },
    {
      "constant": true,
      "inputs": [],
      "name": "actualClaimLength",
      "outputs": [
        {
          "internalType": "uint256",
          "name": "len",
          "type": "uint256"
        }
      ],
      "payable": false,
      "stateMutability": "view",
      "type": "function"
    },
    {
      "constant": false,
      "inputs": [
        {
          "internalType": "uint256",
          "name": "_claimId",
          "type": "uint256"
        },
        {
          "internalType": "uint256",
          "name": "_coverId",
          "type": "uint256"
        },
        {
          "internalType": "address",
          "name": "_from",
          "type": "address"
        },
        {
          "internalType": "uint256",
          "name": "_nowtime",
          "type": "uint256"
        }
      ],
      "name": "addClaim",
      "outputs": [],
      "payable": false,
      "stateMutability": "nonpayable",
      "type": "function"
    },
    {
      "constant": false,
      "inputs": [
        {
          "internalType": "uint256",
          "name": "_claimId",
          "type": "uint256"
        },
        {
          "internalType": "uint256",
          "name": "_voteid",
          "type": "uint256"
        }
      ],
      "name": "addClaimVoteCA",
      "outputs": [],
      "payable": false,
      "stateMutability": "nonpayable",
      "type": "function"
    },
    {
      "constant": false,
      "inputs": [
        {
          "internalType": "uint256",
          "name": "_claimId",
          "type": "uint256"
        },
        {
          "internalType": "uint256",
          "name": "_voteid",
          "type": "uint256"
        }
      ],
      "name": "addClaimVotemember",
      "outputs": [],
      "payable": false,
      "stateMutability": "nonpayable",
      "type": "function"
    },
    {
      "constant": false,
      "inputs": [
        {
          "internalType": "address",
          "name": "_voter",
          "type": "address"
        },
        {
          "internalType": "uint256",
          "name": "_tokens",
          "type": "uint256"
        },
        {
          "internalType": "uint256",
          "name": "claimId",
          "type": "uint256"
        },
        {
          "internalType": "int8",
          "name": "_verdict",
          "type": "int8"
        }
      ],
      "name": "addVote",
      "outputs": [],
      "payable": false,
      "stateMutability": "nonpayable",
      "type": "function"
    },
    {
      "constant": false,
      "inputs": [
        {
          "internalType": "uint256",
          "name": "_coverId",
          "type": "uint256"
        },
        {
          "internalType": "address",
          "name": "_userAddress",
          "type": "address"
        },
        {
          "internalType": "uint256",
          "name": "_claimId",
          "type": "uint256"
        },
        {
          "internalType": "uint256",
          "name": "_datesubmit",
          "type": "uint256"
        }
      ],
      "name": "callClaimEvent",
      "outputs": [],
      "payable": false,
      "stateMutability": "nonpayable",
      "type": "function"
    },
    {
      "constant": false,
      "inputs": [
        {
          "internalType": "address",
          "name": "_userAddress",
          "type": "address"
        },
        {
          "internalType": "uint256",
          "name": "_claimId",
          "type": "uint256"
        },
        {
          "internalType": "bytes4",
          "name": "_typeOf",
          "type": "bytes4"
        },
        {
          "internalType": "uint256",
          "name": "_tokens",
          "type": "uint256"
        },
        {
          "internalType": "uint256",
          "name": "_submitDate",
          "type": "uint256"
        },
        {
          "internalType": "int8",
          "name": "_verdict",
          "type": "int8"
        }
      ],
      "name": "callVoteEvent",
      "outputs": [],
      "payable": false,
      "stateMutability": "nonpayable",
      "type": "function"
    },
    {
      "constant": false,
      "inputs": [],
      "name": "changeDependentContractAddress",
      "outputs": [],
      "payable": false,
      "stateMutability": "nonpayable",
      "type": "function"
    },
    {
      "constant": false,
      "inputs": [
        {
          "internalType": "uint256",
          "name": "_claimId",
          "type": "uint256"
        },
        {
          "internalType": "int8",
          "name": "_verdict",
          "type": "int8"
        }
      ],
      "name": "changeFinalVerdict",
      "outputs": [],
      "payable": false,
      "stateMutability": "nonpayable",
      "type": "function"
    },
    {
      "constant": false,
      "inputs": [
        {
          "internalType": "address",
          "name": "_masterAddress",
          "type": "address"
        }
      ],
      "name": "changeMasterAddress",
      "outputs": [],
      "payable": false,
      "stateMutability": "nonpayable",
      "type": "function"
    },
    {
      "constant": true,
      "inputs": [],
      "name": "claimDepositTime",
      "outputs": [
        {
          "internalType": "uint256",
          "name": "",
          "type": "uint256"
        }
      ],
      "payable": false,
      "stateMutability": "view",
      "type": "function"
    },
    {
      "constant": true,
      "inputs": [],
      "name": "claimRewardPerc",
      "outputs": [
        {
          "internalType": "uint256",
          "name": "",
          "type": "uint256"
        }
      ],
      "payable": false,
      "stateMutability": "view",
      "type": "function"
    },
    {
      "constant": true,
      "inputs": [
        {
          "internalType": "address",
          "name": "_member",
          "type": "address"
        }
      ],
      "name": "getAllClaimsByAddress",
      "outputs": [
        {
          "internalType": "uint256[]",
          "name": "claimarr",
          "type": "uint256[]"
        }
      ],
      "payable": false,
      "stateMutability": "view",
      "type": "function"
    },
    {
      "constant": true,
      "inputs": [
        {
          "internalType": "uint256",
          "name": "_claimId",
          "type": "uint256"
        }
      ],
      "name": "getAllClaimsByIndex",
      "outputs": [
        {
          "internalType": "uint256",
          "name": "coverId",
          "type": "uint256"
        },
        {
          "internalType": "int8",
          "name": "vote",
          "type": "int8"
        },
        {
          "internalType": "uint256",
          "name": "status",
          "type": "uint256"
        },
        {
          "internalType": "uint256",
          "name": "dateUpd",
          "type": "uint256"
        },
        {
          "internalType": "uint256",
          "name": "state12Count",
          "type": "uint256"
        }
      ],
      "payable": false,
      "stateMutability": "view",
      "type": "function"
    },
    {
      "constant": true,
      "inputs": [],
      "name": "getAllVoteLength",
      "outputs": [
        {
          "internalType": "uint256",
          "name": "voteCount",
          "type": "uint256"
        }
      ],
      "payable": false,
      "stateMutability": "view",
      "type": "function"
    },
    {
      "constant": true,
      "inputs": [
        {
          "internalType": "uint256",
          "name": "_claimId",
          "type": "uint256"
        }
      ],
      "name": "getAllVotesForClaim",
      "outputs": [
        {
          "internalType": "uint256",
          "name": "claimId",
          "type": "uint256"
        },
        {
          "internalType": "uint256[]",
          "name": "ca",
          "type": "uint256[]"
        },
        {
          "internalType": "uint256[]",
          "name": "mv",
          "type": "uint256[]"
        }
      ],
      "payable": false,
      "stateMutability": "view",
      "type": "function"
    },
    {
      "constant": true,
      "inputs": [
        {
          "internalType": "uint256",
          "name": "_claimId",
          "type": "uint256"
        }
      ],
      "name": "getCaClaimVotesToken",
      "outputs": [
        {
          "internalType": "uint256",
          "name": "claimId",
          "type": "uint256"
        },
        {
          "internalType": "uint256",
          "name": "cnt",
          "type": "uint256"
        }
      ],
      "payable": false,
      "stateMutability": "view",
      "type": "function"
    },
    {
      "constant": true,
      "inputs": [
        {
          "internalType": "uint256",
          "name": "_claimId",
          "type": "uint256"
        }
      ],
      "name": "getClaim",
      "outputs": [
        {
          "internalType": "uint256",
          "name": "claimId",
          "type": "uint256"
        },
        {
          "internalType": "uint256",
          "name": "coverId",
          "type": "uint256"
        },
        {
          "internalType": "int8",
          "name": "vote",
          "type": "int8"
        },
        {
          "internalType": "uint256",
          "name": "status",
          "type": "uint256"
        },
        {
          "internalType": "uint256",
          "name": "dateUpd",
          "type": "uint256"
        },
        {
          "internalType": "uint256",
          "name": "state12Count",
          "type": "uint256"
        }
      ],
      "payable": false,
      "stateMutability": "view",
      "type": "function"
    },
    {
      "constant": true,
      "inputs": [
        {
          "internalType": "uint256",
          "name": "_claimId",
          "type": "uint256"
        }
      ],
      "name": "getClaimCoverId",
      "outputs": [
        {
          "internalType": "uint256",
          "name": "claimId",
          "type": "uint256"
        },
        {
          "internalType": "uint256",
          "name": "coverid",
          "type": "uint256"
        }
      ],
      "payable": false,
      "stateMutability": "view",
      "type": "function"
    },
    {
      "constant": true,
      "inputs": [
        {
          "internalType": "uint256",
          "name": "_claimId",
          "type": "uint256"
        }
      ],
      "name": "getClaimDateUpd",
      "outputs": [
        {
          "internalType": "uint256",
          "name": "dateupd",
          "type": "uint256"
        }
      ],
      "payable": false,
      "stateMutability": "view",
      "type": "function"
    },
    {
      "constant": true,
      "inputs": [
        {
          "internalType": "uint256",
          "name": "_index",
          "type": "uint256"
        },
        {
          "internalType": "address",
          "name": "_add",
          "type": "address"
        }
      ],
      "name": "getClaimFromNewStart",
      "outputs": [
        {
          "internalType": "uint256",
          "name": "coverid",
          "type": "uint256"
        },
        {
          "internalType": "uint256",
          "name": "claimId",
          "type": "uint256"
        },
        {
          "internalType": "int8",
          "name": "voteCA",
          "type": "int8"
        },
        {
          "internalType": "int8",
          "name": "voteMV",
          "type": "int8"
        },
        {
          "internalType": "uint256",
          "name": "statusnumber",
          "type": "uint256"
        }
      ],
      "payable": false,
      "stateMutability": "view",
      "type": "function"
    },
    {
      "constant": true,
      "inputs": [],
      "name": "getClaimLength",
      "outputs": [
        {
          "internalType": "uint256",
          "name": "len",
          "type": "uint256"
        }
      ],
      "payable": false,
      "stateMutability": "view",
      "type": "function"
    },
    {
      "constant": true,
      "inputs": [
        {
          "internalType": "uint256",
          "name": "_claimId",
          "type": "uint256"
        },
        {
          "internalType": "int8",
          "name": "_verdict",
          "type": "int8"
        }
      ],
      "name": "getClaimMVote",
      "outputs": [
        {
          "internalType": "uint256",
          "name": "claimId",
          "type": "uint256"
        },
        {
          "internalType": "uint256",
          "name": "token",
          "type": "uint256"
        }
      ],
      "payable": false,
      "stateMutability": "view",
      "type": "function"
    },
    {
      "constant": true,
      "inputs": [
        {
          "internalType": "uint256",
          "name": "_index",
          "type": "uint256"
        }
      ],
      "name": "getClaimOfEmergencyPauseByIndex",
      "outputs": [
        {
          "internalType": "uint256",
          "name": "coverId",
          "type": "uint256"
        },
        {
          "internalType": "uint256",
          "name": "dateUpd",
          "type": "uint256"
        },
        {
          "internalType": "bool",
          "name": "submit",
          "type": "bool"
        }
      ],
      "payable": false,
      "stateMutability": "view",
      "type": "function"
    },
    {
      "constant": true,
      "inputs": [
        {
          "internalType": "uint256",
          "name": "claimid",
          "type": "uint256"
        }
      ],
      "name": "getClaimRewardDetail",
      "outputs": [
        {
          "internalType": "uint256",
          "name": "percCA",
          "type": "uint256"
        },
        {
          "internalType": "uint256",
          "name": "percMV",
          "type": "uint256"
        },
        {
          "internalType": "uint256",
          "name": "tokens",
          "type": "uint256"
        }
      ],
      "payable": false,
      "stateMutability": "view",
      "type": "function"
    },
    {
      "constant": true,
      "inputs": [
        {
          "internalType": "uint256",
          "name": "_claimId",
          "type": "uint256"
        }
      ],
      "name": "getClaimState12Count",
      "outputs": [
        {
          "internalType": "uint256",
          "name": "num",
          "type": "uint256"
        }
      ],
      "payable": false,
      "stateMutability": "view",
      "type": "function"
    },
    {
      "constant": true,
      "inputs": [
        {
          "internalType": "uint256",
          "name": "_claimId",
          "type": "uint256"
        }
      ],
      "name": "getClaimStatusNumber",
      "outputs": [
        {
          "internalType": "uint256",
          "name": "claimId",
          "type": "uint256"
        },
        {
          "internalType": "uint256",
          "name": "statno",
          "type": "uint256"
        }
      ],
      "payable": false,
      "stateMutability": "view",
      "type": "function"
    },
    {
      "constant": true,
      "inputs": [
        {
          "internalType": "uint256",
          "name": "_claimId",
          "type": "uint256"
        },
        {
          "internalType": "int8",
          "name": "_verdict",
          "type": "int8"
        }
      ],
      "name": "getClaimVote",
      "outputs": [
        {
          "internalType": "uint256",
          "name": "claimId",
          "type": "uint256"
        },
        {
          "internalType": "uint256",
          "name": "token",
          "type": "uint256"
        }
      ],
      "payable": false,
      "stateMutability": "view",
      "type": "function"
    },
    {
      "constant": true,
      "inputs": [
        {
          "internalType": "uint256",
          "name": "_claimId",
          "type": "uint256"
        },
        {
          "internalType": "uint8",
          "name": "_ca",
          "type": "uint8"
        }
      ],
      "name": "getClaimVoteLength",
      "outputs": [
        {
          "internalType": "uint256",
          "name": "claimId",
          "type": "uint256"
        },
        {
          "internalType": "uint256",
          "name": "len",
          "type": "uint256"
        }
      ],
      "payable": false,
      "stateMutability": "view",
      "type": "function"
    },
    {
      "constant": true,
      "inputs": [
        {
          "internalType": "uint256",
          "name": "_claimId",
          "type": "uint256"
        }
      ],
      "name": "getClaimsTokenCA",
      "outputs": [
        {
          "internalType": "uint256",
          "name": "claimId",
          "type": "uint256"
        },
        {
          "internalType": "uint256",
          "name": "accept",
          "type": "uint256"
        },
        {
          "internalType": "uint256",
          "name": "deny",
          "type": "uint256"
        }
      ],
      "payable": false,
      "stateMutability": "view",
      "type": "function"
    },
    {
      "constant": true,
      "inputs": [
        {
          "internalType": "uint256",
          "name": "_claimId",
          "type": "uint256"
        }
      ],
      "name": "getClaimsTokenMV",
      "outputs": [
        {
          "internalType": "uint256",
          "name": "claimId",
          "type": "uint256"
        },
        {
          "internalType": "uint256",
          "name": "accept",
          "type": "uint256"
        },
        {
          "internalType": "uint256",
          "name": "deny",
          "type": "uint256"
        }
      ],
      "payable": false,
      "stateMutability": "view",
      "type": "function"
    },
    {
      "constant": true,
      "inputs": [
        {
          "internalType": "uint256",
          "name": "_claimId",
          "type": "uint256"
        }
      ],
      "name": "getFinalVerdict",
      "outputs": [
        {
          "internalType": "int8",
          "name": "verdict",
          "type": "int8"
        }
      ],
      "payable": false,
      "stateMutability": "view",
      "type": "function"
    },
    {
      "constant": true,
      "inputs": [],
      "name": "getFirstClaimIndexToStartVotingAfterEP",
      "outputs": [
        {
          "internalType": "uint256",
          "name": "firstindex",
          "type": "uint256"
        }
      ],
      "payable": false,
      "stateMutability": "view",
      "type": "function"
    },
    {
      "constant": true,
      "inputs": [],
      "name": "getFirstClaimIndexToSubmitAfterEP",
      "outputs": [
        {
          "internalType": "uint256",
          "name": "indexToSubmit",
          "type": "uint256"
        }
      ],
      "payable": false,
      "stateMutability": "view",
      "type": "function"
    },
    {
      "constant": true,
      "inputs": [],
      "name": "getLengthOfClaimSubmittedAtEP",
      "outputs": [
        {
          "internalType": "uint256",
          "name": "len",
          "type": "uint256"
        }
      ],
      "payable": false,
      "stateMutability": "view",
      "type": "function"
    },
    {
      "constant": true,
      "inputs": [],
      "name": "getLengthOfClaimVotingPause",
      "outputs": [
        {
          "internalType": "uint256",
          "name": "len",
          "type": "uint256"
        }
      ],
      "payable": false,
      "stateMutability": "view",
      "type": "function"
    },
    {
      "constant": true,
      "inputs": [
        {
          "internalType": "uint256",
          "name": "_claimId",
          "type": "uint256"
        }
      ],
      "name": "getMemberClaimVotesToken",
      "outputs": [
        {
          "internalType": "uint256",
          "name": "claimId",
          "type": "uint256"
        },
        {
          "internalType": "uint256",
          "name": "cnt",
          "type": "uint256"
        }
      ],
      "payable": false,
      "stateMutability": "view",
      "type": "function"
    },
    {
      "constant": true,
      "inputs": [
        {
          "internalType": "uint256",
          "name": "_index",
          "type": "uint256"
        }
      ],
      "name": "getPendingClaimDetailsByIndex",
      "outputs": [
        {
          "internalType": "uint256",
          "name": "claimId",
          "type": "uint256"
        },
        {
          "internalType": "uint256",
          "name": "pendingTime",
          "type": "uint256"
        },
        {
          "internalType": "bool",
          "name": "voting",
          "type": "bool"
        }
      ],
      "payable": false,
      "stateMutability": "view",
      "type": "function"
    },
    {
      "constant": true,
      "inputs": [
        {
          "internalType": "address",
          "name": "_voter",
          "type": "address"
        }
      ],
      "name": "getRewardDistributedIndex",
      "outputs": [
        {
          "internalType": "uint256",
          "name": "lastCAvoteIndex",
          "type": "uint256"
        },
        {
          "internalType": "uint256",
          "name": "lastMVvoteIndex",
          "type": "uint256"
        }
      ],
      "payable": false,
      "stateMutability": "view",
      "type": "function"
    },
    {
      "constant": true,
      "inputs": [
        {
          "internalType": "uint256",
          "name": "statusNumber",
          "type": "uint256"
        }
      ],
      "name": "getRewardStatus",
      "outputs": [
        {
          "internalType": "uint256",
          "name": "percCA",
          "type": "uint256"
        },
        {
          "internalType": "uint256",
          "name": "percMV",
          "type": "uint256"
        }
      ],
      "payable": false,
      "stateMutability": "view",
      "type": "function"
    },
    {
      "constant": true,
      "inputs": [
        {
          "internalType": "address",
          "name": "_of",
          "type": "address"
        },
        {
          "internalType": "uint256",
          "name": "_claimId",
          "type": "uint256"
        }
      ],
      "name": "getTokensClaim",
      "outputs": [
        {
          "internalType": "uint256",
          "name": "claimId",
          "type": "uint256"
        },
        {
          "internalType": "uint256",
          "name": "tokens",
          "type": "uint256"
        }
      ],
      "payable": false,
      "stateMutability": "view",
      "type": "function"
    },
    {
      "constant": true,
      "inputs": [
        {
          "internalType": "bytes8",
          "name": "code",
          "type": "bytes8"
        }
      ],
      "name": "getUintParameters",
      "outputs": [
        {
          "internalType": "bytes8",
          "name": "codeVal",
          "type": "bytes8"
        },
        {
          "internalType": "uint256",
          "name": "val",
          "type": "uint256"
        }
      ],
      "payable": false,
      "stateMutability": "view",
      "type": "function"
    },
    {
      "constant": true,
      "inputs": [
        {
          "internalType": "uint256",
          "name": "_index",
          "type": "uint256"
        },
        {
          "internalType": "address",
          "name": "_add",
          "type": "address"
        }
      ],
      "name": "getUserClaimByIndex",
      "outputs": [
        {
          "internalType": "uint256",
          "name": "status",
          "type": "uint256"
        },
        {
          "internalType": "uint256",
          "name": "coverid",
          "type": "uint256"
        },
        {
          "internalType": "uint256",
          "name": "claimId",
          "type": "uint256"
        }
      ],
      "payable": false,
      "stateMutability": "view",
      "type": "function"
    },
    {
      "constant": true,
      "inputs": [
        {
          "internalType": "address",
          "name": "_add",
          "type": "address"
        }
      ],
      "name": "getUserClaimCount",
      "outputs": [
        {
          "internalType": "uint256",
          "name": "len",
          "type": "uint256"
        }
      ],
      "payable": false,
      "stateMutability": "view",
      "type": "function"
    },
    {
      "constant": true,
      "inputs": [
        {
          "internalType": "address",
          "name": "_add",
          "type": "address"
        },
        {
          "internalType": "uint256",
          "name": "_claimId",
          "type": "uint256"
        }
      ],
      "name": "getUserClaimVoteCA",
      "outputs": [
        {
          "internalType": "uint256",
          "name": "idVote",
          "type": "uint256"
        }
      ],
      "payable": false,
      "stateMutability": "view",
      "type": "function"
    },
    {
      "constant": true,
      "inputs": [
        {
          "internalType": "address",
          "name": "_add",
          "type": "address"
        },
        {
          "internalType": "uint256",
          "name": "_claimId",
          "type": "uint256"
        }
      ],
      "name": "getUserClaimVoteMember",
      "outputs": [
        {
          "internalType": "uint256",
          "name": "idVote",
          "type": "uint256"
        }
      ],
      "payable": false,
      "stateMutability": "view",
      "type": "function"
    },
    {
      "constant": true,
      "inputs": [
        {
          "internalType": "address",
          "name": "_voter",
          "type": "address"
        },
        {
          "internalType": "uint256",
          "name": "index",
          "type": "uint256"
        }
      ],
      "name": "getVoteAddressCA",
      "outputs": [
        {
          "internalType": "uint256",
          "name": "",
          "type": "uint256"
        }
      ],
      "payable": false,
      "stateMutability": "view",
      "type": "function"
    },
    {
      "constant": true,
      "inputs": [
        {
          "internalType": "address",
          "name": "_voter",
          "type": "address"
        }
      ],
      "name": "getVoteAddressCALength",
      "outputs": [
        {
          "internalType": "uint256",
          "name": "",
          "type": "uint256"
        }
      ],
      "payable": false,
      "stateMutability": "view",
      "type": "function"
    },
    {
      "constant": true,
      "inputs": [
        {
          "internalType": "address",
          "name": "_voter",
          "type": "address"
        },
        {
          "internalType": "uint256",
          "name": "index",
          "type": "uint256"
        }
      ],
      "name": "getVoteAddressMember",
      "outputs": [
        {
          "internalType": "uint256",
          "name": "",
          "type": "uint256"
        }
      ],
      "payable": false,
      "stateMutability": "view",
      "type": "function"
    },
    {
      "constant": true,
      "inputs": [
        {
          "internalType": "address",
          "name": "_voter",
          "type": "address"
        }
      ],
      "name": "getVoteAddressMemberLength",
      "outputs": [
        {
          "internalType": "uint256",
          "name": "",
          "type": "uint256"
        }
      ],
      "payable": false,
      "stateMutability": "view",
      "type": "function"
    },
    {
      "constant": true,
      "inputs": [
        {
          "internalType": "uint256",
          "name": "_voteid",
          "type": "uint256"
        }
      ],
      "name": "getVoteDetails",
      "outputs": [
        {
          "internalType": "uint256",
          "name": "tokens",
          "type": "uint256"
        },
        {
          "internalType": "uint256",
          "name": "claimId",
          "type": "uint256"
        },
        {
          "internalType": "int8",
          "name": "verdict",
          "type": "int8"
        },
        {
          "internalType": "bool",
          "name": "rewardClaimed",
          "type": "bool"
        }
      ],
      "payable": false,
      "stateMutability": "view",
      "type": "function"
    },
    {
      "constant": true,
      "inputs": [
        {
          "internalType": "uint256",
          "name": "_claimId",
          "type": "uint256"
        },
        {
          "internalType": "uint256",
          "name": "_index",
          "type": "uint256"
        },
        {
          "internalType": "uint8",
          "name": "_ca",
          "type": "uint8"
        }
      ],
      "name": "getVoteToken",
      "outputs": [
        {
          "internalType": "uint256",
          "name": "tok",
          "type": "uint256"
        }
      ],
      "payable": false,
      "stateMutability": "view",
      "type": "function"
    },
    {
      "constant": true,
      "inputs": [
        {
          "internalType": "uint256",
          "name": "_claimId",
          "type": "uint256"
        },
        {
          "internalType": "uint256",
          "name": "_index",
          "type": "uint256"
        },
        {
          "internalType": "uint8",
          "name": "_ca",
          "type": "uint8"
        }
      ],
      "name": "getVoteVerdict",
      "outputs": [
        {
          "internalType": "int8",
          "name": "ver",
          "type": "int8"
        }
      ],
      "payable": false,
      "stateMutability": "view",
      "type": "function"
    },
    {
      "constant": true,
      "inputs": [
        {
          "internalType": "uint256",
          "name": "_claimId",
          "type": "uint256"
        },
        {
          "internalType": "uint256",
          "name": "_index",
          "type": "uint256"
        },
        {
          "internalType": "uint8",
          "name": "_ca",
          "type": "uint8"
        }
      ],
      "name": "getVoteVoter",
      "outputs": [
        {
          "internalType": "address",
          "name": "voter",
          "type": "address"
        }
      ],
      "payable": false,
      "stateMutability": "view",
      "type": "function"
    },
    {
      "constant": true,
      "inputs": [
        {
          "internalType": "uint256",
          "name": "_voteid",
          "type": "uint256"
        }
      ],
      "name": "getVoterVote",
      "outputs": [
        {
          "internalType": "address",
          "name": "voter",
          "type": "address"
        }
      ],
      "payable": false,
      "stateMutability": "view",
      "type": "function"
    },
    {
      "constant": true,
      "inputs": [],
      "name": "majorityConsensus",
      "outputs": [
        {
          "internalType": "uint256",
          "name": "",
          "type": "uint256"
        }
      ],
      "payable": false,
      "stateMutability": "view",
      "type": "function"
    },
    {
      "constant": true,
      "inputs": [],
      "name": "maxVoteThreshold",
      "outputs": [
        {
          "internalType": "uint256",
          "name": "",
          "type": "uint256"
        }
      ],
      "payable": false,
      "stateMutability": "view",
      "type": "function"
    },
    {
      "constant": true,
      "inputs": [],
      "name": "maxVotingTime",
      "outputs": [
        {
          "internalType": "uint256",
          "name": "",
          "type": "uint256"
        }
      ],
      "payable": false,
      "stateMutability": "view",
      "type": "function"
    },
    {
      "constant": true,
      "inputs": [],
      "name": "minVoteThreshold",
      "outputs": [
        {
          "internalType": "uint256",
          "name": "",
          "type": "uint256"
        }
      ],
      "payable": false,
      "stateMutability": "view",
      "type": "function"
    },
    {
      "constant": true,
      "inputs": [],
      "name": "minVotingTime",
      "outputs": [
        {
          "internalType": "uint256",
          "name": "",
          "type": "uint256"
        }
      ],
      "payable": false,
      "stateMutability": "view",
      "type": "function"
    },
    {
      "constant": true,
      "inputs": [],
      "name": "ms",
      "outputs": [
        {
          "internalType": "contract INXMMaster",
          "name": "",
          "type": "address"
        }
      ],
      "payable": false,
      "stateMutability": "view",
      "type": "function"
    },
    {
      "constant": true,
      "inputs": [],
      "name": "nxMasterAddress",
      "outputs": [
        {
          "internalType": "address",
          "name": "",
          "type": "address"
        }
      ],
      "payable": false,
      "stateMutability": "view",
      "type": "function"
    },
    {
      "constant": true,
      "inputs": [],
      "name": "pauseDaysCA",
      "outputs": [
        {
          "internalType": "uint256",
          "name": "",
          "type": "uint256"
        }
      ],
      "payable": false,
      "stateMutability": "view",
      "type": "function"
    },
    {
      "constant": true,
      "inputs": [],
      "name": "payoutRetryTime",
      "outputs": [
        {
          "internalType": "uint256",
          "name": "",
          "type": "uint256"
        }
      ],
      "payable": false,
      "stateMutability": "view",
      "type": "function"
    },
    {
      "constant": true,
      "inputs": [],
      "name": "pendingClaimStart",
      "outputs": [
        {
          "internalType": "uint256",
          "name": "",
          "type": "uint256"
        }
      ],
      "payable": false,
      "stateMutability": "view",
      "type": "function"
    },
    {
      "constant": false,
      "inputs": [
        {
          "internalType": "uint256",
          "name": "_coverId",
          "type": "uint256"
        },
        {
          "internalType": "uint256",
          "name": "_dateUpd",
          "type": "uint256"
        },
        {
          "internalType": "bool",
          "name": "_submit",
          "type": "bool"
        }
      ],
      "name": "setClaimAtEmergencyPause",
      "outputs": [],
      "payable": false,
      "stateMutability": "nonpayable",
      "type": "function"
    },
    {
      "constant": false,
      "inputs": [
        {
          "internalType": "uint256",
          "name": "claimid",
          "type": "uint256"
        },
        {
          "internalType": "uint256",
          "name": "percCA",
          "type": "uint256"
        },
        {
          "internalType": "uint256",
          "name": "percMV",
          "type": "uint256"
        },
        {
          "internalType": "uint256",
          "name": "tokens",
          "type": "uint256"
        }
      ],
      "name": "setClaimRewardDetail",
      "outputs": [],
      "payable": false,
      "stateMutability": "nonpayable",
      "type": "function"
    },
    {
      "constant": false,
      "inputs": [
        {
          "internalType": "uint256",
          "name": "_claimId",
          "type": "uint256"
        },
        {
          "internalType": "uint256",
          "name": "_stat",
          "type": "uint256"
        }
      ],
      "name": "setClaimStatus",
      "outputs": [],
      "payable": false,
      "stateMutability": "nonpayable",
      "type": "function"
    },
    {
      "constant": false,
      "inputs": [
        {
          "internalType": "uint256",
          "name": "_index",
          "type": "uint256"
        },
        {
          "internalType": "bool",
          "name": "_submit",
          "type": "bool"
        }
      ],
      "name": "setClaimSubmittedAtEPTrue",
      "outputs": [],
      "payable": false,
      "stateMutability": "nonpayable",
      "type": "function"
    },
    {
      "constant": false,
      "inputs": [
        {
          "internalType": "uint256",
          "name": "_claimId",
          "type": "uint256"
        },
        {
          "internalType": "int8",
          "name": "_vote",
          "type": "int8"
        },
        {
          "internalType": "uint256",
          "name": "_tokens",
          "type": "uint256"
        }
      ],
      "name": "setClaimTokensCA",
      "outputs": [],
      "payable": false,
      "stateMutability": "nonpayable",
      "type": "function"
    },
    {
      "constant": false,
      "inputs": [
        {
          "internalType": "uint256",
          "name": "_claimId",
          "type": "uint256"
        },
        {
          "internalType": "int8",
          "name": "_vote",
          "type": "int8"
        },
        {
          "internalType": "uint256",
          "name": "_tokens",
          "type": "uint256"
        }
      ],
      "name": "setClaimTokensMV",
      "outputs": [],
      "payable": false,
      "stateMutability": "nonpayable",
      "type": "function"
    },
    {
      "constant": false,
      "inputs": [
        {
          "internalType": "uint256",
          "name": "_claimId",
          "type": "uint256"
        },
        {
          "internalType": "uint256",
          "name": "_dateUpd",
          "type": "uint256"
        }
      ],
      "name": "setClaimdateUpd",
      "outputs": [],
      "payable": false,
      "stateMutability": "nonpayable",
      "type": "function"
    },
    {
      "constant": false,
      "inputs": [
        {
          "internalType": "uint256",
          "name": "_claimStartVotingFirstIndex",
          "type": "uint256"
        }
      ],
      "name": "setFirstClaimIndexToStartVotingAfterEP",
      "outputs": [],
      "payable": false,
      "stateMutability": "nonpayable",
      "type": "function"
    },
    {
      "constant": false,
      "inputs": [
        {
          "internalType": "uint256",
          "name": "_firstClaimIndexToSubmit",
          "type": "uint256"
        }
      ],
      "name": "setFirstClaimIndexToSubmitAfterEP",
      "outputs": [],
      "payable": false,
      "stateMutability": "nonpayable",
      "type": "function"
    },
    {
      "constant": false,
      "inputs": [
        {
          "internalType": "uint256",
          "name": "_claimId",
          "type": "uint256"
        },
        {
          "internalType": "uint256",
          "name": "_pendingTime",
          "type": "uint256"
        },
        {
          "internalType": "bool",
          "name": "_voting",
          "type": "bool"
        }
      ],
      "name": "setPendingClaimDetails",
      "outputs": [],
      "payable": false,
      "stateMutability": "nonpayable",
      "type": "function"
    },
    {
      "constant": false,
      "inputs": [
        {
          "internalType": "uint256",
          "name": "_claimId",
          "type": "uint256"
        },
        {
          "internalType": "bool",
          "name": "_vote",
          "type": "bool"
        }
      ],
      "name": "setPendingClaimVoteStatus",
      "outputs": [],
      "payable": false,
      "stateMutability": "nonpayable",
      "type": "function"
    },
    {
      "constant": false,
      "inputs": [
        {
          "internalType": "uint256",
          "name": "_voteid",
          "type": "uint256"
        },
        {
          "internalType": "bool",
          "name": "claimed",
          "type": "bool"
        }
      ],
      "name": "setRewardClaimed",
      "outputs": [],
      "payable": false,
      "stateMutability": "nonpayable",
      "type": "function"
    },
    {
      "constant": false,
      "inputs": [
        {
          "internalType": "address",
          "name": "_voter",
          "type": "address"
        },
        {
          "internalType": "uint256",
          "name": "caIndex",
          "type": "uint256"
        }
      ],
      "name": "setRewardDistributedIndexCA",
      "outputs": [],
      "payable": false,
      "stateMutability": "nonpayable",
      "type": "function"
    },
    {
      "constant": false,
      "inputs": [
        {
          "internalType": "address",
          "name": "_voter",
          "type": "address"
        },
        {
          "internalType": "uint256",
          "name": "mvIndex",
          "type": "uint256"
        }
      ],
      "name": "setRewardDistributedIndexMV",
      "outputs": [],
      "payable": false,
      "stateMutability": "nonpayable",
      "type": "function"
    },
    {
      "constant": false,
      "inputs": [
        {
          "internalType": "address",
          "name": "_from",
          "type": "address"
        },
        {
          "internalType": "uint256",
          "name": "_claimId",
          "type": "uint256"
        },
        {
          "internalType": "uint256",
          "name": "_voteid",
          "type": "uint256"
        }
      ],
      "name": "setUserClaimVoteCA",
      "outputs": [],
      "payable": false,
      "stateMutability": "nonpayable",
      "type": "function"
    },
    {
      "constant": false,
      "inputs": [
        {
          "internalType": "address",
          "name": "_from",
          "type": "address"
        },
        {
          "internalType": "uint256",
          "name": "_claimId",
          "type": "uint256"
        },
        {
          "internalType": "uint256",
          "name": "_voteid",
          "type": "uint256"
        }
      ],
      "name": "setUserClaimVoteMember",
      "outputs": [],
      "payable": false,
      "stateMutability": "nonpayable",
      "type": "function"
    },
    {
      "constant": false,
      "inputs": [
        {
          "internalType": "address",
          "name": "user",
          "type": "address"
        }
      ],
      "name": "setUserClaimVotePausedOn",
      "outputs": [],
      "payable": false,
      "stateMutability": "nonpayable",
      "type": "function"
    },
    {
      "constant": false,
      "inputs": [
        {
          "internalType": "uint256",
          "name": "_start",
          "type": "uint256"
        }
      ],
      "name": "setpendingClaimStart",
      "outputs": [],
      "payable": false,
      "stateMutability": "nonpayable",
      "type": "function"
    },
    {
      "constant": false,
      "inputs": [
        {
          "internalType": "uint256",
          "name": "_claimId",
          "type": "uint256"
        },
        {
          "internalType": "uint256",
          "name": "_cnt",
          "type": "uint256"
        }
      ],
      "name": "updateState12Count",
      "outputs": [],
      "payable": false,
      "stateMutability": "nonpayable",
      "type": "function"
    },
    {
      "constant": false,
      "inputs": [
        {
          "internalType": "bytes8",
          "name": "code",
          "type": "bytes8"
        },
        {
          "internalType": "uint256",
          "name": "val",
          "type": "uint256"
        }
      ],
      "name": "updateUintParameters",
      "outputs": [],
      "payable": false,
      "stateMutability": "nonpayable",
      "type": "function"
    },
    {
      "constant": true,
      "inputs": [
        {
          "internalType": "address",
          "name": "",
          "type": "address"
        }
      ],
      "name": "userClaimVotePausedOn",
      "outputs": [
        {
          "internalType": "uint256",
          "name": "",
          "type": "uint256"
        }
      ],
      "payable": false,
      "stateMutability": "view",
      "type": "function"
    }
  ],
  "bytecode": "0x60806040523480156200001157600080fd5b50600160188190556202a300601a5561a8c0601b5562015180601c556040805160a08101825260008082526020808301828152838501838152606085018481526080860185815260048054808b018255818852975197027f8a35acfbc15ff81a39ae7d344fd709f28e8600b4aa8c65c6b64bfe7fe36bd19b810180546001600160a01b03999099166001600160a01b03199099169890981790975592517f8a35acfbc15ff81a39ae7d344fd709f28e8600b4aa8c65c6b64bfe7fe36bd19c87015590517f8a35acfbc15ff81a39ae7d344fd709f28e8600b4aa8c65c6b64bfe7fe36bd19d860155517f8a35acfbc15ff81a39ae7d344fd709f28e8600b4aa8c65c6b64bfe7fe36bd19e9094018054915115156101000261ff001995850b60ff1660ff19909316929092179490941617909255825180840190935280835282820181815260038054958601815590915291516002939093027fc2575a0e9e593c00f959f8c92f12db2869c3395a3b0502d05e2516446f71f85b81019390935590517fc2575a0e9e593c00f959f8c92f12db2869c3395a3b0502d05e2516446f71f85c9092019190915562093a806019556014601d556005601e55600a601f55604690556203f480602155620001ed6001600160e01b03620001f316565b620003b9565b620002096000806001600160e01b036200034316565b6200021f6000806001600160e01b036200034316565b620002356000806001600160e01b036200034316565b6200024b6000806001600160e01b036200034316565b620002616000806001600160e01b036200034316565b620002776000806001600160e01b036200034316565b6200028e606460006001600160e01b036200034316565b620002a5606460006001600160e01b036200034316565b620002bc600060646001600160e01b036200034316565b620002d3600060646001600160e01b036200034316565b620002e96000806001600160e01b036200034316565b620002ff6000806001600160e01b036200034316565b620003156000806001600160e01b036200034316565b6200032b6000806001600160e01b036200034316565b620003416000806001600160e01b036200034316565b565b6040805180820190915291825260208201908152600280546001810182556000829052925192027f405787fa12a823e0f2b7631cc41b3ba8828b3321ca811111fa75cd3aa3bb5ace810192909255517f405787fa12a823e0f2b7631cc41b3ba8828b3321ca811111fa75cd3aa3bb5acf90910155565b6139c680620003c96000396000f3fe608060405234801561001057600080fd5b50600436106104c25760003560e01c8063990dcb9011610278578063bc82d0891161015c578063e3d10ed8116100ce578063f2d16e2a11610092578063f2d16e2a1461102b578063f2eb3b6b14611057578063f4f4c6dd14611074578063f511bdfe14611131578063fc57c9bb14611154578063fd61265e14611180576104c2565b8063e3d10ed814610f98578063ee8dea6314610fca578063f0f7587a14610fd2578063f17a3bec14610ffe578063f27a104714611006576104c2565b8063c672724a11610120578063c672724a14610eba578063cfda120614610ee9578063d46655f414610f06578063d654c6bc14610f2c578063dbd0064c14610f49578063e0fd6e8214610f66576104c2565b8063bc82d08914610df3578063be7cbc5c14610e44578063c344ccc614610e70578063c46b77c214610e95578063c49a8b1914610e9d576104c2565b8063a8b395aa116101f5578063af3bd83f116101b9578063af3bd83f14610d60578063b18e594114610d68578063b2dd6f7914610d70578063b32c787914610d93578063bb67643a14610dbf578063bbd275ee14610dc7576104c2565b8063a8b395aa14610ccf578063a90a6e1114610cd7578063a924813614610cdf578063aad0ec7a14610cfc578063aee9274114610d34576104c2565b8063a0b2d57f1161023c578063a0b2d57f14610c1a578063a35d093a14610c3e578063a40d351814610c61578063a788c1ff14610c7e578063a7b1346f14610ca3576104c2565b8063990dcb9014610b0b578063999770ac14610b375780639bc5aa2314610b545780639dd86e0f14610b775780639e4d73ca14610ba4576104c2565b806354d0f8d8116103aa5780637c2af6ee1161031c578063923b0a81116102e0578063923b0a8114610a265780639449059214610a43578063949d9d7614610a6e5780639600d64714610a8b578063965bfafb14610ab157806396ff592f14610aee576104c2565b80637c2af6ee1461098d5780637eb7b2ee146109b057806385d49496146109db57806386d2b201146109e357806389b11cfe14610a1e576104c2565b80636122f8401161036e5780636122f840146108ba578063623c2bca146109055780636e3979e21461092b57806370e2630b146109755780637532b0911461097d57806379c80e7214610985576104c2565b806354d0f8d8146107d95780635aef2447146107f65780635ca1ce8b1461084b5780635d2462e4146108715780635f39579d1461089d576104c2565b80633852a2ec11610443578063436f1fc511610407578063436f1fc51461071657806346f4da571461071e5780634e06c014146107445780634fa6b27214610761578063542753241461076957806354a1b4311461078f576104c2565b80633852a2ec146106355780633aee2f7c1461063d5780633cc17a541461069e5780633fce4328146106ca57806340676a51146106f0576104c2565b806321fffaea1161048a57806321fffaea14610564578063274d865f146105a957806334f19e2c146105cf57806337bc7f90146105f557806337c8266d1461062d576104c2565b80630325ea37146104c757806304ecffeb146104fd57806309ed2a4b146105235780630ea9c9841461053d5780631cc464fe14610547575b600080fd5b6104e4600480360360208110156104dd57600080fd5b50356111cd565b6040805192835260208301919091528051918290030190f35b6104e46004803603602081101561051357600080fd5b50356001600160a01b03166111e4565b61052b611207565b60408051918252519081900360200190f35b61054561120d565b005b61052b6004803603602081101561055d57600080fd5b503561128f565b6105906004803603606081101561057a57600080fd5b508035906020810135906040013560ff166112a1565b60408051600092830b90920b8252519081900360200190f35b61052b600480360360208110156105bf57600080fd5b50356001600160a01b0316611350565b61052b600480360360208110156105e557600080fd5b50356001600160a01b031661136b565b6105456004803603608081101561060b57600080fd5b508035906001600160a01b036020820135169060408101359060600135611386565b61052b611456565b61052b61145c565b6106696004803603604081101561065357600080fd5b50803590602001356001600160a01b0316611462565b604080519586526020860194909452600092830b830b8585015290820b90910b60608401526080830152519081900360a00190f35b610545600480360360408110156106b457600080fd5b506001600160a01b0381351690602001356115bb565b61052b600480360360208110156106e057600080fd5b50356001600160a01b031661165a565b61052b6004803603602081101561070657600080fd5b50356001600160a01b031661166c565b61052b611687565b6105456004803603604081101561073457600080fd5b508035906020013560000b61168d565b6105906004803603602081101561075a57600080fd5b503561172f565b61052b611743565b6104e46004803603604081101561077f57600080fd5b508035906020013560000b611749565b6107ac600480360360208110156107a557600080fd5b5035611824565b604080519485526020850193909352600091820b90910b8383015215156060830152519081900360800190f35b61052b600480360360208110156107ef57600080fd5b50356118c5565b6108136004803603602081101561080c57600080fd5b50356118ed565b604080519687526020870195909552600093840b90930b858501526060850191909152608084015260a0830152519081900360c00190f35b6104e46004803603604081101561086157600080fd5b508035906020013560000b611979565b61052b6004803603606081101561088757600080fd5b508035906020810135906040013560ff16611a16565b6104e4600480360360208110156108b357600080fd5b5035611abe565b6108e1600480360360208110156108d057600080fd5b50356001600160c01b031916611b08565b604080516001600160c01b0319909316835260208301919091528051918290030190f35b6105456004803603602081101561091b57600080fd5b50356001600160a01b0316611c81565b6109576004803603604081101561094157600080fd5b50803590602001356001600160a01b0316611d1d565b60408051938452602084019290925282820152519081900360600190f35b61052b611d90565b61052b611dac565b61052b611db2565b610545600480360360408110156109a357600080fd5b5080359060200135611db8565b610545600480360360608110156109c657600080fd5b50803590602081013590604001351515611e5f565b61052b611f94565b610545600480360360808110156109f957600080fd5b506001600160a01b03813516906020810135906040810135906060013560000b611fad565b61052b612148565b6104e460048036036020811015610a3c57600080fd5b503561214e565b61054560048036036060811015610a5957600080fd5b5080359060208101359060400135151561219a565b61095760048036036020811015610a8457600080fd5b50356122cf565b6104e460048036036040811015610aa157600080fd5b508035906020013560ff166122ec565b610ace60048036036020811015610ac757600080fd5b5035612328565b604080519384526020840192909252151582820152519081900360600190f35b6104e460048036036020811015610b0457600080fd5b503561239e565b61052b60048036036040811015610b2157600080fd5b506001600160a01b0381351690602001356123ca565b6104e460048036036020811015610b4d57600080fd5b50356123f2565b61054560048036036040811015610b6a57600080fd5b5080359060200135612438565b61054560048036036040811015610b8d57600080fd5b506001600160c01b031981351690602001356124ed565b610bca60048036036020811015610bba57600080fd5b50356001600160a01b031661271e565b60408051602080825283518183015283519192839290830191858101910280838360005b83811015610c06578181015183820152602001610bee565b505050509050019250505060405180910390f35b610c2261278a565b604080516001600160a01b039092168252519081900360200190f35b61054560048036036040811015610c5457600080fd5b5080359060200135612799565b610ace60048036036020811015610c7757600080fd5b503561283c565b61054560048036036040811015610c9457600080fd5b50803590602001351515612890565b6104e460048036036040811015610cb957600080fd5b506001600160a01b038135169060200135612944565b61052b612996565b61052b61299c565b61054560048036036020811015610cf557600080fd5b50356129a2565b61054560048036036080811015610d1257600080fd5b508035906020810135906001600160a01b036040820135169060600135612a27565b61052b60048036036040811015610d4a57600080fd5b506001600160a01b038135169060200135612b43565b61052b612b6b565b61052b612b71565b61054560048036036040811015610d8657600080fd5b5080359060200135612b77565b610c2260048036036060811015610da957600080fd5b508035906020810135906040013560ff16612c1a565b61052b612cd1565b61054560048036036060811015610ddd57600080fd5b50803590602081013560000b9060400135612cd7565b610545600480360360c0811015610e0957600080fd5b506001600160a01b03813516906020810135906001600160e01b03196040820135169060608101359060808101359060a0013560000b612dd9565b61054560048036036040811015610e5a57600080fd5b506001600160a01b038135169060200135612ec0565b61054560048036036040811015610e8657600080fd5b50803590602001351515612f5c565b61052b612fea565b61095760048036036020811015610eb357600080fd5b5035612ff0565b61054560048036036080811015610ed057600080fd5b508035906020810135906040810135906060013561300f565b61054560048036036020811015610eff57600080fd5b50356130ac565b61054560048036036020811015610f1c57600080fd5b50356001600160a01b0316613140565b610c2260048036036020811015610f4257600080fd5b50356131c9565b61095760048036036020811015610f5f57600080fd5b50356131f8565b61054560048036036060811015610f7c57600080fd5b506001600160a01b038135169060208101359060400135613215565b61054560048036036060811015610fae57600080fd5b506001600160a01b0381351690602081013590604001356132d8565b61052b61339b565b61054560048036036060811015610fe857600080fd5b50803590602081013560000b90604001356133a1565b610c226134a2565b6105456004803603604081101561101c57600080fd5b508035906020013515156134b1565b61052b6004803603604081101561104157600080fd5b506001600160a01b03813516906020013561356b565b6105456004803603602081101561106d57600080fd5b50356135a2565b6110916004803603602081101561108a57600080fd5b5035613627565b604051808481526020018060200180602001838103835285818151815260200191508051906020019060200280838360005b838110156110db5781810151838201526020016110c3565b50505050905001838103825284818151815260200191508051906020019060200280838360005b8381101561111a578181015183820152602001611102565b505050509050019550505050505060405180910390f35b6105456004803603604081101561114757600080fd5b50803590602001356136f3565b61052b6004803603604081101561116a57600080fd5b506001600160a01b038135169060200135613785565b61119d6004803603602081101561119657600080fd5b50356137a9565b60408051958652600094850b90940b60208601528484019290925260608401526080830152519081900360a00190f35b6000818152600c602052604090205481905b915091565b6001600160a01b0316600090815260076020526040902080546001909101549091565b601e5481565b600054604080516323c5b10760e21b815233600482015290516001600160a01b0390921691638f16c41c91602480820192602092909190829003018186803b15801561125857600080fd5b505afa15801561126c573d6000803e3d6000fd5b505050506040513d602081101561128257600080fd5b505161128d57600080fd5b565b6000908152600d602052604090205490565b60008160ff16600114156112fe576000848152600e60205260409020805460049190859081106112cd57fe5b9060005260206000200154815481106112e257fe5b60009182526020822060036004909202010154900b9050611349565b6000848152600f602052604090208054600491908590811061131c57fe5b90600052602060002001548154811061133157fe5b60009182526020822060036004909202010154900b90505b9392505050565b6001600160a01b031660009081526011602052604090205490565b6001600160a01b031660009081526010602052604090205490565b600054604080516323c5b10760e21b815233600482015290516001600160a01b0390921691638f16c41c91602480820192602092909190829003018186803b1580156113d157600080fd5b505afa1580156113e5573d6000803e3d6000fd5b505050506040513d60208110156113fb57600080fd5b505161140657600080fd5b826001600160a01b0316847f040b2cc991821ffe51dd33e7f7a2d0e6f64d2ad487cdabbf9e8c1805a93028c48484604051808381526020018281526020019250505060405180910390a350505050565b60205481565b601a5481565b6000806000806000806114808860185461383190919063ffffffff16565b90506003818154811061148f57fe5b600091825260208083206002909202909101546001600160a01b038a16835260138252604080842085855290925291205490965090945084901561151c576001600160a01b038716600090815260136020908152604080832084845290915290205460048054909190811061150057fe5b60009182526020822060036004909202010154900b9350611521565b600093505b6001600160a01b038716600090815260146020908152604080832084845290915290205415611599576001600160a01b038716600090815260146020908152604080832084845290915290205460048054909190811061157d57fe5b60009182526020822060036004909202010154900b925061159e565b600092505b6000908152600c6020526040902054949793965091945092919050565b600054604080516323c5b10760e21b815233600482015290516001600160a01b0390921691638f16c41c91602480820192602092909190829003018186803b15801561160657600080fd5b505afa15801561161a573d6000803e3d6000fd5b505050506040513d602081101561163057600080fd5b505161163b57600080fd5b6001600160a01b03909116600090815260076020526040902060010155565b60156020526000908152604090205481565b6001600160a01b031660009081526012602052604090205490565b601f5481565b600054604080516323c5b10760e21b815233600482015290516001600160a01b0390921691638f16c41c91602480820192602092909190829003018186803b1580156116d857600080fd5b505afa1580156116ec573d6000803e3d6000fd5b505050506040513d602081101561170257600080fd5b505161170d57600080fd5b6000918252600b6020526040822080549190920b60ff1660ff19909116179055565b6000908152600b6020526040812054900b90565b60185481565b816000805b6000858152600e602052604090205481101561181c578360000b6004600e6000888152602001908152602001600020838154811061178857fe5b90600052602060002001548154811061179d57fe5b60009182526020822060036004909202010154810b900b1415611814576000858152600e60205260409020805461181191600491849081106117db57fe5b9060005260206000200154815481106117f057fe5b9060005260206000209060040201600101548361383190919063ffffffff16565b91505b60010161174e565b509250929050565b6000806000806004858154811061183757fe5b9060005260206000209060040201600101546004868154811061185657fe5b9060005260206000209060040201600201546004878154811061187557fe5b600091825260208220600491820201600301548154920b918990811061189757fe5b906000526020600020906004020160030160019054906101000a900460ff1693509350935093509193509193565b6000600382815481106118d457fe5b9060005260206000209060020201600101549050919050565b600080600080600080866003888154811061190457fe5b600091825260208083206002909202909101548a8352600b8252604080842054600c9093528320546003805492949390930b9290918c90811061194357fe5b60009182526020808320600160029093020191909101549c8252600d90526040902054939b929a91995097509550909350915050565b816000805b6000858152600f602052604090205481101561181c578360000b6004600f600088815260200190815260200160002083815481106119b857fe5b9060005260206000200154815481106119cd57fe5b60009182526020822060036004909202010154810b900b1415611a0e576000858152600f602052604090208054611a0b91600491849081106117db57fe5b91505b60010161197e565b60008160ff1660011415611a70576000848152600e6020526040902080546004919085908110611a4257fe5b906000526020600020015481548110611a5757fe5b9060005260206000209060040201600101549050611349565b6000848152600f6020526040902080546004919085908110611a8e57fe5b906000526020600020015481548110611aa357fe5b90600052602060002090600402016001015490509392505050565b60008060028381548110611ace57fe5b90600052602060002090600202016000015460028481548110611aed57fe5b90600052602060002090600202016001015491509150915091565b8060006610d0535056159560ca1b6001600160c01b031983161415611b3c57610e10601a5481611b3457fe5b0490506111df565b6610d0535253959560ca1b6001600160c01b031984161415611b6557610e10601b5481611b3457fe5b67434150524554525960c01b6001600160c01b031984161415611b8f57610e10601c5481611b3457fe5b6510d05111541560d21b6001600160c01b031984161415611bb8576201518060195481611b3457fe5b6721a0a922aba822a960c11b6001600160c01b031984161415611bde5750601d546111df565b66086829a929ca8960cb1b6001600160c01b031984161415611c035750601e546111df565b66086829a82b0a8960cb1b6001600160c01b031984161415611c285750601f546111df565b6721a0a1a7a72822a960c11b6001600160c01b031984161415611c4e57506020546111df565b6710d054105554d15560c21b6001600160c01b0319841614156111df576201518060215481611c7957fe5b049050915091565b60005460408051632c1a733d60e11b815233600482015290516001600160a01b0390921691635834e67a91602480820192602092909190829003018186803b158015611ccc57600080fd5b505afa158015611ce0573d6000803e3d6000fd5b505050506040513d6020811015611cf657600080fd5b5051611d0157600080fd5b6001600160a01b03166000908152601560205260409020429055565b6001600160a01b038116600090815260126020526040812080548291829186908110611d4557fe5b90600052602060002001549050600c600082815260200190815260200160002054925060038181548110611d7557fe5b90600052602060002090600202016000015491509250925092565b600454600090611da790600163ffffffff61388b16565b905090565b60055490565b601b5481565b600054604080516323c5b10760e21b815233600482015290516001600160a01b0390921691638f16c41c91602480820192602092909190829003018186803b158015611e0357600080fd5b505afa158015611e17573d6000803e3d6000fd5b505050506040513d6020811015611e2d57600080fd5b5051611e3857600080fd5b8060038381548110611e4657fe5b9060005260206000209060020201600101819055505050565b600054604080516323c5b10760e21b815233600482015290516001600160a01b0390921691638f16c41c91602480820192602092909190829003018186803b158015611eaa57600080fd5b505afa158015611ebe573d6000803e3d6000fd5b505050506040513d6020811015611ed457600080fd5b5051611edf57600080fd5b60408051606081018252938452602084019283529015159083019081526006805460018101825560009190915292517ff652222313e28459528d920b65115c16c04f3efc82aaedc97be59f3f377c0d3f60039094029384015590517ff652222313e28459528d920b65115c16c04f3efc82aaedc97be59f3f377c0d40830155517ff652222313e28459528d920b65115c16c04f3efc82aaedc97be59f3f377c0d41909101805460ff1916911515919091179055565b601854600354600091611da7919063ffffffff61388b16565b600054604080516323c5b10760e21b815233600482015290516001600160a01b0390921691638f16c41c91602480820192602092909190829003018186803b158015611ff857600080fd5b505afa15801561200c573d6000803e3d6000fd5b505050506040513d602081101561202257600080fd5b505161202d57600080fd5b6040805160a0810182526001600160a01b03958616815260208101948552908101928352600091820b606082019081526080820183815260048054600181018255818652935193027f8a35acfbc15ff81a39ae7d344fd709f28e8600b4aa8c65c6b64bfe7fe36bd19b81018054949098166001600160a01b03199094169390931790965593517f8a35acfbc15ff81a39ae7d344fd709f28e8600b4aa8c65c6b64bfe7fe36bd19c82015591517f8a35acfbc15ff81a39ae7d344fd709f28e8600b4aa8c65c6b64bfe7fe36bd19d83015591517f8a35acfbc15ff81a39ae7d344fd709f28e8600b4aa8c65c6b64bfe7fe36bd19e9091018054935115156101000261ff00199290930b60ff1660ff199094169390931716179055565b60065490565b806000805b6000848152600f6020526040902054811015612194576000848152600f60205260409020805461218a91600491849081106117db57fe5b9150600101612153565b50915091565b600054604080516323c5b10760e21b815233600482015290516001600160a01b0390921691638f16c41c91602480820192602092909190829003018186803b1580156121e557600080fd5b505afa1580156121f9573d6000803e3d6000fd5b505050506040513d602081101561220f57600080fd5b505161221a57600080fd5b60408051606081018252938452602084019283529015159083019081526005805460018101825560009190915292517f036b6384b5eca791c62761152d0c79bb0604c104a5fb6f4eb0703f3154bb3db060039094029384015590517f036b6384b5eca791c62761152d0c79bb0604c104a5fb6f4eb0703f3154bb3db1830155517f036b6384b5eca791c62761152d0c79bb0604c104a5fb6f4eb0703f3154bb3db2909101805460ff1916911515919091179055565b6000818152600a6020526040902080546001909101549192909190565b816000600160ff8416141561231057506000838152600e6020526040902054612321565b506000838152600f60205260409020545b9250929050565b60008060006005848154811061233a57fe5b90600052602060002090600302016000015492506005848154811061235b57fe5b90600052602060002090600302016001015491506005848154811061237c57fe5b600091825260209091206002600390920201015492949193505060ff90911690565b60008082600384815481106123af57fe5b90600052602060002090600202016000015491509150915091565b6001600160a01b03919091166000908152601360209081526040808320938352929052205490565b806000805b6000848152600e6020526040902054811015612194576000848152600e60205260409020805461242e91600491849081106117db57fe5b91506001016123f7565b600054604080516323c5b10760e21b815233600482015290516001600160a01b0390921691638f16c41c91602480820192602092909190829003018186803b15801561248357600080fd5b505afa158015612497573d6000803e3d6000fd5b505050506040513d60208110156124ad57600080fd5b50516124b857600080fd5b6000828152600d60205260409020546124d7908263ffffffff61383116565b6000928352600d60205260409092209190915550565b60005460408051632c1a733d60e11b815233600482015290516001600160a01b0390921691635834e67a91602480820192602092909190829003018186803b15801561253857600080fd5b505afa15801561254c573d6000803e3d6000fd5b505050506040513d602081101561256257600080fd5b505161256d57600080fd5b6610d0535056159560ca1b6001600160c01b03198316141561259b5761259681610e10026138cd565b61271a565b6610d0535253959560ca1b6001600160c01b0319831614156125c45761259681610e10026138d2565b67434150524554525960c01b6001600160c01b0319831614156125ee5761259681610e10026138d7565b6510d05111541560d21b6001600160c01b031983161415612617576125968162015180026138dc565b6721a0a922aba822a960c11b6001600160c01b03198316141561263d57612596816138e1565b66086829a929ca8960cb1b6001600160c01b03198316141561266257612596816138e6565b66086829a82b0a8960cb1b6001600160c01b03198316141561268757612596816138eb565b6721a0a1a7a72822a960c11b6001600160c01b0319831614156126ad57612596816138f0565b6710d054105554d15560c21b6001600160c01b0319831614156126d8576125968162015180026138f5565b6040805162461bcd60e51b8152602060048201526012602482015271496e76616c696420706172616d20636f646560701b604482015290519081900360640190fd5b5050565b6001600160a01b03811660009081526012602090815260409182902080548351818402810184019094528084526060939283018282801561277e57602002820191906000526020600020905b81548152602001906001019080831161276a575b50505050509050919050565b6000546001600160a01b031681565b600054604080516323c5b10760e21b815233600482015290516001600160a01b0390921691638f16c41c91602480820192602092909190829003018186803b1580156127e457600080fd5b505afa1580156127f8573d6000803e3d6000fd5b505050506040513d602081101561280e57600080fd5b505161281957600080fd5b6000918252600e6020908152604083208054600181018255908452922090910155565b60008060006006848154811061284e57fe5b90600052602060002090600302016000015492506006848154811061286f57fe5b90600052602060002090600302016001015491506006848154811061237c57fe5b600054604080516323c5b10760e21b815233600482015290516001600160a01b0390921691638f16c41c91602480820192602092909190829003018186803b1580156128db57600080fd5b505afa1580156128ef573d6000803e3d6000fd5b505050506040513d602081101561290557600080fd5b505161291057600080fd5b806006838154811061291e57fe5b60009182526020909120600390910201600201805460ff19169115159190911790555050565b6001600160a01b0382166000908152601360209081526040808320848452909152812054600480548392859291811061297957fe5b906000526020600020906004020160010154915091509250929050565b601d5481565b60195481565b600054604080516323c5b10760e21b815233600482015290516001600160a01b0390921691638f16c41c91602480820192602092909190829003018186803b1580156129ed57600080fd5b505afa158015612a01573d6000803e3d6000fd5b505050506040513d6020811015612a1757600080fd5b5051612a2257600080fd5b601655565b600054604080516323c5b10760e21b815233600482015290516001600160a01b0390921691638f16c41c91602480820192602092909190829003018186803b158015612a7257600080fd5b505afa158015612a86573d6000803e3d6000fd5b505050506040513d6020811015612a9c57600080fd5b5051612aa757600080fd5b60408051808201825293845260208085019283526003805460018082018355600092835296517fc2575a0e9e593c00f959f8c92f12db2869c3395a3b0502d05e2516446f71f85b60029092029182015593517fc2575a0e9e593c00f959f8c92f12db2869c3395a3b0502d05e2516446f71f85c909401939093556001600160a01b03939093168252601283528120805493840181558152200155565b6001600160a01b03919091166000908152601460209081526040808320938352929052205490565b60165490565b60175490565b600054604080516323c5b10760e21b815233600482015290516001600160a01b0390921691638f16c41c91602480820192602092909190829003018186803b158015612bc257600080fd5b505afa158015612bd6573d6000803e3d6000fd5b505050506040513d6020811015612bec57600080fd5b5051612bf757600080fd5b6000918252600f6020908152604083208054600181018255908452922090910155565b60008160ff1660011415612c7c576000848152600e6020526040902080546004919085908110612c4657fe5b906000526020600020015481548110612c5b57fe5b60009182526020909120600490910201546001600160a01b03169050611349565b6000848152600f6020526040902080546004919085908110612c9a57fe5b906000526020600020015481548110612caf57fe5b60009182526020909120600490910201546001600160a01b0316949350505050565b60215481565b600054604080516323c5b10760e21b815233600482015290516001600160a01b0390921691638f16c41c91602480820192602092909190829003018186803b158015612d2257600080fd5b505afa158015612d36573d6000803e3d6000fd5b505050506040513d6020811015612d4c57600080fd5b5051612d5757600080fd5b8160000b60011415612d92576000838152600a6020526040902054612d82908263ffffffff61383116565b6000848152600a60205260409020555b8160000b6000191415612dd4576000838152600a6020526040902060010154612dc1908263ffffffff61383116565b6000848152600a60205260409020600101555b505050565b600054604080516323c5b10760e21b815233600482015290516001600160a01b0390921691638f16c41c91602480820192602092909190829003018186803b158015612e2457600080fd5b505afa158015612e38573d6000803e3d6000fd5b505050506040513d6020811015612e4e57600080fd5b5051612e5957600080fd5b6040805184815260208101849052600083810b900b8183015290516001600160e01b031986169187916001600160a01b038a16917fccc99158fb6c7b960e4d6e873692c8e8f8785c44da681aad285f3251940840d9919081900360600190a4505050505050565b600054604080516323c5b10760e21b815233600482015290516001600160a01b0390921691638f16c41c91602480820192602092909190829003018186803b158015612f0b57600080fd5b505afa158015612f1f573d6000803e3d6000fd5b505050506040513d6020811015612f3557600080fd5b5051612f4057600080fd5b6001600160a01b03909116600090815260076020526040902055565b600054604080516323c5b10760e21b815233600482015290516001600160a01b0390921691638f16c41c91602480820192602092909190829003018186803b158015612fa757600080fd5b505afa158015612fbb573d6000803e3d6000fd5b505050506040513d6020811015612fd157600080fd5b5051612fdc57600080fd5b806005838154811061291e57fe5b60035490565b6000908152600860205260409020805460018201546002909201549092565b600054604080516323c5b10760e21b815233600482015290516001600160a01b0390921691638f16c41c91602480820192602092909190829003018186803b15801561305a57600080fd5b505afa15801561306e573d6000803e3d6000fd5b505050506040513d602081101561308457600080fd5b505161308f57600080fd5b600093845260086020526040909320918255600182015560020155565b600054604080516323c5b10760e21b815233600482015290516001600160a01b0390921691638f16c41c91602480820192602092909190829003018186803b1580156130f757600080fd5b505afa15801561310b573d6000803e3d6000fd5b505050506040513d602081101561312157600080fd5b505161312c57600080fd5b80601854111561313b57600080fd5b601855565b6000546001600160a01b03161561319d576000546001600160a01b0316331461319d576040805162461bcd60e51b815260206004820152600a6024820152692737ba1036b0b9ba32b960b11b604482015290519081900360640190fd5b600080546001600160a01b039092166001600160a01b0319928316811790915560018054909216179055565b6000600482815481106131d857fe5b60009182526020909120600490910201546001600160a01b031692915050565b600081815260096020526040902080546001909101549192909190565b600054604080516323c5b10760e21b815233600482015290516001600160a01b0390921691638f16c41c91602480820192602092909190829003018186803b15801561326057600080fd5b505afa158015613274573d6000803e3d6000fd5b505050506040513d602081101561328a57600080fd5b505161329557600080fd5b6001600160a01b03909216600081815260136020908152604080832094835293815283822085905591815260108252918220805460018101825590835291200155565b600054604080516323c5b10760e21b815233600482015290516001600160a01b0390921691638f16c41c91602480820192602092909190829003018186803b15801561332357600080fd5b505afa158015613337573d6000803e3d6000fd5b505050506040513d602081101561334d57600080fd5b505161335857600080fd5b6001600160a01b03909216600081815260146020908152604080832094835293815283822085905591815260118252918220805460018101825590835291200155565b601c5481565b600054604080516323c5b10760e21b815233600482015290516001600160a01b0390921691638f16c41c91602480820192602092909190829003018186803b1580156133ec57600080fd5b505afa158015613400573d6000803e3d6000fd5b505050506040513d602081101561341657600080fd5b505161342157600080fd5b8160000b6001141561345c5760008381526009602052604090205461344c908263ffffffff61383116565b6000848152600960205260409020555b8160000b6000191415612dd45760008381526009602052604090206001015461348b908263ffffffff61383116565b600084815260096020526040902060010155505050565b6001546001600160a01b031681565b600054604080516323c5b10760e21b815233600482015290516001600160a01b0390921691638f16c41c91602480820192602092909190829003018186803b1580156134fc57600080fd5b505afa158015613510573d6000803e3d6000fd5b505050506040513d602081101561352657600080fd5b505161353157600080fd5b806004838154811061353f57fe5b906000526020600020906004020160030160016101000a81548160ff0219169083151502179055505050565b6001600160a01b038216600090815260116020526040812080548390811061358f57fe5b9060005260206000200154905092915050565b600054604080516323c5b10760e21b815233600482015290516001600160a01b0390921691638f16c41c91602480820192602092909190829003018186803b1580156135ed57600080fd5b505afa158015613601573d6000803e3d6000fd5b505050506040513d602081101561361757600080fd5b505161362257600080fd5b601755565b6000818152600e60209081526040808320600f83528184208154835181860281018601909452808452606094859488949392909184919083018282801561368d57602002820191906000526020600020905b815481526020019060010190808311613679575b50505050509150808054806020026020016040519081016040528092919081815260200182805480156136df57602002820191906000526020600020905b8154815260200190600101908083116136cb575b505050505090509250925092509193909250565b600054604080516323c5b10760e21b815233600482015290516001600160a01b0390921691638f16c41c91602480820192602092909190829003018186803b15801561373e57600080fd5b505afa158015613752573d6000803e3d6000fd5b505050506040513d602081101561376857600080fd5b505161377357600080fd5b6000918252600c602052604090912055565b6001600160a01b038216600090815260106020526040812080548390811061358f57fe5b6000806000806000600386815481106137be57fe5b60009182526020808320600290920290910154888352600b8252604080842054600c9093528320546003805492949390930b9290918a9081106137fd57fe5b60009182526020808320600160029093020191909101549a8252600d90526040902054929991989097509550909350915050565b600082820183811015611349576040805162461bcd60e51b815260206004820152601b60248201527f536166654d6174683a206164646974696f6e206f766572666c6f770000000000604482015290519081900360640190fd5b600061134983836040518060400160405280601e81526020017f536166654d6174683a207375627472616374696f6e206f766572666c6f7700008152506138fa565b601a55565b601b55565b601c55565b601955565b601d55565b601e55565b601f55565b602055565b602155565b600081848411156139895760405162461bcd60e51b81526004018080602001828103825283818151815260200191508051906020019080838360005b8381101561394e578181015183820152602001613936565b50505050905090810190601f16801561397b5780820380516001836020036101000a031916815260200191505b509250505060405180910390fd5b50505090039056fea265627a7a72315820e273b236cdedc322136d55879fcd5110cccf15cf7f29d072dae7ed02088a922464736f6c63430005110032",
  "linkReferences": {},
  "deployedLinkReferences": {}
}