{
  "_format": "hh-sol-artifact-1",
  "contractName": "NXMaster",
  "sourceName": "contracts/NexusMutual/modules/governance/NXMaster.sol",
  "abi": [
    {
      "constant": false,
      "inputs": [
        {
          "internalType": "bool",
          "name": "_pause",
          "type": "bool"
        },
        {
          "internalType": "bytes4",
          "name": "_by",
          "type": "bytes4"
        }
      ],
      "name": "addEmergencyPause",
      "outputs": [],
      "payable": false,
      "stateMutability": "nonpayable",
      "type": "function"
    },
    {
      "constant": false,
      "inputs": [
        {
          "internalType": "bytes2",
          "name": "_contractName",
          "type": "bytes2"
        },
        {
          "internalType": "address payable",
          "name": "_contractAddress",
          "type": "address"
        },
        {
          "internalType": "uint256",
          "name": "_type",
          "type": "uint256"
        }
      ],
      "name": "addNewInternalContract",
      "outputs": [],
      "payable": false,
      "stateMutability": "nonpayable",
      "type": "function"
    },
    {
      "constant": false,
      "inputs": [
        {
          "internalType": "address payable[]",
          "name": "_contractAddresses",
          "type": "address[]"
        }
      ],
      "name": "addNewVersion",
      "outputs": [],
      "payable": false,
      "stateMutability": "nonpayable",
      "type": "function"
    },
    {
      "constant": true,
      "inputs": [
        {
          "internalType": "address",
          "name": "_add",
          "type": "address"
        }
      ],
      "name": "checkIsAuthToGoverned",
      "outputs": [
        {
          "internalType": "bool",
          "name": "",
          "type": "bool"
        }
      ],
      "payable": false,
      "stateMutability": "view",
      "type": "function"
    },
    {
      "constant": false,
      "inputs": [
        {
          "internalType": "uint256",
          "name": "_claimId",
          "type": "uint256"
        }
      ],
      "name": "closeClaim",
      "outputs": [],
      "payable": false,
      "stateMutability": "nonpayable",
      "type": "function"
    },
    {
      "constant": true,
      "inputs": [
        {
          "internalType": "address",
          "name": "",
          "type": "address"
        }
      ],
      "name": "contractsActive",
      "outputs": [
        {
          "internalType": "bool",
          "name": "",
          "type": "bool"
        }
      ],
      "payable": false,
      "stateMutability": "view",
      "type": "function"
    },
    {
      "constant": true,
      "inputs": [],
      "name": "dAppLocker",
      "outputs": [
        {
          "internalType": "address",
          "name": "_add",
          "type": "address"
        }
      ],
      "payable": false,
      "stateMutability": "view",
      "type": "function"
    },
    {
      "constant": true,
      "inputs": [],
      "name": "dAppToken",
      "outputs": [
        {
          "internalType": "address",
          "name": "_add",
          "type": "address"
        }
      ],
      "payable": false,
      "stateMutability": "view",
      "type": "function"
    },
    {
      "constant": false,
      "inputs": [
        {
          "internalType": "bytes32",
          "name": "myid",
          "type": "bytes32"
        }
      ],
      "name": "delegateCallBack",
      "outputs": [],
      "payable": false,
      "stateMutability": "nonpayable",
      "type": "function"
    },
    {
      "constant": true,
      "inputs": [
        {
          "internalType": "uint256",
          "name": "",
          "type": "uint256"
        }
      ],
      "name": "emergencyPaused",
      "outputs": [
        {
          "internalType": "bool",
          "name": "pause",
          "type": "bool"
        },
        {
          "internalType": "uint256",
          "name": "time",
          "type": "uint256"
        },
        {
          "internalType": "bytes4",
          "name": "by",
          "type": "bytes4"
        }
      ],
      "payable": false,
      "stateMutability": "view",
      "type": "function"
    },
    {
      "constant": true,
      "inputs": [],
      "name": "getEmergencyPausedLength",
      "outputs": [
        {
          "internalType": "uint256",
          "name": "len",
          "type": "uint256"
        }
      ],
      "payable": false,
      "stateMutability": "view",
      "type": "function"
    },
    {
      "constant": true,
      "inputs": [],
      "name": "getLastEmergencyPause",
      "outputs": [
        {
          "internalType": "bool",
          "name": "_pause",
          "type": "bool"
        },
        {
          "internalType": "uint256",
          "name": "_time",
          "type": "uint256"
        },
        {
          "internalType": "bytes4",
          "name": "_by",
          "type": "bytes4"
        }
      ],
      "payable": false,
      "stateMutability": "view",
      "type": "function"
    },
    {
      "constant": true,
      "inputs": [
        {
          "internalType": "bytes2",
          "name": "_contractName",
          "type": "bytes2"
        }
      ],
      "name": "getLatestAddress",
      "outputs": [
        {
          "internalType": "address payable",
          "name": "contractAddress",
          "type": "address"
        }
      ],
      "payable": false,
      "stateMutability": "view",
      "type": "function"
    },
    {
      "constant": true,
      "inputs": [
        {
          "internalType": "bytes8",
          "name": "code",
          "type": "bytes8"
        }
      ],
      "name": "getOwnerParameters",
      "outputs": [
        {
          "internalType": "bytes8",
          "name": "codeVal",
          "type": "bytes8"
        },
        {
          "internalType": "address",
          "name": "val",
          "type": "address"
        }
      ],
      "payable": false,
      "stateMutability": "view",
      "type": "function"
    },
    {
      "constant": true,
      "inputs": [],
      "name": "getVersionData",
      "outputs": [
        {
          "internalType": "bytes2[]",
          "name": "contractsName",
          "type": "bytes2[]"
        },
        {
          "internalType": "address[]",
          "name": "contractsAddress",
          "type": "address[]"
        }
      ],
      "payable": false,
      "stateMutability": "view",
      "type": "function"
    },
    {
      "constant": false,
      "inputs": [
        {
          "internalType": "address",
          "name": "_tokenAdd",
          "type": "address"
        }
      ],
      "name": "initiateMaster",
      "outputs": [],
      "payable": false,
      "stateMutability": "nonpayable",
      "type": "function"
    },
    {
      "constant": true,
      "inputs": [
        {
          "internalType": "address",
          "name": "_toCheck",
          "type": "address"
        }
      ],
      "name": "isAuthorizedToGovern",
      "outputs": [
        {
          "internalType": "bool",
          "name": "",
          "type": "bool"
        }
      ],
      "payable": false,
      "stateMutability": "view",
      "type": "function"
    },
    {
      "constant": true,
      "inputs": [
        {
          "internalType": "address",
          "name": "_contractAddress",
          "type": "address"
        }
      ],
      "name": "isInternal",
      "outputs": [
        {
          "internalType": "bool",
          "name": "",
          "type": "bool"
        }
      ],
      "payable": false,
      "stateMutability": "view",
      "type": "function"
    },
    {
      "constant": true,
      "inputs": [
        {
          "internalType": "address",
          "name": "_add",
          "type": "address"
        }
      ],
      "name": "isMember",
      "outputs": [
        {
          "internalType": "bool",
          "name": "",
          "type": "bool"
        }
      ],
      "payable": false,
      "stateMutability": "view",
      "type": "function"
    },
    {
      "constant": true,
      "inputs": [
        {
          "internalType": "address",
          "name": "_address",
          "type": "address"
        }
      ],
      "name": "isOwner",
      "outputs": [
        {
          "internalType": "bool",
          "name": "",
          "type": "bool"
        }
      ],
      "payable": false,
      "stateMutability": "view",
      "type": "function"
    },
    {
      "constant": true,
      "inputs": [],
      "name": "isPause",
      "outputs": [
        {
          "internalType": "bool",
          "name": "",
          "type": "bool"
        }
      ],
      "payable": false,
      "stateMutability": "view",
      "type": "function"
    },
    {
      "constant": true,
      "inputs": [
        {
          "internalType": "bytes2",
          "name": "",
          "type": "bytes2"
        }
      ],
      "name": "isProxy",
      "outputs": [
        {
          "internalType": "bool",
          "name": "",
          "type": "bool"
        }
      ],
      "payable": false,
      "stateMutability": "view",
      "type": "function"
    },
    {
      "constant": true,
      "inputs": [
        {
          "internalType": "bytes2",
          "name": "",
          "type": "bytes2"
        }
      ],
      "name": "isUpgradable",
      "outputs": [
        {
          "internalType": "bool",
          "name": "",
          "type": "bool"
        }
      ],
      "payable": false,
      "stateMutability": "view",
      "type": "function"
    },
    {
      "constant": true,
      "inputs": [],
      "name": "masterAddress",
      "outputs": [
        {
          "internalType": "address",
          "name": "",
          "type": "address"
        }
      ],
      "payable": false,
      "stateMutability": "view",
      "type": "function"
    },
    {
      "constant": true,
      "inputs": [],
      "name": "masterInitialized",
      "outputs": [
        {
          "internalType": "bool",
          "name": "",
          "type": "bool"
        }
      ],
      "payable": false,
      "stateMutability": "view",
      "type": "function"
    },
    {
      "constant": true,
      "inputs": [],
      "name": "owner",
      "outputs": [
        {
          "internalType": "address",
          "name": "",
          "type": "address"
        }
      ],
      "payable": false,
      "stateMutability": "view",
      "type": "function"
    },
    {
      "constant": true,
      "inputs": [],
      "name": "pauseTime",
      "outputs": [
        {
          "internalType": "uint256",
          "name": "",
          "type": "uint256"
        }
      ],
      "payable": false,
      "stateMutability": "view",
      "type": "function"
    },
    {
      "constant": false,
      "inputs": [],
      "name": "startEmergencyPause",
      "outputs": [],
      "payable": false,
      "stateMutability": "nonpayable",
      "type": "function"
    },
    {
      "constant": true,
      "inputs": [],
      "name": "tokenAddress",
      "outputs": [
        {
          "internalType": "address",
          "name": "",
          "type": "address"
        }
      ],
      "payable": false,
      "stateMutability": "view",
      "type": "function"
    },
    {
      "constant": false,
      "inputs": [
        {
          "internalType": "bytes8",
          "name": "code",
          "type": "bytes8"
        },
        {
          "internalType": "address payable",
          "name": "val",
          "type": "address"
        }
      ],
      "name": "updateOwnerParameters",
      "outputs": [],
      "payable": false,
      "stateMutability": "nonpayable",
      "type": "function"
    },
    {
      "constant": false,
      "inputs": [
        {
          "internalType": "uint256",
          "name": "_time",
          "type": "uint256"
        }
      ],
      "name": "updatePauseTime",
      "outputs": [],
      "payable": false,
      "stateMutability": "nonpayable",
      "type": "function"
    },
    {
      "constant": false,
      "inputs": [
        {
          "internalType": "bytes2[]",
          "name": "_contractsName",
          "type": "bytes2[]"
        },
        {
          "internalType": "address payable[]",
          "name": "_contractsAddress",
          "type": "address[]"
        }
      ],
      "name": "upgradeMultipleContracts",
      "outputs": [],
      "payable": false,
      "stateMutability": "nonpayable",
      "type": "function"
    },
    {
      "constant": false,
      "inputs": [
        {
          "internalType": "bytes2[]",
          "name": "_contractNames",
          "type": "bytes2[]"
        },
        {
          "internalType": "address[]",
          "name": "_contractAddresses",
          "type": "address[]"
        }
      ],
      "name": "upgradeMultipleImplementations",
      "outputs": [],
      "payable": false,
      "stateMutability": "nonpayable",
      "type": "function"
    }
  ],
  "bytecode": "0x608060405234801561001057600080fd5b50614754806100206000396000f3fe60806040523480156200001157600080fd5b50600436106200022c5760003560e01c80638dd7ff9a1162000135578063c3e4d67211620000bd578063eaf2c4771162000087578063eaf2c47714620008f1578063fa00d88414620008fb578063fa3c8a901462000925578063ff0938a7146200092f578063ffa399291462000939576200022c565b8063c3e4d67214620007e7578063c74de0651462000807578063d365a08e14620008ae578063e2cab14d14620008b8576200022c565b8063a97ea79411620000ff578063a97ea79414620005b4578063b96a8995146200065b578063bf1f28191462000787578063c15041d514620007dd576200022c565b80638dd7ff9a14620005385780638f16c41c14620005585780639d76ea581462000581578063a230c524146200058b576200022c565b80633a12507f11620001b957806371a2b7f7116200018357806371a2b7f714620004e457806378ddbed41462000504578063872f1eb314620005245780638da5cb5b146200052e576200022c565b80633a12507f14620003c057806344d479e714620003ca57806347f4f88514620003f45780635834e67a14620004bb576200022c565b806322ce725411620001fb57806322ce725414620002fb5780632c72135314620003245780632d4c115214620003635780632f54bf6e1462000397576200022c565b8063013828581462000231578063015cb3ff146200027757806301c09f1414620002935780631593e7fc14620002d0575b600080fd5b6200025b600480360360208110156200024957600080fd5b50356001600160f01b0319166200096b565b604080516001600160a01b039092168252519081900360200190f35b6200028162000990565b60408051918252519081900360200190f35b620002bc60048036036020811015620002ab57600080fd5b50356001600160a01b031662000996565b604080519115158252519081900360200190f35b620002f960048036036020811015620002e857600080fd5b50356001600160a01b0316620009ab565b005b620002bc600480360360208110156200031357600080fd5b50356001600160a01b031662000f72565b620002f9600480360360608110156200033c57600080fd5b506001600160f01b0319813516906001600160a01b03602082013516906040013562001009565b6200036d6200136c565b60408051931515845260208401929092526001600160e01b03191682820152519081900360600190f35b620002bc60048036036020811015620003af57600080fd5b50356001600160a01b031662001411565b6200025b62001425565b620002bc60048036036020811015620003e257600080fd5b50356001600160f01b0319166200143c565b620002f9600480360360408110156200040c57600080fd5b810190602081018135600160201b8111156200042757600080fd5b8201836020820111156200043a57600080fd5b803590602001918460208302840111600160201b831117156200045c57600080fd5b919390929091602081019035600160201b8111156200047a57600080fd5b8201836020820111156200048d57600080fd5b803590602001918460208302840111600160201b83111715620004af57600080fd5b50909250905062001451565b620002bc60048036036020811015620004d357600080fd5b50356001600160a01b031662001764565b6200036d60048036036020811015620004fc57600080fd5b503562001777565b620002f9600480360360208110156200051c57600080fd5b5035620017af565b620002f962001806565b6200025b62001a11565b620002f9600480360360208110156200055057600080fd5b503562001a20565b620002bc600480360360208110156200057057600080fd5b50356001600160a01b0316620022db565b6200025b620022f9565b620002bc60048036036020811015620005a357600080fd5b50356001600160a01b031662002308565b620002f960048036036020811015620005cc57600080fd5b810190602081018135600160201b811115620005e757600080fd5b820183602082011115620005fa57600080fd5b803590602001918460208302840111600160201b831117156200061c57600080fd5b919080806020026020016040519081016040528093929190818152602001838360200280828437600092019190915250929550620023b2945050505050565b620002f9600480360360408110156200067357600080fd5b810190602081018135600160201b8111156200068e57600080fd5b820183602082011115620006a157600080fd5b803590602001918460208302840111600160201b83111715620006c357600080fd5b9190808060200260200160405190810160405280939291908181526020018383602002808284376000920191909152509295949360208101935035915050600160201b8111156200071357600080fd5b8201836020820111156200072657600080fd5b803590602001918460208302840111600160201b831117156200074857600080fd5b91908080602002602001604051908101604052809392919081815260200183836020028082843760009201919091525092955062002762945050505050565b620007b1600480360360208110156200079f57600080fd5b50356001600160c01b03191662002f54565b604080516001600160c01b031990931683526001600160a01b0390911660208301528051918290030190f35b620002bc620032aa565b620002f960048036036020811015620007ff57600080fd5b5035620032ba565b6200081162003387565b604051808060200180602001838103835285818151815260200191508051906020019060200280838360005b83811015620008575781810151838201526020016200083d565b50505050905001838103825284818151815260200191508051906020019060200280838360005b83811015620008985781810151838201526020016200087e565b5050505090500194505050505060405180910390f35b6200025b620034da565b620002f960048036036040811015620008d057600080fd5b5080356001600160c01b03191690602001356001600160a01b0316620034e9565b6200025b62003a3d565b620002bc600480360360208110156200091357600080fd5b50356001600160f01b03191662003a4c565b6200028162003a61565b620002bc62003a67565b620002f9600480360360408110156200095157600080fd5b508035151590602001356001600160e01b03191662003aa3565b6001600160f01b0319166000908152600460205260409020546001600160a01b031690565b60095481565b60036020526000908152604090205460ff1681565b6000309050806001600160a01b031663025313a26040518163ffffffff1660e01b815260040160206040518083038186803b158015620009ea57600080fd5b505afa158015620009ff573d6000803e3d6000fd5b505050506040513d602081101562000a1657600080fd5b50516001600160a01b0316331462000a75576040805162461bcd60e51b815260206004820152601a60248201527f53656e646572206973206e6f742070726f7879206f776e65722e000000000000604482015290519081900360640190fd5b600a5460ff161562000ace576040805162461bcd60e51b815260206004820152601860248201527f436f6e7374727563746f7220616c72656164792072616e2e0000000000000000604482015290519081900360640190fd5b50600a805460ff199081166001908117909255600780546001600160a01b039094166001600160a01b031994851617905560088054841633179055600080549093163090811784558352600360209081526040842080548316841790556224ea0060095560028054808501825560108082047f405787fa12a823e0f2b7631cc41b3ba8828b3321ca811111fa75cd3aa3bb5ace9081018054615144600f958616870261010090810a91820261ffff92830219909316929092179092558554808a018755848104840180546154449288168902840a92830292850219169190911790558554808a018755848104840180546143449288168902840a92830292850219169190911790558554808a018755848104840180546150449288168902840a92830292850219169190911790558554808a018755848104840180546151549288168902840a92830292850219169190911790558554808a018755848104840180546154469288168902840a92830292850219169190911790558554808a018755848104840180546154439288168902840a92830292850219169190911790558554808a0187558481048401805461434c9288168902840a92830292850219169190911790558554808a018755848104840180546143529288168902840a92830292850219169190911790558554808a018755848104840180546150319288168902840a92830292850219169190911790558554808a018755848104840180546150329288168902840a92830292850219169190911790558554808a01875584810484018054614d439288168902840a92830292850219169190911790558554808a018755848104840180546147569288168902840a92830292850219169190911790558554808a018755848104840180546150439288168902840a92830292850219169190911790558554808a0187559384049092018054614d529490951690950290910a9182029102199091161790557fa4e06c9270ca5d91a9c42425a0d9d6b8bab7d176f826788ef45adbd62b8668b080548316841790557f572f2f4f7145bdb0a843d6115e9ce469dd3e98085dea06b838389b6ea83f4a5280548316841790557f05f4eda2cc2212af7e847583f7a9d9453228a4affba4d7295fdc22180904375080548316841790557fe6628e527cc9b86d0d7bdb48ff37c9e2a22780087ea871f8d3422104c17bbd1180548316841790557fce0ee55b9b973205227b71b89c5a51200f6f740af2e35cd5bc2986df74ecaadc80548316841790557f1091cd77902cd13d833530bb2aacb3ce010113ef80e3650a198cda4ac61141fb80548316841790557f72b983e1791f172486298016d1db34f85432a011d8a96396243f2c744d825f048054831684179055600590527f70ad5881489813e00231a9fbec33d433db794bc50171aa2fe63e01d6c70cd1e880548216831790557fff0bd943096624e2e1571cbbca4031431b1cf0180e6c5858b8df8b140e5ba4ca80548216831790557f50fc44ab35440e3c8207167a7417f7d29be830bc0ad340eceaa6c93ca2cdb7bb80548216831790556126a960f11b9092527f0fd8fc8935b1eee8a0a8c559390e5c55f8aa70a933933f296f0d51813220e6b58054909216179055565b60008054604080516227050b60e31b81526123ab60f11b600482015290516001600160a01b03928316928516918391630138285891602480820192602092909190829003018186803b15801562000fc857600080fd5b505afa15801562000fdd573d6000803e3d6000fd5b505050506040513d602081101562000ff457600080fd5b50516001600160a01b0316149150505b919050565b600054604080516227050b60e31b81526123ab60f11b600482015290516001600160a01b039092169133918391630138285891602480820192602092909190829003018186803b1580156200105d57600080fd5b505afa15801562001072573d6000803e3d6000fd5b505050506040513d60208110156200108957600080fd5b50516001600160a01b031614620010d8576040805162461bcd60e51b815260206004820152600e60248201526d139bdd08185d5d1a1bdc9a5e995960921b604482015290519081900360640190fd5b6001600160f01b031984166000908152600460205260409020546001600160a01b031615620011395760405162461bcd60e51b8152600401808060200182810382526023815260200180620046c36023913960400191505060405180910390fd5b6001600160a01b03831662001195576040805162461bcd60e51b815260206004820152601c60248201527f4e554c4c2061646472657373206973206e6f7420616c6c6f7765642e00000000604482015290519081900360640190fd5b60028054600181810183556000839052601082047f405787fa12a823e0f2b7631cc41b3ba8828b3321ca811111fa75cd3aa3bb5ace01805460f089901c600f9094169094026101000a92830261ffff9093021990931691909117909155839083141562001226576001600160f01b031985166000908152600660205260409020805460ff1916600117905562001262565b826002141562001262576200123b8462003d59565b6001600160f01b031986166000908152600560205260409020805460ff1916600117905590505b6001600160f01b03198516600081815260046020818152604080842080546001600160a01b0319166001600160a01b03888116918217835590865260038452828620805460ff191660011790559585529183905290548151633519957d60e21b815230938101939093529051931692839263d46655f4926024808201939182900301818387803b158015620012f657600080fd5b505af11580156200130b573d6000803e3d6000fd5b50505050806001600160a01b0316630ea9c9846040518163ffffffff1660e01b8152600401600060405180830381600087803b1580156200134b57600080fd5b505af115801562001360573d6000803e3d6000fd5b50505050505050505050565b60008080806200137b62003a61565b905080156200140b576200139781600163ffffffff62003da116565b905060018181548110620013a757fe5b60009182526020909120600390910201546001805460ff90921695509082908110620013cf57fe5b906000526020600020906003020160010154925060018181548110620013f157fe5b600091825260209091206002600390920201015460e01b91505b50909192565b6008546001600160a01b0391821691161490565b60006200143761544360f01b6200096b565b905090565b60056020526000908152604090205460ff1681565b600054604080516227050b60e31b81526123ab60f11b600482015290516001600160a01b039092169133918391630138285891602480820192602092909190829003018186803b158015620014a557600080fd5b505afa158015620014ba573d6000803e3d6000fd5b505050506040513d6020811015620014d157600080fd5b50516001600160a01b03161462001520576040805162461bcd60e51b815260206004820152600e60248201526d139bdd08185d5d1a1bdc9a5e995960921b604482015290519081900360640190fd5b83821462001575576040805162461bcd60e51b815260206004820152601d60248201527f4172726179206c656e6774682073686f756c6420626520657175616c2e000000604482015290519081900360640190fd5b60005b848110156200175c5760008484838181106200159057fe5b905060200201356001600160a01b03166001600160a01b03161415620015fd576040805162461bcd60e51b815260206004820152601c60248201527f6e756c6c2061646472657373206973206e6f7420616c6c6f7765642e00000000604482015290519081900360640190fd5b600560008787848181106200160e57fe5b602090810292909201356001600160f01b0319168352508101919091526040016000205460ff1662001687576040805162461bcd60e51b815260206004820152601960248201527f436f6e74726163742073686f756c642062652070726f78792e00000000000000604482015290519081900360640190fd5b6000600460008888858181106200169a57fe5b602090810292909201356001600160f01b031916835250810191909152604001600020546001600160a01b0316905080633659cfe6868685818110620016dc57fe5b905060200201356001600160a01b03166040518263ffffffff1660e01b815260040180826001600160a01b03166001600160a01b03168152602001915050600060405180830381600087803b1580156200173557600080fd5b505af11580156200174a573d6000803e3d6000fd5b50506001909301925062001578915050565b505050505050565b6000620017718262000f72565b92915050565b600181815481106200178557fe5b600091825260209091206003909102018054600182015460029092015460ff909116925060e01b83565b620017ba33620022db565b62001801576040805162461bcd60e51b81526020600482015260126024820152712737ba1034b73a32b93730b61031b0b6361760711b604482015290519081900360640190fd5b600955565b600054604080516227050b60e31b81526123ab60f11b600482015290516001600160a01b039092169133918391630138285891602480820192602092909190829003018186803b1580156200185a57600080fd5b505afa1580156200186f573d6000803e3d6000fd5b505050506040513d60208110156200188657600080fd5b50516001600160a01b031614620018d5576040805162461bcd60e51b815260206004820152600e60248201526d139bdd08185d5d1a1bdc9a5e995960921b604482015290519081900360640190fd5b620018e760016120a160f11b62003aa3565b61503160f01b6000908152600460208190527f65e528c366d24fe1267504a3fd0d0e6ee46d1498cc6709837295d0fa5e6286545460095460408051631b1d4d6160e31b815293840191909152516001600160a01b0390911692839263d8ea6b08926024808301939282900301818387803b1580156200196557600080fd5b505af11580156200197a573d6000803e3d6000fd5b50506110d360f21b6000908152600460208190527f50dbf33991a9c6292dc70c7475ec00e23dd381ac44ce9260861463e58f0f3b705460408051633802167160e01b815290516001600160a01b0390921695508594506338021671938184019390929182900301818387803b158015620019f357600080fd5b505af115801562001a08573d6000803e3d6000fd5b50505050505050565b6008546001600160a01b031681565b600754600160a01b900460ff161562001a72576040805162461bcd60e51b815260206004820152600f60248201526e2932b2b73a3930b73a1031b0b6361760891b604482015290519081900360640190fd5b6007805460ff60a01b1916600160a01b179055600062001a9761141160f21b6200096b565b90506000816001600160a01b03166346583d09846040518263ffffffff1660e01b81526004018082815260200191505060206040518083038186803b15801562001ae057600080fd5b505afa15801562001af5573d6000803e3d6000fd5b505050506040513d602081101562001b0c57600080fd5b50516040805163193bdf4b60e11b815260048101869052905167ffffffffffffffff90921692506000916001600160a01b03851691633277be96916024808301926020929190829003018186803b15801562001b6757600080fd5b505afa15801562001b7c573d6000803e3d6000fd5b505050506040513d602081101562001b9357600080fd5b505167ffffffffffffffff16905081811462001bf6576040805162461bcd60e51b815260206004820152601960248201527f43616c6c6261636b20616c726561647920726563656976656400000000000000604482015290519081900360640190fd5b6000836001600160a01b031663fd3e44d5866040518263ffffffff1660e01b81526004018082815260200191505060206040518083038186803b15801562001c3d57600080fd5b505afa15801562001c52573d6000803e3d6000fd5b505050506040513d602081101562001c6957600080fd5b5051604080516361b6c00f60e01b81526004810188905290519192506001600160a01b038616916361b6c00f9160248082019260009290919082900301818387803b15801562001cb857600080fd5b505af115801562001ccd573d6000803e3d6000fd5b5050505062001cdb62003a67565b1562001e1857600062001ced6200136c565b925050506001600160e01b0319821661045560f41b1462001d405760405162461bcd60e51b815260040180806020018281038252603a815260200180620046e6603a913960400191505060405180910390fd5b4262001d586009548662003dec90919063ffffffff16565b1062001dab576040805162461bcd60e51b815260206004820152601c60248201527f43616c6c6261636b207761732063616c6c656420746f6f20736f6f6e00000000604482015290519081900360640190fd5b6120a160f11b6001600160e01b031982161462001dfa5760405162461bcd60e51b8152600401808060200182810382526032815260200180620046916032913960400191505060405180910390fd5b62001e0d60006210555560ea1b62003aa3565b5050505050620022cb565b6000846001600160a01b031663371e6e12876040518263ffffffff1660e01b81526004018082815260200191505060206040518083038186803b15801562001e5f57600080fd5b505afa15801562001e74573d6000803e3d6000fd5b505050506040513d602081101562001e8b57600080fd5b505190506221a7ab60e91b6001600160e01b03198316141562001f2857600062001eba61145560f21b6200096b565b9050806001600160a01b031663f4136f7f836040518263ffffffff1660e01b815260040180828152602001915050600060405180830381600087803b15801562001f0357600080fd5b505af115801562001f18573d6000803e3d6000fd5b50505050505050505050620022cb565b62434c4160e81b6001600160e01b03198316141562001ff95762001f4c8162003e47565b62001f9e576040805162461bcd60e51b815260206004820152601d60248201527f5061796f75742072657472792074696d65206e6f742072656163686564000000604482015290519081900360640190fd5b600062001fb06121a960f11b6200096b565b9050806001600160a01b0316637f6715c9836040518263ffffffff1660e01b815260040180828152602001915050600060405180830381600087803b15801562001f0357600080fd5b6326a1a92360e11b6001600160e01b0319831614156200215057426200208e866001600160a01b031663702ddaab6040518163ffffffff1660e01b815260040160206040518083038186803b1580156200205257600080fd5b505afa15801562002067573d6000803e3d6000fd5b505050506040513d60208110156200207e57600080fd5b5051869063ffffffff62003dec16565b10620020e1576040805162461bcd60e51b815260206004820152601c60248201527f4d435220706f7374696e672074696d65206e6f74207265616368656400000000604482015290519081900360640190fd5b6000620020f3614d4360f01b6200096b565b9050806001600160a01b03166380f34275836040518263ffffffff1660e01b8152600401808267ffffffffffffffff1667ffffffffffffffff168152602001915050600060405180830381600087803b15801562001f0357600080fd5b6215531560ea1b6001600160e01b0319831614156200224b5742620021a8866001600160a01b0316636549ff586040518163ffffffff1660e01b815260040160206040518083038186803b1580156200205257600080fd5b10620021fb576040805162461bcd60e51b815260206004820181905260248201527f4c69717569646974792074726164652074696d65206e6f742072656163686564604482015290519081900360640190fd5b60006200220d61281960f11b6200096b565b9050806001600160a01b031663f720036c6040518163ffffffff1660e01b8152600401600060405180830381600087803b15801562001f0357600080fd5b6226a1a960e91b6001600160e01b0319831614806200227a57506324a0a92160e11b6001600160e01b03198316145b156200228b575050505050620022cb565b6040805162461bcd60e51b815260206004820152601060248201526f496e76616c69642063616c6c6261636b60801b604482015290519081900360640190fd5b506007805460ff60a01b19169055565b6001600160a01b031660009081526003602052604090205460ff1690565b6007546001600160a01b031681565b6000806200231b6126a960f11b6200096b565b90506001600160a01b03811663505ef22f8460026040518363ffffffff1660e01b815260040180836001600160a01b03166001600160a01b031681526020018281526020019250505060206040518083038186803b1580156200237d57600080fd5b505afa15801562002392573d6000803e3d6000fd5b505050506040513d6020811015620023a957600080fd5b50519392505050565b6008546001600160a01b031633148015620023d75750600754600160a81b900460ff16155b620024145760405162461bcd60e51b81526004018080602001828103825260368152602001806200465b6036913960400191505060405180910390fd5b60025481511462002464576040805162461bcd60e51b81526020600482015260156024820152746172726179206c656e677468206e6f742073616d6560581b604482015290519081900360640190fd5b6007805460ff60a81b1916600160a81b17905580516000908290600e9081106200248a57fe5b6020026020010151905060008090505b600254811015620026005760006001600160a01b0316838281518110620024bd57fe5b60200260200101516001600160a01b0316141562002522576040805162461bcd60e51b815260206004820152601c60248201527f4e554c4c2061646472657373206973206e6f7420616c6c6f7765642e00000000604482015290519081900360640190fd5b8281815181106200252f57fe5b602002602001015160046000600284815481106200254957fe5b90600052602060002090601091828204019190066002029054906101000a900460f01b6001600160f01b0319166001600160f01b031916815260200190815260200160002060006101000a8154816001600160a01b0302191690836001600160a01b03160217905550600160036000858481518110620025c557fe5b6020908102919091018101516001600160a01b03168252810191909152604001600020805460ff19169115159190911790556001016200249a565b5060606001600160a01b038216635daf08ca60036040518263ffffffff1660e01b81526004018082815260200191505060006040518083038186803b1580156200264957600080fd5b505afa1580156200265e573d6000803e3d6000fd5b505050506040513d6000823e601f3d908101601f1916820160409081528110156200268857600080fd5b815160208301805160405192949293830192919084600160201b821115620026af57600080fd5b908301906020820185811115620026c557600080fd5b82518660208202830111600160201b82111715620026e257600080fd5b82525081516020918201928201910280838360005b8381101562002711578181015183820152602001620026f7565b50505050905001604052505050915050806000815181106200272f57fe5b6020026020010151600860006101000a8154816001600160a01b0302191690836001600160a01b03160217905550505050565b600054604080516227050b60e31b81526123ab60f11b600482015290516001600160a01b039092169133918391630138285891602480820192602092909190829003018186803b158015620027b657600080fd5b505afa158015620027cb573d6000803e3d6000fd5b505050506040513d6020811015620027e257600080fd5b50516001600160a01b03161462002831576040805162461bcd60e51b815260206004820152600e60248201526d139bdd08185d5d1a1bdc9a5e995960921b604482015290519081900360640190fd5b815183511462002888576040805162461bcd60e51b815260206004820152601d60248201527f4172726179206c656e6774682073686f756c6420626520657175616c2e000000604482015290519081900360640190fd5b60005b835181101562002f44576000838281518110620028a457fe5b6020026020010151905060006001600160a01b0316816001600160a01b0316141562002917576040805162461bcd60e51b815260206004820152601c60248201527f4e554c4c2061646472657373206973206e6f7420616c6c6f7765642e00000000604482015290519081900360640190fd5b600660008684815181106200292857fe5b6020908102919091018101516001600160f01b03191682528101919091526040016000205460ff16620029a2576040805162461bcd60e51b815260206004820152601e60248201527f436f6e74726163742073686f756c642062652075706772616461626c652e0000604482015290519081900360640190fd5b848281518110620029af57fe5b60200260200101516001600160f01b03191661145560f21b141562002a6f5761145560f21b6000908152600460208190527f1d549787ccb98156df3526786c57fb04170d054a2d956c25ea0d700f2f1ba36e5460408051633898a65d60e21b81526001600160a01b038681169482019490945290519290911692839263e262997492602480820193929182900301818387803b15801562002a4f57600080fd5b505af115801562002a64573d6000803e3d6000fd5b505050505062002dcc565b84828151811062002a7c57fe5b60200260200101516001600160f01b0319166121a960f11b141562002c5757600062002aad61544360f01b6200096b565b9050806001600160a01b031663e43252d7836040518263ffffffff1660e01b815260040180826001600160a01b03166001600160a01b03168152602001915050600060405180830381600087803b15801562002b0857600080fd5b505af115801562002b1d573d6000803e3d6000fd5b50506121a960f11b6000908152600460208190527f81a16a8e02e895bc8f23c4b57164801632b22336e581fdbd05bc322b5dbf84745460408051638ab1d68160e01b81526001600160a01b0392831693810193909352519086169450638ab1d68193506024808301939282900301818387803b15801562002b9d57600080fd5b505af115801562002bb2573d6000803e3d6000fd5b50506121a960f11b6000908152600460208190527f81a16a8e02e895bc8f23c4b57164801632b22336e581fdbd05bc322b5dbf8474546040805162900f0160e41b81526001600160a01b03898116948201949094529051929091169450849350630900f01092602480830193919282900301818387803b15801562002c3657600080fd5b505af115801562002c4b573d6000803e3d6000fd5b50505050505062002dcc565b84828151811062002c6457fe5b60200260200101516001600160f01b03191661503160f01b141562002d045761503160f01b6000908152600460208190527f65e528c366d24fe1267504a3fd0d0e6ee46d1498cc6709837295d0fa5e62865454604080516366fd551d60e01b81526001600160a01b03868116948201949094529051929091169283926366fd551d92602480820193929182900301818387803b15801562002a4f57600080fd5b84828151811062002d1157fe5b60200260200101516001600160f01b03191661281960f11b141562002dcc5761281960f11b6000908152600460208190527fe7f2660f02bdcc323d33e7031a5358e57ee06db4b5c7736fbd9ebbc29573a91f5460408051636dce9b3d60e01b81526001600160a01b0386811694820194909452905192909116928392636dce9b3d92602480820193929182900301818387803b15801562002db157600080fd5b505af115801562002dc6573d6000803e3d6000fd5b50505050505b60006004600087858151811062002ddf57fe5b6020908102919091018101516001600160f01b03191682528181019290925260409081016000908120546001600160a01b03168082526003909352908120805460ff19169055875191925083916004919089908790811062002e3d57fe5b6020908102919091018101516001600160f01b0319168252818101929092526040908101600090812080546001600160a01b0319166001600160a01b03958616179055928516835260039091528120805460ff191660011790558651600490829089908790811062002eab57fe5b6020908102919091018101516001600160f01b031916825281019190915260409081016000908120548251633519957d60e21b815230600482015292516001600160a01b039091169350839263d46655f492602480830193919282900301818387803b15801562002f1b57600080fd5b505af115801562002f30573d6000803e3d6000fd5b5050600190950194506200288b9350505050565b5062002f4f62003f85565b505050565b8060008080671354d5d05313115560c21b6001600160c01b03198516141562002ffd57600062002f8961151160f21b6200096b565b9050806001600160a01b0316636ad5b3ea6040518163ffffffff1660e01b815260040160206040518083038186803b15801562002fc557600080fd5b505afa15801562002fda573d6000803e3d6000fd5b505050506040513d602081101562002ff157600080fd5b50519350620032a39050565b664d43524e4f544160c81b6001600160c01b0319861614156200309c576200302a61141160f21b6200096b565b9050806001600160a01b031663428dfd386040518163ffffffff1660e01b815260040160206040518083038186803b1580156200306657600080fd5b505afa1580156200307b573d6000803e3d6000fd5b505050506040513d60208110156200309257600080fd5b50519250620032a3565b661110525191515160ca1b6001600160c01b0319861614156200310557620030c961141160f21b6200096b565b9050806001600160a01b031663f0f9f2546040518163ffffffff1660e01b815260040160206040518083038186803b1580156200306657600080fd5b6715539254d5d0511160c21b6001600160c01b031986161415620031715760006200313561281960f11b6200096b565b9050806001600160a01b0316633655ac3c6040518163ffffffff1660e01b815260040160206040518083038186803b15801562002fc557600080fd5b6427aba722a960d91b6001600160c01b031986161415620031a0576008546001600160a01b03169250620032a3565b660a2aa9e82aaa8960cb1b6001600160c01b0319861614156200320957620031cd61145160f21b6200096b565b9150816001600160a01b031663e2c2a5bb6040518163ffffffff1660e01b815260040160206040518083038186803b1580156200306657600080fd5b66096b28682aaa8960cb1b6001600160c01b031986161415620032a3576200323661145160f21b6200096b565b9150816001600160a01b03166384434b9f6040518163ffffffff1660e01b815260040160206040518083038186803b1580156200327257600080fd5b505afa15801562003287573d6000803e3d6000fd5b505050506040513d60208110156200329e57600080fd5b505192505b5050915091565b600754600160a81b900460ff1681565b620032c58162003e47565b62003317576040805162461bcd60e51b815260206004820152601e60248201527f5061796f75742072657472792074696d65206e6f7420726561636865642e0000604482015290519081900360640190fd5b6000620033296121a960f11b6200096b565b9050806001600160a01b0316637f6715c9836040518263ffffffff1660e01b815260040180828152602001915050600060405180830381600087803b1580156200337257600080fd5b505af11580156200175c573d6000803e3d6000fd5b60608060028054806020026020016040519081016040528092919081815260200182805480156200340557602002820191906000526020600020906000905b82829054906101000a900460f01b6001600160f01b03191681526020019060020190602082600101049283019260010382029150808411620033c65790505b505050505091506002805490506040519080825280602002602001820160405280156200343c578160200160208202803883390190505b50905060005b600254811015620034d55760046000600283815481106200345f57fe5b60009182526020808320601083040154600f9092166002026101000a90910460f01b6001600160f01b031916835282019290925260400190205482516001600160a01b0390911690839083908110620034b457fe5b6001600160a01b039092166020928302919091019091015260010162003442565b509091565b6000546001600160a01b031681565b600054604080516227050b60e31b81526123ab60f11b600482015290516001600160a01b039092169133918391630138285891602480820192602092909190829003018186803b1580156200353d57600080fd5b505afa15801562003552573d6000803e3d6000fd5b505050506040513d60208110156200356957600080fd5b50516001600160a01b031614620035b8576040805162461bcd60e51b815260206004820152600e60248201526d139bdd08185d5d1a1bdc9a5e995960921b604482015290519081900360640190fd5b600080671354d5d05313115560c21b6001600160c01b03198616141562003666576000620035eb61151160f21b6200096b565b9050806001600160a01b031663ec8edf7a866040518263ffffffff1660e01b815260040180826001600160a01b03166001600160a01b03168152602001915050600060405180830381600087803b1580156200364657600080fd5b505af11580156200365b573d6000803e3d6000fd5b505050505062003a36565b664d43524e4f544160c81b6001600160c01b0319861614156200370d576200369361141160f21b6200096b565b9050806001600160a01b0316636576ffed856040518263ffffffff1660e01b815260040180826001600160a01b03166001600160a01b03168152602001915050600060405180830381600087803b158015620036ee57600080fd5b505af115801562003703573d6000803e3d6000fd5b5050505062003a36565b661110525191515160ca1b6001600160c01b03198616141562003795576200373a61141160f21b6200096b565b9050806001600160a01b031663ca0d4c86856040518263ffffffff1660e01b815260040180826001600160a01b03166001600160a01b03168152602001915050600060405180830381600087803b158015620036ee57600080fd5b6715539254d5d0511160c21b6001600160c01b03198616141562003820576000620037c561281960f11b6200096b565b9050806001600160a01b031663b19ab66d866040518263ffffffff1660e01b815260040180826001600160a01b03166001600160a01b03168152602001915050600060405180830381600087803b1580156200364657600080fd5b6427aba722a960d91b6001600160c01b031986161415620038e45760006200384d6126a960f11b6200096b565b9050806001600160a01b03166390a79368866040518263ffffffff1660e01b815260040180826001600160a01b03166001600160a01b03168152602001915050600060405180830381600087803b158015620038a857600080fd5b505af1158015620038bd573d6000803e3d6000fd5b5050600880546001600160a01b0319166001600160a01b0389161790555062003a36915050565b660a2aa9e82aaa8960cb1b6001600160c01b0319861614156200396c576200391161145160f21b6200096b565b9150816001600160a01b0316631407264b856040518263ffffffff1660e01b815260040180826001600160a01b03166001600160a01b03168152602001915050600060405180830381600087803b158015620036ee57600080fd5b66096b28682aaa8960cb1b6001600160c01b031986161415620039f4576200399961145160f21b6200096b565b9150816001600160a01b031663549a65f4856040518263ffffffff1660e01b815260040180826001600160a01b03166001600160a01b03168152602001915050600060405180830381600087803b158015620036ee57600080fd5b6040805162461bcd60e51b8152602060048201526012602482015271496e76616c696420706172616d20636f646560701b604482015290519081900360640190fd5b5050505050565b6007546001600160a01b031690565b60066020526000908152604090205460ff1681565b60015490565b600154600090801580159062003a9d575060018082038154811062003a8857fe5b600091825260209091206003909102015460ff165b91505090565b6120a160f11b6001600160e01b03198216148062003ad057506210555560ea1b6001600160e01b03198216145b62003b12576040805162461bcd60e51b815260206004820152600d60248201526c24b73b30b634b21031b0b6361760991b604482015290519081900360640190fd5b62003b2261503160f01b6200096b565b6001600160a01b0316336001600160a01b0316148062003b62575062003b4d6123ab60f11b6200096b565b6001600160a01b0316336001600160a01b0316145b62003bb4576040805162461bcd60e51b815260206004820152601b60248201527f43616c6c61626c6520627920503120616e64204756206f6e6c792e0000000000604482015290519081900360640190fd5b6040805160608101825283151580825242602083019081526001600160e01b0319851693830193845260018054808201825560009190915292517fb10e2d527612073b26eecdfd717e6a320cf44b4afac2b0732d9fcbe2b7fa0cf66003909402938401805460ff1916911515919091179055517fb10e2d527612073b26eecdfd717e6a320cf44b4afac2b0732d9fcbe2b7fa0cf783015591517fb10e2d527612073b26eecdfd717e6a320cf44b4afac2b0732d9fcbe2b7fa0cf8909101805463ffffffff191660e09290921c91909117905562003d55576110d360f21b6000908152600460208190527f50dbf33991a9c6292dc70c7475ec00e23dd381ac44ce9260861463e58f0f3b7054604080516375a0f52160e01b815290516001600160a01b039092169384936375a0f521938382019390919082900301818387803b15801562003d0057600080fd5b505af115801562003d15573d6000803e3d6000fd5b50505050806001600160a01b0316639755fafe6040518163ffffffff1660e01b8152600401600060405180830381600087803b158015620019f357600080fd5b5050565b6000808260405162003d6b9062004168565b6001600160a01b03909116815260405190819003602001906000f08015801562003d99573d6000803e3d6000fd5b509392505050565b600062003de583836040518060400160405280601e81526020017f536166654d6174683a207375627472616374696f6e206f766572666c6f770000815250620040cd565b9392505050565b60008282018381101562003de5576040805162461bcd60e51b815260206004820152601b60248201527f536166654d6174683a206164646974696f6e206f766572666c6f770000000000604482015290519081900360640190fd5b60008062003e5a6110d160f21b6200096b565b9050600080826001600160a01b0316635aef2447866040518263ffffffff1660e01b81526004018082815260200191505060c06040518083038186803b15801562003ea457600080fd5b505afa15801562003eb9573d6000803e3d6000fd5b505050506040513d60c081101562003ed057600080fd5b5060608101516080909101519092509050600c82141562003f7a574262003f66846001600160a01b031663ee8dea636040518163ffffffff1660e01b815260040160206040518083038186803b15801562003f2a57600080fd5b505afa15801562003f3f573d6000803e3d6000fd5b505050506040513d602081101562003f5657600080fd5b5051839063ffffffff62003dec16565b111562003f7a576000935050505062001004565b506001949350505050565b60005b600254811015620040ca57600160036000600460006002868154811062003fab57fe5b60009182526020808320601083040154600f90921660029081026101000a90920460f01b6001600160f01b03191684528381019490945260409283018220546001600160a01b0316855292840194909452919091018220805460ff19169315159390931790925581549091600491839190859081106200402757fe5b60009182526020808320601083040154600f9092166002026101000a90910460f01b6001600160f01b0319168352820192909252604090810182205481516303aa726160e21b815291516001600160a01b0390911693508392630ea9c984926004808201939182900301818387803b158015620040a357600080fd5b505af1158015620040b8573d6000803e3d6000fd5b50506001909301925062003f88915050565b50565b60008184841115620041605760405162461bcd60e51b81526004018080602001828103825283818151815260200191508051906020019080838360005b83811015620041245781810151838201526020016200410a565b50505050905090810190601f168015620041525780820380516001836020036101000a031916815260200191505b509250505060405180910390fd5b505050900390565b6104e480620041778339019056fe608060405234801561001057600080fd5b506040516104e43803806104e48339818101604052602081101561003357600080fd5b5051610047336001600160e01b0361005f16565b610059816001600160e01b0361009416565b50610157565b604080517f6f72672e676f76626c6f636b732e70726f78792e6f776e6572000000000000008152905190819003601901902055565b60006100a76001600160e01b0361011216565b9050816001600160a01b0316816001600160a01b031614156100c857600080fd5b6100da826001600160e01b0361013516565b6040516001600160a01b038316907fbc7cd75a20ee27fd9adebab32041f755214dbc6bffa90cc0225b39da2e5c2d3b90600090a25050565b60008060405180806104c260229139604051908190036022019020549392505050565b600060405180806104c260229139604051908190036022019020929092555050565b61035c806101666000396000f3fe60806040526004361061003f5760003560e01c8063025313a2146100835780633659cfe6146100b45780635c60da1b146100e9578063f1739cae146100fe575b6000610049610131565b90506001600160a01b03811661005e57600080fd5b60405136600082376000803683855af43d806000843e81801561007f578184f35b8184fd5b34801561008f57600080fd5b50610098610154565b604080516001600160a01b039092168252519081900360200190f35b3480156100c057600080fd5b506100e7600480360360208110156100d757600080fd5b50356001600160a01b0316610186565b005b3480156100f557600080fd5b50610098610131565b34801561010a57600080fd5b506100e76004803603602081101561012157600080fd5b50356001600160a01b03166101b7565b600080604051808061030660229139604051908190036022019020549392505050565b604080517837b9339733b7bb313637b1b5b997383937bc3c9737bbb732b960391b815290519081900360190190205490565b61018e610154565b6001600160a01b0316336001600160a01b0316146101ab57600080fd5b6101b481610246565b50565b6101bf610154565b6001600160a01b0316336001600160a01b0316146101dc57600080fd5b6001600160a01b0381166101ef57600080fd5b6101f8816102b2565b7f5a3e66efaa1e445ebd894728a69d6959842ea1e97bd79b892797106e270efcd9610221610154565b604080516001600160a01b03928316815291841660208301528051918290030190a150565b6000610250610131565b9050816001600160a01b0316816001600160a01b0316141561027157600080fd5b61027a826102e3565b6040516001600160a01b038316907fbc7cd75a20ee27fd9adebab32041f755214dbc6bffa90cc0225b39da2e5c2d3b90600090a25050565b604080517837b9339733b7bb313637b1b5b997383937bc3c9737bbb732b960391b8152905190819003601901902055565b600060405180806103066022913960405190819003602201902092909255505056fe6f72672e676f76626c6f636b732e70726f78792e696d706c656d656e746174696f6ea265627a7a72315820550ba2cee5fc3a307af4bb6ab257133318817f66f77274e9a6ff74df800df84364736f6c634300051100326f72672e676f76626c6f636b732e70726f78792e696d706c656d656e746174696f6e43616c6c65722073686f756c64206265206f776e657220616e642073686f756c64206f6e6c792062652063616c6c6564206f6e63652e456d657267656e63792070617573656420776173206e6f7420737461727465642062792041647669736f727920426f617264436f6e747261637420636f646520697320616c726561647920617661696c61626c652e4f6e6c792063616c6c6261636b206f66207479706520455020697320616c6c6f77656420647572696e6720656d657267656e6379207061757365a265627a7a723158204f37723aa3e25e737c749b2efe5a09cfa041eff7842d2eb25658b2faf501694b64736f6c63430005110032",
  "linkReferences": {},
  "deployedLinkReferences": {}
}