{
  "_format": "hh-sol-artifact-1",
  "contractName": "NXMaster",
  "sourceName": "contracts/NexusMutual/modules/governance/NXMaster.sol",
  "abi": [
    {
      "constant": false,
      "inputs": [
        {
          "internalType": "bool",
          "name": "_pause",
          "type": "bool"
        },
        {
          "internalType": "bytes4",
          "name": "_by",
          "type": "bytes4"
        }
      ],
      "name": "addEmergencyPause",
      "outputs": [],
      "payable": false,
      "stateMutability": "nonpayable",
      "type": "function"
    },
    {
      "constant": false,
      "inputs": [
        {
          "internalType": "bytes2",
          "name": "_contractName",
          "type": "bytes2"
        },
        {
          "internalType": "address payable",
          "name": "_contractAddress",
          "type": "address"
        },
        {
          "internalType": "uint256",
          "name": "_type",
          "type": "uint256"
        }
      ],
      "name": "addNewInternalContract",
      "outputs": [],
      "payable": false,
      "stateMutability": "nonpayable",
      "type": "function"
    },
    {
      "constant": false,
      "inputs": [
        {
          "internalType": "address payable[]",
          "name": "_contractAddresses",
          "type": "address[]"
        }
      ],
      "name": "addNewVersion",
      "outputs": [],
      "payable": false,
      "stateMutability": "nonpayable",
      "type": "function"
    },
    {
      "constant": true,
      "inputs": [
        {
          "internalType": "address",
          "name": "_add",
          "type": "address"
        }
      ],
      "name": "checkIsAuthToGoverned",
      "outputs": [
        {
          "internalType": "bool",
          "name": "",
          "type": "bool"
        }
      ],
      "payable": false,
      "stateMutability": "view",
      "type": "function"
    },
    {
      "constant": false,
      "inputs": [
        {
          "internalType": "uint256",
          "name": "_claimId",
          "type": "uint256"
        }
      ],
      "name": "closeClaim",
      "outputs": [],
      "payable": false,
      "stateMutability": "nonpayable",
      "type": "function"
    },
    {
      "constant": true,
      "inputs": [
        {
          "internalType": "address",
          "name": "",
          "type": "address"
        }
      ],
      "name": "contractsActive",
      "outputs": [
        {
          "internalType": "bool",
          "name": "",
          "type": "bool"
        }
      ],
      "payable": false,
      "stateMutability": "view",
      "type": "function"
    },
    {
      "constant": true,
      "inputs": [],
      "name": "dAppLocker",
      "outputs": [
        {
          "internalType": "address",
          "name": "_add",
          "type": "address"
        }
      ],
      "payable": false,
      "stateMutability": "view",
      "type": "function"
    },
    {
      "constant": true,
      "inputs": [],
      "name": "dAppToken",
      "outputs": [
        {
          "internalType": "address",
          "name": "_add",
          "type": "address"
        }
      ],
      "payable": false,
      "stateMutability": "view",
      "type": "function"
    },
    {
      "constant": false,
      "inputs": [
        {
          "internalType": "bytes32",
          "name": "myid",
          "type": "bytes32"
        }
      ],
      "name": "delegateCallBack",
      "outputs": [],
      "payable": false,
      "stateMutability": "nonpayable",
      "type": "function"
    },
    {
      "constant": true,
      "inputs": [
        {
          "internalType": "uint256",
          "name": "",
          "type": "uint256"
        }
      ],
      "name": "emergencyPaused",
      "outputs": [
        {
          "internalType": "bool",
          "name": "pause",
          "type": "bool"
        },
        {
          "internalType": "uint256",
          "name": "time",
          "type": "uint256"
        },
        {
          "internalType": "bytes4",
          "name": "by",
          "type": "bytes4"
        }
      ],
      "payable": false,
      "stateMutability": "view",
      "type": "function"
    },
    {
      "constant": true,
      "inputs": [],
      "name": "getEmergencyPausedLength",
      "outputs": [
        {
          "internalType": "uint256",
          "name": "len",
          "type": "uint256"
        }
      ],
      "payable": false,
      "stateMutability": "view",
      "type": "function"
    },
    {
      "constant": true,
      "inputs": [],
      "name": "getLastEmergencyPause",
      "outputs": [
        {
          "internalType": "bool",
          "name": "_pause",
          "type": "bool"
        },
        {
          "internalType": "uint256",
          "name": "_time",
          "type": "uint256"
        },
        {
          "internalType": "bytes4",
          "name": "_by",
          "type": "bytes4"
        }
      ],
      "payable": false,
      "stateMutability": "view",
      "type": "function"
    },
    {
      "constant": true,
      "inputs": [
        {
          "internalType": "bytes2",
          "name": "_contractName",
          "type": "bytes2"
        }
      ],
      "name": "getLatestAddress",
      "outputs": [
        {
          "internalType": "address payable",
          "name": "contractAddress",
          "type": "address"
        }
      ],
      "payable": false,
      "stateMutability": "view",
      "type": "function"
    },
    {
      "constant": true,
      "inputs": [
        {
          "internalType": "bytes8",
          "name": "code",
          "type": "bytes8"
        }
      ],
      "name": "getOwnerParameters",
      "outputs": [
        {
          "internalType": "bytes8",
          "name": "codeVal",
          "type": "bytes8"
        },
        {
          "internalType": "address",
          "name": "val",
          "type": "address"
        }
      ],
      "payable": false,
      "stateMutability": "view",
      "type": "function"
    },
    {
      "constant": true,
      "inputs": [],
      "name": "getVersionData",
      "outputs": [
        {
          "internalType": "bytes2[]",
          "name": "contractsName",
          "type": "bytes2[]"
        },
        {
          "internalType": "address[]",
          "name": "contractsAddress",
          "type": "address[]"
        }
      ],
      "payable": false,
      "stateMutability": "view",
      "type": "function"
    },
    {
      "constant": false,
      "inputs": [
        {
          "internalType": "address",
          "name": "_tokenAdd",
          "type": "address"
        }
      ],
      "name": "initiateMaster",
      "outputs": [],
      "payable": false,
      "stateMutability": "nonpayable",
      "type": "function"
    },
    {
      "constant": true,
      "inputs": [
        {
          "internalType": "address",
          "name": "_toCheck",
          "type": "address"
        }
      ],
      "name": "isAuthorizedToGovern",
      "outputs": [
        {
          "internalType": "bool",
          "name": "",
          "type": "bool"
        }
      ],
      "payable": false,
      "stateMutability": "view",
      "type": "function"
    },
    {
      "constant": true,
      "inputs": [
        {
          "internalType": "address",
          "name": "_contractAddress",
          "type": "address"
        }
      ],
      "name": "isInternal",
      "outputs": [
        {
          "internalType": "bool",
          "name": "",
          "type": "bool"
        }
      ],
      "payable": false,
      "stateMutability": "view",
      "type": "function"
    },
    {
      "constant": true,
      "inputs": [
        {
          "internalType": "address",
          "name": "_add",
          "type": "address"
        }
      ],
      "name": "isMember",
      "outputs": [
        {
          "internalType": "bool",
          "name": "",
          "type": "bool"
        }
      ],
      "payable": false,
      "stateMutability": "view",
      "type": "function"
    },
    {
      "constant": true,
      "inputs": [
        {
          "internalType": "address",
          "name": "_address",
          "type": "address"
        }
      ],
      "name": "isOwner",
      "outputs": [
        {
          "internalType": "bool",
          "name": "",
          "type": "bool"
        }
      ],
      "payable": false,
      "stateMutability": "view",
      "type": "function"
    },
    {
      "constant": true,
      "inputs": [],
      "name": "isPause",
      "outputs": [
        {
          "internalType": "bool",
          "name": "",
          "type": "bool"
        }
      ],
      "payable": false,
      "stateMutability": "view",
      "type": "function"
    },
    {
      "constant": true,
      "inputs": [
        {
          "internalType": "bytes2",
          "name": "",
          "type": "bytes2"
        }
      ],
      "name": "isProxy",
      "outputs": [
        {
          "internalType": "bool",
          "name": "",
          "type": "bool"
        }
      ],
      "payable": false,
      "stateMutability": "view",
      "type": "function"
    },
    {
      "constant": true,
      "inputs": [
        {
          "internalType": "bytes2",
          "name": "",
          "type": "bytes2"
        }
      ],
      "name": "isUpgradable",
      "outputs": [
        {
          "internalType": "bool",
          "name": "",
          "type": "bool"
        }
      ],
      "payable": false,
      "stateMutability": "view",
      "type": "function"
    },
    {
      "constant": true,
      "inputs": [],
      "name": "masterAddress",
      "outputs": [
        {
          "internalType": "address",
          "name": "",
          "type": "address"
        }
      ],
      "payable": false,
      "stateMutability": "view",
      "type": "function"
    },
    {
      "constant": true,
      "inputs": [],
      "name": "masterInitialized",
      "outputs": [
        {
          "internalType": "bool",
          "name": "",
          "type": "bool"
        }
      ],
      "payable": false,
      "stateMutability": "view",
      "type": "function"
    },
    {
      "constant": true,
      "inputs": [],
      "name": "owner",
      "outputs": [
        {
          "internalType": "address",
          "name": "",
          "type": "address"
        }
      ],
      "payable": false,
      "stateMutability": "view",
      "type": "function"
    },
    {
      "constant": true,
      "inputs": [],
      "name": "pauseTime",
      "outputs": [
        {
          "internalType": "uint256",
          "name": "",
          "type": "uint256"
        }
      ],
      "payable": false,
      "stateMutability": "view",
      "type": "function"
    },
    {
      "constant": false,
      "inputs": [],
      "name": "startEmergencyPause",
      "outputs": [],
      "payable": false,
      "stateMutability": "nonpayable",
      "type": "function"
    },
    {
      "constant": true,
      "inputs": [],
      "name": "tokenAddress",
      "outputs": [
        {
          "internalType": "address",
          "name": "",
          "type": "address"
        }
      ],
      "payable": false,
      "stateMutability": "view",
      "type": "function"
    },
    {
      "constant": false,
      "inputs": [
        {
          "internalType": "bytes8",
          "name": "code",
          "type": "bytes8"
        },
        {
          "internalType": "address payable",
          "name": "val",
          "type": "address"
        }
      ],
      "name": "updateOwnerParameters",
      "outputs": [],
      "payable": false,
      "stateMutability": "nonpayable",
      "type": "function"
    },
    {
      "constant": false,
      "inputs": [
        {
          "internalType": "uint256",
          "name": "_time",
          "type": "uint256"
        }
      ],
      "name": "updatePauseTime",
      "outputs": [],
      "payable": false,
      "stateMutability": "nonpayable",
      "type": "function"
    },
    {
      "constant": false,
      "inputs": [
        {
          "internalType": "bytes2[]",
          "name": "_contractsName",
          "type": "bytes2[]"
        },
        {
          "internalType": "address payable[]",
          "name": "_contractsAddress",
          "type": "address[]"
        }
      ],
      "name": "upgradeMultipleContracts",
      "outputs": [],
      "payable": false,
      "stateMutability": "nonpayable",
      "type": "function"
    },
    {
      "constant": false,
      "inputs": [
        {
          "internalType": "bytes2[]",
          "name": "_contractNames",
          "type": "bytes2[]"
        },
        {
          "internalType": "address[]",
          "name": "_contractAddresses",
          "type": "address[]"
        }
      ],
      "name": "upgradeMultipleImplementations",
      "outputs": [],
      "payable": false,
      "stateMutability": "nonpayable",
      "type": "function"
    }
  ],
  "bytecode": "0x608060405234801561001057600080fd5b50617a0f80620000216000396000f3fe60806040523480156200001157600080fd5b50600436106200022c5760003560e01c80638dd7ff9a1162000135578063c3e4d67211620000bd578063eaf2c4771162000087578063eaf2c4771462000e0e578063fa00d8841462000e5a578063fa3c8a901462000ec4578063ff0938a71462000ee4578063ffa399291462000f08576200022c565b8063c3e4d6721462000c78578063c74de0651462000ca9578063d365a08e1462000d56578063e2cab14d1462000da2576200022c565b8063a97ea79411620000ff578063a97ea7941462000978578063b96a89951462000a36578063bf1f28191462000b8b578063c15041d51462000c54576200022c565b80638dd7ff9a146200083d5780638f16c41c146200086e5780639d76ea5814620008cd578063a230c5241462000919576200022c565b80633a12507f11620001b957806371a2b7f7116200018357806371a2b7f7146200071f57806378ddbed414620007b4578063872f1eb314620007e55780638da5cb5b14620007f1576200022c565b80633a12507f146200053357806344d479e7146200057f57806347f4f88514620005e95780635834e67a14620006c0576200022c565b806322ce725411620001fb57806322ce725414620003895780632c72135314620003e85780632d4c115214620004645780632f54bf6e14620004d4576200022c565b8063013828581462000231578063015cb3ff14620002c357806301c09f1414620002e35780631593e7fc1462000342575b600080fd5b62000281600480360360208110156200024957600080fd5b8101908080357dffffffffffffffffffffffffffffffffffffffffffffffffffffffffffff1916906020019092919050505062000f64565b604051808273ffffffffffffffffffffffffffffffffffffffff1673ffffffffffffffffffffffffffffffffffffffff16815260200191505060405180910390f35b620002cd62000fe3565b6040518082815260200191505060405180910390f35b6200032860048036036020811015620002fb57600080fd5b81019080803573ffffffffffffffffffffffffffffffffffffffff16906020019092919050505062000fe9565b604051808215151515815260200191505060405180910390f35b62000387600480360360208110156200035a57600080fd5b81019080803573ffffffffffffffffffffffffffffffffffffffff16906020019092919050505062001009565b005b620003ce60048036036020811015620003a157600080fd5b81019080803573ffffffffffffffffffffffffffffffffffffffff16906020019092919050505062001dc1565b604051808215151515815260200191505060405180910390f35b62000462600480360360608110156200040057600080fd5b8101908080357dffffffffffffffffffffffffffffffffffffffffffffffffffffffffffff19169060200190929190803573ffffffffffffffffffffffffffffffffffffffff1690602001909291908035906020019092919050505062001ecd565b005b6200046e620025a2565b6040518084151515158152602001838152602001827bffffffffffffffffffffffffffffffffffffffffffffffffffffffff19167bffffffffffffffffffffffffffffffffffffffffffffffffffffffff19168152602001935050505060405180910390f35b6200051960048036036020811015620004ec57600080fd5b81019080803573ffffffffffffffffffffffffffffffffffffffff16906020019092919050505062002669565b604051808215151515815260200191505060405180910390f35b6200053d620026c3565b604051808273ffffffffffffffffffffffffffffffffffffffff1673ffffffffffffffffffffffffffffffffffffffff16815260200191505060405180910390f35b620005cf600480360360208110156200059757600080fd5b8101908080357dffffffffffffffffffffffffffffffffffffffffffffffffffffffffffff19169060200190929190505050620026f5565b604051808215151515815260200191505060405180910390f35b620006be600480360360408110156200060157600080fd5b81019080803590602001906401000000008111156200061f57600080fd5b8201836020820111156200063257600080fd5b803590602001918460208302840111640100000000831117156200065557600080fd5b9091929391929390803590602001906401000000008111156200067757600080fd5b8201836020820111156200068a57600080fd5b80359060200191846020830284011164010000000083111715620006ad57600080fd5b909192939192939050505062002715565b005b6200070560048036036020811015620006d857600080fd5b81019080803573ffffffffffffffffffffffffffffffffffffffff16906020019092919050505062002c77565b604051808215151515815260200191505060405180910390f35b6200074e600480360360208110156200073757600080fd5b810190808035906020019092919050505062002c8b565b6040518084151515158152602001838152602001827bffffffffffffffffffffffffffffffffffffffffffffffffffffffff19167bffffffffffffffffffffffffffffffffffffffffffffffffffffffff19168152602001935050505060405180910390f35b620007e360048036036020811015620007cc57600080fd5b810190808035906020019092919050505062002cdd565b005b620007ef62002d65565b005b620007fb620030d0565b604051808273ffffffffffffffffffffffffffffffffffffffff1673ffffffffffffffffffffffffffffffffffffffff16815260200191505060405180910390f35b6200086c600480360360208110156200085557600080fd5b8101908080359060200190929190505050620030f6565b005b620008b3600480360360208110156200088657600080fd5b81019080803573ffffffffffffffffffffffffffffffffffffffff16906020019092919050505062003eac565b604051808215151515815260200191505060405180910390f35b620008d762003f02565b604051808273ffffffffffffffffffffffffffffffffffffffff1673ffffffffffffffffffffffffffffffffffffffff16815260200191505060405180910390f35b6200095e600480360360208110156200093157600080fd5b81019080803573ffffffffffffffffffffffffffffffffffffffff16906020019092919050505062003f28565b604051808215151515815260200191505060405180910390f35b62000a34600480360360208110156200099057600080fd5b8101908080359060200190640100000000811115620009ae57600080fd5b820183602082011115620009c157600080fd5b80359060200191846020830284011164010000000083111715620009e457600080fd5b919080806020026020016040519081016040528093929190818152602001838360200280828437600081840152601f19601f82011690508083019250505050505050919291929050505062004030565b005b62000b896004803603604081101562000a4e57600080fd5b810190808035906020019064010000000081111562000a6c57600080fd5b82018360208201111562000a7f57600080fd5b8035906020019184602083028401116401000000008311171562000aa257600080fd5b919080806020026020016040519081016040528093929190818152602001838360200280828437600081840152601f19601f8201169050808301925050505050505091929192908035906020019064010000000081111562000b0357600080fd5b82018360208201111562000b1657600080fd5b8035906020019184602083028401116401000000008311171562000b3957600080fd5b919080806020026020016040519081016040528093929190818152602001838360200280828437600081840152601f19601f82011690508083019250505050505050919291929050505062004566565b005b62000bd56004803603602081101562000ba357600080fd5b81019080803577ffffffffffffffffffffffffffffffffffffffffffffffff19169060200190929190505050620053e9565b604051808377ffffffffffffffffffffffffffffffffffffffffffffffff191677ffffffffffffffffffffffffffffffffffffffffffffffff191681526020018273ffffffffffffffffffffffffffffffffffffffff1673ffffffffffffffffffffffffffffffffffffffff1681526020019250505060405180910390f35b62000c5e62005a5d565b604051808215151515815260200191505060405180910390f35b62000ca76004803603602081101562000c9057600080fd5b810190808035906020019092919050505062005a70565b005b62000cb362005b8e565b604051808060200180602001838103835285818151815260200191508051906020019060200280838360005b8381101562000cfc57808201518184015260208101905062000cdf565b50505050905001838103825284818151815260200191508051906020019060200280838360005b8381101562000d4057808201518184015260208101905062000d23565b5050505090500194505050505060405180910390f35b62000d6062005d76565b604051808273ffffffffffffffffffffffffffffffffffffffff1673ffffffffffffffffffffffffffffffffffffffff16815260200191505060405180910390f35b62000e0c6004803603604081101562000dba57600080fd5b81019080803577ffffffffffffffffffffffffffffffffffffffffffffffff19169060200190929190803573ffffffffffffffffffffffffffffffffffffffff16906020019092919050505062005d9b565b005b62000e1862006749565b604051808273ffffffffffffffffffffffffffffffffffffffff1673ffffffffffffffffffffffffffffffffffffffff16815260200191505060405180910390f35b62000eaa6004803603602081101562000e7257600080fd5b8101908080357dffffffffffffffffffffffffffffffffffffffffffffffffffffffffffff1916906020019092919050505062006773565b604051808215151515815260200191505060405180910390f35b62000ece62006793565b6040518082815260200191505060405180910390f35b62000eee620067a0565b604051808215151515815260200191505060405180910390f35b62000f626004803603604081101562000f2057600080fd5b8101908080351515906020019092919080357bffffffffffffffffffffffffffffffffffffffffffffffffffffffff19169060200190929190505050620067ed565b005b600060046000837dffffffffffffffffffffffffffffffffffffffffffffffffffffffffffff19167dffffffffffffffffffffffffffffffffffffffffffffffffffffffffffff1916815260200190815260200160002060009054906101000a900473ffffffffffffffffffffffffffffffffffffffff169050919050565b60095481565b60036020528060005260406000206000915054906101000a900460ff1681565b60003090508073ffffffffffffffffffffffffffffffffffffffff1663025313a26040518163ffffffff1660e01b815260040160206040518083038186803b1580156200105557600080fd5b505afa1580156200106a573d6000803e3d6000fd5b505050506040513d60208110156200108157600080fd5b810190808051906020019092919050505073ffffffffffffffffffffffffffffffffffffffff163373ffffffffffffffffffffffffffffffffffffffff161462001133576040517f08c379a000000000000000000000000000000000000000000000000000000000815260040180806020018281038252601a8152602001807f53656e646572206973206e6f742070726f7879206f776e65722e00000000000081525060200191505060405180910390fd5b600a60009054906101000a900460ff1615620011b7576040517f08c379a00000000000000000000000000000000000000000000000000000000081526004018080602001828103825260188152602001807f436f6e7374727563746f7220616c72656164792072616e2e000000000000000081525060200191505060405180910390fd5b6001600a60006101000a81548160ff02191690831515021790555081600760006101000a81548173ffffffffffffffffffffffffffffffffffffffff021916908373ffffffffffffffffffffffffffffffffffffffff16021790555033600860006101000a81548173ffffffffffffffffffffffffffffffffffffffff021916908373ffffffffffffffffffffffffffffffffffffffff160217905550306000806101000a81548173ffffffffffffffffffffffffffffffffffffffff021916908373ffffffffffffffffffffffffffffffffffffffff1602179055506001600360003073ffffffffffffffffffffffffffffffffffffffff1673ffffffffffffffffffffffffffffffffffffffff16815260200190815260200160002060006101000a81548160ff0219169083151502179055506224ea00600981905550600280600181540180825580915050906001820390600052602060002090601091828204019190066002027f5144000000000000000000000000000000000000000000000000000000000000909190916101000a81548161ffff021916908360f01c021790555050600280600181540180825580915050906001820390600052602060002090601091828204019190066002027f5444000000000000000000000000000000000000000000000000000000000000909190916101000a81548161ffff021916908360f01c021790555050600280600181540180825580915050906001820390600052602060002090601091828204019190066002027f4344000000000000000000000000000000000000000000000000000000000000909190916101000a81548161ffff021916908360f01c021790555050600280600181540180825580915050906001820390600052602060002090601091828204019190066002027f5044000000000000000000000000000000000000000000000000000000000000909190916101000a81548161ffff021916908360f01c021790555050600280600181540180825580915050906001820390600052602060002090601091828204019190066002027f5154000000000000000000000000000000000000000000000000000000000000909190916101000a81548161ffff021916908360f01c021790555050600280600181540180825580915050906001820390600052602060002090601091828204019190066002027f5446000000000000000000000000000000000000000000000000000000000000909190916101000a81548161ffff021916908360f01c021790555050600280600181540180825580915050906001820390600052602060002090601091828204019190066002027f5443000000000000000000000000000000000000000000000000000000000000909190916101000a81548161ffff021916908360f01c021790555050600280600181540180825580915050906001820390600052602060002090601091828204019190066002027f434c000000000000000000000000000000000000000000000000000000000000909190916101000a81548161ffff021916908360f01c021790555050600280600181540180825580915050906001820390600052602060002090601091828204019190066002027f4352000000000000000000000000000000000000000000000000000000000000909190916101000a81548161ffff021916908360f01c021790555050600280600181540180825580915050906001820390600052602060002090601091828204019190066002027f5031000000000000000000000000000000000000000000000000000000000000909190916101000a81548161ffff021916908360f01c021790555050600280600181540180825580915050906001820390600052602060002090601091828204019190066002027f5032000000000000000000000000000000000000000000000000000000000000909190916101000a81548161ffff021916908360f01c021790555050600280600181540180825580915050906001820390600052602060002090601091828204019190066002027f4d43000000000000000000000000000000000000000000000000000000000000909190916101000a81548161ffff021916908360f01c021790555050600280600181540180825580915050906001820390600052602060002090601091828204019190066002027f4756000000000000000000000000000000000000000000000000000000000000909190916101000a81548161ffff021916908360f01c021790555050600280600181540180825580915050906001820390600052602060002090601091828204019190066002027f5043000000000000000000000000000000000000000000000000000000000000909190916101000a81548161ffff021916908360f01c021790555050600280600181540180825580915050906001820390600052602060002090601091828204019190066002027f4d52000000000000000000000000000000000000000000000000000000000000909190916101000a81548161ffff021916908360f01c0217905550506001600660007f51540000000000000000000000000000000000000000000000000000000000007dffffffffffffffffffffffffffffffffffffffffffffffffffffffffffff1916815260200190815260200160002060006101000a81548160ff0219169083151502179055506001600660007f54460000000000000000000000000000000000000000000000000000000000007dffffffffffffffffffffffffffffffffffffffffffffffffffffffffffff1916815260200190815260200160002060006101000a81548160ff0219169083151502179055506001600660007f434c0000000000000000000000000000000000000000000000000000000000007dffffffffffffffffffffffffffffffffffffffffffffffffffffffffffff1916815260200190815260200160002060006101000a81548160ff0219169083151502179055506001600660007f43520000000000000000000000000000000000000000000000000000000000007dffffffffffffffffffffffffffffffffffffffffffffffffffffffffffff1916815260200190815260200160002060006101000a81548160ff0219169083151502179055506001600660007f50310000000000000000000000000000000000000000000000000000000000007dffffffffffffffffffffffffffffffffffffffffffffffffffffffffffff1916815260200190815260200160002060006101000a81548160ff0219169083151502179055506001600660007f50320000000000000000000000000000000000000000000000000000000000007dffffffffffffffffffffffffffffffffffffffffffffffffffffffffffff1916815260200190815260200160002060006101000a81548160ff0219169083151502179055506001600660007f4d430000000000000000000000000000000000000000000000000000000000007dffffffffffffffffffffffffffffffffffffffffffffffffffffffffffff1916815260200190815260200160002060006101000a81548160ff0219169083151502179055506001600560007f54430000000000000000000000000000000000000000000000000000000000007dffffffffffffffffffffffffffffffffffffffffffffffffffffffffffff1916815260200190815260200160002060006101000a81548160ff0219169083151502179055506001600560007f47560000000000000000000000000000000000000000000000000000000000007dffffffffffffffffffffffffffffffffffffffffffffffffffffffffffff1916815260200190815260200160002060006101000a81548160ff0219169083151502179055506001600560007f50430000000000000000000000000000000000000000000000000000000000007dffffffffffffffffffffffffffffffffffffffffffffffffffffffffffff1916815260200190815260200160002060006101000a81548160ff0219169083151502179055506001600560007f4d520000000000000000000000000000000000000000000000000000000000007dffffffffffffffffffffffffffffffffffffffffffffffffffffffffffff1916815260200190815260200160002060006101000a81548160ff0219169083151502179055505050565b6000806000809054906101000a900473ffffffffffffffffffffffffffffffffffffffff1690508273ffffffffffffffffffffffffffffffffffffffff168173ffffffffffffffffffffffffffffffffffffffff1663013828586040518163ffffffff1660e01b815260040180807f4756000000000000000000000000000000000000000000000000000000000000815250602001905060206040518083038186803b15801562001e7157600080fd5b505afa15801562001e86573d6000803e3d6000fd5b505050506040513d602081101562001e9d57600080fd5b810190808051906020019092919050505073ffffffffffffffffffffffffffffffffffffffff1614915050919050565b60008060009054906101000a900473ffffffffffffffffffffffffffffffffffffffff1690503373ffffffffffffffffffffffffffffffffffffffff168173ffffffffffffffffffffffffffffffffffffffff1663013828586040518163ffffffff1660e01b815260040180807f4756000000000000000000000000000000000000000000000000000000000000815250602001905060206040518083038186803b15801562001f7c57600080fd5b505afa15801562001f91573d6000803e3d6000fd5b505050506040513d602081101562001fa857600080fd5b810190808051906020019092919050505073ffffffffffffffffffffffffffffffffffffffff161462002043576040517f08c379a000000000000000000000000000000000000000000000000000000000815260040180806020018281038252600e8152602001807f4e6f7420617574686f72697a656400000000000000000000000000000000000081525060200191505060405180910390fd5b600073ffffffffffffffffffffffffffffffffffffffff1660046000867dffffffffffffffffffffffffffffffffffffffffffffffffffffffffffff19167dffffffffffffffffffffffffffffffffffffffffffffffffffffffffffff1916815260200190815260200160002060009054906101000a900473ffffffffffffffffffffffffffffffffffffffff1673ffffffffffffffffffffffffffffffffffffffff16146200213f576040517f08c379a00000000000000000000000000000000000000000000000000000000081526004018080602001828103825260238152602001806200797e6023913960400191505060405180910390fd5b600073ffffffffffffffffffffffffffffffffffffffff168373ffffffffffffffffffffffffffffffffffffffff161415620021e3576040517f08c379a000000000000000000000000000000000000000000000000000000000815260040180806020018281038252601c8152602001807f4e554c4c2061646472657373206973206e6f7420616c6c6f7765642e0000000081525060200191505060405180910390fd5b600284908060018154018082558091505090600182039060005260206000209060109182820401919006600202909192909190916101000a81548161ffff021916908360f01c02179055505060008390506001831415620022b257600160066000877dffffffffffffffffffffffffffffffffffffffffffffffffffffffffffff19167dffffffffffffffffffffffffffffffffffffffffffffffffffffffffffff1916815260200190815260200160002060006101000a81548160ff02191690831515021790555062002339565b60028314156200233857620022c78462006c24565b9050600160056000877dffffffffffffffffffffffffffffffffffffffffffffffffffffffffffff19167dffffffffffffffffffffffffffffffffffffffffffffffffffffffffffff1916815260200190815260200160002060006101000a81548160ff0219169083151502179055505b5b8060046000877dffffffffffffffffffffffffffffffffffffffffffffffffffffffffffff19167dffffffffffffffffffffffffffffffffffffffffffffffffffffffffffff1916815260200190815260200160002060006101000a81548173ffffffffffffffffffffffffffffffffffffffff021916908373ffffffffffffffffffffffffffffffffffffffff1602179055506001600360008373ffffffffffffffffffffffffffffffffffffffff1673ffffffffffffffffffffffffffffffffffffffff16815260200190815260200160002060006101000a81548160ff021916908315150217905550600060046000877dffffffffffffffffffffffffffffffffffffffffffffffffffffffffffff19167dffffffffffffffffffffffffffffffffffffffffffffffffffffffffffff1916815260200190815260200160002060009054906101000a900473ffffffffffffffffffffffffffffffffffffffff1690508073ffffffffffffffffffffffffffffffffffffffff1663d46655f4306040518263ffffffff1660e01b8152600401808273ffffffffffffffffffffffffffffffffffffffff1673ffffffffffffffffffffffffffffffffffffffff168152602001915050600060405180830381600087803b1580156200251f57600080fd5b505af115801562002534573d6000803e3d6000fd5b505050508073ffffffffffffffffffffffffffffffffffffffff16630ea9c9846040518163ffffffff1660e01b8152600401600060405180830381600087803b1580156200258157600080fd5b505af115801562002596573d6000803e3d6000fd5b50505050505050505050565b600080600080925060009150600090506000620025be62006793565b905060008111156200266357620025e060018262006c9590919063ffffffff16565b905060018181548110620025f057fe5b906000526020600020906003020160000160009054906101000a900460ff169350600181815481106200261f57fe5b9060005260206000209060030201600101549250600181815481106200264157fe5b906000526020600020906003020160020160009054906101000a900460e01b91505b50909192565b60008173ffffffffffffffffffffffffffffffffffffffff16600860009054906101000a900473ffffffffffffffffffffffffffffffffffffffff1673ffffffffffffffffffffffffffffffffffffffff16149050919050565b6000620026f07f544300000000000000000000000000000000000000000000000000000000000062000f64565b905090565b60056020528060005260406000206000915054906101000a900460ff1681565b60008060009054906101000a900473ffffffffffffffffffffffffffffffffffffffff1690503373ffffffffffffffffffffffffffffffffffffffff168173ffffffffffffffffffffffffffffffffffffffff1663013828586040518163ffffffff1660e01b815260040180807f4756000000000000000000000000000000000000000000000000000000000000815250602001905060206040518083038186803b158015620027c457600080fd5b505afa158015620027d9573d6000803e3d6000fd5b505050506040513d6020811015620027f057600080fd5b810190808051906020019092919050505073ffffffffffffffffffffffffffffffffffffffff16146200288b576040517f08c379a000000000000000000000000000000000000000000000000000000000815260040180806020018281038252600e8152602001807f4e6f7420617574686f72697a656400000000000000000000000000000000000081525060200191505060405180910390fd5b82829050858590501462002907576040517f08c379a000000000000000000000000000000000000000000000000000000000815260040180806020018281038252601d8152602001807f4172726179206c656e6774682073686f756c6420626520657175616c2e00000081525060200191505060405180910390fd5b60008090505b8585905081101562002c6f57600073ffffffffffffffffffffffffffffffffffffffff168484838181106200293e57fe5b9050602002013573ffffffffffffffffffffffffffffffffffffffff1673ffffffffffffffffffffffffffffffffffffffff161415620029e6576040517f08c379a000000000000000000000000000000000000000000000000000000000815260040180806020018281038252601c8152602001807f6e756c6c2061646472657373206973206e6f7420616c6c6f7765642e0000000081525060200191505060405180910390fd5b60056000878784818110620029f757fe5b905060200201357dffffffffffffffffffffffffffffffffffffffffffffffffffffffffffff19167dffffffffffffffffffffffffffffffffffffffffffffffffffffffffffff19167dffffffffffffffffffffffffffffffffffffffffffffffffffffffffffff1916815260200190815260200160002060009054906101000a900460ff1662002af0576040517f08c379a00000000000000000000000000000000000000000000000000000000081526004018080602001828103825260198152602001807f436f6e74726163742073686f756c642062652070726f78792e0000000000000081525060200191505060405180910390fd5b60006004600088888581811062002b0357fe5b905060200201357dffffffffffffffffffffffffffffffffffffffffffffffffffffffffffff19167dffffffffffffffffffffffffffffffffffffffffffffffffffffffffffff19167dffffffffffffffffffffffffffffffffffffffffffffffffffffffffffff1916815260200190815260200160002060009054906101000a900473ffffffffffffffffffffffffffffffffffffffff1690508073ffffffffffffffffffffffffffffffffffffffff16633659cfe686868581811062002bc757fe5b9050602002013573ffffffffffffffffffffffffffffffffffffffff166040518263ffffffff1660e01b8152600401808273ffffffffffffffffffffffffffffffffffffffff1673ffffffffffffffffffffffffffffffffffffffff168152602001915050600060405180830381600087803b15801562002c4757600080fd5b505af115801562002c5c573d6000803e3d6000fd5b505050505080806001019150506200290d565b505050505050565b600062002c848262001dc1565b9050919050565b6001818154811062002c9957fe5b90600052602060002090600302016000915090508060000160009054906101000a900460ff16908060010154908060020160009054906101000a900460e01b905083565b62002ce83362003eac565b62002d5b576040517f08c379a00000000000000000000000000000000000000000000000000000000081526004018080602001828103825260128152602001807f4e6f7420696e7465726e616c2063616c6c2e000000000000000000000000000081525060200191505060405180910390fd5b8060098190555050565b60008060009054906101000a900473ffffffffffffffffffffffffffffffffffffffff1690503373ffffffffffffffffffffffffffffffffffffffff168173ffffffffffffffffffffffffffffffffffffffff1663013828586040518163ffffffff1660e01b815260040180807f4756000000000000000000000000000000000000000000000000000000000000815250602001905060206040518083038186803b15801562002e1457600080fd5b505afa15801562002e29573d6000803e3d6000fd5b505050506040513d602081101562002e4057600080fd5b810190808051906020019092919050505073ffffffffffffffffffffffffffffffffffffffff161462002edb576040517f08c379a000000000000000000000000000000000000000000000000000000000815260040180806020018281038252600e8152602001807f4e6f7420617574686f72697a656400000000000000000000000000000000000081525060200191505060405180910390fd5b62002f0860017f4142000000000000000000000000000000000000000000000000000000000000620067ed565b6000600460007f50310000000000000000000000000000000000000000000000000000000000007dffffffffffffffffffffffffffffffffffffffffffffffffffffffffffff1916815260200190815260200160002060009054906101000a900473ffffffffffffffffffffffffffffffffffffffff1690508073ffffffffffffffffffffffffffffffffffffffff1663d8ea6b086009546040518263ffffffff1660e01b815260040180828152602001915050600060405180830381600087803b15801562002fd757600080fd5b505af115801562002fec573d6000803e3d6000fd5b505050506000600460007f434c0000000000000000000000000000000000000000000000000000000000007dffffffffffffffffffffffffffffffffffffffffffffffffffffffffffff1916815260200190815260200160002060009054906101000a900473ffffffffffffffffffffffffffffffffffffffff1690508073ffffffffffffffffffffffffffffffffffffffff1663380216716040518163ffffffff1660e01b8152600401600060405180830381600087803b158015620030b257600080fd5b505af1158015620030c7573d6000803e3d6000fd5b50505050505050565b600860009054906101000a900473ffffffffffffffffffffffffffffffffffffffff1681565b600760149054906101000a900460ff16156200317a576040517f08c379a000000000000000000000000000000000000000000000000000000000815260040180806020018281038252600f8152602001807f5265656e7472616e742063616c6c2e000000000000000000000000000000000081525060200191505060405180910390fd5b6001600760146101000a81548160ff0219169083151502179055506000620031c27f504400000000000000000000000000000000000000000000000000000000000062000f64565b905060008173ffffffffffffffffffffffffffffffffffffffff166346583d09846040518263ffffffff1660e01b81526004018082815260200191505060206040518083038186803b1580156200321857600080fd5b505afa1580156200322d573d6000803e3d6000fd5b505050506040513d60208110156200324457600080fd5b810190808051906020019092919050505067ffffffffffffffff16905060008273ffffffffffffffffffffffffffffffffffffffff16633277be96856040518263ffffffff1660e01b81526004018082815260200191505060206040518083038186803b158015620032b557600080fd5b505afa158015620032ca573d6000803e3d6000fd5b505050506040513d6020811015620032e157600080fd5b810190808051906020019092919050505067ffffffffffffffff16905080821462003374576040517f08c379a00000000000000000000000000000000000000000000000000000000081526004018080602001828103825260198152602001807f43616c6c6261636b20616c72656164792072656365697665640000000000000081525060200191505060405180910390fd5b60008373ffffffffffffffffffffffffffffffffffffffff1663fd3e44d5866040518263ffffffff1660e01b81526004018082815260200191505060206040518083038186803b158015620033c857600080fd5b505afa158015620033dd573d6000803e3d6000fd5b505050506040513d6020811015620033f457600080fd5b810190808051906020019092919050505090508373ffffffffffffffffffffffffffffffffffffffff166361b6c00f866040518263ffffffff1660e01b815260040180828152602001915050600060405180830381600087803b1580156200345b57600080fd5b505af115801562003470573d6000803e3d6000fd5b505050506200347e620067a0565b156200368f57600062003490620025a2565b9091509050809150507f4550000000000000000000000000000000000000000000000000000000000000827bffffffffffffffffffffffffffffffffffffffffffffffffffffffff19161462003532576040517f08c379a000000000000000000000000000000000000000000000000000000000815260040180806020018281038252603a815260200180620079a1603a913960400191505060405180910390fd5b426200354a6009548662006ce190919063ffffffff16565b10620035be576040517f08c379a000000000000000000000000000000000000000000000000000000000815260040180806020018281038252601c8152602001807f43616c6c6261636b207761732063616c6c656420746f6f20736f6f6e0000000081525060200191505060405180910390fd5b7f4142000000000000000000000000000000000000000000000000000000000000817bffffffffffffffffffffffffffffffffffffffffffffffffffffffff19161462003657576040517f08c379a00000000000000000000000000000000000000000000000000000000081526004018080602001828103825260328152602001806200794c6032913960400191505060405180910390fd5b6200368460007f4155540000000000000000000000000000000000000000000000000000000000620067ed565b505050505062003e8e565b60008473ffffffffffffffffffffffffffffffffffffffff1663371e6e12876040518263ffffffff1660e01b81526004018082815260200191505060206040518083038186803b158015620036e357600080fd5b505afa158015620036f8573d6000803e3d6000fd5b505050506040513d60208110156200370f57600080fd5b810190808051906020019092919050505090507f434f560000000000000000000000000000000000000000000000000000000000827bffffffffffffffffffffffffffffffffffffffffffffffffffffffff1916141562003812576000620037977f515400000000000000000000000000000000000000000000000000000000000062000f64565b90508073ffffffffffffffffffffffffffffffffffffffff1663f4136f7f836040518263ffffffff1660e01b815260040180828152602001915050600060405180830381600087803b158015620037ed57600080fd5b505af115801562003802573d6000803e3d6000fd5b5050505050505050505062003e8e565b7f434c410000000000000000000000000000000000000000000000000000000000827bffffffffffffffffffffffffffffffffffffffffffffffffffffffff191614156200398057620038658162006d6a565b620038d8576040517f08c379a000000000000000000000000000000000000000000000000000000000815260040180806020018281038252601d8152602001807f5061796f75742072657472792074696d65206e6f74207265616368656400000081525060200191505060405180910390fd5b6000620039057f435200000000000000000000000000000000000000000000000000000000000062000f64565b90508073ffffffffffffffffffffffffffffffffffffffff16637f6715c9836040518263ffffffff1660e01b815260040180828152602001915050600060405180830381600087803b1580156200395b57600080fd5b505af115801562003970573d6000803e3d6000fd5b5050505050505050505062003e8e565b7f4d43524600000000000000000000000000000000000000000000000000000000827bffffffffffffffffffffffffffffffffffffffffffffffffffffffff1916141562003b91574262003a618673ffffffffffffffffffffffffffffffffffffffff1663702ddaab6040518163ffffffff1660e01b815260040160206040518083038186803b15801562003a1457600080fd5b505afa15801562003a29573d6000803e3d6000fd5b505050506040513d602081101562003a4057600080fd5b81019080805190602001909291905050508662006ce190919063ffffffff16565b1062003ad5576040517f08c379a000000000000000000000000000000000000000000000000000000000815260040180806020018281038252601c8152602001807f4d435220706f7374696e672074696d65206e6f7420726561636865640000000081525060200191505060405180910390fd5b600062003b027f4d4300000000000000000000000000000000000000000000000000000000000062000f64565b90508073ffffffffffffffffffffffffffffffffffffffff166380f34275836040518263ffffffff1660e01b8152600401808267ffffffffffffffff1667ffffffffffffffff168152602001915050600060405180830381600087803b15801562003b6c57600080fd5b505af115801562003b81573d6000803e3d6000fd5b5050505050505050505062003e8e565b7f554c540000000000000000000000000000000000000000000000000000000000827bffffffffffffffffffffffffffffffffffffffffffffffffffffffff1916141562003d83574262003c728673ffffffffffffffffffffffffffffffffffffffff16636549ff586040518163ffffffff1660e01b815260040160206040518083038186803b15801562003c2557600080fd5b505afa15801562003c3a573d6000803e3d6000fd5b505050506040513d602081101562003c5157600080fd5b81019080805190602001909291905050508662006ce190919063ffffffff16565b1062003ce6576040517f08c379a00000000000000000000000000000000000000000000000000000000081526004018080602001828103825260208152602001807f4c69717569646974792074726164652074696d65206e6f74207265616368656481525060200191505060405180910390fd5b600062003d137f503200000000000000000000000000000000000000000000000000000000000062000f64565b90508073ffffffffffffffffffffffffffffffffffffffff1663f720036c6040518163ffffffff1660e01b8152600401600060405180830381600087803b15801562003d5e57600080fd5b505af115801562003d73573d6000803e3d6000fd5b5050505050505050505062003e8e565b7f4d43520000000000000000000000000000000000000000000000000000000000827bffffffffffffffffffffffffffffffffffffffffffffffffffffffff1916148062003e0f57507f4941524200000000000000000000000000000000000000000000000000000000827bffffffffffffffffffffffffffffffffffffffffffffffffffffffff1916145b1562003e2057505050505062003e8e565b6040517f08c379a00000000000000000000000000000000000000000000000000000000081526004018080602001828103825260108152602001807f496e76616c69642063616c6c6261636b0000000000000000000000000000000081525060200191505060405180910390fd5b6000600760146101000a81548160ff02191690831515021790555050565b6000600360008373ffffffffffffffffffffffffffffffffffffffff1673ffffffffffffffffffffffffffffffffffffffff16815260200190815260200160002060009054906101000a900460ff169050919050565b600760009054906101000a900473ffffffffffffffffffffffffffffffffffffffff1681565b60008062003f567f4d5200000000000000000000000000000000000000000000000000000000000062000f64565b90508073ffffffffffffffffffffffffffffffffffffffff1663505ef22f846002600381111562003f8357fe5b6040518363ffffffff1660e01b8152600401808373ffffffffffffffffffffffffffffffffffffffff1673ffffffffffffffffffffffffffffffffffffffff1681526020018281526020019250505060206040518083038186803b15801562003feb57600080fd5b505afa15801562004000573d6000803e3d6000fd5b505050506040513d60208110156200401757600080fd5b8101908080519060200190929190505050915050919050565b600860009054906101000a900473ffffffffffffffffffffffffffffffffffffffff1673ffffffffffffffffffffffffffffffffffffffff163373ffffffffffffffffffffffffffffffffffffffff161480156200409b5750600760159054906101000a900460ff16155b620040f2576040517f08c379a0000000000000000000000000000000000000000000000000000000008152600401808060200182810382526036815260200180620079166036913960400191505060405180910390fd5b6002805490508151146200416e576040517f08c379a00000000000000000000000000000000000000000000000000000000081526004018080602001828103825260158152602001807f6172726179206c656e677468206e6f742073616d65000000000000000000000081525060200191505060405180910390fd5b6001600760156101000a81548160ff021916908315150217905550600081600e815181106200419957fe5b6020026020010151905060008090505b600280549050811015620043c157600073ffffffffffffffffffffffffffffffffffffffff16838281518110620041dc57fe5b602002602001015173ffffffffffffffffffffffffffffffffffffffff1614156200426f576040517f08c379a000000000000000000000000000000000000000000000000000000000815260040180806020018281038252601c8152602001807f4e554c4c2061646472657373206973206e6f7420616c6c6f7765642e0000000081525060200191505060405180910390fd5b8281815181106200427c57fe5b602002602001015160046000600284815481106200429657fe5b90600052602060002090601091828204019190066002029054906101000a900460f01b7dffffffffffffffffffffffffffffffffffffffffffffffffffffffffffff19167dffffffffffffffffffffffffffffffffffffffffffffffffffffffffffff1916815260200190815260200160002060006101000a81548173ffffffffffffffffffffffffffffffffffffffff021916908373ffffffffffffffffffffffffffffffffffffffff1602179055506001600360008584815181106200435a57fe5b602002602001015173ffffffffffffffffffffffffffffffffffffffff1673ffffffffffffffffffffffffffffffffffffffff16815260200190815260200160002060006101000a81548160ff0219169083151502179055508080600101915050620041a9565b5060608173ffffffffffffffffffffffffffffffffffffffff16635daf08ca600380811115620043ed57fe5b6040518263ffffffff1660e01b81526004018082815260200191505060006040518083038186803b1580156200442257600080fd5b505afa15801562004437573d6000803e3d6000fd5b505050506040513d6000823e3d601f19601f8201168201806040525060408110156200446257600080fd5b8101908080519060200190929190805160405193929190846401000000008211156200448d57600080fd5b83820191506020820185811115620044a457600080fd5b8251866020820283011164010000000082111715620044c257600080fd5b8083526020830192505050908051906020019060200280838360005b83811015620044fb578082015181840152602081019050620044de565b50505050905001604052505050915050806000815181106200451957fe5b6020026020010151600860006101000a81548173ffffffffffffffffffffffffffffffffffffffff021916908373ffffffffffffffffffffffffffffffffffffffff160217905550505050565b60008060009054906101000a900473ffffffffffffffffffffffffffffffffffffffff1690503373ffffffffffffffffffffffffffffffffffffffff168173ffffffffffffffffffffffffffffffffffffffff1663013828586040518163ffffffff1660e01b815260040180807f4756000000000000000000000000000000000000000000000000000000000000815250602001905060206040518083038186803b1580156200461557600080fd5b505afa1580156200462a573d6000803e3d6000fd5b505050506040513d60208110156200464157600080fd5b810190808051906020019092919050505073ffffffffffffffffffffffffffffffffffffffff1614620046dc576040517f08c379a000000000000000000000000000000000000000000000000000000000815260040180806020018281038252600e8152602001807f4e6f7420617574686f72697a656400000000000000000000000000000000000081525060200191505060405180910390fd5b815183511462004754576040517f08c379a000000000000000000000000000000000000000000000000000000000815260040180806020018281038252601d8152602001807f4172726179206c656e6774682073686f756c6420626520657175616c2e00000081525060200191505060405180910390fd5b60008090505b8351811015620053d95760008382815181106200477357fe5b60200260200101519050600073ffffffffffffffffffffffffffffffffffffffff168173ffffffffffffffffffffffffffffffffffffffff16141562004821576040517f08c379a000000000000000000000000000000000000000000000000000000000815260040180806020018281038252601c8152602001807f4e554c4c2061646472657373206973206e6f7420616c6c6f7765642e0000000081525060200191505060405180910390fd5b600660008684815181106200483257fe5b60200260200101517dffffffffffffffffffffffffffffffffffffffffffffffffffffffffffff19167dffffffffffffffffffffffffffffffffffffffffffffffffffffffffffff1916815260200190815260200160002060009054906101000a900460ff166200490b576040517f08c379a000000000000000000000000000000000000000000000000000000000815260040180806020018281038252601e8152602001807f436f6e74726163742073686f756c642062652075706772616461626c652e000081525060200191505060405180910390fd5b7f51540000000000000000000000000000000000000000000000000000000000008583815181106200493957fe5b60200260200101517dffffffffffffffffffffffffffffffffffffffffffffffffffffffffffff1916141562004a82576000600460007f51540000000000000000000000000000000000000000000000000000000000007dffffffffffffffffffffffffffffffffffffffffffffffffffffffffffff1916815260200190815260200160002060009054906101000a900473ffffffffffffffffffffffffffffffffffffffff1690508073ffffffffffffffffffffffffffffffffffffffff1663e2629974836040518263ffffffff1660e01b8152600401808273ffffffffffffffffffffffffffffffffffffffff1673ffffffffffffffffffffffffffffffffffffffff168152602001915050600060405180830381600087803b15801562004a6257600080fd5b505af115801562004a77573d6000803e3d6000fd5b5050505050620050bb565b7f435200000000000000000000000000000000000000000000000000000000000085838151811062004ab057fe5b60200260200101517dffffffffffffffffffffffffffffffffffffffffffffffffffffffffffff1916141562004dcf57600062004b0d7f544300000000000000000000000000000000000000000000000000000000000062000f64565b90508073ffffffffffffffffffffffffffffffffffffffff1663e43252d7836040518263ffffffff1660e01b8152600401808273ffffffffffffffffffffffffffffffffffffffff1673ffffffffffffffffffffffffffffffffffffffff168152602001915050600060405180830381600087803b15801562004b8f57600080fd5b505af115801562004ba4573d6000803e3d6000fd5b505050508073ffffffffffffffffffffffffffffffffffffffff16638ab1d681600460007f43520000000000000000000000000000000000000000000000000000000000007dffffffffffffffffffffffffffffffffffffffffffffffffffffffffffff1916815260200190815260200160002060009054906101000a900473ffffffffffffffffffffffffffffffffffffffff166040518263ffffffff1660e01b8152600401808273ffffffffffffffffffffffffffffffffffffffff1673ffffffffffffffffffffffffffffffffffffffff168152602001915050600060405180830381600087803b15801562004c9c57600080fd5b505af115801562004cb1573d6000803e3d6000fd5b505050506000600460007f43520000000000000000000000000000000000000000000000000000000000007dffffffffffffffffffffffffffffffffffffffffffffffffffffffffffff1916815260200190815260200160002060009054906101000a900473ffffffffffffffffffffffffffffffffffffffff1690508073ffffffffffffffffffffffffffffffffffffffff16630900f010846040518263ffffffff1660e01b8152600401808273ffffffffffffffffffffffffffffffffffffffff1673ffffffffffffffffffffffffffffffffffffffff168152602001915050600060405180830381600087803b15801562004dae57600080fd5b505af115801562004dc3573d6000803e3d6000fd5b505050505050620050ba565b7f503100000000000000000000000000000000000000000000000000000000000085838151811062004dfd57fe5b60200260200101517dffffffffffffffffffffffffffffffffffffffffffffffffffffffffffff1916141562004f46576000600460007f50310000000000000000000000000000000000000000000000000000000000007dffffffffffffffffffffffffffffffffffffffffffffffffffffffffffff1916815260200190815260200160002060009054906101000a900473ffffffffffffffffffffffffffffffffffffffff1690508073ffffffffffffffffffffffffffffffffffffffff166366fd551d836040518263ffffffff1660e01b8152600401808273ffffffffffffffffffffffffffffffffffffffff1673ffffffffffffffffffffffffffffffffffffffff168152602001915050600060405180830381600087803b15801562004f2657600080fd5b505af115801562004f3b573d6000803e3d6000fd5b5050505050620050b9565b7f503200000000000000000000000000000000000000000000000000000000000085838151811062004f7457fe5b60200260200101517dffffffffffffffffffffffffffffffffffffffffffffffffffffffffffff19161415620050b8576000600460007f50320000000000000000000000000000000000000000000000000000000000007dffffffffffffffffffffffffffffffffffffffffffffffffffffffffffff1916815260200190815260200160002060009054906101000a900473ffffffffffffffffffffffffffffffffffffffff1690508073ffffffffffffffffffffffffffffffffffffffff16636dce9b3d836040518263ffffffff1660e01b8152600401808273ffffffffffffffffffffffffffffffffffffffff1673ffffffffffffffffffffffffffffffffffffffff168152602001915050600060405180830381600087803b1580156200509d57600080fd5b505af1158015620050b2573d6000803e3d6000fd5b50505050505b5b5b5b600060046000878581518110620050ce57fe5b60200260200101517dffffffffffffffffffffffffffffffffffffffffffffffffffffffffffff19167dffffffffffffffffffffffffffffffffffffffffffffffffffffffffffff1916815260200190815260200160002060009054906101000a900473ffffffffffffffffffffffffffffffffffffffff1690506000600360008373ffffffffffffffffffffffffffffffffffffffff1673ffffffffffffffffffffffffffffffffffffffff16815260200190815260200160002060006101000a81548160ff0219169083151502179055508160046000888681518110620051b357fe5b60200260200101517dffffffffffffffffffffffffffffffffffffffffffffffffffffffffffff19167dffffffffffffffffffffffffffffffffffffffffffffffffffffffffffff1916815260200190815260200160002060006101000a81548173ffffffffffffffffffffffffffffffffffffffff021916908373ffffffffffffffffffffffffffffffffffffffff1602179055506001600360008473ffffffffffffffffffffffffffffffffffffffff1673ffffffffffffffffffffffffffffffffffffffff16815260200190815260200160002060006101000a81548160ff021916908315150217905550600060046000888681518110620052b457fe5b60200260200101517dffffffffffffffffffffffffffffffffffffffffffffffffffffffffffff19167dffffffffffffffffffffffffffffffffffffffffffffffffffffffffffff1916815260200190815260200160002060009054906101000a900473ffffffffffffffffffffffffffffffffffffffff1690508073ffffffffffffffffffffffffffffffffffffffff1663d46655f4306040518263ffffffff1660e01b8152600401808273ffffffffffffffffffffffffffffffffffffffff1673ffffffffffffffffffffffffffffffffffffffff168152602001915050600060405180830381600087803b158015620053af57600080fd5b505af1158015620053c4573d6000803e3d6000fd5b5050505050505080806001019150506200475a565b50620053e462006f2b565b505050565b6000808291506000807f4d5357414c4c45540000000000000000000000000000000000000000000000008577ffffffffffffffffffffffffffffffffffffffffffffffff19161415620054f2576000620054637f544400000000000000000000000000000000000000000000000000000000000062000f64565b90508073ffffffffffffffffffffffffffffffffffffffff16636ad5b3ea6040518163ffffffff1660e01b815260040160206040518083038186803b158015620054ac57600080fd5b505afa158015620054c1573d6000803e3d6000fd5b505050506040513d6020811015620054d857600080fd5b810190808051906020019092919050505093505062005a56565b7f4d43524e4f5441000000000000000000000000000000000000000000000000008577ffffffffffffffffffffffffffffffffffffffffffffffff19161415620055ef57620055617f504400000000000000000000000000000000000000000000000000000000000062000f64565b90508073ffffffffffffffffffffffffffffffffffffffff1663428dfd386040518163ffffffff1660e01b815260040160206040518083038186803b158015620055aa57600080fd5b505afa158015620055bf573d6000803e3d6000fd5b505050506040513d6020811015620055d657600080fd5b8101908080519060200190929190505050925062005a55565b7f44414946454544000000000000000000000000000000000000000000000000008577ffffffffffffffffffffffffffffffffffffffffffffffff19161415620056ec576200565e7f504400000000000000000000000000000000000000000000000000000000000062000f64565b90508073ffffffffffffffffffffffffffffffffffffffff1663f0f9f2546040518163ffffffff1660e01b815260040160206040518083038186803b158015620056a757600080fd5b505afa158015620056bc573d6000803e3d6000fd5b505050506040513d6020811015620056d357600080fd5b8101908080519060200190929190505050925062005a54565b7f554e4953574144440000000000000000000000000000000000000000000000008577ffffffffffffffffffffffffffffffffffffffffffffffff19161415620057ec5760006200575d7f503200000000000000000000000000000000000000000000000000000000000062000f64565b90508073ffffffffffffffffffffffffffffffffffffffff16633655ac3c6040518163ffffffff1660e01b815260040160206040518083038186803b158015620057a657600080fd5b505afa158015620057bb573d6000803e3d6000fd5b505050506040513d6020811015620057d257600080fd5b810190808051906020019092919050505093505062005a53565b7f4f574e45520000000000000000000000000000000000000000000000000000008577ffffffffffffffffffffffffffffffffffffffffffffffff191614156200585b57600860009054906101000a900473ffffffffffffffffffffffffffffffffffffffff16925062005a52565b7f51554f41555448000000000000000000000000000000000000000000000000008577ffffffffffffffffffffffffffffffffffffffffffffffff191614156200595857620058ca7f514400000000000000000000000000000000000000000000000000000000000062000f64565b91508173ffffffffffffffffffffffffffffffffffffffff1663e2c2a5bb6040518163ffffffff1660e01b815260040160206040518083038186803b1580156200591357600080fd5b505afa15801562005928573d6000803e3d6000fd5b505050506040513d60208110156200593f57600080fd5b8101908080519060200190929190505050925062005a51565b7f4b594341555448000000000000000000000000000000000000000000000000008577ffffffffffffffffffffffffffffffffffffffffffffffff1916141562005a5057620059c77f514400000000000000000000000000000000000000000000000000000000000062000f64565b91508173ffffffffffffffffffffffffffffffffffffffff166384434b9f6040518163ffffffff1660e01b815260040160206040518083038186803b15801562005a1057600080fd5b505afa15801562005a25573d6000803e3d6000fd5b505050506040513d602081101562005a3c57600080fd5b810190808051906020019092919050505092505b5b5b5b5b5b5b5050915091565b600760159054906101000a900460ff1681565b62005a7b8162006d6a565b62005aee576040517f08c379a000000000000000000000000000000000000000000000000000000000815260040180806020018281038252601e8152602001807f5061796f75742072657472792074696d65206e6f7420726561636865642e000081525060200191505060405180910390fd5b600062005b1b7f435200000000000000000000000000000000000000000000000000000000000062000f64565b90508073ffffffffffffffffffffffffffffffffffffffff16637f6715c9836040518263ffffffff1660e01b815260040180828152602001915050600060405180830381600087803b15801562005b7157600080fd5b505af115801562005b86573d6000803e3d6000fd5b505050505050565b606080600280548060200260200160405190810160405280929190818152602001828054801562005c2357602002820191906000526020600020906000905b82829054906101000a900460f01b7dffffffffffffffffffffffffffffffffffffffffffffffffffffffffffff19168152602001906002019060208260010104928301926001038202915080841162005bcd5790505b5050505050915060028054905060405190808252806020026020018201604052801562005c5f5781602001602082028038833980820191505090505b50905060008090505b60028054905081101562005d7157600460006002838154811062005c8857fe5b90600052602060002090601091828204019190066002029054906101000a900460f01b7dffffffffffffffffffffffffffffffffffffffffffffffffffffffffffff19167dffffffffffffffffffffffffffffffffffffffffffffffffffffffffffff1916815260200190815260200160002060009054906101000a900473ffffffffffffffffffffffffffffffffffffffff1682828151811062005d2957fe5b602002602001019073ffffffffffffffffffffffffffffffffffffffff16908173ffffffffffffffffffffffffffffffffffffffff1681525050808060010191505062005c68565b509091565b6000809054906101000a900473ffffffffffffffffffffffffffffffffffffffff1681565b60008060009054906101000a900473ffffffffffffffffffffffffffffffffffffffff1690503373ffffffffffffffffffffffffffffffffffffffff168173ffffffffffffffffffffffffffffffffffffffff1663013828586040518163ffffffff1660e01b815260040180807f4756000000000000000000000000000000000000000000000000000000000000815250602001905060206040518083038186803b15801562005e4a57600080fd5b505afa15801562005e5f573d6000803e3d6000fd5b505050506040513d602081101562005e7657600080fd5b810190808051906020019092919050505073ffffffffffffffffffffffffffffffffffffffff161462005f11576040517f08c379a000000000000000000000000000000000000000000000000000000000815260040180806020018281038252600e8152602001807f4e6f7420617574686f72697a656400000000000000000000000000000000000081525060200191505060405180910390fd5b6000807f4d5357414c4c45540000000000000000000000000000000000000000000000008577ffffffffffffffffffffffffffffffffffffffffffffffff191614156200602757600062005f857f544400000000000000000000000000000000000000000000000000000000000062000f64565b90508073ffffffffffffffffffffffffffffffffffffffff1663ec8edf7a866040518263ffffffff1660e01b8152600401808273ffffffffffffffffffffffffffffffffffffffff1673ffffffffffffffffffffffffffffffffffffffff168152602001915050600060405180830381600087803b1580156200600757600080fd5b505af11580156200601c573d6000803e3d6000fd5b505050505062006742565b7f4d43524e4f5441000000000000000000000000000000000000000000000000008577ffffffffffffffffffffffffffffffffffffffffffffffff191614156200613757620060967f504400000000000000000000000000000000000000000000000000000000000062000f64565b90508073ffffffffffffffffffffffffffffffffffffffff16636576ffed856040518263ffffffff1660e01b8152600401808273ffffffffffffffffffffffffffffffffffffffff1673ffffffffffffffffffffffffffffffffffffffff168152602001915050600060405180830381600087803b1580156200611857600080fd5b505af11580156200612d573d6000803e3d6000fd5b5050505062006741565b7f44414946454544000000000000000000000000000000000000000000000000008577ffffffffffffffffffffffffffffffffffffffffffffffff191614156200624757620061a67f504400000000000000000000000000000000000000000000000000000000000062000f64565b90508073ffffffffffffffffffffffffffffffffffffffff1663ca0d4c86856040518263ffffffff1660e01b8152600401808273ffffffffffffffffffffffffffffffffffffffff1673ffffffffffffffffffffffffffffffffffffffff168152602001915050600060405180830381600087803b1580156200622857600080fd5b505af11580156200623d573d6000803e3d6000fd5b5050505062006740565b7f554e4953574144440000000000000000000000000000000000000000000000008577ffffffffffffffffffffffffffffffffffffffffffffffff191614156200635a576000620062b87f503200000000000000000000000000000000000000000000000000000000000062000f64565b90508073ffffffffffffffffffffffffffffffffffffffff1663b19ab66d866040518263ffffffff1660e01b8152600401808273ffffffffffffffffffffffffffffffffffffffff1673ffffffffffffffffffffffffffffffffffffffff168152602001915050600060405180830381600087803b1580156200633a57600080fd5b505af11580156200634f573d6000803e3d6000fd5b50505050506200673f565b7f4f574e45520000000000000000000000000000000000000000000000000000008577ffffffffffffffffffffffffffffffffffffffffffffffff19161415620064ae576000620063cb7f4d5200000000000000000000000000000000000000000000000000000000000062000f64565b90508073ffffffffffffffffffffffffffffffffffffffff166390a79368866040518263ffffffff1660e01b8152600401808273ffffffffffffffffffffffffffffffffffffffff1673ffffffffffffffffffffffffffffffffffffffff168152602001915050600060405180830381600087803b1580156200644d57600080fd5b505af115801562006462573d6000803e3d6000fd5b5050505084600860006101000a81548173ffffffffffffffffffffffffffffffffffffffff021916908373ffffffffffffffffffffffffffffffffffffffff160217905550506200673e565b7f51554f41555448000000000000000000000000000000000000000000000000008577ffffffffffffffffffffffffffffffffffffffffffffffff19161415620065be576200651d7f514400000000000000000000000000000000000000000000000000000000000062000f64565b91508173ffffffffffffffffffffffffffffffffffffffff16631407264b856040518263ffffffff1660e01b8152600401808273ffffffffffffffffffffffffffffffffffffffff1673ffffffffffffffffffffffffffffffffffffffff168152602001915050600060405180830381600087803b1580156200659f57600080fd5b505af1158015620065b4573d6000803e3d6000fd5b505050506200673d565b7f4b594341555448000000000000000000000000000000000000000000000000008577ffffffffffffffffffffffffffffffffffffffffffffffff19161415620066ce576200662d7f514400000000000000000000000000000000000000000000000000000000000062000f64565b91508173ffffffffffffffffffffffffffffffffffffffff1663549a65f4856040518263ffffffff1660e01b8152600401808273ffffffffffffffffffffffffffffffffffffffff1673ffffffffffffffffffffffffffffffffffffffff168152602001915050600060405180830381600087803b158015620066af57600080fd5b505af1158015620066c4573d6000803e3d6000fd5b505050506200673c565b6040517f08c379a00000000000000000000000000000000000000000000000000000000081526004018080602001828103825260128152602001807f496e76616c696420706172616d20636f6465000000000000000000000000000081525060200191505060405180910390fd5b5b5b5b5b5b5b5050505050565b6000600760009054906101000a900473ffffffffffffffffffffffffffffffffffffffff16905090565b60066020528060005260406000206000915054906101000a900460ff1681565b6000600180549050905090565b6000806001805490509050600081118015620067e75750600180820381548110620067c757fe5b906000526020600020906003020160000160009054906101000a900460ff165b91505090565b7f4142000000000000000000000000000000000000000000000000000000000000817bffffffffffffffffffffffffffffffffffffffffffffffffffffffff191614806200687957507f4155540000000000000000000000000000000000000000000000000000000000817bffffffffffffffffffffffffffffffffffffffffffffffffffffffff1916145b620068ec576040517f08c379a000000000000000000000000000000000000000000000000000000000815260040180806020018281038252600d8152602001807f496e76616c69642063616c6c2e0000000000000000000000000000000000000081525060200191505060405180910390fd5b620069177f503100000000000000000000000000000000000000000000000000000000000062000f64565b73ffffffffffffffffffffffffffffffffffffffff163373ffffffffffffffffffffffffffffffffffffffff161480620069a65750620069777f475600000000000000000000000000000000000000000000000000000000000062000f64565b73ffffffffffffffffffffffffffffffffffffffff163373ffffffffffffffffffffffffffffffffffffffff16145b62006a19576040517f08c379a000000000000000000000000000000000000000000000000000000000815260040180806020018281038252601b8152602001807f43616c6c61626c6520627920503120616e64204756206f6e6c792e000000000081525060200191505060405180910390fd5b600160405180606001604052808415158152602001428152602001837bffffffffffffffffffffffffffffffffffffffffffffffffffffffff19168152509080600181540180825580915050906001820390600052602060002090600302016000909192909190915060008201518160000160006101000a81548160ff0219169083151502179055506020820151816001015560408201518160020160006101000a81548163ffffffff021916908360e01c021790555050505060001515821515141562006c20576000600460007f434c0000000000000000000000000000000000000000000000000000000000007dffffffffffffffffffffffffffffffffffffffffffffffffffffffffffff1916815260200190815260200160002060009054906101000a900473ffffffffffffffffffffffffffffffffffffffff1690508073ffffffffffffffffffffffffffffffffffffffff166375a0f5216040518163ffffffff1660e01b8152600401600060405180830381600087803b15801562006ba357600080fd5b505af115801562006bb8573d6000803e3d6000fd5b505050508073ffffffffffffffffffffffffffffffffffffffff16639755fafe6040518163ffffffff1660e01b8152600401600060405180830381600087803b15801562006c0557600080fd5b505af115801562006c1a573d6000803e3d6000fd5b50505050505b5050565b6000808260405162006c36906200721e565b808273ffffffffffffffffffffffffffffffffffffffff1673ffffffffffffffffffffffffffffffffffffffff168152602001915050604051809103906000f08015801562006c89573d6000803e3d6000fd5b50905080915050919050565b600062006cd983836040518060400160405280601e81526020017f536166654d6174683a207375627472616374696f6e206f766572666c6f7700008152506200715a565b905092915050565b60008082840190508381101562006d60576040517f08c379a000000000000000000000000000000000000000000000000000000000815260040180806020018281038252601b8152602001807f536166654d6174683a206164646974696f6e206f766572666c6f77000000000081525060200191505060405180910390fd5b8091505092915050565b60008062006d987f434400000000000000000000000000000000000000000000000000000000000062000f64565b90506000808273ffffffffffffffffffffffffffffffffffffffff16635aef2447866040518263ffffffff1660e01b81526004018082815260200191505060c06040518083038186803b15801562006def57600080fd5b505afa15801562006e04573d6000803e3d6000fd5b505050506040513d60c081101562006e1b57600080fd5b810190808051906020019092919080519060200190929190805190602001909291908051906020019092919080519060200190929190805190602001909291905050505094509450505050600c82141562006f1e574262006f098473ffffffffffffffffffffffffffffffffffffffff1663ee8dea636040518163ffffffff1660e01b815260040160206040518083038186803b15801562006ebc57600080fd5b505afa15801562006ed1573d6000803e3d6000fd5b505050506040513d602081101562006ee857600080fd5b81019080805190602001909291905050508362006ce190919063ffffffff16565b111562006f1d576000935050505062006f26565b5b600193505050505b919050565b60008090505b6002805490508110156200715757600160036000600460006002868154811062006f5757fe5b90600052602060002090601091828204019190066002029054906101000a900460f01b7dffffffffffffffffffffffffffffffffffffffffffffffffffffffffffff19167dffffffffffffffffffffffffffffffffffffffffffffffffffffffffffff1916815260200190815260200160002060009054906101000a900473ffffffffffffffffffffffffffffffffffffffff1673ffffffffffffffffffffffffffffffffffffffff1673ffffffffffffffffffffffffffffffffffffffff16815260200190815260200160002060006101000a81548160ff021916908315150217905550600060046000600284815481106200705057fe5b90600052602060002090601091828204019190066002029054906101000a900460f01b7dffffffffffffffffffffffffffffffffffffffffffffffffffffffffffff19167dffffffffffffffffffffffffffffffffffffffffffffffffffffffffffff1916815260200190815260200160002060009054906101000a900473ffffffffffffffffffffffffffffffffffffffff1690508073ffffffffffffffffffffffffffffffffffffffff16630ea9c9846040518163ffffffff1660e01b8152600401600060405180830381600087803b1580156200712f57600080fd5b505af115801562007144573d6000803e3d6000fd5b5050505050808060010191505062006f31565b50565b60008383111582906200720b576040517f08c379a00000000000000000000000000000000000000000000000000000000081526004018080602001828103825283818151815260200191508051906020019080838360005b83811015620071cf578082015181840152602081019050620071b2565b50505050905090810190601f168015620071fd5780820380516001836020036101000a031916815260200191505b509250505060405180910390fd5b5060008385039050809150509392505050565b6106e9806200722d8339019056fe608060405234801561001057600080fd5b506040516106e93803806106e98339818101604052602081101561003357600080fd5b81019080805190602001909291905050506100533361006860201b60201c565b610062816100a960201b60201c565b50610194565b600060405180807f6f72672e676f76626c6f636b732e70726f78792e6f776e6572000000000000008152506019019050604051809103902090508181555050565b60006100b961014a60201b60201c565b90508173ffffffffffffffffffffffffffffffffffffffff168173ffffffffffffffffffffffffffffffffffffffff1614156100f457600080fd5b6101038261017060201b60201c565b8173ffffffffffffffffffffffffffffffffffffffff167fbc7cd75a20ee27fd9adebab32041f755214dbc6bffa90cc0225b39da2e5c2d3b60405160405180910390a25050565b60008060405180806106c760229139602201905060405180910390209050805491505090565b600060405180806106c7602291396022019050604051809103902090508181555050565b610524806101a36000396000f3fe60806040526004361061003f5760003560e01c8063025313a2146100ac5780633659cfe6146101035780635c60da1b14610154578063f1739cae146101ab575b60006100496101fc565b9050600073ffffffffffffffffffffffffffffffffffffffff168173ffffffffffffffffffffffffffffffffffffffff16141561008557600080fd5b60405136600082376000803683855af43d806000843e81600081146100a8578184f35b8184fd5b3480156100b857600080fd5b506100c1610222565b604051808273ffffffffffffffffffffffffffffffffffffffff1673ffffffffffffffffffffffffffffffffffffffff16815260200191505060405180910390f35b34801561010f57600080fd5b506101526004803603602081101561012657600080fd5b81019080803573ffffffffffffffffffffffffffffffffffffffff169060200190929190505050610265565b005b34801561016057600080fd5b506101696101fc565b604051808273ffffffffffffffffffffffffffffffffffffffff1673ffffffffffffffffffffffffffffffffffffffff16815260200191505060405180910390f35b3480156101b757600080fd5b506101fa600480360360208110156101ce57600080fd5b81019080803573ffffffffffffffffffffffffffffffffffffffff1690602001909291905050506102b0565b005b60008060405180806104ce60229139602201905060405180910390209050805491505090565b60008060405180807f6f72672e676f76626c6f636b732e70726f78792e6f776e657200000000000000815250601901905060405180910390209050805491505090565b61026d610222565b73ffffffffffffffffffffffffffffffffffffffff163373ffffffffffffffffffffffffffffffffffffffff16146102a457600080fd5b6102ad816103d3565b50565b6102b8610222565b73ffffffffffffffffffffffffffffffffffffffff163373ffffffffffffffffffffffffffffffffffffffff16146102ef57600080fd5b600073ffffffffffffffffffffffffffffffffffffffff168173ffffffffffffffffffffffffffffffffffffffff16141561032957600080fd5b61033281610468565b7f5a3e66efaa1e445ebd894728a69d6959842ea1e97bd79b892797106e270efcd961035b610222565b82604051808373ffffffffffffffffffffffffffffffffffffffff1673ffffffffffffffffffffffffffffffffffffffff1681526020018273ffffffffffffffffffffffffffffffffffffffff1673ffffffffffffffffffffffffffffffffffffffff1681526020019250505060405180910390a150565b60006103dd6101fc565b90508173ffffffffffffffffffffffffffffffffffffffff168173ffffffffffffffffffffffffffffffffffffffff16141561041857600080fd5b610421826104a9565b8173ffffffffffffffffffffffffffffffffffffffff167fbc7cd75a20ee27fd9adebab32041f755214dbc6bffa90cc0225b39da2e5c2d3b60405160405180910390a25050565b600060405180807f6f72672e676f76626c6f636b732e70726f78792e6f776e6572000000000000008152506019019050604051809103902090508181555050565b600060405180806104ce60229139602201905060405180910390209050818155505056fe6f72672e676f76626c6f636b732e70726f78792e696d706c656d656e746174696f6ea265627a7a723158208e3ff7816ad060f72bf6e561b4097a77130eb5f418a1ee31077131fecc61ec1d64736f6c634300051100326f72672e676f76626c6f636b732e70726f78792e696d706c656d656e746174696f6e43616c6c65722073686f756c64206265206f776e657220616e642073686f756c64206f6e6c792062652063616c6c6564206f6e63652e456d657267656e63792070617573656420776173206e6f7420737461727465642062792041647669736f727920426f617264436f6e747261637420636f646520697320616c726561647920617661696c61626c652e4f6e6c792063616c6c6261636b206f66207479706520455020697320616c6c6f77656420647572696e6720656d657267656e6379207061757365a265627a7a723158208ce66904d0dd585b786c922c7e7c4aeb57fe570ac8013341db875e0fdf73371164736f6c63430005110032",
  "linkReferences": {},
  "deployedLinkReferences": {}
}