{
  "_format": "hh-sol-artifact-1",
  "contractName": "ProposalCategory",
  "sourceName": "nexusmutual/contracts/modules/governance/ProposalCategory.sol",
  "abi": [
    {
      "anonymous": false,
      "inputs": [
        {
          "indexed": true,
          "internalType": "uint256",
          "name": "categoryId",
          "type": "uint256"
        },
        {
          "indexed": false,
          "internalType": "string",
          "name": "categoryName",
          "type": "string"
        },
        {
          "indexed": false,
          "internalType": "string",
          "name": "actionHash",
          "type": "string"
        }
      ],
      "name": "Category",
      "type": "event"
    },
    {
      "constant": false,
      "inputs": [
        {
          "internalType": "string",
          "name": "_name",
          "type": "string"
        },
        {
          "internalType": "uint256",
          "name": "_memberRoleToVote",
          "type": "uint256"
        },
        {
          "internalType": "uint256",
          "name": "_majorityVotePerc",
          "type": "uint256"
        },
        {
          "internalType": "uint256",
          "name": "_quorumPerc",
          "type": "uint256"
        },
        {
          "internalType": "uint256[]",
          "name": "_allowedToCreateProposal",
          "type": "uint256[]"
        },
        {
          "internalType": "uint256",
          "name": "_closingTime",
          "type": "uint256"
        },
        {
          "internalType": "string",
          "name": "_actionHash",
          "type": "string"
        },
        {
          "internalType": "address",
          "name": "_contractAddress",
          "type": "address"
        },
        {
          "internalType": "bytes2",
          "name": "_contractName",
          "type": "bytes2"
        },
        {
          "internalType": "uint256[]",
          "name": "_incentives",
          "type": "uint256[]"
        }
      ],
      "name": "addCategory",
      "outputs": [],
      "payable": false,
      "stateMutability": "nonpayable",
      "type": "function"
    },
    {
      "constant": true,
      "inputs": [
        {
          "internalType": "uint256",
          "name": "_categoryId",
          "type": "uint256"
        }
      ],
      "name": "category",
      "outputs": [
        {
          "internalType": "uint256",
          "name": "",
          "type": "uint256"
        },
        {
          "internalType": "uint256",
          "name": "",
          "type": "uint256"
        },
        {
          "internalType": "uint256",
          "name": "",
          "type": "uint256"
        },
        {
          "internalType": "uint256",
          "name": "",
          "type": "uint256"
        },
        {
          "internalType": "uint256[]",
          "name": "",
          "type": "uint256[]"
        },
        {
          "internalType": "uint256",
          "name": "",
          "type": "uint256"
        },
        {
          "internalType": "uint256",
          "name": "",
          "type": "uint256"
        }
      ],
      "payable": false,
      "stateMutability": "view",
      "type": "function"
    },
    {
      "constant": true,
      "inputs": [
        {
          "internalType": "uint256",
          "name": "",
          "type": "uint256"
        }
      ],
      "name": "categoryABReq",
      "outputs": [
        {
          "internalType": "uint256",
          "name": "",
          "type": "uint256"
        }
      ],
      "payable": false,
      "stateMutability": "view",
      "type": "function"
    },
    {
      "constant": true,
      "inputs": [
        {
          "internalType": "uint256",
          "name": "_categoryId",
          "type": "uint256"
        }
      ],
      "name": "categoryAction",
      "outputs": [
        {
          "internalType": "uint256",
          "name": "",
          "type": "uint256"
        },
        {
          "internalType": "address",
          "name": "",
          "type": "address"
        },
        {
          "internalType": "bytes2",
          "name": "",
          "type": "bytes2"
        },
        {
          "internalType": "uint256",
          "name": "",
          "type": "uint256"
        }
      ],
      "payable": false,
      "stateMutability": "view",
      "type": "function"
    },
    {
      "constant": true,
      "inputs": [
        {
          "internalType": "uint256",
          "name": "_categoryId",
          "type": "uint256"
        }
      ],
      "name": "categoryActionDetails",
      "outputs": [
        {
          "internalType": "uint256",
          "name": "",
          "type": "uint256"
        },
        {
          "internalType": "address",
          "name": "",
          "type": "address"
        },
        {
          "internalType": "bytes2",
          "name": "",
          "type": "bytes2"
        },
        {
          "internalType": "uint256",
          "name": "",
          "type": "uint256"
        },
        {
          "internalType": "bytes",
          "name": "",
          "type": "bytes"
        }
      ],
      "payable": false,
      "stateMutability": "view",
      "type": "function"
    },
    {
      "constant": true,
      "inputs": [],
      "name": "categoryActionHashUpdated",
      "outputs": [
        {
          "internalType": "bool",
          "name": "",
          "type": "bool"
        }
      ],
      "payable": false,
      "stateMutability": "view",
      "type": "function"
    },
    {
      "constant": true,
      "inputs": [
        {
          "internalType": "uint256",
          "name": "",
          "type": "uint256"
        }
      ],
      "name": "categoryActionHashes",
      "outputs": [
        {
          "internalType": "bytes",
          "name": "",
          "type": "bytes"
        }
      ],
      "payable": false,
      "stateMutability": "view",
      "type": "function"
    },
    {
      "constant": true,
      "inputs": [
        {
          "internalType": "uint256",
          "name": "_categoryId",
          "type": "uint256"
        }
      ],
      "name": "categoryExtendedData",
      "outputs": [
        {
          "internalType": "uint256",
          "name": "",
          "type": "uint256"
        },
        {
          "internalType": "uint256",
          "name": "",
          "type": "uint256"
        },
        {
          "internalType": "uint256",
          "name": "",
          "type": "uint256"
        }
      ],
      "payable": false,
      "stateMutability": "view",
      "type": "function"
    },
    {
      "constant": false,
      "inputs": [],
      "name": "changeDependentContractAddress",
      "outputs": [],
      "payable": false,
      "stateMutability": "nonpayable",
      "type": "function"
    },
    {
      "constant": false,
      "inputs": [
        {
          "internalType": "address",
          "name": "_masterAddress",
          "type": "address"
        }
      ],
      "name": "changeMasterAddress",
      "outputs": [],
      "payable": false,
      "stateMutability": "nonpayable",
      "type": "function"
    },
    {
      "constant": true,
      "inputs": [],
      "name": "constructorCheck",
      "outputs": [
        {
          "internalType": "bool",
          "name": "",
          "type": "bool"
        }
      ],
      "payable": false,
      "stateMutability": "view",
      "type": "function"
    },
    {
      "constant": false,
      "inputs": [
        {
          "internalType": "uint256",
          "name": "_categoryId",
          "type": "uint256"
        },
        {
          "internalType": "string",
          "name": "_name",
          "type": "string"
        },
        {
          "internalType": "uint256",
          "name": "_memberRoleToVote",
          "type": "uint256"
        },
        {
          "internalType": "uint256",
          "name": "_majorityVotePerc",
          "type": "uint256"
        },
        {
          "internalType": "uint256",
          "name": "_quorumPerc",
          "type": "uint256"
        },
        {
          "internalType": "uint256[]",
          "name": "_allowedToCreateProposal",
          "type": "uint256[]"
        },
        {
          "internalType": "uint256",
          "name": "_closingTime",
          "type": "uint256"
        },
        {
          "internalType": "string",
          "name": "_actionHash",
          "type": "string"
        },
        {
          "internalType": "address",
          "name": "_contractAddress",
          "type": "address"
        },
        {
          "internalType": "bytes2",
          "name": "_contractName",
          "type": "bytes2"
        },
        {
          "internalType": "uint256[]",
          "name": "_incentives",
          "type": "uint256[]"
        },
        {
          "internalType": "string",
          "name": "_functionHash",
          "type": "string"
        }
      ],
      "name": "editCategory",
      "outputs": [],
      "payable": false,
      "stateMutability": "nonpayable",
      "type": "function"
    },
    {
      "constant": true,
      "inputs": [
        {
          "internalType": "address",
          "name": "_toCheck",
          "type": "address"
        }
      ],
      "name": "isAuthorizedToGovern",
      "outputs": [
        {
          "internalType": "bool",
          "name": "",
          "type": "bool"
        }
      ],
      "payable": false,
      "stateMutability": "view",
      "type": "function"
    },
    {
      "constant": true,
      "inputs": [
        {
          "internalType": "uint256",
          "name": "",
          "type": "uint256"
        }
      ],
      "name": "isSpecialResolution",
      "outputs": [
        {
          "internalType": "uint256",
          "name": "",
          "type": "uint256"
        }
      ],
      "payable": false,
      "stateMutability": "view",
      "type": "function"
    },
    {
      "constant": true,
      "inputs": [],
      "name": "masterAddress",
      "outputs": [
        {
          "internalType": "address",
          "name": "",
          "type": "address"
        }
      ],
      "payable": false,
      "stateMutability": "view",
      "type": "function"
    },
    {
      "constant": true,
      "inputs": [],
      "name": "ms",
      "outputs": [
        {
          "internalType": "contract INXMMaster",
          "name": "",
          "type": "address"
        }
      ],
      "payable": false,
      "stateMutability": "view",
      "type": "function"
    },
    {
      "constant": false,
      "inputs": [
        {
          "internalType": "string",
          "name": "_name",
          "type": "string"
        },
        {
          "internalType": "uint256",
          "name": "_memberRoleToVote",
          "type": "uint256"
        },
        {
          "internalType": "uint256",
          "name": "_majorityVotePerc",
          "type": "uint256"
        },
        {
          "internalType": "uint256",
          "name": "_quorumPerc",
          "type": "uint256"
        },
        {
          "internalType": "uint256[]",
          "name": "_allowedToCreateProposal",
          "type": "uint256[]"
        },
        {
          "internalType": "uint256",
          "name": "_closingTime",
          "type": "uint256"
        },
        {
          "internalType": "string",
          "name": "_actionHash",
          "type": "string"
        },
        {
          "internalType": "address",
          "name": "_contractAddress",
          "type": "address"
        },
        {
          "internalType": "bytes2",
          "name": "_contractName",
          "type": "bytes2"
        },
        {
          "internalType": "uint256[]",
          "name": "_incentives",
          "type": "uint256[]"
        },
        {
          "internalType": "string",
          "name": "_functionHash",
          "type": "string"
        }
      ],
      "name": "newCategory",
      "outputs": [],
      "payable": false,
      "stateMutability": "nonpayable",
      "type": "function"
    },
    {
      "constant": true,
      "inputs": [],
      "name": "nxMasterAddress",
      "outputs": [
        {
          "internalType": "address",
          "name": "",
          "type": "address"
        }
      ],
      "payable": false,
      "stateMutability": "view",
      "type": "function"
    },
    {
      "constant": false,
      "inputs": [],
      "name": "proposalCategoryInitiate",
      "outputs": [],
      "payable": false,
      "stateMutability": "nonpayable",
      "type": "function"
    },
    {
      "constant": true,
      "inputs": [],
      "name": "totalCategories",
      "outputs": [
        {
          "internalType": "uint256",
          "name": "",
          "type": "uint256"
        }
      ],
      "payable": false,
      "stateMutability": "view",
      "type": "function"
    },
    {
      "constant": false,
      "inputs": [
        {
          "internalType": "uint256",
          "name": "_categoryId",
          "type": "uint256"
        },
        {
          "internalType": "string",
          "name": "_name",
          "type": "string"
        },
        {
          "internalType": "uint256",
          "name": "_memberRoleToVote",
          "type": "uint256"
        },
        {
          "internalType": "uint256",
          "name": "_majorityVotePerc",
          "type": "uint256"
        },
        {
          "internalType": "uint256",
          "name": "_quorumPerc",
          "type": "uint256"
        },
        {
          "internalType": "uint256[]",
          "name": "_allowedToCreateProposal",
          "type": "uint256[]"
        },
        {
          "internalType": "uint256",
          "name": "_closingTime",
          "type": "uint256"
        },
        {
          "internalType": "string",
          "name": "_actionHash",
          "type": "string"
        },
        {
          "internalType": "address",
          "name": "_contractAddress",
          "type": "address"
        },
        {
          "internalType": "bytes2",
          "name": "_contractName",
          "type": "bytes2"
        },
        {
          "internalType": "uint256[]",
          "name": "_incentives",
          "type": "uint256[]"
        }
      ],
      "name": "updateCategory",
      "outputs": [],
      "payable": false,
      "stateMutability": "nonpayable",
      "type": "function"
    },
    {
      "constant": false,
      "inputs": [],
      "name": "updateCategoryActionHashes",
      "outputs": [],
      "payable": false,
      "stateMutability": "nonpayable",
      "type": "function"
    }
  ],
  "bytecode": "0x608060405234801561001057600080fd5b50614520806100206000396000f3fe608060405234801561001057600080fd5b50600436106101425760003560e01c806386957731116100b8578063cf3acfbc1161007c578063cf3acfbc14610f5c578063d365a08e14610f66578063d46655f414610fb0578063d4aaafb414610ff4578063da3f7bd114611125578063f17a3bec1461131157610142565b806386957731146104c457806395566ebd14610506578063a0b2d57f146107fe578063aef8123614610848578063b02bc31614610bcd57610142565b8063525050e11161010a578063525050e1146102c857806354911e12146102ea57806357c7bec11461030c578063674aa712146103b35780636debdabf14610478578063780052971461048257610142565b806307149ba3146101475780630ea9c9841461019757806322ce7254146101a1578063253eca1f146101fd57806339275b0a146102aa575b600080fd5b6101736004803603602081101561015d57600080fd5b810190808035906020019092919050505061135b565b60405180848152602001838152602001828152602001935050505060405180910390f35b61019f611396565b005b6101e3600480360360208110156101b757600080fd5b81019080803573ffffffffffffffffffffffffffffffffffffffff1690602001909291905050506114a6565b604051808215151515815260200191505060405180910390f35b6102296004803603602081101561021357600080fd5b81019080803590602001909291905050506115af565b6040518088815260200187815260200186815260200185815260200180602001848152602001838152602001828103825285818151815260200191508051906020019060200280838360005b83811015610290578082015181840152602081019050610275565b505050509050019850505050505050505060405180910390f35b6102b26116df565b6040518082815260200191505060405180910390f35b6102d06116ec565b604051808215151515815260200191505060405180910390f35b6102f26116ff565b604051808215151515815260200191505060405180910390f35b6103386004803603602081101561032257600080fd5b8101908080359060200190929190505050611712565b6040518080602001828103825283818151815260200191508051906020019080838360005b8381101561037857808201518184015260208101905061035d565b50505050905090810190601f1680156103a55780820380516001836020036101000a031916815260200191505b509250505060405180910390f35b6103df600480360360208110156103c957600080fd5b81019080803590602001909291905050506117c2565b604051808581526020018473ffffffffffffffffffffffffffffffffffffffff1673ffffffffffffffffffffffffffffffffffffffff168152602001837dffffffffffffffffffffffffffffffffffffffffffffffffffffffffffff19167dffffffffffffffffffffffffffffffffffffffffffffffffffffffffffff1916815260200182815260200194505050505060405180910390f35b61048061184a565b005b6104ae6004803603602081101561049857600080fd5b8101908080359060200190929190505050612d0f565b6040518082815260200191505060405180910390f35b6104f0600480360360208110156104da57600080fd5b8101908080359060200190929190505050612d27565b6040518082815260200191505060405180910390f35b6107fc600480360361016081101561051d57600080fd5b81019080803590602001909291908035906020019064010000000081111561054457600080fd5b82018360208201111561055657600080fd5b8035906020019184600183028401116401000000008311171561057857600080fd5b91908080601f016020809104026020016040519081016040528093929190818152602001838380828437600081840152601f19601f820116905080830192505050505050509192919290803590602001909291908035906020019092919080359060200190929190803590602001906401000000008111156105f957600080fd5b82018360208201111561060b57600080fd5b8035906020019184602083028401116401000000008311171561062d57600080fd5b919080806020026020016040519081016040528093929190818152602001838360200280828437600081840152601f19601f820116905080830192505050505050509192919290803590602001909291908035906020019064010000000081111561069757600080fd5b8201836020820111156106a957600080fd5b803590602001918460018302840111640100000000831117156106cb57600080fd5b91908080601f016020809104026020016040519081016040528093929190818152602001838380828437600081840152601f19601f820116905080830192505050505050509192919290803573ffffffffffffffffffffffffffffffffffffffff16906020019092919080357dffffffffffffffffffffffffffffffffffffffffffffffffffffffffffff191690602001909291908035906020019064010000000081111561077957600080fd5b82018360208201111561078b57600080fd5b803590602001918460208302840111640100000000831117156107ad57600080fd5b919080806020026020016040519081016040528093929190818152602001838360200280828437600081840152601f19601f820116905080830192505050505050509192919290505050612d3f565b005b610806612d4c565b604051808273ffffffffffffffffffffffffffffffffffffffff1673ffffffffffffffffffffffffffffffffffffffff16815260200191505060405180910390f35b610bcb600480360361016081101561085f57600080fd5b810190808035906020019064010000000081111561087c57600080fd5b82018360208201111561088e57600080fd5b803590602001918460018302840111640100000000831117156108b057600080fd5b91908080601f016020809104026020016040519081016040528093929190818152602001838380828437600081840152601f19601f8201169050808301925050505050505091929192908035906020019092919080359060200190929190803590602001909291908035906020019064010000000081111561093157600080fd5b82018360208201111561094357600080fd5b8035906020019184602083028401116401000000008311171561096557600080fd5b919080806020026020016040519081016040528093929190818152602001838360200280828437600081840152601f19601f82011690508083019250505050505050919291929080359060200190929190803590602001906401000000008111156109cf57600080fd5b8201836020820111156109e157600080fd5b80359060200191846001830284011164010000000083111715610a0357600080fd5b91908080601f016020809104026020016040519081016040528093929190818152602001838380828437600081840152601f19601f820116905080830192505050505050509192919290803573ffffffffffffffffffffffffffffffffffffffff16906020019092919080357dffffffffffffffffffffffffffffffffffffffffffffffffffffffffffff1916906020019092919080359060200190640100000000811115610ab157600080fd5b820183602082011115610ac357600080fd5b80359060200191846020830284011164010000000083111715610ae557600080fd5b919080806020026020016040519081016040528093929190818152602001838360200280828437600081840152601f19601f82011690508083019250505050505050919291929080359060200190640100000000811115610b4557600080fd5b820183602082011115610b5757600080fd5b80359060200191846001830284011164010000000083111715610b7957600080fd5b91908080601f016020809104026020016040519081016040528093929190818152602001838380828437600081840152601f19601f820116905080830192505050505050509192919290505050612d72565b005b610f5a6004803603610180811015610be457600080fd5b810190808035906020019092919080359060200190640100000000811115610c0b57600080fd5b820183602082011115610c1d57600080fd5b80359060200191846001830284011164010000000083111715610c3f57600080fd5b91908080601f016020809104026020016040519081016040528093929190818152602001838380828437600081840152601f19601f82011690508083019250505050505050919291929080359060200190929190803590602001909291908035906020019092919080359060200190640100000000811115610cc057600080fd5b820183602082011115610cd257600080fd5b80359060200191846020830284011164010000000083111715610cf457600080fd5b919080806020026020016040519081016040528093929190818152602001838360200280828437600081840152601f19601f8201169050808301925050505050505091929192908035906020019092919080359060200190640100000000811115610d5e57600080fd5b820183602082011115610d7057600080fd5b80359060200191846001830284011164010000000083111715610d9257600080fd5b91908080601f016020809104026020016040519081016040528093929190818152602001838380828437600081840152601f19601f820116905080830192505050505050509192919290803573ffffffffffffffffffffffffffffffffffffffff16906020019092919080357dffffffffffffffffffffffffffffffffffffffffffffffffffffffffffff1916906020019092919080359060200190640100000000811115610e4057600080fd5b820183602082011115610e5257600080fd5b80359060200191846020830284011164010000000083111715610e7457600080fd5b919080806020026020016040519081016040528093929190818152602001838360200280828437600081840152601f19601f82011690508083019250505050505050919291929080359060200190640100000000811115610ed457600080fd5b820183602082011115610ee657600080fd5b80359060200191846001830284011164010000000083111715610f0857600080fd5b91908080601f016020809104026020016040519081016040528093929190818152602001838380828437600081840152601f19601f8201169050808301925050505050505091929192905050506132b0565b005b610f64613b7f565b005b610f6e613b81565b604051808273ffffffffffffffffffffffffffffffffffffffff1673ffffffffffffffffffffffffffffffffffffffff16815260200191505060405180910390f35b610ff260048036036020811015610fc657600080fd5b81019080803573ffffffffffffffffffffffffffffffffffffffff169060200190929190505050613ba6565b005b6110206004803603602081101561100a57600080fd5b8101908080359060200190929190505050613d1a565b604051808681526020018573ffffffffffffffffffffffffffffffffffffffff1673ffffffffffffffffffffffffffffffffffffffff168152602001847dffffffffffffffffffffffffffffffffffffffffffffffffffffffffffff19167dffffffffffffffffffffffffffffffffffffffffffffffffffffffffffff1916815260200183815260200180602001828103825283818151815260200191508051906020019080838360005b838110156110e65780820151818401526020810190506110cb565b50505050905090810190601f1680156111135780820380516001836020036101000a031916815260200191505b50965050505050505060405180910390f35b61130f600480360361014081101561113c57600080fd5b810190808035906020019064010000000081111561115957600080fd5b82018360208201111561116b57600080fd5b8035906020019184600183028401116401000000008311171561118d57600080fd5b9091929391929390803590602001909291908035906020019092919080359060200190929190803590602001906401000000008111156111cc57600080fd5b8201836020820111156111de57600080fd5b8035906020019184602083028401116401000000008311171561120057600080fd5b9091929391929390803590602001909291908035906020019064010000000081111561122b57600080fd5b82018360208201111561123d57600080fd5b8035906020019184600183028401116401000000008311171561125f57600080fd5b9091929391929390803573ffffffffffffffffffffffffffffffffffffffff16906020019092919080357dffffffffffffffffffffffffffffffffffffffffffffffffffffffffffff19169060200190929190803590602001906401000000008111156112cb57600080fd5b8201836020820111156112dd57600080fd5b803590602001918460208302840111640100000000831117156112ff57600080fd5b9091929391929390505050613e57565b005b611319613e67565b604051808273ffffffffffffffffffffffffffffffffffffffff1673ffffffffffffffffffffffffffffffffffffffff16815260200191505060405180910390f35b600080600083600660008681526020019081526020016000205460076000878152602001908152602001600020549250925092509193909250565b600160009054906101000a900473ffffffffffffffffffffffffffffffffffffffff1673ffffffffffffffffffffffffffffffffffffffff1663013828586040518163ffffffff1660e01b815260040180807f4d52000000000000000000000000000000000000000000000000000000000000815250602001905060206040518083038186803b15801561142957600080fd5b505afa15801561143d573d6000803e3d6000fd5b505050506040513d602081101561145357600080fd5b8101908080519060200190929190505050600360006101000a81548173ffffffffffffffffffffffffffffffffffffffff021916908373ffffffffffffffffffffffffffffffffffffffff160217905550565b6000806000809054906101000a900473ffffffffffffffffffffffffffffffffffffffff1690508273ffffffffffffffffffffffffffffffffffffffff168173ffffffffffffffffffffffffffffffffffffffff1663013828586040518163ffffffff1660e01b815260040180807f4756000000000000000000000000000000000000000000000000000000000000815250602001905060206040518083038186803b15801561155557600080fd5b505afa158015611569573d6000803e3d6000fd5b505050506040513d602081101561157f57600080fd5b810190808051906020019092919050505073ffffffffffffffffffffffffffffffffffffffff1614915050919050565b600080600080606060008087600489815481106115c857fe5b90600052602060002090600602016000015460048a815481106115e757fe5b90600052602060002090600602016001015460048b8154811061160657fe5b90600052602060002090600602016002015460048c8154811061162557fe5b906000526020600020906006020160030160048d8154811061164357fe5b90600052602060002090600602016004015460048e8154811061166257fe5b906000526020600020906006020160050154828054806020026020016040519081016040528092919081815260200182805480156116bf57602002820191906000526020600020905b8154815260200190600101908083116116ab575b505050505092509650965096509650965096509650919395979092949650565b6000600480549050905090565b600260149054906101000a900460ff1681565b600960009054906101000a900460ff1681565b60086020528060005260406000206000915090508054600181600116156101000203166002900480601f0160208091040260200160405190810160405280929190818152602001828054600181600116156101000203166002900480156117ba5780601f1061178f576101008083540402835291602001916117ba565b820191906000526020600020905b81548152906001019060200180831161179d57829003601f168201915b505050505081565b600080600080846005600087815260200190815260200160002060010160009054906101000a900473ffffffffffffffffffffffffffffffffffffffff166005600088815260200190815260200160002060010160149054906101000a900460f01b600560008981526020019081526020016000206000015493509350935093509193509193565b600160009054906101000a900473ffffffffffffffffffffffffffffffffffffffff1673ffffffffffffffffffffffffffffffffffffffff16632f54bf6e336040518263ffffffff1660e01b8152600401808273ffffffffffffffffffffffffffffffffffffffff1673ffffffffffffffffffffffffffffffffffffffff16815260200191505060206040518083038186803b1580156118e957600080fd5b505afa1580156118fd573d6000803e3d6000fd5b505050506040513d602081101561191357600080fd5b810190808051906020019092919050505061192d57600080fd5b600960009054906101000a900460ff1615611993576040517f08c379a00000000000000000000000000000000000000000000000000000000081526004018080602001828103825260268152602001806144c66026913960400191505060405180910390fd5b6001600960006101000a81548160ff0219169083151502179055506040516024016040516020818303038152906040527f2dc4bdca000000000000000000000000000000000000000000000000000000007bffffffffffffffffffffffffffffffffffffffffffffffffffffffff19166020820180517bffffffffffffffffffffffffffffffffffffffffffffffffffffffff838183161783525050505060086000600181526020019081526020016000209080519060200190611a5892919061433e565b506040516024016040516020818303038152906040527f2f473021000000000000000000000000000000000000000000000000000000007bffffffffffffffffffffffffffffffffffffffffffffffffffffffff19166020820180517bffffffffffffffffffffffffffffffffffffffffffffffffffffffff838183161783525050505060086000600281526020019081526020016000209080519060200190611b0392919061433e565b506040516024016040516020818303038152906040527faef81236000000000000000000000000000000000000000000000000000000007bffffffffffffffffffffffffffffffffffffffffffffffffffffffff19166020820180517bffffffffffffffffffffffffffffffffffffffffffffffffffffffff838183161783525050505060086000600381526020019081526020016000209080519060200190611bae92919061433e565b506040516024016040516020818303038152906040527fb02bc316000000000000000000000000000000000000000000000000000000007bffffffffffffffffffffffffffffffffffffffffffffffffffffffff19166020820180517bffffffffffffffffffffffffffffffffffffffffffffffffffffffff838183161783525050505060086000600481526020019081526020016000209080519060200190611c5992919061433e565b506040516024016040516020818303038152906040527f65a8c523000000000000000000000000000000000000000000000000000000007bffffffffffffffffffffffffffffffffffffffffffffffffffffffff19166020820180517bffffffffffffffffffffffffffffffffffffffffffffffffffffffff838183161783525050505060086000600581526020019081526020016000209080519060200190611d0492919061433e565b506040516024016040516020818303038152906040527f872f1eb3000000000000000000000000000000000000000000000000000000007bffffffffffffffffffffffffffffffffffffffffffffffffffffffff19166020820180517bffffffffffffffffffffffffffffffffffffffffffffffffffffffff838183161783525050505060086000600681526020019081526020016000209080519060200190611daf92919061433e565b506040516024016040516020818303038152906040527fffa39929000000000000000000000000000000000000000000000000000000007bffffffffffffffffffffffffffffffffffffffffffffffffffffffff19166020820180517bffffffffffffffffffffffffffffffffffffffffffffffffffffffff838183161783525050505060086000600781526020019081526020016000209080519060200190611e5a92919061433e565b506040516024016040516020818303038152906040527fccace7df000000000000000000000000000000000000000000000000000000007bffffffffffffffffffffffffffffffffffffffffffffffffffffffff19166020820180517bffffffffffffffffffffffffffffffffffffffffffffffffffffffff838183161783525050505060086000600881526020019081526020016000209080519060200190611f0592919061433e565b506040516024016040516020818303038152906040527f623c2bca000000000000000000000000000000000000000000000000000000007bffffffffffffffffffffffffffffffffffffffffffffffffffffffff19166020820180517bffffffffffffffffffffffffffffffffffffffffffffffffffffffff838183161783525050505060086000600981526020019081526020016000209080519060200190611fb092919061433e565b506040516024016040516020818303038152906040527fbd03e501000000000000000000000000000000000000000000000000000000007bffffffffffffffffffffffffffffffffffffffffffffffffffffffff19166020820180517bffffffffffffffffffffffffffffffffffffffffffffffffffffffff838183161783525050505060086000600c8152602001908152602001600020908051906020019061205b92919061433e565b506040516024016040516020818303038152906040527fc6318c23000000000000000000000000000000000000000000000000000000007bffffffffffffffffffffffffffffffffffffffffffffffffffffffff19166020820180517bffffffffffffffffffffffffffffffffffffffffffffffffffffffff838183161783525050505060086000600d8152602001908152602001600020908051906020019061210692919061433e565b506040516024016040516020818303038152906040527fc85e5efd000000000000000000000000000000000000000000000000000000007bffffffffffffffffffffffffffffffffffffffffffffffffffffffff19166020820180517bffffffffffffffffffffffffffffffffffffffffffffffffffffffff838183161783525050505060086000600e815260200190815260200160002090805190602001906121b192919061433e565b506040516024016040516020818303038152906040527f42a049cd000000000000000000000000000000000000000000000000000000007bffffffffffffffffffffffffffffffffffffffffffffffffffffffff19166020820180517bffffffffffffffffffffffffffffffffffffffffffffffffffffffff838183161783525050505060086000600f8152602001908152602001600020908051906020019061225c92919061433e565b506040516024016040516020818303038152906040527fc578f230000000000000000000000000000000000000000000000000000000007bffffffffffffffffffffffffffffffffffffffffffffffffffffffff19166020820180517bffffffffffffffffffffffffffffffffffffffffffffffffffffffff83818316178352505050506008600060108152602001908152602001600020908051906020019061230792919061433e565b506040516024016040516020818303038152906040527febff71c3000000000000000000000000000000000000000000000000000000007bffffffffffffffffffffffffffffffffffffffffffffffffffffffff19166020820180517bffffffffffffffffffffffffffffffffffffffffffffffffffffffff8381831617835250505050600860006011815260200190815260200160002090805190602001906123b292919061433e565b506040516024016040516020818303038152906040527f9dd86e0f000000000000000000000000000000000000000000000000000000007bffffffffffffffffffffffffffffffffffffffffffffffffffffffff19166020820180517bffffffffffffffffffffffffffffffffffffffffffffffffffffffff83818316178352505050506008600060148152602001908152602001600020908051906020019061245d92919061433e565b506040516024016040516020818303038152906040527f9dd86e0f000000000000000000000000000000000000000000000000000000007bffffffffffffffffffffffffffffffffffffffffffffffffffffffff19166020820180517bffffffffffffffffffffffffffffffffffffffffffffffffffffffff83818316178352505050506008600060158152602001908152602001600020908051906020019061250892919061433e565b506040516024016040516020818303038152906040527f9dd86e0f000000000000000000000000000000000000000000000000000000007bffffffffffffffffffffffffffffffffffffffffffffffffffffffff19166020820180517bffffffffffffffffffffffffffffffffffffffffffffffffffffffff8381831617835250505050600860006016815260200190815260200160002090805190602001906125b392919061433e565b506040516024016040516020818303038152906040527f9dd86e0f000000000000000000000000000000000000000000000000000000007bffffffffffffffffffffffffffffffffffffffffffffffffffffffff19166020820180517bffffffffffffffffffffffffffffffffffffffffffffffffffffffff83818316178352505050506008600060178152602001908152602001600020908051906020019061265e92919061433e565b506040516024016040516020818303038152906040527f9dd86e0f000000000000000000000000000000000000000000000000000000007bffffffffffffffffffffffffffffffffffffffffffffffffffffffff19166020820180517bffffffffffffffffffffffffffffffffffffffffffffffffffffffff83818316178352505050506008600060188152602001908152602001600020908051906020019061270992919061433e565b506040516024016040516020818303038152906040527f9dd86e0f000000000000000000000000000000000000000000000000000000007bffffffffffffffffffffffffffffffffffffffffffffffffffffffff19166020820180517bffffffffffffffffffffffffffffffffffffffffffffffffffffffff8381831617835250505050600860006019815260200190815260200160002090805190602001906127b492919061433e565b506040516024016040516020818303038152906040527f9dd86e0f000000000000000000000000000000000000000000000000000000007bffffffffffffffffffffffffffffffffffffffffffffffffffffffff19166020820180517bffffffffffffffffffffffffffffffffffffffffffffffffffffffff838183161783525050505060086000601a8152602001908152602001600020908051906020019061285f92919061433e565b506040516024016040516020818303038152906040527fad4cc43e000000000000000000000000000000000000000000000000000000007bffffffffffffffffffffffffffffffffffffffffffffffffffffffff19166020820180517bffffffffffffffffffffffffffffffffffffffffffffffffffffffff838183161783525050505060086000601b8152602001908152602001600020908051906020019061290a92919061433e565b506040516024016040516020818303038152906040527fe2cab14d000000000000000000000000000000000000000000000000000000007bffffffffffffffffffffffffffffffffffffffffffffffffffffffff19166020820180517bffffffffffffffffffffffffffffffffffffffffffffffffffffffff838183161783525050505060086000601c815260200190815260200160002090805190602001906129b592919061433e565b506040516024016040516020818303038152906040527f92b0a156000000000000000000000000000000000000000000000000000000007bffffffffffffffffffffffffffffffffffffffffffffffffffffffff19166020820180517bffffffffffffffffffffffffffffffffffffffffffffffffffffffff838183161783525050505060086000601d81526020019081526020016000209080519060200190612a6092919061433e565b506040516024016040516020818303038152906040527feaad1b3b000000000000000000000000000000000000000000000000000000007bffffffffffffffffffffffffffffffffffffffffffffffffffffffff19166020820180517bffffffffffffffffffffffffffffffffffffffffffffffffffffffff838183161783525050505060086000601e81526020019081526020016000209080519060200190612b0b92919061433e565b506040516024016040516020818303038152906040527f496b4886000000000000000000000000000000000000000000000000000000007bffffffffffffffffffffffffffffffffffffffffffffffffffffffff19166020820180517bffffffffffffffffffffffffffffffffffffffffffffffffffffffff838183161783525050505060086000601f81526020019081526020016000209080519060200190612bb692919061433e565b506040516024016040516020818303038152906040527fa5263aa2000000000000000000000000000000000000000000000000000000007bffffffffffffffffffffffffffffffffffffffffffffffffffffffff19166020820180517bffffffffffffffffffffffffffffffffffffffffffffffffffffffff838183161783525050505060086000602081526020019081526020016000209080519060200190612c6192919061433e565b506040516024016040516020818303038152906040527ff720036c000000000000000000000000000000000000000000000000000000007bffffffffffffffffffffffffffffffffffffffffffffffffffffffff19166020820180517bffffffffffffffffffffffffffffffffffffffffffffffffffffffff838183161783525050505060086000602181526020019081526020016000209080519060200190612d0c92919061433e565b50565b60066020528060005260406000206000915090505481565b60076020528060005260406000206000915090505481565b5050505050505050505050565b600160009054906101000a900473ffffffffffffffffffffffffffffffffffffffff1681565b60008060009054906101000a900473ffffffffffffffffffffffffffffffffffffffff1690503373ffffffffffffffffffffffffffffffffffffffff168173ffffffffffffffffffffffffffffffffffffffff1663013828586040518163ffffffff1660e01b815260040180807f4756000000000000000000000000000000000000000000000000000000000000815250602001905060206040518083038186803b158015612e2057600080fd5b505afa158015612e34573d6000803e3d6000fd5b505050506040513d6020811015612e4a57600080fd5b810190808051906020019092919050505073ffffffffffffffffffffffffffffffffffffffff1614612ee4576040517f08c379a000000000000000000000000000000000000000000000000000000000815260040180806020018281038252600e8152602001807f4e6f7420617574686f72697a656400000000000000000000000000000000000081525060200191505060405180910390fd5b60648911158015612ef6575060648a11155b612f68576040517f08c379a00000000000000000000000000000000000000000000000000000000081526004018080602001828103825260128152602001807f496e76616c69642070657263656e74616765000000000000000000000000000081525060200191505060405180910390fd5b7f4558000000000000000000000000000000000000000000000000000000000000847dffffffffffffffffffffffffffffffffffffffffffffffffffffffffffff1916148015612fe45750600073ffffffffffffffffffffffffffffffffffffffff168573ffffffffffffffffffffffffffffffffffffffff16145b80612ff0575060008251115b612ff957600080fd5b60018360038151811061300857fe5b60200260200101511115613084576040517f08c379a000000000000000000000000000000000000000000000000000000000815260040180806020018281038252601f8152602001807f496e76616c6964207370656369616c207265736f6c7574696f6e20666c61670081525060200191505060405180910390fd5b60018360038151811061309357fe5b602002602001015114156130c257600260038111156130ae57fe5b8b146130b957600080fd5b60009950600098505b6130d48c8c8c8c8c8c8c8c8c8c613e8d565b600082511180156131a95750600482604051602401604051602081830303815290604052906040518082805190602001908083835b6020831061312c5780518252602082019150602081019050602083039250613109565b6001836020036101000a03801982511681845116808217855250505050505090500191505060405180910390207bffffffffffffffffffffffffffffffffffffffffffffffffffffffff19166020820180517bffffffffffffffffffffffffffffffffffffffffffffffffffffffff838183161783525050505051145b156132a25781604051602401604051602081830303815290604052906040518082805190602001908083835b602083106131f857805182526020820191506020810190506020830392506131d5565b6001836020036101000a03801982511681845116808217855250505050505090500191505060405180910390207bffffffffffffffffffffffffffffffffffffffffffffffffffffffff19166020820180517bffffffffffffffffffffffffffffffffffffffffffffffffffffffff838183161783525050505060086000600160048054905003815260200190815260200160002090805190602001906132a092919061433e565b505b505050505050505050505050565b60008060009054906101000a900473ffffffffffffffffffffffffffffffffffffffff1690503373ffffffffffffffffffffffffffffffffffffffff168173ffffffffffffffffffffffffffffffffffffffff1663013828586040518163ffffffff1660e01b815260040180807f4756000000000000000000000000000000000000000000000000000000000000815250602001905060206040518083038186803b15801561335e57600080fd5b505afa158015613372573d6000803e3d6000fd5b505050506040513d602081101561338857600080fd5b810190808051906020019092919050505073ffffffffffffffffffffffffffffffffffffffff1614613422576040517f08c379a000000000000000000000000000000000000000000000000000000000815260040180806020018281038252600e8152602001807f4e6f7420617574686f72697a656400000000000000000000000000000000000081525060200191505060405180910390fd5b600161342e8c8a614237565b146134a1576040517f08c379a000000000000000000000000000000000000000000000000000000000815260040180806020018281038252600c8152602001807f496e76616c696420526f6c65000000000000000000000000000000000000000081525060200191505060405180910390fd5b606489111580156134b3575060648a11155b613525576040517f08c379a00000000000000000000000000000000000000000000000000000000081526004018080602001828103825260128152602001807f496e76616c69642070657263656e74616765000000000000000000000000000081525060200191505060405180910390fd5b7f4558000000000000000000000000000000000000000000000000000000000000847dffffffffffffffffffffffffffffffffffffffffffffffffffffffffffff19161480156135a15750600073ffffffffffffffffffffffffffffffffffffffff168573ffffffffffffffffffffffffffffffffffffffff16145b806135ad575060008251115b6135b657600080fd5b6001836003815181106135c557fe5b60200260200101511115613641576040517f08c379a000000000000000000000000000000000000000000000000000000000815260040180806020018281038252601f8152602001807f496e76616c6964207370656369616c207265736f6c7574696f6e20666c61670081525060200191505060405180910390fd5b60018360038151811061365057fe5b6020026020010151141561367f576002600381111561366b57fe5b8b1461367657600080fd5b60009950600098505b600860008e8152602001908152602001600020600061369e91906143be565b600082511180156137735750600482604051602401604051602081830303815290604052906040518082805190602001908083835b602083106136f657805182526020820191506020810190506020830392506136d3565b6001836020036101000a03801982511681845116808217855250505050505090500191505060405180910390207bffffffffffffffffffffffffffffffffffffffffffffffffffffffff19166020820180517bffffffffffffffffffffffffffffffffffffffffffffffffffffffff838183161783525050505051145b156138645781604051602401604051602081830303815290604052906040518082805190602001908083835b602083106137c2578051825260208201915060208101905060208303925061379f565b6001836020036101000a03801982511681845116808217855250505050505090500191505060405180910390207bffffffffffffffffffffffffffffffffffffffffffffffffffffffff19166020820180517bffffffffffffffffffffffffffffffffffffffffffffffffffffffff8381831617835250505050600860008f8152602001908152602001600020908051906020019061386292919061433e565b505b8a60048e8154811061387257fe5b9060005260206000209060060201600001819055508960048e8154811061389557fe5b9060005260206000209060060201600101819055508660048e815481106138b857fe5b9060005260206000209060060201600401819055508760048e815481106138db57fe5b906000526020600020906006020160030190805190602001906138ff929190614406565b508260008151811061390d57fe5b602002602001015160048e8154811061392257fe5b9060005260206000209060060201600501819055508860048e8154811061394557fe5b9060005260206000209060060201600201819055508260018151811061396757fe5b6020026020010151600560008f81526020019081526020016000206000018190555083600560008f815260200190815260200160002060010160146101000a81548161ffff021916908360f01c021790555084600560008f815260200190815260200160002060010160006101000a81548173ffffffffffffffffffffffffffffffffffffffff021916908373ffffffffffffffffffffffffffffffffffffffff16021790555082600281518110613a1b57fe5b6020026020010151600660008f81526020019081526020016000208190555082600381518110613a4757fe5b6020026020010151600760008f8152602001908152602001600020819055508c7f2a65d0fe76508fb4e604d4804927dce75b70f82e64a2025e3bffb2fc003418508d88604051808060200180602001838103835285818151815260200191508051906020019080838360005b83811015613ace578082015181840152602081019050613ab3565b50505050905090810190601f168015613afb5780820380516001836020036101000a031916815260200191505b50838103825284818151815260200191508051906020019080838360005b83811015613b34578082015181840152602081019050613b19565b50505050905090810190601f168015613b615780820380516001836020036101000a031916815260200191505b5094505050505060405180910390a250505050505050505050505050565b565b6000809054906101000a900473ffffffffffffffffffffffffffffffffffffffff1681565b600073ffffffffffffffffffffffffffffffffffffffff166000809054906101000a900473ffffffffffffffffffffffffffffffffffffffff1673ffffffffffffffffffffffffffffffffffffffff1614613c55573373ffffffffffffffffffffffffffffffffffffffff166000809054906101000a900473ffffffffffffffffffffffffffffffffffffffff1673ffffffffffffffffffffffffffffffffffffffff1614613c5457600080fd5b5b806000806101000a81548173ffffffffffffffffffffffffffffffffffffffff021916908373ffffffffffffffffffffffffffffffffffffffff16021790555080600160006101000a81548173ffffffffffffffffffffffffffffffffffffffff021916908373ffffffffffffffffffffffffffffffffffffffff16021790555080600260006101000a81548173ffffffffffffffffffffffffffffffffffffffff021916908373ffffffffffffffffffffffffffffffffffffffff16021790555050565b6000806000806060856005600088815260200190815260200160002060010160009054906101000a900473ffffffffffffffffffffffffffffffffffffffff166005600089815260200190815260200160002060010160149054906101000a900460f01b600560008a815260200190815260200160002060000154600860008b8152602001908152602001600020808054600181600116156101000203166002900480601f016020809104026020016040519081016040528092919081815260200182805460018160011615610100020316600290048015613e3d5780601f10613e1257610100808354040283529160200191613e3d565b820191906000526020600020905b815481529060010190602001808311613e2057829003601f168201915b505050505090509450945094509450945091939590929450565b5050505050505050505050505050565b600260009054906101000a900473ffffffffffffffffffffffffffffffffffffffff1681565b6001613e998a88614237565b14613f0c576040517f08c379a000000000000000000000000000000000000000000000000000000000815260040180806020018281038252600c8152602001807f496e76616c696420526f6c65000000000000000000000000000000000000000081525060200191505060405180910390fd5b60046040518060c001604052808b81526020018a815260200189815260200188815260200187815260200183600081518110613f4457fe5b6020026020010151815250908060018154018082558091505090600182039060005260206000209060060201600090919290919091506000820151816000015560208201518160010155604082015181600201556060820151816003019080519060200190613fb4929190614453565b506080820151816004015560a0820151816005015550505060006001600480549050039050604051806060016040528083600181518110613ff157fe5b602002602001015181526020018573ffffffffffffffffffffffffffffffffffffffff168152602001847dffffffffffffffffffffffffffffffffffffffffffffffffffffffffffff1916815250600560008381526020019081526020016000206000820151816000015560208201518160010160006101000a81548173ffffffffffffffffffffffffffffffffffffffff021916908373ffffffffffffffffffffffffffffffffffffffff16021790555060408201518160010160146101000a81548161ffff021916908360f01c0217905550905050816002815181106140d557fe5b602002602001015160066000838152602001908152602001600020819055508160038151811061410157fe5b60200260200101516007600083815260200190815260200160002081905550807f2a65d0fe76508fb4e604d4804927dce75b70f82e64a2025e3bffb2fc003418508c87604051808060200180602001838103835285818151815260200191508051906020019080838360005b8381101561418857808201518184015260208101905061416d565b50505050905090810190601f1680156141b55780820380516001836020036101000a031916815260200191505b50838103825284818151815260200191508051906020019080838360005b838110156141ee5780820151818401526020810190506141d3565b50505050905090810190601f16801561421b5780820380516001836020036101000a031916815260200191505b5094505050505060405180910390a25050505050505050505050565b600080600360009054906101000a900473ffffffffffffffffffffffffffffffffffffffff1673ffffffffffffffffffffffffffffffffffffffff1663790e118c6040518163ffffffff1660e01b815260040160206040518083038186803b1580156142a257600080fd5b505afa1580156142b6573d6000803e3d6000fd5b505050506040513d60208110156142cc57600080fd5b810190808051906020019092919050505090508084106142f0576000915050614338565b60008090505b8351811015614331578184828151811061430c57fe5b60200260200101511061432457600092505050614338565b80806001019150506142f6565b5060019150505b92915050565b828054600181600116156101000203166002900490600052602060002090601f016020900481019282601f1061437f57805160ff19168380011785556143ad565b828001600101855582156143ad579182015b828111156143ac578251825591602001919060010190614391565b5b5090506143ba91906144a0565b5090565b50805460018160011615610100020316600290046000825580601f106143e45750614403565b601f01602090049060005260206000209081019061440291906144a0565b5b50565b828054828255906000526020600020908101928215614442579160200282015b82811115614441578251825591602001919060010190614426565b5b50905061444f91906144a0565b5090565b82805482825590600052602060002090810192821561448f579160200282015b8281111561448e578251825591602001919060010190614473565b5b50905061449c91906144a0565b5090565b6144c291905b808211156144be5760008160009055506001016144a6565b5090565b9056fe43617465676f727920616374696f6e2068617368657320616c72656164792075706461746564a265627a7a72315820d293eef1b2074b7d1ee460de12236324790f93fc1da8f619880f76cfd3843dba64736f6c63430005110032",
  "linkReferences": {},
  "deployedLinkReferences": {}
}