{
  "_format": "hh-sol-artifact-1",
  "contractName": "PooledStaking",
  "sourceName": "contracts/NexusMutual/modules/staking/PooledStaking.sol",
  "abi": [
    {
      "anonymous": false,
      "inputs": [
        {
          "indexed": true,
          "internalType": "address",
          "name": "contractAddress",
          "type": "address"
        },
        {
          "indexed": false,
          "internalType": "uint256",
          "name": "amount",
          "type": "uint256"
        }
      ],
      "name": "BurnRequested",
      "type": "event"
    },
    {
      "anonymous": false,
      "inputs": [
        {
          "indexed": true,
          "internalType": "address",
          "name": "contractAddress",
          "type": "address"
        },
        {
          "indexed": false,
          "internalType": "uint256",
          "name": "amount",
          "type": "uint256"
        },
        {
          "indexed": false,
          "internalType": "uint256",
          "name": "contractStakeBeforeBurn",
          "type": "uint256"
        }
      ],
      "name": "Burned",
      "type": "event"
    },
    {
      "anonymous": false,
      "inputs": [
        {
          "indexed": true,
          "internalType": "address",
          "name": "staker",
          "type": "address"
        },
        {
          "indexed": false,
          "internalType": "uint256",
          "name": "amount",
          "type": "uint256"
        }
      ],
      "name": "Deposited",
      "type": "event"
    },
    {
      "anonymous": false,
      "inputs": [
        {
          "indexed": false,
          "internalType": "bool",
          "name": "finished",
          "type": "bool"
        }
      ],
      "name": "PendingActionsProcessed",
      "type": "event"
    },
    {
      "anonymous": false,
      "inputs": [
        {
          "indexed": true,
          "internalType": "address",
          "name": "contractAddress",
          "type": "address"
        },
        {
          "indexed": false,
          "internalType": "uint256",
          "name": "amount",
          "type": "uint256"
        }
      ],
      "name": "RewardAdded",
      "type": "event"
    },
    {
      "anonymous": false,
      "inputs": [
        {
          "indexed": true,
          "internalType": "address",
          "name": "contractAddress",
          "type": "address"
        },
        {
          "indexed": false,
          "internalType": "uint256",
          "name": "amount",
          "type": "uint256"
        }
      ],
      "name": "RewardRequested",
      "type": "event"
    },
    {
      "anonymous": false,
      "inputs": [
        {
          "indexed": true,
          "internalType": "address",
          "name": "staker",
          "type": "address"
        },
        {
          "indexed": false,
          "internalType": "uint256",
          "name": "amount",
          "type": "uint256"
        }
      ],
      "name": "RewardWithdrawn",
      "type": "event"
    },
    {
      "anonymous": false,
      "inputs": [
        {
          "indexed": true,
          "internalType": "address",
          "name": "contractAddress",
          "type": "address"
        },
        {
          "indexed": false,
          "internalType": "uint256",
          "name": "amount",
          "type": "uint256"
        },
        {
          "indexed": false,
          "internalType": "uint256",
          "name": "contractStake",
          "type": "uint256"
        }
      ],
      "name": "Rewarded",
      "type": "event"
    },
    {
      "anonymous": false,
      "inputs": [
        {
          "indexed": false,
          "internalType": "bool",
          "name": "finished",
          "type": "bool"
        },
        {
          "indexed": false,
          "internalType": "uint256",
          "name": "firstReward",
          "type": "uint256"
        },
        {
          "indexed": false,
          "internalType": "uint256",
          "name": "iterationsLeft",
          "type": "uint256"
        }
      ],
      "name": "RewardsMigrationCompleted",
      "type": "event"
    },
    {
      "anonymous": false,
      "inputs": [
        {
          "indexed": true,
          "internalType": "address",
          "name": "contractAddress",
          "type": "address"
        },
        {
          "indexed": true,
          "internalType": "address",
          "name": "staker",
          "type": "address"
        },
        {
          "indexed": false,
          "internalType": "uint256",
          "name": "amount",
          "type": "uint256"
        }
      ],
      "name": "Staked",
      "type": "event"
    },
    {
      "anonymous": false,
      "inputs": [
        {
          "indexed": true,
          "internalType": "address",
          "name": "contractAddress",
          "type": "address"
        },
        {
          "indexed": true,
          "internalType": "address",
          "name": "staker",
          "type": "address"
        },
        {
          "indexed": false,
          "internalType": "uint256",
          "name": "amount",
          "type": "uint256"
        },
        {
          "indexed": false,
          "internalType": "uint256",
          "name": "unstakeAt",
          "type": "uint256"
        }
      ],
      "name": "UnstakeRequested",
      "type": "event"
    },
    {
      "anonymous": false,
      "inputs": [
        {
          "indexed": true,
          "internalType": "address",
          "name": "contractAddress",
          "type": "address"
        },
        {
          "indexed": true,
          "internalType": "address",
          "name": "staker",
          "type": "address"
        },
        {
          "indexed": false,
          "internalType": "uint256",
          "name": "amount",
          "type": "uint256"
        }
      ],
      "name": "Unstaked",
      "type": "event"
    },
    {
      "anonymous": false,
      "inputs": [
        {
          "indexed": true,
          "internalType": "address",
          "name": "staker",
          "type": "address"
        },
        {
          "indexed": false,
          "internalType": "uint256",
          "name": "amount",
          "type": "uint256"
        }
      ],
      "name": "Withdrawn",
      "type": "event"
    },
    {
      "constant": true,
      "inputs": [],
      "name": "MAX_EXPOSURE",
      "outputs": [
        {
          "internalType": "uint256",
          "name": "",
          "type": "uint256"
        }
      ],
      "payable": false,
      "stateMutability": "view",
      "type": "function"
    },
    {
      "constant": true,
      "inputs": [],
      "name": "MIN_STAKE",
      "outputs": [
        {
          "internalType": "uint256",
          "name": "",
          "type": "uint256"
        }
      ],
      "payable": false,
      "stateMutability": "view",
      "type": "function"
    },
    {
      "constant": true,
      "inputs": [],
      "name": "MIN_UNSTAKE",
      "outputs": [
        {
          "internalType": "uint256",
          "name": "",
          "type": "uint256"
        }
      ],
      "payable": false,
      "stateMutability": "view",
      "type": "function"
    },
    {
      "constant": true,
      "inputs": [],
      "name": "REWARD_ROUNDS_START",
      "outputs": [
        {
          "internalType": "uint256",
          "name": "",
          "type": "uint256"
        }
      ],
      "payable": false,
      "stateMutability": "view",
      "type": "function"
    },
    {
      "constant": true,
      "inputs": [],
      "name": "REWARD_ROUND_DURATION",
      "outputs": [
        {
          "internalType": "uint256",
          "name": "",
          "type": "uint256"
        }
      ],
      "payable": false,
      "stateMutability": "view",
      "type": "function"
    },
    {
      "constant": true,
      "inputs": [],
      "name": "UNSTAKE_LOCK_TIME",
      "outputs": [
        {
          "internalType": "uint256",
          "name": "",
          "type": "uint256"
        }
      ],
      "payable": false,
      "stateMutability": "view",
      "type": "function"
    },
    {
      "constant": false,
      "inputs": [
        {
          "internalType": "uint256",
          "name": "maxIterations",
          "type": "uint256"
        }
      ],
      "name": "_processPendingActions",
      "outputs": [
        {
          "internalType": "bool",
          "name": "finished",
          "type": "bool"
        },
        {
          "internalType": "uint256",
          "name": "iterationsLeft",
          "type": "uint256"
        }
      ],
      "payable": false,
      "stateMutability": "nonpayable",
      "type": "function"
    },
    {
      "constant": false,
      "inputs": [
        {
          "internalType": "address",
          "name": "contractAddress",
          "type": "address"
        },
        {
          "internalType": "uint256",
          "name": "amount",
          "type": "uint256"
        }
      ],
      "name": "accumulateReward",
      "outputs": [],
      "payable": false,
      "stateMutability": "nonpayable",
      "type": "function"
    },
    {
      "constant": true,
      "inputs": [
        {
          "internalType": "address",
          "name": "",
          "type": "address"
        }
      ],
      "name": "accumulatedRewards",
      "outputs": [
        {
          "internalType": "uint256",
          "name": "amount",
          "type": "uint256"
        },
        {
          "internalType": "uint256",
          "name": "lastDistributionRound",
          "type": "uint256"
        }
      ],
      "payable": false,
      "stateMutability": "view",
      "type": "function"
    },
    {
      "constant": true,
      "inputs": [],
      "name": "burn",
      "outputs": [
        {
          "internalType": "uint256",
          "name": "amount",
          "type": "uint256"
        },
        {
          "internalType": "uint256",
          "name": "burnedAt",
          "type": "uint256"
        },
        {
          "internalType": "address",
          "name": "contractAddress",
          "type": "address"
        }
      ],
      "payable": false,
      "stateMutability": "view",
      "type": "function"
    },
    {
      "constant": false,
      "inputs": [],
      "name": "changeDependentContractAddress",
      "outputs": [],
      "payable": false,
      "stateMutability": "nonpayable",
      "type": "function"
    },
    {
      "constant": false,
      "inputs": [
        {
          "internalType": "address",
          "name": "masterAddress",
          "type": "address"
        }
      ],
      "name": "changeMasterAddress",
      "outputs": [],
      "payable": false,
      "stateMutability": "nonpayable",
      "type": "function"
    },
    {
      "constant": true,
      "inputs": [],
      "name": "contractBurned",
      "outputs": [
        {
          "internalType": "uint256",
          "name": "",
          "type": "uint256"
        }
      ],
      "payable": false,
      "stateMutability": "view",
      "type": "function"
    },
    {
      "constant": true,
      "inputs": [],
      "name": "contractRewarded",
      "outputs": [
        {
          "internalType": "uint256",
          "name": "",
          "type": "uint256"
        }
      ],
      "payable": false,
      "stateMutability": "view",
      "type": "function"
    },
    {
      "constant": true,
      "inputs": [
        {
          "internalType": "address",
          "name": "contractAddress",
          "type": "address"
        }
      ],
      "name": "contractStake",
      "outputs": [
        {
          "internalType": "uint256",
          "name": "",
          "type": "uint256"
        }
      ],
      "payable": false,
      "stateMutability": "view",
      "type": "function"
    },
    {
      "constant": true,
      "inputs": [],
      "name": "contractStaked",
      "outputs": [
        {
          "internalType": "uint256",
          "name": "",
          "type": "uint256"
        }
      ],
      "payable": false,
      "stateMutability": "view",
      "type": "function"
    },
    {
      "constant": true,
      "inputs": [
        {
          "internalType": "address",
          "name": "contractAddress",
          "type": "address"
        },
        {
          "internalType": "uint256",
          "name": "stakerIndex",
          "type": "uint256"
        }
      ],
      "name": "contractStakerAtIndex",
      "outputs": [
        {
          "internalType": "address",
          "name": "",
          "type": "address"
        }
      ],
      "payable": false,
      "stateMutability": "view",
      "type": "function"
    },
    {
      "constant": true,
      "inputs": [
        {
          "internalType": "address",
          "name": "contractAddress",
          "type": "address"
        }
      ],
      "name": "contractStakerCount",
      "outputs": [
        {
          "internalType": "uint256",
          "name": "",
          "type": "uint256"
        }
      ],
      "payable": false,
      "stateMutability": "view",
      "type": "function"
    },
    {
      "constant": true,
      "inputs": [
        {
          "internalType": "address",
          "name": "",
          "type": "address"
        },
        {
          "internalType": "uint256",
          "name": "",
          "type": "uint256"
        }
      ],
      "name": "contractStakers",
      "outputs": [
        {
          "internalType": "address",
          "name": "",
          "type": "address"
        }
      ],
      "payable": false,
      "stateMutability": "view",
      "type": "function"
    },
    {
      "constant": true,
      "inputs": [
        {
          "internalType": "address",
          "name": "contractAddress",
          "type": "address"
        }
      ],
      "name": "contractStakersArray",
      "outputs": [
        {
          "internalType": "address[]",
          "name": "_stakers",
          "type": "address[]"
        }
      ],
      "payable": false,
      "stateMutability": "view",
      "type": "function"
    },
    {
      "constant": false,
      "inputs": [
        {
          "internalType": "uint256",
          "name": "amount",
          "type": "uint256"
        },
        {
          "internalType": "address[]",
          "name": "_contracts",
          "type": "address[]"
        },
        {
          "internalType": "uint256[]",
          "name": "_stakes",
          "type": "uint256[]"
        }
      ],
      "name": "depositAndStake",
      "outputs": [],
      "payable": false,
      "stateMutability": "nonpayable",
      "type": "function"
    },
    {
      "constant": true,
      "inputs": [],
      "name": "firstReward",
      "outputs": [
        {
          "internalType": "uint256",
          "name": "",
          "type": "uint256"
        }
      ],
      "payable": false,
      "stateMutability": "view",
      "type": "function"
    },
    {
      "constant": true,
      "inputs": [],
      "name": "getCurrentRewardsRound",
      "outputs": [
        {
          "internalType": "uint256",
          "name": "",
          "type": "uint256"
        }
      ],
      "payable": false,
      "stateMutability": "view",
      "type": "function"
    },
    {
      "constant": true,
      "inputs": [],
      "name": "hasPendingActions",
      "outputs": [
        {
          "internalType": "bool",
          "name": "",
          "type": "bool"
        }
      ],
      "payable": false,
      "stateMutability": "view",
      "type": "function"
    },
    {
      "constant": true,
      "inputs": [],
      "name": "hasPendingBurns",
      "outputs": [
        {
          "internalType": "bool",
          "name": "",
          "type": "bool"
        }
      ],
      "payable": false,
      "stateMutability": "view",
      "type": "function"
    },
    {
      "constant": true,
      "inputs": [],
      "name": "hasPendingRewards",
      "outputs": [
        {
          "internalType": "bool",
          "name": "",
          "type": "bool"
        }
      ],
      "payable": false,
      "stateMutability": "view",
      "type": "function"
    },
    {
      "constant": true,
      "inputs": [],
      "name": "hasPendingUnstakeRequests",
      "outputs": [
        {
          "internalType": "bool",
          "name": "",
          "type": "bool"
        }
      ],
      "payable": false,
      "stateMutability": "view",
      "type": "function"
    },
    {
      "constant": false,
      "inputs": [],
      "name": "initialize",
      "outputs": [],
      "payable": false,
      "stateMutability": "nonpayable",
      "type": "function"
    },
    {
      "constant": false,
      "inputs": [],
      "name": "initializeRewardRoundsStart",
      "outputs": [],
      "payable": false,
      "stateMutability": "nonpayable",
      "type": "function"
    },
    {
      "constant": true,
      "inputs": [],
      "name": "initialized",
      "outputs": [
        {
          "internalType": "bool",
          "name": "",
          "type": "bool"
        }
      ],
      "payable": false,
      "stateMutability": "view",
      "type": "function"
    },
    {
      "constant": true,
      "inputs": [],
      "name": "isContractStakeCalculated",
      "outputs": [
        {
          "internalType": "bool",
          "name": "",
          "type": "bool"
        }
      ],
      "payable": false,
      "stateMutability": "view",
      "type": "function"
    },
    {
      "constant": true,
      "inputs": [],
      "name": "lastRewardId",
      "outputs": [
        {
          "internalType": "uint256",
          "name": "",
          "type": "uint256"
        }
      ],
      "payable": false,
      "stateMutability": "view",
      "type": "function"
    },
    {
      "constant": true,
      "inputs": [],
      "name": "lastUnstakeRequestId",
      "outputs": [
        {
          "internalType": "uint256",
          "name": "",
          "type": "uint256"
        }
      ],
      "payable": false,
      "stateMutability": "view",
      "type": "function"
    },
    {
      "constant": true,
      "inputs": [],
      "name": "master",
      "outputs": [
        {
          "internalType": "contract INXMMaster",
          "name": "",
          "type": "address"
        }
      ],
      "payable": false,
      "stateMutability": "view",
      "type": "function"
    },
    {
      "constant": false,
      "inputs": [
        {
          "internalType": "uint256",
          "name": "maxIterations",
          "type": "uint256"
        }
      ],
      "name": "migrateRewardsToAccumulatedRewards",
      "outputs": [
        {
          "internalType": "bool",
          "name": "finished",
          "type": "bool"
        },
        {
          "internalType": "uint256",
          "name": "iterationsLeft",
          "type": "uint256"
        }
      ],
      "payable": false,
      "stateMutability": "nonpayable",
      "type": "function"
    },
    {
      "constant": false,
      "inputs": [
        {
          "internalType": "uint256",
          "name": "maxIterations",
          "type": "uint256"
        }
      ],
      "name": "processPendingActions",
      "outputs": [
        {
          "internalType": "bool",
          "name": "finished",
          "type": "bool"
        }
      ],
      "payable": false,
      "stateMutability": "nonpayable",
      "type": "function"
    },
    {
      "constant": false,
      "inputs": [
        {
          "internalType": "uint256",
          "name": "maxIterations",
          "type": "uint256"
        }
      ],
      "name": "processPendingActionsReturnLeft",
      "outputs": [
        {
          "internalType": "bool",
          "name": "finished",
          "type": "bool"
        },
        {
          "internalType": "uint256",
          "name": "iterationsLeft",
          "type": "uint256"
        }
      ],
      "payable": false,
      "stateMutability": "nonpayable",
      "type": "function"
    },
    {
      "constant": true,
      "inputs": [],
      "name": "processedToStakerIndex",
      "outputs": [
        {
          "internalType": "uint256",
          "name": "",
          "type": "uint256"
        }
      ],
      "payable": false,
      "stateMutability": "view",
      "type": "function"
    },
    {
      "constant": false,
      "inputs": [
        {
          "internalType": "address",
          "name": "contractAddress",
          "type": "address"
        },
        {
          "internalType": "uint256",
          "name": "amount",
          "type": "uint256"
        }
      ],
      "name": "pushBurn",
      "outputs": [],
      "payable": false,
      "stateMutability": "nonpayable",
      "type": "function"
    },
    {
      "constant": false,
      "inputs": [
        {
          "internalType": "address[]",
          "name": "contractAddresses",
          "type": "address[]"
        }
      ],
      "name": "pushRewards",
      "outputs": [],
      "payable": false,
      "stateMutability": "nonpayable",
      "type": "function"
    },
    {
      "constant": false,
      "inputs": [
        {
          "internalType": "address[]",
          "name": "_contracts",
          "type": "address[]"
        },
        {
          "internalType": "uint256[]",
          "name": "_amounts",
          "type": "uint256[]"
        },
        {
          "internalType": "uint256",
          "name": "_insertAfter",
          "type": "uint256"
        }
      ],
      "name": "requestUnstake",
      "outputs": [],
      "payable": false,
      "stateMutability": "nonpayable",
      "type": "function"
    },
    {
      "constant": true,
      "inputs": [
        {
          "internalType": "uint256",
          "name": "",
          "type": "uint256"
        }
      ],
      "name": "rewards",
      "outputs": [
        {
          "internalType": "uint256",
          "name": "amount",
          "type": "uint256"
        },
        {
          "internalType": "uint256",
          "name": "rewardedAt",
          "type": "uint256"
        },
        {
          "internalType": "address",
          "name": "contractAddress",
          "type": "address"
        }
      ],
      "payable": false,
      "stateMutability": "view",
      "type": "function"
    },
    {
      "constant": true,
      "inputs": [
        {
          "internalType": "address",
          "name": "staker",
          "type": "address"
        },
        {
          "internalType": "uint256",
          "name": "contractIndex",
          "type": "uint256"
        }
      ],
      "name": "stakerContractAtIndex",
      "outputs": [
        {
          "internalType": "address",
          "name": "",
          "type": "address"
        }
      ],
      "payable": false,
      "stateMutability": "view",
      "type": "function"
    },
    {
      "constant": true,
      "inputs": [
        {
          "internalType": "address",
          "name": "staker",
          "type": "address"
        }
      ],
      "name": "stakerContractCount",
      "outputs": [
        {
          "internalType": "uint256",
          "name": "",
          "type": "uint256"
        }
      ],
      "payable": false,
      "stateMutability": "view",
      "type": "function"
    },
    {
      "constant": true,
      "inputs": [
        {
          "internalType": "address",
          "name": "staker",
          "type": "address"
        },
        {
          "internalType": "address",
          "name": "contractAddress",
          "type": "address"
        }
      ],
      "name": "stakerContractPendingUnstakeTotal",
      "outputs": [
        {
          "internalType": "uint256",
          "name": "",
          "type": "uint256"
        }
      ],
      "payable": false,
      "stateMutability": "view",
      "type": "function"
    },
    {
      "constant": true,
      "inputs": [
        {
          "internalType": "address",
          "name": "staker",
          "type": "address"
        },
        {
          "internalType": "address",
          "name": "contractAddress",
          "type": "address"
        }
      ],
      "name": "stakerContractStake",
      "outputs": [
        {
          "internalType": "uint256",
          "name": "",
          "type": "uint256"
        }
      ],
      "payable": false,
      "stateMutability": "view",
      "type": "function"
    },
    {
      "constant": true,
      "inputs": [
        {
          "internalType": "address",
          "name": "staker",
          "type": "address"
        }
      ],
      "name": "stakerContractsArray",
      "outputs": [
        {
          "internalType": "address[]",
          "name": "",
          "type": "address[]"
        }
      ],
      "payable": false,
      "stateMutability": "view",
      "type": "function"
    },
    {
      "constant": true,
      "inputs": [
        {
          "internalType": "address",
          "name": "staker",
          "type": "address"
        }
      ],
      "name": "stakerDeposit",
      "outputs": [
        {
          "internalType": "uint256",
          "name": "",
          "type": "uint256"
        }
      ],
      "payable": false,
      "stateMutability": "view",
      "type": "function"
    },
    {
      "constant": true,
      "inputs": [
        {
          "internalType": "address",
          "name": "stakerAddress",
          "type": "address"
        }
      ],
      "name": "stakerMaxWithdrawable",
      "outputs": [
        {
          "internalType": "uint256",
          "name": "",
          "type": "uint256"
        }
      ],
      "payable": false,
      "stateMutability": "view",
      "type": "function"
    },
    {
      "constant": true,
      "inputs": [
        {
          "internalType": "address",
          "name": "staker",
          "type": "address"
        }
      ],
      "name": "stakerReward",
      "outputs": [
        {
          "internalType": "uint256",
          "name": "",
          "type": "uint256"
        }
      ],
      "payable": false,
      "stateMutability": "view",
      "type": "function"
    },
    {
      "constant": true,
      "inputs": [
        {
          "internalType": "address",
          "name": "",
          "type": "address"
        }
      ],
      "name": "stakers",
      "outputs": [
        {
          "internalType": "uint256",
          "name": "deposit",
          "type": "uint256"
        },
        {
          "internalType": "uint256",
          "name": "reward",
          "type": "uint256"
        }
      ],
      "payable": false,
      "stateMutability": "view",
      "type": "function"
    },
    {
      "constant": true,
      "inputs": [],
      "name": "token",
      "outputs": [
        {
          "internalType": "contract NXMToken",
          "name": "",
          "type": "address"
        }
      ],
      "payable": false,
      "stateMutability": "view",
      "type": "function"
    },
    {
      "constant": true,
      "inputs": [],
      "name": "tokenController",
      "outputs": [
        {
          "internalType": "contract TokenController",
          "name": "",
          "type": "address"
        }
      ],
      "payable": false,
      "stateMutability": "view",
      "type": "function"
    },
    {
      "constant": true,
      "inputs": [
        {
          "internalType": "uint256",
          "name": "unstakeRequestId",
          "type": "uint256"
        }
      ],
      "name": "unstakeRequestAtIndex",
      "outputs": [
        {
          "internalType": "uint256",
          "name": "amount",
          "type": "uint256"
        },
        {
          "internalType": "uint256",
          "name": "unstakeAt",
          "type": "uint256"
        },
        {
          "internalType": "address",
          "name": "contractAddress",
          "type": "address"
        },
        {
          "internalType": "address",
          "name": "stakerAddress",
          "type": "address"
        },
        {
          "internalType": "uint256",
          "name": "next",
          "type": "uint256"
        }
      ],
      "payable": false,
      "stateMutability": "view",
      "type": "function"
    },
    {
      "constant": true,
      "inputs": [
        {
          "internalType": "uint256",
          "name": "",
          "type": "uint256"
        }
      ],
      "name": "unstakeRequests",
      "outputs": [
        {
          "internalType": "uint256",
          "name": "amount",
          "type": "uint256"
        },
        {
          "internalType": "uint256",
          "name": "unstakeAt",
          "type": "uint256"
        },
        {
          "internalType": "address",
          "name": "contractAddress",
          "type": "address"
        },
        {
          "internalType": "address",
          "name": "stakerAddress",
          "type": "address"
        },
        {
          "internalType": "uint256",
          "name": "next",
          "type": "uint256"
        }
      ],
      "payable": false,
      "stateMutability": "view",
      "type": "function"
    },
    {
      "constant": false,
      "inputs": [
        {
          "internalType": "bytes8",
          "name": "code",
          "type": "bytes8"
        },
        {
          "internalType": "uint256",
          "name": "value",
          "type": "uint256"
        }
      ],
      "name": "updateUintParameters",
      "outputs": [],
      "payable": false,
      "stateMutability": "nonpayable",
      "type": "function"
    },
    {
      "constant": false,
      "inputs": [
        {
          "internalType": "uint256",
          "name": "amount",
          "type": "uint256"
        }
      ],
      "name": "withdraw",
      "outputs": [],
      "payable": false,
      "stateMutability": "nonpayable",
      "type": "function"
    },
    {
      "constant": false,
      "inputs": [
        {
          "internalType": "address",
          "name": "stakerAddress",
          "type": "address"
        }
      ],
      "name": "withdrawReward",
      "outputs": [],
      "payable": false,
      "stateMutability": "nonpayable",
      "type": "function"
    }
  ],
  "bytecode": "0x608060405234801561001057600080fd5b50617b4280620000216000396000f3fe608060405234801561001057600080fd5b506004361061038e5760003560e01c8063908ad10a116101de578063d6b5b8521161010f578063f0f923c0116100ad578063f6ceefa21161007c578063f6ceefa214611315578063f87975af1461138e578063fc0c546a14611444578063ff551c841461148e5761038e565b8063f0f923c014611194578063f2078db5146111e2578063f301af421461127b578063f52790bc146112f75761038e565b8063eae01718116100e9578063eae0171814610ffa578063eddd9d8214611072578063ee97f7f3146110bc578063ef30375d146111065761038e565b8063d6b5b85214610e94578063e3bc92c014610f22578063ead4d17414610fd85761038e565b8063abb215be1161017c578063c001472e11610156578063c001472e14610d3c578063c65cfd5214610e14578063cb1c2b5c14610e32578063d46655f414610e505761038e565b8063abb215be14610c53578063afd369fd14610ca0578063b86e321c14610cf85761038e565b80639c6f6e84116101b85780639c6f6e8414610b735780639dd86e0f14610b91578063a4cc380b14610be4578063a81d801014610c065761038e565b8063908ad10a14610ad85780639168ae7214610af65780639abbed0514610b555761038e565b806334892cea116102c35780637272135a1161026157806375a7720f1161023057806375a7720f146109465780638129fc1c1461099e57806385b39d83146109a85780638e91e6bd14610a005761038e565b80637272135a1461088957806372af2932146108ab57806373f273fc146108c957806374ff6b90146109285761038e565b80635840ee441161029d5780635840ee44146106fd5780635ce929761461079657806365f212f9146107e357806368989a591461083b5761038e565b806334892cea146105d557806339ac5eb91461064d57806344df8e70146106a55761038e565b806316faaa8f1161033057806324f412541161030a57806324f412541461054d578063285ece4e1461056b5780632e1a7d4d146105895780632e23dc8f146105b75761038e565b806316faaa8f146104ff5780631a839ba71461050957806322b1c2961461052b5761038e565b80631354839d1161036c5780631354839d14610413578063158ef93e146104a157806315c5673c146104c35780631694a36a146104e15761038e565b80630ca6de03146103935780630ea474c7146103b15780630ea9c98414610409575b600080fd5b61039b6114d4565b6040518082815260200191505060405180910390f35b6103f3600480360360208110156103c757600080fd5b81019080803573ffffffffffffffffffffffffffffffffffffffff1690602001909291905050506114da565b6040518082815260200191505060405180910390f35b610411611526565b005b61045f6004803603604081101561042957600080fd5b81019080803573ffffffffffffffffffffffffffffffffffffffff16906020019092919080359060200190929190505050611748565b604051808273ffffffffffffffffffffffffffffffffffffffff1673ffffffffffffffffffffffffffffffffffffffff16815260200191505060405180910390f35b6104a9611793565b604051808215151515815260200191505060405180910390f35b6104cb6117a6565b6040518082815260200191505060405180910390f35b6104e96117ac565b6040518082815260200191505060405180910390f35b6105076117b2565b005b61051161184d565b604051808215151515815260200191505060405180910390f35b61053361189d565b604051808215151515815260200191505060405180910390f35b6105556118ca565b6040518082815260200191505060405180910390f35b6105736118d0565b6040518082815260200191505060405180910390f35b6105b56004803603602081101561059f57600080fd5b81019080803590602001909291905050506118d6565b005b6105bf611e4e565b6040518082815260200191505060405180910390f35b610637600480360360408110156105eb57600080fd5b81019080803573ffffffffffffffffffffffffffffffffffffffff169060200190929190803573ffffffffffffffffffffffffffffffffffffffff169060200190929190505050611e54565b6040518082815260200191505060405180910390f35b61068f6004803603602081101561066357600080fd5b81019080803573ffffffffffffffffffffffffffffffffffffffff169060200190929190505050611ede565b6040518082815260200191505060405180910390f35b6106ad611f2a565b604051808481526020018381526020018273ffffffffffffffffffffffffffffffffffffffff1673ffffffffffffffffffffffffffffffffffffffff168152602001935050505060405180910390f35b61073f6004803603602081101561071357600080fd5b81019080803573ffffffffffffffffffffffffffffffffffffffff169060200190929190505050611f62565b6040518080602001828103825283818151815260200191508051906020019060200280838360005b83811015610782578082015181840152602081019050610767565b505050509050019250505060405180910390f35b6107c2600480360360208110156107ac57600080fd5b8101908080359060200190929190505050612032565b60405180831515151581526020018281526020019250505060405180910390f35b610825600480360360208110156107f957600080fd5b81019080803573ffffffffffffffffffffffffffffffffffffffff169060200190929190505050612376565b6040518082815260200191505060405180910390f35b6108876004803603604081101561085157600080fd5b81019080803573ffffffffffffffffffffffffffffffffffffffff169060200190929190803590602001909291905050506124dd565b005b610891612933565b604051808215151515815260200191505060405180910390f35b6108b3612943565b6040518082815260200191505060405180910390f35b61090b600480360360208110156108df57600080fd5b81019080803573ffffffffffffffffffffffffffffffffffffffff169060200190929190505050612949565b604051808381526020018281526020019250505060405180910390f35b61093061296d565b6040518082815260200191505060405180910390f35b6109886004803603602081101561095c57600080fd5b81019080803573ffffffffffffffffffffffffffffffffffffffff16906020019092919050505061297c565b6040518082815260200191505060405180910390f35b6109a66129cb565b005b6109ea600480360360208110156109be57600080fd5b81019080803573ffffffffffffffffffffffffffffffffffffffff169060200190929190505050612b24565b6040518082815260200191505060405180910390f35b610ad660048036036060811015610a1657600080fd5b8101908080359060200190640100000000811115610a3357600080fd5b820183602082011115610a4557600080fd5b80359060200191846020830284011164010000000083111715610a6757600080fd5b909192939192939080359060200190640100000000811115610a8857600080fd5b820183602082011115610a9a57600080fd5b80359060200191846020830284011164010000000083111715610abc57600080fd5b909192939192939080359060200190929190505050612b70565b005b610ae06135fa565b6040518082815260200191505060405180910390f35b610b3860048036036020811015610b0c57600080fd5b81019080803573ffffffffffffffffffffffffffffffffffffffff169060200190929190505050613600565b604051808381526020018281526020019250505060405180910390f35b610b5d613624565b6040518082815260200191505060405180910390f35b610b7b61362a565b6040518082815260200191505060405180910390f35b610be260048036036040811015610ba757600080fd5b81019080803577ffffffffffffffffffffffffffffffffffffffffffffffff1916906020019092919080359060200190929190505050613630565b005b610bec61389f565b604051808215151515815260200191505060405180910390f35b610c3260048036036020811015610c1c57600080fd5b81019080803590602001909291905050506138c2565b60405180831515151581526020018281526020019250505060405180910390f35b610c7f60048036036020811015610c6957600080fd5b8101908080359060200190929190505050613d0e565b60405180831515151581526020018281526020019250505060405180910390f35b610ce260048036036020811015610cb657600080fd5b81019080803573ffffffffffffffffffffffffffffffffffffffff169060200190929190505050613ebe565b6040518082815260200191505060405180910390f35b610d3a60048036036020811015610d0e57600080fd5b81019080803573ffffffffffffffffffffffffffffffffffffffff169060200190929190505050614038565b005b610e1260048036036060811015610d5257600080fd5b810190808035906020019092919080359060200190640100000000811115610d7957600080fd5b820183602082011115610d8b57600080fd5b80359060200191846020830284011164010000000083111715610dad57600080fd5b909192939192939080359060200190640100000000811115610dce57600080fd5b820183602082011115610de057600080fd5b80359060200191846020830284011164010000000083111715610e0257600080fd5b9091929391929390505050614395565b005b610e1c615244565b6040518082815260200191505060405180910390f35b610e3a61524a565b6040518082815260200191505060405180910390f35b610e9260048036036020811015610e6657600080fd5b81019080803573ffffffffffffffffffffffffffffffffffffffff169060200190929190505050615250565b005b610ee060048036036040811015610eaa57600080fd5b81019080803573ffffffffffffffffffffffffffffffffffffffff169060200190929190803590602001909291905050506153ab565b604051808273ffffffffffffffffffffffffffffffffffffffff1673ffffffffffffffffffffffffffffffffffffffff16815260200191505060405180910390f35b610f4e60048036036020811015610f3857600080fd5b810190808035906020019092919050505061542a565b604051808681526020018581526020018473ffffffffffffffffffffffffffffffffffffffff1673ffffffffffffffffffffffffffffffffffffffff1681526020018373ffffffffffffffffffffffffffffffffffffffff1673ffffffffffffffffffffffffffffffffffffffff1681526020018281526020019550505050505060405180910390f35b610fe06154b5565b604051808215151515815260200191505060405180910390f35b61105c6004803603604081101561101057600080fd5b81019080803573ffffffffffffffffffffffffffffffffffffffff169060200190929190803573ffffffffffffffffffffffffffffffffffffffff1690602001909291905050506154c8565b6040518082815260200191505060405180910390f35b61107a6155ad565b604051808273ffffffffffffffffffffffffffffffffffffffff1673ffffffffffffffffffffffffffffffffffffffff16815260200191505060405180910390f35b6110c46155d3565b604051808273ffffffffffffffffffffffffffffffffffffffff1673ffffffffffffffffffffffffffffffffffffffff16815260200191505060405180910390f35b6111526004803603604081101561111c57600080fd5b81019080803573ffffffffffffffffffffffffffffffffffffffff169060200190929190803590602001909291905050506155f8565b604051808273ffffffffffffffffffffffffffffffffffffffff1673ffffffffffffffffffffffffffffffffffffffff16815260200191505060405180910390f35b6111e0600480360360408110156111aa57600080fd5b81019080803573ffffffffffffffffffffffffffffffffffffffff1690602001909291908035906020019092919050505061567a565b005b611224600480360360208110156111f857600080fd5b81019080803573ffffffffffffffffffffffffffffffffffffffff169060200190929190505050615a7d565b6040518080602001828103825283818151815260200191508051906020019060200280838360005b8381101561126757808201518184015260208101905061124c565b505050509050019250505060405180910390f35b6112a76004803603602081101561129157600080fd5b8101908080359060200190929190505050615b4a565b604051808481526020018381526020018273ffffffffffffffffffffffffffffffffffffffff1673ffffffffffffffffffffffffffffffffffffffff168152602001935050505060405180910390f35b6112ff615b94565b6040518082815260200191505060405180910390f35b61138c6004803603602081101561132b57600080fd5b810190808035906020019064010000000081111561134857600080fd5b82018360208201111561135a57600080fd5b8035906020019184602083028401116401000000008311171561137c57600080fd5b9091929391929390505050615b9a565b005b6113ba600480360360208110156113a457600080fd5b8101908080359060200190929190505050615d81565b604051808681526020018581526020018473ffffffffffffffffffffffffffffffffffffffff1673ffffffffffffffffffffffffffffffffffffffff1681526020018373ffffffffffffffffffffffffffffffffffffffff1673ffffffffffffffffffffffffffffffffffffffff1681526020018281526020019550505050505060405180910390f35b61144c615df7565b604051808273ffffffffffffffffffffffffffffffffffffffff1673ffffffffffffffffffffffffffffffffffffffff16815260200191505060405180910390f35b6114ba600480360360208110156114a457600080fd5b8101908080359060200190929190505050615e1d565b604051808215151515815260200191505060405180910390f35b60055481565b6000600760008373ffffffffffffffffffffffffffffffffffffffff1673ffffffffffffffffffffffffffffffffffffffff168152602001908152602001600020600101549050919050565b6000809054906101000a900473ffffffffffffffffffffffffffffffffffffffff1673ffffffffffffffffffffffffffffffffffffffff16639d76ea586040518163ffffffff1660e01b815260040160206040518083038186803b15801561158d57600080fd5b505afa1580156115a1573d6000803e3d6000fd5b505050506040513d60208110156115b757600080fd5b8101908080519060200190929190505050600160006101000a81548173ffffffffffffffffffffffffffffffffffffffff021916908373ffffffffffffffffffffffffffffffffffffffff1602179055506000809054906101000a900473ffffffffffffffffffffffffffffffffffffffff1673ffffffffffffffffffffffffffffffffffffffff1663013828586040518163ffffffff1660e01b815260040180807f5443000000000000000000000000000000000000000000000000000000000000815250602001905060206040518083038186803b15801561169a57600080fd5b505afa1580156116ae573d6000803e3d6000fd5b505050506040513d60208110156116c457600080fd5b8101908080519060200190929190505050600260006101000a81548173ffffffffffffffffffffffffffffffffffffffff021916908373ffffffffffffffffffffffffffffffffffffffff160217905550600060149054906101000a900460ff16611732576117316129cb565b5b60006018541415611746576117456117b2565b5b565b600b602052816000526040600020818154811061176157fe5b906000526020600020016000915091509054906101000a900473ffffffffffffffffffffffffffffffffffffffff1681565b600060149054906101000a900460ff1681565b60145481565b60185481565b60006018541461180d576040517f08c379a00000000000000000000000000000000000000000000000000000000081526004018080602001828103825260278152602001806178c06027913960400191505060405180910390fd5b635f5f311060188190555062093a806017819055506000604051808061788d60339139603301905060405180910390209050600060115490508082555050565b60008060126000808152602001908152602001600020600401549050600081141561187c57600091505061189a565b42601260008381526020019081526020016000206001015411159150505b90565b60006118a7612933565b806118b657506118b561184d565b5b806118c557506118c461389f565b5b905090565b60045481565b60175481565b6000809054906101000a900473ffffffffffffffffffffffffffffffffffffffff1673ffffffffffffffffffffffffffffffffffffffff1663ff0938a76040518163ffffffff1660e01b815260040160206040518083038186803b15801561193d57600080fd5b505afa158015611951573d6000803e3d6000fd5b505050506040513d602081101561196757600080fd5b8101908080519060200190929190505050156119eb576040517f08c379a00000000000000000000000000000000000000000000000000000000081526004018080602001828103825260108152602001807f53797374656d206973207061757365640000000000000000000000000000000081525060200191505060405180910390fd5b600060149054906101000a900460ff16611a6d576040517f08c379a000000000000000000000000000000000000000000000000000000000815260040180806020018281038252601b8152602001807f436f6e7472616374206973206e6f7420696e697469616c697a6564000000000081525060200191505060405180910390fd5b6000809054906101000a900473ffffffffffffffffffffffffffffffffffffffff1673ffffffffffffffffffffffffffffffffffffffff1663a230c524336040518263ffffffff1660e01b8152600401808273ffffffffffffffffffffffffffffffffffffffff1673ffffffffffffffffffffffffffffffffffffffff16815260200191505060206040518083038186803b158015611b0b57600080fd5b505afa158015611b1f573d6000803e3d6000fd5b505050506040513d6020811015611b3557600080fd5b8101908080519060200190929190505050611bb8576040517f08c379a00000000000000000000000000000000000000000000000000000000081526004018080602001828103825260168152602001807f43616c6c6572206973206e6f742061206d656d6265720000000000000000000081525060200191505060405180910390fd5b611bc0612933565b15611c16576040517f08c379a00000000000000000000000000000000000000000000000000000000081526004018080602001828103825260308152602001806176e66030913960400191505060405180910390fd5b6000611c2133613ebe565b905081811015611c7c576040517f08c379a00000000000000000000000000000000000000000000000000000000081526004018080602001828103825260308152602001806177f46030913960400191505060405180910390fd5b611cd182600760003373ffffffffffffffffffffffffffffffffffffffff1673ffffffffffffffffffffffffffffffffffffffff16815260200190815260200160002060000154615fc990919063ffffffff16565b600760003373ffffffffffffffffffffffffffffffffffffffff1673ffffffffffffffffffffffffffffffffffffffff16815260200190815260200160002060000181905550600160009054906101000a900473ffffffffffffffffffffffffffffffffffffffff1673ffffffffffffffffffffffffffffffffffffffff1663a9059cbb33846040518363ffffffff1660e01b8152600401808373ffffffffffffffffffffffffffffffffffffffff1673ffffffffffffffffffffffffffffffffffffffff16815260200182815260200192505050602060405180830381600087803b158015611dc057600080fd5b505af1158015611dd4573d6000803e3d6000fd5b505050506040513d6020811015611dea57600080fd5b8101908080519060200190929190505050503373ffffffffffffffffffffffffffffffffffffffff167f7084f5476618d8e60b11ef0d7d3f06914655adb8793e28ff7f018d4c76d505d5836040518082815260200191505060405180910390a25050565b60105481565b6000600760008473ffffffffffffffffffffffffffffffffffffffff1673ffffffffffffffffffffffffffffffffffffffff16815260200190815260200160002060040160008373ffffffffffffffffffffffffffffffffffffffff1673ffffffffffffffffffffffffffffffffffffffff16815260200190815260200160002054905092915050565b6000600760008373ffffffffffffffffffffffffffffffffffffffff1673ffffffffffffffffffffffffffffffffffffffff168152602001908152602001600020600001549050919050565b600c8060000154908060010154908060020160009054906101000a900473ffffffffffffffffffffffffffffffffffffffff16905083565b6060600760008373ffffffffffffffffffffffffffffffffffffffff1673ffffffffffffffffffffffffffffffffffffffff16815260200190815260200160002060020180548060200260200160405190810160405280929190818152602001828054801561202657602002820191906000526020600020905b8160009054906101000a900473ffffffffffffffffffffffffffffffffffffffff1673ffffffffffffffffffffffffffffffffffffffff1681526020019060010190808311611fdc575b50505050509050919050565b600080600060105414156120ae576040517f08c379a00000000000000000000000000000000000000000000000000000000081526004018080602001828103825260128152602001807f4e6f7468696e6720746f206d696772617465000000000000000000000000000081525060200191505060405180910390fd5b600080604051808061788d6033913960330190506040518091039020905080549150816010541115612148576040517f08c379a000000000000000000000000000000000000000000000000000000000815260040180806020018281038252601a8152602001807f4578636565646564206c617374206d6967726174696f6e20696400000000000081525060200191505060405180910390fd5b8492505b8315801561215a5750600083115b15612311578280600190039350506000600f6000601054815260200190815260200160002090506000601660008360020160009054906101000a900473ffffffffffffffffffffffffffffffffffffffff1673ffffffffffffffffffffffffffffffffffffffff1673ffffffffffffffffffffffffffffffffffffffff16815260200190815260200160002090506122038260000154826000015461601390919063ffffffff16565b81600001819055508160020160009054906101000a900473ffffffffffffffffffffffffffffffffffffffff1673ffffffffffffffffffffffffffffffffffffffff167fac24935fd910bc682b5ccb1a07b718cadf8cf2f6d1404c4f3ddc3662dae40e2983600001546040518082815260200191505060405180910390a2600f6000601054815260200190815260200160002060008082016000905560018201600090556002820160006101000a81549073ffffffffffffffffffffffffffffffffffffffff021916905550506010600081548092919060010191905055508360105411156122f157600195505b601154601054111561230a576000601081905550600195505b505061214c565b831561231c57600081555b7f26428374401ca9c5de60f1a0ec5c8be7450ddc4f9ce9731bbae77d3c40e77cf384601054856040518084151515158152602001838152602001828152602001935050505060405180910390a18383935093505050915091565b600080600b60008473ffffffffffffffffffffffffffffffffffffffff1673ffffffffffffffffffffffffffffffffffffffff1681526020019081526020016000209050600081805490509050600080600090505b828110156124d1576000600760008684815481106123e557fe5b9060005260206000200160009054906101000a900473ffffffffffffffffffffffffffffffffffffffff1673ffffffffffffffffffffffffffffffffffffffff1673ffffffffffffffffffffffffffffffffffffffff168152602001908152602001600020905060008160000154905060008260030160008a73ffffffffffffffffffffffffffffffffffffffff1673ffffffffffffffffffffffffffffffffffffffff1681526020019081526020016000205490508082106124a857806124aa565b815b90506124bf818661601390919063ffffffff16565b945050505080806001019150506123cb565b50809350505050919050565b6000809054906101000a900473ffffffffffffffffffffffffffffffffffffffff1673ffffffffffffffffffffffffffffffffffffffff16638f16c41c336040518263ffffffff1660e01b8152600401808273ffffffffffffffffffffffffffffffffffffffff1673ffffffffffffffffffffffffffffffffffffffff16815260200191505060206040518083038186803b15801561257b57600080fd5b505afa15801561258f573d6000803e3d6000fd5b505050506040513d60208110156125a557600080fd5b810190808051906020019092919050505061260b576040517f08c379a00000000000000000000000000000000000000000000000000000000081526004018080602001828103825260228152602001806179f86022913960400191505060405180910390fd5b6000809054906101000a900473ffffffffffffffffffffffffffffffffffffffff1673ffffffffffffffffffffffffffffffffffffffff1663ff0938a76040518163ffffffff1660e01b815260040160206040518083038186803b15801561267257600080fd5b505afa158015612686573d6000803e3d6000fd5b505050506040513d602081101561269c57600080fd5b810190808051906020019092919050505015612720576040517f08c379a00000000000000000000000000000000000000000000000000000000081526004018080602001828103825260108152602001807f53797374656d206973207061757365640000000000000000000000000000000081525060200191505060405180910390fd5b600060149054906101000a900460ff166127a2576040517f08c379a000000000000000000000000000000000000000000000000000000000815260040180806020018281038252601b8152602001807f436f6e7472616374206973206e6f7420696e697469616c697a6564000000000081525060200191505060405180910390fd5b6127aa612933565b15612800576040517f08c379a00000000000000000000000000000000000000000000000000000000081526004018080602001828103825260308152602001806176e66030913960400191505060405180910390fd5b606060016040519080825280602002602001820160405280156128325781602001602082028038833980820191505090505b509050828160008151811061284357fe5b602002602001019073ffffffffffffffffffffffffffffffffffffffff16908173ffffffffffffffffffffffffffffffffffffffff168152505061288881600161609b565b81600c6000018190555042600c6001018190555082600c60020160006101000a81548173ffffffffffffffffffffffffffffffffffffffff021916908373ffffffffffffffffffffffffffffffffffffffff1602179055508273ffffffffffffffffffffffffffffffffffffffff167f5d06931c8dc69a16ea07030839ba70d3794cbda4dc0e16718165f9054db87a5a836040518082815260200191505060405180910390a2505050565b600080600c600101541415905090565b60135481565b60166020528060005260406000206000915090508060000154908060010154905082565b60006129776162c2565b905090565b6000600760008373ffffffffffffffffffffffffffffffffffffffff1673ffffffffffffffffffffffffffffffffffffffff168152602001908152602001600020600201805490509050919050565b600060149054906101000a900460ff1615612a4e576040517f08c379a000000000000000000000000000000000000000000000000000000000815260040180806020018281038252601f8152602001807f436f6e747261637420697320616c726561647920696e697469616c697a65640081525060200191505060405180910390fd5b600260009054906101000a900473ffffffffffffffffffffffffffffffffffffffff1673ffffffffffffffffffffffffffffffffffffffff1663e43252d7306040518263ffffffff1660e01b8152600401808273ffffffffffffffffffffffffffffffffffffffff1673ffffffffffffffffffffffffffffffffffffffff168152602001915050600060405180830381600087803b158015612aef57600080fd5b505af1158015612b03573d6000803e3d6000fd5b505050506001600060146101000a81548160ff021916908315150217905550565b6000600b60008373ffffffffffffffffffffffffffffffffffffffff1673ffffffffffffffffffffffffffffffffffffffff168152602001908152602001600020805490509050919050565b6000809054906101000a900473ffffffffffffffffffffffffffffffffffffffff1673ffffffffffffffffffffffffffffffffffffffff1663ff0938a76040518163ffffffff1660e01b815260040160206040518083038186803b158015612bd757600080fd5b505afa158015612beb573d6000803e3d6000fd5b505050506040513d6020811015612c0157600080fd5b810190808051906020019092919050505015612c85576040517f08c379a00000000000000000000000000000000000000000000000000000000081526004018080602001828103825260108152602001807f53797374656d206973207061757365640000000000000000000000000000000081525060200191505060405180910390fd5b600060149054906101000a900460ff16612d07576040517f08c379a000000000000000000000000000000000000000000000000000000000815260040180806020018281038252601b8152602001807f436f6e7472616374206973206e6f7420696e697469616c697a6564000000000081525060200191505060405180910390fd5b6000809054906101000a900473ffffffffffffffffffffffffffffffffffffffff1673ffffffffffffffffffffffffffffffffffffffff1663a230c524336040518263ffffffff1660e01b8152600401808273ffffffffffffffffffffffffffffffffffffffff1673ffffffffffffffffffffffffffffffffffffffff16815260200191505060206040518083038186803b158015612da557600080fd5b505afa158015612db9573d6000803e3d6000fd5b505050506040513d6020811015612dcf57600080fd5b8101908080519060200190929190505050612e52576040517f08c379a00000000000000000000000000000000000000000000000000000000081526004018080602001828103825260168152602001807f43616c6c6572206973206e6f742061206d656d6265720000000000000000000081525060200191505060405180910390fd5b828290508585905014612eb0576040517f08c379a00000000000000000000000000000000000000000000000000000000081526004018080602001828103825260388152602001806177bc6038913960400191505060405180910390fd5b601354811115612f0b576040517f08c379a00000000000000000000000000000000000000000000000000000000081526004018080602001828103825260238152602001806178246023913960400191505060405180910390fd5b6000600760003373ffffffffffffffffffffffffffffffffffffffff1673ffffffffffffffffffffffffffffffffffffffff168152602001908152602001600020905060008160000154905060008390506000612f736006544261601390919063ffffffff16565b9050600060126000848152602001908152602001600020905060008314612ff357600081600101541415612ff2576040517f08c379a000000000000000000000000000000000000000000000000000000000815260040180806020018281038252603781526020018061799f6037913960400191505060405180910390fd5b5b60008090505b8a8a90508110156135ed5760008b8b8381811061301257fe5b9050602002013573ffffffffffffffffffffffffffffffffffffffff16905060008760030160008373ffffffffffffffffffffffffffffffffffffffff1673ffffffffffffffffffffffffffffffffffffffff16815260200190815260200160002054905086811115613083578690505b60008860040160008473ffffffffffffffffffffffffffffffffffffffff1673ffffffffffffffffffffffffffffffffffffffff16815260200190815260200160002054905060008c8c868181106130d757fe5b9050602002013590506000838311613101576130fc8385615fc990919063ffffffff16565b613104565b60005b90506000811161315f576040517f08c379a000000000000000000000000000000000000000000000000000000000815260040180806020018281038252602381526020018061786a6023913960400191505060405180910390fd5b808211156131d5576040517f08c379a000000000000000000000000000000000000000000000000000000000815260040180806020018281038252601f8152602001807f43616e6e6f7420756e7374616b65206d6f7265207468616e207374616b65640081525060200191505060405180910390fd5b8082146132a557600554821015613237576040517f08c379a000000000000000000000000000000000000000000000000000000000815260040180806020018281038252603a815260200180617965603a913960400191505060405180910390fd5b60035461324d8383615fc990919063ffffffff16565b10156132a4576040517f08c379a000000000000000000000000000000000000000000000000000000000815260040180806020018281038252603a815260200180617a8c603a913960400191505060405180910390fd5b5b8660010154881015613302576040517f08c379a0000000000000000000000000000000000000000000000000000000008152600401808060200182810382526049815260200180617a436049913960600191505060405180910390fd5b60008760040154146133875760006012600089600401548152602001908152602001600020905088816001015411613385576040517f08c379a00000000000000000000000000000000000000000000000000000000081526004018080602001828103825260478152602001806177436047913960600191505060405180910390fd5b505b60136000815460010191905081905598506040518060a001604052808381526020018981526020018673ffffffffffffffffffffffffffffffffffffffff1681526020013373ffffffffffffffffffffffffffffffffffffffff1681526020018860040154815250601260008b8152602001908152602001600020600082015181600001556020820151816001015560408201518160020160006101000a81548173ffffffffffffffffffffffffffffffffffffffff021916908373ffffffffffffffffffffffffffffffffffffffff16021790555060608201518160030160006101000a81548173ffffffffffffffffffffffffffffffffffffffff021916908373ffffffffffffffffffffffffffffffffffffffff160217905550608082015181600401559050508887600401819055503373ffffffffffffffffffffffffffffffffffffffff168573ffffffffffffffffffffffffffffffffffffffff167ffe07ce9fff39f8420b3de5fbc6909ce08f809e2572b62f9df35c25f56d610bb0848b604051808381526020018281526020019250505060405180910390a3600061357d838d60040160008973ffffffffffffffffffffffffffffffffffffffff1673ffffffffffffffffffffffffffffffffffffffff1681526020019081526020016000205461601390919063ffffffff16565b9050808c60040160008873ffffffffffffffffffffffffffffffffffffffff1673ffffffffffffffffffffffffffffffffffffffff16815260200190815260200160002081905550601260008b815260200190815260200160002097505050505050508080600101915050612ff9565b5050505050505050505050565b60065481565b60076020528060005260406000206000915090508060000154908060010154905082565b600a5481565b60095481565b6000809054906101000a900473ffffffffffffffffffffffffffffffffffffffff1673ffffffffffffffffffffffffffffffffffffffff16635834e67a336040518263ffffffff1660e01b8152600401808273ffffffffffffffffffffffffffffffffffffffff1673ffffffffffffffffffffffffffffffffffffffff16815260200191505060206040518083038186803b1580156136ce57600080fd5b505afa1580156136e2573d6000803e3d6000fd5b505050506040513d60208110156136f857600080fd5b810190808051906020019092919050505061375e576040517f08c379a00000000000000000000000000000000000000000000000000000000081526004018080602001828103825260228152602001806179d66022913960400191505060405180910390fd5b7f4d494e5f5354414b0000000000000000000000000000000000000000000000008277ffffffffffffffffffffffffffffffffffffffffffffffff191614156137ad578060038190555061389b565b7f4d41585f4558504f0000000000000000000000000000000000000000000000008277ffffffffffffffffffffffffffffffffffffffffffffffff191614156137fc578060048190555061389b565b7f4d494e5f554e53540000000000000000000000000000000000000000000000008277ffffffffffffffffffffffffffffffffffffffffffffffff1916141561384b578060058190555061389b565b7f554e53545f4c4b540000000000000000000000000000000000000000000000008277ffffffffffffffffffffffffffffffffffffffffffffffff1916141561389a578060068190555061389b565b5b5050565b600080600f60006010548152602001908152602001600020600101541415905090565b6000806000809054906101000a900473ffffffffffffffffffffffffffffffffffffffff1673ffffffffffffffffffffffffffffffffffffffff1663ff0938a76040518163ffffffff1660e01b815260040160206040518083038186803b15801561392c57600080fd5b505afa158015613940573d6000803e3d6000fd5b505050506040513d602081101561395657600080fd5b8101908080519060200190929190505050156139da576040517f08c379a00000000000000000000000000000000000000000000000000000000081526004018080602001828103825260108152602001807f53797374656d206973207061757365640000000000000000000000000000000081525060200191505060405180910390fd5b600060149054906101000a900460ff16613a5c576040517f08c379a000000000000000000000000000000000000000000000000000000000815260040180806020018281038252601b8152602001807f436f6e7472616374206973206e6f7420696e697469616c697a6564000000000081525060200191505060405180910390fd5b8290505b600115613cc55760006012600080815260200190815260200160002060040154905060006012600083815260200190815260200160002090506000600f6000601054815260200190815260200160002090506000600c60010154905060008260010154905060008460010154905060008087118015613adf5750428211155b905060008085141590506000806010541415905081158015613aff575082155b8015613b09575080155b15613b1c57505050505050505050613cc5565b818015613b315750821580613b3057508386105b5b8015613b455750801580613b4457508486105b5b15613bbf57613b538a61634e565b809b50819c5050508a613bb1577ff3b343b97db20514b20b9c54105a005716230e231e9bf5d180b1a0dfe6e4fb8a6000604051808215151515815260200191505060405180910390a160008a9a509a50505050505050505050613d09565b505050505050505050613a60565b828015613bd45750801580613bd357508484105b5b15613c505760008a1415613c33577ff3b343b97db20514b20b9c54105a005716230e231e9bf5d180b1a0dfe6e4fb8a6000604051808215151515815260200191505060405180910390a160008a9a509a50505050505050505050613d09565b613c3b6167d4565b89600190039950505050505050505050613a60565b613c598a616b1c565b809b50819c5050508a613cb7577ff3b343b97db20514b20b9c54105a005716230e231e9bf5d180b1a0dfe6e4fb8a6000604051808215151515815260200191505060405180910390a160008a9a509a50505050505050505050613d09565b505050505050505050613a60565b7ff3b343b97db20514b20b9c54105a005716230e231e9bf5d180b1a0dfe6e4fb8a6001604051808215151515815260200191505060405180910390a1600181915091505b915091565b6000806000809054906101000a900473ffffffffffffffffffffffffffffffffffffffff1673ffffffffffffffffffffffffffffffffffffffff1663ff0938a76040518163ffffffff1660e01b815260040160206040518083038186803b158015613d7857600080fd5b505afa158015613d8c573d6000803e3d6000fd5b505050506040513d6020811015613da257600080fd5b810190808051906020019092919050505015613e26576040517f08c379a00000000000000000000000000000000000000000000000000000000081526004018080602001828103825260108152602001807f53797374656d206973207061757365640000000000000000000000000000000081525060200191505060405180910390fd5b600060149054906101000a900460ff16613ea8576040517f08c379a000000000000000000000000000000000000000000000000000000000815260040180806020018281038252601b8152602001807f436f6e7472616374206973206e6f7420696e697469616c697a6564000000000081525060200191505060405180910390fd5b613eb1836138c2565b8092508193505050915091565b600080600760008473ffffffffffffffffffffffffffffffffffffffff1673ffffffffffffffffffffffffffffffffffffffff168152602001908152602001600020905060008160000154905060008060008090505b8460020180549050811015613feb576000856002018281548110613f3457fe5b9060005260206000200160009054906101000a900473ffffffffffffffffffffffffffffffffffffffff16905060008660030160008373ffffffffffffffffffffffffffffffffffffffff1673ffffffffffffffffffffffffffffffffffffffff1681526020019081526020016000205490506000818710613fb65781613fb8565b865b9050613fcd818761601390919063ffffffff16565b955084811115613fdb578094505b5050508080600101915050613f14565b50600061400360045484616ff890919063ffffffff16565b905060008183116140145781614016565b825b905061402b8186615fc990919063ffffffff16565b9650505050505050919050565b6000809054906101000a900473ffffffffffffffffffffffffffffffffffffffff1673ffffffffffffffffffffffffffffffffffffffff1663ff0938a76040518163ffffffff1660e01b815260040160206040518083038186803b15801561409f57600080fd5b505afa1580156140b3573d6000803e3d6000fd5b505050506040513d60208110156140c957600080fd5b81019080805190602001909291905050501561414d576040517f08c379a00000000000000000000000000000000000000000000000000000000081526004018080602001828103825260108152602001807f53797374656d206973207061757365640000000000000000000000000000000081525060200191505060405180910390fd5b600060149054906101000a900460ff166141cf576040517f08c379a000000000000000000000000000000000000000000000000000000000815260040180806020018281038252601b8152602001807f436f6e7472616374206973206e6f7420696e697469616c697a6564000000000081525060200191505060405180910390fd5b6000600760008373ffffffffffffffffffffffffffffffffffffffff1673ffffffffffffffffffffffffffffffffffffffff1681526020019081526020016000206001015490506000600760008473ffffffffffffffffffffffffffffffffffffffff1673ffffffffffffffffffffffffffffffffffffffff16815260200190815260200160002060010181905550600160009054906101000a900473ffffffffffffffffffffffffffffffffffffffff1673ffffffffffffffffffffffffffffffffffffffff1663a9059cbb83836040518363ffffffff1660e01b8152600401808373ffffffffffffffffffffffffffffffffffffffff1673ffffffffffffffffffffffffffffffffffffffff16815260200182815260200192505050602060405180830381600087803b15801561430757600080fd5b505af115801561431b573d6000803e3d6000fd5b505050506040513d602081101561433157600080fd5b8101908080519060200190929190505050508173ffffffffffffffffffffffffffffffffffffffff167f1d3eee4ca001cff39eec6ec7615aacf2f2bd61791273830728ba00ccbd6e1337826040518082815260200191505060405180910390a25050565b6000809054906101000a900473ffffffffffffffffffffffffffffffffffffffff1673ffffffffffffffffffffffffffffffffffffffff1663ff0938a76040518163ffffffff1660e01b815260040160206040518083038186803b1580156143fc57600080fd5b505afa158015614410573d6000803e3d6000fd5b505050506040513d602081101561442657600080fd5b8101908080519060200190929190505050156144aa576040517f08c379a00000000000000000000000000000000000000000000000000000000081526004018080602001828103825260108152602001807f53797374656d206973207061757365640000000000000000000000000000000081525060200191505060405180910390fd5b600060149054906101000a900460ff1661452c576040517f08c379a000000000000000000000000000000000000000000000000000000000815260040180806020018281038252601b8152602001807f436f6e7472616374206973206e6f7420696e697469616c697a6564000000000081525060200191505060405180910390fd5b6000809054906101000a900473ffffffffffffffffffffffffffffffffffffffff1673ffffffffffffffffffffffffffffffffffffffff1663a230c524336040518263ffffffff1660e01b8152600401808273ffffffffffffffffffffffffffffffffffffffff1673ffffffffffffffffffffffffffffffffffffffff16815260200191505060206040518083038186803b1580156145ca57600080fd5b505afa1580156145de573d6000803e3d6000fd5b505050506040513d60208110156145f457600080fd5b8101908080519060200190929190505050614677576040517f08c379a00000000000000000000000000000000000000000000000000000000081526004018080602001828103825260168152602001807f43616c6c6572206973206e6f742061206d656d6265720000000000000000000081525060200191505060405180910390fd5b61467f61189d565b156146d5576040517f08c379a000000000000000000000000000000000000000000000000000000000815260040180806020018281038252603281526020018061778a6032913960400191505060405180910390fd5b6000600760003373ffffffffffffffffffffffffffffffffffffffff1673ffffffffffffffffffffffffffffffffffffffff168152602001908152602001600020905060008160020180549050905080868690501015614780576040517f08c379a0000000000000000000000000000000000000000000000000000000008152600401808060200182810382526029815260200180617a1a6029913960400191505060405180910390fd5b8383905086869050146147de576040517f08c379a000000000000000000000000000000000000000000000000000000000815260040180806020018281038252603781526020018061792e6037913960400191505060405180910390fd5b6000808360000154905060006147fd8a8361601390919063ffffffff16565b9050808560000181905550600260009054906101000a900473ffffffffffffffffffffffffffffffffffffffff1673ffffffffffffffffffffffffffffffffffffffff16630d1af10333308d6040518463ffffffff1660e01b8152600401808473ffffffffffffffffffffffffffffffffffffffff1673ffffffffffffffffffffffffffffffffffffffff1681526020018373ffffffffffffffffffffffffffffffffffffffff1673ffffffffffffffffffffffffffffffffffffffff1681526020018281526020019350505050602060405180830381600087803b1580156148e557600080fd5b505af11580156148f9573d6000803e3d6000fd5b505050506040513d602081101561490f57600080fd5b81019080805190602001909291905050505060008090505b898990508110156150485760008a8a8381811061494057fe5b9050602002013573ffffffffffffffffffffffffffffffffffffffff16905060008090505b82811015614a27578173ffffffffffffffffffffffffffffffffffffffff168c8c8381811061499057fe5b9050602002013573ffffffffffffffffffffffffffffffffffffffff1673ffffffffffffffffffffffffffffffffffffffff161415614a1a576040517f08c379a000000000000000000000000000000000000000000000000000000000815260040180806020018281038252602d815260200180617716602d913960400191505060405180910390fd5b8080600101915050614965565b5060008760030160008373ffffffffffffffffffffffffffffffffffffffff1673ffffffffffffffffffffffffffffffffffffffff1681526020019081526020016000205490506000818610614a7d5781614a7f565b855b905060008b8b86818110614a8f57fe5b905060200201359050600089861015905080614bdd578a6002018681548110614ab457fe5b9060005260206000200160009054906101000a900473ffffffffffffffffffffffffffffffffffffffff1673ffffffffffffffffffffffffffffffffffffffff168573ffffffffffffffffffffffffffffffffffffffff1614614b7f576040517f08c379a00000000000000000000000000000000000000000000000000000000081526004018080602001828103825260198152602001807f556e657870656374656420636f6e7472616374206f726465720000000000000081525060200191505060405180910390fd5b81831115614bd8576040517f08c379a0000000000000000000000000000000000000000000000000000000008152600401808060200182810382526025815260200180617ac66025913960400191505060405180910390fd5b614c9f565b60008211614c36576040517f08c379a00000000000000000000000000000000000000000000000000000000081526004018080602001828103825260238152602001806178476023913960400191505060405180910390fd5b8a6002018590806001815401808255809150509060018203906000526020600020016000909192909190916101000a81548173ffffffffffffffffffffffffffffffffffffffff021916908373ffffffffffffffffffffffffffffffffffffffff160217905550505b81831415614d1457818414614cf557818b60030160008773ffffffffffffffffffffffffffffffffffffffff1673ffffffffffffffffffffffffffffffffffffffff168152602001908152602001600020819055505b614d08828a61601390919063ffffffff16565b9850505050505061503b565b600354821015614d8c576040517f08c379a000000000000000000000000000000000000000000000000000000000815260040180806020018281038252601c8152602001807f4d696e696d756d207374616b6520616d6f756e74206e6f74206d65740000000081525060200191505060405180910390fd5b86821115614e02576040517f08c379a00000000000000000000000000000000000000000000000000000000081526004018080602001828103825260208152602001807f43616e6e6f74207374616b65206d6f7265207468616e206465706f736974656481525060200191505060405180910390fd5b8080614e5a57508a60050160008673ffffffffffffffffffffffffffffffffffffffff1673ffffffffffffffffffffffffffffffffffffffff16815260200190815260200160002060009054906101000a900460ff16155b15614f5d5760018b60050160008773ffffffffffffffffffffffffffffffffffffffff1673ffffffffffffffffffffffffffffffffffffffff16815260200190815260200160002060006101000a81548160ff021916908315150217905550600b60008673ffffffffffffffffffffffffffffffffffffffff1673ffffffffffffffffffffffffffffffffffffffff1681526020019081526020016000203390806001815401808255809150509060018203906000526020600020016000909192909190916101000a81548173ffffffffffffffffffffffffffffffffffffffff021916908373ffffffffffffffffffffffffffffffffffffffff160217905550505b818b60030160008773ffffffffffffffffffffffffffffffffffffffff1673ffffffffffffffffffffffffffffffffffffffff16815260200190815260200160002081905550614fb6828a61601390919063ffffffff16565b98506000614fcd8484615fc990919063ffffffff16565b90503373ffffffffffffffffffffffffffffffffffffffff168673ffffffffffffffffffffffffffffffffffffffff167f5dac0c1b1112564a045ba943c9d50270893e8e826c49be8e7073adc713ab7bd7836040518082815260200191505060405180910390a35050505050505b8080600101915050614927565b50615062600454866000015461704290919063ffffffff16565b8311156150ba576040517f08c379a0000000000000000000000000000000000000000000000000000000008152600401808060200182810382526023815260200180617aeb6023913960400191505060405180910390fd5b60008a1115615112573373ffffffffffffffffffffffffffffffffffffffff167f2da466a7b24304f47e87fa2e1e5a81b9831ce54fec19055ce277ca2f39ba42c48b6040518082815260200191505060405180910390a25b600060018a8a905003905060008590505b600081111561523657600089896001840381811061513d57fe5b9050602002013514156152285786600201828154811061515957fe5b9060005260206000200160009054906101000a900473ffffffffffffffffffffffffffffffffffffffff1687600201600183038154811061519657fe5b9060005260206000200160006101000a81548173ffffffffffffffffffffffffffffffffffffffff021916908373ffffffffffffffffffffffffffffffffffffffff160217905550866002018054806151eb57fe5b6001900381819060005260206000200160006101000a81549073ffffffffffffffffffffffffffffffffffffffff02191690559055816001900391505b808060019003915050615123565b505050505050505050505050565b60085481565b60035481565b600073ffffffffffffffffffffffffffffffffffffffff166000809054906101000a900473ffffffffffffffffffffffffffffffffffffffff1673ffffffffffffffffffffffffffffffffffffffff1614615368573373ffffffffffffffffffffffffffffffffffffffff166000809054906101000a900473ffffffffffffffffffffffffffffffffffffffff1673ffffffffffffffffffffffffffffffffffffffff1614615367576040517f08c379a000000000000000000000000000000000000000000000000000000000815260040180806020018281038252600a8152602001807f4e6f74206d61737465720000000000000000000000000000000000000000000081525060200191505060405180910390fd5b5b806000806101000a81548173ffffffffffffffffffffffffffffffffffffffff021916908373ffffffffffffffffffffffffffffffffffffffff16021790555050565b6000600b60008473ffffffffffffffffffffffffffffffffffffffff1673ffffffffffffffffffffffffffffffffffffffff16815260200190815260200160002082815481106153f757fe5b9060005260206000200160009054906101000a900473ffffffffffffffffffffffffffffffffffffffff16905092915050565b60008060008060008060126000888152602001908152602001600020905080600001549550806001015494508060020160009054906101000a900473ffffffffffffffffffffffffffffffffffffffff1693508060030160009054906101000a900473ffffffffffffffffffffffffffffffffffffffff169250806004015491505091939590929450565b601560009054906101000a900460ff1681565b600080600760008573ffffffffffffffffffffffffffffffffffffffff1673ffffffffffffffffffffffffffffffffffffffff16815260200190815260200160002060030160008473ffffffffffffffffffffffffffffffffffffffff1673ffffffffffffffffffffffffffffffffffffffff1681526020019081526020016000205490506000600760008673ffffffffffffffffffffffffffffffffffffffff1673ffffffffffffffffffffffffffffffffffffffff1681526020019081526020016000206000015490508082106155a157806155a3565b815b9250505092915050565b600260009054906101000a900473ffffffffffffffffffffffffffffffffffffffff1681565b6000809054906101000a900473ffffffffffffffffffffffffffffffffffffffff1681565b6000600760008473ffffffffffffffffffffffffffffffffffffffff1673ffffffffffffffffffffffffffffffffffffffff168152602001908152602001600020600201828154811061564757fe5b9060005260206000200160009054906101000a900473ffffffffffffffffffffffffffffffffffffffff16905092915050565b6000809054906101000a900473ffffffffffffffffffffffffffffffffffffffff1673ffffffffffffffffffffffffffffffffffffffff16638f16c41c336040518263ffffffff1660e01b8152600401808273ffffffffffffffffffffffffffffffffffffffff1673ffffffffffffffffffffffffffffffffffffffff16815260200191505060206040518083038186803b15801561571857600080fd5b505afa15801561572c573d6000803e3d6000fd5b505050506040513d602081101561574257600080fd5b81019080805190602001909291905050506157a8576040517f08c379a00000000000000000000000000000000000000000000000000000000081526004018080602001828103825260228152602001806179f86022913960400191505060405180910390fd5b6000809054906101000a900473ffffffffffffffffffffffffffffffffffffffff1673ffffffffffffffffffffffffffffffffffffffff1663ff0938a76040518163ffffffff1660e01b815260040160206040518083038186803b15801561580f57600080fd5b505afa158015615823573d6000803e3d6000fd5b505050506040513d602081101561583957600080fd5b8101908080519060200190929190505050156158bd576040517f08c379a00000000000000000000000000000000000000000000000000000000081526004018080602001828103825260108152602001807f53797374656d206973207061757365640000000000000000000000000000000081525060200191505060405180910390fd5b600060149054906101000a900460ff1661593f576040517f08c379a000000000000000000000000000000000000000000000000000000000815260040180806020018281038252601b8152602001807f436f6e7472616374206973206e6f7420696e697469616c697a6564000000000081525060200191505060405180910390fd5b606060016040519080825280602002602001820160405280156159715781602001602082028038833980820191505090505b509050828160008151811061598257fe5b602002602001019073ffffffffffffffffffffffffffffffffffffffff16908173ffffffffffffffffffffffffffffffffffffffff16815250506159c781600061609b565b6000601660008573ffffffffffffffffffffffffffffffffffffffff1673ffffffffffffffffffffffffffffffffffffffff1681526020019081526020016000209050615a2183826000015461601390919063ffffffff16565b81600001819055508373ffffffffffffffffffffffffffffffffffffffff167fac24935fd910bc682b5ccb1a07b718cadf8cf2f6d1404c4f3ddc3662dae40e29846040518082815260200191505060405180910390a250505050565b6060600b60008373ffffffffffffffffffffffffffffffffffffffff1673ffffffffffffffffffffffffffffffffffffffff168152602001908152602001600020805480602002602001604051908101604052809291908181526020018280548015615b3e57602002820191906000526020600020905b8160009054906101000a900473ffffffffffffffffffffffffffffffffffffffff1673ffffffffffffffffffffffffffffffffffffffff1681526020019060010190808311615af4575b50505050509050919050565b600f6020528060005260406000206000915090508060000154908060010154908060020160009054906101000a900473ffffffffffffffffffffffffffffffffffffffff16905083565b60115481565b6000809054906101000a900473ffffffffffffffffffffffffffffffffffffffff1673ffffffffffffffffffffffffffffffffffffffff1663ff0938a76040518163ffffffff1660e01b815260040160206040518083038186803b158015615c0157600080fd5b505afa158015615c15573d6000803e3d6000fd5b505050506040513d6020811015615c2b57600080fd5b810190808051906020019092919050505015615caf576040517f08c379a00000000000000000000000000000000000000000000000000000000081526004018080602001828103825260108152602001807f53797374656d206973207061757365640000000000000000000000000000000081525060200191505060405180910390fd5b600060149054906101000a900460ff16615d31576040517f08c379a000000000000000000000000000000000000000000000000000000000815260040180806020018281038252601b8152602001807f436f6e7472616374206973206e6f7420696e697469616c697a6564000000000081525060200191505060405180910390fd5b615d7d828280806020026020016040519081016040528093929190818152602001838360200280828437600081840152601f19601f82011690508083019250505050505050600061609b565b5050565b60126020528060005260406000206000915090508060000154908060010154908060020160009054906101000a900473ffffffffffffffffffffffffffffffffffffffff16908060030160009054906101000a900473ffffffffffffffffffffffffffffffffffffffff16908060040154905085565b600160009054906101000a900473ffffffffffffffffffffffffffffffffffffffff1681565b60008060009054906101000a900473ffffffffffffffffffffffffffffffffffffffff1673ffffffffffffffffffffffffffffffffffffffff1663ff0938a76040518163ffffffff1660e01b815260040160206040518083038186803b158015615e8657600080fd5b505afa158015615e9a573d6000803e3d6000fd5b505050506040513d6020811015615eb057600080fd5b810190808051906020019092919050505015615f34576040517f08c379a00000000000000000000000000000000000000000000000000000000081526004018080602001828103825260108152602001807f53797374656d206973207061757365640000000000000000000000000000000081525060200191505060405180910390fd5b600060149054906101000a900460ff16615fb6576040517f08c379a000000000000000000000000000000000000000000000000000000000815260040180806020018281038252601b8152602001807f436f6e7472616374206973206e6f7420696e697469616c697a6564000000000081525060200191505060405180910390fd5b615fbf826138c2565b5080915050919050565b600061600b83836040518060400160405280601e81526020017f536166654d6174683a207375627472616374696f6e206f766572666c6f7700008152506170c8565b905092915050565b600080828401905083811015616091576040517f08c379a000000000000000000000000000000000000000000000000000000000815260040180806020018281038252601b8152602001807f536166654d6174683a206164646974696f6e206f766572666c6f77000000000081525060200191505060405180910390fd5b8091505092915050565b60006160a56162c2565b905060006011549050600080905060008090505b85518110156162aa5760008682815181106160d057fe5b602002602001015190506000601660008373ffffffffffffffffffffffffffffffffffffffff1673ffffffffffffffffffffffffffffffffffffffff1681526020019081526020016000209050600081600101549050600082600001549050600080821180156161475750898061614657508289115b5b9050806161695788831461615f578884600101819055505b505050505061629d565b60405180606001604052808381526020014281526020018673ffffffffffffffffffffffffffffffffffffffff16815250600f60008a6001019a508a8152602001908152602001600020600082015181600001556020820151816001015560408201518160020160006101000a81548173ffffffffffffffffffffffffffffffffffffffff021916908373ffffffffffffffffffffffffffffffffffffffff1602179055509050508473ffffffffffffffffffffffffffffffffffffffff167f5f5b850fcbd0c09e2b8624b44902a5be89312011ae945e14bc73514fb719891e836040518082815260200191505060405180910390a26000846000018190555088846001018190555086600101965060018714801561628a57506000601054145b1561629757876010819055505b50505050505b80806001019150506160b9565b50600081146162bb57816011819055505b5050505050565b600080601754905060006018549050600081141561632b576040517f08c379a00000000000000000000000000000000000000000000000000000000081526004018080602001828103825260268152602001806179086026913960400191505060405180910390fd5b8042111561634457818142038161633e57fe5b04616347565b60005b9250505090565b6000808290506000600c60020160009054906101000a900473ffffffffffffffffffffffffffffffffffffffff169050600061638a8284617188565b809550819650829350505050836163a9576000839350935050506167cf565b6000600b60008473ffffffffffffffffffffffffffffffffffffffff1673ffffffffffffffffffffffffffffffffffffffff16815260200190815260200160002090506000818054905090506000600c6000015490506000600954905084821115616412578491505b600060145490505b8381101561665257600088141561644c57816009819055508060148190555060008898509850505050505050506167cf565b8760019003975060006007600087848154811061646557fe5b9060005260206000200160009054906101000a900473ffffffffffffffffffffffffffffffffffffffff1673ffffffffffffffffffffffffffffffffffffffff1673ffffffffffffffffffffffffffffffffffffffff16815260200190815260200160002090506000806164db838b8b89617394565b80925081935050506164f6828661601390919063ffffffff16565b94506000811461650857505050616645565b60008360050160008c73ffffffffffffffffffffffffffffffffffffffff1673ffffffffffffffffffffffffffffffffffffffff16815260200190815260200160002060006101000a81548160ff02191690831515021790555087600188038154811061657157fe5b9060005260206000200160009054906101000a900473ffffffffffffffffffffffffffffffffffffffff168885815481106165a857fe5b9060005260206000200160006101000a81548173ffffffffffffffffffffffffffffffffffffffff021916908373ffffffffffffffffffffffffffffffffffffffff160217905550878054806165fa57fe5b6001900381819060005260206000200160006101000a81549073ffffffffffffffffffffffffffffffffffffffff021916905590558380600190039450508680600190039750505050505b808060010191505061641a565b50600c60008082016000905560018201600090556002820160006101000a81549073ffffffffffffffffffffffffffffffffffffffff02191690555050600060098190555060006014819055506000601560006101000a81548160ff021916908315150217905550600160009054906101000a900473ffffffffffffffffffffffffffffffffffffffff1673ffffffffffffffffffffffffffffffffffffffff166342966c68826040518263ffffffff1660e01b815260040180828152602001915050602060405180830381600087803b15801561672f57600080fd5b505af1158015616743573d6000803e3d6000fd5b505050506040513d602081101561675957600080fd5b8101908080519060200190929190505050508573ffffffffffffffffffffffffffffffffffffffff167f23ff0e75edf108e3d0392d92e13e8c8a868ef19001bd49f9e94876dc46dff87f8287604051808381526020018281526020019250505060405180910390a2600187975097505050505050505b915091565b600060126000808152602001908152602001600020600401549050600060126000838152602001908152602001600020905060008160030160009054906101000a900473ffffffffffffffffffffffffffffffffffffffff1690506000600760008373ffffffffffffffffffffffffffffffffffffffff1673ffffffffffffffffffffffffffffffffffffffff168152602001908152602001600020905060008360020160009054906101000a900473ffffffffffffffffffffffffffffffffffffffff16905060008260000154905060008360030160008473ffffffffffffffffffffffffffffffffffffffff1673ffffffffffffffffffffffffffffffffffffffff16815260200190815260200160002054905060008183106168f957816168fb565b825b905060008760000154905060008183106169155781616917565b825b905061692c8184615fc990919063ffffffff16565b8760030160008873ffffffffffffffffffffffffffffffffffffffff1673ffffffffffffffffffffffffffffffffffffffff1681526020019081526020016000208190555060008760040160008873ffffffffffffffffffffffffffffffffffffffff1673ffffffffffffffffffffffffffffffffffffffff1681526020019081526020016000205490506169ca8382615fc990919063ffffffff16565b8860040160008973ffffffffffffffffffffffffffffffffffffffff1673ffffffffffffffffffffffffffffffffffffffff1681526020019081526020016000208190555089600401546012600080815260200190815260200160002060040181905550601260008c815260200190815260200160002060008082016000905560018201600090556002820160006101000a81549073ffffffffffffffffffffffffffffffffffffffff02191690556003820160006101000a81549073ffffffffffffffffffffffffffffffffffffffff0219169055600482016000905550508873ffffffffffffffffffffffffffffffffffffffff168773ffffffffffffffffffffffffffffffffffffffff167fd8654fcc8cf5b36d30b3f5e4688fc78118e6d68de60b9994e09902268b57c3e3856040518082815260200191505060405180910390a35050505050505050505050565b6000808290506000600f60006010548152602001908152602001600020905060008160020160009054906101000a900473ffffffffffffffffffffffffffffffffffffffff1690506000826000015490506000616b798386617188565b80975081985082935050505085616b9a576000859550955050505050616ff3565b6000600b60008573ffffffffffffffffffffffffffffffffffffffff1673ffffffffffffffffffffffffffffffffffffffff16815260200190815260200160002090506000818054905090506000600a549050600060145490505b82811015616e31576000891415616c285781600a8190555080601481905550600089995099505050505050505050616ff3565b886001900398506000848281548110616c3d57fe5b9060005260206000200160009054906101000a900473ffffffffffffffffffffffffffffffffffffffff169050600080616c79838b8b8b6174bf565b915091506000811415616e0b576000600760008573ffffffffffffffffffffffffffffffffffffffff1673ffffffffffffffffffffffffffffffffffffffff168152602001908152602001600020905060008160050160008d73ffffffffffffffffffffffffffffffffffffffff1673ffffffffffffffffffffffffffffffffffffffff16815260200190815260200160002060006101000a81548160ff021916908315150217905550876001880381548110616d3257fe5b9060005260206000200160009054906101000a900473ffffffffffffffffffffffffffffffffffffffff16888681548110616d6957fe5b9060005260206000200160006101000a81548173ffffffffffffffffffffffffffffffffffffffff021916908373ffffffffffffffffffffffffffffffffffffffff16021790555087805480616dbb57fe5b6001900381819060005260206000200160006101000a81549073ffffffffffffffffffffffffffffffffffffffff0219169055905584806001900395505086806001900397505050505050616e24565b616e1e828661601390919063ffffffff16565b94505050505b8080600101915050616bf5565b50600f6000601054815260200190815260200160002060008082016000905560018201600090556002820160006101000a81549073ffffffffffffffffffffffffffffffffffffffff021916905550506000600a8190555060006014819055506000601560006101000a81548160ff0219169083151502179055506011546010600081546001019190508190551115616ecd5760006010819055505b600260009054906101000a900473ffffffffffffffffffffffffffffffffffffffff1673ffffffffffffffffffffffffffffffffffffffff166340c10f1930836040518363ffffffff1660e01b8152600401808373ffffffffffffffffffffffffffffffffffffffff1673ffffffffffffffffffffffffffffffffffffffff16815260200182815260200192505050600060405180830381600087803b158015616f7657600080fd5b505af1158015616f8a573d6000803e3d6000fd5b505050508573ffffffffffffffffffffffffffffffffffffffff167f291e8ba3c0f4b0bd86e6e2346fcee1e7ca0975b1cc1886bfbc722d34f3f24d918286604051808381526020018281526020019250505060405180910390a260018898509850505050505050505b915091565b600061703a83836040518060400160405280601a81526020017f536166654d6174683a206469766973696f6e206279207a65726f00000000000081525061761f565b905092915050565b60008083141561705557600090506170c2565b600082840290508284828161706657fe5b04146170bd576040517f08c379a00000000000000000000000000000000000000000000000000000000081526004018080602001828103825260218152602001806178e76021913960400191505060405180910390fd5b809150505b92915050565b6000838311158290617175576040517f08c379a00000000000000000000000000000000000000000000000000000000081526004018080602001828103825283818151815260200191508051906020019080838360005b8381101561713a57808201518184015260208101905061711f565b50505050905090810190601f1680156171675780820380516001836020036101000a031916815260200191505b509250505060405180910390fd5b5060008385039050809150509392505050565b6000806000839050601560009054906101000a900460ff16156171b65760085460018292509250925061738d565b6000600b60008773ffffffffffffffffffffffffffffffffffffffff1673ffffffffffffffffffffffffffffffffffffffff168152602001908152602001600020905060008180549050905060006014549050600081146172175760085495505b60008190505b8281101561735457600085141561724f578060148190555086600881905550866000869650965096505050505061738d565b8460019003945060006007600086848154811061726857fe5b9060005260206000200160009054906101000a900473ffffffffffffffffffffffffffffffffffffffff1673ffffffffffffffffffffffffffffffffffffffff1673ffffffffffffffffffffffffffffffffffffffff168152602001908152602001600020905060008160000154905060008260030160008d73ffffffffffffffffffffffffffffffffffffffff1673ffffffffffffffffffffffffffffffffffffffff16815260200190815260200160002054905080821061732b578061732d565b815b9050617342818b61601390919063ffffffff16565b9950505050808060010191505061721d565b50856008819055506001601560006101000a81548160ff0219169083151502179055506000601481905550856001859550955095505050505b9250925092565b60008060008060009250600086146173fe57876000015491508760030160008873ffffffffffffffffffffffffffffffffffffffff1673ffffffffffffffffffffffffffffffffffffffff168152602001908152602001600020549050818111156173fd578190505b5b8486146174465761742a8661741c878461704290919063ffffffff16565b616ff890919063ffffffff16565b935061743f8482615fc990919063ffffffff16565b925061744a565b8093505b6000841461746e576174658483615fc990919063ffffffff16565b88600001819055505b828860030160008973ffffffffffffffffffffffffffffffffffffffff1673ffffffffffffffffffffffffffffffffffffffff16815260200190815260200160002081905550505094509492505050565b6000806000600760008873ffffffffffffffffffffffffffffffffffffffff1673ffffffffffffffffffffffffffffffffffffffff16815260200190815260200160002090506000816000015490508160030160008873ffffffffffffffffffffffffffffffffffffffff1673ffffffffffffffffffffffffffffffffffffffff1681526020019081526020016000205492508083111561755e578092505b600085148061756d5750600083145b156175cd5760008260030160008973ffffffffffffffffffffffffffffffffffffffff1673ffffffffffffffffffffffffffffffffffffffff16815260200190815260200160002081905550600080819150809050935093505050617616565b6175f2856175e4858961704290919063ffffffff16565b616ff890919063ffffffff16565b935061760b84836001015461601390919063ffffffff16565b826001018190555050505b94509492505050565b600080831182906176cb576040517f08c379a00000000000000000000000000000000000000000000000000000000081526004018080602001828103825283818151815260200191508051906020019080838360005b83811015617690578082015181840152602081019050617675565b50505050905090810190601f1680156176bd5780820380516001836020036101000a031916815260200191505b509250505060405180910390fd5b5060008385816176d757fe5b04905080915050939250505056fe556e61626c6520746f20657865637574652072657175657374207769746820756e70726f636573736564206275726e73436f6e7472616374732061727261792073686f756c64206e6f7420636f6e7461696e206475706c6963617465734e65787420756e7374616b6520726571756573742074696d65206d7573742062652067726561746572207468616e206e657720756e7374616b6520726571756573742074696d65556e61626c6520746f20657865637574652072657175657374207769746820756e70726f63657373656420616374696f6e73436f6e74726163747320616e6420616d6f756e7473206172726179732073686f756c642068617665207468652073616d65206c656e67746852657175657374656420616d6f756e742065786365656473206d617820776974686472617761626c6520616d6f756e74496e76616c696420756e7374616b6520726571756573742069642070726f76696465644e6577207374616b65732073686f756c642062652067726561746572207468616e20304e6f7468696e6720746f20756e7374616b65206f6e207468697320636f6e74726163746e657875736d757475616c2e706f6f6c65647374616b696e672e4d4947524154494f4e5f4c4153545f49445f504f494e5445525245574152445f524f554e44535f535441525420616c726561647920696e697469616c697a6564536166654d6174683a206d756c7469706c69636174696f6e206f766572666c6f775245574152445f524f554e44535f5354415254206973206e6f7420696e697469616c697a6564436f6e74726163747320616e64207374616b6573206172726179732073686f756c642068617665207468652073616d65206c656e677468556e7374616b656420616d6f756e742063616e6e6f74206265206c657373207468616e206d696e696d756d20756e7374616b6520616d6f756e7450726f766964656420756e7374616b6520726571756573742069642073686f756c64206e6f7420626520616e20656d70747920736c6f7443616c6c6572206973206e6f7420617574686f72697a656420746f20676f7665726e43616c6c6572206973206e6f7420616e20696e7465726e616c20636f6e74726163745374616b696e67206f6e20666577657220636f6e747261637473206973206e6f7420616c6c6f776564556e7374616b6520726571756573742074696d65206d7573742062652067726561746572206f7220657175616c20746f2070726576696f757320756e7374616b65207265717565737452656d61696e696e67207374616b652063616e6e6f74206265206c657373207468616e206d696e696d756d20756e7374616b6520616d6f756e744e6577207374616b65206973206c657373207468616e2070726576696f7573207374616b65546f74616c207374616b652065786365656473206d6178696d756d20616c6c6f776564a265627a7a7231582042bf35f4b16308e92d819b06db0aa5032ee41357b2eaf43aa2235948c472898c64736f6c63430005110032",
  "linkReferences": {},
  "deployedLinkReferences": {}
}