{
  "_format": "hh-sol-artifact-1",
  "contractName": "PooledStaking",
  "sourceName": "contracts/NexusMutual/modules/staking/PooledStaking.sol",
  "abi": [
    {
      "anonymous": false,
      "inputs": [
        {
          "indexed": true,
          "internalType": "address",
          "name": "contractAddress",
          "type": "address"
        },
        {
          "indexed": false,
          "internalType": "uint256",
          "name": "amount",
          "type": "uint256"
        }
      ],
      "name": "BurnRequested",
      "type": "event"
    },
    {
      "anonymous": false,
      "inputs": [
        {
          "indexed": true,
          "internalType": "address",
          "name": "contractAddress",
          "type": "address"
        },
        {
          "indexed": false,
          "internalType": "uint256",
          "name": "amount",
          "type": "uint256"
        },
        {
          "indexed": false,
          "internalType": "uint256",
          "name": "contractStakeBeforeBurn",
          "type": "uint256"
        }
      ],
      "name": "Burned",
      "type": "event"
    },
    {
      "anonymous": false,
      "inputs": [
        {
          "indexed": true,
          "internalType": "address",
          "name": "staker",
          "type": "address"
        },
        {
          "indexed": false,
          "internalType": "uint256",
          "name": "amount",
          "type": "uint256"
        }
      ],
      "name": "Deposited",
      "type": "event"
    },
    {
      "anonymous": false,
      "inputs": [
        {
          "indexed": false,
          "internalType": "bool",
          "name": "finished",
          "type": "bool"
        }
      ],
      "name": "PendingActionsProcessed",
      "type": "event"
    },
    {
      "anonymous": false,
      "inputs": [
        {
          "indexed": true,
          "internalType": "address",
          "name": "contractAddress",
          "type": "address"
        },
        {
          "indexed": false,
          "internalType": "uint256",
          "name": "amount",
          "type": "uint256"
        }
      ],
      "name": "RewardAdded",
      "type": "event"
    },
    {
      "anonymous": false,
      "inputs": [
        {
          "indexed": true,
          "internalType": "address",
          "name": "contractAddress",
          "type": "address"
        },
        {
          "indexed": false,
          "internalType": "uint256",
          "name": "amount",
          "type": "uint256"
        }
      ],
      "name": "RewardRequested",
      "type": "event"
    },
    {
      "anonymous": false,
      "inputs": [
        {
          "indexed": true,
          "internalType": "address",
          "name": "staker",
          "type": "address"
        },
        {
          "indexed": false,
          "internalType": "uint256",
          "name": "amount",
          "type": "uint256"
        }
      ],
      "name": "RewardWithdrawn",
      "type": "event"
    },
    {
      "anonymous": false,
      "inputs": [
        {
          "indexed": true,
          "internalType": "address",
          "name": "contractAddress",
          "type": "address"
        },
        {
          "indexed": false,
          "internalType": "uint256",
          "name": "amount",
          "type": "uint256"
        },
        {
          "indexed": false,
          "internalType": "uint256",
          "name": "contractStake",
          "type": "uint256"
        }
      ],
      "name": "Rewarded",
      "type": "event"
    },
    {
      "anonymous": false,
      "inputs": [
        {
          "indexed": false,
          "internalType": "bool",
          "name": "finished",
          "type": "bool"
        },
        {
          "indexed": false,
          "internalType": "uint256",
          "name": "firstReward",
          "type": "uint256"
        },
        {
          "indexed": false,
          "internalType": "uint256",
          "name": "iterationsLeft",
          "type": "uint256"
        }
      ],
      "name": "RewardsMigrationCompleted",
      "type": "event"
    },
    {
      "anonymous": false,
      "inputs": [
        {
          "indexed": true,
          "internalType": "address",
          "name": "contractAddress",
          "type": "address"
        },
        {
          "indexed": true,
          "internalType": "address",
          "name": "staker",
          "type": "address"
        },
        {
          "indexed": false,
          "internalType": "uint256",
          "name": "amount",
          "type": "uint256"
        }
      ],
      "name": "Staked",
      "type": "event"
    },
    {
      "anonymous": false,
      "inputs": [
        {
          "indexed": true,
          "internalType": "address",
          "name": "contractAddress",
          "type": "address"
        },
        {
          "indexed": true,
          "internalType": "address",
          "name": "staker",
          "type": "address"
        },
        {
          "indexed": false,
          "internalType": "uint256",
          "name": "amount",
          "type": "uint256"
        },
        {
          "indexed": false,
          "internalType": "uint256",
          "name": "unstakeAt",
          "type": "uint256"
        }
      ],
      "name": "UnstakeRequested",
      "type": "event"
    },
    {
      "anonymous": false,
      "inputs": [
        {
          "indexed": true,
          "internalType": "address",
          "name": "contractAddress",
          "type": "address"
        },
        {
          "indexed": true,
          "internalType": "address",
          "name": "staker",
          "type": "address"
        },
        {
          "indexed": false,
          "internalType": "uint256",
          "name": "amount",
          "type": "uint256"
        }
      ],
      "name": "Unstaked",
      "type": "event"
    },
    {
      "anonymous": false,
      "inputs": [
        {
          "indexed": true,
          "internalType": "address",
          "name": "staker",
          "type": "address"
        },
        {
          "indexed": false,
          "internalType": "uint256",
          "name": "amount",
          "type": "uint256"
        }
      ],
      "name": "Withdrawn",
      "type": "event"
    },
    {
      "constant": true,
      "inputs": [],
      "name": "MAX_EXPOSURE",
      "outputs": [
        {
          "internalType": "uint256",
          "name": "",
          "type": "uint256"
        }
      ],
      "payable": false,
      "stateMutability": "view",
      "type": "function"
    },
    {
      "constant": true,
      "inputs": [],
      "name": "MIN_STAKE",
      "outputs": [
        {
          "internalType": "uint256",
          "name": "",
          "type": "uint256"
        }
      ],
      "payable": false,
      "stateMutability": "view",
      "type": "function"
    },
    {
      "constant": true,
      "inputs": [],
      "name": "MIN_UNSTAKE",
      "outputs": [
        {
          "internalType": "uint256",
          "name": "",
          "type": "uint256"
        }
      ],
      "payable": false,
      "stateMutability": "view",
      "type": "function"
    },
    {
      "constant": true,
      "inputs": [],
      "name": "REWARD_ROUNDS_START",
      "outputs": [
        {
          "internalType": "uint256",
          "name": "",
          "type": "uint256"
        }
      ],
      "payable": false,
      "stateMutability": "view",
      "type": "function"
    },
    {
      "constant": true,
      "inputs": [],
      "name": "REWARD_ROUND_DURATION",
      "outputs": [
        {
          "internalType": "uint256",
          "name": "",
          "type": "uint256"
        }
      ],
      "payable": false,
      "stateMutability": "view",
      "type": "function"
    },
    {
      "constant": true,
      "inputs": [],
      "name": "UNSTAKE_LOCK_TIME",
      "outputs": [
        {
          "internalType": "uint256",
          "name": "",
          "type": "uint256"
        }
      ],
      "payable": false,
      "stateMutability": "view",
      "type": "function"
    },
    {
      "constant": false,
      "inputs": [
        {
          "internalType": "uint256",
          "name": "maxIterations",
          "type": "uint256"
        }
      ],
      "name": "_processPendingActions",
      "outputs": [
        {
          "internalType": "bool",
          "name": "finished",
          "type": "bool"
        },
        {
          "internalType": "uint256",
          "name": "iterationsLeft",
          "type": "uint256"
        }
      ],
      "payable": false,
      "stateMutability": "nonpayable",
      "type": "function"
    },
    {
      "constant": false,
      "inputs": [
        {
          "internalType": "address",
          "name": "contractAddress",
          "type": "address"
        },
        {
          "internalType": "uint256",
          "name": "amount",
          "type": "uint256"
        }
      ],
      "name": "accumulateReward",
      "outputs": [],
      "payable": false,
      "stateMutability": "nonpayable",
      "type": "function"
    },
    {
      "constant": true,
      "inputs": [
        {
          "internalType": "address",
          "name": "",
          "type": "address"
        }
      ],
      "name": "accumulatedRewards",
      "outputs": [
        {
          "internalType": "uint256",
          "name": "amount",
          "type": "uint256"
        },
        {
          "internalType": "uint256",
          "name": "lastDistributionRound",
          "type": "uint256"
        }
      ],
      "payable": false,
      "stateMutability": "view",
      "type": "function"
    },
    {
      "constant": true,
      "inputs": [],
      "name": "burn",
      "outputs": [
        {
          "internalType": "uint256",
          "name": "amount",
          "type": "uint256"
        },
        {
          "internalType": "uint256",
          "name": "burnedAt",
          "type": "uint256"
        },
        {
          "internalType": "address",
          "name": "contractAddress",
          "type": "address"
        }
      ],
      "payable": false,
      "stateMutability": "view",
      "type": "function"
    },
    {
      "constant": false,
      "inputs": [],
      "name": "changeDependentContractAddress",
      "outputs": [],
      "payable": false,
      "stateMutability": "nonpayable",
      "type": "function"
    },
    {
      "constant": false,
      "inputs": [
        {
          "internalType": "address",
          "name": "masterAddress",
          "type": "address"
        }
      ],
      "name": "changeMasterAddress",
      "outputs": [],
      "payable": false,
      "stateMutability": "nonpayable",
      "type": "function"
    },
    {
      "constant": true,
      "inputs": [],
      "name": "contractBurned",
      "outputs": [
        {
          "internalType": "uint256",
          "name": "",
          "type": "uint256"
        }
      ],
      "payable": false,
      "stateMutability": "view",
      "type": "function"
    },
    {
      "constant": true,
      "inputs": [],
      "name": "contractRewarded",
      "outputs": [
        {
          "internalType": "uint256",
          "name": "",
          "type": "uint256"
        }
      ],
      "payable": false,
      "stateMutability": "view",
      "type": "function"
    },
    {
      "constant": true,
      "inputs": [
        {
          "internalType": "address",
          "name": "contractAddress",
          "type": "address"
        }
      ],
      "name": "contractStake",
      "outputs": [
        {
          "internalType": "uint256",
          "name": "",
          "type": "uint256"
        }
      ],
      "payable": false,
      "stateMutability": "view",
      "type": "function"
    },
    {
      "constant": true,
      "inputs": [],
      "name": "contractStaked",
      "outputs": [
        {
          "internalType": "uint256",
          "name": "",
          "type": "uint256"
        }
      ],
      "payable": false,
      "stateMutability": "view",
      "type": "function"
    },
    {
      "constant": true,
      "inputs": [
        {
          "internalType": "address",
          "name": "contractAddress",
          "type": "address"
        },
        {
          "internalType": "uint256",
          "name": "stakerIndex",
          "type": "uint256"
        }
      ],
      "name": "contractStakerAtIndex",
      "outputs": [
        {
          "internalType": "address",
          "name": "",
          "type": "address"
        }
      ],
      "payable": false,
      "stateMutability": "view",
      "type": "function"
    },
    {
      "constant": true,
      "inputs": [
        {
          "internalType": "address",
          "name": "contractAddress",
          "type": "address"
        }
      ],
      "name": "contractStakerCount",
      "outputs": [
        {
          "internalType": "uint256",
          "name": "",
          "type": "uint256"
        }
      ],
      "payable": false,
      "stateMutability": "view",
      "type": "function"
    },
    {
      "constant": true,
      "inputs": [
        {
          "internalType": "address",
          "name": "",
          "type": "address"
        },
        {
          "internalType": "uint256",
          "name": "",
          "type": "uint256"
        }
      ],
      "name": "contractStakers",
      "outputs": [
        {
          "internalType": "address",
          "name": "",
          "type": "address"
        }
      ],
      "payable": false,
      "stateMutability": "view",
      "type": "function"
    },
    {
      "constant": true,
      "inputs": [
        {
          "internalType": "address",
          "name": "contractAddress",
          "type": "address"
        }
      ],
      "name": "contractStakersArray",
      "outputs": [
        {
          "internalType": "address[]",
          "name": "_stakers",
          "type": "address[]"
        }
      ],
      "payable": false,
      "stateMutability": "view",
      "type": "function"
    },
    {
      "constant": false,
      "inputs": [
        {
          "internalType": "uint256",
          "name": "amount",
          "type": "uint256"
        },
        {
          "internalType": "address[]",
          "name": "_contracts",
          "type": "address[]"
        },
        {
          "internalType": "uint256[]",
          "name": "_stakes",
          "type": "uint256[]"
        }
      ],
      "name": "depositAndStake",
      "outputs": [],
      "payable": false,
      "stateMutability": "nonpayable",
      "type": "function"
    },
    {
      "constant": true,
      "inputs": [],
      "name": "firstReward",
      "outputs": [
        {
          "internalType": "uint256",
          "name": "",
          "type": "uint256"
        }
      ],
      "payable": false,
      "stateMutability": "view",
      "type": "function"
    },
    {
      "constant": true,
      "inputs": [],
      "name": "getCurrentRewardsRound",
      "outputs": [
        {
          "internalType": "uint256",
          "name": "",
          "type": "uint256"
        }
      ],
      "payable": false,
      "stateMutability": "view",
      "type": "function"
    },
    {
      "constant": true,
      "inputs": [],
      "name": "hasPendingActions",
      "outputs": [
        {
          "internalType": "bool",
          "name": "",
          "type": "bool"
        }
      ],
      "payable": false,
      "stateMutability": "view",
      "type": "function"
    },
    {
      "constant": true,
      "inputs": [],
      "name": "hasPendingBurns",
      "outputs": [
        {
          "internalType": "bool",
          "name": "",
          "type": "bool"
        }
      ],
      "payable": false,
      "stateMutability": "view",
      "type": "function"
    },
    {
      "constant": true,
      "inputs": [],
      "name": "hasPendingRewards",
      "outputs": [
        {
          "internalType": "bool",
          "name": "",
          "type": "bool"
        }
      ],
      "payable": false,
      "stateMutability": "view",
      "type": "function"
    },
    {
      "constant": true,
      "inputs": [],
      "name": "hasPendingUnstakeRequests",
      "outputs": [
        {
          "internalType": "bool",
          "name": "",
          "type": "bool"
        }
      ],
      "payable": false,
      "stateMutability": "view",
      "type": "function"
    },
    {
      "constant": false,
      "inputs": [],
      "name": "initialize",
      "outputs": [],
      "payable": false,
      "stateMutability": "nonpayable",
      "type": "function"
    },
    {
      "constant": false,
      "inputs": [],
      "name": "initializeRewardRoundsStart",
      "outputs": [],
      "payable": false,
      "stateMutability": "nonpayable",
      "type": "function"
    },
    {
      "constant": true,
      "inputs": [],
      "name": "initialized",
      "outputs": [
        {
          "internalType": "bool",
          "name": "",
          "type": "bool"
        }
      ],
      "payable": false,
      "stateMutability": "view",
      "type": "function"
    },
    {
      "constant": true,
      "inputs": [],
      "name": "isContractStakeCalculated",
      "outputs": [
        {
          "internalType": "bool",
          "name": "",
          "type": "bool"
        }
      ],
      "payable": false,
      "stateMutability": "view",
      "type": "function"
    },
    {
      "constant": true,
      "inputs": [],
      "name": "lastRewardId",
      "outputs": [
        {
          "internalType": "uint256",
          "name": "",
          "type": "uint256"
        }
      ],
      "payable": false,
      "stateMutability": "view",
      "type": "function"
    },
    {
      "constant": true,
      "inputs": [],
      "name": "lastUnstakeRequestId",
      "outputs": [
        {
          "internalType": "uint256",
          "name": "",
          "type": "uint256"
        }
      ],
      "payable": false,
      "stateMutability": "view",
      "type": "function"
    },
    {
      "constant": true,
      "inputs": [],
      "name": "master",
      "outputs": [
        {
          "internalType": "contract INXMMaster",
          "name": "",
          "type": "address"
        }
      ],
      "payable": false,
      "stateMutability": "view",
      "type": "function"
    },
    {
      "constant": false,
      "inputs": [
        {
          "internalType": "uint256",
          "name": "maxIterations",
          "type": "uint256"
        }
      ],
      "name": "migrateRewardsToAccumulatedRewards",
      "outputs": [
        {
          "internalType": "bool",
          "name": "finished",
          "type": "bool"
        },
        {
          "internalType": "uint256",
          "name": "iterationsLeft",
          "type": "uint256"
        }
      ],
      "payable": false,
      "stateMutability": "nonpayable",
      "type": "function"
    },
    {
      "constant": false,
      "inputs": [
        {
          "internalType": "uint256",
          "name": "maxIterations",
          "type": "uint256"
        }
      ],
      "name": "processPendingActions",
      "outputs": [
        {
          "internalType": "bool",
          "name": "finished",
          "type": "bool"
        }
      ],
      "payable": false,
      "stateMutability": "nonpayable",
      "type": "function"
    },
    {
      "constant": false,
      "inputs": [
        {
          "internalType": "uint256",
          "name": "maxIterations",
          "type": "uint256"
        }
      ],
      "name": "processPendingActionsReturnLeft",
      "outputs": [
        {
          "internalType": "bool",
          "name": "finished",
          "type": "bool"
        },
        {
          "internalType": "uint256",
          "name": "iterationsLeft",
          "type": "uint256"
        }
      ],
      "payable": false,
      "stateMutability": "nonpayable",
      "type": "function"
    },
    {
      "constant": true,
      "inputs": [],
      "name": "processedToStakerIndex",
      "outputs": [
        {
          "internalType": "uint256",
          "name": "",
          "type": "uint256"
        }
      ],
      "payable": false,
      "stateMutability": "view",
      "type": "function"
    },
    {
      "constant": false,
      "inputs": [
        {
          "internalType": "address",
          "name": "contractAddress",
          "type": "address"
        },
        {
          "internalType": "uint256",
          "name": "amount",
          "type": "uint256"
        }
      ],
      "name": "pushBurn",
      "outputs": [],
      "payable": false,
      "stateMutability": "nonpayable",
      "type": "function"
    },
    {
      "constant": false,
      "inputs": [
        {
          "internalType": "address[]",
          "name": "contractAddresses",
          "type": "address[]"
        }
      ],
      "name": "pushRewards",
      "outputs": [],
      "payable": false,
      "stateMutability": "nonpayable",
      "type": "function"
    },
    {
      "constant": false,
      "inputs": [
        {
          "internalType": "address[]",
          "name": "_contracts",
          "type": "address[]"
        },
        {
          "internalType": "uint256[]",
          "name": "_amounts",
          "type": "uint256[]"
        },
        {
          "internalType": "uint256",
          "name": "_insertAfter",
          "type": "uint256"
        }
      ],
      "name": "requestUnstake",
      "outputs": [],
      "payable": false,
      "stateMutability": "nonpayable",
      "type": "function"
    },
    {
      "constant": true,
      "inputs": [
        {
          "internalType": "uint256",
          "name": "",
          "type": "uint256"
        }
      ],
      "name": "rewards",
      "outputs": [
        {
          "internalType": "uint256",
          "name": "amount",
          "type": "uint256"
        },
        {
          "internalType": "uint256",
          "name": "rewardedAt",
          "type": "uint256"
        },
        {
          "internalType": "address",
          "name": "contractAddress",
          "type": "address"
        }
      ],
      "payable": false,
      "stateMutability": "view",
      "type": "function"
    },
    {
      "constant": true,
      "inputs": [
        {
          "internalType": "address",
          "name": "staker",
          "type": "address"
        },
        {
          "internalType": "uint256",
          "name": "contractIndex",
          "type": "uint256"
        }
      ],
      "name": "stakerContractAtIndex",
      "outputs": [
        {
          "internalType": "address",
          "name": "",
          "type": "address"
        }
      ],
      "payable": false,
      "stateMutability": "view",
      "type": "function"
    },
    {
      "constant": true,
      "inputs": [
        {
          "internalType": "address",
          "name": "staker",
          "type": "address"
        }
      ],
      "name": "stakerContractCount",
      "outputs": [
        {
          "internalType": "uint256",
          "name": "",
          "type": "uint256"
        }
      ],
      "payable": false,
      "stateMutability": "view",
      "type": "function"
    },
    {
      "constant": true,
      "inputs": [
        {
          "internalType": "address",
          "name": "staker",
          "type": "address"
        },
        {
          "internalType": "address",
          "name": "contractAddress",
          "type": "address"
        }
      ],
      "name": "stakerContractPendingUnstakeTotal",
      "outputs": [
        {
          "internalType": "uint256",
          "name": "",
          "type": "uint256"
        }
      ],
      "payable": false,
      "stateMutability": "view",
      "type": "function"
    },
    {
      "constant": true,
      "inputs": [
        {
          "internalType": "address",
          "name": "staker",
          "type": "address"
        },
        {
          "internalType": "address",
          "name": "contractAddress",
          "type": "address"
        }
      ],
      "name": "stakerContractStake",
      "outputs": [
        {
          "internalType": "uint256",
          "name": "",
          "type": "uint256"
        }
      ],
      "payable": false,
      "stateMutability": "view",
      "type": "function"
    },
    {
      "constant": true,
      "inputs": [
        {
          "internalType": "address",
          "name": "staker",
          "type": "address"
        }
      ],
      "name": "stakerContractsArray",
      "outputs": [
        {
          "internalType": "address[]",
          "name": "",
          "type": "address[]"
        }
      ],
      "payable": false,
      "stateMutability": "view",
      "type": "function"
    },
    {
      "constant": true,
      "inputs": [
        {
          "internalType": "address",
          "name": "staker",
          "type": "address"
        }
      ],
      "name": "stakerDeposit",
      "outputs": [
        {
          "internalType": "uint256",
          "name": "",
          "type": "uint256"
        }
      ],
      "payable": false,
      "stateMutability": "view",
      "type": "function"
    },
    {
      "constant": true,
      "inputs": [
        {
          "internalType": "address",
          "name": "stakerAddress",
          "type": "address"
        }
      ],
      "name": "stakerMaxWithdrawable",
      "outputs": [
        {
          "internalType": "uint256",
          "name": "",
          "type": "uint256"
        }
      ],
      "payable": false,
      "stateMutability": "view",
      "type": "function"
    },
    {
      "constant": true,
      "inputs": [
        {
          "internalType": "address",
          "name": "staker",
          "type": "address"
        }
      ],
      "name": "stakerReward",
      "outputs": [
        {
          "internalType": "uint256",
          "name": "",
          "type": "uint256"
        }
      ],
      "payable": false,
      "stateMutability": "view",
      "type": "function"
    },
    {
      "constant": true,
      "inputs": [
        {
          "internalType": "address",
          "name": "",
          "type": "address"
        }
      ],
      "name": "stakers",
      "outputs": [
        {
          "internalType": "uint256",
          "name": "deposit",
          "type": "uint256"
        },
        {
          "internalType": "uint256",
          "name": "reward",
          "type": "uint256"
        }
      ],
      "payable": false,
      "stateMutability": "view",
      "type": "function"
    },
    {
      "constant": true,
      "inputs": [],
      "name": "token",
      "outputs": [
        {
          "internalType": "contract NXMToken",
          "name": "",
          "type": "address"
        }
      ],
      "payable": false,
      "stateMutability": "view",
      "type": "function"
    },
    {
      "constant": true,
      "inputs": [],
      "name": "tokenController",
      "outputs": [
        {
          "internalType": "contract TokenController",
          "name": "",
          "type": "address"
        }
      ],
      "payable": false,
      "stateMutability": "view",
      "type": "function"
    },
    {
      "constant": true,
      "inputs": [
        {
          "internalType": "uint256",
          "name": "unstakeRequestId",
          "type": "uint256"
        }
      ],
      "name": "unstakeRequestAtIndex",
      "outputs": [
        {
          "internalType": "uint256",
          "name": "amount",
          "type": "uint256"
        },
        {
          "internalType": "uint256",
          "name": "unstakeAt",
          "type": "uint256"
        },
        {
          "internalType": "address",
          "name": "contractAddress",
          "type": "address"
        },
        {
          "internalType": "address",
          "name": "stakerAddress",
          "type": "address"
        },
        {
          "internalType": "uint256",
          "name": "next",
          "type": "uint256"
        }
      ],
      "payable": false,
      "stateMutability": "view",
      "type": "function"
    },
    {
      "constant": true,
      "inputs": [
        {
          "internalType": "uint256",
          "name": "",
          "type": "uint256"
        }
      ],
      "name": "unstakeRequests",
      "outputs": [
        {
          "internalType": "uint256",
          "name": "amount",
          "type": "uint256"
        },
        {
          "internalType": "uint256",
          "name": "unstakeAt",
          "type": "uint256"
        },
        {
          "internalType": "address",
          "name": "contractAddress",
          "type": "address"
        },
        {
          "internalType": "address",
          "name": "stakerAddress",
          "type": "address"
        },
        {
          "internalType": "uint256",
          "name": "next",
          "type": "uint256"
        }
      ],
      "payable": false,
      "stateMutability": "view",
      "type": "function"
    },
    {
      "constant": false,
      "inputs": [
        {
          "internalType": "bytes8",
          "name": "code",
          "type": "bytes8"
        },
        {
          "internalType": "uint256",
          "name": "value",
          "type": "uint256"
        }
      ],
      "name": "updateUintParameters",
      "outputs": [],
      "payable": false,
      "stateMutability": "nonpayable",
      "type": "function"
    },
    {
      "constant": false,
      "inputs": [
        {
          "internalType": "uint256",
          "name": "amount",
          "type": "uint256"
        }
      ],
      "name": "withdraw",
      "outputs": [],
      "payable": false,
      "stateMutability": "nonpayable",
      "type": "function"
    },
    {
      "constant": false,
      "inputs": [
        {
          "internalType": "address",
          "name": "stakerAddress",
          "type": "address"
        }
      ],
      "name": "withdrawReward",
      "outputs": [],
      "payable": false,
      "stateMutability": "nonpayable",
      "type": "function"
    }
  ],
  "bytecode": "0x608060405234801561001057600080fd5b50614bce806100206000396000f3fe608060405234801561001057600080fd5b506004361061038e5760003560e01c8063908ad10a116101de578063d6b5b8521161010f578063f0f923c0116100ad578063f6ceefa21161007c578063f6ceefa214610ae5578063f87975af14610b53578063fc0c546a14610b70578063ff551c8414610b785761038e565b8063f0f923c014610a6e578063f2078db514610a9a578063f301af4214610ac0578063f52790bc14610add5761038e565b8063eae01718116100e9578063eae0171814610a04578063eddd9d8214610a32578063ee97f7f314610a3a578063ef30375d14610a425761038e565b8063d6b5b8521461097e578063e3bc92c0146109aa578063ead4d174146109fc5761038e565b8063abb215be1161017c578063c001472e11610156578063c001472e14610883578063c65cfd5214610948578063cb1c2b5c14610950578063d46655f4146109585761038e565b8063abb215be1461081a578063afd369fd14610837578063b86e321c1461085d5761038e565b80639c6f6e84116101b85780639c6f6e84146107c05780639dd86e0f146107c8578063a4cc380b146107f5578063a81d8010146107fd5761038e565b8063908ad10a1461078a5780639168ae72146107925780639abbed05146107b85761038e565b806334892cea116102c35780637272135a1161026157806375a7720f1161023057806375a7720f146106785780638129fc1c1461069e57806385b39d83146106a65780638e91e6bd146106cc5761038e565b80637272135a1461062157806372af29321461062957806373f273fc1461063157806374ff6b90146106705761038e565b80635840ee441161029d5780635840ee44146105215780635ce929761461059757806365f212f9146105cf57806368989a59146105f55761038e565b806334892cea1461049e57806339ac5eb9146104cc57806344df8e70146104f25761038e565b806316faaa8f1161033057806324f412541161030a57806324f4125414610469578063285ece4e146104715780632e1a7d4d146104795780632e23dc8f146104965761038e565b806316faaa8f146104515780631a839ba71461045957806322b1c296146104615761038e565b80631354839d1161036c5780631354839d146103dd578063158ef93e1461042557806315c5673c146104415780631694a36a146104495761038e565b80630ca6de03146103935780630ea474c7146103ad5780630ea9c984146103d3575b600080fd5b61039b610b95565b60408051918252519081900360200190f35b61039b600480360360208110156103c357600080fd5b50356001600160a01b0316610b9b565b6103db610bb9565b005b610409600480360360408110156103f357600080fd5b506001600160a01b038135169060200135610d0a565b604080516001600160a01b039092168252519081900360200190f35b61042d610d3f565b604080519115158252519081900360200190f35b61039b610d4f565b61039b610d55565b6103db610d5b565b61042d610dcc565b61042d610e22565b61039b610e4d565b61039b610e53565b6103db6004803603602081101561048f57600080fd5b5035610e59565b61039b61119f565b61039b600480360360408110156104b457600080fd5b506001600160a01b03813581169160200135166111a5565b61039b600480360360208110156104e257600080fd5b50356001600160a01b03166111d6565b6104fa6111f1565b6040805193845260208401929092526001600160a01b031682820152519081900360600190f35b6105476004803603602081101561053757600080fd5b50356001600160a01b0316611206565b60408051602080825283518183015283519192839290830191858101910280838360005b8381101561058357818101518382015260200161056b565b505050509050019250505060405180910390f35b6105b4600480360360208110156105ad57600080fd5b503561127f565b60408051921515835260208301919091528051918290030190f35b61039b600480360360208110156105e557600080fd5b50356001600160a01b03166114a3565b6103db6004803603604081101561060b57600080fd5b506001600160a01b038135169060200135611553565b61042d61180e565b61039b611816565b6106576004803603602081101561064757600080fd5b50356001600160a01b031661181c565b6040805192835260208301919091528051918290030190f35b61039b611835565b61039b6004803603602081101561068e57600080fd5b50356001600160a01b031661183f565b6103db61185d565b61039b600480360360208110156106bc57600080fd5b50356001600160a01b0316611935565b6103db600480360360608110156106e257600080fd5b810190602081018135600160201b8111156106fc57600080fd5b82018360208201111561070e57600080fd5b803590602001918460208302840111600160201b8311171561072f57600080fd5b919390929091602081019035600160201b81111561074c57600080fd5b82018360208201111561075e57600080fd5b803590602001918460208302840111600160201b8311171561077f57600080fd5b919350915035611950565b61039b61203e565b610657600480360360208110156107a857600080fd5b50356001600160a01b0316612044565b61039b61205d565b61039b612063565b6103db600480360360408110156107de57600080fd5b506001600160c01b03198135169060200135612069565b61042d6121b7565b6105b46004803603602081101561081357600080fd5b50356121d1565b6105b46004803603602081101561083057600080fd5b50356124cd565b61039b6004803603602081101561084d57600080fd5b50356001600160a01b03166125e5565b6103db6004803603602081101561087357600080fd5b50356001600160a01b03166126cd565b6103db6004803603606081101561089957600080fd5b81359190810190604081016020820135600160201b8111156108ba57600080fd5b8201836020820111156108cc57600080fd5b803590602001918460208302840111600160201b831117156108ed57600080fd5b919390929091602081019035600160201b81111561090a57600080fd5b82018360208201111561091c57600080fd5b803590602001918460208302840111600160201b8311171561093d57600080fd5b5090925090506128b7565b61039b61319c565b61039b6131a2565b6103db6004803603602081101561096e57600080fd5b50356001600160a01b03166131a8565b6104096004803603604081101561099457600080fd5b506001600160a01b038135169060200135613227565b6109c7600480360360208110156109c057600080fd5b5035613267565b6040805195865260208601949094526001600160a01b0392831685850152911660608401526080830152519081900360a00190f35b61042d6132a1565b61039b60048036036040811015610a1a57600080fd5b506001600160a01b03813581169160200135166132aa565b6104096132f2565b610409613301565b61040960048036036040811015610a5857600080fd5b506001600160a01b038135169060200135613310565b6103db60048036036040811015610a8457600080fd5b506001600160a01b038135169060200135613337565b61054760048036036020811015610ab057600080fd5b50356001600160a01b03166135bf565b6104fa60048036036020811015610ad657600080fd5b5035613633565b61039b61365d565b6103db60048036036020811015610afb57600080fd5b810190602081018135600160201b811115610b1557600080fd5b820183602082011115610b2757600080fd5b803590602001918460208302840111600160201b83111715610b4857600080fd5b509092509050613663565b6109c760048036036020811015610b6957600080fd5b50356137a9565b6104096137e5565b61042d60048036036020811015610b8e57600080fd5b50356137f4565b60055481565b6001600160a01b031660009081526007602052604090206001015490565b6000809054906101000a90046001600160a01b03166001600160a01b0316639d76ea586040518163ffffffff1660e01b815260040160206040518083038186803b158015610c0657600080fd5b505afa158015610c1a573d6000803e3d6000fd5b505050506040513d6020811015610c3057600080fd5b5051600180546001600160a01b0319166001600160a01b03928316179055600054604080516227050b60e31b815261544360f01b6004820152905191909216916301382858916024808301926020929190829003018186803b158015610c9557600080fd5b505afa158015610ca9573d6000803e3d6000fd5b505050506040513d6020811015610cbf57600080fd5b5051600280546001600160a01b0319166001600160a01b03909216919091179055600054600160a01b900460ff16610cf957610cf961185d565b601854610d0857610d08610d5b565b565b600b6020528160005260406000208181548110610d2357fe5b6000918252602090912001546001600160a01b03169150829050565b600054600160a01b900460ff1681565b60145481565b60185481565b60185415610d9a5760405162461bcd60e51b815260040180806020018281038252602781526020018061492c6027913960400191505060405180910390fd5b635f5f311060185562093a806017556040516000908060336148f9823960405190819003603301902060115490555050565b600080805260126020527f7e7fa33969761a458e04f477e039a608702b4f924981d6653935a8319a08ad7f5480610e07576000915050610e1f565b60009081526012602052604090206001015442101590505b90565b6000610e2c61180e565b80610e3a5750610e3a610dcc565b80610e485750610e486121b7565b905090565b60045481565b60175481565b6000809054906101000a90046001600160a01b03166001600160a01b031663ff0938a76040518163ffffffff1660e01b815260040160206040518083038186803b158015610ea657600080fd5b505afa158015610eba573d6000803e3d6000fd5b505050506040513d6020811015610ed057600080fd5b505115610f17576040805162461bcd60e51b815260206004820152601060248201526f14de5cdd195b481a5cc81c185d5cd95960821b604482015290519081900360640190fd5b600054600160a01b900460ff16610f63576040805162461bcd60e51b815260206004820152601b6024820152600080516020614a86833981519152604482015290519081900360640190fd5b6000546040805163288c314960e21b815233600482015290516001600160a01b039092169163a230c52491602480820192602092909190829003018186803b158015610fae57600080fd5b505afa158015610fc2573d6000803e3d6000fd5b505050506040513d6020811015610fd857600080fd5b5051611024576040805162461bcd60e51b815260206004820152601660248201527521b0b63632b91034b9903737ba10309036b2b6b132b960511b604482015290519081900360640190fd5b61102c61180e565b156110685760405162461bcd60e51b81526004018080602001828103825260308152602001806147526030913960400191505060405180910390fd5b6000611073336125e5565b9050818110156110b45760405162461bcd60e51b81526004018080602001828103825260308152602001806148606030913960400191505060405180910390fd5b336000908152600760205260409020546110d4908363ffffffff61391016565b33600081815260076020908152604080832094909455600154845163a9059cbb60e01b815260048101949094526024840187905293516001600160a01b039094169363a9059cbb93604480820194918390030190829087803b15801561113957600080fd5b505af115801561114d573d6000803e3d6000fd5b505050506040513d602081101561116357600080fd5b505060408051838152905133917f7084f5476618d8e60b11ef0d7d3f06914655adb8793e28ff7f018d4c76d505d5919081900360200190a25050565b60105481565b6001600160a01b03808316600090815260076020908152604080832093851683526004909301905220545b92915050565b6001600160a01b031660009081526007602052604090205490565b600c54600d54600e546001600160a01b031683565b6001600160a01b03811660009081526007602090815260409182902060020180548351818402810184019094528084526060939283018282801561127357602002820191906000526020600020905b81546001600160a01b03168152600190910190602001808311611255575b50505050509050919050565b600080601054600014156112cf576040805162461bcd60e51b81526020600482015260126024820152714e6f7468696e6720746f206d69677261746560701b604482015290519081900360640190fd5b60008060405180806148f96033913960330190506040518091039020905080549150816010541115611348576040805162461bcd60e51b815260206004820152601a60248201527f4578636565646564206c617374206d6967726174696f6e206964000000000000604482015290519081900360640190fd5b8492505b8315801561135a5750600083115b1561144b576010546000908152600f6020908152604080832060028101546001600160a01b03168452601690925290912081548154600019909601956113a59163ffffffff61395916565b81556002820154825460408051918252516001600160a01b03909216917fac24935fd910bc682b5ccb1a07b718cadf8cf2f6d1404c4f3ddc3662dae40e299181900360200190a2601080546000908152600f6020526040812081815560018082019290925560020180546001600160a01b03191690558154019081905584101561142e57600195505b6011546010541115611444576000601055600195505b505061134c565b831561145657600081555b6010546040805186151581526020810192909252818101859052517f26428374401ca9c5de60f1a0ec5c8be7450ddc4f9ce9731bbae77d3c40e77cf39181900360600190a150505b915091565b6001600160a01b0381166000908152600b60205260408120805482805b8281101561154a576000600760008684815481106114da57fe5b60009182526020808320909101546001600160a01b03908116845283820194909452604092830182208054948c16835260038101909152919020549092508082106115255780611527565b815b9050611539858263ffffffff61395916565b945050600190920191506114c09050565b50949350505050565b600054604080516323c5b10760e21b815233600482015290516001600160a01b0390921691638f16c41c91602480820192602092909190829003018186803b15801561159e57600080fd5b505afa1580156115b2573d6000803e3d6000fd5b505050506040513d60208110156115c857600080fd5b50516116055760405162461bcd60e51b8152600401808060200182810382526022815260200180614a646022913960400191505060405180910390fd5b6000809054906101000a90046001600160a01b03166001600160a01b031663ff0938a76040518163ffffffff1660e01b815260040160206040518083038186803b15801561165257600080fd5b505afa158015611666573d6000803e3d6000fd5b505050506040513d602081101561167c57600080fd5b5051156116c3576040805162461bcd60e51b815260206004820152601060248201526f14de5cdd195b481a5cc81c185d5cd95960821b604482015290519081900360640190fd5b600054600160a01b900460ff1661170f576040805162461bcd60e51b815260206004820152601b6024820152600080516020614a86833981519152604482015290519081900360640190fd5b61171761180e565b156117535760405162461bcd60e51b81526004018080602001828103825260308152602001806147526030913960400191505060405180910390fd5b60408051600180825281830190925260609160208083019080388339019050509050828160008151811061178357fe5b60200260200101906001600160a01b031690816001600160a01b0316815250506117ae8160016139b3565b600c82905542600d55600e80546001600160a01b0385166001600160a01b031990911681179091556040805184815290517f5d06931c8dc69a16ea07030839ba70d3794cbda4dc0e16718165f9054db87a5a9181900360200190a2505050565b600d54151590565b60135481565b6016602052600090815260409020805460019091015482565b6000610e48613b27565b6001600160a01b031660009081526007602052604090206002015490565b600054600160a01b900460ff16156118bc576040805162461bcd60e51b815260206004820152601f60248201527f436f6e747261637420697320616c726561647920696e697469616c697a656400604482015290519081900360640190fd5b6002546040805163e43252d760e01b815230600482015290516001600160a01b039092169163e43252d79160248082019260009290919082900301818387803b15801561190857600080fd5b505af115801561191c573d6000803e3d6000fd5b50506000805460ff60a01b1916600160a01b1790555050565b6001600160a01b03166000908152600b602052604090205490565b6000809054906101000a90046001600160a01b03166001600160a01b031663ff0938a76040518163ffffffff1660e01b815260040160206040518083038186803b15801561199d57600080fd5b505afa1580156119b1573d6000803e3d6000fd5b505050506040513d60208110156119c757600080fd5b505115611a0e576040805162461bcd60e51b815260206004820152601060248201526f14de5cdd195b481a5cc81c185d5cd95960821b604482015290519081900360640190fd5b600054600160a01b900460ff16611a5a576040805162461bcd60e51b815260206004820152601b6024820152600080516020614a86833981519152604482015290519081900360640190fd5b6000546040805163288c314960e21b815233600482015290516001600160a01b039092169163a230c52491602480820192602092909190829003018186803b158015611aa557600080fd5b505afa158015611ab9573d6000803e3d6000fd5b505050506040513d6020811015611acf57600080fd5b5051611b1b576040805162461bcd60e51b815260206004820152601660248201527521b0b63632b91034b9903737ba10309036b2b6b132b960511b604482015290519081900360640190fd5b838214611b595760405162461bcd60e51b81526004018080602001828103825260388152602001806148286038913960400191505060405180910390fd5b601354811115611b9a5760405162461bcd60e51b81526004018080602001828103825260238152602001806148906023913960400191505060405180910390fd5b336000908152600760205260408120805460065491929091849190611bc690429063ffffffff61395916565b60008381526012602052604090209091508215611c1d576001810154611c1d5760405162461bcd60e51b8152600401808060200182810382526037815260200180614a0b6037913960400191505060405180910390fd5b60005b898110156120315760008b8b83818110611c3657fe5b602090810292909201356001600160a01b0316600081815260038b019093526040909220549192505086811115611c6a5750855b6001600160a01b0382166000908152600489016020526040812054908c8c86818110611c9257fe5b9050602002013590506000838311611cb957611cb4848463ffffffff61391016565b611cbc565b60005b905060008111611cfd5760405162461bcd60e51b81526004018080602001828103825260238152602001806148d66023913960400191505060405180910390fd5b80821115611d52576040805162461bcd60e51b815260206004820152601f60248201527f43616e6e6f7420756e7374616b65206d6f7265207468616e207374616b656400604482015290519081900360640190fd5b808214611dea57600554821015611d9a5760405162461bcd60e51b815260040180806020018281038252603a8152602001806149d1603a913960400191505060405180910390fd5b600354611dad828463ffffffff61391016565b1015611dea5760405162461bcd60e51b815260040180806020018281038252603a815260200180614b18603a913960400191505060405180910390fd5b8660010154881015611e2d5760405162461bcd60e51b8152600401808060200182810382526049815260200180614acf6049913960600191505060405180910390fd5b600487015415611e8e576004870154600090815260126020526040902060018101548910611e8c5760405162461bcd60e51b81526004018080602001828103825260478152602001806147af6047913960600191505060405180910390fd5b505b60136000815460010191905081905598506040518060a00160405280838152602001898152602001866001600160a01b03168152602001336001600160a01b031681526020018860040154815250601260008b8152602001908152602001600020600082015181600001556020820151816001015560408201518160020160006101000a8154816001600160a01b0302191690836001600160a01b0316021790555060608201518160030160006101000a8154816001600160a01b0302191690836001600160a01b0316021790555060808201518160040155905050888760040181905550336001600160a01b0316856001600160a01b03167ffe07ce9fff39f8420b3de5fbc6909ce08f809e2572b62f9df35c25f56d610bb0848b604051808381526020018281526020019250505060405180910390a36001600160a01b038516600090815260048c016020526040812054611ff1908463ffffffff61395916565b6001600160a01b03909616600090815260048d0160209081526040808320989098558b8252601290529590952096505060019094019350611c2092505050565b5050505050505050505050565b60065481565b6007602052600090815260409020805460019091015482565b600a5481565b60095481565b60005460408051632c1a733d60e11b815233600482015290516001600160a01b0390921691635834e67a91602480820192602092909190829003018186803b1580156120b457600080fd5b505afa1580156120c8573d6000803e3d6000fd5b505050506040513d60208110156120de57600080fd5b505161211b5760405162461bcd60e51b8152600401808060200182810382526022815260200180614a426022913960400191505060405180910390fd5b674d494e5f5354414b60c01b6001600160c01b0319831614156121425760038190556121b3565b674d41585f4558504f60c01b6001600160c01b0319831614156121695760048190556121b3565b6713525397d55394d560c21b6001600160c01b0319831614156121905760058190556121b3565b67155394d517d312d560c21b6001600160c01b0319831614156121b35760068190555b5050565b6010546000908152600f6020526040902060010154151590565b6000805460408051600162f6c75960e01b03198152905183926001600160a01b03169163ff0938a7916004808301926020929190829003018186803b15801561221957600080fd5b505afa15801561222d573d6000803e3d6000fd5b505050506040513d602081101561224357600080fd5b50511561228a576040805162461bcd60e51b815260206004820152601060248201526f14de5cdd195b481a5cc81c185d5cd95960821b604482015290519081900360640190fd5b600054600160a01b900460ff166122d6576040805162461bcd60e51b815260206004820152601b6024820152600080516020614a86833981519152604482015290519081900360640190fd5b50815b601260209081527f7e7fa33969761a458e04f477e039a608702b4f924981d6653935a8319a08ad7f54600081815260408082206010548352600f9094528120600d5460018083015490860154949594929391929091861580159061233d5750428211155b601054909150841580159115159082612354575082155b801561235e575080155b1561237157505050505050505050612490565b818015612385575082158061238557508386105b8015612398575080158061239857508486105b15612405576123a68a613b90565b909b5099508a6123f757604080516000815290517ff3b343b97db20514b20b9c54105a005716230e231e9bf5d180b1a0dfe6e4fb8a9181900360200190a1506000995061149e975050505050505050565b5050505050505050506122d9565b828015612419575080158061241957508484105b15612487578961246a57604080516000815290517ff3b343b97db20514b20b9c54105a005716230e231e9bf5d180b1a0dfe6e4fb8a9181900360200190a1506000995061149e975050505050505050565b612472613e57565b896001900399505050505050505050506122d9565b6123a68a61403c565b604080516001815290517ff3b343b97db20514b20b9c54105a005716230e231e9bf5d180b1a0dfe6e4fb8a9181900360200190a160019150915091565b6000805460408051600162f6c75960e01b03198152905183926001600160a01b03169163ff0938a7916004808301926020929190829003018186803b15801561251557600080fd5b505afa158015612529573d6000803e3d6000fd5b505050506040513d602081101561253f57600080fd5b505115612586576040805162461bcd60e51b815260206004820152601060248201526f14de5cdd195b481a5cc81c185d5cd95960821b604482015290519081900360640190fd5b600054600160a01b900460ff166125d2576040805162461bcd60e51b815260206004820152601b6024820152600080516020614a86833981519152604482015290519081900360640190fd5b6125db836121d1565b9094909350915050565b6001600160a01b038116600090815260076020526040812080548280805b600285015481101561268457600085600201828154811061262057fe5b60009182526020808320909101546001600160a01b0316808352600389019091526040822054909250908187106126575781612659565b865b905061266b868263ffffffff61395916565b955084811115612679578094505b505050600101612603565b50600061269c6004548461432d90919063ffffffff16565b905060008183116126ad57816126af565b825b90506126c1858263ffffffff61391016565b98975050505050505050565b6000809054906101000a90046001600160a01b03166001600160a01b031663ff0938a76040518163ffffffff1660e01b815260040160206040518083038186803b15801561271a57600080fd5b505afa15801561272e573d6000803e3d6000fd5b505050506040513d602081101561274457600080fd5b50511561278b576040805162461bcd60e51b815260206004820152601060248201526f14de5cdd195b481a5cc81c185d5cd95960821b604482015290519081900360640190fd5b600054600160a01b900460ff166127d7576040805162461bcd60e51b815260206004820152601b6024820152600080516020614a86833981519152604482015290519081900360640190fd5b6001600160a01b03808216600081815260076020908152604080832060019081018054908590559054825163a9059cbb60e01b815260048101969096526024860182905291519095919091169363a9059cbb9360448083019493928390030190829087803b15801561284857600080fd5b505af115801561285c573d6000803e3d6000fd5b505050506040513d602081101561287257600080fd5b50506040805182815290516001600160a01b038416917f1d3eee4ca001cff39eec6ec7615aacf2f2bd61791273830728ba00ccbd6e1337919081900360200190a25050565b6000809054906101000a90046001600160a01b03166001600160a01b031663ff0938a76040518163ffffffff1660e01b815260040160206040518083038186803b15801561290457600080fd5b505afa158015612918573d6000803e3d6000fd5b505050506040513d602081101561292e57600080fd5b505115612975576040805162461bcd60e51b815260206004820152601060248201526f14de5cdd195b481a5cc81c185d5cd95960821b604482015290519081900360640190fd5b600054600160a01b900460ff166129c1576040805162461bcd60e51b815260206004820152601b6024820152600080516020614a86833981519152604482015290519081900360640190fd5b6000546040805163288c314960e21b815233600482015290516001600160a01b039092169163a230c52491602480820192602092909190829003018186803b158015612a0c57600080fd5b505afa158015612a20573d6000803e3d6000fd5b505050506040513d6020811015612a3657600080fd5b5051612a82576040805162461bcd60e51b815260206004820152601660248201527521b0b63632b91034b9903737ba10309036b2b6b132b960511b604482015290519081900360640190fd5b612a8a610e22565b15612ac65760405162461bcd60e51b81526004018080602001828103825260328152602001806147f66032913960400191505060405180910390fd5b336000908152600760205260409020600281015480851015612b195760405162461bcd60e51b8152600401808060200182810382526029815260200180614aa66029913960400191505060405180910390fd5b848314612b575760405162461bcd60e51b815260040180806020018281038252603781526020018061499a6037913960400191505060405180910390fd5b815460009081612b6d828b63ffffffff61395916565b80865560025460408051630d1af10360e01b8152336004820152306024820152604481018e905290519293506001600160a01b0390911691630d1af103916064808201926020929091908290030181600087803b158015612bcd57600080fd5b505af1158015612be1573d6000803e3d6000fd5b505050506040513d6020811015612bf757600080fd5b50600090505b888110156130295760008a8a83818110612c1357fe5b905060200201356001600160a01b0316905060008090505b82811015612ca757816001600160a01b03168c8c83818110612c4957fe5b905060200201356001600160a01b03166001600160a01b03161415612c9f5760405162461bcd60e51b815260040180806020018281038252602d815260200180614782602d913960400191505060405180910390fd5b600101612c2b565b506001600160a01b038116600090815260038801602052604081205490818610612cd15781612cd3565b855b905060008b8b86818110612ce357fe5b60200291909101359150508885101580612db5578a6002018681548110612d0657fe5b6000918252602090912001546001600160a01b03868116911614612d71576040805162461bcd60e51b815260206004820152601960248201527f556e657870656374656420636f6e7472616374206f7264657200000000000000604482015290519081900360640190fd5b81831115612db05760405162461bcd60e51b8152600401808060200182810382526025815260200180614b526025913960400191505060405180910390fd5b612e25565b60008211612df45760405162461bcd60e51b81526004018080602001828103825260238152602001806148b36023913960400191505060405180910390fd5b60028b018054600181018255600091825260209091200180546001600160a01b0319166001600160a01b0387161790555b81831415612e6e57818414612e52576001600160a01b038516600090815260038c01602052604090208290555b612e62898363ffffffff61395916565b98505050505050613021565b600354821015612ec5576040805162461bcd60e51b815260206004820152601c60248201527f4d696e696d756d207374616b6520616d6f756e74206e6f74206d657400000000604482015290519081900360640190fd5b86821115612f1a576040805162461bcd60e51b815260206004820181905260248201527f43616e6e6f74207374616b65206d6f7265207468616e206465706f7369746564604482015290519081900360640190fd5b8080612f4157506001600160a01b038516600090815260058c01602052604090205460ff16155b15612f95576001600160a01b038516600090815260058c0160209081526040808320805460ff19166001908117909155600b835290832080549182018155835291200180546001600160a01b031916331790555b6001600160a01b038516600090815260038c0160205260409020829055612fc2898363ffffffff61395916565b98506000612fd6838563ffffffff61391016565b60408051828152905191925033916001600160a01b038916917f5dac0c1b1112564a045ba943c9d50270893e8e826c49be8e7073adc713ab7bd7919081900360200190a35050505050505b600101612bfd565b50600454855461303e9163ffffffff61436f16565b83111561307c5760405162461bcd60e51b8152600401808060200182810382526023815260200180614b776023913960400191505060405180910390fd5b89156130b957604080518b8152905133917f2da466a7b24304f47e87fa2e1e5a81b9831ce54fec19055ce277ca2f39ba42c4919081900360200190a25b6000198801845b801561318e578888600183038181106130d557fe5b9050602002013560001415613185578660020182815481106130f357fe5b6000918252602090912001546002880180546001600160a01b0390921691600019840190811061311f57fe5b9060005260206000200160006101000a8154816001600160a01b0302191690836001600160a01b031602179055508660020180548061315a57fe5b600082815260209020810160001990810180546001600160a01b031916905590810190915591909101905b600019016130c0565b505050505050505050505050565b60085481565b60035481565b6000546001600160a01b031615613205576000546001600160a01b03163314613205576040805162461bcd60e51b815260206004820152600a6024820152692737ba1036b0b9ba32b960b11b604482015290519081900360640190fd5b600080546001600160a01b0319166001600160a01b0392909216919091179055565b6001600160a01b0382166000908152600b6020526040812080548390811061324b57fe5b6000918252602090912001546001600160a01b03169392505050565b60009081526012602052604090208054600182015460028301546003840154600490940154929491936001600160a01b0391821693911691565b60155460ff1681565b6001600160a01b03808316600081815260076020818152604080842095871684526003860182528320549383525291548082106132e757806132e9565b815b95945050505050565b6002546001600160a01b031681565b6000546001600160a01b031681565b6001600160a01b038216600090815260076020526040812060020180548390811061324b57fe5b600054604080516323c5b10760e21b815233600482015290516001600160a01b0390921691638f16c41c91602480820192602092909190829003018186803b15801561338257600080fd5b505afa158015613396573d6000803e3d6000fd5b505050506040513d60208110156133ac57600080fd5b50516133e95760405162461bcd60e51b8152600401808060200182810382526022815260200180614a646022913960400191505060405180910390fd5b6000809054906101000a90046001600160a01b03166001600160a01b031663ff0938a76040518163ffffffff1660e01b815260040160206040518083038186803b15801561343657600080fd5b505afa15801561344a573d6000803e3d6000fd5b505050506040513d602081101561346057600080fd5b5051156134a7576040805162461bcd60e51b815260206004820152601060248201526f14de5cdd195b481a5cc81c185d5cd95960821b604482015290519081900360640190fd5b600054600160a01b900460ff166134f3576040805162461bcd60e51b815260206004820152601b6024820152600080516020614a86833981519152604482015290519081900360640190fd5b60408051600180825281830190925260609160208083019080388339019050509050828160008151811061352357fe5b60200260200101906001600160a01b031690816001600160a01b03168152505061354e8160006139b3565b6001600160a01b03831660009081526016602052604090208054613578908463ffffffff61395916565b81556040805184815290516001600160a01b038616917fac24935fd910bc682b5ccb1a07b718cadf8cf2f6d1404c4f3ddc3662dae40e29919081900360200190a250505050565b6001600160a01b0381166000908152600b6020908152604091829020805483518184028101840190945280845260609392830182828015611273576020028201919060005260206000209081546001600160a01b031681526001909101906020018083116112555750505050509050919050565b600f602052600090815260409020805460018201546002909201549091906001600160a01b031683565b60115481565b6000809054906101000a90046001600160a01b03166001600160a01b031663ff0938a76040518163ffffffff1660e01b815260040160206040518083038186803b1580156136b057600080fd5b505afa1580156136c4573d6000803e3d6000fd5b505050506040513d60208110156136da57600080fd5b505115613721576040805162461bcd60e51b815260206004820152601060248201526f14de5cdd195b481a5cc81c185d5cd95960821b604482015290519081900360640190fd5b600054600160a01b900460ff1661376d576040805162461bcd60e51b815260206004820152601b6024820152600080516020614a86833981519152604482015290519081900360640190fd5b6121b3828280806020026020016040519081016040528093929190818152602001838360200280828437600092018290525092506139b3915050565b60126020526000908152604090208054600182015460028301546003840154600490940154929391926001600160a01b03918216929091169085565b6001546001600160a01b031681565b60008060009054906101000a90046001600160a01b03166001600160a01b031663ff0938a76040518163ffffffff1660e01b815260040160206040518083038186803b15801561384357600080fd5b505afa158015613857573d6000803e3d6000fd5b505050506040513d602081101561386d57600080fd5b5051156138b4576040805162461bcd60e51b815260206004820152601060248201526f14de5cdd195b481a5cc81c185d5cd95960821b604482015290519081900360640190fd5b600054600160a01b900460ff16613900576040805162461bcd60e51b815260206004820152601b6024820152600080516020614a86833981519152604482015290519081900360640190fd5b613909826121d1565b5092915050565b600061395283836040518060400160405280601e81526020017f536166654d6174683a207375627472616374696f6e206f766572666c6f7700008152506143c8565b9392505050565b600082820183811015613952576040805162461bcd60e51b815260206004820152601b60248201527f536166654d6174683a206164646974696f6e206f766572666c6f770000000000604482015290519081900360640190fd5b60006139bd613b27565b6011549091506000805b8551811015613b135760008682815181106139de57fe5b6020908102919091018101516001600160a01b03811660009081526016909252604082206001810154815492945090929091908115801590613a2657508980613a2657508289115b905080613a4657888314613a3c57600184018990555b5050505050613b0b565b604080516060810182528381524260208083019182526001600160a01b0389811684860181815260019e8f016000818152600f86528890209651875594519e86019e909e559c51600290940180546001600160a01b031916949091169390931790925582518581529251909a927f5f5b850fcbd0c09e2b8624b44902a5be89312011ae945e14bc73514fb719891e92908290030190a26000845560018085018a90559687019687148015613afa5750601054155b15613b055760108890555b50505050505b6001016139c7565b508015613b205760118290555b5050505050565b6017546018546000919080613b6d5760405162461bcd60e51b81526004018080602001828103825260268152602001806149746026913960400191505060405180910390fd5b80421115613b86578181420381613b8057fe5b04613b89565b60005b9250505090565b600e5460009082906001600160a01b031682613bac828461445f565b9095509350905083613bc457506000925061149e9050565b6001600160a01b0382166000908152600b602052604090208054600c5460095484821115613bf0578491505b6014545b83811015613d5a5787613c1957600991909155601455506000955061149e9350505050565b87600190039750600060076000878481548110613c3257fe5b60009182526020808320909101546001600160a01b031683528201929092526040018120915080613c65838b8b8961457c565b9092509050613c7a858363ffffffff61395916565b94508015613c8a57505050613d52565b6001600160a01b038a1660009081526005840160205260409020805460ff19169055875488906000198901908110613cbe57fe5b9060005260206000200160009054906101000a90046001600160a01b0316888581548110613ce857fe5b9060005260206000200160006101000a8154816001600160a01b0302191690836001600160a01b0316021790555087805480613d2057fe5b600082815260209020810160001990810180546001600160a01b03191690559081019091559687019693909301925050505b600101613bf4565b506000600c819055600d819055600e80546001600160a01b0319169055600981905560148190556015805460ff1916905560015460408051630852cd8d60e31b81526004810185905290516001600160a01b03909216926342966c68926024808401936020939083900390910190829087803b158015613dd957600080fd5b505af1158015613ded573d6000803e3d6000fd5b505050506040513d6020811015613e0357600080fd5b5050604080518281526020810187905281516001600160a01b038916927f23ff0e75edf108e3d0392d92e13e8c8a868ef19001bd49f9e94876dc46dff87f928290030190a250600196505050505050915091565b601260209081527f7e7fa33969761a458e04f477e039a608702b4f924981d6653935a8319a08ad7f54600081815260408082206003808201546001600160a01b03908116808652600788528486206002850154815493168088529381019098529385205495969295939492939192909190818310613ed55781613ed7565b825b87549091506000818310613eeb5781613eed565b825b9050613eff838263ffffffff61391016565b6001600160a01b038716600090815260038901602090815260408083209390935560048a0190522054613f38818463ffffffff61391016565b886004016000896001600160a01b03166001600160a01b031681526020019081526020016000208190555089600401546012600080815260200190815260200160002060040181905550601260008c815260200190815260200160002060008082016000905560018201600090556002820160006101000a8154906001600160a01b0302191690556003820160006101000a8154906001600160a01b03021916905560048201600090555050886001600160a01b0316876001600160a01b03167fd8654fcc8cf5b36d30b3f5e4688fc78118e6d68de60b9994e09902268b57c3e3856040518082815260200191505060405180910390a35050505050505050505050565b6010546000908152600f60205260408120600281015481548492916001600160a01b0316908461406c838661445f565b909750955090508561408657506000945061149e92505050565b6001600160a01b0383166000908152600b602052604090208054600a546014545b8281101561420e57886140cd57600a91909155601455506000965061149e945050505050565b8860019003985060008482815481106140e257fe5b60009182526020822001546001600160a01b0316915080614105838b8b8b614638565b9150915080600014156141f0576001600160a01b038084166000908152600760209081526040808320938e168352600584019091529020805460ff1916905587548890600019890190811061415657fe5b9060005260206000200160009054906101000a90046001600160a01b031688868154811061418057fe5b9060005260206000200160006101000a8154816001600160a01b0302191690836001600160a01b03160217905550878054806141b857fe5b600082815260209020810160001990810180546001600160a01b03191690559081019091559687019694909401935061420692505050565b614200858363ffffffff61395916565b94505050505b6001016140a7565b50601080546000908152600f602052604081208181556001808201839055600290910180546001600160a01b0319169055600a8290556014919091556015805460ff19169055601154825490910191829055101561426c5760006010555b600254604080516340c10f1960e01b81523060048201526024810184905290516001600160a01b03909216916340c10f199160448082019260009290919082900301818387803b1580156142bf57600080fd5b505af11580156142d3573d6000803e3d6000fd5b5050604080518481526020810188905281516001600160a01b038b1694507f291e8ba3c0f4b0bd86e6e2346fcee1e7ca0975b1cc1886bfbc722d34f3f24d9193509081900390910190a25060019750505050505050915091565b600061395283836040518060400160405280601a81526020017f536166654d6174683a206469766973696f6e206279207a65726f0000000000008152506146ec565b60008261437e575060006111d0565b8282028284828161438b57fe5b04146139525760405162461bcd60e51b81526004018080602001828103825260218152602001806149536021913960400191505060405180910390fd5b600081848411156144575760405162461bcd60e51b81526004018080602001828103825283818151815260200191508051906020019080838360005b8381101561441c578181015183820152602001614404565b50505050905090810190601f1680156144495780820380516001836020036101000a031916815260200191505b509250505060405180910390fd5b505050900390565b6015546000908190839060ff161561447f57600854925060019150614575565b6001600160a01b0385166000908152600b60205260409020805460145480156144a85760085495505b805b8281101561455457846144cb57601455505050600883905560009150614575565b846001900394506000600760008684815481106144e457fe5b60009182526020808320909101546001600160a01b03908116845283820194909452604092830182208054948f168352600381019091529190205490925080821061452f5780614531565b815b90506145438a8263ffffffff61395916565b995050600190920191506144aa9050565b5050506008849055506015805460ff19166001908117909155600060145591505b9250925092565b600080808085156145b157505085546001600160a01b0386166000908152600388016020526040902054818111156145b15750805b8486146145f1576145d8866145cc838863ffffffff61436f16565b9063ffffffff61432d16565b93506145ea818563ffffffff61391016565b92506145f5565b8093505b831561460e5761460b828563ffffffff61391016565b88555b50506001600160a01b03909416600090815260039095016020526040909420839055509192909150565b6001600160a01b0380851660009081526007602090815260408083208054948816845260038101909252822054919280831115614673578092505b84158061467e575082155b156146ac57506001600160a01b038616600090815260039091016020526040812081905591508190506146e3565b6146c0856145cc888663ffffffff61436f16565b60018301549094506146d8908563ffffffff61395916565b826001018190555050505b94509492505050565b6000818361473b5760405162461bcd60e51b815260206004820181815283516024840152835190928392604490910191908501908083836000831561441c578181015183820152602001614404565b50600083858161474757fe5b049594505050505056fe556e61626c6520746f20657865637574652072657175657374207769746820756e70726f636573736564206275726e73436f6e7472616374732061727261792073686f756c64206e6f7420636f6e7461696e206475706c6963617465734e65787420756e7374616b6520726571756573742074696d65206d7573742062652067726561746572207468616e206e657720756e7374616b6520726571756573742074696d65556e61626c6520746f20657865637574652072657175657374207769746820756e70726f63657373656420616374696f6e73436f6e74726163747320616e6420616d6f756e7473206172726179732073686f756c642068617665207468652073616d65206c656e67746852657175657374656420616d6f756e742065786365656473206d617820776974686472617761626c6520616d6f756e74496e76616c696420756e7374616b6520726571756573742069642070726f76696465644e6577207374616b65732073686f756c642062652067726561746572207468616e20304e6f7468696e6720746f20756e7374616b65206f6e207468697320636f6e74726163746e657875736d757475616c2e706f6f6c65647374616b696e672e4d4947524154494f4e5f4c4153545f49445f504f494e5445525245574152445f524f554e44535f535441525420616c726561647920696e697469616c697a6564536166654d6174683a206d756c7469706c69636174696f6e206f766572666c6f775245574152445f524f554e44535f5354415254206973206e6f7420696e697469616c697a6564436f6e74726163747320616e64207374616b6573206172726179732073686f756c642068617665207468652073616d65206c656e677468556e7374616b656420616d6f756e742063616e6e6f74206265206c657373207468616e206d696e696d756d20756e7374616b6520616d6f756e7450726f766964656420756e7374616b6520726571756573742069642073686f756c64206e6f7420626520616e20656d70747920736c6f7443616c6c6572206973206e6f7420617574686f72697a656420746f20676f7665726e43616c6c6572206973206e6f7420616e20696e7465726e616c20636f6e7472616374436f6e7472616374206973206e6f7420696e697469616c697a656400000000005374616b696e67206f6e20666577657220636f6e747261637473206973206e6f7420616c6c6f776564556e7374616b6520726571756573742074696d65206d7573742062652067726561746572206f7220657175616c20746f2070726576696f757320756e7374616b65207265717565737452656d61696e696e67207374616b652063616e6e6f74206265206c657373207468616e206d696e696d756d20756e7374616b6520616d6f756e744e6577207374616b65206973206c657373207468616e2070726576696f7573207374616b65546f74616c207374616b652065786365656473206d6178696d756d20616c6c6f776564a265627a7a72315820e928a4f1dbdc1f061b701b7582fd1c4afc1a86bf8db0c435071f81830d2e6c0664736f6c63430005110032",
  "linkReferences": {},
  "deployedLinkReferences": {}
}