{
  "_format": "hh-sol-artifact-1",
  "contractName": "MasterAware",
  "sourceName": "contracts/NexusMutual/abstract/MasterAware.sol",
  "abi": [
    {
      "constant": false,
      "inputs": [
        {
          "internalType": "address",
          "name": "masterAddress",
          "type": "address"
        }
      ],
      "name": "changeMasterAddress",
      "outputs": [],
      "payable": false,
      "stateMutability": "nonpayable",
      "type": "function"
    },
    {
      "constant": true,
      "inputs": [],
      "name": "master",
      "outputs": [
        {
          "internalType": "contract INXMMaster",
          "name": "",
          "type": "address"
        }
      ],
      "payable": false,
      "stateMutability": "view",
      "type": "function"
    }
  ],
  "bytecode": "0x608060405234801561001057600080fd5b5061014a806100206000396000f3fe608060405234801561001057600080fd5b50600436106100365760003560e01c8063d46655f41461003b578063ee97f7f314610063575b600080fd5b6100616004803603602081101561005157600080fd5b50356001600160a01b0316610087565b005b61006b610106565b604080516001600160a01b039092168252519081900360200190f35b6000546001600160a01b0316156100e4576000546001600160a01b031633146100e4576040805162461bcd60e51b815260206004820152600a6024820152692737ba1036b0b9ba32b960b11b604482015290519081900360640190fd5b600080546001600160a01b0319166001600160a01b0392909216919091179055565b6000546001600160a01b03168156fea265627a7a7231582029274a8c32a236be801d1e7d737fc4885e6951462ccc801da469fc99bce9b02d64736f6c63430005110032",
  "linkReferences": {},
  "deployedLinkReferences": {}
}