{
  "_format": "hh-sol-artifact-1",
  "contractName": "QuotationData",
  "sourceName": "nexusmutual/contracts/modules/cover/QuotationData.sol",
  "abi": [
    {
      "inputs": [
        {
          "internalType": "address",
          "name": "_authQuoteAdd",
          "type": "address"
        },
        {
          "internalType": "address",
          "name": "_kycAuthAdd",
          "type": "address"
        }
      ],
      "payable": false,
      "stateMutability": "nonpayable",
      "type": "constructor"
    },
    {
      "anonymous": false,
      "inputs": [
        {
          "indexed": true,
          "internalType": "uint256",
          "name": "cid",
          "type": "uint256"
        },
        {
          "indexed": false,
          "internalType": "address",
          "name": "scAdd",
          "type": "address"
        },
        {
          "indexed": false,
          "internalType": "uint256",
          "name": "sumAssured",
          "type": "uint256"
        },
        {
          "indexed": false,
          "internalType": "uint256",
          "name": "expiry",
          "type": "uint256"
        },
        {
          "indexed": false,
          "internalType": "uint256",
          "name": "premium",
          "type": "uint256"
        },
        {
          "indexed": false,
          "internalType": "uint256",
          "name": "premiumNXM",
          "type": "uint256"
        },
        {
          "indexed": false,
          "internalType": "bytes4",
          "name": "curr",
          "type": "bytes4"
        }
      ],
      "name": "CoverDetailsEvent",
      "type": "event"
    },
    {
      "anonymous": false,
      "inputs": [
        {
          "indexed": true,
          "internalType": "uint256",
          "name": "cid",
          "type": "uint256"
        },
        {
          "indexed": false,
          "internalType": "uint8",
          "name": "statusNum",
          "type": "uint8"
        }
      ],
      "name": "CoverStatusEvent",
      "type": "event"
    },
    {
      "constant": false,
      "inputs": [
        {
          "internalType": "uint16",
          "name": "_coverPeriod",
          "type": "uint16"
        },
        {
          "internalType": "uint256",
          "name": "_sumAssured",
          "type": "uint256"
        },
        {
          "internalType": "address payable",
          "name": "_userAddress",
          "type": "address"
        },
        {
          "internalType": "bytes4",
          "name": "_currencyCode",
          "type": "bytes4"
        },
        {
          "internalType": "address",
          "name": "_scAddress",
          "type": "address"
        },
        {
          "internalType": "uint256",
          "name": "premium",
          "type": "uint256"
        },
        {
          "internalType": "uint256",
          "name": "premiumNXM",
          "type": "uint256"
        }
      ],
      "name": "addCover",
      "outputs": [],
      "payable": false,
      "stateMutability": "nonpayable",
      "type": "function"
    },
    {
      "constant": false,
      "inputs": [
        {
          "internalType": "address payable",
          "name": "from",
          "type": "address"
        },
        {
          "internalType": "address",
          "name": "scAddress",
          "type": "address"
        },
        {
          "internalType": "bytes4",
          "name": "coverCurr",
          "type": "bytes4"
        },
        {
          "internalType": "uint256[]",
          "name": "coverDetails",
          "type": "uint256[]"
        },
        {
          "internalType": "uint16",
          "name": "coverPeriod",
          "type": "uint16"
        }
      ],
      "name": "addHoldCover",
      "outputs": [],
      "payable": false,
      "stateMutability": "nonpayable",
      "type": "function"
    },
    {
      "constant": false,
      "inputs": [
        {
          "internalType": "bytes4",
          "name": "_curr",
          "type": "bytes4"
        },
        {
          "internalType": "uint256",
          "name": "_amount",
          "type": "uint256"
        }
      ],
      "name": "addInTotalSumAssured",
      "outputs": [],
      "payable": false,
      "stateMutability": "nonpayable",
      "type": "function"
    },
    {
      "constant": false,
      "inputs": [
        {
          "internalType": "address",
          "name": "_add",
          "type": "address"
        },
        {
          "internalType": "bytes4",
          "name": "_curr",
          "type": "bytes4"
        },
        {
          "internalType": "uint256",
          "name": "_amount",
          "type": "uint256"
        }
      ],
      "name": "addInTotalSumAssuredSC",
      "outputs": [],
      "payable": false,
      "stateMutability": "nonpayable",
      "type": "function"
    },
    {
      "constant": true,
      "inputs": [],
      "name": "authQuoteEngine",
      "outputs": [
        {
          "internalType": "address",
          "name": "",
          "type": "address"
        }
      ],
      "payable": false,
      "stateMutability": "view",
      "type": "function"
    },
    {
      "constant": false,
      "inputs": [
        {
          "internalType": "address",
          "name": "_add",
          "type": "address"
        }
      ],
      "name": "changeAuthQuoteEngine",
      "outputs": [],
      "payable": false,
      "stateMutability": "nonpayable",
      "type": "function"
    },
    {
      "constant": false,
      "inputs": [
        {
          "internalType": "uint256",
          "name": "_cid",
          "type": "uint256"
        },
        {
          "internalType": "uint8",
          "name": "_stat",
          "type": "uint8"
        }
      ],
      "name": "changeCoverStatusNo",
      "outputs": [],
      "payable": false,
      "stateMutability": "nonpayable",
      "type": "function"
    },
    {
      "constant": false,
      "inputs": [],
      "name": "changeDependentContractAddress",
      "outputs": [],
      "payable": false,
      "stateMutability": "nonpayable",
      "type": "function"
    },
    {
      "constant": false,
      "inputs": [
        {
          "internalType": "address",
          "name": "_masterAddress",
          "type": "address"
        }
      ],
      "name": "changeMasterAddress",
      "outputs": [],
      "payable": false,
      "stateMutability": "nonpayable",
      "type": "function"
    },
    {
      "constant": true,
      "inputs": [
        {
          "internalType": "uint256",
          "name": "",
          "type": "uint256"
        }
      ],
      "name": "coverStatus",
      "outputs": [
        {
          "internalType": "uint8",
          "name": "",
          "type": "uint8"
        }
      ],
      "payable": false,
      "stateMutability": "view",
      "type": "function"
    },
    {
      "constant": true,
      "inputs": [
        {
          "internalType": "address",
          "name": "_add",
          "type": "address"
        }
      ],
      "name": "getAllCoversOfUser",
      "outputs": [
        {
          "internalType": "uint256[]",
          "name": "allCover",
          "type": "uint256[]"
        }
      ],
      "payable": false,
      "stateMutability": "view",
      "type": "function"
    },
    {
      "constant": true,
      "inputs": [],
      "name": "getAuthQuoteEngine",
      "outputs": [
        {
          "internalType": "address",
          "name": "_add",
          "type": "address"
        }
      ],
      "payable": false,
      "stateMutability": "view",
      "type": "function"
    },
    {
      "constant": true,
      "inputs": [
        {
          "internalType": "uint256",
          "name": "_cid",
          "type": "uint256"
        }
      ],
      "name": "getCoverDetailsByCoverID1",
      "outputs": [
        {
          "internalType": "uint256",
          "name": "cid",
          "type": "uint256"
        },
        {
          "internalType": "address",
          "name": "_memberAddress",
          "type": "address"
        },
        {
          "internalType": "address",
          "name": "_scAddress",
          "type": "address"
        },
        {
          "internalType": "bytes4",
          "name": "_currencyCode",
          "type": "bytes4"
        },
        {
          "internalType": "uint256",
          "name": "_sumAssured",
          "type": "uint256"
        },
        {
          "internalType": "uint256",
          "name": "premiumNXM",
          "type": "uint256"
        }
      ],
      "payable": false,
      "stateMutability": "view",
      "type": "function"
    },
    {
      "constant": true,
      "inputs": [
        {
          "internalType": "uint256",
          "name": "_cid",
          "type": "uint256"
        }
      ],
      "name": "getCoverDetailsByCoverID2",
      "outputs": [
        {
          "internalType": "uint256",
          "name": "cid",
          "type": "uint256"
        },
        {
          "internalType": "uint8",
          "name": "status",
          "type": "uint8"
        },
        {
          "internalType": "uint256",
          "name": "sumAssured",
          "type": "uint256"
        },
        {
          "internalType": "uint16",
          "name": "coverPeriod",
          "type": "uint16"
        },
        {
          "internalType": "uint256",
          "name": "validUntil",
          "type": "uint256"
        }
      ],
      "payable": false,
      "stateMutability": "view",
      "type": "function"
    },
    {
      "constant": true,
      "inputs": [],
      "name": "getCoverLength",
      "outputs": [
        {
          "internalType": "uint256",
          "name": "len",
          "type": "uint256"
        }
      ],
      "payable": false,
      "stateMutability": "view",
      "type": "function"
    },
    {
      "constant": true,
      "inputs": [
        {
          "internalType": "uint256",
          "name": "_cid",
          "type": "uint256"
        }
      ],
      "name": "getCoverMemberAddress",
      "outputs": [
        {
          "internalType": "address payable",
          "name": "_add",
          "type": "address"
        }
      ],
      "payable": false,
      "stateMutability": "view",
      "type": "function"
    },
    {
      "constant": true,
      "inputs": [
        {
          "internalType": "uint256",
          "name": "_cid",
          "type": "uint256"
        }
      ],
      "name": "getCoverPeriod",
      "outputs": [
        {
          "internalType": "uint32",
          "name": "cp",
          "type": "uint32"
        }
      ],
      "payable": false,
      "stateMutability": "view",
      "type": "function"
    },
    {
      "constant": true,
      "inputs": [
        {
          "internalType": "uint256",
          "name": "_cid",
          "type": "uint256"
        }
      ],
      "name": "getCoverPremiumNXM",
      "outputs": [
        {
          "internalType": "uint256",
          "name": "_premiumNXM",
          "type": "uint256"
        }
      ],
      "payable": false,
      "stateMutability": "view",
      "type": "function"
    },
    {
      "constant": true,
      "inputs": [
        {
          "internalType": "uint256",
          "name": "_cid",
          "type": "uint256"
        }
      ],
      "name": "getCoverStatusNo",
      "outputs": [
        {
          "internalType": "uint8",
          "name": "",
          "type": "uint8"
        }
      ],
      "payable": false,
      "stateMutability": "view",
      "type": "function"
    },
    {
      "constant": true,
      "inputs": [
        {
          "internalType": "uint256",
          "name": "_cid",
          "type": "uint256"
        }
      ],
      "name": "getCoverSumAssured",
      "outputs": [
        {
          "internalType": "uint256",
          "name": "sa",
          "type": "uint256"
        }
      ],
      "payable": false,
      "stateMutability": "view",
      "type": "function"
    },
    {
      "constant": true,
      "inputs": [
        {
          "internalType": "uint256",
          "name": "_cid",
          "type": "uint256"
        }
      ],
      "name": "getCurrencyOfCover",
      "outputs": [
        {
          "internalType": "bytes4",
          "name": "curr",
          "type": "bytes4"
        }
      ],
      "payable": false,
      "stateMutability": "view",
      "type": "function"
    },
    {
      "constant": true,
      "inputs": [
        {
          "internalType": "uint256",
          "name": "_hcid",
          "type": "uint256"
        }
      ],
      "name": "getHoldedCoverDetailsByID1",
      "outputs": [
        {
          "internalType": "uint256",
          "name": "hcid",
          "type": "uint256"
        },
        {
          "internalType": "address",
          "name": "scAddress",
          "type": "address"
        },
        {
          "internalType": "bytes4",
          "name": "coverCurr",
          "type": "bytes4"
        },
        {
          "internalType": "uint16",
          "name": "coverPeriod",
          "type": "uint16"
        }
      ],
      "payable": false,
      "stateMutability": "view",
      "type": "function"
    },
    {
      "constant": true,
      "inputs": [
        {
          "internalType": "uint256",
          "name": "_hcid",
          "type": "uint256"
        }
      ],
      "name": "getHoldedCoverDetailsByID2",
      "outputs": [
        {
          "internalType": "uint256",
          "name": "hcid",
          "type": "uint256"
        },
        {
          "internalType": "address payable",
          "name": "memberAddress",
          "type": "address"
        },
        {
          "internalType": "uint256[]",
          "name": "coverDetails",
          "type": "uint256[]"
        }
      ],
      "payable": false,
      "stateMutability": "view",
      "type": "function"
    },
    {
      "constant": true,
      "inputs": [],
      "name": "getProductDetails",
      "outputs": [
        {
          "internalType": "uint256",
          "name": "_minDays",
          "type": "uint256"
        },
        {
          "internalType": "uint256",
          "name": "_pm",
          "type": "uint256"
        },
        {
          "internalType": "uint256",
          "name": "_stl",
          "type": "uint256"
        },
        {
          "internalType": "uint256",
          "name": "_stlp",
          "type": "uint256"
        }
      ],
      "payable": false,
      "stateMutability": "view",
      "type": "function"
    },
    {
      "constant": true,
      "inputs": [
        {
          "internalType": "bytes4",
          "name": "_curr",
          "type": "bytes4"
        }
      ],
      "name": "getTotalSumAssured",
      "outputs": [
        {
          "internalType": "uint256",
          "name": "amount",
          "type": "uint256"
        }
      ],
      "payable": false,
      "stateMutability": "view",
      "type": "function"
    },
    {
      "constant": true,
      "inputs": [
        {
          "internalType": "address",
          "name": "_add",
          "type": "address"
        },
        {
          "internalType": "bytes4",
          "name": "_curr",
          "type": "bytes4"
        }
      ],
      "name": "getTotalSumAssuredSC",
      "outputs": [
        {
          "internalType": "uint256",
          "name": "amount",
          "type": "uint256"
        }
      ],
      "payable": false,
      "stateMutability": "view",
      "type": "function"
    },
    {
      "constant": true,
      "inputs": [
        {
          "internalType": "bytes8",
          "name": "code",
          "type": "bytes8"
        }
      ],
      "name": "getUintParameters",
      "outputs": [
        {
          "internalType": "bytes8",
          "name": "codeVal",
          "type": "bytes8"
        },
        {
          "internalType": "uint256",
          "name": "val",
          "type": "uint256"
        }
      ],
      "payable": false,
      "stateMutability": "view",
      "type": "function"
    },
    {
      "constant": true,
      "inputs": [
        {
          "internalType": "address",
          "name": "_add",
          "type": "address"
        }
      ],
      "name": "getUserCoverLength",
      "outputs": [
        {
          "internalType": "uint256",
          "name": "len",
          "type": "uint256"
        }
      ],
      "payable": false,
      "stateMutability": "view",
      "type": "function"
    },
    {
      "constant": true,
      "inputs": [
        {
          "internalType": "address",
          "name": "_add",
          "type": "address"
        },
        {
          "internalType": "uint256",
          "name": "index",
          "type": "uint256"
        }
      ],
      "name": "getUserHoldedCoverByIndex",
      "outputs": [
        {
          "internalType": "uint256",
          "name": "",
          "type": "uint256"
        }
      ],
      "payable": false,
      "stateMutability": "view",
      "type": "function"
    },
    {
      "constant": true,
      "inputs": [
        {
          "internalType": "address",
          "name": "_add",
          "type": "address"
        }
      ],
      "name": "getUserHoldedCoverLength",
      "outputs": [
        {
          "internalType": "uint256",
          "name": "",
          "type": "uint256"
        }
      ],
      "payable": false,
      "stateMutability": "view",
      "type": "function"
    },
    {
      "constant": true,
      "inputs": [
        {
          "internalType": "uint256",
          "name": "_cid",
          "type": "uint256"
        }
      ],
      "name": "getValidityOfCover",
      "outputs": [
        {
          "internalType": "uint256",
          "name": "date",
          "type": "uint256"
        }
      ],
      "payable": false,
      "stateMutability": "view",
      "type": "function"
    },
    {
      "constant": true,
      "inputs": [
        {
          "internalType": "uint256",
          "name": "_cid",
          "type": "uint256"
        }
      ],
      "name": "getscAddressOfCover",
      "outputs": [
        {
          "internalType": "uint256",
          "name": "",
          "type": "uint256"
        },
        {
          "internalType": "address",
          "name": "",
          "type": "address"
        }
      ],
      "payable": false,
      "stateMutability": "view",
      "type": "function"
    },
    {
      "constant": true,
      "inputs": [
        {
          "internalType": "uint256",
          "name": "",
          "type": "uint256"
        }
      ],
      "name": "holdedCoverIDStatus",
      "outputs": [
        {
          "internalType": "uint256",
          "name": "",
          "type": "uint256"
        }
      ],
      "payable": false,
      "stateMutability": "view",
      "type": "function"
    },
    {
      "constant": true,
      "inputs": [],
      "name": "kycAuthAddress",
      "outputs": [
        {
          "internalType": "address",
          "name": "",
          "type": "address"
        }
      ],
      "payable": false,
      "stateMutability": "view",
      "type": "function"
    },
    {
      "constant": true,
      "inputs": [],
      "name": "minDays",
      "outputs": [
        {
          "internalType": "uint256",
          "name": "",
          "type": "uint256"
        }
      ],
      "payable": false,
      "stateMutability": "view",
      "type": "function"
    },
    {
      "constant": true,
      "inputs": [],
      "name": "ms",
      "outputs": [
        {
          "internalType": "contract INXMMaster",
          "name": "",
          "type": "address"
        }
      ],
      "payable": false,
      "stateMutability": "view",
      "type": "function"
    },
    {
      "constant": true,
      "inputs": [],
      "name": "nxMasterAddress",
      "outputs": [
        {
          "internalType": "address",
          "name": "",
          "type": "address"
        }
      ],
      "payable": false,
      "stateMutability": "view",
      "type": "function"
    },
    {
      "constant": true,
      "inputs": [],
      "name": "pm",
      "outputs": [
        {
          "internalType": "uint256",
          "name": "",
          "type": "uint256"
        }
      ],
      "payable": false,
      "stateMutability": "view",
      "type": "function"
    },
    {
      "constant": true,
      "inputs": [
        {
          "internalType": "address",
          "name": "",
          "type": "address"
        }
      ],
      "name": "refundEligible",
      "outputs": [
        {
          "internalType": "bool",
          "name": "",
          "type": "bool"
        }
      ],
      "payable": false,
      "stateMutability": "view",
      "type": "function"
    },
    {
      "constant": false,
      "inputs": [
        {
          "internalType": "uint256",
          "name": "holdedCoverID",
          "type": "uint256"
        },
        {
          "internalType": "uint256",
          "name": "status",
          "type": "uint256"
        }
      ],
      "name": "setHoldedCoverIDStatus",
      "outputs": [],
      "payable": false,
      "stateMutability": "nonpayable",
      "type": "function"
    },
    {
      "constant": false,
      "inputs": [
        {
          "internalType": "address",
          "name": "_add",
          "type": "address"
        }
      ],
      "name": "setKycAuthAddress",
      "outputs": [],
      "payable": false,
      "stateMutability": "nonpayable",
      "type": "function"
    },
    {
      "constant": false,
      "inputs": [
        {
          "internalType": "address",
          "name": "_add",
          "type": "address"
        },
        {
          "internalType": "bool",
          "name": "status",
          "type": "bool"
        }
      ],
      "name": "setRefundEligible",
      "outputs": [],
      "payable": false,
      "stateMutability": "nonpayable",
      "type": "function"
    },
    {
      "constant": false,
      "inputs": [
        {
          "internalType": "uint256",
          "name": "_timestamp",
          "type": "uint256"
        }
      ],
      "name": "setTimestampRepeated",
      "outputs": [],
      "payable": false,
      "stateMutability": "nonpayable",
      "type": "function"
    },
    {
      "constant": true,
      "inputs": [],
      "name": "stl",
      "outputs": [
        {
          "internalType": "uint256",
          "name": "",
          "type": "uint256"
        }
      ],
      "payable": false,
      "stateMutability": "view",
      "type": "function"
    },
    {
      "constant": true,
      "inputs": [],
      "name": "stlp",
      "outputs": [
        {
          "internalType": "uint256",
          "name": "",
          "type": "uint256"
        }
      ],
      "payable": false,
      "stateMutability": "view",
      "type": "function"
    },
    {
      "constant": false,
      "inputs": [
        {
          "internalType": "bytes4",
          "name": "_curr",
          "type": "bytes4"
        },
        {
          "internalType": "uint256",
          "name": "_amount",
          "type": "uint256"
        }
      ],
      "name": "subFromTotalSumAssured",
      "outputs": [],
      "payable": false,
      "stateMutability": "nonpayable",
      "type": "function"
    },
    {
      "constant": false,
      "inputs": [
        {
          "internalType": "address",
          "name": "_add",
          "type": "address"
        },
        {
          "internalType": "bytes4",
          "name": "_curr",
          "type": "bytes4"
        },
        {
          "internalType": "uint256",
          "name": "_amount",
          "type": "uint256"
        }
      ],
      "name": "subFromTotalSumAssuredSC",
      "outputs": [],
      "payable": false,
      "stateMutability": "nonpayable",
      "type": "function"
    },
    {
      "constant": true,
      "inputs": [
        {
          "internalType": "uint256",
          "name": "",
          "type": "uint256"
        }
      ],
      "name": "timestampRepeated",
      "outputs": [
        {
          "internalType": "bool",
          "name": "",
          "type": "bool"
        }
      ],
      "payable": false,
      "stateMutability": "view",
      "type": "function"
    },
    {
      "constant": true,
      "inputs": [],
      "name": "tokensRetained",
      "outputs": [
        {
          "internalType": "uint256",
          "name": "",
          "type": "uint256"
        }
      ],
      "payable": false,
      "stateMutability": "view",
      "type": "function"
    },
    {
      "constant": false,
      "inputs": [
        {
          "internalType": "bytes8",
          "name": "code",
          "type": "bytes8"
        },
        {
          "internalType": "uint256",
          "name": "val",
          "type": "uint256"
        }
      ],
      "name": "updateUintParameters",
      "outputs": [],
      "payable": false,
      "stateMutability": "nonpayable",
      "type": "function"
    },
    {
      "constant": true,
      "inputs": [
        {
          "internalType": "address",
          "name": "",
          "type": "address"
        },
        {
          "internalType": "uint256",
          "name": "",
          "type": "uint256"
        }
      ],
      "name": "userHoldedCover",
      "outputs": [
        {
          "internalType": "uint256",
          "name": "",
          "type": "uint256"
        }
      ],
      "payable": false,
      "stateMutability": "view",
      "type": "function"
    }
  ],
  "bytecode": "0x60806040523480156200001157600080fd5b506040516200426438038062004264833981810160405260408110156200003757600080fd5b81019080805190602001909291908051906020019092919050505081600260006101000a81548173ffffffffffffffffffffffffffffffffffffffff021916908373ffffffffffffffffffffffffffffffffffffffff16021790555080601260006101000a81548173ffffffffffffffffffffffffffffffffffffffff021916908373ffffffffffffffffffffffffffffffffffffffff160217905550605a600d819055506064600e81905550601e600f81905550601e601081905550600a601181905550600b6040518060e00160405280600073ffffffffffffffffffffffffffffffffffffffff1681526020017f30783030000000000000000000000000000000000000000000000000000000007bffffffffffffffffffffffffffffffffffffffffffffffffffffffff1916815260200160008152602001600061ffff16815260200160008152602001600073ffffffffffffffffffffffffffffffffffffffff16815260200160008152509080600181540180825580915050906001820390600052602060002090600602016000909192909190915060008201518160000160006101000a81548173ffffffffffffffffffffffffffffffffffffffff021916908373ffffffffffffffffffffffffffffffffffffffff16021790555060208201518160000160146101000a81548163ffffffff021916908360e01c02179055506040820151816001015560608201518160020160006101000a81548161ffff021916908361ffff1602179055506080820151816003015560a08201518160040160006101000a81548173ffffffffffffffffffffffffffffffffffffffff021916908373ffffffffffffffffffffffffffffffffffffffff16021790555060c0820151816005015550505060606001604051908082528060200260200182016040528015620002fa5781602001602082028038833980820191505090505b509050600c6040518060c0016040528060008152602001600073ffffffffffffffffffffffffffffffffffffffff168152602001600073ffffffffffffffffffffffffffffffffffffffff168152602001600060e01b7bffffffffffffffffffffffffffffffffffffffffffffffffffffffff19168152602001838152602001600061ffff16815250908060018154018082558091505090600182039060005260206000209060050201600090919290919091506000820151816000015560208201518160010160006101000a81548173ffffffffffffffffffffffffffffffffffffffff021916908373ffffffffffffffffffffffffffffffffffffffff16021790555060408201518160020160006101000a81548173ffffffffffffffffffffffffffffffffffffffff021916908373ffffffffffffffffffffffffffffffffffffffff16021790555060608201518160020160146101000a81548163ffffffff021916908360e01c0217905550608082015181600301908051906020019062000488929190620004b8565b5060a08201518160040160006101000a81548161ffff021916908361ffff16021790555050505050505062000532565b828054828255906000526020600020908101928215620004f7579160200282015b82811115620004f6578251825591602001919060010190620004d9565b5b5090506200050691906200050a565b5090565b6200052f91905b808211156200052b57600081600090555060010162000511565b5090565b90565b613d2280620005426000396000f3fe608060405234801561001057600080fd5b50600436106102f15760003560e01c80638970cdff1161019d578063c60781bd116100e9578063e8d3ae9c116100a2578063f17a3bec1161007c578063f17a3bec146113be578063f3ab26cc14611408578063f63a87d414611426578063fe7cfbfc14611476576102f1565b8063e8d3ae9c146112f4578063e8f5fb1c1461133e578063f0bd02221461135c576102f1565b8063c60781bd14610ffa578063cc41241c14611052578063d46655f41461110f578063de75b5ea14611153578063df09fea7146111af578063e2c2a5bb146112aa576102f1565b8063a0b2d57f11610156578063ae1c5eca11610130578063ae1c5eca14610ef3578063b1351bfd14610f2e578063ba38de3514610f76578063baaa46f914610fb8576102f1565b8063a0b2d57f14610df0578063a2c6bc2514610e3a578063a2fd826214610e91576102f1565b80638970cdff14610b8b5780638b5722f414610ba95780638ce80a6514610c295780638d16a10514610ce2578063922fd67f14610d575780639dd86e0f14610d9d576102f1565b80634b2cc0a11161025c57806367157ff011610215578063811833a8116101ef578063811833a814610a4e57806381d760ae14610a9c57806383fa958514610b1357806384434b9f14610b41576102f1565b806367157ff0146109b65780636e13d8c5146109d4578063711acf8614610a0c576102f1565b80634b2cc0a1146107605780635444ca75146107a8578063544ef03d14610829578063549a65f41461088157806360a230e7146108c55780636122f8401461091c576102f1565b80632ce65f5a116102ae5780632ce65f5a146104c75780633327a2fa146104e55780633994b3d5146105515780633c2d4daf146105c85780633d5732a3146106365780633f77ea6514610697576102f1565b80630ea9c984146102f65780631407264b146103005780631ce48f3d1461034457806323bc839b1461038657806328111dd8146103b9578063292ad50a146103d7575b600080fd5b6102fe61150f565b005b6103426004803603602081101561031657600080fd5b81019080803573ffffffffffffffffffffffffffffffffffffffff169060200190929190505050611511565b005b6103706004803603602081101561035a57600080fd5b8101908080359060200190929190505050611637565b6040518082815260200191505060405180910390f35b61038e61165f565b6040518085815260200184815260200183815260200182815260200194505050505060405180910390f35b6103c161167f565b6040518082815260200191505060405180910390f35b6104c5600480360360a08110156103ed57600080fd5b81019080803573ffffffffffffffffffffffffffffffffffffffff169060200190929190803573ffffffffffffffffffffffffffffffffffffffff16906020019092919080357bffffffffffffffffffffffffffffffffffffffffffffffffffffffff191690602001909291908035906020019064010000000081111561047357600080fd5b82018360208201111561048557600080fd5b803590602001918460208302840111640100000000831117156104a757600080fd5b9091929391929390803561ffff169060200190929190505050611685565b005b6104cf611a08565b6040518082815260200191505060405180910390f35b610511600480360360208110156104fb57600080fd5b8101908080359060200190929190505050611a0e565b604051808681526020018560ff1660ff1681526020018481526020018361ffff1661ffff1681526020018281526020019550505050505060405180910390f35b6105c66004803603606081101561056757600080fd5b81019080803573ffffffffffffffffffffffffffffffffffffffff16906020019092919080357bffffffffffffffffffffffffffffffffffffffffffffffffffffffff1916906020019092919080359060200190929190505050611ab6565b005b6105f4600480360360208110156105de57600080fd5b8101908080359060200190929190505050611cd0565b604051808273ffffffffffffffffffffffffffffffffffffffff1673ffffffffffffffffffffffffffffffffffffffff16815260200191505060405180910390f35b6106816004803603602081101561064c57600080fd5b8101908080357bffffffffffffffffffffffffffffffffffffffffffffffffffffffff19169060200190929190505050611d18565b6040518082815260200191505060405180910390f35b6106c3600480360360208110156106ad57600080fd5b8101908080359060200190929190505050611d73565b604051808581526020018473ffffffffffffffffffffffffffffffffffffffff1673ffffffffffffffffffffffffffffffffffffffff168152602001837bffffffffffffffffffffffffffffffffffffffffffffffffffffffff19167bffffffffffffffffffffffffffffffffffffffffffffffffffffffff191681526020018261ffff1661ffff16815260200194505050505060405180910390f35b61078c6004803603602081101561077657600080fd5b8101908080359060200190929190505050611e21565b604051808260ff1660ff16815260200191505060405180910390f35b610813600480360360408110156107be57600080fd5b81019080803573ffffffffffffffffffffffffffffffffffffffff16906020019092919080357bffffffffffffffffffffffffffffffffffffffffffffffffffffffff19169060200190929190505050611e4b565b6040518082815260200191505060405180910390f35b61086b6004803603602081101561083f57600080fd5b81019080803573ffffffffffffffffffffffffffffffffffffffff169060200190929190505050611ee4565b6040518082815260200191505060405180910390f35b6108c36004803603602081101561089757600080fd5b81019080803573ffffffffffffffffffffffffffffffffffffffff169060200190929190505050611f30565b005b61091a600480360360408110156108db57600080fd5b8101908080357bffffffffffffffffffffffffffffffffffffffffffffffffffffffff1916906020019092919080359060200190929190505050612056565b005b6109636004803603602081101561093257600080fd5b81019080803577ffffffffffffffffffffffffffffffffffffffffffffffff191690602001909291905050506121f5565b604051808377ffffffffffffffffffffffffffffffffffffffffffffffff191677ffffffffffffffffffffffffffffffffffffffffffffffff191681526020018281526020019250505060405180910390f35b6109be612381565b6040518082815260200191505060405180910390f35b610a0a600480360360408110156109ea57600080fd5b81019080803590602001909291908035906020019092919050505061238e565b005b610a3860048036036020811015610a2257600080fd5b810190808035906020019092919050505061248c565b6040518082815260200191505060405180910390f35b610a7a60048036036020811015610a6457600080fd5b81019080803590602001909291905050506124b4565b604051808263ffffffff1663ffffffff16815260200191505060405180910390f35b610b1160048036036060811015610ab257600080fd5b81019080803573ffffffffffffffffffffffffffffffffffffffff16906020019092919080357bffffffffffffffffffffffffffffffffffffffffffffffffffffffff19169060200190929190803590602001909291905050506124ee565b005b610b3f60048036036020811015610b2957600080fd5b8101908080359060200190929190505050612708565b005b610b49612819565b604051808273ffffffffffffffffffffffffffffffffffffffff1673ffffffffffffffffffffffffffffffffffffffff16815260200191505060405180910390f35b610b9361283f565b6040518082815260200191505060405180910390f35b610bd560048036036020811015610bbf57600080fd5b8101908080359060200190929190505050612845565b60405180827bffffffffffffffffffffffffffffffffffffffffffffffffffffffff19167bffffffffffffffffffffffffffffffffffffffffffffffffffffffff1916815260200191505060405180910390f35b610ce0600480360360e0811015610c3f57600080fd5b81019080803561ffff16906020019092919080359060200190929190803573ffffffffffffffffffffffffffffffffffffffff16906020019092919080357bffffffffffffffffffffffffffffffffffffffffffffffffffffffff19169060200190929190803573ffffffffffffffffffffffffffffffffffffffff169060200190929190803590602001909291908035906020019092919050505061287a565b005b610d0e60048036036020811015610cf857600080fd5b8101908080359060200190929190505050612c8c565b604051808381526020018273ffffffffffffffffffffffffffffffffffffffff1673ffffffffffffffffffffffffffffffffffffffff1681526020019250505060405180910390f35b610d8360048036036020811015610d6d57600080fd5b8101908080359060200190929190505050612cd8565b604051808215151515815260200191505060405180910390f35b610dee60048036036040811015610db357600080fd5b81019080803577ffffffffffffffffffffffffffffffffffffffffffffffff1916906020019092919080359060200190929190505050612cf8565b005b610df8612fe5565b604051808273ffffffffffffffffffffffffffffffffffffffff1673ffffffffffffffffffffffffffffffffffffffff16815260200191505060405180910390f35b610e8f60048036036040811015610e5057600080fd5b8101908080357bffffffffffffffffffffffffffffffffffffffffffffffffffffffff191690602001909291908035906020019092919050505061300a565b005b610edd60048036036040811015610ea757600080fd5b81019080803573ffffffffffffffffffffffffffffffffffffffff169060200190929190803590602001909291905050506131a9565b6040518082815260200191505060405180910390f35b610f2c60048036036040811015610f0957600080fd5b8101908080359060200190929190803560ff1690602001909291905050506131d7565b005b610f5a60048036036020811015610f4457600080fd5b8101908080359060200190929190505050613327565b604051808260ff1660ff16815260200191505060405180910390f35b610fa260048036036020811015610f8c57600080fd5b8101908080359060200190929190505050613347565b6040518082815260200191505060405180910390f35b610fe460048036036020811015610fce57600080fd5b810190808035906020019092919050505061336f565b6040518082815260200191505060405180910390f35b61103c6004803603602081101561101057600080fd5b81019080803573ffffffffffffffffffffffffffffffffffffffff169060200190929190505050613387565b6040518082815260200191505060405180910390f35b61107e6004803603602081101561106857600080fd5b81019080803590602001909291905050506133d3565b604051808481526020018373ffffffffffffffffffffffffffffffffffffffff1673ffffffffffffffffffffffffffffffffffffffff16815260200180602001828103825283818151815260200191508051906020019060200280838360005b838110156110f95780820151818401526020810190506110de565b5050505090500194505050505060405180910390f35b6111516004803603602081101561112557600080fd5b81019080803573ffffffffffffffffffffffffffffffffffffffff169060200190929190505050613495565b005b6111956004803603602081101561116957600080fd5b81019080803573ffffffffffffffffffffffffffffffffffffffff169060200190929190505050613631565b604051808215151515815260200191505060405180910390f35b6111db600480360360208110156111c557600080fd5b8101908080359060200190929190505050613651565b604051808781526020018673ffffffffffffffffffffffffffffffffffffffff1673ffffffffffffffffffffffffffffffffffffffff1681526020018573ffffffffffffffffffffffffffffffffffffffff1673ffffffffffffffffffffffffffffffffffffffff168152602001847bffffffffffffffffffffffffffffffffffffffffffffffffffffffff19167bffffffffffffffffffffffffffffffffffffffffffffffffffffffff19168152602001838152602001828152602001965050505050505060405180910390f35b6112b261375b565b604051808273ffffffffffffffffffffffffffffffffffffffff1673ffffffffffffffffffffffffffffffffffffffff16815260200191505060405180910390f35b6112fc613781565b604051808273ffffffffffffffffffffffffffffffffffffffff1673ffffffffffffffffffffffffffffffffffffffff16815260200191505060405180910390f35b6113466137ab565b6040518082815260200191505060405180910390f35b6113a86004803603604081101561137257600080fd5b81019080803573ffffffffffffffffffffffffffffffffffffffff169060200190929190803590602001909291905050506137b1565b6040518082815260200191505060405180910390f35b6113c6613810565b604051808273ffffffffffffffffffffffffffffffffffffffff1673ffffffffffffffffffffffffffffffffffffffff16815260200191505060405180910390f35b611410613836565b6040518082815260200191505060405180910390f35b6114746004803603604081101561143c57600080fd5b81019080803573ffffffffffffffffffffffffffffffffffffffff16906020019092919080351515906020019092919050505061383c565b005b6114b86004803603602081101561148c57600080fd5b81019080803573ffffffffffffffffffffffffffffffffffffffff169060200190929190505050613979565b6040518080602001828103825283818151815260200191508051906020019060200280838360005b838110156114fb5780820151818401526020810190506114e0565b505050509050019250505060405180910390f35b565b6000809054906101000a900473ffffffffffffffffffffffffffffffffffffffff1673ffffffffffffffffffffffffffffffffffffffff16638f16c41c336040518263ffffffff1660e01b8152600401808273ffffffffffffffffffffffffffffffffffffffff1673ffffffffffffffffffffffffffffffffffffffff16815260200191505060206040518083038186803b1580156115af57600080fd5b505afa1580156115c3573d6000803e3d6000fd5b505050506040513d60208110156115d957600080fd5b81019080805190602001909291905050506115f357600080fd5b80600260006101000a81548173ffffffffffffffffffffffffffffffffffffffff021916908373ffffffffffffffffffffffffffffffffffffffff16021790555050565b6000600b828154811061164657fe5b9060005260206000209060060201600101549050919050565b6000806000806010549350600f549250600e549150600d54905090919293565b600e5481565b6000809054906101000a900473ffffffffffffffffffffffffffffffffffffffff1673ffffffffffffffffffffffffffffffffffffffff16638f16c41c336040518263ffffffff1660e01b8152600401808273ffffffffffffffffffffffffffffffffffffffff1673ffffffffffffffffffffffffffffffffffffffff16815260200191505060206040518083038186803b15801561172357600080fd5b505afa158015611737573d6000803e3d6000fd5b505050506040513d602081101561174d57600080fd5b810190808051906020019092919050505061176757600080fd5b6000600c8054905090506001600481111561177e57fe5b6009600083815260200190815260200160002081905550600c6040518060c001604052808381526020018973ffffffffffffffffffffffffffffffffffffffff1681526020018873ffffffffffffffffffffffffffffffffffffffff168152602001877bffffffffffffffffffffffffffffffffffffffffffffffffffffffff19168152602001868680806020026020016040519081016040528093929190818152602001838360200280828437600081840152601f19601f8201169050808301925050505050505081526020018461ffff16815250908060018154018082558091505090600182039060005260206000209060050201600090919290919091506000820151816000015560208201518160010160006101000a81548173ffffffffffffffffffffffffffffffffffffffff021916908373ffffffffffffffffffffffffffffffffffffffff16021790555060408201518160020160006101000a81548173ffffffffffffffffffffffffffffffffffffffff021916908373ffffffffffffffffffffffffffffffffffffffff16021790555060608201518160020160146101000a81548163ffffffff021916908360e01c02179055506080820151816003019080519060200190611957929190613c5a565b5060a08201518160040160006101000a81548161ffff021916908361ffff160217905550505050600560008873ffffffffffffffffffffffffffffffffffffffff1673ffffffffffffffffffffffffffffffffffffffff1681526020019081526020016000206119d66001600c80549050613a1090919063ffffffff16565b908060018154018082558091505090600182039060005260206000200160009091929091909150555050505050505050565b600d5481565b6000806000806000856008600088815260200190815260200160002060009054906101000a900460ff16600b8881548110611a4557fe5b906000526020600020906006020160010154600b8981548110611a6457fe5b906000526020600020906006020160020160009054906101000a900461ffff16600b8a81548110611a9157fe5b9060005260206000209060060201600301549450945094509450945091939590929450565b6000809054906101000a900473ffffffffffffffffffffffffffffffffffffffff1673ffffffffffffffffffffffffffffffffffffffff16638f16c41c336040518263ffffffff1660e01b8152600401808273ffffffffffffffffffffffffffffffffffffffff1673ffffffffffffffffffffffffffffffffffffffff16815260200191505060206040518083038186803b158015611b5457600080fd5b505afa158015611b68573d6000803e3d6000fd5b505050506040513d6020811015611b7e57600080fd5b8101908080519060200190929190505050611b9857600080fd5b611c3981600760008673ffffffffffffffffffffffffffffffffffffffff1673ffffffffffffffffffffffffffffffffffffffff1681526020019081526020016000206000857bffffffffffffffffffffffffffffffffffffffffffffffffffffffff19167bffffffffffffffffffffffffffffffffffffffffffffffffffffffff1916815260200190815260200160002054613a5a90919063ffffffff16565b600760008573ffffffffffffffffffffffffffffffffffffffff1673ffffffffffffffffffffffffffffffffffffffff1681526020019081526020016000206000847bffffffffffffffffffffffffffffffffffffffffffffffffffffffff19167bffffffffffffffffffffffffffffffffffffffffffffffffffffffff1916815260200190815260200160002081905550505050565b6000600b8281548110611cdf57fe5b906000526020600020906006020160000160009054906101000a900473ffffffffffffffffffffffffffffffffffffffff169050919050565b600060036000837bffffffffffffffffffffffffffffffffffffffffffffffffffffffff19167bffffffffffffffffffffffffffffffffffffffffffffffffffffffff19168152602001908152602001600020549050919050565b60008060008084600c8681548110611d8757fe5b906000526020600020906005020160020160009054906101000a900473ffffffffffffffffffffffffffffffffffffffff16600c8781548110611dc657fe5b906000526020600020906005020160020160149054906101000a900460e01b600c8881548110611df257fe5b906000526020600020906005020160040160009054906101000a900461ffff1693509350935093509193509193565b60006008600083815260200190815260200160002060009054906101000a900460ff169050919050565b6000600760008473ffffffffffffffffffffffffffffffffffffffff1673ffffffffffffffffffffffffffffffffffffffff1681526020019081526020016000206000837bffffffffffffffffffffffffffffffffffffffffffffffffffffffff19167bffffffffffffffffffffffffffffffffffffffffffffffffffffffff1916815260200190815260200160002054905092915050565b6000600460008373ffffffffffffffffffffffffffffffffffffffff1673ffffffffffffffffffffffffffffffffffffffff168152602001908152602001600020805490509050919050565b6000809054906101000a900473ffffffffffffffffffffffffffffffffffffffff1673ffffffffffffffffffffffffffffffffffffffff16638f16c41c336040518263ffffffff1660e01b8152600401808273ffffffffffffffffffffffffffffffffffffffff1673ffffffffffffffffffffffffffffffffffffffff16815260200191505060206040518083038186803b158015611fce57600080fd5b505afa158015611fe2573d6000803e3d6000fd5b505050506040513d6020811015611ff857600080fd5b810190808051906020019092919050505061201257600080fd5b80601260006101000a81548173ffffffffffffffffffffffffffffffffffffffff021916908373ffffffffffffffffffffffffffffffffffffffff16021790555050565b6000809054906101000a900473ffffffffffffffffffffffffffffffffffffffff1673ffffffffffffffffffffffffffffffffffffffff16638f16c41c336040518263ffffffff1660e01b8152600401808273ffffffffffffffffffffffffffffffffffffffff1673ffffffffffffffffffffffffffffffffffffffff16815260200191505060206040518083038186803b1580156120f457600080fd5b505afa158015612108573d6000803e3d6000fd5b505050506040513d602081101561211e57600080fd5b810190808051906020019092919050505061213857600080fd5b61219c8160036000857bffffffffffffffffffffffffffffffffffffffffffffffffffffffff19167bffffffffffffffffffffffffffffffffffffffffffffffffffffffff1916815260200190815260200160002054613a1090919063ffffffff16565b60036000847bffffffffffffffffffffffffffffffffffffffffffffffffffffffff19167bffffffffffffffffffffffffffffffffffffffffffffffffffffffff19168152602001908152602001600020819055505050565b6000808291507f53544c50000000000000000000000000000000000000000000000000000000008377ffffffffffffffffffffffffffffffffffffffffffffffff1916141561224857600d54905061237c565b7f53544c00000000000000000000000000000000000000000000000000000000008377ffffffffffffffffffffffffffffffffffffffffffffffff1916141561229557600e54905061237b565b7f504d0000000000000000000000000000000000000000000000000000000000008377ffffffffffffffffffffffffffffffffffffffffffffffff191614156122e257600f54905061237a565b7f51554f4d494e44000000000000000000000000000000000000000000000000008377ffffffffffffffffffffffffffffffffffffffffffffffff1916141561232f576010549050612379565b7f51554f544f4b00000000000000000000000000000000000000000000000000008377ffffffffffffffffffffffffffffffffffffffffffffffff191614156123785760115490505b5b5b5b5b915091565b6000600b80549050905090565b6000809054906101000a900473ffffffffffffffffffffffffffffffffffffffff1673ffffffffffffffffffffffffffffffffffffffff16638f16c41c336040518263ffffffff1660e01b8152600401808273ffffffffffffffffffffffffffffffffffffffff1673ffffffffffffffffffffffffffffffffffffffff16815260200191505060206040518083038186803b15801561242c57600080fd5b505afa158015612440573d6000803e3d6000fd5b505050506040513d602081101561245657600080fd5b810190808051906020019092919050505061247057600080fd5b8060096000848152602001908152602001600020819055505050565b6000600b828154811061249b57fe5b9060005260206000209060060201600301549050919050565b6000600b82815481106124c357fe5b906000526020600020906006020160020160009054906101000a900461ffff1661ffff169050919050565b6000809054906101000a900473ffffffffffffffffffffffffffffffffffffffff1673ffffffffffffffffffffffffffffffffffffffff16638f16c41c336040518263ffffffff1660e01b8152600401808273ffffffffffffffffffffffffffffffffffffffff1673ffffffffffffffffffffffffffffffffffffffff16815260200191505060206040518083038186803b15801561258c57600080fd5b505afa1580156125a0573d6000803e3d6000fd5b505050506040513d60208110156125b657600080fd5b81019080805190602001909291905050506125d057600080fd5b61267181600760008673ffffffffffffffffffffffffffffffffffffffff1673ffffffffffffffffffffffffffffffffffffffff1681526020019081526020016000206000857bffffffffffffffffffffffffffffffffffffffffffffffffffffffff19167bffffffffffffffffffffffffffffffffffffffffffffffffffffffff1916815260200190815260200160002054613a1090919063ffffffff16565b600760008573ffffffffffffffffffffffffffffffffffffffff1673ffffffffffffffffffffffffffffffffffffffff1681526020019081526020016000206000847bffffffffffffffffffffffffffffffffffffffffffffffffffffffff19167bffffffffffffffffffffffffffffffffffffffffffffffffffffffff1916815260200190815260200160002081905550505050565b6000809054906101000a900473ffffffffffffffffffffffffffffffffffffffff1673ffffffffffffffffffffffffffffffffffffffff16638f16c41c336040518263ffffffff1660e01b8152600401808273ffffffffffffffffffffffffffffffffffffffff1673ffffffffffffffffffffffffffffffffffffffff16815260200191505060206040518083038186803b1580156127a657600080fd5b505afa1580156127ba573d6000803e3d6000fd5b505050506040513d60208110156127d057600080fd5b81019080805190602001909291905050506127ea57600080fd5b6001600a600083815260200190815260200160002060006101000a81548160ff02191690831515021790555050565b601260009054906101000a900473ffffffffffffffffffffffffffffffffffffffff1681565b600f5481565b6000600b828154811061285457fe5b906000526020600020906006020160000160149054906101000a900460e01b9050919050565b6000809054906101000a900473ffffffffffffffffffffffffffffffffffffffff1673ffffffffffffffffffffffffffffffffffffffff16638f16c41c336040518263ffffffff1660e01b8152600401808273ffffffffffffffffffffffffffffffffffffffff1673ffffffffffffffffffffffffffffffffffffffff16815260200191505060206040518083038186803b15801561291857600080fd5b505afa15801561292c573d6000803e3d6000fd5b505050506040513d602081101561294257600080fd5b810190808051906020019092919050505061295c57600080fd5b600061298a61297b620151808a61ffff16613ae290919063ffffffff16565b42613a5a90919063ffffffff16565b9050600b6040518060e001604052808873ffffffffffffffffffffffffffffffffffffffff168152602001877bffffffffffffffffffffffffffffffffffffffffffffffffffffffff191681526020018981526020018a61ffff1681526020018381526020018673ffffffffffffffffffffffffffffffffffffffff168152602001848152509080600181540180825580915050906001820390600052602060002090600602016000909192909190915060008201518160000160006101000a81548173ffffffffffffffffffffffffffffffffffffffff021916908373ffffffffffffffffffffffffffffffffffffffff16021790555060208201518160000160146101000a81548163ffffffff021916908360e01c02179055506040820151816001015560608201518160020160006101000a81548161ffff021916908361ffff1602179055506080820151816003015560a08201518160040160006101000a81548173ffffffffffffffffffffffffffffffffffffffff021916908373ffffffffffffffffffffffffffffffffffffffff16021790555060c082015181600501555050506000612b4c6001600b80549050613a1090919063ffffffff16565b9050600460008873ffffffffffffffffffffffffffffffffffffffff1673ffffffffffffffffffffffffffffffffffffffff168152602001908152602001600020819080600181540180825580915050906001820390600052602060002001600090919290919091505550807f535c0318711210e1ce39e443c5948dd7fa396c2774d0949812fcb74800e22730868a8588888c604051808773ffffffffffffffffffffffffffffffffffffffff1673ffffffffffffffffffffffffffffffffffffffff168152602001868152602001858152602001848152602001838152602001827bffffffffffffffffffffffffffffffffffffffffffffffffffffffff19167bffffffffffffffffffffffffffffffffffffffffffffffffffffffff19168152602001965050505050505060405180910390a2505050505050505050565b60008082600b8481548110612c9d57fe5b906000526020600020906006020160040160009054906101000a900473ffffffffffffffffffffffffffffffffffffffff1691509150915091565b600a6020528060005260406000206000915054906101000a900460ff1681565b6000809054906101000a900473ffffffffffffffffffffffffffffffffffffffff1673ffffffffffffffffffffffffffffffffffffffff16635834e67a336040518263ffffffff1660e01b8152600401808273ffffffffffffffffffffffffffffffffffffffff1673ffffffffffffffffffffffffffffffffffffffff16815260200191505060206040518083038186803b158015612d9657600080fd5b505afa158015612daa573d6000803e3d6000fd5b505050506040513d6020811015612dc057600080fd5b8101908080519060200190929190505050612dda57600080fd5b7f53544c50000000000000000000000000000000000000000000000000000000008277ffffffffffffffffffffffffffffffffffffffffffffffff19161415612e2b57612e2681613b68565b612fe1565b7f53544c00000000000000000000000000000000000000000000000000000000008277ffffffffffffffffffffffffffffffffffffffffffffffff19161415612e7c57612e7781613b72565b612fe0565b7f504d0000000000000000000000000000000000000000000000000000000000008277ffffffffffffffffffffffffffffffffffffffffffffffff19161415612ecd57612ec881613b7c565b612fdf565b7f51554f4d494e44000000000000000000000000000000000000000000000000008277ffffffffffffffffffffffffffffffffffffffffffffffff19161415612f1e57612f1981613b86565b612fde565b7f51554f544f4b00000000000000000000000000000000000000000000000000008277ffffffffffffffffffffffffffffffffffffffffffffffff19161415612f6f57612f6a81613b90565b612fdd565b6040517f08c379a00000000000000000000000000000000000000000000000000000000081526004018080602001828103825260128152602001807f496e76616c696420706172616d20636f6465000000000000000000000000000081525060200191505060405180910390fd5b5b5b5b5b5050565b6000809054906101000a900473ffffffffffffffffffffffffffffffffffffffff1681565b6000809054906101000a900473ffffffffffffffffffffffffffffffffffffffff1673ffffffffffffffffffffffffffffffffffffffff16638f16c41c336040518263ffffffff1660e01b8152600401808273ffffffffffffffffffffffffffffffffffffffff1673ffffffffffffffffffffffffffffffffffffffff16815260200191505060206040518083038186803b1580156130a857600080fd5b505afa1580156130bc573d6000803e3d6000fd5b505050506040513d60208110156130d257600080fd5b81019080805190602001909291905050506130ec57600080fd5b6131508160036000857bffffffffffffffffffffffffffffffffffffffffffffffffffffffff19167bffffffffffffffffffffffffffffffffffffffffffffffffffffffff1916815260200190815260200160002054613a5a90919063ffffffff16565b60036000847bffffffffffffffffffffffffffffffffffffffffffffffffffffffff19167bffffffffffffffffffffffffffffffffffffffffffffffffffffffff19168152602001908152602001600020819055505050565b600560205281600052604060002081815481106131c257fe5b90600052602060002001600091509150505481565b6000809054906101000a900473ffffffffffffffffffffffffffffffffffffffff1673ffffffffffffffffffffffffffffffffffffffff16638f16c41c336040518263ffffffff1660e01b8152600401808273ffffffffffffffffffffffffffffffffffffffff1673ffffffffffffffffffffffffffffffffffffffff16815260200191505060206040518083038186803b15801561327557600080fd5b505afa158015613289573d6000803e3d6000fd5b505050506040513d602081101561329f57600080fd5b81019080805190602001909291905050506132b957600080fd5b806008600084815260200190815260200160002060006101000a81548160ff021916908360ff160217905550817f7f1cec39abbda212a819b9165ccfc4064f73eb454b052a312807b2270067a53d82604051808260ff1660ff16815260200191505060405180910390a25050565b60086020528060005260406000206000915054906101000a900460ff1681565b6000600b828154811061335657fe5b9060005260206000209060060201600501549050919050565b60096020528060005260406000206000915090505481565b6000600560008373ffffffffffffffffffffffffffffffffffffffff1673ffffffffffffffffffffffffffffffffffffffff168152602001908152602001600020805490509050919050565b600080606083600c85815481106133e657fe5b906000526020600020906005020160010160009054906101000a900473ffffffffffffffffffffffffffffffffffffffff16600c868154811061342557fe5b90600052602060002090600502016003018080548060200260200160405190810160405280929190818152602001828054801561348157602002820191906000526020600020905b81548152602001906001019080831161346d575b505050505090509250925092509193909250565b600073ffffffffffffffffffffffffffffffffffffffff166000809054906101000a900473ffffffffffffffffffffffffffffffffffffffff1673ffffffffffffffffffffffffffffffffffffffff16146135ad573373ffffffffffffffffffffffffffffffffffffffff166000809054906101000a900473ffffffffffffffffffffffffffffffffffffffff1673ffffffffffffffffffffffffffffffffffffffff16146135ac576040517f08c379a000000000000000000000000000000000000000000000000000000000815260040180806020018281038252600a8152602001807f4e6f74206d61737465720000000000000000000000000000000000000000000081525060200191505060405180910390fd5b5b806000806101000a81548173ffffffffffffffffffffffffffffffffffffffff021916908373ffffffffffffffffffffffffffffffffffffffff16021790555080600160006101000a81548173ffffffffffffffffffffffffffffffffffffffff021916908373ffffffffffffffffffffffffffffffffffffffff16021790555050565b60066020528060005260406000206000915054906101000a900460ff1681565b60008060008060008086600b888154811061366857fe5b906000526020600020906006020160000160009054906101000a900473ffffffffffffffffffffffffffffffffffffffff16600b89815481106136a757fe5b906000526020600020906006020160040160009054906101000a900473ffffffffffffffffffffffffffffffffffffffff16600b8a815481106136e657fe5b906000526020600020906006020160000160149054906101000a900460e01b600b8b8154811061371257fe5b906000526020600020906006020160010154600b8c8154811061373157fe5b90600052602060002090600602016005015484945095509550955095509550955091939550919395565b600260009054906101000a900473ffffffffffffffffffffffffffffffffffffffff1681565b6000600260009054906101000a900473ffffffffffffffffffffffffffffffffffffffff16905090565b60105481565b6000600560008473ffffffffffffffffffffffffffffffffffffffff1673ffffffffffffffffffffffffffffffffffffffff16815260200190815260200160002082815481106137fd57fe5b9060005260206000200154905092915050565b600160009054906101000a900473ffffffffffffffffffffffffffffffffffffffff1681565b60115481565b6000809054906101000a900473ffffffffffffffffffffffffffffffffffffffff1673ffffffffffffffffffffffffffffffffffffffff16638f16c41c336040518263ffffffff1660e01b8152600401808273ffffffffffffffffffffffffffffffffffffffff1673ffffffffffffffffffffffffffffffffffffffff16815260200191505060206040518083038186803b1580156138da57600080fd5b505afa1580156138ee573d6000803e3d6000fd5b505050506040513d602081101561390457600080fd5b810190808051906020019092919050505061391e57600080fd5b80600660008473ffffffffffffffffffffffffffffffffffffffff1673ffffffffffffffffffffffffffffffffffffffff16815260200190815260200160002060006101000a81548160ff0219169083151502179055505050565b6060600460008373ffffffffffffffffffffffffffffffffffffffff1673ffffffffffffffffffffffffffffffffffffffff168152602001908152602001600020805480602002602001604051908101604052809291908181526020018280548015613a0457602002820191906000526020600020905b8154815260200190600101908083116139f0575b50505050509050919050565b6000613a5283836040518060400160405280601e81526020017f536166654d6174683a207375627472616374696f6e206f766572666c6f770000815250613b9a565b905092915050565b600080828401905083811015613ad8576040517f08c379a000000000000000000000000000000000000000000000000000000000815260040180806020018281038252601b8152602001807f536166654d6174683a206164646974696f6e206f766572666c6f77000000000081525060200191505060405180910390fd5b8091505092915050565b600080831415613af55760009050613b62565b6000828402905082848281613b0657fe5b0414613b5d576040517f08c379a0000000000000000000000000000000000000000000000000000000008152600401808060200182810382526021815260200180613ccd6021913960400191505060405180910390fd5b809150505b92915050565b80600d8190555050565b80600e8190555050565b80600f8190555050565b8060108190555050565b8060118190555050565b6000838311158290613c47576040517f08c379a00000000000000000000000000000000000000000000000000000000081526004018080602001828103825283818151815260200191508051906020019080838360005b83811015613c0c578082015181840152602081019050613bf1565b50505050905090810190601f168015613c395780820380516001836020036101000a031916815260200191505b509250505060405180910390fd5b5060008385039050809150509392505050565b828054828255906000526020600020908101928215613c96579160200282015b82811115613c95578251825591602001919060010190613c7a565b5b509050613ca39190613ca7565b5090565b613cc991905b80821115613cc5576000816000905550600101613cad565b5090565b9056fe536166654d6174683a206d756c7469706c69636174696f6e206f766572666c6f77a265627a7a72315820a37b5e90c7e6601ddb39383c89b807729a99b14c1edc9787e2cf3329b39908fc64736f6c63430005110032",
  "linkReferences": {},
  "deployedLinkReferences": {}
}