{
  "_format": "hh-sol-artifact-1",
  "contractName": "NXMDSValueMock",
  "sourceName": "contracts/NexusMutual/mocks/NXMDSValueMock.sol",
  "abi": [
    {
      "inputs": [
        {
          "internalType": "address",
          "name": "_owner",
          "type": "address"
        }
      ],
      "payable": false,
      "stateMutability": "nonpayable",
      "type": "constructor"
    },
    {
      "constant": true,
      "inputs": [],
      "name": "owner",
      "outputs": [
        {
          "internalType": "address",
          "name": "",
          "type": "address"
        }
      ],
      "payable": false,
      "stateMutability": "view",
      "type": "function"
    },
    {
      "constant": true,
      "inputs": [],
      "name": "rate",
      "outputs": [
        {
          "internalType": "int256",
          "name": "",
          "type": "int256"
        }
      ],
      "payable": false,
      "stateMutability": "view",
      "type": "function"
    },
    {
      "constant": true,
      "inputs": [],
      "name": "read",
      "outputs": [
        {
          "internalType": "bytes32",
          "name": "",
          "type": "bytes32"
        }
      ],
      "payable": false,
      "stateMutability": "view",
      "type": "function"
    },
    {
      "constant": false,
      "inputs": [
        {
          "internalType": "uint256",
          "name": "value",
          "type": "uint256"
        }
      ],
      "name": "setRate",
      "outputs": [],
      "payable": false,
      "stateMutability": "nonpayable",
      "type": "function"
    },
    {
      "constant": false,
      "inputs": [
        {
          "internalType": "bool",
          "name": "_zeroRate",
          "type": "bool"
        }
      ],
      "name": "setZeroRate",
      "outputs": [],
      "payable": false,
      "stateMutability": "nonpayable",
      "type": "function"
    }
  ],
  "bytecode": "0x608060405234801561001057600080fd5b506040516105cb3803806105cb8339818101604052602081101561003357600080fd5b81019080805190602001909291905050506100646078670de0b6b3a76400006100b160201b6102b01790919060201c565b60008190555080600160006101000a81548173ffffffffffffffffffffffffffffffffffffffff021916908373ffffffffffffffffffffffffffffffffffffffff160217905550506101c7565b60006100f983836040518060400160405280601a81526020017f536166654d6174683a206469766973696f6e206279207a65726f00000000000081525061010160201b60201c565b905092915050565b600080831182906101ad576040517f08c379a00000000000000000000000000000000000000000000000000000000081526004018080602001828103825283818151815260200191508051906020019080838360005b83811015610172578082015181840152602081019050610157565b50505050905090810190601f16801561019f5780820380516001836020036101000a031916815260200191505b509250505060405180910390fd5b5060008385816101b957fe5b049050809150509392505050565b6103f5806101d66000396000f3fe608060405234801561001057600080fd5b50600436106100575760003560e01c80632c4e722e1461005c57806334fcf4371461007a5780633af1b741146100a857806357de26a4146100d85780638da5cb5b146100f6575b600080fd5b610064610140565b6040518082815260200191505060405180910390f35b6100a66004803603602081101561009057600080fd5b8101908080359060200190929190505050610146565b005b6100d6600480360360208110156100be57600080fd5b810190808035151590602001909291905050506101c4565b005b6100e061023b565b6040518082815260200191505060405180910390f35b6100fe61028a565b604051808273ffffffffffffffffffffffffffffffffffffffff1673ffffffffffffffffffffffffffffffffffffffff16815260200191505060405180910390f35b60005481565b600160009054906101000a900473ffffffffffffffffffffffffffffffffffffffff1673ffffffffffffffffffffffffffffffffffffffff163373ffffffffffffffffffffffffffffffffffffffff16146101a057600080fd5b6101bb81670de0b6b3a76400006102b090919063ffffffff16565b60008190555050565b600160009054906101000a900473ffffffffffffffffffffffffffffffffffffffff1673ffffffffffffffffffffffffffffffffffffffff163373ffffffffffffffffffffffffffffffffffffffff161461021e57600080fd5b80600160146101000a81548160ff02191690831515021790555050565b6000600160149054906101000a900460ff161561025d576000801b9050610287565b6102816000546ec097ce7bc90715b34b9f10000000006102b090919063ffffffff16565b60001b90505b90565b600160009054906101000a900473ffffffffffffffffffffffffffffffffffffffff1681565b60006102f283836040518060400160405280601a81526020017f536166654d6174683a206469766973696f6e206279207a65726f0000000000008152506102fa565b905092915050565b600080831182906103a6576040517f08c379a00000000000000000000000000000000000000000000000000000000081526004018080602001828103825283818151815260200191508051906020019080838360005b8381101561036b578082015181840152602081019050610350565b50505050905090810190601f1680156103985780820380516001836020036101000a031916815260200191505b509250505060405180910390fd5b5060008385816103b257fe5b04905080915050939250505056fea265627a7a7231582086610fa2ba5c51a3b8e4bb7a46b8ca291c39a65e1ce190e9782a12ebe39304d964736f6c63430005110032",
  "linkReferences": {},
  "deployedLinkReferences": {}
}