{
  "_format": "hh-sol-artifact-1",
  "contractName": "NXMDSValueMock",
  "sourceName": "contracts/NexusMutual/mocks/NXMDSValueMock.sol",
  "abi": [
    {
      "inputs": [
        {
          "internalType": "address",
          "name": "_owner",
          "type": "address"
        }
      ],
      "payable": false,
      "stateMutability": "nonpayable",
      "type": "constructor"
    },
    {
      "constant": true,
      "inputs": [],
      "name": "owner",
      "outputs": [
        {
          "internalType": "address",
          "name": "",
          "type": "address"
        }
      ],
      "payable": false,
      "stateMutability": "view",
      "type": "function"
    },
    {
      "constant": true,
      "inputs": [],
      "name": "rate",
      "outputs": [
        {
          "internalType": "int256",
          "name": "",
          "type": "int256"
        }
      ],
      "payable": false,
      "stateMutability": "view",
      "type": "function"
    },
    {
      "constant": true,
      "inputs": [],
      "name": "read",
      "outputs": [
        {
          "internalType": "bytes32",
          "name": "",
          "type": "bytes32"
        }
      ],
      "payable": false,
      "stateMutability": "view",
      "type": "function"
    },
    {
      "constant": false,
      "inputs": [
        {
          "internalType": "uint256",
          "name": "value",
          "type": "uint256"
        }
      ],
      "name": "setRate",
      "outputs": [],
      "payable": false,
      "stateMutability": "nonpayable",
      "type": "function"
    },
    {
      "constant": false,
      "inputs": [
        {
          "internalType": "bool",
          "name": "_zeroRate",
          "type": "bool"
        }
      ],
      "name": "setZeroRate",
      "outputs": [],
      "payable": false,
      "stateMutability": "nonpayable",
      "type": "function"
    }
  ],
  "bytecode": "0x608060405234801561001057600080fd5b506040516104403803806104408339818101604052602081101561003357600080fd5b5051610053670de0b6b3a7640000607861007b602090811b6101a517901c565b600055600180546001600160a01b0319166001600160a01b039290921691909117905561016c565b60006100c383836040518060400160405280601a81526020017f536166654d6174683a206469766973696f6e206279207a65726f0000000000008152506100ca60201b60201c565b9392505050565b600081836101565760405162461bcd60e51b81526004018080602001828103825283818151815260200191508051906020019080838360005b8381101561011b578181015183820152602001610103565b50505050905090810190601f1680156101485780820380516001836020036101000a031916815260200191505b509250505060405180910390fd5b50600083858161016257fe5b0495945050505050565b6102c58061017b6000396000f3fe608060405234801561001057600080fd5b50600436106100575760003560e01c80632c4e722e1461005c57806334fcf437146100765780633af1b7411461009557806357de26a4146100b45780638da5cb5b146100bc575b600080fd5b6100646100e0565b60408051918252519081900360200190f35b6100936004803603602081101561008c57600080fd5b50356100e6565b005b610093600480360360208110156100ab57600080fd5b5035151561011b565b610064610150565b6100c4610196565b604080516001600160a01b039092168252519081900360200190f35b60005481565b6001546001600160a01b031633146100fd57600080fd5b610115670de0b6b3a76400008263ffffffff6101a516565b60005550565b6001546001600160a01b0316331461013257600080fd5b60018054911515600160a01b0260ff60a01b19909216919091179055565b600154600090600160a01b900460ff161561016d57506000610193565b600054610190906ec097ce7bc90715b34b9f10000000009063ffffffff6101a516565b90505b90565b6001546001600160a01b031681565b60006101e783836040518060400160405280601a81526020017f536166654d6174683a206469766973696f6e206279207a65726f0000000000008152506101ee565b9392505050565b6000818361027a5760405162461bcd60e51b81526004018080602001828103825283818151815260200191508051906020019080838360005b8381101561023f578181015183820152602001610227565b50505050905090810190601f16801561026c5780820380516001836020036101000a031916815260200191505b509250505060405180910390fd5b50600083858161028657fe5b049594505050505056fea265627a7a723158203fd74d7cc45c710d0110d48526d295895cfa1d663581ca6f3766ccfbfd71874d64736f6c63430005110032",
  "linkReferences": {},
  "deployedLinkReferences": {}
}