{
  "_format": "hh-sol-artifact-1",
  "contractName": "Governance",
  "sourceName": "contracts/NexusMutual/modules/governance/Governance.sol",
  "abi": [
    {
      "anonymous": false,
      "inputs": [
        {
          "indexed": false,
          "internalType": "uint256",
          "name": "proposalId",
          "type": "uint256"
        }
      ],
      "name": "ActionFailed",
      "type": "event"
    },
    {
      "anonymous": false,
      "inputs": [
        {
          "indexed": true,
          "internalType": "uint256",
          "name": "proposalId",
          "type": "uint256"
        },
        {
          "indexed": false,
          "internalType": "address",
          "name": "rejectedBy",
          "type": "address"
        }
      ],
      "name": "ActionRejected",
      "type": "event"
    },
    {
      "anonymous": false,
      "inputs": [
        {
          "indexed": false,
          "internalType": "uint256",
          "name": "proposalId",
          "type": "uint256"
        }
      ],
      "name": "ActionSuccess",
      "type": "event"
    },
    {
      "anonymous": false,
      "inputs": [
        {
          "indexed": true,
          "internalType": "uint256",
          "name": "proposalId",
          "type": "uint256"
        },
        {
          "indexed": false,
          "internalType": "uint256",
          "name": "time",
          "type": "uint256"
        }
      ],
      "name": "CloseProposalOnTime",
      "type": "event"
    },
    {
      "anonymous": false,
      "inputs": [
        {
          "indexed": true,
          "internalType": "address",
          "name": "proposalOwner",
          "type": "address"
        },
        {
          "indexed": true,
          "internalType": "uint256",
          "name": "proposalId",
          "type": "uint256"
        },
        {
          "indexed": false,
          "internalType": "uint256",
          "name": "dateAdd",
          "type": "uint256"
        },
        {
          "indexed": false,
          "internalType": "string",
          "name": "proposalTitle",
          "type": "string"
        },
        {
          "indexed": false,
          "internalType": "string",
          "name": "proposalSD",
          "type": "string"
        },
        {
          "indexed": false,
          "internalType": "string",
          "name": "proposalDescHash",
          "type": "string"
        }
      ],
      "name": "Proposal",
      "type": "event"
    },
    {
      "anonymous": false,
      "inputs": [
        {
          "indexed": false,
          "internalType": "uint256",
          "name": "proposalId",
          "type": "uint256"
        }
      ],
      "name": "ProposalAccepted",
      "type": "event"
    },
    {
      "anonymous": false,
      "inputs": [
        {
          "indexed": true,
          "internalType": "uint256",
          "name": "proposalId",
          "type": "uint256"
        },
        {
          "indexed": true,
          "internalType": "address",
          "name": "categorizedBy",
          "type": "address"
        },
        {
          "indexed": false,
          "internalType": "uint256",
          "name": "categoryId",
          "type": "uint256"
        }
      ],
      "name": "ProposalCategorized",
      "type": "event"
    },
    {
      "anonymous": false,
      "inputs": [
        {
          "indexed": true,
          "internalType": "address",
          "name": "member",
          "type": "address"
        },
        {
          "indexed": false,
          "internalType": "uint256",
          "name": "gbtReward",
          "type": "uint256"
        }
      ],
      "name": "RewardClaimed",
      "type": "event"
    },
    {
      "anonymous": false,
      "inputs": [
        {
          "indexed": true,
          "internalType": "uint256",
          "name": "proposalId",
          "type": "uint256"
        },
        {
          "indexed": true,
          "internalType": "address",
          "name": "solutionOwner",
          "type": "address"
        },
        {
          "indexed": true,
          "internalType": "uint256",
          "name": "solutionId",
          "type": "uint256"
        },
        {
          "indexed": false,
          "internalType": "string",
          "name": "solutionDescHash",
          "type": "string"
        },
        {
          "indexed": false,
          "internalType": "uint256",
          "name": "dateAdd",
          "type": "uint256"
        }
      ],
      "name": "Solution",
      "type": "event"
    },
    {
      "anonymous": false,
      "inputs": [
        {
          "indexed": true,
          "internalType": "address",
          "name": "from",
          "type": "address"
        },
        {
          "indexed": true,
          "internalType": "uint256",
          "name": "proposalId",
          "type": "uint256"
        },
        {
          "indexed": true,
          "internalType": "uint256",
          "name": "voteId",
          "type": "uint256"
        },
        {
          "indexed": false,
          "internalType": "uint256",
          "name": "dateAdd",
          "type": "uint256"
        },
        {
          "indexed": false,
          "internalType": "uint256",
          "name": "solutionChosen",
          "type": "uint256"
        }
      ],
      "name": "Vote",
      "type": "event"
    },
    {
      "anonymous": false,
      "inputs": [
        {
          "indexed": false,
          "internalType": "uint256",
          "name": "proposalId",
          "type": "uint256"
        }
      ],
      "name": "VoteCast",
      "type": "event"
    },
    {
      "constant": true,
      "inputs": [
        {
          "internalType": "uint256",
          "name": "",
          "type": "uint256"
        }
      ],
      "name": "allDelegation",
      "outputs": [
        {
          "internalType": "address",
          "name": "follower",
          "type": "address"
        },
        {
          "internalType": "address",
          "name": "leader",
          "type": "address"
        },
        {
          "internalType": "uint256",
          "name": "lastUpd",
          "type": "uint256"
        }
      ],
      "payable": false,
      "stateMutability": "view",
      "type": "function"
    },
    {
      "constant": true,
      "inputs": [],
      "name": "allowedToCatgorize",
      "outputs": [
        {
          "internalType": "uint256",
          "name": "roleId",
          "type": "uint256"
        }
      ],
      "payable": false,
      "stateMutability": "view",
      "type": "function"
    },
    {
      "constant": true,
      "inputs": [
        {
          "internalType": "uint256",
          "name": "category",
          "type": "uint256"
        }
      ],
      "name": "allowedToCreateProposal",
      "outputs": [
        {
          "internalType": "bool",
          "name": "check",
          "type": "bool"
        }
      ],
      "payable": false,
      "stateMutability": "view",
      "type": "function"
    },
    {
      "constant": true,
      "inputs": [
        {
          "internalType": "address",
          "name": "_add",
          "type": "address"
        }
      ],
      "name": "alreadyDelegated",
      "outputs": [
        {
          "internalType": "bool",
          "name": "delegated",
          "type": "bool"
        }
      ],
      "payable": false,
      "stateMutability": "view",
      "type": "function"
    },
    {
      "constant": true,
      "inputs": [
        {
          "internalType": "uint256",
          "name": "_proposalId",
          "type": "uint256"
        }
      ],
      "name": "canCloseProposal",
      "outputs": [
        {
          "internalType": "uint256",
          "name": "",
          "type": "uint256"
        }
      ],
      "payable": false,
      "stateMutability": "view",
      "type": "function"
    },
    {
      "constant": false,
      "inputs": [
        {
          "internalType": "uint256",
          "name": "_proposalId",
          "type": "uint256"
        },
        {
          "internalType": "uint256",
          "name": "_categoryId",
          "type": "uint256"
        },
        {
          "internalType": "uint256",
          "name": "_incentive",
          "type": "uint256"
        }
      ],
      "name": "categorizeProposal",
      "outputs": [],
      "payable": false,
      "stateMutability": "nonpayable",
      "type": "function"
    },
    {
      "constant": false,
      "inputs": [],
      "name": "changeDependentContractAddress",
      "outputs": [],
      "payable": false,
      "stateMutability": "nonpayable",
      "type": "function"
    },
    {
      "constant": false,
      "inputs": [
        {
          "internalType": "address",
          "name": "_masterAddress",
          "type": "address"
        }
      ],
      "name": "changeMasterAddress",
      "outputs": [],
      "payable": false,
      "stateMutability": "nonpayable",
      "type": "function"
    },
    {
      "constant": false,
      "inputs": [
        {
          "internalType": "address",
          "name": "_memberAddress",
          "type": "address"
        },
        {
          "internalType": "uint256",
          "name": "_maxRecords",
          "type": "uint256"
        }
      ],
      "name": "claimReward",
      "outputs": [
        {
          "internalType": "uint256",
          "name": "pendingDAppReward",
          "type": "uint256"
        }
      ],
      "payable": false,
      "stateMutability": "nonpayable",
      "type": "function"
    },
    {
      "constant": false,
      "inputs": [
        {
          "internalType": "uint256",
          "name": "_proposalId",
          "type": "uint256"
        }
      ],
      "name": "closeProposal",
      "outputs": [],
      "payable": false,
      "stateMutability": "nonpayable",
      "type": "function"
    },
    {
      "constant": false,
      "inputs": [
        {
          "internalType": "string",
          "name": "_proposalTitle",
          "type": "string"
        },
        {
          "internalType": "string",
          "name": "_proposalSD",
          "type": "string"
        },
        {
          "internalType": "string",
          "name": "_proposalDescHash",
          "type": "string"
        },
        {
          "internalType": "uint256",
          "name": "_categoryId",
          "type": "uint256"
        }
      ],
      "name": "createProposal",
      "outputs": [],
      "payable": false,
      "stateMutability": "nonpayable",
      "type": "function"
    },
    {
      "constant": false,
      "inputs": [
        {
          "internalType": "string",
          "name": "_proposalTitle",
          "type": "string"
        },
        {
          "internalType": "string",
          "name": "_proposalSD",
          "type": "string"
        },
        {
          "internalType": "string",
          "name": "_proposalDescHash",
          "type": "string"
        },
        {
          "internalType": "uint256",
          "name": "_categoryId",
          "type": "uint256"
        },
        {
          "internalType": "string",
          "name": "_solutionHash",
          "type": "string"
        },
        {
          "internalType": "bytes",
          "name": "_action",
          "type": "bytes"
        }
      ],
      "name": "createProposalwithSolution",
      "outputs": [],
      "payable": false,
      "stateMutability": "nonpayable",
      "type": "function"
    },
    {
      "constant": false,
      "inputs": [
        {
          "internalType": "address",
          "name": "_add",
          "type": "address"
        }
      ],
      "name": "delegateVote",
      "outputs": [],
      "payable": false,
      "stateMutability": "nonpayable",
      "type": "function"
    },
    {
      "constant": true,
      "inputs": [
        {
          "internalType": "address",
          "name": "",
          "type": "address"
        }
      ],
      "name": "followerDelegation",
      "outputs": [
        {
          "internalType": "uint256",
          "name": "",
          "type": "uint256"
        }
      ],
      "payable": false,
      "stateMutability": "view",
      "type": "function"
    },
    {
      "constant": true,
      "inputs": [
        {
          "internalType": "address",
          "name": "_add",
          "type": "address"
        }
      ],
      "name": "getFollowers",
      "outputs": [
        {
          "internalType": "uint256[]",
          "name": "",
          "type": "uint256[]"
        }
      ],
      "payable": false,
      "stateMutability": "view",
      "type": "function"
    },
    {
      "constant": true,
      "inputs": [
        {
          "internalType": "address",
          "name": "_memberAddress",
          "type": "address"
        }
      ],
      "name": "getPendingReward",
      "outputs": [
        {
          "internalType": "uint256",
          "name": "pendingDAppReward",
          "type": "uint256"
        }
      ],
      "payable": false,
      "stateMutability": "view",
      "type": "function"
    },
    {
      "constant": true,
      "inputs": [],
      "name": "getProposalLength",
      "outputs": [
        {
          "internalType": "uint256",
          "name": "",
          "type": "uint256"
        }
      ],
      "payable": false,
      "stateMutability": "view",
      "type": "function"
    },
    {
      "constant": true,
      "inputs": [
        {
          "internalType": "uint256",
          "name": "_proposalId",
          "type": "uint256"
        },
        {
          "internalType": "uint256",
          "name": "_solution",
          "type": "uint256"
        }
      ],
      "name": "getSolutionAction",
      "outputs": [
        {
          "internalType": "uint256",
          "name": "",
          "type": "uint256"
        },
        {
          "internalType": "bytes",
          "name": "",
          "type": "bytes"
        }
      ],
      "payable": false,
      "stateMutability": "view",
      "type": "function"
    },
    {
      "constant": true,
      "inputs": [
        {
          "internalType": "bytes8",
          "name": "code",
          "type": "bytes8"
        }
      ],
      "name": "getUintParameters",
      "outputs": [
        {
          "internalType": "bytes8",
          "name": "codeVal",
          "type": "bytes8"
        },
        {
          "internalType": "uint256",
          "name": "val",
          "type": "uint256"
        }
      ],
      "payable": false,
      "stateMutability": "view",
      "type": "function"
    },
    {
      "constant": true,
      "inputs": [
        {
          "internalType": "address",
          "name": "",
          "type": "address"
        }
      ],
      "name": "isOpenForDelegation",
      "outputs": [
        {
          "internalType": "bool",
          "name": "",
          "type": "bool"
        }
      ],
      "payable": false,
      "stateMutability": "view",
      "type": "function"
    },
    {
      "constant": true,
      "inputs": [
        {
          "internalType": "address",
          "name": "",
          "type": "address"
        }
      ],
      "name": "lastRewardClaimed",
      "outputs": [
        {
          "internalType": "uint256",
          "name": "",
          "type": "uint256"
        }
      ],
      "payable": false,
      "stateMutability": "view",
      "type": "function"
    },
    {
      "constant": true,
      "inputs": [
        {
          "internalType": "address",
          "name": "",
          "type": "address"
        },
        {
          "internalType": "uint256",
          "name": "",
          "type": "uint256"
        }
      ],
      "name": "memberProposalVote",
      "outputs": [
        {
          "internalType": "uint256",
          "name": "",
          "type": "uint256"
        }
      ],
      "payable": false,
      "stateMutability": "view",
      "type": "function"
    },
    {
      "constant": true,
      "inputs": [],
      "name": "ms",
      "outputs": [
        {
          "internalType": "contract INXMMaster",
          "name": "",
          "type": "address"
        }
      ],
      "payable": false,
      "stateMutability": "view",
      "type": "function"
    },
    {
      "constant": true,
      "inputs": [],
      "name": "nxMasterAddress",
      "outputs": [
        {
          "internalType": "address",
          "name": "",
          "type": "address"
        }
      ],
      "payable": false,
      "stateMutability": "view",
      "type": "function"
    },
    {
      "constant": true,
      "inputs": [
        {
          "internalType": "uint256",
          "name": "_proposalId",
          "type": "uint256"
        }
      ],
      "name": "proposal",
      "outputs": [
        {
          "internalType": "uint256",
          "name": "proposalId",
          "type": "uint256"
        },
        {
          "internalType": "uint256",
          "name": "category",
          "type": "uint256"
        },
        {
          "internalType": "uint256",
          "name": "status",
          "type": "uint256"
        },
        {
          "internalType": "uint256",
          "name": "finalVerdict",
          "type": "uint256"
        },
        {
          "internalType": "uint256",
          "name": "totalRewar",
          "type": "uint256"
        }
      ],
      "payable": false,
      "stateMutability": "view",
      "type": "function"
    },
    {
      "constant": true,
      "inputs": [
        {
          "internalType": "uint256",
          "name": "",
          "type": "uint256"
        }
      ],
      "name": "proposalActionStatus",
      "outputs": [
        {
          "internalType": "uint256",
          "name": "",
          "type": "uint256"
        }
      ],
      "payable": false,
      "stateMutability": "view",
      "type": "function"
    },
    {
      "constant": true,
      "inputs": [
        {
          "internalType": "uint256",
          "name": "_proposalId",
          "type": "uint256"
        }
      ],
      "name": "proposalDetails",
      "outputs": [
        {
          "internalType": "uint256",
          "name": "",
          "type": "uint256"
        },
        {
          "internalType": "uint256",
          "name": "",
          "type": "uint256"
        },
        {
          "internalType": "uint256",
          "name": "",
          "type": "uint256"
        }
      ],
      "payable": false,
      "stateMutability": "view",
      "type": "function"
    },
    {
      "constant": true,
      "inputs": [
        {
          "internalType": "uint256",
          "name": "",
          "type": "uint256"
        },
        {
          "internalType": "address",
          "name": "",
          "type": "address"
        }
      ],
      "name": "proposalRejectedByAB",
      "outputs": [
        {
          "internalType": "bool",
          "name": "",
          "type": "bool"
        }
      ],
      "payable": false,
      "stateMutability": "view",
      "type": "function"
    },
    {
      "constant": true,
      "inputs": [
        {
          "internalType": "uint256",
          "name": "",
          "type": "uint256"
        }
      ],
      "name": "proposalVoteTally",
      "outputs": [
        {
          "internalType": "uint256",
          "name": "voters",
          "type": "uint256"
        }
      ],
      "payable": false,
      "stateMutability": "view",
      "type": "function"
    },
    {
      "constant": false,
      "inputs": [
        {
          "internalType": "uint256",
          "name": "_proposalId",
          "type": "uint256"
        }
      ],
      "name": "rejectAction",
      "outputs": [],
      "payable": false,
      "stateMutability": "nonpayable",
      "type": "function"
    },
    {
      "constant": false,
      "inputs": [
        {
          "internalType": "address",
          "name": "_add",
          "type": "address"
        }
      ],
      "name": "removeDelegation",
      "outputs": [],
      "payable": false,
      "stateMutability": "nonpayable",
      "type": "function"
    },
    {
      "constant": true,
      "inputs": [
        {
          "internalType": "uint256",
          "name": "",
          "type": "uint256"
        },
        {
          "internalType": "address",
          "name": "",
          "type": "address"
        }
      ],
      "name": "rewardClaimed",
      "outputs": [
        {
          "internalType": "bool",
          "name": "",
          "type": "bool"
        }
      ],
      "payable": false,
      "stateMutability": "view",
      "type": "function"
    },
    {
      "constant": false,
      "inputs": [
        {
          "internalType": "bool",
          "name": "_status",
          "type": "bool"
        }
      ],
      "name": "setDelegationStatus",
      "outputs": [],
      "payable": false,
      "stateMutability": "nonpayable",
      "type": "function"
    },
    {
      "constant": false,
      "inputs": [],
      "name": "setInitialActionParameters",
      "outputs": [],
      "payable": false,
      "stateMutability": "nonpayable",
      "type": "function"
    },
    {
      "constant": false,
      "inputs": [
        {
          "internalType": "uint256",
          "name": "_proposalId",
          "type": "uint256"
        },
        {
          "internalType": "string",
          "name": "_solutionHash",
          "type": "string"
        },
        {
          "internalType": "bytes",
          "name": "_action",
          "type": "bytes"
        }
      ],
      "name": "submitProposalWithSolution",
      "outputs": [],
      "payable": false,
      "stateMutability": "nonpayable",
      "type": "function"
    },
    {
      "constant": false,
      "inputs": [
        {
          "internalType": "uint256",
          "name": "_proposalId",
          "type": "uint256"
        },
        {
          "internalType": "uint256",
          "name": "_solutionChosen",
          "type": "uint256"
        }
      ],
      "name": "submitVote",
      "outputs": [],
      "payable": false,
      "stateMutability": "nonpayable",
      "type": "function"
    },
    {
      "constant": true,
      "inputs": [],
      "name": "tokenHoldingTime",
      "outputs": [
        {
          "internalType": "uint256",
          "name": "",
          "type": "uint256"
        }
      ],
      "payable": false,
      "stateMutability": "view",
      "type": "function"
    },
    {
      "constant": false,
      "inputs": [
        {
          "internalType": "uint256",
          "name": "_proposalId",
          "type": "uint256"
        }
      ],
      "name": "triggerAction",
      "outputs": [],
      "payable": false,
      "stateMutability": "nonpayable",
      "type": "function"
    },
    {
      "constant": false,
      "inputs": [],
      "name": "unDelegate",
      "outputs": [],
      "payable": false,
      "stateMutability": "nonpayable",
      "type": "function"
    },
    {
      "constant": false,
      "inputs": [
        {
          "internalType": "uint256",
          "name": "_proposalId",
          "type": "uint256"
        },
        {
          "internalType": "string",
          "name": "_proposalTitle",
          "type": "string"
        },
        {
          "internalType": "string",
          "name": "_proposalSD",
          "type": "string"
        },
        {
          "internalType": "string",
          "name": "_proposalDescHash",
          "type": "string"
        }
      ],
      "name": "updateProposal",
      "outputs": [],
      "payable": false,
      "stateMutability": "nonpayable",
      "type": "function"
    },
    {
      "constant": false,
      "inputs": [
        {
          "internalType": "bytes8",
          "name": "code",
          "type": "bytes8"
        },
        {
          "internalType": "uint256",
          "name": "val",
          "type": "uint256"
        }
      ],
      "name": "updateUintParameters",
      "outputs": [],
      "payable": false,
      "stateMutability": "nonpayable",
      "type": "function"
    },
    {
      "constant": true,
      "inputs": [
        {
          "internalType": "uint256",
          "name": "_proposalId",
          "type": "uint256"
        },
        {
          "internalType": "uint256",
          "name": "_solution",
          "type": "uint256"
        }
      ],
      "name": "voteTallyData",
      "outputs": [
        {
          "internalType": "uint256",
          "name": "",
          "type": "uint256"
        },
        {
          "internalType": "uint256",
          "name": "",
          "type": "uint256"
        },
        {
          "internalType": "uint256",
          "name": "",
          "type": "uint256"
        }
      ],
      "payable": false,
      "stateMutability": "view",
      "type": "function"
    }
  ],
  "bytecode": "0x608060405234801561001057600080fd5b506160e680620000216000396000f3fe608060405234801561001057600080fd5b506004361061025e5760003560e01c80637287078611610146578063c2fe2022116100c3578063e0429d0911610087578063e0429d0914610b68578063e3b34c8814610b8e578063eeff918814610ca3578063f0466c7314610cc0578063f17a3bec14610ce6578063fa17e84d14610cee5761025e565b8063c2fe202214610a81578063c5d2eade14610af7578063cc0c886f14610b14578063d46655f414610b1c578063d5950ad114610b425761025e565b8063a0b2d57f1161010a578063a0b2d57f146109cb578063aaf86c30146109ef578063b31e1d4d146109f7578063bb73c56214610a1d578063bcc81c0c14610a645761025e565b8063728707861461088e578063787112a6146109535780638263a938146109795780639dd86e0f146109815780639ed1c7db146109ae5761025e565b8063207008f6116101df5780634c15676b116101a35780634c15676b146106975780634df9d6ba146107a557806353fb6c5c146107cb5780636122f840146107f75780636edde0bd146108425780636f93bfb71461086b5761025e565b8063207008f6146105695780632b4b16b1146105885780632f54243a146105a557806330326c171461064757806339bb96071461068f5761025e565b806316e9eaec1161022657806316e9eaec1461034957806316fdc34e14610366578063174e31c4146105185780631d35ab49146105445780631eef225c146105615761025e565b80630386a01614610263578063060225f6146102825780630852a6e3146102c05780630ea9c984146103005780630fec1dec14610308575b600080fd5b6102806004803603602081101561027957600080fd5b5035610d14565b005b6102ae6004803603604081101561029857600080fd5b506001600160a01b038135169060200135610ef9565b60408051918252519081900360200190f35b6102ec600480360360408110156102d657600080fd5b50803590602001356001600160a01b0316610f16565b604080519115158252519081900360200190f35b610280610f36565b61032b6004803603604081101561031e57600080fd5b50803590602001356110ee565b60408051938452602084019290925282820152519081900360600190f35b61032b6004803603602081101561035f57600080fd5b5035611122565b610280600480360360c081101561037c57600080fd5b810190602081018135600160201b81111561039657600080fd5b8201836020820111156103a857600080fd5b803590602001918460018302840111600160201b831117156103c957600080fd5b919390929091602081019035600160201b8111156103e657600080fd5b8201836020820111156103f857600080fd5b803590602001918460018302840111600160201b8311171561041957600080fd5b919390929091602081019035600160201b81111561043657600080fd5b82018360208201111561044857600080fd5b803590602001918460018302840111600160201b8311171561046957600080fd5b91939092823592604081019060200135600160201b81111561048a57600080fd5b82018360208201111561049c57600080fd5b803590602001918460018302840111600160201b831117156104bd57600080fd5b919390929091602081019035600160201b8111156104da57600080fd5b8201836020820111156104ec57600080fd5b803590602001918460018302840111600160201b8311171561050d57600080fd5b509092509050611147565b6102ae6004803603604081101561052e57600080fd5b506001600160a01b0381351690602001356112ec565b6102ae6004803603602081101561055a57600080fd5b50356116ea565b6102806116fc565b6102806004803603602081101561057f57600080fd5b50351515611858565b6102806004803603602081101561059e57600080fd5b50356119c9565b6105c8600480360360408110156105bb57600080fd5b5080359060200135611d19565b6040518083815260200180602001828103825283818151815260200191508051906020019080838360005b8381101561060b5781810151838201526020016105f3565b50505050905090810190601f1680156106385780820380516001836020036101000a031916815260200191505b50935050505060405180910390f35b6106646004803603602081101561065d57600080fd5b5035611ddc565b6040805195865260208601949094528484019290925260608401526080830152519081900360a00190f35b6102ae611e05565b610280600480360360808110156106ad57600080fd5b810190602081018135600160201b8111156106c757600080fd5b8201836020820111156106d957600080fd5b803590602001918460018302840111600160201b831117156106fa57600080fd5b919390929091602081019035600160201b81111561071757600080fd5b82018360208201111561072957600080fd5b803590602001918460018302840111600160201b8311171561074a57600080fd5b919390929091602081019035600160201b81111561076757600080fd5b82018360208201111561077957600080fd5b803590602001918460018302840111600160201b8311171561079a57600080fd5b919350915035611e0b565b6102ae600480360360208110156107bb57600080fd5b50356001600160a01b0316611fbc565b6102ec600480360360408110156107e157600080fd5b50803590602001356001600160a01b031661226c565b61081e6004803603602081101561080d57600080fd5b50356001600160c01b03191661228c565b604080516001600160c01b0319909316835260208301919091528051918290030190f35b6102806004803603606081101561085857600080fd5b50803590602081013590604001356123d3565b6102806004803603604081101561088157600080fd5b50803590602001356124c0565b610280600480360360608110156108a457600080fd5b81359190810190604081016020820135600160201b8111156108c557600080fd5b8201836020820111156108d757600080fd5b803590602001918460018302840111600160201b831117156108f857600080fd5b919390929091602081019035600160201b81111561091557600080fd5b82018360208201111561092757600080fd5b803590602001918460018302840111600160201b8311171561094857600080fd5b509092509050612539565b6102ae6004803603602081101561096957600080fd5b50356001600160a01b031661262e565b6102ae612640565b6102806004803603604081101561099757600080fd5b506001600160c01b03198135169060200135612647565b6102ec600480360360208110156109c457600080fd5b5035612826565b6109d3612a5d565b604080516001600160a01b039092168252519081900360200190f35b6102ae612a6c565b61028060048036036020811015610a0d57600080fd5b50356001600160a01b0316612a72565b610a3a60048036036020811015610a3357600080fd5b5035613077565b604080516001600160a01b0394851681529290931660208301528183015290519081900360600190f35b6102ae60048036036020811015610a7a57600080fd5b50356130b4565b610aa760048036036020811015610a9757600080fd5b50356001600160a01b03166133cf565b60408051602080825283518183015283519192839290830191858101910280838360005b83811015610ae3578181015183820152602001610acb565b505050509050019250505060405180910390f35b61028060048036036020811015610b0d57600080fd5b503561343b565b6102806134c6565b61028060048036036020811015610b3257600080fd5b50356001600160a01b031661356c565b6102ec60048036036020811015610b5857600080fd5b50356001600160a01b03166135f5565b6102ae60048036036020811015610b7e57600080fd5b50356001600160a01b031661360a565b61028060048036036080811015610ba457600080fd5b81359190810190604081016020820135600160201b811115610bc557600080fd5b820183602082011115610bd757600080fd5b803590602001918460018302840111600160201b83111715610bf857600080fd5b919390929091602081019035600160201b811115610c1557600080fd5b820183602082011115610c2757600080fd5b803590602001918460018302840111600160201b83111715610c4857600080fd5b919390929091602081019035600160201b811115610c6557600080fd5b820183602082011115610c7757600080fd5b803590602001918460018302840111600160201b83111715610c9857600080fd5b50909250905061361c565b6102ae60048036036020811015610cb957600080fd5b50356137cf565b61028060048036036020811015610cd657600080fd5b50356001600160a01b03166137e4565b6109d361386d565b6102ec60048036036020811015610d0457600080fd5b50356001600160a01b031661387c565b60008181526004602081905260408220600281015460165491909201549192914291610d46919063ffffffff61391816565b11158015610d6257506002600084815260046020526040902054105b15610d7857610d738360065b61397b565b610ef4565b610d81836130b4565b600114610d8d57600080fd5b601854600084815260046020819052604080832060020154815163253eca1f60e01b815292830152516001600160a01b039093169263253eca1f92602480840193919291829003018186803b158015610de557600080fd5b505afa158015610df9573d6000803e3d6000fd5b505050506040513d6000823e601f3d908101601f1916820160405260e0811015610e2257600080fd5b8151602083015160408085015160608601516080870180519351959794969295919491939282019284600160201b821115610e5c57600080fd5b908301906020820185811115610e7157600080fd5b82518660208202830111600160201b82111715610e8d57600080fd5b82525081516020918201928201910280838360005b83811015610eba578181015183820152602001610ea2565b50505050919091016040525095975060019650610ed995505050505050565b811415610eea57610d7383836139be565b610ef48383613bd4565b505050565b600860209081526000928352604080842090915290825290205481565b601c60209081526000928352604080842090915290825290205460ff1681565b6000809054906101000a90046001600160a01b03166001600160a01b0316633a12507f6040518163ffffffff1660e01b815260040160206040518083038186803b158015610f8357600080fd5b505afa158015610f97573d6000803e3d6000fd5b505050506040513d6020811015610fad57600080fd5b5051601980546001600160a01b0319166001600160a01b03928316179055600054604080516227050b60e31b81526126a960f11b6004820152905191909216916301382858916024808301926020929190829003018186803b15801561101257600080fd5b505afa158015611026573d6000803e3d6000fd5b505050506040513d602081101561103c57600080fd5b5051601780546001600160a01b0319166001600160a01b03928316179055600054604080516227050b60e31b815261504360f01b6004820152905191909216916301382858916024808301926020929190829003018186803b1580156110a157600080fd5b505afa1580156110b5573d6000803e3d6000fd5b505050506040513d60208110156110cb57600080fd5b5051601880546001600160a01b0319166001600160a01b03909216919091179055565b6000828152600c60208181526040808420948452848252808420546001860183529084205495909352526002909101549092565b600081815260056020908152604080832054600c909252909120600201549192909190565b8461115181612826565b611190576040805162461bcd60e51b815260206004820152600b60248201526a139bdd08185b1b1bddd95960aa1b604482015290519081900360640190fd5b601554604080516020601f8f018190048102820181019092528d815261125c918f908f9081908401838280828437600081840152601f19601f820116905080830192505050505050508c8c8080601f016020809104026020016040519081016040528093929190818152602001838380828437600081840152601f19601f820116905080830192505050505050508b8b8080601f0160208091040260200160405190810160405280939291908181526020018383808284376000920191909152508d9250614103915050565b6000871161126957600080fd5b6112dd8187878080601f01602080910402602001604051908101604052809392919081815260200183838082843760009201919091525050604080516020601f8b01819004810282018101909252898152925089915088908190840183828082843760009201919091525061438b92505050565b50505050505050505050505050565b60008054604080516227050b60e31b81526121a960f11b600482015290518392839283926001600160a01b0390921691630138285891602480820192602092909190829003018186803b15801561134257600080fd5b505afa158015611356573d6000803e3d6000fd5b505050506040513d602081101561136c57600080fd5b50516001600160a01b0316331461138257600080fd5b6001600160a01b0386166000908152600960205260409020546113a3615fd8565b600382815481106113b057fe5b600091825260209182902060408051606081018252600390930290910180546001600160a01b039081168452600182015416938301939093526002909201549181019190915290508115801590611413575060208101516001600160a01b031615155b1561142b57806020015193508060400151925061142f565b8793505b6001600160a01b03808516600090815260066020908152604080832054938c168352600e909152812054909190819083905b838110801561146f57508b82105b15611650576001600160a01b038916600090815260066020526040902080548290811061149857fe5b9060005260206000200154995060028a815481106114b257fe5b90600052602060002090600302016001015494506000600c60008781526020019081526020016000206002015411801561153757506010546114fb90899063ffffffff61391816565b60028b8154811061150857fe5b906000526020600020906003020160020154118061153757508c6001600160a01b0316896001600160a01b0316145b15611648576002600086815260046020526040902054111561163c57600760008b815260200190815260200160002060008e6001600160a01b03166001600160a01b0316815260200190815260200160002060009054906101000a900460ff16611637576000858152600c60209081526040808320600201546004909252909120600301546115dd916115d0919063ffffffff6146be16565b8c9063ffffffff61391816565b9a506001600760008c815260200190815260200160002060008f6001600160a01b03166001600160a01b0316815260200190815260200160002060006101000a81548160ff02191690831515021790555081806001019250505b611648565b83831415611648578092505b600101611461565b83831415611678576001600160a01b038d166000908152600e60205260409020819055611694565b6001600160a01b038d166000908152600e602052604090208390555b81156116da57604080518c815290516001600160a01b038f16917f106f923f993c2149d49b4255ff723acafa1f2d94393f561d3eda32ae348f7241919081900360200190a25b5050505050505050505092915050565b601a6020526000908152604090205481565b6000809054906101000a90046001600160a01b03166001600160a01b031663ff0938a76040518163ffffffff1660e01b815260040160206040518083038186803b15801561174957600080fd5b505afa15801561175d573d6000803e3d6000fd5b505050506040513d602081101561177357600080fd5b50511580156117fa57506000546040805163288c314960e21b815233600482015290516001600160a01b039092169163a230c52491602480820192602092909190829003018186803b1580156117c857600080fd5b505afa1580156117dc573d6000803e3d6000fd5b505050506040513d60208110156117f257600080fd5b505115156001145b61180357600080fd5b61180c33611fbc565b1561184d576040805162461bcd60e51b815260206004820152600c60248201526b10db185a5b481c995dd85c9960a21b604482015290519081900360640190fd5b61185633614700565b565b6000809054906101000a90046001600160a01b03166001600160a01b031663ff0938a76040518163ffffffff1660e01b815260040160206040518083038186803b1580156118a557600080fd5b505afa1580156118b9573d6000803e3d6000fd5b505050506040513d60208110156118cf57600080fd5b505115801561195657506000546040805163288c314960e21b815233600482015290516001600160a01b039092169163a230c52491602480820192602092909190829003018186803b15801561192457600080fd5b505afa158015611938573d6000803e3d6000fd5b505050506040513d602081101561194e57600080fd5b505115156001145b61195f57600080fd5b61196833611fbc565b156119a9576040805162461bcd60e51b815260206004820152600c60248201526b10db185a5b481c995dd85c9960a21b604482015290519081900360640190fd5b336000908152600d60205260409020805460ff1916911515919091179055565b6017546040805163505ef22f60e01b81523360048201526001602482015290516001600160a01b039092169163505ef22f91604480820192602092909190829003018186803b158015611a1b57600080fd5b505afa158015611a2f573d6000803e3d6000fd5b505050506040513d6020811015611a4557600080fd5b50518015611a6057506000818152601b602052604090205442105b611a6957600080fd5b60016000828152601a602052604090205414611a8457600080fd5b6000818152601c6020908152604080832033845290915290205460ff1615611aab57600080fd5b60408051600480825260248083018452602080840180516001600160e01b0316630c578f2360e41b17815293519093206018546000878152948490528585206002015486516357c7bec160e01b815294850152945190946001600160a01b0316936357c7bec1938084019391929190829003018186803b158015611b2e57600080fd5b505afa158015611b42573d6000803e3d6000fd5b505050506040513d6000823e601f3d908101601f191682016040526020811015611b6b57600080fd5b8101908080516040519392919084600160201b821115611b8a57600080fd5b908301906020820185811115611b9f57600080fd5b8251600160201b811182820188101715611bb857600080fd5b82525081516020918201929091019080838360005b83811015611be5578181015183820152602001611bcd565b50505050905090810190601f168015611c125780820380516001836020036101000a031916815260200191505b506040525050506040518082805190602001908083835b60208310611c485780518252601f199092019160209182019101611c29565b6001836020036101000a03801982511681845116808217855250505050505090500191505060405180910390201415611c8057600080fd5b6000818152601c6020908152604080832033808552908352818420805460ff19166001908117909155858552601d845293829020805490940190935580519283525183927f56bdda336a8bb949a57770a7cde5b62bd8913d11d9dde767735db889a609692f92908290030190a26000818152601d602052604090205460031415611d165760026000828152601a60205260409020555b50565b60008281526005602052604081208054606091849182908110611d3857fe5b600091825260209182902001805460408051601f600260001961010060018716150201909416939093049283018590048502810185019091528181529192839190830182828015611dca5780601f10611d9f57610100808354040283529160200191611dca565b820191906000526020600020905b815481529060010190602001808311611dad57829003601f168201915b50505050509050915091509250929050565b600081815260046020526040902060028101548154600183015460039093015493949193909291565b60105481565b80611e1581612826565b611e54576040805162461bcd60e51b815260206004820152600b60248201526a139bdd08185b1b1bddd95960aa1b604482015290519081900360640190fd5b6000546040805163288c314960e21b815233600482015290516001600160a01b039092169163a230c52491602480820192602092909190829003018186803b158015611e9f57600080fd5b505afa158015611eb3573d6000803e3d6000fd5b505050506040513d6020811015611ec957600080fd5b5051611f09576040805162461bcd60e51b815260206004820152600a6024820152692737ba1026b2b6b132b960b11b604482015290519081900360640190fd5b611fb288888080601f01602080910402602001604051908101604052809392919081815260200183838082843760009201919091525050604080516020601f8c018190048102820181019092528a815292508a915089908190840183828082843760009201919091525050604080516020601f8b018190048102820181019092528981529250899150889081908401838280828437600092019190915250889250614103915050565b5050505050505050565b6001600160a01b0381166000908152600960205260408120548180611fdf615fd8565b60038481548110611fec57fe5b600091825260209182902060408051606081018252600390930290910180546001600160a01b03908116845260018201541693830193909352600290920154918101919091529050831580159061204f575060208101516001600160a01b031615155b1561206757806020015192508060400151915061206b565b8592505b6001600160a01b0386166000908152600e60205260408120545b6001600160a01b038516600090815260066020526040902054811015612261576010546120b990859063ffffffff61391816565b6001600160a01b0386166000908152600660205260409020805460029190849081106120e157fe5b9060005260206000200154815481106120f657fe5b90600052602060002090600302016002015411806121255750876001600160a01b0316856001600160a01b0316145b15612259576001600160a01b0385166000908152600660205260408120805460079291908490811061215357fe5b6000918252602080832090910154835282810193909352604091820181206001600160a01b038c16825290925290205460ff16612259576001600160a01b0385166000908152600660205260409020805460029190839081106121b257fe5b9060005260206000200154815481106121c757fe5b90600052602060002090600302016001015491506000600c60008481526020019081526020016000206002015411801561220f57506002600083815260046020526040902054115b15612259576000828152600c602090815260408083206002015460049092529091206003015461225691612249919063ffffffff6146be16565b889063ffffffff61391816565b96505b600101612085565b505050505050919050565b600760209081526000928352604080842090915290825290205460ff1681565b8060006611d3d59213d31160ca1b6001600160c01b0319831614156122c15762015180601054816122b957fe5b0490506123ce565b651350561193d360d21b6001600160c01b0319841614156122e557506014546123ce565b661350561114919560ca1b6001600160c01b03198416141561230f5762015180601654816122b957fe5b65455054494d4560d01b6001600160c01b0319841614156123a4576000546040805163015cb3ff60e01b8152905162015180926001600160a01b03169163015cb3ff916004808301926020929190829003018186803b15801561237157600080fd5b505afa158015612385573d6000803e3d6000fd5b505050506040513d602081101561239b57600080fd5b5051816122b957fe5b631050d5d560e21b6001600160c01b0319841614156123ce57610e10601f54816123ca57fe5b0490505b915091565b826002600082815260046020526040902054106123ef57600080fd5b6017546011546040805163505ef22f60e01b81523360048201526024810192909252516001600160a01b039092169163505ef22f91604480820192602092909190829003018186803b15801561244457600080fd5b505afa158015612458573d6000803e3d6000fd5b505050506040513d602081101561246e57600080fd5b50516124af576040805162461bcd60e51b815260206004820152600b60248201526a139bdd08185b1b1bddd95960aa1b604482015290519081900360640190fd5b6124ba84848461483b565b50505050565b600260008381526004602052604090205414612511576040805162461bcd60e51b815260206004820152600b60248201526a139bdd08185b1b1bddd95960aa1b604482015290519081900360640190fd5b600082815260056020526040902054811061252b57600080fd5b6125358282614964565b5050565b60008581526004602052604090206005015485906001600160a01b03163314612597576040805162461bcd60e51b815260206004820152600b60248201526a139bdd08185b1b1bddd95960aa1b604482015290519081900360640190fd5b6001600087815260046020526040902054146125b257600080fd5b6126268686868080601f01602080910402602001604051908101604052809392919081815260200183838082843760009201919091525050604080516020601f8a01819004810282018101909252888152925088915087908190840183828082843760009201919091525061438b92505050565b505050505050565b60096020526000908152604090205481565b6015545b90565b60005460408051632c1a733d60e11b815233600482015290516001600160a01b0390921691635834e67a91602480820192602092909190829003018186803b15801561269257600080fd5b505afa1580156126a6573d6000803e3d6000fd5b505050506040513d60208110156126bc57600080fd5b50516126c757600080fd5b6611d3d59213d31160ca1b6001600160c01b0319831614156126f157620151808102601055612535565b651350561193d360d21b6001600160c01b031983161415612716576014819055612535565b661350561114919560ca1b6001600160c01b03198316141561274057620151808102601655612535565b65455054494d4560d01b6001600160c01b0319831614156127c4576000805460408051631e376fb560e21b8152620151808502600482015290516001600160a01b03909216926378ddbed49260248084019382900301818387803b1580156127a757600080fd5b505af11580156127bb573d6000803e3d6000fd5b50505050612535565b631050d5d560e21b6001600160c01b0319831614156127ea57610e108102601f55612535565b6040805162461bcd60e51b815260206004820152600c60248201526b496e76616c696420636f646560a01b604482015290519081900360640190fd5b60008161283557506001612a58565b6018546040805163253eca1f60e01b81526004810185905290516060926001600160a01b03169163253eca1f916024808301926000929190829003018186803b15801561288157600080fd5b505afa158015612895573d6000803e3d6000fd5b505050506040513d6000823e601f3d908101601f1916820160405260e08110156128be57600080fd5b8151602083015160408085015160608601516080870180519351959794969295919491939282019284600160201b8211156128f857600080fd5b90830190602082018581111561290d57600080fd5b82518660208202830111600160201b8211171561292957600080fd5b82525081516020918201928201910280838360005b8381101561295657818101518382015260200161293e565b505050509190910160405250929750600096505050505050505b8151811015612a555781818151811061298557fe5b602002602001015160001480612a3d575060175482516001600160a01b039091169063505ef22f9033908590859081106129bb57fe5b60200260200101516040518363ffffffff1660e01b815260040180836001600160a01b03166001600160a01b031681526020018281526020019250505060206040518083038186803b158015612a1057600080fd5b505afa158015612a24573d6000803e3d6000fd5b505050506040513d6020811015612a3a57600080fd5b50515b15612a4d57600192505050612a58565b600101612970565b50505b919050565b6000546001600160a01b031681565b60115490565b6000809054906101000a90046001600160a01b03166001600160a01b031663ff0938a76040518163ffffffff1660e01b815260040160206040518083038186803b158015612abf57600080fd5b505afa158015612ad3573d6000803e3d6000fd5b505050506040513d6020811015612ae957600080fd5b5051158015612b7057506000546040805163288c314960e21b815233600482015290516001600160a01b039092169163a230c52491602480820192602092909190829003018186803b158015612b3e57600080fd5b505afa158015612b52573d6000803e3d6000fd5b505050506040513d6020811015612b6857600080fd5b505115156001145b612b7957600080fd5b612b8233611fbc565b15612bc3576040805162461bcd60e51b815260206004820152600c60248201526b10db185a5b481c995dd85c9960a21b604482015290519081900360640190fd5b6000809054906101000a90046001600160a01b03166001600160a01b031663c15041d56040518163ffffffff1660e01b815260040160206040518083038186803b158015612c1057600080fd5b505afa158015612c24573d6000803e3d6000fd5b505050506040513d6020811015612c3a57600080fd5b5051612c4557600080fd5b6001600160a01b038116600090815260096020526040812054600380549091908110612c6d57fe5b60009182526020909120600160039092020101546001600160a01b031614612c9457600080fd5b3360009081526009602052604090205415612cfb5760105433600090815260096020526040902054600380544293612cf1939092918110612cd157fe5b90600052602060002090600302016002015461391890919063ffffffff16565b10612cfb57600080fd5b612d043361387c565b15612d0e57600080fd5b6017546040805163505ef22f60e01b81523360048201526003602482015290516001600160a01b039092169163505ef22f91604480820192602092909190829003018186803b158015612d6057600080fd5b505afa158015612d74573d6000803e3d6000fd5b505050506040513d6020811015612d8a57600080fd5b505115612d9657600080fd5b6017546040805163505ef22f60e01b81523360048201526001602482015290516001600160a01b039092169163505ef22f91604480820192602092909190829003018186803b158015612de857600080fd5b505afa158015612dfc573d6000803e3d6000fd5b505050506040513d6020811015612e1257600080fd5b505115612e1e57600080fd5b6014546001600160a01b0382166000908152600a602052604090205410612e4457600080fd5b3360009081526006602052604090205415612ea65760105433600090815260066020526040902080544292612e9c929091600291906000198101908110612e8757fe5b906000526020600020015481548110612cd157fe5b10612ea657600080fd5b6000546040805163288c314960e21b81526001600160a01b0384811660048301529151919092169163a230c524916024808301926020929190829003018186803b158015612ef357600080fd5b505afa158015612f07573d6000803e3d6000fd5b505050506040513d6020811015612f1d57600080fd5b5051612f2857600080fd5b6001600160a01b0381166000908152600d602052604090205460ff16612f4d57600080fd5b60408051606081018252338082526001600160a01b039384166020808401828152428587019081526003805460018181018355600083815298519183027fc2575a0e9e593c00f959f8c92f12db2869c3395a3b0502d05e2516446f71f85b81018054938d166001600160a01b031994851617905594517fc2575a0e9e593c00f959f8c92f12db2869c3395a3b0502d05e2516446f71f85c8601805491909c1692169190911790995590517fc2575a0e9e593c00f959f8c92f12db2869c3395a3b0502d05e2516446f71f85d909201919091558054848652600983528686206000199182019055838652600b835286862091548254808a0184559287528387209101910155908352600a815283832080549095019094556006845282822054908252600e9093522055565b6003818154811061308457fe5b60009182526020909120600390910201805460018201546002909201546001600160a01b03918216935091169083565b6000818152600460208190526040808320805481840154601854600290930154845163253eca1f60e01b8152958601529251929390928592839283926001600160a01b039092169163253eca1f916024808201928692909190829003018186803b15801561312157600080fd5b505afa158015613135573d6000803e3d6000fd5b505050506040513d6000823e601f3d908101601f1916820160405260e081101561315e57600080fd5b8151602083015160408085015160608601516080870180519351959794969295919491939282019284600160201b82111561319857600080fd5b9083019060208201858111156131ad57600080fd5b82518660208202830111600160201b821117156131c957600080fd5b82525081516020918201928201910280838360005b838110156131f65781810151838201526020016131de565b5050505091909101604052506020015199509497509295506002945061321c9350505050565b8414156133a05760175460408051630dc6f84760e01b81526004810185905290516000926001600160a01b031691630dc6f847916024808301926020929190829003018186803b15801561326f57600080fd5b505afa158015613283573d6000803e3d6000fd5b505050506040513d602081101561329957600080fd5b505190506001831415613358576000888152600c6020908152604080832060018085520190915290205482906132e89083906132dc90606463ffffffff614ffa16565b9063ffffffff6146be16565b10158061332557506000888152600c602090815260408083208380526001908101909252808320549183529091205482916133239190613918565b145b8061333f57504261333c878663ffffffff61391816565b11155b156133535760019650505050505050612a58565b61339a565b6000888152600c6020526040902060020154811480613386575042613383878663ffffffff61391816565b11155b1561339a5760019650505050505050612a58565b506133c5565b60028411156133b757600295505050505050612a58565b600095505050505050612a58565b5050505050919050565b6001600160a01b0381166000908152600b602090815260409182902080548351818402810184019094528084526060939283018282801561342f57602002820191906000526020600020905b81548152602001906001019080831161341b575b50505050509050919050565b60016000828152601a602052604090205414801561346757506000818152601b60205260409020544210155b6134a9576040805162461bcd60e51b815260206004820152600e60248201526d21b0b73737ba103a3934b3b3b2b960911b604482015290519081900360640190fd5b600081815260046020526040902060020154611d16908290615053565b600054604080516317aa5fb760e11b815233600482015290516001600160a01b0390921691632f54bf6e91602480820192602092909190829003018186803b15801561351157600080fd5b505afa158015613525573d6000803e3d6000fd5b505050506040513d602081101561353b57600080fd5b505161354657600080fd5b601e5460ff161561355657600080fd5b601e805460ff1916600117905562015180601f55565b6000546001600160a01b0316156135c9576000546001600160a01b031633146135c9576040805162461bcd60e51b815260206004820152600a6024820152692737ba1036b0b9ba32b960b11b604482015290519081900360640190fd5b600080546001600160a01b039092166001600160a01b0319928316811790915560018054909216179055565b600d6020526000908152604090205460ff1681565b600e6020526000908152604090205481565b60008781526004602052604090206005015487906001600160a01b0316331461367a576040805162461bcd60e51b815260206004820152600b60248201526a139bdd08185b1b1bddd95960aa1b604482015290519081900360640190fd5b6000888152600560205260409020546002116136cb576040805162461bcd60e51b815260206004820152600b60248201526a139bdd08185b1b1bddd95960aa1b604482015290519081900360640190fd5b600088815260046020908152604080832083815560028101849055600381019390935560059092015482514280825260809382018481529382018b90528c946001600160a01b03909316937f470106408ef1beec24fa0f364830357ef2a70d11457aa4eb9b30b1bbc0172abe9391928d928d928d928d928d928d929182016060830160a084018a8a80828437600083820152601f01601f191690910185810384528881526020019050888880828437600083820152601f01601f191690910185810383528681526020019050868680828437600083820152604051601f909101601f19169092018290039c50909a5050505050505050505050a35050505050505050565b600c6020526000908152604090206002015481565b600054604080516323c5b10760e21b815233600482015290516001600160a01b0390921691638f16c41c91602480820192602092909190829003018186803b15801561382f57600080fd5b505afa158015613843573d6000803e3d6000fd5b505050506040513d602081101561385957600080fd5b505161386457600080fd5b611d1681614700565b6001546001600160a01b031681565b6000805b6001600160a01b0383166000908152600b6020526040902054811015613912576001600160a01b0383166000818152600b60205260409020805460039190849081106138c857fe5b9060005260206000200154815481106138dd57fe5b60009182526020909120600160039092020101546001600160a01b0316141561390a576001915050612a58565b600101613880565b50919050565b600082820183811015613972576040805162461bcd60e51b815260206004820152601b60248201527f536166654d6174683a206164646974696f6e206f766572666c6f770000000000604482015290519081900360640190fd5b90505b92915050565b600481148061398a5750600681145b156139a15760046000838152601a60205260409020555b600091825260046020819052604090922042928101929092559055565b6018546040805163253eca1f60e01b81526004810184905290516000926001926001600160a01b039091169163253eca1f916024808201928792909190829003018186803b158015613a0f57600080fd5b505afa158015613a23573d6000803e3d6000fd5b505050506040513d6000823e601f3d908101601f1916820160405260e0811015613a4c57600080fd5b8151602083015160408085015160608601516080870180519351959794969295919491939282019284600160201b821115613a8657600080fd5b908301906020820185811115613a9b57600080fd5b82518660208202830111600160201b82111715613ab757600080fd5b82525081516020918201928201910280838360005b83811015613ae4578181015183820152602001613acc565b50505050919091016040525050601754949850889650613bb09550506001600160a01b039093169250630dc6f84791508590506003811115613b2257fe5b6040518263ffffffff1660e01b81526004018082815260200191505060206040518083038186803b158015613b5657600080fd5b505afa158015613b6a573d6000803e3d6000fd5b505050506040513d6020811015613b8057600080fd5b50516000878152600c602090815260408083206001808552019091529020546132dc90606463ffffffff614ffa16565b10613bc957613bc48460038560018561549f565b6124ba565b6124ba846006610d6e565b601854604080516307149ba360e01b815260048101849052905160009283926001600160a01b03909116916307149ba391602480820192606092909190829003018186803b158015613c2557600080fd5b505afa158015613c39573d6000803e3d6000fd5b505050506040513d6060811015613c4f57600080fd5b506020810151604090910151925090506001821415613de457601754600090613db290613d8690613d0090670de0b6b3a7640000906001600160a01b0316630dc6f84760026040518263ffffffff1660e01b81526004018082815260200191505060206040518083038186803b158015613cc857600080fd5b505afa158015613cdc573d6000803e3d6000fd5b505050506040513d6020811015613cf257600080fd5b50519063ffffffff614ffa16565b601960009054906101000a90046001600160a01b03166001600160a01b03166318160ddd6040518163ffffffff1660e01b815260040160206040518083038186803b158015613d4e57600080fd5b505afa158015613d62573d6000803e3d6000fd5b505050506040513d6020811015613d7857600080fd5b50519063ffffffff61391816565b6000878152600c60209081526040808320600184529091529020546132dc90606463ffffffff614ffa16565b90506013548110613dd357613dce8560035b866001600261549f565b613dde565b613dde856006610d6e565b50613ff5565b613dee8484615563565b15613fa4576018546040805163253eca1f60e01b81526004810186905290516000926001600160a01b03169163253eca1f9160248083019286929190829003018186803b158015613e3e57600080fd5b505afa158015613e52573d6000803e3d6000fd5b505050506040513d6000823e601f3d908101601f1916820160405260e0811015613e7b57600080fd5b8151602083015160408085015160608601516080870180519351959794969295919491939282019284600160201b821115613eb557600080fd5b908301906020820185811115613eca57600080fd5b82518660208202830111600160201b82111715613ee657600080fd5b82525081516020918201928201910280838360005b83811015613f13578181015183820152602001613efb565b5050505091909101604090815260008f8152600c60209081528282206001835290528181205481805291902054979a508a9950613f899850613f5d97965094505061391892505050565b6000888152600c60209081526040808320600184529091529020546132dc90606463ffffffff614ffa16565b10613f9957613dce856003613dc4565b613dde856004610d6e565b600081118015613fd057506017548190613fcd906001600160a01b0316630dc6f8476001613b22565b10155b15613fea57613fe5846003856001600261549f565b613ff5565b613ff5846006610d6e565b6000848152600c6020526040902060020154156124ba57601954600054604080516227050b60e31b81526121a960f11b600482015290516001600160a01b03938416936340c10f199316916301382858916024808301926020929190829003018186803b15801561406557600080fd5b505afa158015614079573d6000803e3d6000fd5b505050506040513d602081101561408f57600080fd5b505160008781526004602081905260408083206003015481516001600160e01b031960e088901b1681526001600160a01b039095169285019290925260248401919091525160448084019382900301818387803b1580156140ef57600080fd5b505af1158015611fb2573d6000803e3d6000fd5b60185460408051637800529760e01b81526004810184905290516001600160a01b0390921691637800529791602480820192602092909190829003018186803b15801561414f57600080fd5b505afa158015614163573d6000803e3d6000fd5b505050506040513d602081101561417957600080fd5b50511580614185575080155b61418e57600080fd5b6015546000818152600460208181526040808420600580820180546001600160a01b031916331790554291909401559181528183208054600181018083559185528285208451938401948590529285905290936141f093929091019190615ff8565b50506015805460010190556040805142808252608060208084018281528a51928501929092528951869533957f470106408ef1beec24fa0f364830357ef2a70d11457aa4eb9b30b1bbc0172abe95948d948d948d94840191606085019160a086019189019080838360005b8381101561427357818101518382015260200161425b565b50505050905090810190601f1680156142a05780820380516001836020036101000a031916815260200191505b50848103835286518152865160209182019188019080838360005b838110156142d35781810151838201526020016142bb565b50505050905090810190601f1680156143005780820380516001836020036101000a031916815260200191505b50848103825285518152855160209182019187019080838360005b8381101561433357818101518382015260200161431b565b50505050905090810190601f1680156143605780820380516001836020036101000a031916815260200191505b5097505050505050505060405180910390a38115614384576143848183600061483b565b5050505050565b60008381526004602081905260408083206002015460185482516357c7bec160e01b8152938401829052915190936001600160a01b03909216926357c7bec1926024808301939192829003018186803b1580156143e757600080fd5b505afa1580156143fb573d6000803e3d6000fd5b505050506040513d6000823e601f3d908101601f19168201604052602081101561442457600080fd5b8101908080516040519392919084600160201b82111561444357600080fd5b90830190602082018581111561445857600080fd5b8251600160201b81118282018810171561447157600080fd5b82525081516020918201929091019080838360005b8381101561449e578181015183820152602001614486565b50505050905090810190601f1680156144cb5780820380516001836020036101000a031916815260200191505b50604052505050516000141561451f57815160208301207fc5d2460186f7233c927e7db2dcc703c0e500b653ca82273b7bfad8045d85a4701461450d57600080fd5b60046000858152601a60205260409020555b61452a84838561574c565b614535846002610d6e565b6018546040805163253eca1f60e01b81526004810184905290516000926001600160a01b03169163253eca1f9160248083019286929190829003018186803b15801561458057600080fd5b505afa158015614594573d6000803e3d6000fd5b505050506040513d6000823e601f3d908101601f1916820160405260e08110156145bd57600080fd5b8151602083015160408085015160608601516080870180519351959794969295919491939282019284600160201b8211156145f757600080fd5b90830190602082018581111561460c57600080fd5b82518660208202830111600160201b8211171561462857600080fd5b82525081516020918201928201910280838360005b8381101561465557818101518382015260200161463d565b5050505091909101604052506020015197508b96507fc5be51db6c7799c3f641eecd22b62761981da3190ac6d1d306bc36724356625895506146a694508793504292505063ffffffff613918169050565b60408051918252519081900360200190a25050505050565b600061397283836040518060400160405280601a81526020017f536166654d6174683a206469766973696f6e206279207a65726f00000000000081525061584d565b6001600160a01b03811660009081526009602052604090205480156125355761476f6001600a60006003858154811061473557fe5b60009182526020808320600160039093020191909101546001600160a01b031683528201929092526040019020549063ffffffff6158ef16565b600a60006003848154811061478057fe5b60009182526020808320600392830201600101546001600160a01b0316845283019390935260409091018120929092558054839081106147bc57fe5b906000526020600020906003020160010160006101000a8154816001600160a01b0302191690836001600160a01b0316021790555042600382815481106147ff57fe5b60009182526020808320600260039093020191909101929092556001600160a01b038416815260068252604080822054600e9093529020555050565b6000821180156148c35750601860009054906101000a90046001600160a01b03166001600160a01b03166339275b0a6040518163ffffffff1660e01b815260040160206040518083038186803b15801561489457600080fd5b505afa1580156148a8573d6000803e3d6000fd5b505050506040513d60208110156148be57600080fd5b505182105b614907576040805162461bcd60e51b815260206004820152601060248201526f496e76616c69642063617465676f727960801b604482015290519081900360640190fd5b60008381526004602090815260409182902060028101859055600381018490556001905581518481529151339286927f5c0ed4086100f9e2c57a36b2c5ae3a1f991b2fd6af5a44cf0b9afb8a21796cdc92918290030190a3505050565b3360009081526009602090815260408083205460185486855260049384905282852060020154835163253eca1f60e01b8152948501529151909392839283926001600160a01b039091169163253eca1f9160248083019286929190829003018186803b1580156149d357600080fd5b505afa1580156149e7573d6000803e3d6000fd5b505050506040513d6000823e601f3d908101601f1916820160405260e0811015614a1057600080fd5b8151602083015160408085015160608601516080870180519351959794969295919491939282019284600160201b821115614a4a57600080fd5b908301906020820185811115614a5f57600080fd5b82518660208202830111600160201b82111715614a7b57600080fd5b82525081516020918201928201910280838360005b83811015614aa8578181015183820152602001614a90565b50505050905001604052602001805190602001909291908051906020019092919050505090919293949550909192509091505080935081945082955050505042614b1182600460008a81526020019081526020016000206004015461391890919063ffffffff16565b11614b4c576040805162461bcd60e51b815260206004820152600660248201526510db1bdcd95960d21b604482015290519081900360640190fd5b33600090815260086020908152604080832089845290915290205415614ba7576040805162461bcd60e51b815260206004820152600b60248201526a139bdd08185b1b1bddd95960aa1b604482015290519081900360640190fd5b831580614c1f5750600084118015614bf1575060006001600160a01b031660038581548110614bd257fe5b60009182526020909120600160039092020101546001600160a01b0316145b8015614c1f5750614c1f60038581548110614c0857fe5b906000526020600020906003020160020154615931565b614c2857600080fd5b6017546040805163505ef22f60e01b81523360048201526024810186905290516001600160a01b039092169163505ef22f91604480820192602092909190829003018186803b158015614c7a57600080fd5b505afa158015614c8e573d6000803e3d6000fd5b505050506040513d6020811015614ca457600080fd5b5051614ce8576040805162461bcd60e51b815260206004820152600e60248201526d139bdd08105d5d1a1bdc9a5e995960921b604482015290519081900360640190fd5b6002805433600081815260066020908152604080832080546001808201835591855283852001869055848452600883528184208d8552835281842086905581516060810183528581528084018e8152428285018181528a549485018b559990965290517f405787fa12a823e0f2b7631cc41b3ba8828b3321ca811111fa75cd3aa3bb5ace600390930292830180546001600160a01b0319166001600160a01b03909216919091179055517f405787fa12a823e0f2b7631cc41b3ba8828b3321ca811111fa75cd3aa3bb5acf82015595517f405787fa12a823e0f2b7631cc41b3ba8828b3321ca811111fa75cd3aa3bb5ad090960195909555845191825281018990528351929384938b93927f89eb0be5e1a1bcbad3c382ad8d3f2698ea4d54d9a179cd2368d184358ecad45192908290030190a46003841415614e64578560011415614e5457614e4f87600360008a8152600460205260409020600201546001600361549f565b614e5f565b614e5f876004610d6e565b614ff1565b60175460408051630dc6f84760e01b81526004810187905290516000926001600160a01b031691630dc6f847916024808301926020929190829003018186803b158015614eb057600080fd5b505afa158015614ec4573d6000803e3d6000fd5b505050506040513d6020811015614eda57600080fd5b50519050614ee988888761593d565b6001851415614fa3576000888152600c602090815260408083206001808552019091529020548490614f289083906132dc90606463ffffffff614ffa16565b101580614f6557506000888152600c60209081526040808320838052600190810190925280832054918352909120548291614f639190613918565b145b15614f9e576040805189815290517f9593d9bd30eff4872ec3bab10360ad82eaac80651801e68f47f0674c38415c3d9181900360200190a15b611fb2565b6000888152600c6020526040902060020154811415611fb2576040805189815290517f9593d9bd30eff4872ec3bab10360ad82eaac80651801e68f47f0674c38415c3d9181900360200190a1505b50505050505050565b60008261500957506000613975565b8282028284828161501657fe5b04146139725760405162461bcd60e51b81526004018080602001828103825260218152602001806160916021913960400191505060405180910390fd5b6000828152601a602052604080822060039055601854815163352aabed60e21b815260048101859052915183926060926001600160a01b03169163d4aaafb4916024808201928792909190829003018186803b1580156150b257600080fd5b505afa1580156150c6573d6000803e3d6000fd5b505050506040513d6000823e601f3d908101601f1916820160405260a08110156150ef57600080fd5b8151602083015160408085015160608601516080870180519351959794969295919491939282019284600160201b82111561512957600080fd5b90830190602082018581111561513e57600080fd5b8251600160201b81118282018810171561515757600080fd5b82525081516020918201929091019080838360005b8381101561518457818101518382015260200161516c565b50505050905090810190601f1680156151b15780820380516001836020036101000a031916815260200191505b506040525093985093965094505050506001600160f01b03198416614d5360f01b141590506151ed576000546001600160a01b03169150615286565b6108ab60f31b6001600160f01b031984161461528657600054604080516227050b60e31b81526001600160f01b03198616600482015290516001600160a01b0390921691630138285891602480820192602092909190829003018186803b15801561525757600080fd5b505afa15801561526b573d6000803e3d6000fd5b505050506040513d602081101561528157600080fd5b505191505b600085815260056020526040812080546001600160a01b03851691849160019081106152ae57fe5b906000526020600020016040516020018083805190602001908083835b602083106152ea5780518252601f1990920191602091820191016152cb565b6001836020036101000a038019825116818451168082178552505050505050905001828054600181600116156101000203166002900480156153635780601f10615341576101008083540402835291820191615363565b820191906000526020600020905b81548152906001019060200180831161534f575b5050925050506040516020818303038152906040526040518082805190602001908083835b602083106153a75780518252601f199092019160209182019101615388565b6001836020036101000a0380198251168184511680821785525050505050509050019150506000604051808303816000865af19150503d8060008114615409576040519150601f19603f3d011682016040523d82523d6000602084013e61540e565b606091505b505090508015615450576040805187815290517f6535f242c0cf5f7c126188bcde0e013c21a0251762fa3be3c854f59ac30a5cdd9181900360200190a1612626565b6000868152601a602090815260409182902060019055815188815291517fa6a7dbbd4f2866cba9cd5a436f4982496ce98682adb410540faa675e61cef0159281900390910190a1505050505050565b60008581526004602052604090206001018290556154bd858561397b565b6040805186815290517fd24c2047577899547bacebb29e319fc7d73f6712b5adb401d45556f34bb2aa3b9181900360200190a160046000868152601a60205260409020541461438457600181600381111561551457fe5b1415615529576155248584615053565b614384565b60016000868152601a6020526040902055601f5461554d904263ffffffff61391816565b6000868152601b60205260409020555050505050565b6018546040805163253eca1f60e01b8152600481018490529051600092839283926001600160a01b039092169163253eca1f916024808201928692909190829003018186803b1580156155b557600080fd5b505afa1580156155c9573d6000803e3d6000fd5b505050506040513d6000823e601f3d908101601f1916820160405260e08110156155f257600080fd5b8151602083015160408085015160608601516080870180519351959794969295919491939282019284600160201b82111561562c57600080fd5b90830190602082018581111561564157600080fd5b82518660208202830111600160201b8211171561565d57600080fd5b82525081516020918201928201910280838360005b8381101561568a578181015183820152602001615672565b50505050919091016040818152601754630dc6f84760e01b8352600483018b90529051979c50989a508b9950615741986157039850613d0097670de0b6b3a764000097506001600160a01b039091169550630dc6f847945060248083019450602093509091829003018186803b158015613cc857600080fd5b6000888152600c6020908152604080832060018452909152808220548280529120546132dc9160649161573591613918565b9063ffffffff614ffa16565b101595945050505050565b6000838152600560209081526040822080546001810180835591845292829020855191936157809391019190860190615ff8565b50506001600560008581526020019081526020016000208054905003336001600160a01b0316847f28aed3fdbf1b73725998bf6a5f364a2b9a08b85236c75f0c0270cfe1b65fba8c84426040518080602001838152602001828103825284818151815260200191508051906020019080838360005b8381101561580d5781810151838201526020016157f5565b50505050905090810190601f16801561583a5780820380516001836020036101000a031916815260200191505b50935050505060405180910390a4505050565b600081836158d95760405162461bcd60e51b81526004018080602001828103825283818151815260200191508051906020019080838360005b8381101561589e578181015183820152602001615886565b50505050905090810190601f1680156158cb5780820380516001836020036101000a031916815260200191505b509250505060405180910390fd5b5060008385816158e557fe5b0495945050505050565b600061397283836040518060400160405280601e81526020017f536166654d6174683a207375627472616374696f6e206f766572666c6f770000815250615f6f565b60105442919091031190565b60185460008481526004602081905260408083206002015481516307149ba360e01b81529283015251919283926001600160a01b03909116916307149ba3916024808301926060929190829003018186803b15801561599b57600080fd5b505afa1580156159af573d6000803e3d6000fd5b505050506040513d60608110156159c557600080fd5b50602081810151604092830151601754845163505ef22f60e01b81523360048201526001602482015294519296509094506001600160a01b03169263505ef22f926044808301939192829003018186803b158015615a2257600080fd5b505afa158015615a36573d6000803e3d6000fd5b505050506040513d6020811015615a4c57600080fd5b50518015615a5a5750600082115b80615a655750600183145b15615a91576000858152600c602090815260408083208784526001908101909252909120805490910190555b60195460105460408051634c47e71d60e01b81523360048201526024810192909252516001600160a01b0390921691634c47e71d9160448082019260009290919082900301818387803b158015615ae757600080fd5b505af1158015615afb573d6000803e3d6000fd5b5060019250615b08915050565b83146143845760195460408051632587701560e11b8152336004820152905160009260019284926001600160a01b0390921691634b0ee02a91602480820192602092909190829003018186803b158015615b6157600080fd5b505afa158015615b75573d6000803e3d6000fd5b505050506040513d6020811015615b8b57600080fd5b5051601954604080516318160ddd60e01b815290519293506000926001600160a01b03909216916318160ddd91600480820192602092909190829003018186803b158015615bd857600080fd5b505afa158015615bec573d6000803e3d6000fd5b505050506040513d6020811015615c0257600080fd5b505190506001851415615c2e57615c2782670de0b6b3a764000063ffffffff61391816565b9350615c6c565b615c69670de0b6b3a7640000615c5d84615c5860646132dc87601254614ffa90919063ffffffff16565b615fc9565b9063ffffffff61391816565b93505b615c74615fd8565b60005b336000908152600b6020526040902054811015615f0a57336000908152600b6020526040902080546003919083908110615cad57fe5b906000526020600020015481548110615cc257fe5b600091825260209182902060408051606081018252600390930290910180546001600160a01b0390811684526001820154169383018490526002015490820152925033148015615d1a5750615d1a8260400151615931565b15615f025760175482516040805163505ef22f60e01b81526001600160a01b039283166004820152602481018d90529051919092169163505ef22f916044808301926020929190829003018186803b158015615d7557600080fd5b505afa158015615d89573d6000803e3d6000fd5b505050506040513d6020811015615d9f57600080fd5b505115615f0257601954825160408051632587701560e11b81526001600160a01b03928316600482015290519190921691634b0ee02a916024808301926020929190829003018186803b158015615df557600080fd5b505afa158015615e09573d6000803e3d6000fd5b505050506040513d6020811015615e1f57600080fd5b5051601954835160105460408051634c47e71d60e01b81526001600160a01b039384166004820152602481019290925251939750911691634c47e71d9160448082019260009290919082900301818387803b158015615e7d57600080fd5b505af1158015615e91573d6000803e3d6000fd5b5050506001958601958814159050615ed257615ecb615ebe85670de0b6b3a764000063ffffffff61391816565b879063ffffffff61391816565b9550615f02565b615eff615ebe670de0b6b3a7640000615c5d87615c5860646132dc8a601254614ffa90919063ffffffff16565b95505b600101615c77565b5060008a8152600c602090815260408083208c8452909152902054615f35908663ffffffff61391816565b60008b8152600c602081815260408084208e855280835290842094909455918d905290526002018054909401909355505050505050505050565b60008184841115615fc15760405162461bcd60e51b815260206004820181815283516024840152835190928392604490910191908501908083836000831561589e578181015183820152602001615886565b505050900390565b81818111156139755750919050565b604080516060810182526000808252602082018190529181019190915290565b828054600181600116156101000203166002900490600052602060002090601f016020900481019282601f1061603957805160ff1916838001178555616066565b82800160010185558215616066579182015b8281111561606657825182559160200191906001019061604b565b50616072929150616076565b5090565b61264491905b80821115616072576000815560010161607c56fe536166654d6174683a206d756c7469706c69636174696f6e206f766572666c6f77a265627a7a72315820abdf372612b747d3ee79c1bb3e5b14df657b8a41dea8bbe3858820b95c1396ce64736f6c63430005110032",
  "linkReferences": {},
  "deployedLinkReferences": {}
}