{
  "_format": "hh-sol-artifact-1",
  "contractName": "Governance",
  "sourceName": "contracts/NexusMutual/modules/governance/Governance.sol",
  "abi": [
    {
      "anonymous": false,
      "inputs": [
        {
          "indexed": false,
          "internalType": "uint256",
          "name": "proposalId",
          "type": "uint256"
        }
      ],
      "name": "ActionFailed",
      "type": "event"
    },
    {
      "anonymous": false,
      "inputs": [
        {
          "indexed": true,
          "internalType": "uint256",
          "name": "proposalId",
          "type": "uint256"
        },
        {
          "indexed": false,
          "internalType": "address",
          "name": "rejectedBy",
          "type": "address"
        }
      ],
      "name": "ActionRejected",
      "type": "event"
    },
    {
      "anonymous": false,
      "inputs": [
        {
          "indexed": false,
          "internalType": "uint256",
          "name": "proposalId",
          "type": "uint256"
        }
      ],
      "name": "ActionSuccess",
      "type": "event"
    },
    {
      "anonymous": false,
      "inputs": [
        {
          "indexed": true,
          "internalType": "uint256",
          "name": "proposalId",
          "type": "uint256"
        },
        {
          "indexed": false,
          "internalType": "uint256",
          "name": "time",
          "type": "uint256"
        }
      ],
      "name": "CloseProposalOnTime",
      "type": "event"
    },
    {
      "anonymous": false,
      "inputs": [
        {
          "indexed": true,
          "internalType": "address",
          "name": "proposalOwner",
          "type": "address"
        },
        {
          "indexed": true,
          "internalType": "uint256",
          "name": "proposalId",
          "type": "uint256"
        },
        {
          "indexed": false,
          "internalType": "uint256",
          "name": "dateAdd",
          "type": "uint256"
        },
        {
          "indexed": false,
          "internalType": "string",
          "name": "proposalTitle",
          "type": "string"
        },
        {
          "indexed": false,
          "internalType": "string",
          "name": "proposalSD",
          "type": "string"
        },
        {
          "indexed": false,
          "internalType": "string",
          "name": "proposalDescHash",
          "type": "string"
        }
      ],
      "name": "Proposal",
      "type": "event"
    },
    {
      "anonymous": false,
      "inputs": [
        {
          "indexed": false,
          "internalType": "uint256",
          "name": "proposalId",
          "type": "uint256"
        }
      ],
      "name": "ProposalAccepted",
      "type": "event"
    },
    {
      "anonymous": false,
      "inputs": [
        {
          "indexed": true,
          "internalType": "uint256",
          "name": "proposalId",
          "type": "uint256"
        },
        {
          "indexed": true,
          "internalType": "address",
          "name": "categorizedBy",
          "type": "address"
        },
        {
          "indexed": false,
          "internalType": "uint256",
          "name": "categoryId",
          "type": "uint256"
        }
      ],
      "name": "ProposalCategorized",
      "type": "event"
    },
    {
      "anonymous": false,
      "inputs": [
        {
          "indexed": true,
          "internalType": "address",
          "name": "member",
          "type": "address"
        },
        {
          "indexed": false,
          "internalType": "uint256",
          "name": "gbtReward",
          "type": "uint256"
        }
      ],
      "name": "RewardClaimed",
      "type": "event"
    },
    {
      "anonymous": false,
      "inputs": [
        {
          "indexed": true,
          "internalType": "uint256",
          "name": "proposalId",
          "type": "uint256"
        },
        {
          "indexed": true,
          "internalType": "address",
          "name": "solutionOwner",
          "type": "address"
        },
        {
          "indexed": true,
          "internalType": "uint256",
          "name": "solutionId",
          "type": "uint256"
        },
        {
          "indexed": false,
          "internalType": "string",
          "name": "solutionDescHash",
          "type": "string"
        },
        {
          "indexed": false,
          "internalType": "uint256",
          "name": "dateAdd",
          "type": "uint256"
        }
      ],
      "name": "Solution",
      "type": "event"
    },
    {
      "anonymous": false,
      "inputs": [
        {
          "indexed": true,
          "internalType": "address",
          "name": "from",
          "type": "address"
        },
        {
          "indexed": true,
          "internalType": "uint256",
          "name": "proposalId",
          "type": "uint256"
        },
        {
          "indexed": true,
          "internalType": "uint256",
          "name": "voteId",
          "type": "uint256"
        },
        {
          "indexed": false,
          "internalType": "uint256",
          "name": "dateAdd",
          "type": "uint256"
        },
        {
          "indexed": false,
          "internalType": "uint256",
          "name": "solutionChosen",
          "type": "uint256"
        }
      ],
      "name": "Vote",
      "type": "event"
    },
    {
      "anonymous": false,
      "inputs": [
        {
          "indexed": false,
          "internalType": "uint256",
          "name": "proposalId",
          "type": "uint256"
        }
      ],
      "name": "VoteCast",
      "type": "event"
    },
    {
      "constant": true,
      "inputs": [
        {
          "internalType": "uint256",
          "name": "",
          "type": "uint256"
        }
      ],
      "name": "allDelegation",
      "outputs": [
        {
          "internalType": "address",
          "name": "follower",
          "type": "address"
        },
        {
          "internalType": "address",
          "name": "leader",
          "type": "address"
        },
        {
          "internalType": "uint256",
          "name": "lastUpd",
          "type": "uint256"
        }
      ],
      "payable": false,
      "stateMutability": "view",
      "type": "function"
    },
    {
      "constant": true,
      "inputs": [],
      "name": "allowedToCatgorize",
      "outputs": [
        {
          "internalType": "uint256",
          "name": "roleId",
          "type": "uint256"
        }
      ],
      "payable": false,
      "stateMutability": "view",
      "type": "function"
    },
    {
      "constant": true,
      "inputs": [
        {
          "internalType": "uint256",
          "name": "category",
          "type": "uint256"
        }
      ],
      "name": "allowedToCreateProposal",
      "outputs": [
        {
          "internalType": "bool",
          "name": "check",
          "type": "bool"
        }
      ],
      "payable": false,
      "stateMutability": "view",
      "type": "function"
    },
    {
      "constant": true,
      "inputs": [
        {
          "internalType": "address",
          "name": "_add",
          "type": "address"
        }
      ],
      "name": "alreadyDelegated",
      "outputs": [
        {
          "internalType": "bool",
          "name": "delegated",
          "type": "bool"
        }
      ],
      "payable": false,
      "stateMutability": "view",
      "type": "function"
    },
    {
      "constant": true,
      "inputs": [
        {
          "internalType": "uint256",
          "name": "_proposalId",
          "type": "uint256"
        }
      ],
      "name": "canCloseProposal",
      "outputs": [
        {
          "internalType": "uint256",
          "name": "",
          "type": "uint256"
        }
      ],
      "payable": false,
      "stateMutability": "view",
      "type": "function"
    },
    {
      "constant": false,
      "inputs": [
        {
          "internalType": "uint256",
          "name": "_proposalId",
          "type": "uint256"
        },
        {
          "internalType": "uint256",
          "name": "_categoryId",
          "type": "uint256"
        },
        {
          "internalType": "uint256",
          "name": "_incentive",
          "type": "uint256"
        }
      ],
      "name": "categorizeProposal",
      "outputs": [],
      "payable": false,
      "stateMutability": "nonpayable",
      "type": "function"
    },
    {
      "constant": false,
      "inputs": [],
      "name": "changeDependentContractAddress",
      "outputs": [],
      "payable": false,
      "stateMutability": "nonpayable",
      "type": "function"
    },
    {
      "constant": false,
      "inputs": [
        {
          "internalType": "address",
          "name": "_masterAddress",
          "type": "address"
        }
      ],
      "name": "changeMasterAddress",
      "outputs": [],
      "payable": false,
      "stateMutability": "nonpayable",
      "type": "function"
    },
    {
      "constant": false,
      "inputs": [
        {
          "internalType": "address",
          "name": "_memberAddress",
          "type": "address"
        },
        {
          "internalType": "uint256",
          "name": "_maxRecords",
          "type": "uint256"
        }
      ],
      "name": "claimReward",
      "outputs": [
        {
          "internalType": "uint256",
          "name": "pendingDAppReward",
          "type": "uint256"
        }
      ],
      "payable": false,
      "stateMutability": "nonpayable",
      "type": "function"
    },
    {
      "constant": false,
      "inputs": [
        {
          "internalType": "uint256",
          "name": "_proposalId",
          "type": "uint256"
        }
      ],
      "name": "closeProposal",
      "outputs": [],
      "payable": false,
      "stateMutability": "nonpayable",
      "type": "function"
    },
    {
      "constant": false,
      "inputs": [
        {
          "internalType": "string",
          "name": "_proposalTitle",
          "type": "string"
        },
        {
          "internalType": "string",
          "name": "_proposalSD",
          "type": "string"
        },
        {
          "internalType": "string",
          "name": "_proposalDescHash",
          "type": "string"
        },
        {
          "internalType": "uint256",
          "name": "_categoryId",
          "type": "uint256"
        }
      ],
      "name": "createProposal",
      "outputs": [],
      "payable": false,
      "stateMutability": "nonpayable",
      "type": "function"
    },
    {
      "constant": false,
      "inputs": [
        {
          "internalType": "string",
          "name": "_proposalTitle",
          "type": "string"
        },
        {
          "internalType": "string",
          "name": "_proposalSD",
          "type": "string"
        },
        {
          "internalType": "string",
          "name": "_proposalDescHash",
          "type": "string"
        },
        {
          "internalType": "uint256",
          "name": "_categoryId",
          "type": "uint256"
        },
        {
          "internalType": "string",
          "name": "_solutionHash",
          "type": "string"
        },
        {
          "internalType": "bytes",
          "name": "_action",
          "type": "bytes"
        }
      ],
      "name": "createProposalwithSolution",
      "outputs": [],
      "payable": false,
      "stateMutability": "nonpayable",
      "type": "function"
    },
    {
      "constant": false,
      "inputs": [
        {
          "internalType": "address",
          "name": "_add",
          "type": "address"
        }
      ],
      "name": "delegateVote",
      "outputs": [],
      "payable": false,
      "stateMutability": "nonpayable",
      "type": "function"
    },
    {
      "constant": true,
      "inputs": [
        {
          "internalType": "address",
          "name": "",
          "type": "address"
        }
      ],
      "name": "followerDelegation",
      "outputs": [
        {
          "internalType": "uint256",
          "name": "",
          "type": "uint256"
        }
      ],
      "payable": false,
      "stateMutability": "view",
      "type": "function"
    },
    {
      "constant": true,
      "inputs": [
        {
          "internalType": "address",
          "name": "_add",
          "type": "address"
        }
      ],
      "name": "getFollowers",
      "outputs": [
        {
          "internalType": "uint256[]",
          "name": "",
          "type": "uint256[]"
        }
      ],
      "payable": false,
      "stateMutability": "view",
      "type": "function"
    },
    {
      "constant": true,
      "inputs": [
        {
          "internalType": "address",
          "name": "_memberAddress",
          "type": "address"
        }
      ],
      "name": "getPendingReward",
      "outputs": [
        {
          "internalType": "uint256",
          "name": "pendingDAppReward",
          "type": "uint256"
        }
      ],
      "payable": false,
      "stateMutability": "view",
      "type": "function"
    },
    {
      "constant": true,
      "inputs": [],
      "name": "getProposalLength",
      "outputs": [
        {
          "internalType": "uint256",
          "name": "",
          "type": "uint256"
        }
      ],
      "payable": false,
      "stateMutability": "view",
      "type": "function"
    },
    {
      "constant": true,
      "inputs": [
        {
          "internalType": "uint256",
          "name": "_proposalId",
          "type": "uint256"
        },
        {
          "internalType": "uint256",
          "name": "_solution",
          "type": "uint256"
        }
      ],
      "name": "getSolutionAction",
      "outputs": [
        {
          "internalType": "uint256",
          "name": "",
          "type": "uint256"
        },
        {
          "internalType": "bytes",
          "name": "",
          "type": "bytes"
        }
      ],
      "payable": false,
      "stateMutability": "view",
      "type": "function"
    },
    {
      "constant": true,
      "inputs": [
        {
          "internalType": "bytes8",
          "name": "code",
          "type": "bytes8"
        }
      ],
      "name": "getUintParameters",
      "outputs": [
        {
          "internalType": "bytes8",
          "name": "codeVal",
          "type": "bytes8"
        },
        {
          "internalType": "uint256",
          "name": "val",
          "type": "uint256"
        }
      ],
      "payable": false,
      "stateMutability": "view",
      "type": "function"
    },
    {
      "constant": true,
      "inputs": [
        {
          "internalType": "address",
          "name": "",
          "type": "address"
        }
      ],
      "name": "isOpenForDelegation",
      "outputs": [
        {
          "internalType": "bool",
          "name": "",
          "type": "bool"
        }
      ],
      "payable": false,
      "stateMutability": "view",
      "type": "function"
    },
    {
      "constant": true,
      "inputs": [
        {
          "internalType": "address",
          "name": "",
          "type": "address"
        }
      ],
      "name": "lastRewardClaimed",
      "outputs": [
        {
          "internalType": "uint256",
          "name": "",
          "type": "uint256"
        }
      ],
      "payable": false,
      "stateMutability": "view",
      "type": "function"
    },
    {
      "constant": true,
      "inputs": [
        {
          "internalType": "address",
          "name": "",
          "type": "address"
        },
        {
          "internalType": "uint256",
          "name": "",
          "type": "uint256"
        }
      ],
      "name": "memberProposalVote",
      "outputs": [
        {
          "internalType": "uint256",
          "name": "",
          "type": "uint256"
        }
      ],
      "payable": false,
      "stateMutability": "view",
      "type": "function"
    },
    {
      "constant": true,
      "inputs": [],
      "name": "ms",
      "outputs": [
        {
          "internalType": "contract INXMMaster",
          "name": "",
          "type": "address"
        }
      ],
      "payable": false,
      "stateMutability": "view",
      "type": "function"
    },
    {
      "constant": true,
      "inputs": [],
      "name": "nxMasterAddress",
      "outputs": [
        {
          "internalType": "address",
          "name": "",
          "type": "address"
        }
      ],
      "payable": false,
      "stateMutability": "view",
      "type": "function"
    },
    {
      "constant": true,
      "inputs": [
        {
          "internalType": "uint256",
          "name": "_proposalId",
          "type": "uint256"
        }
      ],
      "name": "proposal",
      "outputs": [
        {
          "internalType": "uint256",
          "name": "proposalId",
          "type": "uint256"
        },
        {
          "internalType": "uint256",
          "name": "category",
          "type": "uint256"
        },
        {
          "internalType": "uint256",
          "name": "status",
          "type": "uint256"
        },
        {
          "internalType": "uint256",
          "name": "finalVerdict",
          "type": "uint256"
        },
        {
          "internalType": "uint256",
          "name": "totalRewar",
          "type": "uint256"
        }
      ],
      "payable": false,
      "stateMutability": "view",
      "type": "function"
    },
    {
      "constant": true,
      "inputs": [
        {
          "internalType": "uint256",
          "name": "",
          "type": "uint256"
        }
      ],
      "name": "proposalActionStatus",
      "outputs": [
        {
          "internalType": "uint256",
          "name": "",
          "type": "uint256"
        }
      ],
      "payable": false,
      "stateMutability": "view",
      "type": "function"
    },
    {
      "constant": true,
      "inputs": [
        {
          "internalType": "uint256",
          "name": "_proposalId",
          "type": "uint256"
        }
      ],
      "name": "proposalDetails",
      "outputs": [
        {
          "internalType": "uint256",
          "name": "",
          "type": "uint256"
        },
        {
          "internalType": "uint256",
          "name": "",
          "type": "uint256"
        },
        {
          "internalType": "uint256",
          "name": "",
          "type": "uint256"
        }
      ],
      "payable": false,
      "stateMutability": "view",
      "type": "function"
    },
    {
      "constant": true,
      "inputs": [
        {
          "internalType": "uint256",
          "name": "",
          "type": "uint256"
        },
        {
          "internalType": "address",
          "name": "",
          "type": "address"
        }
      ],
      "name": "proposalRejectedByAB",
      "outputs": [
        {
          "internalType": "bool",
          "name": "",
          "type": "bool"
        }
      ],
      "payable": false,
      "stateMutability": "view",
      "type": "function"
    },
    {
      "constant": true,
      "inputs": [
        {
          "internalType": "uint256",
          "name": "",
          "type": "uint256"
        }
      ],
      "name": "proposalVoteTally",
      "outputs": [
        {
          "internalType": "uint256",
          "name": "voters",
          "type": "uint256"
        }
      ],
      "payable": false,
      "stateMutability": "view",
      "type": "function"
    },
    {
      "constant": false,
      "inputs": [
        {
          "internalType": "uint256",
          "name": "_proposalId",
          "type": "uint256"
        }
      ],
      "name": "rejectAction",
      "outputs": [],
      "payable": false,
      "stateMutability": "nonpayable",
      "type": "function"
    },
    {
      "constant": false,
      "inputs": [
        {
          "internalType": "address",
          "name": "_add",
          "type": "address"
        }
      ],
      "name": "removeDelegation",
      "outputs": [],
      "payable": false,
      "stateMutability": "nonpayable",
      "type": "function"
    },
    {
      "constant": true,
      "inputs": [
        {
          "internalType": "uint256",
          "name": "",
          "type": "uint256"
        },
        {
          "internalType": "address",
          "name": "",
          "type": "address"
        }
      ],
      "name": "rewardClaimed",
      "outputs": [
        {
          "internalType": "bool",
          "name": "",
          "type": "bool"
        }
      ],
      "payable": false,
      "stateMutability": "view",
      "type": "function"
    },
    {
      "constant": false,
      "inputs": [
        {
          "internalType": "bool",
          "name": "_status",
          "type": "bool"
        }
      ],
      "name": "setDelegationStatus",
      "outputs": [],
      "payable": false,
      "stateMutability": "nonpayable",
      "type": "function"
    },
    {
      "constant": false,
      "inputs": [],
      "name": "setInitialActionParameters",
      "outputs": [],
      "payable": false,
      "stateMutability": "nonpayable",
      "type": "function"
    },
    {
      "constant": false,
      "inputs": [
        {
          "internalType": "uint256",
          "name": "_proposalId",
          "type": "uint256"
        },
        {
          "internalType": "string",
          "name": "_solutionHash",
          "type": "string"
        },
        {
          "internalType": "bytes",
          "name": "_action",
          "type": "bytes"
        }
      ],
      "name": "submitProposalWithSolution",
      "outputs": [],
      "payable": false,
      "stateMutability": "nonpayable",
      "type": "function"
    },
    {
      "constant": false,
      "inputs": [
        {
          "internalType": "uint256",
          "name": "_proposalId",
          "type": "uint256"
        },
        {
          "internalType": "uint256",
          "name": "_solutionChosen",
          "type": "uint256"
        }
      ],
      "name": "submitVote",
      "outputs": [],
      "payable": false,
      "stateMutability": "nonpayable",
      "type": "function"
    },
    {
      "constant": true,
      "inputs": [],
      "name": "tokenHoldingTime",
      "outputs": [
        {
          "internalType": "uint256",
          "name": "",
          "type": "uint256"
        }
      ],
      "payable": false,
      "stateMutability": "view",
      "type": "function"
    },
    {
      "constant": false,
      "inputs": [
        {
          "internalType": "uint256",
          "name": "_proposalId",
          "type": "uint256"
        }
      ],
      "name": "triggerAction",
      "outputs": [],
      "payable": false,
      "stateMutability": "nonpayable",
      "type": "function"
    },
    {
      "constant": false,
      "inputs": [],
      "name": "unDelegate",
      "outputs": [],
      "payable": false,
      "stateMutability": "nonpayable",
      "type": "function"
    },
    {
      "constant": false,
      "inputs": [
        {
          "internalType": "uint256",
          "name": "_proposalId",
          "type": "uint256"
        },
        {
          "internalType": "string",
          "name": "_proposalTitle",
          "type": "string"
        },
        {
          "internalType": "string",
          "name": "_proposalSD",
          "type": "string"
        },
        {
          "internalType": "string",
          "name": "_proposalDescHash",
          "type": "string"
        }
      ],
      "name": "updateProposal",
      "outputs": [],
      "payable": false,
      "stateMutability": "nonpayable",
      "type": "function"
    },
    {
      "constant": false,
      "inputs": [
        {
          "internalType": "bytes8",
          "name": "code",
          "type": "bytes8"
        },
        {
          "internalType": "uint256",
          "name": "val",
          "type": "uint256"
        }
      ],
      "name": "updateUintParameters",
      "outputs": [],
      "payable": false,
      "stateMutability": "nonpayable",
      "type": "function"
    },
    {
      "constant": true,
      "inputs": [
        {
          "internalType": "uint256",
          "name": "_proposalId",
          "type": "uint256"
        },
        {
          "internalType": "uint256",
          "name": "_solution",
          "type": "uint256"
        }
      ],
      "name": "voteTallyData",
      "outputs": [
        {
          "internalType": "uint256",
          "name": "",
          "type": "uint256"
        },
        {
          "internalType": "uint256",
          "name": "",
          "type": "uint256"
        },
        {
          "internalType": "uint256",
          "name": "",
          "type": "uint256"
        }
      ],
      "payable": false,
      "stateMutability": "view",
      "type": "function"
    }
  ],
  "bytecode": "0x60806040523480156200001157600080fd5b5061996680620000226000396000f3fe608060405234801561001057600080fd5b506004361061025e5760003560e01c80637287078611610146578063c2fe2022116100c3578063e0429d0911610087578063e0429d0914611011578063e3b34c8814611069578063eeff918814611196578063f0466c73146111d8578063f17a3bec1461121c578063fa17e84d146112665761025e565b8063c2fe202214610ea0578063c5d2eade14610f39578063cc0c886f14610f67578063d46655f414610f71578063d5950ad114610fb55761025e565b8063a0b2d57f1161010a578063a0b2d57f14610d0a578063aaf86c3014610d54578063b31e1d4d14610d72578063bb73c56214610db6578063bcc81c0c14610e5e5761025e565b80637287078614610b23578063787112a614610bfb5780638263a93814610c535780639dd86e0f14610c715780639ed1c7db14610cc45761025e565b8063207008f6116101df5780634c15676b116101a35780634c15676b146108245780634df9d6ba1461095157806353fb6c5c146109a95780636122f84014610a0f5780636edde0bd14610aa95780636f93bfb714610aeb5761025e565b8063207008f6146106925780632b4b16b1146106c25780632f54243a146106f057806330326c17146107a857806339bb9607146108065761025e565b806316e9eaec1161022657806316e9eaec146103bd57806316fdc34e1461040d578063174e31c4146105e45780631d35ab49146106465780631eef225c146106885761025e565b80630386a01614610263578063060225f6146102915780630852a6e3146102f35780630ea9c984146103595780630fec1dec14610363575b600080fd5b61028f6004803603602081101561027957600080fd5b81019080803590602001909291905050506112c2565b005b6102dd600480360360408110156102a757600080fd5b81019080803573ffffffffffffffffffffffffffffffffffffffff16906020019092919080359060200190929190505050611559565b6040518082815260200191505060405180910390f35b61033f6004803603604081101561030957600080fd5b8101908080359060200190929190803573ffffffffffffffffffffffffffffffffffffffff16906020019092919050505061157e565b604051808215151515815260200191505060405180910390f35b6103616115ad565b005b6103996004803603604081101561037957600080fd5b8101908080359060200190929190803590602001909291905050506118ab565b60405180848152602001838152602001828152602001935050505060405180910390f35b6103e9600480360360208110156103d357600080fd5b8101908080359060200190929190505050611924565b60405180848152602001838152602001828152602001935050505060405180910390f35b6105e2600480360360c081101561042357600080fd5b810190808035906020019064010000000081111561044057600080fd5b82018360208201111561045257600080fd5b8035906020019184600183028401116401000000008311171561047457600080fd5b90919293919293908035906020019064010000000081111561049557600080fd5b8201836020820111156104a757600080fd5b803590602001918460018302840111640100000000831117156104c957600080fd5b9091929391929390803590602001906401000000008111156104ea57600080fd5b8201836020820111156104fc57600080fd5b8035906020019184600183028401116401000000008311171561051e57600080fd5b9091929391929390803590602001909291908035906020019064010000000081111561054957600080fd5b82018360208201111561055b57600080fd5b8035906020019184600183028401116401000000008311171561057d57600080fd5b90919293919293908035906020019064010000000081111561059e57600080fd5b8201836020820111156105b057600080fd5b803590602001918460018302840111640100000000831117156105d257600080fd5b9091929391929390505050611965565b005b610630600480360360408110156105fa57600080fd5b81019080803573ffffffffffffffffffffffffffffffffffffffff16906020019092919080359060200190929190505050611b6f565b6040518082815260200191505060405180910390f35b6106726004803603602081101561065c57600080fd5b810190808035906020019092919050505061221f565b6040518082815260200191505060405180910390f35b610690612237565b005b6106c0600480360360208110156106a857600080fd5b8101908080351515906020019092919050505061245a565b005b6106ee600480360360208110156106d857600080fd5b81019080803590602001909291905050506126cc565b005b6107266004803603604081101561070657600080fd5b810190808035906020019092919080359060200190929190505050612c1f565b6040518083815260200180602001828103825283818151815260200191508051906020019080838360005b8381101561076c578082015181840152602081019050610751565b50505050905090810190601f1680156107995780820380516001836020036101000a031916815260200191505b50935050505060405180910390f35b6107d4600480360360208110156107be57600080fd5b8101908080359060200190929190505050612cf3565b604051808681526020018581526020018481526020018381526020018281526020019550505050505060405180910390f35b61080e612d6b565b6040518082815260200191505060405180910390f35b61094f6004803603608081101561083a57600080fd5b810190808035906020019064010000000081111561085757600080fd5b82018360208201111561086957600080fd5b8035906020019184600183028401116401000000008311171561088b57600080fd5b9091929391929390803590602001906401000000008111156108ac57600080fd5b8201836020820111156108be57600080fd5b803590602001918460018302840111640100000000831117156108e057600080fd5b90919293919293908035906020019064010000000081111561090157600080fd5b82018360208201111561091357600080fd5b8035906020019184600183028401116401000000008311171561093557600080fd5b909192939192939080359060200190929190505050612d71565b005b6109936004803603602081101561096757600080fd5b81019080803573ffffffffffffffffffffffffffffffffffffffff16906020019092919050505061301a565b6040518082815260200191505060405180910390f35b6109f5600480360360408110156109bf57600080fd5b8101908080359060200190929190803573ffffffffffffffffffffffffffffffffffffffff1690602001909291905050506134de565b604051808215151515815260200191505060405180910390f35b610a5660048036036020811015610a2557600080fd5b81019080803577ffffffffffffffffffffffffffffffffffffffffffffffff1916906020019092919050505061350d565b604051808377ffffffffffffffffffffffffffffffffffffffffffffffff191677ffffffffffffffffffffffffffffffffffffffffffffffff191681526020018281526020019250505060405180910390f35b610ae960048036036060811015610abf57600080fd5b81019080803590602001909291908035906020019092919080359060200190929190505050613767565b005b610b2160048036036040811015610b0157600080fd5b8101908080359060200190929190803590602001909291905050506138fd565b005b610bf960048036036060811015610b3957600080fd5b810190808035906020019092919080359060200190640100000000811115610b6057600080fd5b820183602082011115610b7257600080fd5b80359060200191846001830284011164010000000083111715610b9457600080fd5b909192939192939080359060200190640100000000811115610bb557600080fd5b820183602082011115610bc757600080fd5b80359060200191846001830284011164010000000083111715610be957600080fd5b90919293919293905050506139c4565b005b610c3d60048036036020811015610c1157600080fd5b81019080803573ffffffffffffffffffffffffffffffffffffffff169060200190929190505050613b65565b6040518082815260200191505060405180910390f35b610c5b613b7d565b6040518082815260200191505060405180910390f35b610cc260048036036040811015610c8757600080fd5b81019080803577ffffffffffffffffffffffffffffffffffffffffffffffff1916906020019092919080359060200190929190505050613b87565b005b610cf060048036036020811015610cda57600080fd5b8101908080359060200190929190505050613f02565b604051808215151515815260200191505060405180910390f35b610d12614202565b604051808273ffffffffffffffffffffffffffffffffffffffff1673ffffffffffffffffffffffffffffffffffffffff16815260200191505060405180910390f35b610d5c614227565b6040518082815260200191505060405180910390f35b610db460048036036020811015610d8857600080fd5b81019080803573ffffffffffffffffffffffffffffffffffffffff169060200190929190505050614231565b005b610de260048036036020811015610dcc57600080fd5b8101908080359060200190929190505050614dbe565b604051808473ffffffffffffffffffffffffffffffffffffffff1673ffffffffffffffffffffffffffffffffffffffff1681526020018373ffffffffffffffffffffffffffffffffffffffff1673ffffffffffffffffffffffffffffffffffffffff168152602001828152602001935050505060405180910390f35b610e8a60048036036020811015610e7457600080fd5b8101908080359060200190929190505050614e35565b6040518082815260200191505060405180910390f35b610ee260048036036020811015610eb657600080fd5b81019080803573ffffffffffffffffffffffffffffffffffffffff169060200190929190505050615280565b6040518080602001828103825283818151815260200191508051906020019060200280838360005b83811015610f25578082015181840152602081019050610f0a565b505050509050019250505060405180910390f35b610f6560048036036020811015610f4f57600080fd5b8101908080359060200190929190505050615317565b005b610f6f6153ed565b005b610fb360048036036020811015610f8757600080fd5b81019080803573ffffffffffffffffffffffffffffffffffffffff169060200190929190505050615510565b005b610ff760048036036020811015610fcb57600080fd5b81019080803573ffffffffffffffffffffffffffffffffffffffff1690602001909291905050506156ac565b604051808215151515815260200191505060405180910390f35b6110536004803603602081101561102757600080fd5b81019080803573ffffffffffffffffffffffffffffffffffffffff1690602001909291905050506156cc565b6040518082815260200191505060405180910390f35b6111946004803603608081101561107f57600080fd5b8101908080359060200190929190803590602001906401000000008111156110a657600080fd5b8201836020820111156110b857600080fd5b803590602001918460018302840111640100000000831117156110da57600080fd5b9091929391929390803590602001906401000000008111156110fb57600080fd5b82018360208201111561110d57600080fd5b8035906020019184600183028401116401000000008311171561112f57600080fd5b90919293919293908035906020019064010000000081111561115057600080fd5b82018360208201111561116257600080fd5b8035906020019184600183028401116401000000008311171561118457600080fd5b90919293919293905050506156e4565b005b6111c2600480360360208110156111ac57600080fd5b81019080803590602001909291905050506159d2565b6040518082815260200191505060405180910390f35b61121a600480360360208110156111ee57600080fd5b81019080803573ffffffffffffffffffffffffffffffffffffffff1690602001909291905050506159f0565b005b611224615ade565b604051808273ffffffffffffffffffffffffffffffffffffffff1673ffffffffffffffffffffffffffffffffffffffff16815260200191505060405180910390f35b6112a86004803603602081101561127c57600080fd5b81019080803573ffffffffffffffffffffffffffffffffffffffff169060200190929190505050615b04565b604051808215151515815260200191505060405180910390f35b60006004600083815260200190815260200160002060020154905060004261130b6016546004600087815260200190815260200160002060040154615c3a90919063ffffffff16565b1115801561133a57506002600681111561132157fe5b6004600085815260200190815260200160002060000154105b15611359576113548360068081111561134f57fe5b615cc2565b611554565b600161136484614e35565b1461136e57600080fd5b601860009054906101000a900473ffffffffffffffffffffffffffffffffffffffff1673ffffffffffffffffffffffffffffffffffffffff1663253eca1f60046000868152602001908152602001600020600201546040518263ffffffff1660e01b81526004018082815260200191505060006040518083038186803b1580156113f757600080fd5b505afa15801561140b573d6000803e3d6000fd5b505050506040513d6000823e3d601f19601f8201168201806040525060e081101561143557600080fd5b81019080805190602001909291908051906020019092919080519060200190929190805190602001909291908051604051939291908464010000000082111561147d57600080fd5b8382019150602082018581111561149357600080fd5b82518660208202830111640100000000821117156114b057600080fd5b8083526020830192505050908051906020019060200280838360005b838110156114e75780820151818401526020810190506114cc565b50505050905001604052602001805190602001909291908051906020019092919050505090919293949550909192935090919250909150905050809150506001600381111561153257fe5b811415611548576115438383615d49565b611553565b6115528383616039565b5b5b505050565b6008602052816000526040600020602052806000526040600020600091509150505481565b601c6020528160005260406000206020528060005260406000206000915091509054906101000a900460ff1681565b6000809054906101000a900473ffffffffffffffffffffffffffffffffffffffff1673ffffffffffffffffffffffffffffffffffffffff16633a12507f6040518163ffffffff1660e01b815260040160206040518083038186803b15801561161457600080fd5b505afa158015611628573d6000803e3d6000fd5b505050506040513d602081101561163e57600080fd5b8101908080519060200190929190505050601960006101000a81548173ffffffffffffffffffffffffffffffffffffffff021916908373ffffffffffffffffffffffffffffffffffffffff1602179055506000809054906101000a900473ffffffffffffffffffffffffffffffffffffffff1673ffffffffffffffffffffffffffffffffffffffff1663013828586040518163ffffffff1660e01b815260040180807f4d52000000000000000000000000000000000000000000000000000000000000815250602001905060206040518083038186803b15801561172157600080fd5b505afa158015611735573d6000803e3d6000fd5b505050506040513d602081101561174b57600080fd5b8101908080519060200190929190505050601760006101000a81548173ffffffffffffffffffffffffffffffffffffffff021916908373ffffffffffffffffffffffffffffffffffffffff1602179055506000809054906101000a900473ffffffffffffffffffffffffffffffffffffffff1673ffffffffffffffffffffffffffffffffffffffff1663013828586040518163ffffffff1660e01b815260040180807f5043000000000000000000000000000000000000000000000000000000000000815250602001905060206040518083038186803b15801561182e57600080fd5b505afa158015611842573d6000803e3d6000fd5b505050506040513d602081101561185857600080fd5b8101908080519060200190929190505050601860006101000a81548173ffffffffffffffffffffffffffffffffffffffff021916908373ffffffffffffffffffffffffffffffffffffffff160217905550565b6000806000600c6000868152602001908152602001600020600001600085815260200190815260200160002054600c6000878152602001908152602001600020600101600086815260200190815260200160002054600c6000888152602001908152602001600020600201549250925092509250925092565b6000806000836005600086815260200190815260200160002080549050600c6000878152602001908152602001600020600201549250925092509193909250565b8461196f81613f02565b6119e1576040517f08c379a000000000000000000000000000000000000000000000000000000000815260040180806020018281038252600b8152602001807f4e6f7420616c6c6f77656400000000000000000000000000000000000000000081525060200191505060405180910390fd5b60006015549050611ac08d8d8080601f016020809104026020016040519081016040528093929190818152602001838380828437600081840152601f19601f820116905080830192505050505050508c8c8080601f016020809104026020016040519081016040528093929190818152602001838380828437600081840152601f19601f820116905080830192505050505050508b8b8080601f016020809104026020016040519081016040528093929190818152602001838380828437600081840152601f19601f820116905080830192505050505050508a6168f1565b60008711611acd57600080fd5b611b608187878080601f016020809104026020016040519081016040528093929190818152602001838380828437600081840152601f19601f8201169050808301925050505050505086868080601f016020809104026020016040519081016040528093929190818152602001838380828437600081840152601f19601f82011690508083019250505050505050616c4d565b50505050505050505050505050565b6000806000806000809054906101000a900473ffffffffffffffffffffffffffffffffffffffff1673ffffffffffffffffffffffffffffffffffffffff1663013828586040518163ffffffff1660e01b815260040180807f4352000000000000000000000000000000000000000000000000000000000000815250602001905060206040518083038186803b158015611c0757600080fd5b505afa158015611c1b573d6000803e3d6000fd5b505050506040513d6020811015611c3157600080fd5b810190808051906020019092919050505073ffffffffffffffffffffffffffffffffffffffff163373ffffffffffffffffffffffffffffffffffffffff1614611c7957600080fd5b6000600960008873ffffffffffffffffffffffffffffffffffffffff1673ffffffffffffffffffffffffffffffffffffffff168152602001908152602001600020549050611cc561979e565b60038281548110611cd257fe5b90600052602060002090600302016040518060600160405290816000820160009054906101000a900473ffffffffffffffffffffffffffffffffffffffff1673ffffffffffffffffffffffffffffffffffffffff1673ffffffffffffffffffffffffffffffffffffffff1681526020016001820160009054906101000a900473ffffffffffffffffffffffffffffffffffffffff1673ffffffffffffffffffffffffffffffffffffffff1673ffffffffffffffffffffffffffffffffffffffff1681526020016002820154815250509050600082118015611de45750600073ffffffffffffffffffffffffffffffffffffffff16816020015173ffffffffffffffffffffffffffffffffffffffff1614155b15611dfc578060200151935080604001519250611e00565b8793505b600080600660008773ffffffffffffffffffffffffffffffffffffffff1673ffffffffffffffffffffffffffffffffffffffff1681526020019081526020016000208054905090506000819050600080600e60008e73ffffffffffffffffffffffffffffffffffffffff1673ffffffffffffffffffffffffffffffffffffffff1681526020019081526020016000205490505b8381108015611ea157508b82105b1561212157600660008a73ffffffffffffffffffffffffffffffffffffffff1673ffffffffffffffffffffffffffffffffffffffff1681526020019081526020016000208181548110611ef057fe5b9060005260206000200154995060028a81548110611f0a57fe5b90600052602060002090600302016001015494506000600c600087815260200190815260200160002060020154118015611fab5750611f5460105489615c3a90919063ffffffff16565b60028b81548110611f6157fe5b9060005260206000209060030201600201541180611faa57508c73ffffffffffffffffffffffffffffffffffffffff168973ffffffffffffffffffffffffffffffffffffffff16145b5b156121145760026006811115611fbd57fe5b6004600087815260200190815260200160002060000154111561210657600760008b815260200190815260200160002060008e73ffffffffffffffffffffffffffffffffffffffff1673ffffffffffffffffffffffffffffffffffffffff16815260200190815260200160002060009054906101000a900460ff166121015761208d61207e600c600088815260200190815260200160002060020154600460008981526020019081526020016000206003015461702790919063ffffffff16565b8c615c3a90919063ffffffff16565b9a506001600760008c815260200190815260200160002060008f73ffffffffffffffffffffffffffffffffffffffff1673ffffffffffffffffffffffffffffffffffffffff16815260200190815260200160002060006101000a81548160ff02191690831515021790555081806001019250505b612113565b83831415612112578092505b5b5b8080600101915050611e93565b838314156121725780600e60008f73ffffffffffffffffffffffffffffffffffffffff1673ffffffffffffffffffffffffffffffffffffffff168152602001908152602001600020819055506121b7565b82600e60008f73ffffffffffffffffffffffffffffffffffffffff1673ffffffffffffffffffffffffffffffffffffffff168152602001908152602001600020819055505b600082111561220f578c73ffffffffffffffffffffffffffffffffffffffff167f106f923f993c2149d49b4255ff723acafa1f2d94393f561d3eda32ae348f72418c6040518082815260200191505060405180910390a25b5050505050505050505092915050565b601a6020528060005260406000206000915090505481565b600015156000809054906101000a900473ffffffffffffffffffffffffffffffffffffffff1673ffffffffffffffffffffffffffffffffffffffff1663ff0938a76040518163ffffffff1660e01b815260040160206040518083038186803b1580156122a257600080fd5b505afa1580156122b6573d6000803e3d6000fd5b505050506040513d60208110156122cc57600080fd5b810190808051906020019092919050505015151480156123c85750600115156000809054906101000a900473ffffffffffffffffffffffffffffffffffffffff1673ffffffffffffffffffffffffffffffffffffffff1663a230c524336040518263ffffffff1660e01b8152600401808273ffffffffffffffffffffffffffffffffffffffff1673ffffffffffffffffffffffffffffffffffffffff16815260200191505060206040518083038186803b15801561238957600080fd5b505afa15801561239d573d6000803e3d6000fd5b505050506040513d60208110156123b357600080fd5b81019080805190602001909291905050501515145b6123d157600080fd5b60006123dc3361301a565b1461244f576040517f08c379a000000000000000000000000000000000000000000000000000000000815260040180806020018281038252600c8152602001807f436c61696d20726577617264000000000000000000000000000000000000000081525060200191505060405180910390fd5b61245833617071565b565b600015156000809054906101000a900473ffffffffffffffffffffffffffffffffffffffff1673ffffffffffffffffffffffffffffffffffffffff1663ff0938a76040518163ffffffff1660e01b815260040160206040518083038186803b1580156124c557600080fd5b505afa1580156124d9573d6000803e3d6000fd5b505050506040513d60208110156124ef57600080fd5b810190808051906020019092919050505015151480156125eb5750600115156000809054906101000a900473ffffffffffffffffffffffffffffffffffffffff1673ffffffffffffffffffffffffffffffffffffffff1663a230c524336040518263ffffffff1660e01b8152600401808273ffffffffffffffffffffffffffffffffffffffff1673ffffffffffffffffffffffffffffffffffffffff16815260200191505060206040518083038186803b1580156125ac57600080fd5b505afa1580156125c0573d6000803e3d6000fd5b505050506040513d60208110156125d657600080fd5b81019080805190602001909291905050501515145b6125f457600080fd5b60006125ff3361301a565b14612672576040517f08c379a000000000000000000000000000000000000000000000000000000000815260040180806020018281038252600c8152602001807f436c61696d20726577617264000000000000000000000000000000000000000081525060200191505060405180910390fd5b80600d60003373ffffffffffffffffffffffffffffffffffffffff1673ffffffffffffffffffffffffffffffffffffffff16815260200190815260200160002060006101000a81548160ff02191690831515021790555050565b601760009054906101000a900473ffffffffffffffffffffffffffffffffffffffff1673ffffffffffffffffffffffffffffffffffffffff1663505ef22f336001600381111561271857fe5b6040518363ffffffff1660e01b8152600401808373ffffffffffffffffffffffffffffffffffffffff1673ffffffffffffffffffffffffffffffffffffffff1681526020018281526020019250505060206040518083038186803b15801561277f57600080fd5b505afa158015612793573d6000803e3d6000fd5b505050506040513d60208110156127a957600080fd5b810190808051906020019092919050505080156127d8575042601b600083815260200190815260200160002054115b6127e157600080fd5b600160048111156127ee57fe5b601a6000838152602001908152602001600020541461280c57600080fd5b601c600082815260200190815260200160002060003373ffffffffffffffffffffffffffffffffffffffff1673ffffffffffffffffffffffffffffffffffffffff16815260200190815260200160002060009054906101000a900460ff161561287457600080fd5b6040516024016040516020818303038152906040527fc578f230000000000000000000000000000000000000000000000000000000007bffffffffffffffffffffffffffffffffffffffffffffffffffffffff19166020820180517bffffffffffffffffffffffffffffffffffffffffffffffffffffffff838183161783525050505080519060200120601860009054906101000a900473ffffffffffffffffffffffffffffffffffffffff1673ffffffffffffffffffffffffffffffffffffffff166357c7bec160046000858152602001908152602001600020600201546040518263ffffffff1660e01b81526004018082815260200191505060006040518083038186803b15801561298757600080fd5b505afa15801561299b573d6000803e3d6000fd5b505050506040513d6000823e3d601f19601f8201168201806040525060208110156129c557600080fd5b81019080805160405193929190846401000000008211156129e557600080fd5b838201915060208201858111156129fb57600080fd5b8251866001820283011164010000000082111715612a1857600080fd5b8083526020830192505050908051906020019080838360005b83811015612a4c578082015181840152602081019050612a31565b50505050905090810190601f168015612a795780820380516001836020036101000a031916815260200191505b506040525050506040518082805190602001908083835b60208310612ab35780518252602082019150602081019050602083039250612a90565b6001836020036101000a03801982511681845116808217855250505050505090500191505060405180910390201415612aeb57600080fd5b6001601c600083815260200190815260200160002060003373ffffffffffffffffffffffffffffffffffffffff1673ffffffffffffffffffffffffffffffffffffffff16815260200190815260200160002060006101000a81548160ff021916908315150217905550601d600082815260200190815260200160002060008154809291906001019190505550807f56bdda336a8bb949a57770a7cde5b62bd8913d11d9dde767735db889a609692f33604051808273ffffffffffffffffffffffffffffffffffffffff1673ffffffffffffffffffffffffffffffffffffffff16815260200191505060405180910390a26003601d6000838152602001908152602001600020541415612c1c5760026004811115612c0457fe5b601a6000838152602001908152602001600020819055505b50565b6000606082600560008681526020019081526020016000208481548110612c4257fe5b90600052602060002001808054600181600116156101000203166002900480601f016020809104026020016040519081016040528092919081815260200182805460018160011615610100020316600290048015612ce15780601f10612cb657610100808354040283529160200191612ce1565b820191906000526020600020905b815481529060010190602001808311612cc457829003601f168201915b50505050509050915091509250929050565b60008060008060008560046000888152602001908152602001600020600201546004600089815260200190815260200160002060000154600460008a815260200190815260200160002060010154600460008b8152602001908152602001600020600301549450945094509450945091939590929450565b60105481565b80612d7b81613f02565b612ded576040517f08c379a000000000000000000000000000000000000000000000000000000000815260040180806020018281038252600b8152602001807f4e6f7420616c6c6f77656400000000000000000000000000000000000000000081525060200191505060405180910390fd5b6000809054906101000a900473ffffffffffffffffffffffffffffffffffffffff1673ffffffffffffffffffffffffffffffffffffffff1663a230c524336040518263ffffffff1660e01b8152600401808273ffffffffffffffffffffffffffffffffffffffff1673ffffffffffffffffffffffffffffffffffffffff16815260200191505060206040518083038186803b158015612e8b57600080fd5b505afa158015612e9f573d6000803e3d6000fd5b505050506040513d6020811015612eb557600080fd5b8101908080519060200190929190505050612f38576040517f08c379a000000000000000000000000000000000000000000000000000000000815260040180806020018281038252600a8152602001807f4e6f74204d656d6265720000000000000000000000000000000000000000000081525060200191505060405180910390fd5b61301088888080601f016020809104026020016040519081016040528093929190818152602001838380828437600081840152601f19601f8201169050808301925050505050505087878080601f016020809104026020016040519081016040528093929190818152602001838380828437600081840152601f19601f8201169050808301925050505050505086868080601f016020809104026020016040519081016040528093929190818152602001838380828437600081840152601f19601f82011690508083019250505050505050856168f1565b5050505050505050565b600080600960008473ffffffffffffffffffffffffffffffffffffffff1673ffffffffffffffffffffffffffffffffffffffff16815260200190815260200160002054905060008061306a61979e565b6003848154811061307757fe5b90600052602060002090600302016040518060600160405290816000820160009054906101000a900473ffffffffffffffffffffffffffffffffffffffff1673ffffffffffffffffffffffffffffffffffffffff1673ffffffffffffffffffffffffffffffffffffffff1681526020016001820160009054906101000a900473ffffffffffffffffffffffffffffffffffffffff1673ffffffffffffffffffffffffffffffffffffffff1673ffffffffffffffffffffffffffffffffffffffff16815260200160028201548152505090506000841180156131895750600073ffffffffffffffffffffffffffffffffffffffff16816020015173ffffffffffffffffffffffffffffffffffffffff1614155b156131a15780602001519250806040015191506131a5565b8592505b600080600e60008973ffffffffffffffffffffffffffffffffffffffff1673ffffffffffffffffffffffffffffffffffffffff1681526020019081526020016000205490505b600660008673ffffffffffffffffffffffffffffffffffffffff1673ffffffffffffffffffffffffffffffffffffffff168152602001908152602001600020805490508110156134d35761324a60105485615c3a90919063ffffffff16565b6002600660008873ffffffffffffffffffffffffffffffffffffffff1673ffffffffffffffffffffffffffffffffffffffff168152602001908152602001600020838154811061329657fe5b9060005260206000200154815481106132ab57fe5b90600052602060002090600302016002015411806132f457508773ffffffffffffffffffffffffffffffffffffffff168573ffffffffffffffffffffffffffffffffffffffff16145b156134c65760076000600660008873ffffffffffffffffffffffffffffffffffffffff1673ffffffffffffffffffffffffffffffffffffffff168152602001908152602001600020838154811061334757fe5b9060005260206000200154815260200190815260200160002060008973ffffffffffffffffffffffffffffffffffffffff1673ffffffffffffffffffffffffffffffffffffffff16815260200190815260200160002060009054906101000a900460ff166134c5576002600660008773ffffffffffffffffffffffffffffffffffffffff1673ffffffffffffffffffffffffffffffffffffffff16815260200190815260200160002082815481106133fb57fe5b90600052602060002001548154811061341057fe5b90600052602060002090600302016001015491506000600c60008481526020019081526020016000206002015411801561346b57506002600681111561345257fe5b6004600084815260200190815260200160002060000154115b156134c4576134c16134b2600c600085815260200190815260200160002060020154600460008681526020019081526020016000206003015461702790919063ffffffff16565b88615c3a90919063ffffffff16565b96505b5b5b80806001019150506131eb565b505050505050919050565b60076020528160005260406000206020528060005260406000206000915091509054906101000a900460ff1681565b6000808291507f474f56484f4c44000000000000000000000000000000000000000000000000008377ffffffffffffffffffffffffffffffffffffffffffffffff1916141561356c57620151806010548161356457fe5b049050613762565b7f4d4158464f4c00000000000000000000000000000000000000000000000000008377ffffffffffffffffffffffffffffffffffffffffffffffff191614156135b9576014549050613761565b7f4d415844524654000000000000000000000000000000000000000000000000008377ffffffffffffffffffffffffffffffffffffffffffffffff1916141561361257620151806016548161360a57fe5b049050613760565b7f455054494d4500000000000000000000000000000000000000000000000000008377ffffffffffffffffffffffffffffffffffffffffffffffff1916141561370a57620151806000809054906101000a900473ffffffffffffffffffffffffffffffffffffffff1673ffffffffffffffffffffffffffffffffffffffff1663015cb3ff6040518163ffffffff1660e01b815260040160206040518083038186803b1580156136c057600080fd5b505afa1580156136d4573d6000803e3d6000fd5b505050506040513d60208110156136ea57600080fd5b81019080805190602001909291905050508161370257fe5b04905061375f565b7f41435754000000000000000000000000000000000000000000000000000000008377ffffffffffffffffffffffffffffffffffffffffffffffff1916141561375e57610e10601f548161375a57fe5b0490505b5b5b5b5b915091565b826002600681111561377557fe5b60046000838152602001908152602001600020600001541061379657600080fd5b601760009054906101000a900473ffffffffffffffffffffffffffffffffffffffff1673ffffffffffffffffffffffffffffffffffffffff1663505ef22f336011546040518363ffffffff1660e01b8152600401808373ffffffffffffffffffffffffffffffffffffffff1673ffffffffffffffffffffffffffffffffffffffff1681526020018281526020019250505060206040518083038186803b15801561383f57600080fd5b505afa158015613853573d6000803e3d6000fd5b505050506040513d602081101561386957600080fd5b81019080805190602001909291905050506138ec576040517f08c379a000000000000000000000000000000000000000000000000000000000815260040180806020018281038252600b8152602001807f4e6f7420616c6c6f77656400000000000000000000000000000000000000000081525060200191505060405180910390fd5b6138f78484846172dc565b50505050565b6002600681111561390a57fe5b600460008481526020019081526020016000206000015414613994576040517f08c379a000000000000000000000000000000000000000000000000000000000815260040180806020018281038252600b8152602001807f4e6f7420616c6c6f77656400000000000000000000000000000000000000000081525060200191505060405180910390fd5b600560008381526020019081526020016000208054905081106139b657600080fd5b6139c082826174b0565b5050565b846004600082815260200190815260200160002060050160009054906101000a900473ffffffffffffffffffffffffffffffffffffffff1673ffffffffffffffffffffffffffffffffffffffff163373ffffffffffffffffffffffffffffffffffffffff1614613a9c576040517f08c379a000000000000000000000000000000000000000000000000000000000815260040180806020018281038252600b8152602001807f4e6f7420616c6c6f77656400000000000000000000000000000000000000000081525060200191505060405180910390fd5b60016006811115613aa957fe5b600460008881526020019081526020016000206000015414613aca57600080fd5b613b5d8686868080601f016020809104026020016040519081016040528093929190818152602001838380828437600081840152601f19601f8201169050808301925050505050505085858080601f016020809104026020016040519081016040528093929190818152602001838380828437600081840152601f19601f82011690508083019250505050505050616c4d565b505050505050565b60096020528060005260406000206000915090505481565b6000601554905090565b6000809054906101000a900473ffffffffffffffffffffffffffffffffffffffff1673ffffffffffffffffffffffffffffffffffffffff16635834e67a336040518263ffffffff1660e01b8152600401808273ffffffffffffffffffffffffffffffffffffffff1673ffffffffffffffffffffffffffffffffffffffff16815260200191505060206040518083038186803b158015613c2557600080fd5b505afa158015613c39573d6000803e3d6000fd5b505050506040513d6020811015613c4f57600080fd5b8101908080519060200190929190505050613c6957600080fd5b7f474f56484f4c44000000000000000000000000000000000000000000000000008277ffffffffffffffffffffffffffffffffffffffffffffffff19161415613cbd57620151808102601081905550613efe565b7f4d4158464f4c00000000000000000000000000000000000000000000000000008277ffffffffffffffffffffffffffffffffffffffffffffffff19161415613d0c5780601481905550613efd565b7f4d415844524654000000000000000000000000000000000000000000000000008277ffffffffffffffffffffffffffffffffffffffffffffffff19161415613d6057620151808102601681905550613efc565b7f455054494d4500000000000000000000000000000000000000000000000000008277ffffffffffffffffffffffffffffffffffffffffffffffff19161415613e39576000809054906101000a900473ffffffffffffffffffffffffffffffffffffffff1673ffffffffffffffffffffffffffffffffffffffff166378ddbed46201518083026040518263ffffffff1660e01b815260040180828152602001915050600060405180830381600087803b158015613e1c57600080fd5b505af1158015613e30573d6000803e3d6000fd5b50505050613efb565b7f41435754000000000000000000000000000000000000000000000000000000008277ffffffffffffffffffffffffffffffffffffffffffffffff19161415613e8c57610e108102601f81905550613efa565b6040517f08c379a000000000000000000000000000000000000000000000000000000000815260040180806020018281038252600c8152602001807f496e76616c696420636f6465000000000000000000000000000000000000000081525060200191505060405180910390fd5b5b5b5b5b5050565b600080821415613f1557600190506141fd565b6060601860009054906101000a900473ffffffffffffffffffffffffffffffffffffffff1673ffffffffffffffffffffffffffffffffffffffff1663253eca1f846040518263ffffffff1660e01b81526004018082815260200191505060006040518083038186803b158015613f8a57600080fd5b505afa158015613f9e573d6000803e3d6000fd5b505050506040513d6000823e3d601f19601f8201168201806040525060e0811015613fc857600080fd5b81019080805190602001909291908051906020019092919080519060200190929190805190602001909291908051604051939291908464010000000082111561401057600080fd5b8382019150602082018581111561402657600080fd5b825186602082028301116401000000008211171561404357600080fd5b8083526020830192505050908051906020019060200280838360005b8381101561407a57808201518184015260208101905061405f565b505050509050016040526020018051906020019092919080519060200190929190505050909192939495509091929394509091929350909192509050508091505060008090505b81518110156141fa5760008282815181106140d857fe5b602002602001015114806141dd5750601760009054906101000a900473ffffffffffffffffffffffffffffffffffffffff1673ffffffffffffffffffffffffffffffffffffffff1663505ef22f3384848151811061413257fe5b60200260200101516040518363ffffffff1660e01b8152600401808373ffffffffffffffffffffffffffffffffffffffff1673ffffffffffffffffffffffffffffffffffffffff1681526020018281526020019250505060206040518083038186803b1580156141a157600080fd5b505afa1580156141b5573d6000803e3d6000fd5b505050506040513d60208110156141cb57600080fd5b81019080805190602001909291905050505b156141ed576001925050506141fd565b80806001019150506140c1565b50505b919050565b6000809054906101000a900473ffffffffffffffffffffffffffffffffffffffff1681565b6000601154905090565b600015156000809054906101000a900473ffffffffffffffffffffffffffffffffffffffff1673ffffffffffffffffffffffffffffffffffffffff1663ff0938a76040518163ffffffff1660e01b815260040160206040518083038186803b15801561429c57600080fd5b505afa1580156142b0573d6000803e3d6000fd5b505050506040513d60208110156142c657600080fd5b810190808051906020019092919050505015151480156143c25750600115156000809054906101000a900473ffffffffffffffffffffffffffffffffffffffff1673ffffffffffffffffffffffffffffffffffffffff1663a230c524336040518263ffffffff1660e01b8152600401808273ffffffffffffffffffffffffffffffffffffffff1673ffffffffffffffffffffffffffffffffffffffff16815260200191505060206040518083038186803b15801561438357600080fd5b505afa158015614397573d6000803e3d6000fd5b505050506040513d60208110156143ad57600080fd5b81019080805190602001909291905050501515145b6143cb57600080fd5b60006143d63361301a565b14614449576040517f08c379a000000000000000000000000000000000000000000000000000000000815260040180806020018281038252600c8152602001807f436c61696d20726577617264000000000000000000000000000000000000000081525060200191505060405180910390fd5b6000809054906101000a900473ffffffffffffffffffffffffffffffffffffffff1673ffffffffffffffffffffffffffffffffffffffff1663c15041d56040518163ffffffff1660e01b815260040160206040518083038186803b1580156144b057600080fd5b505afa1580156144c4573d6000803e3d6000fd5b505050506040513d60208110156144da57600080fd5b81019080805190602001909291905050506144f457600080fd5b600073ffffffffffffffffffffffffffffffffffffffff166003600960008473ffffffffffffffffffffffffffffffffffffffff1673ffffffffffffffffffffffffffffffffffffffff168152602001908152602001600020548154811061455857fe5b906000526020600020906003020160010160009054906101000a900473ffffffffffffffffffffffffffffffffffffffff1673ffffffffffffffffffffffffffffffffffffffff16146145aa57600080fd5b6000600960003373ffffffffffffffffffffffffffffffffffffffff1673ffffffffffffffffffffffffffffffffffffffff16815260200190815260200160002054111561467057426146656010546003600960003373ffffffffffffffffffffffffffffffffffffffff1673ffffffffffffffffffffffffffffffffffffffff168152602001908152602001600020548154811061464557fe5b906000526020600020906003020160020154615c3a90919063ffffffff16565b1061466f57600080fd5b5b61467933615b04565b1561468357600080fd5b601760009054906101000a900473ffffffffffffffffffffffffffffffffffffffff1673ffffffffffffffffffffffffffffffffffffffff1663505ef22f336003808111156146ce57fe5b6040518363ffffffff1660e01b8152600401808373ffffffffffffffffffffffffffffffffffffffff1673ffffffffffffffffffffffffffffffffffffffff1681526020018281526020019250505060206040518083038186803b15801561473557600080fd5b505afa158015614749573d6000803e3d6000fd5b505050506040513d602081101561475f57600080fd5b81019080805190602001909291905050501561477a57600080fd5b601760009054906101000a900473ffffffffffffffffffffffffffffffffffffffff1673ffffffffffffffffffffffffffffffffffffffff1663505ef22f33600160038111156147c657fe5b6040518363ffffffff1660e01b8152600401808373ffffffffffffffffffffffffffffffffffffffff1673ffffffffffffffffffffffffffffffffffffffff1681526020018281526020019250505060206040518083038186803b15801561482d57600080fd5b505afa158015614841573d6000803e3d6000fd5b505050506040513d602081101561485757600080fd5b81019080805190602001909291905050501561487257600080fd5b601454600a60008373ffffffffffffffffffffffffffffffffffffffff1673ffffffffffffffffffffffffffffffffffffffff16815260200190815260200160002054106148bf57600080fd5b6000600660003373ffffffffffffffffffffffffffffffffffffffff1673ffffffffffffffffffffffffffffffffffffffff1681526020019081526020016000208054905011156149e257426149d76010546002600660003373ffffffffffffffffffffffffffffffffffffffff1673ffffffffffffffffffffffffffffffffffffffff1681526020019081526020016000206001600660003373ffffffffffffffffffffffffffffffffffffffff1673ffffffffffffffffffffffffffffffffffffffff1681526020019081526020016000208054905003815481106149a257fe5b9060005260206000200154815481106149b757fe5b906000526020600020906003020160020154615c3a90919063ffffffff16565b106149e157600080fd5b5b6000809054906101000a900473ffffffffffffffffffffffffffffffffffffffff1673ffffffffffffffffffffffffffffffffffffffff1663a230c524826040518263ffffffff1660e01b8152600401808273ffffffffffffffffffffffffffffffffffffffff1673ffffffffffffffffffffffffffffffffffffffff16815260200191505060206040518083038186803b158015614a8057600080fd5b505afa158015614a94573d6000803e3d6000fd5b505050506040513d6020811015614aaa57600080fd5b8101908080519060200190929190505050614ac457600080fd5b600d60008273ffffffffffffffffffffffffffffffffffffffff1673ffffffffffffffffffffffffffffffffffffffff16815260200190815260200160002060009054906101000a900460ff16614b1a57600080fd5b600360405180606001604052803373ffffffffffffffffffffffffffffffffffffffff1681526020018373ffffffffffffffffffffffffffffffffffffffff168152602001428152509080600181540180825580915050906001820390600052602060002090600302016000909192909190915060008201518160000160006101000a81548173ffffffffffffffffffffffffffffffffffffffff021916908373ffffffffffffffffffffffffffffffffffffffff16021790555060208201518160010160006101000a81548173ffffffffffffffffffffffffffffffffffffffff021916908373ffffffffffffffffffffffffffffffffffffffff16021790555060408201518160020155505050600160038054905003600960003373ffffffffffffffffffffffffffffffffffffffff1673ffffffffffffffffffffffffffffffffffffffff16815260200190815260200160002081905550600b60008273ffffffffffffffffffffffffffffffffffffffff1673ffffffffffffffffffffffffffffffffffffffff1681526020019081526020016000206001600380549050039080600181540180825580915050906001820390600052602060002001600090919290919091505550600a60008273ffffffffffffffffffffffffffffffffffffffff1673ffffffffffffffffffffffffffffffffffffffff16815260200190815260200160002060008154809291906001019190505550600660008273ffffffffffffffffffffffffffffffffffffffff1673ffffffffffffffffffffffffffffffffffffffff16815260200190815260200160002080549050600e60003373ffffffffffffffffffffffffffffffffffffffff1673ffffffffffffffffffffffffffffffffffffffff1681526020019081526020016000208190555050565b60038181548110614dcb57fe5b90600052602060002090600302016000915090508060000160009054906101000a900473ffffffffffffffffffffffffffffffffffffffff16908060010160009054906101000a900473ffffffffffffffffffffffffffffffffffffffff16908060020154905083565b6000806000806000806004600088815260200190815260200160002060000154935060046000888152602001908152602001600020600401549450601860009054906101000a900473ffffffffffffffffffffffffffffffffffffffff1673ffffffffffffffffffffffffffffffffffffffff1663253eca1f600460008a8152602001908152602001600020600201546040518263ffffffff1660e01b81526004018082815260200191505060006040518083038186803b158015614ef957600080fd5b505afa158015614f0d573d6000803e3d6000fd5b505050506040513d6000823e3d601f19601f8201168201806040525060e0811015614f3757600080fd5b810190808051906020019092919080519060200190929190805190602001909291908051906020019092919080516040519392919084640100000000821115614f7f57600080fd5b83820191506020820185811115614f9557600080fd5b8251866020820283011164010000000082111715614fb257600080fd5b8083526020830192505050908051906020019060200280838360005b83811015614fe9578082015181840152602081019050614fce565b5050505090500160405260200180519060200190929190805190602001909291905050509091929394955090919250909150508095508193508294505050506002600681111561503557fe5b841415615245576000601760009054906101000a900473ffffffffffffffffffffffffffffffffffffffff1673ffffffffffffffffffffffffffffffffffffffff16630dc6f847846040518263ffffffff1660e01b81526004018082815260200191505060206040518083038186803b1580156150b157600080fd5b505afa1580156150c5573d6000803e3d6000fd5b505050506040513d60208110156150db57600080fd5b81019080805190602001909291905050509050600160038111156150fb57fe5b8314156151f45781615151826151436064600c60008e815260200190815260200160002060010160006001815260200190815260200160002054617ea090919063ffffffff16565b61702790919063ffffffff16565b1015806151be5750806151bc600c60008b8152602001908152602001600020600101600080815260200190815260200160002054600c60008c815260200190815260200160002060010160006001815260200190815260200160002054615c3a90919063ffffffff16565b145b806151db5750426151d88588615c3a90919063ffffffff16565b11155b156151ef576001965050505050505061527b565b61523f565b600c60008981526020019081526020016000206002015481148061522a5750426152278588615c3a90919063ffffffff16565b11155b1561523e576001965050505050505061527b565b5b50615275565b6002600681111561525257fe5b8411156152675760029550505050505061527b565b60009550505050505061527b565b50505050505b919050565b6060600b60008373ffffffffffffffffffffffffffffffffffffffff1673ffffffffffffffffffffffffffffffffffffffff16815260200190815260200160002080548060200260200160405190810160405280929190818152602001828054801561530b57602002820191906000526020600020905b8154815260200190600101908083116152f7575b50505050509050919050565b6001600481111561532457fe5b601a600083815260200190815260200160002054148015615358575042601b60008381526020019081526020016000205411155b6153ca576040517f08c379a000000000000000000000000000000000000000000000000000000000815260040180806020018281038252600e8152602001807f43616e6e6f74207472696767657200000000000000000000000000000000000081525060200191505060405180910390fd5b6153ea816004600084815260200190815260200160002060020154617f26565b50565b6000809054906101000a900473ffffffffffffffffffffffffffffffffffffffff1673ffffffffffffffffffffffffffffffffffffffff16632f54bf6e336040518263ffffffff1660e01b8152600401808273ffffffffffffffffffffffffffffffffffffffff1673ffffffffffffffffffffffffffffffffffffffff16815260200191505060206040518083038186803b15801561548b57600080fd5b505afa15801561549f573d6000803e3d6000fd5b505050506040513d60208110156154b557600080fd5b81019080805190602001909291905050506154cf57600080fd5b601e60009054906101000a900460ff16156154e957600080fd5b6001601e60006101000a81548160ff02191690831515021790555062015180601f81905550565b600073ffffffffffffffffffffffffffffffffffffffff166000809054906101000a900473ffffffffffffffffffffffffffffffffffffffff1673ffffffffffffffffffffffffffffffffffffffff1614615628573373ffffffffffffffffffffffffffffffffffffffff166000809054906101000a900473ffffffffffffffffffffffffffffffffffffffff1673ffffffffffffffffffffffffffffffffffffffff1614615627576040517f08c379a000000000000000000000000000000000000000000000000000000000815260040180806020018281038252600a8152602001807f4e6f74206d61737465720000000000000000000000000000000000000000000081525060200191505060405180910390fd5b5b806000806101000a81548173ffffffffffffffffffffffffffffffffffffffff021916908373ffffffffffffffffffffffffffffffffffffffff16021790555080600160006101000a81548173ffffffffffffffffffffffffffffffffffffffff021916908373ffffffffffffffffffffffffffffffffffffffff16021790555050565b600d6020528060005260406000206000915054906101000a900460ff1681565b600e6020528060005260406000206000915090505481565b866004600082815260200190815260200160002060050160009054906101000a900473ffffffffffffffffffffffffffffffffffffffff1673ffffffffffffffffffffffffffffffffffffffff163373ffffffffffffffffffffffffffffffffffffffff16146157bc576040517f08c379a000000000000000000000000000000000000000000000000000000000815260040180806020018281038252600b8152602001807f4e6f7420616c6c6f77656400000000000000000000000000000000000000000081525060200191505060405180910390fd5b6002600560008a81526020019081526020016000208054905010615848576040517f08c379a000000000000000000000000000000000000000000000000000000000815260040180806020018281038252600b8152602001807f4e6f7420616c6c6f77656400000000000000000000000000000000000000000081525060200191505060405180910390fd5b6000600681111561585557fe5b600460008a8152602001908152602001600020600001819055506000600460008a8152602001908152602001600020600201819055506000600460008a81526020019081526020016000206003018190555087600460008a815260200190815260200160002060050160009054906101000a900473ffffffffffffffffffffffffffffffffffffffff1673ffffffffffffffffffffffffffffffffffffffff167f470106408ef1beec24fa0f364830357ef2a70d11457aa4eb9b30b1bbc0172abe428a8a8a8a8a8a6040518088815260200180602001806020018060200184810384528a8a82818152602001925080828437600081840152601f19601f8201169050808301925050508481038352888882818152602001925080828437600081840152601f19601f8201169050808301925050508481038252868682818152602001925080828437600081840152601f19601f8201169050808301925050509a505050505050505050505060405180910390a35050505050505050565b600c6020528060005260406000206000915090508060020154905081565b6000809054906101000a900473ffffffffffffffffffffffffffffffffffffffff1673ffffffffffffffffffffffffffffffffffffffff16638f16c41c336040518263ffffffff1660e01b8152600401808273ffffffffffffffffffffffffffffffffffffffff1673ffffffffffffffffffffffffffffffffffffffff16815260200191505060206040518083038186803b158015615a8e57600080fd5b505afa158015615aa2573d6000803e3d6000fd5b505050506040513d6020811015615ab857600080fd5b8101908080519060200190929190505050615ad257600080fd5b615adb81617071565b50565b600160009054906101000a900473ffffffffffffffffffffffffffffffffffffffff1681565b600080600090505b600b60008473ffffffffffffffffffffffffffffffffffffffff1673ffffffffffffffffffffffffffffffffffffffff16815260200190815260200160002080549050811015615c33578273ffffffffffffffffffffffffffffffffffffffff166003600b60008673ffffffffffffffffffffffffffffffffffffffff1673ffffffffffffffffffffffffffffffffffffffff1681526020019081526020016000208381548110615bb957fe5b906000526020600020015481548110615bce57fe5b906000526020600020906003020160010160009054906101000a900473ffffffffffffffffffffffffffffffffffffffff1673ffffffffffffffffffffffffffffffffffffffff161415615c26576001915050615c35565b8080600101915050615b0c565b505b919050565b600080828401905083811015615cb8576040517f08c379a000000000000000000000000000000000000000000000000000000000815260040180806020018281038252601b8152602001807f536166654d6174683a206164646974696f6e206f766572666c6f77000000000081525060200191505060405180910390fd5b8091505092915050565b60046006811115615ccf57fe5b811480615ce65750600680811115615ce357fe5b81145b15615d0f57600480811115615cf757fe5b601a6000848152602001908152602001600020819055505b4260046000848152602001908152602001600020600401819055508060046000848152602001908152602001600020600001819055505050565b60008060019050601860009054906101000a900473ffffffffffffffffffffffffffffffffffffffff1673ffffffffffffffffffffffffffffffffffffffff1663253eca1f846040518263ffffffff1660e01b81526004018082815260200191505060006040518083038186803b158015615dc357600080fd5b505afa158015615dd7573d6000803e3d6000fd5b505050506040513d6000823e3d601f19601f8201168201806040525060e0811015615e0157600080fd5b810190808051906020019092919080519060200190929190805190602001909291908051906020019092919080516040519392919084640100000000821115615e4957600080fd5b83820191506020820185811115615e5f57600080fd5b8251866020820283011164010000000082111715615e7c57600080fd5b8083526020830192505050908051906020019060200280838360005b83811015615eb3578082015181840152602081019050615e98565b50505050905001604052602001805190602001909291908051906020019092919050505090919293949550909192939450909192509091509050508092505081615ff9601760009054906101000a900473ffffffffffffffffffffffffffffffffffffffff1673ffffffffffffffffffffffffffffffffffffffff16630dc6f847846003811115615f4057fe5b6040518263ffffffff1660e01b81526004018082815260200191505060206040518083038186803b158015615f7457600080fd5b505afa158015615f88573d6000803e3d6000fd5b505050506040513d6020811015615f9e57600080fd5b8101908080519060200190929190505050615feb6064600c60008a815260200190815260200160002060010160006001815260200190815260200160002054617ea090919063ffffffff16565b61702790919063ffffffff16565b1061601d57616018846003600681111561600f57fe5b856001856184ee565b616033565b6160328460068081111561602d57fe5b615cc2565b5b50505050565b600080601860009054906101000a900473ffffffffffffffffffffffffffffffffffffffff1673ffffffffffffffffffffffffffffffffffffffff166307149ba3846040518263ffffffff1660e01b81526004018082815260200191505060606040518083038186803b1580156160af57600080fd5b505afa1580156160c3573d6000803e3d6000fd5b505050506040513d60608110156160d957600080fd5b81019080805190602001909291908051906020019092919080519060200190929190505050909150809350819250505060018214156163305760006162e961629f6161ee670de0b6b3a7640000601760009054906101000a900473ffffffffffffffffffffffffffffffffffffffff1673ffffffffffffffffffffffffffffffffffffffff16630dc6f8476002600381111561617157fe5b6040518263ffffffff1660e01b81526004018082815260200191505060206040518083038186803b1580156161a557600080fd5b505afa1580156161b9573d6000803e3d6000fd5b505050506040513d60208110156161cf57600080fd5b8101908080519060200190929190505050617ea090919063ffffffff16565b601960009054906101000a900473ffffffffffffffffffffffffffffffffffffffff1673ffffffffffffffffffffffffffffffffffffffff166318160ddd6040518163ffffffff1660e01b815260040160206040518083038186803b15801561625657600080fd5b505afa15801561626a573d6000803e3d6000fd5b505050506040513d602081101561628057600080fd5b8101908080519060200190929190505050615c3a90919063ffffffff16565b6162db6064600c60008a815260200190815260200160002060000160006001815260200190815260200160002054617ea090919063ffffffff16565b61702790919063ffffffff16565b905060135481106163145761630f856003600681111561630557fe5b86600160026184ee565b61632a565b6163298560068081111561632457fe5b615cc2565b5b50616728565b61633a84846185f6565b156165d5576000601860009054906101000a900473ffffffffffffffffffffffffffffffffffffffff1673ffffffffffffffffffffffffffffffffffffffff1663253eca1f856040518263ffffffff1660e01b81526004018082815260200191505060006040518083038186803b1580156163b457600080fd5b505afa1580156163c8573d6000803e3d6000fd5b505050506040513d6000823e3d601f19601f8201168201806040525060e08110156163f257600080fd5b81019080805190602001909291908051906020019092919080519060200190929190805190602001909291908051604051939291908464010000000082111561643a57600080fd5b8382019150602082018581111561645057600080fd5b825186602082028301116401000000008211171561646d57600080fd5b8083526020830192505050908051906020019060200280838360005b838110156164a4578082015181840152602081019050616489565b50505050905001604052602001805190602001909291908051906020019092919050505090919293949550909192939450909192509091509050508091505080616593616549600c600089815260200190815260200160002060000160006001815260200190815260200160002054600c60008a8152602001908152602001600020600001600080815260200190815260200160002054615c3a90919063ffffffff16565b6165856064600c60008b815260200190815260200160002060000160006001815260200190815260200160002054617ea090919063ffffffff16565b61702790919063ffffffff16565b106165b8576165b385600360068111156165a957fe5b86600160026184ee565b6165cf565b6165ce85600460068111156165c957fe5b615cc2565b5b50616727565b6000811180156166eb5750806166e8601760009054906101000a900473ffffffffffffffffffffffffffffffffffffffff1673ffffffffffffffffffffffffffffffffffffffff16630dc6f8476001600381111561662f57fe5b6040518263ffffffff1660e01b81526004018082815260200191505060206040518083038186803b15801561666357600080fd5b505afa158015616677573d6000803e3d6000fd5b505050506040513d602081101561668d57600080fd5b81019080805190602001909291905050506166da6064600c60008a815260200190815260200160002060010160006001815260200190815260200160002054617ea090919063ffffffff16565b61702790919063ffffffff16565b10155b156167105761670b846003600681111561670157fe5b85600160026184ee565b616726565b6167258460068081111561672057fe5b615cc2565b5b5b5b6000600c60008681526020019081526020016000206002015411156168eb57601960009054906101000a900473ffffffffffffffffffffffffffffffffffffffff1673ffffffffffffffffffffffffffffffffffffffff166340c10f196000809054906101000a900473ffffffffffffffffffffffffffffffffffffffff1673ffffffffffffffffffffffffffffffffffffffff1663013828586040518163ffffffff1660e01b815260040180807f4352000000000000000000000000000000000000000000000000000000000000815250602001905060206040518083038186803b15801561681757600080fd5b505afa15801561682b573d6000803e3d6000fd5b505050506040513d602081101561684157600080fd5b810190808051906020019092919050505060046000888152602001908152602001600020600301546040518363ffffffff1660e01b8152600401808373ffffffffffffffffffffffffffffffffffffffff1673ffffffffffffffffffffffffffffffffffffffff16815260200182815260200192505050600060405180830381600087803b1580156168d257600080fd5b505af11580156168e6573d6000803e3d6000fd5b505050505b50505050565b6000601860009054906101000a900473ffffffffffffffffffffffffffffffffffffffff1673ffffffffffffffffffffffffffffffffffffffff166378005297836040518263ffffffff1660e01b81526004018082815260200191505060206040518083038186803b15801561696657600080fd5b505afa15801561697a573d6000803e3d6000fd5b505050506040513d602081101561699057600080fd5b810190808051906020019092919050505014806169ad5750600081145b6169b657600080fd5b60006015549050336004600083815260200190815260200160002060050160006101000a81548173ffffffffffffffffffffffffffffffffffffffff021916908373ffffffffffffffffffffffffffffffffffffffff160217905550426004600083815260200190815260200160002060040181905550600560008281526020019081526020016000208060018154018082558091505090600182039060005260206000200160006040518060200160405280600081525090919091509080519060200190616a869291906197eb565b5050601560008154809291906001019190505550803373ffffffffffffffffffffffffffffffffffffffff167f470106408ef1beec24fa0f364830357ef2a70d11457aa4eb9b30b1bbc0172abe4288888860405180858152602001806020018060200180602001848103845287818151815260200191508051906020019080838360005b83811015616b25578082015181840152602081019050616b0a565b50505050905090810190601f168015616b525780820380516001836020036101000a031916815260200191505b50848103835286818151815260200191508051906020019080838360005b83811015616b8b578082015181840152602081019050616b70565b50505050905090810190601f168015616bb85780820380516001836020036101000a031916815260200191505b50848103825285818151815260200191508051906020019080838360005b83811015616bf1578082015181840152602081019050616bd6565b50505050905090810190601f168015616c1e5780820380516001836020036101000a031916815260200191505b5097505050505050505060405180910390a36000821115616c4657616c45818360006172dc565b5b5050505050565b6000600460008581526020019081526020016000206002015490506000601860009054906101000a900473ffffffffffffffffffffffffffffffffffffffff1673ffffffffffffffffffffffffffffffffffffffff166357c7bec1836040518263ffffffff1660e01b81526004018082815260200191505060006040518083038186803b158015616cdd57600080fd5b505afa158015616cf1573d6000803e3d6000fd5b505050506040513d6000823e3d601f19601f820116820180604052506020811015616d1b57600080fd5b8101908080516040519392919084640100000000821115616d3b57600080fd5b83820191506020820185811115616d5157600080fd5b8251866001820283011164010000000082111715616d6e57600080fd5b8083526020830192505050908051906020019080838360005b83811015616da2578082015181840152602081019050616d87565b50505050905090810190601f168015616dcf5780820380516001836020036101000a031916815260200191505b50604052505050511415616e24576040518060000190506040518091039020828051906020012014616e0057600080fd5b600480811115616e0c57fe5b601a6000868152602001908152602001600020819055505b616e2f8483856189ab565b616e458460026006811115616e4057fe5b615cc2565b6000601860009054906101000a900473ffffffffffffffffffffffffffffffffffffffff1673ffffffffffffffffffffffffffffffffffffffff1663253eca1f836040518263ffffffff1660e01b81526004018082815260200191505060006040518083038186803b158015616eba57600080fd5b505afa158015616ece573d6000803e3d6000fd5b505050506040513d6000823e3d601f19601f8201168201806040525060e0811015616ef857600080fd5b810190808051906020019092919080519060200190929190805190602001909291908051906020019092919080516040519392919084640100000000821115616f4057600080fd5b83820191506020820185811115616f5657600080fd5b8251866020820283011164010000000082111715616f7357600080fd5b8083526020830192505050908051906020019060200280838360005b83811015616faa578082015181840152602081019050616f8f565b5050505090500160405260200180519060200190929190805190602001909291905050505095505050505050847fc5be51db6c7799c3f641eecd22b62761981da3190ac6d1d306bc36724356625861700b4284615c3a90919063ffffffff16565b6040518082815260200191505060405180910390a25050505050565b600061706983836040518060400160405280601a81526020017f536166654d6174683a206469766973696f6e206279207a65726f000000000000815250618ad6565b905092915050565b6000600960008373ffffffffffffffffffffffffffffffffffffffff1673ffffffffffffffffffffffffffffffffffffffff16815260200190815260200160002054905060008111156172d85761714f6001600a6000600385815481106170d457fe5b906000526020600020906003020160010160009054906101000a900473ffffffffffffffffffffffffffffffffffffffff1673ffffffffffffffffffffffffffffffffffffffff1673ffffffffffffffffffffffffffffffffffffffff16815260200190815260200160002054618b9c90919063ffffffff16565b600a60006003848154811061716057fe5b906000526020600020906003020160010160009054906101000a900473ffffffffffffffffffffffffffffffffffffffff1673ffffffffffffffffffffffffffffffffffffffff1673ffffffffffffffffffffffffffffffffffffffff168152602001908152602001600020819055506000600382815481106171df57fe5b906000526020600020906003020160010160006101000a81548173ffffffffffffffffffffffffffffffffffffffff021916908373ffffffffffffffffffffffffffffffffffffffff160217905550426003828154811061723c57fe5b906000526020600020906003020160020181905550600660008373ffffffffffffffffffffffffffffffffffffffff1673ffffffffffffffffffffffffffffffffffffffff16815260200190815260200160002080549050600e60008473ffffffffffffffffffffffffffffffffffffffff1673ffffffffffffffffffffffffffffffffffffffff168152602001908152602001600020819055505b5050565b60008211801561738d5750601860009054906101000a900473ffffffffffffffffffffffffffffffffffffffff1673ffffffffffffffffffffffffffffffffffffffff166339275b0a6040518163ffffffff1660e01b815260040160206040518083038186803b15801561734f57600080fd5b505afa158015617363573d6000803e3d6000fd5b505050506040513d602081101561737957600080fd5b810190808051906020019092919050505082105b6173ff576040517f08c379a00000000000000000000000000000000000000000000000000000000081526004018080602001828103825260108152602001807f496e76616c69642063617465676f72790000000000000000000000000000000081525060200191505060405180910390fd5b8160046000858152602001908152602001600020600201819055508060046000858152602001908152602001600020600301819055506001600681111561744257fe5b60046000858152602001908152602001600020600001819055503373ffffffffffffffffffffffffffffffffffffffff16837f5c0ed4086100f9e2c57a36b2c5ae3a1f991b2fd6af5a44cf0b9afb8a21796cdc846040518082815260200191505060405180910390a3505050565b6000600960003373ffffffffffffffffffffffffffffffffffffffff1673ffffffffffffffffffffffffffffffffffffffff1681526020019081526020016000205490506000806000601860009054906101000a900473ffffffffffffffffffffffffffffffffffffffff1673ffffffffffffffffffffffffffffffffffffffff1663253eca1f60046000898152602001908152602001600020600201546040518263ffffffff1660e01b81526004018082815260200191505060006040518083038186803b15801561758257600080fd5b505afa158015617596573d6000803e3d6000fd5b505050506040513d6000823e3d601f19601f8201168201806040525060e08110156175c057600080fd5b81019080805190602001909291908051906020019092919080519060200190929190805190602001909291908051604051939291908464010000000082111561760857600080fd5b8382019150602082018581111561761e57600080fd5b825186602082028301116401000000008211171561763b57600080fd5b8083526020830192505050908051906020019060200280838360005b83811015617672578082015181840152602081019050617657565b505050509050016040526020018051906020019092919080519060200190929190505050909192939495509091925090915050809350819450829550505050426176db82600460008a815260200190815260200160002060040154615c3a90919063ffffffff16565b1161774e576040517f08c379a00000000000000000000000000000000000000000000000000000000081526004018080602001828103825260068152602001807f436c6f736564000000000000000000000000000000000000000000000000000081525060200191505060405180910390fd5b6000600860003373ffffffffffffffffffffffffffffffffffffffff1673ffffffffffffffffffffffffffffffffffffffff16815260200190815260200160002060008881526020019081526020016000205414617814576040517f08c379a000000000000000000000000000000000000000000000000000000000815260040180806020018281038252600b8152602001807f4e6f7420616c6c6f77656400000000000000000000000000000000000000000081525060200191505060405180910390fd5b60008414806178c857506000841180156178985750600073ffffffffffffffffffffffffffffffffffffffff166003858154811061784e57fe5b906000526020600020906003020160010160009054906101000a900473ffffffffffffffffffffffffffffffffffffffff1673ffffffffffffffffffffffffffffffffffffffff16145b80156178c757506178c6600385815481106178af57fe5b906000526020600020906003020160020154618be6565b5b5b6178d157600080fd5b601760009054906101000a900473ffffffffffffffffffffffffffffffffffffffff1673ffffffffffffffffffffffffffffffffffffffff1663505ef22f33856040518363ffffffff1660e01b8152600401808373ffffffffffffffffffffffffffffffffffffffff1673ffffffffffffffffffffffffffffffffffffffff1681526020018281526020019250505060206040518083038186803b15801561797857600080fd5b505afa15801561798c573d6000803e3d6000fd5b505050506040513d60208110156179a257600080fd5b8101908080519060200190929190505050617a25576040517f08c379a000000000000000000000000000000000000000000000000000000000815260040180806020018281038252600e8152602001807f4e6f7420417574686f72697a656400000000000000000000000000000000000081525060200191505060405180910390fd5b60006002805490509050600660003373ffffffffffffffffffffffffffffffffffffffff1673ffffffffffffffffffffffffffffffffffffffff16815260200190815260200160002081908060018154018082558091505090600182039060005260206000200160009091929091909150555080600860003373ffffffffffffffffffffffffffffffffffffffff1673ffffffffffffffffffffffffffffffffffffffff168152602001908152602001600020600089815260200190815260200160002081905550600260405180606001604052803373ffffffffffffffffffffffffffffffffffffffff168152602001898152602001428152509080600181540180825580915050906001820390600052602060002090600302016000909192909190915060008201518160000160006101000a81548173ffffffffffffffffffffffffffffffffffffffff021916908373ffffffffffffffffffffffffffffffffffffffff160217905550602082015181600101556040820151816002015550505080873373ffffffffffffffffffffffffffffffffffffffff167f89eb0be5e1a1bcbad3c382ad8d3f2698ea4d54d9a179cd2368d184358ecad451428a604051808381526020018281526020019250505060405180910390a4600380811115617c0d57fe5b841415617c6f576001861415617c5357617c4e8760036006811115617c2e57fe5b600460008b815260200190815260200160002060020154600160036184ee565b617c6a565b617c698760046006811115617c6457fe5b615cc2565b5b617e97565b6000601760009054906101000a900473ffffffffffffffffffffffffffffffffffffffff1673ffffffffffffffffffffffffffffffffffffffff16630dc6f847866040518263ffffffff1660e01b81526004018082815260200191505060206040518083038186803b158015617ce457600080fd5b505afa158015617cf8573d6000803e3d6000fd5b505050506040513d6020811015617d0e57600080fd5b81019080805190602001909291905050509050617d2c888887618bf6565b60016003811115617d3957fe5b851415617e3e5783617d8f82617d816064600c60008e815260200190815260200160002060010160006001815260200190815260200160002054617ea090919063ffffffff16565b61702790919063ffffffff16565b101580617dfc575080617dfa600c60008b8152602001908152602001600020600101600080815260200190815260200160002054600c60008c815260200190815260200160002060010160006001815260200190815260200160002054615c3a90919063ffffffff16565b145b15617e39577f9593d9bd30eff4872ec3bab10360ad82eaac80651801e68f47f0674c38415c3d886040518082815260200191505060405180910390a15b617e95565b600c600089815260200190815260200160002060020154811415617e94577f9593d9bd30eff4872ec3bab10360ad82eaac80651801e68f47f0674c38415c3d886040518082815260200191505060405180910390a15b5b505b50505050505050565b600080831415617eb35760009050617f20565b6000828402905082848281617ec457fe5b0414617f1b576040517f08c379a00000000000000000000000000000000000000000000000000000000081526004018080602001828103825260218152602001806199116021913960400191505060405180910390fd5b809150505b92915050565b60036004811115617f3357fe5b601a6000848152602001908152602001600020819055506000806060601860009054906101000a900473ffffffffffffffffffffffffffffffffffffffff1673ffffffffffffffffffffffffffffffffffffffff1663d4aaafb4856040518263ffffffff1660e01b81526004018082815260200191505060006040518083038186803b158015617fc257600080fd5b505afa158015617fd6573d6000803e3d6000fd5b505050506040513d6000823e3d601f19601f8201168201806040525060a081101561800057600080fd5b81019080805190602001909291908051906020019092919080519060200190929190805190602001909291908051604051939291908464010000000082111561804857600080fd5b8382019150602082018581111561805e57600080fd5b825186600182028301116401000000008211171561807b57600080fd5b8083526020830192505050908051906020019080838360005b838110156180af578082015181840152602081019050618094565b50505050905090810190601f1680156180dc5780820380516001836020036101000a031916815260200191505b50604052505050909192935090508093508195508294505050507f4d53000000000000000000000000000000000000000000000000000000000000837dffffffffffffffffffffffffffffffffffffffffffffffffffffffffffff19161415618168576000809054906101000a900473ffffffffffffffffffffffffffffffffffffffff1691506182a3565b7f4558000000000000000000000000000000000000000000000000000000000000837dffffffffffffffffffffffffffffffffffffffffffffffffffffffffffff1916146182a2576000809054906101000a900473ffffffffffffffffffffffffffffffffffffffff1673ffffffffffffffffffffffffffffffffffffffff166301382858846040518263ffffffff1660e01b815260040180827dffffffffffffffffffffffffffffffffffffffffffffffffffffffffffff19167dffffffffffffffffffffffffffffffffffffffffffffffffffffffffffff1916815260200191505060206040518083038186803b15801561826457600080fd5b505afa158015618278573d6000803e3d6000fd5b505050506040513d602081101561828e57600080fd5b810190808051906020019092919050505091505b5b60008273ffffffffffffffffffffffffffffffffffffffff1682600560008981526020019081526020016000206001815481106182dc57fe5b906000526020600020016040516020018083805190602001908083835b6020831061831c57805182526020820191506020810190506020830392506182f9565b6001836020036101000a038019825116818451168082178552505050505050905001828054600181600116156101000203166002900480156183955780601f10618373576101008083540402835291820191618395565b820191906000526020600020905b815481529060010190602001808311618381575b5050925050506040516020818303038152906040526040518082805190602001908083835b602083106183dd57805182526020820191506020810190506020830392506183ba565b6001836020036101000a0380198251168184511680821785525050505050509050019150506000604051808303816000865af19150503d806000811461843f576040519150601f19603f3d011682016040523d82523d6000602084013e618444565b606091505b50509050801561848a577f6535f242c0cf5f7c126188bcde0e013c21a0251762fa3be3c854f59ac30a5cdd866040518082815260200191505060405180910390a16184e6565b6001600481111561849757fe5b601a6000888152602001908152602001600020819055507fa6a7dbbd4f2866cba9cd5a436f4982496ce98682adb410540faa675e61cef015866040518082815260200191505060405180910390a15b505050505050565b8160046000878152602001908152602001600020600101819055506185138585615cc2565b7fd24c2047577899547bacebb29e319fc7d73f6712b5adb401d45556f34bb2aa3b856040518082815260200191505060405180910390a160048081111561855657fe5b601a600087815260200190815260200160002054146185ef576001600381111561857c57fe5b81600381111561858857fe5b141561859d576185988584617f26565b6185ee565b600160048111156185aa57fe5b601a6000878152602001908152602001600020819055506185d642601f54615c3a90919063ffffffff16565b601b6000878152602001908152602001600020819055505b5b5050505050565b6000806000601860009054906101000a900473ffffffffffffffffffffffffffffffffffffffff1673ffffffffffffffffffffffffffffffffffffffff1663253eca1f856040518263ffffffff1660e01b81526004018082815260200191505060006040518083038186803b15801561866e57600080fd5b505afa158015618682573d6000803e3d6000fd5b505050506040513d6000823e3d601f19601f8201168201806040525060e08110156186ac57600080fd5b8101908080519060200190929190805190602001909291908051906020019092919080519060200190929190805160405193929190846401000000008211156186f457600080fd5b8382019150602082018581111561870a57600080fd5b825186602082028301116401000000008211171561872757600080fd5b8083526020830192505050908051906020019060200280838360005b8381101561875e578082015181840152602081019050618743565b50505050905001604052602001805190602001909291908051906020019092919050505090919293949550909192935090915090505080935081925050508161899f61891c61886b670de0b6b3a7640000601760009054906101000a900473ffffffffffffffffffffffffffffffffffffffff1673ffffffffffffffffffffffffffffffffffffffff16630dc6f847876040518263ffffffff1660e01b81526004018082815260200191505060206040518083038186803b15801561882257600080fd5b505afa158015618836573d6000803e3d6000fd5b505050506040513d602081101561884c57600080fd5b8101908080519060200190929190505050617ea090919063ffffffff16565b601960009054906101000a900473ffffffffffffffffffffffffffffffffffffffff1673ffffffffffffffffffffffffffffffffffffffff166318160ddd6040518163ffffffff1660e01b815260040160206040518083038186803b1580156188d357600080fd5b505afa1580156188e7573d6000803e3d6000fd5b505050506040513d60208110156188fd57600080fd5b8101908080519060200190929190505050615c3a90919063ffffffff16565b6189916064618983600c60008c815260200190815260200160002060000160006001815260200190815260200160002054600c60008d8152602001908152602001600020600001600080815260200190815260200160002054615c3a90919063ffffffff16565b617ea090919063ffffffff16565b61702790919063ffffffff16565b10159250505092915050565b600560008481526020019081526020016000208290806001815401808255809150509060018203906000526020600020016000909192909190915090805190602001906189f992919061986b565b505060016005600085815260200190815260200160002080549050033373ffffffffffffffffffffffffffffffffffffffff16847f28aed3fdbf1b73725998bf6a5f364a2b9a08b85236c75f0c0270cfe1b65fba8c84426040518080602001838152602001828103825284818151815260200191508051906020019080838360005b83811015618a96578082015181840152602081019050618a7b565b50505050905090810190601f168015618ac35780820380516001836020036101000a031916815260200191505b50935050505060405180910390a4505050565b60008083118290618b82576040517f08c379a00000000000000000000000000000000000000000000000000000000081526004018080602001828103825283818151815260200191508051906020019080838360005b83811015618b47578082015181840152602081019050618b2c565b50505050905090810190601f168015618b745780820380516001836020036101000a031916815260200191505b509250505060405180910390fd5b506000838581618b8e57fe5b049050809150509392505050565b6000618bde83836040518060400160405280601e81526020017f536166654d6174683a207375627472616374696f6e206f766572666c6f7700008152506196c7565b905092915050565b6000601054824203119050919050565b600080601860009054906101000a900473ffffffffffffffffffffffffffffffffffffffff1673ffffffffffffffffffffffffffffffffffffffff166307149ba360046000888152602001908152602001600020600201546040518263ffffffff1660e01b81526004018082815260200191505060606040518083038186803b158015618c8257600080fd5b505afa158015618c96573d6000803e3d6000fd5b505050506040513d6060811015618cac57600080fd5b810190808051906020019092919080519060200190929190805190602001909291905050509091508092508193505050601760009054906101000a900473ffffffffffffffffffffffffffffffffffffffff1673ffffffffffffffffffffffffffffffffffffffff1663505ef22f3360016003811115618d2857fe5b6040518363ffffffff1660e01b8152600401808373ffffffffffffffffffffffffffffffffffffffff1673ffffffffffffffffffffffffffffffffffffffff1681526020018281526020019250505060206040518083038186803b158015618d8f57600080fd5b505afa158015618da3573d6000803e3d6000fd5b505050506040513d6020811015618db957600080fd5b81019080805190602001909291905050508015618dd65750600082115b80618dec575060016003811115618de957fe5b83145b15618e2957600c60008681526020019081526020016000206001016000858152602001908152602001600020600081548092919060010191905055505b601960009054906101000a900473ffffffffffffffffffffffffffffffffffffffff1673ffffffffffffffffffffffffffffffffffffffff16634c47e71d336010546040518363ffffffff1660e01b8152600401808373ffffffffffffffffffffffffffffffffffffffff1673ffffffffffffffffffffffffffffffffffffffff16815260200182815260200192505050600060405180830381600087803b158015618ed457600080fd5b505af1158015618ee8573d6000803e3d6000fd5b5050505060016003811115618ef957fe5b83146196c057600080600190506000601960009054906101000a900473ffffffffffffffffffffffffffffffffffffffff1673ffffffffffffffffffffffffffffffffffffffff16634b0ee02a336040518263ffffffff1660e01b8152600401808273ffffffffffffffffffffffffffffffffffffffff1673ffffffffffffffffffffffffffffffffffffffff16815260200191505060206040518083038186803b158015618fa757600080fd5b505afa158015618fbb573d6000803e3d6000fd5b505050506040513d6020811015618fd157600080fd5b810190808051906020019092919050505090506000601960009054906101000a900473ffffffffffffffffffffffffffffffffffffffff1673ffffffffffffffffffffffffffffffffffffffff166318160ddd6040518163ffffffff1660e01b815260040160206040518083038186803b15801561904e57600080fd5b505afa158015619062573d6000803e3d6000fd5b505050506040513d602081101561907857600080fd5b8101908080519060200190929190505050905060018514156190b6576190af670de0b6b3a764000083615c3a90919063ffffffff16565b9350619104565b619101670de0b6b3a76400006190f3846190ee60646190e087601254617ea090919063ffffffff16565b61702790919063ffffffff16565b619787565b615c3a90919063ffffffff16565b93505b61910c61979e565b60008090505b600b60003373ffffffffffffffffffffffffffffffffffffffff1673ffffffffffffffffffffffffffffffffffffffff16815260200190815260200160002080549050811015619621576003600b60003373ffffffffffffffffffffffffffffffffffffffff1673ffffffffffffffffffffffffffffffffffffffff16815260200190815260200160002082815481106191a857fe5b9060005260206000200154815481106191bd57fe5b90600052602060002090600302016040518060600160405290816000820160009054906101000a900473ffffffffffffffffffffffffffffffffffffffff1673ffffffffffffffffffffffffffffffffffffffff1673ffffffffffffffffffffffffffffffffffffffff1681526020016001820160009054906101000a900473ffffffffffffffffffffffffffffffffffffffff1673ffffffffffffffffffffffffffffffffffffffff1673ffffffffffffffffffffffffffffffffffffffff16815260200160028201548152505091503373ffffffffffffffffffffffffffffffffffffffff16826020015173ffffffffffffffffffffffffffffffffffffffff161480156192d657506192d58260400151618be6565b5b1561961457601760009054906101000a900473ffffffffffffffffffffffffffffffffffffffff1673ffffffffffffffffffffffffffffffffffffffff1663505ef22f83600001518b6040518363ffffffff1660e01b8152600401808373ffffffffffffffffffffffffffffffffffffffff1673ffffffffffffffffffffffffffffffffffffffff1681526020018281526020019250505060206040518083038186803b15801561938657600080fd5b505afa15801561939a573d6000803e3d6000fd5b505050506040513d60208110156193b057600080fd5b81019080805190602001909291905050501561961357601960009054906101000a900473ffffffffffffffffffffffffffffffffffffffff1673ffffffffffffffffffffffffffffffffffffffff16634b0ee02a83600001516040518263ffffffff1660e01b8152600401808273ffffffffffffffffffffffffffffffffffffffff1673ffffffffffffffffffffffffffffffffffffffff16815260200191505060206040518083038186803b15801561946957600080fd5b505afa15801561947d573d6000803e3d6000fd5b505050506040513d602081101561949357600080fd5b81019080805190602001909291905050509350601960009054906101000a900473ffffffffffffffffffffffffffffffffffffffff1673ffffffffffffffffffffffffffffffffffffffff16634c47e71d83600001516010546040518363ffffffff1660e01b8152600401808373ffffffffffffffffffffffffffffffffffffffff1673ffffffffffffffffffffffffffffffffffffffff16815260200182815260200192505050600060405180830381600087803b15801561955557600080fd5b505af1158015619569573d6000803e3d6000fd5b50505050848060010195505060018714156195b2576195ab61959c670de0b6b3a764000086615c3a90919063ffffffff16565b87615c3a90919063ffffffff16565b9550619612565b61960f619600670de0b6b3a76400006195f2876195ed60646195df8a601254617ea090919063ffffffff16565b61702790919063ffffffff16565b619787565b615c3a90919063ffffffff16565b87615c3a90919063ffffffff16565b95505b5b5b8080600101915050619112565b5061965c85600c60008d815260200190815260200160002060000160008c815260200190815260200160002054615c3a90919063ffffffff16565b600c60008c815260200190815260200160002060000160008b81526020019081526020016000208190555083600c60008c81526020019081526020016000206002015401600c60008c81526020019081526020016000206002018190555050505050505b5050505050565b6000838311158290619774576040517f08c379a00000000000000000000000000000000000000000000000000000000081526004018080602001828103825283818151815260200191508051906020019080838360005b8381101561973957808201518184015260208101905061971e565b50505050905090810190601f1680156197665780820380516001836020036101000a031916815260200191505b509250505060405180910390fd5b5060008385039050809150509392505050565b600082905081811115619798578190505b92915050565b6040518060600160405280600073ffffffffffffffffffffffffffffffffffffffff168152602001600073ffffffffffffffffffffffffffffffffffffffff168152602001600081525090565b828054600181600116156101000203166002900490600052602060002090601f016020900481019282601f1061982c57805160ff191683800117855561985a565b8280016001018555821561985a579182015b8281111561985957825182559160200191906001019061983e565b5b50905061986791906198eb565b5090565b828054600181600116156101000203166002900490600052602060002090601f016020900481019282601f106198ac57805160ff19168380011785556198da565b828001600101855582156198da579182015b828111156198d95782518255916020019190600101906198be565b5b5090506198e791906198eb565b5090565b61990d91905b808211156199095760008160009055506001016198f1565b5090565b9056fe536166654d6174683a206d756c7469706c69636174696f6e206f766572666c6f77a265627a7a72315820ab4a8d3a76ead200d2baa125422fdfdabbe2e6d7dc65dd58ca71ec38dd2aab9364736f6c63430005110032",
  "linkReferences": {},
  "deployedLinkReferences": {}
}