{
  "_format": "hh-sol-artifact-1",
  "contractName": "MCR",
  "sourceName": "contracts/NexusMutual/modules/capital/MCR.sol",
  "abi": [
    {
      "anonymous": false,
      "inputs": [
        {
          "indexed": true,
          "internalType": "uint256",
          "name": "date",
          "type": "uint256"
        },
        {
          "indexed": false,
          "internalType": "uint256",
          "name": "blockNumber",
          "type": "uint256"
        },
        {
          "indexed": false,
          "internalType": "bytes4[]",
          "name": "allCurr",
          "type": "bytes4[]"
        },
        {
          "indexed": false,
          "internalType": "uint256[]",
          "name": "allCurrRates",
          "type": "uint256[]"
        },
        {
          "indexed": false,
          "internalType": "uint256",
          "name": "mcrEtherx100",
          "type": "uint256"
        },
        {
          "indexed": false,
          "internalType": "uint256",
          "name": "mcrPercx100",
          "type": "uint256"
        },
        {
          "indexed": false,
          "internalType": "uint256",
          "name": "vFull",
          "type": "uint256"
        }
      ],
      "name": "MCREvent",
      "type": "event"
    },
    {
      "constant": true,
      "inputs": [
        {
          "internalType": "uint256",
          "name": "poolBalance",
          "type": "uint256"
        }
      ],
      "name": "_calVtpAndMCRtp",
      "outputs": [
        {
          "internalType": "uint256",
          "name": "vtp",
          "type": "uint256"
        },
        {
          "internalType": "uint256",
          "name": "mcrtp",
          "type": "uint256"
        }
      ],
      "payable": false,
      "stateMutability": "view",
      "type": "function"
    },
    {
      "constant": false,
      "inputs": [
        {
          "internalType": "uint64",
          "name": "date",
          "type": "uint64"
        }
      ],
      "name": "addLastMCRData",
      "outputs": [],
      "payable": false,
      "stateMutability": "nonpayable",
      "type": "function"
    },
    {
      "constant": false,
      "inputs": [
        {
          "internalType": "uint256",
          "name": "mcrP",
          "type": "uint256"
        },
        {
          "internalType": "uint256",
          "name": "mcrE",
          "type": "uint256"
        },
        {
          "internalType": "uint256",
          "name": "vF",
          "type": "uint256"
        },
        {
          "internalType": "bytes4[]",
          "name": "curr",
          "type": "bytes4[]"
        },
        {
          "internalType": "uint256[]",
          "name": "_threeDayAvg",
          "type": "uint256[]"
        },
        {
          "internalType": "uint64",
          "name": "onlyDate",
          "type": "uint64"
        }
      ],
      "name": "addMCRData",
      "outputs": [],
      "payable": false,
      "stateMutability": "nonpayable",
      "type": "function"
    },
    {
      "constant": true,
      "inputs": [],
      "name": "calVtpAndMCRtp",
      "outputs": [
        {
          "internalType": "uint256",
          "name": "vtp",
          "type": "uint256"
        },
        {
          "internalType": "uint256",
          "name": "mcrtp",
          "type": "uint256"
        }
      ],
      "payable": false,
      "stateMutability": "view",
      "type": "function"
    },
    {
      "constant": true,
      "inputs": [
        {
          "internalType": "bytes4",
          "name": "curr",
          "type": "bytes4"
        },
        {
          "internalType": "uint256",
          "name": "mcrtp",
          "type": "uint256"
        }
      ],
      "name": "calculateStepTokenPrice",
      "outputs": [
        {
          "internalType": "uint256",
          "name": "tokenPrice",
          "type": "uint256"
        }
      ],
      "payable": false,
      "stateMutability": "view",
      "type": "function"
    },
    {
      "constant": true,
      "inputs": [
        {
          "internalType": "bytes4",
          "name": "curr",
          "type": "bytes4"
        }
      ],
      "name": "calculateTokenPrice",
      "outputs": [
        {
          "internalType": "uint256",
          "name": "tokenPrice",
          "type": "uint256"
        }
      ],
      "payable": false,
      "stateMutability": "view",
      "type": "function"
    },
    {
      "constant": true,
      "inputs": [
        {
          "internalType": "uint256",
          "name": "poolBalance",
          "type": "uint256"
        }
      ],
      "name": "calculateVtpAndMCRtp",
      "outputs": [
        {
          "internalType": "uint256",
          "name": "vtp",
          "type": "uint256"
        },
        {
          "internalType": "uint256",
          "name": "mcrtp",
          "type": "uint256"
        }
      ],
      "payable": false,
      "stateMutability": "view",
      "type": "function"
    },
    {
      "constant": false,
      "inputs": [],
      "name": "changeDependentContractAddress",
      "outputs": [],
      "payable": false,
      "stateMutability": "nonpayable",
      "type": "function"
    },
    {
      "constant": false,
      "inputs": [
        {
          "internalType": "address",
          "name": "_masterAddress",
          "type": "address"
        }
      ],
      "name": "changeMasterAddress",
      "outputs": [],
      "payable": false,
      "stateMutability": "nonpayable",
      "type": "function"
    },
    {
      "constant": true,
      "inputs": [],
      "name": "dynamicMincapIncrementx100",
      "outputs": [
        {
          "internalType": "uint256",
          "name": "",
          "type": "uint256"
        }
      ],
      "payable": false,
      "stateMutability": "view",
      "type": "function"
    },
    {
      "constant": true,
      "inputs": [],
      "name": "dynamicMincapThresholdx100",
      "outputs": [
        {
          "internalType": "uint256",
          "name": "",
          "type": "uint256"
        }
      ],
      "payable": false,
      "stateMutability": "view",
      "type": "function"
    },
    {
      "constant": true,
      "inputs": [],
      "name": "getAllSumAssurance",
      "outputs": [
        {
          "internalType": "uint256",
          "name": "amount",
          "type": "uint256"
        }
      ],
      "payable": false,
      "stateMutability": "view",
      "type": "function"
    },
    {
      "constant": true,
      "inputs": [],
      "name": "getMaxSellTokens",
      "outputs": [
        {
          "internalType": "uint256",
          "name": "maxTokens",
          "type": "uint256"
        }
      ],
      "payable": false,
      "stateMutability": "view",
      "type": "function"
    },
    {
      "constant": true,
      "inputs": [
        {
          "internalType": "uint256",
          "name": "vtp",
          "type": "uint256"
        },
        {
          "internalType": "uint256",
          "name": "vF",
          "type": "uint256"
        },
        {
          "internalType": "uint256",
          "name": "totalSA",
          "type": "uint256"
        },
        {
          "internalType": "uint256",
          "name": "minCap",
          "type": "uint256"
        }
      ],
      "name": "getThresholdValues",
      "outputs": [
        {
          "internalType": "uint256",
          "name": "lowerThreshold",
          "type": "uint256"
        },
        {
          "internalType": "uint256",
          "name": "upperThreshold",
          "type": "uint256"
        }
      ],
      "payable": false,
      "stateMutability": "view",
      "type": "function"
    },
    {
      "constant": true,
      "inputs": [
        {
          "internalType": "bytes8",
          "name": "code",
          "type": "bytes8"
        }
      ],
      "name": "getUintParameters",
      "outputs": [
        {
          "internalType": "bytes8",
          "name": "codeVal",
          "type": "bytes8"
        },
        {
          "internalType": "uint256",
          "name": "val",
          "type": "uint256"
        }
      ],
      "payable": false,
      "stateMutability": "view",
      "type": "function"
    },
    {
      "constant": true,
      "inputs": [],
      "name": "ms",
      "outputs": [
        {
          "internalType": "contract INXMMaster",
          "name": "",
          "type": "address"
        }
      ],
      "payable": false,
      "stateMutability": "view",
      "type": "function"
    },
    {
      "constant": true,
      "inputs": [],
      "name": "nxMasterAddress",
      "outputs": [
        {
          "internalType": "address",
          "name": "",
          "type": "address"
        }
      ],
      "payable": false,
      "stateMutability": "view",
      "type": "function"
    },
    {
      "constant": false,
      "inputs": [
        {
          "internalType": "bytes8",
          "name": "code",
          "type": "bytes8"
        },
        {
          "internalType": "uint256",
          "name": "val",
          "type": "uint256"
        }
      ],
      "name": "updateUintParameters",
      "outputs": [],
      "payable": false,
      "stateMutability": "nonpayable",
      "type": "function"
    },
    {
      "constant": true,
      "inputs": [],
      "name": "variableMincap",
      "outputs": [
        {
          "internalType": "uint256",
          "name": "",
          "type": "uint256"
        }
      ],
      "payable": false,
      "stateMutability": "view",
      "type": "function"
    }
  ],
  "bytecode": "0x60806040526132c8600a556064600b5534801561001b57600080fd5b50612b7a8061002b6000396000f3fe608060405234801561001057600080fd5b50600436106101215760003560e01c80639671683b116100ad578063b345248711610071578063b3452487146103d2578063d46655f4146103da578063d9ed1a7a14610400578063f17a3bec14610408578063f8a556741461041057610121565b80639671683b1461027d5780639af1f71f1461035c5780639dd86e0f146103795780639f3cd4ee146103a6578063a0b2d57f146103ae57610121565b8063456ee431116100f4578063456ee431146101b95780636122f840146101d65780636837a51f146102215780636bd482e91461024e57806380f342751461025657610121565b80630ea9c984146101265780632fb47b201461013057806336b7abd0146101785780633cb23b2d14610192575b600080fd5b61012e610418565b005b61015f6004803603608081101561014657600080fd5b5080359060208101359060408101359060600135610884565b6040805192835260208301919091528051918290030190f35b610180610a1a565b60408051918252519081900360200190f35b610180600480360360208110156101a857600080fd5b50356001600160e01b031916610bf9565b61015f600480360360208110156101cf57600080fd5b5035610c29565b6101fd600480360360208110156101ec57600080fd5b50356001600160c01b03191661109e565b604080516001600160c01b0319909316835260208301919091528051918290030190f35b6101806004803603604081101561023757600080fd5b506001600160e01b031981351690602001356110e6565b61018061117a565b61012e6004803603602081101561026c57600080fd5b503567ffffffffffffffff16611180565b61012e600480360360c081101561029357600080fd5b813591602081013591604082013591908101906080810160608201356401000000008111156102c157600080fd5b8201836020820111156102d357600080fd5b803590602001918460208302840111640100000000831117156102f557600080fd5b91939092909160208101903564010000000081111561031357600080fd5b82018360208201111561032557600080fd5b8035906020019184602083028401116401000000008311171561034757600080fd5b91935091503567ffffffffffffffff1661172b565b61015f6004803603602081101561037257600080fd5b5035611b28565b61012e6004803603604081101561038f57600080fd5b506001600160c01b03198135169060200135611b3d565b610180611c49565b6103b6611c4f565b604080516001600160a01b039092168252519081900360200190f35b610180611c5e565b61012e600480360360208110156103f057600080fd5b50356001600160a01b0316611fd2565b61015f61205b565b6103b661207e565b61018061208d565b600054604080516323c5b10760e21b815233600482015290516001600160a01b0390921691638f16c41c91602480820192602092909190829003018186803b15801561046357600080fd5b505afa158015610477573d6000803e3d6000fd5b505050506040513d602081101561048d57600080fd5b505161049857600080fd5b600054604080516227050b60e31b815261145160f21b600482015290516001600160a01b0390921691630138285891602480820192602092909190829003018186803b1580156104e757600080fd5b505afa1580156104fb573d6000803e3d6000fd5b505050506040513d602081101561051157600080fd5b5051600580546001600160a01b0319166001600160a01b03928316179055600054604080516227050b60e31b815261503160f01b6004820152905191909216916301382858916024808301926020929190829003018186803b15801561057657600080fd5b505afa15801561058a573d6000803e3d6000fd5b505050506040513d60208110156105a057600080fd5b5051600280546001600160a01b0319166001600160a01b03928316179055600054604080516227050b60e31b815261141160f21b6004820152905191909216916301382858916024808301926020929190829003018186803b15801561060557600080fd5b505afa158015610619573d6000803e3d6000fd5b505050506040513d602081101561062f57600080fd5b5051600380546001600160a01b0319166001600160a01b03928316179055600054604080516313aedd4b60e31b815290519190921691639d76ea58916004808301926020929190829003018186803b15801561068a57600080fd5b505afa15801561069e573d6000803e3d6000fd5b505050506040513d60208110156106b457600080fd5b5051600480546001600160a01b0319166001600160a01b03928316178155600054604080516227050b60e31b81526126a960f11b9381019390935251921691630138285891602480820192602092909190829003018186803b15801561071957600080fd5b505afa15801561072d573d6000803e3d6000fd5b505050506040513d602081101561074357600080fd5b5051600680546001600160a01b0319166001600160a01b03928316179055600054604080516227050b60e31b815261151160f21b6004820152905191909216916301382858916024808301926020929190829003018186803b1580156107a857600080fd5b505afa1580156107bc573d6000803e3d6000fd5b505050506040513d60208110156107d257600080fd5b5051600780546001600160a01b0319166001600160a01b03928316179055600054604080516227050b60e31b815261504360f01b6004820152905191909216916301382858916024808301926020929190829003018186803b15801561083757600080fd5b505afa15801561084b573d6000803e3d6000fd5b505050506040513d602081101561086157600080fd5b5051600880546001600160a01b0319166001600160a01b03909216919091179055565b60095460009081906108b5906108a985683635c9adc5dea0000063ffffffff61209316565b9063ffffffff6120ec16565b925060008587106108f9576108f2846108e660646108da8b607863ffffffff61209316565b9063ffffffff61209316565b9063ffffffff61214616565b9150610916565b610913846108e660646108da8a607863ffffffff61209316565b91505b86156109ee576109b660646108e6600360009054906101000a90046001600160a01b03166001600160a01b031663d3fdadf76040518163ffffffff1660e01b815260040160206040518083038186803b15801561097257600080fd5b505afa158015610986573d6000803e3d6000fd5b505050506040513d602081101561099c57600080fd5b50516108da89670de0b6b3a764000063ffffffff61209316565b90506109ce600a6108e686600b63ffffffff61209316565b8110156109ee576109eb600a6108e686600b63ffffffff61209316565b90505b8015610a1057610a0d816108e660646108da8b8263ffffffff61209316565b92505b5094509492505050565b60035460408051630e2514f560e11b81526208aa8960eb1b6004820152905160009283926001600160a01b0390911691631c4a29ea91602480820192602092909190829003018186803b158015610a7057600080fd5b505afa158015610a84573d6000803e3d6000fd5b505050506040513d6020811015610a9a57600080fd5b505190506000610ab660646108e684603263ffffffff61209316565b6002546001600160a01b0316311115610afe57610afb610ae260646108e685603263ffffffff61209316565b6002546001600160a01b0316319063ffffffff61218816565b90505b610b34610b1c6103e86108e66103cf6108da6208aa8960eb1b610bf9565b6108e683670de0b6b3a764000063ffffffff61209316565b90506000600360009054906101000a90046001600160a01b03166001600160a01b031663818acb826040518163ffffffff1660e01b815260040160206040518083038186803b158015610b8657600080fd5b505afa158015610b9a573d6000803e3d6000fd5b505050506040513d6020811015610bb057600080fd5b50519050612710811115610be757610be46127106108e6670de0b6b3a76400006108da6107d081878663ffffffff61218816565b93505b81841115610bf3578193505b50505090565b6002546000908190610c14906001600160a01b031631610c29565b9150610c22905083826121ca565b9392505050565b600080808060015b600360009054906101000a90046001600160a01b03166001600160a01b031663255f50496040518163ffffffff1660e01b815260040160206040518083038186803b158015610c7f57600080fd5b505afa158015610c93573d6000803e3d6000fd5b505050506040513d6020811015610ca957600080fd5b5051811015610f6a57600354604080516303c40b1f60e41b81526004810184905290516000926001600160a01b031691633c40b1f0916024808301926020929190829003018186803b158015610cfe57600080fd5b505afa158015610d12573d6000803e3d6000fd5b505050506040513d6020811015610d2857600080fd5b50516003546040805163e3dee23960e01b81526001600160e01b03198416600482015290519293506001600160a01b039091169163e3dee23991602480820192602092909190829003018186803b158015610d8257600080fd5b505afa158015610d96573d6000803e3d6000fd5b505050506040513d6020811015610dac57600080fd5b5051600254604080516370a0823160e01b81526001600160a01b0392831660048201529051929650908616916370a0823191602480820192602092909190829003018186803b158015610dfe57600080fd5b505afa158015610e12573d6000803e3d6000fd5b505050506040513d6020811015610e2857600080fd5b50516003546040805163389bfcd360e21b81526001600160e01b03198516600482015290519295506000926001600160a01b039092169163e26ff34c91602480820192602092909190829003018186803b158015610e8557600080fd5b505afa158015610e99573d6000803e3d6000fd5b505050506040513d6020811015610eaf57600080fd5b50511115610f61576003546040805163389bfcd360e21b81526001600160e01b0319841660048201529051610f5e92610f51926001600160a01b039091169163e26ff34c91602480820192602092909190829003018186803b158015610f1457600080fd5b505afa158015610f28573d6000803e3d6000fd5b505050506040513d6020811015610f3e57600080fd5b50516108e686606463ffffffff61209316565b879063ffffffff6120ec16565b95505b50600101610c31565b600254604080516369b0b73760e01b81529051610fec926001600160a01b0316916369b0b737916004808301926020929190829003018186803b158015610fb057600080fd5b505afa158015610fc4573d6000803e3d6000fd5b505050506040513d6020811015610fda57600080fd5b50516108a9878963ffffffff6120ec16565b9450600080600360009054906101000a90046001600160a01b03166001600160a01b031663c94f740f6040518163ffffffff1660e01b815260040160806040518083038186803b15801561103f57600080fd5b505afa158015611053573d6000803e3d6000fd5b505050506040513d608081101561106957600080fd5b5080516040909101519092509050801561109457611091816108e6848a63ffffffff61209316565b95505b5050505050915091565b80600063111350d560e21b6001600160c01b0319831614156110c35750600a546110e1565b63444d434960e01b6001600160c01b0319841614156110e15750600b545b915091565b60008054604080516323c5b10760e21b815233600482015290516001600160a01b0390921691638f16c41c91602480820192602092909190829003018186803b15801561113257600080fd5b505afa158015611146573d6000803e3d6000fd5b505050506040513d602081101561115c57600080fd5b505161116757600080fd5b61117183836121ca565b90505b92915050565b600b5481565b6000809054906101000a90046001600160a01b03166001600160a01b031663ff0938a76040518163ffffffff1660e01b815260040160206040518083038186803b1580156111cd57600080fd5b505afa1580156111e1573d6000803e3d6000fd5b505050506040513d60208110156111f757600080fd5b50511561120357600080fd5b600054604080516323c5b10760e21b815233600482015290516001600160a01b0390921691638f16c41c91602480820192602092909190829003018186803b15801561124e57600080fd5b505afa158015611262573d6000803e3d6000fd5b505050506040513d602081101561127857600080fd5b505161128357600080fd5b60035460408051600162fefdc760e01b0319815290516000926001600160a01b03169163ff010239916004808301926020929190829003018186803b1580156112cb57600080fd5b505afa1580156112df573d6000803e3d6000fd5b505050506040513d60208110156112f557600080fd5b505190508167ffffffffffffffff80831690821610611726576000806000600360009054906101000a90046001600160a01b03166001600160a01b031663c94f740f6040518163ffffffff1660e01b815260040160806040518083038186803b15801561136157600080fd5b505afa158015611375573d6000803e3d6000fd5b505050506040513d608081101561138b57600080fd5b508051602080830151604093840151600354855163255f504960e01b8152955194985091965094506000936001600160a01b039091169263255f504992600480840193919291829003018186803b1580156113e557600080fd5b505afa1580156113f9573d6000803e3d6000fd5b505050506040513d602081101561140f57600080fd5b505160035460408051637106767b60e01b815260048101889052602481018790526044810186905267ffffffffffffffff8b16606482015290519293506001600160a01b0390911691637106767b9160848082019260009290919082900301818387803b15801561147f57600080fd5b505af1158015611493573d6000803e3d6000fd5b506000925050505b8181101561161557600354604080516303c40b1f60e41b81526004810184905290516000926001600160a01b031691633c40b1f0916024808301926020929190829003018186803b1580156114ef57600080fd5b505afa158015611503573d6000803e3d6000fd5b505050506040513d602081101561151957600080fd5b50516003546040805163389bfcd360e21b81526001600160e01b03198416600482015290519293506001600160a01b039091169163ade6a303918491849163e26ff34c916024808301926020929190829003018186803b15801561157c57600080fd5b505afa158015611590573d6000803e3d6000fd5b505050506040513d60208110156115a657600080fd5b5051604080516001600160e01b031960e086901b81168252939093166004840152602483019190915251604480830192600092919082900301818387803b1580156115f057600080fd5b505af1158015611604573d6000803e3d6000fd5b50506001909301925061149b915050565b506040805160008082526020808301828152838501948590524380865260a0850189905260c08086018b905260e08601899052606086019081528551610100870181905267ffffffffffffffff8f16977fe4d7c0f9c1462bca57d9d1c2ec3a19d83c4781ceaf9a37a0f15dc55a6b43de4d97939693958c948e948d94909260808a01926101208b01928a9202908190849084905b838110156116c15781810151838201526020016116a9565b50505050905001838103825287818151815260200191508051906020019060200280838360005b838110156117005781810151838201526020016116e8565b505050509050019850505050505050505060405180910390a2611721612416565b505050505b505050565b6000809054906101000a90046001600160a01b03166001600160a01b031663ff0938a76040518163ffffffff1660e01b815260040160206040518083038186803b15801561177857600080fd5b505afa15801561178c573d6000803e3d6000fd5b505050506040513d60208110156117a257600080fd5b5051156117ae57600080fd5b600860009054906101000a90046001600160a01b03166001600160a01b031663525050e16040518163ffffffff1660e01b815260040160206040518083038186803b1580156117fc57600080fd5b505afa158015611810573d6000803e3d6000fd5b505050506040513d602081101561182657600080fd5b505161183157600080fd5b600354604080516362ae372160e01b815233600482015290516001600160a01b03909216916362ae372191602480820192602092909190829003018186803b15801561187c57600080fd5b505afa158015611890573d6000803e3d6000fd5b505050506040513d60208110156118a657600080fd5b50516118b157600080fd5b600660009054906101000a90046001600160a01b03166001600160a01b0316638091f3bf6040518163ffffffff1660e01b815260040160206040518083038186803b1580156118ff57600080fd5b505afa158015611913573d6000803e3d6000fd5b505050506040513d602081101561192957600080fd5b505180156119b15750600360009054906101000a90046001600160a01b03166001600160a01b0316634f9359456040518163ffffffff1660e01b815260040160206040518083038186803b15801561198057600080fd5b505afa158015611994573d6000803e3d6000fd5b505050506040513d60208110156119aa57600080fd5b5051600114155b15611a25576127108810611a2557600354604080516338f2b2e760e21b81526001600482015290516001600160a01b039092169163e3cacb9c9160248082019260009290919082900301818387803b158015611a0c57600080fd5b505af1158015611a20573d6000803e3d6000fd5b505050505b600354604080516328ba4aab60e21b815290516000926001600160a01b03169163a2e92aac916004808301926020929190829003018186803b158015611a6a57600080fd5b505afa158015611a7e573d6000803e3d6000fd5b505050506040513d6020811015611a9457600080fd5b50516040805160208881028281018201909352888252929350611b1d9284928692918b918b91829190850190849080828437600081840152601f19601f820116905080830192505050505050508b8d8c8a8a808060200260200160405190810160405280939291908181526020018383602002808284376000920191909152506124e892505050565b505050505050505050565b600080611b3483610c29565b91509150915091565b60005460408051632c1a733d60e11b815233600482015290516001600160a01b0390921691635834e67a91602480820192602092909190829003018186803b158015611b8857600080fd5b505afa158015611b9c573d6000803e3d6000fd5b505050506040513d6020811015611bb257600080fd5b5051611bbd57600080fd5b63111350d560e21b6001600160c01b031983161415611be057600a819055611c45565b63444d434960e01b6001600160c01b031983161415611c0357600b819055611c45565b6040805162461bcd60e51b8152602060048201526012602482015271496e76616c696420706172616d20636f646560701b604482015290519081900360640190fd5b5050565b600a5481565b6000546001600160a01b031681565b600080600360009054906101000a90046001600160a01b03166001600160a01b031663255f50496040518163ffffffff1660e01b815260040160206040518083038186803b158015611caf57600080fd5b505afa158015611cc3573d6000803e3d6000fd5b505050506040513d6020811015611cd957600080fd5b5051905060005b81811015611fcd57600354604080516303c40b1f60e41b81526004810184905290516000926001600160a01b031691633c40b1f0916024808301926020929190829003018186803b158015611d3457600080fd5b505afa158015611d48573d6000803e3d6000fd5b505050506040513d6020811015611d5e57600080fd5b505190506208aa8960eb1b6001600160e01b031982161415611e105760055460408051633d5732a360e01b81526001600160e01b0319841660048201529051611e09926001600160a01b031691633d5732a3916024808301926020929190829003018186803b158015611dd057600080fd5b505afa158015611de4573d6000803e3d6000fd5b505050506040513d6020811015611dfa57600080fd5b5051859063ffffffff6120ec16565b9350611fc4565b6003546040805163389bfcd360e21b81526001600160e01b03198416600482015290516000926001600160a01b03169163e26ff34c916024808301926020929190829003018186803b158015611e6557600080fd5b505afa158015611e79573d6000803e3d6000fd5b505050506040513d6020811015611e8f57600080fd5b50511115611fc4576003546040805163389bfcd360e21b81526001600160e01b0319841660048201529051611fc192611fb4926001600160a01b039091169163e26ff34c91602480820192602092909190829003018186803b158015611ef457600080fd5b505afa158015611f08573d6000803e3d6000fd5b505050506040513d6020811015611f1e57600080fd5b505160055460408051633d5732a360e01b81526001600160e01b03198716600482015290516108e6926064926001600160a01b0390911691633d5732a391602480820192602092909190829003018186803b158015611f7c57600080fd5b505afa158015611f90573d6000803e3d6000fd5b505050506040513d6020811015611fa657600080fd5b50519063ffffffff61209316565b859063ffffffff6120ec16565b93505b50600101611ce0565b505090565b6000546001600160a01b03161561202f576000546001600160a01b0316331461202f576040805162461bcd60e51b815260206004820152600a6024820152692737ba1036b0b9ba32b960b11b604482015290519081900360640190fd5b600080546001600160a01b039092166001600160a01b0319928316811790915560018054909216179055565b6002546000908190612076906001600160a01b031631610c29565b915091509091565b6001546001600160a01b031681565b60095481565b6000826120a257506000611174565b828202828482816120af57fe5b04146111715760405162461bcd60e51b8152600401808060200182810382526021815260200180612b256021913960400191505060405180910390fd5b600082820183811015611171576040805162461bcd60e51b815260206004820152601b60248201527f536166654d6174683a206164646974696f6e206f766572666c6f770000000000604482015290519081900360640190fd5b600061117183836040518060400160405280601a81526020017f536166654d6174683a206469766973696f6e206279207a65726f000000000000815250612a28565b600061117183836040518060400160405280601e81526020017f536166654d6174683a207375627472616374696f6e206f766572666c6f770000815250612aca565b6000806000806000600760009054906101000a90046001600160a01b03166001600160a01b031663efd9066f6040518163ffffffff1660e01b815260040160206040518083038186803b15801561222057600080fd5b505afa158015612234573d6000803e3d6000fd5b505050506040513d602081101561224a57600080fd5b5051905080860a600061226483600463ffffffff61209316565b60035460408051630759a31960e21b81526001600160e01b03198d16600482015290519293506001600160a01b0390911691631d668c6491602480820192606092909190829003018186803b1580156122bc57600080fd5b505afa1580156122d0573d6000803e3d6000fd5b505050506040513d60608110156122e657600080fd5b508051602080830151604093840151600354855163b775a49d60e01b81529551949b5091995097506000936001600160a01b039091169263b775a49d92600480840193919291829003018186803b15801561234057600080fd5b505afa158015612354573d6000803e3d6000fd5b505050506040513d602081101561236a57600080fd5b5051905061238686670de0b6b3a764000063ffffffff61209316565b95506123ae600a83900a6108e68881876108da87670de0b6b3a764000063ffffffff61209316565b97506123df6123d2620186a06108e68a670de0b6b3a764000063ffffffff61209316565b899063ffffffff6120ec16565b97506123f488600a870263ffffffff61209316565b9750612408886103e863ffffffff61214616565b9a9950505050505050505050565b60025460035460408051623c907160e91b815290516001600160a01b039384169363c57dbe00931691637920e200916004808301926020929190829003018186803b15801561246457600080fd5b505afa158015612478573d6000803e3d6000fd5b505050506040513d602081101561248e57600080fd5b5051604080516001600160e01b031960e085901b168152600481019290925251602480830192600092919082900301818387803b1580156124ce57600080fd5b505af11580156124e2573d6000803e3d6000fd5b50505050565b6000808060018a11156125a05760025461250b906001600160a01b031631610c29565b50925061259a838661251b611c5e565b600360009054906101000a90046001600160a01b03166001600160a01b0316633fa615b06040518163ffffffff1660e01b815260040160206040518083038186803b15801561256957600080fd5b505afa15801561257d573d6000803e3d6000fd5b505050506040513d602081101561259357600080fd5b5051610884565b90925090505b600a5486111561264c576126486127106108e661262061260a600b54600360009054906101000a90046001600160a01b03166001600160a01b0316633fa615b06040518163ffffffff1660e01b815260040160206040518083038186803b158015611f7c57600080fd5b683635c9adc5dea000009063ffffffff61209316565b600b546108a9906126399061271063ffffffff6120ec16565b6009549063ffffffff61209316565b6009555b896001148061266657508186101580156126665750808611155b1561293557600360009054906101000a90046001600160a01b03166001600160a01b031663ff0102396040518163ffffffff1660e01b815260040160206040518083038186803b1580156126b957600080fd5b505afa1580156126cd573d6000803e3d6000fd5b505050506040513d60208110156126e357600080fd5b505160035460408051637106767b60e01b8152600481018a9052602481018b90526044810189905267ffffffffffffffff8d8116606483015291519190931695506001600160a01b0390911691637106767b91608480830192600092919082900301818387803b15801561275657600080fd5b505af115801561276a573d6000803e3d6000fd5b506000925050505b885181101561282f5760035489516001600160a01b039091169063ade6a303908b908490811061279e57fe5b60200260200101518784815181106127b257fe5b60200260200101516040518363ffffffff1660e01b815260040180836001600160e01b0319166001600160e01b031916815260200182815260200192505050600060405180830381600087803b15801561280b57600080fd5b505af115801561281f573d6000803e3d6000fd5b5050600190920191506127729050565b508867ffffffffffffffff167fe4d7c0f9c1462bca57d9d1c2ec3a19d83c4781ceaf9a37a0f15dc55a6b43de4d438a878b8b8b604051808781526020018060200180602001868152602001858152602001848152602001838103835288818151815260200191508051906020019060200280838360005b838110156128be5781810151838201526020016128a6565b50505050905001838103825287818151815260200191508051906020019060200280838360005b838110156128fd5781810151838201526020016128e5565b505050509050019850505050505050505060405180910390a28867ffffffffffffffff1683101561293057612930612416565b612a1c565b6002546003546040805163702ddaab60e01b815290516001600160a01b0393841693635085a074938e9391169163702ddaab91600480820192602092909190829003018186803b15801561298857600080fd5b505afa15801561299c573d6000803e3d6000fd5b505050506040513d60208110156129b257600080fd5b5051604080516001600160e01b031960e086901b16815267ffffffffffffffff9093166004840152602483019190915251604480830192600092919082900301818387803b158015612a0357600080fd5b505af1158015612a17573d6000803e3d6000fd5b505050505b50505050505050505050565b60008183612ab45760405162461bcd60e51b81526004018080602001828103825283818151815260200191508051906020019080838360005b83811015612a79578181015183820152602001612a61565b50505050905090810190601f168015612aa65780820380516001836020036101000a031916815260200191505b509250505060405180910390fd5b506000838581612ac057fe5b0495945050505050565b60008184841115612b1c5760405162461bcd60e51b8152602060048201818152835160248401528351909283926044909101919085019080838360008315612a79578181015183820152602001612a61565b50505090039056fe536166654d6174683a206d756c7469706c69636174696f6e206f766572666c6f77a265627a7a7231582073eb2ff6735ebe8e85d24b1fbe6b0de862abf19494a68a23f5aa9ca98182de7464736f6c63430005110032",
  "linkReferences": {},
  "deployedLinkReferences": {}
}