{
  "_format": "hh-sol-artifact-1",
  "contractName": "PoolData",
  "sourceName": "contracts/NexusMutual/modules/capital/PoolData.sol",
  "abi": [
    {
      "inputs": [
        {
          "internalType": "address",
          "name": "_notariseAdd",
          "type": "address"
        },
        {
          "internalType": "address",
          "name": "_daiFeedAdd",
          "type": "address"
        },
        {
          "internalType": "address",
          "name": "_daiAdd",
          "type": "address"
        }
      ],
      "payable": false,
      "stateMutability": "nonpayable",
      "type": "constructor"
    },
    {
      "constant": true,
      "inputs": [],
      "name": "a",
      "outputs": [
        {
          "internalType": "uint256",
          "name": "",
          "type": "uint256"
        }
      ],
      "payable": false,
      "stateMutability": "view",
      "type": "function"
    },
    {
      "constant": false,
      "inputs": [
        {
          "internalType": "bytes4",
          "name": "curr",
          "type": "bytes4"
        },
        {
          "internalType": "address",
          "name": "currAddress",
          "type": "address"
        },
        {
          "internalType": "uint256",
          "name": "baseMin",
          "type": "uint256"
        }
      ],
      "name": "addCurrencyAssetCurrency",
      "outputs": [],
      "payable": false,
      "stateMutability": "nonpayable",
      "type": "function"
    },
    {
      "constant": false,
      "inputs": [
        {
          "internalType": "bytes32",
          "name": "myid",
          "type": "bytes32"
        }
      ],
      "name": "addInAllApiCall",
      "outputs": [],
      "payable": false,
      "stateMutability": "nonpayable",
      "type": "function"
    },
    {
      "constant": false,
      "inputs": [
        {
          "internalType": "bytes4",
          "name": "curr",
          "type": "bytes4"
        },
        {
          "internalType": "address",
          "name": "currAddress",
          "type": "address"
        },
        {
          "internalType": "bool",
          "name": "status",
          "type": "bool"
        },
        {
          "internalType": "uint64",
          "name": "minHoldingPercX100",
          "type": "uint64"
        },
        {
          "internalType": "uint64",
          "name": "maxHoldingPercX100",
          "type": "uint64"
        },
        {
          "internalType": "uint8",
          "name": "decimals",
          "type": "uint8"
        }
      ],
      "name": "addInvestmentAssetCurrency",
      "outputs": [],
      "payable": false,
      "stateMutability": "nonpayable",
      "type": "function"
    },
    {
      "constant": true,
      "inputs": [
        {
          "internalType": "uint256",
          "name": "",
          "type": "uint256"
        }
      ],
      "name": "allAPIcall",
      "outputs": [
        {
          "internalType": "bytes32",
          "name": "",
          "type": "bytes32"
        }
      ],
      "payable": false,
      "stateMutability": "view",
      "type": "function"
    },
    {
      "constant": true,
      "inputs": [
        {
          "internalType": "bytes32",
          "name": "",
          "type": "bytes32"
        }
      ],
      "name": "allAPIid",
      "outputs": [
        {
          "internalType": "bytes4",
          "name": "typeOf",
          "type": "bytes4"
        },
        {
          "internalType": "bytes4",
          "name": "currency",
          "type": "bytes4"
        },
        {
          "internalType": "uint256",
          "name": "id",
          "type": "uint256"
        },
        {
          "internalType": "uint64",
          "name": "dateAdd",
          "type": "uint64"
        },
        {
          "internalType": "uint64",
          "name": "dateUpd",
          "type": "uint64"
        }
      ],
      "payable": false,
      "stateMutability": "view",
      "type": "function"
    },
    {
      "constant": true,
      "inputs": [
        {
          "internalType": "uint256",
          "name": "",
          "type": "uint256"
        }
      ],
      "name": "allMCRData",
      "outputs": [
        {
          "internalType": "uint256",
          "name": "mcrPercx100",
          "type": "uint256"
        },
        {
          "internalType": "uint256",
          "name": "mcrEther",
          "type": "uint256"
        },
        {
          "internalType": "uint256",
          "name": "vFull",
          "type": "uint256"
        },
        {
          "internalType": "uint64",
          "name": "date",
          "type": "uint64"
        }
      ],
      "payable": false,
      "stateMutability": "view",
      "type": "function"
    },
    {
      "constant": true,
      "inputs": [],
      "name": "c",
      "outputs": [
        {
          "internalType": "uint256",
          "name": "",
          "type": "uint256"
        }
      ],
      "payable": false,
      "stateMutability": "view",
      "type": "function"
    },
    {
      "constant": true,
      "inputs": [],
      "name": "capReached",
      "outputs": [
        {
          "internalType": "uint256",
          "name": "",
          "type": "uint256"
        }
      ],
      "payable": false,
      "stateMutability": "view",
      "type": "function"
    },
    {
      "constant": true,
      "inputs": [],
      "name": "capacityLimit",
      "outputs": [
        {
          "internalType": "uint256",
          "name": "",
          "type": "uint256"
        }
      ],
      "payable": false,
      "stateMutability": "view",
      "type": "function"
    },
    {
      "constant": false,
      "inputs": [
        {
          "internalType": "bytes4",
          "name": "curr",
          "type": "bytes4"
        },
        {
          "internalType": "address",
          "name": "currAdd",
          "type": "address"
        }
      ],
      "name": "changeCurrencyAssetAddress",
      "outputs": [],
      "payable": false,
      "stateMutability": "nonpayable",
      "type": "function"
    },
    {
      "constant": false,
      "inputs": [
        {
          "internalType": "bytes4",
          "name": "curr",
          "type": "bytes4"
        },
        {
          "internalType": "uint256",
          "name": "baseMin",
          "type": "uint256"
        }
      ],
      "name": "changeCurrencyAssetBaseMin",
      "outputs": [],
      "payable": false,
      "stateMutability": "nonpayable",
      "type": "function"
    },
    {
      "constant": false,
      "inputs": [
        {
          "internalType": "bytes4",
          "name": "curr",
          "type": "bytes4"
        },
        {
          "internalType": "uint256",
          "name": "varMin",
          "type": "uint256"
        }
      ],
      "name": "changeCurrencyAssetVarMin",
      "outputs": [],
      "payable": false,
      "stateMutability": "nonpayable",
      "type": "function"
    },
    {
      "constant": false,
      "inputs": [
        {
          "internalType": "address",
          "name": "_add",
          "type": "address"
        }
      ],
      "name": "changeDAIfeedAddress",
      "outputs": [],
      "payable": false,
      "stateMutability": "nonpayable",
      "type": "function"
    },
    {
      "constant": false,
      "inputs": [],
      "name": "changeDependentContractAddress",
      "outputs": [],
      "payable": false,
      "stateMutability": "nonpayable",
      "type": "function"
    },
    {
      "constant": false,
      "inputs": [
        {
          "internalType": "bytes4",
          "name": "curr",
          "type": "bytes4"
        },
        {
          "internalType": "address",
          "name": "currAdd",
          "type": "address"
        },
        {
          "internalType": "uint8",
          "name": "newDecimal",
          "type": "uint8"
        }
      ],
      "name": "changeInvestmentAssetAddressAndDecimal",
      "outputs": [],
      "payable": false,
      "stateMutability": "nonpayable",
      "type": "function"
    },
    {
      "constant": false,
      "inputs": [
        {
          "internalType": "bytes4",
          "name": "curr",
          "type": "bytes4"
        },
        {
          "internalType": "uint64",
          "name": "minPercX100",
          "type": "uint64"
        },
        {
          "internalType": "uint64",
          "name": "maxPercX100",
          "type": "uint64"
        }
      ],
      "name": "changeInvestmentAssetHoldingPerc",
      "outputs": [],
      "payable": false,
      "stateMutability": "nonpayable",
      "type": "function"
    },
    {
      "constant": false,
      "inputs": [
        {
          "internalType": "bytes4",
          "name": "curr",
          "type": "bytes4"
        },
        {
          "internalType": "bool",
          "name": "status",
          "type": "bool"
        }
      ],
      "name": "changeInvestmentAssetStatus",
      "outputs": [],
      "payable": false,
      "stateMutability": "nonpayable",
      "type": "function"
    },
    {
      "constant": false,
      "inputs": [
        {
          "internalType": "address",
          "name": "_masterAddress",
          "type": "address"
        }
      ],
      "name": "changeMasterAddress",
      "outputs": [],
      "payable": false,
      "stateMutability": "nonpayable",
      "type": "function"
    },
    {
      "constant": false,
      "inputs": [
        {
          "internalType": "address",
          "name": "_add",
          "type": "address"
        }
      ],
      "name": "changeNotariseAddress",
      "outputs": [],
      "payable": false,
      "stateMutability": "nonpayable",
      "type": "function"
    },
    {
      "constant": true,
      "inputs": [],
      "name": "daiFeedAddress",
      "outputs": [
        {
          "internalType": "address",
          "name": "",
          "type": "address"
        }
      ],
      "payable": false,
      "stateMutability": "view",
      "type": "function"
    },
    {
      "constant": true,
      "inputs": [],
      "name": "ethVolumeLimit",
      "outputs": [
        {
          "internalType": "uint256",
          "name": "",
          "type": "uint256"
        }
      ],
      "payable": false,
      "stateMutability": "view",
      "type": "function"
    },
    {
      "constant": true,
      "inputs": [],
      "name": "getAllCurrencies",
      "outputs": [
        {
          "internalType": "bytes4[]",
          "name": "currencies",
          "type": "bytes4[]"
        }
      ],
      "payable": false,
      "stateMutability": "view",
      "type": "function"
    },
    {
      "constant": true,
      "inputs": [],
      "name": "getAllCurrenciesLen",
      "outputs": [
        {
          "internalType": "uint256",
          "name": "len",
          "type": "uint256"
        }
      ],
      "payable": false,
      "stateMutability": "view",
      "type": "function"
    },
    {
      "constant": true,
      "inputs": [],
      "name": "getAllInvestmentCurrencies",
      "outputs": [
        {
          "internalType": "bytes4[]",
          "name": "currencies",
          "type": "bytes4[]"
        }
      ],
      "payable": false,
      "stateMutability": "view",
      "type": "function"
    },
    {
      "constant": true,
      "inputs": [
        {
          "internalType": "bytes32",
          "name": "myid",
          "type": "bytes32"
        }
      ],
      "name": "getApiCallDetails",
      "outputs": [
        {
          "internalType": "bytes4",
          "name": "_typeof",
          "type": "bytes4"
        },
        {
          "internalType": "bytes4",
          "name": "curr",
          "type": "bytes4"
        },
        {
          "internalType": "uint256",
          "name": "id",
          "type": "uint256"
        },
        {
          "internalType": "uint64",
          "name": "dateAdd",
          "type": "uint64"
        },
        {
          "internalType": "uint64",
          "name": "dateUpd",
          "type": "uint64"
        }
      ],
      "payable": false,
      "stateMutability": "view",
      "type": "function"
    },
    {
      "constant": true,
      "inputs": [
        {
          "internalType": "uint256",
          "name": "index",
          "type": "uint256"
        }
      ],
      "name": "getApiCallIndex",
      "outputs": [
        {
          "internalType": "bytes32",
          "name": "myid",
          "type": "bytes32"
        }
      ],
      "payable": false,
      "stateMutability": "view",
      "type": "function"
    },
    {
      "constant": true,
      "inputs": [
        {
          "internalType": "bytes32",
          "name": "myid",
          "type": "bytes32"
        }
      ],
      "name": "getApiIdTypeOf",
      "outputs": [
        {
          "internalType": "bytes4",
          "name": "",
          "type": "bytes4"
        }
      ],
      "payable": false,
      "stateMutability": "view",
      "type": "function"
    },
    {
      "constant": true,
      "inputs": [],
      "name": "getApilCallLength",
      "outputs": [
        {
          "internalType": "uint256",
          "name": "",
          "type": "uint256"
        }
      ],
      "payable": false,
      "stateMutability": "view",
      "type": "function"
    },
    {
      "constant": true,
      "inputs": [
        {
          "internalType": "bytes4",
          "name": "curr",
          "type": "bytes4"
        }
      ],
      "name": "getCAAvgRate",
      "outputs": [
        {
          "internalType": "uint256",
          "name": "rate",
          "type": "uint256"
        }
      ],
      "payable": false,
      "stateMutability": "view",
      "type": "function"
    },
    {
      "constant": true,
      "inputs": [
        {
          "internalType": "bytes32",
          "name": "myid",
          "type": "bytes32"
        }
      ],
      "name": "getCurrOfApiId",
      "outputs": [
        {
          "internalType": "bytes4",
          "name": "",
          "type": "bytes4"
        }
      ],
      "payable": false,
      "stateMutability": "view",
      "type": "function"
    },
    {
      "constant": true,
      "inputs": [
        {
          "internalType": "uint256",
          "name": "index",
          "type": "uint256"
        }
      ],
      "name": "getCurrenciesByIndex",
      "outputs": [
        {
          "internalType": "bytes4",
          "name": "currName",
          "type": "bytes4"
        }
      ],
      "payable": false,
      "stateMutability": "view",
      "type": "function"
    },
    {
      "constant": true,
      "inputs": [
        {
          "internalType": "bytes4",
          "name": "curr",
          "type": "bytes4"
        }
      ],
      "name": "getCurrencyAssetAddress",
      "outputs": [
        {
          "internalType": "address",
          "name": "",
          "type": "address"
        }
      ],
      "payable": false,
      "stateMutability": "view",
      "type": "function"
    },
    {
      "constant": true,
      "inputs": [
        {
          "internalType": "bytes4",
          "name": "curr",
          "type": "bytes4"
        }
      ],
      "name": "getCurrencyAssetBaseMin",
      "outputs": [
        {
          "internalType": "uint256",
          "name": "baseMin",
          "type": "uint256"
        }
      ],
      "payable": false,
      "stateMutability": "view",
      "type": "function"
    },
    {
      "constant": true,
      "inputs": [
        {
          "internalType": "bytes4",
          "name": "curr",
          "type": "bytes4"
        }
      ],
      "name": "getCurrencyAssetVarBase",
      "outputs": [
        {
          "internalType": "bytes4",
          "name": "currency",
          "type": "bytes4"
        },
        {
          "internalType": "uint256",
          "name": "baseMin",
          "type": "uint256"
        },
        {
          "internalType": "uint256",
          "name": "varMin",
          "type": "uint256"
        }
      ],
      "payable": false,
      "stateMutability": "view",
      "type": "function"
    },
    {
      "constant": true,
      "inputs": [
        {
          "internalType": "bytes4",
          "name": "curr",
          "type": "bytes4"
        }
      ],
      "name": "getCurrencyAssetVarMin",
      "outputs": [
        {
          "internalType": "uint256",
          "name": "varMin",
          "type": "uint256"
        }
      ],
      "payable": false,
      "stateMutability": "view",
      "type": "function"
    },
    {
      "constant": true,
      "inputs": [
        {
          "internalType": "bytes32",
          "name": "myid",
          "type": "bytes32"
        }
      ],
      "name": "getDateAddOfAPI",
      "outputs": [
        {
          "internalType": "uint64",
          "name": "",
          "type": "uint64"
        }
      ],
      "payable": false,
      "stateMutability": "view",
      "type": "function"
    },
    {
      "constant": true,
      "inputs": [
        {
          "internalType": "bytes32",
          "name": "myid",
          "type": "bytes32"
        }
      ],
      "name": "getDateUpdOfAPI",
      "outputs": [
        {
          "internalType": "uint64",
          "name": "",
          "type": "uint64"
        }
      ],
      "payable": false,
      "stateMutability": "view",
      "type": "function"
    },
    {
      "constant": true,
      "inputs": [
        {
          "internalType": "bytes4",
          "name": "curr",
          "type": "bytes4"
        }
      ],
      "name": "getIAAvgRate",
      "outputs": [
        {
          "internalType": "uint256",
          "name": "rate",
          "type": "uint256"
        }
      ],
      "payable": false,
      "stateMutability": "view",
      "type": "function"
    },
    {
      "constant": true,
      "inputs": [
        {
          "internalType": "uint64",
          "name": "date",
          "type": "uint64"
        }
      ],
      "name": "getIARankDetailsByDate",
      "outputs": [
        {
          "internalType": "bytes4",
          "name": "maxIACurr",
          "type": "bytes4"
        },
        {
          "internalType": "uint64",
          "name": "maxRate",
          "type": "uint64"
        },
        {
          "internalType": "bytes4",
          "name": "minIACurr",
          "type": "bytes4"
        },
        {
          "internalType": "uint64",
          "name": "minRate",
          "type": "uint64"
        }
      ],
      "payable": false,
      "stateMutability": "view",
      "type": "function"
    },
    {
      "constant": true,
      "inputs": [
        {
          "internalType": "bytes32",
          "name": "myid",
          "type": "bytes32"
        }
      ],
      "name": "getIdOfApiId",
      "outputs": [
        {
          "internalType": "uint256",
          "name": "",
          "type": "uint256"
        }
      ],
      "payable": false,
      "stateMutability": "view",
      "type": "function"
    },
    {
      "constant": true,
      "inputs": [
        {
          "internalType": "bytes4",
          "name": "curr",
          "type": "bytes4"
        }
      ],
      "name": "getInvestmentAssetAddress",
      "outputs": [
        {
          "internalType": "address",
          "name": "",
          "type": "address"
        }
      ],
      "payable": false,
      "stateMutability": "view",
      "type": "function"
    },
    {
      "constant": true,
      "inputs": [
        {
          "internalType": "bytes4",
          "name": "curr",
          "type": "bytes4"
        }
      ],
      "name": "getInvestmentAssetDecimals",
      "outputs": [
        {
          "internalType": "uint8",
          "name": "decimal",
          "type": "uint8"
        }
      ],
      "payable": false,
      "stateMutability": "view",
      "type": "function"
    },
    {
      "constant": true,
      "inputs": [
        {
          "internalType": "bytes4",
          "name": "curr",
          "type": "bytes4"
        }
      ],
      "name": "getInvestmentAssetDetails",
      "outputs": [
        {
          "internalType": "bytes4",
          "name": "currency",
          "type": "bytes4"
        },
        {
          "internalType": "address",
          "name": "currAddress",
          "type": "address"
        },
        {
          "internalType": "bool",
          "name": "status",
          "type": "bool"
        },
        {
          "internalType": "uint64",
          "name": "minHoldingPerc",
          "type": "uint64"
        },
        {
          "internalType": "uint64",
          "name": "maxHoldingPerc",
          "type": "uint64"
        },
        {
          "internalType": "uint8",
          "name": "decimals",
          "type": "uint8"
        }
      ],
      "payable": false,
      "stateMutability": "view",
      "type": "function"
    },
    {
      "constant": true,
      "inputs": [
        {
          "internalType": "bytes4",
          "name": "curr",
          "type": "bytes4"
        }
      ],
      "name": "getInvestmentAssetHoldingPerc",
      "outputs": [
        {
          "internalType": "uint64",
          "name": "minHoldingPercX100",
          "type": "uint64"
        },
        {
          "internalType": "uint64",
          "name": "maxHoldingPercX100",
          "type": "uint64"
        }
      ],
      "payable": false,
      "stateMutability": "view",
      "type": "function"
    },
    {
      "constant": true,
      "inputs": [
        {
          "internalType": "bytes4",
          "name": "curr",
          "type": "bytes4"
        }
      ],
      "name": "getInvestmentAssetMaxHoldingPerc",
      "outputs": [
        {
          "internalType": "uint64",
          "name": "maxHoldingPercX100",
          "type": "uint64"
        }
      ],
      "payable": false,
      "stateMutability": "view",
      "type": "function"
    },
    {
      "constant": true,
      "inputs": [
        {
          "internalType": "bytes4",
          "name": "curr",
          "type": "bytes4"
        }
      ],
      "name": "getInvestmentAssetMinHoldingPerc",
      "outputs": [
        {
          "internalType": "uint64",
          "name": "minHoldingPercX100",
          "type": "uint64"
        }
      ],
      "payable": false,
      "stateMutability": "view",
      "type": "function"
    },
    {
      "constant": true,
      "inputs": [
        {
          "internalType": "bytes4",
          "name": "curr",
          "type": "bytes4"
        }
      ],
      "name": "getInvestmentAssetStatus",
      "outputs": [
        {
          "internalType": "bool",
          "name": "status",
          "type": "bool"
        }
      ],
      "payable": false,
      "stateMutability": "view",
      "type": "function"
    },
    {
      "constant": true,
      "inputs": [
        {
          "internalType": "uint256",
          "name": "index",
          "type": "uint256"
        }
      ],
      "name": "getInvestmentCurrencyByIndex",
      "outputs": [
        {
          "internalType": "bytes4",
          "name": "currName",
          "type": "bytes4"
        }
      ],
      "payable": false,
      "stateMutability": "view",
      "type": "function"
    },
    {
      "constant": true,
      "inputs": [],
      "name": "getInvestmentCurrencyLen",
      "outputs": [
        {
          "internalType": "uint256",
          "name": "len",
          "type": "uint256"
        }
      ],
      "payable": false,
      "stateMutability": "view",
      "type": "function"
    },
    {
      "constant": true,
      "inputs": [],
      "name": "getLastDate",
      "outputs": [
        {
          "internalType": "uint64",
          "name": "date",
          "type": "uint64"
        }
      ],
      "payable": false,
      "stateMutability": "view",
      "type": "function"
    },
    {
      "constant": true,
      "inputs": [],
      "name": "getLastMCR",
      "outputs": [
        {
          "internalType": "uint256",
          "name": "mcrPercx100",
          "type": "uint256"
        },
        {
          "internalType": "uint256",
          "name": "mcrEtherx1E18",
          "type": "uint256"
        },
        {
          "internalType": "uint256",
          "name": "vFull",
          "type": "uint256"
        },
        {
          "internalType": "uint64",
          "name": "date",
          "type": "uint64"
        }
      ],
      "payable": false,
      "stateMutability": "view",
      "type": "function"
    },
    {
      "constant": true,
      "inputs": [],
      "name": "getLastMCRDate",
      "outputs": [
        {
          "internalType": "uint64",
          "name": "date",
          "type": "uint64"
        }
      ],
      "payable": false,
      "stateMutability": "view",
      "type": "function"
    },
    {
      "constant": true,
      "inputs": [],
      "name": "getLastMCREther",
      "outputs": [
        {
          "internalType": "uint256",
          "name": "",
          "type": "uint256"
        }
      ],
      "payable": false,
      "stateMutability": "view",
      "type": "function"
    },
    {
      "constant": true,
      "inputs": [],
      "name": "getLastMCRPerc",
      "outputs": [
        {
          "internalType": "uint256",
          "name": "",
          "type": "uint256"
        }
      ],
      "payable": false,
      "stateMutability": "view",
      "type": "function"
    },
    {
      "constant": true,
      "inputs": [],
      "name": "getLastVfull",
      "outputs": [
        {
          "internalType": "uint256",
          "name": "",
          "type": "uint256"
        }
      ],
      "payable": false,
      "stateMutability": "view",
      "type": "function"
    },
    {
      "constant": true,
      "inputs": [],
      "name": "getMCRDataLength",
      "outputs": [
        {
          "internalType": "uint256",
          "name": "len",
          "type": "uint256"
        }
      ],
      "payable": false,
      "stateMutability": "view",
      "type": "function"
    },
    {
      "constant": true,
      "inputs": [
        {
          "internalType": "bytes4",
          "name": "curr",
          "type": "bytes4"
        }
      ],
      "name": "getTokenPriceDetails",
      "outputs": [
        {
          "internalType": "uint256",
          "name": "_a",
          "type": "uint256"
        },
        {
          "internalType": "uint256",
          "name": "_c",
          "type": "uint256"
        },
        {
          "internalType": "uint256",
          "name": "rate",
          "type": "uint256"
        }
      ],
      "payable": false,
      "stateMutability": "view",
      "type": "function"
    },
    {
      "constant": true,
      "inputs": [
        {
          "internalType": "bytes8",
          "name": "code",
          "type": "bytes8"
        }
      ],
      "name": "getUintParameters",
      "outputs": [
        {
          "internalType": "bytes8",
          "name": "codeVal",
          "type": "bytes8"
        },
        {
          "internalType": "uint256",
          "name": "val",
          "type": "uint256"
        }
      ],
      "payable": false,
      "stateMutability": "view",
      "type": "function"
    },
    {
      "constant": true,
      "inputs": [],
      "name": "iaRatesTime",
      "outputs": [
        {
          "internalType": "uint256",
          "name": "",
          "type": "uint256"
        }
      ],
      "payable": false,
      "stateMutability": "view",
      "type": "function"
    },
    {
      "constant": true,
      "inputs": [
        {
          "internalType": "address",
          "name": "_add",
          "type": "address"
        }
      ],
      "name": "isnotarise",
      "outputs": [
        {
          "internalType": "bool",
          "name": "res",
          "type": "bool"
        }
      ],
      "payable": false,
      "stateMutability": "view",
      "type": "function"
    },
    {
      "constant": true,
      "inputs": [],
      "name": "lastLiquidityTradeTrigger",
      "outputs": [
        {
          "internalType": "uint256",
          "name": "",
          "type": "uint256"
        }
      ],
      "payable": false,
      "stateMutability": "view",
      "type": "function"
    },
    {
      "constant": true,
      "inputs": [],
      "name": "liquidityTradeCallbackTime",
      "outputs": [
        {
          "internalType": "uint256",
          "name": "",
          "type": "uint256"
        }
      ],
      "payable": false,
      "stateMutability": "view",
      "type": "function"
    },
    {
      "constant": true,
      "inputs": [],
      "name": "mcrFailTime",
      "outputs": [
        {
          "internalType": "uint256",
          "name": "",
          "type": "uint256"
        }
      ],
      "payable": false,
      "stateMutability": "view",
      "type": "function"
    },
    {
      "constant": true,
      "inputs": [],
      "name": "mcrTime",
      "outputs": [
        {
          "internalType": "uint256",
          "name": "",
          "type": "uint256"
        }
      ],
      "payable": false,
      "stateMutability": "view",
      "type": "function"
    },
    {
      "constant": true,
      "inputs": [],
      "name": "minCap",
      "outputs": [
        {
          "internalType": "uint256",
          "name": "",
          "type": "uint256"
        }
      ],
      "payable": false,
      "stateMutability": "view",
      "type": "function"
    },
    {
      "constant": true,
      "inputs": [],
      "name": "ms",
      "outputs": [
        {
          "internalType": "contract INXMMaster",
          "name": "",
          "type": "address"
        }
      ],
      "payable": false,
      "stateMutability": "view",
      "type": "function"
    },
    {
      "constant": true,
      "inputs": [],
      "name": "notariseMCR",
      "outputs": [
        {
          "internalType": "address",
          "name": "",
          "type": "address"
        }
      ],
      "payable": false,
      "stateMutability": "view",
      "type": "function"
    },
    {
      "constant": true,
      "inputs": [],
      "name": "nxMasterAddress",
      "outputs": [
        {
          "internalType": "address",
          "name": "",
          "type": "address"
        }
      ],
      "payable": false,
      "stateMutability": "view",
      "type": "function"
    },
    {
      "constant": false,
      "inputs": [
        {
          "internalType": "uint256",
          "name": "mcrp",
          "type": "uint256"
        },
        {
          "internalType": "uint256",
          "name": "mcre",
          "type": "uint256"
        },
        {
          "internalType": "uint256",
          "name": "vf",
          "type": "uint256"
        },
        {
          "internalType": "uint64",
          "name": "time",
          "type": "uint64"
        }
      ],
      "name": "pushMCRData",
      "outputs": [],
      "payable": false,
      "stateMutability": "nonpayable",
      "type": "function"
    },
    {
      "constant": false,
      "inputs": [
        {
          "internalType": "bytes32",
          "name": "myid",
          "type": "bytes32"
        },
        {
          "internalType": "bytes4",
          "name": "_typeof",
          "type": "bytes4"
        },
        {
          "internalType": "uint256",
          "name": "id",
          "type": "uint256"
        }
      ],
      "name": "saveApiDetails",
      "outputs": [],
      "payable": false,
      "stateMutability": "nonpayable",
      "type": "function"
    },
    {
      "constant": false,
      "inputs": [
        {
          "internalType": "bytes4",
          "name": "maxIACurr",
          "type": "bytes4"
        },
        {
          "internalType": "uint64",
          "name": "maxRate",
          "type": "uint64"
        },
        {
          "internalType": "bytes4",
          "name": "minIACurr",
          "type": "bytes4"
        },
        {
          "internalType": "uint64",
          "name": "minRate",
          "type": "uint64"
        },
        {
          "internalType": "uint64",
          "name": "date",
          "type": "uint64"
        }
      ],
      "name": "saveIARankDetails",
      "outputs": [],
      "payable": false,
      "stateMutability": "nonpayable",
      "type": "function"
    },
    {
      "constant": false,
      "inputs": [
        {
          "internalType": "uint256",
          "name": "val",
          "type": "uint256"
        }
      ],
      "name": "setCapReached",
      "outputs": [],
      "payable": false,
      "stateMutability": "nonpayable",
      "type": "function"
    },
    {
      "constant": false,
      "inputs": [],
      "name": "setLastLiquidityTradeTrigger",
      "outputs": [],
      "payable": false,
      "stateMutability": "nonpayable",
      "type": "function"
    },
    {
      "constant": true,
      "inputs": [],
      "name": "shockParameter",
      "outputs": [
        {
          "internalType": "uint256",
          "name": "",
          "type": "uint256"
        }
      ],
      "payable": false,
      "stateMutability": "view",
      "type": "function"
    },
    {
      "constant": true,
      "inputs": [],
      "name": "uniswapDeadline",
      "outputs": [
        {
          "internalType": "uint256",
          "name": "",
          "type": "uint256"
        }
      ],
      "payable": false,
      "stateMutability": "view",
      "type": "function"
    },
    {
      "constant": false,
      "inputs": [
        {
          "internalType": "bytes4",
          "name": "curr",
          "type": "bytes4"
        },
        {
          "internalType": "uint256",
          "name": "rate",
          "type": "uint256"
        }
      ],
      "name": "updateCAAvgRate",
      "outputs": [],
      "payable": false,
      "stateMutability": "nonpayable",
      "type": "function"
    },
    {
      "constant": false,
      "inputs": [
        {
          "internalType": "bytes32",
          "name": "myid",
          "type": "bytes32"
        }
      ],
      "name": "updateDateUpdOfAPI",
      "outputs": [],
      "payable": false,
      "stateMutability": "nonpayable",
      "type": "function"
    },
    {
      "constant": false,
      "inputs": [
        {
          "internalType": "bytes4",
          "name": "curr",
          "type": "bytes4"
        },
        {
          "internalType": "uint256",
          "name": "rate",
          "type": "uint256"
        }
      ],
      "name": "updateIAAvgRate",
      "outputs": [],
      "payable": false,
      "stateMutability": "nonpayable",
      "type": "function"
    },
    {
      "constant": false,
      "inputs": [
        {
          "internalType": "bytes8",
          "name": "code",
          "type": "bytes8"
        },
        {
          "internalType": "uint256",
          "name": "val",
          "type": "uint256"
        }
      ],
      "name": "updateUintParameters",
      "outputs": [],
      "payable": false,
      "stateMutability": "nonpayable",
      "type": "function"
    },
    {
      "constant": false,
      "inputs": [
        {
          "internalType": "uint64",
          "name": "newDate",
          "type": "uint64"
        }
      ],
      "name": "updatelastDate",
      "outputs": [],
      "payable": false,
      "stateMutability": "nonpayable",
      "type": "function"
    },
    {
      "constant": true,
      "inputs": [],
      "name": "variationPercX100",
      "outputs": [
        {
          "internalType": "uint256",
          "name": "",
          "type": "uint256"
        }
      ],
      "payable": false,
      "stateMutability": "view",
      "type": "function"
    }
  ],
  "bytecode": "0x608060405234801561001057600080fd5b506040516138863803806138868339818101604052606081101561003357600080fd5b8101908080519060200190929190805190602001909291908051906020019092919050505082600e60006101000a8154816001600160a01b0302191690836001600160a01b0316021790555081600f60006101000a8154816001600160a01b0302191690836001600160a01b0316021790555062588040601a8190555061040460188190555062015180601781905550615460601b819055506003604051806080016040528060008152602001600081526020016000815260200160006001600160401b03168152509080600181540180825580915050906001820390600052602060002090600402016000909192909190915060008201518160000155602082015181600101556040820151816002015560608201518160030160006101000a8154816001600160401b0302191690836001600160401b031602179055505050506012600a0a612ee00260168190555060326019819055506064601481905550620151806015819055506104b06010819055506138406011819055506004601c81905550600a601e81905550600580600181540180825580915050906001820390600052602060002090600891828204019190066004026208aa8960eb1b909190916101000a81548163ffffffff021916908360e01c021790555050604051806060016040528060006001600160a01b031681526020016012600a0a6103e80281526020016000815250600a60006208aa8960eb1b6001600160e01b031916815260200190815260200160002060008201518160000160006101000a8154816001600160a01b0302191690836001600160a01b031602179055506020820151816001015560408201518160020155905050600580600181540180825580915050906001820390600052602060002090600891828204019190066004026244414960e81b909190916101000a81548163ffffffff021916908360e01c0217905550506040518060600160405280826001600160a01b031681526020016012600a0a61c3500281526020016000815250600a60006244414960e81b6001600160e01b031916815260200190815260200160002060008201518160000160006101000a8154816001600160a01b0302191690836001600160a01b031602179055506020820151816001015560408201518160020155905050600480600181540180825580915050906001820390600052602060002090600891828204019190066004026208aa8960eb1b909190916101000a81548163ffffffff021916908360e01c0217905550506040518060a0016040528060006001600160a01b031681526020016001151581526020016109c46001600160401b031681526020016127106001600160401b03168152602001601260ff16815250600b60006208aa8960eb1b6001600160e01b031916815260200190815260200160002060008201518160000160006101000a8154816001600160a01b0302191690836001600160a01b0316021790555060208201518160000160146101000a81548160ff02191690831515021790555060408201518160000160156101000a8154816001600160401b0302191690836001600160401b0316021790555060608201518160010160006101000a8154816001600160401b0302191690836001600160401b0316021790555060808201518160010160086101000a81548160ff021916908360ff160217905550905050600480600181540180825580915050906001820390600052602060002090600891828204019190066004026244414960e81b909190916101000a81548163ffffffff021916908360e01c0217905550506040518060a00160405280826001600160a01b0316815260200160011515815260200160fa6001600160401b031681526020016105dc6001600160401b03168152602001601260ff16815250600b60006244414960e81b6001600160e01b031916815260200190815260200160002060008201518160000160006101000a8154816001600160a01b0302191690836001600160a01b0316021790555060208201518160000160146101000a81548160ff02191690831515021790555060408201518160000160156101000a8154816001600160401b0302191690836001600160401b0316021790555060608201518160010160006101000a8154816001600160401b0302191690836001600160401b0316021790555060808201518160010160086101000a81548160ff021916908360ff1602179055509050505050506131d5806106b16000396000f3fe608060405234801561001057600080fd5b50600436106104965760003560e01c80637d03238f11610262578063ca0d4c8611610151578063e3cacb9c116100ce578063ef3c6ec811610092578063ef3c6ec814610f94578063f0f9f25414610fb1578063f17a3bec14610fb9578063fc664c3614610fc1578063fd3e44d514610fe8578063ff0102391461100557610496565b8063e3cacb9c14610ed6578063e3d22ebd14610ef3578063e3dee23914610efb578063eaad1b3b14610f22578063ebff71c314610f5857610496565b8063d676ee9111610115578063d676ee9114610e50578063d8e25da114610e6d578063dc68e16b14610e8a578063e2507b4a14610ea7578063e26ff34c14610eaf57610496565b8063ca0d4c8614610dc7578063d175058514610ded578063d17e225314610e1a578063d3fdadf714610e22578063d46655f414610e2a57610496565b8063a5263aa2116101df578063b96d2d35116101a3578063b96d2d3514610ce1578063c3da42b814610ce9578063c6318c2314610cf1578063c85e5efd14610d52578063c94f740f14610d9057610496565b8063a5263aa214610c0a578063a5a1c40214610c49578063ade6a30314610c6f578063b72efc7c14610c9c578063b775a49d14610cd957610496565b80638c3f8fa4116102265780638c3f8fa414610b7857806395dcbd1f14610b805780639dd86e0f14610bcd578063a0b2d57f14610bfa578063a2e92aac14610c0257610496565b80637d03238f14610b0c5780637deb857614610b145780637e2d14d914610b41578063818acb8214610b6857806384769f4414610b7057610496565b806346583d091161038957806362ae372111610306578063702ddaab116102ca578063702ddaab146109f65780637106767b146109fe57806373f9548814610a36578063756865ec14610a5357806377449c0b14610ab45780637920e20014610b0457610496565b806362ae37211461095e5780636549ff58146109845780636576ffed1461098c57806369ab978a146109b25780636b947f0c146109d957610496565b80634e55a69b1161034d5780634e55a69b146108de5780634f935945146108e657806356571fc3146108ee5780636122f840146108f657806361b6c00f1461094157610496565b806346583d091461085d57806347cb4b721461087a578063487d2d0014610882578063496b4886146108a95780634c69d497146108d657610496565b80632fb5b716116104175780633fa615b0116103db5780633fa615b01461077f57806342104aae14610787578063424593b0146107d7578063428dfd381461080a57806342a049cd1461082e57610496565b80632fb5b716146106a75780633277be9614610720578063371e6e121461073d57806339d2ad291461075a5780633c40b1f01461076257610496565b80631d668c641161045e5780631d668c641461058d57806322601a58146105d257806324da11281461060c578063255f5049146106475780632f175f451461064f57610496565b80630dbe671f1461049b5780630e412f5c146104b55780630ea9c9841461051957806312265409146105235780631c4a29ea14610566575b600080fd5b6104a361100d565b60408051918252519081900360200190f35b6104db600480360360208110156104cb57600080fd5b50356001600160401b0316611013565b604080516001600160e01b031995861681526001600160401b0394851660208201529290941682850152909116606082015290519081900360800190f35b6105216110e1565b005b61054a6004803603602081101561053957600080fd5b50356001600160e01b031916611163565b604080516001600160401b039092168252519081900360200190f35b6104a36004803603602081101561057c57600080fd5b50356001600160e01b03191661118f565b6105b4600480360360208110156105a357600080fd5b50356001600160e01b0319166111ae565b60408051938452602084019290925282820152519081900360600190f35b6105ef600480360360208110156105e857600080fd5b50356111c8565b604080516001600160e01b03199092168252519081900360200190f35b6106336004803603602081101561062257600080fd5b50356001600160e01b0319166111e5565b604080519115158252519081900360200190f35b6104a361120b565b610657611211565b60408051602080825283518183015283519192839290830191858101910280838360005b8381101561069357818101518382015260200161067b565b505050509050019250505060405180910390f35b6106ce600480360360208110156106bd57600080fd5b50356001600160e01b031916611296565b604080516001600160e01b031990971687526001600160a01b039095166020870152921515858501526001600160401b03918216606086015216608084015260ff1660a0830152519081900360c00190f35b61054a6004803603602081101561073657600080fd5b50356112f4565b6104a36004803603602081101561075357600080fd5b5035611312565b6104a3611327565b6105ef6004803603602081101561077857600080fd5b503561132d565b6104a3611366565b610521600480360360a081101561079d57600080fd5b506001600160e01b031981358116916001600160401b0360208201358116926040830135169160608101358216916080909101351661136c565b610521600480360360608110156107ed57600080fd5b508035906001600160e01b031960208201351690604001356114fb565b610812611644565b604080516001600160a01b039092168252519081900360200190f35b6105216004803603604081101561084457600080fd5b506001600160e01b031981351690602001351515611653565b61054a6004803603602081101561087357600080fd5b5035611709565b61065761172e565b6104a36004803603602081101561089857600080fd5b50356001600160e01b031916611792565b610521600480360360408110156108bf57600080fd5b506001600160e01b031981351690602001356117b1565b6104a3611851565b6104a3611857565b6104a361185d565b61054a611863565b61091d6004803603602081101561090c57600080fd5b50356001600160c01b031916611872565b604080516001600160c01b0319909316835260208301919091528051918290030190f35b6105216004803603602081101561095757600080fd5b5035611a3b565b6106336004803603602081101561097457600080fd5b50356001600160a01b0316611af1565b6104a3611b12565b610521600480360360208110156109a257600080fd5b50356001600160a01b0316611b18565b61054a600480360360208110156109c857600080fd5b50356001600160e01b031916611bba565b6104a3600480360360208110156109ef57600080fd5b5035611be6565b6104a3611c04565b61052160048036036080811015610a1457600080fd5b50803590602081013590604081013590606001356001600160401b0316611c0a565b6104a360048036036020811015610a4c57600080fd5b5035611d7c565b610a7060048036036020811015610a6957600080fd5b5035611d9d565b604080516001600160e01b03199687168152949095166020850152838501929092526001600160401b03908116606084015216608082015290519081900360a00190f35b610adb60048036036020811015610aca57600080fd5b50356001600160e01b031916611de2565b604080516001600160e01b03199094168452602084019290925282820152519081900360600190f35b6104a3611e0d565b6104a3611e13565b61052160048036036040811015610b2a57600080fd5b506001600160e01b03198135169060200135611e19565b61081260048036036020811015610b5757600080fd5b50356001600160e01b031916611eb6565b6104a3611edb565b610521611f15565b6104a3611f9b565b610ba760048036036020811015610b9657600080fd5b50356001600160e01b031916611fa1565b604080516001600160401b03938416815291909216602082015281519081900390910190f35b61052160048036036040811015610be357600080fd5b506001600160c01b03198135169060200135611fd9565b610812612261565b6104a3612270565b61052160048036036060811015610c2057600080fd5b5080356001600160e01b0319169060208101356001600160a01b0316906040013560ff16612276565b61052160048036036020811015610c5f57600080fd5b50356001600160401b0316612350565b61052160048036036040811015610c8557600080fd5b506001600160e01b031981351690602001356123f3565b610cc360048036036020811015610cb257600080fd5b50356001600160e01b031916612490565b6040805160ff9092168252519081900360200190f35b6104a36124b9565b6104a36124f3565b6104a36124f9565b610521600480360360c0811015610d0757600080fd5b5080356001600160e01b0319169060208101356001600160a01b031690604081013515159060608101356001600160401b039081169160808101359091169060a0013560ff166124ff565b61052160048036036060811015610d6857600080fd5b506001600160e01b0319813516906001600160401b03602082013581169160400135166126c1565b610d98612799565b604080519485526020850193909352838301919091526001600160401b03166060830152519081900360800190f35b61052160048036036020811015610ddd57600080fd5b50356001600160a01b0316612853565b61052160048036036040811015610e0357600080fd5b506001600160e01b031981351690602001356128f5565b6104a3612995565b6104a361299b565b61052160048036036020811015610e4057600080fd5b50356001600160a01b03166129a1565b61052160048036036020811015610e6657600080fd5b5035612a2a565b610a7060048036036020811015610e8357600080fd5b5035612adf565b6105ef60048036036020811015610ea057600080fd5b5035612b24565b6104a3612b33565b6104a360048036036020811015610ec557600080fd5b50356001600160e01b031916612b39565b61052160048036036020811015610eec57600080fd5b5035612b4c565b6104a3612bd1565b61081260048036036020811015610f1157600080fd5b50356001600160e01b031916612c0b565b61052160048036036040811015610f3857600080fd5b5080356001600160e01b03191690602001356001600160a01b0316612c30565b61052160048036036060811015610f6e57600080fd5b506001600160e01b0319813516906001600160a01b036020820135169060400135612cea565b610d9860048036036020811015610faa57600080fd5b5035612e27565b610812612e67565b610812612e76565b6104a360048036036020811015610fd757600080fd5b50356001600160e01b031916612e85565b6105ef60048036036020811015610ffe57600080fd5b5035612e92565b61054a612ea7565b60185481565b6001600160401b038116600090815260086020526040812054600280548392839283928290811061104057fe5b6000918252602090912001546002805460e09290921b918390811061106157fe5b9060005260206000200160000160049054906101000a90046001600160401b03166002838154811061108f57fe5b60009182526020909120015460028054600160601b90920460e01b91859081106110b557fe5b60009182526020909120015492999198509650600160801b9091046001600160401b0316945092505050565b600054604080516323c5b10760e21b815233600482015290516001600160a01b0390921691638f16c41c91602480820192602092909190829003018186803b15801561112c57600080fd5b505afa158015611140573d6000803e3d6000fd5b505050506040513d602081101561115657600080fd5b505161116157600080fd5b565b6001600160e01b031981166000908152600b60205260409020600101546001600160401b03165b919050565b6001600160e01b0319166000908152600a602052604090206001015490565b601854601a5460006111c08482612eec565b929491935050565b600090815260076020526040902054640100000000900460e01b90565b6001600160e01b0319166000908152600b6020526040902054600160a01b900460ff1690565b60055490565b6060600480548060200260200160405190810160405280929190818152602001828054801561128c57602002820191906000526020600020906000905b82829054906101000a900460e01b6001600160e01b0319168152602001906004019060208260030104928301926001038202915080841161124e5790505b5050505050905090565b6001600160e01b031981166000908152600b60205260409020805460019091015491926001600160a01b0382169260ff600160a01b84048116936001600160401b03600160a81b90910481169390831692600160401b900490911690565b6000908152600760205260409020600201546001600160401b031690565b60009081526007602052604090206001015490565b60105481565b60006005828154811061133c57fe5b90600052602060002090600891828204019190066004029054906101000a900460e01b9050919050565b60165481565b600054604080516323c5b10760e21b815233600482015290516001600160a01b0390921691638f16c41c91602480820192602092909190829003018186803b1580156113b757600080fd5b505afa1580156113cb573d6000803e3d6000fd5b505050506040513d60208110156113e157600080fd5b50516113ec57600080fd5b604080516080810182526001600160e01b031987811682526001600160401b0387811660208401908152918716938301938452858116606084019081526002805460018082018355600083905295517f405787fa12a823e0f2b7631cc41b3ba8828b3321ca811111fa75cd3aa3bb5ace909101805495519751935163ffffffff1990961660e092831c176bffffffffffffffff000000001916640100000000988616989098029790971763ffffffff60601b1916600160601b9390911c929092029190911767ffffffffffffffff60801b1916600160801b93909216929092021790925590546114db91612fdd565b6001600160401b0390911660009081526008602052604090205550505050565b600054604080516323c5b10760e21b815233600482015290516001600160a01b0390921691638f16c41c91602480820192602092909190829003018186803b15801561154657600080fd5b505afa15801561155a573d6000803e3d6000fd5b505050506040513d602081101561157057600080fd5b505161157b57600080fd5b6040805160a0810182526001600160e01b03199093168352600060208085018281528584019485526001600160401b03428116606088018181526080890191825298855260079093529390922094518554925160e090811c6401000000000267ffffffff00000000199290911c63ffffffff1990941693909317169190911784559151600184015592516002909201805491518416600160401b0267ffffffffffffffff60401b199390941667ffffffffffffffff199092169190911791909116919091179055565b600e546001600160a01b031681565b60005460408051632c1a733d60e11b815233600482015290516001600160a01b0390921691635834e67a91602480820192602092909190829003018186803b15801561169e57600080fd5b505afa1580156116b2573d6000803e3d6000fd5b505050506040513d60208110156116c857600080fd5b50516116d357600080fd5b6001600160e01b03199091166000908152600b602052604090208054911515600160a01b0260ff60a01b19909216919091179055565b600090815260076020526040902060020154600160401b90046001600160401b031690565b6060600580548060200260200160405190810160405280929190818152602001828054801561128c576000918252602091829020805460e01b6001600160e01b031916845290820283019290916004910180841161124e5790505050505050905090565b6001600160e01b0319166000908152600a602052604090206002015490565b60005460408051632c1a733d60e11b815233600482015290516001600160a01b0390921691635834e67a91602480820192602092909190829003018186803b1580156117fc57600080fd5b505afa158015611810573d6000803e3d6000fd5b505050506040513d602081101561182657600080fd5b505161183157600080fd5b6001600160e01b03199091166000908152600a6020526040902060010155565b60155481565b60125481565b601d5481565b6013546001600160401b031690565b806000654d435254494d60d01b6001600160c01b0319831614156118a557610e106017548161189d57fe5b049050611a36565b664d43524654494d60c81b6001600160c01b0319841614156118ce57610e10601b548161189d57fe5b6526a1a926a4a760d11b6001600160c01b0319841614156118f25750601654611a36565b674d435253484f434b60c01b6001600160c01b0319841614156119185750601954611a36565b661350d490d0541360ca1b6001600160c01b03198416141561193d5750601e54611a36565b6224a6ad60e91b6001600160c01b03198416141561195e5750601454611a36565b661253549055115560ca1b6001600160c01b03198416141561198757610e106015548161189d57fe5b661253555392511360ca1b6001600160c01b0319841614156119af57603c6010548161189d57fe5b6512535312545560d21b6001600160c01b0319841614156119d757610e106011548161189d57fe5b661253515512159360ca1b6001600160c01b0319841614156119fc5750601c54611a36565b604360f81b6001600160c01b031984161415611a1b5750601a54611a36565b604160f81b6001600160c01b031984161415611a3657506018545b915091565b600054604080516323c5b10760e21b815233600482015290516001600160a01b0390921691638f16c41c91602480820192602092909190829003018186803b158015611a8657600080fd5b505afa158015611a9a573d6000803e3d6000fd5b505050506040513d6020811015611ab057600080fd5b5051611abb57600080fd5b6000908152600760205260409020600201805467ffffffffffffffff60401b1916600160401b426001600160401b031602179055565b600e546000906001600160a01b038381169116141561118a57506001919050565b60115481565b600054604080516323c5b10760e21b815233600482015290516001600160a01b0390921691638f16c41c91602480820192602092909190829003018186803b158015611b6357600080fd5b505afa158015611b77573d6000803e3d6000fd5b505050506040513d6020811015611b8d57600080fd5b5051611b9857600080fd5b600e80546001600160a01b0319166001600160a01b0392909216919091179055565b6001600160e01b0319166000908152600b6020526040902054600160a81b90046001600160401b031690565b60068181548110611bf357fe5b600091825260209091200154905081565b601b5481565b600054604080516323c5b10760e21b815233600482015290516001600160a01b0390921691638f16c41c91602480820192602092909190829003018186803b158015611c5557600080fd5b505afa158015611c69573d6000803e3d6000fd5b505050506040513d6020811015611c7f57600080fd5b5051611c8a57600080fd5b604080516080810182529485526020850193845284019182526001600160401b03908116606085019081526003805460018101825560009190915294517fc2575a0e9e593c00f959f8c92f12db2869c3395a3b0502d05e2516446f71f85b60049096029586015592517fc2575a0e9e593c00f959f8c92f12db2869c3395a3b0502d05e2516446f71f85c85015590517fc2575a0e9e593c00f959f8c92f12db2869c3395a3b0502d05e2516446f71f85d84015590517fc2575a0e9e593c00f959f8c92f12db2869c3395a3b0502d05e2516446f71f85e909201805467ffffffffffffffff191692909116919091179055565b600060068281548110611d8b57fe5b90600052602060002001549050919050565b60076020526000908152604090208054600182015460029092015460e082811b93640100000000909304901b91906001600160401b0380821691600160401b90041685565b6001600160e01b031981166000908152600a6020526040902060018101546002909101549192909190565b60175481565b60045490565b600054604080516323c5b10760e21b815233600482015290516001600160a01b0390921691638f16c41c91602480820192602092909190829003018186803b158015611e6457600080fd5b505afa158015611e78573d6000803e3d6000fd5b505050506040513d6020811015611e8e57600080fd5b5051611e9957600080fd5b6001600160e01b03199091166000908152600d6020526040902055565b6001600160e01b0319166000908152600b60205260409020546001600160a01b031690565b6003805460009190611ef490600163ffffffff612fdd16565b81548110611efe57fe5b906000526020600020906004020160000154905090565b600054604080516323c5b10760e21b815233600482015290516001600160a01b0390921691638f16c41c91602480820192602092909190829003018186803b158015611f6057600080fd5b505afa158015611f74573d6000803e3d6000fd5b505050506040513d6020811015611f8a57600080fd5b5051611f9557600080fd5b42601255565b60145481565b6001600160e01b0319166000908152600b6020526040902080546001909101546001600160401b03600160a81b909204821692911690565b60005460408051632c1a733d60e11b815233600482015290516001600160a01b0390921691635834e67a91602480820192602092909190829003018186803b15801561202457600080fd5b505afa158015612038573d6000803e3d6000fd5b505050506040513d602081101561204e57600080fd5b505161205957600080fd5b654d435254494d60d01b6001600160c01b0319831614156120865761208181610e1002613026565b61225d565b664d43524654494d60c81b6001600160c01b0319831614156120af5761208181610e100261302b565b6526a1a926a4a760d11b6001600160c01b0319831614156120d35761208181613030565b674d435253484f434b60c01b6001600160c01b0319831614156120f95761208181613035565b661350d490d0541360ca1b6001600160c01b03198316141561211e576120818161303a565b6224a6ad60e91b6001600160c01b03198316141561213f576120818161303f565b661253549055115560ca1b6001600160c01b0319831614156121685761208181610e1002613044565b661253555392511360ca1b6001600160c01b0319831614156121905761208181603c02613049565b6512535312545560d21b6001600160c01b0319831614156121b85761208181610e100261304e565b661253515512159360ca1b6001600160c01b0319831614156121dd5761208181613053565b604360f81b6001600160c01b0319831614156121fc5761208181613058565b604160f81b6001600160c01b03198316141561221b576120818161305d565b6040805162461bcd60e51b8152602060048201526012602482015271496e76616c696420706172616d20636f646560701b604482015290519081900360640190fd5b5050565b6000546001600160a01b031681565b60035490565b60005460408051632c1a733d60e11b815233600482015290516001600160a01b0390921691635834e67a91602480820192602092909190829003018186803b1580156122c157600080fd5b505afa1580156122d5573d6000803e3d6000fd5b505050506040513d60208110156122eb57600080fd5b50516122f657600080fd5b6001600160e01b03199092166000908152600b6020526040902080546001600160a01b039092166001600160a01b0319909216919091178155600101805460ff909216600160401b0260ff60401b19909216919091179055565b600054604080516323c5b10760e21b815233600482015290516001600160a01b0390921691638f16c41c91602480820192602092909190829003018186803b15801561239b57600080fd5b505afa1580156123af573d6000803e3d6000fd5b505050506040513d60208110156123c557600080fd5b50516123d057600080fd5b6013805467ffffffffffffffff19166001600160401b0392909216919091179055565b600054604080516323c5b10760e21b815233600482015290516001600160a01b0390921691638f16c41c91602480820192602092909190829003018186803b15801561243e57600080fd5b505afa158015612452573d6000803e3d6000fd5b505050506040513d602081101561246857600080fd5b505161247357600080fd5b6001600160e01b03199091166000908152600c6020526040902055565b6001600160e01b0319166000908152600b6020526040902060010154600160401b900460ff1690565b60038054600091906124d290600163ffffffff612fdd16565b815481106124dc57fe5b906000526020600020906004020160010154905090565b601e5481565b601a5481565b60005460408051632c1a733d60e11b815233600482015290516001600160a01b0390921691635834e67a91602480820192602092909190829003018186803b15801561254a57600080fd5b505afa15801561255e573d6000803e3d6000fd5b505050506040513d602081101561257457600080fd5b505161257f57600080fd5b6004805460018181018355600882047f8a35acfbc15ff81a39ae7d344fd709f28e8600b4aa8c65c6b64bfe7fe36bd19b01805460e08b901c60079094169094026101000a92830263ffffffff90930219909316919091179091556040805160a0810182526001600160a01b03978816815295151560208781019182526001600160401b039687168884019081529587166060890190815260ff95861660808a019081526001600160e01b0319909b166000908152600b90925292902096518754915195518716600160a81b0267ffffffffffffffff60a81b19961515600160a01b0260ff60a01b1992909a166001600160a01b03199093169290921716979097179390931695909517845590519290930180549451909316600160401b0260ff60401b199290911667ffffffffffffffff199094169390931716919091179055565b60005460408051632c1a733d60e11b815233600482015290516001600160a01b0390921691635834e67a91602480820192602092909190829003018186803b15801561270c57600080fd5b505afa158015612720573d6000803e3d6000fd5b505050506040513d602081101561273657600080fd5b505161274157600080fd5b6001600160e01b0319929092166000908152600b60205260409020805467ffffffffffffffff60a81b1916600160a81b6001600160401b0393841602178155600101805467ffffffffffffffff191691909216179055565b60008060008060006127ba6001600380549050612fdd90919063ffffffff16565b9050600381815481106127c957fe5b906000526020600020906004020160000154600382815481106127e857fe5b9060005260206000209060040201600101546003838154811061280757fe5b9060005260206000209060040201600201546003848154811061282657fe5b6000918252602090912060049091020160030154929891975095506001600160401b039091169350915050565b600054604080516323c5b10760e21b815233600482015290516001600160a01b0390921691638f16c41c91602480820192602092909190829003018186803b15801561289e57600080fd5b505afa1580156128b2573d6000803e3d6000fd5b505050506040513d60208110156128c857600080fd5b50516128d357600080fd5b600f80546001600160a01b0319166001600160a01b0392909216919091179055565b600054604080516323c5b10760e21b815233600482015290516001600160a01b0390921691638f16c41c91602480820192602092909190829003018186803b15801561294057600080fd5b505afa158015612954573d6000803e3d6000fd5b505050506040513d602081101561296a57600080fd5b505161297557600080fd5b6001600160e01b03199091166000908152600a6020526040902060020155565b60065490565b60195481565b6000546001600160a01b0316156129fe576000546001600160a01b031633146129fe576040805162461bcd60e51b815260206004820152600a6024820152692737ba1036b0b9ba32b960b11b604482015290519081900360640190fd5b600080546001600160a01b039092166001600160a01b0319928316811790915560018054909216179055565b600054604080516323c5b10760e21b815233600482015290516001600160a01b0390921691638f16c41c91602480820192602092909190829003018186803b158015612a7557600080fd5b505afa158015612a89573d6000803e3d6000fd5b505050506040513d6020811015612a9f57600080fd5b5051612aaa57600080fd5b600680546001810182556000919091527ff652222313e28459528d920b65115c16c04f3efc82aaedc97be59f3f377c0d3f0155565b60009081526007602052604090208054600182015460029092015460e082811b94640100000000909304901b92916001600160401b0380831692600160401b90041690565b60006004828154811061133c57fe5b601c5481565b6000612b46826000612eec565b92915050565b600054604080516323c5b10760e21b815233600482015290516001600160a01b0390921691638f16c41c91602480820192602092909190829003018186803b158015612b9757600080fd5b505afa158015612bab573d6000803e3d6000fd5b505050506040513d6020811015612bc157600080fd5b5051612bcc57600080fd5b601d55565b6003805460009190612bea90600163ffffffff612fdd16565b81548110612bf457fe5b906000526020600020906004020160020154905090565b6001600160e01b0319166000908152600a60205260409020546001600160a01b031690565b60005460408051632c1a733d60e11b815233600482015290516001600160a01b0390921691635834e67a91602480820192602092909190829003018186803b158015612c7b57600080fd5b505afa158015612c8f573d6000803e3d6000fd5b505050506040513d6020811015612ca557600080fd5b5051612cb057600080fd5b6001600160e01b0319919091166000908152600a6020526040902080546001600160a01b0319166001600160a01b03909216919091179055565b60005460408051632c1a733d60e11b815233600482015290516001600160a01b0390921691635834e67a91602480820192602092909190829003018186803b158015612d3557600080fd5b505afa158015612d49573d6000803e3d6000fd5b505050506040513d6020811015612d5f57600080fd5b5051612d6a57600080fd5b6005805460018082019092557f036b6384b5eca791c62761152d0c79bb0604c104a5fb6f4eb0703f3154bb3db06008820401805463ffffffff60079093166004026101000a928302191660e087901c92909202919091179055604080516060810182526001600160a01b039485168152602080820194855260008284018181526001600160e01b03199098168152600a90915291909120905181546001600160a01b03191694169390931783559051908201559051600290910155565b60038181548110612e3457fe5b6000918252602090912060049091020180546001820154600283015460039093015491935091906001600160401b031684565b600f546001600160a01b031681565b6001546001600160a01b031681565b6000612b46826001612eec565b60009081526007602052604090205460e01b90565b6003805460009190612ec090600163ffffffff612fdd16565b81548110612eca57fe5b60009182526020909120600360049092020101546001600160401b0316919050565b60006244414960e81b6001600160e01b031984161415612f9957600f54604080516315f789a960e21b815290516001600160a01b0390921691612f9191662386f26fc100009184916357de26a4916004808301926020929190829003018186803b158015612f5957600080fd5b505afa158015612f6d573d6000803e3d6000fd5b505050506040513d6020811015612f8357600080fd5b50519063ffffffff61306216565b915050612b46565b8115612fbf57506001600160e01b031982166000908152600d6020526040902054612b46565b50506001600160e01b0319166000908152600c602052604090205490565b600061301f83836040518060400160405280601e81526020017f536166654d6174683a207375627472616374696f6e206f766572666c6f7700008152506130a4565b9392505050565b601755565b601b55565b601655565b601955565b601e55565b601455565b601555565b601055565b601155565b601c55565b601a55565b601855565b600061301f83836040518060400160405280601a81526020017f536166654d6174683a206469766973696f6e206279207a65726f00000000000081525061313b565b600081848411156131335760405162461bcd60e51b81526004018080602001828103825283818151815260200191508051906020019080838360005b838110156130f85781810151838201526020016130e0565b50505050905090810190601f1680156131255780820380516001836020036101000a031916815260200191505b509250505060405180910390fd5b505050900390565b6000818361318a5760405162461bcd60e51b81526020600482018181528351602484015283519092839260449091019190850190808383600083156130f85781810151838201526020016130e0565b50600083858161319657fe5b049594505050505056fea265627a7a72315820ac2d29ba29572c8e9114320a2cb94cba2c2584ce168bba1559b5cb5f0d65e0dd64736f6c63430005110032",
  "linkReferences": {},
  "deployedLinkReferences": {}
}