{
  "_format": "hh-sol-artifact-1",
  "contractName": "MemberRoles",
  "sourceName": "nexusmutual/contracts/modules/governance/MemberRoles.sol",
  "abi": [
    {
      "anonymous": false,
      "inputs": [
        {
          "indexed": true,
          "internalType": "uint256",
          "name": "roleId",
          "type": "uint256"
        },
        {
          "indexed": false,
          "internalType": "bytes32",
          "name": "roleName",
          "type": "bytes32"
        },
        {
          "indexed": false,
          "internalType": "string",
          "name": "roleDescription",
          "type": "string"
        }
      ],
      "name": "MemberRole",
      "type": "event"
    },
    {
      "anonymous": false,
      "inputs": [
        {
          "indexed": true,
          "internalType": "address",
          "name": "previousMember",
          "type": "address"
        },
        {
          "indexed": true,
          "internalType": "address",
          "name": "newMember",
          "type": "address"
        },
        {
          "indexed": false,
          "internalType": "uint256",
          "name": "timeStamp",
          "type": "uint256"
        }
      ],
      "name": "switchedMembership",
      "type": "event"
    },
    {
      "constant": false,
      "inputs": [
        {
          "internalType": "address[]",
          "name": "abArray",
          "type": "address[]"
        }
      ],
      "name": "addInitialABMembers",
      "outputs": [],
      "payable": false,
      "stateMutability": "nonpayable",
      "type": "function"
    },
    {
      "constant": false,
      "inputs": [
        {
          "internalType": "address[]",
          "name": "userArray",
          "type": "address[]"
        },
        {
          "internalType": "uint256[]",
          "name": "tokens",
          "type": "uint256[]"
        }
      ],
      "name": "addMembersBeforeLaunch",
      "outputs": [],
      "payable": false,
      "stateMutability": "nonpayable",
      "type": "function"
    },
    {
      "constant": false,
      "inputs": [
        {
          "internalType": "bytes32",
          "name": "_roleName",
          "type": "bytes32"
        },
        {
          "internalType": "string",
          "name": "_roleDescription",
          "type": "string"
        },
        {
          "internalType": "address",
          "name": "_authorized",
          "type": "address"
        }
      ],
      "name": "addRole",
      "outputs": [],
      "payable": false,
      "stateMutability": "nonpayable",
      "type": "function"
    },
    {
      "constant": true,
      "inputs": [
        {
          "internalType": "uint256",
          "name": "_memberRoleId",
          "type": "uint256"
        }
      ],
      "name": "authorized",
      "outputs": [
        {
          "internalType": "address",
          "name": "",
          "type": "address"
        }
      ],
      "payable": false,
      "stateMutability": "view",
      "type": "function"
    },
    {
      "constant": false,
      "inputs": [
        {
          "internalType": "uint256",
          "name": "_roleId",
          "type": "uint256"
        },
        {
          "internalType": "address",
          "name": "_newAuthorized",
          "type": "address"
        }
      ],
      "name": "changeAuthorized",
      "outputs": [],
      "payable": false,
      "stateMutability": "nonpayable",
      "type": "function"
    },
    {
      "constant": false,
      "inputs": [],
      "name": "changeDependentContractAddress",
      "outputs": [],
      "payable": false,
      "stateMutability": "nonpayable",
      "type": "function"
    },
    {
      "constant": false,
      "inputs": [
        {
          "internalType": "address",
          "name": "_masterAddress",
          "type": "address"
        }
      ],
      "name": "changeMasterAddress",
      "outputs": [],
      "payable": false,
      "stateMutability": "nonpayable",
      "type": "function"
    },
    {
      "constant": false,
      "inputs": [
        {
          "internalType": "uint256",
          "name": "_val",
          "type": "uint256"
        }
      ],
      "name": "changeMaxABCount",
      "outputs": [],
      "payable": false,
      "stateMutability": "nonpayable",
      "type": "function"
    },
    {
      "constant": true,
      "inputs": [
        {
          "internalType": "address",
          "name": "_memberAddress",
          "type": "address"
        },
        {
          "internalType": "uint256",
          "name": "_roleId",
          "type": "uint256"
        }
      ],
      "name": "checkRole",
      "outputs": [
        {
          "internalType": "bool",
          "name": "",
          "type": "bool"
        }
      ],
      "payable": false,
      "stateMutability": "view",
      "type": "function"
    },
    {
      "constant": true,
      "inputs": [],
      "name": "dAppToken",
      "outputs": [
        {
          "internalType": "contract TokenController",
          "name": "",
          "type": "address"
        }
      ],
      "payable": false,
      "stateMutability": "view",
      "type": "function"
    },
    {
      "constant": true,
      "inputs": [],
      "name": "getMemberLengthForAllRoles",
      "outputs": [
        {
          "internalType": "uint256[]",
          "name": "totalMembers",
          "type": "uint256[]"
        }
      ],
      "payable": false,
      "stateMutability": "view",
      "type": "function"
    },
    {
      "constant": true,
      "inputs": [
        {
          "internalType": "address",
          "name": "_toCheck",
          "type": "address"
        }
      ],
      "name": "isAuthorizedToGovern",
      "outputs": [
        {
          "internalType": "bool",
          "name": "",
          "type": "bool"
        }
      ],
      "payable": false,
      "stateMutability": "view",
      "type": "function"
    },
    {
      "constant": false,
      "inputs": [
        {
          "internalType": "address payable",
          "name": "_userAddress",
          "type": "address"
        },
        {
          "internalType": "bool",
          "name": "verdict",
          "type": "bool"
        }
      ],
      "name": "kycVerdict",
      "outputs": [],
      "payable": false,
      "stateMutability": "nonpayable",
      "type": "function"
    },
    {
      "constant": true,
      "inputs": [],
      "name": "launched",
      "outputs": [
        {
          "internalType": "bool",
          "name": "",
          "type": "bool"
        }
      ],
      "payable": false,
      "stateMutability": "view",
      "type": "function"
    },
    {
      "constant": true,
      "inputs": [],
      "name": "launchedOn",
      "outputs": [
        {
          "internalType": "uint256",
          "name": "",
          "type": "uint256"
        }
      ],
      "payable": false,
      "stateMutability": "view",
      "type": "function"
    },
    {
      "constant": true,
      "inputs": [],
      "name": "masterAddress",
      "outputs": [
        {
          "internalType": "address",
          "name": "",
          "type": "address"
        }
      ],
      "payable": false,
      "stateMutability": "view",
      "type": "function"
    },
    {
      "constant": true,
      "inputs": [],
      "name": "maxABCount",
      "outputs": [
        {
          "internalType": "uint256",
          "name": "",
          "type": "uint256"
        }
      ],
      "payable": false,
      "stateMutability": "view",
      "type": "function"
    },
    {
      "constant": true,
      "inputs": [
        {
          "internalType": "uint256",
          "name": "_memberRoleId",
          "type": "uint256"
        },
        {
          "internalType": "uint256",
          "name": "index",
          "type": "uint256"
        }
      ],
      "name": "memberAtIndex",
      "outputs": [
        {
          "internalType": "address",
          "name": "",
          "type": "address"
        },
        {
          "internalType": "bool",
          "name": "",
          "type": "bool"
        }
      ],
      "payable": false,
      "stateMutability": "view",
      "type": "function"
    },
    {
      "constant": false,
      "inputs": [
        {
          "internalType": "address",
          "name": "_firstAB",
          "type": "address"
        },
        {
          "internalType": "address",
          "name": "memberAuthority",
          "type": "address"
        }
      ],
      "name": "memberRolesInitiate",
      "outputs": [],
      "payable": false,
      "stateMutability": "nonpayable",
      "type": "function"
    },
    {
      "constant": true,
      "inputs": [
        {
          "internalType": "uint256",
          "name": "_memberRoleId",
          "type": "uint256"
        }
      ],
      "name": "members",
      "outputs": [
        {
          "internalType": "uint256",
          "name": "",
          "type": "uint256"
        },
        {
          "internalType": "address[]",
          "name": "memberArray",
          "type": "address[]"
        }
      ],
      "payable": false,
      "stateMutability": "view",
      "type": "function"
    },
    {
      "constant": true,
      "inputs": [
        {
          "internalType": "uint256",
          "name": "_memberRoleId",
          "type": "uint256"
        }
      ],
      "name": "membersLength",
      "outputs": [
        {
          "internalType": "uint256",
          "name": "",
          "type": "uint256"
        }
      ],
      "payable": false,
      "stateMutability": "view",
      "type": "function"
    },
    {
      "constant": true,
      "inputs": [],
      "name": "ms",
      "outputs": [
        {
          "internalType": "contract INXMMaster",
          "name": "",
          "type": "address"
        }
      ],
      "payable": false,
      "stateMutability": "view",
      "type": "function"
    },
    {
      "constant": true,
      "inputs": [
        {
          "internalType": "uint256",
          "name": "_memberRoleId",
          "type": "uint256"
        }
      ],
      "name": "numberOfMembers",
      "outputs": [
        {
          "internalType": "uint256",
          "name": "",
          "type": "uint256"
        }
      ],
      "payable": false,
      "stateMutability": "view",
      "type": "function"
    },
    {
      "constant": true,
      "inputs": [],
      "name": "nxMasterAddress",
      "outputs": [
        {
          "internalType": "address",
          "name": "",
          "type": "address"
        }
      ],
      "payable": false,
      "stateMutability": "view",
      "type": "function"
    },
    {
      "constant": false,
      "inputs": [
        {
          "internalType": "address",
          "name": "_userAddress",
          "type": "address"
        }
      ],
      "name": "payJoiningFee",
      "outputs": [],
      "payable": true,
      "stateMutability": "payable",
      "type": "function"
    },
    {
      "constant": true,
      "inputs": [
        {
          "internalType": "address",
          "name": "_memberAddress",
          "type": "address"
        }
      ],
      "name": "roles",
      "outputs": [
        {
          "internalType": "uint256[]",
          "name": "",
          "type": "uint256[]"
        }
      ],
      "payable": false,
      "stateMutability": "view",
      "type": "function"
    },
    {
      "constant": false,
      "inputs": [
        {
          "internalType": "address",
          "name": "_newABAddress",
          "type": "address"
        },
        {
          "internalType": "address",
          "name": "_removeAB",
          "type": "address"
        }
      ],
      "name": "swapABMember",
      "outputs": [],
      "payable": false,
      "stateMutability": "nonpayable",
      "type": "function"
    },
    {
      "constant": false,
      "inputs": [
        {
          "internalType": "address",
          "name": "_newOwnerAddress",
          "type": "address"
        }
      ],
      "name": "swapOwner",
      "outputs": [],
      "payable": false,
      "stateMutability": "nonpayable",
      "type": "function"
    },
    {
      "constant": false,
      "inputs": [
        {
          "internalType": "address",
          "name": "_add",
          "type": "address"
        }
      ],
      "name": "switchMembership",
      "outputs": [],
      "payable": false,
      "stateMutability": "nonpayable",
      "type": "function"
    },
    {
      "constant": true,
      "inputs": [],
      "name": "tk",
      "outputs": [
        {
          "internalType": "contract NXMToken",
          "name": "",
          "type": "address"
        }
      ],
      "payable": false,
      "stateMutability": "view",
      "type": "function"
    },
    {
      "constant": true,
      "inputs": [],
      "name": "totalRoles",
      "outputs": [
        {
          "internalType": "uint256",
          "name": "",
          "type": "uint256"
        }
      ],
      "payable": false,
      "stateMutability": "view",
      "type": "function"
    },
    {
      "constant": false,
      "inputs": [
        {
          "internalType": "address",
          "name": "_memberAddress",
          "type": "address"
        },
        {
          "internalType": "uint256",
          "name": "_roleId",
          "type": "uint256"
        },
        {
          "internalType": "bool",
          "name": "_active",
          "type": "bool"
        }
      ],
      "name": "updateRole",
      "outputs": [],
      "payable": false,
      "stateMutability": "nonpayable",
      "type": "function"
    },
    {
      "constant": false,
      "inputs": [],
      "name": "withdrawMembership",
      "outputs": [],
      "payable": false,
      "stateMutability": "nonpayable",
      "type": "function"
    }
  ],
  "bytecode": "0x608060405234801561001057600080fd5b50615d9980620000216000396000f3fe6080604052600436106101ee5760003560e01c8063790e118c1161010d578063ae393df9116100a0578063d46655f41161006f578063d46655f414610d6f578063d8b2114e14610dc0578063df05eef514610e1d578063eaf2c47714610e48578063f17a3bec14610e9f576101ee565b8063ae393df914610c00578063b53e467914610c17578063c578f23014610ca7578063d365a08e14610d18576101ee565b806390a79368116100dc57806390a7936814610a575780639937464214610aa8578063a0b2d57f14610b4e578063aa561f9d14610ba5576101ee565b8063790e118c146109735780638091f3bf1461099e5780638bed69eb146109cd5780638f8c009414610a1c576101ee565b80632f473021116101855780635daf08ca116101545780635daf08ca14610691578063648edd9c146107285780636d1c31d2146107ae5780636eb4b91f1461081a576101ee565b80632f4730211461053b57806337f15a58146105a25780634ed75d47146105cd578063505ef22f1461061e576101ee565b80631b5c6ded116101c15780631b5c6ded1461031857806321f408be1461038957806322ce7254146103e05780632dc4bdca14610449576101ee565b80630d48669a146101f35780630dc6f8471461026e5780630ea9c984146102bd5780630ead3e72146102d4575b600080fd5b3480156101ff57600080fd5b5061022c6004803603602081101561021657600080fd5b8101908080359060200190929190505050610ef6565b604051808273ffffffffffffffffffffffffffffffffffffffff1673ffffffffffffffffffffffffffffffffffffffff16815260200191505060405180910390f35b34801561027a57600080fd5b506102a76004803603602081101561029157600080fd5b8101908080359060200190929190505050610f3e565b6040518082815260200191505060405180910390f35b3480156102c957600080fd5b506102d2610f66565b005b610316600480360360208110156102ea57600080fd5b81019080803573ffffffffffffffffffffffffffffffffffffffff16906020019092919050505061169f565b005b34801561032457600080fd5b506103876004803603604081101561033b57600080fd5b81019080803573ffffffffffffffffffffffffffffffffffffffff169060200190929190803573ffffffffffffffffffffffffffffffffffffffff169060200190929190505050611f34565b005b34801561039557600080fd5b5061039e611f77565b604051808273ffffffffffffffffffffffffffffffffffffffff1673ffffffffffffffffffffffffffffffffffffffff16815260200191505060405180910390f35b3480156103ec57600080fd5b5061042f6004803603602081101561040357600080fd5b81019080803573ffffffffffffffffffffffffffffffffffffffff169060200190929190505050611f9d565b604051808215151515815260200191505060405180910390f35b34801561045557600080fd5b506105396004803603606081101561046c57600080fd5b81019080803590602001909291908035906020019064010000000081111561049357600080fd5b8201836020820111156104a557600080fd5b803590602001918460018302840111640100000000831117156104c757600080fd5b91908080601f016020809104026020016040519081016040528093929190818152602001838380828437600081840152601f19601f820116905080830192505050505050509192919290803573ffffffffffffffffffffffffffffffffffffffff1690602001909291905050506120a6565b005b34801561054757600080fd5b506105a06004803603606081101561055e57600080fd5b81019080803573ffffffffffffffffffffffffffffffffffffffff16906020019092919080359060200190929190803515159060200190929190505050612229565b005b3480156105ae57600080fd5b506105b76123a4565b6040518082815260200191505060405180910390f35b3480156105d957600080fd5b5061061c600480360360208110156105f057600080fd5b81019080803573ffffffffffffffffffffffffffffffffffffffff1690602001909291905050506123aa565b005b34801561062a57600080fd5b506106776004803603604081101561064157600080fd5b81019080803573ffffffffffffffffffffffffffffffffffffffff16906020019092919080359060200190929190505050612ee3565b604051808215151515815260200191505060405180910390f35b34801561069d57600080fd5b506106ca600480360360208110156106b457600080fd5b8101908080359060200190929190505050612f83565b6040518083815260200180602001828103825283818151815260200191508051906020019060200280838360005b838110156107135780820151818401526020810190506106f8565b50505050905001935050505060405180910390f35b34801561073457600080fd5b506107ac6004803603602081101561074b57600080fd5b810190808035906020019064010000000081111561076857600080fd5b82018360208201111561077a57600080fd5b8035906020019184602083028401116401000000008311171561079c57600080fd5b9091929391929390505050613156565b005b3480156107ba57600080fd5b506107c36133be565b6040518080602001828103825283818151815260200191508051906020019060200280838360005b838110156108065780820151818401526020810190506107eb565b505050509050019250505060405180910390f35b34801561082657600080fd5b506109716004803603604081101561083d57600080fd5b810190808035906020019064010000000081111561085a57600080fd5b82018360208201111561086c57600080fd5b8035906020019184602083028401116401000000008311171561088e57600080fd5b919080806020026020016040519081016040528093929190818152602001838360200280828437600081840152601f19601f820116905080830192505050505050509192919290803590602001906401000000008111156108ee57600080fd5b82018360208201111561090057600080fd5b8035906020019184602083028401116401000000008311171561092257600080fd5b919080806020026020016040519081016040528093929190818152602001838360200280828437600081840152601f19601f82011690508083019250505050505050919291929050505061343c565b005b34801561097f57600080fd5b50610988613851565b6040518082815260200191505060405180910390f35b3480156109aa57600080fd5b506109b361385e565b604051808215151515815260200191505060405180910390f35b3480156109d957600080fd5b50610a06600480360360208110156109f057600080fd5b8101908080359060200190929190505050613871565b6040518082815260200191505060405180910390f35b348015610a2857600080fd5b50610a5560048036036020811015610a3f57600080fd5b810190808035906020019092919050505061389c565b005b348015610a6357600080fd5b50610aa660048036036020811015610a7a57600080fd5b81019080803573ffffffffffffffffffffffffffffffffffffffff169060200190929190505050613989565b005b348015610ab457600080fd5b50610af760048036036020811015610acb57600080fd5b81019080803573ffffffffffffffffffffffffffffffffffffffff169060200190929190505050613ab6565b6040518080602001828103825283818151815260200191508051906020019060200280838360005b83811015610b3a578082015181840152602081019050610b1f565b505050509050019250505060405180910390f35b348015610b5a57600080fd5b50610b63613bb3565b604051808273ffffffffffffffffffffffffffffffffffffffff1673ffffffffffffffffffffffffffffffffffffffff16815260200191505060405180910390f35b348015610bb157600080fd5b50610bfe60048036036040811015610bc857600080fd5b8101908080359060200190929190803573ffffffffffffffffffffffffffffffffffffffff169060200190929190505050613bd9565b005b348015610c0c57600080fd5b50610c15613da5565b005b348015610c2357600080fd5b50610c5a60048036036040811015610c3a57600080fd5b810190808035906020019092919080359060200190929190505050614690565b604051808373ffffffffffffffffffffffffffffffffffffffff1673ffffffffffffffffffffffffffffffffffffffff168152602001821515151581526020019250505060405180910390f35b348015610cb357600080fd5b50610d1660048036036040811015610cca57600080fd5b81019080803573ffffffffffffffffffffffffffffffffffffffff169060200190929190803573ffffffffffffffffffffffffffffffffffffffff169060200190929190505050614761565b005b348015610d2457600080fd5b50610d2d61490c565b604051808273ffffffffffffffffffffffffffffffffffffffff1673ffffffffffffffffffffffffffffffffffffffff16815260200191505060405180910390f35b348015610d7b57600080fd5b50610dbe60048036036020811015610d9257600080fd5b81019080803573ffffffffffffffffffffffffffffffffffffffff169060200190929190505050614931565b005b348015610dcc57600080fd5b50610e1b60048036036040811015610de357600080fd5b81019080803573ffffffffffffffffffffffffffffffffffffffff169060200190929190803515159060200190929190505050614aa5565b005b348015610e2957600080fd5b50610e32615314565b6040518082815260200191505060405180910390f35b348015610e5457600080fd5b50610e5d61531a565b604051808273ffffffffffffffffffffffffffffffffffffffff1673ffffffffffffffffffffffffffffffffffffffff16815260200191505060405180910390f35b348015610eab57600080fd5b50610eb4615340565b604051808273ffffffffffffffffffffffffffffffffffffffff1673ffffffffffffffffffffffffffffffffffffffff16815260200191505060405180910390f35b6000600a8281548110610f0557fe5b906000526020600020906004020160030160009054906101000a900473ffffffffffffffffffffffffffffffffffffffff169050919050565b6000600a8281548110610f4d57fe5b9060005260206000209060040201600001549050919050565b600160009054906101000a900473ffffffffffffffffffffffffffffffffffffffff1673ffffffffffffffffffffffffffffffffffffffff1663013828586040518163ffffffff1660e01b815260040180807f5444000000000000000000000000000000000000000000000000000000000000815250602001905060206040518083038186803b158015610ff957600080fd5b505afa15801561100d573d6000803e3d6000fd5b505050506040513d602081101561102357600080fd5b8101908080519060200190929190505050600460006101000a81548173ffffffffffffffffffffffffffffffffffffffff021916908373ffffffffffffffffffffffffffffffffffffffff160217905550600160009054906101000a900473ffffffffffffffffffffffffffffffffffffffff1673ffffffffffffffffffffffffffffffffffffffff1663013828586040518163ffffffff1660e01b815260040180807f4352000000000000000000000000000000000000000000000000000000000000815250602001905060206040518083038186803b15801561110757600080fd5b505afa15801561111b573d6000803e3d6000fd5b505050506040513d602081101561113157600080fd5b8101908080519060200190929190505050600660006101000a81548173ffffffffffffffffffffffffffffffffffffffff021916908373ffffffffffffffffffffffffffffffffffffffff160217905550600160009054906101000a900473ffffffffffffffffffffffffffffffffffffffff1673ffffffffffffffffffffffffffffffffffffffff1663013828586040518163ffffffff1660e01b815260040180807f5144000000000000000000000000000000000000000000000000000000000000815250602001905060206040518083038186803b15801561121557600080fd5b505afa158015611229573d6000803e3d6000fd5b505050506040513d602081101561123f57600080fd5b8101908080519060200190929190505050600560006101000a81548173ffffffffffffffffffffffffffffffffffffffff021916908373ffffffffffffffffffffffffffffffffffffffff160217905550600160009054906101000a900473ffffffffffffffffffffffffffffffffffffffff1673ffffffffffffffffffffffffffffffffffffffff1663013828586040518163ffffffff1660e01b815260040180807f4756000000000000000000000000000000000000000000000000000000000000815250602001905060206040518083038186803b15801561132357600080fd5b505afa158015611337573d6000803e3d6000fd5b505050506040513d602081101561134d57600080fd5b8101908080519060200190929190505050600760006101000a81548173ffffffffffffffffffffffffffffffffffffffff021916908373ffffffffffffffffffffffffffffffffffffffff160217905550600160009054906101000a900473ffffffffffffffffffffffffffffffffffffffff1673ffffffffffffffffffffffffffffffffffffffff1663013828586040518163ffffffff1660e01b815260040180807f5446000000000000000000000000000000000000000000000000000000000000815250602001905060206040518083038186803b15801561143157600080fd5b505afa158015611445573d6000803e3d6000fd5b505050506040513d602081101561145b57600080fd5b8101908080519060200190929190505050600860006101000a81548173ffffffffffffffffffffffffffffffffffffffff021916908373ffffffffffffffffffffffffffffffffffffffff160217905550600160009054906101000a900473ffffffffffffffffffffffffffffffffffffffff1673ffffffffffffffffffffffffffffffffffffffff16639d76ea586040518163ffffffff1660e01b815260040160206040518083038186803b15801561151457600080fd5b505afa158015611528573d6000803e3d6000fd5b505050506040513d602081101561153e57600080fd5b8101908080519060200190929190505050600960006101000a81548173ffffffffffffffffffffffffffffffffffffffff021916908373ffffffffffffffffffffffffffffffffffffffff160217905550600160009054906101000a900473ffffffffffffffffffffffffffffffffffffffff1673ffffffffffffffffffffffffffffffffffffffff1663013828586040518163ffffffff1660e01b815260040180807f5443000000000000000000000000000000000000000000000000000000000000815250602001905060206040518083038186803b15801561162257600080fd5b505afa158015611636573d6000803e3d6000fd5b505050506040513d602081101561164c57600080fd5b8101908080519060200190929190505050600360006101000a81548173ffffffffffffffffffffffffffffffffffffffff021916908373ffffffffffffffffffffffffffffffffffffffff160217905550565b600073ffffffffffffffffffffffffffffffffffffffff168173ffffffffffffffffffffffffffffffffffffffff1614156116d957600080fd5b600160009054906101000a900473ffffffffffffffffffffffffffffffffffffffff1673ffffffffffffffffffffffffffffffffffffffff1663ff0938a76040518163ffffffff1660e01b815260040160206040518083038186803b15801561174157600080fd5b505afa158015611755573d6000803e3d6000fd5b505050506040513d602081101561176b57600080fd5b8101908080519060200190929190505050156117ef576040517f08c379a00000000000000000000000000000000000000000000000000000000081526004018080602001828103825260178152602001807f456d657267656e6379205061757365204170706c69656400000000000000000081525060200191505060405180910390fd5b600160009054906101000a900473ffffffffffffffffffffffffffffffffffffffff1673ffffffffffffffffffffffffffffffffffffffff1663013828586040518163ffffffff1660e01b815260040180807f5154000000000000000000000000000000000000000000000000000000000000815250602001905060206040518083038186803b15801561188257600080fd5b505afa158015611896573d6000803e3d6000fd5b505050506040513d60208110156118ac57600080fd5b810190808051906020019092919050505073ffffffffffffffffffffffffffffffffffffffff163373ffffffffffffffffffffffffffffffffffffffff161415611bf457600073ffffffffffffffffffffffffffffffffffffffff16600460009054906101000a900473ffffffffffffffffffffffffffffffffffffffff1673ffffffffffffffffffffffffffffffffffffffff16636ad5b3ea6040518163ffffffff1660e01b815260040160206040518083038186803b15801561197057600080fd5b505afa158015611984573d6000803e3d6000fd5b505050506040513d602081101561199a57600080fd5b810190808051906020019092919050505073ffffffffffffffffffffffffffffffffffffffff161415611a35576040517f08c379a00000000000000000000000000000000000000000000000000000000081526004018080602001828103825260188152602001807f4e6f2077616c6c6574416464726573732070726573656e74000000000000000081525060200191505060405180910390fd5b600360009054906101000a900473ffffffffffffffffffffffffffffffffffffffff1673ffffffffffffffffffffffffffffffffffffffff1663e43252d7826040518263ffffffff1660e01b8152600401808273ffffffffffffffffffffffffffffffffffffffff1673ffffffffffffffffffffffffffffffffffffffff168152602001915050600060405180830381600087803b158015611ad657600080fd5b505af1158015611aea573d6000803e3d6000fd5b50505050611b068160026003811115611aff57fe5b6001615366565b600460009054906101000a900473ffffffffffffffffffffffffffffffffffffffff1673ffffffffffffffffffffffffffffffffffffffff16636ad5b3ea6040518163ffffffff1660e01b815260040160206040518083038186803b158015611b6e57600080fd5b505afa158015611b82573d6000803e3d6000fd5b505050506040513d6020811015611b9857600080fd5b810190808051906020019092919050505073ffffffffffffffffffffffffffffffffffffffff166108fc349081150290604051600060405180830381858888f19350505050158015611bee573d6000803e3d6000fd5b50611f31565b600560009054906101000a900473ffffffffffffffffffffffffffffffffffffffff1673ffffffffffffffffffffffffffffffffffffffff1663de75b5ea826040518263ffffffff1660e01b8152600401808273ffffffffffffffffffffffffffffffffffffffff1673ffffffffffffffffffffffffffffffffffffffff16815260200191505060206040518083038186803b158015611c9357600080fd5b505afa158015611ca7573d6000803e3d6000fd5b505050506040513d6020811015611cbd57600080fd5b810190808051906020019092919050505015611cd857600080fd5b600160009054906101000a900473ffffffffffffffffffffffffffffffffffffffff1673ffffffffffffffffffffffffffffffffffffffff1663a230c524826040518263ffffffff1660e01b8152600401808273ffffffffffffffffffffffffffffffffffffffff1673ffffffffffffffffffffffffffffffffffffffff16815260200191505060206040518083038186803b158015611d7757600080fd5b505afa158015611d8b573d6000803e3d6000fd5b505050506040513d6020811015611da157600080fd5b810190808051906020019092919050505015611dbc57600080fd5b600460009054906101000a900473ffffffffffffffffffffffffffffffffffffffff1673ffffffffffffffffffffffffffffffffffffffff16636eeeaaa56040518163ffffffff1660e01b815260040160206040518083038186803b158015611e2457600080fd5b505afa158015611e38573d6000803e3d6000fd5b505050506040513d6020811015611e4e57600080fd5b81019080805190602001909291905050503414611e6a57600080fd5b600560009054906101000a900473ffffffffffffffffffffffffffffffffffffffff1673ffffffffffffffffffffffffffffffffffffffff1663f63a87d48260016040518363ffffffff1660e01b8152600401808373ffffffffffffffffffffffffffffffffffffffff1673ffffffffffffffffffffffffffffffffffffffff1681526020018215151515815260200192505050600060405180830381600087803b158015611f1857600080fd5b505af1158015611f2c573d6000803e3d6000fd5b505050505b50565b600b60009054906101000a900460ff1615611f4e57600080fd5b611f588282615653565b6001600b60006101000a81548160ff0219169083151502179055505050565b600960009054906101000a900473ffffffffffffffffffffffffffffffffffffffff1681565b6000806000809054906101000a900473ffffffffffffffffffffffffffffffffffffffff1690508273ffffffffffffffffffffffffffffffffffffffff168173ffffffffffffffffffffffffffffffffffffffff1663013828586040518163ffffffff1660e01b815260040180807f4756000000000000000000000000000000000000000000000000000000000000815250602001905060206040518083038186803b15801561204c57600080fd5b505afa158015612060573d6000803e3d6000fd5b505050506040513d602081101561207657600080fd5b810190808051906020019092919050505073ffffffffffffffffffffffffffffffffffffffff1614915050919050565b60008060009054906101000a900473ffffffffffffffffffffffffffffffffffffffff1690503373ffffffffffffffffffffffffffffffffffffffff168173ffffffffffffffffffffffffffffffffffffffff1663013828586040518163ffffffff1660e01b815260040180807f4756000000000000000000000000000000000000000000000000000000000000815250602001905060206040518083038186803b15801561215457600080fd5b505afa158015612168573d6000803e3d6000fd5b505050506040513d602081101561217e57600080fd5b810190808051906020019092919050505073ffffffffffffffffffffffffffffffffffffffff1614612218576040517f08c379a000000000000000000000000000000000000000000000000000000000815260040180806020018281038252600e8152602001807f4e6f7420617574686f72697a656400000000000000000000000000000000000081525060200191505060405180910390fd5b6122238484846157e5565b50505050565b81600073ffffffffffffffffffffffffffffffffffffffff16600a828154811061224f57fe5b906000526020600020906004020160030160009054906101000a900473ffffffffffffffffffffffffffffffffffffffff1673ffffffffffffffffffffffffffffffffffffffff161461231757600a81815481106122a957fe5b906000526020600020906004020160030160009054906101000a900473ffffffffffffffffffffffffffffffffffffffff1673ffffffffffffffffffffffffffffffffffffffff163373ffffffffffffffffffffffffffffffffffffffff161461231257600080fd5b612393565b61232033611f9d565b612392576040517f08c379a000000000000000000000000000000000000000000000000000000000815260040180806020018281038252600e8152602001807f4e6f7420417574686f72697a656400000000000000000000000000000000000081525060200191505060405180910390fd5b5b61239e848484615366565b50505050565b600c5481565b600160009054906101000a900473ffffffffffffffffffffffffffffffffffffffff1673ffffffffffffffffffffffffffffffffffffffff1663ff0938a76040518163ffffffff1660e01b815260040160206040518083038186803b15801561241257600080fd5b505afa158015612426573d6000803e3d6000fd5b505050506040513d602081101561243c57600080fd5b81019080805190602001909291905050501580156125305750600160009054906101000a900473ffffffffffffffffffffffffffffffffffffffff1673ffffffffffffffffffffffffffffffffffffffff1663a230c524336040518263ffffffff1660e01b8152600401808273ffffffffffffffffffffffffffffffffffffffff1673ffffffffffffffffffffffffffffffffffffffff16815260200191505060206040518083038186803b1580156124f457600080fd5b505afa158015612508573d6000803e3d6000fd5b505050506040513d602081101561251e57600080fd5b81019080805190602001909291905050505b80156126135750600160009054906101000a900473ffffffffffffffffffffffffffffffffffffffff1673ffffffffffffffffffffffffffffffffffffffff1663a230c524826040518263ffffffff1660e01b8152600401808273ffffffffffffffffffffffffffffffffffffffff1673ffffffffffffffffffffffffffffffffffffffff16815260200191505060206040518083038186803b1580156125d657600080fd5b505afa1580156125ea573d6000803e3d6000fd5b505050506040513d602081101561260057600080fd5b8101908080519060200190929190505050155b61261c57600080fd5b6000600360009054906101000a900473ffffffffffffffffffffffffffffffffffffffff1673ffffffffffffffffffffffffffffffffffffffff166339081b9233426040518363ffffffff1660e01b8152600401808373ffffffffffffffffffffffffffffffffffffffff1673ffffffffffffffffffffffffffffffffffffffff1681526020018281526020019250505060206040518083038186803b1580156126c557600080fd5b505afa1580156126d9573d6000803e3d6000fd5b505050506040513d60208110156126ef57600080fd5b81019080805190602001909291905050501461270a57600080fd5b600860009054906101000a900473ffffffffffffffffffffffffffffffffffffffff1673ffffffffffffffffffffffffffffffffffffffff1663ac5adaf6336040518263ffffffff1660e01b8152600401808273ffffffffffffffffffffffffffffffffffffffff1673ffffffffffffffffffffffffffffffffffffffff16815260200191505060206040518083038186803b1580156127a957600080fd5b505afa1580156127bd573d6000803e3d6000fd5b505050506040513d60208110156127d357600080fd5b8101908080519060200190929190505050156127ee57600080fd5b6000600660009054906101000a900473ffffffffffffffffffffffffffffffffffffffff1673ffffffffffffffffffffffffffffffffffffffff166335afb14e336040518263ffffffff1660e01b8152600401808273ffffffffffffffffffffffffffffffffffffffff1673ffffffffffffffffffffffffffffffffffffffff16815260200191505060206040518083038186803b15801561288f57600080fd5b505afa1580156128a3573d6000803e3d6000fd5b505050506040513d60208110156128b957600080fd5b8101908080519060200190929190505050146128d457600080fd5b6000600360009054906101000a900473ffffffffffffffffffffffffffffffffffffffff1673ffffffffffffffffffffffffffffffffffffffff16635294d0e8336040518263ffffffff1660e01b8152600401808273ffffffffffffffffffffffffffffffffffffffff1673ffffffffffffffffffffffffffffffffffffffff168152602001807f434c41000000000000000000000000000000000000000000000000000000000081525060200191505060206040518083038186803b15801561299d57600080fd5b505afa1580156129b1573d6000803e3d6000fd5b505050506040513d60208110156129c757600080fd5b810190808051906020019092919050505014612a2e576040517f08c379a000000000000000000000000000000000000000000000000000000000815260040180806020018281038252602b815260200180615d3a602b913960400191505060405180910390fd5b600760009054906101000a900473ffffffffffffffffffffffffffffffffffffffff1673ffffffffffffffffffffffffffffffffffffffff1663f0466c73336040518263ffffffff1660e01b8152600401808273ffffffffffffffffffffffffffffffffffffffff1673ffffffffffffffffffffffffffffffffffffffff168152602001915050600060405180830381600087803b158015612acf57600080fd5b505af1158015612ae3573d6000803e3d6000fd5b50505050600360009054906101000a900473ffffffffffffffffffffffffffffffffffffffff1673ffffffffffffffffffffffffffffffffffffffff1663e43252d7826040518263ffffffff1660e01b8152600401808273ffffffffffffffffffffffffffffffffffffffff1673ffffffffffffffffffffffffffffffffffffffff168152602001915050600060405180830381600087803b158015612b8857600080fd5b505af1158015612b9c573d6000803e3d6000fd5b50505050612bb88160026003811115612bb157fe5b6001615366565b600960009054906101000a900473ffffffffffffffffffffffffffffffffffffffff1673ffffffffffffffffffffffffffffffffffffffff166323b872dd3383600960009054906101000a900473ffffffffffffffffffffffffffffffffffffffff1673ffffffffffffffffffffffffffffffffffffffff166370a08231336040518263ffffffff1660e01b8152600401808273ffffffffffffffffffffffffffffffffffffffff1673ffffffffffffffffffffffffffffffffffffffff16815260200191505060206040518083038186803b158015612c9757600080fd5b505afa158015612cab573d6000803e3d6000fd5b505050506040513d6020811015612cc157600080fd5b81019080805190602001909291905050506040518463ffffffff1660e01b8152600401808473ffffffffffffffffffffffffffffffffffffffff1673ffffffffffffffffffffffffffffffffffffffff1681526020018373ffffffffffffffffffffffffffffffffffffffff1673ffffffffffffffffffffffffffffffffffffffff1681526020018281526020019350505050602060405180830381600087803b158015612d6e57600080fd5b505af1158015612d82573d6000803e3d6000fd5b505050506040513d6020811015612d9857600080fd5b810190808051906020019092919050505050612dc23360026003811115612dbb57fe5b6000615366565b600360009054906101000a900473ffffffffffffffffffffffffffffffffffffffff1673ffffffffffffffffffffffffffffffffffffffff16638ab1d681336040518263ffffffff1660e01b8152600401808273ffffffffffffffffffffffffffffffffffffffff1673ffffffffffffffffffffffffffffffffffffffff168152602001915050600060405180830381600087803b158015612e6357600080fd5b505af1158015612e77573d6000803e3d6000fd5b505050508073ffffffffffffffffffffffffffffffffffffffff163373ffffffffffffffffffffffffffffffffffffffff167f192a4c3625bef7938e23abe9b048e44af0928d8ea055694936e5269479ae2ca1426040518082815260200191505060405180910390a350565b6000806003811115612ef157fe5b821415612f015760019050612f7d565b600a8281548110612f0e57fe5b906000526020600020906004020160010160008473ffffffffffffffffffffffffffffffffffffffff1673ffffffffffffffffffffffffffffffffffffffff16815260200190815260200160002060009054906101000a900460ff1615612f785760019050612f7d565b600090505b92915050565b600060606000600a8481548110612f9657fe5b906000526020600020906004020160020180549050905060008060009050600a8681548110612fc157fe5b9060005260206000209060040201600001546040519080825280602002602001820160405280156130015781602001602082028038833980820191505090505b509350600091505b82821015613148576000600a878154811061302057fe5b9060005260206000209060040201600201838154811061303c57fe5b9060005260206000200160009054906101000a900473ffffffffffffffffffffffffffffffffffffffff169050600a878154811061307657fe5b906000526020600020906004020160010160008273ffffffffffffffffffffffffffffffffffffffff1673ffffffffffffffffffffffffffffffffffffffff16815260200190815260200160002060009054906101000a900460ff1680156130e557506130e38186615994565b155b1561313a57808583815181106130f757fe5b602002602001019073ffffffffffffffffffffffffffffffffffffffff16908173ffffffffffffffffffffffffffffffffffffffff168152505081806001019250505b508180600101925050613009565b858494509450505050915091565b600160009054906101000a900473ffffffffffffffffffffffffffffffffffffffff1673ffffffffffffffffffffffffffffffffffffffff16632f54bf6e336040518263ffffffff1660e01b8152600401808273ffffffffffffffffffffffffffffffffffffffff1673ffffffffffffffffffffffffffffffffffffffff16815260200191505060206040518083038186803b1580156131f557600080fd5b505afa158015613209573d6000803e3d6000fd5b505050506040513d602081101561321f57600080fd5b810190808051906020019092919050505061323957600080fd5b600160009054906101000a900473ffffffffffffffffffffffffffffffffffffffff1673ffffffffffffffffffffffffffffffffffffffff1663c15041d56040518163ffffffff1660e01b815260040160206040518083038186803b1580156132a157600080fd5b505afa1580156132b5573d6000803e3d6000fd5b505050506040513d60208110156132cb57600080fd5b81019080805190602001909291905050506132e557600080fd5b6133066132fd600160038111156132f857fe5b610f3e565b83839050615a09565b600c54101561331457600080fd5b60008090505b828290508110156133b95761336383838381811061333457fe5b9050602002013573ffffffffffffffffffffffffffffffffffffffff166002600381111561335e57fe5b612ee3565b61336c57600080fd5b6133ac83838381811061337b57fe5b9050602002013573ffffffffffffffffffffffffffffffffffffffff16600160038111156133a557fe5b6001615366565b808060010191505061331a565b505050565b6060600a805490506040519080825280602002602001820160405280156133f45781602001602082028038833980820191505090505b50905060008090505b600a805490508110156134385761341381610f3e565b82828151811061341f57fe5b60200260200101818152505080806001019150506133fd565b5090565b600160009054906101000a900473ffffffffffffffffffffffffffffffffffffffff1673ffffffffffffffffffffffffffffffffffffffff16632f54bf6e336040518263ffffffff1660e01b8152600401808273ffffffffffffffffffffffffffffffffffffffff1673ffffffffffffffffffffffffffffffffffffffff16815260200191505060206040518083038186803b1580156134db57600080fd5b505afa1580156134ef573d6000803e3d6000fd5b505050506040513d602081101561350557600080fd5b810190808051906020019092919050505061351f57600080fd5b600d60009054906101000a900460ff161561353957600080fd5b60008090505b825181101561382a57600160009054906101000a900473ffffffffffffffffffffffffffffffffffffffff1673ffffffffffffffffffffffffffffffffffffffff1663a230c52484838151811061359257fe5b60200260200101516040518263ffffffff1660e01b8152600401808273ffffffffffffffffffffffffffffffffffffffff1673ffffffffffffffffffffffffffffffffffffffff16815260200191505060206040518083038186803b1580156135fa57600080fd5b505afa15801561360e573d6000803e3d6000fd5b505050506040513d602081101561362457600080fd5b81019080805190602001909291905050501561363f57600080fd5b600360009054906101000a900473ffffffffffffffffffffffffffffffffffffffff1673ffffffffffffffffffffffffffffffffffffffff1663e43252d784838151811061368957fe5b60200260200101516040518263ffffffff1660e01b8152600401808273ffffffffffffffffffffffffffffffffffffffff1673ffffffffffffffffffffffffffffffffffffffff168152602001915050600060405180830381600087803b1580156136f357600080fd5b505af1158015613707573d6000803e3d6000fd5b5050505061373683828151811061371a57fe5b60200260200101516002600381111561372f57fe5b6001615366565b600360009054906101000a900473ffffffffffffffffffffffffffffffffffffffff1673ffffffffffffffffffffffffffffffffffffffff166340c10f1984838151811061378057fe5b602002602001015184848151811061379457fe5b60200260200101516040518363ffffffff1660e01b8152600401808373ffffffffffffffffffffffffffffffffffffffff1673ffffffffffffffffffffffffffffffffffffffff16815260200182815260200192505050600060405180830381600087803b15801561380557600080fd5b505af1158015613819573d6000803e3d6000fd5b50505050808060010191505061353f565b506001600d60006101000a81548160ff02191690831515021790555042600e819055505050565b6000600a80549050905090565b600d60009054906101000a900460ff1681565b6000600a828154811061388057fe5b9060005260206000209060040201600201805490509050919050565b600160009054906101000a900473ffffffffffffffffffffffffffffffffffffffff1673ffffffffffffffffffffffffffffffffffffffff16638f16c41c336040518263ffffffff1660e01b8152600401808273ffffffffffffffffffffffffffffffffffffffff1673ffffffffffffffffffffffffffffffffffffffff16815260200191505060206040518083038186803b15801561393b57600080fd5b505afa15801561394f573d6000803e3d6000fd5b505050506040513d602081101561396557600080fd5b810190808051906020019092919050505061397f57600080fd5b80600c8190555050565b600160009054906101000a900473ffffffffffffffffffffffffffffffffffffffff1673ffffffffffffffffffffffffffffffffffffffff163373ffffffffffffffffffffffffffffffffffffffff16146139e357600080fd5b613a9c600160009054906101000a900473ffffffffffffffffffffffffffffffffffffffff1673ffffffffffffffffffffffffffffffffffffffff16638da5cb5b6040518163ffffffff1660e01b815260040160206040518083038186803b158015613a4e57600080fd5b505afa158015613a62573d6000803e3d6000fd5b505050506040513d6020811015613a7857600080fd5b8101908080519060200190929190505050600380811115613a9557fe5b6000615366565b613ab381600380811115613aac57fe5b6001615366565b50565b60606000600a805490509050606081604051908082528060200260200182016040528015613af35781602001602082028038833980820191505090505b50905060008090506000600190505b83811015613ba757600a8181548110613b1757fe5b906000526020600020906004020160010160008773ffffffffffffffffffffffffffffffffffffffff1673ffffffffffffffffffffffffffffffffffffffff16815260200190815260200160002060009054906101000a900460ff1615613b9a5780838381518110613b8557fe5b60200260200101818152505081806001019250505b8080600101915050613b02565b50819350505050919050565b600160009054906101000a900473ffffffffffffffffffffffffffffffffffffffff1681565b81600073ffffffffffffffffffffffffffffffffffffffff16600a8281548110613bff57fe5b906000526020600020906004020160030160009054906101000a900473ffffffffffffffffffffffffffffffffffffffff1673ffffffffffffffffffffffffffffffffffffffff1614613cc757600a8181548110613c5957fe5b906000526020600020906004020160030160009054906101000a900473ffffffffffffffffffffffffffffffffffffffff1673ffffffffffffffffffffffffffffffffffffffff163373ffffffffffffffffffffffffffffffffffffffff1614613cc257600080fd5b613d43565b613cd033611f9d565b613d42576040517f08c379a000000000000000000000000000000000000000000000000000000000815260040180806020018281038252600e8152602001807f4e6f7420417574686f72697a656400000000000000000000000000000000000081525060200191505060405180910390fd5b5b81600a8481548110613d5157fe5b906000526020600020906004020160030160006101000a81548173ffffffffffffffffffffffffffffffffffffffff021916908373ffffffffffffffffffffffffffffffffffffffff160217905550505050565b600160009054906101000a900473ffffffffffffffffffffffffffffffffffffffff1673ffffffffffffffffffffffffffffffffffffffff1663ff0938a76040518163ffffffff1660e01b815260040160206040518083038186803b158015613e0d57600080fd5b505afa158015613e21573d6000803e3d6000fd5b505050506040513d6020811015613e3757600080fd5b8101908080519060200190929190505050158015613f2b5750600160009054906101000a900473ffffffffffffffffffffffffffffffffffffffff1673ffffffffffffffffffffffffffffffffffffffff1663a230c524336040518263ffffffff1660e01b8152600401808273ffffffffffffffffffffffffffffffffffffffff1673ffffffffffffffffffffffffffffffffffffffff16815260200191505060206040518083038186803b158015613eef57600080fd5b505afa158015613f03573d6000803e3d6000fd5b505050506040513d6020811015613f1957600080fd5b81019080805190602001909291905050505b613f3457600080fd5b6000600360009054906101000a900473ffffffffffffffffffffffffffffffffffffffff1673ffffffffffffffffffffffffffffffffffffffff166339081b9233426040518363ffffffff1660e01b8152600401808373ffffffffffffffffffffffffffffffffffffffff1673ffffffffffffffffffffffffffffffffffffffff1681526020018281526020019250505060206040518083038186803b158015613fdd57600080fd5b505afa158015613ff1573d6000803e3d6000fd5b505050506040513d602081101561400757600080fd5b81019080805190602001909291905050501461402257600080fd5b600860009054906101000a900473ffffffffffffffffffffffffffffffffffffffff1673ffffffffffffffffffffffffffffffffffffffff1663ac5adaf6336040518263ffffffff1660e01b8152600401808273ffffffffffffffffffffffffffffffffffffffff1673ffffffffffffffffffffffffffffffffffffffff16815260200191505060206040518083038186803b1580156140c157600080fd5b505afa1580156140d5573d6000803e3d6000fd5b505050506040513d60208110156140eb57600080fd5b81019080805190602001909291905050501561410657600080fd5b6000600660009054906101000a900473ffffffffffffffffffffffffffffffffffffffff1673ffffffffffffffffffffffffffffffffffffffff166335afb14e336040518263ffffffff1660e01b8152600401808273ffffffffffffffffffffffffffffffffffffffff1673ffffffffffffffffffffffffffffffffffffffff16815260200191505060206040518083038186803b1580156141a757600080fd5b505afa1580156141bb573d6000803e3d6000fd5b505050506040513d60208110156141d157600080fd5b8101908080519060200190929190505050146141ec57600080fd5b6000600360009054906101000a900473ffffffffffffffffffffffffffffffffffffffff1673ffffffffffffffffffffffffffffffffffffffff16635294d0e8336040518263ffffffff1660e01b8152600401808273ffffffffffffffffffffffffffffffffffffffff1673ffffffffffffffffffffffffffffffffffffffff168152602001807f434c41000000000000000000000000000000000000000000000000000000000081525060200191505060206040518083038186803b1580156142b557600080fd5b505afa1580156142c9573d6000803e3d6000fd5b505050506040513d60208110156142df57600080fd5b810190808051906020019092919050505014614346576040517f08c379a000000000000000000000000000000000000000000000000000000000815260040180806020018281038252602b815260200180615d3a602b913960400191505060405180910390fd5b600760009054906101000a900473ffffffffffffffffffffffffffffffffffffffff1673ffffffffffffffffffffffffffffffffffffffff1663f0466c73336040518263ffffffff1660e01b8152600401808273ffffffffffffffffffffffffffffffffffffffff1673ffffffffffffffffffffffffffffffffffffffff168152602001915050600060405180830381600087803b1580156143e757600080fd5b505af11580156143fb573d6000803e3d6000fd5b50505050600360009054906101000a900473ffffffffffffffffffffffffffffffffffffffff1673ffffffffffffffffffffffffffffffffffffffff166379cc679033600960009054906101000a900473ffffffffffffffffffffffffffffffffffffffff1673ffffffffffffffffffffffffffffffffffffffff166370a08231336040518263ffffffff1660e01b8152600401808273ffffffffffffffffffffffffffffffffffffffff1673ffffffffffffffffffffffffffffffffffffffff16815260200191505060206040518083038186803b1580156144dd57600080fd5b505afa1580156144f1573d6000803e3d6000fd5b505050506040513d602081101561450757600080fd5b81019080805190602001909291905050506040518363ffffffff1660e01b8152600401808373ffffffffffffffffffffffffffffffffffffffff1673ffffffffffffffffffffffffffffffffffffffff16815260200182815260200192505050602060405180830381600087803b15801561458157600080fd5b505af1158015614595573d6000803e3d6000fd5b505050506040513d60208110156145ab57600080fd5b8101908080519060200190929190505050506145d533600260038111156145ce57fe5b6000615366565b600360009054906101000a900473ffffffffffffffffffffffffffffffffffffffff1673ffffffffffffffffffffffffffffffffffffffff16638ab1d681336040518263ffffffff1660e01b8152600401808273ffffffffffffffffffffffffffffffffffffffff1673ffffffffffffffffffffffffffffffffffffffff168152602001915050600060405180830381600087803b15801561467657600080fd5b505af115801561468a573d6000803e3d6000fd5b50505050565b6000806000600a85815481106146a257fe5b906000526020600020906004020160020184815481106146be57fe5b9060005260206000200160009054906101000a900473ffffffffffffffffffffffffffffffffffffffff16905080600a86815481106146f957fe5b906000526020600020906004020160010160008373ffffffffffffffffffffffffffffffffffffffff1673ffffffffffffffffffffffffffffffffffffffff16815260200190815260200160002060009054906101000a900460ff1692509250509250929050565b6001600381111561476e57fe5b600073ffffffffffffffffffffffffffffffffffffffff16600a828154811061479357fe5b906000526020600020906004020160030160009054906101000a900473ffffffffffffffffffffffffffffffffffffffff1673ffffffffffffffffffffffffffffffffffffffff161461485b57600a81815481106147ed57fe5b906000526020600020906004020160030160009054906101000a900473ffffffffffffffffffffffffffffffffffffffff1673ffffffffffffffffffffffffffffffffffffffff163373ffffffffffffffffffffffffffffffffffffffff161461485657600080fd5b6148d7565b61486433611f9d565b6148d6576040517f08c379a000000000000000000000000000000000000000000000000000000000815260040180806020018281038252600e8152602001807f4e6f7420417574686f72697a656400000000000000000000000000000000000081525060200191505060405180910390fd5b5b6148ef83600160038111156148e857fe5b6001615366565b614907826001600381111561490057fe5b6000615366565b505050565b6000809054906101000a900473ffffffffffffffffffffffffffffffffffffffff1681565b600073ffffffffffffffffffffffffffffffffffffffff166000809054906101000a900473ffffffffffffffffffffffffffffffffffffffff1673ffffffffffffffffffffffffffffffffffffffff16146149e0573373ffffffffffffffffffffffffffffffffffffffff166000809054906101000a900473ffffffffffffffffffffffffffffffffffffffff1673ffffffffffffffffffffffffffffffffffffffff16146149df57600080fd5b5b806000806101000a81548173ffffffffffffffffffffffffffffffffffffffff021916908373ffffffffffffffffffffffffffffffffffffffff16021790555080600160006101000a81548173ffffffffffffffffffffffffffffffffffffffff021916908373ffffffffffffffffffffffffffffffffffffffff16021790555080600260006101000a81548173ffffffffffffffffffffffffffffffffffffffff021916908373ffffffffffffffffffffffffffffffffffffffff16021790555050565b600560009054906101000a900473ffffffffffffffffffffffffffffffffffffffff1673ffffffffffffffffffffffffffffffffffffffff166384434b9f6040518163ffffffff1660e01b815260040160206040518083038186803b158015614b0d57600080fd5b505afa158015614b21573d6000803e3d6000fd5b505050506040513d6020811015614b3757600080fd5b810190808051906020019092919050505073ffffffffffffffffffffffffffffffffffffffff163373ffffffffffffffffffffffffffffffffffffffff1614614b7f57600080fd5b600160009054906101000a900473ffffffffffffffffffffffffffffffffffffffff1673ffffffffffffffffffffffffffffffffffffffff1663ff0938a76040518163ffffffff1660e01b815260040160206040518083038186803b158015614be757600080fd5b505afa158015614bfb573d6000803e3d6000fd5b505050506040513d6020811015614c1157600080fd5b810190808051906020019092919050505015614c2c57600080fd5b600073ffffffffffffffffffffffffffffffffffffffff168273ffffffffffffffffffffffffffffffffffffffff161415614c6657600080fd5b600160009054906101000a900473ffffffffffffffffffffffffffffffffffffffff1673ffffffffffffffffffffffffffffffffffffffff1663a230c524836040518263ffffffff1660e01b8152600401808273ffffffffffffffffffffffffffffffffffffffff1673ffffffffffffffffffffffffffffffffffffffff16815260200191505060206040518083038186803b158015614d0557600080fd5b505afa158015614d19573d6000803e3d6000fd5b505050506040513d6020811015614d2f57600080fd5b810190808051906020019092919050505015614d4a57600080fd5b600560009054906101000a900473ffffffffffffffffffffffffffffffffffffffff1673ffffffffffffffffffffffffffffffffffffffff1663de75b5ea836040518263ffffffff1660e01b8152600401808273ffffffffffffffffffffffffffffffffffffffff1673ffffffffffffffffffffffffffffffffffffffff16815260200191505060206040518083038186803b158015614de957600080fd5b505afa158015614dfd573d6000803e3d6000fd5b505050506040513d6020811015614e1357600080fd5b8101908080519060200190929190505050614e2d57600080fd5b801561516057600560009054906101000a900473ffffffffffffffffffffffffffffffffffffffff1673ffffffffffffffffffffffffffffffffffffffff1663f63a87d48360006040518363ffffffff1660e01b8152600401808373ffffffffffffffffffffffffffffffffffffffff1673ffffffffffffffffffffffffffffffffffffffff1681526020018215151515815260200192505050600060405180830381600087803b158015614ee157600080fd5b505af1158015614ef5573d6000803e3d6000fd5b505050506000600460009054906101000a900473ffffffffffffffffffffffffffffffffffffffff1673ffffffffffffffffffffffffffffffffffffffff16636eeeaaa56040518163ffffffff1660e01b815260040160206040518083038186803b158015614f6357600080fd5b505afa158015614f77573d6000803e3d6000fd5b505050506040513d6020811015614f8d57600080fd5b81019080805190602001909291905050509050600360009054906101000a900473ffffffffffffffffffffffffffffffffffffffff1673ffffffffffffffffffffffffffffffffffffffff1663e43252d7846040518263ffffffff1660e01b8152600401808273ffffffffffffffffffffffffffffffffffffffff1673ffffffffffffffffffffffffffffffffffffffff168152602001915050600060405180830381600087803b15801561504157600080fd5b505af1158015615055573d6000803e3d6000fd5b50505050615071836002600381111561506a57fe5b6001615366565b600460009054906101000a900473ffffffffffffffffffffffffffffffffffffffff1673ffffffffffffffffffffffffffffffffffffffff16636ad5b3ea6040518163ffffffff1660e01b815260040160206040518083038186803b1580156150d957600080fd5b505afa1580156150ed573d6000803e3d6000fd5b505050506040513d602081101561510357600080fd5b810190808051906020019092919050505073ffffffffffffffffffffffffffffffffffffffff166108fc829081150290604051600060405180830381858888f19350505050158015615159573d6000803e3d6000fd5b5050615310565b600560009054906101000a900473ffffffffffffffffffffffffffffffffffffffff1673ffffffffffffffffffffffffffffffffffffffff1663f63a87d48360006040518363ffffffff1660e01b8152600401808373ffffffffffffffffffffffffffffffffffffffff1673ffffffffffffffffffffffffffffffffffffffff1681526020018215151515815260200192505050600060405180830381600087803b15801561520e57600080fd5b505af1158015615222573d6000803e3d6000fd5b505050508173ffffffffffffffffffffffffffffffffffffffff166108fc600460009054906101000a900473ffffffffffffffffffffffffffffffffffffffff1673ffffffffffffffffffffffffffffffffffffffff16636eeeaaa56040518163ffffffff1660e01b815260040160206040518083038186803b1580156152a857600080fd5b505afa1580156152bc573d6000803e3d6000fd5b505050506040513d60208110156152d257600080fd5b81019080805190602001909291905050509081150290604051600060405180830381858888f1935050505015801561530e573d6000803e3d6000fd5b505b5050565b600e5481565b600360009054906101000a900473ffffffffffffffffffffffffffffffffffffffff1681565b600260009054906101000a900473ffffffffffffffffffffffffffffffffffffffff1681565b801561552557600a828154811061537957fe5b906000526020600020906004020160010160008473ffffffffffffffffffffffffffffffffffffffff1673ffffffffffffffffffffffffffffffffffffffff16815260200190815260200160002060009054906101000a900460ff16156153df57600080fd5b615408600a83815481106153ef57fe5b9060005260206000209060040201600001546001615a09565b600a838154811061541557fe5b9060005260206000209060040201600001819055506001600a838154811061543957fe5b906000526020600020906004020160010160008573ffffffffffffffffffffffffffffffffffffffff1673ffffffffffffffffffffffffffffffffffffffff16815260200190815260200160002060006101000a81548160ff021916908315150217905550600a82815481106154ab57fe5b90600052602060002090600402016002018390806001815401808255809150509060018203906000526020600020016000909192909190916101000a81548173ffffffffffffffffffffffffffffffffffffffff021916908373ffffffffffffffffffffffffffffffffffffffff1602179055505061564e565b600a828154811061553257fe5b906000526020600020906004020160010160008473ffffffffffffffffffffffffffffffffffffffff1673ffffffffffffffffffffffffffffffffffffffff16815260200190815260200160002060009054906101000a900460ff1661559757600080fd5b6155c0600a83815481106155a757fe5b9060005260206000209060040201600001546001615a91565b600a83815481106155cd57fe5b906000526020600020906004020160000181905550600a82815481106155ef57fe5b906000526020600020906004020160010160008473ffffffffffffffffffffffffffffffffffffffff1673ffffffffffffffffffffffffffffffffffffffff16815260200190815260200160002060006101000a81549060ff02191690555b505050565b6005600c819055506156bc7f556e61737369676e6564000000000000000000000000000000000000000000006040518060400160405280600a81526020017f556e61737369676e65640000000000000000000000000000000000000000000081525060006157e5565b6157017f41647669736f727920426f61726400000000000000000000000000000000000060405180610100016040528060d18152602001615c6960d1913960006157e5565b6157617f4d656d62657200000000000000000000000000000000000000000000000000006040518060400160405280601f81526020017f526570726573656e747320616c6c207573657273206f66204d757475616c2e00815250836157e5565b6157c27f4f776e65720000000000000000000000000000000000000000000000000000006040518060400160405280601b81526020017f526570726573656e7473204f776e6572206f66204d757475616c2e000000000081525060006157e5565b6157d9826003808111156157d257fe5b6001615366565b6000600e819055505050565b600a805490507fe2981862bbf692aa30ba39d4eca9c69e5dcebf3eae5fb93332940c23c1c4c3c584846040518083815260200180602001828103825283818151815260200191508051906020019080838360005b83811015615854578082015181840152602081019050615839565b50505050905090810190601f1680156158815780820380516001836020036101000a031916815260200191505b50935050505060405180910390a2600a60405180606001604052806000815260200160006040519080825280602002602001820160405280156158d35781602001602082028038833980820191505090505b5081526020018373ffffffffffffffffffffffffffffffffffffffff1681525090806001815401808255809150509060018203906000526020600020906004020160009091929091909150600082015181600001556020820151816002019080519060200190615944929190615b9b565b5060408201518160030160006101000a81548173ffffffffffffffffffffffffffffffffffffffff021916908373ffffffffffffffffffffffffffffffffffffffff160217905550505050505050565b600080600090505b8251811015615a02578373ffffffffffffffffffffffffffffffffffffffff168382815181106159c857fe5b602002602001015173ffffffffffffffffffffffffffffffffffffffff1614156159f55760019150615a02565b808060010191505061599c565b5092915050565b600080828401905083811015615a87576040517f08c379a000000000000000000000000000000000000000000000000000000000815260040180806020018281038252601b8152602001807f536166654d6174683a206164646974696f6e206f766572666c6f77000000000081525060200191505060405180910390fd5b8091505092915050565b6000615ad383836040518060400160405280601e81526020017f536166654d6174683a207375627472616374696f6e206f766572666c6f770000815250615adb565b905092915050565b6000838311158290615b88576040517f08c379a00000000000000000000000000000000000000000000000000000000081526004018080602001828103825283818151815260200191508051906020019080838360005b83811015615b4d578082015181840152602081019050615b32565b50505050905090810190601f168015615b7a5780820380516001836020036101000a031916815260200191505b509250505060405180910390fd5b5060008385039050809150509392505050565b828054828255906000526020600020908101928215615c14579160200282015b82811115615c135782518260006101000a81548173ffffffffffffffffffffffffffffffffffffffff021916908373ffffffffffffffffffffffffffffffffffffffff16021790555091602001919060010190615bbb565b5b509050615c219190615c25565b5090565b615c6591905b80821115615c6157600081816101000a81549073ffffffffffffffffffffffffffffffffffffffff021916905550600101615c2b565b5090565b9056fe53656c656374656420666577206d656d6265727320746861742061726520646565706c7920656e747275737465642062792074686520644170702e20416e20696465616c2061647669736f727920626f6172642073686f756c642062652061206d6978206f6620736b696c6c73206f6620646f6d61696e2c20676f7665726e616e63652c2072657365617263682c20746563686e6f6c6f67792c20636f6e73756c74696e672065746320746f20696d70726f76652074686520706572666f726d616e6365206f662074686520644170702e4d656d6265722073686f756c642068617665206e6f20434c4120756e6c6f636b61626c6520746f6b656e73a265627a7a72315820b188d3e187c4cb00335b525a078088bcd71214d631f013414baa30df91f0fbb564736f6c63430005110032",
  "linkReferences": {},
  "deployedLinkReferences": {}
}