{
  "_format": "hh-sol-artifact-1",
  "contractName": "Claims",
  "sourceName": "nexusmutual/contracts/modules/claims/Claims.sol",
  "abi": [
    {
      "constant": false,
      "inputs": [],
      "name": "changeDependentContractAddress",
      "outputs": [],
      "payable": false,
      "stateMutability": "nonpayable",
      "type": "function"
    },
    {
      "constant": false,
      "inputs": [
        {
          "internalType": "address",
          "name": "_masterAddress",
          "type": "address"
        }
      ],
      "name": "changeMasterAddress",
      "outputs": [],
      "payable": false,
      "stateMutability": "nonpayable",
      "type": "function"
    },
    {
      "constant": false,
      "inputs": [],
      "name": "changePendingClaimStart",
      "outputs": [],
      "payable": false,
      "stateMutability": "nonpayable",
      "type": "function"
    },
    {
      "constant": true,
      "inputs": [
        {
          "internalType": "uint256",
          "name": "claimId",
          "type": "uint256"
        }
      ],
      "name": "checkVoteClosing",
      "outputs": [
        {
          "internalType": "int8",
          "name": "close",
          "type": "int8"
        }
      ],
      "payable": false,
      "stateMutability": "view",
      "type": "function"
    },
    {
      "constant": true,
      "inputs": [
        {
          "internalType": "uint256",
          "name": "claimId",
          "type": "uint256"
        },
        {
          "internalType": "uint256",
          "name": "member",
          "type": "uint256"
        }
      ],
      "name": "getCATokens",
      "outputs": [
        {
          "internalType": "uint256",
          "name": "tokens",
          "type": "uint256"
        }
      ],
      "payable": false,
      "stateMutability": "view",
      "type": "function"
    },
    {
      "constant": true,
      "inputs": [
        {
          "internalType": "uint256",
          "name": "index",
          "type": "uint256"
        }
      ],
      "name": "getClaimFromNewStart",
      "outputs": [
        {
          "internalType": "uint256",
          "name": "coverId",
          "type": "uint256"
        },
        {
          "internalType": "uint256",
          "name": "claimId",
          "type": "uint256"
        },
        {
          "internalType": "int8",
          "name": "voteCA",
          "type": "int8"
        },
        {
          "internalType": "int8",
          "name": "voteMV",
          "type": "int8"
        },
        {
          "internalType": "uint256",
          "name": "statusnumber",
          "type": "uint256"
        }
      ],
      "payable": false,
      "stateMutability": "view",
      "type": "function"
    },
    {
      "constant": true,
      "inputs": [
        {
          "internalType": "uint256",
          "name": "_claimId",
          "type": "uint256"
        }
      ],
      "name": "getClaimbyIndex",
      "outputs": [
        {
          "internalType": "uint256",
          "name": "claimId",
          "type": "uint256"
        },
        {
          "internalType": "uint256",
          "name": "status",
          "type": "uint256"
        },
        {
          "internalType": "int8",
          "name": "finalVerdict",
          "type": "int8"
        },
        {
          "internalType": "address",
          "name": "claimOwner",
          "type": "address"
        },
        {
          "internalType": "uint256",
          "name": "coverId",
          "type": "uint256"
        }
      ],
      "payable": false,
      "stateMutability": "view",
      "type": "function"
    },
    {
      "constant": true,
      "inputs": [
        {
          "internalType": "uint256",
          "name": "index",
          "type": "uint256"
        }
      ],
      "name": "getUserClaimByIndex",
      "outputs": [
        {
          "internalType": "uint256",
          "name": "status",
          "type": "uint256"
        },
        {
          "internalType": "uint256",
          "name": "coverId",
          "type": "uint256"
        },
        {
          "internalType": "uint256",
          "name": "claimId",
          "type": "uint256"
        }
      ],
      "payable": false,
      "stateMutability": "view",
      "type": "function"
    },
    {
      "constant": true,
      "inputs": [],
      "name": "ms",
      "outputs": [
        {
          "internalType": "contract INXMMaster",
          "name": "",
          "type": "address"
        }
      ],
      "payable": false,
      "stateMutability": "view",
      "type": "function"
    },
    {
      "constant": true,
      "inputs": [],
      "name": "nxMasterAddress",
      "outputs": [
        {
          "internalType": "address",
          "name": "",
          "type": "address"
        }
      ],
      "payable": false,
      "stateMutability": "view",
      "type": "function"
    },
    {
      "constant": false,
      "inputs": [],
      "name": "pauseAllPendingClaimsVoting",
      "outputs": [],
      "payable": false,
      "stateMutability": "nonpayable",
      "type": "function"
    },
    {
      "constant": false,
      "inputs": [
        {
          "internalType": "uint256",
          "name": "claimId",
          "type": "uint256"
        },
        {
          "internalType": "uint256",
          "name": "stat",
          "type": "uint256"
        }
      ],
      "name": "setClaimStatus",
      "outputs": [],
      "payable": false,
      "stateMutability": "nonpayable",
      "type": "function"
    },
    {
      "constant": false,
      "inputs": [],
      "name": "startAllPendingClaimsVoting",
      "outputs": [],
      "payable": false,
      "stateMutability": "nonpayable",
      "type": "function"
    },
    {
      "constant": false,
      "inputs": [
        {
          "internalType": "uint256",
          "name": "claimId",
          "type": "uint256"
        },
        {
          "internalType": "int8",
          "name": "verdict",
          "type": "int8"
        }
      ],
      "name": "submitCAVote",
      "outputs": [],
      "payable": false,
      "stateMutability": "nonpayable",
      "type": "function"
    },
    {
      "constant": false,
      "inputs": [
        {
          "internalType": "uint256",
          "name": "coverId",
          "type": "uint256"
        }
      ],
      "name": "submitClaim",
      "outputs": [],
      "payable": false,
      "stateMutability": "nonpayable",
      "type": "function"
    },
    {
      "constant": false,
      "inputs": [],
      "name": "submitClaimAfterEPOff",
      "outputs": [],
      "payable": false,
      "stateMutability": "nonpayable",
      "type": "function"
    },
    {
      "constant": false,
      "inputs": [
        {
          "internalType": "uint256",
          "name": "claimId",
          "type": "uint256"
        },
        {
          "internalType": "int8",
          "name": "verdict",
          "type": "int8"
        }
      ],
      "name": "submitMemberVote",
      "outputs": [],
      "payable": false,
      "stateMutability": "nonpayable",
      "type": "function"
    }
  ],
  "bytecode": "0x608060405234801561001057600080fd5b5061736080620000216000396000f3fe608060405234801561001057600080fd5b506004361061010b5760003560e01c8063a0b2d57f116100a2578063ed2f21c511610071578063ed2f21c514610365578063ef154cf2146103a0578063f17a3bec146103e8578063f511bdfe14610432578063fe5899971461046a5761010b565b8063a0b2d57f14610292578063b23d7634146102dc578063bfa52b12146102e6578063d46655f4146103215761010b565b806357af0515116100de57806357af0515146102045780636aa14a961461025057806375a0f5211461027e5780639755fafe146102885761010b565b80630ea9c98414610110578063380216711461011a5780633c836e521461012457806355d9dc5f146101b4575b600080fd5b6101186104d4565b005b61012261111c565b005b6101506004803603602081101561013a57600080fd5b810190808035906020019092919050505061159c565b604051808681526020018581526020018460000b60000b81526020018373ffffffffffffffffffffffffffffffffffffffff1673ffffffffffffffffffffffffffffffffffffffff1681526020018281526020019550505050505060405180910390f35b6101e0600480360360208110156101ca57600080fd5b810190808035906020019092919050505061175a565b60405180848152602001838152602001828152602001935050505060405180910390f35b61023a6004803603604081101561021a57600080fd5b81019080803590602001909291908035906020019092919050505061186d565b6040518082815260200191505060405180910390f35b61027c6004803603602081101561026657600080fd5b8101908080359060200190929190505050611cc3565b005b6102866121b0565b005b6102906126cb565b005b61029a613001565b604051808273ffffffffffffffffffffffffffffffffffffffff1673ffffffffffffffffffffffffffffffffffffffff16815260200191505060405180910390f35b6102e4613026565b005b61031f600480360360408110156102fc57600080fd5b8101908080359060200190929190803560000b9060200190929190505050613439565b005b6103636004803603602081101561033757600080fd5b81019080803573ffffffffffffffffffffffffffffffffffffffff1690602001909291905050506142ab565b005b61039e6004803603604081101561037b57600080fd5b8101908080359060200190929190803560000b9060200190929190505050614447565b005b6103cc600480360360208110156103b657600080fd5b8101908080359060200190929190505050614f37565b604051808260000b60000b815260200191505060405180910390f35b6103f061544e565b604051808273ffffffffffffffffffffffffffffffffffffffff1673ffffffffffffffffffffffffffffffffffffffff16815260200191505060405180910390f35b6104686004803603604081101561044857600080fd5b810190808035906020019092919080359060200190929190505050615474565b005b6104966004803603602081101561048057600080fd5b8101908080359060200190929190505050615564565b604051808681526020018581526020018460000b60000b81526020018360000b60000b81526020018281526020019550505050505060405180910390f35b6000809054906101000a900473ffffffffffffffffffffffffffffffffffffffff1673ffffffffffffffffffffffffffffffffffffffff16638f16c41c336040518263ffffffff1660e01b8152600401808273ffffffffffffffffffffffffffffffffffffffff1673ffffffffffffffffffffffffffffffffffffffff16815260200191505060206040518083038186803b15801561057257600080fd5b505afa158015610586573d6000803e3d6000fd5b505050506040513d602081101561059c57600080fd5b81019080805190602001909291905050506105b657600080fd5b6000809054906101000a900473ffffffffffffffffffffffffffffffffffffffff1673ffffffffffffffffffffffffffffffffffffffff16639d76ea586040518163ffffffff1660e01b815260040160206040518083038186803b15801561061d57600080fd5b505afa158015610631573d6000803e3d6000fd5b505050506040513d602081101561064757600080fd5b8101908080519060200190929190505050600360006101000a81548173ffffffffffffffffffffffffffffffffffffffff021916908373ffffffffffffffffffffffffffffffffffffffff1602179055506000809054906101000a900473ffffffffffffffffffffffffffffffffffffffff1673ffffffffffffffffffffffffffffffffffffffff1663013828586040518163ffffffff1660e01b815260040180807f5444000000000000000000000000000000000000000000000000000000000000815250602001905060206040518083038186803b15801561072a57600080fd5b505afa15801561073e573d6000803e3d6000fd5b505050506040513d602081101561075457600080fd5b8101908080519060200190929190505050600860006101000a81548173ffffffffffffffffffffffffffffffffffffffff021916908373ffffffffffffffffffffffffffffffffffffffff1602179055506000809054906101000a900473ffffffffffffffffffffffffffffffffffffffff1673ffffffffffffffffffffffffffffffffffffffff1663013828586040518163ffffffff1660e01b815260040180807f5446000000000000000000000000000000000000000000000000000000000000815250602001905060206040518083038186803b15801561083757600080fd5b505afa15801561084b573d6000803e3d6000fd5b505050506040513d602081101561086157600080fd5b8101908080519060200190929190505050600260006101000a81548173ffffffffffffffffffffffffffffffffffffffff021916908373ffffffffffffffffffffffffffffffffffffffff1602179055506000809054906101000a900473ffffffffffffffffffffffffffffffffffffffff1673ffffffffffffffffffffffffffffffffffffffff1663013828586040518163ffffffff1660e01b815260040180807f5443000000000000000000000000000000000000000000000000000000000000815250602001905060206040518083038186803b15801561094457600080fd5b505afa158015610958573d6000803e3d6000fd5b505050506040513d602081101561096e57600080fd5b8101908080519060200190929190505050600460006101000a81548173ffffffffffffffffffffffffffffffffffffffff021916908373ffffffffffffffffffffffffffffffffffffffff1602179055506000809054906101000a900473ffffffffffffffffffffffffffffffffffffffff1673ffffffffffffffffffffffffffffffffffffffff1663013828586040518163ffffffff1660e01b815260040180807f5031000000000000000000000000000000000000000000000000000000000000815250602001905060206040518083038186803b158015610a5157600080fd5b505afa158015610a65573d6000803e3d6000fd5b505050506040513d6020811015610a7b57600080fd5b8101908080519060200190929190505050600660006101000a81548173ffffffffffffffffffffffffffffffffffffffff021916908373ffffffffffffffffffffffffffffffffffffffff1602179055506000809054906101000a900473ffffffffffffffffffffffffffffffffffffffff1673ffffffffffffffffffffffffffffffffffffffff1663013828586040518163ffffffff1660e01b815260040180807f5032000000000000000000000000000000000000000000000000000000000000815250602001905060206040518083038186803b158015610b5e57600080fd5b505afa158015610b72573d6000803e3d6000fd5b505050506040513d6020811015610b8857600080fd5b8101908080519060200190929190505050600a60006101000a81548173ffffffffffffffffffffffffffffffffffffffff021916908373ffffffffffffffffffffffffffffffffffffffff1602179055506000809054906101000a900473ffffffffffffffffffffffffffffffffffffffff1673ffffffffffffffffffffffffffffffffffffffff1663013828586040518163ffffffff1660e01b815260040180807f5044000000000000000000000000000000000000000000000000000000000000815250602001905060206040518083038186803b158015610c6b57600080fd5b505afa158015610c7f573d6000803e3d6000fd5b505050506040513d6020811015610c9557600080fd5b8101908080519060200190929190505050600960006101000a81548173ffffffffffffffffffffffffffffffffffffffff021916908373ffffffffffffffffffffffffffffffffffffffff1602179055506000809054906101000a900473ffffffffffffffffffffffffffffffffffffffff1673ffffffffffffffffffffffffffffffffffffffff1663013828586040518163ffffffff1660e01b815260040180807f4352000000000000000000000000000000000000000000000000000000000000815250602001905060206040518083038186803b158015610d7857600080fd5b505afa158015610d8c573d6000803e3d6000fd5b505050506040513d6020811015610da257600080fd5b8101908080519060200190929190505050600560006101000a81548173ffffffffffffffffffffffffffffffffffffffff021916908373ffffffffffffffffffffffffffffffffffffffff1602179055506000809054906101000a900473ffffffffffffffffffffffffffffffffffffffff1673ffffffffffffffffffffffffffffffffffffffff1663013828586040518163ffffffff1660e01b815260040180807f4344000000000000000000000000000000000000000000000000000000000000815250602001905060206040518083038186803b158015610e8557600080fd5b505afa158015610e99573d6000803e3d6000fd5b505050506040513d6020811015610eaf57600080fd5b8101908080519060200190929190505050600760006101000a81548173ffffffffffffffffffffffffffffffffffffffff021916908373ffffffffffffffffffffffffffffffffffffffff1602179055506000809054906101000a900473ffffffffffffffffffffffffffffffffffffffff1673ffffffffffffffffffffffffffffffffffffffff1663013828586040518163ffffffff1660e01b815260040180807f5144000000000000000000000000000000000000000000000000000000000000815250602001905060206040518083038186803b158015610f9257600080fd5b505afa158015610fa6573d6000803e3d6000fd5b505050506040513d6020811015610fbc57600080fd5b8101908080519060200190929190505050600b60006101000a81548173ffffffffffffffffffffffffffffffffffffffff021916908373ffffffffffffffffffffffffffffffffffffffff1602179055506000809054906101000a900473ffffffffffffffffffffffffffffffffffffffff1673ffffffffffffffffffffffffffffffffffffffff1663013828586040518163ffffffff1660e01b815260040180807f4d43000000000000000000000000000000000000000000000000000000000000815250602001905060206040518083038186803b15801561109f57600080fd5b505afa1580156110b3573d6000803e3d6000fd5b505050506040513d60208110156110c957600080fd5b8101908080519060200190929190505050600c60006101000a81548173ffffffffffffffffffffffffffffffffffffffff021916908373ffffffffffffffffffffffffffffffffffffffff160217905550565b6000809054906101000a900473ffffffffffffffffffffffffffffffffffffffff1673ffffffffffffffffffffffffffffffffffffffff16638f16c41c336040518263ffffffff1660e01b8152600401808273ffffffffffffffffffffffffffffffffffffffff1673ffffffffffffffffffffffffffffffffffffffff16815260200191505060206040518083038186803b1580156111ba57600080fd5b505afa1580156111ce573d6000803e3d6000fd5b505050506040513d60208110156111e457600080fd5b81019080805190602001909291905050506111fe57600080fd5b6000600760009054906101000a900473ffffffffffffffffffffffffffffffffffffffff1673ffffffffffffffffffffffffffffffffffffffff16634fa6b2726040518163ffffffff1660e01b815260040160206040518083038186803b15801561126857600080fd5b505afa15801561127c573d6000803e3d6000fd5b505050506040513d602081101561129257600080fd5b810190808051906020019092919050505090506000600760009054906101000a900473ffffffffffffffffffffffffffffffffffffffff1673ffffffffffffffffffffffffffffffffffffffff1663c46b77c26040518163ffffffff1660e01b815260040160206040518083038186803b15801561130f57600080fd5b505afa158015611323573d6000803e3d6000fd5b505050506040513d602081101561133957600080fd5b8101908080519060200190929190505050905060008290505b8181101561159757600061136582614f37565b60000b141561158a576000600760009054906101000a900473ffffffffffffffffffffffffffffffffffffffff1673ffffffffffffffffffffffffffffffffffffffff166354d0f8d8836040518263ffffffff1660e01b81526004018082815260200191505060206040518083038186803b1580156113e357600080fd5b505afa1580156113f7573d6000803e3d6000fd5b505050506040513d602081101561140d57600080fd5b81019080805190602001909291905050509050600760009054906101000a900473ffffffffffffffffffffffffffffffffffffffff1673ffffffffffffffffffffffffffffffffffffffff16637eb7b2ee8361152642611518600760009054906101000a900473ffffffffffffffffffffffffffffffffffffffff1673ffffffffffffffffffffffffffffffffffffffff16633852a2ec6040518163ffffffff1660e01b815260040160206040518083038186803b1580156114ce57600080fd5b505afa1580156114e2573d6000803e3d6000fd5b505050506040513d60208110156114f857600080fd5b81019080805190602001909291905050508761569390919063ffffffff16565b61571b90919063ffffffff16565b60006040518463ffffffff1660e01b815260040180848152602001838152602001821515151581526020019350505050600060405180830381600087803b15801561157057600080fd5b505af1158015611584573d6000803e3d6000fd5b50505050505b8080600101915050611352565b505050565b600080600080600080869550600760009054906101000a900473ffffffffffffffffffffffffffffffffffffffff1673ffffffffffffffffffffffffffffffffffffffff16635aef2447886040518263ffffffff1660e01b81526004018082815260200191505060c06040518083038186803b15801561161b57600080fd5b505afa15801561162f573d6000803e3d6000fd5b505050506040513d60c081101561164557600080fd5b81019080805190602001909291908051906020019092919080519060200190929190805190602001909291908051906020019092919080519060200190929190505050909192939450905050809350819650829450505050600b60009054906101000a900473ffffffffffffffffffffffffffffffffffffffff1673ffffffffffffffffffffffffffffffffffffffff16633c2d4daf836040518263ffffffff1660e01b81526004018082815260200191505060206040518083038186803b15801561171057600080fd5b505afa158015611724573d6000803e3d6000fd5b505050506040513d602081101561173a57600080fd5b810190808051906020019092919050505092508094505091939590929450565b600080600080600760009054906101000a900473ffffffffffffffffffffffffffffffffffffffff1673ffffffffffffffffffffffffffffffffffffffff16636e3979e286336040518363ffffffff1660e01b8152600401808381526020018273ffffffffffffffffffffffffffffffffffffffff1673ffffffffffffffffffffffffffffffffffffffff1681526020019250505060606040518083038186803b15801561180757600080fd5b505afa15801561181b573d6000803e3d6000fd5b505050506040513d606081101561183157600080fd5b81019080805190602001909291908051906020019092919080519060200190929190505050809450819550829350505050809350509193909250565b600080600760009054906101000a900473ffffffffffffffffffffffffffffffffffffffff1673ffffffffffffffffffffffffffffffffffffffff166396ff592f856040518263ffffffff1660e01b815260040180828152602001915050604080518083038186803b1580156118e257600080fd5b505afa1580156118f6573d6000803e3d6000fd5b505050506040513d604081101561190c57600080fd5b8101908080519060200190929190805190602001909291905050509050809150506000600b60009054906101000a900473ffffffffffffffffffffffffffffffffffffffff1673ffffffffffffffffffffffffffffffffffffffff16638b5722f4836040518263ffffffff1660e01b81526004018082815260200191505060206040518083038186803b1580156119a257600080fd5b505afa1580156119b6573d6000803e3d6000fd5b505050506040513d60208110156119cc57600080fd5b810190808051906020019092919050505090506000600c60009054906101000a900473ffffffffffffffffffffffffffffffffffffffff1673ffffffffffffffffffffffffffffffffffffffff16633cb23b2d836040518263ffffffff1660e01b815260040180827bffffffffffffffffffffffffffffffffffffffffffffffffffffffff19167bffffffffffffffffffffffffffffffffffffffffffffffffffffffff1916815260200191505060206040518083038186803b158015611a9257600080fd5b505afa158015611aa6573d6000803e3d6000fd5b505050506040513d6020811015611abc57600080fd5b810190808051906020019092919050505090506000806000871415611bad57600760009054906101000a900473ffffffffffffffffffffffffffffffffffffffff1673ffffffffffffffffffffffffffffffffffffffff1663dbd0064c896040518263ffffffff1660e01b81526004018082815260200191505060606040518083038186803b158015611b4e57600080fd5b505afa158015611b62573d6000803e3d6000fd5b505050506040513d6060811015611b7857600080fd5b810190808051906020019092919080519060200190929190805190602001909291905050509091508092508193505050611c7b565b600760009054906101000a900473ffffffffffffffffffffffffffffffffffffffff1673ffffffffffffffffffffffffffffffffffffffff1663949d9d76896040518263ffffffff1660e01b81526004018082815260200191505060606040518083038186803b158015611c2057600080fd5b505afa158015611c34573d6000803e3d6000fd5b505050506040513d6060811015611c4a57600080fd5b8101908080519060200190929190805190602001909291908051906020019092919050505090915080925081935050505b611cb66012600a0a611ca885611c9a858761569390919063ffffffff16565b61576590919063ffffffff16565b6157eb90919063ffffffff16565b9550505050505092915050565b6000600b60009054906101000a900473ffffffffffffffffffffffffffffffffffffffff1673ffffffffffffffffffffffffffffffffffffffff16633c2d4daf836040518263ffffffff1660e01b81526004018082815260200191505060206040518083038186803b158015611d3857600080fd5b505afa158015611d4c573d6000803e3d6000fd5b505050506040513d6020811015611d6257600080fd5b810190808051906020019092919050505090503373ffffffffffffffffffffffffffffffffffffffff168173ffffffffffffffffffffffffffffffffffffffff1614611dad57600080fd5b6000600b60009054906101000a900473ffffffffffffffffffffffffffffffffffffffff1673ffffffffffffffffffffffffffffffffffffffff16633327a2fa846040518263ffffffff1660e01b81526004018082815260200191505060a06040518083038186803b158015611e2257600080fd5b505afa158015611e36573d6000803e3d6000fd5b505050506040513d60a0811015611e4c57600080fd5b81019080805190602001909291908051906020019092919080519060200190929190805190602001909291908051906020019092919050505090919293509091509050508091505060046005811115611ea157fe5b60ff168160ff161415611f1c576040517f08c379a00000000000000000000000000000000000000000000000000000000081526004018080602001828103825260178152602001807f436c61696d20616c7265616479207375626d697474656400000000000000000081525060200191505060405180910390fd5b60036005811115611f2957fe5b60ff168160ff161415611fa4576040517f08c379a00000000000000000000000000000000000000000000000000000000081526004018080602001828103825260158152602001807f436f76657220616c72656164792065787069726564000000000000000000000081525060200191505060405180910390fd5b600015156000809054906101000a900473ffffffffffffffffffffffffffffffffffffffff1673ffffffffffffffffffffffffffffffffffffffff1663ff0938a76040518163ffffffff1660e01b815260040160206040518083038186803b15801561200f57600080fd5b505afa158015612023573d6000803e3d6000fd5b505050506040513d602081101561203957600080fd5b8101908080519060200190929190505050151514156120625761205d834284615835565b6121ab565b600760009054906101000a900473ffffffffffffffffffffffffffffffffffffffff1673ffffffffffffffffffffffffffffffffffffffff166394490592844260006040518463ffffffff1660e01b815260040180848152602001838152602001821515151581526020019350505050600060405180830381600087803b1580156120ec57600080fd5b505af1158015612100573d6000803e3d6000fd5b50505050600b60009054906101000a900473ffffffffffffffffffffffffffffffffffffffff1673ffffffffffffffffffffffffffffffffffffffff1663ae1c5eca8460058081111561214f57fe5b6040518363ffffffff1660e01b8152600401808381526020018260ff1660ff16815260200192505050600060405180830381600087803b15801561219257600080fd5b505af11580156121a6573d6000803e3d6000fd5b505050505b505050565b6000809054906101000a900473ffffffffffffffffffffffffffffffffffffffff1673ffffffffffffffffffffffffffffffffffffffff16638f16c41c336040518263ffffffff1660e01b8152600401808273ffffffffffffffffffffffffffffffffffffffff1673ffffffffffffffffffffffffffffffffffffffff16815260200191505060206040518083038186803b15801561224e57600080fd5b505afa158015612262573d6000803e3d6000fd5b505050506040513d602081101561227857600080fd5b810190808051906020019092919050505061229257600080fd5b6000600760009054906101000a900473ffffffffffffffffffffffffffffffffffffffff1673ffffffffffffffffffffffffffffffffffffffff16637532b0916040518163ffffffff1660e01b815260040160206040518083038186803b1580156122fc57600080fd5b505afa158015612310573d6000803e3d6000fd5b505050506040513d602081101561232657600080fd5b810190808051906020019092919050505090506000600760009054906101000a900473ffffffffffffffffffffffffffffffffffffffff1673ffffffffffffffffffffffffffffffffffffffff1663af3bd83f6040518163ffffffff1660e01b815260040160206040518083038186803b1580156123a357600080fd5b505afa1580156123b7573d6000803e3d6000fd5b505050506040513d60208110156123cd57600080fd5b8101908080519060200190929190505050905060008060008060008590505b8681101561263557600760009054906101000a900473ffffffffffffffffffffffffffffffffffffffff1673ffffffffffffffffffffffffffffffffffffffff1663965bfafb826040518263ffffffff1660e01b81526004018082815260200191505060606040518083038186803b15801561246757600080fd5b505afa15801561247b573d6000803e3d6000fd5b505050506040513d606081101561249157600080fd5b8101908080519060200190929190805190602001909291908051906020019092919050505080955081965082975050505060001515831515146124d357600080fd5b600b60009054906101000a900473ffffffffffffffffffffffffffffffffffffffff1673ffffffffffffffffffffffffffffffffffffffff16633c2d4daf866040518263ffffffff1660e01b81526004018082815260200191505060206040518083038186803b15801561254657600080fd5b505afa15801561255a573d6000803e3d6000fd5b505050506040513d602081101561257057600080fd5b8101908080519060200190929190505050915061258e858584615835565b600760009054906101000a900473ffffffffffffffffffffffffffffffffffffffff1673ffffffffffffffffffffffffffffffffffffffff1663c344ccc68260016040518363ffffffff1660e01b8152600401808381526020018215151515815260200192505050600060405180830381600087803b15801561261057600080fd5b505af1158015612624573d6000803e3d6000fd5b5050505080806001019150506123ec565b50600760009054906101000a900473ffffffffffffffffffffffffffffffffffffffff1673ffffffffffffffffffffffffffffffffffffffff1663a9248136876040518263ffffffff1660e01b815260040180828152602001915050600060405180830381600087803b1580156126ab57600080fd5b505af11580156126bf573d6000803e3d6000fd5b50505050505050505050565b6000809054906101000a900473ffffffffffffffffffffffffffffffffffffffff1673ffffffffffffffffffffffffffffffffffffffff16638f16c41c336040518263ffffffff1660e01b8152600401808273ffffffffffffffffffffffffffffffffffffffff1673ffffffffffffffffffffffffffffffffffffffff16815260200191505060206040518083038186803b15801561276957600080fd5b505afa15801561277d573d6000803e3d6000fd5b505050506040513d602081101561279357600080fd5b81019080805190602001909291905050506127ad57600080fd5b6000600760009054906101000a900473ffffffffffffffffffffffffffffffffffffffff1673ffffffffffffffffffffffffffffffffffffffff1663b18e59416040518163ffffffff1660e01b815260040160206040518083038186803b15801561281757600080fd5b505afa15801561282b573d6000803e3d6000fd5b505050506040513d602081101561284157600080fd5b81019080805190602001909291905050509050600080600760009054906101000a900473ffffffffffffffffffffffffffffffffffffffff1673ffffffffffffffffffffffffffffffffffffffff166389b11cfe6040518163ffffffff1660e01b815260040160206040518083038186803b1580156128bf57600080fd5b505afa1580156128d3573d6000803e3d6000fd5b505050506040513d60208110156128e957600080fd5b810190808051906020019092919050505090508291505b80821015612f6f57600080600760009054906101000a900473ffffffffffffffffffffffffffffffffffffffff1673ffffffffffffffffffffffffffffffffffffffff1663a40d3518856040518263ffffffff1660e01b81526004018082815260200191505060606040518083038186803b15801561297e57600080fd5b505afa158015612992573d6000803e3d6000fd5b505050506040513d60608110156129a857600080fd5b810190808051906020019092919080519060200190929190805190602001909291905050505080935081925050506000612a9f83612a91600760009054906101000a900473ffffffffffffffffffffffffffffffffffffffff1673ffffffffffffffffffffffffffffffffffffffff16633852a2ec6040518163ffffffff1660e01b815260040160206040518083038186803b158015612a4757600080fd5b505afa158015612a5b573d6000803e3d6000fd5b505050506040513d6020811015612a7157600080fd5b81019080805190602001909291905050504261571b90919063ffffffff16565b61569390919063ffffffff16565b9050600760009054906101000a900473ffffffffffffffffffffffffffffffffffffffff1673ffffffffffffffffffffffffffffffffffffffff16637c2af6ee83836040518363ffffffff1660e01b81526004018083815260200182815260200192505050600060405180830381600087803b158015612b1e57600080fd5b505af1158015612b32573d6000803e3d6000fd5b50505050600760009054906101000a900473ffffffffffffffffffffffffffffffffffffffff1673ffffffffffffffffffffffffffffffffffffffff1663a788c1ff8660016040518363ffffffff1660e01b8152600401808381526020018215151515815260200192505050600060405180830381600087803b158015612bb857600080fd5b505af1158015612bcc573d6000803e3d6000fd5b505050506000600760009054906101000a900473ffffffffffffffffffffffffffffffffffffffff1673ffffffffffffffffffffffffffffffffffffffff166396ff592f846040518263ffffffff1660e01b815260040180828152602001915050604080518083038186803b158015612c4457600080fd5b505afa158015612c58573d6000803e3d6000fd5b505050506040513d6040811015612c6e57600080fd5b8101908080519060200190929190805190602001909291905050509050809150506000600b60009054906101000a900473ffffffffffffffffffffffffffffffffffffffff1673ffffffffffffffffffffffffffffffffffffffff16633c2d4daf836040518263ffffffff1660e01b81526004018082815260200191505060206040518083038186803b158015612d0457600080fd5b505afa158015612d18573d6000803e3d6000fd5b505050506040513d6020811015612d2e57600080fd5b81019080805190602001909291905050509050600260009054906101000a900473ffffffffffffffffffffffffffffffffffffffff1673ffffffffffffffffffffffffffffffffffffffff1663e8ed92148284612e36600760009054906101000a900473ffffffffffffffffffffffffffffffffffffffff1673ffffffffffffffffffffffffffffffffffffffff1663a90a6e116040518163ffffffff1660e01b815260040160206040518083038186803b158015612dec57600080fd5b505afa158015612e00573d6000803e3d6000fd5b505050506040513d6020811015612e1657600080fd5b81019080805190602001909291905050508a61569390919063ffffffff16565b6040518463ffffffff1660e01b8152600401808473ffffffffffffffffffffffffffffffffffffffff1673ffffffffffffffffffffffffffffffffffffffff1681526020018381526020018281526020019350505050600060405180830381600087803b158015612ea657600080fd5b505af1158015612eba573d6000803e3d6000fd5b50505050600660009054906101000a900473ffffffffffffffffffffffffffffffffffffffff1673ffffffffffffffffffffffffffffffffffffffff1663a19ed78385856040518363ffffffff1660e01b8152600401808381526020018267ffffffffffffffff16815260200192505050600060405180830381600087803b158015612f4557600080fd5b505af1158015612f59573d6000803e3d6000fd5b5050505050505050508180600101925050612900565b600760009054906101000a900473ffffffffffffffffffffffffffffffffffffffff1673ffffffffffffffffffffffffffffffffffffffff1663f2eb3b6b836040518263ffffffff1660e01b815260040180828152602001915050600060405180830381600087803b158015612fe457600080fd5b505af1158015612ff8573d6000803e3d6000fd5b50505050505050565b6000809054906101000a900473ffffffffffffffffffffffffffffffffffffffff1681565b6000809054906101000a900473ffffffffffffffffffffffffffffffffffffffff1673ffffffffffffffffffffffffffffffffffffffff16638f16c41c336040518263ffffffff1660e01b8152600401808273ffffffffffffffffffffffffffffffffffffffff1673ffffffffffffffffffffffffffffffffffffffff16815260200191505060206040518083038186803b1580156130c457600080fd5b505afa1580156130d8573d6000803e3d6000fd5b505050506040513d60208110156130ee57600080fd5b810190808051906020019092919050505061310857600080fd5b6000806000600760009054906101000a900473ffffffffffffffffffffffffffffffffffffffff1673ffffffffffffffffffffffffffffffffffffffff16634fa6b2726040518163ffffffff1660e01b815260040160206040518083038186803b15801561317557600080fd5b505afa158015613189573d6000803e3d6000fd5b505050506040513d602081101561319f57600080fd5b810190808051906020019092919050505090506000600760009054906101000a900473ffffffffffffffffffffffffffffffffffffffff1673ffffffffffffffffffffffffffffffffffffffff1663c46b77c26040518163ffffffff1660e01b815260040160206040518083038186803b15801561321c57600080fd5b505afa158015613230573d6000803e3d6000fd5b505050506040513d602081101561324657600080fd5b8101908080519060200190929190505050905060008290505b8181101561343257600760009054906101000a900473ffffffffffffffffffffffffffffffffffffffff1673ffffffffffffffffffffffffffffffffffffffff16635aef2447826040518263ffffffff1660e01b81526004018082815260200191505060c06040518083038186803b1580156132da57600080fd5b505afa1580156132ee573d6000803e3d6000fd5b505050506040513d60c081101561330457600080fd5b81019080805190602001909291908051906020019092919080519060200190929190805190602001909291908051906020019092919080519060200190929190505050909192939450909192935090919250905080955081965050506005851180156133895750600c851415806133885750600c851480156133875750603c8410155b5b5b1561342057600760009054906101000a900473ffffffffffffffffffffffffffffffffffffffff1673ffffffffffffffffffffffffffffffffffffffff1663cfda1206826040518263ffffffff1660e01b815260040180828152602001915050600060405180830381600087803b15801561340357600080fd5b505af1158015613417573d6000803e3d6000fd5b50505050613425565b613432565b808060010191505061325f565b5050505050565b600015156000809054906101000a900473ffffffffffffffffffffffffffffffffffffffff1673ffffffffffffffffffffffffffffffffffffffff1663ff0938a76040518163ffffffff1660e01b815260040160206040518083038186803b1580156134a457600080fd5b505afa1580156134b8573d6000803e3d6000fd5b505050506040513d60208110156134ce57600080fd5b810190808051906020019092919050505015151480156135ca5750600115156000809054906101000a900473ffffffffffffffffffffffffffffffffffffffff1673ffffffffffffffffffffffffffffffffffffffff1663a230c524336040518263ffffffff1660e01b8152600401808273ffffffffffffffffffffffffffffffffffffffff1673ffffffffffffffffffffffffffffffffffffffff16815260200191505060206040518083038186803b15801561358b57600080fd5b505afa15801561359f573d6000803e3d6000fd5b505050506040513d60208110156135b557600080fd5b81019080805190602001909291905050501515145b6135d357600080fd5b60016135de83614f37565b60000b14156135ec57600080fd5b4261377b600760009054906101000a900473ffffffffffffffffffffffffffffffffffffffff1673ffffffffffffffffffffffffffffffffffffffff1663bb67643a6040518163ffffffff1660e01b815260040160206040518083038186803b15801561365857600080fd5b505afa15801561366c573d6000803e3d6000fd5b505050506040513d602081101561368257600080fd5b8101908080519060200190929190505050600760009054906101000a900473ffffffffffffffffffffffffffffffffffffffff1673ffffffffffffffffffffffffffffffffffffffff16633fce4328336040518263ffffffff1660e01b8152600401808273ffffffffffffffffffffffffffffffffffffffff1673ffffffffffffffffffffffffffffffffffffffff16815260200191505060206040518083038186803b15801561373257600080fd5b505afa158015613746573d6000803e3d6000fd5b505050506040513d602081101561375c57600080fd5b810190808051906020019092919050505061569390919063ffffffff16565b1061378557600080fd5b6000600460009054906101000a900473ffffffffffffffffffffffffffffffffffffffff1673ffffffffffffffffffffffffffffffffffffffff1663179e91f13361387b600760009054906101000a900473ffffffffffffffffffffffffffffffffffffffff1673ffffffffffffffffffffffffffffffffffffffff1663a90a6e116040518163ffffffff1660e01b815260040160206040518083038186803b15801561383157600080fd5b505afa158015613845573d6000803e3d6000fd5b505050506040513d602081101561385b57600080fd5b81019080805190602001909291905050504261569390919063ffffffff16565b6040518363ffffffff1660e01b8152600401808373ffffffffffffffffffffffffffffffffffffffff1673ffffffffffffffffffffffffffffffffffffffff168152602001807f434c4100000000000000000000000000000000000000000000000000000000008152506020018281526020019250505060206040518083038186803b15801561390a57600080fd5b505afa15801561391e573d6000803e3d6000fd5b505050506040513d602081101561393457600080fd5b810190808051906020019092919050505090506000811161395457600080fd5b6000600760009054906101000a900473ffffffffffffffffffffffffffffffffffffffff1673ffffffffffffffffffffffffffffffffffffffff16630325ea37856040518263ffffffff1660e01b815260040180828152602001915050604080518083038186803b1580156139c857600080fd5b505afa1580156139dc573d6000803e3d6000fd5b505050506040513d60408110156139f257600080fd5b81019080805190602001909291908051906020019092919050505090508091505060008114613a2057600080fd5b6000600760009054906101000a900473ffffffffffffffffffffffffffffffffffffffff1673ffffffffffffffffffffffffffffffffffffffff1663990dcb9033876040518363ffffffff1660e01b8152600401808373ffffffffffffffffffffffffffffffffffffffff1673ffffffffffffffffffffffffffffffffffffffff1681526020018281526020019250505060206040518083038186803b158015613ac957600080fd5b505afa158015613add573d6000803e3d6000fd5b505050506040513d6020811015613af357600080fd5b810190808051906020019092919050505014613b0e57600080fd5b600860009054906101000a900473ffffffffffffffffffffffffffffffffffffffff1673ffffffffffffffffffffffffffffffffffffffff16633739e439336040518263ffffffff1660e01b8152600401808273ffffffffffffffffffffffffffffffffffffffff1673ffffffffffffffffffffffffffffffffffffffff168152602001915050600060405180830381600087803b158015613baf57600080fd5b505af1158015613bc3573d6000803e3d6000fd5b50505050600760009054906101000a900473ffffffffffffffffffffffffffffffffffffffff1673ffffffffffffffffffffffffffffffffffffffff166386d2b201338487876040518563ffffffff1660e01b8152600401808573ffffffffffffffffffffffffffffffffffffffff1673ffffffffffffffffffffffffffffffffffffffff1681526020018481526020018381526020018260000b60000b8152602001945050505050600060405180830381600087803b158015613c8657600080fd5b505af1158015613c9a573d6000803e3d6000fd5b50505050600760009054906101000a900473ffffffffffffffffffffffffffffffffffffffff1673ffffffffffffffffffffffffffffffffffffffff1663bc82d08933868542886040518663ffffffff1660e01b8152600401808673ffffffffffffffffffffffffffffffffffffffff1673ffffffffffffffffffffffffffffffffffffffff168152602001858152602001807f43415600000000000000000000000000000000000000000000000000000000008152506020018481526020018381526020018260000b60000b815260200195505050505050600060405180830381600087803b158015613d8d57600080fd5b505af1158015613da1573d6000803e3d6000fd5b505050506000600760009054906101000a900473ffffffffffffffffffffffffffffffffffffffff1673ffffffffffffffffffffffffffffffffffffffff166370e2630b6040518163ffffffff1660e01b815260040160206040518083038186803b158015613e0f57600080fd5b505afa158015613e23573d6000803e3d6000fd5b505050506040513d6020811015613e3957600080fd5b81019080805190602001909291905050509050600760009054906101000a900473ffffffffffffffffffffffffffffffffffffffff1673ffffffffffffffffffffffffffffffffffffffff1663a35d093a86836040518363ffffffff1660e01b81526004018083815260200182815260200192505050600060405180830381600087803b158015613ec957600080fd5b505af1158015613edd573d6000803e3d6000fd5b50505050600760009054906101000a900473ffffffffffffffffffffffffffffffffffffffff1673ffffffffffffffffffffffffffffffffffffffff1663e0fd6e823387846040518463ffffffff1660e01b8152600401808473ffffffffffffffffffffffffffffffffffffffff1673ffffffffffffffffffffffffffffffffffffffff1681526020018381526020018281526020019350505050600060405180830381600087803b158015613f9257600080fd5b505af1158015613fa6573d6000803e3d6000fd5b50505050600760009054906101000a900473ffffffffffffffffffffffffffffffffffffffff1673ffffffffffffffffffffffffffffffffffffffff1663f0f7587a8686866040518463ffffffff1660e01b8152600401808481526020018360000b60000b81526020018281526020019350505050600060405180830381600087803b15801561403557600080fd5b505af1158015614049573d6000803e3d6000fd5b50505050600460009054906101000a900473ffffffffffffffffffffffffffffffffffffffff1673ffffffffffffffffffffffffffffffffffffffff16632c69d41633600860009054906101000a900473ffffffffffffffffffffffffffffffffffffffff1673ffffffffffffffffffffffffffffffffffffffff16630d2c11046040518163ffffffff1660e01b815260040160206040518083038186803b1580156140f457600080fd5b505afa158015614108573d6000803e3d6000fd5b505050506040513d602081101561411e57600080fd5b81019080805190602001909291905050506040518363ffffffff1660e01b8152600401808373ffffffffffffffffffffffffffffffffffffffff1673ffffffffffffffffffffffffffffffffffffffff168152602001807f434c41000000000000000000000000000000000000000000000000000000000081525060200182815260200192505050602060405180830381600087803b1580156141c057600080fd5b505af11580156141d4573d6000803e3d6000fd5b505050506040513d60208110156141ea57600080fd5b810190808051906020019092919050505050600061420786614f37565b60000b905060018114156142a357600560009054906101000a900473ffffffffffffffffffffffffffffffffffffffff1673ffffffffffffffffffffffffffffffffffffffff16637f6715c9876040518263ffffffff1660e01b815260040180828152602001915050600060405180830381600087803b15801561428a57600080fd5b505af115801561429e573d6000803e3d6000fd5b505050505b505050505050565b600073ffffffffffffffffffffffffffffffffffffffff166000809054906101000a900473ffffffffffffffffffffffffffffffffffffffff1673ffffffffffffffffffffffffffffffffffffffff16146143c3573373ffffffffffffffffffffffffffffffffffffffff166000809054906101000a900473ffffffffffffffffffffffffffffffffffffffff1673ffffffffffffffffffffffffffffffffffffffff16146143c2576040517f08c379a000000000000000000000000000000000000000000000000000000000815260040180806020018281038252600a8152602001807f4e6f74206d61737465720000000000000000000000000000000000000000000081525060200191505060405180910390fd5b5b806000806101000a81548173ffffffffffffffffffffffffffffffffffffffff021916908373ffffffffffffffffffffffffffffffffffffffff16021790555080600160006101000a81548173ffffffffffffffffffffffffffffffffffffffff021916908373ffffffffffffffffffffffffffffffffffffffff16021790555050565b600015156000809054906101000a900473ffffffffffffffffffffffffffffffffffffffff1673ffffffffffffffffffffffffffffffffffffffff1663ff0938a76040518163ffffffff1660e01b815260040160206040518083038186803b1580156144b257600080fd5b505afa1580156144c6573d6000803e3d6000fd5b505050506040513d60208110156144dc57600080fd5b810190808051906020019092919050505015151480156145d85750600115156000809054906101000a900473ffffffffffffffffffffffffffffffffffffffff1673ffffffffffffffffffffffffffffffffffffffff1663a230c524336040518263ffffffff1660e01b8152600401808273ffffffffffffffffffffffffffffffffffffffff1673ffffffffffffffffffffffffffffffffffffffff16815260200191505060206040518083038186803b15801561459957600080fd5b505afa1580156145ad573d6000803e3d6000fd5b505050506040513d60208110156145c357600080fd5b81019080805190602001909291905050501515145b6145e157600080fd5b60016145ec83614f37565b60000b14156145fa57600080fd5b600080600460009054906101000a900473ffffffffffffffffffffffffffffffffffffffff1673ffffffffffffffffffffffffffffffffffffffff16634b0ee02a336040518263ffffffff1660e01b8152600401808273ffffffffffffffffffffffffffffffffffffffff1673ffffffffffffffffffffffffffffffffffffffff16815260200191505060206040518083038186803b15801561469c57600080fd5b505afa1580156146b0573d6000803e3d6000fd5b505050506040513d60208110156146c657600080fd5b81019080805190602001909291905050509050600760009054906101000a900473ffffffffffffffffffffffffffffffffffffffff1673ffffffffffffffffffffffffffffffffffffffff16630325ea37856040518263ffffffff1660e01b815260040180828152602001915050604080518083038186803b15801561474b57600080fd5b505afa15801561475f573d6000803e3d6000fd5b505050506040513d604081101561477557600080fd5b810190808051906020019092919080519060200190929190505050905080925050600182101580156147a8575060058211155b6147b157600080fd5b6000600760009054906101000a900473ffffffffffffffffffffffffffffffffffffffff1673ffffffffffffffffffffffffffffffffffffffff1663aee9274133876040518363ffffffff1660e01b8152600401808373ffffffffffffffffffffffffffffffffffffffff1673ffffffffffffffffffffffffffffffffffffffff1681526020018281526020019250505060206040518083038186803b15801561485a57600080fd5b505afa15801561486e573d6000803e3d6000fd5b505050506040513d602081101561488457600080fd5b81019080805190602001909291905050501461489f57600080fd5b600760009054906101000a900473ffffffffffffffffffffffffffffffffffffffff1673ffffffffffffffffffffffffffffffffffffffff166386d2b201338387876040518563ffffffff1660e01b8152600401808573ffffffffffffffffffffffffffffffffffffffff1673ffffffffffffffffffffffffffffffffffffffff1681526020018481526020018381526020018260000b60000b8152602001945050505050600060405180830381600087803b15801561495e57600080fd5b505af1158015614972573d6000803e3d6000fd5b50505050600760009054906101000a900473ffffffffffffffffffffffffffffffffffffffff1673ffffffffffffffffffffffffffffffffffffffff1663bc82d08933868442886040518663ffffffff1660e01b8152600401808673ffffffffffffffffffffffffffffffffffffffff1673ffffffffffffffffffffffffffffffffffffffff168152602001858152602001807f4d560000000000000000000000000000000000000000000000000000000000008152506020018481526020018381526020018260000b60000b815260200195505050505050600060405180830381600087803b158015614a6557600080fd5b505af1158015614a79573d6000803e3d6000fd5b50505050600460009054906101000a900473ffffffffffffffffffffffffffffffffffffffff1673ffffffffffffffffffffffffffffffffffffffff16634c47e71d33600860009054906101000a900473ffffffffffffffffffffffffffffffffffffffff1673ffffffffffffffffffffffffffffffffffffffff1663200e7ccf6040518163ffffffff1660e01b815260040160206040518083038186803b158015614b2457600080fd5b505afa158015614b38573d6000803e3d6000fd5b505050506040513d6020811015614b4e57600080fd5b81019080805190602001909291905050506040518363ffffffff1660e01b8152600401808373ffffffffffffffffffffffffffffffffffffffff1673ffffffffffffffffffffffffffffffffffffffff16815260200182815260200192505050600060405180830381600087803b158015614bc857600080fd5b505af1158015614bdc573d6000803e3d6000fd5b505050506000600760009054906101000a900473ffffffffffffffffffffffffffffffffffffffff1673ffffffffffffffffffffffffffffffffffffffff166370e2630b6040518163ffffffff1660e01b815260040160206040518083038186803b158015614c4a57600080fd5b505afa158015614c5e573d6000803e3d6000fd5b505050506040513d6020811015614c7457600080fd5b81019080805190602001909291905050509050600760009054906101000a900473ffffffffffffffffffffffffffffffffffffffff1673ffffffffffffffffffffffffffffffffffffffff1663b2dd6f7986836040518363ffffffff1660e01b81526004018083815260200182815260200192505050600060405180830381600087803b158015614d0457600080fd5b505af1158015614d18573d6000803e3d6000fd5b50505050600760009054906101000a900473ffffffffffffffffffffffffffffffffffffffff1673ffffffffffffffffffffffffffffffffffffffff1663e3d10ed83387846040518463ffffffff1660e01b8152600401808473ffffffffffffffffffffffffffffffffffffffff1673ffffffffffffffffffffffffffffffffffffffff1681526020018381526020018281526020019350505050600060405180830381600087803b158015614dcd57600080fd5b505af1158015614de1573d6000803e3d6000fd5b50505050600760009054906101000a900473ffffffffffffffffffffffffffffffffffffffff1673ffffffffffffffffffffffffffffffffffffffff1663bbd275ee8686856040518463ffffffff1660e01b8152600401808481526020018360000b60000b81526020018281526020019350505050600060405180830381600087803b158015614e7057600080fd5b505af1158015614e84573d6000803e3d6000fd5b505050506000614e9386614f37565b60000b90506001811415614f2f57600560009054906101000a900473ffffffffffffffffffffffffffffffffffffffff1673ffffffffffffffffffffffffffffffffffffffff16637f6715c9876040518263ffffffff1660e01b815260040180828152602001915050600060405180830381600087803b158015614f1657600080fd5b505af1158015614f2a573d6000803e3d6000fd5b505050505b505050505050565b60008090506000600760009054906101000a900473ffffffffffffffffffffffffffffffffffffffff1673ffffffffffffffffffffffffffffffffffffffff16630325ea37846040518263ffffffff1660e01b815260040180828152602001915050604080518083038186803b158015614fb057600080fd5b505afa158015614fc4573d6000803e3d6000fd5b505050506040513d6040811015614fda57600080fd5b8101908080519060200190929190805190602001909291905050509050809150506000600760009054906101000a900473ffffffffffffffffffffffffffffffffffffffff1673ffffffffffffffffffffffffffffffffffffffff166354d0f8d8856040518263ffffffff1660e01b81526004018082815260200191505060206040518083038186803b15801561507057600080fd5b505afa158015615084573d6000803e3d6000fd5b505050506040513d602081101561509a57600080fd5b81019080805190602001909291905050509050600c8214801561517057504261516e600760009054906101000a900473ffffffffffffffffffffffffffffffffffffffff1673ffffffffffffffffffffffffffffffffffffffff1663ee8dea636040518163ffffffff1660e01b815260040160206040518083038186803b15801561512457600080fd5b505afa158015615138573d6000803e3d6000fd5b505050506040513d602081101561514e57600080fd5b81019080805190602001909291905050508361569390919063ffffffff16565b105b1561523157603c600760009054906101000a900473ffffffffffffffffffffffffffffffffffffffff1673ffffffffffffffffffffffffffffffffffffffff16631cc464fe866040518263ffffffff1660e01b81526004018082815260200191505060206040518083038186803b1580156151ea57600080fd5b505afa1580156151fe573d6000803e3d6000fd5b505050506040513d602081101561521457600080fd5b8101908080519060200190929190505050101561523057600192505b5b6005821180156152425750600c8214155b1561526f577fffffffffffffffffffffffffffffffffffffffffffffffffffffffffffffffff9250615447565b600c8214158015615334575042615331600760009054906101000a900473ffffffffffffffffffffffffffffffffffffffff1673ffffffffffffffffffffffffffffffffffffffff16633852a2ec6040518163ffffffff1660e01b815260040160206040518083038186803b1580156152e757600080fd5b505afa1580156152fb573d6000803e3d6000fd5b505050506040513d602081101561531157600080fd5b81019080805190602001909291905050508361569390919063ffffffff16565b11155b156153425760019250615446565b600c8214158015615407575042615404600760009054906101000a900473ffffffffffffffffffffffffffffffffffffffff1673ffffffffffffffffffffffffffffffffffffffff166379c80e726040518163ffffffff1660e01b815260040160206040518083038186803b1580156153ba57600080fd5b505afa1580156153ce573d6000803e3d6000fd5b505050506040513d60208110156153e457600080fd5b81019080805190602001909291905050508361569390919063ffffffff16565b10155b156154155760009250615445565b6000821480615432575060018210158015615431575060058211155b5b1561544457615441848361612a565b92505b5b5b5b5050919050565b600160009054906101000a900473ffffffffffffffffffffffffffffffffffffffff1681565b6000809054906101000a900473ffffffffffffffffffffffffffffffffffffffff1673ffffffffffffffffffffffffffffffffffffffff16638f16c41c336040518263ffffffff1660e01b8152600401808273ffffffffffffffffffffffffffffffffffffffff1673ffffffffffffffffffffffffffffffffffffffff16815260200191505060206040518083038186803b15801561551257600080fd5b505afa158015615526573d6000803e3d6000fd5b505050506040513d602081101561553c57600080fd5b810190808051906020019092919050505061555657600080fd5b61556082826166ee565b5050565b6000806000806000600760009054906101000a900473ffffffffffffffffffffffffffffffffffffffff1673ffffffffffffffffffffffffffffffffffffffff16633aee2f7c87336040518363ffffffff1660e01b8152600401808381526020018273ffffffffffffffffffffffffffffffffffffffff1673ffffffffffffffffffffffffffffffffffffffff1681526020019250505060a06040518083038186803b15801561561357600080fd5b505afa158015615627573d6000803e3d6000fd5b505050506040513d60a081101561563d57600080fd5b810190808051906020019092919080519060200190929190805190602001909291908051906020019092919080519060200190929190505050809550819650829750839850849950505050505091939590929450565b600080828401905083811015615711576040517f08c379a000000000000000000000000000000000000000000000000000000000815260040180806020018281038252601b8152602001807f536166654d6174683a206164646974696f6e206f766572666c6f77000000000081525060200191505060405180910390fd5b8091505092915050565b600061575d83836040518060400160405280601e81526020017f536166654d6174683a207375627472616374696f6e206f766572666c6f770000815250617184565b905092915050565b60008083141561577857600090506157e5565b600082840290508284828161578957fe5b04146157e0576040517f08c379a000000000000000000000000000000000000000000000000000000000815260040180806020018281038252602181526020018061730b6021913960400191505060405180910390fd5b809150505b92915050565b600061582d83836040518060400160405280601a81526020017f536166654d6174683a206469766973696f6e206279207a65726f000000000000815250617244565b905092915050565b600260009054906101000a900473ffffffffffffffffffffffffffffffffffffffff1673ffffffffffffffffffffffffffffffffffffffff16634c14b3a8846040518263ffffffff1660e01b815260040180828152602001915050602060405180830381600087803b1580156158aa57600080fd5b505af11580156158be573d6000803e3d6000fd5b505050506040513d60208110156158d457600080fd5b8101908080519060200190929190505050506000600760009054906101000a900473ffffffffffffffffffffffffffffffffffffffff1673ffffffffffffffffffffffffffffffffffffffff1663c46b77c26040518163ffffffff1660e01b815260040160206040518083038186803b15801561595057600080fd5b505afa158015615964573d6000803e3d6000fd5b505050506040513d602081101561597a57600080fd5b81019080805190602001909291905050509050600760009054906101000a900473ffffffffffffffffffffffffffffffffffffffff1673ffffffffffffffffffffffffffffffffffffffff1663aad0ec7a828685426040518563ffffffff1660e01b8152600401808581526020018481526020018373ffffffffffffffffffffffffffffffffffffffff1673ffffffffffffffffffffffffffffffffffffffff168152602001828152602001945050505050600060405180830381600087803b158015615a4657600080fd5b505af1158015615a5a573d6000803e3d6000fd5b50505050600760009054906101000a900473ffffffffffffffffffffffffffffffffffffffff1673ffffffffffffffffffffffffffffffffffffffff166337bc7f90858484876040518563ffffffff1660e01b8152600401808581526020018473ffffffffffffffffffffffffffffffffffffffff1673ffffffffffffffffffffffffffffffffffffffff168152602001838152602001828152602001945050505050600060405180830381600087803b158015615b1757600080fd5b505af1158015615b2b573d6000803e3d6000fd5b50505050600b60009054906101000a900473ffffffffffffffffffffffffffffffffffffffff1673ffffffffffffffffffffffffffffffffffffffff1663ae1c5eca8560046005811115615b7b57fe5b6040518363ffffffff1660e01b8152600401808381526020018260ff1660ff16815260200192505050600060405180830381600087803b158015615bbe57600080fd5b505af1158015615bd2573d6000803e3d6000fd5b505050506000600b60009054906101000a900473ffffffffffffffffffffffffffffffffffffffff1673ffffffffffffffffffffffffffffffffffffffff16638b5722f4866040518263ffffffff1660e01b81526004018082815260200191505060206040518083038186803b158015615c4b57600080fd5b505afa158015615c5f573d6000803e3d6000fd5b505050506040513d6020811015615c7557600080fd5b810190808051906020019092919050505090506000615d4e6012600a0a600b60009054906101000a900473ffffffffffffffffffffffffffffffffffffffff1673ffffffffffffffffffffffffffffffffffffffff16631ce48f3d896040518263ffffffff1660e01b81526004018082815260200191505060206040518083038186803b158015615d0557600080fd5b505afa158015615d19573d6000803e3d6000fd5b505050506040513d6020811015615d2f57600080fd5b810190808051906020019092919050505061576590919063ffffffff16565b9050600960009054906101000a900473ffffffffffffffffffffffffffffffffffffffff1673ffffffffffffffffffffffffffffffffffffffff1663d175058583615e8d84600960009054906101000a900473ffffffffffffffffffffffffffffffffffffffff1673ffffffffffffffffffffffffffffffffffffffff1663487d2d00886040518263ffffffff1660e01b815260040180827bffffffffffffffffffffffffffffffffffffffffffffffffffffffff19167bffffffffffffffffffffffffffffffffffffffffffffffffffffffff1916815260200191505060206040518083038186803b158015615e4457600080fd5b505afa158015615e58573d6000803e3d6000fd5b505050506040513d6020811015615e6e57600080fd5b810190808051906020019092919050505061569390919063ffffffff16565b6040518363ffffffff1660e01b815260040180837bffffffffffffffffffffffffffffffffffffffffffffffffffffffff19167bffffffffffffffffffffffffffffffffffffffffffffffffffffffff1916815260200182815260200192505050600060405180830381600087803b158015615f0857600080fd5b505af1158015615f1c573d6000803e3d6000fd5b50505050600a60009054906101000a900473ffffffffffffffffffffffffffffffffffffffff1673ffffffffffffffffffffffffffffffffffffffff16632d9fa500836040518263ffffffff1660e01b815260040180827bffffffffffffffffffffffffffffffffffffffffffffffffffffffff19167bffffffffffffffffffffffffffffffffffffffffffffffffffffffff19168152602001915050600060405180830381600087803b158015615fd357600080fd5b505af1158015615fe7573d6000803e3d6000fd5b50505050600660009054906101000a900473ffffffffffffffffffffffffffffffffffffffff1673ffffffffffffffffffffffffffffffffffffffff1663a19ed78384600760009054906101000a900473ffffffffffffffffffffffffffffffffffffffff1673ffffffffffffffffffffffffffffffffffffffff16633852a2ec6040518163ffffffff1660e01b815260040160206040518083038186803b15801561609257600080fd5b505afa1580156160a6573d6000803e3d6000fd5b505050506040513d60208110156160bc57600080fd5b81019080805190602001909291905050506040518363ffffffff1660e01b81526004018083815260200182815260200192505050600060405180830381600087803b15801561610a57600080fd5b505af115801561611e573d6000803e3d6000fd5b50505050505050505050565b60008090506000600760009054906101000a900473ffffffffffffffffffffffffffffffffffffffff1673ffffffffffffffffffffffffffffffffffffffff166396ff592f856040518263ffffffff1660e01b815260040180828152602001915050604080518083038186803b1580156161a357600080fd5b505afa1580156161b7573d6000803e3d6000fd5b505050506040513d60408110156161cd57600080fd5b8101908080519060200190929190805190602001909291905050509050809150506000600b60009054906101000a900473ffffffffffffffffffffffffffffffffffffffff1673ffffffffffffffffffffffffffffffffffffffff16638b5722f4836040518263ffffffff1660e01b81526004018082815260200191505060206040518083038186803b15801561626357600080fd5b505afa158015616277573d6000803e3d6000fd5b505050506040513d602081101561628d57600080fd5b810190808051906020019092919050505090506000600c60009054906101000a900473ffffffffffffffffffffffffffffffffffffffff1673ffffffffffffffffffffffffffffffffffffffff16633cb23b2d836040518263ffffffff1660e01b815260040180827bffffffffffffffffffffffffffffffffffffffffffffffffffffffff19167bffffffffffffffffffffffffffffffffffffffffffffffffffffffff1916815260200191505060206040518083038186803b15801561635357600080fd5b505afa158015616367573d6000803e3d6000fd5b505050506040513d602081101561637d57600080fd5b81019080805190602001909291905050509050600080600760009054906101000a900473ffffffffffffffffffffffffffffffffffffffff1673ffffffffffffffffffffffffffffffffffffffff1663dbd0064c896040518263ffffffff1660e01b81526004018082815260200191505060606040518083038186803b15801561640657600080fd5b505afa15801561641a573d6000803e3d6000fd5b505050506040513d606081101561643057600080fd5b810190808051906020019092919080519060200190929190805190602001909291905050509091508092508193505050600061649d6012600a0a61648f86616481868861569390919063ffffffff16565b61576590919063ffffffff16565b6157eb90919063ffffffff16565b9050600760009054906101000a900473ffffffffffffffffffffffffffffffffffffffff1673ffffffffffffffffffffffffffffffffffffffff1663949d9d768a6040518263ffffffff1660e01b81526004018082815260200191505060606040518083038186803b15801561651257600080fd5b505afa158015616526573d6000803e3d6000fd5b505050506040513d606081101561653c57600080fd5b81019080805190602001909291908051906020019092919080519060200190929190505050909150809350819450505060006165a96012600a0a61659b8761658d878961569390919063ffffffff16565b61576590919063ffffffff16565b6157eb90919063ffffffff16565b905060006166716012600a0a600b60009054906101000a900473ffffffffffffffffffffffffffffffffffffffff1673ffffffffffffffffffffffffffffffffffffffff16631ce48f3d8b6040518263ffffffff1660e01b81526004018082815260200191505060206040518083038186803b15801561662857600080fd5b505afa15801561663c573d6000803e3d6000fd5b505050506040513d602081101561665257600080fd5b810190808051906020019092919050505061576590919063ffffffff16565b905060008a1480156166965750616692600a8261576590919063ffffffff16565b8310155b156166a457600198506166e0565b60018a101580156166b6575060058a11155b80156166d557506166d1600a8261576590919063ffffffff16565b8210155b156166df57600198505b5b505050505050505092915050565b600080600080600760009054906101000a900473ffffffffffffffffffffffffffffffffffffffff1673ffffffffffffffffffffffffffffffffffffffff16635aef2447876040518263ffffffff1660e01b81526004018082815260200191505060c06040518083038186803b15801561676757600080fd5b505afa15801561677b573d6000803e3d6000fd5b505050506040513d60c081101561679157600080fd5b810190808051906020019092919080519060200190929190805190602001909291908051906020019092919080519060200190929190805190602001909291905050509091929394509091925080965081955082975083945050505050600760009054906101000a900473ffffffffffffffffffffffffffffffffffffffff1673ffffffffffffffffffffffffffffffffffffffff16630325ea37876040518263ffffffff1660e01b815260040180828152602001915050604080518083038186803b15801561686057600080fd5b505afa158015616874573d6000803e3d6000fd5b505050506040513d604081101561688a57600080fd5b810190808051906020019092919080519060200190929190505050905080945050600c851480156168bb5750600c84145b1561695757600760009054906101000a900473ffffffffffffffffffffffffffffffffffffffff1673ffffffffffffffffffffffffffffffffffffffff16639bc5aa238760016040518363ffffffff1660e01b81526004018083815260200182815260200192505050600060405180830381600087803b15801561693e57600080fd5b505af1158015616952573d6000803e3d6000fd5b505050505b600760009054906101000a900473ffffffffffffffffffffffffffffffffffffffff1673ffffffffffffffffffffffffffffffffffffffff1663f511bdfe87876040518363ffffffff1660e01b81526004018083815260200182815260200192505050600060405180830381600087803b1580156169d457600080fd5b505af11580156169e8573d6000803e3d6000fd5b50505050603c83101580156169fd5750600c85145b15616b4057600760009054906101000a900473ffffffffffffffffffffffffffffffffffffffff1673ffffffffffffffffffffffffffffffffffffffff1663f511bdfe87600d6040518363ffffffff1660e01b81526004018083815260200182815260200192505050600060405180830381600087803b158015616a8057600080fd5b505af1158015616a94573d6000803e3d6000fd5b50505050600b60009054906101000a900473ffffffffffffffffffffffffffffffffffffffff1673ffffffffffffffffffffffffffffffffffffffff1663ae1c5eca8260026005811115616ae457fe5b6040518363ffffffff1660e01b8152600401808381526020018260ff1660ff16815260200192505050600060405180830381600087803b158015616b2757600080fd5b505af1158015616b3b573d6000803e3d6000fd5b505050505b6000429050600760009054906101000a900473ffffffffffffffffffffffffffffffffffffffff1673ffffffffffffffffffffffffffffffffffffffff16637c2af6ee88836040518363ffffffff1660e01b81526004018083815260200182815260200192505050600060405180830381600087803b158015616bc257600080fd5b505af1158015616bd6573d6000803e3d6000fd5b5050505060028610158015616bec575060058611155b15616d2957600660009054906101000a900473ffffffffffffffffffffffffffffffffffffffff1673ffffffffffffffffffffffffffffffffffffffff1663a19ed78388600760009054906101000a900473ffffffffffffffffffffffffffffffffffffffff1673ffffffffffffffffffffffffffffffffffffffff16633852a2ec6040518163ffffffff1660e01b815260040160206040518083038186803b158015616c9857600080fd5b505afa158015616cac573d6000803e3d6000fd5b505050506040513d6020811015616cc257600080fd5b81019080805190602001909291905050506040518363ffffffff1660e01b81526004018083815260200182815260200192505050600060405180830381600087803b158015616d1057600080fd5b505af1158015616d24573d6000803e3d6000fd5b505050505b600c86148015616ded575042616dea600760009054906101000a900473ffffffffffffffffffffffffffffffffffffffff1673ffffffffffffffffffffffffffffffffffffffff1663ee8dea636040518163ffffffff1660e01b815260040160206040518083038186803b158015616da057600080fd5b505afa158015616db4573d6000803e3d6000fd5b505050506040513d6020811015616dca57600080fd5b81019080805190602001909291905050508561569390919063ffffffff16565b11155b8015616df95750603c84105b15616f3a57600660009054906101000a900473ffffffffffffffffffffffffffffffffffffffff1673ffffffffffffffffffffffffffffffffffffffff1663a19ed78388600760009054906101000a900473ffffffffffffffffffffffffffffffffffffffff1673ffffffffffffffffffffffffffffffffffffffff1663ee8dea636040518163ffffffff1660e01b815260040160206040518083038186803b158015616ea557600080fd5b505afa158015616eb9573d6000803e3d6000fd5b505050506040513d6020811015616ecf57600080fd5b81019080805190602001909291905050506040518363ffffffff1660e01b81526004018083815260200182815260200192505050600060405180830381600087803b158015616f1d57600080fd5b505af1158015616f31573d6000803e3d6000fd5b5050505061717b565b600c86148015616ffd575042616ffb600760009054906101000a900473ffffffffffffffffffffffffffffffffffffffff1673ffffffffffffffffffffffffffffffffffffffff1663ee8dea636040518163ffffffff1660e01b815260040160206040518083038186803b158015616fb157600080fd5b505afa158015616fc5573d6000803e3d6000fd5b505050506040513d6020811015616fdb57600080fd5b81019080805190602001909291905050508561569390919063ffffffff16565b115b80156170095750603c84105b1561717a5760006170d7426170c9600760009054906101000a900473ffffffffffffffffffffffffffffffffffffffff1673ffffffffffffffffffffffffffffffffffffffff1663ee8dea636040518163ffffffff1660e01b815260040160206040518083038186803b15801561707f57600080fd5b505afa158015617093573d6000803e3d6000fd5b505050506040513d60208110156170a957600080fd5b81019080805190602001909291905050508761569390919063ffffffff16565b61571b90919063ffffffff16565b9050600660009054906101000a900473ffffffffffffffffffffffffffffffffffffffff1673ffffffffffffffffffffffffffffffffffffffff1663a19ed78389836040518363ffffffff1660e01b8152600401808381526020018267ffffffffffffffff16815260200192505050600060405180830381600087803b15801561716057600080fd5b505af1158015617174573d6000803e3d6000fd5b50505050505b5b50505050505050565b6000838311158290617231576040517f08c379a00000000000000000000000000000000000000000000000000000000081526004018080602001828103825283818151815260200191508051906020019080838360005b838110156171f65780820151818401526020810190506171db565b50505050905090810190601f1680156172235780820380516001836020036101000a031916815260200191505b509250505060405180910390fd5b5060008385039050809150509392505050565b600080831182906172f0576040517f08c379a00000000000000000000000000000000000000000000000000000000081526004018080602001828103825283818151815260200191508051906020019080838360005b838110156172b557808201518184015260208101905061729a565b50505050905090810190601f1680156172e25780820380516001836020036101000a031916815260200191505b509250505060405180910390fd5b5060008385816172fc57fe5b04905080915050939250505056fe536166654d6174683a206d756c7469706c69636174696f6e206f766572666c6f77a265627a7a7231582030309ead03c898e11d55dd1267c4f490b33701a968b98f800c2b4654e9b9210e64736f6c63430005110032",
  "linkReferences": {},
  "deployedLinkReferences": {}
}