{
  "_format": "hh-sol-artifact-1",
  "contractName": "DisposablePooledStaking",
  "sourceName": "contracts/NexusMutual/mocks/DisposablePooledStaking.sol",
  "abi": [
    {
      "anonymous": false,
      "inputs": [
        {
          "indexed": true,
          "internalType": "address",
          "name": "contractAddress",
          "type": "address"
        },
        {
          "indexed": false,
          "internalType": "uint256",
          "name": "amount",
          "type": "uint256"
        }
      ],
      "name": "BurnRequested",
      "type": "event"
    },
    {
      "anonymous": false,
      "inputs": [
        {
          "indexed": true,
          "internalType": "address",
          "name": "contractAddress",
          "type": "address"
        },
        {
          "indexed": false,
          "internalType": "uint256",
          "name": "amount",
          "type": "uint256"
        },
        {
          "indexed": false,
          "internalType": "uint256",
          "name": "contractStakeBeforeBurn",
          "type": "uint256"
        }
      ],
      "name": "Burned",
      "type": "event"
    },
    {
      "anonymous": false,
      "inputs": [
        {
          "indexed": true,
          "internalType": "address",
          "name": "staker",
          "type": "address"
        },
        {
          "indexed": false,
          "internalType": "uint256",
          "name": "amount",
          "type": "uint256"
        }
      ],
      "name": "Deposited",
      "type": "event"
    },
    {
      "anonymous": false,
      "inputs": [
        {
          "indexed": false,
          "internalType": "bool",
          "name": "finished",
          "type": "bool"
        }
      ],
      "name": "PendingActionsProcessed",
      "type": "event"
    },
    {
      "anonymous": false,
      "inputs": [
        {
          "indexed": true,
          "internalType": "address",
          "name": "contractAddress",
          "type": "address"
        },
        {
          "indexed": false,
          "internalType": "uint256",
          "name": "amount",
          "type": "uint256"
        }
      ],
      "name": "RewardAdded",
      "type": "event"
    },
    {
      "anonymous": false,
      "inputs": [
        {
          "indexed": true,
          "internalType": "address",
          "name": "contractAddress",
          "type": "address"
        },
        {
          "indexed": false,
          "internalType": "uint256",
          "name": "amount",
          "type": "uint256"
        }
      ],
      "name": "RewardRequested",
      "type": "event"
    },
    {
      "anonymous": false,
      "inputs": [
        {
          "indexed": true,
          "internalType": "address",
          "name": "staker",
          "type": "address"
        },
        {
          "indexed": false,
          "internalType": "uint256",
          "name": "amount",
          "type": "uint256"
        }
      ],
      "name": "RewardWithdrawn",
      "type": "event"
    },
    {
      "anonymous": false,
      "inputs": [
        {
          "indexed": true,
          "internalType": "address",
          "name": "contractAddress",
          "type": "address"
        },
        {
          "indexed": false,
          "internalType": "uint256",
          "name": "amount",
          "type": "uint256"
        },
        {
          "indexed": false,
          "internalType": "uint256",
          "name": "contractStake",
          "type": "uint256"
        }
      ],
      "name": "Rewarded",
      "type": "event"
    },
    {
      "anonymous": false,
      "inputs": [
        {
          "indexed": false,
          "internalType": "bool",
          "name": "finished",
          "type": "bool"
        },
        {
          "indexed": false,
          "internalType": "uint256",
          "name": "firstReward",
          "type": "uint256"
        },
        {
          "indexed": false,
          "internalType": "uint256",
          "name": "iterationsLeft",
          "type": "uint256"
        }
      ],
      "name": "RewardsMigrationCompleted",
      "type": "event"
    },
    {
      "anonymous": false,
      "inputs": [
        {
          "indexed": true,
          "internalType": "address",
          "name": "contractAddress",
          "type": "address"
        },
        {
          "indexed": true,
          "internalType": "address",
          "name": "staker",
          "type": "address"
        },
        {
          "indexed": false,
          "internalType": "uint256",
          "name": "amount",
          "type": "uint256"
        }
      ],
      "name": "Staked",
      "type": "event"
    },
    {
      "anonymous": false,
      "inputs": [
        {
          "indexed": true,
          "internalType": "address",
          "name": "contractAddress",
          "type": "address"
        },
        {
          "indexed": true,
          "internalType": "address",
          "name": "staker",
          "type": "address"
        },
        {
          "indexed": false,
          "internalType": "uint256",
          "name": "amount",
          "type": "uint256"
        },
        {
          "indexed": false,
          "internalType": "uint256",
          "name": "unstakeAt",
          "type": "uint256"
        }
      ],
      "name": "UnstakeRequested",
      "type": "event"
    },
    {
      "anonymous": false,
      "inputs": [
        {
          "indexed": true,
          "internalType": "address",
          "name": "contractAddress",
          "type": "address"
        },
        {
          "indexed": true,
          "internalType": "address",
          "name": "staker",
          "type": "address"
        },
        {
          "indexed": false,
          "internalType": "uint256",
          "name": "amount",
          "type": "uint256"
        }
      ],
      "name": "Unstaked",
      "type": "event"
    },
    {
      "anonymous": false,
      "inputs": [
        {
          "indexed": true,
          "internalType": "address",
          "name": "staker",
          "type": "address"
        },
        {
          "indexed": false,
          "internalType": "uint256",
          "name": "amount",
          "type": "uint256"
        }
      ],
      "name": "Withdrawn",
      "type": "event"
    },
    {
      "constant": true,
      "inputs": [],
      "name": "MAX_EXPOSURE",
      "outputs": [
        {
          "internalType": "uint256",
          "name": "",
          "type": "uint256"
        }
      ],
      "payable": false,
      "stateMutability": "view",
      "type": "function"
    },
    {
      "constant": true,
      "inputs": [],
      "name": "MIN_STAKE",
      "outputs": [
        {
          "internalType": "uint256",
          "name": "",
          "type": "uint256"
        }
      ],
      "payable": false,
      "stateMutability": "view",
      "type": "function"
    },
    {
      "constant": true,
      "inputs": [],
      "name": "MIN_UNSTAKE",
      "outputs": [
        {
          "internalType": "uint256",
          "name": "",
          "type": "uint256"
        }
      ],
      "payable": false,
      "stateMutability": "view",
      "type": "function"
    },
    {
      "constant": true,
      "inputs": [],
      "name": "REWARD_ROUNDS_START",
      "outputs": [
        {
          "internalType": "uint256",
          "name": "",
          "type": "uint256"
        }
      ],
      "payable": false,
      "stateMutability": "view",
      "type": "function"
    },
    {
      "constant": true,
      "inputs": [],
      "name": "REWARD_ROUND_DURATION",
      "outputs": [
        {
          "internalType": "uint256",
          "name": "",
          "type": "uint256"
        }
      ],
      "payable": false,
      "stateMutability": "view",
      "type": "function"
    },
    {
      "constant": true,
      "inputs": [],
      "name": "UNSTAKE_LOCK_TIME",
      "outputs": [
        {
          "internalType": "uint256",
          "name": "",
          "type": "uint256"
        }
      ],
      "payable": false,
      "stateMutability": "view",
      "type": "function"
    },
    {
      "constant": false,
      "inputs": [
        {
          "internalType": "uint256",
          "name": "maxIterations",
          "type": "uint256"
        }
      ],
      "name": "_processPendingActions",
      "outputs": [
        {
          "internalType": "bool",
          "name": "finished",
          "type": "bool"
        },
        {
          "internalType": "uint256",
          "name": "iterationsLeft",
          "type": "uint256"
        }
      ],
      "payable": false,
      "stateMutability": "nonpayable",
      "type": "function"
    },
    {
      "constant": false,
      "inputs": [
        {
          "internalType": "address",
          "name": "contractAddress",
          "type": "address"
        },
        {
          "internalType": "uint256",
          "name": "amount",
          "type": "uint256"
        }
      ],
      "name": "accumulateReward",
      "outputs": [],
      "payable": false,
      "stateMutability": "nonpayable",
      "type": "function"
    },
    {
      "constant": true,
      "inputs": [
        {
          "internalType": "address",
          "name": "",
          "type": "address"
        }
      ],
      "name": "accumulatedRewards",
      "outputs": [
        {
          "internalType": "uint256",
          "name": "amount",
          "type": "uint256"
        },
        {
          "internalType": "uint256",
          "name": "lastDistributionRound",
          "type": "uint256"
        }
      ],
      "payable": false,
      "stateMutability": "view",
      "type": "function"
    },
    {
      "constant": true,
      "inputs": [],
      "name": "burn",
      "outputs": [
        {
          "internalType": "uint256",
          "name": "amount",
          "type": "uint256"
        },
        {
          "internalType": "uint256",
          "name": "burnedAt",
          "type": "uint256"
        },
        {
          "internalType": "address",
          "name": "contractAddress",
          "type": "address"
        }
      ],
      "payable": false,
      "stateMutability": "view",
      "type": "function"
    },
    {
      "constant": false,
      "inputs": [],
      "name": "changeDependentContractAddress",
      "outputs": [],
      "payable": false,
      "stateMutability": "nonpayable",
      "type": "function"
    },
    {
      "constant": false,
      "inputs": [
        {
          "internalType": "address",
          "name": "masterAddress",
          "type": "address"
        }
      ],
      "name": "changeMasterAddress",
      "outputs": [],
      "payable": false,
      "stateMutability": "nonpayable",
      "type": "function"
    },
    {
      "constant": true,
      "inputs": [],
      "name": "contractBurned",
      "outputs": [
        {
          "internalType": "uint256",
          "name": "",
          "type": "uint256"
        }
      ],
      "payable": false,
      "stateMutability": "view",
      "type": "function"
    },
    {
      "constant": true,
      "inputs": [],
      "name": "contractRewarded",
      "outputs": [
        {
          "internalType": "uint256",
          "name": "",
          "type": "uint256"
        }
      ],
      "payable": false,
      "stateMutability": "view",
      "type": "function"
    },
    {
      "constant": true,
      "inputs": [
        {
          "internalType": "address",
          "name": "contractAddress",
          "type": "address"
        }
      ],
      "name": "contractStake",
      "outputs": [
        {
          "internalType": "uint256",
          "name": "",
          "type": "uint256"
        }
      ],
      "payable": false,
      "stateMutability": "view",
      "type": "function"
    },
    {
      "constant": true,
      "inputs": [],
      "name": "contractStaked",
      "outputs": [
        {
          "internalType": "uint256",
          "name": "",
          "type": "uint256"
        }
      ],
      "payable": false,
      "stateMutability": "view",
      "type": "function"
    },
    {
      "constant": true,
      "inputs": [
        {
          "internalType": "address",
          "name": "contractAddress",
          "type": "address"
        },
        {
          "internalType": "uint256",
          "name": "stakerIndex",
          "type": "uint256"
        }
      ],
      "name": "contractStakerAtIndex",
      "outputs": [
        {
          "internalType": "address",
          "name": "",
          "type": "address"
        }
      ],
      "payable": false,
      "stateMutability": "view",
      "type": "function"
    },
    {
      "constant": true,
      "inputs": [
        {
          "internalType": "address",
          "name": "contractAddress",
          "type": "address"
        }
      ],
      "name": "contractStakerCount",
      "outputs": [
        {
          "internalType": "uint256",
          "name": "",
          "type": "uint256"
        }
      ],
      "payable": false,
      "stateMutability": "view",
      "type": "function"
    },
    {
      "constant": true,
      "inputs": [
        {
          "internalType": "address",
          "name": "",
          "type": "address"
        },
        {
          "internalType": "uint256",
          "name": "",
          "type": "uint256"
        }
      ],
      "name": "contractStakers",
      "outputs": [
        {
          "internalType": "address",
          "name": "",
          "type": "address"
        }
      ],
      "payable": false,
      "stateMutability": "view",
      "type": "function"
    },
    {
      "constant": true,
      "inputs": [
        {
          "internalType": "address",
          "name": "contractAddress",
          "type": "address"
        }
      ],
      "name": "contractStakersArray",
      "outputs": [
        {
          "internalType": "address[]",
          "name": "_stakers",
          "type": "address[]"
        }
      ],
      "payable": false,
      "stateMutability": "view",
      "type": "function"
    },
    {
      "constant": false,
      "inputs": [
        {
          "internalType": "uint256",
          "name": "amount",
          "type": "uint256"
        },
        {
          "internalType": "address[]",
          "name": "_contracts",
          "type": "address[]"
        },
        {
          "internalType": "uint256[]",
          "name": "_stakes",
          "type": "uint256[]"
        }
      ],
      "name": "depositAndStake",
      "outputs": [],
      "payable": false,
      "stateMutability": "nonpayable",
      "type": "function"
    },
    {
      "constant": true,
      "inputs": [],
      "name": "firstReward",
      "outputs": [
        {
          "internalType": "uint256",
          "name": "",
          "type": "uint256"
        }
      ],
      "payable": false,
      "stateMutability": "view",
      "type": "function"
    },
    {
      "constant": true,
      "inputs": [],
      "name": "getCurrentRewardsRound",
      "outputs": [
        {
          "internalType": "uint256",
          "name": "",
          "type": "uint256"
        }
      ],
      "payable": false,
      "stateMutability": "view",
      "type": "function"
    },
    {
      "constant": true,
      "inputs": [],
      "name": "hasPendingActions",
      "outputs": [
        {
          "internalType": "bool",
          "name": "",
          "type": "bool"
        }
      ],
      "payable": false,
      "stateMutability": "view",
      "type": "function"
    },
    {
      "constant": true,
      "inputs": [],
      "name": "hasPendingBurns",
      "outputs": [
        {
          "internalType": "bool",
          "name": "",
          "type": "bool"
        }
      ],
      "payable": false,
      "stateMutability": "view",
      "type": "function"
    },
    {
      "constant": true,
      "inputs": [],
      "name": "hasPendingRewards",
      "outputs": [
        {
          "internalType": "bool",
          "name": "",
          "type": "bool"
        }
      ],
      "payable": false,
      "stateMutability": "view",
      "type": "function"
    },
    {
      "constant": true,
      "inputs": [],
      "name": "hasPendingUnstakeRequests",
      "outputs": [
        {
          "internalType": "bool",
          "name": "",
          "type": "bool"
        }
      ],
      "payable": false,
      "stateMutability": "view",
      "type": "function"
    },
    {
      "constant": false,
      "inputs": [],
      "name": "initialize",
      "outputs": [],
      "payable": false,
      "stateMutability": "nonpayable",
      "type": "function"
    },
    {
      "constant": false,
      "inputs": [
        {
          "internalType": "address",
          "name": "_tokenControllerAddress",
          "type": "address"
        },
        {
          "internalType": "uint256",
          "name": "minStake",
          "type": "uint256"
        },
        {
          "internalType": "uint256",
          "name": "minUnstake",
          "type": "uint256"
        },
        {
          "internalType": "uint256",
          "name": "maxExposure",
          "type": "uint256"
        },
        {
          "internalType": "uint256",
          "name": "unstakeLockTime",
          "type": "uint256"
        }
      ],
      "name": "initialize",
      "outputs": [],
      "payable": false,
      "stateMutability": "nonpayable",
      "type": "function"
    },
    {
      "constant": false,
      "inputs": [],
      "name": "initializeRewardRoundsStart",
      "outputs": [],
      "payable": false,
      "stateMutability": "nonpayable",
      "type": "function"
    },
    {
      "constant": true,
      "inputs": [],
      "name": "initialized",
      "outputs": [
        {
          "internalType": "bool",
          "name": "",
          "type": "bool"
        }
      ],
      "payable": false,
      "stateMutability": "view",
      "type": "function"
    },
    {
      "constant": true,
      "inputs": [],
      "name": "isContractStakeCalculated",
      "outputs": [
        {
          "internalType": "bool",
          "name": "",
          "type": "bool"
        }
      ],
      "payable": false,
      "stateMutability": "view",
      "type": "function"
    },
    {
      "constant": true,
      "inputs": [],
      "name": "lastRewardId",
      "outputs": [
        {
          "internalType": "uint256",
          "name": "",
          "type": "uint256"
        }
      ],
      "payable": false,
      "stateMutability": "view",
      "type": "function"
    },
    {
      "constant": true,
      "inputs": [],
      "name": "lastUnstakeRequestId",
      "outputs": [
        {
          "internalType": "uint256",
          "name": "",
          "type": "uint256"
        }
      ],
      "payable": false,
      "stateMutability": "view",
      "type": "function"
    },
    {
      "constant": true,
      "inputs": [],
      "name": "master",
      "outputs": [
        {
          "internalType": "contract INXMMaster",
          "name": "",
          "type": "address"
        }
      ],
      "payable": false,
      "stateMutability": "view",
      "type": "function"
    },
    {
      "constant": false,
      "inputs": [
        {
          "internalType": "uint256",
          "name": "maxIterations",
          "type": "uint256"
        }
      ],
      "name": "migrateRewardsToAccumulatedRewards",
      "outputs": [
        {
          "internalType": "bool",
          "name": "finished",
          "type": "bool"
        },
        {
          "internalType": "uint256",
          "name": "iterationsLeft",
          "type": "uint256"
        }
      ],
      "payable": false,
      "stateMutability": "nonpayable",
      "type": "function"
    },
    {
      "constant": false,
      "inputs": [
        {
          "internalType": "uint256",
          "name": "maxIterations",
          "type": "uint256"
        }
      ],
      "name": "processPendingActions",
      "outputs": [
        {
          "internalType": "bool",
          "name": "finished",
          "type": "bool"
        }
      ],
      "payable": false,
      "stateMutability": "nonpayable",
      "type": "function"
    },
    {
      "constant": false,
      "inputs": [
        {
          "internalType": "uint256",
          "name": "maxIterations",
          "type": "uint256"
        }
      ],
      "name": "processPendingActionsReturnLeft",
      "outputs": [
        {
          "internalType": "bool",
          "name": "finished",
          "type": "bool"
        },
        {
          "internalType": "uint256",
          "name": "iterationsLeft",
          "type": "uint256"
        }
      ],
      "payable": false,
      "stateMutability": "nonpayable",
      "type": "function"
    },
    {
      "constant": true,
      "inputs": [],
      "name": "processedToStakerIndex",
      "outputs": [
        {
          "internalType": "uint256",
          "name": "",
          "type": "uint256"
        }
      ],
      "payable": false,
      "stateMutability": "view",
      "type": "function"
    },
    {
      "constant": false,
      "inputs": [
        {
          "internalType": "address",
          "name": "contractAddress",
          "type": "address"
        },
        {
          "internalType": "uint256",
          "name": "amount",
          "type": "uint256"
        }
      ],
      "name": "pushBurn",
      "outputs": [],
      "payable": false,
      "stateMutability": "nonpayable",
      "type": "function"
    },
    {
      "constant": false,
      "inputs": [
        {
          "internalType": "address[]",
          "name": "contractAddresses",
          "type": "address[]"
        }
      ],
      "name": "pushRewards",
      "outputs": [],
      "payable": false,
      "stateMutability": "nonpayable",
      "type": "function"
    },
    {
      "constant": false,
      "inputs": [
        {
          "internalType": "address[]",
          "name": "_contracts",
          "type": "address[]"
        },
        {
          "internalType": "uint256[]",
          "name": "_amounts",
          "type": "uint256[]"
        },
        {
          "internalType": "uint256",
          "name": "_insertAfter",
          "type": "uint256"
        }
      ],
      "name": "requestUnstake",
      "outputs": [],
      "payable": false,
      "stateMutability": "nonpayable",
      "type": "function"
    },
    {
      "constant": true,
      "inputs": [
        {
          "internalType": "uint256",
          "name": "",
          "type": "uint256"
        }
      ],
      "name": "rewards",
      "outputs": [
        {
          "internalType": "uint256",
          "name": "amount",
          "type": "uint256"
        },
        {
          "internalType": "uint256",
          "name": "rewardedAt",
          "type": "uint256"
        },
        {
          "internalType": "address",
          "name": "contractAddress",
          "type": "address"
        }
      ],
      "payable": false,
      "stateMutability": "view",
      "type": "function"
    },
    {
      "constant": true,
      "inputs": [
        {
          "internalType": "address",
          "name": "staker",
          "type": "address"
        },
        {
          "internalType": "uint256",
          "name": "contractIndex",
          "type": "uint256"
        }
      ],
      "name": "stakerContractAtIndex",
      "outputs": [
        {
          "internalType": "address",
          "name": "",
          "type": "address"
        }
      ],
      "payable": false,
      "stateMutability": "view",
      "type": "function"
    },
    {
      "constant": true,
      "inputs": [
        {
          "internalType": "address",
          "name": "staker",
          "type": "address"
        }
      ],
      "name": "stakerContractCount",
      "outputs": [
        {
          "internalType": "uint256",
          "name": "",
          "type": "uint256"
        }
      ],
      "payable": false,
      "stateMutability": "view",
      "type": "function"
    },
    {
      "constant": true,
      "inputs": [
        {
          "internalType": "address",
          "name": "staker",
          "type": "address"
        },
        {
          "internalType": "address",
          "name": "contractAddress",
          "type": "address"
        }
      ],
      "name": "stakerContractPendingUnstakeTotal",
      "outputs": [
        {
          "internalType": "uint256",
          "name": "",
          "type": "uint256"
        }
      ],
      "payable": false,
      "stateMutability": "view",
      "type": "function"
    },
    {
      "constant": true,
      "inputs": [
        {
          "internalType": "address",
          "name": "staker",
          "type": "address"
        },
        {
          "internalType": "address",
          "name": "contractAddress",
          "type": "address"
        }
      ],
      "name": "stakerContractStake",
      "outputs": [
        {
          "internalType": "uint256",
          "name": "",
          "type": "uint256"
        }
      ],
      "payable": false,
      "stateMutability": "view",
      "type": "function"
    },
    {
      "constant": true,
      "inputs": [
        {
          "internalType": "address",
          "name": "staker",
          "type": "address"
        }
      ],
      "name": "stakerContractsArray",
      "outputs": [
        {
          "internalType": "address[]",
          "name": "",
          "type": "address[]"
        }
      ],
      "payable": false,
      "stateMutability": "view",
      "type": "function"
    },
    {
      "constant": true,
      "inputs": [
        {
          "internalType": "address",
          "name": "staker",
          "type": "address"
        }
      ],
      "name": "stakerDeposit",
      "outputs": [
        {
          "internalType": "uint256",
          "name": "",
          "type": "uint256"
        }
      ],
      "payable": false,
      "stateMutability": "view",
      "type": "function"
    },
    {
      "constant": true,
      "inputs": [
        {
          "internalType": "address",
          "name": "stakerAddress",
          "type": "address"
        }
      ],
      "name": "stakerMaxWithdrawable",
      "outputs": [
        {
          "internalType": "uint256",
          "name": "",
          "type": "uint256"
        }
      ],
      "payable": false,
      "stateMutability": "view",
      "type": "function"
    },
    {
      "constant": true,
      "inputs": [
        {
          "internalType": "address",
          "name": "staker",
          "type": "address"
        }
      ],
      "name": "stakerReward",
      "outputs": [
        {
          "internalType": "uint256",
          "name": "",
          "type": "uint256"
        }
      ],
      "payable": false,
      "stateMutability": "view",
      "type": "function"
    },
    {
      "constant": true,
      "inputs": [
        {
          "internalType": "address",
          "name": "",
          "type": "address"
        }
      ],
      "name": "stakers",
      "outputs": [
        {
          "internalType": "uint256",
          "name": "deposit",
          "type": "uint256"
        },
        {
          "internalType": "uint256",
          "name": "reward",
          "type": "uint256"
        }
      ],
      "payable": false,
      "stateMutability": "view",
      "type": "function"
    },
    {
      "constant": true,
      "inputs": [],
      "name": "token",
      "outputs": [
        {
          "internalType": "contract NXMToken",
          "name": "",
          "type": "address"
        }
      ],
      "payable": false,
      "stateMutability": "view",
      "type": "function"
    },
    {
      "constant": true,
      "inputs": [],
      "name": "tokenController",
      "outputs": [
        {
          "internalType": "contract TokenController",
          "name": "",
          "type": "address"
        }
      ],
      "payable": false,
      "stateMutability": "view",
      "type": "function"
    },
    {
      "constant": true,
      "inputs": [
        {
          "internalType": "uint256",
          "name": "unstakeRequestId",
          "type": "uint256"
        }
      ],
      "name": "unstakeRequestAtIndex",
      "outputs": [
        {
          "internalType": "uint256",
          "name": "amount",
          "type": "uint256"
        },
        {
          "internalType": "uint256",
          "name": "unstakeAt",
          "type": "uint256"
        },
        {
          "internalType": "address",
          "name": "contractAddress",
          "type": "address"
        },
        {
          "internalType": "address",
          "name": "stakerAddress",
          "type": "address"
        },
        {
          "internalType": "uint256",
          "name": "next",
          "type": "uint256"
        }
      ],
      "payable": false,
      "stateMutability": "view",
      "type": "function"
    },
    {
      "constant": true,
      "inputs": [
        {
          "internalType": "uint256",
          "name": "",
          "type": "uint256"
        }
      ],
      "name": "unstakeRequests",
      "outputs": [
        {
          "internalType": "uint256",
          "name": "amount",
          "type": "uint256"
        },
        {
          "internalType": "uint256",
          "name": "unstakeAt",
          "type": "uint256"
        },
        {
          "internalType": "address",
          "name": "contractAddress",
          "type": "address"
        },
        {
          "internalType": "address",
          "name": "stakerAddress",
          "type": "address"
        },
        {
          "internalType": "uint256",
          "name": "next",
          "type": "uint256"
        }
      ],
      "payable": false,
      "stateMutability": "view",
      "type": "function"
    },
    {
      "constant": false,
      "inputs": [
        {
          "internalType": "bytes8",
          "name": "code",
          "type": "bytes8"
        },
        {
          "internalType": "uint256",
          "name": "value",
          "type": "uint256"
        }
      ],
      "name": "updateUintParameters",
      "outputs": [],
      "payable": false,
      "stateMutability": "nonpayable",
      "type": "function"
    },
    {
      "constant": false,
      "inputs": [
        {
          "internalType": "uint256",
          "name": "amount",
          "type": "uint256"
        }
      ],
      "name": "withdraw",
      "outputs": [],
      "payable": false,
      "stateMutability": "nonpayable",
      "type": "function"
    },
    {
      "constant": false,
      "inputs": [
        {
          "internalType": "address",
          "name": "stakerAddress",
          "type": "address"
        }
      ],
      "name": "withdrawReward",
      "outputs": [],
      "payable": false,
      "stateMutability": "nonpayable",
      "type": "function"
    }
  ],
  "bytecode": "0x608060405234801561001057600080fd5b50614cc5806100206000396000f3fe608060405234801561001057600080fd5b50600436106103995760003560e01c8063908ad10a116101e9578063e3bc92c01161010f578063f2078db5116100ad578063f87975af1161007c578063f87975af14610b5e578063f92ad21914610b7b578063fc0c546a14610bb9578063ff551c8414610bc157610399565b8063f2078db514610aa5578063f301af4214610acb578063f52790bc14610ae8578063f6ceefa214610af057610399565b8063eddd9d82116100e9578063eddd9d8214610a3d578063ee97f7f314610a45578063ef30375d14610a4d578063f0f923c014610a7957610399565b8063e3bc92c0146109b5578063ead4d17414610a07578063eae0171814610a0f57610399565b8063abb215be11610187578063c65cfd5211610156578063c65cfd5214610953578063cb1c2b5c1461095b578063d46655f414610963578063d6b5b8521461098957610399565b8063abb215be14610825578063afd369fd14610842578063b86e321c14610868578063c001472e1461088e57610399565b80639c6f6e84116101c35780639c6f6e84146107cb5780639dd86e0f146107d3578063a4cc380b14610800578063a81d80101461080857610399565b8063908ad10a146107955780639168ae721461079d5780639abbed05146107c357610399565b806334892cea116102ce5780637272135a1161026c57806375a7720f1161023b57806375a7720f146106835780638129fc1c146106a957806385b39d83146106b15780638e91e6bd146106d757610399565b80637272135a1461062c57806372af29321461063457806373f273fc1461063c57806374ff6b901461067b57610399565b80635840ee44116102a85780635840ee441461052c5780635ce92976146105a257806365f212f9146105da57806368989a591461060057610399565b806334892cea146104a957806339ac5eb9146104d757806344df8e70146104fd57610399565b806316faaa8f1161033b57806324f412541161031557806324f4125414610474578063285ece4e1461047c5780632e1a7d4d146104845780632e23dc8f146104a157610399565b806316faaa8f1461045c5780631a839ba71461046457806322b1c2961461046c57610399565b80631354839d116103775780631354839d146103e8578063158ef93e1461043057806315c5673c1461044c5780631694a36a1461045457610399565b80630ca6de031461039e5780630ea474c7146103b85780630ea9c984146103de575b600080fd5b6103a6610bde565b60408051918252519081900360200190f35b6103a6600480360360208110156103ce57600080fd5b50356001600160a01b0316610be4565b6103e6610c02565b005b610414600480360360408110156103fe57600080fd5b506001600160a01b038135169060200135610d53565b604080516001600160a01b039092168252519081900360200190f35b610438610d88565b604080519115158252519081900360200190f35b6103a6610d98565b6103a6610d9e565b6103e6610da4565b610438610e15565b610438610e6b565b6103a6610e96565b6103a6610e9c565b6103e66004803603602081101561049a57600080fd5b5035610ea2565b6103a66111e8565b6103a6600480360360408110156104bf57600080fd5b506001600160a01b03813581169160200135166111ee565b6103a6600480360360208110156104ed57600080fd5b50356001600160a01b031661121f565b61050561123a565b6040805193845260208401929092526001600160a01b031682820152519081900360600190f35b6105526004803603602081101561054257600080fd5b50356001600160a01b031661124f565b60408051602080825283518183015283519192839290830191858101910280838360005b8381101561058e578181015183820152602001610576565b505050509050019250505060405180910390f35b6105bf600480360360208110156105b857600080fd5b50356112c8565b60408051921515835260208301919091528051918290030190f35b6103a6600480360360208110156105f057600080fd5b50356001600160a01b03166114ec565b6103e66004803603604081101561061657600080fd5b506001600160a01b03813516906020013561159c565b610438611857565b6103a661185f565b6106626004803603602081101561065257600080fd5b50356001600160a01b0316611865565b6040805192835260208301919091528051918290030190f35b6103a661187e565b6103a66004803603602081101561069957600080fd5b50356001600160a01b0316611888565b6103e66118a6565b6103a6600480360360208110156106c757600080fd5b50356001600160a01b031661197e565b6103e6600480360360608110156106ed57600080fd5b810190602081018135600160201b81111561070757600080fd5b82018360208201111561071957600080fd5b803590602001918460208302840111600160201b8311171561073a57600080fd5b919390929091602081019035600160201b81111561075757600080fd5b82018360208201111561076957600080fd5b803590602001918460208302840111600160201b8311171561078a57600080fd5b919350915035611999565b6103a6612087565b610662600480360360208110156107b357600080fd5b50356001600160a01b031661208d565b6103a66120a6565b6103a66120ac565b6103e6600480360360408110156107e957600080fd5b506001600160c01b031981351690602001356120b2565b610438612200565b6105bf6004803603602081101561081e57600080fd5b503561221a565b6105bf6004803603602081101561083b57600080fd5b5035612516565b6103a66004803603602081101561085857600080fd5b50356001600160a01b031661262e565b6103e66004803603602081101561087e57600080fd5b50356001600160a01b0316612716565b6103e6600480360360608110156108a457600080fd5b81359190810190604081016020820135600160201b8111156108c557600080fd5b8201836020820111156108d757600080fd5b803590602001918460208302840111600160201b831117156108f857600080fd5b919390929091602081019035600160201b81111561091557600080fd5b82018360208201111561092757600080fd5b803590602001918460208302840111600160201b8311171561094857600080fd5b509092509050612900565b6103a66131e5565b6103a66131eb565b6103e66004803603602081101561097957600080fd5b50356001600160a01b03166131f1565b6104146004803603604081101561099f57600080fd5b506001600160a01b038135169060200135613270565b6109d2600480360360208110156109cb57600080fd5b50356132b0565b6040805195865260208601949094526001600160a01b0392831685850152911660608401526080830152519081900360a00190f35b6104386132ea565b6103a660048036036040811015610a2557600080fd5b506001600160a01b03813581169160200135166132f3565b61041461333b565b61041461334a565b61041460048036036040811015610a6357600080fd5b506001600160a01b038135169060200135613359565b6103e660048036036040811015610a8f57600080fd5b506001600160a01b038135169060200135613380565b61055260048036036020811015610abb57600080fd5b50356001600160a01b0316613608565b61050560048036036020811015610ae157600080fd5b503561367c565b6103a66136a6565b6103e660048036036020811015610b0657600080fd5b810190602081018135600160201b811115610b2057600080fd5b820183602082011115610b3257600080fd5b803590602001918460208302840111600160201b83111715610b5357600080fd5b5090925090506136ac565b6109d260048036036020811015610b7457600080fd5b50356137f2565b6103e6600480360360a0811015610b9157600080fd5b506001600160a01b03813516906020810135906040810135906060810135906080013561382e565b6104146138dc565b61043860048036036020811015610bd757600080fd5b50356138eb565b60055481565b6001600160a01b031660009081526007602052604090206001015490565b6000809054906101000a90046001600160a01b03166001600160a01b0316639d76ea586040518163ffffffff1660e01b815260040160206040518083038186803b158015610c4f57600080fd5b505afa158015610c63573d6000803e3d6000fd5b505050506040513d6020811015610c7957600080fd5b5051600180546001600160a01b0319166001600160a01b03928316179055600054604080516227050b60e31b815261544360f01b6004820152905191909216916301382858916024808301926020929190829003018186803b158015610cde57600080fd5b505afa158015610cf2573d6000803e3d6000fd5b505050506040513d6020811015610d0857600080fd5b5051600280546001600160a01b0319166001600160a01b03909216919091179055600054600160a01b900460ff16610d4257610d426118a6565b601854610d5157610d51610da4565b565b600b6020528160005260406000208181548110610d6c57fe5b6000918252602090912001546001600160a01b03169150829050565b600054600160a01b900460ff1681565b60145481565b60185481565b60185415610de35760405162461bcd60e51b8152600401808060200182810382526027815260200180614a236027913960400191505060405180910390fd5b635f5f311060185562093a806017556040516000908060336149f0823960405190819003603301902060115490555050565b600080805260126020527f7e7fa33969761a458e04f477e039a608702b4f924981d6653935a8319a08ad7f5480610e50576000915050610e68565b60009081526012602052604090206001015442101590505b90565b6000610e75611857565b80610e835750610e83610e15565b80610e915750610e91612200565b905090565b60045481565b60175481565b6000809054906101000a90046001600160a01b03166001600160a01b031663ff0938a76040518163ffffffff1660e01b815260040160206040518083038186803b158015610eef57600080fd5b505afa158015610f03573d6000803e3d6000fd5b505050506040513d6020811015610f1957600080fd5b505115610f60576040805162461bcd60e51b815260206004820152601060248201526f14de5cdd195b481a5cc81c185d5cd95960821b604482015290519081900360640190fd5b600054600160a01b900460ff16610fac576040805162461bcd60e51b815260206004820152601b6024820152600080516020614b7d833981519152604482015290519081900360640190fd5b6000546040805163288c314960e21b815233600482015290516001600160a01b039092169163a230c52491602480820192602092909190829003018186803b158015610ff757600080fd5b505afa15801561100b573d6000803e3d6000fd5b505050506040513d602081101561102157600080fd5b505161106d576040805162461bcd60e51b815260206004820152601660248201527521b0b63632b91034b9903737ba10309036b2b6b132b960511b604482015290519081900360640190fd5b611075611857565b156110b15760405162461bcd60e51b81526004018080602001828103825260308152602001806148496030913960400191505060405180910390fd5b60006110bc3361262e565b9050818110156110fd5760405162461bcd60e51b81526004018080602001828103825260308152602001806149576030913960400191505060405180910390fd5b3360009081526007602052604090205461111d908363ffffffff613a0716565b33600081815260076020908152604080832094909455600154845163a9059cbb60e01b815260048101949094526024840187905293516001600160a01b039094169363a9059cbb93604480820194918390030190829087803b15801561118257600080fd5b505af1158015611196573d6000803e3d6000fd5b505050506040513d60208110156111ac57600080fd5b505060408051838152905133917f7084f5476618d8e60b11ef0d7d3f06914655adb8793e28ff7f018d4c76d505d5919081900360200190a25050565b60105481565b6001600160a01b03808316600090815260076020908152604080832093851683526004909301905220545b92915050565b6001600160a01b031660009081526007602052604090205490565b600c54600d54600e546001600160a01b031683565b6001600160a01b0381166000908152600760209081526040918290206002018054835181840281018401909452808452606093928301828280156112bc57602002820191906000526020600020905b81546001600160a01b0316815260019091019060200180831161129e575b50505050509050919050565b60008060105460001415611318576040805162461bcd60e51b81526020600482015260126024820152714e6f7468696e6720746f206d69677261746560701b604482015290519081900360640190fd5b60008060405180806149f06033913960330190506040518091039020905080549150816010541115611391576040805162461bcd60e51b815260206004820152601a60248201527f4578636565646564206c617374206d6967726174696f6e206964000000000000604482015290519081900360640190fd5b8492505b831580156113a35750600083115b15611494576010546000908152600f6020908152604080832060028101546001600160a01b03168452601690925290912081548154600019909601956113ee9163ffffffff613a5016565b81556002820154825460408051918252516001600160a01b03909216917fac24935fd910bc682b5ccb1a07b718cadf8cf2f6d1404c4f3ddc3662dae40e299181900360200190a2601080546000908152600f6020526040812081815560018082019290925560020180546001600160a01b03191690558154019081905584101561147757600195505b601154601054111561148d576000601055600195505b5050611395565b831561149f57600081555b6010546040805186151581526020810192909252818101859052517f26428374401ca9c5de60f1a0ec5c8be7450ddc4f9ce9731bbae77d3c40e77cf39181900360600190a150505b915091565b6001600160a01b0381166000908152600b60205260408120805482805b828110156115935760006007600086848154811061152357fe5b60009182526020808320909101546001600160a01b03908116845283820194909452604092830182208054948c168352600381019091529190205490925080821061156e5780611570565b815b9050611582858263ffffffff613a5016565b945050600190920191506115099050565b50949350505050565b600054604080516323c5b10760e21b815233600482015290516001600160a01b0390921691638f16c41c91602480820192602092909190829003018186803b1580156115e757600080fd5b505afa1580156115fb573d6000803e3d6000fd5b505050506040513d602081101561161157600080fd5b505161164e5760405162461bcd60e51b8152600401808060200182810382526022815260200180614b5b6022913960400191505060405180910390fd5b6000809054906101000a90046001600160a01b03166001600160a01b031663ff0938a76040518163ffffffff1660e01b815260040160206040518083038186803b15801561169b57600080fd5b505afa1580156116af573d6000803e3d6000fd5b505050506040513d60208110156116c557600080fd5b50511561170c576040805162461bcd60e51b815260206004820152601060248201526f14de5cdd195b481a5cc81c185d5cd95960821b604482015290519081900360640190fd5b600054600160a01b900460ff16611758576040805162461bcd60e51b815260206004820152601b6024820152600080516020614b7d833981519152604482015290519081900360640190fd5b611760611857565b1561179c5760405162461bcd60e51b81526004018080602001828103825260308152602001806148496030913960400191505060405180910390fd5b6040805160018082528183019092526060916020808301908038833901905050905082816000815181106117cc57fe5b60200260200101906001600160a01b031690816001600160a01b0316815250506117f7816001613aaa565b600c82905542600d55600e80546001600160a01b0385166001600160a01b031990911681179091556040805184815290517f5d06931c8dc69a16ea07030839ba70d3794cbda4dc0e16718165f9054db87a5a9181900360200190a2505050565b600d54151590565b60135481565b6016602052600090815260409020805460019091015482565b6000610e91613c1e565b6001600160a01b031660009081526007602052604090206002015490565b600054600160a01b900460ff1615611905576040805162461bcd60e51b815260206004820152601f60248201527f436f6e747261637420697320616c726561647920696e697469616c697a656400604482015290519081900360640190fd5b6002546040805163e43252d760e01b815230600482015290516001600160a01b039092169163e43252d79160248082019260009290919082900301818387803b15801561195157600080fd5b505af1158015611965573d6000803e3d6000fd5b50506000805460ff60a01b1916600160a01b1790555050565b6001600160a01b03166000908152600b602052604090205490565b6000809054906101000a90046001600160a01b03166001600160a01b031663ff0938a76040518163ffffffff1660e01b815260040160206040518083038186803b1580156119e657600080fd5b505afa1580156119fa573d6000803e3d6000fd5b505050506040513d6020811015611a1057600080fd5b505115611a57576040805162461bcd60e51b815260206004820152601060248201526f14de5cdd195b481a5cc81c185d5cd95960821b604482015290519081900360640190fd5b600054600160a01b900460ff16611aa3576040805162461bcd60e51b815260206004820152601b6024820152600080516020614b7d833981519152604482015290519081900360640190fd5b6000546040805163288c314960e21b815233600482015290516001600160a01b039092169163a230c52491602480820192602092909190829003018186803b158015611aee57600080fd5b505afa158015611b02573d6000803e3d6000fd5b505050506040513d6020811015611b1857600080fd5b5051611b64576040805162461bcd60e51b815260206004820152601660248201527521b0b63632b91034b9903737ba10309036b2b6b132b960511b604482015290519081900360640190fd5b838214611ba25760405162461bcd60e51b815260040180806020018281038252603881526020018061491f6038913960400191505060405180910390fd5b601354811115611be35760405162461bcd60e51b81526004018080602001828103825260238152602001806149876023913960400191505060405180910390fd5b336000908152600760205260408120805460065491929091849190611c0f90429063ffffffff613a5016565b60008381526012602052604090209091508215611c66576001810154611c665760405162461bcd60e51b8152600401808060200182810382526037815260200180614b026037913960400191505060405180910390fd5b60005b8981101561207a5760008b8b83818110611c7f57fe5b602090810292909201356001600160a01b0316600081815260038b019093526040909220549192505086811115611cb35750855b6001600160a01b0382166000908152600489016020526040812054908c8c86818110611cdb57fe5b9050602002013590506000838311611d0257611cfd848463ffffffff613a0716565b611d05565b60005b905060008111611d465760405162461bcd60e51b81526004018080602001828103825260238152602001806149cd6023913960400191505060405180910390fd5b80821115611d9b576040805162461bcd60e51b815260206004820152601f60248201527f43616e6e6f7420756e7374616b65206d6f7265207468616e207374616b656400604482015290519081900360640190fd5b808214611e3357600554821015611de35760405162461bcd60e51b815260040180806020018281038252603a815260200180614ac8603a913960400191505060405180910390fd5b600354611df6828463ffffffff613a0716565b1015611e335760405162461bcd60e51b815260040180806020018281038252603a815260200180614c0f603a913960400191505060405180910390fd5b8660010154881015611e765760405162461bcd60e51b8152600401808060200182810382526049815260200180614bc66049913960600191505060405180910390fd5b600487015415611ed7576004870154600090815260126020526040902060018101548910611ed55760405162461bcd60e51b81526004018080602001828103825260478152602001806148a66047913960600191505060405180910390fd5b505b60136000815460010191905081905598506040518060a00160405280838152602001898152602001866001600160a01b03168152602001336001600160a01b031681526020018860040154815250601260008b8152602001908152602001600020600082015181600001556020820151816001015560408201518160020160006101000a8154816001600160a01b0302191690836001600160a01b0316021790555060608201518160030160006101000a8154816001600160a01b0302191690836001600160a01b0316021790555060808201518160040155905050888760040181905550336001600160a01b0316856001600160a01b03167ffe07ce9fff39f8420b3de5fbc6909ce08f809e2572b62f9df35c25f56d610bb0848b604051808381526020018281526020019250505060405180910390a36001600160a01b038516600090815260048c01602052604081205461203a908463ffffffff613a5016565b6001600160a01b03909616600090815260048d0160209081526040808320989098558b8252601290529590952096505060019094019350611c6992505050565b5050505050505050505050565b60065481565b6007602052600090815260409020805460019091015482565b600a5481565b60095481565b60005460408051632c1a733d60e11b815233600482015290516001600160a01b0390921691635834e67a91602480820192602092909190829003018186803b1580156120fd57600080fd5b505afa158015612111573d6000803e3d6000fd5b505050506040513d602081101561212757600080fd5b50516121645760405162461bcd60e51b8152600401808060200182810382526022815260200180614b396022913960400191505060405180910390fd5b674d494e5f5354414b60c01b6001600160c01b03198316141561218b5760038190556121fc565b674d41585f4558504f60c01b6001600160c01b0319831614156121b25760048190556121fc565b6713525397d55394d560c21b6001600160c01b0319831614156121d95760058190556121fc565b67155394d517d312d560c21b6001600160c01b0319831614156121fc5760068190555b5050565b6010546000908152600f6020526040902060010154151590565b6000805460408051600162f6c75960e01b03198152905183926001600160a01b03169163ff0938a7916004808301926020929190829003018186803b15801561226257600080fd5b505afa158015612276573d6000803e3d6000fd5b505050506040513d602081101561228c57600080fd5b5051156122d3576040805162461bcd60e51b815260206004820152601060248201526f14de5cdd195b481a5cc81c185d5cd95960821b604482015290519081900360640190fd5b600054600160a01b900460ff1661231f576040805162461bcd60e51b815260206004820152601b6024820152600080516020614b7d833981519152604482015290519081900360640190fd5b50815b601260209081527f7e7fa33969761a458e04f477e039a608702b4f924981d6653935a8319a08ad7f54600081815260408082206010548352600f9094528120600d546001808301549086015494959492939192909186158015906123865750428211155b60105490915084158015911515908261239d575082155b80156123a7575080155b156123ba575050505050505050506124d9565b8180156123ce57508215806123ce57508386105b80156123e157508015806123e157508486105b1561244e576123ef8a613c87565b909b5099508a61244057604080516000815290517ff3b343b97db20514b20b9c54105a005716230e231e9bf5d180b1a0dfe6e4fb8a9181900360200190a150600099506114e7975050505050505050565b505050505050505050612322565b828015612462575080158061246257508484105b156124d057896124b357604080516000815290517ff3b343b97db20514b20b9c54105a005716230e231e9bf5d180b1a0dfe6e4fb8a9181900360200190a150600099506114e7975050505050505050565b6124bb613f4e565b89600190039950505050505050505050612322565b6123ef8a614133565b604080516001815290517ff3b343b97db20514b20b9c54105a005716230e231e9bf5d180b1a0dfe6e4fb8a9181900360200190a160019150915091565b6000805460408051600162f6c75960e01b03198152905183926001600160a01b03169163ff0938a7916004808301926020929190829003018186803b15801561255e57600080fd5b505afa158015612572573d6000803e3d6000fd5b505050506040513d602081101561258857600080fd5b5051156125cf576040805162461bcd60e51b815260206004820152601060248201526f14de5cdd195b481a5cc81c185d5cd95960821b604482015290519081900360640190fd5b600054600160a01b900460ff1661261b576040805162461bcd60e51b815260206004820152601b6024820152600080516020614b7d833981519152604482015290519081900360640190fd5b6126248361221a565b9094909350915050565b6001600160a01b038116600090815260076020526040812080548280805b60028501548110156126cd57600085600201828154811061266957fe5b60009182526020808320909101546001600160a01b0316808352600389019091526040822054909250908187106126a057816126a2565b865b90506126b4868263ffffffff613a5016565b9550848111156126c2578094505b50505060010161264c565b5060006126e56004548461442490919063ffffffff16565b905060008183116126f657816126f8565b825b905061270a858263ffffffff613a0716565b98975050505050505050565b6000809054906101000a90046001600160a01b03166001600160a01b031663ff0938a76040518163ffffffff1660e01b815260040160206040518083038186803b15801561276357600080fd5b505afa158015612777573d6000803e3d6000fd5b505050506040513d602081101561278d57600080fd5b5051156127d4576040805162461bcd60e51b815260206004820152601060248201526f14de5cdd195b481a5cc81c185d5cd95960821b604482015290519081900360640190fd5b600054600160a01b900460ff16612820576040805162461bcd60e51b815260206004820152601b6024820152600080516020614b7d833981519152604482015290519081900360640190fd5b6001600160a01b03808216600081815260076020908152604080832060019081018054908590559054825163a9059cbb60e01b815260048101969096526024860182905291519095919091169363a9059cbb9360448083019493928390030190829087803b15801561289157600080fd5b505af11580156128a5573d6000803e3d6000fd5b505050506040513d60208110156128bb57600080fd5b50506040805182815290516001600160a01b038416917f1d3eee4ca001cff39eec6ec7615aacf2f2bd61791273830728ba00ccbd6e1337919081900360200190a25050565b6000809054906101000a90046001600160a01b03166001600160a01b031663ff0938a76040518163ffffffff1660e01b815260040160206040518083038186803b15801561294d57600080fd5b505afa158015612961573d6000803e3d6000fd5b505050506040513d602081101561297757600080fd5b5051156129be576040805162461bcd60e51b815260206004820152601060248201526f14de5cdd195b481a5cc81c185d5cd95960821b604482015290519081900360640190fd5b600054600160a01b900460ff16612a0a576040805162461bcd60e51b815260206004820152601b6024820152600080516020614b7d833981519152604482015290519081900360640190fd5b6000546040805163288c314960e21b815233600482015290516001600160a01b039092169163a230c52491602480820192602092909190829003018186803b158015612a5557600080fd5b505afa158015612a69573d6000803e3d6000fd5b505050506040513d6020811015612a7f57600080fd5b5051612acb576040805162461bcd60e51b815260206004820152601660248201527521b0b63632b91034b9903737ba10309036b2b6b132b960511b604482015290519081900360640190fd5b612ad3610e6b565b15612b0f5760405162461bcd60e51b81526004018080602001828103825260328152602001806148ed6032913960400191505060405180910390fd5b336000908152600760205260409020600281015480851015612b625760405162461bcd60e51b8152600401808060200182810382526029815260200180614b9d6029913960400191505060405180910390fd5b848314612ba05760405162461bcd60e51b8152600401808060200182810382526037815260200180614a916037913960400191505060405180910390fd5b815460009081612bb6828b63ffffffff613a5016565b80865560025460408051630d1af10360e01b8152336004820152306024820152604481018e905290519293506001600160a01b0390911691630d1af103916064808201926020929091908290030181600087803b158015612c1657600080fd5b505af1158015612c2a573d6000803e3d6000fd5b505050506040513d6020811015612c4057600080fd5b50600090505b888110156130725760008a8a83818110612c5c57fe5b905060200201356001600160a01b0316905060008090505b82811015612cf057816001600160a01b03168c8c83818110612c9257fe5b905060200201356001600160a01b03166001600160a01b03161415612ce85760405162461bcd60e51b815260040180806020018281038252602d815260200180614879602d913960400191505060405180910390fd5b600101612c74565b506001600160a01b038116600090815260038801602052604081205490818610612d1a5781612d1c565b855b905060008b8b86818110612d2c57fe5b60200291909101359150508885101580612dfe578a6002018681548110612d4f57fe5b6000918252602090912001546001600160a01b03868116911614612dba576040805162461bcd60e51b815260206004820152601960248201527f556e657870656374656420636f6e7472616374206f7264657200000000000000604482015290519081900360640190fd5b81831115612df95760405162461bcd60e51b8152600401808060200182810382526025815260200180614c496025913960400191505060405180910390fd5b612e6e565b60008211612e3d5760405162461bcd60e51b81526004018080602001828103825260238152602001806149aa6023913960400191505060405180910390fd5b60028b018054600181018255600091825260209091200180546001600160a01b0319166001600160a01b0387161790555b81831415612eb757818414612e9b576001600160a01b038516600090815260038c01602052604090208290555b612eab898363ffffffff613a5016565b9850505050505061306a565b600354821015612f0e576040805162461bcd60e51b815260206004820152601c60248201527f4d696e696d756d207374616b6520616d6f756e74206e6f74206d657400000000604482015290519081900360640190fd5b86821115612f63576040805162461bcd60e51b815260206004820181905260248201527f43616e6e6f74207374616b65206d6f7265207468616e206465706f7369746564604482015290519081900360640190fd5b8080612f8a57506001600160a01b038516600090815260058c01602052604090205460ff16155b15612fde576001600160a01b038516600090815260058c0160209081526040808320805460ff19166001908117909155600b835290832080549182018155835291200180546001600160a01b031916331790555b6001600160a01b038516600090815260038c016020526040902082905561300b898363ffffffff613a5016565b9850600061301f838563ffffffff613a0716565b60408051828152905191925033916001600160a01b038916917f5dac0c1b1112564a045ba943c9d50270893e8e826c49be8e7073adc713ab7bd7919081900360200190a35050505050505b600101612c46565b5060045485546130879163ffffffff61446616565b8311156130c55760405162461bcd60e51b8152600401808060200182810382526023815260200180614c6e6023913960400191505060405180910390fd5b891561310257604080518b8152905133917f2da466a7b24304f47e87fa2e1e5a81b9831ce54fec19055ce277ca2f39ba42c4919081900360200190a25b6000198801845b80156131d75788886001830381811061311e57fe5b90506020020135600014156131ce5786600201828154811061313c57fe5b6000918252602090912001546002880180546001600160a01b0390921691600019840190811061316857fe5b9060005260206000200160006101000a8154816001600160a01b0302191690836001600160a01b03160217905550866002018054806131a357fe5b600082815260209020810160001990810180546001600160a01b031916905590810190915591909101905b60001901613109565b505050505050505050505050565b60085481565b60035481565b6000546001600160a01b03161561324e576000546001600160a01b0316331461324e576040805162461bcd60e51b815260206004820152600a6024820152692737ba1036b0b9ba32b960b11b604482015290519081900360640190fd5b600080546001600160a01b0319166001600160a01b0392909216919091179055565b6001600160a01b0382166000908152600b6020526040812080548390811061329457fe5b6000918252602090912001546001600160a01b03169392505050565b60009081526012602052604090208054600182015460028301546003840154600490940154929491936001600160a01b0391821693911691565b60155460ff1681565b6001600160a01b03808316600081815260076020818152604080842095871684526003860182528320549383525291548082106133305780613332565b815b95945050505050565b6002546001600160a01b031681565b6000546001600160a01b031681565b6001600160a01b038216600090815260076020526040812060020180548390811061329457fe5b600054604080516323c5b10760e21b815233600482015290516001600160a01b0390921691638f16c41c91602480820192602092909190829003018186803b1580156133cb57600080fd5b505afa1580156133df573d6000803e3d6000fd5b505050506040513d60208110156133f557600080fd5b50516134325760405162461bcd60e51b8152600401808060200182810382526022815260200180614b5b6022913960400191505060405180910390fd5b6000809054906101000a90046001600160a01b03166001600160a01b031663ff0938a76040518163ffffffff1660e01b815260040160206040518083038186803b15801561347f57600080fd5b505afa158015613493573d6000803e3d6000fd5b505050506040513d60208110156134a957600080fd5b5051156134f0576040805162461bcd60e51b815260206004820152601060248201526f14de5cdd195b481a5cc81c185d5cd95960821b604482015290519081900360640190fd5b600054600160a01b900460ff1661353c576040805162461bcd60e51b815260206004820152601b6024820152600080516020614b7d833981519152604482015290519081900360640190fd5b60408051600180825281830190925260609160208083019080388339019050509050828160008151811061356c57fe5b60200260200101906001600160a01b031690816001600160a01b031681525050613597816000613aaa565b6001600160a01b038316600090815260166020526040902080546135c1908463ffffffff613a5016565b81556040805184815290516001600160a01b038616917fac24935fd910bc682b5ccb1a07b718cadf8cf2f6d1404c4f3ddc3662dae40e29919081900360200190a250505050565b6001600160a01b0381166000908152600b60209081526040918290208054835181840281018401909452808452606093928301828280156112bc576020028201919060005260206000209081546001600160a01b0316815260019091019060200180831161129e5750505050509050919050565b600f602052600090815260409020805460018201546002909201549091906001600160a01b031683565b60115481565b6000809054906101000a90046001600160a01b03166001600160a01b031663ff0938a76040518163ffffffff1660e01b815260040160206040518083038186803b1580156136f957600080fd5b505afa15801561370d573d6000803e3d6000fd5b505050506040513d602081101561372357600080fd5b50511561376a576040805162461bcd60e51b815260206004820152601060248201526f14de5cdd195b481a5cc81c185d5cd95960821b604482015290519081900360640190fd5b600054600160a01b900460ff166137b6576040805162461bcd60e51b815260206004820152601b6024820152600080516020614b7d833981519152604482015290519081900360640190fd5b6121fc82828080602002602001604051908101604052809392919081815260200183836020028082843760009201829052509250613aaa915050565b60126020526000908152604090208054600182015460028301546003840154600490940154929391926001600160a01b03918216929091169085565b600280546001600160a01b0319166001600160a01b0387811691909117918290556040805163e43252d760e01b81523060048201529051929091169163e43252d79160248082019260009290919082900301818387803b15801561389157600080fd5b505af11580156138a5573d6000803e3d6000fd5b50506000805460ff60a01b1916600160a01b17905550506003939093556005919091556004556006555062093a8060175542601855565b6001546001600160a01b031681565b60008060009054906101000a90046001600160a01b03166001600160a01b031663ff0938a76040518163ffffffff1660e01b815260040160206040518083038186803b15801561393a57600080fd5b505afa15801561394e573d6000803e3d6000fd5b505050506040513d602081101561396457600080fd5b5051156139ab576040805162461bcd60e51b815260206004820152601060248201526f14de5cdd195b481a5cc81c185d5cd95960821b604482015290519081900360640190fd5b600054600160a01b900460ff166139f7576040805162461bcd60e51b815260206004820152601b6024820152600080516020614b7d833981519152604482015290519081900360640190fd5b613a008261221a565b5092915050565b6000613a4983836040518060400160405280601e81526020017f536166654d6174683a207375627472616374696f6e206f766572666c6f7700008152506144bf565b9392505050565b600082820183811015613a49576040805162461bcd60e51b815260206004820152601b60248201527f536166654d6174683a206164646974696f6e206f766572666c6f770000000000604482015290519081900360640190fd5b6000613ab4613c1e565b6011549091506000805b8551811015613c0a576000868281518110613ad557fe5b6020908102919091018101516001600160a01b03811660009081526016909252604082206001810154815492945090929091908115801590613b1d57508980613b1d57508289115b905080613b3d57888314613b3357600184018990555b5050505050613c02565b604080516060810182528381524260208083019182526001600160a01b0389811684860181815260019e8f016000818152600f86528890209651875594519e86019e909e559c51600290940180546001600160a01b031916949091169390931790925582518581529251909a927f5f5b850fcbd0c09e2b8624b44902a5be89312011ae945e14bc73514fb719891e92908290030190a26000845560018085018a90559687019687148015613bf15750601054155b15613bfc5760108890555b50505050505b600101613abe565b508015613c175760118290555b5050505050565b6017546018546000919080613c645760405162461bcd60e51b8152600401808060200182810382526026815260200180614a6b6026913960400191505060405180910390fd5b80421115613c7d578181420381613c7757fe5b04613c80565b60005b9250505090565b600e5460009082906001600160a01b031682613ca38284614556565b9095509350905083613cbb5750600092506114e79050565b6001600160a01b0382166000908152600b602052604090208054600c5460095484821115613ce7578491505b6014545b83811015613e515787613d105760099190915560145550600095506114e79350505050565b87600190039750600060076000878481548110613d2957fe5b60009182526020808320909101546001600160a01b031683528201929092526040018120915080613d5c838b8b89614673565b9092509050613d71858363ffffffff613a5016565b94508015613d8157505050613e49565b6001600160a01b038a1660009081526005840160205260409020805460ff19169055875488906000198901908110613db557fe5b9060005260206000200160009054906101000a90046001600160a01b0316888581548110613ddf57fe5b9060005260206000200160006101000a8154816001600160a01b0302191690836001600160a01b0316021790555087805480613e1757fe5b600082815260209020810160001990810180546001600160a01b03191690559081019091559687019693909301925050505b600101613ceb565b506000600c819055600d819055600e80546001600160a01b0319169055600981905560148190556015805460ff1916905560015460408051630852cd8d60e31b81526004810185905290516001600160a01b03909216926342966c68926024808401936020939083900390910190829087803b158015613ed057600080fd5b505af1158015613ee4573d6000803e3d6000fd5b505050506040513d6020811015613efa57600080fd5b5050604080518281526020810187905281516001600160a01b038916927f23ff0e75edf108e3d0392d92e13e8c8a868ef19001bd49f9e94876dc46dff87f928290030190a250600196505050505050915091565b601260209081527f7e7fa33969761a458e04f477e039a608702b4f924981d6653935a8319a08ad7f54600081815260408082206003808201546001600160a01b03908116808652600788528486206002850154815493168088529381019098529385205495969295939492939192909190818310613fcc5781613fce565b825b87549091506000818310613fe25781613fe4565b825b9050613ff6838263ffffffff613a0716565b6001600160a01b038716600090815260038901602090815260408083209390935560048a019052205461402f818463ffffffff613a0716565b886004016000896001600160a01b03166001600160a01b031681526020019081526020016000208190555089600401546012600080815260200190815260200160002060040181905550601260008c815260200190815260200160002060008082016000905560018201600090556002820160006101000a8154906001600160a01b0302191690556003820160006101000a8154906001600160a01b03021916905560048201600090555050886001600160a01b0316876001600160a01b03167fd8654fcc8cf5b36d30b3f5e4688fc78118e6d68de60b9994e09902268b57c3e3856040518082815260200191505060405180910390a35050505050505050505050565b6010546000908152600f60205260408120600281015481548492916001600160a01b031690846141638386614556565b909750955090508561417d5750600094506114e792505050565b6001600160a01b0383166000908152600b602052604090208054600a546014545b8281101561430557886141c457600a9190915560145550600096506114e7945050505050565b8860019003985060008482815481106141d957fe5b60009182526020822001546001600160a01b03169150806141fc838b8b8b61472f565b9150915080600014156142e7576001600160a01b038084166000908152600760209081526040808320938e168352600584019091529020805460ff1916905587548890600019890190811061424d57fe5b9060005260206000200160009054906101000a90046001600160a01b031688868154811061427757fe5b9060005260206000200160006101000a8154816001600160a01b0302191690836001600160a01b03160217905550878054806142af57fe5b600082815260209020810160001990810180546001600160a01b0319169055908101909155968701969490940193506142fd92505050565b6142f7858363ffffffff613a5016565b94505050505b60010161419e565b50601080546000908152600f602052604081208181556001808201839055600290910180546001600160a01b0319169055600a8290556014919091556015805460ff1916905560115482549091019182905510156143635760006010555b600254604080516340c10f1960e01b81523060048201526024810184905290516001600160a01b03909216916340c10f199160448082019260009290919082900301818387803b1580156143b657600080fd5b505af11580156143ca573d6000803e3d6000fd5b5050604080518481526020810188905281516001600160a01b038b1694507f291e8ba3c0f4b0bd86e6e2346fcee1e7ca0975b1cc1886bfbc722d34f3f24d9193509081900390910190a25060019750505050505050915091565b6000613a4983836040518060400160405280601a81526020017f536166654d6174683a206469766973696f6e206279207a65726f0000000000008152506147e3565b60008261447557506000611219565b8282028284828161448257fe5b0414613a495760405162461bcd60e51b8152600401808060200182810382526021815260200180614a4a6021913960400191505060405180910390fd5b6000818484111561454e5760405162461bcd60e51b81526004018080602001828103825283818151815260200191508051906020019080838360005b838110156145135781810151838201526020016144fb565b50505050905090810190601f1680156145405780820380516001836020036101000a031916815260200191505b509250505060405180910390fd5b505050900390565b6015546000908190839060ff16156145765760085492506001915061466c565b6001600160a01b0385166000908152600b602052604090208054601454801561459f5760085495505b805b8281101561464b57846145c25760145550505060088390556000915061466c565b846001900394506000600760008684815481106145db57fe5b60009182526020808320909101546001600160a01b03908116845283820194909452604092830182208054948f16835260038101909152919020549092508082106146265780614628565b815b905061463a8a8263ffffffff613a5016565b995050600190920191506145a19050565b5050506008849055506015805460ff19166001908117909155600060145591505b9250925092565b600080808085156146a857505085546001600160a01b0386166000908152600388016020526040902054818111156146a85750805b8486146146e8576146cf866146c3838863ffffffff61446616565b9063ffffffff61442416565b93506146e1818563ffffffff613a0716565b92506146ec565b8093505b831561470557614702828563ffffffff613a0716565b88555b50506001600160a01b03909416600090815260039095016020526040909420839055509192909150565b6001600160a01b038085166000908152600760209081526040808320805494881684526003810190925282205491928083111561476a578092505b841580614775575082155b156147a357506001600160a01b038616600090815260039091016020526040812081905591508190506147da565b6147b7856146c3888663ffffffff61446616565b60018301549094506147cf908563ffffffff613a5016565b826001018190555050505b94509492505050565b600081836148325760405162461bcd60e51b81526020600482018181528351602484015283519092839260449091019190850190808383600083156145135781810151838201526020016144fb565b50600083858161483e57fe5b049594505050505056fe556e61626c6520746f20657865637574652072657175657374207769746820756e70726f636573736564206275726e73436f6e7472616374732061727261792073686f756c64206e6f7420636f6e7461696e206475706c6963617465734e65787420756e7374616b6520726571756573742074696d65206d7573742062652067726561746572207468616e206e657720756e7374616b6520726571756573742074696d65556e61626c6520746f20657865637574652072657175657374207769746820756e70726f63657373656420616374696f6e73436f6e74726163747320616e6420616d6f756e7473206172726179732073686f756c642068617665207468652073616d65206c656e67746852657175657374656420616d6f756e742065786365656473206d617820776974686472617761626c6520616d6f756e74496e76616c696420756e7374616b6520726571756573742069642070726f76696465644e6577207374616b65732073686f756c642062652067726561746572207468616e20304e6f7468696e6720746f20756e7374616b65206f6e207468697320636f6e74726163746e657875736d757475616c2e706f6f6c65647374616b696e672e4d4947524154494f4e5f4c4153545f49445f504f494e5445525245574152445f524f554e44535f535441525420616c726561647920696e697469616c697a6564536166654d6174683a206d756c7469706c69636174696f6e206f766572666c6f775245574152445f524f554e44535f5354415254206973206e6f7420696e697469616c697a6564436f6e74726163747320616e64207374616b6573206172726179732073686f756c642068617665207468652073616d65206c656e677468556e7374616b656420616d6f756e742063616e6e6f74206265206c657373207468616e206d696e696d756d20756e7374616b6520616d6f756e7450726f766964656420756e7374616b6520726571756573742069642073686f756c64206e6f7420626520616e20656d70747920736c6f7443616c6c6572206973206e6f7420617574686f72697a656420746f20676f7665726e43616c6c6572206973206e6f7420616e20696e7465726e616c20636f6e7472616374436f6e7472616374206973206e6f7420696e697469616c697a656400000000005374616b696e67206f6e20666577657220636f6e747261637473206973206e6f7420616c6c6f776564556e7374616b6520726571756573742074696d65206d7573742062652067726561746572206f7220657175616c20746f2070726576696f757320756e7374616b65207265717565737452656d61696e696e67207374616b652063616e6e6f74206265206c657373207468616e206d696e696d756d20756e7374616b6520616d6f756e744e6577207374616b65206973206c657373207468616e2070726576696f7573207374616b65546f74616c207374616b652065786365656473206d6178696d756d20616c6c6f776564a265627a7a72315820818e59d006355c6d0a70af45094194074c1fea4c142c5da03ba818e22e47b83264736f6c63430005110032",
  "linkReferences": {},
  "deployedLinkReferences": {}
}