{
  "_format": "hh-sol-artifact-1",
  "contractName": "TokenControllerMock",
  "sourceName": "contracts/NexusMutual/mocks/TokenControllerMock.sol",
  "abi": [
    {
      "constant": false,
      "inputs": [
        {
          "internalType": "address",
          "name": "_member",
          "type": "address"
        }
      ],
      "name": "addToWhitelist",
      "outputs": [],
      "payable": false,
      "stateMutability": "nonpayable",
      "type": "function"
    },
    {
      "constant": false,
      "inputs": [
        {
          "internalType": "address",
          "name": "",
          "type": "address"
        },
        {
          "internalType": "bytes32",
          "name": "",
          "type": "bytes32"
        },
        {
          "internalType": "uint256",
          "name": "",
          "type": "uint256"
        }
      ],
      "name": "burnLockedTokens",
      "outputs": [],
      "payable": false,
      "stateMutability": "nonpayable",
      "type": "function"
    },
    {
      "constant": false,
      "inputs": [],
      "name": "changeDependentContractAddress",
      "outputs": [],
      "payable": false,
      "stateMutability": "nonpayable",
      "type": "function"
    },
    {
      "constant": false,
      "inputs": [
        {
          "internalType": "address",
          "name": "masterAddress",
          "type": "address"
        }
      ],
      "name": "changeMasterAddress",
      "outputs": [],
      "payable": false,
      "stateMutability": "nonpayable",
      "type": "function"
    },
    {
      "constant": true,
      "inputs": [],
      "name": "master",
      "outputs": [
        {
          "internalType": "contract INXMMaster",
          "name": "",
          "type": "address"
        }
      ],
      "payable": false,
      "stateMutability": "view",
      "type": "function"
    },
    {
      "constant": false,
      "inputs": [
        {
          "internalType": "address",
          "name": "_member",
          "type": "address"
        },
        {
          "internalType": "uint256",
          "name": "_amount",
          "type": "uint256"
        }
      ],
      "name": "mint",
      "outputs": [],
      "payable": false,
      "stateMutability": "nonpayable",
      "type": "function"
    },
    {
      "constant": false,
      "inputs": [
        {
          "internalType": "address",
          "name": "_from",
          "type": "address"
        },
        {
          "internalType": "address",
          "name": "_to",
          "type": "address"
        },
        {
          "internalType": "uint256",
          "name": "_value",
          "type": "uint256"
        }
      ],
      "name": "operatorTransfer",
      "outputs": [
        {
          "internalType": "bool",
          "name": "",
          "type": "bool"
        }
      ],
      "payable": false,
      "stateMutability": "nonpayable",
      "type": "function"
    },
    {
      "constant": false,
      "inputs": [
        {
          "internalType": "address",
          "name": "_of",
          "type": "address"
        },
        {
          "internalType": "bytes32",
          "name": "_reason",
          "type": "bytes32"
        },
        {
          "internalType": "uint256",
          "name": "_amount",
          "type": "uint256"
        }
      ],
      "name": "releaseLockedTokens",
      "outputs": [],
      "payable": false,
      "stateMutability": "nonpayable",
      "type": "function"
    },
    {
      "constant": true,
      "inputs": [
        {
          "internalType": "address",
          "name": "",
          "type": "address"
        },
        {
          "internalType": "bytes32",
          "name": "",
          "type": "bytes32"
        }
      ],
      "name": "tokensLocked",
      "outputs": [
        {
          "internalType": "uint256",
          "name": "",
          "type": "uint256"
        }
      ],
      "payable": false,
      "stateMutability": "view",
      "type": "function"
    }
  ],
  "bytecode": "0x608060405234801561001057600080fd5b50610935806100206000396000f3fe608060405234801561001057600080fd5b50600436106100935760003560e01c80637aef5b73116100665780637aef5b731461015657806380c7561a14610156578063d46655f414610188578063e43252d7146101ae578063ee97f7f3146101d457610093565b80630d1af103146100985780630ea9c984146100e257806340c10f19146100ec5780635ca48d8c14610118575b600080fd5b6100ce600480360360608110156100ae57600080fd5b506001600160a01b038135811691602081013590911690604001356101f8565b604080519115158252519081900360200190f35b6100ea61051c565b005b6100ea6004803603604081101561010257600080fd5b506001600160a01b0381351690602001356105b6565b6101446004803603604081101561012e57600080fd5b506001600160a01b0381351690602001356106d9565b60408051918252519081900360200190f35b6100ea6004803603606081101561016c57600080fd5b506001600160a01b038135169060208101359060400135610712565b6100ea6004803603602081101561019e57600080fd5b50356001600160a01b0316610749565b6100ea600480360360208110156101c457600080fd5b50356001600160a01b03166107c8565b6101dc61087d565b604080516001600160a01b039092168252519081900360200190f35b60008054604080516323c5b10760e21b815233600482015290516001600160a01b0390921691638f16c41c91602480820192602092909190829003018186803b15801561024457600080fd5b505afa158015610258573d6000803e3d6000fd5b505050506040513d602081101561026e57600080fd5b50516102ab5760405162461bcd60e51b81526004018080602001828103825260228152602001806108b06022913960400191505060405180910390fd5b600054604080516227050b60e31b815261505360f01b600482015290516001600160a01b0390921691630138285891602480820192602092909190829003018186803b1580156102fa57600080fd5b505afa15801561030e573d6000803e3d6000fd5b505050506040513d602081101561032457600080fd5b50516001600160a01b0316331461036c5760405162461bcd60e51b815260040180806020018281038252602f8152602001806108d2602f913960400191505060405180910390fd5b6001546040805163b0e65d0760e01b81526001600160a01b038781166004830152602482018690529151919092169163b0e65d079160448083019260209291908290030181600087803b1580156103c257600080fd5b505af11580156103d6573d6000803e3d6000fd5b505050506040513d60208110156103ec57600080fd5b505161043f576040805162461bcd60e51b815260206004820152601860248201527f4f70657261746f72207472616e73666572206661696c65640000000000000000604482015290519081900360640190fd5b6001546040805163a9059cbb60e01b81526001600160a01b038681166004830152602482018690529151919092169163a9059cbb9160448083019260209291908290030181600087803b15801561049557600080fd5b505af11580156104a9573d6000803e3d6000fd5b505050506040513d60208110156104bf57600080fd5b5051610512576040805162461bcd60e51b815260206004820152601860248201527f496e7465726e616c207472616e73666572206661696c65640000000000000000604482015290519081900360640190fd5b5060019392505050565b6000809054906101000a90046001600160a01b03166001600160a01b0316639d76ea586040518163ffffffff1660e01b815260040160206040518083038186803b15801561056957600080fd5b505afa15801561057d573d6000803e3d6000fd5b505050506040513d602081101561059357600080fd5b5051600180546001600160a01b0319166001600160a01b03909216919091179055565b600054604080516323c5b10760e21b815233600482015290516001600160a01b0390921691638f16c41c91602480820192602092909190829003018186803b15801561060157600080fd5b505afa158015610615573d6000803e3d6000fd5b505050506040513d602081101561062b57600080fd5b50516106685760405162461bcd60e51b81526004018080602001828103825260228152602001806108b06022913960400191505060405180910390fd5b600154604080516340c10f1960e01b81526001600160a01b03858116600483015260248201859052915191909216916340c10f1991604480830192600092919082900301818387803b1580156106bd57600080fd5b505af11580156106d1573d6000803e3d6000fd5b505050505050565b600060405162461bcd60e51b815260040180806020018281038252602381526020018061088d6023913960400191505060405180910390fd5b60405162461bcd60e51b815260040180806020018281038252602381526020018061088d6023913960400191505060405180910390fd5b6000546001600160a01b0316156107a6576000546001600160a01b031633146107a6576040805162461bcd60e51b815260206004820152600a6024820152692737ba1036b0b9ba32b960b11b604482015290519081900360640190fd5b600080546001600160a01b0319166001600160a01b0392909216919091179055565b600054604080516323c5b10760e21b815233600482015290516001600160a01b0390921691638f16c41c91602480820192602092909190829003018186803b15801561081357600080fd5b505afa158015610827573d6000803e3d6000fd5b505050506040513d602081101561083d57600080fd5b505161087a5760405162461bcd60e51b81526004018080602001828103825260228152602001806108b06022913960400191505060405180910390fd5b50565b6000546001600160a01b03168156fe556e657870656374656420546f6b656e436f6e74726f6c6c65724d6f636b2063616c6c43616c6c6572206973206e6f7420616e20696e7465726e616c20636f6e747261637443616c6c206973206f6e6c7920616c6c6f7765642066726f6d20506f6f6c65645374616b696e672061646472657373a265627a7a7231582059fdc3fbfd4bba552464f27f678059b91820bfed946da35551c6ed0db61bc16464736f6c63430005110032",
  "linkReferences": {},
  "deployedLinkReferences": {}
}