{
  "_format": "hh-sol-artifact-1",
  "contractName": "ClaimsReward",
  "sourceName": "nexusmutual/contracts/modules/claims/ClaimsReward.sol",
  "abi": [
    {
      "constant": false,
      "inputs": [
        {
          "internalType": "uint256",
          "name": "_records",
          "type": "uint256"
        },
        {
          "internalType": "address",
          "name": "_user",
          "type": "address"
        }
      ],
      "name": "_claimStakeCommission",
      "outputs": [],
      "payable": false,
      "stateMutability": "nonpayable",
      "type": "function"
    },
    {
      "constant": false,
      "inputs": [
        {
          "internalType": "uint256",
          "name": "claimid",
          "type": "uint256"
        }
      ],
      "name": "changeClaimStatus",
      "outputs": [],
      "payable": false,
      "stateMutability": "nonpayable",
      "type": "function"
    },
    {
      "constant": false,
      "inputs": [],
      "name": "changeDependentContractAddress",
      "outputs": [],
      "payable": false,
      "stateMutability": "nonpayable",
      "type": "function"
    },
    {
      "constant": false,
      "inputs": [
        {
          "internalType": "address",
          "name": "_masterAddress",
          "type": "address"
        }
      ],
      "name": "changeMasterAddress",
      "outputs": [],
      "payable": false,
      "stateMutability": "nonpayable",
      "type": "function"
    },
    {
      "constant": false,
      "inputs": [
        {
          "internalType": "uint256",
          "name": "records",
          "type": "uint256"
        }
      ],
      "name": "claimAllPendingReward",
      "outputs": [],
      "payable": false,
      "stateMutability": "nonpayable",
      "type": "function"
    },
    {
      "constant": true,
      "inputs": [
        {
          "internalType": "address",
          "name": "_add",
          "type": "address"
        }
      ],
      "name": "getAllPendingRewardOfUser",
      "outputs": [
        {
          "internalType": "uint256",
          "name": "",
          "type": "uint256"
        }
      ],
      "payable": false,
      "stateMutability": "view",
      "type": "function"
    },
    {
      "constant": true,
      "inputs": [
        {
          "internalType": "uint256",
          "name": "check",
          "type": "uint256"
        },
        {
          "internalType": "uint256",
          "name": "claimId",
          "type": "uint256"
        }
      ],
      "name": "getRewardAndClaimedStatus",
      "outputs": [
        {
          "internalType": "uint256",
          "name": "reward",
          "type": "uint256"
        },
        {
          "internalType": "bool",
          "name": "claimed",
          "type": "bool"
        }
      ],
      "payable": false,
      "stateMutability": "view",
      "type": "function"
    },
    {
      "constant": true,
      "inputs": [
        {
          "internalType": "address",
          "name": "_add",
          "type": "address"
        }
      ],
      "name": "getRewardToBeDistributedByUser",
      "outputs": [
        {
          "internalType": "uint256",
          "name": "total",
          "type": "uint256"
        }
      ],
      "payable": false,
      "stateMutability": "view",
      "type": "function"
    },
    {
      "constant": true,
      "inputs": [
        {
          "internalType": "uint256",
          "name": "check",
          "type": "uint256"
        },
        {
          "internalType": "uint256",
          "name": "voteid",
          "type": "uint256"
        },
        {
          "internalType": "uint256",
          "name": "flag",
          "type": "uint256"
        }
      ],
      "name": "getRewardToBeGiven",
      "outputs": [
        {
          "internalType": "uint256",
          "name": "tokenCalculated",
          "type": "uint256"
        },
        {
          "internalType": "bool",
          "name": "lastClaimedCheck",
          "type": "bool"
        },
        {
          "internalType": "uint256",
          "name": "tokens",
          "type": "uint256"
        },
        {
          "internalType": "uint256",
          "name": "perc",
          "type": "uint256"
        }
      ],
      "payable": false,
      "stateMutability": "view",
      "type": "function"
    },
    {
      "constant": true,
      "inputs": [],
      "name": "ms",
      "outputs": [
        {
          "internalType": "contract INXMMaster",
          "name": "",
          "type": "address"
        }
      ],
      "payable": false,
      "stateMutability": "view",
      "type": "function"
    },
    {
      "constant": true,
      "inputs": [],
      "name": "nxMasterAddress",
      "outputs": [
        {
          "internalType": "address",
          "name": "",
          "type": "address"
        }
      ],
      "payable": false,
      "stateMutability": "view",
      "type": "function"
    },
    {
      "constant": false,
      "inputs": [
        {
          "internalType": "address",
          "name": "_newAdd",
          "type": "address"
        }
      ],
      "name": "upgrade",
      "outputs": [],
      "payable": false,
      "stateMutability": "nonpayable",
      "type": "function"
    }
  ],
  "bytecode": "0x608060405234801561001057600080fd5b506173fe80620000216000396000f3fe608060405234801561001057600080fd5b50600436106100b45760003560e01c806363bb23be1161007157806363bb23be1461025c5780637f6715c91461028a578063a0b2d57f146102b8578063d46655f414610302578063df31f20814610346578063f17a3bec146103b5576100b4565b806304ee27c6146100b95780630900f010146101075780630ea9c9841461014b57806335afb14e1461015557806341becc07146101ad578063452efce914610204575b600080fd5b610105600480360360408110156100cf57600080fd5b8101908080359060200190929190803573ffffffffffffffffffffffffffffffffffffffff1690602001909291905050506103ff565b005b6101496004803603602081101561011d57600080fd5b81019080803573ffffffffffffffffffffffffffffffffffffffff169060200190929190505050610dfb565b005b6101536110b6565b005b6101976004803603602081101561016b57600080fd5b81019080803573ffffffffffffffffffffffffffffffffffffffff169060200190929190505050611e0b565b6040518082815260200191505060405180910390f35b6101e3600480360360408110156101c357600080fd5b810190808035906020019092919080359060200190929190505050612004565b60405180838152602001821515151581526020019250505060405180910390f35b6102466004803603602081101561021a57600080fd5b81019080803573ffffffffffffffffffffffffffffffffffffffff1690602001909291905050506125c1565b6040518082815260200191505060405180910390f35b6102886004803603602081101561027257600080fd5b8101908080359060200190929190505050612ad2565b005b6102b6600480360360208110156102a057600080fd5b8101908080359060200190929190505050612f11565b005b6102c06137dc565b604051808273ffffffffffffffffffffffffffffffffffffffff1673ffffffffffffffffffffffffffffffffffffffff16815260200191505060405180910390f35b6103446004803603602081101561031857600080fd5b81019080803573ffffffffffffffffffffffffffffffffffffffff169060200190929190505050613801565b005b6103866004803603606081101561035c57600080fd5b8101908080359060200190929190803590602001909291908035906020019092919050505061399d565b604051808581526020018415151515815260200183815260200182815260200194505050505060405180910390f35b6103bd6140e2565b604051808273ffffffffffffffffffffffffffffffffffffffff1673ffffffffffffffffffffffffffffffffffffffff16815260200191505060405180910390f35b6000809054906101000a900473ffffffffffffffffffffffffffffffffffffffff1673ffffffffffffffffffffffffffffffffffffffff16638f16c41c336040518263ffffffff1660e01b8152600401808273ffffffffffffffffffffffffffffffffffffffff1673ffffffffffffffffffffffffffffffffffffffff16815260200191505060206040518083038186803b15801561049d57600080fd5b505afa1580156104b1573d6000803e3d6000fd5b505050506040513d60208110156104c757600080fd5b81019080805190602001909291905050506104e157600080fd5b60008090506000600560009054906101000a900473ffffffffffffffffffffffffffffffffffffffff1673ffffffffffffffffffffffffffffffffffffffff1663e325ef74846040518263ffffffff1660e01b8152600401808273ffffffffffffffffffffffffffffffffffffffff1673ffffffffffffffffffffffffffffffffffffffff16815260200191505060206040518083038186803b15801561058757600080fd5b505afa15801561059b573d6000803e3d6000fd5b505050506040513d60208110156105b157600080fd5b810190808051906020019092919050505090506000600560009054906101000a900473ffffffffffffffffffffffffffffffffffffffff1673ffffffffffffffffffffffffffffffffffffffff1663ddaffe58856040518263ffffffff1660e01b8152600401808273ffffffffffffffffffffffffffffffffffffffff1673ffffffffffffffffffffffffffffffffffffffff16815260200191505060206040518083038186803b15801561066557600080fd5b505afa158015610679573d6000803e3d6000fd5b505050506040513d602081101561068f57600080fd5b810190808051906020019092919050505090506000806000808590506000808690505b87811080156106c057508a82105b15610b6757600560009054906101000a900473ffffffffffffffffffffffffffffffffffffffff1673ffffffffffffffffffffffffffffffffffffffff1663f7138aae8b836040518363ffffffff1660e01b8152600401808373ffffffffffffffffffffffffffffffffffffffff1673ffffffffffffffffffffffffffffffffffffffff1681526020018281526020019250505060206040518083038186803b15801561076c57600080fd5b505afa158015610780573d6000803e3d6000fd5b505050506040513d602081101561079657600080fd5b81019080805190602001909291905050509450600560009054906101000a900473ffffffffffffffffffffffffffffffffffffffff1673ffffffffffffffffffffffffffffffffffffffff16632bc226288b836040518363ffffffff1660e01b8152600401808373ffffffffffffffffffffffffffffffffffffffff1673ffffffffffffffffffffffffffffffffffffffff1681526020018281526020019250505060206040518083038186803b15801561085057600080fd5b505afa158015610864573d6000803e3d6000fd5b505050506040513d602081101561087a57600080fd5b81019080805190602001909291905050509550610a366064610a28600560009054906101000a900473ffffffffffffffffffffffffffffffffffffffff1673ffffffffffffffffffffffffffffffffffffffff16636a9644516040518163ffffffff1660e01b815260040160206040518083038186803b1580156108fd57600080fd5b505afa158015610911573d6000803e3d6000fd5b505050506040513d602081101561092757600080fd5b8101908080519060200190929190505050600560009054906101000a900473ffffffffffffffffffffffffffffffffffffffff1673ffffffffffffffffffffffffffffffffffffffff166343148d238f876040518363ffffffff1660e01b8152600401808373ffffffffffffffffffffffffffffffffffffffff1673ffffffffffffffffffffffffffffffffffffffff1681526020018281526020019250505060206040518083038186803b1580156109df57600080fd5b505afa1580156109f3573d6000803e3d6000fd5b505050506040513d6020811015610a0957600080fd5b810190808051906020019092919050505061410890919063ffffffff16565b61418e90919063ffffffff16565b93508783148015610a475750858414155b15610a50578092505b600560009054906101000a900473ffffffffffffffffffffffffffffffffffffffff1673ffffffffffffffffffffffffffffffffffffffff1663d9249bff8b83610aa3898b6141d890919063ffffffff16565b6040518463ffffffff1660e01b8152600401808473ffffffffffffffffffffffffffffffffffffffff1673ffffffffffffffffffffffffffffffffffffffff1681526020018381526020018281526020019350505050600060405180830381600087803b158015610b1357600080fd5b505af1158015610b27573d6000803e3d6000fd5b50505050610b50610b4186886141d890919063ffffffff16565b8a61422290919063ffffffff16565b9850818060010192505080806001019150506106b2565b87831415610c3557600560009054906101000a900473ffffffffffffffffffffffffffffffffffffffff1673ffffffffffffffffffffffffffffffffffffffff1663181908178b836040518363ffffffff1660e01b8152600401808373ffffffffffffffffffffffffffffffffffffffff1673ffffffffffffffffffffffffffffffffffffffff16815260200182815260200192505050600060405180830381600087803b158015610c1857600080fd5b505af1158015610c2c573d6000803e3d6000fd5b50505050610cf7565b600560009054906101000a900473ffffffffffffffffffffffffffffffffffffffff1673ffffffffffffffffffffffffffffffffffffffff1663181908178b856040518363ffffffff1660e01b8152600401808373ffffffffffffffffffffffffffffffffffffffff1673ffffffffffffffffffffffffffffffffffffffff16815260200182815260200192505050600060405180830381600087803b158015610cde57600080fd5b505af1158015610cf2573d6000803e3d6000fd5b505050505b6000891115610dee57600260009054906101000a900473ffffffffffffffffffffffffffffffffffffffff1673ffffffffffffffffffffffffffffffffffffffff1663a9059cbb8b8b6040518363ffffffff1660e01b8152600401808373ffffffffffffffffffffffffffffffffffffffff1673ffffffffffffffffffffffffffffffffffffffff16815260200182815260200192505050602060405180830381600087803b158015610da957600080fd5b505af1158015610dbd573d6000803e3d6000fd5b505050506040513d6020811015610dd357600080fd5b8101908080519060200190929190505050610ded57600080fd5b5b5050505050505050505050565b6000809054906101000a900473ffffffffffffffffffffffffffffffffffffffff1673ffffffffffffffffffffffffffffffffffffffff16638f16c41c336040518263ffffffff1660e01b8152600401808273ffffffffffffffffffffffffffffffffffffffff1673ffffffffffffffffffffffffffffffffffffffff16815260200191505060206040518083038186803b158015610e9957600080fd5b505afa158015610ead573d6000803e3d6000fd5b505050506040513d6020811015610ec357600080fd5b8101908080519060200190929190505050610edd57600080fd5b6000600260009054906101000a900473ffffffffffffffffffffffffffffffffffffffff1673ffffffffffffffffffffffffffffffffffffffff166370a08231306040518263ffffffff1660e01b8152600401808273ffffffffffffffffffffffffffffffffffffffff1673ffffffffffffffffffffffffffffffffffffffff16815260200191505060206040518083038186803b158015610f7e57600080fd5b505afa158015610f92573d6000803e3d6000fd5b505050506040513d6020811015610fa857600080fd5b8101908080519060200190929190505050905060008111156110b257600260009054906101000a900473ffffffffffffffffffffffffffffffffffffffff1673ffffffffffffffffffffffffffffffffffffffff1663a9059cbb83836040518363ffffffff1660e01b8152600401808373ffffffffffffffffffffffffffffffffffffffff1673ffffffffffffffffffffffffffffffffffffffff16815260200182815260200192505050602060405180830381600087803b15801561106d57600080fd5b505af1158015611081573d6000803e3d6000fd5b505050506040513d602081101561109757600080fd5b81019080805190602001909291905050506110b157600080fd5b5b5050565b6000809054906101000a900473ffffffffffffffffffffffffffffffffffffffff1673ffffffffffffffffffffffffffffffffffffffff16638f16c41c336040518263ffffffff1660e01b8152600401808273ffffffffffffffffffffffffffffffffffffffff1673ffffffffffffffffffffffffffffffffffffffff16815260200191505060206040518083038186803b15801561115457600080fd5b505afa158015611168573d6000803e3d6000fd5b505050506040513d602081101561117e57600080fd5b810190808051906020019092919050505061119857600080fd5b6000809054906101000a900473ffffffffffffffffffffffffffffffffffffffff1673ffffffffffffffffffffffffffffffffffffffff1663013828586040518163ffffffff1660e01b815260040180807f434c000000000000000000000000000000000000000000000000000000000000815250602001905060206040518083038186803b15801561122a57600080fd5b505afa15801561123e573d6000803e3d6000fd5b505050506040513d602081101561125457600080fd5b8101908080519060200190929190505050600760006101000a81548173ffffffffffffffffffffffffffffffffffffffff021916908373ffffffffffffffffffffffffffffffffffffffff1602179055506000809054906101000a900473ffffffffffffffffffffffffffffffffffffffff1673ffffffffffffffffffffffffffffffffffffffff1663013828586040518163ffffffff1660e01b815260040180807f4344000000000000000000000000000000000000000000000000000000000000815250602001905060206040518083038186803b15801561133757600080fd5b505afa15801561134b573d6000803e3d6000fd5b505050506040513d602081101561136157600080fd5b8101908080519060200190929190505050600860006101000a81548173ffffffffffffffffffffffffffffffffffffffff021916908373ffffffffffffffffffffffffffffffffffffffff1602179055506000809054906101000a900473ffffffffffffffffffffffffffffffffffffffff1673ffffffffffffffffffffffffffffffffffffffff16639d76ea586040518163ffffffff1660e01b815260040160206040518083038186803b15801561141957600080fd5b505afa15801561142d573d6000803e3d6000fd5b505050506040513d602081101561144357600080fd5b8101908080519060200190929190505050600260006101000a81548173ffffffffffffffffffffffffffffffffffffffff021916908373ffffffffffffffffffffffffffffffffffffffff1602179055506000809054906101000a900473ffffffffffffffffffffffffffffffffffffffff1673ffffffffffffffffffffffffffffffffffffffff1663013828586040518163ffffffff1660e01b815260040180807f5443000000000000000000000000000000000000000000000000000000000000815250602001905060206040518083038186803b15801561152657600080fd5b505afa15801561153a573d6000803e3d6000fd5b505050506040513d602081101561155057600080fd5b8101908080519060200190929190505050600360006101000a81548173ffffffffffffffffffffffffffffffffffffffff021916908373ffffffffffffffffffffffffffffffffffffffff1602179055506000809054906101000a900473ffffffffffffffffffffffffffffffffffffffff1673ffffffffffffffffffffffffffffffffffffffff1663013828586040518163ffffffff1660e01b815260040180807f5444000000000000000000000000000000000000000000000000000000000000815250602001905060206040518083038186803b15801561163357600080fd5b505afa158015611647573d6000803e3d6000fd5b505050506040513d602081101561165d57600080fd5b8101908080519060200190929190505050600560006101000a81548173ffffffffffffffffffffffffffffffffffffffff021916908373ffffffffffffffffffffffffffffffffffffffff1602179055506000809054906101000a900473ffffffffffffffffffffffffffffffffffffffff1673ffffffffffffffffffffffffffffffffffffffff1663013828586040518163ffffffff1660e01b815260040180807f5446000000000000000000000000000000000000000000000000000000000000815250602001905060206040518083038186803b15801561174057600080fd5b505afa158015611754573d6000803e3d6000fd5b505050506040513d602081101561176a57600080fd5b8101908080519060200190929190505050600460006101000a81548173ffffffffffffffffffffffffffffffffffffffff021916908373ffffffffffffffffffffffffffffffffffffffff1602179055506000809054906101000a900473ffffffffffffffffffffffffffffffffffffffff1673ffffffffffffffffffffffffffffffffffffffff1663013828586040518163ffffffff1660e01b815260040180807f5031000000000000000000000000000000000000000000000000000000000000815250602001905060206040518083038186803b15801561184d57600080fd5b505afa158015611861573d6000803e3d6000fd5b505050506040513d602081101561187757600080fd5b8101908080519060200190929190505050600960006101000a81548173ffffffffffffffffffffffffffffffffffffffff021916908373ffffffffffffffffffffffffffffffffffffffff1602179055506000809054906101000a900473ffffffffffffffffffffffffffffffffffffffff1673ffffffffffffffffffffffffffffffffffffffff1663013828586040518163ffffffff1660e01b815260040180807f5032000000000000000000000000000000000000000000000000000000000000815250602001905060206040518083038186803b15801561195a57600080fd5b505afa15801561196e573d6000803e3d6000fd5b505050506040513d602081101561198457600080fd5b8101908080519060200190929190505050600a60006101000a81548173ffffffffffffffffffffffffffffffffffffffff021916908373ffffffffffffffffffffffffffffffffffffffff1602179055506000809054906101000a900473ffffffffffffffffffffffffffffffffffffffff1673ffffffffffffffffffffffffffffffffffffffff1663013828586040518163ffffffff1660e01b815260040180807f5044000000000000000000000000000000000000000000000000000000000000815250602001905060206040518083038186803b158015611a6757600080fd5b505afa158015611a7b573d6000803e3d6000fd5b505050506040513d6020811015611a9157600080fd5b8101908080519060200190929190505050600b60006101000a81548173ffffffffffffffffffffffffffffffffffffffff021916908373ffffffffffffffffffffffffffffffffffffffff1602179055506000809054906101000a900473ffffffffffffffffffffffffffffffffffffffff1673ffffffffffffffffffffffffffffffffffffffff1663013828586040518163ffffffff1660e01b815260040180807f5144000000000000000000000000000000000000000000000000000000000000815250602001905060206040518083038186803b158015611b7457600080fd5b505afa158015611b88573d6000803e3d6000fd5b505050506040513d6020811015611b9e57600080fd5b8101908080519060200190929190505050600660006101000a81548173ffffffffffffffffffffffffffffffffffffffff021916908373ffffffffffffffffffffffffffffffffffffffff1602179055506000809054906101000a900473ffffffffffffffffffffffffffffffffffffffff1673ffffffffffffffffffffffffffffffffffffffff1663013828586040518163ffffffff1660e01b815260040180807f4756000000000000000000000000000000000000000000000000000000000000815250602001905060206040518083038186803b158015611c8157600080fd5b505afa158015611c95573d6000803e3d6000fd5b505050506040513d6020811015611cab57600080fd5b8101908080519060200190929190505050600c60006101000a81548173ffffffffffffffffffffffffffffffffffffffff021916908373ffffffffffffffffffffffffffffffffffffffff1602179055506000809054906101000a900473ffffffffffffffffffffffffffffffffffffffff1673ffffffffffffffffffffffffffffffffffffffff1663013828586040518163ffffffff1660e01b815260040180807f5053000000000000000000000000000000000000000000000000000000000000815250602001905060206040518083038186803b158015611d8e57600080fd5b505afa158015611da2573d6000803e3d6000fd5b505050506040513d6020811015611db857600080fd5b8101908080519060200190929190505050600d60006101000a81548173ffffffffffffffffffffffffffffffffffffffff021916908373ffffffffffffffffffffffffffffffffffffffff160217905550565b600080611e17836125c1565b90506000600d60009054906101000a900473ffffffffffffffffffffffffffffffffffffffff1673ffffffffffffffffffffffffffffffffffffffff16630ea474c7856040518263ffffffff1660e01b8152600401808273ffffffffffffffffffffffffffffffffffffffff1673ffffffffffffffffffffffffffffffffffffffff16815260200191505060206040518083038186803b158015611eba57600080fd5b505afa158015611ece573d6000803e3d6000fd5b505050506040513d6020811015611ee457600080fd5b810190808051906020019092919050505090506000600c60009054906101000a900473ffffffffffffffffffffffffffffffffffffffff1673ffffffffffffffffffffffffffffffffffffffff16634df9d6ba866040518263ffffffff1660e01b8152600401808273ffffffffffffffffffffffffffffffffffffffff1673ffffffffffffffffffffffffffffffffffffffff16815260200191505060206040518083038186803b158015611f9857600080fd5b505afa158015611fac573d6000803e3d6000fd5b505050506040513d6020811015611fc257600080fd5b81019080805190602001909291905050509050611ffa81611fec848661422290919063ffffffff16565b61422290919063ffffffff16565b9350505050919050565b600080600080600060018714156122dd57600860009054906101000a900473ffffffffffffffffffffffffffffffffffffffff1673ffffffffffffffffffffffffffffffffffffffff166334f19e2c336040518263ffffffff1660e01b8152600401808273ffffffffffffffffffffffffffffffffffffffff1673ffffffffffffffffffffffffffffffffffffffff16815260200191505060206040518083038186803b1580156120b457600080fd5b505afa1580156120c8573d6000803e3d6000fd5b505050506040513d60208110156120de57600080fd5b8101908080519060200190929190505050905060008090505b818110156122d757600860009054906101000a900473ffffffffffffffffffffffffffffffffffffffff1673ffffffffffffffffffffffffffffffffffffffff1663fc57c9bb33836040518363ffffffff1660e01b8152600401808373ffffffffffffffffffffffffffffffffffffffff1673ffffffffffffffffffffffffffffffffffffffff1681526020018281526020019250505060206040518083038186803b1580156121a657600080fd5b505afa1580156121ba573d6000803e3d6000fd5b505050506040513d60208110156121d057600080fd5b81019080805190602001909291905050509350600860009054906101000a900473ffffffffffffffffffffffffffffffffffffffff1673ffffffffffffffffffffffffffffffffffffffff166354a1b431856040518263ffffffff1660e01b81526004018082815260200191505060806040518083038186803b15801561225657600080fd5b505afa15801561226a573d6000803e3d6000fd5b505050506040513d608081101561228057600080fd5b81019080805190602001909291908051906020019092919080519060200190929190805190602001909291905050509091925090508096508194505050868314156122ca576122d7565b80806001019150506120f7565b506125a1565b600860009054906101000a900473ffffffffffffffffffffffffffffffffffffffff1673ffffffffffffffffffffffffffffffffffffffff1663274d865f336040518263ffffffff1660e01b8152600401808273ffffffffffffffffffffffffffffffffffffffff1673ffffffffffffffffffffffffffffffffffffffff16815260200191505060206040518083038186803b15801561237c57600080fd5b505afa158015612390573d6000803e3d6000fd5b505050506040513d60208110156123a657600080fd5b8101908080519060200190929190505050905060008090505b8181101561259f57600860009054906101000a900473ffffffffffffffffffffffffffffffffffffffff1673ffffffffffffffffffffffffffffffffffffffff1663f2d16e2a33836040518363ffffffff1660e01b8152600401808373ffffffffffffffffffffffffffffffffffffffff1673ffffffffffffffffffffffffffffffffffffffff1681526020018281526020019250505060206040518083038186803b15801561246e57600080fd5b505afa158015612482573d6000803e3d6000fd5b505050506040513d602081101561249857600080fd5b81019080805190602001909291905050509350600860009054906101000a900473ffffffffffffffffffffffffffffffffffffffff1673ffffffffffffffffffffffffffffffffffffffff166354a1b431856040518263ffffffff1660e01b81526004018082815260200191505060806040518083038186803b15801561251e57600080fd5b505afa158015612532573d6000803e3d6000fd5b505050506040513d608081101561254857600080fd5b81019080805190602001909291908051906020019092919080519060200190929190805190602001909291905050509091925090508096508194505050868314156125925761259f565b80806001019150506123bf565b505b6125ad8784600161399d565b909150905050809550505050509250929050565b600080600860009054906101000a900473ffffffffffffffffffffffffffffffffffffffff1673ffffffffffffffffffffffffffffffffffffffff166334f19e2c846040518263ffffffff1660e01b8152600401808273ffffffffffffffffffffffffffffffffffffffff1673ffffffffffffffffffffffffffffffffffffffff16815260200191505060206040518083038186803b15801561266357600080fd5b505afa158015612677573d6000803e3d6000fd5b505050506040513d602081101561268d57600080fd5b81019080805190602001909291905050509050600080600080600860009054906101000a900473ffffffffffffffffffffffffffffffffffffffff1673ffffffffffffffffffffffffffffffffffffffff166304ecffeb886040518263ffffffff1660e01b8152600401808273ffffffffffffffffffffffffffffffffffffffff1673ffffffffffffffffffffffffffffffffffffffff168152602001915050604080518083038186803b15801561274457600080fd5b505afa158015612758573d6000803e3d6000fd5b505050506040513d604081101561276e57600080fd5b810190808051906020019092919080519060200190929190505050809450819550505060008490505b858110156128bc57600860009054906101000a900473ffffffffffffffffffffffffffffffffffffffff1673ffffffffffffffffffffffffffffffffffffffff1663fc57c9bb89836040518363ffffffff1660e01b8152600401808373ffffffffffffffffffffffffffffffffffffffff1673ffffffffffffffffffffffffffffffffffffffff1681526020018281526020019250505060206040518083038186803b15801561284657600080fd5b505afa15801561285a573d6000803e3d6000fd5b505050506040513d602081101561287057600080fd5b81019080805190602001909291905050509150612890600183600061399d565b909150905050809350506128ad838861422290919063ffffffff16565b96508080600101915050612797565b50600860009054906101000a900473ffffffffffffffffffffffffffffffffffffffff1673ffffffffffffffffffffffffffffffffffffffff1663274d865f886040518263ffffffff1660e01b8152600401808273ffffffffffffffffffffffffffffffffffffffff1673ffffffffffffffffffffffffffffffffffffffff16815260200191505060206040518083038186803b15801561295c57600080fd5b505afa158015612970573d6000803e3d6000fd5b505050506040513d602081101561298657600080fd5b8101908080519060200190929190505050945060008390505b85811015612ac457600860009054906101000a900473ffffffffffffffffffffffffffffffffffffffff1673ffffffffffffffffffffffffffffffffffffffff1663f2d16e2a89836040518363ffffffff1660e01b8152600401808373ffffffffffffffffffffffffffffffffffffffff1673ffffffffffffffffffffffffffffffffffffffff1681526020018281526020019250505060206040518083038186803b158015612a4e57600080fd5b505afa158015612a62573d6000803e3d6000fd5b505050506040513d6020811015612a7857600080fd5b81019080805190602001909291905050509150612a98600083600061399d565b90915090505080935050612ab5838861422290919063ffffffff16565b9650808060010191505061299f565b508595505050505050919050565b600015156000809054906101000a900473ffffffffffffffffffffffffffffffffffffffff1673ffffffffffffffffffffffffffffffffffffffff1663ff0938a76040518163ffffffff1660e01b815260040160206040518083038186803b158015612b3d57600080fd5b505afa158015612b51573d6000803e3d6000fd5b505050506040513d6020811015612b6757600080fd5b81019080805190602001909291905050501515148015612c635750600115156000809054906101000a900473ffffffffffffffffffffffffffffffffffffffff1673ffffffffffffffffffffffffffffffffffffffff1663a230c524336040518263ffffffff1660e01b8152600401808273ffffffffffffffffffffffffffffffffffffffff1673ffffffffffffffffffffffffffffffffffffffff16815260200191505060206040518083038186803b158015612c2457600080fd5b505afa158015612c38573d6000803e3d6000fd5b505050506040513d6020811015612c4e57600080fd5b81019080805190602001909291905050501515145b612c6c57600080fd5b612c75816142aa565b600d60009054906101000a900473ffffffffffffffffffffffffffffffffffffffff1673ffffffffffffffffffffffffffffffffffffffff1663b86e321c336040518263ffffffff1660e01b8152600401808273ffffffffffffffffffffffffffffffffffffffff1673ffffffffffffffffffffffffffffffffffffffff168152602001915050600060405180830381600087803b158015612d1657600080fd5b505af1158015612d2a573d6000803e3d6000fd5b505050506000600c60009054906101000a900473ffffffffffffffffffffffffffffffffffffffff1673ffffffffffffffffffffffffffffffffffffffff1663174e31c433846040518363ffffffff1660e01b8152600401808373ffffffffffffffffffffffffffffffffffffffff1673ffffffffffffffffffffffffffffffffffffffff16815260200182815260200192505050602060405180830381600087803b158015612dd957600080fd5b505af1158015612ded573d6000803e3d6000fd5b505050506040513d6020811015612e0357600080fd5b810190808051906020019092919050505090506000811115612f0d57600260009054906101000a900473ffffffffffffffffffffffffffffffffffffffff1673ffffffffffffffffffffffffffffffffffffffff1663a9059cbb33836040518363ffffffff1660e01b8152600401808373ffffffffffffffffffffffffffffffffffffffff1673ffffffffffffffffffffffffffffffffffffffff16815260200182815260200192505050602060405180830381600087803b158015612ec857600080fd5b505af1158015612edc573d6000803e3d6000fd5b505050506040513d6020811015612ef257600080fd5b8101908080519060200190929190505050612f0c57600080fd5b5b5050565b600015156000809054906101000a900473ffffffffffffffffffffffffffffffffffffffff1673ffffffffffffffffffffffffffffffffffffffff1663ff0938a76040518163ffffffff1660e01b815260040160206040518083038186803b158015612f7c57600080fd5b505afa158015612f90573d6000803e3d6000fd5b505050506040513d6020811015612fa657600080fd5b8101908080519060200190929190505050151514612fc357600080fd5b6000809054906101000a900473ffffffffffffffffffffffffffffffffffffffff1673ffffffffffffffffffffffffffffffffffffffff16638f16c41c336040518263ffffffff1660e01b8152600401808273ffffffffffffffffffffffffffffffffffffffff1673ffffffffffffffffffffffffffffffffffffffff16815260200191505060206040518083038186803b15801561306157600080fd5b505afa158015613075573d6000803e3d6000fd5b505050506040513d602081101561308b57600080fd5b81019080805190602001909291905050506130a557600080fd5b6000600860009054906101000a900473ffffffffffffffffffffffffffffffffffffffff1673ffffffffffffffffffffffffffffffffffffffff166396ff592f836040518263ffffffff1660e01b815260040180828152602001915050604080518083038186803b15801561311957600080fd5b505afa15801561312d573d6000803e3d6000fd5b505050506040513d604081101561314357600080fd5b8101908080519060200190929190805190602001909291905050509050809150506000600860009054906101000a900473ffffffffffffffffffffffffffffffffffffffff1673ffffffffffffffffffffffffffffffffffffffff16630325ea37846040518263ffffffff1660e01b815260040180828152602001915050604080518083038186803b1580156131d857600080fd5b505afa1580156131ec573d6000803e3d6000fd5b505050506040513d604081101561320257600080fd5b810190808051906020019092919080519060200190929190505050905080915050600081141561323c57613237838383615617565b613755565b6001811015801561324e575060058111155b156132635761325e838383615d47565b613754565b600c8114156137535760006133326012600a0a600660009054906101000a900473ffffffffffffffffffffffffffffffffffffffff1673ffffffffffffffffffffffffffffffffffffffff16631ce48f3d866040518263ffffffff1660e01b81526004018082815260200191505060206040518083038186803b1580156132e957600080fd5b505afa1580156132fd573d6000803e3d6000fd5b505050506040513d602081101561331357600080fd5b810190808051906020019092919050505061410890919063ffffffff16565b90506000600660009054906101000a900473ffffffffffffffffffffffffffffffffffffffff1673ffffffffffffffffffffffffffffffffffffffff16633c2d4daf856040518263ffffffff1660e01b81526004018082815260200191505060206040518083038186803b1580156133a957600080fd5b505afa1580156133bd573d6000803e3d6000fd5b505050506040513d60208110156133d357600080fd5b810190808051906020019092919050505090506000600660009054906101000a900473ffffffffffffffffffffffffffffffffffffffff1673ffffffffffffffffffffffffffffffffffffffff16638b5722f4866040518263ffffffff1660e01b81526004018082815260200191505060206040518083038186803b15801561345b57600080fd5b505afa15801561346f573d6000803e3d6000fd5b505050506040513d602081101561348557600080fd5b810190808051906020019092919050505090506000600960009054906101000a900473ffffffffffffffffffffffffffffffffffffffff1673ffffffffffffffffffffffffffffffffffffffff166399bb585687898787876040518663ffffffff1660e01b8152600401808681526020018581526020018481526020018373ffffffffffffffffffffffffffffffffffffffff1673ffffffffffffffffffffffffffffffffffffffff168152602001827bffffffffffffffffffffffffffffffffffffffffffffffffffffffff19167bffffffffffffffffffffffffffffffffffffffffffffffffffffffff1916815260200195505050505050602060405180830381600087803b15801561359957600080fd5b505af11580156135ad573d6000803e3d6000fd5b505050506040513d60208110156135c357600080fd5b81019080805190602001909291905050509050801561374e57600460009054906101000a900473ffffffffffffffffffffffffffffffffffffffff1673ffffffffffffffffffffffffffffffffffffffff1663fd5509b78784876040518463ffffffff1660e01b815260040180848152602001837bffffffffffffffffffffffffffffffffffffffffffffffffffffffff19167bffffffffffffffffffffffffffffffffffffffffffffffffffffffff191681526020018281526020019350505050600060405180830381600087803b15801561369f57600080fd5b505af11580156136b3573d6000803e3d6000fd5b50505050600760009054906101000a900473ffffffffffffffffffffffffffffffffffffffff1673ffffffffffffffffffffffffffffffffffffffff1663f511bdfe88600e6040518363ffffffff1660e01b81526004018083815260200182815260200192505050600060405180830381600087803b15801561373557600080fd5b505af1158015613749573d6000803e3d6000fd5b505050505b505050505b5b5b600760009054906101000a900473ffffffffffffffffffffffffffffffffffffffff1673ffffffffffffffffffffffffffffffffffffffff1663b23d76346040518163ffffffff1660e01b8152600401600060405180830381600087803b1580156137bf57600080fd5b505af11580156137d3573d6000803e3d6000fd5b50505050505050565b6000809054906101000a900473ffffffffffffffffffffffffffffffffffffffff1681565b600073ffffffffffffffffffffffffffffffffffffffff166000809054906101000a900473ffffffffffffffffffffffffffffffffffffffff1673ffffffffffffffffffffffffffffffffffffffff1614613919573373ffffffffffffffffffffffffffffffffffffffff166000809054906101000a900473ffffffffffffffffffffffffffffffffffffffff1673ffffffffffffffffffffffffffffffffffffffff1614613918576040517f08c379a000000000000000000000000000000000000000000000000000000000815260040180806020018281038252600a8152602001807f4e6f74206d61737465720000000000000000000000000000000000000000000081525060200191505060405180910390fd5b5b806000806101000a81548173ffffffffffffffffffffffffffffffffffffffff021916908373ffffffffffffffffffffffffffffffffffffffff16021790555080600160006101000a81548173ffffffffffffffffffffffffffffffffffffffff021916908373ffffffffffffffffffffffffffffffffffffffff16021790555050565b6000806000806000806000806000600860009054906101000a900473ffffffffffffffffffffffffffffffffffffffff1673ffffffffffffffffffffffffffffffffffffffff166354a1b4318c6040518263ffffffff1660e01b81526004018082815260200191505060806040518083038186803b158015613a1e57600080fd5b505afa158015613a32573d6000803e3d6000fd5b505050506040513d6080811015613a4857600080fd5b8101908080519060200190929190805190602001909291908051906020019092919080519060200190929190505050809650819750829850839a5050505050600097506000600860009054906101000a900473ffffffffffffffffffffffffffffffffffffffff1673ffffffffffffffffffffffffffffffffffffffff16634e06c014876040518263ffffffff1660e01b81526004018082815260200191505060206040518083038186803b158015613b0057600080fd5b505afa158015613b14573d6000803e3d6000fd5b505050506040513d6020811015613b2a57600080fd5b8101908080519060200190929190505050905060008160000b1415613b4e57600198505b8460000b8160000b148015613b725750600015158415151480613b71575060018b145b5b156140d35760018d1415613c5157600860009054906101000a900473ffffffffffffffffffffffffffffffffffffffff1673ffffffffffffffffffffffffffffffffffffffff1663c49a8b19876040518263ffffffff1660e01b81526004018082815260200191505060606040518083038186803b158015613bf357600080fd5b505afa158015613c07573d6000803e3d6000fd5b505050506040513d6060811015613c1d57600080fd5b8101908080519060200190929190805190602001909291908051906020019092919050505090508094508198505050613d1f565b600860009054906101000a900473ffffffffffffffffffffffffffffffffffffffff1673ffffffffffffffffffffffffffffffffffffffff1663c49a8b19876040518263ffffffff1660e01b81526004018082815260200191505060606040518083038186803b158015613cc457600080fd5b505afa158015613cd8573d6000803e3d6000fd5b505050506040513d6060811015613cee57600080fd5b8101908080519060200190929190805190602001909291908051906020019092919050505090915080945081985050505b60008711156140d25760018d1415613edd5760018560000b1415613e0c57600860009054906101000a900473ffffffffffffffffffffffffffffffffffffffff1673ffffffffffffffffffffffffffffffffffffffff1663dbd0064c876040518263ffffffff1660e01b81526004018082815260200191505060606040518083038186803b158015613db057600080fd5b505afa158015613dc4573d6000803e3d6000fd5b505050506040513d6060811015613dda57600080fd5b810190808051906020019092919080519060200190929190805190602001909291905050509091505080925050613ed8565b600860009054906101000a900473ffffffffffffffffffffffffffffffffffffffff1673ffffffffffffffffffffffffffffffffffffffff1663dbd0064c876040518263ffffffff1660e01b81526004018082815260200191505060606040518083038186803b158015613e7f57600080fd5b505afa158015613e93573d6000803e3d6000fd5b505050506040513d6060811015613ea957600080fd5b810190808051906020019092919080519060200190929190805190602001909291905050509091509050809250505b614085565b60018560000b1415613fb857600860009054906101000a900473ffffffffffffffffffffffffffffffffffffffff1673ffffffffffffffffffffffffffffffffffffffff1663949d9d76876040518263ffffffff1660e01b81526004018082815260200191505060606040518083038186803b158015613f5c57600080fd5b505afa158015613f70573d6000803e3d6000fd5b505050506040513d6060811015613f8657600080fd5b810190808051906020019092919080519060200190929190805190602001909291905050509091505080925050614084565b600860009054906101000a900473ffffffffffffffffffffffffffffffffffffffff1673ffffffffffffffffffffffffffffffffffffffff1663949d9d76876040518263ffffffff1660e01b81526004018082815260200191505060606040518083038186803b15801561402b57600080fd5b505afa15801561403f573d6000803e3d6000fd5b505050506040513d606081101561405557600080fd5b810190808051906020019092919080519060200190929190805190602001909291905050509091509050809250505b5b6140cf61409c60648461410890919063ffffffff16565b6140c1856140b38c8c61410890919063ffffffff16565b61410890919063ffffffff16565b61418e90919063ffffffff16565b99505b5b50505050505093509350935093565b600160009054906101000a900473ffffffffffffffffffffffffffffffffffffffff1681565b60008083141561411b5760009050614188565b600082840290508284828161412c57fe5b0414614183576040517f08c379a00000000000000000000000000000000000000000000000000000000081526004018080602001828103825260218152602001806173a96021913960400191505060405180910390fd5b809150505b92915050565b60006141d083836040518060400160405280601a81526020017f536166654d6174683a206469766973696f6e206279207a65726f000000000000815250616439565b905092915050565b600061421a83836040518060400160405280601e81526020017f536166654d6174683a207375627472616374696f6e206f766572666c6f7700008152506164ff565b905092915050565b6000808284019050838110156142a0576040517f08c379a000000000000000000000000000000000000000000000000000000000815260040180806020018281038252601b8152602001807f536166654d6174683a206164646974696f6e206f766572666c6f77000000000081525060200191505060405180910390fd5b8091505092915050565b6000600860009054906101000a900473ffffffffffffffffffffffffffffffffffffffff1673ffffffffffffffffffffffffffffffffffffffff166334f19e2c336040518263ffffffff1660e01b8152600401808273ffffffffffffffffffffffffffffffffffffffff1673ffffffffffffffffffffffffffffffffffffffff16815260200191505060206040518083038186803b15801561434b57600080fd5b505afa15801561435f573d6000803e3d6000fd5b505050506040513d602081101561437557600080fd5b81019080805190602001909291905050509050600080600860009054906101000a900473ffffffffffffffffffffffffffffffffffffffff1673ffffffffffffffffffffffffffffffffffffffff166304ecffeb336040518263ffffffff1660e01b8152600401808273ffffffffffffffffffffffffffffffffffffffff1673ffffffffffffffffffffffffffffffffffffffff168152602001915050604080518083038186803b15801561442957600080fd5b505afa15801561443d573d6000803e3d6000fd5b505050506040513d604081101561445357600080fd5b810190808051906020019092919080519060200190929190505050508091505060008090506000809050600080600560009054906101000a900473ffffffffffffffffffffffffffffffffffffffff1673ffffffffffffffffffffffffffffffffffffffff16630d2c11046040518163ffffffff1660e01b815260040160206040518083038186803b1580156144e857600080fd5b505afa1580156144fc573d6000803e3d6000fd5b505050506040513d602081101561451257600080fd5b81019080805190602001909291905050509050600080600090506000806000808c90508a91505b8c8210801561454757508d85105b15614a6e57600860009054906101000a900473ffffffffffffffffffffffffffffffffffffffff1673ffffffffffffffffffffffffffffffffffffffff1663fc57c9bb33846040518363ffffffff1660e01b8152600401808373ffffffffffffffffffffffffffffffffffffffff1673ffffffffffffffffffffffffffffffffffffffff1681526020018281526020019250505060206040518083038186803b1580156145f357600080fd5b505afa158015614607573d6000803e3d6000fd5b505050506040513d602081101561461d57600080fd5b81019080805190602001909291905050509b5061463d60018d600061399d565b9050809550819a50829b505050508c8114801561465e575060011515881515145b15614667578190505b600860009054906101000a900473ffffffffffffffffffffffffffffffffffffffff1673ffffffffffffffffffffffffffffffffffffffff166354a1b4318d6040518263ffffffff1660e01b81526004018082815260200191505060806040518083038186803b1580156146da57600080fd5b505afa1580156146ee573d6000803e3d6000fd5b505050506040513d608081101561470457600080fd5b8101908080519060200190929190805190602001909291908051906020019092919080519060200190929190505050909192509050809750819550505060008311801561474f575085155b156147fb578480600101955050600860009054906101000a900473ffffffffffffffffffffffffffffffffffffffff1673ffffffffffffffffffffffffffffffffffffffff1663f27a10478d60016040518363ffffffff1660e01b8152600401808381526020018215151515815260200192505050600060405180830381600087803b1580156147de57600080fd5b505af11580156147f2573d6000803e3d6000fd5b50505050614a42565b6000831480156148bc57506000600860009054906101000a900473ffffffffffffffffffffffffffffffffffffffff1673ffffffffffffffffffffffffffffffffffffffff16634e06c014866040518263ffffffff1660e01b81526004018082815260200191505060206040518083038186803b15801561487b57600080fd5b505afa15801561488f573d6000803e3d6000fd5b505050506040513d60208110156148a557600080fd5b810190808051906020019092919050505060000b14155b80156148c6575085155b15614a4157600860009054906101000a900473ffffffffffffffffffffffffffffffffffffffff1673ffffffffffffffffffffffffffffffffffffffff1663c49a8b19856040518263ffffffff1660e01b81526004018082815260200191505060606040518083038186803b15801561493e57600080fd5b505afa158015614952573d6000803e3d6000fd5b505050506040513d606081101561496857600080fd5b810190808051906020019092919080519060200190929190805190602001909291905050509050508093505060008314156149a65784806001019550505b600860009054906101000a900473ffffffffffffffffffffffffffffffffffffffff1673ffffffffffffffffffffffffffffffffffffffff1663f27a10478d60016040518363ffffffff1660e01b8152600401808381526020018215151515815260200192505050600060405180830381600087803b158015614a2857600080fd5b505af1158015614a3c573d6000803e3d6000fd5b505050505b5b6000891115614a6157614a5e8a8a61422290919063ffffffff16565b99505b8180600101925050614539565b8c811415614b3c57600860009054906101000a900473ffffffffffffffffffffffffffffffffffffffff1673ffffffffffffffffffffffffffffffffffffffff1663be7cbc5c33846040518363ffffffff1660e01b8152600401808373ffffffffffffffffffffffffffffffffffffffff1673ffffffffffffffffffffffffffffffffffffffff16815260200182815260200192505050600060405180830381600087803b158015614b1f57600080fd5b505af1158015614b33573d6000803e3d6000fd5b50505050614bfe565b600860009054906101000a900473ffffffffffffffffffffffffffffffffffffffff1673ffffffffffffffffffffffffffffffffffffffff1663be7cbc5c33836040518363ffffffff1660e01b8152600401808373ffffffffffffffffffffffffffffffffffffffff1673ffffffffffffffffffffffffffffffffffffffff16815260200182815260200192505050600060405180830381600087803b158015614be557600080fd5b505af1158015614bf9573d6000803e3d6000fd5b505050505b600860009054906101000a900473ffffffffffffffffffffffffffffffffffffffff1673ffffffffffffffffffffffffffffffffffffffff1663274d865f336040518263ffffffff1660e01b8152600401808273ffffffffffffffffffffffffffffffffffffffff1673ffffffffffffffffffffffffffffffffffffffff16815260200191505060206040518083038186803b158015614c9d57600080fd5b505afa158015614cb1573d6000803e3d6000fd5b505050506040513d6020811015614cc757600080fd5b81019080805190602001909291905050509c508c9050614cf0858861410890919063ffffffff16565b96506000600360009054906101000a900473ffffffffffffffffffffffffffffffffffffffff1673ffffffffffffffffffffffffffffffffffffffff1663179e91f133426040518363ffffffff1660e01b8152600401808373ffffffffffffffffffffffffffffffffffffffff1673ffffffffffffffffffffffffffffffffffffffff168152602001807f434c4100000000000000000000000000000000000000000000000000000000008152506020018281526020019250505060206040518083038186803b158015614dc357600080fd5b505afa158015614dd7573d6000803e3d6000fd5b505050506040513d6020811015614ded57600080fd5b81019080805190602001909291905050501115614eee57600360009054906101000a900473ffffffffffffffffffffffffffffffffffffffff1673ffffffffffffffffffffffffffffffffffffffff16631fea558f33896040518363ffffffff1660e01b8152600401808373ffffffffffffffffffffffffffffffffffffffff1673ffffffffffffffffffffffffffffffffffffffff168152602001807f434c41000000000000000000000000000000000000000000000000000000000081525060200182815260200192505050600060405180830381600087803b158015614ed557600080fd5b505af1158015614ee9573d6000803e3d6000fd5b505050505b600860009054906101000a900473ffffffffffffffffffffffffffffffffffffffff1673ffffffffffffffffffffffffffffffffffffffff166304ecffeb336040518263ffffffff1660e01b8152600401808273ffffffffffffffffffffffffffffffffffffffff1673ffffffffffffffffffffffffffffffffffffffff168152602001915050604080518083038186803b158015614f8c57600080fd5b505afa158015614fa0573d6000803e3d6000fd5b505050506040513d6040811015614fb657600080fd5b8101908080519060200190929190805190602001909291905050509050809b50508c9050600094508a91505b8c82108015614ff057508d85105b1561538057600860009054906101000a900473ffffffffffffffffffffffffffffffffffffffff1673ffffffffffffffffffffffffffffffffffffffff1663f2d16e2a33846040518363ffffffff1660e01b8152600401808373ffffffffffffffffffffffffffffffffffffffff1673ffffffffffffffffffffffffffffffffffffffff1681526020018281526020019250505060206040518083038186803b15801561509c57600080fd5b505afa1580156150b0573d6000803e3d6000fd5b505050506040513d60208110156150c657600080fd5b81019080805190602001909291905050509b506150e660008d600061399d565b905050809950819a5050508c81148015615104575060011515881515145b1561510d578190505b600860009054906101000a900473ffffffffffffffffffffffffffffffffffffffff1673ffffffffffffffffffffffffffffffffffffffff166354a1b4318d6040518263ffffffff1660e01b81526004018082815260200191505060806040518083038186803b15801561518057600080fd5b505afa158015615194573d6000803e3d6000fd5b505050506040513d60808110156151aa57600080fd5b81019080805190602001909291908051906020019092919080519060200190929190805190602001909291905050509091925090508097508195505050600015158615151480156152ac57506000600860009054906101000a900473ffffffffffffffffffffffffffffffffffffffff1673ffffffffffffffffffffffffffffffffffffffff16634e06c014866040518263ffffffff1660e01b81526004018082815260200191505060206040518083038186803b15801561526b57600080fd5b505afa15801561527f573d6000803e3d6000fd5b505050506040513d602081101561529557600080fd5b810190808051906020019092919050505060000b14155b1561535457600860009054906101000a900473ffffffffffffffffffffffffffffffffffffffff1673ffffffffffffffffffffffffffffffffffffffff1663f27a10478d60016040518363ffffffff1660e01b8152600401808381526020018215151515815260200192505050600060405180830381600087803b15801561533357600080fd5b505af1158015615347573d6000803e3d6000fd5b5050505084806001019550505b6000891115615373576153708a8a61422290919063ffffffff16565b99505b8180600101925050614fe2565b60008a111561547757600260009054906101000a900473ffffffffffffffffffffffffffffffffffffffff1673ffffffffffffffffffffffffffffffffffffffff1663a9059cbb338c6040518363ffffffff1660e01b8152600401808373ffffffffffffffffffffffffffffffffffffffff1673ffffffffffffffffffffffffffffffffffffffff16815260200182815260200192505050602060405180830381600087803b15801561543257600080fd5b505af1158015615446573d6000803e3d6000fd5b505050506040513d602081101561545c57600080fd5b810190808051906020019092919050505061547657600080fd5b5b8c81141561554557600860009054906101000a900473ffffffffffffffffffffffffffffffffffffffff1673ffffffffffffffffffffffffffffffffffffffff16633cc17a5433846040518363ffffffff1660e01b8152600401808373ffffffffffffffffffffffffffffffffffffffff1673ffffffffffffffffffffffffffffffffffffffff16815260200182815260200192505050600060405180830381600087803b15801561552857600080fd5b505af115801561553c573d6000803e3d6000fd5b50505050615607565b600860009054906101000a900473ffffffffffffffffffffffffffffffffffffffff1673ffffffffffffffffffffffffffffffffffffffff16633cc17a5433836040518363ffffffff1660e01b8152600401808373ffffffffffffffffffffffffffffffffffffffff1673ffffffffffffffffffffffffffffffffffffffff16815260200182815260200192505050600060405180830381600087803b1580156155ee57600080fd5b505af1158015615602573d6000803e3d6000fd5b505050505b5050505050505050505050505050565b6001600760009054906101000a900473ffffffffffffffffffffffffffffffffffffffff1673ffffffffffffffffffffffffffffffffffffffff1663ef154cf2856040518263ffffffff1660e01b81526004018082815260200191505060206040518083038186803b15801561568c57600080fd5b505afa1580156156a0573d6000803e3d6000fd5b505050506040513d60208110156156b657600080fd5b810190808051906020019092919050505060000b1415615d42576000600760009054906101000a900473ffffffffffffffffffffffffffffffffffffffff1673ffffffffffffffffffffffffffffffffffffffff166357af05158560006040518363ffffffff1660e01b8152600401808381526020018281526020019250505060206040518083038186803b15801561574e57600080fd5b505afa158015615762573d6000803e3d6000fd5b505050506040513d602081101561577857600080fd5b810190808051906020019092919050505090506000806000806000600860009054906101000a900473ffffffffffffffffffffffffffffffffffffffff1673ffffffffffffffffffffffffffffffffffffffff1663542753248a60016040518363ffffffff1660e01b8152600401808381526020018260000b815260200192505050604080518083038186803b15801561581157600080fd5b505afa158015615825573d6000803e3d6000fd5b505050506040513d604081101561583b57600080fd5b810190808051906020019092919080519060200190929190505050905080955050600860009054906101000a900473ffffffffffffffffffffffffffffffffffffffff1673ffffffffffffffffffffffffffffffffffffffff1663542753248a7fffffffffffffffffffffffffffffffffffffffffffffffffffffffffffffffff6040518363ffffffff1660e01b8152600401808381526020018260000b815260200192505050604080518083038186803b1580156158f957600080fd5b505afa15801561590d573d6000803e3d6000fd5b505050506040513d604081101561592357600080fd5b810190808051906020019092919080519060200190929190505050905080945050615957848661422290919063ffffffff16565b925061596d60648661410890919063ffffffff16565b945061598360648561410890919063ffffffff16565b935060008614156159975760039650615c93565b615a5b6012600a0a600660009054906101000a900473ffffffffffffffffffffffffffffffffffffffff1673ffffffffffffffffffffffffffffffffffffffff16631ce48f3d8b6040518263ffffffff1660e01b81526004018082815260200191505060206040518083038186803b158015615a1257600080fd5b505afa158015615a26573d6000803e3d6000fd5b505050506040513d6020811015615a3c57600080fd5b810190808051906020019092919050505061410890919063ffffffff16565b9050615a7160058261410890919063ffffffff16565b861115615c57576046615a8d848761418e90919063ffffffff16565b1115615b475760079650600660009054906101000a900473ffffffffffffffffffffffffffffffffffffffff1673ffffffffffffffffffffffffffffffffffffffff1663ae1c5eca8960016005811115615ae357fe5b6040518363ffffffff1660e01b8152600401808381526020018260ff1660ff16815260200192505050600060405180830381600087803b158015615b2657600080fd5b505af1158015615b3a573d6000803e3d6000fd5b5050505060019150615c52565b6046615b5c848661418e90919063ffffffff16565b1115615c165760069650600660009054906101000a900473ffffffffffffffffffffffffffffffffffffffff1673ffffffffffffffffffffffffffffffffffffffff1663ae1c5eca8960026005811115615bb257fe5b6040518363ffffffff1660e01b8152600401808381526020018260ff1660ff16815260200192505050600060405180830381600087803b158015615bf557600080fd5b505af1158015615c09573d6000803e3d6000fd5b5050505060019150615c51565b615c29838561418e90919063ffffffff16565b615c3c848761418e90919063ffffffff16565b1115615c4b5760049650615c50565b600596505b5b5b615c92565b615c6a838561418e90919063ffffffff16565b615c7d848761418e90919063ffffffff16565b1115615c8c5760029650615c91565b600396505b5b5b600760009054906101000a900473ffffffffffffffffffffffffffffffffffffffff1673ffffffffffffffffffffffffffffffffffffffff1663f511bdfe8a896040518363ffffffff1660e01b81526004018083815260200182815260200192505050600060405180830381600087803b158015615d1057600080fd5b505af1158015615d24573d6000803e3d6000fd5b505050508115615d3b57615d3a8989838a6165bf565b5b5050505050505b505050565b6001600760009054906101000a900473ffffffffffffffffffffffffffffffffffffffff1673ffffffffffffffffffffffffffffffffffffffff1663ef154cf2856040518263ffffffff1660e01b81526004018082815260200191505060206040518083038186803b158015615dbc57600080fd5b505afa158015615dd0573d6000803e3d6000fd5b505050506040513d6020811015615de657600080fd5b810190808051906020019092919050505060000b1415616434576000808290506000600760009054906101000a900473ffffffffffffffffffffffffffffffffffffffff1673ffffffffffffffffffffffffffffffffffffffff166357af05158760016040518363ffffffff1660e01b8152600401808381526020018281526020019250505060206040518083038186803b158015615e8457600080fd5b505afa158015615e98573d6000803e3d6000fd5b505050506040513d6020811015615eae57600080fd5b810190808051906020019092919050505090506000615f876012600a0a600660009054906101000a900473ffffffffffffffffffffffffffffffffffffffff1673ffffffffffffffffffffffffffffffffffffffff16631ce48f3d896040518263ffffffff1660e01b81526004018082815260200191505060206040518083038186803b158015615f3e57600080fd5b505afa158015615f52573d6000803e3d6000fd5b505050506040513d6020811015615f6857600080fd5b810190808051906020019092919050505061410890919063ffffffff16565b90506000809050615fa260058361410890919063ffffffff16565b831015615fae57600190505b6000600860009054906101000a900473ffffffffffffffffffffffffffffffffffffffff1673ffffffffffffffffffffffffffffffffffffffff16635ca1ce8b8a60016040518363ffffffff1660e01b8152600401808381526020018260000b815260200192505050604080518083038186803b15801561602e57600080fd5b505afa158015616042573d6000803e3d6000fd5b505050506040513d604081101561605857600080fd5b8101908080519060200190929190805190602001909291905050509050809150506000600860009054906101000a900473ffffffffffffffffffffffffffffffffffffffff1673ffffffffffffffffffffffffffffffffffffffff16635ca1ce8b8b7fffffffffffffffffffffffffffffffffffffffffffffffffffffffffffffffff6040518363ffffffff1660e01b8152600401808381526020018260000b815260200192505050604080518083038186803b15801561611857600080fd5b505afa15801561612c573d6000803e3d6000fd5b505050506040513d604081101561614257600080fd5b8101908080519060200190929190805190602001909291905050509050809150506000616178828461422290919063ffffffff16565b11156162785760326161b8616196838561422290919063ffffffff16565b6161aa60648661410890919063ffffffff16565b61418e90919063ffffffff16565b101580156161c65750600186115b80156161d3575060058611155b80156161df5750600083145b156161fc5760089750600160058111156161f557fe5b9650616277565b6032616236616214838561422290919063ffffffff16565b61622860648561410890919063ffffffff16565b61418e90919063ffffffff16565b101580156162445750600186115b8015616251575060058611155b801561625d5750600083145b1561627657600997506002600581111561627357fe5b96505b5b5b600183148015616293575060028614806162925750600486145b5b156162b057600a9750600160058111156162a957fe5b96506162f0565b6001831480156162d6575060058614806162ca5750600386145b806162d55750600186145b5b156162ef57600b9750600260058111156162ec57fe5b96505b5b600760009054906101000a900473ffffffffffffffffffffffffffffffffffffffff1673ffffffffffffffffffffffffffffffffffffffff1663f511bdfe8b8a6040518363ffffffff1660e01b81526004018083815260200182815260200192505050600060405180830381600087803b15801561636d57600080fd5b505af1158015616381573d6000803e3d6000fd5b50505050600660009054906101000a900473ffffffffffffffffffffffffffffffffffffffff1673ffffffffffffffffffffffffffffffffffffffff1663ae1c5eca8a896040518363ffffffff1660e01b8152600401808381526020018260ff1660ff16815260200192505050600060405180830381600087803b15801561640857600080fd5b505af115801561641c573d6000803e3d6000fd5b5050505061642c8a8a868b6165bf565b505050505050505b505050565b600080831182906164e5576040517f08c379a00000000000000000000000000000000000000000000000000000000081526004018080602001828103825283818151815260200191508051906020019080838360005b838110156164aa57808201518184015260208101905061648f565b50505050905090810190601f1680156164d75780820380516001836020036101000a031916815260200191505b509250505060405180910390fd5b5060008385816164f157fe5b049050809150509392505050565b60008383111582906165ac576040517f08c379a00000000000000000000000000000000000000000000000000000000081526004018080602001828103825283818151815260200191508051906020019080838360005b83811015616571578082015181840152602081019050616556565b50505050905090810190601f16801561659e5780820380516001836020036101000a031916815260200191505b509250505060405180910390fd5b5060008385039050809150509392505050565b6000600660009054906101000a900473ffffffffffffffffffffffffffffffffffffffff1673ffffffffffffffffffffffffffffffffffffffff1663ba38de35856040518263ffffffff1660e01b81526004018082815260200191505060206040518083038186803b15801561663457600080fd5b505afa158015616648573d6000803e3d6000fd5b505050506040513d602081101561665e57600080fd5b810190808051906020019092919050505090506000600660009054906101000a900473ffffffffffffffffffffffffffffffffffffffff1673ffffffffffffffffffffffffffffffffffffffff16638b5722f4866040518263ffffffff1660e01b81526004018082815260200191505060206040518083038186803b1580156166e657600080fd5b505afa1580156166fa573d6000803e3d6000fd5b505050506040513d602081101561671057600080fd5b8101908080519060200190929190505050905060006167ed60646167df600860009054906101000a900473ffffffffffffffffffffffffffffffffffffffff1673ffffffffffffffffffffffffffffffffffffffff1663a8b395aa6040518163ffffffff1660e01b815260040160206040518083038186803b15801561679557600080fd5b505afa1580156167a9573d6000803e3d6000fd5b505050506040513d60208110156167bf57600080fd5b81019080805190602001909291905050508661410890919063ffffffff16565b61418e90919063ffffffff16565b9050600080600860009054906101000a900473ffffffffffffffffffffffffffffffffffffffff1673ffffffffffffffffffffffffffffffffffffffff16635f39579d876040518263ffffffff1660e01b815260040180828152602001915050604080518083038186803b15801561686457600080fd5b505afa158015616878573d6000803e3d6000fd5b505050506040513d604081101561688e57600080fd5b8101908080519060200190929190805190602001909291905050508092508193505050600860009054906101000a900473ffffffffffffffffffffffffffffffffffffffff1673ffffffffffffffffffffffffffffffffffffffff1663c672724a8a8484876040518563ffffffff1660e01b815260040180858152602001848152602001838152602001828152602001945050505050600060405180830381600087803b15801561693e57600080fd5b505af1158015616952573d6000803e3d6000fd5b5050505060008211806169655750600081115b15616a2c57600360009054906101000a900473ffffffffffffffffffffffffffffffffffffffff1673ffffffffffffffffffffffffffffffffffffffff166340c10f1930856040518363ffffffff1660e01b8152600401808373ffffffffffffffffffffffffffffffffffffffff1673ffffffffffffffffffffffffffffffffffffffff16815260200182815260200192505050600060405180830381600087803b158015616a1357600080fd5b505af1158015616a27573d6000803e3d6000fd5b505050505b6006861480616a3b5750600986145b80616a465750600b86145b15616eee57600860009054906101000a900473ffffffffffffffffffffffffffffffffffffffff1673ffffffffffffffffffffffffffffffffffffffff166346f4da578a7fffffffffffffffffffffffffffffffffffffffffffffffffffffffffffffffff6040518363ffffffff1660e01b8152600401808381526020018260000b815260200192505050600060405180830381600087803b158015616aeb57600080fd5b505af1158015616aff573d6000803e3d6000fd5b50505050600560009054906101000a900473ffffffffffffffffffffffffffffffffffffffff1673ffffffffffffffffffffffffffffffffffffffff16638831d5908960006040518363ffffffff1660e01b8152600401808381526020018215151515815260200192505050600060405180830381600087803b158015616b8557600080fd5b505af1158015616b99573d6000803e3d6000fd5b50505050600460009054906101000a900473ffffffffffffffffffffffffffffffffffffffff1673ffffffffffffffffffffffffffffffffffffffff16637dded30d896040518263ffffffff1660e01b815260040180828152602001915050602060405180830381600087803b158015616c1257600080fd5b505af1158015616c26573d6000803e3d6000fd5b505050506040513d6020811015616c3c57600080fd5b810190808051906020019092919050505050600b60009054906101000a900473ffffffffffffffffffffffffffffffffffffffff1673ffffffffffffffffffffffffffffffffffffffff1663d175058585616d8b8a600b60009054906101000a900473ffffffffffffffffffffffffffffffffffffffff1673ffffffffffffffffffffffffffffffffffffffff1663487d2d008a6040518263ffffffff1660e01b815260040180827bffffffffffffffffffffffffffffffffffffffffffffffffffffffff19167bffffffffffffffffffffffffffffffffffffffffffffffffffffffff1916815260200191505060206040518083038186803b158015616d4257600080fd5b505afa158015616d56573d6000803e3d6000fd5b505050506040513d6020811015616d6c57600080fd5b81019080805190602001909291905050506141d890919063ffffffff16565b6040518363ffffffff1660e01b815260040180837bffffffffffffffffffffffffffffffffffffffffffffffffffffffff19167bffffffffffffffffffffffffffffffffffffffffffffffffffffffff1916815260200182815260200192505050600060405180830381600087803b158015616e0657600080fd5b505af1158015616e1a573d6000803e3d6000fd5b50505050600a60009054906101000a900473ffffffffffffffffffffffffffffffffffffffff1673ffffffffffffffffffffffffffffffffffffffff16632d9fa500856040518263ffffffff1660e01b815260040180827bffffffffffffffffffffffffffffffffffffffffffffffffffffffff19167bffffffffffffffffffffffffffffffffffffffffffffffffffffffff19168152602001915050600060405180830381600087803b158015616ed157600080fd5b505af1158015616ee5573d6000803e3d6000fd5b5050505061739d565b6007861480616efd5750600886145b80616f085750600a86145b1561739c57600860009054906101000a900473ffffffffffffffffffffffffffffffffffffffff1673ffffffffffffffffffffffffffffffffffffffff166346f4da578a60016040518363ffffffff1660e01b8152600401808381526020018260000b815260200192505050600060405180830381600087803b158015616f8e57600080fd5b505af1158015616fa2573d6000803e3d6000fd5b50505050600560009054906101000a900473ffffffffffffffffffffffffffffffffffffffff1673ffffffffffffffffffffffffffffffffffffffff16638831d5908960006040518363ffffffff1660e01b8152600401808381526020018215151515815260200192505050600060405180830381600087803b15801561702857600080fd5b505af115801561703c573d6000803e3d6000fd5b50505050600460009054906101000a900473ffffffffffffffffffffffffffffffffffffffff1673ffffffffffffffffffffffffffffffffffffffff166385f52204896040518263ffffffff1660e01b815260040180828152602001915050600060405180830381600087803b1580156170b557600080fd5b505af11580156170c9573d6000803e3d6000fd5b505050506000600960009054906101000a900473ffffffffffffffffffffffffffffffffffffffff1673ffffffffffffffffffffffffffffffffffffffff166399bb58568a8c8b600660009054906101000a900473ffffffffffffffffffffffffffffffffffffffff1673ffffffffffffffffffffffffffffffffffffffff16633c2d4daf8f6040518263ffffffff1660e01b81526004018082815260200191505060206040518083038186803b15801561718357600080fd5b505afa158015617197573d6000803e3d6000fd5b505050506040513d60208110156171ad57600080fd5b81019080805190602001909291905050508a6040518663ffffffff1660e01b8152600401808681526020018581526020018481526020018373ffffffffffffffffffffffffffffffffffffffff1673ffffffffffffffffffffffffffffffffffffffff168152602001827bffffffffffffffffffffffffffffffffffffffffffffffffffffffff19167bffffffffffffffffffffffffffffffffffffffffffffffffffffffff1916815260200195505050505050602060405180830381600087803b15801561727b57600080fd5b505af115801561728f573d6000803e3d6000fd5b505050506040513d60208110156172a557600080fd5b81019080805190602001909291905050509050801561739a57600460009054906101000a900473ffffffffffffffffffffffffffffffffffffffff1673ffffffffffffffffffffffffffffffffffffffff1663fd5509b78a878b6040518463ffffffff1660e01b815260040180848152602001837bffffffffffffffffffffffffffffffffffffffffffffffffffffffff19167bffffffffffffffffffffffffffffffffffffffffffffffffffffffff191681526020018281526020019350505050600060405180830381600087803b15801561738157600080fd5b505af1158015617395573d6000803e3d6000fd5b505050505b505b5b50505050505050505056fe536166654d6174683a206d756c7469706c69636174696f6e206f766572666c6f77a265627a7a72315820d461471b514804008b5526c006d521b630ecc26a3193f9baec6832abbfb1d5fc64736f6c63430005110032",
  "linkReferences": {},
  "deployedLinkReferences": {}
}