{
  "_format": "hh-sol-artifact-1",
  "contractName": "DisposableNXMaster",
  "sourceName": "contracts/NexusMutual/mocks/DisposableNXMaster.sol",
  "abi": [
    {
      "constant": false,
      "inputs": [
        {
          "internalType": "bool",
          "name": "_pause",
          "type": "bool"
        },
        {
          "internalType": "bytes4",
          "name": "_by",
          "type": "bytes4"
        }
      ],
      "name": "addEmergencyPause",
      "outputs": [],
      "payable": false,
      "stateMutability": "nonpayable",
      "type": "function"
    },
    {
      "constant": false,
      "inputs": [
        {
          "internalType": "bytes2",
          "name": "_contractName",
          "type": "bytes2"
        },
        {
          "internalType": "address payable",
          "name": "_contractAddress",
          "type": "address"
        },
        {
          "internalType": "uint256",
          "name": "_type",
          "type": "uint256"
        }
      ],
      "name": "addNewInternalContract",
      "outputs": [],
      "payable": false,
      "stateMutability": "nonpayable",
      "type": "function"
    },
    {
      "constant": false,
      "inputs": [
        {
          "internalType": "address payable[]",
          "name": "_contractAddresses",
          "type": "address[]"
        }
      ],
      "name": "addNewVersion",
      "outputs": [],
      "payable": false,
      "stateMutability": "nonpayable",
      "type": "function"
    },
    {
      "constant": false,
      "inputs": [],
      "name": "changeAllAddress",
      "outputs": [],
      "payable": false,
      "stateMutability": "nonpayable",
      "type": "function"
    },
    {
      "constant": true,
      "inputs": [
        {
          "internalType": "address",
          "name": "_add",
          "type": "address"
        }
      ],
      "name": "checkIsAuthToGoverned",
      "outputs": [
        {
          "internalType": "bool",
          "name": "",
          "type": "bool"
        }
      ],
      "payable": false,
      "stateMutability": "view",
      "type": "function"
    },
    {
      "constant": false,
      "inputs": [
        {
          "internalType": "uint256",
          "name": "_claimId",
          "type": "uint256"
        }
      ],
      "name": "closeClaim",
      "outputs": [],
      "payable": false,
      "stateMutability": "nonpayable",
      "type": "function"
    },
    {
      "constant": true,
      "inputs": [
        {
          "internalType": "address",
          "name": "",
          "type": "address"
        }
      ],
      "name": "contractsActive",
      "outputs": [
        {
          "internalType": "bool",
          "name": "",
          "type": "bool"
        }
      ],
      "payable": false,
      "stateMutability": "view",
      "type": "function"
    },
    {
      "constant": true,
      "inputs": [],
      "name": "dAppLocker",
      "outputs": [
        {
          "internalType": "address",
          "name": "_add",
          "type": "address"
        }
      ],
      "payable": false,
      "stateMutability": "view",
      "type": "function"
    },
    {
      "constant": true,
      "inputs": [],
      "name": "dAppToken",
      "outputs": [
        {
          "internalType": "address",
          "name": "_add",
          "type": "address"
        }
      ],
      "payable": false,
      "stateMutability": "view",
      "type": "function"
    },
    {
      "constant": false,
      "inputs": [
        {
          "internalType": "bytes32",
          "name": "myid",
          "type": "bytes32"
        }
      ],
      "name": "delegateCallBack",
      "outputs": [],
      "payable": false,
      "stateMutability": "nonpayable",
      "type": "function"
    },
    {
      "constant": true,
      "inputs": [
        {
          "internalType": "uint256",
          "name": "",
          "type": "uint256"
        }
      ],
      "name": "emergencyPaused",
      "outputs": [
        {
          "internalType": "bool",
          "name": "pause",
          "type": "bool"
        },
        {
          "internalType": "uint256",
          "name": "time",
          "type": "uint256"
        },
        {
          "internalType": "bytes4",
          "name": "by",
          "type": "bytes4"
        }
      ],
      "payable": false,
      "stateMutability": "view",
      "type": "function"
    },
    {
      "constant": true,
      "inputs": [],
      "name": "getEmergencyPausedLength",
      "outputs": [
        {
          "internalType": "uint256",
          "name": "len",
          "type": "uint256"
        }
      ],
      "payable": false,
      "stateMutability": "view",
      "type": "function"
    },
    {
      "constant": true,
      "inputs": [],
      "name": "getLastEmergencyPause",
      "outputs": [
        {
          "internalType": "bool",
          "name": "_pause",
          "type": "bool"
        },
        {
          "internalType": "uint256",
          "name": "_time",
          "type": "uint256"
        },
        {
          "internalType": "bytes4",
          "name": "_by",
          "type": "bytes4"
        }
      ],
      "payable": false,
      "stateMutability": "view",
      "type": "function"
    },
    {
      "constant": true,
      "inputs": [
        {
          "internalType": "bytes2",
          "name": "_contractName",
          "type": "bytes2"
        }
      ],
      "name": "getLatestAddress",
      "outputs": [
        {
          "internalType": "address payable",
          "name": "contractAddress",
          "type": "address"
        }
      ],
      "payable": false,
      "stateMutability": "view",
      "type": "function"
    },
    {
      "constant": true,
      "inputs": [
        {
          "internalType": "bytes8",
          "name": "code",
          "type": "bytes8"
        }
      ],
      "name": "getOwnerParameters",
      "outputs": [
        {
          "internalType": "bytes8",
          "name": "codeVal",
          "type": "bytes8"
        },
        {
          "internalType": "address",
          "name": "val",
          "type": "address"
        }
      ],
      "payable": false,
      "stateMutability": "view",
      "type": "function"
    },
    {
      "constant": true,
      "inputs": [],
      "name": "getVersionData",
      "outputs": [
        {
          "internalType": "bytes2[]",
          "name": "contractsName",
          "type": "bytes2[]"
        },
        {
          "internalType": "address[]",
          "name": "contractsAddress",
          "type": "address[]"
        }
      ],
      "payable": false,
      "stateMutability": "view",
      "type": "function"
    },
    {
      "constant": false,
      "inputs": [
        {
          "internalType": "address",
          "name": "_owner",
          "type": "address"
        },
        {
          "internalType": "address",
          "name": "_tokenAddress",
          "type": "address"
        },
        {
          "internalType": "uint256",
          "name": "_pauseTime",
          "type": "uint256"
        },
        {
          "internalType": "bytes2[]",
          "name": "_contractNames",
          "type": "bytes2[]"
        },
        {
          "internalType": "uint8[]",
          "name": "_contractTypes",
          "type": "uint8[]"
        },
        {
          "internalType": "address payable[]",
          "name": "_contractAddresses",
          "type": "address[]"
        }
      ],
      "name": "initialize",
      "outputs": [],
      "payable": false,
      "stateMutability": "nonpayable",
      "type": "function"
    },
    {
      "constant": false,
      "inputs": [
        {
          "internalType": "address",
          "name": "_tokenAdd",
          "type": "address"
        }
      ],
      "name": "initiateMaster",
      "outputs": [],
      "payable": false,
      "stateMutability": "nonpayable",
      "type": "function"
    },
    {
      "constant": true,
      "inputs": [
        {
          "internalType": "address",
          "name": "_toCheck",
          "type": "address"
        }
      ],
      "name": "isAuthorizedToGovern",
      "outputs": [
        {
          "internalType": "bool",
          "name": "",
          "type": "bool"
        }
      ],
      "payable": false,
      "stateMutability": "view",
      "type": "function"
    },
    {
      "constant": true,
      "inputs": [
        {
          "internalType": "address",
          "name": "_contractAddress",
          "type": "address"
        }
      ],
      "name": "isInternal",
      "outputs": [
        {
          "internalType": "bool",
          "name": "",
          "type": "bool"
        }
      ],
      "payable": false,
      "stateMutability": "view",
      "type": "function"
    },
    {
      "constant": true,
      "inputs": [
        {
          "internalType": "address",
          "name": "_add",
          "type": "address"
        }
      ],
      "name": "isMember",
      "outputs": [
        {
          "internalType": "bool",
          "name": "",
          "type": "bool"
        }
      ],
      "payable": false,
      "stateMutability": "view",
      "type": "function"
    },
    {
      "constant": true,
      "inputs": [
        {
          "internalType": "address",
          "name": "_address",
          "type": "address"
        }
      ],
      "name": "isOwner",
      "outputs": [
        {
          "internalType": "bool",
          "name": "",
          "type": "bool"
        }
      ],
      "payable": false,
      "stateMutability": "view",
      "type": "function"
    },
    {
      "constant": true,
      "inputs": [],
      "name": "isPause",
      "outputs": [
        {
          "internalType": "bool",
          "name": "",
          "type": "bool"
        }
      ],
      "payable": false,
      "stateMutability": "view",
      "type": "function"
    },
    {
      "constant": true,
      "inputs": [
        {
          "internalType": "bytes2",
          "name": "",
          "type": "bytes2"
        }
      ],
      "name": "isProxy",
      "outputs": [
        {
          "internalType": "bool",
          "name": "",
          "type": "bool"
        }
      ],
      "payable": false,
      "stateMutability": "view",
      "type": "function"
    },
    {
      "constant": true,
      "inputs": [
        {
          "internalType": "bytes2",
          "name": "",
          "type": "bytes2"
        }
      ],
      "name": "isUpgradable",
      "outputs": [
        {
          "internalType": "bool",
          "name": "",
          "type": "bool"
        }
      ],
      "payable": false,
      "stateMutability": "view",
      "type": "function"
    },
    {
      "constant": true,
      "inputs": [],
      "name": "masterAddress",
      "outputs": [
        {
          "internalType": "address",
          "name": "",
          "type": "address"
        }
      ],
      "payable": false,
      "stateMutability": "view",
      "type": "function"
    },
    {
      "constant": true,
      "inputs": [],
      "name": "masterInitialized",
      "outputs": [
        {
          "internalType": "bool",
          "name": "",
          "type": "bool"
        }
      ],
      "payable": false,
      "stateMutability": "view",
      "type": "function"
    },
    {
      "constant": true,
      "inputs": [],
      "name": "owner",
      "outputs": [
        {
          "internalType": "address",
          "name": "",
          "type": "address"
        }
      ],
      "payable": false,
      "stateMutability": "view",
      "type": "function"
    },
    {
      "constant": true,
      "inputs": [],
      "name": "pauseTime",
      "outputs": [
        {
          "internalType": "uint256",
          "name": "",
          "type": "uint256"
        }
      ],
      "payable": false,
      "stateMutability": "view",
      "type": "function"
    },
    {
      "constant": false,
      "inputs": [],
      "name": "startEmergencyPause",
      "outputs": [],
      "payable": false,
      "stateMutability": "nonpayable",
      "type": "function"
    },
    {
      "constant": false,
      "inputs": [
        {
          "internalType": "address payable",
          "name": "newGV",
          "type": "address"
        }
      ],
      "name": "switchGovernanceAddress",
      "outputs": [],
      "payable": false,
      "stateMutability": "nonpayable",
      "type": "function"
    },
    {
      "constant": true,
      "inputs": [],
      "name": "tokenAddress",
      "outputs": [
        {
          "internalType": "address",
          "name": "",
          "type": "address"
        }
      ],
      "payable": false,
      "stateMutability": "view",
      "type": "function"
    },
    {
      "constant": false,
      "inputs": [
        {
          "internalType": "bytes8",
          "name": "code",
          "type": "bytes8"
        },
        {
          "internalType": "address payable",
          "name": "val",
          "type": "address"
        }
      ],
      "name": "updateOwnerParameters",
      "outputs": [],
      "payable": false,
      "stateMutability": "nonpayable",
      "type": "function"
    },
    {
      "constant": false,
      "inputs": [
        {
          "internalType": "uint256",
          "name": "_time",
          "type": "uint256"
        }
      ],
      "name": "updatePauseTime",
      "outputs": [],
      "payable": false,
      "stateMutability": "nonpayable",
      "type": "function"
    },
    {
      "constant": false,
      "inputs": [
        {
          "internalType": "bytes2[]",
          "name": "_contractsName",
          "type": "bytes2[]"
        },
        {
          "internalType": "address payable[]",
          "name": "_contractsAddress",
          "type": "address[]"
        }
      ],
      "name": "upgradeMultipleContracts",
      "outputs": [],
      "payable": false,
      "stateMutability": "nonpayable",
      "type": "function"
    },
    {
      "constant": false,
      "inputs": [
        {
          "internalType": "bytes2[]",
          "name": "_contractNames",
          "type": "bytes2[]"
        },
        {
          "internalType": "address[]",
          "name": "_contractAddresses",
          "type": "address[]"
        }
      ],
      "name": "upgradeMultipleImplementations",
      "outputs": [],
      "payable": false,
      "stateMutability": "nonpayable",
      "type": "function"
    }
  ],
  "bytecode": "0x608060405234801561001057600080fd5b5061850380620000216000396000f3fe60806040523480156200001157600080fd5b5060043610620002505760003560e01c80638dd7ff9a1162000141578063c74de06511620000bd578063eaf2c4771162000087578063eaf2c4771462000ffe578063fa00d884146200104a578063fa3c8a9014620010b4578063ff0938a714620010d4578063ffa3992914620010f85762000250565b8063c74de0651462000e8d578063d04e13711462000f3a578063d365a08e1462000f46578063e2cab14d1462000f925762000250565b8063a97ea794116200010b578063a97ea7941462000b5c578063b96a89951462000c1a578063bf1f28191462000d6f578063c15041d51462000e38578063c3e4d6721462000e5c5762000250565b80638dd7ff9a1462000a215780638f16c41c1462000a525780639d76ea581462000ab1578063a230c5241462000afd5762000250565b80633a12507f11620001d15780636fc4ed4c116200019b5780636fc4ed4c14620008bc57806371a2b7f7146200090357806378ddbed41462000998578063872f1eb314620009c95780638da5cb5b14620009d55762000250565b80633a12507f14620006d057806344d479e7146200071c57806347f4f88514620007865780635834e67a146200085d5762000250565b80631593e7fc116200021f5780631593e7fc14620004df57806322ce725414620005265780632c72135314620005855780632d4c115214620006015780632f54bf6e14620006715762000250565b8063013828581462000255578063015cb3ff14620002e757806301c09f141462000307578063066261d81462000366575b600080fd5b620002a5600480360360208110156200026d57600080fd5b8101908080357dffffffffffffffffffffffffffffffffffffffffffffffffffffffffffff1916906020019092919050505062001154565b604051808273ffffffffffffffffffffffffffffffffffffffff1673ffffffffffffffffffffffffffffffffffffffff16815260200191505060405180910390f35b620002f1620011d3565b6040518082815260200191505060405180910390f35b6200034c600480360360208110156200031f57600080fd5b81019080803573ffffffffffffffffffffffffffffffffffffffff169060200190929190505050620011d9565b604051808215151515815260200191505060405180910390f35b620004dd600480360360c08110156200037e57600080fd5b81019080803573ffffffffffffffffffffffffffffffffffffffff169060200190929190803573ffffffffffffffffffffffffffffffffffffffff1690602001909291908035906020019092919080359060200190640100000000811115620003e657600080fd5b820183602082011115620003f957600080fd5b803590602001918460208302840111640100000000831117156200041c57600080fd5b9091929391929390803590602001906401000000008111156200043e57600080fd5b8201836020820111156200045157600080fd5b803590602001918460208302840111640100000000831117156200047457600080fd5b9091929391929390803590602001906401000000008111156200049657600080fd5b820183602082011115620004a957600080fd5b80359060200191846020830284011164010000000083111715620004cc57600080fd5b9091929391929390505050620011f9565b005b6200052460048036036020811015620004f757600080fd5b81019080803573ffffffffffffffffffffffffffffffffffffffff1690602001909291905050506200172b565b005b6200056b600480360360208110156200053e57600080fd5b81019080803573ffffffffffffffffffffffffffffffffffffffff169060200190929190505050620024e3565b604051808215151515815260200191505060405180910390f35b620005ff600480360360608110156200059d57600080fd5b8101908080357dffffffffffffffffffffffffffffffffffffffffffffffffffffffffffff19169060200190929190803573ffffffffffffffffffffffffffffffffffffffff16906020019092919080359060200190929190505050620025ef565b005b6200060b62002cc4565b6040518084151515158152602001838152602001827bffffffffffffffffffffffffffffffffffffffffffffffffffffffff19167bffffffffffffffffffffffffffffffffffffffffffffffffffffffff19168152602001935050505060405180910390f35b620006b6600480360360208110156200068957600080fd5b81019080803573ffffffffffffffffffffffffffffffffffffffff16906020019092919050505062002d8b565b604051808215151515815260200191505060405180910390f35b620006da62002de5565b604051808273ffffffffffffffffffffffffffffffffffffffff1673ffffffffffffffffffffffffffffffffffffffff16815260200191505060405180910390f35b6200076c600480360360208110156200073457600080fd5b8101908080357dffffffffffffffffffffffffffffffffffffffffffffffffffffffffffff1916906020019092919050505062002e17565b604051808215151515815260200191505060405180910390f35b6200085b600480360360408110156200079e57600080fd5b8101908080359060200190640100000000811115620007bc57600080fd5b820183602082011115620007cf57600080fd5b80359060200191846020830284011164010000000083111715620007f257600080fd5b9091929391929390803590602001906401000000008111156200081457600080fd5b8201836020820111156200082757600080fd5b803590602001918460208302840111640100000000831117156200084a57600080fd5b909192939192939050505062002e37565b005b620008a2600480360360208110156200087557600080fd5b81019080803573ffffffffffffffffffffffffffffffffffffffff16906020019092919050505062003399565b604051808215151515815260200191505060405180910390f35b6200090160048036036020811015620008d457600080fd5b81019080803573ffffffffffffffffffffffffffffffffffffffff169060200190929190505050620033ad565b005b62000932600480360360208110156200091b57600080fd5b81019080803590602001909291905050506200356d565b6040518084151515158152602001838152602001827bffffffffffffffffffffffffffffffffffffffffffffffffffffffff19167bffffffffffffffffffffffffffffffffffffffffffffffffffffffff19168152602001935050505060405180910390f35b620009c760048036036020811015620009b057600080fd5b8101908080359060200190929190505050620035bf565b005b620009d362003647565b005b620009df620039b2565b604051808273ffffffffffffffffffffffffffffffffffffffff1673ffffffffffffffffffffffffffffffffffffffff16815260200191505060405180910390f35b62000a506004803603602081101562000a3957600080fd5b8101908080359060200190929190505050620039d8565b005b62000a976004803603602081101562000a6a57600080fd5b81019080803573ffffffffffffffffffffffffffffffffffffffff1690602001909291905050506200478e565b604051808215151515815260200191505060405180910390f35b62000abb620047e4565b604051808273ffffffffffffffffffffffffffffffffffffffff1673ffffffffffffffffffffffffffffffffffffffff16815260200191505060405180910390f35b62000b426004803603602081101562000b1557600080fd5b81019080803573ffffffffffffffffffffffffffffffffffffffff1690602001909291905050506200480a565b604051808215151515815260200191505060405180910390f35b62000c186004803603602081101562000b7457600080fd5b810190808035906020019064010000000081111562000b9257600080fd5b82018360208201111562000ba557600080fd5b8035906020019184602083028401116401000000008311171562000bc857600080fd5b919080806020026020016040519081016040528093929190818152602001838360200280828437600081840152601f19601f82011690508083019250505050505050919291929050505062004912565b005b62000d6d6004803603604081101562000c3257600080fd5b810190808035906020019064010000000081111562000c5057600080fd5b82018360208201111562000c6357600080fd5b8035906020019184602083028401116401000000008311171562000c8657600080fd5b919080806020026020016040519081016040528093929190818152602001838360200280828437600081840152601f19601f8201169050808301925050505050505091929192908035906020019064010000000081111562000ce757600080fd5b82018360208201111562000cfa57600080fd5b8035906020019184602083028401116401000000008311171562000d1d57600080fd5b919080806020026020016040519081016040528093929190818152602001838360200280828437600081840152601f19601f82011690508083019250505050505050919291929050505062004e48565b005b62000db96004803603602081101562000d8757600080fd5b81019080803577ffffffffffffffffffffffffffffffffffffffffffffffff1916906020019092919050505062005ccb565b604051808377ffffffffffffffffffffffffffffffffffffffffffffffff191677ffffffffffffffffffffffffffffffffffffffffffffffff191681526020018273ffffffffffffffffffffffffffffffffffffffff1673ffffffffffffffffffffffffffffffffffffffff1681526020019250505060405180910390f35b62000e426200633f565b604051808215151515815260200191505060405180910390f35b62000e8b6004803603602081101562000e7457600080fd5b810190808035906020019092919050505062006352565b005b62000e9762006470565b604051808060200180602001838103835285818151815260200191508051906020019060200280838360005b8381101562000ee057808201518184015260208101905062000ec3565b50505050905001838103825284818151815260200191508051906020019060200280838360005b8381101562000f2457808201518184015260208101905062000f07565b5050505090500194505050505060405180910390f35b62000f4462006658565b005b62000f506200682f565b604051808273ffffffffffffffffffffffffffffffffffffffff1673ffffffffffffffffffffffffffffffffffffffff16815260200191505060405180910390f35b62000ffc6004803603604081101562000faa57600080fd5b81019080803577ffffffffffffffffffffffffffffffffffffffffffffffff19169060200190929190803573ffffffffffffffffffffffffffffffffffffffff16906020019092919050505062006854565b005b6200100862007202565b604051808273ffffffffffffffffffffffffffffffffffffffff1673ffffffffffffffffffffffffffffffffffffffff16815260200191505060405180910390f35b6200109a600480360360208110156200106257600080fd5b8101908080357dffffffffffffffffffffffffffffffffffffffffffffffffffffffffffff191690602001909291905050506200722c565b604051808215151515815260200191505060405180910390f35b620010be6200724c565b6040518082815260200191505060405180910390f35b620010de62007259565b604051808215151515815260200191505060405180910390f35b62001152600480360360408110156200111057600080fd5b8101908080351515906020019092919080357bffffffffffffffffffffffffffffffffffffffffffffffffffffffff19169060200190929190505050620072a6565b005b600060046000837dffffffffffffffffffffffffffffffffffffffffffffffffffffffffffff19167dffffffffffffffffffffffffffffffffffffffffffffffffffffffffffff1916815260200190815260200160002060009054906101000a900473ffffffffffffffffffffffffffffffffffffffff169050919050565b60095481565b60036020528060005260406000206000915054906101000a900460ff1681565b600a60009054906101000a900460ff16156200127d576040517f08c379a00000000000000000000000000000000000000000000000000000000081526004018080602001828103825260138152602001807f416c726561647920696e697469616c697a65640000000000000000000000000081525060200191505060405180910390fd5b6001600a60006101000a81548160ff0219169083151502179055506001600760156101000a81548160ff02191690831515021790555088600860006101000a81548173ffffffffffffffffffffffffffffffffffffffff021916908373ffffffffffffffffffffffffffffffffffffffff16021790555087600760006101000a81548173ffffffffffffffffffffffffffffffffffffffff021916908373ffffffffffffffffffffffffffffffffffffffff16021790555086600981905550306000806101000a81548173ffffffffffffffffffffffffffffffffffffffff021916908373ffffffffffffffffffffffffffffffffffffffff1602179055506001600360003073ffffffffffffffffffffffffffffffffffffffff1673ffffffffffffffffffffffffffffffffffffffff16815260200190815260200160002060006101000a81548160ff02191690831515021790555083839050868690501462001434576040517f08c379a000000000000000000000000000000000000000000000000000000000815260040180806020018281038252603b81526020018062008494603b913960400191505060405180910390fd5b60008090505b868690508110156200171f5760008787838181106200145557fe5b905060200201357dffffffffffffffffffffffffffffffffffffffffffffffffffffffffffff1916905060008484848181106200148e57fe5b9050602002013573ffffffffffffffffffffffffffffffffffffffff169050600282908060018154018082558091505090600182039060005260206000209060109182820401919006600202909192909190916101000a81548161ffff021916908360f01c0217905550508060046000847dffffffffffffffffffffffffffffffffffffffffffffffffffffffffffff19167dffffffffffffffffffffffffffffffffffffffffffffffffffffffffffff1916815260200190815260200160002060006101000a81548173ffffffffffffffffffffffffffffffffffffffff021916908373ffffffffffffffffffffffffffffffffffffffff1602179055506001600360008373ffffffffffffffffffffffffffffffffffffffff1673ffffffffffffffffffffffffffffffffffffffff16815260200190815260200160002060006101000a81548160ff0219169083151502179055506001878785818110620015f457fe5b9050602002013560ff1660ff1614156200167c57600160066000847dffffffffffffffffffffffffffffffffffffffffffffffffffffffffffff19167dffffffffffffffffffffffffffffffffffffffffffffffffffffffffffff1916815260200190815260200160002060006101000a81548160ff0219169083151502179055506200170f565b60028787858181106200168b57fe5b9050602002013560ff1660ff1614156200170e57600160056000847dffffffffffffffffffffffffffffffffffffffffffffffffffffffffffff19167dffffffffffffffffffffffffffffffffffffffffffffffffffffffffffff1916815260200190815260200160002060006101000a81548160ff0219169083151502179055505b5b505080806001019150506200143a565b50505050505050505050565b60003090508073ffffffffffffffffffffffffffffffffffffffff1663025313a26040518163ffffffff1660e01b815260040160206040518083038186803b1580156200177757600080fd5b505afa1580156200178c573d6000803e3d6000fd5b505050506040513d6020811015620017a357600080fd5b810190808051906020019092919050505073ffffffffffffffffffffffffffffffffffffffff163373ffffffffffffffffffffffffffffffffffffffff161462001855576040517f08c379a000000000000000000000000000000000000000000000000000000000815260040180806020018281038252601a8152602001807f53656e646572206973206e6f742070726f7879206f776e65722e00000000000081525060200191505060405180910390fd5b600a60009054906101000a900460ff1615620018d9576040517f08c379a00000000000000000000000000000000000000000000000000000000081526004018080602001828103825260188152602001807f436f6e7374727563746f7220616c72656164792072616e2e000000000000000081525060200191505060405180910390fd5b6001600a60006101000a81548160ff02191690831515021790555081600760006101000a81548173ffffffffffffffffffffffffffffffffffffffff021916908373ffffffffffffffffffffffffffffffffffffffff16021790555033600860006101000a81548173ffffffffffffffffffffffffffffffffffffffff021916908373ffffffffffffffffffffffffffffffffffffffff160217905550306000806101000a81548173ffffffffffffffffffffffffffffffffffffffff021916908373ffffffffffffffffffffffffffffffffffffffff1602179055506001600360003073ffffffffffffffffffffffffffffffffffffffff1673ffffffffffffffffffffffffffffffffffffffff16815260200190815260200160002060006101000a81548160ff0219169083151502179055506224ea00600981905550600280600181540180825580915050906001820390600052602060002090601091828204019190066002027f5144000000000000000000000000000000000000000000000000000000000000909190916101000a81548161ffff021916908360f01c021790555050600280600181540180825580915050906001820390600052602060002090601091828204019190066002027f5444000000000000000000000000000000000000000000000000000000000000909190916101000a81548161ffff021916908360f01c021790555050600280600181540180825580915050906001820390600052602060002090601091828204019190066002027f4344000000000000000000000000000000000000000000000000000000000000909190916101000a81548161ffff021916908360f01c021790555050600280600181540180825580915050906001820390600052602060002090601091828204019190066002027f5044000000000000000000000000000000000000000000000000000000000000909190916101000a81548161ffff021916908360f01c021790555050600280600181540180825580915050906001820390600052602060002090601091828204019190066002027f5154000000000000000000000000000000000000000000000000000000000000909190916101000a81548161ffff021916908360f01c021790555050600280600181540180825580915050906001820390600052602060002090601091828204019190066002027f5446000000000000000000000000000000000000000000000000000000000000909190916101000a81548161ffff021916908360f01c021790555050600280600181540180825580915050906001820390600052602060002090601091828204019190066002027f5443000000000000000000000000000000000000000000000000000000000000909190916101000a81548161ffff021916908360f01c021790555050600280600181540180825580915050906001820390600052602060002090601091828204019190066002027f434c000000000000000000000000000000000000000000000000000000000000909190916101000a81548161ffff021916908360f01c021790555050600280600181540180825580915050906001820390600052602060002090601091828204019190066002027f4352000000000000000000000000000000000000000000000000000000000000909190916101000a81548161ffff021916908360f01c021790555050600280600181540180825580915050906001820390600052602060002090601091828204019190066002027f5031000000000000000000000000000000000000000000000000000000000000909190916101000a81548161ffff021916908360f01c021790555050600280600181540180825580915050906001820390600052602060002090601091828204019190066002027f5032000000000000000000000000000000000000000000000000000000000000909190916101000a81548161ffff021916908360f01c021790555050600280600181540180825580915050906001820390600052602060002090601091828204019190066002027f4d43000000000000000000000000000000000000000000000000000000000000909190916101000a81548161ffff021916908360f01c021790555050600280600181540180825580915050906001820390600052602060002090601091828204019190066002027f4756000000000000000000000000000000000000000000000000000000000000909190916101000a81548161ffff021916908360f01c021790555050600280600181540180825580915050906001820390600052602060002090601091828204019190066002027f5043000000000000000000000000000000000000000000000000000000000000909190916101000a81548161ffff021916908360f01c021790555050600280600181540180825580915050906001820390600052602060002090601091828204019190066002027f4d52000000000000000000000000000000000000000000000000000000000000909190916101000a81548161ffff021916908360f01c0217905550506001600660007f51540000000000000000000000000000000000000000000000000000000000007dffffffffffffffffffffffffffffffffffffffffffffffffffffffffffff1916815260200190815260200160002060006101000a81548160ff0219169083151502179055506001600660007f54460000000000000000000000000000000000000000000000000000000000007dffffffffffffffffffffffffffffffffffffffffffffffffffffffffffff1916815260200190815260200160002060006101000a81548160ff0219169083151502179055506001600660007f434c0000000000000000000000000000000000000000000000000000000000007dffffffffffffffffffffffffffffffffffffffffffffffffffffffffffff1916815260200190815260200160002060006101000a81548160ff0219169083151502179055506001600660007f43520000000000000000000000000000000000000000000000000000000000007dffffffffffffffffffffffffffffffffffffffffffffffffffffffffffff1916815260200190815260200160002060006101000a81548160ff0219169083151502179055506001600660007f50310000000000000000000000000000000000000000000000000000000000007dffffffffffffffffffffffffffffffffffffffffffffffffffffffffffff1916815260200190815260200160002060006101000a81548160ff0219169083151502179055506001600660007f50320000000000000000000000000000000000000000000000000000000000007dffffffffffffffffffffffffffffffffffffffffffffffffffffffffffff1916815260200190815260200160002060006101000a81548160ff0219169083151502179055506001600660007f4d430000000000000000000000000000000000000000000000000000000000007dffffffffffffffffffffffffffffffffffffffffffffffffffffffffffff1916815260200190815260200160002060006101000a81548160ff0219169083151502179055506001600560007f54430000000000000000000000000000000000000000000000000000000000007dffffffffffffffffffffffffffffffffffffffffffffffffffffffffffff1916815260200190815260200160002060006101000a81548160ff0219169083151502179055506001600560007f47560000000000000000000000000000000000000000000000000000000000007dffffffffffffffffffffffffffffffffffffffffffffffffffffffffffff1916815260200190815260200160002060006101000a81548160ff0219169083151502179055506001600560007f50430000000000000000000000000000000000000000000000000000000000007dffffffffffffffffffffffffffffffffffffffffffffffffffffffffffff1916815260200190815260200160002060006101000a81548160ff0219169083151502179055506001600560007f4d520000000000000000000000000000000000000000000000000000000000007dffffffffffffffffffffffffffffffffffffffffffffffffffffffffffff1916815260200190815260200160002060006101000a81548160ff0219169083151502179055505050565b6000806000809054906101000a900473ffffffffffffffffffffffffffffffffffffffff1690508273ffffffffffffffffffffffffffffffffffffffff168173ffffffffffffffffffffffffffffffffffffffff1663013828586040518163ffffffff1660e01b815260040180807f4756000000000000000000000000000000000000000000000000000000000000815250602001905060206040518083038186803b1580156200259357600080fd5b505afa158015620025a8573d6000803e3d6000fd5b505050506040513d6020811015620025bf57600080fd5b810190808051906020019092919050505073ffffffffffffffffffffffffffffffffffffffff1614915050919050565b60008060009054906101000a900473ffffffffffffffffffffffffffffffffffffffff1690503373ffffffffffffffffffffffffffffffffffffffff168173ffffffffffffffffffffffffffffffffffffffff1663013828586040518163ffffffff1660e01b815260040180807f4756000000000000000000000000000000000000000000000000000000000000815250602001905060206040518083038186803b1580156200269e57600080fd5b505afa158015620026b3573d6000803e3d6000fd5b505050506040513d6020811015620026ca57600080fd5b810190808051906020019092919050505073ffffffffffffffffffffffffffffffffffffffff161462002765576040517f08c379a000000000000000000000000000000000000000000000000000000000815260040180806020018281038252600e8152602001807f4e6f7420617574686f72697a656400000000000000000000000000000000000081525060200191505060405180910390fd5b600073ffffffffffffffffffffffffffffffffffffffff1660046000867dffffffffffffffffffffffffffffffffffffffffffffffffffffffffffff19167dffffffffffffffffffffffffffffffffffffffffffffffffffffffffffff1916815260200190815260200160002060009054906101000a900473ffffffffffffffffffffffffffffffffffffffff1673ffffffffffffffffffffffffffffffffffffffff161462002861576040517f08c379a0000000000000000000000000000000000000000000000000000000008152600401808060200182810382526023815260200180620084376023913960400191505060405180910390fd5b600073ffffffffffffffffffffffffffffffffffffffff168373ffffffffffffffffffffffffffffffffffffffff16141562002905576040517f08c379a000000000000000000000000000000000000000000000000000000000815260040180806020018281038252601c8152602001807f4e554c4c2061646472657373206973206e6f7420616c6c6f7765642e0000000081525060200191505060405180910390fd5b600284908060018154018082558091505090600182039060005260206000209060109182820401919006600202909192909190916101000a81548161ffff021916908360f01c02179055505060008390506001831415620029d457600160066000877dffffffffffffffffffffffffffffffffffffffffffffffffffffffffffff19167dffffffffffffffffffffffffffffffffffffffffffffffffffffffffffff1916815260200190815260200160002060006101000a81548160ff02191690831515021790555062002a5b565b600283141562002a5a57620029e984620076dd565b9050600160056000877dffffffffffffffffffffffffffffffffffffffffffffffffffffffffffff19167dffffffffffffffffffffffffffffffffffffffffffffffffffffffffffff1916815260200190815260200160002060006101000a81548160ff0219169083151502179055505b5b8060046000877dffffffffffffffffffffffffffffffffffffffffffffffffffffffffffff19167dffffffffffffffffffffffffffffffffffffffffffffffffffffffffffff1916815260200190815260200160002060006101000a81548173ffffffffffffffffffffffffffffffffffffffff021916908373ffffffffffffffffffffffffffffffffffffffff1602179055506001600360008373ffffffffffffffffffffffffffffffffffffffff1673ffffffffffffffffffffffffffffffffffffffff16815260200190815260200160002060006101000a81548160ff021916908315150217905550600060046000877dffffffffffffffffffffffffffffffffffffffffffffffffffffffffffff19167dffffffffffffffffffffffffffffffffffffffffffffffffffffffffffff1916815260200190815260200160002060009054906101000a900473ffffffffffffffffffffffffffffffffffffffff1690508073ffffffffffffffffffffffffffffffffffffffff1663d46655f4306040518263ffffffff1660e01b8152600401808273ffffffffffffffffffffffffffffffffffffffff1673ffffffffffffffffffffffffffffffffffffffff168152602001915050600060405180830381600087803b15801562002c4157600080fd5b505af115801562002c56573d6000803e3d6000fd5b505050508073ffffffffffffffffffffffffffffffffffffffff16630ea9c9846040518163ffffffff1660e01b8152600401600060405180830381600087803b15801562002ca357600080fd5b505af115801562002cb8573d6000803e3d6000fd5b50505050505050505050565b60008060008092506000915060009050600062002ce06200724c565b9050600081111562002d855762002d026001826200774e90919063ffffffff16565b90506001818154811062002d1257fe5b906000526020600020906003020160000160009054906101000a900460ff1693506001818154811062002d4157fe5b90600052602060002090600302016001015492506001818154811062002d6357fe5b906000526020600020906003020160020160009054906101000a900460e01b91505b50909192565b60008173ffffffffffffffffffffffffffffffffffffffff16600860009054906101000a900473ffffffffffffffffffffffffffffffffffffffff1673ffffffffffffffffffffffffffffffffffffffff16149050919050565b600062002e127f544300000000000000000000000000000000000000000000000000000000000062001154565b905090565b60056020528060005260406000206000915054906101000a900460ff1681565b60008060009054906101000a900473ffffffffffffffffffffffffffffffffffffffff1690503373ffffffffffffffffffffffffffffffffffffffff168173ffffffffffffffffffffffffffffffffffffffff1663013828586040518163ffffffff1660e01b815260040180807f4756000000000000000000000000000000000000000000000000000000000000815250602001905060206040518083038186803b15801562002ee657600080fd5b505afa15801562002efb573d6000803e3d6000fd5b505050506040513d602081101562002f1257600080fd5b810190808051906020019092919050505073ffffffffffffffffffffffffffffffffffffffff161462002fad576040517f08c379a000000000000000000000000000000000000000000000000000000000815260040180806020018281038252600e8152602001807f4e6f7420617574686f72697a656400000000000000000000000000000000000081525060200191505060405180910390fd5b82829050858590501462003029576040517f08c379a000000000000000000000000000000000000000000000000000000000815260040180806020018281038252601d8152602001807f4172726179206c656e6774682073686f756c6420626520657175616c2e00000081525060200191505060405180910390fd5b60008090505b858590508110156200339157600073ffffffffffffffffffffffffffffffffffffffff168484838181106200306057fe5b9050602002013573ffffffffffffffffffffffffffffffffffffffff1673ffffffffffffffffffffffffffffffffffffffff16141562003108576040517f08c379a000000000000000000000000000000000000000000000000000000000815260040180806020018281038252601c8152602001807f6e756c6c2061646472657373206973206e6f7420616c6c6f7765642e0000000081525060200191505060405180910390fd5b600560008787848181106200311957fe5b905060200201357dffffffffffffffffffffffffffffffffffffffffffffffffffffffffffff19167dffffffffffffffffffffffffffffffffffffffffffffffffffffffffffff19167dffffffffffffffffffffffffffffffffffffffffffffffffffffffffffff1916815260200190815260200160002060009054906101000a900460ff1662003212576040517f08c379a00000000000000000000000000000000000000000000000000000000081526004018080602001828103825260198152602001807f436f6e74726163742073686f756c642062652070726f78792e0000000000000081525060200191505060405180910390fd5b6000600460008888858181106200322557fe5b905060200201357dffffffffffffffffffffffffffffffffffffffffffffffffffffffffffff19167dffffffffffffffffffffffffffffffffffffffffffffffffffffffffffff19167dffffffffffffffffffffffffffffffffffffffffffffffffffffffffffff1916815260200190815260200160002060009054906101000a900473ffffffffffffffffffffffffffffffffffffffff1690508073ffffffffffffffffffffffffffffffffffffffff16633659cfe6868685818110620032e957fe5b9050602002013573ffffffffffffffffffffffffffffffffffffffff166040518263ffffffff1660e01b8152600401808273ffffffffffffffffffffffffffffffffffffffff1673ffffffffffffffffffffffffffffffffffffffff168152602001915050600060405180830381600087803b1580156200336957600080fd5b505af11580156200337e573d6000803e3d6000fd5b505050505080806001019150506200302f565b505050505050565b6000620033a682620024e3565b9050919050565b6000600460007f47560000000000000000000000000000000000000000000000000000000000007dffffffffffffffffffffffffffffffffffffffffffffffffffffffffffff1916815260200190815260200160002060009054906101000a900473ffffffffffffffffffffffffffffffffffffffff16905081600460007f47560000000000000000000000000000000000000000000000000000000000007dffffffffffffffffffffffffffffffffffffffffffffffffffffffffffff1916815260200190815260200160002060006101000a81548173ffffffffffffffffffffffffffffffffffffffff021916908373ffffffffffffffffffffffffffffffffffffffff1602179055506000600360008373ffffffffffffffffffffffffffffffffffffffff1673ffffffffffffffffffffffffffffffffffffffff16815260200190815260200160002060006101000a81548160ff0219169083151502179055506001600360008473ffffffffffffffffffffffffffffffffffffffff1673ffffffffffffffffffffffffffffffffffffffff16815260200190815260200160002060006101000a81548160ff0219169083151502179055505050565b600181815481106200357b57fe5b90600052602060002090600302016000915090508060000160009054906101000a900460ff16908060010154908060020160009054906101000a900460e01b905083565b620035ca336200478e565b6200363d576040517f08c379a00000000000000000000000000000000000000000000000000000000081526004018080602001828103825260128152602001807f4e6f7420696e7465726e616c2063616c6c2e000000000000000000000000000081525060200191505060405180910390fd5b8060098190555050565b60008060009054906101000a900473ffffffffffffffffffffffffffffffffffffffff1690503373ffffffffffffffffffffffffffffffffffffffff168173ffffffffffffffffffffffffffffffffffffffff1663013828586040518163ffffffff1660e01b815260040180807f4756000000000000000000000000000000000000000000000000000000000000815250602001905060206040518083038186803b158015620036f657600080fd5b505afa1580156200370b573d6000803e3d6000fd5b505050506040513d60208110156200372257600080fd5b810190808051906020019092919050505073ffffffffffffffffffffffffffffffffffffffff1614620037bd576040517f08c379a000000000000000000000000000000000000000000000000000000000815260040180806020018281038252600e8152602001807f4e6f7420617574686f72697a656400000000000000000000000000000000000081525060200191505060405180910390fd5b620037ea60017f4142000000000000000000000000000000000000000000000000000000000000620072a6565b6000600460007f50310000000000000000000000000000000000000000000000000000000000007dffffffffffffffffffffffffffffffffffffffffffffffffffffffffffff1916815260200190815260200160002060009054906101000a900473ffffffffffffffffffffffffffffffffffffffff1690508073ffffffffffffffffffffffffffffffffffffffff1663d8ea6b086009546040518263ffffffff1660e01b815260040180828152602001915050600060405180830381600087803b158015620038b957600080fd5b505af1158015620038ce573d6000803e3d6000fd5b505050506000600460007f434c0000000000000000000000000000000000000000000000000000000000007dffffffffffffffffffffffffffffffffffffffffffffffffffffffffffff1916815260200190815260200160002060009054906101000a900473ffffffffffffffffffffffffffffffffffffffff1690508073ffffffffffffffffffffffffffffffffffffffff1663380216716040518163ffffffff1660e01b8152600401600060405180830381600087803b1580156200399457600080fd5b505af1158015620039a9573d6000803e3d6000fd5b50505050505050565b600860009054906101000a900473ffffffffffffffffffffffffffffffffffffffff1681565b600760149054906101000a900460ff161562003a5c576040517f08c379a000000000000000000000000000000000000000000000000000000000815260040180806020018281038252600f8152602001807f5265656e7472616e742063616c6c2e000000000000000000000000000000000081525060200191505060405180910390fd5b6001600760146101000a81548160ff021916908315150217905550600062003aa47f504400000000000000000000000000000000000000000000000000000000000062001154565b905060008173ffffffffffffffffffffffffffffffffffffffff166346583d09846040518263ffffffff1660e01b81526004018082815260200191505060206040518083038186803b15801562003afa57600080fd5b505afa15801562003b0f573d6000803e3d6000fd5b505050506040513d602081101562003b2657600080fd5b810190808051906020019092919050505067ffffffffffffffff16905060008273ffffffffffffffffffffffffffffffffffffffff16633277be96856040518263ffffffff1660e01b81526004018082815260200191505060206040518083038186803b15801562003b9757600080fd5b505afa15801562003bac573d6000803e3d6000fd5b505050506040513d602081101562003bc357600080fd5b810190808051906020019092919050505067ffffffffffffffff16905080821462003c56576040517f08c379a00000000000000000000000000000000000000000000000000000000081526004018080602001828103825260198152602001807f43616c6c6261636b20616c72656164792072656365697665640000000000000081525060200191505060405180910390fd5b60008373ffffffffffffffffffffffffffffffffffffffff1663fd3e44d5866040518263ffffffff1660e01b81526004018082815260200191505060206040518083038186803b15801562003caa57600080fd5b505afa15801562003cbf573d6000803e3d6000fd5b505050506040513d602081101562003cd657600080fd5b810190808051906020019092919050505090508373ffffffffffffffffffffffffffffffffffffffff166361b6c00f866040518263ffffffff1660e01b815260040180828152602001915050600060405180830381600087803b15801562003d3d57600080fd5b505af115801562003d52573d6000803e3d6000fd5b5050505062003d6062007259565b1562003f7157600062003d7262002cc4565b9091509050809150507f4550000000000000000000000000000000000000000000000000000000000000827bffffffffffffffffffffffffffffffffffffffffffffffffffffffff19161462003e14576040517f08c379a000000000000000000000000000000000000000000000000000000000815260040180806020018281038252603a8152602001806200845a603a913960400191505060405180910390fd5b4262003e2c600954866200779a90919063ffffffff16565b1062003ea0576040517f08c379a000000000000000000000000000000000000000000000000000000000815260040180806020018281038252601c8152602001807f43616c6c6261636b207761732063616c6c656420746f6f20736f6f6e0000000081525060200191505060405180910390fd5b7f4142000000000000000000000000000000000000000000000000000000000000817bffffffffffffffffffffffffffffffffffffffffffffffffffffffff19161462003f39576040517f08c379a0000000000000000000000000000000000000000000000000000000008152600401808060200182810382526032815260200180620084056032913960400191505060405180910390fd5b62003f6660007f4155540000000000000000000000000000000000000000000000000000000000620072a6565b505050505062004770565b60008473ffffffffffffffffffffffffffffffffffffffff1663371e6e12876040518263ffffffff1660e01b81526004018082815260200191505060206040518083038186803b15801562003fc557600080fd5b505afa15801562003fda573d6000803e3d6000fd5b505050506040513d602081101562003ff157600080fd5b810190808051906020019092919050505090507f434f560000000000000000000000000000000000000000000000000000000000827bffffffffffffffffffffffffffffffffffffffffffffffffffffffff19161415620040f4576000620040797f515400000000000000000000000000000000000000000000000000000000000062001154565b90508073ffffffffffffffffffffffffffffffffffffffff1663f4136f7f836040518263ffffffff1660e01b815260040180828152602001915050600060405180830381600087803b158015620040cf57600080fd5b505af1158015620040e4573d6000803e3d6000fd5b5050505050505050505062004770565b7f434c410000000000000000000000000000000000000000000000000000000000827bffffffffffffffffffffffffffffffffffffffffffffffffffffffff191614156200426257620041478162007823565b620041ba576040517f08c379a000000000000000000000000000000000000000000000000000000000815260040180806020018281038252601d8152602001807f5061796f75742072657472792074696d65206e6f74207265616368656400000081525060200191505060405180910390fd5b6000620041e77f435200000000000000000000000000000000000000000000000000000000000062001154565b90508073ffffffffffffffffffffffffffffffffffffffff16637f6715c9836040518263ffffffff1660e01b815260040180828152602001915050600060405180830381600087803b1580156200423d57600080fd5b505af115801562004252573d6000803e3d6000fd5b5050505050505050505062004770565b7f4d43524600000000000000000000000000000000000000000000000000000000827bffffffffffffffffffffffffffffffffffffffffffffffffffffffff19161415620044735742620043438673ffffffffffffffffffffffffffffffffffffffff1663702ddaab6040518163ffffffff1660e01b815260040160206040518083038186803b158015620042f657600080fd5b505afa1580156200430b573d6000803e3d6000fd5b505050506040513d60208110156200432257600080fd5b8101908080519060200190929190505050866200779a90919063ffffffff16565b10620043b7576040517f08c379a000000000000000000000000000000000000000000000000000000000815260040180806020018281038252601c8152602001807f4d435220706f7374696e672074696d65206e6f7420726561636865640000000081525060200191505060405180910390fd5b6000620043e47f4d4300000000000000000000000000000000000000000000000000000000000062001154565b90508073ffffffffffffffffffffffffffffffffffffffff166380f34275836040518263ffffffff1660e01b8152600401808267ffffffffffffffff1667ffffffffffffffff168152602001915050600060405180830381600087803b1580156200444e57600080fd5b505af115801562004463573d6000803e3d6000fd5b5050505050505050505062004770565b7f554c540000000000000000000000000000000000000000000000000000000000827bffffffffffffffffffffffffffffffffffffffffffffffffffffffff19161415620046655742620045548673ffffffffffffffffffffffffffffffffffffffff16636549ff586040518163ffffffff1660e01b815260040160206040518083038186803b1580156200450757600080fd5b505afa1580156200451c573d6000803e3d6000fd5b505050506040513d60208110156200453357600080fd5b8101908080519060200190929190505050866200779a90919063ffffffff16565b10620045c8576040517f08c379a00000000000000000000000000000000000000000000000000000000081526004018080602001828103825260208152602001807f4c69717569646974792074726164652074696d65206e6f74207265616368656481525060200191505060405180910390fd5b6000620045f57f503200000000000000000000000000000000000000000000000000000000000062001154565b90508073ffffffffffffffffffffffffffffffffffffffff1663f720036c6040518163ffffffff1660e01b8152600401600060405180830381600087803b1580156200464057600080fd5b505af115801562004655573d6000803e3d6000fd5b5050505050505050505062004770565b7f4d43520000000000000000000000000000000000000000000000000000000000827bffffffffffffffffffffffffffffffffffffffffffffffffffffffff19161480620046f157507f4941524200000000000000000000000000000000000000000000000000000000827bffffffffffffffffffffffffffffffffffffffffffffffffffffffff1916145b156200470257505050505062004770565b6040517f08c379a00000000000000000000000000000000000000000000000000000000081526004018080602001828103825260108152602001807f496e76616c69642063616c6c6261636b0000000000000000000000000000000081525060200191505060405180910390fd5b6000600760146101000a81548160ff02191690831515021790555050565b6000600360008373ffffffffffffffffffffffffffffffffffffffff1673ffffffffffffffffffffffffffffffffffffffff16815260200190815260200160002060009054906101000a900460ff169050919050565b600760009054906101000a900473ffffffffffffffffffffffffffffffffffffffff1681565b600080620048387f4d5200000000000000000000000000000000000000000000000000000000000062001154565b90508073ffffffffffffffffffffffffffffffffffffffff1663505ef22f84600260038111156200486557fe5b6040518363ffffffff1660e01b8152600401808373ffffffffffffffffffffffffffffffffffffffff1673ffffffffffffffffffffffffffffffffffffffff1681526020018281526020019250505060206040518083038186803b158015620048cd57600080fd5b505afa158015620048e2573d6000803e3d6000fd5b505050506040513d6020811015620048f957600080fd5b8101908080519060200190929190505050915050919050565b600860009054906101000a900473ffffffffffffffffffffffffffffffffffffffff1673ffffffffffffffffffffffffffffffffffffffff163373ffffffffffffffffffffffffffffffffffffffff161480156200497d5750600760159054906101000a900460ff16155b620049d4576040517f08c379a0000000000000000000000000000000000000000000000000000000008152600401808060200182810382526036815260200180620083cf6036913960400191505060405180910390fd5b60028054905081511462004a50576040517f08c379a00000000000000000000000000000000000000000000000000000000081526004018080602001828103825260158152602001807f6172726179206c656e677468206e6f742073616d65000000000000000000000081525060200191505060405180910390fd5b6001600760156101000a81548160ff021916908315150217905550600081600e8151811062004a7b57fe5b6020026020010151905060008090505b60028054905081101562004ca357600073ffffffffffffffffffffffffffffffffffffffff1683828151811062004abe57fe5b602002602001015173ffffffffffffffffffffffffffffffffffffffff16141562004b51576040517f08c379a000000000000000000000000000000000000000000000000000000000815260040180806020018281038252601c8152602001807f4e554c4c2061646472657373206973206e6f7420616c6c6f7765642e0000000081525060200191505060405180910390fd5b82818151811062004b5e57fe5b6020026020010151600460006002848154811062004b7857fe5b90600052602060002090601091828204019190066002029054906101000a900460f01b7dffffffffffffffffffffffffffffffffffffffffffffffffffffffffffff19167dffffffffffffffffffffffffffffffffffffffffffffffffffffffffffff1916815260200190815260200160002060006101000a81548173ffffffffffffffffffffffffffffffffffffffff021916908373ffffffffffffffffffffffffffffffffffffffff16021790555060016003600085848151811062004c3c57fe5b602002602001015173ffffffffffffffffffffffffffffffffffffffff1673ffffffffffffffffffffffffffffffffffffffff16815260200190815260200160002060006101000a81548160ff021916908315150217905550808060010191505062004a8b565b5060608173ffffffffffffffffffffffffffffffffffffffff16635daf08ca60038081111562004ccf57fe5b6040518263ffffffff1660e01b81526004018082815260200191505060006040518083038186803b15801562004d0457600080fd5b505afa15801562004d19573d6000803e3d6000fd5b505050506040513d6000823e3d601f19601f82011682018060405250604081101562004d4457600080fd5b81019080805190602001909291908051604051939291908464010000000082111562004d6f57600080fd5b8382019150602082018581111562004d8657600080fd5b825186602082028301116401000000008211171562004da457600080fd5b8083526020830192505050908051906020019060200280838360005b8381101562004ddd57808201518184015260208101905062004dc0565b505050509050016040525050509150508060008151811062004dfb57fe5b6020026020010151600860006101000a81548173ffffffffffffffffffffffffffffffffffffffff021916908373ffffffffffffffffffffffffffffffffffffffff160217905550505050565b60008060009054906101000a900473ffffffffffffffffffffffffffffffffffffffff1690503373ffffffffffffffffffffffffffffffffffffffff168173ffffffffffffffffffffffffffffffffffffffff1663013828586040518163ffffffff1660e01b815260040180807f4756000000000000000000000000000000000000000000000000000000000000815250602001905060206040518083038186803b15801562004ef757600080fd5b505afa15801562004f0c573d6000803e3d6000fd5b505050506040513d602081101562004f2357600080fd5b810190808051906020019092919050505073ffffffffffffffffffffffffffffffffffffffff161462004fbe576040517f08c379a000000000000000000000000000000000000000000000000000000000815260040180806020018281038252600e8152602001807f4e6f7420617574686f72697a656400000000000000000000000000000000000081525060200191505060405180910390fd5b815183511462005036576040517f08c379a000000000000000000000000000000000000000000000000000000000815260040180806020018281038252601d8152602001807f4172726179206c656e6774682073686f756c6420626520657175616c2e00000081525060200191505060405180910390fd5b60008090505b835181101562005cbb5760008382815181106200505557fe5b60200260200101519050600073ffffffffffffffffffffffffffffffffffffffff168173ffffffffffffffffffffffffffffffffffffffff16141562005103576040517f08c379a000000000000000000000000000000000000000000000000000000000815260040180806020018281038252601c8152602001807f4e554c4c2061646472657373206973206e6f7420616c6c6f7765642e0000000081525060200191505060405180910390fd5b600660008684815181106200511457fe5b60200260200101517dffffffffffffffffffffffffffffffffffffffffffffffffffffffffffff19167dffffffffffffffffffffffffffffffffffffffffffffffffffffffffffff1916815260200190815260200160002060009054906101000a900460ff16620051ed576040517f08c379a000000000000000000000000000000000000000000000000000000000815260040180806020018281038252601e8152602001807f436f6e74726163742073686f756c642062652075706772616461626c652e000081525060200191505060405180910390fd5b7f51540000000000000000000000000000000000000000000000000000000000008583815181106200521b57fe5b60200260200101517dffffffffffffffffffffffffffffffffffffffffffffffffffffffffffff1916141562005364576000600460007f51540000000000000000000000000000000000000000000000000000000000007dffffffffffffffffffffffffffffffffffffffffffffffffffffffffffff1916815260200190815260200160002060009054906101000a900473ffffffffffffffffffffffffffffffffffffffff1690508073ffffffffffffffffffffffffffffffffffffffff1663e2629974836040518263ffffffff1660e01b8152600401808273ffffffffffffffffffffffffffffffffffffffff1673ffffffffffffffffffffffffffffffffffffffff168152602001915050600060405180830381600087803b1580156200534457600080fd5b505af115801562005359573d6000803e3d6000fd5b50505050506200599d565b7f43520000000000000000000000000000000000000000000000000000000000008583815181106200539257fe5b60200260200101517dffffffffffffffffffffffffffffffffffffffffffffffffffffffffffff19161415620056b1576000620053ef7f544300000000000000000000000000000000000000000000000000000000000062001154565b90508073ffffffffffffffffffffffffffffffffffffffff1663e43252d7836040518263ffffffff1660e01b8152600401808273ffffffffffffffffffffffffffffffffffffffff1673ffffffffffffffffffffffffffffffffffffffff168152602001915050600060405180830381600087803b1580156200547157600080fd5b505af115801562005486573d6000803e3d6000fd5b505050508073ffffffffffffffffffffffffffffffffffffffff16638ab1d681600460007f43520000000000000000000000000000000000000000000000000000000000007dffffffffffffffffffffffffffffffffffffffffffffffffffffffffffff1916815260200190815260200160002060009054906101000a900473ffffffffffffffffffffffffffffffffffffffff166040518263ffffffff1660e01b8152600401808273ffffffffffffffffffffffffffffffffffffffff1673ffffffffffffffffffffffffffffffffffffffff168152602001915050600060405180830381600087803b1580156200557e57600080fd5b505af115801562005593573d6000803e3d6000fd5b505050506000600460007f43520000000000000000000000000000000000000000000000000000000000007dffffffffffffffffffffffffffffffffffffffffffffffffffffffffffff1916815260200190815260200160002060009054906101000a900473ffffffffffffffffffffffffffffffffffffffff1690508073ffffffffffffffffffffffffffffffffffffffff16630900f010846040518263ffffffff1660e01b8152600401808273ffffffffffffffffffffffffffffffffffffffff1673ffffffffffffffffffffffffffffffffffffffff168152602001915050600060405180830381600087803b1580156200569057600080fd5b505af1158015620056a5573d6000803e3d6000fd5b5050505050506200599c565b7f5031000000000000000000000000000000000000000000000000000000000000858381518110620056df57fe5b60200260200101517dffffffffffffffffffffffffffffffffffffffffffffffffffffffffffff1916141562005828576000600460007f50310000000000000000000000000000000000000000000000000000000000007dffffffffffffffffffffffffffffffffffffffffffffffffffffffffffff1916815260200190815260200160002060009054906101000a900473ffffffffffffffffffffffffffffffffffffffff1690508073ffffffffffffffffffffffffffffffffffffffff166366fd551d836040518263ffffffff1660e01b8152600401808273ffffffffffffffffffffffffffffffffffffffff1673ffffffffffffffffffffffffffffffffffffffff168152602001915050600060405180830381600087803b1580156200580857600080fd5b505af11580156200581d573d6000803e3d6000fd5b50505050506200599b565b7f50320000000000000000000000000000000000000000000000000000000000008583815181106200585657fe5b60200260200101517dffffffffffffffffffffffffffffffffffffffffffffffffffffffffffff191614156200599a576000600460007f50320000000000000000000000000000000000000000000000000000000000007dffffffffffffffffffffffffffffffffffffffffffffffffffffffffffff1916815260200190815260200160002060009054906101000a900473ffffffffffffffffffffffffffffffffffffffff1690508073ffffffffffffffffffffffffffffffffffffffff16636dce9b3d836040518263ffffffff1660e01b8152600401808273ffffffffffffffffffffffffffffffffffffffff1673ffffffffffffffffffffffffffffffffffffffff168152602001915050600060405180830381600087803b1580156200597f57600080fd5b505af115801562005994573d6000803e3d6000fd5b50505050505b5b5b5b600060046000878581518110620059b057fe5b60200260200101517dffffffffffffffffffffffffffffffffffffffffffffffffffffffffffff19167dffffffffffffffffffffffffffffffffffffffffffffffffffffffffffff1916815260200190815260200160002060009054906101000a900473ffffffffffffffffffffffffffffffffffffffff1690506000600360008373ffffffffffffffffffffffffffffffffffffffff1673ffffffffffffffffffffffffffffffffffffffff16815260200190815260200160002060006101000a81548160ff021916908315150217905550816004600088868151811062005a9557fe5b60200260200101517dffffffffffffffffffffffffffffffffffffffffffffffffffffffffffff19167dffffffffffffffffffffffffffffffffffffffffffffffffffffffffffff1916815260200190815260200160002060006101000a81548173ffffffffffffffffffffffffffffffffffffffff021916908373ffffffffffffffffffffffffffffffffffffffff1602179055506001600360008473ffffffffffffffffffffffffffffffffffffffff1673ffffffffffffffffffffffffffffffffffffffff16815260200190815260200160002060006101000a81548160ff02191690831515021790555060006004600088868151811062005b9657fe5b60200260200101517dffffffffffffffffffffffffffffffffffffffffffffffffffffffffffff19167dffffffffffffffffffffffffffffffffffffffffffffffffffffffffffff1916815260200190815260200160002060009054906101000a900473ffffffffffffffffffffffffffffffffffffffff1690508073ffffffffffffffffffffffffffffffffffffffff1663d46655f4306040518263ffffffff1660e01b8152600401808273ffffffffffffffffffffffffffffffffffffffff1673ffffffffffffffffffffffffffffffffffffffff168152602001915050600060405180830381600087803b15801562005c9157600080fd5b505af115801562005ca6573d6000803e3d6000fd5b5050505050505080806001019150506200503c565b5062005cc6620079e4565b505050565b6000808291506000807f4d5357414c4c45540000000000000000000000000000000000000000000000008577ffffffffffffffffffffffffffffffffffffffffffffffff1916141562005dd457600062005d457f544400000000000000000000000000000000000000000000000000000000000062001154565b90508073ffffffffffffffffffffffffffffffffffffffff16636ad5b3ea6040518163ffffffff1660e01b815260040160206040518083038186803b15801562005d8e57600080fd5b505afa15801562005da3573d6000803e3d6000fd5b505050506040513d602081101562005dba57600080fd5b810190808051906020019092919050505093505062006338565b7f4d43524e4f5441000000000000000000000000000000000000000000000000008577ffffffffffffffffffffffffffffffffffffffffffffffff1916141562005ed15762005e437f504400000000000000000000000000000000000000000000000000000000000062001154565b90508073ffffffffffffffffffffffffffffffffffffffff1663428dfd386040518163ffffffff1660e01b815260040160206040518083038186803b15801562005e8c57600080fd5b505afa15801562005ea1573d6000803e3d6000fd5b505050506040513d602081101562005eb857600080fd5b8101908080519060200190929190505050925062006337565b7f44414946454544000000000000000000000000000000000000000000000000008577ffffffffffffffffffffffffffffffffffffffffffffffff1916141562005fce5762005f407f504400000000000000000000000000000000000000000000000000000000000062001154565b90508073ffffffffffffffffffffffffffffffffffffffff1663f0f9f2546040518163ffffffff1660e01b815260040160206040518083038186803b15801562005f8957600080fd5b505afa15801562005f9e573d6000803e3d6000fd5b505050506040513d602081101562005fb557600080fd5b8101908080519060200190929190505050925062006336565b7f554e4953574144440000000000000000000000000000000000000000000000008577ffffffffffffffffffffffffffffffffffffffffffffffff19161415620060ce5760006200603f7f503200000000000000000000000000000000000000000000000000000000000062001154565b90508073ffffffffffffffffffffffffffffffffffffffff16633655ac3c6040518163ffffffff1660e01b815260040160206040518083038186803b1580156200608857600080fd5b505afa1580156200609d573d6000803e3d6000fd5b505050506040513d6020811015620060b457600080fd5b810190808051906020019092919050505093505062006335565b7f4f574e45520000000000000000000000000000000000000000000000000000008577ffffffffffffffffffffffffffffffffffffffffffffffff191614156200613d57600860009054906101000a900473ffffffffffffffffffffffffffffffffffffffff16925062006334565b7f51554f41555448000000000000000000000000000000000000000000000000008577ffffffffffffffffffffffffffffffffffffffffffffffff191614156200623a57620061ac7f514400000000000000000000000000000000000000000000000000000000000062001154565b91508173ffffffffffffffffffffffffffffffffffffffff1663e2c2a5bb6040518163ffffffff1660e01b815260040160206040518083038186803b158015620061f557600080fd5b505afa1580156200620a573d6000803e3d6000fd5b505050506040513d60208110156200622157600080fd5b8101908080519060200190929190505050925062006333565b7f4b594341555448000000000000000000000000000000000000000000000000008577ffffffffffffffffffffffffffffffffffffffffffffffff191614156200633257620062a97f514400000000000000000000000000000000000000000000000000000000000062001154565b91508173ffffffffffffffffffffffffffffffffffffffff166384434b9f6040518163ffffffff1660e01b815260040160206040518083038186803b158015620062f257600080fd5b505afa15801562006307573d6000803e3d6000fd5b505050506040513d60208110156200631e57600080fd5b810190808051906020019092919050505092505b5b5b5b5b5b5b5050915091565b600760159054906101000a900460ff1681565b6200635d8162007823565b620063d0576040517f08c379a000000000000000000000000000000000000000000000000000000000815260040180806020018281038252601e8152602001807f5061796f75742072657472792074696d65206e6f7420726561636865642e000081525060200191505060405180910390fd5b6000620063fd7f435200000000000000000000000000000000000000000000000000000000000062001154565b90508073ffffffffffffffffffffffffffffffffffffffff16637f6715c9836040518263ffffffff1660e01b815260040180828152602001915050600060405180830381600087803b1580156200645357600080fd5b505af115801562006468573d6000803e3d6000fd5b505050505050565b60608060028054806020026020016040519081016040528092919081815260200182805480156200650557602002820191906000526020600020906000905b82829054906101000a900460f01b7dffffffffffffffffffffffffffffffffffffffffffffffffffffffffffff191681526020019060020190602082600101049283019260010382029150808411620064af5790505b50505050509150600280549050604051908082528060200260200182016040528015620065415781602001602082028038833980820191505090505b50905060008090505b600280549050811015620066535760046000600283815481106200656a57fe5b90600052602060002090601091828204019190066002029054906101000a900460f01b7dffffffffffffffffffffffffffffffffffffffffffffffffffffffffffff19167dffffffffffffffffffffffffffffffffffffffffffffffffffffffffffff1916815260200190815260200160002060009054906101000a900473ffffffffffffffffffffffffffffffffffffffff168282815181106200660b57fe5b602002602001019073ffffffffffffffffffffffffffffffffffffffff16908173ffffffffffffffffffffffffffffffffffffffff168152505080806001019150506200654a565b509091565b60008090505b6002805490508110156200682c576000600282815481106200667c57fe5b90600052602060002090601091828204019190066002029054906101000a900460f01b9050600060046000837dffffffffffffffffffffffffffffffffffffffffffffffffffffffffffff19167dffffffffffffffffffffffffffffffffffffffffffffffffffffffffffff1916815260200190815260200160002060009054906101000a900473ffffffffffffffffffffffffffffffffffffffff16905060008190508073ffffffffffffffffffffffffffffffffffffffff1663d46655f4306040518263ffffffff1660e01b8152600401808273ffffffffffffffffffffffffffffffffffffffff1673ffffffffffffffffffffffffffffffffffffffff168152602001915050600060405180830381600087803b158015620067a057600080fd5b505af1158015620067b5573d6000803e3d6000fd5b505050508073ffffffffffffffffffffffffffffffffffffffff16630ea9c9846040518163ffffffff1660e01b8152600401600060405180830381600087803b1580156200680257600080fd5b505af115801562006817573d6000803e3d6000fd5b5050505050505080806001019150506200665e565b50565b6000809054906101000a900473ffffffffffffffffffffffffffffffffffffffff1681565b60008060009054906101000a900473ffffffffffffffffffffffffffffffffffffffff1690503373ffffffffffffffffffffffffffffffffffffffff168173ffffffffffffffffffffffffffffffffffffffff1663013828586040518163ffffffff1660e01b815260040180807f4756000000000000000000000000000000000000000000000000000000000000815250602001905060206040518083038186803b1580156200690357600080fd5b505afa15801562006918573d6000803e3d6000fd5b505050506040513d60208110156200692f57600080fd5b810190808051906020019092919050505073ffffffffffffffffffffffffffffffffffffffff1614620069ca576040517f08c379a000000000000000000000000000000000000000000000000000000000815260040180806020018281038252600e8152602001807f4e6f7420617574686f72697a656400000000000000000000000000000000000081525060200191505060405180910390fd5b6000807f4d5357414c4c45540000000000000000000000000000000000000000000000008577ffffffffffffffffffffffffffffffffffffffffffffffff1916141562006ae057600062006a3e7f544400000000000000000000000000000000000000000000000000000000000062001154565b90508073ffffffffffffffffffffffffffffffffffffffff1663ec8edf7a866040518263ffffffff1660e01b8152600401808273ffffffffffffffffffffffffffffffffffffffff1673ffffffffffffffffffffffffffffffffffffffff168152602001915050600060405180830381600087803b15801562006ac057600080fd5b505af115801562006ad5573d6000803e3d6000fd5b5050505050620071fb565b7f4d43524e4f5441000000000000000000000000000000000000000000000000008577ffffffffffffffffffffffffffffffffffffffffffffffff1916141562006bf05762006b4f7f504400000000000000000000000000000000000000000000000000000000000062001154565b90508073ffffffffffffffffffffffffffffffffffffffff16636576ffed856040518263ffffffff1660e01b8152600401808273ffffffffffffffffffffffffffffffffffffffff1673ffffffffffffffffffffffffffffffffffffffff168152602001915050600060405180830381600087803b15801562006bd157600080fd5b505af115801562006be6573d6000803e3d6000fd5b50505050620071fa565b7f44414946454544000000000000000000000000000000000000000000000000008577ffffffffffffffffffffffffffffffffffffffffffffffff1916141562006d005762006c5f7f504400000000000000000000000000000000000000000000000000000000000062001154565b90508073ffffffffffffffffffffffffffffffffffffffff1663ca0d4c86856040518263ffffffff1660e01b8152600401808273ffffffffffffffffffffffffffffffffffffffff1673ffffffffffffffffffffffffffffffffffffffff168152602001915050600060405180830381600087803b15801562006ce157600080fd5b505af115801562006cf6573d6000803e3d6000fd5b50505050620071f9565b7f554e4953574144440000000000000000000000000000000000000000000000008577ffffffffffffffffffffffffffffffffffffffffffffffff1916141562006e1357600062006d717f503200000000000000000000000000000000000000000000000000000000000062001154565b90508073ffffffffffffffffffffffffffffffffffffffff1663b19ab66d866040518263ffffffff1660e01b8152600401808273ffffffffffffffffffffffffffffffffffffffff1673ffffffffffffffffffffffffffffffffffffffff168152602001915050600060405180830381600087803b15801562006df357600080fd5b505af115801562006e08573d6000803e3d6000fd5b5050505050620071f8565b7f4f574e45520000000000000000000000000000000000000000000000000000008577ffffffffffffffffffffffffffffffffffffffffffffffff1916141562006f6757600062006e847f4d5200000000000000000000000000000000000000000000000000000000000062001154565b90508073ffffffffffffffffffffffffffffffffffffffff166390a79368866040518263ffffffff1660e01b8152600401808273ffffffffffffffffffffffffffffffffffffffff1673ffffffffffffffffffffffffffffffffffffffff168152602001915050600060405180830381600087803b15801562006f0657600080fd5b505af115801562006f1b573d6000803e3d6000fd5b5050505084600860006101000a81548173ffffffffffffffffffffffffffffffffffffffff021916908373ffffffffffffffffffffffffffffffffffffffff16021790555050620071f7565b7f51554f41555448000000000000000000000000000000000000000000000000008577ffffffffffffffffffffffffffffffffffffffffffffffff19161415620070775762006fd67f514400000000000000000000000000000000000000000000000000000000000062001154565b91508173ffffffffffffffffffffffffffffffffffffffff16631407264b856040518263ffffffff1660e01b8152600401808273ffffffffffffffffffffffffffffffffffffffff1673ffffffffffffffffffffffffffffffffffffffff168152602001915050600060405180830381600087803b1580156200705857600080fd5b505af11580156200706d573d6000803e3d6000fd5b50505050620071f6565b7f4b594341555448000000000000000000000000000000000000000000000000008577ffffffffffffffffffffffffffffffffffffffffffffffff191614156200718757620070e67f514400000000000000000000000000000000000000000000000000000000000062001154565b91508173ffffffffffffffffffffffffffffffffffffffff1663549a65f4856040518263ffffffff1660e01b8152600401808273ffffffffffffffffffffffffffffffffffffffff1673ffffffffffffffffffffffffffffffffffffffff168152602001915050600060405180830381600087803b1580156200716857600080fd5b505af11580156200717d573d6000803e3d6000fd5b50505050620071f5565b6040517f08c379a00000000000000000000000000000000000000000000000000000000081526004018080602001828103825260128152602001807f496e76616c696420706172616d20636f6465000000000000000000000000000081525060200191505060405180910390fd5b5b5b5b5b5b5b5050505050565b6000600760009054906101000a900473ffffffffffffffffffffffffffffffffffffffff16905090565b60066020528060005260406000206000915054906101000a900460ff1681565b6000600180549050905090565b6000806001805490509050600081118015620072a057506001808203815481106200728057fe5b906000526020600020906003020160000160009054906101000a900460ff165b91505090565b7f4142000000000000000000000000000000000000000000000000000000000000817bffffffffffffffffffffffffffffffffffffffffffffffffffffffff191614806200733257507f4155540000000000000000000000000000000000000000000000000000000000817bffffffffffffffffffffffffffffffffffffffffffffffffffffffff1916145b620073a5576040517f08c379a000000000000000000000000000000000000000000000000000000000815260040180806020018281038252600d8152602001807f496e76616c69642063616c6c2e0000000000000000000000000000000000000081525060200191505060405180910390fd5b620073d07f503100000000000000000000000000000000000000000000000000000000000062001154565b73ffffffffffffffffffffffffffffffffffffffff163373ffffffffffffffffffffffffffffffffffffffff1614806200745f5750620074307f475600000000000000000000000000000000000000000000000000000000000062001154565b73ffffffffffffffffffffffffffffffffffffffff163373ffffffffffffffffffffffffffffffffffffffff16145b620074d2576040517f08c379a000000000000000000000000000000000000000000000000000000000815260040180806020018281038252601b8152602001807f43616c6c61626c6520627920503120616e64204756206f6e6c792e000000000081525060200191505060405180910390fd5b600160405180606001604052808415158152602001428152602001837bffffffffffffffffffffffffffffffffffffffffffffffffffffffff19168152509080600181540180825580915050906001820390600052602060002090600302016000909192909190915060008201518160000160006101000a81548160ff0219169083151502179055506020820151816001015560408201518160020160006101000a81548163ffffffff021916908360e01c0217905550505050600015158215151415620076d9576000600460007f434c0000000000000000000000000000000000000000000000000000000000007dffffffffffffffffffffffffffffffffffffffffffffffffffffffffffff1916815260200190815260200160002060009054906101000a900473ffffffffffffffffffffffffffffffffffffffff1690508073ffffffffffffffffffffffffffffffffffffffff166375a0f5216040518163ffffffff1660e01b8152600401600060405180830381600087803b1580156200765c57600080fd5b505af115801562007671573d6000803e3d6000fd5b505050508073ffffffffffffffffffffffffffffffffffffffff16639755fafe6040518163ffffffff1660e01b8152600401600060405180830381600087803b158015620076be57600080fd5b505af1158015620076d3573d6000803e3d6000fd5b50505050505b5050565b60008082604051620076ef9062007cd7565b808273ffffffffffffffffffffffffffffffffffffffff1673ffffffffffffffffffffffffffffffffffffffff168152602001915050604051809103906000f08015801562007742573d6000803e3d6000fd5b50905080915050919050565b60006200779283836040518060400160405280601e81526020017f536166654d6174683a207375627472616374696f6e206f766572666c6f77000081525062007c13565b905092915050565b60008082840190508381101562007819576040517f08c379a000000000000000000000000000000000000000000000000000000000815260040180806020018281038252601b8152602001807f536166654d6174683a206164646974696f6e206f766572666c6f77000000000081525060200191505060405180910390fd5b8091505092915050565b600080620078517f434400000000000000000000000000000000000000000000000000000000000062001154565b90506000808273ffffffffffffffffffffffffffffffffffffffff16635aef2447866040518263ffffffff1660e01b81526004018082815260200191505060c06040518083038186803b158015620078a857600080fd5b505afa158015620078bd573d6000803e3d6000fd5b505050506040513d60c0811015620078d457600080fd5b810190808051906020019092919080519060200190929190805190602001909291908051906020019092919080519060200190929190805190602001909291905050505094509450505050600c821415620079d75742620079c28473ffffffffffffffffffffffffffffffffffffffff1663ee8dea636040518163ffffffff1660e01b815260040160206040518083038186803b1580156200797557600080fd5b505afa1580156200798a573d6000803e3d6000fd5b505050506040513d6020811015620079a157600080fd5b8101908080519060200190929190505050836200779a90919063ffffffff16565b1115620079d65760009350505050620079df565b5b600193505050505b919050565b60008090505b60028054905081101562007c1057600160036000600460006002868154811062007a1057fe5b90600052602060002090601091828204019190066002029054906101000a900460f01b7dffffffffffffffffffffffffffffffffffffffffffffffffffffffffffff19167dffffffffffffffffffffffffffffffffffffffffffffffffffffffffffff1916815260200190815260200160002060009054906101000a900473ffffffffffffffffffffffffffffffffffffffff1673ffffffffffffffffffffffffffffffffffffffff1673ffffffffffffffffffffffffffffffffffffffff16815260200190815260200160002060006101000a81548160ff0219169083151502179055506000600460006002848154811062007b0957fe5b90600052602060002090601091828204019190066002029054906101000a900460f01b7dffffffffffffffffffffffffffffffffffffffffffffffffffffffffffff19167dffffffffffffffffffffffffffffffffffffffffffffffffffffffffffff1916815260200190815260200160002060009054906101000a900473ffffffffffffffffffffffffffffffffffffffff1690508073ffffffffffffffffffffffffffffffffffffffff16630ea9c9846040518163ffffffff1660e01b8152600401600060405180830381600087803b15801562007be857600080fd5b505af115801562007bfd573d6000803e3d6000fd5b50505050508080600101915050620079ea565b50565b600083831115829062007cc4576040517f08c379a00000000000000000000000000000000000000000000000000000000081526004018080602001828103825283818151815260200191508051906020019080838360005b8381101562007c8857808201518184015260208101905062007c6b565b50505050905090810190601f16801562007cb65780820380516001836020036101000a031916815260200191505b509250505060405180910390fd5b5060008385039050809150509392505050565b6106e98062007ce68339019056fe608060405234801561001057600080fd5b506040516106e93803806106e98339818101604052602081101561003357600080fd5b81019080805190602001909291905050506100533361006860201b60201c565b610062816100a960201b60201c565b50610194565b600060405180807f6f72672e676f76626c6f636b732e70726f78792e6f776e6572000000000000008152506019019050604051809103902090508181555050565b60006100b961014a60201b60201c565b90508173ffffffffffffffffffffffffffffffffffffffff168173ffffffffffffffffffffffffffffffffffffffff1614156100f457600080fd5b6101038261017060201b60201c565b8173ffffffffffffffffffffffffffffffffffffffff167fbc7cd75a20ee27fd9adebab32041f755214dbc6bffa90cc0225b39da2e5c2d3b60405160405180910390a25050565b60008060405180806106c760229139602201905060405180910390209050805491505090565b600060405180806106c7602291396022019050604051809103902090508181555050565b610524806101a36000396000f3fe60806040526004361061003f5760003560e01c8063025313a2146100ac5780633659cfe6146101035780635c60da1b14610154578063f1739cae146101ab575b60006100496101fc565b9050600073ffffffffffffffffffffffffffffffffffffffff168173ffffffffffffffffffffffffffffffffffffffff16141561008557600080fd5b60405136600082376000803683855af43d806000843e81600081146100a8578184f35b8184fd5b3480156100b857600080fd5b506100c1610222565b604051808273ffffffffffffffffffffffffffffffffffffffff1673ffffffffffffffffffffffffffffffffffffffff16815260200191505060405180910390f35b34801561010f57600080fd5b506101526004803603602081101561012657600080fd5b81019080803573ffffffffffffffffffffffffffffffffffffffff169060200190929190505050610265565b005b34801561016057600080fd5b506101696101fc565b604051808273ffffffffffffffffffffffffffffffffffffffff1673ffffffffffffffffffffffffffffffffffffffff16815260200191505060405180910390f35b3480156101b757600080fd5b506101fa600480360360208110156101ce57600080fd5b81019080803573ffffffffffffffffffffffffffffffffffffffff1690602001909291905050506102b0565b005b60008060405180806104ce60229139602201905060405180910390209050805491505090565b60008060405180807f6f72672e676f76626c6f636b732e70726f78792e6f776e657200000000000000815250601901905060405180910390209050805491505090565b61026d610222565b73ffffffffffffffffffffffffffffffffffffffff163373ffffffffffffffffffffffffffffffffffffffff16146102a457600080fd5b6102ad816103d3565b50565b6102b8610222565b73ffffffffffffffffffffffffffffffffffffffff163373ffffffffffffffffffffffffffffffffffffffff16146102ef57600080fd5b600073ffffffffffffffffffffffffffffffffffffffff168173ffffffffffffffffffffffffffffffffffffffff16141561032957600080fd5b61033281610468565b7f5a3e66efaa1e445ebd894728a69d6959842ea1e97bd79b892797106e270efcd961035b610222565b82604051808373ffffffffffffffffffffffffffffffffffffffff1673ffffffffffffffffffffffffffffffffffffffff1681526020018273ffffffffffffffffffffffffffffffffffffffff1673ffffffffffffffffffffffffffffffffffffffff1681526020019250505060405180910390a150565b60006103dd6101fc565b90508173ffffffffffffffffffffffffffffffffffffffff168173ffffffffffffffffffffffffffffffffffffffff16141561041857600080fd5b610421826104a9565b8173ffffffffffffffffffffffffffffffffffffffff167fbc7cd75a20ee27fd9adebab32041f755214dbc6bffa90cc0225b39da2e5c2d3b60405160405180910390a25050565b600060405180807f6f72672e676f76626c6f636b732e70726f78792e6f776e6572000000000000008152506019019050604051809103902090508181555050565b600060405180806104ce60229139602201905060405180910390209050818155505056fe6f72672e676f76626c6f636b732e70726f78792e696d706c656d656e746174696f6ea265627a7a723158208e3ff7816ad060f72bf6e561b4097a77130eb5f418a1ee31077131fecc61ec1d64736f6c634300051100326f72672e676f76626c6f636b732e70726f78792e696d706c656d656e746174696f6e43616c6c65722073686f756c64206265206f776e657220616e642073686f756c64206f6e6c792062652063616c6c6564206f6e63652e456d657267656e63792070617573656420776173206e6f7420737461727465642062792041647669736f727920426f617264436f6e747261637420636f646520697320616c726561647920617661696c61626c652e4f6e6c792063616c6c6261636b206f66207479706520455020697320616c6c6f77656420647572696e6720656d657267656e6379207061757365636f6e7472616374206e616d657320616e64207479706573206172726179732073686f756c642068617665207468652073616d65206c656e677468a265627a7a72315820f8620d4c5e991ae6dc1338d9a57a593c830f4b79dfbb9d0cf3ac2eb26fc1c2ce64736f6c63430005110032",
  "linkReferences": {},
  "deployedLinkReferences": {}
}