{
  "_format": "hh-sol-artifact-1",
  "contractName": "DisposableNXMaster",
  "sourceName": "contracts/NexusMutual/mocks/DisposableNXMaster.sol",
  "abi": [
    {
      "constant": false,
      "inputs": [
        {
          "internalType": "bool",
          "name": "_pause",
          "type": "bool"
        },
        {
          "internalType": "bytes4",
          "name": "_by",
          "type": "bytes4"
        }
      ],
      "name": "addEmergencyPause",
      "outputs": [],
      "payable": false,
      "stateMutability": "nonpayable",
      "type": "function"
    },
    {
      "constant": false,
      "inputs": [
        {
          "internalType": "bytes2",
          "name": "_contractName",
          "type": "bytes2"
        },
        {
          "internalType": "address payable",
          "name": "_contractAddress",
          "type": "address"
        },
        {
          "internalType": "uint256",
          "name": "_type",
          "type": "uint256"
        }
      ],
      "name": "addNewInternalContract",
      "outputs": [],
      "payable": false,
      "stateMutability": "nonpayable",
      "type": "function"
    },
    {
      "constant": false,
      "inputs": [
        {
          "internalType": "address payable[]",
          "name": "_contractAddresses",
          "type": "address[]"
        }
      ],
      "name": "addNewVersion",
      "outputs": [],
      "payable": false,
      "stateMutability": "nonpayable",
      "type": "function"
    },
    {
      "constant": false,
      "inputs": [],
      "name": "changeAllAddress",
      "outputs": [],
      "payable": false,
      "stateMutability": "nonpayable",
      "type": "function"
    },
    {
      "constant": true,
      "inputs": [
        {
          "internalType": "address",
          "name": "_add",
          "type": "address"
        }
      ],
      "name": "checkIsAuthToGoverned",
      "outputs": [
        {
          "internalType": "bool",
          "name": "",
          "type": "bool"
        }
      ],
      "payable": false,
      "stateMutability": "view",
      "type": "function"
    },
    {
      "constant": false,
      "inputs": [
        {
          "internalType": "uint256",
          "name": "_claimId",
          "type": "uint256"
        }
      ],
      "name": "closeClaim",
      "outputs": [],
      "payable": false,
      "stateMutability": "nonpayable",
      "type": "function"
    },
    {
      "constant": true,
      "inputs": [
        {
          "internalType": "address",
          "name": "",
          "type": "address"
        }
      ],
      "name": "contractsActive",
      "outputs": [
        {
          "internalType": "bool",
          "name": "",
          "type": "bool"
        }
      ],
      "payable": false,
      "stateMutability": "view",
      "type": "function"
    },
    {
      "constant": true,
      "inputs": [],
      "name": "dAppLocker",
      "outputs": [
        {
          "internalType": "address",
          "name": "_add",
          "type": "address"
        }
      ],
      "payable": false,
      "stateMutability": "view",
      "type": "function"
    },
    {
      "constant": true,
      "inputs": [],
      "name": "dAppToken",
      "outputs": [
        {
          "internalType": "address",
          "name": "_add",
          "type": "address"
        }
      ],
      "payable": false,
      "stateMutability": "view",
      "type": "function"
    },
    {
      "constant": false,
      "inputs": [
        {
          "internalType": "bytes32",
          "name": "myid",
          "type": "bytes32"
        }
      ],
      "name": "delegateCallBack",
      "outputs": [],
      "payable": false,
      "stateMutability": "nonpayable",
      "type": "function"
    },
    {
      "constant": true,
      "inputs": [
        {
          "internalType": "uint256",
          "name": "",
          "type": "uint256"
        }
      ],
      "name": "emergencyPaused",
      "outputs": [
        {
          "internalType": "bool",
          "name": "pause",
          "type": "bool"
        },
        {
          "internalType": "uint256",
          "name": "time",
          "type": "uint256"
        },
        {
          "internalType": "bytes4",
          "name": "by",
          "type": "bytes4"
        }
      ],
      "payable": false,
      "stateMutability": "view",
      "type": "function"
    },
    {
      "constant": true,
      "inputs": [],
      "name": "getEmergencyPausedLength",
      "outputs": [
        {
          "internalType": "uint256",
          "name": "len",
          "type": "uint256"
        }
      ],
      "payable": false,
      "stateMutability": "view",
      "type": "function"
    },
    {
      "constant": true,
      "inputs": [],
      "name": "getLastEmergencyPause",
      "outputs": [
        {
          "internalType": "bool",
          "name": "_pause",
          "type": "bool"
        },
        {
          "internalType": "uint256",
          "name": "_time",
          "type": "uint256"
        },
        {
          "internalType": "bytes4",
          "name": "_by",
          "type": "bytes4"
        }
      ],
      "payable": false,
      "stateMutability": "view",
      "type": "function"
    },
    {
      "constant": true,
      "inputs": [
        {
          "internalType": "bytes2",
          "name": "_contractName",
          "type": "bytes2"
        }
      ],
      "name": "getLatestAddress",
      "outputs": [
        {
          "internalType": "address payable",
          "name": "contractAddress",
          "type": "address"
        }
      ],
      "payable": false,
      "stateMutability": "view",
      "type": "function"
    },
    {
      "constant": true,
      "inputs": [
        {
          "internalType": "bytes8",
          "name": "code",
          "type": "bytes8"
        }
      ],
      "name": "getOwnerParameters",
      "outputs": [
        {
          "internalType": "bytes8",
          "name": "codeVal",
          "type": "bytes8"
        },
        {
          "internalType": "address",
          "name": "val",
          "type": "address"
        }
      ],
      "payable": false,
      "stateMutability": "view",
      "type": "function"
    },
    {
      "constant": true,
      "inputs": [],
      "name": "getVersionData",
      "outputs": [
        {
          "internalType": "bytes2[]",
          "name": "contractsName",
          "type": "bytes2[]"
        },
        {
          "internalType": "address[]",
          "name": "contractsAddress",
          "type": "address[]"
        }
      ],
      "payable": false,
      "stateMutability": "view",
      "type": "function"
    },
    {
      "constant": false,
      "inputs": [
        {
          "internalType": "address",
          "name": "_owner",
          "type": "address"
        },
        {
          "internalType": "address",
          "name": "_tokenAddress",
          "type": "address"
        },
        {
          "internalType": "uint256",
          "name": "_pauseTime",
          "type": "uint256"
        },
        {
          "internalType": "bytes2[]",
          "name": "_contractNames",
          "type": "bytes2[]"
        },
        {
          "internalType": "uint8[]",
          "name": "_contractTypes",
          "type": "uint8[]"
        },
        {
          "internalType": "address payable[]",
          "name": "_contractAddresses",
          "type": "address[]"
        }
      ],
      "name": "initialize",
      "outputs": [],
      "payable": false,
      "stateMutability": "nonpayable",
      "type": "function"
    },
    {
      "constant": false,
      "inputs": [
        {
          "internalType": "address",
          "name": "_tokenAdd",
          "type": "address"
        }
      ],
      "name": "initiateMaster",
      "outputs": [],
      "payable": false,
      "stateMutability": "nonpayable",
      "type": "function"
    },
    {
      "constant": true,
      "inputs": [
        {
          "internalType": "address",
          "name": "_toCheck",
          "type": "address"
        }
      ],
      "name": "isAuthorizedToGovern",
      "outputs": [
        {
          "internalType": "bool",
          "name": "",
          "type": "bool"
        }
      ],
      "payable": false,
      "stateMutability": "view",
      "type": "function"
    },
    {
      "constant": true,
      "inputs": [
        {
          "internalType": "address",
          "name": "_contractAddress",
          "type": "address"
        }
      ],
      "name": "isInternal",
      "outputs": [
        {
          "internalType": "bool",
          "name": "",
          "type": "bool"
        }
      ],
      "payable": false,
      "stateMutability": "view",
      "type": "function"
    },
    {
      "constant": true,
      "inputs": [
        {
          "internalType": "address",
          "name": "_add",
          "type": "address"
        }
      ],
      "name": "isMember",
      "outputs": [
        {
          "internalType": "bool",
          "name": "",
          "type": "bool"
        }
      ],
      "payable": false,
      "stateMutability": "view",
      "type": "function"
    },
    {
      "constant": true,
      "inputs": [
        {
          "internalType": "address",
          "name": "_address",
          "type": "address"
        }
      ],
      "name": "isOwner",
      "outputs": [
        {
          "internalType": "bool",
          "name": "",
          "type": "bool"
        }
      ],
      "payable": false,
      "stateMutability": "view",
      "type": "function"
    },
    {
      "constant": true,
      "inputs": [],
      "name": "isPause",
      "outputs": [
        {
          "internalType": "bool",
          "name": "",
          "type": "bool"
        }
      ],
      "payable": false,
      "stateMutability": "view",
      "type": "function"
    },
    {
      "constant": true,
      "inputs": [
        {
          "internalType": "bytes2",
          "name": "",
          "type": "bytes2"
        }
      ],
      "name": "isProxy",
      "outputs": [
        {
          "internalType": "bool",
          "name": "",
          "type": "bool"
        }
      ],
      "payable": false,
      "stateMutability": "view",
      "type": "function"
    },
    {
      "constant": true,
      "inputs": [
        {
          "internalType": "bytes2",
          "name": "",
          "type": "bytes2"
        }
      ],
      "name": "isUpgradable",
      "outputs": [
        {
          "internalType": "bool",
          "name": "",
          "type": "bool"
        }
      ],
      "payable": false,
      "stateMutability": "view",
      "type": "function"
    },
    {
      "constant": true,
      "inputs": [],
      "name": "masterAddress",
      "outputs": [
        {
          "internalType": "address",
          "name": "",
          "type": "address"
        }
      ],
      "payable": false,
      "stateMutability": "view",
      "type": "function"
    },
    {
      "constant": true,
      "inputs": [],
      "name": "masterInitialized",
      "outputs": [
        {
          "internalType": "bool",
          "name": "",
          "type": "bool"
        }
      ],
      "payable": false,
      "stateMutability": "view",
      "type": "function"
    },
    {
      "constant": true,
      "inputs": [],
      "name": "owner",
      "outputs": [
        {
          "internalType": "address",
          "name": "",
          "type": "address"
        }
      ],
      "payable": false,
      "stateMutability": "view",
      "type": "function"
    },
    {
      "constant": true,
      "inputs": [],
      "name": "pauseTime",
      "outputs": [
        {
          "internalType": "uint256",
          "name": "",
          "type": "uint256"
        }
      ],
      "payable": false,
      "stateMutability": "view",
      "type": "function"
    },
    {
      "constant": false,
      "inputs": [],
      "name": "startEmergencyPause",
      "outputs": [],
      "payable": false,
      "stateMutability": "nonpayable",
      "type": "function"
    },
    {
      "constant": false,
      "inputs": [
        {
          "internalType": "address payable",
          "name": "newGV",
          "type": "address"
        }
      ],
      "name": "switchGovernanceAddress",
      "outputs": [],
      "payable": false,
      "stateMutability": "nonpayable",
      "type": "function"
    },
    {
      "constant": true,
      "inputs": [],
      "name": "tokenAddress",
      "outputs": [
        {
          "internalType": "address",
          "name": "",
          "type": "address"
        }
      ],
      "payable": false,
      "stateMutability": "view",
      "type": "function"
    },
    {
      "constant": false,
      "inputs": [
        {
          "internalType": "bytes8",
          "name": "code",
          "type": "bytes8"
        },
        {
          "internalType": "address payable",
          "name": "val",
          "type": "address"
        }
      ],
      "name": "updateOwnerParameters",
      "outputs": [],
      "payable": false,
      "stateMutability": "nonpayable",
      "type": "function"
    },
    {
      "constant": false,
      "inputs": [
        {
          "internalType": "uint256",
          "name": "_time",
          "type": "uint256"
        }
      ],
      "name": "updatePauseTime",
      "outputs": [],
      "payable": false,
      "stateMutability": "nonpayable",
      "type": "function"
    },
    {
      "constant": false,
      "inputs": [
        {
          "internalType": "bytes2[]",
          "name": "_contractsName",
          "type": "bytes2[]"
        },
        {
          "internalType": "address payable[]",
          "name": "_contractsAddress",
          "type": "address[]"
        }
      ],
      "name": "upgradeMultipleContracts",
      "outputs": [],
      "payable": false,
      "stateMutability": "nonpayable",
      "type": "function"
    },
    {
      "constant": false,
      "inputs": [
        {
          "internalType": "bytes2[]",
          "name": "_contractNames",
          "type": "bytes2[]"
        },
        {
          "internalType": "address[]",
          "name": "_contractAddresses",
          "type": "address[]"
        }
      ],
      "name": "upgradeMultipleImplementations",
      "outputs": [],
      "payable": false,
      "stateMutability": "nonpayable",
      "type": "function"
    }
  ],
  "bytecode": "0x608060405234801561001057600080fd5b50614dc4806100206000396000f3fe60806040523480156200001157600080fd5b5060043610620002505760003560e01c80638dd7ff9a1162000141578063c74de06511620000bd578063eaf2c4771162000087578063eaf2c4771462000a82578063fa00d8841462000a8c578063fa3c8a901462000ab6578063ff0938a71462000ac0578063ffa399291462000aca5762000250565b8063c74de065146200098e578063d04e13711462000a35578063d365a08e1462000a3f578063e2cab14d1462000a495762000250565b8063a97ea794116200010b578063a97ea794146200073b578063b96a899514620007e2578063bf1f2819146200090e578063c15041d51462000964578063c3e4d672146200096e5762000250565b80638dd7ff9a14620006bf5780638f16c41c14620006df5780639d76ea581462000708578063a230c52414620007125762000250565b80633a12507f11620001d15780636fc4ed4c116200019b5780636fc4ed4c146200064257806371a2b7f7146200066b57806378ddbed4146200068b578063872f1eb314620006ab5780638da5cb5b14620006b55762000250565b80633a12507f146200051e57806344d479e7146200052857806347f4f88514620005525780635834e67a14620006195762000250565b80631593e7fc116200021f5780631593e7fc146200043057806322ce725414620004595780632c72135314620004825780632d4c115214620004c15780632f54bf6e14620004f55762000250565b8063013828581462000255578063015cb3ff146200029b57806301c09f1414620002b7578063066261d814620002f4575b600080fd5b6200027f600480360360208110156200026d57600080fd5b50356001600160f01b03191662000afc565b604080516001600160a01b039092168252519081900360200190f35b620002a562000b21565b60408051918252519081900360200190f35b620002e060048036036020811015620002cf57600080fd5b50356001600160a01b031662000b27565b604080519115158252519081900360200190f35b6200042e600480360360c08110156200030c57600080fd5b6001600160a01b03823581169260208101359091169160408201359190810190608081016060820135600160201b8111156200034757600080fd5b8201836020820111156200035a57600080fd5b803590602001918460208302840111600160201b831117156200037c57600080fd5b919390929091602081019035600160201b8111156200039a57600080fd5b820183602082011115620003ad57600080fd5b803590602001918460208302840111600160201b83111715620003cf57600080fd5b919390929091602081019035600160201b811115620003ed57600080fd5b8201836020820111156200040057600080fd5b803590602001918460208302840111600160201b831117156200042257600080fd5b50909250905062000b3c565b005b6200042e600480360360208110156200044857600080fd5b50356001600160a01b031662000e5c565b620002e0600480360360208110156200047157600080fd5b50356001600160a01b031662001423565b6200042e600480360360608110156200049a57600080fd5b506001600160f01b0319813516906001600160a01b036020820135169060400135620014ba565b620004cb62001811565b60408051931515845260208401929092526001600160e01b03191682820152519081900360600190f35b620002e0600480360360208110156200050d57600080fd5b50356001600160a01b0316620018b6565b6200027f620018ca565b620002e0600480360360208110156200054057600080fd5b50356001600160f01b031916620018e1565b6200042e600480360360408110156200056a57600080fd5b810190602081018135600160201b8111156200058557600080fd5b8201836020820111156200059857600080fd5b803590602001918460208302840111600160201b83111715620005ba57600080fd5b919390929091602081019035600160201b811115620005d857600080fd5b820183602082011115620005eb57600080fd5b803590602001918460208302840111600160201b831117156200060d57600080fd5b509092509050620018f6565b620002e0600480360360208110156200063157600080fd5b50356001600160a01b031662001c09565b6200042e600480360360208110156200065a57600080fd5b50356001600160a01b031662001c1c565b620004cb600480360360208110156200068357600080fd5b503562001c89565b6200042e60048036036020811015620006a357600080fd5b503562001cc1565b6200042e62001d18565b6200027f62001f23565b6200042e60048036036020811015620006d757600080fd5b503562001f32565b620002e060048036036020811015620006f757600080fd5b50356001600160a01b0316620027ed565b6200027f6200280b565b620002e0600480360360208110156200072a57600080fd5b50356001600160a01b03166200281a565b6200042e600480360360208110156200075357600080fd5b810190602081018135600160201b8111156200076e57600080fd5b8201836020820111156200078157600080fd5b803590602001918460208302840111600160201b83111715620007a357600080fd5b919080806020026020016040519081016040528093929190818152602001838360200280828437600092019190915250929550620028c4945050505050565b6200042e60048036036040811015620007fa57600080fd5b810190602081018135600160201b8111156200081557600080fd5b8201836020820111156200082857600080fd5b803590602001918460208302840111600160201b831117156200084a57600080fd5b9190808060200260200160405190810160405280939291908181526020018383602002808284376000920191909152509295949360208101935035915050600160201b8111156200089a57600080fd5b820183602082011115620008ad57600080fd5b803590602001918460208302840111600160201b83111715620008cf57600080fd5b91908080602002602001604051908101604052809392919081815260200183836020028082843760009201919091525092955062002c74945050505050565b62000938600480360360208110156200092657600080fd5b50356001600160c01b03191662003466565b604080516001600160c01b031990931683526001600160a01b0390911660208301528051918290030190f35b620002e0620037bc565b6200042e600480360360208110156200098657600080fd5b5035620037cc565b6200099862003899565b604051808060200180602001838103835285818151815260200191508051906020019060200280838360005b83811015620009de578181015183820152602001620009c4565b50505050905001838103825284818151815260200191508051906020019060200280838360005b8381101562000a1f57818101518382015260200162000a05565b5050505090500194505050505060405180910390f35b6200042e620039ec565b6200027f62003b12565b6200042e6004803603604081101562000a6157600080fd5b5080356001600160c01b03191690602001356001600160a01b031662003b21565b6200027f62004075565b620002e06004803603602081101562000aa457600080fd5b50356001600160f01b03191662004084565b620002a562004099565b620002e06200409f565b6200042e6004803603604081101562000ae257600080fd5b508035151590602001356001600160e01b031916620040db565b6001600160f01b0319166000908152600460205260409020546001600160a01b031690565b60095481565b60036020526000908152604090205460ff1681565b600a5460ff161562000b8b576040805162461bcd60e51b8152602060048201526013602482015272105b1c9958591e481a5b9a5d1a585b1a5e9959606a1b604482015290519081900360640190fd5b6001600a60006101000a81548160ff0219169083151502179055506001600760156101000a81548160ff02191690831515021790555088600860006101000a8154816001600160a01b0302191690836001600160a01b0316021790555087600760006101000a8154816001600160a01b0302191690836001600160a01b0316021790555086600981905550306000806101000a8154816001600160a01b0302191690836001600160a01b03160217905550600160036000306001600160a01b03166001600160a01b0316815260200190815260200160002060006101000a81548160ff02191690831515021790555083839050868690501462000cc05760405162461bcd60e51b815260040180806020018281038252603b81526020018062004d55603b913960400191505060405180910390fd5b60005b8581101562000e5057600087878381811062000cdb57fe5b905060200201356001600160f01b0319169050600084848481811062000cfd57fe5b6002805460018181018355601082047f405787fa12a823e0f2b7631cc41b3ba8828b3321ca811111fa75cd3aa3bb5ace01805460f08a901c600f9094169094026101000a92830261ffff90930219909316919091179091556001600160f01b03198616600090815260046020908152604080832080546001600160a01b0319166001600160a01b039684029890980135959095169687179094558582526003905291909120805460ff1916909117905550905086868481811062000dbd57fe5b9050602002013560ff1660ff166001141562000dfd576001600160f01b031982166000908152600660205260409020805460ff1916600117905562000e45565b86868481811062000e0a57fe5b9050602002013560ff1660ff166002141562000e45576001600160f01b031982166000908152600560205260409020805460ff191660011790555b505060010162000cc3565b50505050505050505050565b6000309050806001600160a01b031663025313a26040518163ffffffff1660e01b815260040160206040518083038186803b15801562000e9b57600080fd5b505afa15801562000eb0573d6000803e3d6000fd5b505050506040513d602081101562000ec757600080fd5b50516001600160a01b0316331462000f26576040805162461bcd60e51b815260206004820152601a60248201527f53656e646572206973206e6f742070726f7879206f776e65722e000000000000604482015290519081900360640190fd5b600a5460ff161562000f7f576040805162461bcd60e51b815260206004820152601860248201527f436f6e7374727563746f7220616c72656164792072616e2e0000000000000000604482015290519081900360640190fd5b50600a805460ff199081166001908117909255600780546001600160a01b039094166001600160a01b031994851617905560088054841633179055600080549093163090811784558352600360209081526040842080548316841790556224ea0060095560028054808501825560108082047f405787fa12a823e0f2b7631cc41b3ba8828b3321ca811111fa75cd3aa3bb5ace9081018054615144600f958616870261010090810a91820261ffff92830219909316929092179092558554808a018755848104840180546154449288168902840a92830292850219169190911790558554808a018755848104840180546143449288168902840a92830292850219169190911790558554808a018755848104840180546150449288168902840a92830292850219169190911790558554808a018755848104840180546151549288168902840a92830292850219169190911790558554808a018755848104840180546154469288168902840a92830292850219169190911790558554808a018755848104840180546154439288168902840a92830292850219169190911790558554808a0187558481048401805461434c9288168902840a92830292850219169190911790558554808a018755848104840180546143529288168902840a92830292850219169190911790558554808a018755848104840180546150319288168902840a92830292850219169190911790558554808a018755848104840180546150329288168902840a92830292850219169190911790558554808a01875584810484018054614d439288168902840a92830292850219169190911790558554808a018755848104840180546147569288168902840a92830292850219169190911790558554808a018755848104840180546150439288168902840a92830292850219169190911790558554808a0187559384049092018054614d529490951690950290910a9182029102199091161790557fa4e06c9270ca5d91a9c42425a0d9d6b8bab7d176f826788ef45adbd62b8668b080548316841790557f572f2f4f7145bdb0a843d6115e9ce469dd3e98085dea06b838389b6ea83f4a5280548316841790557f05f4eda2cc2212af7e847583f7a9d9453228a4affba4d7295fdc22180904375080548316841790557fe6628e527cc9b86d0d7bdb48ff37c9e2a22780087ea871f8d3422104c17bbd1180548316841790557fce0ee55b9b973205227b71b89c5a51200f6f740af2e35cd5bc2986df74ecaadc80548316841790557f1091cd77902cd13d833530bb2aacb3ce010113ef80e3650a198cda4ac61141fb80548316841790557f72b983e1791f172486298016d1db34f85432a011d8a96396243f2c744d825f048054831684179055600590527f70ad5881489813e00231a9fbec33d433db794bc50171aa2fe63e01d6c70cd1e880548216831790557fff0bd943096624e2e1571cbbca4031431b1cf0180e6c5858b8df8b140e5ba4ca80548216831790557f50fc44ab35440e3c8207167a7417f7d29be830bc0ad340eceaa6c93ca2cdb7bb80548216831790556126a960f11b9092527f0fd8fc8935b1eee8a0a8c559390e5c55f8aa70a933933f296f0d51813220e6b58054909216179055565b60008054604080516227050b60e31b81526123ab60f11b600482015290516001600160a01b03928316928516918391630138285891602480820192602092909190829003018186803b1580156200147957600080fd5b505afa1580156200148e573d6000803e3d6000fd5b505050506040513d6020811015620014a557600080fd5b50516001600160a01b0316149150505b919050565b600054604080516227050b60e31b81526123ab60f11b600482015290516001600160a01b039092169133918391630138285891602480820192602092909190829003018186803b1580156200150e57600080fd5b505afa15801562001523573d6000803e3d6000fd5b505050506040513d60208110156200153a57600080fd5b50516001600160a01b03161462001589576040805162461bcd60e51b815260206004820152600e60248201526d139bdd08185d5d1a1bdc9a5e995960921b604482015290519081900360640190fd5b6001600160f01b031984166000908152600460205260409020546001600160a01b031615620015ea5760405162461bcd60e51b815260040180806020018281038252602381526020018062004cf86023913960400191505060405180910390fd5b6001600160a01b03831662001646576040805162461bcd60e51b815260206004820152601c60248201527f4e554c4c2061646472657373206973206e6f7420616c6c6f7765642e00000000604482015290519081900360640190fd5b60028054600181810183556000839052601082047f405787fa12a823e0f2b7631cc41b3ba8828b3321ca811111fa75cd3aa3bb5ace01805460f089901c600f9094169094026101000a92830261ffff90930219909316919091179091558390831415620016d7576001600160f01b031985166000908152600660205260409020805460ff1916600117905562001713565b82600214156200171357620016ec8462004391565b6001600160f01b031986166000908152600560205260409020805460ff1916600117905590505b6001600160f01b03198516600081815260046020818152604080842080546001600160a01b0319166001600160a01b03888116918217835590865260038452828620805460ff191660011790559585529183905290548151633519957d60e21b815230938101939093529051931692839263d46655f4926024808201939182900301818387803b158015620017a757600080fd5b505af1158015620017bc573d6000803e3d6000fd5b50505050806001600160a01b0316630ea9c9846040518163ffffffff1660e01b8152600401600060405180830381600087803b158015620017fc57600080fd5b505af115801562000e50573d6000803e3d6000fd5b60008080806200182062004099565b90508015620018b0576200183c81600163ffffffff620043d916565b9050600181815481106200184c57fe5b60009182526020909120600390910201546001805460ff909216955090829081106200187457fe5b9060005260206000209060030201600101549250600181815481106200189657fe5b600091825260209091206002600390920201015460e01b91505b50909192565b6008546001600160a01b0391821691161490565b6000620018dc61544360f01b62000afc565b905090565b60056020526000908152604090205460ff1681565b600054604080516227050b60e31b81526123ab60f11b600482015290516001600160a01b039092169133918391630138285891602480820192602092909190829003018186803b1580156200194a57600080fd5b505afa1580156200195f573d6000803e3d6000fd5b505050506040513d60208110156200197657600080fd5b50516001600160a01b031614620019c5576040805162461bcd60e51b815260206004820152600e60248201526d139bdd08185d5d1a1bdc9a5e995960921b604482015290519081900360640190fd5b83821462001a1a576040805162461bcd60e51b815260206004820152601d60248201527f4172726179206c656e6774682073686f756c6420626520657175616c2e000000604482015290519081900360640190fd5b60005b8481101562001c0157600084848381811062001a3557fe5b905060200201356001600160a01b03166001600160a01b0316141562001aa2576040805162461bcd60e51b815260206004820152601c60248201527f6e756c6c2061646472657373206973206e6f7420616c6c6f7765642e00000000604482015290519081900360640190fd5b6005600087878481811062001ab357fe5b602090810292909201356001600160f01b0319168352508101919091526040016000205460ff1662001b2c576040805162461bcd60e51b815260206004820152601960248201527f436f6e74726163742073686f756c642062652070726f78792e00000000000000604482015290519081900360640190fd5b60006004600088888581811062001b3f57fe5b602090810292909201356001600160f01b031916835250810191909152604001600020546001600160a01b0316905080633659cfe686868581811062001b8157fe5b905060200201356001600160a01b03166040518263ffffffff1660e01b815260040180826001600160a01b03166001600160a01b03168152602001915050600060405180830381600087803b15801562001bda57600080fd5b505af115801562001bef573d6000803e3d6000fd5b50506001909301925062001a1d915050565b505050505050565b600062001c168262001423565b92915050565b7f48b5d77e6708fd7f3423a4467845bea6010627a481f796e5f084bf79a1374f4d80546001600160a01b039283166001600160a01b03198216811790925591909116600090815260036020526040808220805460ff19908116909155928252902080549091166001179055565b6001818154811062001c9757fe5b600091825260209091206003909102018054600182015460029092015460ff909116925060e01b83565b62001ccc33620027ed565b62001d13576040805162461bcd60e51b81526020600482015260126024820152712737ba1034b73a32b93730b61031b0b6361760711b604482015290519081900360640190fd5b600955565b600054604080516227050b60e31b81526123ab60f11b600482015290516001600160a01b039092169133918391630138285891602480820192602092909190829003018186803b15801562001d6c57600080fd5b505afa15801562001d81573d6000803e3d6000fd5b505050506040513d602081101562001d9857600080fd5b50516001600160a01b03161462001de7576040805162461bcd60e51b815260206004820152600e60248201526d139bdd08185d5d1a1bdc9a5e995960921b604482015290519081900360640190fd5b62001df960016120a160f11b620040db565b61503160f01b6000908152600460208190527f65e528c366d24fe1267504a3fd0d0e6ee46d1498cc6709837295d0fa5e6286545460095460408051631b1d4d6160e31b815293840191909152516001600160a01b0390911692839263d8ea6b08926024808301939282900301818387803b15801562001e7757600080fd5b505af115801562001e8c573d6000803e3d6000fd5b50506110d360f21b6000908152600460208190527f50dbf33991a9c6292dc70c7475ec00e23dd381ac44ce9260861463e58f0f3b705460408051633802167160e01b815290516001600160a01b0390921695508594506338021671938184019390929182900301818387803b15801562001f0557600080fd5b505af115801562001f1a573d6000803e3d6000fd5b50505050505050565b6008546001600160a01b031681565b600754600160a01b900460ff161562001f84576040805162461bcd60e51b815260206004820152600f60248201526e2932b2b73a3930b73a1031b0b6361760891b604482015290519081900360640190fd5b6007805460ff60a01b1916600160a01b179055600062001fa961141160f21b62000afc565b90506000816001600160a01b03166346583d09846040518263ffffffff1660e01b81526004018082815260200191505060206040518083038186803b15801562001ff257600080fd5b505afa15801562002007573d6000803e3d6000fd5b505050506040513d60208110156200201e57600080fd5b50516040805163193bdf4b60e11b815260048101869052905167ffffffffffffffff90921692506000916001600160a01b03851691633277be96916024808301926020929190829003018186803b1580156200207957600080fd5b505afa1580156200208e573d6000803e3d6000fd5b505050506040513d6020811015620020a557600080fd5b505167ffffffffffffffff16905081811462002108576040805162461bcd60e51b815260206004820152601960248201527f43616c6c6261636b20616c726561647920726563656976656400000000000000604482015290519081900360640190fd5b6000836001600160a01b031663fd3e44d5866040518263ffffffff1660e01b81526004018082815260200191505060206040518083038186803b1580156200214f57600080fd5b505afa15801562002164573d6000803e3d6000fd5b505050506040513d60208110156200217b57600080fd5b5051604080516361b6c00f60e01b81526004810188905290519192506001600160a01b038616916361b6c00f9160248082019260009290919082900301818387803b158015620021ca57600080fd5b505af1158015620021df573d6000803e3d6000fd5b50505050620021ed6200409f565b156200232a576000620021ff62001811565b925050506001600160e01b0319821661045560f41b14620022525760405162461bcd60e51b815260040180806020018281038252603a81526020018062004d1b603a913960400191505060405180910390fd5b426200226a600954866200442490919063ffffffff16565b10620022bd576040805162461bcd60e51b815260206004820152601c60248201527f43616c6c6261636b207761732063616c6c656420746f6f20736f6f6e00000000604482015290519081900360640190fd5b6120a160f11b6001600160e01b03198216146200230c5760405162461bcd60e51b815260040180806020018281038252603281526020018062004cc66032913960400191505060405180910390fd5b6200231f60006210555560ea1b620040db565b5050505050620027dd565b6000846001600160a01b031663371e6e12876040518263ffffffff1660e01b81526004018082815260200191505060206040518083038186803b1580156200237157600080fd5b505afa15801562002386573d6000803e3d6000fd5b505050506040513d60208110156200239d57600080fd5b505190506221a7ab60e91b6001600160e01b0319831614156200243a576000620023cc61145560f21b62000afc565b9050806001600160a01b031663f4136f7f836040518263ffffffff1660e01b815260040180828152602001915050600060405180830381600087803b1580156200241557600080fd5b505af11580156200242a573d6000803e3d6000fd5b50505050505050505050620027dd565b62434c4160e81b6001600160e01b0319831614156200250b576200245e816200447f565b620024b0576040805162461bcd60e51b815260206004820152601d60248201527f5061796f75742072657472792074696d65206e6f742072656163686564000000604482015290519081900360640190fd5b6000620024c26121a960f11b62000afc565b9050806001600160a01b0316637f6715c9836040518263ffffffff1660e01b815260040180828152602001915050600060405180830381600087803b1580156200241557600080fd5b6326a1a92360e11b6001600160e01b031983161415620026625742620025a0866001600160a01b031663702ddaab6040518163ffffffff1660e01b815260040160206040518083038186803b1580156200256457600080fd5b505afa15801562002579573d6000803e3d6000fd5b505050506040513d60208110156200259057600080fd5b5051869063ffffffff6200442416565b10620025f3576040805162461bcd60e51b815260206004820152601c60248201527f4d435220706f7374696e672074696d65206e6f74207265616368656400000000604482015290519081900360640190fd5b600062002605614d4360f01b62000afc565b9050806001600160a01b03166380f34275836040518263ffffffff1660e01b8152600401808267ffffffffffffffff1667ffffffffffffffff168152602001915050600060405180830381600087803b1580156200241557600080fd5b6215531560ea1b6001600160e01b0319831614156200275d5742620026ba866001600160a01b0316636549ff586040518163ffffffff1660e01b815260040160206040518083038186803b1580156200256457600080fd5b106200270d576040805162461bcd60e51b815260206004820181905260248201527f4c69717569646974792074726164652074696d65206e6f742072656163686564604482015290519081900360640190fd5b60006200271f61281960f11b62000afc565b9050806001600160a01b031663f720036c6040518163ffffffff1660e01b8152600401600060405180830381600087803b1580156200241557600080fd5b6226a1a960e91b6001600160e01b0319831614806200278c57506324a0a92160e11b6001600160e01b03198316145b156200279d575050505050620027dd565b6040805162461bcd60e51b815260206004820152601060248201526f496e76616c69642063616c6c6261636b60801b604482015290519081900360640190fd5b506007805460ff60a01b19169055565b6001600160a01b031660009081526003602052604090205460ff1690565b6007546001600160a01b031681565b6000806200282d6126a960f11b62000afc565b90506001600160a01b03811663505ef22f8460026040518363ffffffff1660e01b815260040180836001600160a01b03166001600160a01b031681526020018281526020019250505060206040518083038186803b1580156200288f57600080fd5b505afa158015620028a4573d6000803e3d6000fd5b505050506040513d6020811015620028bb57600080fd5b50519392505050565b6008546001600160a01b031633148015620028e95750600754600160a81b900460ff16155b620029265760405162461bcd60e51b815260040180806020018281038252603681526020018062004c906036913960400191505060405180910390fd5b60025481511462002976576040805162461bcd60e51b81526020600482015260156024820152746172726179206c656e677468206e6f742073616d6560581b604482015290519081900360640190fd5b6007805460ff60a81b1916600160a81b17905580516000908290600e9081106200299c57fe5b6020026020010151905060008090505b60025481101562002b125760006001600160a01b0316838281518110620029cf57fe5b60200260200101516001600160a01b0316141562002a34576040805162461bcd60e51b815260206004820152601c60248201527f4e554c4c2061646472657373206973206e6f7420616c6c6f7765642e00000000604482015290519081900360640190fd5b82818151811062002a4157fe5b6020026020010151600460006002848154811062002a5b57fe5b90600052602060002090601091828204019190066002029054906101000a900460f01b6001600160f01b0319166001600160f01b031916815260200190815260200160002060006101000a8154816001600160a01b0302191690836001600160a01b0316021790555060016003600085848151811062002ad757fe5b6020908102919091018101516001600160a01b03168252810191909152604001600020805460ff1916911515919091179055600101620029ac565b5060606001600160a01b038216635daf08ca60036040518263ffffffff1660e01b81526004018082815260200191505060006040518083038186803b15801562002b5b57600080fd5b505afa15801562002b70573d6000803e3d6000fd5b505050506040513d6000823e601f3d908101601f19168201604090815281101562002b9a57600080fd5b815160208301805160405192949293830192919084600160201b82111562002bc157600080fd5b90830190602082018581111562002bd757600080fd5b82518660208202830111600160201b8211171562002bf457600080fd5b82525081516020918201928201910280838360005b8381101562002c2357818101518382015260200162002c09565b505050509050016040525050509150508060008151811062002c4157fe5b6020026020010151600860006101000a8154816001600160a01b0302191690836001600160a01b03160217905550505050565b600054604080516227050b60e31b81526123ab60f11b600482015290516001600160a01b039092169133918391630138285891602480820192602092909190829003018186803b15801562002cc857600080fd5b505afa15801562002cdd573d6000803e3d6000fd5b505050506040513d602081101562002cf457600080fd5b50516001600160a01b03161462002d43576040805162461bcd60e51b815260206004820152600e60248201526d139bdd08185d5d1a1bdc9a5e995960921b604482015290519081900360640190fd5b815183511462002d9a576040805162461bcd60e51b815260206004820152601d60248201527f4172726179206c656e6774682073686f756c6420626520657175616c2e000000604482015290519081900360640190fd5b60005b83518110156200345657600083828151811062002db657fe5b6020026020010151905060006001600160a01b0316816001600160a01b0316141562002e29576040805162461bcd60e51b815260206004820152601c60248201527f4e554c4c2061646472657373206973206e6f7420616c6c6f7765642e00000000604482015290519081900360640190fd5b6006600086848151811062002e3a57fe5b6020908102919091018101516001600160f01b03191682528101919091526040016000205460ff1662002eb4576040805162461bcd60e51b815260206004820152601e60248201527f436f6e74726163742073686f756c642062652075706772616461626c652e0000604482015290519081900360640190fd5b84828151811062002ec157fe5b60200260200101516001600160f01b03191661145560f21b141562002f815761145560f21b6000908152600460208190527f1d549787ccb98156df3526786c57fb04170d054a2d956c25ea0d700f2f1ba36e5460408051633898a65d60e21b81526001600160a01b038681169482019490945290519290911692839263e262997492602480820193929182900301818387803b15801562002f6157600080fd5b505af115801562002f76573d6000803e3d6000fd5b5050505050620032de565b84828151811062002f8e57fe5b60200260200101516001600160f01b0319166121a960f11b14156200316957600062002fbf61544360f01b62000afc565b9050806001600160a01b031663e43252d7836040518263ffffffff1660e01b815260040180826001600160a01b03166001600160a01b03168152602001915050600060405180830381600087803b1580156200301a57600080fd5b505af11580156200302f573d6000803e3d6000fd5b50506121a960f11b6000908152600460208190527f81a16a8e02e895bc8f23c4b57164801632b22336e581fdbd05bc322b5dbf84745460408051638ab1d68160e01b81526001600160a01b0392831693810193909352519086169450638ab1d68193506024808301939282900301818387803b158015620030af57600080fd5b505af1158015620030c4573d6000803e3d6000fd5b50506121a960f11b6000908152600460208190527f81a16a8e02e895bc8f23c4b57164801632b22336e581fdbd05bc322b5dbf8474546040805162900f0160e41b81526001600160a01b03898116948201949094529051929091169450849350630900f01092602480830193919282900301818387803b1580156200314857600080fd5b505af11580156200315d573d6000803e3d6000fd5b505050505050620032de565b8482815181106200317657fe5b60200260200101516001600160f01b03191661503160f01b1415620032165761503160f01b6000908152600460208190527f65e528c366d24fe1267504a3fd0d0e6ee46d1498cc6709837295d0fa5e62865454604080516366fd551d60e01b81526001600160a01b03868116948201949094529051929091169283926366fd551d92602480820193929182900301818387803b15801562002f6157600080fd5b8482815181106200322357fe5b60200260200101516001600160f01b03191661281960f11b1415620032de5761281960f11b6000908152600460208190527fe7f2660f02bdcc323d33e7031a5358e57ee06db4b5c7736fbd9ebbc29573a91f5460408051636dce9b3d60e01b81526001600160a01b0386811694820194909452905192909116928392636dce9b3d92602480820193929182900301818387803b158015620032c357600080fd5b505af1158015620032d8573d6000803e3d6000fd5b50505050505b600060046000878581518110620032f157fe5b6020908102919091018101516001600160f01b03191682528181019290925260409081016000908120546001600160a01b03168082526003909352908120805460ff1916905587519192508391600491908990879081106200334f57fe5b6020908102919091018101516001600160f01b0319168252818101929092526040908101600090812080546001600160a01b0319166001600160a01b03958616179055928516835260039091528120805460ff1916600117905586516004908290899087908110620033bd57fe5b6020908102919091018101516001600160f01b031916825281019190915260409081016000908120548251633519957d60e21b815230600482015292516001600160a01b039091169350839263d46655f492602480830193919282900301818387803b1580156200342d57600080fd5b505af115801562003442573d6000803e3d6000fd5b50506001909501945062002d9d9350505050565b5062003461620045bd565b505050565b8060008080671354d5d05313115560c21b6001600160c01b0319851614156200350f5760006200349b61151160f21b62000afc565b9050806001600160a01b0316636ad5b3ea6040518163ffffffff1660e01b815260040160206040518083038186803b158015620034d757600080fd5b505afa158015620034ec573d6000803e3d6000fd5b505050506040513d60208110156200350357600080fd5b50519350620037b59050565b664d43524e4f544160c81b6001600160c01b031986161415620035ae576200353c61141160f21b62000afc565b9050806001600160a01b031663428dfd386040518163ffffffff1660e01b815260040160206040518083038186803b1580156200357857600080fd5b505afa1580156200358d573d6000803e3d6000fd5b505050506040513d6020811015620035a457600080fd5b50519250620037b5565b661110525191515160ca1b6001600160c01b0319861614156200361757620035db61141160f21b62000afc565b9050806001600160a01b031663f0f9f2546040518163ffffffff1660e01b815260040160206040518083038186803b1580156200357857600080fd5b6715539254d5d0511160c21b6001600160c01b031986161415620036835760006200364761281960f11b62000afc565b9050806001600160a01b0316633655ac3c6040518163ffffffff1660e01b815260040160206040518083038186803b158015620034d757600080fd5b6427aba722a960d91b6001600160c01b031986161415620036b2576008546001600160a01b03169250620037b5565b660a2aa9e82aaa8960cb1b6001600160c01b0319861614156200371b57620036df61145160f21b62000afc565b9150816001600160a01b031663e2c2a5bb6040518163ffffffff1660e01b815260040160206040518083038186803b1580156200357857600080fd5b66096b28682aaa8960cb1b6001600160c01b031986161415620037b5576200374861145160f21b62000afc565b9150816001600160a01b03166384434b9f6040518163ffffffff1660e01b815260040160206040518083038186803b1580156200378457600080fd5b505afa15801562003799573d6000803e3d6000fd5b505050506040513d6020811015620037b057600080fd5b505192505b5050915091565b600754600160a81b900460ff1681565b620037d7816200447f565b62003829576040805162461bcd60e51b815260206004820152601e60248201527f5061796f75742072657472792074696d65206e6f7420726561636865642e0000604482015290519081900360640190fd5b60006200383b6121a960f11b62000afc565b9050806001600160a01b0316637f6715c9836040518263ffffffff1660e01b815260040180828152602001915050600060405180830381600087803b1580156200388457600080fd5b505af115801562001c01573d6000803e3d6000fd5b60608060028054806020026020016040519081016040528092919081815260200182805480156200391757602002820191906000526020600020906000905b82829054906101000a900460f01b6001600160f01b03191681526020019060020190602082600101049283019260010382029150808411620038d85790505b505050505091506002805490506040519080825280602002602001820160405280156200394e578160200160208202803883390190505b50905060005b600254811015620039e75760046000600283815481106200397157fe5b60009182526020808320601083040154600f9092166002026101000a90910460f01b6001600160f01b031916835282019290925260400190205482516001600160a01b0390911690839083908110620039c657fe5b6001600160a01b039092166020928302919091019091015260010162003954565b509091565b60005b60025481101562003b0f5760006002828154811062003a0a57fe5b60009182526020808320601083040154600f9092166002026101000a90910460f01b6001600160f01b0319811683526004918290526040808420548151633519957d60e21b8152309481019490945290519194506001600160a01b0316928392839263d46655f49260248084019391929182900301818387803b15801562003a9157600080fd5b505af115801562003aa6573d6000803e3d6000fd5b50505050806001600160a01b0316630ea9c9846040518163ffffffff1660e01b8152600401600060405180830381600087803b15801562003ae657600080fd5b505af115801562003afb573d6000803e3d6000fd5b505060019095019450620039ef9350505050565b50565b6000546001600160a01b031681565b600054604080516227050b60e31b81526123ab60f11b600482015290516001600160a01b039092169133918391630138285891602480820192602092909190829003018186803b15801562003b7557600080fd5b505afa15801562003b8a573d6000803e3d6000fd5b505050506040513d602081101562003ba157600080fd5b50516001600160a01b03161462003bf0576040805162461bcd60e51b815260206004820152600e60248201526d139bdd08185d5d1a1bdc9a5e995960921b604482015290519081900360640190fd5b600080671354d5d05313115560c21b6001600160c01b03198616141562003c9e57600062003c2361151160f21b62000afc565b9050806001600160a01b031663ec8edf7a866040518263ffffffff1660e01b815260040180826001600160a01b03166001600160a01b03168152602001915050600060405180830381600087803b15801562003c7e57600080fd5b505af115801562003c93573d6000803e3d6000fd5b50505050506200406e565b664d43524e4f544160c81b6001600160c01b03198616141562003d455762003ccb61141160f21b62000afc565b9050806001600160a01b0316636576ffed856040518263ffffffff1660e01b815260040180826001600160a01b03166001600160a01b03168152602001915050600060405180830381600087803b15801562003d2657600080fd5b505af115801562003d3b573d6000803e3d6000fd5b505050506200406e565b661110525191515160ca1b6001600160c01b03198616141562003dcd5762003d7261141160f21b62000afc565b9050806001600160a01b031663ca0d4c86856040518263ffffffff1660e01b815260040180826001600160a01b03166001600160a01b03168152602001915050600060405180830381600087803b15801562003d2657600080fd5b6715539254d5d0511160c21b6001600160c01b03198616141562003e5857600062003dfd61281960f11b62000afc565b9050806001600160a01b031663b19ab66d866040518263ffffffff1660e01b815260040180826001600160a01b03166001600160a01b03168152602001915050600060405180830381600087803b15801562003c7e57600080fd5b6427aba722a960d91b6001600160c01b03198616141562003f1c57600062003e856126a960f11b62000afc565b9050806001600160a01b03166390a79368866040518263ffffffff1660e01b815260040180826001600160a01b03166001600160a01b03168152602001915050600060405180830381600087803b15801562003ee057600080fd5b505af115801562003ef5573d6000803e3d6000fd5b5050600880546001600160a01b0319166001600160a01b038916179055506200406e915050565b660a2aa9e82aaa8960cb1b6001600160c01b03198616141562003fa45762003f4961145160f21b62000afc565b9150816001600160a01b0316631407264b856040518263ffffffff1660e01b815260040180826001600160a01b03166001600160a01b03168152602001915050600060405180830381600087803b15801562003d2657600080fd5b66096b28682aaa8960cb1b6001600160c01b0319861614156200402c5762003fd161145160f21b62000afc565b9150816001600160a01b031663549a65f4856040518263ffffffff1660e01b815260040180826001600160a01b03166001600160a01b03168152602001915050600060405180830381600087803b15801562003d2657600080fd5b6040805162461bcd60e51b8152602060048201526012602482015271496e76616c696420706172616d20636f646560701b604482015290519081900360640190fd5b5050505050565b6007546001600160a01b031690565b60066020526000908152604090205460ff1681565b60015490565b6001546000908015801590620040d55750600180820381548110620040c057fe5b600091825260209091206003909102015460ff165b91505090565b6120a160f11b6001600160e01b0319821614806200410857506210555560ea1b6001600160e01b03198216145b6200414a576040805162461bcd60e51b815260206004820152600d60248201526c24b73b30b634b21031b0b6361760991b604482015290519081900360640190fd5b6200415a61503160f01b62000afc565b6001600160a01b0316336001600160a01b031614806200419a5750620041856123ab60f11b62000afc565b6001600160a01b0316336001600160a01b0316145b620041ec576040805162461bcd60e51b815260206004820152601b60248201527f43616c6c61626c6520627920503120616e64204756206f6e6c792e0000000000604482015290519081900360640190fd5b6040805160608101825283151580825242602083019081526001600160e01b0319851693830193845260018054808201825560009190915292517fb10e2d527612073b26eecdfd717e6a320cf44b4afac2b0732d9fcbe2b7fa0cf66003909402938401805460ff1916911515919091179055517fb10e2d527612073b26eecdfd717e6a320cf44b4afac2b0732d9fcbe2b7fa0cf783015591517fb10e2d527612073b26eecdfd717e6a320cf44b4afac2b0732d9fcbe2b7fa0cf8909101805463ffffffff191660e09290921c9190911790556200438d576110d360f21b6000908152600460208190527f50dbf33991a9c6292dc70c7475ec00e23dd381ac44ce9260861463e58f0f3b7054604080516375a0f52160e01b815290516001600160a01b039092169384936375a0f521938382019390919082900301818387803b1580156200433857600080fd5b505af11580156200434d573d6000803e3d6000fd5b50505050806001600160a01b0316639755fafe6040518163ffffffff1660e01b8152600401600060405180830381600087803b15801562001f0557600080fd5b5050565b60008082604051620043a3906200479d565b6001600160a01b03909116815260405190819003602001906000f080158015620043d1573d6000803e3d6000fd5b509392505050565b60006200441d83836040518060400160405280601e81526020017f536166654d6174683a207375627472616374696f6e206f766572666c6f77000081525062004702565b9392505050565b6000828201838110156200441d576040805162461bcd60e51b815260206004820152601b60248201527f536166654d6174683a206164646974696f6e206f766572666c6f770000000000604482015290519081900360640190fd5b600080620044926110d160f21b62000afc565b9050600080826001600160a01b0316635aef2447866040518263ffffffff1660e01b81526004018082815260200191505060c06040518083038186803b158015620044dc57600080fd5b505afa158015620044f1573d6000803e3d6000fd5b505050506040513d60c08110156200450857600080fd5b5060608101516080909101519092509050600c821415620045b257426200459e846001600160a01b031663ee8dea636040518163ffffffff1660e01b815260040160206040518083038186803b1580156200456257600080fd5b505afa15801562004577573d6000803e3d6000fd5b505050506040513d60208110156200458e57600080fd5b5051839063ffffffff6200442416565b1115620045b25760009350505050620014b5565b506001949350505050565b60005b60025481101562003b0f576001600360006004600060028681548110620045e357fe5b60009182526020808320601083040154600f90921660029081026101000a90920460f01b6001600160f01b03191684528381019490945260409283018220546001600160a01b0316855292840194909452919091018220805460ff19169315159390931790925581549091600491839190859081106200465f57fe5b60009182526020808320601083040154600f9092166002026101000a90910460f01b6001600160f01b0319168352820192909252604090810182205481516303aa726160e21b815291516001600160a01b0390911693508392630ea9c984926004808201939182900301818387803b158015620046db57600080fd5b505af1158015620046f0573d6000803e3d6000fd5b505060019093019250620045c0915050565b60008184841115620047955760405162461bcd60e51b81526004018080602001828103825283818151815260200191508051906020019080838360005b83811015620047595781810151838201526020016200473f565b50505050905090810190601f168015620047875780820380516001836020036101000a031916815260200191505b509250505060405180910390fd5b505050900390565b6104e480620047ac8339019056fe608060405234801561001057600080fd5b506040516104e43803806104e48339818101604052602081101561003357600080fd5b5051610047336001600160e01b0361005f16565b610059816001600160e01b0361009416565b50610157565b604080517f6f72672e676f76626c6f636b732e70726f78792e6f776e6572000000000000008152905190819003601901902055565b60006100a76001600160e01b0361011216565b9050816001600160a01b0316816001600160a01b031614156100c857600080fd5b6100da826001600160e01b0361013516565b6040516001600160a01b038316907fbc7cd75a20ee27fd9adebab32041f755214dbc6bffa90cc0225b39da2e5c2d3b90600090a25050565b60008060405180806104c260229139604051908190036022019020549392505050565b600060405180806104c260229139604051908190036022019020929092555050565b61035c806101666000396000f3fe60806040526004361061003f5760003560e01c8063025313a2146100835780633659cfe6146100b45780635c60da1b146100e9578063f1739cae146100fe575b6000610049610131565b90506001600160a01b03811661005e57600080fd5b60405136600082376000803683855af43d806000843e81801561007f578184f35b8184fd5b34801561008f57600080fd5b50610098610154565b604080516001600160a01b039092168252519081900360200190f35b3480156100c057600080fd5b506100e7600480360360208110156100d757600080fd5b50356001600160a01b0316610186565b005b3480156100f557600080fd5b50610098610131565b34801561010a57600080fd5b506100e76004803603602081101561012157600080fd5b50356001600160a01b03166101b7565b600080604051808061030660229139604051908190036022019020549392505050565b604080517837b9339733b7bb313637b1b5b997383937bc3c9737bbb732b960391b815290519081900360190190205490565b61018e610154565b6001600160a01b0316336001600160a01b0316146101ab57600080fd5b6101b481610246565b50565b6101bf610154565b6001600160a01b0316336001600160a01b0316146101dc57600080fd5b6001600160a01b0381166101ef57600080fd5b6101f8816102b2565b7f5a3e66efaa1e445ebd894728a69d6959842ea1e97bd79b892797106e270efcd9610221610154565b604080516001600160a01b03928316815291841660208301528051918290030190a150565b6000610250610131565b9050816001600160a01b0316816001600160a01b0316141561027157600080fd5b61027a826102e3565b6040516001600160a01b038316907fbc7cd75a20ee27fd9adebab32041f755214dbc6bffa90cc0225b39da2e5c2d3b90600090a25050565b604080517837b9339733b7bb313637b1b5b997383937bc3c9737bbb732b960391b8152905190819003601901902055565b600060405180806103066022913960405190819003602201902092909255505056fe6f72672e676f76626c6f636b732e70726f78792e696d706c656d656e746174696f6ea265627a7a72315820550ba2cee5fc3a307af4bb6ab257133318817f66f77274e9a6ff74df800df84364736f6c634300051100326f72672e676f76626c6f636b732e70726f78792e696d706c656d656e746174696f6e43616c6c65722073686f756c64206265206f776e657220616e642073686f756c64206f6e6c792062652063616c6c6564206f6e63652e456d657267656e63792070617573656420776173206e6f7420737461727465642062792041647669736f727920426f617264436f6e747261637420636f646520697320616c726561647920617661696c61626c652e4f6e6c792063616c6c6261636b206f66207479706520455020697320616c6c6f77656420647572696e6720656d657267656e6379207061757365636f6e7472616374206e616d657320616e64207479706573206172726179732073686f756c642068617665207468652073616d65206c656e677468a265627a7a72315820737a630b044792f39248f96a9f1040771727589b40e18ca4d0e737174614517164736f6c63430005110032",
  "linkReferences": {},
  "deployedLinkReferences": {}
}