{
  "_format": "hh-sol-artifact-1",
  "contractName": "Quotation",
  "sourceName": "contracts/NexusMutual/modules/cover/Quotation.sol",
  "abi": [
    {
      "anonymous": false,
      "inputs": [
        {
          "indexed": true,
          "internalType": "address",
          "name": "user",
          "type": "address"
        },
        {
          "indexed": true,
          "internalType": "bool",
          "name": "status",
          "type": "bool"
        },
        {
          "indexed": false,
          "internalType": "uint256",
          "name": "holdedCoverID",
          "type": "uint256"
        },
        {
          "indexed": false,
          "internalType": "bytes32",
          "name": "reason",
          "type": "bytes32"
        }
      ],
      "name": "RefundEvent",
      "type": "event"
    },
    {
      "constant": false,
      "inputs": [],
      "name": "changeDependentContractAddress",
      "outputs": [],
      "payable": false,
      "stateMutability": "nonpayable",
      "type": "function"
    },
    {
      "constant": false,
      "inputs": [
        {
          "internalType": "address",
          "name": "_masterAddress",
          "type": "address"
        }
      ],
      "name": "changeMasterAddress",
      "outputs": [],
      "payable": false,
      "stateMutability": "nonpayable",
      "type": "function"
    },
    {
      "constant": true,
      "inputs": [
        {
          "internalType": "uint256",
          "name": "_cid",
          "type": "uint256"
        }
      ],
      "name": "checkCoverExpired",
      "outputs": [
        {
          "internalType": "bool",
          "name": "expire",
          "type": "bool"
        }
      ],
      "payable": false,
      "stateMutability": "view",
      "type": "function"
    },
    {
      "constant": false,
      "inputs": [
        {
          "internalType": "uint256",
          "name": "_cid",
          "type": "uint256"
        }
      ],
      "name": "expireCover",
      "outputs": [],
      "payable": false,
      "stateMutability": "nonpayable",
      "type": "function"
    },
    {
      "constant": true,
      "inputs": [
        {
          "internalType": "uint256[]",
          "name": "coverDetails",
          "type": "uint256[]"
        },
        {
          "internalType": "uint16",
          "name": "coverPeriod",
          "type": "uint16"
        },
        {
          "internalType": "bytes4",
          "name": "curr",
          "type": "bytes4"
        },
        {
          "internalType": "address",
          "name": "smaratCA",
          "type": "address"
        }
      ],
      "name": "getOrderHash",
      "outputs": [
        {
          "internalType": "bytes32",
          "name": "",
          "type": "bytes32"
        }
      ],
      "payable": false,
      "stateMutability": "view",
      "type": "function"
    },
    {
      "constant": true,
      "inputs": [
        {
          "internalType": "address",
          "name": "userAdd",
          "type": "address"
        }
      ],
      "name": "getRecentHoldedCoverIdStatus",
      "outputs": [
        {
          "internalType": "int256",
          "name": "",
          "type": "int256"
        }
      ],
      "payable": false,
      "stateMutability": "view",
      "type": "function"
    },
    {
      "constant": false,
      "inputs": [
        {
          "internalType": "address",
          "name": "smartCAdd",
          "type": "address"
        },
        {
          "internalType": "bytes4",
          "name": "coverCurr",
          "type": "bytes4"
        },
        {
          "internalType": "uint256[]",
          "name": "coverDetails",
          "type": "uint256[]"
        },
        {
          "internalType": "uint16",
          "name": "coverPeriod",
          "type": "uint16"
        },
        {
          "internalType": "uint8",
          "name": "_v",
          "type": "uint8"
        },
        {
          "internalType": "bytes32",
          "name": "_r",
          "type": "bytes32"
        },
        {
          "internalType": "bytes32",
          "name": "_s",
          "type": "bytes32"
        }
      ],
      "name": "initiateMembershipAndCover",
      "outputs": [],
      "payable": true,
      "stateMutability": "payable",
      "type": "function"
    },
    {
      "constant": true,
      "inputs": [
        {
          "internalType": "bytes32",
          "name": "hash",
          "type": "bytes32"
        },
        {
          "internalType": "uint8",
          "name": "v",
          "type": "uint8"
        },
        {
          "internalType": "bytes32",
          "name": "r",
          "type": "bytes32"
        },
        {
          "internalType": "bytes32",
          "name": "s",
          "type": "bytes32"
        }
      ],
      "name": "isValidSignature",
      "outputs": [
        {
          "internalType": "bool",
          "name": "",
          "type": "bool"
        }
      ],
      "payable": false,
      "stateMutability": "view",
      "type": "function"
    },
    {
      "constant": false,
      "inputs": [
        {
          "internalType": "address",
          "name": "_add",
          "type": "address"
        },
        {
          "internalType": "bool",
          "name": "status",
          "type": "bool"
        }
      ],
      "name": "kycVerdict",
      "outputs": [],
      "payable": false,
      "stateMutability": "nonpayable",
      "type": "function"
    },
    {
      "constant": false,
      "inputs": [
        {
          "internalType": "uint256[]",
          "name": "coverDetails",
          "type": "uint256[]"
        },
        {
          "internalType": "uint16",
          "name": "coverPeriod",
          "type": "uint16"
        },
        {
          "internalType": "bytes4",
          "name": "coverCurr",
          "type": "bytes4"
        },
        {
          "internalType": "address",
          "name": "smartCAdd",
          "type": "address"
        },
        {
          "internalType": "uint8",
          "name": "_v",
          "type": "uint8"
        },
        {
          "internalType": "bytes32",
          "name": "_r",
          "type": "bytes32"
        },
        {
          "internalType": "bytes32",
          "name": "_s",
          "type": "bytes32"
        }
      ],
      "name": "makeCoverUsingNXMTokens",
      "outputs": [],
      "payable": false,
      "stateMutability": "nonpayable",
      "type": "function"
    },
    {
      "constant": true,
      "inputs": [],
      "name": "ms",
      "outputs": [
        {
          "internalType": "contract INXMMaster",
          "name": "",
          "type": "address"
        }
      ],
      "payable": false,
      "stateMutability": "view",
      "type": "function"
    },
    {
      "constant": true,
      "inputs": [],
      "name": "nxMasterAddress",
      "outputs": [
        {
          "internalType": "address",
          "name": "",
          "type": "address"
        }
      ],
      "payable": false,
      "stateMutability": "view",
      "type": "function"
    },
    {
      "constant": false,
      "inputs": [
        {
          "internalType": "uint256",
          "name": "_cid",
          "type": "uint256"
        },
        {
          "internalType": "uint256",
          "name": "_amount",
          "type": "uint256"
        }
      ],
      "name": "removeSAFromCSA",
      "outputs": [],
      "payable": false,
      "stateMutability": "nonpayable",
      "type": "function"
    },
    {
      "constant": false,
      "inputs": [],
      "name": "sendEther",
      "outputs": [],
      "payable": true,
      "stateMutability": "payable",
      "type": "function"
    },
    {
      "constant": false,
      "inputs": [
        {
          "internalType": "address",
          "name": "newAdd",
          "type": "address"
        }
      ],
      "name": "transferAssetsToNewContract",
      "outputs": [],
      "payable": false,
      "stateMutability": "nonpayable",
      "type": "function"
    },
    {
      "constant": false,
      "inputs": [
        {
          "internalType": "address payable",
          "name": "from",
          "type": "address"
        },
        {
          "internalType": "address",
          "name": "scAddress",
          "type": "address"
        },
        {
          "internalType": "bytes4",
          "name": "coverCurr",
          "type": "bytes4"
        },
        {
          "internalType": "uint256[]",
          "name": "coverDetails",
          "type": "uint256[]"
        },
        {
          "internalType": "uint16",
          "name": "coverPeriod",
          "type": "uint16"
        },
        {
          "internalType": "uint8",
          "name": "_v",
          "type": "uint8"
        },
        {
          "internalType": "bytes32",
          "name": "_r",
          "type": "bytes32"
        },
        {
          "internalType": "bytes32",
          "name": "_s",
          "type": "bytes32"
        }
      ],
      "name": "verifyCoverDetails",
      "outputs": [],
      "payable": false,
      "stateMutability": "nonpayable",
      "type": "function"
    },
    {
      "constant": true,
      "inputs": [
        {
          "internalType": "uint256[]",
          "name": "coverDetails",
          "type": "uint256[]"
        },
        {
          "internalType": "uint16",
          "name": "coverPeriod",
          "type": "uint16"
        },
        {
          "internalType": "bytes4",
          "name": "curr",
          "type": "bytes4"
        },
        {
          "internalType": "address",
          "name": "smaratCA",
          "type": "address"
        },
        {
          "internalType": "uint8",
          "name": "_v",
          "type": "uint8"
        },
        {
          "internalType": "bytes32",
          "name": "_r",
          "type": "bytes32"
        },
        {
          "internalType": "bytes32",
          "name": "_s",
          "type": "bytes32"
        }
      ],
      "name": "verifySign",
      "outputs": [
        {
          "internalType": "bool",
          "name": "",
          "type": "bool"
        }
      ],
      "payable": false,
      "stateMutability": "view",
      "type": "function"
    }
  ],
  "bytecode": "0x608060405234801561001057600080fd5b50613dbd806100206000396000f3fe6080604052600436106100fe5760003560e01c8063a0b2d57f11610095578063d8b2114e11610064578063d8b2114e146106b1578063dce2c861146106ec578063e262997414610716578063f17a3bec14610749578063f4136f7f1461075e576100fe565b8063a0b2d57f14610538578063d077e3b114610569578063d46655f41461064b578063d817a3511461067e576100fe565b806365a81825116100d157806365a81825146102eb57806379c84328146103e45780637f68a79e146104c95780638b257d3d146104f9576100fe565b80630e29df22146101035780630ea9c9841461010d5780634a1784721461012257806362d5038e14610213575b600080fd5b61010b610788565b005b34801561011957600080fd5b5061010b61078a565b34801561012e57600080fd5b5061010b600480360361010081101561014657600080fd5b6001600160a01b0382358116926020810135909116916001600160e01b03196040830135169190810190608081016060820135600160201b81111561018a57600080fd5b82018360208201111561019c57600080fd5b803590602001918460208302840111600160201b831117156101bd57600080fd5b9190808060200260200160405190810160405280939291908181526020018383602002808284376000920191909152509295505061ffff83351693505060ff602083013516916040810135915060600135610c8f565b61010b600480360360e081101561022957600080fd5b6001600160a01b03823516916001600160e01b031960208201351691810190606081016040820135600160201b81111561026257600080fd5b82018360208201111561027457600080fd5b803590602001918460208302840111600160201b8311171561029557600080fd5b9190808060200260200160405190810160405280939291908181526020018383602002808284376000920191909152509295505061ffff83351693505060ff602083013516916040810135915060600135610d29565b3480156102f757600080fd5b506103d0600480360360e081101561030e57600080fd5b810190602081018135600160201b81111561032857600080fd5b82018360208201111561033a57600080fd5b803590602001918460208302840111600160201b8311171561035b57600080fd5b9190808060200260200160405190810160405280939291908181526020018383602002808284376000920191909152509295505061ffff8335169350506001600160e01b0319602083013516916001600160a01b03604082013516915060ff6060820135169060808101359060a00135611361565b604080519115158252519081900360200190f35b3480156103f057600080fd5b5061010b600480360360e081101561040757600080fd5b810190602081018135600160201b81111561042157600080fd5b82018360208201111561043357600080fd5b803590602001918460208302840111600160201b8311171561045457600080fd5b9190808060200260200160405190810160405280939291908181526020018383602002808284376000920191909152509295505061ffff8335169350506001600160e01b0319602083013516916001600160a01b03604082013516915060ff6060820135169060808101359060a00135611457565b3480156104d557600080fd5b5061010b600480360360408110156104ec57600080fd5b5080359060200135611621565b34801561050557600080fd5b506103d06004803603608081101561051c57600080fd5b5080359060ff60208201351690604081013590606001356116af565b34801561054457600080fd5b5061054d611845565b604080516001600160a01b039092168252519081900360200190f35b34801561057557600080fd5b506106396004803603608081101561058c57600080fd5b810190602081018135600160201b8111156105a657600080fd5b8201836020820111156105b857600080fd5b803590602001918460208302840111600160201b831117156105d957600080fd5b9190808060200260200160405190810160405280939291908181526020018383602002808284376000920191909152509295505050813561ffff1692505060208101356001600160e01b03191690604001356001600160a01b0316611854565b60408051918252519081900360200190f35b34801561065757600080fd5b5061010b6004803603602081101561066e57600080fd5b50356001600160a01b0316611955565b34801561068a57600080fd5b50610639600480360360208110156106a157600080fd5b50356001600160a01b03166119de565b3480156106bd57600080fd5b5061010b600480360360408110156106d457600080fd5b506001600160a01b0381351690602001351515611b94565b3480156106f857600080fd5b506103d06004803603602081101561070f57600080fd5b5035611d1b565b34801561072257600080fd5b5061010b6004803603602081101561073957600080fd5b50356001600160a01b0316611da9565b34801561075557600080fd5b5061054d612221565b34801561076a57600080fd5b5061010b6004803603602081101561078157600080fd5b5035612230565b565b600054604080516323c5b10760e21b815233600482015290516001600160a01b0390921691638f16c41c91602480820192602092909190829003018186803b1580156107d557600080fd5b505afa1580156107e9573d6000803e3d6000fd5b505050506040513d60208110156107ff57600080fd5b505161080a57600080fd5b600054604080516227050b60e31b8152614d4360f01b600482015290516001600160a01b0390921691630138285891602480820192602092909190829003018186803b15801561085957600080fd5b505afa15801561086d573d6000803e3d6000fd5b505050506040513d602081101561088357600080fd5b5051600880546001600160a01b0319166001600160a01b03928316179055600054604080516227050b60e31b8152612a2360f11b6004820152905191909216916301382858916024808301926020929190829003018186803b1580156108e857600080fd5b505afa1580156108fc573d6000803e3d6000fd5b505050506040513d602081101561091257600080fd5b5051600280546001600160a01b0319166001600160a01b03928316179055600054604080516227050b60e31b815261544360f01b6004820152905191909216916301382858916024808301926020929190829003018186803b15801561097757600080fd5b505afa15801561098b573d6000803e3d6000fd5b505050506040513d60208110156109a157600080fd5b5051600380546001600160a01b0319166001600160a01b03928316179055600054604080516227050b60e31b815261151160f21b6004820152905191909216916301382858916024808301926020929190829003018186803b158015610a0657600080fd5b505afa158015610a1a573d6000803e3d6000fd5b505050506040513d6020811015610a3057600080fd5b5051600480546001600160a01b0319166001600160a01b03928316178155600054604080516227050b60e31b815261145160f21b9381019390935251921691630138285891602480820192602092909190829003018186803b158015610a9557600080fd5b505afa158015610aa9573d6000803e3d6000fd5b505050506040513d6020811015610abf57600080fd5b5051600780546001600160a01b0319166001600160a01b03928316179055600054604080516227050b60e31b815261503160f01b6004820152905191909216916301382858916024808301926020929190829003018186803b158015610b2457600080fd5b505afa158015610b38573d6000803e3d6000fd5b505050506040513d6020811015610b4e57600080fd5b5051600580546001600160a01b0319166001600160a01b03928316179055600054604080516227050b60e31b815261141160f21b6004820152905191909216916301382858916024808301926020929190829003018186803b158015610bb357600080fd5b505afa158015610bc7573d6000803e3d6000fd5b505050506040513d6020811015610bdd57600080fd5b5051600680546001600160a01b0319166001600160a01b03928316179055600054604080516227050b60e31b81526126a960f11b6004820152905191909216916301382858916024808301926020929190829003018186803b158015610c4257600080fd5b505afa158015610c56573d6000803e3d6000fd5b505050506040513d6020811015610c6c57600080fd5b5051600980546001600160a01b0319166001600160a01b03909216919091179055565b600054604080516323c5b10760e21b815233600482015290516001600160a01b0390921691638f16c41c91602480820192602092909190829003018186803b158015610cda57600080fd5b505afa158015610cee573d6000803e3d6000fd5b505050506040513d6020811015610d0457600080fd5b5051610d0f57600080fd5b610d1f88888888888888886124b2565b5050505050505050565b6000809054906101000a90046001600160a01b03166001600160a01b031663ff0938a76040518163ffffffff1660e01b815260040160206040518083038186803b158015610d7657600080fd5b505afa158015610d8a573d6000803e3d6000fd5b505050506040513d6020811015610da057600080fd5b505115610dac57600080fd5b4285600381518110610dba57fe5b602002602001015111610dcc57600080fd5b60075485516001600160a01b039091169063922fd67f9087906004908110610df057fe5b60200260200101516040518263ffffffff1660e01b81526004018082815260200191505060206040518083038186803b158015610e2c57600080fd5b505afa158015610e40573d6000803e3d6000fd5b505050506040513d6020811015610e5657600080fd5b505115610e6257600080fd5b60075485516001600160a01b03909116906383fa95859087906004908110610e8657fe5b60200260200101516040518263ffffffff1660e01b815260040180828152602001915050600060405180830381600087803b158015610ec457600080fd5b505af1158015610ed8573d6000803e3d6000fd5b50506000546040805163288c314960e21b815233600482015290516001600160a01b03909216935063a230c5249250602480820192602092909190829003018186803b158015610f2757600080fd5b505afa158015610f3b573d6000803e3d6000fd5b505050506040513d6020811015610f5157600080fd5b505115610f5d57600080fd5b60075460408051636f3adaf560e11b815233600482015290516001600160a01b039092169163de75b5ea91602480820192602092909190829003018186803b158015610fa857600080fd5b505afa158015610fbc573d6000803e3d6000fd5b505050506040513d6020811015610fd257600080fd5b505115610fde57600080fd5b6000600460009054906101000a90046001600160a01b03166001600160a01b0316636eeeaaa56040518163ffffffff1660e01b815260040160206040518083038186803b15801561102e57600080fd5b505afa158015611042573d6000803e3d6000fd5b505050506040513d602081101561105857600080fd5b50519050806208aa8960eb1b6001600160e01b0319891614156110a35761109c8760018151811061108557fe5b60200260200101518361260790919063ffffffff16565b90506111f2565b6006546040805163e3dee23960e01b81526001600160e01b03198b16600482015290516000926001600160a01b03169163e3dee239916024808301926020929190829003018186803b1580156110f857600080fd5b505afa15801561110c573d6000803e3d6000fd5b505050506040513d602081101561112257600080fd5b505188519091506001600160a01b038216906323b872dd90339030908c90600190811061114b57fe5b60200260200101516040518463ffffffff1660e01b815260040180846001600160a01b03166001600160a01b03168152602001836001600160a01b03166001600160a01b031681526020018281526020019350505050602060405180830381600087803b1580156111bb57600080fd5b505af11580156111cf573d6000803e3d6000fd5b505050506040513d60208110156111e557600080fd5b50516111f057600080fd5b505b8034146111fe57600080fd5b61120d87878a8c898989611361565b61121657600080fd5b6007546040516314956a8560e11b815233600482018181526001600160a01b038d811660248501526001600160e01b03198d16604485015261ffff8b16608485015260a0606485019081528c5160a48601528c51919095169463292ad50a948f938f938f938f93909160c4909101906020808701910280838360005b838110156112aa578181015183820152602001611292565b505050509050019650505050505050600060405180830381600087803b1580156112d357600080fd5b505af11580156112e7573d6000803e3d6000fd5b505060075460408051633d8ea1f560e21b81523360048201526001602482015290516001600160a01b03909216935063f63a87d4925060448082019260009290919082900301818387803b15801561133e57600080fd5b505af1158015611352573d6000803e3d6000fd5b50505050505050505050505050565b60006001600160a01b03851661137657600080fd5b600660009054906101000a90046001600160a01b03166001600160a01b0316634f9359456040518163ffffffff1660e01b815260040160206040518083038186803b1580156113c457600080fd5b505afa1580156113d8573d6000803e3d6000fd5b505050506040513d60208110156113ee57600080fd5b505160011461142e5760405162461bcd60e51b8152600401808060200182810382526030815260200180613d386030913960400191505060405180910390fd5b600061143c89898989611854565b905061144a818686866116af565b9998505050505050505050565b6000809054906101000a90046001600160a01b03166001600160a01b031663ff0938a76040518163ffffffff1660e01b815260040160206040518083038186803b1580156114a457600080fd5b505afa1580156114b8573d6000803e3d6000fd5b505050506040513d60208110156114ce57600080fd5b505115801561155557506000546040805163288c314960e21b815233600482015290516001600160a01b039092169163a230c52491602480820192602092909190829003018186803b15801561152357600080fd5b505afa158015611537573d6000803e3d6000fd5b505050506040513d602081101561154d57600080fd5b505115156001145b61155e57600080fd5b60035487516001600160a01b03909116906379cc67909033908a90600290811061158457fe5b60200260200101516040518363ffffffff1660e01b815260040180836001600160a01b03166001600160a01b0316815260200182815260200192505050602060405180830381600087803b1580156115db57600080fd5b505af11580156115ef573d6000803e3d6000fd5b505050506040513d602081101561160557600080fd5b5061161890503385878a8a8888886124b2565b50505050505050565b600054604080516323c5b10760e21b815233600482015290516001600160a01b0390921691638f16c41c91602480820192602092909190829003018186803b15801561166c57600080fd5b505afa158015611680573d6000803e3d6000fd5b505050506040513d602081101561169657600080fd5b50516116a157600080fd5b6116ab828261266a565b5050565b600060606040518060400160405280601c81526020017f19457468657265756d205369676e6564204d6573736167653a0a3332000000008152509050600081876040516020018083805190602001908083835b602083106117215780518252601f199092019160209182019101611702565b51815160209384036101000a600019018019909216911617905292019384525060408051808503815284830180835281519184019190912060009182905282860180845281905260ff8d166060870152608086018c905260a086018b90529151919650945060019360c08082019450601f19830192918290030190855afa1580156117b0573d6000803e3d6000fd5b505060408051601f19810151600754633a34eba760e21b835292519094506001600160a01b03909216925063e8d3ae9c916004808301926020929190829003018186803b15801561180057600080fd5b505afa158015611814573d6000803e3d6000fd5b505050506040513d602081101561182a57600080fd5b50516001600160a01b03908116911614979650505050505050565b6000546001600160a01b031681565b60008460008151811061186357fe5b60200260200101518385848860018151811061187b57fe5b60200260200101518960028151811061189057fe5b60200260200101518a6003815181106118a557fe5b60200260200101518b6004815181106118ba57fe5b602090810291909101810151604080518084019a909a526001600160e01b0319989098168989015260f09690961b6001600160f01b0319166044890152606094851b6bffffffffffffffffffffffff19166046890152605a880193909352607a870191909152609a86015260ba85019290925230901b60da840152815180840360ce01815260ee909301909152815191012095945050505050565b6000546001600160a01b0316156119b2576000546001600160a01b031633146119b2576040805162461bcd60e51b815260206004820152600a6024820152692737ba1036b0b9ba32b960b11b604482015290519081900360640190fd5b600080546001600160a01b039092166001600160a01b0319928316811790915560018054909216179055565b6007546040805163c60781bd60e01b81526001600160a01b03848116600483015291516000938493169163c60781bd916024808301926020929190829003018186803b158015611a2d57600080fd5b505afa158015611a41573d6000803e3d6000fd5b505050506040513d6020811015611a5757600080fd5b5051905080611a6b57600019915050611b8f565b6007546000906001600160a01b031663f0bd022285611a9185600163ffffffff61285116565b6040518363ffffffff1660e01b815260040180836001600160a01b03166001600160a01b031681526020018281526020019250505060206040518083038186803b158015611ade57600080fd5b505afa158015611af2573d6000803e3d6000fd5b505050506040513d6020811015611b0857600080fd5b50516007546040805163baaa46f960e01b81526004810184905290519293506001600160a01b039091169163baaa46f991602480820192602092909190829003018186803b158015611b5957600080fd5b505afa158015611b6d573d6000803e3d6000fd5b505050506040513d6020811015611b8357600080fd5b50519250611b8f915050565b919050565b6000809054906101000a90046001600160a01b03166001600160a01b031663ff0938a76040518163ffffffff1660e01b815260040160206040518083038186803b158015611be157600080fd5b505afa158015611bf5573d6000803e3d6000fd5b505050506040513d6020811015611c0b57600080fd5b505115611c1757600080fd5b600954600160a01b900460ff1615611c68576040805162461bcd60e51b815260206004820152600f60248201526e2932b2b73a3930b73a1031b0b6361760891b604482015290519081900360640190fd5b6009805460ff60a01b1916600160a01b179055600754604080516384434b9f60e01b815290516001600160a01b03909216916384434b9f91600480820192602092909190829003018186803b158015611cc057600080fd5b505afa158015611cd4573d6000803e3d6000fd5b505050506040513d6020811015611cea57600080fd5b50516001600160a01b03163314611d0057600080fd5b611d0a8183612893565b50506009805460ff60a01b19169055565b6007546040805163388d67c360e11b815260048101849052905160009267ffffffffffffffff4216926001600160a01b039091169163711acf8691602480820192602092909190829003018186803b158015611d7657600080fd5b505afa158015611d8a573d6000803e3d6000fd5b505050506040513d6020811015611da057600080fd5b50511092915050565b600054604080516323c5b10760e21b815233600482015290516001600160a01b0390921691638f16c41c91602480820192602092909190829003018186803b158015611df457600080fd5b505afa158015611e08573d6000803e3d6000fd5b505050506040513d6020811015611e1e57600080fd5b5051611e2957600080fd5b600954600160a01b900460ff1615611e7a576040805162461bcd60e51b815260206004820152600f60248201526e2932b2b73a3930b73a1031b0b6361760891b604482015290519081900360640190fd5b6009805460ff60a01b1916600160a01b1790554760008115611ef1576000839050806001600160a01b0316630e29df22846040518263ffffffff1660e01b81526004016000604051808303818588803b158015611ed657600080fd5b505af1158015611eea573d6000803e3d6000fd5b5050505050505b6006546040805163255f504960e01b815290516000926001600160a01b03169163255f5049916004808301926020929190829003018186803b158015611f3657600080fd5b505afa158015611f4a573d6000803e3d6000fd5b505050506040513d6020811015611f6057600080fd5b5051905060015b818167ffffffffffffffff16101561220d57600654604080516303c40b1f60e41b815267ffffffffffffffff8416600482015290516000926001600160a01b031691633c40b1f0916024808301926020929190829003018186803b158015611fce57600080fd5b505afa158015611fe2573d6000803e3d6000fd5b505050506040513d6020811015611ff857600080fd5b50516006546040805163e3dee23960e01b81526001600160e01b03198416600482015290519293506000926001600160a01b039092169163e3dee23991602480820192602092909190829003018186803b15801561205557600080fd5b505afa158015612069573d6000803e3d6000fd5b505050506040513d602081101561207f57600080fd5b5051604080516370a0823160e01b815230600482015290519196508692506000916001600160a01b038416916370a08231916024808301926020929190829003018186803b1580156120d057600080fd5b505afa1580156120e4573d6000803e3d6000fd5b505050506040513d60208110156120fa57600080fd5b5051111561220357604080516370a0823160e01b815230600482015290516001600160a01b0387169163a9059cbb918a9184916370a0823191602480820192602092909190829003018186803b15801561215357600080fd5b505afa158015612167573d6000803e3d6000fd5b505050506040513d602081101561217d57600080fd5b5051604080516001600160e01b031960e086901b1681526001600160a01b03909316600484015260248301919091525160448083019260209291908290030181600087803b1580156121ce57600080fd5b505af11580156121e2573d6000803e3d6000fd5b505050506040513d60208110156121f857600080fd5b505161220357600080fd5b5050600101611f67565b50506009805460ff60a01b19169055505050565b6001546001600160a01b031681565b61223981611d1b565b80156122be575060075460408051634b2cc0a160e01b81526004810184905290516003926001600160a01b031691634b2cc0a1916024808301926020929190829003018186803b15801561228c57600080fd5b505afa1580156122a0573d6000803e3d6000fd5b505050506040513d60208110156122b657600080fd5b505160ff1614155b6122c757600080fd5b6002546040805163217d488160e21b81526004810184905290516001600160a01b03909216916385f522049160248082019260009290919082900301818387803b15801561231457600080fd5b505af1158015612328573d6000803e3d6000fd5b50506007546040805163df09fea760e01b81526004810186905290516000945084935083926001600160a01b03169163df09fea79160248083019260c0929190829003018186803b15801561237c57600080fd5b505afa158015612390573d6000803e3d6000fd5b505050506040513d60c08110156123a657600080fd5b506040810151606082015160809092015191945092509050600160075460408051634b2cc0a160e01b81526004810188905290516001600160a01b0390921691634b2cc0a191602480820192602092909190829003018186803b15801561240c57600080fd5b505afa158015612420573d6000803e3d6000fd5b505050506040513d602081101561243657600080fd5b505160ff161461244a5761244a848261266a565b6007546040805163570e2f6560e11b8152600481018790526003602482015290516001600160a01b039092169163ae1c5eca9160448082019260009290919082900301818387803b15801561249e57600080fd5b505af1158015610d1f573d6000803e3d6000fd5b42856003815181106124c057fe5b6020026020010151116124d257600080fd5b60075485516001600160a01b039091169063922fd67f90879060049081106124f657fe5b60200260200101516040518263ffffffff1660e01b81526004018082815260200191505060206040518083038186803b15801561253257600080fd5b505afa158015612546573d6000803e3d6000fd5b505050506040513d602081101561255c57600080fd5b50511561256857600080fd5b60075485516001600160a01b03909116906383fa9585908790600490811061258c57fe5b60200260200101516040518263ffffffff1660e01b815260040180828152602001915050600060405180830381600087803b1580156125ca57600080fd5b505af11580156125de573d6000803e3d6000fd5b505050506125f18585888a878787611361565b6125fa57600080fd5b610d1f888888888861360d565b600082820183811015612661576040805162461bcd60e51b815260206004820152601b60248201527f536166654d6174683a206164646974696f6e206f766572666c6f770000000000604482015290519081900360640190fd5b90505b92915050565b6000809054906101000a90046001600160a01b03166001600160a01b031663ff0938a76040518163ffffffff1660e01b815260040160206040518083038186803b1580156126b757600080fd5b505afa1580156126cb573d6000803e3d6000fd5b505050506040513d60208110156126e157600080fd5b5051156126ed57600080fd5b6007546040805163df09fea760e01b815260048101859052905160009283926001600160a01b039091169163df09fea79160248082019260c092909190829003018186803b15801561273e57600080fd5b505afa158015612752573d6000803e3d6000fd5b505050506040513d60c081101561276857600080fd5b5060408082015160609092015160075482516360a230e760e01b81526001600160e01b0319831660048201526024810188905292519395509093506001600160a01b0316916360a230e79160448082019260009290919082900301818387803b1580156127d457600080fd5b505af11580156127e8573d6000803e3d6000fd5b5050600754604080516340ebb05760e11b81526001600160a01b0387811660048301526001600160e01b0319871660248301526044820189905291519190921693506381d760ae9250606480830192600092919082900301818387803b15801561249e57600080fd5b600061266183836040518060400160405280601e81526020017f536166654d6174683a207375627472616374696f6e206f766572666c6f770000815250613ba5565b6007546040805163c60781bd60e01b81526001600160a01b03848116600483015291516000936129219360019391169163c60781bd91602480820192602092909190829003018186803b1580156128e957600080fd5b505afa1580156128fd573d6000803e3d6000fd5b505050506040513d602081101561291357600080fd5b50519063ffffffff61285116565b6007546040805163785e811160e11b81526001600160a01b038681166004830152602482018590529151939450600093919092169163f0bd0222916044808301926020929190829003018186803b15801561297b57600080fd5b505afa15801561298f573d6000803e3d6000fd5b505050506040513d60208110156129a557600080fd5b505160408051600480825260a082019092529192506000918291829182916060919060208201608080388339505060075460408051633310490760e21b8152600481018b905290519394506000936001600160a01b03909216925063cc41241c9160248083019286929190829003018186803b158015612a2457600080fd5b505afa158015612a38573d6000803e3d6000fd5b505050506040513d6000823e601f3d908101601f191682016040526060811015612a6157600080fd5b81516020830151604080850180519151939592948301929184600160201b821115612a8b57600080fd5b908301906020820185811115612aa057600080fd5b82518660208202830111600160201b82111715612abc57600080fd5b82525081516020918201928201910280838360005b83811015612ae9578181015183820152602001612ad1565b505050509050016040525050509091508093508197505050600760009054906101000a90046001600160a01b03166001600160a01b0316633f77ea65886040518263ffffffff1660e01b81526004018082815260200191505060806040518083038186803b158015612b5a57600080fd5b505afa158015612b6e573d6000803e3d6000fd5b505050506040513d6080811015612b8457600080fd5b506020808201516040808401516060909401516007548251636f3adaf560e11b81526001600160a01b038d811660048301529351949b50959950909750169263de75b5ea926024808301939192829003018186803b158015612be557600080fd5b505afa158015612bf9573d6000803e3d6000fd5b505050506040513d6020811015612c0f57600080fd5b5051612c1a57600080fd5b60075460408051633d8ea1f560e21b81526001600160a01b038981166004830152600060248301819052925193169263f63a87d49260448084019391929182900301818387803b158015612c6d57600080fd5b505af1158015612c81573d6000803e3d6000fd5b5060019250612c8e915050565b6007546040805163baaa46f960e01b8152600481018b905290516001600160a01b039092169163baaa46f991602480820192602092909190829003018186803b158015612cda57600080fd5b505afa158015612cee573d6000803e3d6000fd5b505050506040513d6020811015612d0457600080fd5b505114612d1057600080fd5b6000600460009054906101000a90046001600160a01b03166001600160a01b0316636eeeaaa56040518163ffffffff1660e01b815260040160206040518083038186803b158015612d6057600080fd5b505afa158015612d74573d6000803e3d6000fd5b505050506040513d6020811015612d8a57600080fd5b505190508a1561338e57600954604080516307569f3960e11b81526001600160a01b038a8116600483015291519190921691630ead3e7291849160248082019260009290919082900301818588803b158015612de557600080fd5b505af1158015612df9573d6000803e3d6000fd5b50505050504283600381518110612e0c57fe5b6020026020010151111561312a576007546001600160a01b0316636e13d8c58960026040518363ffffffff1660e01b81526004018083815260200182815260200192505050600060405180830381600087803b158015612e6b57600080fd5b505af1158015612e7f573d6000803e3d6000fd5b505060008054604080516227050b60e31b815261503160f01b600482015290519294506001600160a01b0390911692506301382858916024808301926020929190829003018186803b158015612ed457600080fd5b505afa158015612ee8573d6000803e3d6000fd5b505050506040513d6020811015612efe57600080fd5b505190506208aa8960eb1b6001600160e01b031987161415612f8f5760055484516001600160a01b0390911690630e29df229086906001908110612f3e57fe5b60200260200101516040518263ffffffff1660e01b81526004016000604051808303818588803b158015612f7157600080fd5b505af1158015612f85573d6000803e3d6000fd5b50505050506130c1565b6006546040805163e3dee23960e01b81526001600160e01b03198916600482015290516001600160a01b039092169163e3dee23991602480820192602092909190829003018186803b158015612fe457600080fd5b505afa158015612ff8573d6000803e3d6000fd5b505050506040513d602081101561300e57600080fd5b505184519093506001600160a01b0384169063a9059cbb9083908790600190811061303557fe5b60200260200101516040518363ffffffff1660e01b815260040180836001600160a01b03166001600160a01b0316815260200182815260200192505050602060405180830381600087803b15801561308c57600080fd5b505af11580156130a0573d6000803e3d6000fd5b505050506040513d60208110156130b657600080fd5b50516130c157600080fd5b604080518a81526912d650c814185cdcd95960b21b602082015281518e1515926001600160a01b038c16927fb9a54f82713d4f0f38515b9ab47189872914a2187d882fce60b1a21519224797929081900390910190a3613124888888878961360d565b50613389565b6007546001600160a01b0316636e13d8c58960046040518363ffffffff1660e01b81526004018083815260200182815260200192505050600060405180830381600087803b15801561317b57600080fd5b505af115801561318f573d6000803e3d6000fd5b50505050846001600160e01b0319166208aa8960eb1b14156131fe57866001600160a01b03166108fc846001815181106131c557fe5b60200260200101519081150290604051600060405180830381858888f193505050501580156131f8573d6000803e3d6000fd5b50613330565b6006546040805163e3dee23960e01b81526001600160e01b03198816600482015290516001600160a01b039092169163e3dee23991602480820192602092909190829003018186803b15801561325357600080fd5b505afa158015613267573d6000803e3d6000fd5b505050506040513d602081101561327d57600080fd5b505183519092506001600160a01b0383169063a9059cbb908990869060019081106132a457fe5b60200260200101516040518363ffffffff1660e01b815260040180836001600160a01b03166001600160a01b0316815260200182815260200192505050602060405180830381600087803b1580156132fb57600080fd5b505af115801561330f573d6000803e3d6000fd5b505050506040513d602081101561332557600080fd5b505161333057600080fd5b604080518981526b10dbdd995c8811985a5b195960a21b602082015281518d1515926001600160a01b038b16927fb9a54f82713d4f0f38515b9ab47189872914a2187d882fce60b1a21519224797929081900390910190a35b613600565b6007546001600160a01b0316636e13d8c58960036040518363ffffffff1660e01b81526004018083815260200182815260200192505050600060405180830381600087803b1580156133df57600080fd5b505af11580156133f3573d6000803e3d6000fd5b5083925050506208aa8960eb1b6001600160e01b03198716141561343f57613438828560018151811061342257fe5b602002602001015161260790919063ffffffff16565b9050613571565b6006546040805163e3dee23960e01b81526001600160e01b03198916600482015290516001600160a01b039092169163e3dee23991602480820192602092909190829003018186803b15801561349457600080fd5b505afa1580156134a8573d6000803e3d6000fd5b505050506040513d60208110156134be57600080fd5b505184519093506001600160a01b0384169063a9059cbb908a90879060019081106134e557fe5b60200260200101516040518363ffffffff1660e01b815260040180836001600160a01b03166001600160a01b0316815260200182815260200192505050602060405180830381600087803b15801561353c57600080fd5b505af1158015613550573d6000803e3d6000fd5b505050506040513d602081101561356657600080fd5b505161357157600080fd5b6040516001600160a01b0389169082156108fc029083906000818181858888f193505050501580156135a7573d6000803e3d6000fd5b50604080518a81526912d650c811985a5b195960b21b602082015281518e1515926001600160a01b038c16927fb9a54f82713d4f0f38515b9ab47189872914a2187d882fce60b1a21519224797929081900390910190a3505b5050505050505050505050565b6007546040805163067157ff60e41b815290516000926001600160a01b0316916367157ff0916004808301926020929190829003018186803b15801561365257600080fd5b505afa158015613666573d6000803e3d6000fd5b505050506040513d602081101561367c57600080fd5b505160075484519192506001600160a01b031690638ce80a6590849086906000906136a357fe5b602002602001015189888a896001815181106136bb57fe5b60200260200101518a6002815181106136d057fe5b60200260200101516040518863ffffffff1660e01b8152600401808861ffff1661ffff168152602001878152602001866001600160a01b03166001600160a01b03168152602001856001600160e01b0319166001600160e01b0319168152602001846001600160a01b03166001600160a01b03168152602001838152602001828152602001975050505050505050600060405180830381600087803b15801561377857600080fd5b505af115801561378c573d6000803e3d6000fd5b50505050603c8261ffff161161382f576005546001600160a01b0316639cb341e3826137c561ffff86166201518063ffffffff613c3c16565b6040518363ffffffff1660e01b8152600401808381526020018267ffffffffffffffff1667ffffffffffffffff16815260200192505050600060405180830381600087803b15801561381657600080fd5b505af115801561382a573d6000803e3d6000fd5b505050505b60006138e460646138d8600760009054906101000a90046001600160a01b03166001600160a01b031663f3ab26cc6040518163ffffffff1660e01b815260040160206040518083038186803b15801561388757600080fd5b505afa15801561389b573d6000803e3d6000fd5b505050506040513d60208110156138b157600080fd5b50518751889060029081106138c257fe5b6020026020010151613c3c90919063ffffffff16565b9063ffffffff613c9516565b600354604080516340c10f1960e01b81526001600160a01b038b811660048301526024820185905291519394509116916340c10f199160448082019260009290919082900301818387803b15801561393b57600080fd5b505af115801561394f573d6000803e3d6000fd5b50506002546040805163f075be1f60e01b81526004810186905261ffff88166024820152604481018790526001600160a01b038c81166064830152915191909216935063f075be1f9250608480830192600092919082900301818387803b1580156139b957600080fd5b505af11580156139cd573d6000803e3d6000fd5b505060075486516001600160a01b03909116925063a2c6bc259150879087906000906139f557fe5b60200260200101516040518363ffffffff1660e01b815260040180836001600160e01b0319166001600160e01b031916815260200182815260200192505050600060405180830381600087803b158015613a4e57600080fd5b505af1158015613a62573d6000803e3d6000fd5b505060075486516001600160a01b039091169250633994b3d59150889088908890600090613a8c57fe5b60200260200101516040518463ffffffff1660e01b815260040180846001600160a01b03166001600160a01b03168152602001836001600160e01b0319166001600160e01b03191681526020018281526020019350505050600060405180830381600087803b158015613afe57600080fd5b505af1158015613b12573d6000803e3d6000fd5b50506002805487516001600160a01b03909116935063899ec98f9250899188918110613b3a57fe5b60200260200101516040518363ffffffff1660e01b815260040180836001600160a01b03166001600160a01b0316815260200182815260200192505050600060405180830381600087803b158015613b9157600080fd5b505af1158015613600573d6000803e3d6000fd5b60008184841115613c345760405162461bcd60e51b81526004018080602001828103825283818151815260200191508051906020019080838360005b83811015613bf9578181015183820152602001613be1565b50505050905090810190601f168015613c265780820380516001836020036101000a031916815260200191505b509250505060405180910390fd5b505050900390565b600082613c4b57506000612664565b82820282848281613c5857fe5b04146126615760405162461bcd60e51b8152600401808060200182810382526021815260200180613d686021913960400191505060405180910390fd5b600061266183836040518060400160405280601a81526020017f536166654d6174683a206469766973696f6e206279207a65726f00000000000081525060008183613d215760405162461bcd60e51b8152602060048201818152835160248401528351909283926044909101919085019080838360008315613bf9578181015183820152602001613be1565b506000838581613d2d57fe5b049594505050505056fe43616e206e6f742062757920636f76657220756e74696c20636170207265616368656420666f72203173742074696d65536166654d6174683a206d756c7469706c69636174696f6e206f766572666c6f77a265627a7a72315820065dc4526bb890ab0f2a4a0db6313fc4ef623e7422e7e0ec250e4f7641a2d9b764736f6c63430005110032",
  "linkReferences": {},
  "deployedLinkReferences": {}
}