{
  "_format": "hh-sol-artifact-1",
  "contractName": "Quotation",
  "sourceName": "contracts/NexusMutual/modules/cover/Quotation.sol",
  "abi": [
    {
      "anonymous": false,
      "inputs": [
        {
          "indexed": true,
          "internalType": "address",
          "name": "user",
          "type": "address"
        },
        {
          "indexed": true,
          "internalType": "bool",
          "name": "status",
          "type": "bool"
        },
        {
          "indexed": false,
          "internalType": "uint256",
          "name": "holdedCoverID",
          "type": "uint256"
        },
        {
          "indexed": false,
          "internalType": "bytes32",
          "name": "reason",
          "type": "bytes32"
        }
      ],
      "name": "RefundEvent",
      "type": "event"
    },
    {
      "constant": false,
      "inputs": [],
      "name": "changeDependentContractAddress",
      "outputs": [],
      "payable": false,
      "stateMutability": "nonpayable",
      "type": "function"
    },
    {
      "constant": false,
      "inputs": [
        {
          "internalType": "address",
          "name": "_masterAddress",
          "type": "address"
        }
      ],
      "name": "changeMasterAddress",
      "outputs": [],
      "payable": false,
      "stateMutability": "nonpayable",
      "type": "function"
    },
    {
      "constant": true,
      "inputs": [
        {
          "internalType": "uint256",
          "name": "_cid",
          "type": "uint256"
        }
      ],
      "name": "checkCoverExpired",
      "outputs": [
        {
          "internalType": "bool",
          "name": "expire",
          "type": "bool"
        }
      ],
      "payable": false,
      "stateMutability": "view",
      "type": "function"
    },
    {
      "constant": false,
      "inputs": [
        {
          "internalType": "uint256",
          "name": "_cid",
          "type": "uint256"
        }
      ],
      "name": "expireCover",
      "outputs": [],
      "payable": false,
      "stateMutability": "nonpayable",
      "type": "function"
    },
    {
      "constant": true,
      "inputs": [
        {
          "internalType": "uint256[]",
          "name": "coverDetails",
          "type": "uint256[]"
        },
        {
          "internalType": "uint16",
          "name": "coverPeriod",
          "type": "uint16"
        },
        {
          "internalType": "bytes4",
          "name": "curr",
          "type": "bytes4"
        },
        {
          "internalType": "address",
          "name": "smaratCA",
          "type": "address"
        }
      ],
      "name": "getOrderHash",
      "outputs": [
        {
          "internalType": "bytes32",
          "name": "",
          "type": "bytes32"
        }
      ],
      "payable": false,
      "stateMutability": "view",
      "type": "function"
    },
    {
      "constant": true,
      "inputs": [
        {
          "internalType": "address",
          "name": "userAdd",
          "type": "address"
        }
      ],
      "name": "getRecentHoldedCoverIdStatus",
      "outputs": [
        {
          "internalType": "int256",
          "name": "",
          "type": "int256"
        }
      ],
      "payable": false,
      "stateMutability": "view",
      "type": "function"
    },
    {
      "constant": false,
      "inputs": [
        {
          "internalType": "address",
          "name": "smartCAdd",
          "type": "address"
        },
        {
          "internalType": "bytes4",
          "name": "coverCurr",
          "type": "bytes4"
        },
        {
          "internalType": "uint256[]",
          "name": "coverDetails",
          "type": "uint256[]"
        },
        {
          "internalType": "uint16",
          "name": "coverPeriod",
          "type": "uint16"
        },
        {
          "internalType": "uint8",
          "name": "_v",
          "type": "uint8"
        },
        {
          "internalType": "bytes32",
          "name": "_r",
          "type": "bytes32"
        },
        {
          "internalType": "bytes32",
          "name": "_s",
          "type": "bytes32"
        }
      ],
      "name": "initiateMembershipAndCover",
      "outputs": [],
      "payable": true,
      "stateMutability": "payable",
      "type": "function"
    },
    {
      "constant": true,
      "inputs": [
        {
          "internalType": "bytes32",
          "name": "hash",
          "type": "bytes32"
        },
        {
          "internalType": "uint8",
          "name": "v",
          "type": "uint8"
        },
        {
          "internalType": "bytes32",
          "name": "r",
          "type": "bytes32"
        },
        {
          "internalType": "bytes32",
          "name": "s",
          "type": "bytes32"
        }
      ],
      "name": "isValidSignature",
      "outputs": [
        {
          "internalType": "bool",
          "name": "",
          "type": "bool"
        }
      ],
      "payable": false,
      "stateMutability": "view",
      "type": "function"
    },
    {
      "constant": false,
      "inputs": [
        {
          "internalType": "address",
          "name": "_add",
          "type": "address"
        },
        {
          "internalType": "bool",
          "name": "status",
          "type": "bool"
        }
      ],
      "name": "kycVerdict",
      "outputs": [],
      "payable": false,
      "stateMutability": "nonpayable",
      "type": "function"
    },
    {
      "constant": false,
      "inputs": [
        {
          "internalType": "uint256[]",
          "name": "coverDetails",
          "type": "uint256[]"
        },
        {
          "internalType": "uint16",
          "name": "coverPeriod",
          "type": "uint16"
        },
        {
          "internalType": "bytes4",
          "name": "coverCurr",
          "type": "bytes4"
        },
        {
          "internalType": "address",
          "name": "smartCAdd",
          "type": "address"
        },
        {
          "internalType": "uint8",
          "name": "_v",
          "type": "uint8"
        },
        {
          "internalType": "bytes32",
          "name": "_r",
          "type": "bytes32"
        },
        {
          "internalType": "bytes32",
          "name": "_s",
          "type": "bytes32"
        }
      ],
      "name": "makeCoverUsingNXMTokens",
      "outputs": [],
      "payable": false,
      "stateMutability": "nonpayable",
      "type": "function"
    },
    {
      "constant": true,
      "inputs": [],
      "name": "ms",
      "outputs": [
        {
          "internalType": "contract INXMMaster",
          "name": "",
          "type": "address"
        }
      ],
      "payable": false,
      "stateMutability": "view",
      "type": "function"
    },
    {
      "constant": true,
      "inputs": [],
      "name": "nxMasterAddress",
      "outputs": [
        {
          "internalType": "address",
          "name": "",
          "type": "address"
        }
      ],
      "payable": false,
      "stateMutability": "view",
      "type": "function"
    },
    {
      "constant": false,
      "inputs": [
        {
          "internalType": "uint256",
          "name": "_cid",
          "type": "uint256"
        },
        {
          "internalType": "uint256",
          "name": "_amount",
          "type": "uint256"
        }
      ],
      "name": "removeSAFromCSA",
      "outputs": [],
      "payable": false,
      "stateMutability": "nonpayable",
      "type": "function"
    },
    {
      "constant": false,
      "inputs": [],
      "name": "sendEther",
      "outputs": [],
      "payable": true,
      "stateMutability": "payable",
      "type": "function"
    },
    {
      "constant": false,
      "inputs": [
        {
          "internalType": "address",
          "name": "newAdd",
          "type": "address"
        }
      ],
      "name": "transferAssetsToNewContract",
      "outputs": [],
      "payable": false,
      "stateMutability": "nonpayable",
      "type": "function"
    },
    {
      "constant": false,
      "inputs": [
        {
          "internalType": "address payable",
          "name": "from",
          "type": "address"
        },
        {
          "internalType": "address",
          "name": "scAddress",
          "type": "address"
        },
        {
          "internalType": "bytes4",
          "name": "coverCurr",
          "type": "bytes4"
        },
        {
          "internalType": "uint256[]",
          "name": "coverDetails",
          "type": "uint256[]"
        },
        {
          "internalType": "uint16",
          "name": "coverPeriod",
          "type": "uint16"
        },
        {
          "internalType": "uint8",
          "name": "_v",
          "type": "uint8"
        },
        {
          "internalType": "bytes32",
          "name": "_r",
          "type": "bytes32"
        },
        {
          "internalType": "bytes32",
          "name": "_s",
          "type": "bytes32"
        }
      ],
      "name": "verifyCoverDetails",
      "outputs": [],
      "payable": false,
      "stateMutability": "nonpayable",
      "type": "function"
    },
    {
      "constant": true,
      "inputs": [
        {
          "internalType": "uint256[]",
          "name": "coverDetails",
          "type": "uint256[]"
        },
        {
          "internalType": "uint16",
          "name": "coverPeriod",
          "type": "uint16"
        },
        {
          "internalType": "bytes4",
          "name": "curr",
          "type": "bytes4"
        },
        {
          "internalType": "address",
          "name": "smaratCA",
          "type": "address"
        },
        {
          "internalType": "uint8",
          "name": "_v",
          "type": "uint8"
        },
        {
          "internalType": "bytes32",
          "name": "_r",
          "type": "bytes32"
        },
        {
          "internalType": "bytes32",
          "name": "_s",
          "type": "bytes32"
        }
      ],
      "name": "verifySign",
      "outputs": [
        {
          "internalType": "bool",
          "name": "",
          "type": "bool"
        }
      ],
      "payable": false,
      "stateMutability": "view",
      "type": "function"
    }
  ],
  "bytecode": "0x608060405234801561001057600080fd5b50615f5a80620000216000396000f3fe6080604052600436106100fe5760003560e01c8063a0b2d57f11610095578063d8b2114e11610064578063d8b2114e1461093a578063dce2c86114610997578063e2629974146109ea578063f17a3bec14610a3b578063f4136f7f14610a92576100fe565b8063a0b2d57f146106fd578063d077e3b114610754578063d46655f414610884578063d817a351146108d5576100fe565b806365a81825116100d157806365a81825146103b257806379c84328146105075780637f68a79e146106445780638b257d3d14610689576100fe565b80630e29df22146101035780630ea9c9841461010d5780634a1784721461012457806362d5038e14610282575b600080fd5b61010b610acd565b005b34801561011957600080fd5b50610122610acf565b005b34801561013057600080fd5b50610280600480360361010081101561014857600080fd5b81019080803573ffffffffffffffffffffffffffffffffffffffff169060200190929190803573ffffffffffffffffffffffffffffffffffffffff16906020019092919080357bffffffffffffffffffffffffffffffffffffffffffffffffffffffff19169060200190929190803590602001906401000000008111156101ce57600080fd5b8201836020820111156101e057600080fd5b8035906020019184602083028401116401000000008311171561020257600080fd5b919080806020026020016040519081016040528093929190818152602001838360200280828437600081840152601f19601f820116905080830192505050505050509192919290803561ffff169060200190929190803560ff169060200190929190803590602001909291908035906020019092919050505061141b565b005b6103b0600480360360e081101561029857600080fd5b81019080803573ffffffffffffffffffffffffffffffffffffffff16906020019092919080357bffffffffffffffffffffffffffffffffffffffffffffffffffffffff19169060200190929190803590602001906401000000008111156102fe57600080fd5b82018360208201111561031057600080fd5b8035906020019184602083028401116401000000008311171561033257600080fd5b919080806020026020016040519081016040528093929190818152602001838360200280828437600081840152601f19601f820116905080830192505050505050509192919290803561ffff169060200190929190803560ff1690602001909291908035906020019092919080359060200190929190505050611517565b005b3480156103be57600080fd5b506104ed600480360360e08110156103d557600080fd5b81019080803590602001906401000000008111156103f257600080fd5b82018360208201111561040457600080fd5b8035906020019184602083028401116401000000008311171561042657600080fd5b919080806020026020016040519081016040528093929190818152602001838360200280828437600081840152601f19601f820116905080830192505050505050509192919290803561ffff16906020019092919080357bffffffffffffffffffffffffffffffffffffffffffffffffffffffff19169060200190929190803573ffffffffffffffffffffffffffffffffffffffff169060200190929190803560ff1690602001909291908035906020019092919080359060200190929190505050611eca565b604051808215151515815260200191505060405180910390f35b34801561051357600080fd5b50610642600480360360e081101561052a57600080fd5b810190808035906020019064010000000081111561054757600080fd5b82018360208201111561055957600080fd5b8035906020019184602083028401116401000000008311171561057b57600080fd5b919080806020026020016040519081016040528093929190818152602001838360200280828437600081840152601f19601f820116905080830192505050505050509192919290803561ffff16906020019092919080357bffffffffffffffffffffffffffffffffffffffffffffffffffffffff19169060200190929190803573ffffffffffffffffffffffffffffffffffffffff169060200190929190803560ff169060200190929190803590602001909291908035906020019092919050505061202a565b005b34801561065057600080fd5b506106876004803603604081101561066757600080fd5b8101908080359060200190929190803590602001909291905050506122d6565b005b34801561069557600080fd5b506106e3600480360360808110156106ac57600080fd5b8101908080359060200190929190803560ff16906020019092919080359060200190929190803590602001909291905050506123c6565b604051808215151515815260200191505060405180910390f35b34801561070957600080fd5b506107126125c9565b604051808273ffffffffffffffffffffffffffffffffffffffff1673ffffffffffffffffffffffffffffffffffffffff16815260200191505060405180910390f35b34801561076057600080fd5b5061086e6004803603608081101561077757600080fd5b810190808035906020019064010000000081111561079457600080fd5b8201836020820111156107a657600080fd5b803590602001918460208302840111640100000000831117156107c857600080fd5b919080806020026020016040519081016040528093929190818152602001838360200280828437600081840152601f19601f820116905080830192505050505050509192919290803561ffff16906020019092919080357bffffffffffffffffffffffffffffffffffffffffffffffffffffffff19169060200190929190803573ffffffffffffffffffffffffffffffffffffffff1690602001909291905050506125ee565b6040518082815260200191505060405180910390f35b34801561089057600080fd5b506108d3600480360360208110156108a757600080fd5b81019080803573ffffffffffffffffffffffffffffffffffffffff16906020019092919050505061276c565b005b3480156108e157600080fd5b50610924600480360360208110156108f857600080fd5b81019080803573ffffffffffffffffffffffffffffffffffffffff169060200190929190505050612908565b6040518082815260200191505060405180910390f35b34801561094657600080fd5b506109956004803603604081101561095d57600080fd5b81019080803573ffffffffffffffffffffffffffffffffffffffff169060200190929190803515159060200190929190505050612bca565b005b3480156109a357600080fd5b506109d0600480360360208110156109ba57600080fd5b8101908080359060200190929190505050612e1d565b604051808215151515815260200191505060405180910390f35b3480156109f657600080fd5b50610a3960048036036020811015610a0d57600080fd5b81019080803573ffffffffffffffffffffffffffffffffffffffff169060200190929190505050612ee0565b005b348015610a4757600080fd5b50610a506135ba565b604051808273ffffffffffffffffffffffffffffffffffffffff1673ffffffffffffffffffffffffffffffffffffffff16815260200191505060405180910390f35b348015610a9e57600080fd5b50610acb60048036036020811015610ab557600080fd5b81019080803590602001909291905050506135e0565b005b565b6000809054906101000a900473ffffffffffffffffffffffffffffffffffffffff1673ffffffffffffffffffffffffffffffffffffffff16638f16c41c336040518263ffffffff1660e01b8152600401808273ffffffffffffffffffffffffffffffffffffffff1673ffffffffffffffffffffffffffffffffffffffff16815260200191505060206040518083038186803b158015610b6d57600080fd5b505afa158015610b81573d6000803e3d6000fd5b505050506040513d6020811015610b9757600080fd5b8101908080519060200190929190505050610bb157600080fd5b6000809054906101000a900473ffffffffffffffffffffffffffffffffffffffff1673ffffffffffffffffffffffffffffffffffffffff1663013828586040518163ffffffff1660e01b815260040180807f4d43000000000000000000000000000000000000000000000000000000000000815250602001905060206040518083038186803b158015610c4357600080fd5b505afa158015610c57573d6000803e3d6000fd5b505050506040513d6020811015610c6d57600080fd5b8101908080519060200190929190505050600860006101000a81548173ffffffffffffffffffffffffffffffffffffffff021916908373ffffffffffffffffffffffffffffffffffffffff1602179055506000809054906101000a900473ffffffffffffffffffffffffffffffffffffffff1673ffffffffffffffffffffffffffffffffffffffff1663013828586040518163ffffffff1660e01b815260040180807f5446000000000000000000000000000000000000000000000000000000000000815250602001905060206040518083038186803b158015610d5057600080fd5b505afa158015610d64573d6000803e3d6000fd5b505050506040513d6020811015610d7a57600080fd5b8101908080519060200190929190505050600260006101000a81548173ffffffffffffffffffffffffffffffffffffffff021916908373ffffffffffffffffffffffffffffffffffffffff1602179055506000809054906101000a900473ffffffffffffffffffffffffffffffffffffffff1673ffffffffffffffffffffffffffffffffffffffff1663013828586040518163ffffffff1660e01b815260040180807f5443000000000000000000000000000000000000000000000000000000000000815250602001905060206040518083038186803b158015610e5d57600080fd5b505afa158015610e71573d6000803e3d6000fd5b505050506040513d6020811015610e8757600080fd5b8101908080519060200190929190505050600360006101000a81548173ffffffffffffffffffffffffffffffffffffffff021916908373ffffffffffffffffffffffffffffffffffffffff1602179055506000809054906101000a900473ffffffffffffffffffffffffffffffffffffffff1673ffffffffffffffffffffffffffffffffffffffff1663013828586040518163ffffffff1660e01b815260040180807f5444000000000000000000000000000000000000000000000000000000000000815250602001905060206040518083038186803b158015610f6a57600080fd5b505afa158015610f7e573d6000803e3d6000fd5b505050506040513d6020811015610f9457600080fd5b8101908080519060200190929190505050600460006101000a81548173ffffffffffffffffffffffffffffffffffffffff021916908373ffffffffffffffffffffffffffffffffffffffff1602179055506000809054906101000a900473ffffffffffffffffffffffffffffffffffffffff1673ffffffffffffffffffffffffffffffffffffffff1663013828586040518163ffffffff1660e01b815260040180807f5144000000000000000000000000000000000000000000000000000000000000815250602001905060206040518083038186803b15801561107757600080fd5b505afa15801561108b573d6000803e3d6000fd5b505050506040513d60208110156110a157600080fd5b8101908080519060200190929190505050600760006101000a81548173ffffffffffffffffffffffffffffffffffffffff021916908373ffffffffffffffffffffffffffffffffffffffff1602179055506000809054906101000a900473ffffffffffffffffffffffffffffffffffffffff1673ffffffffffffffffffffffffffffffffffffffff1663013828586040518163ffffffff1660e01b815260040180807f5031000000000000000000000000000000000000000000000000000000000000815250602001905060206040518083038186803b15801561118457600080fd5b505afa158015611198573d6000803e3d6000fd5b505050506040513d60208110156111ae57600080fd5b8101908080519060200190929190505050600560006101000a81548173ffffffffffffffffffffffffffffffffffffffff021916908373ffffffffffffffffffffffffffffffffffffffff1602179055506000809054906101000a900473ffffffffffffffffffffffffffffffffffffffff1673ffffffffffffffffffffffffffffffffffffffff1663013828586040518163ffffffff1660e01b815260040180807f5044000000000000000000000000000000000000000000000000000000000000815250602001905060206040518083038186803b15801561129157600080fd5b505afa1580156112a5573d6000803e3d6000fd5b505050506040513d60208110156112bb57600080fd5b8101908080519060200190929190505050600660006101000a81548173ffffffffffffffffffffffffffffffffffffffff021916908373ffffffffffffffffffffffffffffffffffffffff1602179055506000809054906101000a900473ffffffffffffffffffffffffffffffffffffffff1673ffffffffffffffffffffffffffffffffffffffff1663013828586040518163ffffffff1660e01b815260040180807f4d52000000000000000000000000000000000000000000000000000000000000815250602001905060206040518083038186803b15801561139e57600080fd5b505afa1580156113b2573d6000803e3d6000fd5b505050506040513d60208110156113c857600080fd5b8101908080519060200190929190505050600960006101000a81548173ffffffffffffffffffffffffffffffffffffffff021916908373ffffffffffffffffffffffffffffffffffffffff160217905550565b6000809054906101000a900473ffffffffffffffffffffffffffffffffffffffff1673ffffffffffffffffffffffffffffffffffffffff16638f16c41c336040518263ffffffff1660e01b8152600401808273ffffffffffffffffffffffffffffffffffffffff1673ffffffffffffffffffffffffffffffffffffffff16815260200191505060206040518083038186803b1580156114b957600080fd5b505afa1580156114cd573d6000803e3d6000fd5b505050506040513d60208110156114e357600080fd5b81019080805190602001909291905050506114fd57600080fd5b61150d88888888888888886139bf565b5050505050505050565b600015156000809054906101000a900473ffffffffffffffffffffffffffffffffffffffff1673ffffffffffffffffffffffffffffffffffffffff1663ff0938a76040518163ffffffff1660e01b815260040160206040518083038186803b15801561158257600080fd5b505afa158015611596573d6000803e3d6000fd5b505050506040513d60208110156115ac57600080fd5b81019080805190602001909291905050501515146115c957600080fd5b42856003815181106115d757fe5b6020026020010151116115e957600080fd5b600760009054906101000a900473ffffffffffffffffffffffffffffffffffffffff1673ffffffffffffffffffffffffffffffffffffffff1663922fd67f8660048151811061163457fe5b60200260200101516040518263ffffffff1660e01b81526004018082815260200191505060206040518083038186803b15801561167057600080fd5b505afa158015611684573d6000803e3d6000fd5b505050506040513d602081101561169a57600080fd5b8101908080519060200190929190505050156116b557600080fd5b600760009054906101000a900473ffffffffffffffffffffffffffffffffffffffff1673ffffffffffffffffffffffffffffffffffffffff166383fa95858660048151811061170057fe5b60200260200101516040518263ffffffff1660e01b815260040180828152602001915050600060405180830381600087803b15801561173e57600080fd5b505af1158015611752573d6000803e3d6000fd5b505050506000809054906101000a900473ffffffffffffffffffffffffffffffffffffffff1673ffffffffffffffffffffffffffffffffffffffff1663a230c524336040518263ffffffff1660e01b8152600401808273ffffffffffffffffffffffffffffffffffffffff1673ffffffffffffffffffffffffffffffffffffffff16815260200191505060206040518083038186803b1580156117f457600080fd5b505afa158015611808573d6000803e3d6000fd5b505050506040513d602081101561181e57600080fd5b81019080805190602001909291905050501561183957600080fd5b60001515600760009054906101000a900473ffffffffffffffffffffffffffffffffffffffff1673ffffffffffffffffffffffffffffffffffffffff1663de75b5ea336040518263ffffffff1660e01b8152600401808273ffffffffffffffffffffffffffffffffffffffff1673ffffffffffffffffffffffffffffffffffffffff16815260200191505060206040518083038186803b1580156118dc57600080fd5b505afa1580156118f0573d6000803e3d6000fd5b505050506040513d602081101561190657600080fd5b810190808051906020019092919050505015151461192357600080fd5b6000600460009054906101000a900473ffffffffffffffffffffffffffffffffffffffff1673ffffffffffffffffffffffffffffffffffffffff16636eeeaaa56040518163ffffffff1660e01b815260040160206040518083038186803b15801561198d57600080fd5b505afa1580156119a1573d6000803e3d6000fd5b505050506040513d60208110156119b757600080fd5b8101908080519060200190929190505050905060008190507f4554480000000000000000000000000000000000000000000000000000000000887bffffffffffffffffffffffffffffffffffffffffffffffffffffffff19161415611a4457611a3d87600181518110611a2657fe5b602002602001015183613b7b90919063ffffffff16565b9050611c49565b6000600660009054906101000a900473ffffffffffffffffffffffffffffffffffffffff1673ffffffffffffffffffffffffffffffffffffffff1663e3dee2398a6040518263ffffffff1660e01b815260040180827bffffffffffffffffffffffffffffffffffffffffffffffffffffffff19167bffffffffffffffffffffffffffffffffffffffffffffffffffffffff1916815260200191505060206040518083038186803b158015611af757600080fd5b505afa158015611b0b573d6000803e3d6000fd5b505050506040513d6020811015611b2157600080fd5b810190808051906020019092919050505090508073ffffffffffffffffffffffffffffffffffffffff166323b872dd33308b600181518110611b5f57fe5b60200260200101516040518463ffffffff1660e01b8152600401808473ffffffffffffffffffffffffffffffffffffffff1673ffffffffffffffffffffffffffffffffffffffff1681526020018373ffffffffffffffffffffffffffffffffffffffff1673ffffffffffffffffffffffffffffffffffffffff1681526020018281526020019350505050602060405180830381600087803b158015611c0357600080fd5b505af1158015611c17573d6000803e3d6000fd5b505050506040513d6020811015611c2d57600080fd5b8101908080519060200190929190505050611c4757600080fd5b505b803414611c5557600080fd5b611c6487878a8c898989611eca565b611c6d57600080fd5b600760009054906101000a900473ffffffffffffffffffffffffffffffffffffffff1673ffffffffffffffffffffffffffffffffffffffff1663292ad50a338b8b8b8b6040518663ffffffff1660e01b8152600401808673ffffffffffffffffffffffffffffffffffffffff1673ffffffffffffffffffffffffffffffffffffffff1681526020018573ffffffffffffffffffffffffffffffffffffffff1673ffffffffffffffffffffffffffffffffffffffff168152602001847bffffffffffffffffffffffffffffffffffffffffffffffffffffffff19167bffffffffffffffffffffffffffffffffffffffffffffffffffffffff19168152602001806020018361ffff1661ffff168152602001828103825284818151815260200191508051906020019060200280838360005b83811015611db8578082015181840152602081019050611d9d565b505050509050019650505050505050600060405180830381600087803b158015611de157600080fd5b505af1158015611df5573d6000803e3d6000fd5b50505050600760009054906101000a900473ffffffffffffffffffffffffffffffffffffffff1673ffffffffffffffffffffffffffffffffffffffff1663f63a87d43360016040518363ffffffff1660e01b8152600401808373ffffffffffffffffffffffffffffffffffffffff1673ffffffffffffffffffffffffffffffffffffffff1681526020018215151515815260200192505050600060405180830381600087803b158015611ea757600080fd5b505af1158015611ebb573d6000803e3d6000fd5b50505050505050505050505050565b60008073ffffffffffffffffffffffffffffffffffffffff168573ffffffffffffffffffffffffffffffffffffffff161415611f0557600080fd5b6001600660009054906101000a900473ffffffffffffffffffffffffffffffffffffffff1673ffffffffffffffffffffffffffffffffffffffff16634f9359456040518163ffffffff1660e01b815260040160206040518083038186803b158015611f6f57600080fd5b505afa158015611f83573d6000803e3d6000fd5b505050506040513d6020811015611f9957600080fd5b810190808051906020019092919050505014612000576040517f08c379a0000000000000000000000000000000000000000000000000000000008152600401808060200182810382526030815260200180615ed56030913960400191505060405180910390fd5b600061200e898989896125ee565b905061201c818686866123c6565b915050979650505050505050565b600015156000809054906101000a900473ffffffffffffffffffffffffffffffffffffffff1673ffffffffffffffffffffffffffffffffffffffff1663ff0938a76040518163ffffffff1660e01b815260040160206040518083038186803b15801561209557600080fd5b505afa1580156120a9573d6000803e3d6000fd5b505050506040513d60208110156120bf57600080fd5b810190808051906020019092919050505015151480156121bb5750600115156000809054906101000a900473ffffffffffffffffffffffffffffffffffffffff1673ffffffffffffffffffffffffffffffffffffffff1663a230c524336040518263ffffffff1660e01b8152600401808273ffffffffffffffffffffffffffffffffffffffff1673ffffffffffffffffffffffffffffffffffffffff16815260200191505060206040518083038186803b15801561217c57600080fd5b505afa158015612190573d6000803e3d6000fd5b505050506040513d60208110156121a657600080fd5b81019080805190602001909291905050501515145b6121c457600080fd5b600360009054906101000a900473ffffffffffffffffffffffffffffffffffffffff1673ffffffffffffffffffffffffffffffffffffffff166379cc6790338960028151811061221057fe5b60200260200101516040518363ffffffff1660e01b8152600401808373ffffffffffffffffffffffffffffffffffffffff1673ffffffffffffffffffffffffffffffffffffffff16815260200182815260200192505050602060405180830381600087803b15801561228157600080fd5b505af1158015612295573d6000803e3d6000fd5b505050506040513d60208110156122ab57600080fd5b8101908080519060200190929190505050506122cd3385878a8a8888886139bf565b50505050505050565b6000809054906101000a900473ffffffffffffffffffffffffffffffffffffffff1673ffffffffffffffffffffffffffffffffffffffff16638f16c41c336040518263ffffffff1660e01b8152600401808273ffffffffffffffffffffffffffffffffffffffff1673ffffffffffffffffffffffffffffffffffffffff16815260200191505060206040518083038186803b15801561237457600080fd5b505afa158015612388573d6000803e3d6000fd5b505050506040513d602081101561239e57600080fd5b81019080805190602001909291905050506123b857600080fd5b6123c28282613c03565b5050565b600060606040518060400160405280601c81526020017f19457468657265756d205369676e6564204d6573736167653a0a3332000000008152509050600081876040516020018083805190602001908083835b6020831061243c5780518252602082019150602081019050602083039250612419565b6001836020036101000a03801982511681845116808217855250505050505090500182815260200192505050604051602081830303815290604052805190602001209050600060018288888860405160008152602001604052604051808581526020018460ff1660ff1681526020018381526020018281526020019450505050506020604051602081039080840390855afa1580156124df573d6000803e3d6000fd5b505050602060405103519050600760009054906101000a900473ffffffffffffffffffffffffffffffffffffffff1673ffffffffffffffffffffffffffffffffffffffff1663e8d3ae9c6040518163ffffffff1660e01b815260040160206040518083038186803b15801561255357600080fd5b505afa158015612567573d6000803e3d6000fd5b505050506040513d602081101561257d57600080fd5b810190808051906020019092919050505073ffffffffffffffffffffffffffffffffffffffff168173ffffffffffffffffffffffffffffffffffffffff16149350505050949350505050565b6000809054906101000a900473ffffffffffffffffffffffffffffffffffffffff1681565b6000846000815181106125fd57fe5b60200260200101518385848860018151811061261557fe5b60200260200101518960028151811061262a57fe5b60200260200101518a60038151811061263f57fe5b60200260200101518b60048151811061265457fe5b602002602001015130604051602001808a8152602001897bffffffffffffffffffffffffffffffffffffffffffffffffffffffff19167bffffffffffffffffffffffffffffffffffffffffffffffffffffffff191681526004018861ffff1661ffff1660f01b81526002018773ffffffffffffffffffffffffffffffffffffffff1673ffffffffffffffffffffffffffffffffffffffff1660601b81526014018681526020018581526020018481526020018381526020018273ffffffffffffffffffffffffffffffffffffffff1673ffffffffffffffffffffffffffffffffffffffff1660601b81526014019950505050505050505050604051602081830303815290604052805190602001209050949350505050565b600073ffffffffffffffffffffffffffffffffffffffff166000809054906101000a900473ffffffffffffffffffffffffffffffffffffffff1673ffffffffffffffffffffffffffffffffffffffff1614612884573373ffffffffffffffffffffffffffffffffffffffff166000809054906101000a900473ffffffffffffffffffffffffffffffffffffffff1673ffffffffffffffffffffffffffffffffffffffff1614612883576040517f08c379a000000000000000000000000000000000000000000000000000000000815260040180806020018281038252600a8152602001807f4e6f74206d61737465720000000000000000000000000000000000000000000081525060200191505060405180910390fd5b5b806000806101000a81548173ffffffffffffffffffffffffffffffffffffffff021916908373ffffffffffffffffffffffffffffffffffffffff16021790555080600160006101000a81548173ffffffffffffffffffffffffffffffffffffffff021916908373ffffffffffffffffffffffffffffffffffffffff16021790555050565b600080600760009054906101000a900473ffffffffffffffffffffffffffffffffffffffff1673ffffffffffffffffffffffffffffffffffffffff1663c60781bd846040518263ffffffff1660e01b8152600401808273ffffffffffffffffffffffffffffffffffffffff1673ffffffffffffffffffffffffffffffffffffffff16815260200191505060206040518083038186803b1580156129aa57600080fd5b505afa1580156129be573d6000803e3d6000fd5b505050506040513d60208110156129d457600080fd5b810190808051906020019092919050505090506000811415612a19577fffffffffffffffffffffffffffffffffffffffffffffffffffffffffffffffff915050612bc5565b6000600760009054906101000a900473ffffffffffffffffffffffffffffffffffffffff1673ffffffffffffffffffffffffffffffffffffffff1663f0bd022285612a6e600186613f8e90919063ffffffff16565b6040518363ffffffff1660e01b8152600401808373ffffffffffffffffffffffffffffffffffffffff1673ffffffffffffffffffffffffffffffffffffffff1681526020018281526020019250505060206040518083038186803b158015612ad557600080fd5b505afa158015612ae9573d6000803e3d6000fd5b505050506040513d6020811015612aff57600080fd5b81019080805190602001909291905050509050600760009054906101000a900473ffffffffffffffffffffffffffffffffffffffff1673ffffffffffffffffffffffffffffffffffffffff1663baaa46f9826040518263ffffffff1660e01b81526004018082815260200191505060206040518083038186803b158015612b8557600080fd5b505afa158015612b99573d6000803e3d6000fd5b505050506040513d6020811015612baf57600080fd5b8101908080519060200190929190505050925050505b919050565b600015156000809054906101000a900473ffffffffffffffffffffffffffffffffffffffff1673ffffffffffffffffffffffffffffffffffffffff1663ff0938a76040518163ffffffff1660e01b815260040160206040518083038186803b158015612c3557600080fd5b505afa158015612c49573d6000803e3d6000fd5b505050506040513d6020811015612c5f57600080fd5b8101908080519060200190929190505050151514612c7c57600080fd5b600960149054906101000a900460ff1615612cff576040517f08c379a000000000000000000000000000000000000000000000000000000000815260040180806020018281038252600f8152602001807f5265656e7472616e742063616c6c2e000000000000000000000000000000000081525060200191505060405180910390fd5b6001600960146101000a81548160ff021916908315150217905550600760009054906101000a900473ffffffffffffffffffffffffffffffffffffffff1673ffffffffffffffffffffffffffffffffffffffff166384434b9f6040518163ffffffff1660e01b815260040160206040518083038186803b158015612d8257600080fd5b505afa158015612d96573d6000803e3d6000fd5b505050506040513d6020811015612dac57600080fd5b810190808051906020019092919050505073ffffffffffffffffffffffffffffffffffffffff163373ffffffffffffffffffffffffffffffffffffffff1614612df457600080fd5b612dfe8183613fd8565b6000600960146101000a81548160ff0219169083151502179055505050565b60004267ffffffffffffffff16600760009054906101000a900473ffffffffffffffffffffffffffffffffffffffff1673ffffffffffffffffffffffffffffffffffffffff1663711acf86846040518263ffffffff1660e01b81526004018082815260200191505060206040518083038186803b158015612e9d57600080fd5b505afa158015612eb1573d6000803e3d6000fd5b505050506040513d6020811015612ec757600080fd5b8101908080519060200190929190505050109050919050565b6000809054906101000a900473ffffffffffffffffffffffffffffffffffffffff1673ffffffffffffffffffffffffffffffffffffffff16638f16c41c336040518263ffffffff1660e01b8152600401808273ffffffffffffffffffffffffffffffffffffffff1673ffffffffffffffffffffffffffffffffffffffff16815260200191505060206040518083038186803b158015612f7e57600080fd5b505afa158015612f92573d6000803e3d6000fd5b505050506040513d6020811015612fa857600080fd5b8101908080519060200190929190505050612fc257600080fd5b600960149054906101000a900460ff1615613045576040517f08c379a000000000000000000000000000000000000000000000000000000000815260040180806020018281038252600f8152602001807f5265656e7472616e742063616c6c2e000000000000000000000000000000000081525060200191505060405180910390fd5b6001600960146101000a81548160ff02191690831515021790555060004790506000808211156130d75760008390508073ffffffffffffffffffffffffffffffffffffffff16630e29df22846040518263ffffffff1660e01b81526004016000604051808303818588803b1580156130bc57600080fd5b505af11580156130d0573d6000803e3d6000fd5b5050505050505b6000600660009054906101000a900473ffffffffffffffffffffffffffffffffffffffff1673ffffffffffffffffffffffffffffffffffffffff1663255f50496040518163ffffffff1660e01b815260040160206040518083038186803b15801561314157600080fd5b505afa158015613155573d6000803e3d6000fd5b505050506040513d602081101561316b57600080fd5b810190808051906020019092919050505090506000600190505b818167ffffffffffffffff161015613598576000600660009054906101000a900473ffffffffffffffffffffffffffffffffffffffff1673ffffffffffffffffffffffffffffffffffffffff16633c40b1f0836040518263ffffffff1660e01b8152600401808267ffffffffffffffff16815260200191505060206040518083038186803b15801561321657600080fd5b505afa15801561322a573d6000803e3d6000fd5b505050506040513d602081101561324057600080fd5b810190808051906020019092919050505090506000600660009054906101000a900473ffffffffffffffffffffffffffffffffffffffff1673ffffffffffffffffffffffffffffffffffffffff1663e3dee239836040518263ffffffff1660e01b815260040180827bffffffffffffffffffffffffffffffffffffffffffffffffffffffff19167bffffffffffffffffffffffffffffffffffffffffffffffffffffffff1916815260200191505060206040518083038186803b15801561330657600080fd5b505afa15801561331a573d6000803e3d6000fd5b505050506040513d602081101561333057600080fd5b8101908080519060200190929190505050905080945060008573ffffffffffffffffffffffffffffffffffffffff166370a08231306040518263ffffffff1660e01b8152600401808273ffffffffffffffffffffffffffffffffffffffff1673ffffffffffffffffffffffffffffffffffffffff16815260200191505060206040518083038186803b1580156133c557600080fd5b505afa1580156133d9573d6000803e3d6000fd5b505050506040513d60208110156133ef57600080fd5b81019080805190602001909291905050501115613589578473ffffffffffffffffffffffffffffffffffffffff1663a9059cbb888773ffffffffffffffffffffffffffffffffffffffff166370a08231306040518263ffffffff1660e01b8152600401808273ffffffffffffffffffffffffffffffffffffffff1673ffffffffffffffffffffffffffffffffffffffff16815260200191505060206040518083038186803b1580156134a057600080fd5b505afa1580156134b4573d6000803e3d6000fd5b505050506040513d60208110156134ca57600080fd5b81019080805190602001909291905050506040518363ffffffff1660e01b8152600401808373ffffffffffffffffffffffffffffffffffffffff1673ffffffffffffffffffffffffffffffffffffffff16815260200182815260200192505050602060405180830381600087803b15801561354457600080fd5b505af1158015613558573d6000803e3d6000fd5b505050506040513d602081101561356e57600080fd5b810190808051906020019092919050505061358857600080fd5b5b50508080600101915050613185565b505050506000600960146101000a81548160ff02191690831515021790555050565b600160009054906101000a900473ffffffffffffffffffffffffffffffffffffffff1681565b6135e981612e1d565b80156136b15750600360058111156135fd57fe5b600760009054906101000a900473ffffffffffffffffffffffffffffffffffffffff1673ffffffffffffffffffffffffffffffffffffffff16634b2cc0a1836040518263ffffffff1660e01b81526004018082815260200191505060206040518083038186803b15801561367057600080fd5b505afa158015613684573d6000803e3d6000fd5b505050506040513d602081101561369a57600080fd5b810190808051906020019092919050505060ff1614155b6136ba57600080fd5b600260009054906101000a900473ffffffffffffffffffffffffffffffffffffffff1673ffffffffffffffffffffffffffffffffffffffff166385f52204826040518263ffffffff1660e01b815260040180828152602001915050600060405180830381600087803b15801561372f57600080fd5b505af1158015613743573d6000803e3d6000fd5b505050506000806000600760009054906101000a900473ffffffffffffffffffffffffffffffffffffffff1673ffffffffffffffffffffffffffffffffffffffff1663df09fea7856040518263ffffffff1660e01b81526004018082815260200191505060c06040518083038186803b1580156137bf57600080fd5b505afa1580156137d3573d6000803e3d6000fd5b505050506040513d60c08110156137e957600080fd5b810190808051906020019092919080519060200190929190805190602001909291908051906020019092919080519060200190929190805190602001909291905050509091929394509091929350508093508195508294505050506001600581111561385157fe5b600760009054906101000a900473ffffffffffffffffffffffffffffffffffffffff1673ffffffffffffffffffffffffffffffffffffffff16634b2cc0a1866040518263ffffffff1660e01b81526004018082815260200191505060206040518083038186803b1580156138c457600080fd5b505afa1580156138d8573d6000803e3d6000fd5b505050506040513d60208110156138ee57600080fd5b810190808051906020019092919050505060ff1614613912576139118482613c03565b5b600760009054906101000a900473ffffffffffffffffffffffffffffffffffffffff1673ffffffffffffffffffffffffffffffffffffffff1663ae1c5eca856003600581111561395e57fe5b6040518363ffffffff1660e01b8152600401808381526020018260ff1660ff16815260200192505050600060405180830381600087803b1580156139a157600080fd5b505af11580156139b5573d6000803e3d6000fd5b5050505050505050565b42856003815181106139cd57fe5b6020026020010151116139df57600080fd5b600760009054906101000a900473ffffffffffffffffffffffffffffffffffffffff1673ffffffffffffffffffffffffffffffffffffffff1663922fd67f86600481518110613a2a57fe5b60200260200101516040518263ffffffff1660e01b81526004018082815260200191505060206040518083038186803b158015613a6657600080fd5b505afa158015613a7a573d6000803e3d6000fd5b505050506040513d6020811015613a9057600080fd5b810190808051906020019092919050505015613aab57600080fd5b600760009054906101000a900473ffffffffffffffffffffffffffffffffffffffff1673ffffffffffffffffffffffffffffffffffffffff166383fa958586600481518110613af657fe5b60200260200101516040518263ffffffff1660e01b815260040180828152602001915050600060405180830381600087803b158015613b3457600080fd5b505af1158015613b48573d6000803e3d6000fd5b50505050613b5b8585888a878787611eca565b613b6457600080fd5b613b71888888888861541b565b5050505050505050565b600080828401905083811015613bf9576040517f08c379a000000000000000000000000000000000000000000000000000000000815260040180806020018281038252601b8152602001807f536166654d6174683a206164646974696f6e206f766572666c6f77000000000081525060200191505060405180910390fd5b8091505092915050565b600015156000809054906101000a900473ffffffffffffffffffffffffffffffffffffffff1673ffffffffffffffffffffffffffffffffffffffff1663ff0938a76040518163ffffffff1660e01b815260040160206040518083038186803b158015613c6e57600080fd5b505afa158015613c82573d6000803e3d6000fd5b505050506040513d6020811015613c9857600080fd5b8101908080519060200190929190505050151514613cb557600080fd5b600080600760009054906101000a900473ffffffffffffffffffffffffffffffffffffffff1673ffffffffffffffffffffffffffffffffffffffff1663df09fea7856040518263ffffffff1660e01b81526004018082815260200191505060c06040518083038186803b158015613d2b57600080fd5b505afa158015613d3f573d6000803e3d6000fd5b505050506040513d60c0811015613d5557600080fd5b8101908080519060200190929190805190602001909291908051906020019092919080519060200190929190805190602001909291908051906020019092919050505090919293945090919293509050508092508193505050600760009054906101000a900473ffffffffffffffffffffffffffffffffffffffff1673ffffffffffffffffffffffffffffffffffffffff166360a230e782856040518363ffffffff1660e01b815260040180837bffffffffffffffffffffffffffffffffffffffffffffffffffffffff19167bffffffffffffffffffffffffffffffffffffffffffffffffffffffff1916815260200182815260200192505050600060405180830381600087803b158015613e6957600080fd5b505af1158015613e7d573d6000803e3d6000fd5b50505050600760009054906101000a900473ffffffffffffffffffffffffffffffffffffffff1673ffffffffffffffffffffffffffffffffffffffff166381d760ae8383866040518463ffffffff1660e01b8152600401808473ffffffffffffffffffffffffffffffffffffffff1673ffffffffffffffffffffffffffffffffffffffff168152602001837bffffffffffffffffffffffffffffffffffffffffffffffffffffffff19167bffffffffffffffffffffffffffffffffffffffffffffffffffffffff191681526020018281526020019350505050600060405180830381600087803b158015613f7057600080fd5b505af1158015613f84573d6000803e3d6000fd5b5050505050505050565b6000613fd083836040518060400160405280601e81526020017f536166654d6174683a207375627472616374696f6e206f766572666c6f770000815250615c7e565b905092915050565b60006140c76001600760009054906101000a900473ffffffffffffffffffffffffffffffffffffffff1673ffffffffffffffffffffffffffffffffffffffff1663c60781bd856040518263ffffffff1660e01b8152600401808273ffffffffffffffffffffffffffffffffffffffff1673ffffffffffffffffffffffffffffffffffffffff16815260200191505060206040518083038186803b15801561407e57600080fd5b505afa158015614092573d6000803e3d6000fd5b505050506040513d60208110156140a857600080fd5b8101908080519060200190929190505050613f8e90919063ffffffff16565b90506000600760009054906101000a900473ffffffffffffffffffffffffffffffffffffffff1673ffffffffffffffffffffffffffffffffffffffff1663f0bd022284846040518363ffffffff1660e01b8152600401808373ffffffffffffffffffffffffffffffffffffffff1673ffffffffffffffffffffffffffffffffffffffff1681526020018281526020019250505060206040518083038186803b15801561417257600080fd5b505afa158015614186573d6000803e3d6000fd5b505050506040513d602081101561419c57600080fd5b81019080805190602001909291905050509050600080600080606060046040519080825280602002602001820160405280156141e75781602001602082028038833980820191505090505b5090506000600760009054906101000a900473ffffffffffffffffffffffffffffffffffffffff1673ffffffffffffffffffffffffffffffffffffffff1663cc41241c886040518263ffffffff1660e01b81526004018082815260200191505060006040518083038186803b15801561425f57600080fd5b505afa158015614273573d6000803e3d6000fd5b505050506040513d6000823e3d601f19601f82011682018060405250606081101561429d57600080fd5b810190808051906020019092919080519060200190929190805160405193929190846401000000008211156142d157600080fd5b838201915060208201858111156142e757600080fd5b825186602082028301116401000000008211171561430457600080fd5b8083526020830192505050908051906020019060200280838360005b8381101561433b578082015181840152602081019050614320565b505050509050016040525050509091508093508197505050600760009054906101000a900473ffffffffffffffffffffffffffffffffffffffff1673ffffffffffffffffffffffffffffffffffffffff16633f77ea65886040518263ffffffff1660e01b81526004018082815260200191505060806040518083038186803b1580156143c657600080fd5b505afa1580156143da573d6000803e3d6000fd5b505050506040513d60808110156143f057600080fd5b810190808051906020019092919080519060200190929190805190602001909291908051906020019092919050505090919250809550819650829750505050600760009054906101000a900473ffffffffffffffffffffffffffffffffffffffff1673ffffffffffffffffffffffffffffffffffffffff1663de75b5ea876040518263ffffffff1660e01b8152600401808273ffffffffffffffffffffffffffffffffffffffff1673ffffffffffffffffffffffffffffffffffffffff16815260200191505060206040518083038186803b1580156144ce57600080fd5b505afa1580156144e2573d6000803e3d6000fd5b505050506040513d60208110156144f857600080fd5b810190808051906020019092919050505061451257600080fd5b600760009054906101000a900473ffffffffffffffffffffffffffffffffffffffff1673ffffffffffffffffffffffffffffffffffffffff1663f63a87d48760006040518363ffffffff1660e01b8152600401808373ffffffffffffffffffffffffffffffffffffffff1673ffffffffffffffffffffffffffffffffffffffff1681526020018215151515815260200192505050600060405180830381600087803b1580156145c057600080fd5b505af11580156145d4573d6000803e3d6000fd5b50505050600160048111156145e557fe5b600760009054906101000a900473ffffffffffffffffffffffffffffffffffffffff1673ffffffffffffffffffffffffffffffffffffffff1663baaa46f9896040518263ffffffff1660e01b81526004018082815260200191505060206040518083038186803b15801561465857600080fd5b505afa15801561466c573d6000803e3d6000fd5b505050506040513d602081101561468257600080fd5b81019080805190602001909291905050501461469d57600080fd5b6000600460009054906101000a900473ffffffffffffffffffffffffffffffffffffffff1673ffffffffffffffffffffffffffffffffffffffff16636eeeaaa56040518163ffffffff1660e01b815260040160206040518083038186803b15801561470757600080fd5b505afa15801561471b573d6000803e3d6000fd5b505050506040513d602081101561473157600080fd5b810190808051906020019092919050505090508a1561506357600960009054906101000a900473ffffffffffffffffffffffffffffffffffffffff1673ffffffffffffffffffffffffffffffffffffffff16630ead3e7282896040518363ffffffff1660e01b8152600401808273ffffffffffffffffffffffffffffffffffffffff1673ffffffffffffffffffffffffffffffffffffffff1681526020019150506000604051808303818588803b1580156147eb57600080fd5b505af11580156147ff573d6000803e3d6000fd5b5050505050428360038151811061481257fe5b60200260200101511115614ccf57600760009054906101000a900473ffffffffffffffffffffffffffffffffffffffff1673ffffffffffffffffffffffffffffffffffffffff16636e13d8c5896002600481111561486c57fe5b6040518363ffffffff1660e01b81526004018083815260200182815260200192505050600060405180830381600087803b1580156148a957600080fd5b505af11580156148bd573d6000803e3d6000fd5b5050505060008060009054906101000a900473ffffffffffffffffffffffffffffffffffffffff1673ffffffffffffffffffffffffffffffffffffffff1663013828586040518163ffffffff1660e01b815260040180807f5031000000000000000000000000000000000000000000000000000000000000815250602001905060206040518083038186803b15801561495557600080fd5b505afa158015614969573d6000803e3d6000fd5b505050506040513d602081101561497f57600080fd5b810190808051906020019092919050505090507f4554480000000000000000000000000000000000000000000000000000000000867bffffffffffffffffffffffffffffffffffffffffffffffffffffffff19161415614a7557600560009054906101000a900473ffffffffffffffffffffffffffffffffffffffff1673ffffffffffffffffffffffffffffffffffffffff16630e29df2285600181518110614a2457fe5b60200260200101516040518263ffffffff1660e01b81526004016000604051808303818588803b158015614a5757600080fd5b505af1158015614a6b573d6000803e3d6000fd5b5050505050614c43565b600660009054906101000a900473ffffffffffffffffffffffffffffffffffffffff1673ffffffffffffffffffffffffffffffffffffffff1663e3dee239876040518263ffffffff1660e01b815260040180827bffffffffffffffffffffffffffffffffffffffffffffffffffffffff19167bffffffffffffffffffffffffffffffffffffffffffffffffffffffff1916815260200191505060206040518083038186803b158015614b2657600080fd5b505afa158015614b3a573d6000803e3d6000fd5b505050506040513d6020811015614b5057600080fd5b810190808051906020019092919050505092508273ffffffffffffffffffffffffffffffffffffffff1663a9059cbb8286600181518110614b8d57fe5b60200260200101516040518363ffffffff1660e01b8152600401808373ffffffffffffffffffffffffffffffffffffffff1673ffffffffffffffffffffffffffffffffffffffff16815260200182815260200192505050602060405180830381600087803b158015614bfe57600080fd5b505af1158015614c12573d6000803e3d6000fd5b505050506040513d6020811015614c2857600080fd5b8101908080519060200190929190505050614c4257600080fd5b5b8b15158873ffffffffffffffffffffffffffffffffffffffff167fb9a54f82713d4f0f38515b9ab47189872914a2187d882fce60b1a215192247978b60405180828152602001807f4b5943205061737365640000000000000000000000000000000000000000000081525060200191505060405180910390a3614cc9888888878961541b565b5061505e565b600760009054906101000a900473ffffffffffffffffffffffffffffffffffffffff1673ffffffffffffffffffffffffffffffffffffffff16636e13d8c589600480811115614d1a57fe5b6040518363ffffffff1660e01b81526004018083815260200182815260200192505050600060405180830381600087803b158015614d5757600080fd5b505af1158015614d6b573d6000803e3d6000fd5b505050507f4554480000000000000000000000000000000000000000000000000000000000857bffffffffffffffffffffffffffffffffffffffffffffffffffffffff19161415614e16578673ffffffffffffffffffffffffffffffffffffffff166108fc84600181518110614ddd57fe5b60200260200101519081150290604051600060405180830381858888f19350505050158015614e10573d6000803e3d6000fd5b50614fe4565b600660009054906101000a900473ffffffffffffffffffffffffffffffffffffffff1673ffffffffffffffffffffffffffffffffffffffff1663e3dee239866040518263ffffffff1660e01b815260040180827bffffffffffffffffffffffffffffffffffffffffffffffffffffffff19167bffffffffffffffffffffffffffffffffffffffffffffffffffffffff1916815260200191505060206040518083038186803b158015614ec757600080fd5b505afa158015614edb573d6000803e3d6000fd5b505050506040513d6020811015614ef157600080fd5b810190808051906020019092919050505091508173ffffffffffffffffffffffffffffffffffffffff1663a9059cbb8885600181518110614f2e57fe5b60200260200101516040518363ffffffff1660e01b8152600401808373ffffffffffffffffffffffffffffffffffffffff1673ffffffffffffffffffffffffffffffffffffffff16815260200182815260200192505050602060405180830381600087803b158015614f9f57600080fd5b505af1158015614fb3573d6000803e3d6000fd5b505050506040513d6020811015614fc957600080fd5b8101908080519060200190929190505050614fe357600080fd5b5b8a15158773ffffffffffffffffffffffffffffffffffffffff167fb9a54f82713d4f0f38515b9ab47189872914a2187d882fce60b1a215192247978a60405180828152602001807f436f766572204661696c6564000000000000000000000000000000000000000081525060200191505060405180910390a35b61540e565b600760009054906101000a900473ffffffffffffffffffffffffffffffffffffffff1673ffffffffffffffffffffffffffffffffffffffff16636e13d8c589600360048111156150af57fe5b6040518363ffffffff1660e01b81526004018083815260200182815260200192505050600060405180830381600087803b1580156150ec57600080fd5b505af1158015615100573d6000803e3d6000fd5b5050505060008190507f4554480000000000000000000000000000000000000000000000000000000000867bffffffffffffffffffffffffffffffffffffffffffffffffffffffff1916141561517e57615177828560018151811061516157fe5b6020026020010151613b7b90919063ffffffff16565b905061534c565b600660009054906101000a900473ffffffffffffffffffffffffffffffffffffffff1673ffffffffffffffffffffffffffffffffffffffff1663e3dee239876040518263ffffffff1660e01b815260040180827bffffffffffffffffffffffffffffffffffffffffffffffffffffffff19167bffffffffffffffffffffffffffffffffffffffffffffffffffffffff1916815260200191505060206040518083038186803b15801561522f57600080fd5b505afa158015615243573d6000803e3d6000fd5b505050506040513d602081101561525957600080fd5b810190808051906020019092919050505092508273ffffffffffffffffffffffffffffffffffffffff1663a9059cbb898660018151811061529657fe5b60200260200101516040518363ffffffff1660e01b8152600401808373ffffffffffffffffffffffffffffffffffffffff1673ffffffffffffffffffffffffffffffffffffffff16815260200182815260200192505050602060405180830381600087803b15801561530757600080fd5b505af115801561531b573d6000803e3d6000fd5b505050506040513d602081101561533157600080fd5b810190808051906020019092919050505061534b57600080fd5b5b8773ffffffffffffffffffffffffffffffffffffffff166108fc829081150290604051600060405180830381858888f19350505050158015615392573d6000803e3d6000fd5b508b15158873ffffffffffffffffffffffffffffffffffffffff167fb9a54f82713d4f0f38515b9ab47189872914a2187d882fce60b1a215192247978b60405180828152602001807f4b5943204661696c65640000000000000000000000000000000000000000000081525060200191505060405180910390a3505b5050505050505050505050565b6000600760009054906101000a900473ffffffffffffffffffffffffffffffffffffffff1673ffffffffffffffffffffffffffffffffffffffff166367157ff06040518163ffffffff1660e01b815260040160206040518083038186803b15801561548557600080fd5b505afa158015615499573d6000803e3d6000fd5b505050506040513d60208110156154af57600080fd5b81019080805190602001909291905050509050600760009054906101000a900473ffffffffffffffffffffffffffffffffffffffff1673ffffffffffffffffffffffffffffffffffffffff16638ce80a65838560008151811061550e57fe5b602002602001015189888a8960018151811061552657fe5b60200260200101518a60028151811061553b57fe5b60200260200101516040518863ffffffff1660e01b8152600401808861ffff1661ffff1681526020018781526020018673ffffffffffffffffffffffffffffffffffffffff1673ffffffffffffffffffffffffffffffffffffffff168152602001857bffffffffffffffffffffffffffffffffffffffffffffffffffffffff19167bffffffffffffffffffffffffffffffffffffffffffffffffffffffff191681526020018473ffffffffffffffffffffffffffffffffffffffff1673ffffffffffffffffffffffffffffffffffffffff168152602001838152602001828152602001975050505050505050600060405180830381600087803b15801561564157600080fd5b505af1158015615655573d6000803e3d6000fd5b50505050603c8261ffff161161572857600560009054906101000a900473ffffffffffffffffffffffffffffffffffffffff1673ffffffffffffffffffffffffffffffffffffffff16639cb341e3826156be620151808661ffff16615d3e90919063ffffffff16565b6040518363ffffffff1660e01b8152600401808381526020018267ffffffffffffffff1667ffffffffffffffff16815260200192505050600060405180830381600087803b15801561570f57600080fd5b505af1158015615723573d6000803e3d6000fd5b505050505b600061580660646157f8600760009054906101000a900473ffffffffffffffffffffffffffffffffffffffff1673ffffffffffffffffffffffffffffffffffffffff1663f3ab26cc6040518163ffffffff1660e01b815260040160206040518083038186803b15801561579a57600080fd5b505afa1580156157ae573d6000803e3d6000fd5b505050506040513d60208110156157c457600080fd5b8101908080519060200190929190505050876002815181106157e257fe5b6020026020010151615d3e90919063ffffffff16565b615dc490919063ffffffff16565b9050600360009054906101000a900473ffffffffffffffffffffffffffffffffffffffff1673ffffffffffffffffffffffffffffffffffffffff166340c10f1988836040518363ffffffff1660e01b8152600401808373ffffffffffffffffffffffffffffffffffffffff1673ffffffffffffffffffffffffffffffffffffffff16815260200182815260200192505050600060405180830381600087803b1580156158b157600080fd5b505af11580156158c5573d6000803e3d6000fd5b50505050600260009054906101000a900473ffffffffffffffffffffffffffffffffffffffff1673ffffffffffffffffffffffffffffffffffffffff1663f075be1f8285858b6040518563ffffffff1660e01b8152600401808581526020018461ffff1681526020018381526020018273ffffffffffffffffffffffffffffffffffffffff1673ffffffffffffffffffffffffffffffffffffffff168152602001945050505050600060405180830381600087803b15801561598657600080fd5b505af115801561599a573d6000803e3d6000fd5b50505050600760009054906101000a900473ffffffffffffffffffffffffffffffffffffffff1673ffffffffffffffffffffffffffffffffffffffff1663a2c6bc2586866000815181106159ea57fe5b60200260200101516040518363ffffffff1660e01b815260040180837bffffffffffffffffffffffffffffffffffffffffffffffffffffffff19167bffffffffffffffffffffffffffffffffffffffffffffffffffffffff1916815260200182815260200192505050600060405180830381600087803b158015615a6d57600080fd5b505af1158015615a81573d6000803e3d6000fd5b50505050600760009054906101000a900473ffffffffffffffffffffffffffffffffffffffff1673ffffffffffffffffffffffffffffffffffffffff16633994b3d5878787600081518110615ad257fe5b60200260200101516040518463ffffffff1660e01b8152600401808473ffffffffffffffffffffffffffffffffffffffff1673ffffffffffffffffffffffffffffffffffffffff168152602001837bffffffffffffffffffffffffffffffffffffffffffffffffffffffff19167bffffffffffffffffffffffffffffffffffffffffffffffffffffffff191681526020018281526020019350505050600060405180830381600087803b158015615b8857600080fd5b505af1158015615b9c573d6000803e3d6000fd5b50505050600260009054906101000a900473ffffffffffffffffffffffffffffffffffffffff1673ffffffffffffffffffffffffffffffffffffffff1663899ec98f8786600281518110615bec57fe5b60200260200101516040518363ffffffff1660e01b8152600401808373ffffffffffffffffffffffffffffffffffffffff1673ffffffffffffffffffffffffffffffffffffffff16815260200182815260200192505050600060405180830381600087803b158015615c5d57600080fd5b505af1158015615c71573d6000803e3d6000fd5b5050505050505050505050565b6000838311158290615d2b576040517f08c379a00000000000000000000000000000000000000000000000000000000081526004018080602001828103825283818151815260200191508051906020019080838360005b83811015615cf0578082015181840152602081019050615cd5565b50505050905090810190601f168015615d1d5780820380516001836020036101000a031916815260200191505b509250505060405180910390fd5b5060008385039050809150509392505050565b600080831415615d515760009050615dbe565b6000828402905082848281615d6257fe5b0414615db9576040517f08c379a0000000000000000000000000000000000000000000000000000000008152600401808060200182810382526021815260200180615f056021913960400191505060405180910390fd5b809150505b92915050565b6000615e0683836040518060400160405280601a81526020017f536166654d6174683a206469766973696f6e206279207a65726f000000000000815250615e0e565b905092915050565b60008083118290615eba576040517f08c379a00000000000000000000000000000000000000000000000000000000081526004018080602001828103825283818151815260200191508051906020019080838360005b83811015615e7f578082015181840152602081019050615e64565b50505050905090810190601f168015615eac5780820380516001836020036101000a031916815260200191505b509250505060405180910390fd5b506000838581615ec657fe5b04905080915050939250505056fe43616e206e6f742062757920636f76657220756e74696c20636170207265616368656420666f72203173742074696d65536166654d6174683a206d756c7469706c69636174696f6e206f766572666c6f77a265627a7a72315820e75b7490f69b959de83e0fbed14bc66cd6f4335d8713be0fe2ab071ab6fd5dcb64736f6c63430005110032",
  "linkReferences": {},
  "deployedLinkReferences": {}
}