{
  "_format": "hh-sol-artifact-1",
  "contractName": "NXMTokenMock",
  "sourceName": "contracts/NexusMutual/mocks/NXMTokenMock.sol",
  "abi": [
    {
      "anonymous": false,
      "inputs": [
        {
          "indexed": true,
          "internalType": "address",
          "name": "owner",
          "type": "address"
        },
        {
          "indexed": true,
          "internalType": "address",
          "name": "spender",
          "type": "address"
        },
        {
          "indexed": false,
          "internalType": "uint256",
          "name": "value",
          "type": "uint256"
        }
      ],
      "name": "Approval",
      "type": "event"
    },
    {
      "anonymous": false,
      "inputs": [
        {
          "indexed": true,
          "internalType": "address",
          "name": "from",
          "type": "address"
        },
        {
          "indexed": true,
          "internalType": "address",
          "name": "to",
          "type": "address"
        },
        {
          "indexed": false,
          "internalType": "uint256",
          "name": "value",
          "type": "uint256"
        }
      ],
      "name": "Transfer",
      "type": "event"
    },
    {
      "constant": true,
      "inputs": [
        {
          "internalType": "address",
          "name": "owner",
          "type": "address"
        },
        {
          "internalType": "address",
          "name": "spender",
          "type": "address"
        }
      ],
      "name": "allowance",
      "outputs": [
        {
          "internalType": "uint256",
          "name": "",
          "type": "uint256"
        }
      ],
      "payable": false,
      "stateMutability": "view",
      "type": "function"
    },
    {
      "constant": false,
      "inputs": [
        {
          "internalType": "address",
          "name": "spender",
          "type": "address"
        },
        {
          "internalType": "uint256",
          "name": "amount",
          "type": "uint256"
        }
      ],
      "name": "approve",
      "outputs": [
        {
          "internalType": "bool",
          "name": "",
          "type": "bool"
        }
      ],
      "payable": false,
      "stateMutability": "nonpayable",
      "type": "function"
    },
    {
      "constant": true,
      "inputs": [
        {
          "internalType": "address",
          "name": "account",
          "type": "address"
        }
      ],
      "name": "balanceOf",
      "outputs": [
        {
          "internalType": "uint256",
          "name": "",
          "type": "uint256"
        }
      ],
      "payable": false,
      "stateMutability": "view",
      "type": "function"
    },
    {
      "constant": false,
      "inputs": [
        {
          "internalType": "uint256",
          "name": "amount",
          "type": "uint256"
        }
      ],
      "name": "burn",
      "outputs": [
        {
          "internalType": "bool",
          "name": "",
          "type": "bool"
        }
      ],
      "payable": false,
      "stateMutability": "nonpayable",
      "type": "function"
    },
    {
      "constant": false,
      "inputs": [
        {
          "internalType": "address",
          "name": "from",
          "type": "address"
        },
        {
          "internalType": "uint256",
          "name": "value",
          "type": "uint256"
        }
      ],
      "name": "burnFrom",
      "outputs": [
        {
          "internalType": "bool",
          "name": "",
          "type": "bool"
        }
      ],
      "payable": false,
      "stateMutability": "nonpayable",
      "type": "function"
    },
    {
      "constant": false,
      "inputs": [
        {
          "internalType": "address",
          "name": "spender",
          "type": "address"
        },
        {
          "internalType": "uint256",
          "name": "subtractedValue",
          "type": "uint256"
        }
      ],
      "name": "decreaseAllowance",
      "outputs": [
        {
          "internalType": "bool",
          "name": "",
          "type": "bool"
        }
      ],
      "payable": false,
      "stateMutability": "nonpayable",
      "type": "function"
    },
    {
      "constant": false,
      "inputs": [
        {
          "internalType": "address",
          "name": "spender",
          "type": "address"
        },
        {
          "internalType": "uint256",
          "name": "addedValue",
          "type": "uint256"
        }
      ],
      "name": "increaseAllowance",
      "outputs": [
        {
          "internalType": "bool",
          "name": "",
          "type": "bool"
        }
      ],
      "payable": false,
      "stateMutability": "nonpayable",
      "type": "function"
    },
    {
      "constant": true,
      "inputs": [
        {
          "internalType": "address",
          "name": "",
          "type": "address"
        }
      ],
      "name": "isLockedForMV",
      "outputs": [
        {
          "internalType": "bool",
          "name": "",
          "type": "bool"
        }
      ],
      "payable": false,
      "stateMutability": "view",
      "type": "function"
    },
    {
      "constant": false,
      "inputs": [
        {
          "internalType": "address",
          "name": "account",
          "type": "address"
        },
        {
          "internalType": "uint256",
          "name": "amount",
          "type": "uint256"
        }
      ],
      "name": "mint",
      "outputs": [],
      "payable": false,
      "stateMutability": "nonpayable",
      "type": "function"
    },
    {
      "constant": true,
      "inputs": [],
      "name": "operator",
      "outputs": [
        {
          "internalType": "address",
          "name": "",
          "type": "address"
        }
      ],
      "payable": false,
      "stateMutability": "view",
      "type": "function"
    },
    {
      "constant": false,
      "inputs": [
        {
          "internalType": "address",
          "name": "from",
          "type": "address"
        },
        {
          "internalType": "uint256",
          "name": "amount",
          "type": "uint256"
        }
      ],
      "name": "operatorTransfer",
      "outputs": [
        {
          "internalType": "bool",
          "name": "",
          "type": "bool"
        }
      ],
      "payable": false,
      "stateMutability": "nonpayable",
      "type": "function"
    },
    {
      "constant": false,
      "inputs": [
        {
          "internalType": "address",
          "name": "_member",
          "type": "address"
        },
        {
          "internalType": "bool",
          "name": "_lock",
          "type": "bool"
        }
      ],
      "name": "setLock",
      "outputs": [],
      "payable": false,
      "stateMutability": "nonpayable",
      "type": "function"
    },
    {
      "constant": false,
      "inputs": [
        {
          "internalType": "address",
          "name": "_operator",
          "type": "address"
        }
      ],
      "name": "setOperator",
      "outputs": [],
      "payable": false,
      "stateMutability": "nonpayable",
      "type": "function"
    },
    {
      "constant": true,
      "inputs": [],
      "name": "totalSupply",
      "outputs": [
        {
          "internalType": "uint256",
          "name": "",
          "type": "uint256"
        }
      ],
      "payable": false,
      "stateMutability": "view",
      "type": "function"
    },
    {
      "constant": false,
      "inputs": [
        {
          "internalType": "address",
          "name": "to",
          "type": "address"
        },
        {
          "internalType": "uint256",
          "name": "amount",
          "type": "uint256"
        }
      ],
      "name": "transfer",
      "outputs": [
        {
          "internalType": "bool",
          "name": "",
          "type": "bool"
        }
      ],
      "payable": false,
      "stateMutability": "nonpayable",
      "type": "function"
    },
    {
      "constant": false,
      "inputs": [
        {
          "internalType": "address",
          "name": "from",
          "type": "address"
        },
        {
          "internalType": "address",
          "name": "to",
          "type": "address"
        },
        {
          "internalType": "uint256",
          "name": "amount",
          "type": "uint256"
        }
      ],
      "name": "transferFrom",
      "outputs": [
        {
          "internalType": "bool",
          "name": "",
          "type": "bool"
        }
      ],
      "payable": false,
      "stateMutability": "nonpayable",
      "type": "function"
    }
  ],
  "bytecode": "0x6080604052610eeb806100136000396000f3fe608060405234801561001057600080fd5b50600436106101005760003560e01c806379cc679011610097578063b03c4b3311610066578063b03c4b3314610300578063b0e65d071461032e578063b3ab15fb1461035a578063dd62ed3e1461038057610100565b806379cc67901461025657806398fd371f14610282578063a457c2d7146102a8578063a9059cbb146102d457610100565b806340c10f19116100d357806340c10f19146101c157806342966c68146101ef578063570ca7351461020c57806370a082311461023057610100565b8063095ea7b31461010557806318160ddd1461014557806323b872dd1461015f5780633950935114610195575b600080fd5b6101316004803603604081101561011b57600080fd5b506001600160a01b0381351690602001356103ae565b604080519115158252519081900360200190f35b61014d6103cb565b60408051918252519081900360200190f35b6101316004803603606081101561017557600080fd5b506001600160a01b038135811691602081013590911690604001356103d1565b610131600480360360408110156101ab57600080fd5b506001600160a01b03813516906020013561047c565b6101ed600480360360408110156101d757600080fd5b506001600160a01b0381351690602001356104d0565b005b6101316004803603602081101561020557600080fd5b50356104de565b6102146104f2565b604080516001600160a01b039092168252519081900360200190f35b61014d6004803603602081101561024657600080fd5b50356001600160a01b0316610501565b6101316004803603604081101561026c57600080fd5b506001600160a01b03813516906020013561051c565b6101316004803603602081101561029857600080fd5b50356001600160a01b0316610528565b610131600480360360408110156102be57600080fd5b506001600160a01b03813516906020013561053d565b610131600480360360408110156102ea57600080fd5b506001600160a01b0381351690602001356105ab565b6101ed6004803603604081101561031657600080fd5b506001600160a01b0381351690602001351515610605565b6101316004803603604081101561034457600080fd5b506001600160a01b038135169060200135610630565b6101ed6004803603602081101561037057600080fd5b50356001600160a01b03166106c0565b61014d6004803603604081101561039657600080fd5b506001600160a01b03813581169160200135166106e2565b60006103c26103bb61070d565b8484610711565b50600192915050565b60025490565b6001600160a01b03831660009081526003602052604081205460ff16156104295760405162461bcd60e51b815260040180806020018281038252602d815260200180610d62602d913960400191505060405180910390fd5b610467843361046285604051806060016040528060288152602001610ddc602891396104558a336106e2565b919063ffffffff6107fd16565b610711565b610472848484610894565b5060019392505050565b60006103c261048961070d565b84610462856001600061049a61070d565b6001600160a01b03908116825260208083019390935260409182016000908120918c16815292529020549063ffffffff6109f016565b6104da8282610a51565b5050565b60006104ea3383610b41565b506001919050565b6004546001600160a01b031681565b6001600160a01b031660009081526020819052604090205490565b60006103c28383610c3d565b60036020526000908152604090205460ff1681565b60006103c261054a61070d565b8461046285604051806060016040528060258152602001610e92602591396001600061057461070d565b6001600160a01b03908116825260208083019390935260409182016000908120918d1681529252902054919063ffffffff6107fd16565b3360009081526003602052604081205460ff16156105fa5760405162461bcd60e51b815260040180806020018281038252602d815260200180610d62602d913960400191505060405180910390fd5b6103c2338484610894565b6001600160a01b03919091166000908152600360205260409020805460ff1916911515919091179055565b6004546000906001600160a01b0316331461067c5760405162461bcd60e51b8152600401808060200182810382526027815260200180610db56027913960400191505060405180910390fd5b6106a8833361046285604051806060016040528060288152602001610ddc6028913961045589336106e2565b6004546103c29084906001600160a01b031684610894565b600480546001600160a01b0319166001600160a01b0392909216919091179055565b6001600160a01b03918216600090815260016020908152604080832093909416825291909152205490565b3390565b6001600160a01b0383166107565760405162461bcd60e51b8152600401808060200182810382526024815260200180610e6e6024913960400191505060405180910390fd5b6001600160a01b03821661079b5760405162461bcd60e51b8152600401808060200182810382526022815260200180610d406022913960400191505060405180910390fd5b6001600160a01b03808416600081815260016020908152604080832094871680845294825291829020859055815185815291517f8c5be1e5ebec7d5bd14f71427d1e84f3dd0314c0f7b2291e5b200ac8c7c3b9259281900390910190a3505050565b6000818484111561088c5760405162461bcd60e51b81526004018080602001828103825283818151815260200191508051906020019080838360005b83811015610851578181015183820152602001610839565b50505050905090810190601f16801561087e5780820380516001836020036101000a031916815260200191505b509250505060405180910390fd5b505050900390565b6001600160a01b0383166108d95760405162461bcd60e51b8152600401808060200182810382526025815260200180610e496025913960400191505060405180910390fd5b6001600160a01b03821661091e5760405162461bcd60e51b8152600401808060200182810382526023815260200180610cfb6023913960400191505060405180910390fd5b61096181604051806060016040528060268152602001610d8f602691396001600160a01b038616600090815260208190526040902054919063ffffffff6107fd16565b6001600160a01b038085166000908152602081905260408082209390935590841681522054610996908263ffffffff6109f016565b6001600160a01b038084166000818152602081815260409182902094909455805185815290519193928716927fddf252ad1be2c89b69c2b068fc378daa952ba7f163c4a11628f55a4df523b3ef92918290030190a3505050565b600082820183811015610a4a576040805162461bcd60e51b815260206004820152601b60248201527f536166654d6174683a206164646974696f6e206f766572666c6f770000000000604482015290519081900360640190fd5b9392505050565b6001600160a01b038216610aac576040805162461bcd60e51b815260206004820152601f60248201527f45524332303a206d696e7420746f20746865207a65726f206164647265737300604482015290519081900360640190fd5b600254610abf908263ffffffff6109f016565b6002556001600160a01b038216600090815260208190526040902054610aeb908263ffffffff6109f016565b6001600160a01b0383166000818152602081815260408083209490945583518581529351929391927fddf252ad1be2c89b69c2b068fc378daa952ba7f163c4a11628f55a4df523b3ef9281900390910190a35050565b6001600160a01b038216610b865760405162461bcd60e51b8152600401808060200182810382526021815260200180610e286021913960400191505060405180910390fd5b610bc981604051806060016040528060228152602001610d1e602291396001600160a01b038516600090815260208190526040902054919063ffffffff6107fd16565b6001600160a01b038316600090815260208190526040902055600254610bf5908263ffffffff610cb816565b6002556040805182815290516000916001600160a01b038516917fddf252ad1be2c89b69c2b068fc378daa952ba7f163c4a11628f55a4df523b3ef9181900360200190a35050565b610c478282610b41565b6104da82610c5361070d565b61046284604051806060016040528060248152602001610e04602491396001600160a01b038816600090815260016020526040812090610c9161070d565b6001600160a01b03168152602081019190915260400160002054919063ffffffff6107fd16565b6000610a4a83836040518060400160405280601e81526020017f536166654d6174683a207375627472616374696f6e206f766572666c6f7700008152506107fd56fe45524332303a207472616e7366657220746f20746865207a65726f206164647265737345524332303a206275726e20616d6f756e7420657863656564732062616c616e636545524332303a20617070726f766520746f20746865207a65726f20616464726573734d656d6265722073686f756c64206e6f74206265206c6f636b656420666f72206d656d62657220766f74696e6745524332303a207472616e7366657220616d6f756e7420657863656564732062616c616e63654f6e6c79206f70657261746f722063616e2063616c6c206f70657261746f725472616e7366657245524332303a207472616e7366657220616d6f756e74206578636565647320616c6c6f77616e636545524332303a206275726e20616d6f756e74206578636565647320616c6c6f77616e636545524332303a206275726e2066726f6d20746865207a65726f206164647265737345524332303a207472616e736665722066726f6d20746865207a65726f206164647265737345524332303a20617070726f76652066726f6d20746865207a65726f206164647265737345524332303a2064656372656173656420616c6c6f77616e63652062656c6f77207a65726fa265627a7a723158203b5028f7325445fdeb60241f3b0aebfc7e423eeb0f4abd1e83f0dc1c7672196264736f6c63430005110032",
  "linkReferences": {},
  "deployedLinkReferences": {}
}