{
  "_format": "hh-sol-artifact-1",
  "contractName": "ClaimsReward",
  "sourceName": "contracts/NexusMutual/modules/claims/ClaimsReward.sol",
  "abi": [
    {
      "constant": false,
      "inputs": [
        {
          "internalType": "uint256",
          "name": "_records",
          "type": "uint256"
        },
        {
          "internalType": "address",
          "name": "_user",
          "type": "address"
        }
      ],
      "name": "_claimStakeCommission",
      "outputs": [],
      "payable": false,
      "stateMutability": "nonpayable",
      "type": "function"
    },
    {
      "constant": false,
      "inputs": [
        {
          "internalType": "uint256",
          "name": "claimid",
          "type": "uint256"
        }
      ],
      "name": "changeClaimStatus",
      "outputs": [],
      "payable": false,
      "stateMutability": "nonpayable",
      "type": "function"
    },
    {
      "constant": false,
      "inputs": [],
      "name": "changeDependentContractAddress",
      "outputs": [],
      "payable": false,
      "stateMutability": "nonpayable",
      "type": "function"
    },
    {
      "constant": false,
      "inputs": [
        {
          "internalType": "address",
          "name": "_masterAddress",
          "type": "address"
        }
      ],
      "name": "changeMasterAddress",
      "outputs": [],
      "payable": false,
      "stateMutability": "nonpayable",
      "type": "function"
    },
    {
      "constant": false,
      "inputs": [
        {
          "internalType": "uint256",
          "name": "records",
          "type": "uint256"
        }
      ],
      "name": "claimAllPendingReward",
      "outputs": [],
      "payable": false,
      "stateMutability": "nonpayable",
      "type": "function"
    },
    {
      "constant": true,
      "inputs": [
        {
          "internalType": "address",
          "name": "_add",
          "type": "address"
        }
      ],
      "name": "getAllPendingRewardOfUser",
      "outputs": [
        {
          "internalType": "uint256",
          "name": "",
          "type": "uint256"
        }
      ],
      "payable": false,
      "stateMutability": "view",
      "type": "function"
    },
    {
      "constant": true,
      "inputs": [
        {
          "internalType": "uint256",
          "name": "check",
          "type": "uint256"
        },
        {
          "internalType": "uint256",
          "name": "claimId",
          "type": "uint256"
        }
      ],
      "name": "getRewardAndClaimedStatus",
      "outputs": [
        {
          "internalType": "uint256",
          "name": "reward",
          "type": "uint256"
        },
        {
          "internalType": "bool",
          "name": "claimed",
          "type": "bool"
        }
      ],
      "payable": false,
      "stateMutability": "view",
      "type": "function"
    },
    {
      "constant": true,
      "inputs": [
        {
          "internalType": "address",
          "name": "_add",
          "type": "address"
        }
      ],
      "name": "getRewardToBeDistributedByUser",
      "outputs": [
        {
          "internalType": "uint256",
          "name": "total",
          "type": "uint256"
        }
      ],
      "payable": false,
      "stateMutability": "view",
      "type": "function"
    },
    {
      "constant": true,
      "inputs": [
        {
          "internalType": "uint256",
          "name": "check",
          "type": "uint256"
        },
        {
          "internalType": "uint256",
          "name": "voteid",
          "type": "uint256"
        },
        {
          "internalType": "uint256",
          "name": "flag",
          "type": "uint256"
        }
      ],
      "name": "getRewardToBeGiven",
      "outputs": [
        {
          "internalType": "uint256",
          "name": "tokenCalculated",
          "type": "uint256"
        },
        {
          "internalType": "bool",
          "name": "lastClaimedCheck",
          "type": "bool"
        },
        {
          "internalType": "uint256",
          "name": "tokens",
          "type": "uint256"
        },
        {
          "internalType": "uint256",
          "name": "perc",
          "type": "uint256"
        }
      ],
      "payable": false,
      "stateMutability": "view",
      "type": "function"
    },
    {
      "constant": true,
      "inputs": [],
      "name": "ms",
      "outputs": [
        {
          "internalType": "contract INXMMaster",
          "name": "",
          "type": "address"
        }
      ],
      "payable": false,
      "stateMutability": "view",
      "type": "function"
    },
    {
      "constant": true,
      "inputs": [],
      "name": "nxMasterAddress",
      "outputs": [
        {
          "internalType": "address",
          "name": "",
          "type": "address"
        }
      ],
      "payable": false,
      "stateMutability": "view",
      "type": "function"
    },
    {
      "constant": false,
      "inputs": [
        {
          "internalType": "address",
          "name": "_newAdd",
          "type": "address"
        }
      ],
      "name": "upgrade",
      "outputs": [],
      "payable": false,
      "stateMutability": "nonpayable",
      "type": "function"
    }
  ],
  "bytecode": "0x608060405234801561001057600080fd5b50614765806100206000396000f3fe608060405234801561001057600080fd5b50600436106100b45760003560e01c806363bb23be1161007157806363bb23be146101af5780637f6715c9146101cc578063a0b2d57f146101e9578063d46655f41461020d578063df31f20814610233578063f17a3bec14610282576100b4565b806304ee27c6146100b95780630900f010146100e75780630ea9c9841461010d57806335afb14e1461011557806341becc071461014d578063452efce914610189575b600080fd5b6100e5600480360360408110156100cf57600080fd5b50803590602001356001600160a01b031661028a565b005b6100e5600480360360208110156100fd57600080fd5b50356001600160a01b03166108ca565b6100e5610a58565b61013b6004803603602081101561012b57600080fd5b50356001600160a01b031661118f565b60408051918252519081900360200190f35b6101706004803603604081101561016357600080fd5b50803590602001356112c4565b6040805192835290151560208301528051918290030190f35b61013b6004803603602081101561019f57600080fd5b50356001600160a01b031661163a565b6100e5600480360360208110156101c557600080fd5b503561193e565b6100e5600480360360208110156101e257600080fd5b5035611b8f565b6101f1612128565b604080516001600160a01b039092168252519081900360200190f35b6100e56004803603602081101561022357600080fd5b50356001600160a01b0316612137565b61025c6004803603606081101561024957600080fd5b50803590602081013590604001356121c0565b604080519485529215156020850152838301919091526060830152519081900360800190f35b6101f16126a9565b600054604080516323c5b10760e21b815233600482015290516001600160a01b0390921691638f16c41c91602480820192602092909190829003018186803b1580156102d557600080fd5b505afa1580156102e9573d6000803e3d6000fd5b505050506040513d60208110156102ff57600080fd5b505161030a57600080fd5b600554604080516338c97bdd60e21b81526001600160a01b03848116600483015291516000938493169163e325ef74916024808301926020929190829003018186803b15801561035957600080fd5b505afa15801561036d573d6000803e3d6000fd5b505050506040513d602081101561038357600080fd5b505160055460408051631bb5ffcb60e31b81526001600160a01b0387811660048301529151939450600093919092169163ddaffe58916024808301926020929190829003018186803b1580156103d857600080fd5b505afa1580156103ec573d6000803e3d6000fd5b505050506040513d602081101561040257600080fd5b50519050600080808481855b878110801561041c57508a82105b156107445760055460408051637b89c55760e11b81526001600160a01b038d81166004830152602482018590529151919092169163f7138aae916044808301926020929190829003018186803b15801561047557600080fd5b505afa158015610489573d6000803e3d6000fd5b505050506040513d602081101561049f57600080fd5b50516005546040805163057844c560e31b81526001600160a01b038e81166004830152602482018690529151939850911691632bc2262891604480820192602092909190829003018186803b1580156104f757600080fd5b505afa15801561050b573d6000803e3d6000fd5b505050506040513d602081101561052157600080fd5b505160055460408051636a96445160e01b815290519298506106689260649261065c926001600160a01b0390911691636a96445191600480820192602092909190829003018186803b15801561057657600080fd5b505afa15801561058a573d6000803e3d6000fd5b505050506040513d60208110156105a057600080fd5b8101908080519060200190929190505050600560009054906101000a90046001600160a01b03166001600160a01b03166343148d238f876040518363ffffffff1660e01b815260040180836001600160a01b03166001600160a01b031681526020018281526020019250505060206040518083038186803b15801561062457600080fd5b505afa158015610638573d6000803e3d6000fd5b505050506040513d602081101561064e57600080fd5b50519063ffffffff6126b816565b9063ffffffff61271a16565b935087831480156106795750858414155b15610682578092505b6005546001600160a01b031663d9249bff8b836106a58a8a63ffffffff61275c16565b6040518463ffffffff1660e01b815260040180846001600160a01b03166001600160a01b031681526020018381526020018281526020019350505050600060405180830381600087803b1580156106fb57600080fd5b505af115801561070f573d6000803e3d6000fd5b50505050610736610729868861275c90919063ffffffff16565b8a9063ffffffff61279e16565b98506001918201910161040e565b878314156107be5760055460408051631819081760e01b81526001600160a01b038d811660048301526024820185905291519190921691631819081791604480830192600092919082900301818387803b1580156107a157600080fd5b505af11580156107b5573d6000803e3d6000fd5b5050505061082c565b60055460408051631819081760e01b81526001600160a01b038d811660048301526024820187905291519190921691631819081791604480830192600092919082900301818387803b15801561081357600080fd5b505af1158015610827573d6000803e3d6000fd5b505050505b88156108bd576002546040805163a9059cbb60e01b81526001600160a01b038d81166004830152602482018d90529151919092169163a9059cbb9160448083019260209291908290030181600087803b15801561088857600080fd5b505af115801561089c573d6000803e3d6000fd5b505050506040513d60208110156108b257600080fd5b50516108bd57600080fd5b5050505050505050505050565b600054604080516323c5b10760e21b815233600482015290516001600160a01b0390921691638f16c41c91602480820192602092909190829003018186803b15801561091557600080fd5b505afa158015610929573d6000803e3d6000fd5b505050506040513d602081101561093f57600080fd5b505161094a57600080fd5b600254604080516370a0823160e01b815230600482015290516000926001600160a01b0316916370a08231916024808301926020929190829003018186803b15801561099557600080fd5b505afa1580156109a9573d6000803e3d6000fd5b505050506040513d60208110156109bf57600080fd5b505190508015610a54576002546040805163a9059cbb60e01b81526001600160a01b038581166004830152602482018590529151919092169163a9059cbb9160448083019260209291908290030181600087803b158015610a1f57600080fd5b505af1158015610a33573d6000803e3d6000fd5b505050506040513d6020811015610a4957600080fd5b5051610a5457600080fd5b5050565b600054604080516323c5b10760e21b815233600482015290516001600160a01b0390921691638f16c41c91602480820192602092909190829003018186803b158015610aa357600080fd5b505afa158015610ab7573d6000803e3d6000fd5b505050506040513d6020811015610acd57600080fd5b5051610ad857600080fd5b600054604080516227050b60e31b81526110d360f21b600482015290516001600160a01b0390921691630138285891602480820192602092909190829003018186803b158015610b2757600080fd5b505afa158015610b3b573d6000803e3d6000fd5b505050506040513d6020811015610b5157600080fd5b5051600780546001600160a01b0319166001600160a01b03928316179055600054604080516227050b60e31b81526110d160f21b6004820152905191909216916301382858916024808301926020929190829003018186803b158015610bb657600080fd5b505afa158015610bca573d6000803e3d6000fd5b505050506040513d6020811015610be057600080fd5b5051600880546001600160a01b0319166001600160a01b03928316179055600054604080516313aedd4b60e31b815290519190921691639d76ea58916004808301926020929190829003018186803b158015610c3b57600080fd5b505afa158015610c4f573d6000803e3d6000fd5b505050506040513d6020811015610c6557600080fd5b5051600280546001600160a01b0319166001600160a01b03928316179055600054604080516227050b60e31b815261544360f01b6004820152905191909216916301382858916024808301926020929190829003018186803b158015610cca57600080fd5b505afa158015610cde573d6000803e3d6000fd5b505050506040513d6020811015610cf457600080fd5b5051600380546001600160a01b0319166001600160a01b03928316179055600054604080516227050b60e31b815261151160f21b6004820152905191909216916301382858916024808301926020929190829003018186803b158015610d5957600080fd5b505afa158015610d6d573d6000803e3d6000fd5b505050506040513d6020811015610d8357600080fd5b5051600580546001600160a01b0319166001600160a01b03928316179055600054604080516227050b60e31b8152612a2360f11b6004820152905191909216916301382858916024808301926020929190829003018186803b158015610de857600080fd5b505afa158015610dfc573d6000803e3d6000fd5b505050506040513d6020811015610e1257600080fd5b5051600480546001600160a01b0319166001600160a01b03928316178155600054604080516227050b60e31b815261503160f01b9381019390935251921691630138285891602480820192602092909190829003018186803b158015610e7757600080fd5b505afa158015610e8b573d6000803e3d6000fd5b505050506040513d6020811015610ea157600080fd5b5051600980546001600160a01b0319166001600160a01b03928316179055600054604080516227050b60e31b815261281960f11b6004820152905191909216916301382858916024808301926020929190829003018186803b158015610f0657600080fd5b505afa158015610f1a573d6000803e3d6000fd5b505050506040513d6020811015610f3057600080fd5b5051600a80546001600160a01b0319166001600160a01b03928316179055600054604080516227050b60e31b815261141160f21b6004820152905191909216916301382858916024808301926020929190829003018186803b158015610f9557600080fd5b505afa158015610fa9573d6000803e3d6000fd5b505050506040513d6020811015610fbf57600080fd5b5051600b80546001600160a01b0319166001600160a01b03928316179055600054604080516227050b60e31b815261145160f21b6004820152905191909216916301382858916024808301926020929190829003018186803b15801561102457600080fd5b505afa158015611038573d6000803e3d6000fd5b505050506040513d602081101561104e57600080fd5b5051600680546001600160a01b0319166001600160a01b03928316179055600054604080516227050b60e31b81526123ab60f11b6004820152905191909216916301382858916024808301926020929190829003018186803b1580156110b357600080fd5b505afa1580156110c7573d6000803e3d6000fd5b505050506040513d60208110156110dd57600080fd5b5051600c80546001600160a01b0319166001600160a01b03928316179055600054604080516227050b60e31b815261505360f01b6004820152905191909216916301382858916024808301926020929190829003018186803b15801561114257600080fd5b505afa158015611156573d6000803e3d6000fd5b505050506040513d602081101561116c57600080fd5b5051600d80546001600160a01b0319166001600160a01b03909216919091179055565b60008061119b8361163a565b600d5460408051630ea474c760e01b81526001600160a01b03878116600483015291519394506000939190921691630ea474c7916024808301926020929190829003018186803b1580156111ee57600080fd5b505afa158015611202573d6000803e3d6000fd5b505050506040513d602081101561121857600080fd5b5051600c54604080516326fceb5d60e11b81526001600160a01b03888116600483015291519394506000939190921691634df9d6ba916024808301926020929190829003018186803b15801561126d57600080fd5b505afa158015611281573d6000803e3d6000fd5b505050506040513d602081101561129757600080fd5b505190506112bb816112af858563ffffffff61279e16565b9063ffffffff61279e16565b95945050505050565b6000806000806000866001141561147b5760085460408051630d3c678b60e21b815233600482015290516001600160a01b03909216916334f19e2c91602480820192602092909190829003018186803b15801561132057600080fd5b505afa158015611334573d6000803e3d6000fd5b505050506040513d602081101561134a57600080fd5b5051905060005b81811015611475576008546040805163fc57c9bb60e01b81523360048201526024810184905290516001600160a01b039092169163fc57c9bb91604480820192602092909190829003018186803b1580156113ab57600080fd5b505afa1580156113bf573d6000803e3d6000fd5b505050506040513d60208110156113d557600080fd5b5051600854604080516354a1b43160e01b81526004810184905290519296506001600160a01b03909116916354a1b43191602480820192608092909190829003018186803b15801561142657600080fd5b505afa15801561143a573d6000803e3d6000fd5b505050506040513d608081101561145057600080fd5b506020810151606090910151955092508683141561146d57611475565b600101611351565b5061161d565b6008546040805163274d865f60e01b815233600482015290516001600160a01b039092169163274d865f91602480820192602092909190829003018186803b1580156114c657600080fd5b505afa1580156114da573d6000803e3d6000fd5b505050506040513d60208110156114f057600080fd5b5051905060005b8181101561161b5760085460408051637968b71560e11b81523360048201526024810184905290516001600160a01b039092169163f2d16e2a91604480820192602092909190829003018186803b15801561155157600080fd5b505afa158015611565573d6000803e3d6000fd5b505050506040513d602081101561157b57600080fd5b5051600854604080516354a1b43160e01b81526004810184905290519296506001600160a01b03909116916354a1b43191602480820192608092909190829003018186803b1580156115cc57600080fd5b505afa1580156115e0573d6000803e3d6000fd5b505050506040513d60808110156115f657600080fd5b50602081015160609091015195509250868314156116135761161b565b6001016114f7565b505b611629878460016121c0565b509199959850949650505050505050565b60085460408051630d3c678b60e21b81526001600160a01b0384811660048301529151600093849316916334f19e2c916024808301926020929190829003018186803b15801561168957600080fd5b505afa15801561169d573d6000803e3d6000fd5b505050506040513d60208110156116b357600080fd5b5051600854604080516304ecffeb60e01b81526001600160a01b038781166004830152825194955060009485948594859493909116926304ecffeb9260248083019392829003018186803b15801561170a57600080fd5b505afa15801561171e573d6000803e3d6000fd5b505050506040513d604081101561173457600080fd5b5080516020909101519094509250835b858110156117fd576008546040805163fc57c9bb60e01b81526001600160a01b038b81166004830152602482018590529151919092169163fc57c9bb916044808301926020929190829003018186803b1580156117a057600080fd5b505afa1580156117b4573d6000803e3d6000fd5b505050506040513d60208110156117ca57600080fd5b505191506117db60018360006121c0565b509194506117f391508890508463ffffffff61279e16565b9650600101611744565b506008546040805163274d865f60e01b81526001600160a01b038a811660048301529151919092169163274d865f916024808301926020929190829003018186803b15801561184b57600080fd5b505afa15801561185f573d6000803e3d6000fd5b505050506040513d602081101561187557600080fd5b50519450825b858110156119335760085460408051637968b71560e11b81526001600160a01b038b81166004830152602482018590529151919092169163f2d16e2a916044808301926020929190829003018186803b1580156118d757600080fd5b505afa1580156118eb573d6000803e3d6000fd5b505050506040513d602081101561190157600080fd5b50519150611911600083816121c0565b5091945061192991508890508463ffffffff61279e16565b965060010161187b565b505050505050919050565b6000809054906101000a90046001600160a01b03166001600160a01b031663ff0938a76040518163ffffffff1660e01b815260040160206040518083038186803b15801561198b57600080fd5b505afa15801561199f573d6000803e3d6000fd5b505050506040513d60208110156119b557600080fd5b5051158015611a3c57506000546040805163288c314960e21b815233600482015290516001600160a01b039092169163a230c52491602480820192602092909190829003018186803b158015611a0a57600080fd5b505afa158015611a1e573d6000803e3d6000fd5b505050506040513d6020811015611a3457600080fd5b505115156001145b611a4557600080fd5b611a4e816127f8565b600d5460408051632e1b8c8760e21b815233600482015290516001600160a01b039092169163b86e321c9160248082019260009290919082900301818387803b158015611a9a57600080fd5b505af1158015611aae573d6000803e3d6000fd5b5050600c54604080516305d38c7160e21b8152336004820152602481018690529051600094506001600160a01b03909216925063174e31c491604480830192602092919082900301818787803b158015611b0757600080fd5b505af1158015611b1b573d6000803e3d6000fd5b505050506040513d6020811015611b3157600080fd5b505190508015610a54576002546040805163a9059cbb60e01b81523360048201526024810184905290516001600160a01b039092169163a9059cbb916044808201926020929091908290030181600087803b158015610a1f57600080fd5b6000809054906101000a90046001600160a01b03166001600160a01b031663ff0938a76040518163ffffffff1660e01b815260040160206040518083038186803b158015611bdc57600080fd5b505afa158015611bf0573d6000803e3d6000fd5b505050506040513d6020811015611c0657600080fd5b505115611c1257600080fd5b600054604080516323c5b10760e21b815233600482015290516001600160a01b0390921691638f16c41c91602480820192602092909190829003018186803b158015611c5d57600080fd5b505afa158015611c71573d6000803e3d6000fd5b505050506040513d6020811015611c8757600080fd5b5051611c9257600080fd5b600854604080516396ff592f60e01b81526004810184905281516000936001600160a01b0316926396ff592f9260248082019391829003018186803b158015611cda57600080fd5b505afa158015611cee573d6000803e3d6000fd5b505050506040513d6040811015611d0457600080fd5b506020015160085460408051630325ea3760e01b81526004810186905281519394506000936001600160a01b0390931692630325ea3792602480840193919291829003018186803b158015611d5857600080fd5b505afa158015611d6c573d6000803e3d6000fd5b505050506040513d6040811015611d8257600080fd5b5060200151905080611d9e57611d998383836133d9565b6120bb565b60018110158015611db0575060058111155b15611dc057611d99838383613869565b80600c14156120bb5760065460408051631ce48f3d60e01b8152600481018590529051600092611e2692670de0b6b3a7640000926001600160a01b0390921691631ce48f3d91602480820192602092909190829003018186803b15801561062457600080fd5b60065460408051633c2d4daf60e01b81526004810187905290519293506000926001600160a01b0390921691633c2d4daf91602480820192602092909190829003018186803b158015611e7857600080fd5b505afa158015611e8c573d6000803e3d6000fd5b505050506040513d6020811015611ea257600080fd5b5051600654604080516322d5c8bd60e21b81526004810188905290519293506000926001600160a01b0390921691638b5722f491602480820192602092909190829003018186803b158015611ef657600080fd5b505afa158015611f0a573d6000803e3d6000fd5b505050506040513d6020811015611f2057600080fd5b505160095460408051634cddac2b60e11b815260048101899052602481018a9052604481018790526001600160a01b0386811660648301526001600160e01b031985166084830152915193945060009391909216916399bb58569160a480830192602092919082900301818787803b158015611f9b57600080fd5b505af1158015611faf573d6000803e3d6000fd5b505050506040513d6020811015611fc557600080fd5b5051905080156120b657600480546040805163fd5509b760e01b81529283018990526001600160e01b03198516602484015260448301879052516001600160a01b039091169163fd5509b791606480830192600092919082900301818387803b15801561203157600080fd5b505af1158015612045573d6000803e3d6000fd5b505060075460408051637a88deff60e11b8152600481018c9052600e602482015290516001600160a01b03909216935063f511bdfe925060448082019260009290919082900301818387803b15801561209d57600080fd5b505af11580156120b1573d6000803e3d6000fd5b505050505b505050505b600760009054906101000a90046001600160a01b03166001600160a01b031663b23d76346040518163ffffffff1660e01b8152600401600060405180830381600087803b15801561210b57600080fd5b505af115801561211f573d6000803e3d6000fd5b50505050505050565b6000546001600160a01b031681565b6000546001600160a01b031615612194576000546001600160a01b03163314612194576040805162461bcd60e51b815260206004820152600a6024820152692737ba1036b0b9ba32b960b11b604482015290519081900360640190fd5b600080546001600160a01b039092166001600160a01b0319928316811790915560018054909216179055565b6000806000806000806000806000600860009054906101000a90046001600160a01b03166001600160a01b03166354a1b4318c6040518263ffffffff1660e01b81526004018082815260200191505060806040518083038186803b15801561222757600080fd5b505afa15801561223b573d6000803e3d6000fd5b505050506040513d608081101561225157600080fd5b5080516020808301516040808501516060909501516008548251631381b00560e21b815260048101859052925160009f50959d50929a509498509396508b936001600160a01b0390911692634e06c01492602480840193919291829003018186803b1580156122bf57600080fd5b505afa1580156122d3573d6000803e3d6000fd5b505050506040513d60208110156122e957600080fd5b50519050600081900b6122fb57600198505b8460000b8160000b148015612318575083158061231857508a6001145b1561269a578c600114156123af576008546040805163c49a8b1960e01b81526004810189905290516001600160a01b039092169163c49a8b1991602480820192606092909190829003018186803b15801561237257600080fd5b505afa158015612386573d6000803e3d6000fd5b505050506040513d606081101561239c57600080fd5b5080516040909101519097509250612437565b6008546040805163c49a8b1960e01b81526004810189905290516001600160a01b039092169163c49a8b1991602480820192606092909190829003018186803b1580156123fb57600080fd5b505afa15801561240f573d6000803e3d6000fd5b505050506040513d606081101561242557600080fd5b50602081015160409091015190975092505b861561269a578c60011415612557578460000b600114156124d457600854604080516336f4019360e21b81526004810189905290516001600160a01b039092169163dbd0064c91602480820192606092909190829003018186803b15801561249e57600080fd5b505afa1580156124b2573d6000803e3d6000fd5b505050506040513d60608110156124c857600080fd5b50602001519150612552565b600854604080516336f4019360e21b81526004810189905290516001600160a01b039092169163dbd0064c91602480820192606092909190829003018186803b15801561252057600080fd5b505afa158015612534573d6000803e3d6000fd5b505050506040513d606081101561254a57600080fd5b506040015191505b612663565b8460000b600114156125e55760085460408051634a4ecebb60e11b81526004810189905290516001600160a01b039092169163949d9d7691602480820192606092909190829003018186803b1580156125af57600080fd5b505afa1580156125c3573d6000803e3d6000fd5b505050506040513d60608110156125d957600080fd5b50602001519150612663565b60085460408051634a4ecebb60e11b81526004810189905290516001600160a01b039092169163949d9d7691602480820192606092909190829003018186803b15801561263157600080fd5b505afa158015612645573d6000803e3d6000fd5b505050506040513d606081101561265b57600080fd5b506040015191505b61269761267783606463ffffffff6126b816565b61065c8561268b8b8d63ffffffff6126b816565b9063ffffffff6126b816565b99505b50505050505093509350935093565b6001546001600160a01b031681565b6000826126c757506000612714565b828202828482816126d457fe5b04146127115760405162461bcd60e51b81526004018080602001828103825260218152602001806147106021913960400191505060405180910390fd5b90505b92915050565b600061271183836040518060400160405280601a81526020017f536166654d6174683a206469766973696f6e206279207a65726f000000000000815250613d17565b600061271183836040518060400160405280601e81526020017f536166654d6174683a207375627472616374696f6e206f766572666c6f770000815250613db9565b600082820183811015612711576040805162461bcd60e51b815260206004820152601b60248201527f536166654d6174683a206164646974696f6e206f766572666c6f770000000000604482015290519081900360640190fd5b60085460408051630d3c678b60e21b815233600482015290516000926001600160a01b0316916334f19e2c916024808301926020929190829003018186803b15801561284357600080fd5b505afa158015612857573d6000803e3d6000fd5b505050506040513d602081101561286d57600080fd5b5051600854604080516304ecffeb60e01b8152336004820152815193945060009384936001600160a01b0316926304ecffeb9260248082019391829003018186803b1580156128bb57600080fd5b505afa1580156128cf573d6000803e3d6000fd5b505050506040513d60408110156128e557600080fd5b50516005546040805163034b044160e21b815290519293506000928392839283926001600160a01b0390921691630d2c110491600480820192602092909190829003018186803b15801561293857600080fd5b505afa15801561294c573d6000803e3d6000fd5b505050506040513d602081101561296257600080fd5b505190506000808080888b5b8c8210801561297c57508d85105b15612ced576008546040805163fc57c9bb60e01b81523360048201526024810185905290516001600160a01b039092169163fc57c9bb91604480820192602092909190829003018186803b1580156129d357600080fd5b505afa1580156129e7573d6000803e3d6000fd5b505050506040513d60208110156129fd57600080fd5b50519b50612a0e60018d60006121c0565b929b5090995090935050808d148015612a2957506001881515145b15612a315750805b600854604080516354a1b43160e01b8152600481018f905290516001600160a01b03909216916354a1b43191602480820192608092909190829003018186803b158015612a7d57600080fd5b505afa158015612a91573d6000803e3d6000fd5b505050506040513d6080811015612aa757600080fd5b506020810151606090910151965093508215801590612ac4575085155b15612b40576008546040805163f27a104760e01b8152600481018f9052600160248201819052915191909701966001600160a01b039092169163f27a104791604480830192600092919082900301818387803b158015612b2357600080fd5b505af1158015612b37573d6000803e3d6000fd5b50505050612cc9565b82158015612bc7575060085460408051631381b00560e21b81526004810187905290516001600160a01b0390921691634e06c01491602480820192602092909190829003018186803b158015612b9557600080fd5b505afa158015612ba9573d6000803e3d6000fd5b505050506040513d6020811015612bbf57600080fd5b505160000b15155b8015612bd1575085155b15612cc9576008546040805163c49a8b1960e01b81526004810187905290516001600160a01b039092169163c49a8b1991602480820192606092909190829003018186803b158015612c2257600080fd5b505afa158015612c36573d6000803e3d6000fd5b505050506040513d6060811015612c4c57600080fd5b5051925082612c5c576001909401935b6008546040805163f27a104760e01b8152600481018f90526001602482015290516001600160a01b039092169163f27a10479160448082019260009290919082900301818387803b158015612cb057600080fd5b505af1158015612cc4573d6000803e3d6000fd5b505050505b8815612ce257612cdf898b63ffffffff61279e16565b99505b60019091019061296e565b8c811415612d655760085460408051632f9f2f1760e21b81523360048201526024810185905290516001600160a01b039092169163be7cbc5c9160448082019260009290919082900301818387803b158015612d4857600080fd5b505af1158015612d5c573d6000803e3d6000fd5b50505050612dd1565b60085460408051632f9f2f1760e21b81523360048201526024810184905290516001600160a01b039092169163be7cbc5c9160448082019260009290919082900301818387803b158015612db857600080fd5b505af1158015612dcc573d6000803e3d6000fd5b505050505b6008546040805163274d865f60e01b815233600482015290516001600160a01b039092169163274d865f91602480820192602092909190829003018186803b158015612e1c57600080fd5b505afa158015612e30573d6000803e3d6000fd5b505050506040513d6020811015612e4657600080fd5b50519c508c9050612e5d878663ffffffff6126b816565b6003546040805163179e91f160e01b815233600482015262434c4160e81b602482015242604482015290519299506000926001600160a01b039092169163179e91f191606480820192602092909190829003018186803b158015612ec057600080fd5b505afa158015612ed4573d6000803e3d6000fd5b505050506040513d6020811015612eea57600080fd5b50511115612f6a5760035460408051631fea558f60e01b815233600482015262434c4160e81b6024820152604481018a905290516001600160a01b0390921691631fea558f9160648082019260009290919082900301818387803b158015612f5157600080fd5b505af1158015612f65573d6000803e3d6000fd5b505050505b600854604080516304ecffeb60e01b815233600482015281516001600160a01b03909316926304ecffeb92602480840193919291829003018186803b158015612fb257600080fd5b505afa158015612fc6573d6000803e3d6000fd5b505050506040513d6040811015612fdc57600080fd5b50602001519a50600094508a91508c90505b8c82108015612ffc57508d85105b156132565760085460408051637968b71560e11b81523360048201526024810185905290516001600160a01b039092169163f2d16e2a91604480820192602092909190829003018186803b15801561305357600080fd5b505afa158015613067573d6000803e3d6000fd5b505050506040513d602081101561307d57600080fd5b50519b5061308d60008d816121c0565b50919a50985050808d1480156130a557506001881515145b156130ad5750805b600854604080516354a1b43160e01b8152600481018f905290516001600160a01b03909216916354a1b43191602480820192608092909190829003018186803b1580156130f957600080fd5b505afa15801561310d573d6000803e3d6000fd5b505050506040513d608081101561312357600080fd5b50602081015160609091015196509350851580156131ba575060085460408051631381b00560e21b81526004810187905290516001600160a01b0390921691634e06c01491602480820192602092909190829003018186803b15801561318857600080fd5b505afa15801561319c573d6000803e3d6000fd5b505050506040513d60208110156131b257600080fd5b505160000b15155b15613232576008546040805163f27a104760e01b8152600481018f90526001602482015290516001600160a01b039092169163f27a10479160448082019260009290919082900301818387803b15801561321357600080fd5b505af1158015613227573d6000803e3d6000fd5b505060019096019550505b881561324b57613248898b63ffffffff61279e16565b99505b600190910190612fee565b89156132e5576002546040805163a9059cbb60e01b8152336004820152602481018d905290516001600160a01b039092169163a9059cbb916044808201926020929091908290030181600087803b1580156132b057600080fd5b505af11580156132c4573d6000803e3d6000fd5b505050506040513d60208110156132da57600080fd5b50516132e557600080fd5b8c81141561335d5760085460408051630f305e9560e21b81523360048201526024810185905290516001600160a01b0390921691633cc17a549160448082019260009290919082900301818387803b15801561334057600080fd5b505af1158015613354573d6000803e3d6000fd5b505050506133c9565b60085460408051630f305e9560e21b81523360048201526024810184905290516001600160a01b0390921691633cc17a549160448082019260009290919082900301818387803b1580156133b057600080fd5b505af11580156133c4573d6000803e3d6000fd5b505050505b5050505050505050505050505050565b6007546040805163778aa67960e11b81526004810186905290516001600160a01b039092169163ef154cf291602480820192602092909190829003018186803b15801561342557600080fd5b505afa158015613439573d6000803e3d6000fd5b505050506040513d602081101561344f57600080fd5b505160000b6001141561386457600754604080516357af051560e01b815260048101869052600060248201819052915191926001600160a01b0316916357af051591604480820192602092909190829003018186803b1580156134b157600080fd5b505afa1580156134c5573d6000803e3d6000fd5b505050506040513d60208110156134db57600080fd5b505160085460408051631509d4c960e21b81526004810188905260016024820152815193945060009384938493849384936001600160a01b0390931692635427532492604480840193919291829003018186803b15801561353b57600080fd5b505afa15801561354f573d6000803e3d6000fd5b505050506040513d604081101561356557600080fd5b506020015160085460408051631509d4c960e21b8152600481018d9052600019602482015281519398506001600160a01b03909216926354275324926044808201939291829003018186803b1580156135bd57600080fd5b505afa1580156135d1573d6000803e3d6000fd5b505050506040513d60408110156135e757600080fd5b506020015193506135fe858563ffffffff61279e16565b925061361185606463ffffffff6126b816565b945061362484606463ffffffff6126b816565b93508561363457600396506137df565b60065460408051631ce48f3d60e01b8152600481018b9052905161368e92670de0b6b3a7640000926001600160a01b0390911691631ce48f3d91602480820192602092909190829003018186803b15801561062457600080fd5b90506136a181600563ffffffff6126b816565b8611156137ab5760466136ba868563ffffffff61271a16565b111561373d57600654600797506001600160a01b031663ae1c5eca8960015b6040518363ffffffff1660e01b8152600401808381526020018260ff1660ff16815260200192505050600060405180830381600087803b15801561371c57600080fd5b505af1158015613730573d6000803e3d6000fd5b50505050600191506137a6565b604661374f858563ffffffff61271a16565b111561377257600680549097506001600160a01b031663ae1c5eca8960026136d9565b613782848463ffffffff61271a16565b613792868563ffffffff61271a16565b11156137a157600496506137a6565b600596505b6137df565b6137bb848463ffffffff61271a16565b6137cb868563ffffffff61271a16565b11156137da57600296506137df565b600396505b60075460408051637a88deff60e11b8152600481018c9052602481018a905290516001600160a01b039092169163f511bdfe9160448082019260009290919082900301818387803b15801561383357600080fd5b505af1158015613847573d6000803e3d6000fd5b50505050811561385d5761385d8989838a613e13565b5050505050505b505050565b6007546040805163778aa67960e11b81526004810186905290516001600160a01b039092169163ef154cf291602480820192602092909190829003018186803b1580156138b557600080fd5b505afa1580156138c9573d6000803e3d6000fd5b505050506040513d60208110156138df57600080fd5b505160000b6001141561386457600754604080516357af051560e01b815260048101869052600160248201529051600092849284926001600160a01b03909216916357af051591604480820192602092909190829003018186803b15801561394657600080fd5b505afa15801561395a573d6000803e3d6000fd5b505050506040513d602081101561397057600080fd5b505160065460408051631ce48f3d60e01b81526004810189905290519293506000926139d292670de0b6b3a7640000926001600160a01b0390911691631ce48f3d91602480820192602092909190829003018186803b15801561062457600080fd5b905060006139e782600563ffffffff6126b816565b8310156139f2575060015b60085460408051635ca1ce8b60e01b8152600481018b90526001602482015281516000936001600160a01b031692635ca1ce8b9260448082019391829003018186803b158015613a4157600080fd5b505afa158015613a55573d6000803e3d6000fd5b505050506040513d6040811015613a6b57600080fd5b506020015160085460408051635ca1ce8b60e01b8152600481018d9052600019602482015281519394506000936001600160a01b0390931692635ca1ce8b92604480840193919291829003018186803b158015613ac757600080fd5b505afa158015613adb573d6000803e3d6000fd5b505050506040513d6040811015613af157600080fd5b506020015190506000613b0a838363ffffffff61279e16565b1115613bc6576032613b36613b25848463ffffffff61279e16565b61065c85606463ffffffff6126b816565b10158015613b445750600186115b8015613b51575060058611155b8015613b5b575082155b15613b6d576008975060019650613bc6565b6032613b93613b82848463ffffffff61279e16565b61065c84606463ffffffff6126b816565b10158015613ba15750600186115b8015613bae575060058611155b8015613bb8575082155b15613bc65760099750600296505b826001148015613be057508560021480613be05750856004145b15613bf257600a975060019650613c25565b826001148015613c1757508560051480613c0c5750856003145b80613c175750856001145b15613c2557600b9750600296505b60075460408051637a88deff60e11b8152600481018d9052602481018b905290516001600160a01b039092169163f511bdfe9160448082019260009290919082900301818387803b158015613c7957600080fd5b505af1158015613c8d573d6000803e3d6000fd5b50506006546040805163570e2f6560e11b8152600481018e905260ff8c16602482015290516001600160a01b03909216935063ae1c5eca925060448082019260009290919082900301818387803b158015613ce757600080fd5b505af1158015613cfb573d6000803e3d6000fd5b50505050613d0b8a8a868b613e13565b50505050505050505050565b60008183613da35760405162461bcd60e51b81526004018080602001828103825283818151815260200191508051906020019080838360005b83811015613d68578181015183820152602001613d50565b50505050905090810190601f168015613d955780820380516001836020036101000a031916815260200191505b509250505060405180910390fd5b506000838581613daf57fe5b0495945050505050565b60008184841115613e0b5760405162461bcd60e51b8152602060048201818152835160248401528351909283926044909101919085019080838360008315613d68578181015183820152602001613d50565b505050900390565b6006546040805163ba38de3560e01b81526004810186905290516000926001600160a01b03169163ba38de35916024808301926020929190829003018186803b158015613e5f57600080fd5b505afa158015613e73573d6000803e3d6000fd5b505050506040513d6020811015613e8957600080fd5b5051600654604080516322d5c8bd60e21b81526004810188905290519293506000926001600160a01b0390921691638b5722f491602480820192602092909190829003018186803b158015613edd57600080fd5b505afa158015613ef1573d6000803e3d6000fd5b505050506040513d6020811015613f0757600080fd5b505160085460408051635459cad560e11b81529051929350600092613f989260649261065c926001600160a01b039092169163a8b395aa91600480820192602092909190829003018186803b158015613f5f57600080fd5b505afa158015613f73573d6000803e3d6000fd5b505050506040513d6020811015613f8957600080fd5b5051869063ffffffff6126b816565b60085460408051635f39579d60e01b815260048101889052815193945060009384936001600160a01b031692635f39579d9260248082019391829003018186803b158015613fe557600080fd5b505afa158015613ff9573d6000803e3d6000fd5b505050506040513d604081101561400f57600080fd5b50805160209091015160085460408051636339392560e11b8152600481018e905260248101859052604481018490526064810188905290519395509193506001600160a01b03169163c672724a9160848082019260009290919082900301818387803b15801561407e57600080fd5b505af1158015614092573d6000803e3d6000fd5b5050505060008211806140a55750600081115b1561411657600354604080516340c10f1960e01b81523060048201526024810186905290516001600160a01b03909216916340c10f199160448082019260009290919082900301818387803b1580156140fd57600080fd5b505af1158015614111573d6000803e3d6000fd5b505050505b85600614806141255750856009145b80614130575085600b145b156143f957600854604080516346f4da5760e01b8152600481018c9052600019602482015290516001600160a01b03909216916346f4da579160448082019260009290919082900301818387803b15801561418a57600080fd5b505af115801561419e573d6000803e3d6000fd5b5050600554604080516308831d5960e41b8152600481018d905260006024820181905291516001600160a01b039093169450638831d59093506044808201939182900301818387803b1580156141f357600080fd5b505af1158015614207573d6000803e3d6000fd5b50506004805460408051637dded30d60e01b81529283018d9052516001600160a01b039091169350637dded30d925060248083019260209291908290030181600087803b15801561425757600080fd5b505af115801561426b573d6000803e3d6000fd5b505050506040513d602081101561428157600080fd5b5050600b546040805162487d2d60e81b81526001600160e01b03198716600482015290516001600160a01b039092169163d175058591879161431e918c91869163487d2d00916024808301926020929190829003018186803b1580156142e657600080fd5b505afa1580156142fa573d6000803e3d6000fd5b505050506040513d602081101561431057600080fd5b50519063ffffffff61275c16565b6040518363ffffffff1660e01b815260040180836001600160e01b0319166001600160e01b031916815260200182815260200192505050600060405180830381600087803b15801561436f57600080fd5b505af1158015614383573d6000803e3d6000fd5b5050600a5460408051622d9fa560e81b81526001600160e01b03198916600482015290516001600160a01b039092169350632d9fa500925060248082019260009290919082900301818387803b1580156143dc57600080fd5b505af11580156143f0573d6000803e3d6000fd5b5050505061385d565b85600714806144085750856008145b80614413575085600a145b1561385d57600854604080516346f4da5760e01b8152600481018c90526001602482015290516001600160a01b03909216916346f4da579160448082019260009290919082900301818387803b15801561446c57600080fd5b505af1158015614480573d6000803e3d6000fd5b5050600554604080516308831d5960e41b8152600481018d905260006024820181905291516001600160a01b039093169450638831d59093506044808201939182900301818387803b1580156144d557600080fd5b505af11580156144e9573d6000803e3d6000fd5b5050600480546040805163217d488160e21b81529283018d9052516001600160a01b0390911693506385f522049250602480830192600092919082900301818387803b15801561453857600080fd5b505af115801561454c573d6000803e3d6000fd5b505050506000600960009054906101000a90046001600160a01b03166001600160a01b03166399bb58568a8c8b600660009054906101000a90046001600160a01b03166001600160a01b0316633c2d4daf8f6040518263ffffffff1660e01b81526004018082815260200191505060206040518083038186803b1580156145d257600080fd5b505afa1580156145e6573d6000803e3d6000fd5b505050506040513d60208110156145fc57600080fd5b5051604080516001600160e01b031960e088901b811682526004820196909652602481019490945260448401929092526001600160a01b031660648301529189166084820152905160a48083019260209291908290030181600087803b15801561466557600080fd5b505af1158015614679573d6000803e3d6000fd5b505050506040513d602081101561468f57600080fd5b505190508015613d0b57600480546040805163fd5509b760e01b81529283018c90526001600160e01b031988166024840152604483018b9052516001600160a01b039091169163fd5509b791606480830192600092919082900301818387803b1580156146fb57600080fd5b505af11580156133c9573d6000803e3d6000fdfe536166654d6174683a206d756c7469706c69636174696f6e206f766572666c6f77a265627a7a72315820b2d8e522cb26a227ea3bb08e4b97ac0063bc1d68b8c2820421964f5c1d7b1da964736f6c63430005110032",
  "linkReferences": {},
  "deployedLinkReferences": {}
}