{
  "_format": "hh-sol-artifact-1",
  "contractName": "Governed",
  "sourceName": "contracts/NexusMutual/modules/governance/external/Governed.sol",
  "abi": [
    {
      "constant": true,
      "inputs": [
        {
          "internalType": "address",
          "name": "_toCheck",
          "type": "address"
        }
      ],
      "name": "isAuthorizedToGovern",
      "outputs": [
        {
          "internalType": "bool",
          "name": "",
          "type": "bool"
        }
      ],
      "payable": false,
      "stateMutability": "view",
      "type": "function"
    },
    {
      "constant": true,
      "inputs": [],
      "name": "masterAddress",
      "outputs": [
        {
          "internalType": "address",
          "name": "",
          "type": "address"
        }
      ],
      "payable": false,
      "stateMutability": "view",
      "type": "function"
    }
  ],
  "bytecode": "0x608060405234801561001057600080fd5b5061016f806100206000396000f3fe608060405234801561001057600080fd5b50600436106100365760003560e01c806322ce72541461003b578063d365a08e14610075575b600080fd5b6100616004803603602081101561005157600080fd5b50356001600160a01b0316610099565b604080519115158252519081900360200190f35b61007d61012b565b604080516001600160a01b039092168252519081900360200190f35b60008054604080516227050b60e31b81526123ab60f11b600482015290516001600160a01b03928316928516918391630138285891602480820192602092909190829003018186803b1580156100ee57600080fd5b505afa158015610102573d6000803e3d6000fd5b505050506040513d602081101561011857600080fd5b50516001600160a01b0316149392505050565b6000546001600160a01b03168156fea265627a7a72315820bc59c6cfb6f7b144dab588572f0e855e63878c79d946e6dad959ba78dc82a52c64736f6c63430005110032",
  "linkReferences": {},
  "deployedLinkReferences": {}
}