{
  "_format": "hh-sol-artifact-1",
  "contractName": "MemberRoles",
  "sourceName": "contracts/NexusMutual/modules/governance/MemberRoles.sol",
  "abi": [
    {
      "anonymous": false,
      "inputs": [
        {
          "indexed": true,
          "internalType": "uint256",
          "name": "roleId",
          "type": "uint256"
        },
        {
          "indexed": false,
          "internalType": "bytes32",
          "name": "roleName",
          "type": "bytes32"
        },
        {
          "indexed": false,
          "internalType": "string",
          "name": "roleDescription",
          "type": "string"
        }
      ],
      "name": "MemberRole",
      "type": "event"
    },
    {
      "anonymous": false,
      "inputs": [
        {
          "indexed": true,
          "internalType": "address",
          "name": "previousMember",
          "type": "address"
        },
        {
          "indexed": true,
          "internalType": "address",
          "name": "newMember",
          "type": "address"
        },
        {
          "indexed": false,
          "internalType": "uint256",
          "name": "timeStamp",
          "type": "uint256"
        }
      ],
      "name": "switchedMembership",
      "type": "event"
    },
    {
      "constant": false,
      "inputs": [
        {
          "internalType": "address[]",
          "name": "abArray",
          "type": "address[]"
        }
      ],
      "name": "addInitialABMembers",
      "outputs": [],
      "payable": false,
      "stateMutability": "nonpayable",
      "type": "function"
    },
    {
      "constant": false,
      "inputs": [
        {
          "internalType": "address[]",
          "name": "userArray",
          "type": "address[]"
        },
        {
          "internalType": "uint256[]",
          "name": "tokens",
          "type": "uint256[]"
        }
      ],
      "name": "addMembersBeforeLaunch",
      "outputs": [],
      "payable": false,
      "stateMutability": "nonpayable",
      "type": "function"
    },
    {
      "constant": false,
      "inputs": [
        {
          "internalType": "bytes32",
          "name": "_roleName",
          "type": "bytes32"
        },
        {
          "internalType": "string",
          "name": "_roleDescription",
          "type": "string"
        },
        {
          "internalType": "address",
          "name": "_authorized",
          "type": "address"
        }
      ],
      "name": "addRole",
      "outputs": [],
      "payable": false,
      "stateMutability": "nonpayable",
      "type": "function"
    },
    {
      "constant": true,
      "inputs": [
        {
          "internalType": "uint256",
          "name": "_memberRoleId",
          "type": "uint256"
        }
      ],
      "name": "authorized",
      "outputs": [
        {
          "internalType": "address",
          "name": "",
          "type": "address"
        }
      ],
      "payable": false,
      "stateMutability": "view",
      "type": "function"
    },
    {
      "constant": false,
      "inputs": [
        {
          "internalType": "uint256",
          "name": "_roleId",
          "type": "uint256"
        },
        {
          "internalType": "address",
          "name": "_newAuthorized",
          "type": "address"
        }
      ],
      "name": "changeAuthorized",
      "outputs": [],
      "payable": false,
      "stateMutability": "nonpayable",
      "type": "function"
    },
    {
      "constant": false,
      "inputs": [],
      "name": "changeDependentContractAddress",
      "outputs": [],
      "payable": false,
      "stateMutability": "nonpayable",
      "type": "function"
    },
    {
      "constant": false,
      "inputs": [
        {
          "internalType": "address",
          "name": "_masterAddress",
          "type": "address"
        }
      ],
      "name": "changeMasterAddress",
      "outputs": [],
      "payable": false,
      "stateMutability": "nonpayable",
      "type": "function"
    },
    {
      "constant": false,
      "inputs": [
        {
          "internalType": "uint256",
          "name": "_val",
          "type": "uint256"
        }
      ],
      "name": "changeMaxABCount",
      "outputs": [],
      "payable": false,
      "stateMutability": "nonpayable",
      "type": "function"
    },
    {
      "constant": true,
      "inputs": [
        {
          "internalType": "address",
          "name": "_memberAddress",
          "type": "address"
        },
        {
          "internalType": "uint256",
          "name": "_roleId",
          "type": "uint256"
        }
      ],
      "name": "checkRole",
      "outputs": [
        {
          "internalType": "bool",
          "name": "",
          "type": "bool"
        }
      ],
      "payable": false,
      "stateMutability": "view",
      "type": "function"
    },
    {
      "constant": true,
      "inputs": [],
      "name": "dAppToken",
      "outputs": [
        {
          "internalType": "contract TokenController",
          "name": "",
          "type": "address"
        }
      ],
      "payable": false,
      "stateMutability": "view",
      "type": "function"
    },
    {
      "constant": true,
      "inputs": [],
      "name": "getMemberLengthForAllRoles",
      "outputs": [
        {
          "internalType": "uint256[]",
          "name": "totalMembers",
          "type": "uint256[]"
        }
      ],
      "payable": false,
      "stateMutability": "view",
      "type": "function"
    },
    {
      "constant": true,
      "inputs": [
        {
          "internalType": "address",
          "name": "_toCheck",
          "type": "address"
        }
      ],
      "name": "isAuthorizedToGovern",
      "outputs": [
        {
          "internalType": "bool",
          "name": "",
          "type": "bool"
        }
      ],
      "payable": false,
      "stateMutability": "view",
      "type": "function"
    },
    {
      "constant": false,
      "inputs": [
        {
          "internalType": "address payable",
          "name": "_userAddress",
          "type": "address"
        },
        {
          "internalType": "bool",
          "name": "verdict",
          "type": "bool"
        }
      ],
      "name": "kycVerdict",
      "outputs": [],
      "payable": false,
      "stateMutability": "nonpayable",
      "type": "function"
    },
    {
      "constant": true,
      "inputs": [],
      "name": "launched",
      "outputs": [
        {
          "internalType": "bool",
          "name": "",
          "type": "bool"
        }
      ],
      "payable": false,
      "stateMutability": "view",
      "type": "function"
    },
    {
      "constant": true,
      "inputs": [],
      "name": "launchedOn",
      "outputs": [
        {
          "internalType": "uint256",
          "name": "",
          "type": "uint256"
        }
      ],
      "payable": false,
      "stateMutability": "view",
      "type": "function"
    },
    {
      "constant": true,
      "inputs": [],
      "name": "masterAddress",
      "outputs": [
        {
          "internalType": "address",
          "name": "",
          "type": "address"
        }
      ],
      "payable": false,
      "stateMutability": "view",
      "type": "function"
    },
    {
      "constant": true,
      "inputs": [],
      "name": "maxABCount",
      "outputs": [
        {
          "internalType": "uint256",
          "name": "",
          "type": "uint256"
        }
      ],
      "payable": false,
      "stateMutability": "view",
      "type": "function"
    },
    {
      "constant": true,
      "inputs": [
        {
          "internalType": "uint256",
          "name": "_memberRoleId",
          "type": "uint256"
        },
        {
          "internalType": "uint256",
          "name": "index",
          "type": "uint256"
        }
      ],
      "name": "memberAtIndex",
      "outputs": [
        {
          "internalType": "address",
          "name": "",
          "type": "address"
        },
        {
          "internalType": "bool",
          "name": "",
          "type": "bool"
        }
      ],
      "payable": false,
      "stateMutability": "view",
      "type": "function"
    },
    {
      "constant": false,
      "inputs": [
        {
          "internalType": "address",
          "name": "_firstAB",
          "type": "address"
        },
        {
          "internalType": "address",
          "name": "memberAuthority",
          "type": "address"
        }
      ],
      "name": "memberRolesInitiate",
      "outputs": [],
      "payable": false,
      "stateMutability": "nonpayable",
      "type": "function"
    },
    {
      "constant": true,
      "inputs": [
        {
          "internalType": "uint256",
          "name": "_memberRoleId",
          "type": "uint256"
        }
      ],
      "name": "members",
      "outputs": [
        {
          "internalType": "uint256",
          "name": "",
          "type": "uint256"
        },
        {
          "internalType": "address[]",
          "name": "memberArray",
          "type": "address[]"
        }
      ],
      "payable": false,
      "stateMutability": "view",
      "type": "function"
    },
    {
      "constant": true,
      "inputs": [
        {
          "internalType": "uint256",
          "name": "_memberRoleId",
          "type": "uint256"
        }
      ],
      "name": "membersLength",
      "outputs": [
        {
          "internalType": "uint256",
          "name": "",
          "type": "uint256"
        }
      ],
      "payable": false,
      "stateMutability": "view",
      "type": "function"
    },
    {
      "constant": true,
      "inputs": [],
      "name": "ms",
      "outputs": [
        {
          "internalType": "contract INXMMaster",
          "name": "",
          "type": "address"
        }
      ],
      "payable": false,
      "stateMutability": "view",
      "type": "function"
    },
    {
      "constant": true,
      "inputs": [
        {
          "internalType": "uint256",
          "name": "_memberRoleId",
          "type": "uint256"
        }
      ],
      "name": "numberOfMembers",
      "outputs": [
        {
          "internalType": "uint256",
          "name": "",
          "type": "uint256"
        }
      ],
      "payable": false,
      "stateMutability": "view",
      "type": "function"
    },
    {
      "constant": true,
      "inputs": [],
      "name": "nxMasterAddress",
      "outputs": [
        {
          "internalType": "address",
          "name": "",
          "type": "address"
        }
      ],
      "payable": false,
      "stateMutability": "view",
      "type": "function"
    },
    {
      "constant": false,
      "inputs": [
        {
          "internalType": "address",
          "name": "_userAddress",
          "type": "address"
        }
      ],
      "name": "payJoiningFee",
      "outputs": [],
      "payable": true,
      "stateMutability": "payable",
      "type": "function"
    },
    {
      "constant": true,
      "inputs": [
        {
          "internalType": "address",
          "name": "_memberAddress",
          "type": "address"
        }
      ],
      "name": "roles",
      "outputs": [
        {
          "internalType": "uint256[]",
          "name": "",
          "type": "uint256[]"
        }
      ],
      "payable": false,
      "stateMutability": "view",
      "type": "function"
    },
    {
      "constant": false,
      "inputs": [
        {
          "internalType": "address",
          "name": "_newABAddress",
          "type": "address"
        },
        {
          "internalType": "address",
          "name": "_removeAB",
          "type": "address"
        }
      ],
      "name": "swapABMember",
      "outputs": [],
      "payable": false,
      "stateMutability": "nonpayable",
      "type": "function"
    },
    {
      "constant": false,
      "inputs": [
        {
          "internalType": "address",
          "name": "_newOwnerAddress",
          "type": "address"
        }
      ],
      "name": "swapOwner",
      "outputs": [],
      "payable": false,
      "stateMutability": "nonpayable",
      "type": "function"
    },
    {
      "constant": false,
      "inputs": [
        {
          "internalType": "address",
          "name": "_add",
          "type": "address"
        }
      ],
      "name": "switchMembership",
      "outputs": [],
      "payable": false,
      "stateMutability": "nonpayable",
      "type": "function"
    },
    {
      "constant": true,
      "inputs": [],
      "name": "tk",
      "outputs": [
        {
          "internalType": "contract NXMToken",
          "name": "",
          "type": "address"
        }
      ],
      "payable": false,
      "stateMutability": "view",
      "type": "function"
    },
    {
      "constant": true,
      "inputs": [],
      "name": "totalRoles",
      "outputs": [
        {
          "internalType": "uint256",
          "name": "",
          "type": "uint256"
        }
      ],
      "payable": false,
      "stateMutability": "view",
      "type": "function"
    },
    {
      "constant": false,
      "inputs": [
        {
          "internalType": "address",
          "name": "_memberAddress",
          "type": "address"
        },
        {
          "internalType": "uint256",
          "name": "_roleId",
          "type": "uint256"
        },
        {
          "internalType": "bool",
          "name": "_active",
          "type": "bool"
        }
      ],
      "name": "updateRole",
      "outputs": [],
      "payable": false,
      "stateMutability": "nonpayable",
      "type": "function"
    },
    {
      "constant": false,
      "inputs": [],
      "name": "withdrawMembership",
      "outputs": [],
      "payable": false,
      "stateMutability": "nonpayable",
      "type": "function"
    }
  ],
  "bytecode": "0x608060405234801561001057600080fd5b50613a29806100206000396000f3fe6080604052600436106101ee5760003560e01c8063790e118c1161010d578063ae393df9116100a0578063d46655f41161006f578063d46655f41461094d578063d8b2114e14610980578063df05eef5146109bb578063eaf2c477146109d0578063f17a3bec146109e5576101ee565b8063ae393df914610895578063b53e4679146108aa578063c578f230146108fd578063d365a08e14610938576101ee565b806390a79368116100dc57806390a79368146107e15780639937464214610814578063a0b2d57f14610847578063aa561f9d1461085c576101ee565b8063790e118c146107635780638091f3bf146107785780638bed69eb1461078d5780638f8c0094146107b7576101ee565b80632f473021116101855780635daf08ca116101545780635daf08ca146104ce578063648edd9c146105535780636d1c31d2146105ce5780636eb4b91f14610633576101ee565b80632f4730211461040c57806337f15a581461044d5780634ed75d4714610462578063505ef22f14610495576101ee565b80631b5c6ded116101c15780631b5c6ded146102b257806321f408be146102ed57806322ce7254146103025780632dc4bdca14610349576101ee565b80630d48669a146101f35780630dc6f847146102395780630ea9c984146102755780630ead3e721461028c575b600080fd5b3480156101ff57600080fd5b5061021d6004803603602081101561021657600080fd5b50356109fa565b604080516001600160a01b039092168252519081900360200190f35b34801561024557600080fd5b506102636004803603602081101561025c57600080fd5b5035610a2c565b60408051918252519081900360200190f35b34801561028157600080fd5b5061028a610a54565b005b61028a600480360360208110156102a257600080fd5b50356001600160a01b0316610e40565b3480156102be57600080fd5b5061028a600480360360408110156102d557600080fd5b506001600160a01b0381358116916020013516611389565b3480156102f957600080fd5b5061021d6113b4565b34801561030e57600080fd5b506103356004803603602081101561032557600080fd5b50356001600160a01b03166113c3565b604080519115158252519081900360200190f35b34801561035557600080fd5b5061028a6004803603606081101561036c57600080fd5b81359190810190604081016020820135600160201b81111561038d57600080fd5b82018360208201111561039f57600080fd5b803590602001918460018302840111600160201b831117156103c057600080fd5b91908080601f016020809104026020016040519081016040528093929190818152602001838380828437600092019190915250929550505090356001600160a01b031691506114559050565b34801561041857600080fd5b5061028a6004803603606081101561042f57600080fd5b506001600160a01b0381351690602081013590604001351515611531565b34801561045957600080fd5b506102636115fc565b34801561046e57600080fd5b5061028a6004803603602081101561048557600080fd5b50356001600160a01b0316611602565b3480156104a157600080fd5b50610335600480360360408110156104b857600080fd5b506001600160a01b038135169060200135611c62565b3480156104da57600080fd5b506104f8600480360360208110156104f157600080fd5b5035611cc1565b6040518083815260200180602001828103825283818151815260200191508051906020019060200280838360005b8381101561053e578181015183820152602001610526565b50505050905001935050505060405180910390f35b34801561055f57600080fd5b5061028a6004803603602081101561057657600080fd5b810190602081018135600160201b81111561059057600080fd5b8201836020820111156105a257600080fd5b803590602001918460208302840111600160201b831117156105c357600080fd5b509092509050611e1f565b3480156105da57600080fd5b506105e3611fc1565b60408051602080825283518183015283519192839290830191858101910280838360005b8381101561061f578181015183820152602001610607565b505050509050019250505060405180910390f35b34801561063f57600080fd5b5061028a6004803603604081101561065657600080fd5b810190602081018135600160201b81111561067057600080fd5b82018360208201111561068257600080fd5b803590602001918460208302840111600160201b831117156106a357600080fd5b9190808060200260200160405190810160405280939291908181526020018383602002808284376000920191909152509295949360208101935035915050600160201b8111156106f257600080fd5b82018360208201111561070457600080fd5b803590602001918460208302840111600160201b8311171561072557600080fd5b91908080602002602001604051908101604052809392919081815260200183836020028082843760009201919091525092955061202b945050505050565b34801561076f57600080fd5b506102636122e5565b34801561078457600080fd5b506103356122ec565b34801561079957600080fd5b50610263600480360360208110156107b057600080fd5b50356122f5565b3480156107c357600080fd5b5061028a600480360360208110156107da57600080fd5b503561231e565b3480156107ed57600080fd5b5061028a6004803603602081101561080457600080fd5b50356001600160a01b03166123a3565b34801561082057600080fd5b506105e36004803603602081101561083757600080fd5b50356001600160a01b031661243e565b34801561085357600080fd5b5061021d6124ef565b34801561086857600080fd5b5061028a6004803603604081101561087f57600080fd5b50803590602001356001600160a01b03166124fe565b3480156108a157600080fd5b5061028a612606565b3480156108b657600080fd5b506108da600480360360408110156108cd57600080fd5b5080359060200135612b23565b604080516001600160a01b03909316835290151560208301528051918290030190f35b34801561090957600080fd5b5061028a6004803603604081101561092057600080fd5b506001600160a01b0381358116916020013516612bb4565b34801561094457600080fd5b5061021d612c8b565b34801561095957600080fd5b5061028a6004803603602081101561097057600080fd5b50356001600160a01b0316612c9a565b34801561098c57600080fd5b5061028a600480360360408110156109a357600080fd5b506001600160a01b0381351690602001351515612cf8565b3480156109c757600080fd5b5061026361324f565b3480156109dc57600080fd5b5061021d613255565b3480156109f157600080fd5b5061021d613264565b6000600a8281548110610a0957fe5b60009182526020909120600490910201600301546001600160a01b031692915050565b6000600a8281548110610a3b57fe5b9060005260206000209060040201600001549050919050565b600154604080516227050b60e31b815261151160f21b600482015290516001600160a01b0390921691630138285891602480820192602092909190829003018186803b158015610aa357600080fd5b505afa158015610ab7573d6000803e3d6000fd5b505050506040513d6020811015610acd57600080fd5b5051600480546001600160a01b0319166001600160a01b03928316178155600154604080516227050b60e31b81526121a960f11b9381019390935251921691630138285891602480820192602092909190829003018186803b158015610b3257600080fd5b505afa158015610b46573d6000803e3d6000fd5b505050506040513d6020811015610b5c57600080fd5b5051600680546001600160a01b0319166001600160a01b03928316179055600154604080516227050b60e31b815261145160f21b6004820152905191909216916301382858916024808301926020929190829003018186803b158015610bc157600080fd5b505afa158015610bd5573d6000803e3d6000fd5b505050506040513d6020811015610beb57600080fd5b5051600580546001600160a01b0319166001600160a01b03928316179055600154604080516227050b60e31b81526123ab60f11b6004820152905191909216916301382858916024808301926020929190829003018186803b158015610c5057600080fd5b505afa158015610c64573d6000803e3d6000fd5b505050506040513d6020811015610c7a57600080fd5b5051600780546001600160a01b0319166001600160a01b03928316179055600154604080516227050b60e31b8152612a2360f11b6004820152905191909216916301382858916024808301926020929190829003018186803b158015610cdf57600080fd5b505afa158015610cf3573d6000803e3d6000fd5b505050506040513d6020811015610d0957600080fd5b5051600880546001600160a01b0319166001600160a01b03928316179055600154604080516313aedd4b60e31b815290519190921691639d76ea58916004808301926020929190829003018186803b158015610d6457600080fd5b505afa158015610d78573d6000803e3d6000fd5b505050506040513d6020811015610d8e57600080fd5b5051600980546001600160a01b0319166001600160a01b03928316179055600154604080516227050b60e31b815261544360f01b6004820152905191909216916301382858916024808301926020929190829003018186803b158015610df357600080fd5b505afa158015610e07573d6000803e3d6000fd5b505050506040513d6020811015610e1d57600080fd5b5051600380546001600160a01b0319166001600160a01b03909216919091179055565b6001600160a01b038116610e5357600080fd5b600160009054906101000a90046001600160a01b03166001600160a01b031663ff0938a76040518163ffffffff1660e01b815260040160206040518083038186803b158015610ea157600080fd5b505afa158015610eb5573d6000803e3d6000fd5b505050506040513d6020811015610ecb57600080fd5b505115610f1f576040805162461bcd60e51b815260206004820152601760248201527f456d657267656e6379205061757365204170706c696564000000000000000000604482015290519081900360640190fd5b600154604080516227050b60e31b815261145560f21b600482015290516001600160a01b0390921691630138285891602480820192602092909190829003018186803b158015610f6e57600080fd5b505afa158015610f82573d6000803e3d6000fd5b505050506040513d6020811015610f9857600080fd5b50516001600160a01b031633141561119957600480546040805163356ad9f560e11b815290516000936001600160a01b0390931692636ad5b3ea92808201926020929091829003018186803b158015610ff057600080fd5b505afa158015611004573d6000803e3d6000fd5b505050506040513d602081101561101a57600080fd5b50516001600160a01b03161415611078576040805162461bcd60e51b815260206004820152601860248201527f4e6f2077616c6c6574416464726573732070726573656e740000000000000000604482015290519081900360640190fd5b6003546040805163e43252d760e01b81526001600160a01b0384811660048301529151919092169163e43252d791602480830192600092919082900301818387803b1580156110c657600080fd5b505af11580156110da573d6000803e3d6000fd5b506110ef9250839150600290505b6001613273565b600480546040805163356ad9f560e11b815290516001600160a01b0390921692636ad5b3ea928282019260209290829003018186803b15801561113157600080fd5b505afa158015611145573d6000803e3d6000fd5b505050506040513d602081101561115b57600080fd5b50516040516001600160a01b03909116903480156108fc02916000818181858888f19350505050158015611193573d6000803e3d6000fd5b50611386565b60055460408051636f3adaf560e11b81526001600160a01b0384811660048301529151919092169163de75b5ea916024808301926020929190829003018186803b1580156111e657600080fd5b505afa1580156111fa573d6000803e3d6000fd5b505050506040513d602081101561121057600080fd5b50511561121c57600080fd5b6001546040805163288c314960e21b81526001600160a01b0384811660048301529151919092169163a230c524916024808301926020929190829003018186803b15801561126957600080fd5b505afa15801561127d573d6000803e3d6000fd5b505050506040513d602081101561129357600080fd5b50511561129f57600080fd5b6004805460408051636eeeaaa560e01b815290516001600160a01b0390921692636eeeaaa5928282019260209290829003018186803b1580156112e157600080fd5b505afa1580156112f5573d6000803e3d6000fd5b505050506040513d602081101561130b57600080fd5b5051341461131857600080fd5b60055460408051633d8ea1f560e21b81526001600160a01b038481166004830152600160248301529151919092169163f63a87d491604480830192600092919082900301818387803b15801561136d57600080fd5b505af1158015611381573d6000803e3d6000fd5b505050505b50565b600b5460ff161561139957600080fd5b6113a38282613469565b5050600b805460ff19166001179055565b6009546001600160a01b031681565b60008054604080516227050b60e31b81526123ab60f11b600482015290516001600160a01b03928316928516918391630138285891602480820192602092909190829003018186803b15801561141857600080fd5b505afa15801561142c573d6000803e3d6000fd5b505050506040513d602081101561144257600080fd5b50516001600160a01b0316149392505050565b600054604080516227050b60e31b81526123ab60f11b600482015290516001600160a01b039092169133918391630138285891602480820192602092909190829003018186803b1580156114a857600080fd5b505afa1580156114bc573d6000803e3d6000fd5b505050506040513d60208110156114d257600080fd5b50516001600160a01b031614611520576040805162461bcd60e51b815260206004820152600e60248201526d139bdd08185d5d1a1bdc9a5e995960921b604482015290519081900360640190fd5b61152b848484613578565b50505050565b8160006001600160a01b0316600a828154811061154a57fe5b60009182526020909120600360049092020101546001600160a01b0316146115a657600a818154811061157957fe5b60009182526020909120600490910201600301546001600160a01b031633146115a157600080fd5b6115f1565b6115af336113c3565b6115f1576040805162461bcd60e51b815260206004820152600e60248201526d139bdd08105d5d1a1bdc9a5e995960921b604482015290519081900360640190fd5b61152b848484613273565b600c5481565b600160009054906101000a90046001600160a01b03166001600160a01b031663ff0938a76040518163ffffffff1660e01b815260040160206040518083038186803b15801561165057600080fd5b505afa158015611664573d6000803e3d6000fd5b505050506040513d602081101561167a57600080fd5b50511580156116fc57506001546040805163288c314960e21b815233600482015290516001600160a01b039092169163a230c52491602480820192602092909190829003018186803b1580156116cf57600080fd5b505afa1580156116e3573d6000803e3d6000fd5b505050506040513d60208110156116f957600080fd5b50515b801561177e57506001546040805163288c314960e21b81526001600160a01b0384811660048301529151919092169163a230c524916024808301926020929190829003018186803b15801561175057600080fd5b505afa158015611764573d6000803e3d6000fd5b505050506040513d602081101561177a57600080fd5b5051155b61178757600080fd5b60035460408051631c840dc960e11b815233600482015242602482015290516001600160a01b03909216916339081b9291604480820192602092909190829003018186803b1580156117d857600080fd5b505afa1580156117ec573d6000803e3d6000fd5b505050506040513d602081101561180257600080fd5b50511561180e57600080fd5b6008546040805163562d6d7b60e11b815233600482015290516001600160a01b039092169163ac5adaf691602480820192602092909190829003018186803b15801561185957600080fd5b505afa15801561186d573d6000803e3d6000fd5b505050506040513d602081101561188357600080fd5b50511561188f57600080fd5b60065460408051631ad7d8a760e11b815233600482015290516001600160a01b03909216916335afb14e91602480820192602092909190829003018186803b1580156118da57600080fd5b505afa1580156118ee573d6000803e3d6000fd5b505050506040513d602081101561190457600080fd5b50511561191057600080fd5b60035460408051630a529a1d60e31b815233600482015262434c4160e81b602482015290516001600160a01b0390921691635294d0e891604480820192602092909190829003018186803b15801561196757600080fd5b505afa15801561197b573d6000803e3d6000fd5b505050506040513d602081101561199157600080fd5b5051156119cf5760405162461bcd60e51b815260040180806020018281038252602b8152602001806139ca602b913960400191505060405180910390fd5b6007546040805163f0466c7360e01b815233600482015290516001600160a01b039092169163f0466c739160248082019260009290919082900301818387803b158015611a1b57600080fd5b505af1158015611a2f573d6000803e3d6000fd5b50506003546040805163e43252d760e01b81526001600160a01b038681166004830152915191909216935063e43252d79250602480830192600092919082900301818387803b158015611a8157600080fd5b505af1158015611a95573d6000803e3d6000fd5b50611aa79250839150600290506110e8565b600954604080516370a0823160e01b8152336004820181905291516001600160a01b03909316926323b872dd9291859185916370a08231916024808301926020929190829003018186803b158015611afe57600080fd5b505afa158015611b12573d6000803e3d6000fd5b505050506040513d6020811015611b2857600080fd5b5051604080516001600160e01b031960e087901b1681526001600160a01b0394851660048201529290931660248301526044820152905160648083019260209291908290030181600087803b158015611b8057600080fd5b505af1158015611b94573d6000803e3d6000fd5b505050506040513d6020811015611baa57600080fd5b50611bbb90503360025b6000613273565b60035460408051638ab1d68160e01b815233600482015290516001600160a01b0390921691638ab1d6819160248082019260009290919082900301818387803b158015611c0757600080fd5b505af1158015611c1b573d6000803e3d6000fd5b50506040805142815290516001600160a01b03851693503392507f192a4c3625bef7938e23abe9b048e44af0928d8ea055694936e5269479ae2ca19181900360200190a350565b600081611c7157506001611cbb565b600a8281548110611c7e57fe5b600091825260208083206001600160a01b03871684526001600490930201919091019052604090205460ff1615611cb757506001611cbb565b5060005b92915050565b600060606000600a8481548110611cd457fe5b60009182526020822060026004909202010154600a8054919350829187908110611cfa57fe5b906000526020600020906004020160000154604051908082528060200260200182016040528015611d35578160200160208202803883390190505b509350600091505b82821015611e14576000600a8781548110611d5457fe5b90600052602060002090600402016002018381548110611d7057fe5b600091825260209091200154600a80546001600160a01b0390921692509088908110611d9857fe5b600091825260208083206001600160a01b03851684526001600490930201919091019052604090205460ff168015611dd75750611dd581866136f2565b155b15611e085780858381518110611de957fe5b6001600160a01b03909216602092830291909101909101526001909101905b50600190910190611d3d565b508493505050915091565b600154604080516317aa5fb760e11b815233600482015290516001600160a01b0390921691632f54bf6e91602480820192602092909190829003018186803b158015611e6a57600080fd5b505afa158015611e7e573d6000803e3d6000fd5b505050506040513d6020811015611e9457600080fd5b5051611e9f57600080fd5b600160009054906101000a90046001600160a01b03166001600160a01b031663c15041d56040518163ffffffff1660e01b815260040160206040518083038186803b158015611eed57600080fd5b505afa158015611f01573d6000803e3d6000fd5b505050506040513d6020811015611f1757600080fd5b5051611f2257600080fd5b611f35611f2f6001610a2c565b82613744565b600c541015611f4357600080fd5b60005b81811015611fbc57611f7f838383818110611f5d57fe5b905060200201356001600160a01b031660026003811115611f7a57fe5b611c62565b611f8857600080fd5b611fb4838383818110611f9757fe5b905060200201356001600160a01b0316600160038111156110e857fe5b600101611f46565b505050565b600a546040805182815260208084028201019091526060918015611fef578160200160208202803883390190505b50905060005b600a548110156120275761200881610a2c565b82828151811061201457fe5b6020908102919091010152600101611ff5565b5090565b600154604080516317aa5fb760e11b815233600482015290516001600160a01b0390921691632f54bf6e91602480820192602092909190829003018186803b15801561207657600080fd5b505afa15801561208a573d6000803e3d6000fd5b505050506040513d60208110156120a057600080fd5b50516120ab57600080fd5b600d5460ff16156120bb57600080fd5b60005b82518110156122cf5760015483516001600160a01b039091169063a230c524908590849081106120ea57fe5b60200260200101516040518263ffffffff1660e01b815260040180826001600160a01b03166001600160a01b0316815260200191505060206040518083038186803b15801561213857600080fd5b505afa15801561214c573d6000803e3d6000fd5b505050506040513d602081101561216257600080fd5b50511561216e57600080fd5b60035483516001600160a01b039091169063e43252d79085908490811061219157fe5b60200260200101516040518263ffffffff1660e01b815260040180826001600160a01b03166001600160a01b03168152602001915050600060405180830381600087803b1580156121e157600080fd5b505af11580156121f5573d6000803e3d6000fd5b5050505061221d83828151811061220857fe5b6020026020010151600260038111156110e857fe5b60035483516001600160a01b03909116906340c10f199085908490811061224057fe5b602002602001015184848151811061225457fe5b60200260200101516040518363ffffffff1660e01b815260040180836001600160a01b03166001600160a01b0316815260200182815260200192505050600060405180830381600087803b1580156122ab57600080fd5b505af11580156122bf573d6000803e3d6000fd5b5050600190920191506120be9050565b5050600d805460ff191660011790555042600e55565b600a545b90565b600d5460ff1681565b6000600a828154811061230457fe5b600091825260209091206002600490920201015492915050565b600154604080516323c5b10760e21b815233600482015290516001600160a01b0390921691638f16c41c91602480820192602092909190829003018186803b15801561236957600080fd5b505afa15801561237d573d6000803e3d6000fd5b505050506040513d602081101561239357600080fd5b505161239e57600080fd5b600c55565b6001546001600160a01b031633146123ba57600080fd5b60015460408051638da5cb5b60e01b81529051612433926001600160a01b031691638da5cb5b916004808301926020929190829003018186803b15801561240057600080fd5b505afa158015612414573d6000803e3d6000fd5b505050506040513d602081101561242a57600080fd5b50516003611bb4565b6113868160036110e8565b600a54604080518281526020808402820101909152606091908290828015612470578160200160208202803883390190505b509050600060015b838110156124e557600a818154811061248d57fe5b600091825260208083206001600160a01b038a1684526001600490930201919091019052604090205460ff16156124dd57808383815181106124cb57fe5b60209081029190910101526001909101905b600101612478565b5090949350505050565b6001546001600160a01b031681565b8160006001600160a01b0316600a828154811061251757fe5b60009182526020909120600360049092020101546001600160a01b03161461257357600a818154811061254657fe5b60009182526020909120600490910201600301546001600160a01b0316331461256e57600080fd5b6125be565b61257c336113c3565b6125be576040805162461bcd60e51b815260206004820152600e60248201526d139bdd08105d5d1a1bdc9a5e995960921b604482015290519081900360640190fd5b81600a84815481106125cc57fe5b906000526020600020906004020160030160006101000a8154816001600160a01b0302191690836001600160a01b03160217905550505050565b600160009054906101000a90046001600160a01b03166001600160a01b031663ff0938a76040518163ffffffff1660e01b815260040160206040518083038186803b15801561265457600080fd5b505afa158015612668573d6000803e3d6000fd5b505050506040513d602081101561267e57600080fd5b505115801561270057506001546040805163288c314960e21b815233600482015290516001600160a01b039092169163a230c52491602480820192602092909190829003018186803b1580156126d357600080fd5b505afa1580156126e7573d6000803e3d6000fd5b505050506040513d60208110156126fd57600080fd5b50515b61270957600080fd5b60035460408051631c840dc960e11b815233600482015242602482015290516001600160a01b03909216916339081b9291604480820192602092909190829003018186803b15801561275a57600080fd5b505afa15801561276e573d6000803e3d6000fd5b505050506040513d602081101561278457600080fd5b50511561279057600080fd5b6008546040805163562d6d7b60e11b815233600482015290516001600160a01b039092169163ac5adaf691602480820192602092909190829003018186803b1580156127db57600080fd5b505afa1580156127ef573d6000803e3d6000fd5b505050506040513d602081101561280557600080fd5b50511561281157600080fd5b60065460408051631ad7d8a760e11b815233600482015290516001600160a01b03909216916335afb14e91602480820192602092909190829003018186803b15801561285c57600080fd5b505afa158015612870573d6000803e3d6000fd5b505050506040513d602081101561288657600080fd5b50511561289257600080fd5b60035460408051630a529a1d60e31b815233600482015262434c4160e81b602482015290516001600160a01b0390921691635294d0e891604480820192602092909190829003018186803b1580156128e957600080fd5b505afa1580156128fd573d6000803e3d6000fd5b505050506040513d602081101561291357600080fd5b5051156129515760405162461bcd60e51b815260040180806020018281038252602b8152602001806139ca602b913960400191505060405180910390fd5b6007546040805163f0466c7360e01b815233600482015290516001600160a01b039092169163f0466c739160248082019260009290919082900301818387803b15801561299d57600080fd5b505af11580156129b1573d6000803e3d6000fd5b5050600354600954604080516370a0823160e01b8152336004820181905291516001600160a01b0394851696506379cc679095509193909216916370a08231916024808301926020929190829003018186803b158015612a1057600080fd5b505afa158015612a24573d6000803e3d6000fd5b505050506040513d6020811015612a3a57600080fd5b5051604080516001600160e01b031960e086901b1681526001600160a01b03909316600484015260248301919091525160448083019260209291908290030181600087803b158015612a8b57600080fd5b505af1158015612a9f573d6000803e3d6000fd5b505050506040513d6020811015612ab557600080fd5b50612ac39050336002611bb4565b60035460408051638ab1d68160e01b815233600482015290516001600160a01b0390921691638ab1d6819160248082019260009290919082900301818387803b158015612b0f57600080fd5b505af115801561152b573d6000803e3d6000fd5b6000806000600a8581548110612b3557fe5b90600052602060002090600402016002018481548110612b5157fe5b600091825260209091200154600a80546001600160a01b039092169250829187908110612b7a57fe5b600091825260208083206001600160a01b039095168352600160049092029094010190925260409091205490925060ff1690509250929050565b600160006001600160a01b0316600a8281548110612bce57fe5b60009182526020909120600360049092020101546001600160a01b031614612c2a57600a8181548110612bfd57fe5b60009182526020909120600490910201600301546001600160a01b03163314612c2557600080fd5b612c75565b612c33336113c3565b612c75576040805162461bcd60e51b815260206004820152600e60248201526d139bdd08105d5d1a1bdc9a5e995960921b604482015290519081900360640190fd5b612c808360016110e8565b611fbc826001611bb4565b6000546001600160a01b031681565b6000546001600160a01b031615612cc2576000546001600160a01b03163314612cc257600080fd5b600080546001600160a01b039092166001600160a01b031992831681179091556001805483168217905560028054909216179055565b600560009054906101000a90046001600160a01b03166001600160a01b03166384434b9f6040518163ffffffff1660e01b815260040160206040518083038186803b158015612d4657600080fd5b505afa158015612d5a573d6000803e3d6000fd5b505050506040513d6020811015612d7057600080fd5b50516001600160a01b03163314612d8657600080fd5b600160009054906101000a90046001600160a01b03166001600160a01b031663ff0938a76040518163ffffffff1660e01b815260040160206040518083038186803b158015612dd457600080fd5b505afa158015612de8573d6000803e3d6000fd5b505050506040513d6020811015612dfe57600080fd5b505115612e0a57600080fd5b6001600160a01b038216612e1d57600080fd5b6001546040805163288c314960e21b81526001600160a01b0385811660048301529151919092169163a230c524916024808301926020929190829003018186803b158015612e6a57600080fd5b505afa158015612e7e573d6000803e3d6000fd5b505050506040513d6020811015612e9457600080fd5b505115612ea057600080fd5b60055460408051636f3adaf560e11b81526001600160a01b0385811660048301529151919092169163de75b5ea916024808301926020929190829003018186803b158015612eed57600080fd5b505afa158015612f01573d6000803e3d6000fd5b505050506040513d6020811015612f1757600080fd5b5051612f2257600080fd5b80156131315760055460408051633d8ea1f560e21b81526001600160a01b038581166004830152600060248301819052925193169263f63a87d49260448084019391929182900301818387803b158015612f7b57600080fd5b505af1158015612f8f573d6000803e3d6000fd5b505050506000600460009054906101000a90046001600160a01b03166001600160a01b0316636eeeaaa56040518163ffffffff1660e01b815260040160206040518083038186803b158015612fe357600080fd5b505afa158015612ff7573d6000803e3d6000fd5b505050506040513d602081101561300d57600080fd5b50516003546040805163e43252d760e01b81526001600160a01b038781166004830152915193945091169163e43252d79160248082019260009290919082900301818387803b15801561305f57600080fd5b505af1158015613073573d6000803e3d6000fd5b506130859250859150600290506110e8565b600480546040805163356ad9f560e11b815290516001600160a01b0390921692636ad5b3ea928282019260209290829003018186803b1580156130c757600080fd5b505afa1580156130db573d6000803e3d6000fd5b505050506040513d60208110156130f157600080fd5b50516040516001600160a01b039091169082156108fc029083906000818181858888f1935050505015801561312a573d6000803e3d6000fd5b505061324b565b60055460408051633d8ea1f560e21b81526001600160a01b038581166004830152600060248301819052925193169263f63a87d49260448084019391929182900301818387803b15801561318457600080fd5b505af1158015613198573d6000803e3d6000fd5b50505050816001600160a01b03166108fc600460009054906101000a90046001600160a01b03166001600160a01b0316636eeeaaa56040518163ffffffff1660e01b815260040160206040518083038186803b1580156131f757600080fd5b505afa15801561320b573d6000803e3d6000fd5b505050506040513d602081101561322157600080fd5b50516040518115909202916000818181858888f19350505050158015611fbc573d6000803e3d6000fd5b5050565b600e5481565b6003546001600160a01b031681565b6002546001600160a01b031681565b801561339d57600a828154811061328657fe5b600091825260208083206001600160a01b03871684526001600490930201919091019052604090205460ff16156132bc57600080fd5b6132e5600a83815481106132cc57fe5b9060005260206000209060040201600001546001613744565b600a83815481106132f257fe5b9060005260206000209060040201600001819055506001600a838154811061331657fe5b600091825260208083206001600160a01b0388168452600492909202909101600101905260409020805460ff1916911515919091179055600a80548390811061335b57fe5b60009182526020808320600492909202909101600201805460018101825590835291200180546001600160a01b0319166001600160a01b038516179055611fbc565b600a82815481106133aa57fe5b600091825260208083206001600160a01b03871684526001600490930201919091019052604090205460ff166133df57600080fd5b613408600a83815481106133ef57fe5b90600052602060002090600402016000015460016137a5565b600a838154811061341557fe5b6000918252602090912060049091020155600a80548390811061343457fe5b600091825260208083206001600160a01b0387168452600160049093020191909101905260409020805460ff19169055505050565b6005600c5560408051808201909152600a815269155b985cdcda59db995960b21b6020820181905261349c916000613578565b6134d26d10591d9a5cdbdc9e48109bd85c9960921b60405180610100016040528060d181526020016138f960d191396000613578565b61351b6526b2b6b132b960d11b6040518060400160405280601f81526020017f526570726573656e747320616c6c207573657273206f66204d757475616c2e0081525083613578565b6135646427bbb732b960d91b6040518060400160405280601b81526020017f526570726573656e7473204f776e6572206f66204d757475616c2e00000000008152506000613578565b61356f8260036110e8565b50506000600e55565b600a805490507fe2981862bbf692aa30ba39d4eca9c69e5dcebf3eae5fb93332940c23c1c4c3c584846040518083815260200180602001828103825283818151815260200191508051906020019080838360005b838110156135e45781810151838201526020016135cc565b50505050905090810190601f1680156136115780820380516001836020036101000a031916815260200191505b50935050505060405180910390a26040805160608101825260008082528251818152602080820185528084019182526001600160a01b03861694840194909452600a80546001810180835591909352835160049093027fc65a7bb8d6351c1cf70c95a316cc6a92839c986682d98bc35f958f4883f9d2a881019384559151805191956136c2937fc65a7bb8d6351c1cf70c95a316cc6a92839c986682d98bc35f958f4883f9d2aa0192910190613879565b5060409190910151600390910180546001600160a01b0319166001600160a01b0390921691909117905550505050565b6000805b825181101561373d57836001600160a01b031683828151811061371557fe5b60200260200101516001600160a01b03161415613735576001915061373d565b6001016136f6565b5092915050565b60008282018381101561379e576040805162461bcd60e51b815260206004820152601b60248201527f536166654d6174683a206164646974696f6e206f766572666c6f770000000000604482015290519081900360640190fd5b9392505050565b600061379e83836040518060400160405280601e81526020017f536166654d6174683a207375627472616374696f6e206f766572666c6f770000815250600081848411156138715760405162461bcd60e51b81526004018080602001828103825283818151815260200191508051906020019080838360005b8381101561383657818101518382015260200161381e565b50505050905090810190601f1680156138635780820380516001836020036101000a031916815260200191505b509250505060405180910390fd5b505050900390565b8280548282559060005260206000209081019282156138ce579160200282015b828111156138ce57825182546001600160a01b0319166001600160a01b03909116178255602090920191600190910190613899565b50612027926122e99250905b808211156120275780546001600160a01b03191681556001016138da56fe53656c656374656420666577206d656d6265727320746861742061726520646565706c7920656e747275737465642062792074686520644170702e20416e20696465616c2061647669736f727920626f6172642073686f756c642062652061206d6978206f6620736b696c6c73206f6620646f6d61696e2c20676f7665726e616e63652c2072657365617263682c20746563686e6f6c6f67792c20636f6e73756c74696e672065746320746f20696d70726f76652074686520706572666f726d616e6365206f662074686520644170702e4d656d6265722073686f756c642068617665206e6f20434c4120756e6c6f636b61626c6520746f6b656e73a265627a7a723158205701710907861912d694f712188e3ab8df876c141ff3d5bb2a5ffaa18078a99c64736f6c63430005110032",
  "linkReferences": {},
  "deployedLinkReferences": {}
}