{
  "_format": "hh-sol-artifact-1",
  "contractName": "TokenData",
  "sourceName": "contracts/NexusMutual/modules/token/TokenData.sol",
  "abi": [
    {
      "inputs": [
        {
          "internalType": "address payable",
          "name": "_walletAdd",
          "type": "address"
        }
      ],
      "payable": false,
      "stateMutability": "nonpayable",
      "type": "constructor"
    },
    {
      "anonymous": false,
      "inputs": [
        {
          "indexed": true,
          "internalType": "address",
          "name": "stakedContractAddress",
          "type": "address"
        },
        {
          "indexed": true,
          "internalType": "address",
          "name": "stakerAddress",
          "type": "address"
        },
        {
          "indexed": true,
          "internalType": "uint256",
          "name": "scIndex",
          "type": "uint256"
        },
        {
          "indexed": false,
          "internalType": "uint256",
          "name": "commissionAmount",
          "type": "uint256"
        }
      ],
      "name": "Commission",
      "type": "event"
    },
    {
      "constant": false,
      "inputs": [
        {
          "internalType": "address",
          "name": "_stakerAddress",
          "type": "address"
        },
        {
          "internalType": "address",
          "name": "_stakedContractAddress",
          "type": "address"
        },
        {
          "internalType": "uint256",
          "name": "_amount",
          "type": "uint256"
        }
      ],
      "name": "addStake",
      "outputs": [
        {
          "internalType": "uint256",
          "name": "scIndex",
          "type": "uint256"
        }
      ],
      "payable": false,
      "stateMutability": "nonpayable",
      "type": "function"
    },
    {
      "constant": false,
      "inputs": [
        {
          "internalType": "address",
          "name": "_of",
          "type": "address"
        }
      ],
      "name": "bookCATokens",
      "outputs": [],
      "payable": false,
      "stateMutability": "nonpayable",
      "type": "function"
    },
    {
      "constant": true,
      "inputs": [],
      "name": "bookTime",
      "outputs": [
        {
          "internalType": "uint256",
          "name": "",
          "type": "uint256"
        }
      ],
      "payable": false,
      "stateMutability": "view",
      "type": "function"
    },
    {
      "constant": false,
      "inputs": [],
      "name": "changeDependentContractAddress",
      "outputs": [],
      "payable": false,
      "stateMutability": "nonpayable",
      "type": "function"
    },
    {
      "constant": false,
      "inputs": [
        {
          "internalType": "address",
          "name": "_masterAddress",
          "type": "address"
        }
      ],
      "name": "changeMasterAddress",
      "outputs": [],
      "payable": false,
      "stateMutability": "nonpayable",
      "type": "function"
    },
    {
      "constant": false,
      "inputs": [
        {
          "internalType": "address payable",
          "name": "_address",
          "type": "address"
        }
      ],
      "name": "changeWalletAddress",
      "outputs": [],
      "payable": false,
      "stateMutability": "nonpayable",
      "type": "function"
    },
    {
      "constant": true,
      "inputs": [
        {
          "internalType": "uint256",
          "name": "",
          "type": "uint256"
        }
      ],
      "name": "depositedCN",
      "outputs": [
        {
          "internalType": "uint256",
          "name": "amount",
          "type": "uint256"
        },
        {
          "internalType": "bool",
          "name": "isDeposited",
          "type": "bool"
        }
      ],
      "payable": false,
      "stateMutability": "view",
      "type": "function"
    },
    {
      "constant": true,
      "inputs": [
        {
          "internalType": "address",
          "name": "_stakedContractAddress",
          "type": "address"
        },
        {
          "internalType": "uint256",
          "name": "_stakedContractIndex",
          "type": "uint256"
        }
      ],
      "name": "getStakedContractStakerByIndex",
      "outputs": [
        {
          "internalType": "address",
          "name": "stakerAddress",
          "type": "address"
        }
      ],
      "payable": false,
      "stateMutability": "view",
      "type": "function"
    },
    {
      "constant": true,
      "inputs": [
        {
          "internalType": "address",
          "name": "_stakedContractAddress",
          "type": "address"
        },
        {
          "internalType": "uint256",
          "name": "_stakedContractIndex",
          "type": "uint256"
        }
      ],
      "name": "getStakedContractStakerIndex",
      "outputs": [
        {
          "internalType": "uint256",
          "name": "sIndex",
          "type": "uint256"
        }
      ],
      "payable": false,
      "stateMutability": "view",
      "type": "function"
    },
    {
      "constant": true,
      "inputs": [
        {
          "internalType": "address",
          "name": "_stakedContractAddress",
          "type": "address"
        }
      ],
      "name": "getStakedContractStakersLength",
      "outputs": [
        {
          "internalType": "uint256",
          "name": "length",
          "type": "uint256"
        }
      ],
      "payable": false,
      "stateMutability": "view",
      "type": "function"
    },
    {
      "constant": true,
      "inputs": [
        {
          "internalType": "address",
          "name": "_stakerAddress",
          "type": "address"
        },
        {
          "internalType": "uint256",
          "name": "_stakerIndex",
          "type": "uint256"
        }
      ],
      "name": "getStakerEarnedStakeCommission",
      "outputs": [
        {
          "internalType": "uint256",
          "name": "",
          "type": "uint256"
        }
      ],
      "payable": false,
      "stateMutability": "view",
      "type": "function"
    },
    {
      "constant": true,
      "inputs": [
        {
          "internalType": "address",
          "name": "_stakerAddress",
          "type": "address"
        },
        {
          "internalType": "uint256",
          "name": "_stakerIndex",
          "type": "uint256"
        }
      ],
      "name": "getStakerInitialStakedAmountOnContract",
      "outputs": [
        {
          "internalType": "uint256",
          "name": "amount",
          "type": "uint256"
        }
      ],
      "payable": false,
      "stateMutability": "view",
      "type": "function"
    },
    {
      "constant": true,
      "inputs": [
        {
          "internalType": "address",
          "name": "_stakerAddress",
          "type": "address"
        },
        {
          "internalType": "uint256",
          "name": "_stakerIndex",
          "type": "uint256"
        }
      ],
      "name": "getStakerRedeemedStakeCommission",
      "outputs": [
        {
          "internalType": "uint256",
          "name": "",
          "type": "uint256"
        }
      ],
      "payable": false,
      "stateMutability": "view",
      "type": "function"
    },
    {
      "constant": true,
      "inputs": [
        {
          "internalType": "address",
          "name": "_stakerAddress",
          "type": "address"
        },
        {
          "internalType": "uint256",
          "name": "_stakerIndex",
          "type": "uint256"
        }
      ],
      "name": "getStakerStakedBurnedByIndex",
      "outputs": [
        {
          "internalType": "uint256",
          "name": "burnedAmount",
          "type": "uint256"
        }
      ],
      "payable": false,
      "stateMutability": "view",
      "type": "function"
    },
    {
      "constant": true,
      "inputs": [
        {
          "internalType": "address",
          "name": "_stakerAddress",
          "type": "address"
        },
        {
          "internalType": "uint256",
          "name": "_stakerIndex",
          "type": "uint256"
        }
      ],
      "name": "getStakerStakedContractByIndex",
      "outputs": [
        {
          "internalType": "address",
          "name": "stakedContractAddress",
          "type": "address"
        }
      ],
      "payable": false,
      "stateMutability": "view",
      "type": "function"
    },
    {
      "constant": true,
      "inputs": [
        {
          "internalType": "address",
          "name": "_stakerAddress",
          "type": "address"
        },
        {
          "internalType": "uint256",
          "name": "_stakerIndex",
          "type": "uint256"
        }
      ],
      "name": "getStakerStakedContractIndex",
      "outputs": [
        {
          "internalType": "uint256",
          "name": "scIndex",
          "type": "uint256"
        }
      ],
      "payable": false,
      "stateMutability": "view",
      "type": "function"
    },
    {
      "constant": true,
      "inputs": [
        {
          "internalType": "address",
          "name": "_stakerAddress",
          "type": "address"
        }
      ],
      "name": "getStakerStakedContractLength",
      "outputs": [
        {
          "internalType": "uint256",
          "name": "length",
          "type": "uint256"
        }
      ],
      "payable": false,
      "stateMutability": "view",
      "type": "function"
    },
    {
      "constant": true,
      "inputs": [
        {
          "internalType": "address",
          "name": "_stakerAddress",
          "type": "address"
        },
        {
          "internalType": "uint256",
          "name": "_stakerIndex",
          "type": "uint256"
        }
      ],
      "name": "getStakerStakedUnlockableBeforeLastBurnByIndex",
      "outputs": [
        {
          "internalType": "uint256",
          "name": "unlockable",
          "type": "uint256"
        }
      ],
      "payable": false,
      "stateMutability": "view",
      "type": "function"
    },
    {
      "constant": true,
      "inputs": [
        {
          "internalType": "address",
          "name": "_stakerAddress",
          "type": "address"
        }
      ],
      "name": "getStakerTotalEarnedStakeCommission",
      "outputs": [
        {
          "internalType": "uint256",
          "name": "totalCommissionEarned",
          "type": "uint256"
        }
      ],
      "payable": false,
      "stateMutability": "view",
      "type": "function"
    },
    {
      "constant": true,
      "inputs": [
        {
          "internalType": "address",
          "name": "_stakerAddress",
          "type": "address"
        }
      ],
      "name": "getStakerTotalReedmedStakeCommission",
      "outputs": [
        {
          "internalType": "uint256",
          "name": "totalCommissionRedeemed",
          "type": "uint256"
        }
      ],
      "payable": false,
      "stateMutability": "view",
      "type": "function"
    },
    {
      "constant": true,
      "inputs": [
        {
          "internalType": "address",
          "name": "_stakerAddress",
          "type": "address"
        },
        {
          "internalType": "uint256",
          "name": "_stakerIndex",
          "type": "uint256"
        }
      ],
      "name": "getStakerUnlockedStakedTokens",
      "outputs": [
        {
          "internalType": "uint256",
          "name": "amount",
          "type": "uint256"
        }
      ],
      "payable": false,
      "stateMutability": "view",
      "type": "function"
    },
    {
      "constant": true,
      "inputs": [
        {
          "internalType": "bytes8",
          "name": "code",
          "type": "bytes8"
        }
      ],
      "name": "getUintParameters",
      "outputs": [
        {
          "internalType": "bytes8",
          "name": "codeVal",
          "type": "bytes8"
        },
        {
          "internalType": "uint256",
          "name": "val",
          "type": "uint256"
        }
      ],
      "payable": false,
      "stateMutability": "view",
      "type": "function"
    },
    {
      "constant": true,
      "inputs": [
        {
          "internalType": "address",
          "name": "_of",
          "type": "address"
        }
      ],
      "name": "isCATokensBooked",
      "outputs": [
        {
          "internalType": "bool",
          "name": "res",
          "type": "bool"
        }
      ],
      "payable": false,
      "stateMutability": "view",
      "type": "function"
    },
    {
      "constant": true,
      "inputs": [],
      "name": "joiningFee",
      "outputs": [
        {
          "internalType": "uint256",
          "name": "",
          "type": "uint256"
        }
      ],
      "payable": false,
      "stateMutability": "view",
      "type": "function"
    },
    {
      "constant": true,
      "inputs": [
        {
          "internalType": "address",
          "name": "",
          "type": "address"
        }
      ],
      "name": "lastCompletedStakeCommission",
      "outputs": [
        {
          "internalType": "uint256",
          "name": "",
          "type": "uint256"
        }
      ],
      "payable": false,
      "stateMutability": "view",
      "type": "function"
    },
    {
      "constant": true,
      "inputs": [],
      "name": "lockCADays",
      "outputs": [
        {
          "internalType": "uint256",
          "name": "",
          "type": "uint256"
        }
      ],
      "payable": false,
      "stateMutability": "view",
      "type": "function"
    },
    {
      "constant": true,
      "inputs": [],
      "name": "lockMVDays",
      "outputs": [
        {
          "internalType": "uint256",
          "name": "",
          "type": "uint256"
        }
      ],
      "payable": false,
      "stateMutability": "view",
      "type": "function"
    },
    {
      "constant": true,
      "inputs": [],
      "name": "lockTokenTimeAfterCoverExp",
      "outputs": [
        {
          "internalType": "uint256",
          "name": "",
          "type": "uint256"
        }
      ],
      "payable": false,
      "stateMutability": "view",
      "type": "function"
    },
    {
      "constant": true,
      "inputs": [],
      "name": "ms",
      "outputs": [
        {
          "internalType": "contract INXMMaster",
          "name": "",
          "type": "address"
        }
      ],
      "payable": false,
      "stateMutability": "view",
      "type": "function"
    },
    {
      "constant": true,
      "inputs": [],
      "name": "nxMasterAddress",
      "outputs": [
        {
          "internalType": "address",
          "name": "",
          "type": "address"
        }
      ],
      "payable": false,
      "stateMutability": "view",
      "type": "function"
    },
    {
      "constant": true,
      "inputs": [],
      "name": "priceStep",
      "outputs": [
        {
          "internalType": "uint256",
          "name": "",
          "type": "uint256"
        }
      ],
      "payable": false,
      "stateMutability": "view",
      "type": "function"
    },
    {
      "constant": false,
      "inputs": [
        {
          "internalType": "address",
          "name": "_stakerAddress",
          "type": "address"
        },
        {
          "internalType": "uint256",
          "name": "_stakerIndex",
          "type": "uint256"
        },
        {
          "internalType": "uint256",
          "name": "_amount",
          "type": "uint256"
        }
      ],
      "name": "pushBurnedTokens",
      "outputs": [],
      "payable": false,
      "stateMutability": "nonpayable",
      "type": "function"
    },
    {
      "constant": false,
      "inputs": [
        {
          "internalType": "address",
          "name": "_stakerAddress",
          "type": "address"
        },
        {
          "internalType": "address",
          "name": "_stakedContractAddress",
          "type": "address"
        },
        {
          "internalType": "uint256",
          "name": "_stakedContractIndex",
          "type": "uint256"
        },
        {
          "internalType": "uint256",
          "name": "_commissionAmount",
          "type": "uint256"
        }
      ],
      "name": "pushEarnedStakeCommissions",
      "outputs": [],
      "payable": false,
      "stateMutability": "nonpayable",
      "type": "function"
    },
    {
      "constant": false,
      "inputs": [
        {
          "internalType": "address",
          "name": "_stakerAddress",
          "type": "address"
        },
        {
          "internalType": "uint256",
          "name": "_stakerIndex",
          "type": "uint256"
        },
        {
          "internalType": "uint256",
          "name": "_amount",
          "type": "uint256"
        }
      ],
      "name": "pushRedeemedStakeCommissions",
      "outputs": [],
      "payable": false,
      "stateMutability": "nonpayable",
      "type": "function"
    },
    {
      "constant": false,
      "inputs": [
        {
          "internalType": "address",
          "name": "_stakerAddress",
          "type": "address"
        },
        {
          "internalType": "uint256",
          "name": "_stakerIndex",
          "type": "uint256"
        },
        {
          "internalType": "uint256",
          "name": "_amount",
          "type": "uint256"
        }
      ],
      "name": "pushUnlockableBeforeLastBurnTokens",
      "outputs": [],
      "payable": false,
      "stateMutability": "nonpayable",
      "type": "function"
    },
    {
      "constant": false,
      "inputs": [
        {
          "internalType": "address",
          "name": "_stakerAddress",
          "type": "address"
        },
        {
          "internalType": "uint256",
          "name": "_stakerIndex",
          "type": "uint256"
        },
        {
          "internalType": "uint256",
          "name": "_amount",
          "type": "uint256"
        }
      ],
      "name": "pushUnlockedStakedTokens",
      "outputs": [],
      "payable": false,
      "stateMutability": "nonpayable",
      "type": "function"
    },
    {
      "constant": true,
      "inputs": [],
      "name": "scValidDays",
      "outputs": [
        {
          "internalType": "uint256",
          "name": "",
          "type": "uint256"
        }
      ],
      "payable": false,
      "stateMutability": "view",
      "type": "function"
    },
    {
      "constant": false,
      "inputs": [
        {
          "internalType": "uint256",
          "name": "coverId",
          "type": "uint256"
        },
        {
          "internalType": "bool",
          "name": "flag",
          "type": "bool"
        }
      ],
      "name": "setDepositCN",
      "outputs": [],
      "payable": false,
      "stateMutability": "nonpayable",
      "type": "function"
    },
    {
      "constant": false,
      "inputs": [
        {
          "internalType": "uint256",
          "name": "coverId",
          "type": "uint256"
        },
        {
          "internalType": "uint256",
          "name": "amount",
          "type": "uint256"
        }
      ],
      "name": "setDepositCNAmount",
      "outputs": [],
      "payable": false,
      "stateMutability": "nonpayable",
      "type": "function"
    },
    {
      "constant": false,
      "inputs": [
        {
          "internalType": "address",
          "name": "_stakerAddress",
          "type": "address"
        },
        {
          "internalType": "uint256",
          "name": "_index",
          "type": "uint256"
        }
      ],
      "name": "setLastCompletedStakeCommissionIndex",
      "outputs": [],
      "payable": false,
      "stateMutability": "nonpayable",
      "type": "function"
    },
    {
      "constant": false,
      "inputs": [
        {
          "internalType": "address",
          "name": "_stakedContractAddress",
          "type": "address"
        },
        {
          "internalType": "uint256",
          "name": "_index",
          "type": "uint256"
        }
      ],
      "name": "setStakedContractCurrentBurnIndex",
      "outputs": [],
      "payable": false,
      "stateMutability": "nonpayable",
      "type": "function"
    },
    {
      "constant": false,
      "inputs": [
        {
          "internalType": "address",
          "name": "_stakedContractAddress",
          "type": "address"
        },
        {
          "internalType": "uint256",
          "name": "_index",
          "type": "uint256"
        }
      ],
      "name": "setStakedContractCurrentCommissionIndex",
      "outputs": [],
      "payable": false,
      "stateMutability": "nonpayable",
      "type": "function"
    },
    {
      "constant": false,
      "inputs": [
        {
          "internalType": "address",
          "name": "_stakerAddress",
          "type": "address"
        },
        {
          "internalType": "uint256",
          "name": "_stakerIndex",
          "type": "uint256"
        },
        {
          "internalType": "uint256",
          "name": "_amount",
          "type": "uint256"
        }
      ],
      "name": "setUnlockableBeforeLastBurnTokens",
      "outputs": [],
      "payable": false,
      "stateMutability": "nonpayable",
      "type": "function"
    },
    {
      "constant": true,
      "inputs": [
        {
          "internalType": "address",
          "name": "",
          "type": "address"
        }
      ],
      "name": "stakedContractCurrentBurnIndex",
      "outputs": [
        {
          "internalType": "uint256",
          "name": "",
          "type": "uint256"
        }
      ],
      "payable": false,
      "stateMutability": "view",
      "type": "function"
    },
    {
      "constant": true,
      "inputs": [
        {
          "internalType": "address",
          "name": "",
          "type": "address"
        }
      ],
      "name": "stakedContractCurrentCommissionIndex",
      "outputs": [
        {
          "internalType": "uint256",
          "name": "",
          "type": "uint256"
        }
      ],
      "payable": false,
      "stateMutability": "view",
      "type": "function"
    },
    {
      "constant": true,
      "inputs": [
        {
          "internalType": "address",
          "name": "",
          "type": "address"
        },
        {
          "internalType": "uint256",
          "name": "",
          "type": "uint256"
        }
      ],
      "name": "stakedContractStakeCommission",
      "outputs": [
        {
          "internalType": "uint256",
          "name": "commissionEarned",
          "type": "uint256"
        },
        {
          "internalType": "uint256",
          "name": "commissionRedeemed",
          "type": "uint256"
        }
      ],
      "payable": false,
      "stateMutability": "view",
      "type": "function"
    },
    {
      "constant": true,
      "inputs": [
        {
          "internalType": "address",
          "name": "",
          "type": "address"
        },
        {
          "internalType": "uint256",
          "name": "",
          "type": "uint256"
        }
      ],
      "name": "stakedContractStakers",
      "outputs": [
        {
          "internalType": "address",
          "name": "stakerAddress",
          "type": "address"
        },
        {
          "internalType": "uint256",
          "name": "stakerIndex",
          "type": "uint256"
        }
      ],
      "payable": false,
      "stateMutability": "view",
      "type": "function"
    },
    {
      "constant": true,
      "inputs": [],
      "name": "stakerCommissionPer",
      "outputs": [
        {
          "internalType": "uint256",
          "name": "",
          "type": "uint256"
        }
      ],
      "payable": false,
      "stateMutability": "view",
      "type": "function"
    },
    {
      "constant": true,
      "inputs": [],
      "name": "stakerMaxCommissionPer",
      "outputs": [
        {
          "internalType": "uint256",
          "name": "",
          "type": "uint256"
        }
      ],
      "payable": false,
      "stateMutability": "view",
      "type": "function"
    },
    {
      "constant": true,
      "inputs": [
        {
          "internalType": "address",
          "name": "",
          "type": "address"
        },
        {
          "internalType": "uint256",
          "name": "",
          "type": "uint256"
        }
      ],
      "name": "stakerStakedContracts",
      "outputs": [
        {
          "internalType": "address",
          "name": "stakedContractAddress",
          "type": "address"
        },
        {
          "internalType": "uint256",
          "name": "stakedContractIndex",
          "type": "uint256"
        },
        {
          "internalType": "uint256",
          "name": "dateAdd",
          "type": "uint256"
        },
        {
          "internalType": "uint256",
          "name": "stakeAmount",
          "type": "uint256"
        },
        {
          "internalType": "uint256",
          "name": "unlockedAmount",
          "type": "uint256"
        },
        {
          "internalType": "uint256",
          "name": "burnedAmount",
          "type": "uint256"
        },
        {
          "internalType": "uint256",
          "name": "unLockableBeforeLastBurn",
          "type": "uint256"
        }
      ],
      "payable": false,
      "stateMutability": "view",
      "type": "function"
    },
    {
      "constant": true,
      "inputs": [],
      "name": "tokenExponent",
      "outputs": [
        {
          "internalType": "uint256",
          "name": "",
          "type": "uint256"
        }
      ],
      "payable": false,
      "stateMutability": "view",
      "type": "function"
    },
    {
      "constant": false,
      "inputs": [
        {
          "internalType": "bytes8",
          "name": "code",
          "type": "bytes8"
        },
        {
          "internalType": "uint256",
          "name": "val",
          "type": "uint256"
        }
      ],
      "name": "updateUintParameters",
      "outputs": [],
      "payable": false,
      "stateMutability": "nonpayable",
      "type": "function"
    },
    {
      "constant": true,
      "inputs": [],
      "name": "walletAddress",
      "outputs": [
        {
          "internalType": "address payable",
          "name": "",
          "type": "address"
        }
      ],
      "payable": false,
      "stateMutability": "view",
      "type": "function"
    }
  ],
  "bytecode": "0x608060405234801561001057600080fd5b506040516124913803806124918339818101604052602081101561003357600080fd5b5051600280546001600160a01b0319166001600160a01b0390921691909117905561a8c0600490815566071afd498d0000600855622e248060035560fa60075562093a806005556202a30060065560146009556032600a55600b556103e8600c556123ee806100a36000396000f3fe608060405234801561001057600080fd5b50600436106103275760003560e01c806397440d40116101b8578063ddaffe5811610104578063efd9066f116100a2578063f7138aae1161007c578063f7138aae14610a72578063f75ce5d414610a9e578063fed57f1814610ac4578063ff1b450414610af657610327565b8063efd9066f14610a3c578063f17a3bec14610a44578063f480454a14610a4c57610327565b8063e2950c9c116100de578063e2950c9c1461098a578063e325ef74146109c4578063eaf53c77146109ea578063ec8edf7a14610a1657610327565b8063ddaffe5814610926578063dfc2d1ba1461094c578063e22648501461098257610327565b8063b8ea578e11610171578063c88587031161014b578063c88587031461089a578063ce0a6d5f146108c6578063d46655f4146108ce578063d9249bff146108f457610327565b8063b8ea578e146107d5578063c1ed5a7414610824578063c47ac1ac1461089257610327565b806397440d40146106d15780639dd86e0f14610703578063a0b2d57f14610730578063a1692f0414610738578063a34e79bf1461077d578063a72c3520146107a957610327565b806343148d23116102775780636eeeaaa5116102305780638831d5901161020a5780638831d5901461067057806388d519c4146106955780639532cb2c1461069d57806396cf1455146106a557610327565b80636eeeaaa51461061657806379ade32f1461061e578063832c2e401461064a57610327565b806343148d231461052a5780634e718659146105565780636101c166146105795780636122f8401461059f5780636a964451146105ea5780636ad5b3ea146105f257610327565b8063200e7ccf116102e457806334f15b69116102be57806334f15b691461047657806334f45c3e146104b25780633739e439146104de5780633f4a7efa1461050457610327565b8063200e7ccf1461041657806324da7b691461041e5780632bc226281461044a57610327565b8063048dc9901461032c5780630d2c1104146103605780630ea9c9841461037a57806314f07b3c1461038257806318190817146103b45780631dc130a2146103e0575b600080fd5b61035e6004803603606081101561034257600080fd5b506001600160a01b038135169060208101359060400135610b22565b005b610368610c2a565b60408051918252519081900360200190f35b61035e610c30565b61035e6004803603606081101561039857600080fd5b506001600160a01b038135169060208101359060400135610c32565b61035e600480360360408110156103ca57600080fd5b506001600160a01b038135169060200135610d3a565b6103fd600480360360208110156103f657600080fd5b5035610dd6565b6040805192835290151560208301528051918290030190f35b610368610df2565b6103686004803603604081101561043457600080fd5b506001600160a01b038135169060200135610df8565b6103686004803603604081101561046057600080fd5b506001600160a01b038135169060200135610e36565b61035e6004803603608081101561048c57600080fd5b506001600160a01b03813581169160208101359091169060408101359060600135610e49565b610368600480360360408110156104c857600080fd5b506001600160a01b038135169060200135610f62565b61035e600480360360208110156104f457600080fd5b50356001600160a01b0316610fa0565b6103686004803603602081101561051a57600080fd5b50356001600160a01b03166110a3565b6103686004803603604081101561054057600080fd5b506001600160a01b0381351690602001356110f1565b61035e6004803603604081101561056c57600080fd5b508035906020013561112f565b6103686004803603602081101561058f57600080fd5b50356001600160a01b03166111c1565b6105c6600480360360208110156105b557600080fd5b50356001600160c01b0319166111fc565b604080516001600160c01b0319909316835260208301919091528051918290030190f35b61036861138b565b6105fa611391565b604080516001600160a01b039092168252519081900360200190f35b6103686113a0565b6103686004803603604081101561063457600080fd5b506001600160a01b0381351690602001356113a6565b6103686004803603602081101561066057600080fd5b50356001600160a01b03166113e4565b61035e6004803603604081101561068657600080fd5b508035906020013515156113f6565b61036861150b565b610368611511565b6105fa600480360360408110156106bb57600080fd5b506001600160a01b038135169060200135611517565b61035e600480360360608110156106e757600080fd5b506001600160a01b03813516906020810135906040013561155c565b61035e6004803603604081101561071957600080fd5b506001600160c01b03198135169060200135611664565b6105fa6118b2565b6107646004803603604081101561074e57600080fd5b506001600160a01b0381351690602001356118c1565b6040805192835260208301919091528051918290030190f35b6103686004803603604081101561079357600080fd5b506001600160a01b0381351690602001356118e5565b6105fa600480360360408110156107bf57600080fd5b506001600160a01b038135169060200135611923565b610801600480360360408110156107eb57600080fd5b506001600160a01b038135169060200135611968565b604080516001600160a01b03909316835260208301919091528051918290030190f35b6108506004803603604081101561083a57600080fd5b506001600160a01b0381351690602001356119ab565b604080516001600160a01b0390981688526020880196909652868601949094526060860192909252608085015260a084015260c0830152519081900360e00190f35b610368611a0c565b61035e600480360360408110156108b057600080fd5b506001600160a01b038135169060200135611a12565b610368611aae565b61035e600480360360208110156108e457600080fd5b50356001600160a01b0316611ab4565b61035e6004803603606081101561090a57600080fd5b506001600160a01b038135169060208101359060400135611b3d565b6103686004803603602081101561093c57600080fd5b50356001600160a01b0316611c9d565b6103686004803603606081101561096257600080fd5b506001600160a01b03813581169160208101359091169060400135611caf565b610368611e5b565b6109b0600480360360208110156109a057600080fd5b50356001600160a01b0316611e61565b604080519115158252519081900360200190f35b610368600480360360208110156109da57600080fd5b50356001600160a01b0316611e8a565b61035e60048036036040811015610a0057600080fd5b506001600160a01b038135169060200135611ea5565b61035e60048036036020811015610a2c57600080fd5b50356001600160a01b0316611f41565b610368611fe3565b6105fa611fe9565b61036860048036036020811015610a6257600080fd5b50356001600160a01b0316611ff8565b61036860048036036040811015610a8857600080fd5b506001600160a01b038135169060200135612013565b61036860048036036020811015610ab457600080fd5b50356001600160a01b031661201f565b61035e60048036036060811015610ada57600080fd5b506001600160a01b038135169060208101359060400135612031565b61036860048036036040811015610b0c57600080fd5b506001600160a01b0381351690602001356120d8565b600054604080516323c5b10760e21b815233600482015290516001600160a01b0390921691638f16c41c91602480820192602092909190829003018186803b158015610b6d57600080fd5b505afa158015610b81573d6000803e3d6000fd5b505050506040513d6020811015610b9757600080fd5b5051610ba257600080fd5b6001600160a01b0383166000908152600d602052604090208054610bec91839185908110610bcc57fe5b90600052602060002090600702016005015461211690919063ffffffff16565b6001600160a01b0384166000908152600d60205260409020805484908110610c1057fe5b906000526020600020906007020160050181905550505050565b60055481565b565b600054604080516323c5b10760e21b815233600482015290516001600160a01b0390921691638f16c41c91602480820192602092909190829003018186803b158015610c7d57600080fd5b505afa158015610c91573d6000803e3d6000fd5b505050506040513d6020811015610ca757600080fd5b5051610cb257600080fd5b6001600160a01b0383166000908152600d602052604090208054610cfc91839185908110610cdc57fe5b90600052602060002090600702016006015461211690919063ffffffff16565b6001600160a01b0384166000908152600d60205260409020805484908110610d2057fe5b906000526020600020906007020160060181905550505050565b600054604080516323c5b10760e21b815233600482015290516001600160a01b0390921691638f16c41c91602480820192602092909190829003018186803b158015610d8557600080fd5b505afa158015610d99573d6000803e3d6000fd5b505050506040513d6020811015610daf57600080fd5b5051610dba57600080fd5b6001600160a01b03909116600090815260106020526040902055565b6013602052600090815260409020805460019091015460ff1682565b60065481565b6001600160a01b0382166000908152600e60205260408120805483908110610e1c57fe5b906000526020600020906002020160010154905092915050565b6000610e428383612170565b9392505050565b600054604080516323c5b10760e21b815233600482015290516001600160a01b0390921691638f16c41c91602480820192602092909190829003018186803b158015610e9457600080fd5b505afa158015610ea8573d6000803e3d6000fd5b505050506040513d6020811015610ebe57600080fd5b5051610ec957600080fd5b6001600160a01b0383166000908152600f60209081526040808320858452909152902054610efd908263ffffffff61211616565b6001600160a01b038085166000818152600f602090815260408083208884528252918290209490945580518581529051869492938916927f05456de91d83e21ad7c41a09ae7cb41836049c49e6ddaf07bdfc40c2231885d2928290030190a450505050565b6001600160a01b0382166000908152600d60205260408120805483908110610f8657fe5b906000526020600020906007020160050154905092915050565b600054604080516323c5b10760e21b815233600482015290516001600160a01b0390921691638f16c41c91602480820192602092909190829003018186803b158015610feb57600080fd5b505afa158015610fff573d6000803e3d6000fd5b505050506040513d602081101561101557600080fd5b505161102057600080fd5b61102981611e61565b15611073576040805162461bcd60e51b8152602060048201526015602482015274151bdad95b9cc8185b1c9958591e48189bdbdad959605a1b604482015290519081900360640190fd5b60045461108790429063ffffffff61211616565b6001600160a01b03909116600090815260146020526040902055565b6000805b6001600160a01b0383166000908152600d60205260409020548110156110eb576110e16110d48483612211565b839063ffffffff61211616565b91506001016110a7565b50919050565b6001600160a01b0382166000908152600d6020526040812080548390811061111557fe5b906000526020600020906007020160030154905092915050565b600054604080516323c5b10760e21b815233600482015290516001600160a01b0390921691638f16c41c91602480820192602092909190829003018186803b15801561117a57600080fd5b505afa15801561118e573d6000803e3d6000fd5b505050506040513d60208110156111a457600080fd5b50516111af57600080fd5b60009182526013602052604090912055565b6000805b6001600160a01b0383166000908152600d60205260409020548110156110eb576111f26110d48483612170565b91506001016111c5565b806000650544f4b4558560d41b6001600160c01b0319831614156112235750600b54611386565b660544f4b535445560cc1b6001600160c01b0319841614156112485750600c54611386565b6614905313d0d2d560ca1b6001600160c01b03198416141561126d5750600754611386565b655241434f4d4d60d01b6001600160c01b0319841614156112915750600954611386565b6552414d41584360d01b6001600160c01b0319841614156112b55750600a54611386565b6610d05093d3d2d560ca1b6001600160c01b0319841614156112e657610e10600454816112de57fe5b049050611386565b6610d05313d0d2d560ca1b6001600160c01b0319841614156113105762015180600554816112de57fe5b6613559313d0d2d560ca1b6001600160c01b03198416141561133a5762015180600654816112de57fe5b67145553d313d0d2d560c21b6001600160c01b0319841614156113655762015180600354816112de57fe5b664a4f494e46454560c81b6001600160c01b03198416141561138657506008545b915091565b600a5481565b6002546001600160a01b031681565b60085481565b6001600160a01b0382166000908152600d602052604081208054839081106113ca57fe5b906000526020600020906007020160010154905092915050565b60116020526000908152604090205481565b600054604080516323c5b10760e21b815233600482015290516001600160a01b0390921691638f16c41c91602480820192602092909190829003018186803b15801561144157600080fd5b505afa158015611455573d6000803e3d6000fd5b505050506040513d602081101561146b57600080fd5b505161147657600080fd5b600181151514156114e85760008281526013602052604090206001015460ff16156114e8576040805162461bcd60e51b815260206004820152601c60248201527f436f766572206e6f746520616c7265616479206465706f736974656400000000604482015290519081900360640190fd5b600091825260136020526040909120600101805460ff1916911515919091179055565b600c5481565b60045481565b6001600160a01b0382166000908152600d6020526040812080548390811061153b57fe5b60009182526020909120600790910201546001600160a01b03169392505050565b600054604080516323c5b10760e21b815233600482015290516001600160a01b0390921691638f16c41c91602480820192602092909190829003018186803b1580156115a757600080fd5b505afa1580156115bb573d6000803e3d6000fd5b505050506040513d60208110156115d157600080fd5b50516115dc57600080fd5b6001600160a01b0383166000908152600d6020526040902080546116269183918590811061160657fe5b90600052602060002090600702016004015461211690919063ffffffff16565b6001600160a01b0384166000908152600d6020526040902080548490811061164a57fe5b906000526020600020906007020160040181905550505050565b60005460408051632c1a733d60e11b815233600482015290516001600160a01b0390921691635834e67a91602480820192602092909190829003018186803b1580156116af57600080fd5b505afa1580156116c3573d6000803e3d6000fd5b505050506040513d60208110156116d957600080fd5b50516116e457600080fd5b650544f4b4558560d41b6001600160c01b03198316141561170d57611708816122b3565b6118ae565b660544f4b535445560cc1b6001600160c01b03198316141561173257611708816122b8565b6614905313d0d2d560ca1b6001600160c01b03198316141561175757611708816122bd565b655241434f4d4d60d01b6001600160c01b03198316141561177b57611708816122c2565b6552414d41584360d01b6001600160c01b03198316141561179f57611708816122c7565b6610d05093d3d2d560ca1b6001600160c01b0319831614156117c85761170881610e10026122cc565b6610d05313d0d2d560ca1b6001600160c01b0319831614156117f2576117088162015180026122d1565b6613559313d0d2d560ca1b6001600160c01b03198316141561181c576117088162015180026122d6565b67145553d313d0d2d560c21b6001600160c01b031983161415611847576117088162015180026122db565b664a4f494e46454560c81b6001600160c01b03198316141561186c57611708816122e0565b6040805162461bcd60e51b8152602060048201526012602482015271496e76616c696420706172616d20636f646560701b604482015290519081900360640190fd5b5050565b6000546001600160a01b031681565b600f6020908152600092835260408084209091529082529020805460019091015482565b6001600160a01b0382166000908152600d6020526040812080548390811061190957fe5b906000526020600020906007020160060154905092915050565b6001600160a01b0382166000908152600e6020526040812080548390811061194757fe5b60009182526020909120600290910201546001600160a01b03169392505050565b600e602052816000526040600020818154811061198157fe5b6000918252602090912060029091020180546001909101546001600160a01b039091169250905082565b600d60205281600052604060002081815481106119c457fe5b600091825260209091206007909102018054600182015460028301546003840154600485015460058601546006909601546001600160a01b0390951697509295509093909287565b60075481565b600054604080516323c5b10760e21b815233600482015290516001600160a01b0390921691638f16c41c91602480820192602092909190829003018186803b158015611a5d57600080fd5b505afa158015611a71573d6000803e3d6000fd5b505050506040513d6020811015611a8757600080fd5b5051611a9257600080fd5b6001600160a01b03909116600090815260116020526040902055565b60035481565b6000546001600160a01b031615611b11576000546001600160a01b03163314611b11576040805162461bcd60e51b815260206004820152600a6024820152692737ba1036b0b9ba32b960b11b604482015290519081900360640190fd5b600080546001600160a01b039092166001600160a01b0319928316811790915560018054909216179055565b600054604080516323c5b10760e21b815233600482015290516001600160a01b0390921691638f16c41c91602480820192602092909190829003018186803b158015611b8857600080fd5b505afa158015611b9c573d6000803e3d6000fd5b505050506040513d6020811015611bb257600080fd5b5051611bbd57600080fd5b6001600160a01b0383166000908152600d60205260408120805484908110611be157fe5b90600052602060002090600702016001015490506000600d6000866001600160a01b03166001600160a01b031681526020019081526020016000208481548110611c2757fe5b600091825260208083206007909202909101546001600160a01b0316808352600f82526040808420868552909252912060010154909150611c6e908463ffffffff61211616565b6001600160a01b039091166000908152600f602090815260408083209483529390529190912060010155505050565b60106020526000908152604090205481565b60008054604080516323c5b10760e21b815233600482015290516001600160a01b0390921691638f16c41c91602480820192602092909190829003018186803b158015611cfb57600080fd5b505afa158015611d0f573d6000803e3d6000fd5b505050506040513d6020811015611d2557600080fd5b5051611d3057600080fd5b6001600160a01b038381166000908152600e60209081526040808320815180830183528986168082528552600d84529184205482840190815281546001808201808555938752949095209251600290950290920180546001600160a01b031916949095169390931784555192810192909255611dab916122e5565b6001600160a01b039485166000908152600d60209081526040808320815160e081018352978916885287830185815242928901928352606089019788526080890185815260a08a0186815260c08b01878152845460018082018755958952969097209a516007909602909a0180546001600160a01b03191695909b16949094178a555190890155516002880155935160038701559251600486015592516005850155505160069092019190915590565b60095481565b6001600160a01b038116600090815260146020526040812054421015611e85575060015b919050565b6001600160a01b03166000908152600d602052604090205490565b600054604080516323c5b10760e21b815233600482015290516001600160a01b0390921691638f16c41c91602480820192602092909190829003018186803b158015611ef057600080fd5b505afa158015611f04573d6000803e3d6000fd5b505050506040513d6020811015611f1a57600080fd5b5051611f2557600080fd5b6001600160a01b03909116600090815260126020526040902055565b600054604080516323c5b10760e21b815233600482015290516001600160a01b0390921691638f16c41c91602480820192602092909190829003018186803b158015611f8c57600080fd5b505afa158015611fa0573d6000803e3d6000fd5b505050506040513d6020811015611fb657600080fd5b5051611fc157600080fd5b600280546001600160a01b0319166001600160a01b0392909216919091179055565b600b5481565b6001546001600160a01b031681565b6001600160a01b03166000908152600e602052604090205490565b6000610e428383612211565b60126020526000908152604090205481565b600054604080516323c5b10760e21b815233600482015290516001600160a01b0390921691638f16c41c91602480820192602092909190829003018186803b15801561207c57600080fd5b505afa158015612090573d6000803e3d6000fd5b505050506040513d60208110156120a657600080fd5b50516120b157600080fd5b6001600160a01b0383166000908152600d60205260409020805482919084908110610d2057fe5b6001600160a01b0382166000908152600d602052604081208054839081106120fc57fe5b906000526020600020906007020160040154905092915050565b600082820183811015610e42576040805162461bcd60e51b815260206004820152601b60248201527f536166654d6174683a206164646974696f6e206f766572666c6f770000000000604482015290519081900360640190fd5b6001600160a01b0382166000908152600d602052604081208054829182918590811061219857fe5b600091825260208083206007909202909101546001600160a01b038881168452600d90925260409092208054919092169250859081106121d457fe5b60009182526020808320600160079093020191909101546001600160a01b039093168252600f815260408083209383529290522054949350505050565b6001600160a01b0382166000908152600d602052604081208054829182918590811061223957fe5b600091825260208083206007909202909101546001600160a01b038881168452600d909252604090922080549190921692508590811061227557fe5b6000918252602080832060016007909302018201546001600160a01b039094168352600f815260408084209484529390529190200154949350505050565b600b55565b600c55565b600755565b600955565b600a55565b600455565b600555565b600655565b600355565b600855565b6000610e4283836040518060400160405280601e81526020017f536166654d6174683a207375627472616374696f6e206f766572666c6f770000815250600081848411156123b15760405162461bcd60e51b81526004018080602001828103825283818151815260200191508051906020019080838360005b8381101561237657818101518382015260200161235e565b50505050905090810190601f1680156123a35780820380516001836020036101000a031916815260200191505b509250505060405180910390fd5b50505090039056fea265627a7a723158202e28d84547848a75b0122dffae65b361f23a7c2d755358fcf2a197128b1de0e164736f6c63430005110032",
  "linkReferences": {},
  "deployedLinkReferences": {}
}