{
  "_format": "hh-sol-artifact-1",
  "contractName": "ClaimProofs",
  "sourceName": "contracts/NexusMutual/modules/claims/ClaimProofs.sol",
  "abi": [
    {
      "anonymous": false,
      "inputs": [
        {
          "indexed": true,
          "internalType": "uint256",
          "name": "coverId",
          "type": "uint256"
        },
        {
          "indexed": true,
          "internalType": "address",
          "name": "owner",
          "type": "address"
        },
        {
          "indexed": false,
          "internalType": "string",
          "name": "ipfsHash",
          "type": "string"
        }
      ],
      "name": "ProofAdded",
      "type": "event"
    },
    {
      "constant": false,
      "inputs": [
        {
          "internalType": "uint256",
          "name": "_coverId",
          "type": "uint256"
        },
        {
          "internalType": "string",
          "name": "_ipfsHash",
          "type": "string"
        }
      ],
      "name": "addProof",
      "outputs": [],
      "payable": false,
      "stateMutability": "nonpayable",
      "type": "function"
    }
  ],
  "bytecode": "0x608060405234801561001057600080fd5b5061014e806100206000396000f3fe608060405234801561001057600080fd5b506004361061002b5760003560e01c8063f9f3d0d914610030575b600080fd5b6100a76004803603604081101561004657600080fd5b8135919081019060408101602082013564010000000081111561006857600080fd5b82018360208201111561007a57600080fd5b8035906020019184600183028401116401000000008311171561009c57600080fd5b5090925090506100a9565b005b336001600160a01b0316837fbaa675765274f1b054a7c8dd5d7bdc8fcef9a7c314f58d93e4c5097809a7c668848460405180806020018281038252848482818152602001925080828437600083820152604051601f909101601f19169092018290039550909350505050a350505056fea265627a7a723158209779ee5d4e2a2967583a0a62cc108d41b9bf8e8d4cf043b0f51183e5e0a8e29264736f6c63430005110032",
  "linkReferences": {},
  "deployedLinkReferences": {}
}