{
  "_format": "hh-sol-artifact-1",
  "contractName": "ClaimsData",
  "sourceName": "nexusmutual/contracts/modules/claims/ClaimsData.sol",
  "abi": [
    {
      "inputs": [],
      "payable": false,
      "stateMutability": "nonpayable",
      "type": "constructor"
    },
    {
      "anonymous": false,
      "inputs": [
        {
          "indexed": true,
          "internalType": "uint256",
          "name": "coverId",
          "type": "uint256"
        },
        {
          "indexed": true,
          "internalType": "address",
          "name": "userAddress",
          "type": "address"
        },
        {
          "indexed": false,
          "internalType": "uint256",
          "name": "claimId",
          "type": "uint256"
        },
        {
          "indexed": false,
          "internalType": "uint256",
          "name": "dateSubmit",
          "type": "uint256"
        }
      ],
      "name": "ClaimRaise",
      "type": "event"
    },
    {
      "anonymous": false,
      "inputs": [
        {
          "indexed": true,
          "internalType": "address",
          "name": "userAddress",
          "type": "address"
        },
        {
          "indexed": true,
          "internalType": "uint256",
          "name": "claimId",
          "type": "uint256"
        },
        {
          "indexed": true,
          "internalType": "bytes4",
          "name": "typeOf",
          "type": "bytes4"
        },
        {
          "indexed": false,
          "internalType": "uint256",
          "name": "tokens",
          "type": "uint256"
        },
        {
          "indexed": false,
          "internalType": "uint256",
          "name": "submitDate",
          "type": "uint256"
        },
        {
          "indexed": false,
          "internalType": "int8",
          "name": "verdict",
          "type": "int8"
        }
      ],
      "name": "VoteCast",
      "type": "event"
    },
    {
      "constant": true,
      "inputs": [],
      "name": "actualClaimLength",
      "outputs": [
        {
          "internalType": "uint256",
          "name": "len",
          "type": "uint256"
        }
      ],
      "payable": false,
      "stateMutability": "view",
      "type": "function"
    },
    {
      "constant": false,
      "inputs": [
        {
          "internalType": "uint256",
          "name": "_claimId",
          "type": "uint256"
        },
        {
          "internalType": "uint256",
          "name": "_coverId",
          "type": "uint256"
        },
        {
          "internalType": "address",
          "name": "_from",
          "type": "address"
        },
        {
          "internalType": "uint256",
          "name": "_nowtime",
          "type": "uint256"
        }
      ],
      "name": "addClaim",
      "outputs": [],
      "payable": false,
      "stateMutability": "nonpayable",
      "type": "function"
    },
    {
      "constant": false,
      "inputs": [
        {
          "internalType": "uint256",
          "name": "_claimId",
          "type": "uint256"
        },
        {
          "internalType": "uint256",
          "name": "_voteid",
          "type": "uint256"
        }
      ],
      "name": "addClaimVoteCA",
      "outputs": [],
      "payable": false,
      "stateMutability": "nonpayable",
      "type": "function"
    },
    {
      "constant": false,
      "inputs": [
        {
          "internalType": "uint256",
          "name": "_claimId",
          "type": "uint256"
        },
        {
          "internalType": "uint256",
          "name": "_voteid",
          "type": "uint256"
        }
      ],
      "name": "addClaimVotemember",
      "outputs": [],
      "payable": false,
      "stateMutability": "nonpayable",
      "type": "function"
    },
    {
      "constant": false,
      "inputs": [
        {
          "internalType": "address",
          "name": "_voter",
          "type": "address"
        },
        {
          "internalType": "uint256",
          "name": "_tokens",
          "type": "uint256"
        },
        {
          "internalType": "uint256",
          "name": "claimId",
          "type": "uint256"
        },
        {
          "internalType": "int8",
          "name": "_verdict",
          "type": "int8"
        }
      ],
      "name": "addVote",
      "outputs": [],
      "payable": false,
      "stateMutability": "nonpayable",
      "type": "function"
    },
    {
      "constant": false,
      "inputs": [
        {
          "internalType": "uint256",
          "name": "_coverId",
          "type": "uint256"
        },
        {
          "internalType": "address",
          "name": "_userAddress",
          "type": "address"
        },
        {
          "internalType": "uint256",
          "name": "_claimId",
          "type": "uint256"
        },
        {
          "internalType": "uint256",
          "name": "_datesubmit",
          "type": "uint256"
        }
      ],
      "name": "callClaimEvent",
      "outputs": [],
      "payable": false,
      "stateMutability": "nonpayable",
      "type": "function"
    },
    {
      "constant": false,
      "inputs": [
        {
          "internalType": "address",
          "name": "_userAddress",
          "type": "address"
        },
        {
          "internalType": "uint256",
          "name": "_claimId",
          "type": "uint256"
        },
        {
          "internalType": "bytes4",
          "name": "_typeOf",
          "type": "bytes4"
        },
        {
          "internalType": "uint256",
          "name": "_tokens",
          "type": "uint256"
        },
        {
          "internalType": "uint256",
          "name": "_submitDate",
          "type": "uint256"
        },
        {
          "internalType": "int8",
          "name": "_verdict",
          "type": "int8"
        }
      ],
      "name": "callVoteEvent",
      "outputs": [],
      "payable": false,
      "stateMutability": "nonpayable",
      "type": "function"
    },
    {
      "constant": false,
      "inputs": [],
      "name": "changeDependentContractAddress",
      "outputs": [],
      "payable": false,
      "stateMutability": "nonpayable",
      "type": "function"
    },
    {
      "constant": false,
      "inputs": [
        {
          "internalType": "uint256",
          "name": "_claimId",
          "type": "uint256"
        },
        {
          "internalType": "int8",
          "name": "_verdict",
          "type": "int8"
        }
      ],
      "name": "changeFinalVerdict",
      "outputs": [],
      "payable": false,
      "stateMutability": "nonpayable",
      "type": "function"
    },
    {
      "constant": false,
      "inputs": [
        {
          "internalType": "address",
          "name": "_masterAddress",
          "type": "address"
        }
      ],
      "name": "changeMasterAddress",
      "outputs": [],
      "payable": false,
      "stateMutability": "nonpayable",
      "type": "function"
    },
    {
      "constant": true,
      "inputs": [],
      "name": "claimDepositTime",
      "outputs": [
        {
          "internalType": "uint256",
          "name": "",
          "type": "uint256"
        }
      ],
      "payable": false,
      "stateMutability": "view",
      "type": "function"
    },
    {
      "constant": true,
      "inputs": [],
      "name": "claimRewardPerc",
      "outputs": [
        {
          "internalType": "uint256",
          "name": "",
          "type": "uint256"
        }
      ],
      "payable": false,
      "stateMutability": "view",
      "type": "function"
    },
    {
      "constant": true,
      "inputs": [
        {
          "internalType": "address",
          "name": "_member",
          "type": "address"
        }
      ],
      "name": "getAllClaimsByAddress",
      "outputs": [
        {
          "internalType": "uint256[]",
          "name": "claimarr",
          "type": "uint256[]"
        }
      ],
      "payable": false,
      "stateMutability": "view",
      "type": "function"
    },
    {
      "constant": true,
      "inputs": [
        {
          "internalType": "uint256",
          "name": "_claimId",
          "type": "uint256"
        }
      ],
      "name": "getAllClaimsByIndex",
      "outputs": [
        {
          "internalType": "uint256",
          "name": "coverId",
          "type": "uint256"
        },
        {
          "internalType": "int8",
          "name": "vote",
          "type": "int8"
        },
        {
          "internalType": "uint256",
          "name": "status",
          "type": "uint256"
        },
        {
          "internalType": "uint256",
          "name": "dateUpd",
          "type": "uint256"
        },
        {
          "internalType": "uint256",
          "name": "state12Count",
          "type": "uint256"
        }
      ],
      "payable": false,
      "stateMutability": "view",
      "type": "function"
    },
    {
      "constant": true,
      "inputs": [],
      "name": "getAllVoteLength",
      "outputs": [
        {
          "internalType": "uint256",
          "name": "voteCount",
          "type": "uint256"
        }
      ],
      "payable": false,
      "stateMutability": "view",
      "type": "function"
    },
    {
      "constant": true,
      "inputs": [
        {
          "internalType": "uint256",
          "name": "_claimId",
          "type": "uint256"
        }
      ],
      "name": "getAllVotesForClaim",
      "outputs": [
        {
          "internalType": "uint256",
          "name": "claimId",
          "type": "uint256"
        },
        {
          "internalType": "uint256[]",
          "name": "ca",
          "type": "uint256[]"
        },
        {
          "internalType": "uint256[]",
          "name": "mv",
          "type": "uint256[]"
        }
      ],
      "payable": false,
      "stateMutability": "view",
      "type": "function"
    },
    {
      "constant": true,
      "inputs": [
        {
          "internalType": "uint256",
          "name": "_claimId",
          "type": "uint256"
        }
      ],
      "name": "getCaClaimVotesToken",
      "outputs": [
        {
          "internalType": "uint256",
          "name": "claimId",
          "type": "uint256"
        },
        {
          "internalType": "uint256",
          "name": "cnt",
          "type": "uint256"
        }
      ],
      "payable": false,
      "stateMutability": "view",
      "type": "function"
    },
    {
      "constant": true,
      "inputs": [
        {
          "internalType": "uint256",
          "name": "_claimId",
          "type": "uint256"
        }
      ],
      "name": "getClaim",
      "outputs": [
        {
          "internalType": "uint256",
          "name": "claimId",
          "type": "uint256"
        },
        {
          "internalType": "uint256",
          "name": "coverId",
          "type": "uint256"
        },
        {
          "internalType": "int8",
          "name": "vote",
          "type": "int8"
        },
        {
          "internalType": "uint256",
          "name": "status",
          "type": "uint256"
        },
        {
          "internalType": "uint256",
          "name": "dateUpd",
          "type": "uint256"
        },
        {
          "internalType": "uint256",
          "name": "state12Count",
          "type": "uint256"
        }
      ],
      "payable": false,
      "stateMutability": "view",
      "type": "function"
    },
    {
      "constant": true,
      "inputs": [
        {
          "internalType": "uint256",
          "name": "_claimId",
          "type": "uint256"
        }
      ],
      "name": "getClaimCoverId",
      "outputs": [
        {
          "internalType": "uint256",
          "name": "claimId",
          "type": "uint256"
        },
        {
          "internalType": "uint256",
          "name": "coverid",
          "type": "uint256"
        }
      ],
      "payable": false,
      "stateMutability": "view",
      "type": "function"
    },
    {
      "constant": true,
      "inputs": [
        {
          "internalType": "uint256",
          "name": "_claimId",
          "type": "uint256"
        }
      ],
      "name": "getClaimDateUpd",
      "outputs": [
        {
          "internalType": "uint256",
          "name": "dateupd",
          "type": "uint256"
        }
      ],
      "payable": false,
      "stateMutability": "view",
      "type": "function"
    },
    {
      "constant": true,
      "inputs": [
        {
          "internalType": "uint256",
          "name": "_index",
          "type": "uint256"
        },
        {
          "internalType": "address",
          "name": "_add",
          "type": "address"
        }
      ],
      "name": "getClaimFromNewStart",
      "outputs": [
        {
          "internalType": "uint256",
          "name": "coverid",
          "type": "uint256"
        },
        {
          "internalType": "uint256",
          "name": "claimId",
          "type": "uint256"
        },
        {
          "internalType": "int8",
          "name": "voteCA",
          "type": "int8"
        },
        {
          "internalType": "int8",
          "name": "voteMV",
          "type": "int8"
        },
        {
          "internalType": "uint256",
          "name": "statusnumber",
          "type": "uint256"
        }
      ],
      "payable": false,
      "stateMutability": "view",
      "type": "function"
    },
    {
      "constant": true,
      "inputs": [],
      "name": "getClaimLength",
      "outputs": [
        {
          "internalType": "uint256",
          "name": "len",
          "type": "uint256"
        }
      ],
      "payable": false,
      "stateMutability": "view",
      "type": "function"
    },
    {
      "constant": true,
      "inputs": [
        {
          "internalType": "uint256",
          "name": "_claimId",
          "type": "uint256"
        },
        {
          "internalType": "int8",
          "name": "_verdict",
          "type": "int8"
        }
      ],
      "name": "getClaimMVote",
      "outputs": [
        {
          "internalType": "uint256",
          "name": "claimId",
          "type": "uint256"
        },
        {
          "internalType": "uint256",
          "name": "token",
          "type": "uint256"
        }
      ],
      "payable": false,
      "stateMutability": "view",
      "type": "function"
    },
    {
      "constant": true,
      "inputs": [
        {
          "internalType": "uint256",
          "name": "_index",
          "type": "uint256"
        }
      ],
      "name": "getClaimOfEmergencyPauseByIndex",
      "outputs": [
        {
          "internalType": "uint256",
          "name": "coverId",
          "type": "uint256"
        },
        {
          "internalType": "uint256",
          "name": "dateUpd",
          "type": "uint256"
        },
        {
          "internalType": "bool",
          "name": "submit",
          "type": "bool"
        }
      ],
      "payable": false,
      "stateMutability": "view",
      "type": "function"
    },
    {
      "constant": true,
      "inputs": [
        {
          "internalType": "uint256",
          "name": "claimid",
          "type": "uint256"
        }
      ],
      "name": "getClaimRewardDetail",
      "outputs": [
        {
          "internalType": "uint256",
          "name": "percCA",
          "type": "uint256"
        },
        {
          "internalType": "uint256",
          "name": "percMV",
          "type": "uint256"
        },
        {
          "internalType": "uint256",
          "name": "tokens",
          "type": "uint256"
        }
      ],
      "payable": false,
      "stateMutability": "view",
      "type": "function"
    },
    {
      "constant": true,
      "inputs": [
        {
          "internalType": "uint256",
          "name": "_claimId",
          "type": "uint256"
        }
      ],
      "name": "getClaimState12Count",
      "outputs": [
        {
          "internalType": "uint256",
          "name": "num",
          "type": "uint256"
        }
      ],
      "payable": false,
      "stateMutability": "view",
      "type": "function"
    },
    {
      "constant": true,
      "inputs": [
        {
          "internalType": "uint256",
          "name": "_claimId",
          "type": "uint256"
        }
      ],
      "name": "getClaimStatusNumber",
      "outputs": [
        {
          "internalType": "uint256",
          "name": "claimId",
          "type": "uint256"
        },
        {
          "internalType": "uint256",
          "name": "statno",
          "type": "uint256"
        }
      ],
      "payable": false,
      "stateMutability": "view",
      "type": "function"
    },
    {
      "constant": true,
      "inputs": [
        {
          "internalType": "uint256",
          "name": "_claimId",
          "type": "uint256"
        },
        {
          "internalType": "int8",
          "name": "_verdict",
          "type": "int8"
        }
      ],
      "name": "getClaimVote",
      "outputs": [
        {
          "internalType": "uint256",
          "name": "claimId",
          "type": "uint256"
        },
        {
          "internalType": "uint256",
          "name": "token",
          "type": "uint256"
        }
      ],
      "payable": false,
      "stateMutability": "view",
      "type": "function"
    },
    {
      "constant": true,
      "inputs": [
        {
          "internalType": "uint256",
          "name": "_claimId",
          "type": "uint256"
        },
        {
          "internalType": "uint8",
          "name": "_ca",
          "type": "uint8"
        }
      ],
      "name": "getClaimVoteLength",
      "outputs": [
        {
          "internalType": "uint256",
          "name": "claimId",
          "type": "uint256"
        },
        {
          "internalType": "uint256",
          "name": "len",
          "type": "uint256"
        }
      ],
      "payable": false,
      "stateMutability": "view",
      "type": "function"
    },
    {
      "constant": true,
      "inputs": [
        {
          "internalType": "uint256",
          "name": "_claimId",
          "type": "uint256"
        }
      ],
      "name": "getClaimsTokenCA",
      "outputs": [
        {
          "internalType": "uint256",
          "name": "claimId",
          "type": "uint256"
        },
        {
          "internalType": "uint256",
          "name": "accept",
          "type": "uint256"
        },
        {
          "internalType": "uint256",
          "name": "deny",
          "type": "uint256"
        }
      ],
      "payable": false,
      "stateMutability": "view",
      "type": "function"
    },
    {
      "constant": true,
      "inputs": [
        {
          "internalType": "uint256",
          "name": "_claimId",
          "type": "uint256"
        }
      ],
      "name": "getClaimsTokenMV",
      "outputs": [
        {
          "internalType": "uint256",
          "name": "claimId",
          "type": "uint256"
        },
        {
          "internalType": "uint256",
          "name": "accept",
          "type": "uint256"
        },
        {
          "internalType": "uint256",
          "name": "deny",
          "type": "uint256"
        }
      ],
      "payable": false,
      "stateMutability": "view",
      "type": "function"
    },
    {
      "constant": true,
      "inputs": [
        {
          "internalType": "uint256",
          "name": "_claimId",
          "type": "uint256"
        }
      ],
      "name": "getFinalVerdict",
      "outputs": [
        {
          "internalType": "int8",
          "name": "verdict",
          "type": "int8"
        }
      ],
      "payable": false,
      "stateMutability": "view",
      "type": "function"
    },
    {
      "constant": true,
      "inputs": [],
      "name": "getFirstClaimIndexToStartVotingAfterEP",
      "outputs": [
        {
          "internalType": "uint256",
          "name": "firstindex",
          "type": "uint256"
        }
      ],
      "payable": false,
      "stateMutability": "view",
      "type": "function"
    },
    {
      "constant": true,
      "inputs": [],
      "name": "getFirstClaimIndexToSubmitAfterEP",
      "outputs": [
        {
          "internalType": "uint256",
          "name": "indexToSubmit",
          "type": "uint256"
        }
      ],
      "payable": false,
      "stateMutability": "view",
      "type": "function"
    },
    {
      "constant": true,
      "inputs": [],
      "name": "getLengthOfClaimSubmittedAtEP",
      "outputs": [
        {
          "internalType": "uint256",
          "name": "len",
          "type": "uint256"
        }
      ],
      "payable": false,
      "stateMutability": "view",
      "type": "function"
    },
    {
      "constant": true,
      "inputs": [],
      "name": "getLengthOfClaimVotingPause",
      "outputs": [
        {
          "internalType": "uint256",
          "name": "len",
          "type": "uint256"
        }
      ],
      "payable": false,
      "stateMutability": "view",
      "type": "function"
    },
    {
      "constant": true,
      "inputs": [
        {
          "internalType": "uint256",
          "name": "_claimId",
          "type": "uint256"
        }
      ],
      "name": "getMemberClaimVotesToken",
      "outputs": [
        {
          "internalType": "uint256",
          "name": "claimId",
          "type": "uint256"
        },
        {
          "internalType": "uint256",
          "name": "cnt",
          "type": "uint256"
        }
      ],
      "payable": false,
      "stateMutability": "view",
      "type": "function"
    },
    {
      "constant": true,
      "inputs": [
        {
          "internalType": "uint256",
          "name": "_index",
          "type": "uint256"
        }
      ],
      "name": "getPendingClaimDetailsByIndex",
      "outputs": [
        {
          "internalType": "uint256",
          "name": "claimId",
          "type": "uint256"
        },
        {
          "internalType": "uint256",
          "name": "pendingTime",
          "type": "uint256"
        },
        {
          "internalType": "bool",
          "name": "voting",
          "type": "bool"
        }
      ],
      "payable": false,
      "stateMutability": "view",
      "type": "function"
    },
    {
      "constant": true,
      "inputs": [
        {
          "internalType": "address",
          "name": "_voter",
          "type": "address"
        }
      ],
      "name": "getRewardDistributedIndex",
      "outputs": [
        {
          "internalType": "uint256",
          "name": "lastCAvoteIndex",
          "type": "uint256"
        },
        {
          "internalType": "uint256",
          "name": "lastMVvoteIndex",
          "type": "uint256"
        }
      ],
      "payable": false,
      "stateMutability": "view",
      "type": "function"
    },
    {
      "constant": true,
      "inputs": [
        {
          "internalType": "uint256",
          "name": "statusNumber",
          "type": "uint256"
        }
      ],
      "name": "getRewardStatus",
      "outputs": [
        {
          "internalType": "uint256",
          "name": "percCA",
          "type": "uint256"
        },
        {
          "internalType": "uint256",
          "name": "percMV",
          "type": "uint256"
        }
      ],
      "payable": false,
      "stateMutability": "view",
      "type": "function"
    },
    {
      "constant": true,
      "inputs": [
        {
          "internalType": "address",
          "name": "_of",
          "type": "address"
        },
        {
          "internalType": "uint256",
          "name": "_claimId",
          "type": "uint256"
        }
      ],
      "name": "getTokensClaim",
      "outputs": [
        {
          "internalType": "uint256",
          "name": "claimId",
          "type": "uint256"
        },
        {
          "internalType": "uint256",
          "name": "tokens",
          "type": "uint256"
        }
      ],
      "payable": false,
      "stateMutability": "view",
      "type": "function"
    },
    {
      "constant": true,
      "inputs": [
        {
          "internalType": "bytes8",
          "name": "code",
          "type": "bytes8"
        }
      ],
      "name": "getUintParameters",
      "outputs": [
        {
          "internalType": "bytes8",
          "name": "codeVal",
          "type": "bytes8"
        },
        {
          "internalType": "uint256",
          "name": "val",
          "type": "uint256"
        }
      ],
      "payable": false,
      "stateMutability": "view",
      "type": "function"
    },
    {
      "constant": true,
      "inputs": [
        {
          "internalType": "uint256",
          "name": "_index",
          "type": "uint256"
        },
        {
          "internalType": "address",
          "name": "_add",
          "type": "address"
        }
      ],
      "name": "getUserClaimByIndex",
      "outputs": [
        {
          "internalType": "uint256",
          "name": "status",
          "type": "uint256"
        },
        {
          "internalType": "uint256",
          "name": "coverid",
          "type": "uint256"
        },
        {
          "internalType": "uint256",
          "name": "claimId",
          "type": "uint256"
        }
      ],
      "payable": false,
      "stateMutability": "view",
      "type": "function"
    },
    {
      "constant": true,
      "inputs": [
        {
          "internalType": "address",
          "name": "_add",
          "type": "address"
        }
      ],
      "name": "getUserClaimCount",
      "outputs": [
        {
          "internalType": "uint256",
          "name": "len",
          "type": "uint256"
        }
      ],
      "payable": false,
      "stateMutability": "view",
      "type": "function"
    },
    {
      "constant": true,
      "inputs": [
        {
          "internalType": "address",
          "name": "_add",
          "type": "address"
        },
        {
          "internalType": "uint256",
          "name": "_claimId",
          "type": "uint256"
        }
      ],
      "name": "getUserClaimVoteCA",
      "outputs": [
        {
          "internalType": "uint256",
          "name": "idVote",
          "type": "uint256"
        }
      ],
      "payable": false,
      "stateMutability": "view",
      "type": "function"
    },
    {
      "constant": true,
      "inputs": [
        {
          "internalType": "address",
          "name": "_add",
          "type": "address"
        },
        {
          "internalType": "uint256",
          "name": "_claimId",
          "type": "uint256"
        }
      ],
      "name": "getUserClaimVoteMember",
      "outputs": [
        {
          "internalType": "uint256",
          "name": "idVote",
          "type": "uint256"
        }
      ],
      "payable": false,
      "stateMutability": "view",
      "type": "function"
    },
    {
      "constant": true,
      "inputs": [
        {
          "internalType": "address",
          "name": "_voter",
          "type": "address"
        },
        {
          "internalType": "uint256",
          "name": "index",
          "type": "uint256"
        }
      ],
      "name": "getVoteAddressCA",
      "outputs": [
        {
          "internalType": "uint256",
          "name": "",
          "type": "uint256"
        }
      ],
      "payable": false,
      "stateMutability": "view",
      "type": "function"
    },
    {
      "constant": true,
      "inputs": [
        {
          "internalType": "address",
          "name": "_voter",
          "type": "address"
        }
      ],
      "name": "getVoteAddressCALength",
      "outputs": [
        {
          "internalType": "uint256",
          "name": "",
          "type": "uint256"
        }
      ],
      "payable": false,
      "stateMutability": "view",
      "type": "function"
    },
    {
      "constant": true,
      "inputs": [
        {
          "internalType": "address",
          "name": "_voter",
          "type": "address"
        },
        {
          "internalType": "uint256",
          "name": "index",
          "type": "uint256"
        }
      ],
      "name": "getVoteAddressMember",
      "outputs": [
        {
          "internalType": "uint256",
          "name": "",
          "type": "uint256"
        }
      ],
      "payable": false,
      "stateMutability": "view",
      "type": "function"
    },
    {
      "constant": true,
      "inputs": [
        {
          "internalType": "address",
          "name": "_voter",
          "type": "address"
        }
      ],
      "name": "getVoteAddressMemberLength",
      "outputs": [
        {
          "internalType": "uint256",
          "name": "",
          "type": "uint256"
        }
      ],
      "payable": false,
      "stateMutability": "view",
      "type": "function"
    },
    {
      "constant": true,
      "inputs": [
        {
          "internalType": "uint256",
          "name": "_voteid",
          "type": "uint256"
        }
      ],
      "name": "getVoteDetails",
      "outputs": [
        {
          "internalType": "uint256",
          "name": "tokens",
          "type": "uint256"
        },
        {
          "internalType": "uint256",
          "name": "claimId",
          "type": "uint256"
        },
        {
          "internalType": "int8",
          "name": "verdict",
          "type": "int8"
        },
        {
          "internalType": "bool",
          "name": "rewardClaimed",
          "type": "bool"
        }
      ],
      "payable": false,
      "stateMutability": "view",
      "type": "function"
    },
    {
      "constant": true,
      "inputs": [
        {
          "internalType": "uint256",
          "name": "_claimId",
          "type": "uint256"
        },
        {
          "internalType": "uint256",
          "name": "_index",
          "type": "uint256"
        },
        {
          "internalType": "uint8",
          "name": "_ca",
          "type": "uint8"
        }
      ],
      "name": "getVoteToken",
      "outputs": [
        {
          "internalType": "uint256",
          "name": "tok",
          "type": "uint256"
        }
      ],
      "payable": false,
      "stateMutability": "view",
      "type": "function"
    },
    {
      "constant": true,
      "inputs": [
        {
          "internalType": "uint256",
          "name": "_claimId",
          "type": "uint256"
        },
        {
          "internalType": "uint256",
          "name": "_index",
          "type": "uint256"
        },
        {
          "internalType": "uint8",
          "name": "_ca",
          "type": "uint8"
        }
      ],
      "name": "getVoteVerdict",
      "outputs": [
        {
          "internalType": "int8",
          "name": "ver",
          "type": "int8"
        }
      ],
      "payable": false,
      "stateMutability": "view",
      "type": "function"
    },
    {
      "constant": true,
      "inputs": [
        {
          "internalType": "uint256",
          "name": "_claimId",
          "type": "uint256"
        },
        {
          "internalType": "uint256",
          "name": "_index",
          "type": "uint256"
        },
        {
          "internalType": "uint8",
          "name": "_ca",
          "type": "uint8"
        }
      ],
      "name": "getVoteVoter",
      "outputs": [
        {
          "internalType": "address",
          "name": "voter",
          "type": "address"
        }
      ],
      "payable": false,
      "stateMutability": "view",
      "type": "function"
    },
    {
      "constant": true,
      "inputs": [
        {
          "internalType": "uint256",
          "name": "_voteid",
          "type": "uint256"
        }
      ],
      "name": "getVoterVote",
      "outputs": [
        {
          "internalType": "address",
          "name": "voter",
          "type": "address"
        }
      ],
      "payable": false,
      "stateMutability": "view",
      "type": "function"
    },
    {
      "constant": true,
      "inputs": [],
      "name": "majorityConsensus",
      "outputs": [
        {
          "internalType": "uint256",
          "name": "",
          "type": "uint256"
        }
      ],
      "payable": false,
      "stateMutability": "view",
      "type": "function"
    },
    {
      "constant": true,
      "inputs": [],
      "name": "maxVoteThreshold",
      "outputs": [
        {
          "internalType": "uint256",
          "name": "",
          "type": "uint256"
        }
      ],
      "payable": false,
      "stateMutability": "view",
      "type": "function"
    },
    {
      "constant": true,
      "inputs": [],
      "name": "maxVotingTime",
      "outputs": [
        {
          "internalType": "uint256",
          "name": "",
          "type": "uint256"
        }
      ],
      "payable": false,
      "stateMutability": "view",
      "type": "function"
    },
    {
      "constant": true,
      "inputs": [],
      "name": "minVoteThreshold",
      "outputs": [
        {
          "internalType": "uint256",
          "name": "",
          "type": "uint256"
        }
      ],
      "payable": false,
      "stateMutability": "view",
      "type": "function"
    },
    {
      "constant": true,
      "inputs": [],
      "name": "minVotingTime",
      "outputs": [
        {
          "internalType": "uint256",
          "name": "",
          "type": "uint256"
        }
      ],
      "payable": false,
      "stateMutability": "view",
      "type": "function"
    },
    {
      "constant": true,
      "inputs": [],
      "name": "ms",
      "outputs": [
        {
          "internalType": "contract INXMMaster",
          "name": "",
          "type": "address"
        }
      ],
      "payable": false,
      "stateMutability": "view",
      "type": "function"
    },
    {
      "constant": true,
      "inputs": [],
      "name": "nxMasterAddress",
      "outputs": [
        {
          "internalType": "address",
          "name": "",
          "type": "address"
        }
      ],
      "payable": false,
      "stateMutability": "view",
      "type": "function"
    },
    {
      "constant": true,
      "inputs": [],
      "name": "pauseDaysCA",
      "outputs": [
        {
          "internalType": "uint256",
          "name": "",
          "type": "uint256"
        }
      ],
      "payable": false,
      "stateMutability": "view",
      "type": "function"
    },
    {
      "constant": true,
      "inputs": [],
      "name": "payoutRetryTime",
      "outputs": [
        {
          "internalType": "uint256",
          "name": "",
          "type": "uint256"
        }
      ],
      "payable": false,
      "stateMutability": "view",
      "type": "function"
    },
    {
      "constant": true,
      "inputs": [],
      "name": "pendingClaimStart",
      "outputs": [
        {
          "internalType": "uint256",
          "name": "",
          "type": "uint256"
        }
      ],
      "payable": false,
      "stateMutability": "view",
      "type": "function"
    },
    {
      "constant": false,
      "inputs": [
        {
          "internalType": "uint256",
          "name": "_coverId",
          "type": "uint256"
        },
        {
          "internalType": "uint256",
          "name": "_dateUpd",
          "type": "uint256"
        },
        {
          "internalType": "bool",
          "name": "_submit",
          "type": "bool"
        }
      ],
      "name": "setClaimAtEmergencyPause",
      "outputs": [],
      "payable": false,
      "stateMutability": "nonpayable",
      "type": "function"
    },
    {
      "constant": false,
      "inputs": [
        {
          "internalType": "uint256",
          "name": "claimid",
          "type": "uint256"
        },
        {
          "internalType": "uint256",
          "name": "percCA",
          "type": "uint256"
        },
        {
          "internalType": "uint256",
          "name": "percMV",
          "type": "uint256"
        },
        {
          "internalType": "uint256",
          "name": "tokens",
          "type": "uint256"
        }
      ],
      "name": "setClaimRewardDetail",
      "outputs": [],
      "payable": false,
      "stateMutability": "nonpayable",
      "type": "function"
    },
    {
      "constant": false,
      "inputs": [
        {
          "internalType": "uint256",
          "name": "_claimId",
          "type": "uint256"
        },
        {
          "internalType": "uint256",
          "name": "_stat",
          "type": "uint256"
        }
      ],
      "name": "setClaimStatus",
      "outputs": [],
      "payable": false,
      "stateMutability": "nonpayable",
      "type": "function"
    },
    {
      "constant": false,
      "inputs": [
        {
          "internalType": "uint256",
          "name": "_index",
          "type": "uint256"
        },
        {
          "internalType": "bool",
          "name": "_submit",
          "type": "bool"
        }
      ],
      "name": "setClaimSubmittedAtEPTrue",
      "outputs": [],
      "payable": false,
      "stateMutability": "nonpayable",
      "type": "function"
    },
    {
      "constant": false,
      "inputs": [
        {
          "internalType": "uint256",
          "name": "_claimId",
          "type": "uint256"
        },
        {
          "internalType": "int8",
          "name": "_vote",
          "type": "int8"
        },
        {
          "internalType": "uint256",
          "name": "_tokens",
          "type": "uint256"
        }
      ],
      "name": "setClaimTokensCA",
      "outputs": [],
      "payable": false,
      "stateMutability": "nonpayable",
      "type": "function"
    },
    {
      "constant": false,
      "inputs": [
        {
          "internalType": "uint256",
          "name": "_claimId",
          "type": "uint256"
        },
        {
          "internalType": "int8",
          "name": "_vote",
          "type": "int8"
        },
        {
          "internalType": "uint256",
          "name": "_tokens",
          "type": "uint256"
        }
      ],
      "name": "setClaimTokensMV",
      "outputs": [],
      "payable": false,
      "stateMutability": "nonpayable",
      "type": "function"
    },
    {
      "constant": false,
      "inputs": [
        {
          "internalType": "uint256",
          "name": "_claimId",
          "type": "uint256"
        },
        {
          "internalType": "uint256",
          "name": "_dateUpd",
          "type": "uint256"
        }
      ],
      "name": "setClaimdateUpd",
      "outputs": [],
      "payable": false,
      "stateMutability": "nonpayable",
      "type": "function"
    },
    {
      "constant": false,
      "inputs": [
        {
          "internalType": "uint256",
          "name": "_claimStartVotingFirstIndex",
          "type": "uint256"
        }
      ],
      "name": "setFirstClaimIndexToStartVotingAfterEP",
      "outputs": [],
      "payable": false,
      "stateMutability": "nonpayable",
      "type": "function"
    },
    {
      "constant": false,
      "inputs": [
        {
          "internalType": "uint256",
          "name": "_firstClaimIndexToSubmit",
          "type": "uint256"
        }
      ],
      "name": "setFirstClaimIndexToSubmitAfterEP",
      "outputs": [],
      "payable": false,
      "stateMutability": "nonpayable",
      "type": "function"
    },
    {
      "constant": false,
      "inputs": [
        {
          "internalType": "uint256",
          "name": "_claimId",
          "type": "uint256"
        },
        {
          "internalType": "uint256",
          "name": "_pendingTime",
          "type": "uint256"
        },
        {
          "internalType": "bool",
          "name": "_voting",
          "type": "bool"
        }
      ],
      "name": "setPendingClaimDetails",
      "outputs": [],
      "payable": false,
      "stateMutability": "nonpayable",
      "type": "function"
    },
    {
      "constant": false,
      "inputs": [
        {
          "internalType": "uint256",
          "name": "_claimId",
          "type": "uint256"
        },
        {
          "internalType": "bool",
          "name": "_vote",
          "type": "bool"
        }
      ],
      "name": "setPendingClaimVoteStatus",
      "outputs": [],
      "payable": false,
      "stateMutability": "nonpayable",
      "type": "function"
    },
    {
      "constant": false,
      "inputs": [
        {
          "internalType": "uint256",
          "name": "_voteid",
          "type": "uint256"
        },
        {
          "internalType": "bool",
          "name": "claimed",
          "type": "bool"
        }
      ],
      "name": "setRewardClaimed",
      "outputs": [],
      "payable": false,
      "stateMutability": "nonpayable",
      "type": "function"
    },
    {
      "constant": false,
      "inputs": [
        {
          "internalType": "address",
          "name": "_voter",
          "type": "address"
        },
        {
          "internalType": "uint256",
          "name": "caIndex",
          "type": "uint256"
        }
      ],
      "name": "setRewardDistributedIndexCA",
      "outputs": [],
      "payable": false,
      "stateMutability": "nonpayable",
      "type": "function"
    },
    {
      "constant": false,
      "inputs": [
        {
          "internalType": "address",
          "name": "_voter",
          "type": "address"
        },
        {
          "internalType": "uint256",
          "name": "mvIndex",
          "type": "uint256"
        }
      ],
      "name": "setRewardDistributedIndexMV",
      "outputs": [],
      "payable": false,
      "stateMutability": "nonpayable",
      "type": "function"
    },
    {
      "constant": false,
      "inputs": [
        {
          "internalType": "address",
          "name": "_from",
          "type": "address"
        },
        {
          "internalType": "uint256",
          "name": "_claimId",
          "type": "uint256"
        },
        {
          "internalType": "uint256",
          "name": "_voteid",
          "type": "uint256"
        }
      ],
      "name": "setUserClaimVoteCA",
      "outputs": [],
      "payable": false,
      "stateMutability": "nonpayable",
      "type": "function"
    },
    {
      "constant": false,
      "inputs": [
        {
          "internalType": "address",
          "name": "_from",
          "type": "address"
        },
        {
          "internalType": "uint256",
          "name": "_claimId",
          "type": "uint256"
        },
        {
          "internalType": "uint256",
          "name": "_voteid",
          "type": "uint256"
        }
      ],
      "name": "setUserClaimVoteMember",
      "outputs": [],
      "payable": false,
      "stateMutability": "nonpayable",
      "type": "function"
    },
    {
      "constant": false,
      "inputs": [
        {
          "internalType": "address",
          "name": "user",
          "type": "address"
        }
      ],
      "name": "setUserClaimVotePausedOn",
      "outputs": [],
      "payable": false,
      "stateMutability": "nonpayable",
      "type": "function"
    },
    {
      "constant": false,
      "inputs": [
        {
          "internalType": "uint256",
          "name": "_start",
          "type": "uint256"
        }
      ],
      "name": "setpendingClaimStart",
      "outputs": [],
      "payable": false,
      "stateMutability": "nonpayable",
      "type": "function"
    },
    {
      "constant": false,
      "inputs": [
        {
          "internalType": "uint256",
          "name": "_claimId",
          "type": "uint256"
        },
        {
          "internalType": "uint256",
          "name": "_cnt",
          "type": "uint256"
        }
      ],
      "name": "updateState12Count",
      "outputs": [],
      "payable": false,
      "stateMutability": "nonpayable",
      "type": "function"
    },
    {
      "constant": false,
      "inputs": [
        {
          "internalType": "bytes8",
          "name": "code",
          "type": "bytes8"
        },
        {
          "internalType": "uint256",
          "name": "val",
          "type": "uint256"
        }
      ],
      "name": "updateUintParameters",
      "outputs": [],
      "payable": false,
      "stateMutability": "nonpayable",
      "type": "function"
    },
    {
      "constant": true,
      "inputs": [
        {
          "internalType": "address",
          "name": "",
          "type": "address"
        }
      ],
      "name": "userClaimVotePausedOn",
      "outputs": [
        {
          "internalType": "uint256",
          "name": "",
          "type": "uint256"
        }
      ],
      "payable": false,
      "stateMutability": "view",
      "type": "function"
    }
  ],
  "bytecode": "0x60806040523480156200001157600080fd5b5060016018819055506202a300601a8190555061a8c0601b8190555062015180601c8190555060046040518060a00160405280600073ffffffffffffffffffffffffffffffffffffffff16815260200160008152602001600081526020016000800b8152602001600015158152509080600181540180825580915050906001820390600052602060002090600402016000909192909190915060008201518160000160006101000a81548173ffffffffffffffffffffffffffffffffffffffff021916908373ffffffffffffffffffffffffffffffffffffffff160217905550602082015181600101556040820151816002015560608201518160030160006101000a81548160ff021916908360000b60ff16021790555060808201518160030160016101000a81548160ff0219169083151502179055505050506003604051806040016040528060008152602001600081525090806001815401808255809150509060018203906000526020600020906002020160009091929091909150600082015181600001556020820151816001015550505062093a806019819055506014601d819055506005601e81905550600a601f8190555060466020819055506203f480602181905550620001eb620001f160201b60201c565b62000371565b620002046000806200031460201b60201c565b620002176000806200031460201b60201c565b6200022a6000806200031460201b60201c565b6200023d6000806200031460201b60201c565b620002506000806200031460201b60201c565b620002636000806200031460201b60201c565b62000277606460006200031460201b60201c565b6200028b606460006200031460201b60201c565b6200029f600060646200031460201b60201c565b620002b3600060646200031460201b60201c565b620002c66000806200031460201b60201c565b620002d96000806200031460201b60201c565b620002ec6000806200031460201b60201c565b620002ff6000806200031460201b60201c565b620003126000806200031460201b60201c565b565b60026040518060400160405280848152602001838152509080600181540180825580915050906001820390600052602060002090600202016000909192909190915060008201518160000155602082015181600101555050505050565b615e4e80620003816000396000f3fe608060405234801561001057600080fd5b50600436106104c25760003560e01c8063990dcb9011610278578063bc82d0891161015c578063e3d10ed8116100ce578063f2d16e2a11610092578063f2d16e2a14611b31578063f2eb3b6b14611b93578063f4f4c6dd14611bc1578063f511bdfe14611c93578063fc57c9bb14611ccb578063fd61265e14611d2d576104c2565b8063e3d10ed8146119f2578063ee8dea6314611a4a578063f0f7587a14611a68578063f17a3bec14611aad578063f27a104714611af7576104c2565b8063c672724a11610120578063c672724a1461181e578063cfda12061461186a578063d46655f414611898578063d654c6bc146118dc578063dbd0064c1461194a578063e0fd6e821461199a576104c2565b8063bc82d08914611690578063be7cbc5c14611728578063c344ccc614611776578063c46b77c2146117b0578063c49a8b19146117ce576104c2565b8063a8b395aa116101f5578063af3bd83f116101b9578063af3bd83f14611534578063b18e594114611552578063b2dd6f7914611570578063b32c7879146115a8578063bb67643a1461162d578063bbd275ee1461164b576104c2565b8063a8b395aa14611406578063a90a6e1114611424578063a924813614611442578063aad0ec7a14611470578063aee92741146114d2576104c2565b8063a0b2d57f1161023c578063a0b2d57f1461128d578063a35d093a146112d7578063a40d35181461130f578063a788c1ff14611363578063a7b1346f1461139d576104c2565b8063990dcb90146110be578063999770ac146111205780639bc5aa23146111695780639dd86e0f146111a15780639e4d73ca146111f4576104c2565b806354d0f8d8116103aa5780637c2af6ee1161031c578063923b0a81116102e0578063923b0a8114610eee5780639449059214610f37578063949d9d7614610f7b5780639600d64714610fcb578063965bfafb1461102157806396ff592f14611075576104c2565b80637c2af6ee14610dd15780637eb7b2ee14610e0957806385d4949614610e4d57806386d2b20114610e6b57806389b11cfe14610ed0576104c2565b80636122f8401161036e5780636122f84014610c29578063623c2bca14610cc35780636e3979e214610d0757806370e2630b14610d775780637532b09114610d9557806379c80e7214610db3576104c2565b806354d0f8d814610a845780635aef244714610ac65780635ca1ce8b14610b315780635d2462e414610b875780635f39579d14610be0576104c2565b80633852a2ec11610443578063436f1fc511610407578063436f1fc51461090e57806346f4da571461092c5780634e06c014146109675780634fa6b272146109af57806354275324146109cd57806354a1b43114610a23576104c2565b80633852a2ec146107685780633aee2f7c146107865780633cc17a54146108105780633fce43281461085e57806340676a51146108b6576104c2565b806321fffaea1161048a57806321fffaea146105d9578063274d865f1461063857806334f19e2c1461069057806337bc7f90146106e857806337c8266d1461074a576104c2565b80630325ea37146104c757806304ecffeb1461051057806309ed2a4b1461056f5780630ea9c9841461058d5780631cc464fe14610597575b600080fd5b6104f3600480360360208110156104dd57600080fd5b8101908080359060200190929190505050611d91565b604051808381526020018281526020019250505060405180910390f35b6105526004803603602081101561052657600080fd5b81019080803573ffffffffffffffffffffffffffffffffffffffff169060200190929190505050611db2565b604051808381526020018281526020019250505060405180910390f35b610577611e44565b6040518082815260200191505060405180910390f35b610595611e4a565b005b6105c3600480360360208110156105ad57600080fd5b8101908080359060200190929190505050611f2e565b6040518082815260200191505060405180910390f35b61061c600480360360608110156105ef57600080fd5b810190808035906020019092919080359060200190929190803560ff169060200190929190505050611f4b565b604051808260000b60000b815260200191505060405180910390f35b61067a6004803603602081101561064e57600080fd5b81019080803573ffffffffffffffffffffffffffffffffffffffff169060200190929190505050612012565b6040518082815260200191505060405180910390f35b6106d2600480360360208110156106a657600080fd5b81019080803573ffffffffffffffffffffffffffffffffffffffff16906020019092919050505061205e565b6040518082815260200191505060405180910390f35b610748600480360360808110156106fe57600080fd5b8101908080359060200190929190803573ffffffffffffffffffffffffffffffffffffffff16906020019092919080359060200190929190803590602001909291905050506120aa565b005b6107526121e9565b6040518082815260200191505060405180910390f35b6107706121ef565b6040518082815260200191505060405180910390f35b6107d26004803603604081101561079c57600080fd5b8101908080359060200190929190803573ffffffffffffffffffffffffffffffffffffffff1690602001909291905050506121f5565b604051808681526020018581526020018460000b60000b81526020018360000b60000b81526020018281526020019550505050505060405180910390f35b61085c6004803603604081101561082657600080fd5b81019080803573ffffffffffffffffffffffffffffffffffffffff1690602001909291908035906020019092919050505061241c565b005b6108a06004803603602081101561087457600080fd5b81019080803573ffffffffffffffffffffffffffffffffffffffff169060200190929190505050612549565b6040518082815260200191505060405180910390f35b6108f8600480360360208110156108cc57600080fd5b81019080803573ffffffffffffffffffffffffffffffffffffffff169060200190929190505050612561565b6040518082815260200191505060405180910390f35b6109166125ad565b6040518082815260200191505060405180910390f35b6109656004803603604081101561094257600080fd5b8101908080359060200190929190803560000b90602001909291905050506125b3565b005b6109936004803603602081101561097d57600080fd5b81019080803590602001909291905050506126c8565b604051808260000b60000b815260200191505060405180910390f35b6109b76126f2565b6040518082815260200191505060405180910390f35b610a06600480360360408110156109e357600080fd5b8101908080359060200190929190803560000b90602001909291905050506126f8565b604051808381526020018281526020019250505060405180910390f35b610a4f60048036036020811015610a3957600080fd5b81019080803590602001909291905050506127f8565b604051808581526020018481526020018360000b60000b81526020018215151515815260200194505050505060405180910390f35b610ab060048036036020811015610a9a57600080fd5b81019080803590602001909291905050506128a3565b6040518082815260200191505060405180910390f35b610af260048036036020811015610adc57600080fd5b81019080803590602001909291905050506128cb565b604051808781526020018681526020018560000b60000b8152602001848152602001838152602001828152602001965050505050505060405180910390f35b610b6a60048036036040811015610b4757600080fd5b8101908080359060200190929190803560000b9060200190929190505050612971565b604051808381526020018281526020019250505060405180910390f35b610bca60048036036060811015610b9d57600080fd5b810190808035906020019092919080359060200190929190803560ff169060200190929190505050612a71565b6040518082815260200191505060405180910390f35b610c0c60048036036020811015610bf657600080fd5b8101908080359060200190929190505050612b1e565b604051808381526020018281526020019250505060405180910390f35b610c7060048036036020811015610c3f57600080fd5b81019080803577ffffffffffffffffffffffffffffffffffffffffffffffff19169060200190929190505050612b68565b604051808377ffffffffffffffffffffffffffffffffffffffffffffffff191677ffffffffffffffffffffffffffffffffffffffffffffffff191681526020018281526020019250505060405180910390f35b610d0560048036036020811015610cd957600080fd5b81019080803573ffffffffffffffffffffffffffffffffffffffff169060200190929190505050612e65565b005b610d5360048036036040811015610d1d57600080fd5b8101908080359060200190929190803573ffffffffffffffffffffffffffffffffffffffff169060200190929190505050612f8e565b60405180848152602001838152602001828152602001935050505060405180910390f35b610d7f613028565b6040518082815260200191505060405180910390f35b610d9d613048565b6040518082815260200191505060405180910390f35b610dbb613055565b6040518082815260200191505060405180910390f35b610e0760048036036040811015610de757600080fd5b81019080803590602001909291908035906020019092919050505061305b565b005b610e4b60048036036060811015610e1f57600080fd5b810190808035906020019092919080359060200190929190803515159060200190929190505050613164565b005b610e556132cc565b6040518082815260200191505060405180910390f35b610ece60048036036080811015610e8157600080fd5b81019080803573ffffffffffffffffffffffffffffffffffffffff1690602001909291908035906020019092919080359060200190929190803560000b90602001909291905050506132ed565b005b610ed86134e7565b6040518082815260200191505060405180910390f35b610f1a60048036036020811015610f0457600080fd5b81019080803590602001909291905050506134f4565b604051808381526020018281526020019250505060405180910390f35b610f7960048036036060811015610f4d57600080fd5b810190808035906020019092919080359060200190929190803515159060200190929190505050613590565b005b610fa760048036036020811015610f9157600080fd5b81019080803590602001909291905050506136f8565b60405180848152602001838152602001828152602001935050505060405180910390f35b61100460048036036040811015610fe157600080fd5b8101908080359060200190929190803560ff169060200190929190505050613739565b604051808381526020018281526020019250505060405180910390f35b61104d6004803603602081101561103757600080fd5b810190808035906020019092919050505061378a565b6040518084815260200183815260200182151515158152602001935050505060405180910390f35b6110a16004803603602081101561108b57600080fd5b8101908080359060200190929190505050613806565b604051808381526020018281526020019250505060405180910390f35b61110a600480360360408110156110d457600080fd5b81019080803573ffffffffffffffffffffffffffffffffffffffff16906020019092919080359060200190929190505050613832565b6040518082815260200191505060405180910390f35b61114c6004803603602081101561113657600080fd5b810190808035906020019092919050505061388d565b604051808381526020018281526020019250505060405180910390f35b61119f6004803603604081101561117f57600080fd5b810190808035906020019092919080359060200190929190505050613929565b005b6111f2600480360360408110156111b757600080fd5b81019080803577ffffffffffffffffffffffffffffffffffffffffffffffff1916906020019092919080359060200190929190505050613a4c565b005b6112366004803603602081101561120a57600080fd5b81019080803573ffffffffffffffffffffffffffffffffffffffff169060200190929190505050613e97565b6040518080602001828103825283818151815260200191508051906020019060200280838360005b8381101561127957808201518184015260208101905061125e565b505050509050019250505060405180910390f35b611295613f2e565b604051808273ffffffffffffffffffffffffffffffffffffffff1673ffffffffffffffffffffffffffffffffffffffff16815260200191505060405180910390f35b61130d600480360360408110156112ed57600080fd5b810190808035906020019092919080359060200190929190505050613f53565b005b61133b6004803603602081101561132557600080fd5b8101908080359060200190929190505050614076565b6040518084815260200183815260200182151515158152602001935050505060405180910390f35b61139b6004803603604081101561137957600080fd5b81019080803590602001909291908035151590602001909291905050506140f2565b005b6113e9600480360360408110156113b357600080fd5b81019080803573ffffffffffffffffffffffffffffffffffffffff1690602001909291908035906020019092919050505061420e565b604051808381526020018281526020019250505060405180910390f35b61140e61428c565b6040518082815260200191505060405180910390f35b61142c614292565b6040518082815260200191505060405180910390f35b61146e6004803603602081101561145857600080fd5b8101908080359060200190929190505050614298565b005b6114d06004803603608081101561148657600080fd5b810190808035906020019092919080359060200190929190803573ffffffffffffffffffffffffffffffffffffffff16906020019092919080359060200190929190505050614384565b005b61151e600480360360408110156114e857600080fd5b81019080803573ffffffffffffffffffffffffffffffffffffffff1690602001909291908035906020019092919050505061452e565b6040518082815260200191505060405180910390f35b61153c614589565b6040518082815260200191505060405180910390f35b61155a614593565b6040518082815260200191505060405180910390f35b6115a66004803603604081101561158657600080fd5b81019080803590602001909291908035906020019092919050505061459d565b005b6115eb600480360360608110156115be57600080fd5b810190808035906020019092919080359060200190929190803560ff1690602001909291905050506146c0565b604051808273ffffffffffffffffffffffffffffffffffffffff1673ffffffffffffffffffffffffffffffffffffffff16815260200191505060405180910390f35b6116356147ad565b6040518082815260200191505060405180910390f35b61168e6004803603606081101561166157600080fd5b8101908080359060200190929190803560000b9060200190929190803590602001909291905050506147b3565b005b611726600480360360c08110156116a657600080fd5b81019080803573ffffffffffffffffffffffffffffffffffffffff1690602001909291908035906020019092919080357bffffffffffffffffffffffffffffffffffffffffffffffffffffffff191690602001909291908035906020019092919080359060200190929190803560000b9060200190929190505050614959565b005b6117746004803603604081101561173e57600080fd5b81019080803573ffffffffffffffffffffffffffffffffffffffff16906020019092919080359060200190929190505050614ac8565b005b6117ae6004803603604081101561178c57600080fd5b8101908080359060200190929190803515159060200190929190505050614bf5565b005b6117b8614d11565b6040518082815260200191505060405180910390f35b6117fa600480360360208110156117e457600080fd5b8101908080359060200190929190505050614d1e565b60405180848152602001838152602001828152602001935050505060405180910390f35b6118686004803603608081101561183457600080fd5b8101908080359060200190929190803590602001909291908035906020019092919080359060200190929190505050614d75565b005b6118966004803603602081101561188057600080fd5b8101908080359060200190929190505050614eae565b005b6118da600480360360208110156118ae57600080fd5b81019080803573ffffffffffffffffffffffffffffffffffffffff169060200190929190505050614fa9565b005b611908600480360360208110156118f257600080fd5b8101908080359060200190929190505050615145565b604051808273ffffffffffffffffffffffffffffffffffffffff1673ffffffffffffffffffffffffffffffffffffffff16815260200191505060405180910390f35b6119766004803603602081101561196057600080fd5b810190808035906020019092919050505061518d565b60405180848152602001838152602001828152602001935050505060405180910390f35b6119f0600480360360608110156119b057600080fd5b81019080803573ffffffffffffffffffffffffffffffffffffffff16906020019092919080359060200190929190803590602001909291905050506151ce565b005b611a4860048036036060811015611a0857600080fd5b81019080803573ffffffffffffffffffffffffffffffffffffffff1690602001909291908035906020019092919080359060200190929190505050615373565b005b611a52615518565b6040518082815260200191505060405180910390f35b611aab60048036036060811015611a7e57600080fd5b8101908080359060200190929190803560000b90602001909291908035906020019092919050505061551e565b005b611ab56156c4565b604051808273ffffffffffffffffffffffffffffffffffffffff1673ffffffffffffffffffffffffffffffffffffffff16815260200191505060405180910390f35b611b2f60048036036040811015611b0d57600080fd5b81019080803590602001909291908035151590602001909291905050506156ea565b005b611b7d60048036036040811015611b4757600080fd5b81019080803573ffffffffffffffffffffffffffffffffffffffff16906020019092919080359060200190929190505050615806565b6040518082815260200191505060405180910390f35b611bbf60048036036020811015611ba957600080fd5b8101908080359060200190929190505050615865565b005b611bed60048036036020811015611bd757600080fd5b8101908080359060200190929190505050615951565b604051808481526020018060200180602001838103835285818151815260200191508051906020019060200280838360005b83811015611c3a578082015181840152602081019050611c1f565b50505050905001838103825284818151815260200191508051906020019060200280838360005b83811015611c7c578082015181840152602081019050611c61565b505050509050019550505050505060405180910390f35b611cc960048036036040811015611ca957600080fd5b810190808035906020019092919080359060200190929190505050615a2e565b005b611d1760048036036040811015611ce157600080fd5b81019080803573ffffffffffffffffffffffffffffffffffffffff16906020019092919080359060200190929190505050615b2c565b6040518082815260200191505060405180910390f35b611d5960048036036020811015611d4357600080fd5b8101908080359060200190929190505050615b8b565b604051808681526020018560000b60000b81526020018481526020018381526020018281526020019550505050505060405180910390f35b60008082600c60008581526020019081526020016000205491509150915091565b600080600760008473ffffffffffffffffffffffffffffffffffffffff1673ffffffffffffffffffffffffffffffffffffffff16815260200190815260200160002060000154600760008573ffffffffffffffffffffffffffffffffffffffff1673ffffffffffffffffffffffffffffffffffffffff1681526020019081526020016000206001015491509150915091565b601e5481565b6000809054906101000a900473ffffffffffffffffffffffffffffffffffffffff1673ffffffffffffffffffffffffffffffffffffffff16638f16c41c336040518263ffffffff1660e01b8152600401808273ffffffffffffffffffffffffffffffffffffffff1673ffffffffffffffffffffffffffffffffffffffff16815260200191505060206040518083038186803b158015611ee857600080fd5b505afa158015611efc573d6000803e3d6000fd5b505050506040513d6020811015611f1257600080fd5b8101908080519060200190929190505050611f2c57600080fd5b565b6000600d6000838152602001908152602001600020549050919050565b600060018260ff161415611fb4576004600e60008681526020019081526020016000208481548110611f7957fe5b906000526020600020015481548110611f8e57fe5b906000526020600020906004020160030160009054906101000a900460000b905061200b565b6004600f60008681526020019081526020016000208481548110611fd457fe5b906000526020600020015481548110611fe957fe5b906000526020600020906004020160030160009054906101000a900460000b90505b9392505050565b6000601160008373ffffffffffffffffffffffffffffffffffffffff1673ffffffffffffffffffffffffffffffffffffffff168152602001908152602001600020805490509050919050565b6000601060008373ffffffffffffffffffffffffffffffffffffffff1673ffffffffffffffffffffffffffffffffffffffff168152602001908152602001600020805490509050919050565b6000809054906101000a900473ffffffffffffffffffffffffffffffffffffffff1673ffffffffffffffffffffffffffffffffffffffff16638f16c41c336040518263ffffffff1660e01b8152600401808273ffffffffffffffffffffffffffffffffffffffff1673ffffffffffffffffffffffffffffffffffffffff16815260200191505060206040518083038186803b15801561214857600080fd5b505afa15801561215c573d6000803e3d6000fd5b505050506040513d602081101561217257600080fd5b810190808051906020019092919050505061218c57600080fd5b8273ffffffffffffffffffffffffffffffffffffffff16847f040b2cc991821ffe51dd33e7f7a2d0e6f64d2ad487cdabbf9e8c1805a93028c48484604051808381526020018281526020019250505060405180910390a350505050565b60205481565b601a5481565b60008060008060008061221388601854615c2d90919063ffffffff16565b90506003818154811061222257fe5b90600052602060002090600202016000015495508094506000601360008973ffffffffffffffffffffffffffffffffffffffff1673ffffffffffffffffffffffffffffffffffffffff1681526020019081526020016000206000838152602001908152602001600020541115612315576004601360008973ffffffffffffffffffffffffffffffffffffffff1673ffffffffffffffffffffffffffffffffffffffff168152602001908152602001600020600083815260200190815260200160002054815481106122ef57fe5b906000526020600020906004020160030160009054906101000a900460000b935061231a565b600093505b6000601460008973ffffffffffffffffffffffffffffffffffffffff1673ffffffffffffffffffffffffffffffffffffffff16815260200190815260200160002060008381526020019081526020016000205411156123f6576004601460008973ffffffffffffffffffffffffffffffffffffffff1673ffffffffffffffffffffffffffffffffffffffff168152602001908152602001600020600083815260200190815260200160002054815481106123d057fe5b906000526020600020906004020160030160009054906101000a900460000b92506123fb565b600092505b600c6000828152602001908152602001600020549150509295509295909350565b6000809054906101000a900473ffffffffffffffffffffffffffffffffffffffff1673ffffffffffffffffffffffffffffffffffffffff16638f16c41c336040518263ffffffff1660e01b8152600401808273ffffffffffffffffffffffffffffffffffffffff1673ffffffffffffffffffffffffffffffffffffffff16815260200191505060206040518083038186803b1580156124ba57600080fd5b505afa1580156124ce573d6000803e3d6000fd5b505050506040513d60208110156124e457600080fd5b81019080805190602001909291905050506124fe57600080fd5b80600760008473ffffffffffffffffffffffffffffffffffffffff1673ffffffffffffffffffffffffffffffffffffffff168152602001908152602001600020600101819055505050565b60156020528060005260406000206000915090505481565b6000601260008373ffffffffffffffffffffffffffffffffffffffff1673ffffffffffffffffffffffffffffffffffffffff168152602001908152602001600020805490509050919050565b601f5481565b6000809054906101000a900473ffffffffffffffffffffffffffffffffffffffff1673ffffffffffffffffffffffffffffffffffffffff16638f16c41c336040518263ffffffff1660e01b8152600401808273ffffffffffffffffffffffffffffffffffffffff1673ffffffffffffffffffffffffffffffffffffffff16815260200191505060206040518083038186803b15801561265157600080fd5b505afa158015612665573d6000803e3d6000fd5b505050506040513d602081101561267b57600080fd5b810190808051906020019092919050505061269557600080fd5b80600b600084815260200190815260200160002060006101000a81548160ff021916908360000b60ff1602179055505050565b6000600b600083815260200190815260200160002060009054906101000a900460000b9050919050565b60185481565b6000808391506000905060008090505b600e6000868152602001908152602001600020805490508110156127f0578360000b6004600e6000888152602001908152602001600020838154811061274a57fe5b90600052602060002001548154811061275f57fe5b906000526020600020906004020160030160009054906101000a900460000b60000b14156127e3576127e06004600e600088815260200190815260200160002083815481106127aa57fe5b9060005260206000200154815481106127bf57fe5b90600052602060002090600402016001015483615c2d90919063ffffffff16565b91505b8080600101915050612708565b509250929050565b6000806000806004858154811061280b57fe5b9060005260206000209060040201600101546004868154811061282a57fe5b9060005260206000209060040201600201546004878154811061284957fe5b906000526020600020906004020160030160009054906101000a900460000b6004888154811061287557fe5b906000526020600020906004020160030160019054906101000a900460ff1693509350935093509193509193565b6000600382815481106128b257fe5b9060005260206000209060020201600101549050919050565b60008060008060008086600388815481106128e257fe5b906000526020600020906002020160000154600b60008a815260200190815260200160002060009054906101000a900460000b600c60008b81526020019081526020016000205460038b8154811061293657fe5b906000526020600020906002020160010154600d60008d81526020019081526020016000205495509550955095509550955091939550919395565b6000808391506000905060008090505b600f600086815260200190815260200160002080549050811015612a69578360000b6004600f600088815260200190815260200160002083815481106129c357fe5b9060005260206000200154815481106129d857fe5b906000526020600020906004020160030160009054906101000a900460000b60000b1415612a5c57612a596004600f60008881526020019081526020016000208381548110612a2357fe5b906000526020600020015481548110612a3857fe5b90600052602060002090600402016001015483615c2d90919063ffffffff16565b91505b8080600101915050612981565b509250929050565b600060018260ff161415612acd576004600e60008681526020019081526020016000208481548110612a9f57fe5b906000526020600020015481548110612ab457fe5b9060005260206000209060040201600101549050612b17565b6004600f60008681526020019081526020016000208481548110612aed57fe5b906000526020600020015481548110612b0257fe5b90600052602060002090600402016001015490505b9392505050565b60008060028381548110612b2e57fe5b90600052602060002090600202016000015460028481548110612b4d57fe5b90600052602060002090600202016001015491509150915091565b6000808291507f43414d41585654000000000000000000000000000000000000000000000000008377ffffffffffffffffffffffffffffffffffffffffffffffff19161415612bc657610e10601a5481612bbe57fe5b049050612e60565b7f43414d494e5654000000000000000000000000000000000000000000000000008377ffffffffffffffffffffffffffffffffffffffffffffffff19161415612c1e57610e10601b5481612c1657fe5b049050612e5f565b7f43415052455452590000000000000000000000000000000000000000000000008377ffffffffffffffffffffffffffffffffffffffffffffffff19161415612c7657610e10601c5481612c6e57fe5b049050612e5e565b7f43414445505400000000000000000000000000000000000000000000000000008377ffffffffffffffffffffffffffffffffffffffffffffffff19161415612ccf576201518060195481612cc757fe5b049050612e5d565b7f43415245575045520000000000000000000000000000000000000000000000008377ffffffffffffffffffffffffffffffffffffffffffffffff19161415612d1c57601d549050612e5c565b7f43414d494e5448000000000000000000000000000000000000000000000000008377ffffffffffffffffffffffffffffffffffffffffffffffff19161415612d6957601e549050612e5b565b7f43414d41585448000000000000000000000000000000000000000000000000008377ffffffffffffffffffffffffffffffffffffffffffffffff19161415612db657601f549050612e5a565b7f4341434f4e5045520000000000000000000000000000000000000000000000008377ffffffffffffffffffffffffffffffffffffffffffffffff19161415612e03576020549050612e59565b7f43415041555345540000000000000000000000000000000000000000000000008377ffffffffffffffffffffffffffffffffffffffffffffffff19161415612e58576201518060215481612e5457fe5b0490505b5b5b5b5b5b5b5b5b915091565b6000809054906101000a900473ffffffffffffffffffffffffffffffffffffffff1673ffffffffffffffffffffffffffffffffffffffff16635834e67a336040518263ffffffff1660e01b8152600401808273ffffffffffffffffffffffffffffffffffffffff1673ffffffffffffffffffffffffffffffffffffffff16815260200191505060206040518083038186803b158015612f0357600080fd5b505afa158015612f17573d6000803e3d6000fd5b505050506040513d6020811015612f2d57600080fd5b8101908080519060200190929190505050612f4757600080fd5b42601560008373ffffffffffffffffffffffffffffffffffffffff1673ffffffffffffffffffffffffffffffffffffffff1681526020019081526020016000208190555050565b6000806000601260008573ffffffffffffffffffffffffffffffffffffffff1673ffffffffffffffffffffffffffffffffffffffff1681526020019081526020016000208581548110612fdd57fe5b90600052602060002001549050600c60008281526020019081526020016000205492506003818154811061300d57fe5b90600052602060002090600202016000015491509250925092565b60006130436001600480549050615cb590919063ffffffff16565b905090565b6000600580549050905090565b601b5481565b6000809054906101000a900473ffffffffffffffffffffffffffffffffffffffff1673ffffffffffffffffffffffffffffffffffffffff16638f16c41c336040518263ffffffff1660e01b8152600401808273ffffffffffffffffffffffffffffffffffffffff1673ffffffffffffffffffffffffffffffffffffffff16815260200191505060206040518083038186803b1580156130f957600080fd5b505afa15801561310d573d6000803e3d6000fd5b505050506040513d602081101561312357600080fd5b810190808051906020019092919050505061313d57600080fd5b806003838154811061314b57fe5b9060005260206000209060020201600101819055505050565b6000809054906101000a900473ffffffffffffffffffffffffffffffffffffffff1673ffffffffffffffffffffffffffffffffffffffff16638f16c41c336040518263ffffffff1660e01b8152600401808273ffffffffffffffffffffffffffffffffffffffff1673ffffffffffffffffffffffffffffffffffffffff16815260200191505060206040518083038186803b15801561320257600080fd5b505afa158015613216573d6000803e3d6000fd5b505050506040513d602081101561322c57600080fd5b810190808051906020019092919050505061324657600080fd5b6006604051806060016040528085815260200184815260200183151581525090806001815401808255809150509060018203906000526020600020906003020160009091929091909150600082015181600001556020820151816001015560408201518160020160006101000a81548160ff021916908315150217905550505050505050565b60006132e8601854600380549050615cb590919063ffffffff16565b905090565b6000809054906101000a900473ffffffffffffffffffffffffffffffffffffffff1673ffffffffffffffffffffffffffffffffffffffff16638f16c41c336040518263ffffffff1660e01b8152600401808273ffffffffffffffffffffffffffffffffffffffff1673ffffffffffffffffffffffffffffffffffffffff16815260200191505060206040518083038186803b15801561338b57600080fd5b505afa15801561339f573d6000803e3d6000fd5b505050506040513d60208110156133b557600080fd5b81019080805190602001909291905050506133cf57600080fd5b60046040518060a001604052808673ffffffffffffffffffffffffffffffffffffffff1681526020018581526020018481526020018360000b8152602001600015158152509080600181540180825580915050906001820390600052602060002090600402016000909192909190915060008201518160000160006101000a81548173ffffffffffffffffffffffffffffffffffffffff021916908373ffffffffffffffffffffffffffffffffffffffff160217905550602082015181600101556040820151816002015560608201518160030160006101000a81548160ff021916908360000b60ff16021790555060808201518160030160016101000a81548160ff02191690831515021790555050505050505050565b6000600680549050905090565b6000808291506000905060008090505b600f60008581526020019081526020016000208054905081101561358a5761357b6004600f6000878152602001908152602001600020838154811061354557fe5b90600052602060002001548154811061355a57fe5b90600052602060002090600402016001015483615c2d90919063ffffffff16565b91508080600101915050613504565b50915091565b6000809054906101000a900473ffffffffffffffffffffffffffffffffffffffff1673ffffffffffffffffffffffffffffffffffffffff16638f16c41c336040518263ffffffff1660e01b8152600401808273ffffffffffffffffffffffffffffffffffffffff1673ffffffffffffffffffffffffffffffffffffffff16815260200191505060206040518083038186803b15801561362e57600080fd5b505afa158015613642573d6000803e3d6000fd5b505050506040513d602081101561365857600080fd5b810190808051906020019092919050505061367257600080fd5b6005604051806060016040528085815260200184815260200183151581525090806001815401808255809150509060018203906000526020600020906003020160009091929091909150600082015181600001556020820151816001015560408201518160020160006101000a81548160ff021916908315150217905550505050505050565b600080600083600a600086815260200190815260200160002060000154600a6000878152602001908152602001600020600101549250925092509193909250565b60008083915060018360ff16141561376957600e6000858152602001908152602001600020805490509050613783565b600f60008581526020019081526020016000208054905090505b9250929050565b60008060006005848154811061379c57fe5b9060005260206000209060030201600001549250600584815481106137bd57fe5b9060005260206000209060030201600101549150600584815481106137de57fe5b906000526020600020906003020160020160009054906101000a900460ff1690509193909250565b600080826003848154811061381757fe5b90600052602060002090600202016000015491509150915091565b6000601360008473ffffffffffffffffffffffffffffffffffffffff1673ffffffffffffffffffffffffffffffffffffffff168152602001908152602001600020600083815260200190815260200160002054905092915050565b6000808291506000905060008090505b600e600085815260200190815260200160002080549050811015613923576139146004600e600087815260200190815260200160002083815481106138de57fe5b9060005260206000200154815481106138f357fe5b90600052602060002090600402016001015483615c2d90919063ffffffff16565b9150808060010191505061389d565b50915091565b6000809054906101000a900473ffffffffffffffffffffffffffffffffffffffff1673ffffffffffffffffffffffffffffffffffffffff16638f16c41c336040518263ffffffff1660e01b8152600401808273ffffffffffffffffffffffffffffffffffffffff1673ffffffffffffffffffffffffffffffffffffffff16815260200191505060206040518083038186803b1580156139c757600080fd5b505afa1580156139db573d6000803e3d6000fd5b505050506040513d60208110156139f157600080fd5b8101908080519060200190929190505050613a0b57600080fd5b613a3181600d600085815260200190815260200160002054615c2d90919063ffffffff16565b600d6000848152602001908152602001600020819055505050565b6000809054906101000a900473ffffffffffffffffffffffffffffffffffffffff1673ffffffffffffffffffffffffffffffffffffffff16635834e67a336040518263ffffffff1660e01b8152600401808273ffffffffffffffffffffffffffffffffffffffff1673ffffffffffffffffffffffffffffffffffffffff16815260200191505060206040518083038186803b158015613aea57600080fd5b505afa158015613afe573d6000803e3d6000fd5b505050506040513d6020811015613b1457600080fd5b8101908080519060200190929190505050613b2e57600080fd5b7f43414d41585654000000000000000000000000000000000000000000000000008277ffffffffffffffffffffffffffffffffffffffffffffffff19161415613b8357613b7e610e108202615cff565b613e93565b7f43414d494e5654000000000000000000000000000000000000000000000000008277ffffffffffffffffffffffffffffffffffffffffffffffff19161415613bd857613bd3610e108202615d09565b613e92565b7f43415052455452590000000000000000000000000000000000000000000000008277ffffffffffffffffffffffffffffffffffffffffffffffff19161415613c2d57613c28610e108202615d13565b613e91565b7f43414445505400000000000000000000000000000000000000000000000000008277ffffffffffffffffffffffffffffffffffffffffffffffff19161415613c8357613c7e620151808202615d1d565b613e90565b7f43415245575045520000000000000000000000000000000000000000000000008277ffffffffffffffffffffffffffffffffffffffffffffffff19161415613cd457613ccf81615d27565b613e8f565b7f43414d494e5448000000000000000000000000000000000000000000000000008277ffffffffffffffffffffffffffffffffffffffffffffffff19161415613d2557613d2081615d31565b613e8e565b7f43414d41585448000000000000000000000000000000000000000000000000008277ffffffffffffffffffffffffffffffffffffffffffffffff19161415613d7657613d7181615d3b565b613e8d565b7f4341434f4e5045520000000000000000000000000000000000000000000000008277ffffffffffffffffffffffffffffffffffffffffffffffff19161415613dc757613dc281615d45565b613e8c565b7f43415041555345540000000000000000000000000000000000000000000000008277ffffffffffffffffffffffffffffffffffffffffffffffff19161415613e1d57613e18620151808202615d4f565b613e8b565b6040517f08c379a00000000000000000000000000000000000000000000000000000000081526004018080602001828103825260128152602001807f496e76616c696420706172616d20636f6465000000000000000000000000000081525060200191505060405180910390fd5b5b5b5b5b5b5b5b5b5050565b6060601260008373ffffffffffffffffffffffffffffffffffffffff1673ffffffffffffffffffffffffffffffffffffffff168152602001908152602001600020805480602002602001604051908101604052809291908181526020018280548015613f2257602002820191906000526020600020905b815481526020019060010190808311613f0e575b50505050509050919050565b6000809054906101000a900473ffffffffffffffffffffffffffffffffffffffff1681565b6000809054906101000a900473ffffffffffffffffffffffffffffffffffffffff1673ffffffffffffffffffffffffffffffffffffffff16638f16c41c336040518263ffffffff1660e01b8152600401808273ffffffffffffffffffffffffffffffffffffffff1673ffffffffffffffffffffffffffffffffffffffff16815260200191505060206040518083038186803b158015613ff157600080fd5b505afa158015614005573d6000803e3d6000fd5b505050506040513d602081101561401b57600080fd5b810190808051906020019092919050505061403557600080fd5b600e60008381526020019081526020016000208190806001815401808255809150509060018203906000526020600020016000909192909190915055505050565b60008060006006848154811061408857fe5b9060005260206000209060030201600001549250600684815481106140a957fe5b9060005260206000209060030201600101549150600684815481106140ca57fe5b906000526020600020906003020160020160009054906101000a900460ff1690509193909250565b6000809054906101000a900473ffffffffffffffffffffffffffffffffffffffff1673ffffffffffffffffffffffffffffffffffffffff16638f16c41c336040518263ffffffff1660e01b8152600401808273ffffffffffffffffffffffffffffffffffffffff1673ffffffffffffffffffffffffffffffffffffffff16815260200191505060206040518083038186803b15801561419057600080fd5b505afa1580156141a4573d6000803e3d6000fd5b505050506040513d60208110156141ba57600080fd5b81019080805190602001909291905050506141d457600080fd5b80600683815481106141e257fe5b906000526020600020906003020160020160006101000a81548160ff0219169083151502179055505050565b600080826004601360008773ffffffffffffffffffffffffffffffffffffffff1673ffffffffffffffffffffffffffffffffffffffff1681526020019081526020016000206000868152602001908152602001600020548154811061426f57fe5b906000526020600020906004020160010154915091509250929050565b601d5481565b60195481565b6000809054906101000a900473ffffffffffffffffffffffffffffffffffffffff1673ffffffffffffffffffffffffffffffffffffffff16638f16c41c336040518263ffffffff1660e01b8152600401808273ffffffffffffffffffffffffffffffffffffffff1673ffffffffffffffffffffffffffffffffffffffff16815260200191505060206040518083038186803b15801561433657600080fd5b505afa15801561434a573d6000803e3d6000fd5b505050506040513d602081101561436057600080fd5b810190808051906020019092919050505061437a57600080fd5b8060168190555050565b6000809054906101000a900473ffffffffffffffffffffffffffffffffffffffff1673ffffffffffffffffffffffffffffffffffffffff16638f16c41c336040518263ffffffff1660e01b8152600401808273ffffffffffffffffffffffffffffffffffffffff1673ffffffffffffffffffffffffffffffffffffffff16815260200191505060206040518083038186803b15801561442257600080fd5b505afa158015614436573d6000803e3d6000fd5b505050506040513d602081101561444c57600080fd5b810190808051906020019092919050505061446657600080fd5b6003604051806040016040528085815260200183815250908060018154018082558091505090600182039060005260206000209060020201600090919290919091506000820151816000015560208201518160010155505050601260008373ffffffffffffffffffffffffffffffffffffffff1673ffffffffffffffffffffffffffffffffffffffff16815260200190815260200160002084908060018154018082558091505090600182039060005260206000200160009091929091909150555050505050565b6000601460008473ffffffffffffffffffffffffffffffffffffffff1673ffffffffffffffffffffffffffffffffffffffff168152602001908152602001600020600083815260200190815260200160002054905092915050565b6000601654905090565b6000601754905090565b6000809054906101000a900473ffffffffffffffffffffffffffffffffffffffff1673ffffffffffffffffffffffffffffffffffffffff16638f16c41c336040518263ffffffff1660e01b8152600401808273ffffffffffffffffffffffffffffffffffffffff1673ffffffffffffffffffffffffffffffffffffffff16815260200191505060206040518083038186803b15801561463b57600080fd5b505afa15801561464f573d6000803e3d6000fd5b505050506040513d602081101561466557600080fd5b810190808051906020019092919050505061467f57600080fd5b600f60008381526020019081526020016000208190806001815401808255809150509060018203906000526020600020016000909192909190915055505050565b600060018260ff16141561473c576004600e600086815260200190815260200160002084815481106146ee57fe5b90600052602060002001548154811061470357fe5b906000526020600020906004020160000160009054906101000a900473ffffffffffffffffffffffffffffffffffffffff1690506147a6565b6004600f6000868152602001908152602001600020848154811061475c57fe5b90600052602060002001548154811061477157fe5b906000526020600020906004020160000160009054906101000a900473ffffffffffffffffffffffffffffffffffffffff1690505b9392505050565b60215481565b6000809054906101000a900473ffffffffffffffffffffffffffffffffffffffff1673ffffffffffffffffffffffffffffffffffffffff16638f16c41c336040518263ffffffff1660e01b8152600401808273ffffffffffffffffffffffffffffffffffffffff1673ffffffffffffffffffffffffffffffffffffffff16815260200191505060206040518083038186803b15801561485157600080fd5b505afa158015614865573d6000803e3d6000fd5b505050506040513d602081101561487b57600080fd5b810190808051906020019092919050505061489557600080fd5b60018260000b14156148e5576148ca81600a600086815260200190815260200160002060000154615c2d90919063ffffffff16565b600a6000858152602001908152602001600020600001819055505b7fffffffffffffffffffffffffffffffffffffffffffffffffffffffffffffffff8260000b14156149545761493981600a600086815260200190815260200160002060010154615c2d90919063ffffffff16565b600a6000858152602001908152602001600020600101819055505b505050565b6000809054906101000a900473ffffffffffffffffffffffffffffffffffffffff1673ffffffffffffffffffffffffffffffffffffffff16638f16c41c336040518263ffffffff1660e01b8152600401808273ffffffffffffffffffffffffffffffffffffffff1673ffffffffffffffffffffffffffffffffffffffff16815260200191505060206040518083038186803b1580156149f757600080fd5b505afa158015614a0b573d6000803e3d6000fd5b505050506040513d6020811015614a2157600080fd5b8101908080519060200190929190505050614a3b57600080fd5b837bffffffffffffffffffffffffffffffffffffffffffffffffffffffff1916858773ffffffffffffffffffffffffffffffffffffffff167fccc99158fb6c7b960e4d6e873692c8e8f8785c44da681aad285f3251940840d9868686604051808481526020018381526020018260000b60000b8152602001935050505060405180910390a4505050505050565b6000809054906101000a900473ffffffffffffffffffffffffffffffffffffffff1673ffffffffffffffffffffffffffffffffffffffff16638f16c41c336040518263ffffffff1660e01b8152600401808273ffffffffffffffffffffffffffffffffffffffff1673ffffffffffffffffffffffffffffffffffffffff16815260200191505060206040518083038186803b158015614b6657600080fd5b505afa158015614b7a573d6000803e3d6000fd5b505050506040513d6020811015614b9057600080fd5b8101908080519060200190929190505050614baa57600080fd5b80600760008473ffffffffffffffffffffffffffffffffffffffff1673ffffffffffffffffffffffffffffffffffffffff168152602001908152602001600020600001819055505050565b6000809054906101000a900473ffffffffffffffffffffffffffffffffffffffff1673ffffffffffffffffffffffffffffffffffffffff16638f16c41c336040518263ffffffff1660e01b8152600401808273ffffffffffffffffffffffffffffffffffffffff1673ffffffffffffffffffffffffffffffffffffffff16815260200191505060206040518083038186803b158015614c9357600080fd5b505afa158015614ca7573d6000803e3d6000fd5b505050506040513d6020811015614cbd57600080fd5b8101908080519060200190929190505050614cd757600080fd5b8060058381548110614ce557fe5b906000526020600020906003020160020160006101000a81548160ff0219169083151502179055505050565b6000600380549050905090565b60008060006008600085815260200190815260200160002060000154600860008681526020019081526020016000206001015460086000878152602001908152602001600020600201549250925092509193909250565b6000809054906101000a900473ffffffffffffffffffffffffffffffffffffffff1673ffffffffffffffffffffffffffffffffffffffff16638f16c41c336040518263ffffffff1660e01b8152600401808273ffffffffffffffffffffffffffffffffffffffff1673ffffffffffffffffffffffffffffffffffffffff16815260200191505060206040518083038186803b158015614e1357600080fd5b505afa158015614e27573d6000803e3d6000fd5b505050506040513d6020811015614e3d57600080fd5b8101908080519060200190929190505050614e5757600080fd5b82600860008681526020019081526020016000206000018190555081600860008681526020019081526020016000206001018190555080600860008681526020019081526020016000206002018190555050505050565b6000809054906101000a900473ffffffffffffffffffffffffffffffffffffffff1673ffffffffffffffffffffffffffffffffffffffff16638f16c41c336040518263ffffffff1660e01b8152600401808273ffffffffffffffffffffffffffffffffffffffff1673ffffffffffffffffffffffffffffffffffffffff16815260200191505060206040518083038186803b158015614f4c57600080fd5b505afa158015614f60573d6000803e3d6000fd5b505050506040513d6020811015614f7657600080fd5b8101908080519060200190929190505050614f9057600080fd5b806018541115614f9f57600080fd5b8060188190555050565b600073ffffffffffffffffffffffffffffffffffffffff166000809054906101000a900473ffffffffffffffffffffffffffffffffffffffff1673ffffffffffffffffffffffffffffffffffffffff16146150c1573373ffffffffffffffffffffffffffffffffffffffff166000809054906101000a900473ffffffffffffffffffffffffffffffffffffffff1673ffffffffffffffffffffffffffffffffffffffff16146150c0576040517f08c379a000000000000000000000000000000000000000000000000000000000815260040180806020018281038252600a8152602001807f4e6f74206d61737465720000000000000000000000000000000000000000000081525060200191505060405180910390fd5b5b806000806101000a81548173ffffffffffffffffffffffffffffffffffffffff021916908373ffffffffffffffffffffffffffffffffffffffff16021790555080600160006101000a81548173ffffffffffffffffffffffffffffffffffffffff021916908373ffffffffffffffffffffffffffffffffffffffff16021790555050565b60006004828154811061515457fe5b906000526020600020906004020160000160009054906101000a900473ffffffffffffffffffffffffffffffffffffffff169050919050565b600080600083600960008681526020019081526020016000206000015460096000878152602001908152602001600020600101549250925092509193909250565b6000809054906101000a900473ffffffffffffffffffffffffffffffffffffffff1673ffffffffffffffffffffffffffffffffffffffff16638f16c41c336040518263ffffffff1660e01b8152600401808273ffffffffffffffffffffffffffffffffffffffff1673ffffffffffffffffffffffffffffffffffffffff16815260200191505060206040518083038186803b15801561526c57600080fd5b505afa158015615280573d6000803e3d6000fd5b505050506040513d602081101561529657600080fd5b81019080805190602001909291905050506152b057600080fd5b80601360008573ffffffffffffffffffffffffffffffffffffffff1673ffffffffffffffffffffffffffffffffffffffff168152602001908152602001600020600084815260200190815260200160002081905550601060008473ffffffffffffffffffffffffffffffffffffffff1673ffffffffffffffffffffffffffffffffffffffff168152602001908152602001600020819080600181540180825580915050906001820390600052602060002001600090919290919091505550505050565b6000809054906101000a900473ffffffffffffffffffffffffffffffffffffffff1673ffffffffffffffffffffffffffffffffffffffff16638f16c41c336040518263ffffffff1660e01b8152600401808273ffffffffffffffffffffffffffffffffffffffff1673ffffffffffffffffffffffffffffffffffffffff16815260200191505060206040518083038186803b15801561541157600080fd5b505afa158015615425573d6000803e3d6000fd5b505050506040513d602081101561543b57600080fd5b810190808051906020019092919050505061545557600080fd5b80601460008573ffffffffffffffffffffffffffffffffffffffff1673ffffffffffffffffffffffffffffffffffffffff168152602001908152602001600020600084815260200190815260200160002081905550601160008473ffffffffffffffffffffffffffffffffffffffff1673ffffffffffffffffffffffffffffffffffffffff168152602001908152602001600020819080600181540180825580915050906001820390600052602060002001600090919290919091505550505050565b601c5481565b6000809054906101000a900473ffffffffffffffffffffffffffffffffffffffff1673ffffffffffffffffffffffffffffffffffffffff16638f16c41c336040518263ffffffff1660e01b8152600401808273ffffffffffffffffffffffffffffffffffffffff1673ffffffffffffffffffffffffffffffffffffffff16815260200191505060206040518083038186803b1580156155bc57600080fd5b505afa1580156155d0573d6000803e3d6000fd5b505050506040513d60208110156155e657600080fd5b810190808051906020019092919050505061560057600080fd5b60018260000b141561565057615635816009600086815260200190815260200160002060000154615c2d90919063ffffffff16565b60096000858152602001908152602001600020600001819055505b7fffffffffffffffffffffffffffffffffffffffffffffffffffffffffffffffff8260000b14156156bf576156a4816009600086815260200190815260200160002060010154615c2d90919063ffffffff16565b60096000858152602001908152602001600020600101819055505b505050565b600160009054906101000a900473ffffffffffffffffffffffffffffffffffffffff1681565b6000809054906101000a900473ffffffffffffffffffffffffffffffffffffffff1673ffffffffffffffffffffffffffffffffffffffff16638f16c41c336040518263ffffffff1660e01b8152600401808273ffffffffffffffffffffffffffffffffffffffff1673ffffffffffffffffffffffffffffffffffffffff16815260200191505060206040518083038186803b15801561578857600080fd5b505afa15801561579c573d6000803e3d6000fd5b505050506040513d60208110156157b257600080fd5b81019080805190602001909291905050506157cc57600080fd5b80600483815481106157da57fe5b906000526020600020906004020160030160016101000a81548160ff0219169083151502179055505050565b6000601160008473ffffffffffffffffffffffffffffffffffffffff1673ffffffffffffffffffffffffffffffffffffffff168152602001908152602001600020828154811061585257fe5b9060005260206000200154905092915050565b6000809054906101000a900473ffffffffffffffffffffffffffffffffffffffff1673ffffffffffffffffffffffffffffffffffffffff16638f16c41c336040518263ffffffff1660e01b8152600401808273ffffffffffffffffffffffffffffffffffffffff1673ffffffffffffffffffffffffffffffffffffffff16815260200191505060206040518083038186803b15801561590357600080fd5b505afa158015615917573d6000803e3d6000fd5b505050506040513d602081101561592d57600080fd5b810190808051906020019092919050505061594757600080fd5b8060178190555050565b600060608083600e6000868152602001908152602001600020600f6000878152602001908152602001600020818054806020026020016040519081016040528092919081815260200182805480156159c857602002820191906000526020600020905b8154815260200190600101908083116159b4575b5050505050915080805480602002602001604051908101604052809291908181526020018280548015615a1a57602002820191906000526020600020905b815481526020019060010190808311615a06575b505050505090509250925092509193909250565b6000809054906101000a900473ffffffffffffffffffffffffffffffffffffffff1673ffffffffffffffffffffffffffffffffffffffff16638f16c41c336040518263ffffffff1660e01b8152600401808273ffffffffffffffffffffffffffffffffffffffff1673ffffffffffffffffffffffffffffffffffffffff16815260200191505060206040518083038186803b158015615acc57600080fd5b505afa158015615ae0573d6000803e3d6000fd5b505050506040513d6020811015615af657600080fd5b8101908080519060200190929190505050615b1057600080fd5b80600c6000848152602001908152602001600020819055505050565b6000601060008473ffffffffffffffffffffffffffffffffffffffff1673ffffffffffffffffffffffffffffffffffffffff1681526020019081526020016000208281548110615b7857fe5b9060005260206000200154905092915050565b600080600080600060038681548110615ba057fe5b906000526020600020906002020160000154600b600088815260200190815260200160002060009054906101000a900460000b600c60008981526020019081526020016000205460038981548110615bf457fe5b906000526020600020906002020160010154600d60008b8152602001908152602001600020549450945094509450945091939590929450565b600080828401905083811015615cab576040517f08c379a000000000000000000000000000000000000000000000000000000000815260040180806020018281038252601b8152602001807f536166654d6174683a206164646974696f6e206f766572666c6f77000000000081525060200191505060405180910390fd5b8091505092915050565b6000615cf783836040518060400160405280601e81526020017f536166654d6174683a207375627472616374696f6e206f766572666c6f770000815250615d59565b905092915050565b80601a8190555050565b80601b8190555050565b80601c8190555050565b8060198190555050565b80601d8190555050565b80601e8190555050565b80601f8190555050565b8060208190555050565b8060218190555050565b6000838311158290615e06576040517f08c379a00000000000000000000000000000000000000000000000000000000081526004018080602001828103825283818151815260200191508051906020019080838360005b83811015615dcb578082015181840152602081019050615db0565b50505050905090810190601f168015615df85780820380516001836020036101000a031916815260200191505b509250505060405180910390fd5b506000838503905080915050939250505056fea265627a7a723158205294836a32a3cb33505ed643beee720e4c55a23f246bd57188c9ff2d7aeea77164736f6c63430005110032",
  "linkReferences": {},
  "deployedLinkReferences": {}
}