{
  "_format": "hh-sol-artifact-1",
  "contractName": "ExchangeMock",
  "sourceName": "contracts/NexusMutual/mocks/ExchangeMock.sol",
  "abi": [
    {
      "inputs": [
        {
          "internalType": "address",
          "name": "tokenAddress",
          "type": "address"
        },
        {
          "internalType": "address",
          "name": "factoryAddress",
          "type": "address"
        }
      ],
      "payable": false,
      "stateMutability": "nonpayable",
      "type": "constructor"
    },
    {
      "constant": false,
      "inputs": [
        {
          "internalType": "uint256",
          "name": "minTokens",
          "type": "uint256"
        },
        {
          "internalType": "uint256",
          "name": "deadline",
          "type": "uint256"
        }
      ],
      "name": "ethToTokenSwapInput",
      "outputs": [
        {
          "internalType": "uint256",
          "name": "",
          "type": "uint256"
        }
      ],
      "payable": true,
      "stateMutability": "payable",
      "type": "function"
    },
    {
      "constant": false,
      "inputs": [
        {
          "internalType": "uint256",
          "name": "minTokens",
          "type": "uint256"
        },
        {
          "internalType": "uint256",
          "name": "deadline",
          "type": "uint256"
        },
        {
          "internalType": "address",
          "name": "recipient",
          "type": "address"
        }
      ],
      "name": "ethToTokenTransferInput",
      "outputs": [
        {
          "internalType": "uint256",
          "name": "",
          "type": "uint256"
        }
      ],
      "payable": true,
      "stateMutability": "payable",
      "type": "function"
    },
    {
      "constant": true,
      "inputs": [
        {
          "internalType": "uint256",
          "name": "ethSold",
          "type": "uint256"
        }
      ],
      "name": "getEthToTokenInputPrice",
      "outputs": [
        {
          "internalType": "uint256",
          "name": "",
          "type": "uint256"
        }
      ],
      "payable": false,
      "stateMutability": "pure",
      "type": "function"
    },
    {
      "constant": true,
      "inputs": [
        {
          "internalType": "uint256",
          "name": "tokensSold",
          "type": "uint256"
        }
      ],
      "name": "getTokenToEthInputPrice",
      "outputs": [
        {
          "internalType": "uint256",
          "name": "",
          "type": "uint256"
        }
      ],
      "payable": false,
      "stateMutability": "pure",
      "type": "function"
    },
    {
      "constant": true,
      "inputs": [],
      "name": "rateFactor",
      "outputs": [
        {
          "internalType": "uint256",
          "name": "",
          "type": "uint256"
        }
      ],
      "payable": false,
      "stateMutability": "pure",
      "type": "function"
    },
    {
      "constant": false,
      "inputs": [],
      "name": "recieveEther",
      "outputs": [],
      "payable": true,
      "stateMutability": "payable",
      "type": "function"
    },
    {
      "constant": false,
      "inputs": [
        {
          "internalType": "uint256",
          "name": "val",
          "type": "uint256"
        }
      ],
      "name": "removeEther",
      "outputs": [],
      "payable": false,
      "stateMutability": "nonpayable",
      "type": "function"
    },
    {
      "constant": false,
      "inputs": [],
      "name": "sendEther",
      "outputs": [],
      "payable": true,
      "stateMutability": "payable",
      "type": "function"
    },
    {
      "constant": false,
      "inputs": [
        {
          "internalType": "uint256",
          "name": "tokensSold",
          "type": "uint256"
        },
        {
          "internalType": "uint256",
          "name": "minEth",
          "type": "uint256"
        },
        {
          "internalType": "uint256",
          "name": "deadline",
          "type": "uint256"
        }
      ],
      "name": "tokenToEthSwapInput",
      "outputs": [
        {
          "internalType": "uint256",
          "name": "",
          "type": "uint256"
        }
      ],
      "payable": true,
      "stateMutability": "payable",
      "type": "function"
    },
    {
      "constant": false,
      "inputs": [
        {
          "internalType": "uint256",
          "name": "tokensSold",
          "type": "uint256"
        },
        {
          "internalType": "uint256",
          "name": "minEth",
          "type": "uint256"
        },
        {
          "internalType": "uint256",
          "name": "deadline",
          "type": "uint256"
        },
        {
          "internalType": "address payable",
          "name": "recipient",
          "type": "address"
        }
      ],
      "name": "tokenToEthTransferInput",
      "outputs": [
        {
          "internalType": "uint256",
          "name": "",
          "type": "uint256"
        }
      ],
      "payable": true,
      "stateMutability": "payable",
      "type": "function"
    },
    {
      "constant": false,
      "inputs": [
        {
          "internalType": "uint256",
          "name": "tokensSold",
          "type": "uint256"
        },
        {
          "internalType": "uint256",
          "name": "minTokensBought",
          "type": "uint256"
        },
        {
          "internalType": "uint256",
          "name": "minEthBought",
          "type": "uint256"
        },
        {
          "internalType": "uint256",
          "name": "deadline",
          "type": "uint256"
        },
        {
          "internalType": "address",
          "name": "tokenAddress",
          "type": "address"
        }
      ],
      "name": "tokenToTokenSwapInput",
      "outputs": [
        {
          "internalType": "uint256",
          "name": "",
          "type": "uint256"
        }
      ],
      "payable": false,
      "stateMutability": "nonpayable",
      "type": "function"
    },
    {
      "constant": false,
      "inputs": [
        {
          "internalType": "uint256",
          "name": "tokensSold",
          "type": "uint256"
        },
        {
          "internalType": "uint256",
          "name": "minTokensBought",
          "type": "uint256"
        },
        {
          "internalType": "uint256",
          "name": "minEthBought",
          "type": "uint256"
        },
        {
          "internalType": "uint256",
          "name": "deadline",
          "type": "uint256"
        },
        {
          "internalType": "address",
          "name": "recipient",
          "type": "address"
        },
        {
          "internalType": "address",
          "name": "tokenAddress",
          "type": "address"
        }
      ],
      "name": "tokenToTokenTransferInput",
      "outputs": [
        {
          "internalType": "uint256",
          "name": "",
          "type": "uint256"
        }
      ],
      "payable": false,
      "stateMutability": "nonpayable",
      "type": "function"
    }
  ],
  "bytecode": "0x608060405234801561001057600080fd5b506040516109403803806109408339818101604052604081101561003357600080fd5b508051602090910151600080546001600160a01b039384166001600160a01b031991821617909155600180549390921692169190911790556108c68061007a6000396000f3fe6080604052600436106100a75760003560e01c8063a05e607711610064578063a05e60771461017d578063ad65d76d14610192578063cd7724c3146101c4578063ddf7e1a7146101ee578063f39b5b9b14610239578063f552d91b1461025c576100a7565b80630e29df22146100ac5780637237e031146100b6578063787a051b146101005780638f4062d7146100ac57806395b68fe71461012a57806395e3c50b14610154575b600080fd5b6100b46102af565b005b6100ee600480360360808110156100cc57600080fd5b50803590602081013590604081013590606001356001600160a01b03166102b1565b60408051918252519081900360200190f35b34801561010c57600080fd5b506100b46004803603602081101561012357600080fd5b50356102f3565b34801561013657600080fd5b506100ee6004803603602081101561014d57600080fd5b5035610324565b6100ee6004803603606081101561016a57600080fd5b508035906020810135906040013561033d565b34801561018957600080fd5b506100ee610354565b6100ee600480360360608110156101a857600080fd5b50803590602081013590604001356001600160a01b0316610359565b3480156101d057600080fd5b506100ee600480360360208110156101e757600080fd5b5035610392565b3480156101fa57600080fd5b506100ee600480360360a081101561021157600080fd5b50803590602081013590604081013590606081013590608001356001600160a01b03166103a4565b6100ee6004803603604081101561024f57600080fd5b508035906020013561043b565b34801561026857600080fd5b506100ee600480360360c081101561027f57600080fd5b508035906020810135906040810135906060810135906001600160a01b03608082013581169160a0013516610451565b565b60006001600160a01b03821630148015906102d457506001600160a01b03821615155b6102dd57600080fd5b6102ea85858533866104e9565b95945050505050565b604051339082156108fc029083906000818181858888f19350505050158015610320573d6000803e3d6000fd5b5050565b600061032e610354565b828161033657fe5b0492915050565b600061034c84848433336104e9565b949350505050565b600a90565b60006001600160a01b038216301480159061037c57506001600160a01b03821615155b61038557600080fd5b61034c34858533866105fe565b600061039c610354565b909102919050565b600154604080516303795fb160e11b81526001600160a01b0384811660048301529151600093849316916306f2bf62916024808301926020929190829003018186803b1580156103f357600080fd5b505afa158015610407573d6000803e3d6000fd5b505050506040513d602081101561041d57600080fd5b50519050610430878787873380876106d8565b979650505050505050565b600061044a34848433336105fe565b9392505050565b600154604080516303795fb160e11b81526001600160a01b0384811660048301529151600093849316916306f2bf62916024808301926020929190829003018186803b1580156104a057600080fd5b505afa1580156104b4573d6000803e3d6000fd5b505050506040513d60208110156104ca57600080fd5b505190506104dd888888883389876106d8565b98975050505050505050565b60004284101580156104fb5750600086115b80156105075750600085115b61051057600080fd5b600061051a610354565b878161052257fe5b049050808681101561053357600080fd5b6040516001600160a01b0385169082156108fc029083906000818181858888f19350505050158015610569573d6000803e3d6000fd5b5060008054604080516323b872dd60e01b81526001600160a01b038981166004830152306024830152604482018d9052915191909216926323b872dd92606480820193602093909283900390910190829087803b1580156105c957600080fd5b505af11580156105dd573d6000803e3d6000fd5b505050506040513d60208110156105f357600080fd5b505161043057600080fd5b60004284101580156106105750600086115b801561061c5750600085115b61062557600080fd5b600061062f610354565b870290508581101561064057600080fd5b600080546040805163a9059cbb60e01b81526001600160a01b038781166004830152602482018690529151919092169263a9059cbb92604480820193602093909283900390910190829087803b15801561069957600080fd5b505af11580156106ad573d6000803e3d6000fd5b505050506040513d60208110156106c357600080fd5b50516106ce57600080fd5b9695505050505050565b60004285101580156106ea5750600088115b801561070157506000871180156107015750600086115b61070a57600080fd5b6001600160a01b038216301480159061072b57506001600160a01b03821615155b61073457600080fd5b600061073e610354565b898161074657fe5b049050808781101561075757600080fd5b60008054604080516323b872dd60e01b81526001600160a01b038a81166004830152306024830152604482018f9052915191909216926323b872dd92606480820193602093909283900390910190829087803b1580156107b657600080fd5b505af11580156107ca573d6000803e3d6000fd5b505050506040513d60208110156107e057600080fd5b50516107eb57600080fd5b6000846001600160a01b031663ad65d76d838c8b8a6040518563ffffffff1660e01b815260040180848152602001838152602001826001600160a01b03166001600160a01b0316815260200193505050506020604051808303818588803b15801561085557600080fd5b505af1158015610869573d6000803e3d6000fd5b50505050506040513d602081101561088057600080fd5b50519b9a505050505050505050505056fea265627a7a72315820b68490eea36e39b9215d1c57f5188e6ff4c7c2efdb85d9be2b7ea2d1bbb8a9ac64736f6c63430005110032",
  "linkReferences": {},
  "deployedLinkReferences": {}
}