{
  "_format": "hh-sol-artifact-1",
  "contractName": "UpgradeabilityProxy",
  "sourceName": "contracts/NexusMutual/modules/governance/external/UpgradeabilityProxy.sol",
  "abi": [
    {
      "inputs": [],
      "payable": false,
      "stateMutability": "nonpayable",
      "type": "constructor"
    },
    {
      "anonymous": false,
      "inputs": [
        {
          "indexed": true,
          "internalType": "address",
          "name": "implementation",
          "type": "address"
        }
      ],
      "name": "Upgraded",
      "type": "event"
    },
    {
      "payable": true,
      "stateMutability": "payable",
      "type": "fallback"
    },
    {
      "constant": true,
      "inputs": [],
      "name": "implementation",
      "outputs": [
        {
          "internalType": "address",
          "name": "impl",
          "type": "address"
        }
      ],
      "payable": false,
      "stateMutability": "view",
      "type": "function"
    }
  ],
  "bytecode": "0x608060405234801561001057600080fd5b5061015f806100206000396000f3fe60806040526004361061001e5760003560e01c80635c60da1b1461008b575b60006100286100e2565b9050600073ffffffffffffffffffffffffffffffffffffffff168173ffffffffffffffffffffffffffffffffffffffff16141561006457600080fd5b60405136600082376000803683855af43d806000843e8160008114610087578184f35b8184fd5b34801561009757600080fd5b506100a06100e2565b604051808273ffffffffffffffffffffffffffffffffffffffff1673ffffffffffffffffffffffffffffffffffffffff16815260200191505060405180910390f35b60008060405180806101096022913960220190506040518091039020905080549150509056fe6f72672e676f76626c6f636b732e70726f78792e696d706c656d656e746174696f6ea265627a7a7231582013751927ef5e0c33636ea15faa302f0fdb7155300f744fe416c9674796c756c264736f6c63430005110032",
  "linkReferences": {},
  "deployedLinkReferences": {}
}