{
  "_format": "hh-sol-artifact-1",
  "contractName": "NXMDSValue",
  "sourceName": "contracts/NexusMutual/modules/capital/NXMDSValue.sol",
  "abi": [
    {
      "constant": true,
      "inputs": [],
      "name": "read",
      "outputs": [
        {
          "internalType": "bytes32",
          "name": "",
          "type": "bytes32"
        }
      ],
      "payable": false,
      "stateMutability": "view",
      "type": "function"
    }
  ],
  "bytecode": "0x608060405234801561001057600080fd5b506102d8806100206000396000f3fe608060405234801561001057600080fd5b506004361061002b5760003560e01c806357de26a414610030575b600080fd5b61003861004e565b6040518082815260200191505060405180910390f35b60008073773616e4d11a78f511299002da57a0a94577f1f4905060008173ffffffffffffffffffffffffffffffffffffffff166350d25bcd6040518163ffffffff1660e01b815260040160206040518083038186803b1580156100b057600080fd5b505afa1580156100c4573d6000803e3d6000fd5b505050506040513d60208110156100da57600080fd5b8101908080519060200190929190505050905060008113610146576040517f08c379a00000000000000000000000000000000000000000000000000000000081526004018080602001828103825260218152602001806102836021913960400191505060405180910390fd5b610168816ec097ce7bc90715b34b9f100000000061017290919063ffffffff16565b60001b9250505090565b60006101b483836040518060400160405280601a81526020017f536166654d6174683a206469766973696f6e206279207a65726f0000000000008152506101bc565b905092915050565b60008083118290610268576040517f08c379a00000000000000000000000000000000000000000000000000000000081526004018080602001828103825283818151815260200191508051906020019080838360005b8381101561022d578082015181840152602081019050610212565b50505050905090810190601f16801561025a5780820380516001836020036101000a031916815260200191505b509250505060405180910390fd5b50600083858161027457fe5b04905080915050939250505056fe526174652073686f756c64206265206120706f73697469766520696e7465676572a265627a7a72315820574c8a0642366c40d52696896f0ada19118e2e485b9bbcc3903636003518d81664736f6c63430005110032",
  "linkReferences": {},
  "deployedLinkReferences": {}
}