{
  "_format": "hh-sol-artifact-1",
  "contractName": "NXMDSValue",
  "sourceName": "contracts/NexusMutual/modules/capital/NXMDSValue.sol",
  "abi": [
    {
      "constant": true,
      "inputs": [],
      "name": "read",
      "outputs": [
        {
          "internalType": "bytes32",
          "name": "",
          "type": "bytes32"
        }
      ],
      "payable": false,
      "stateMutability": "view",
      "type": "function"
    }
  ],
  "bytecode": "0x608060405234801561001057600080fd5b50610273806100206000396000f3fe608060405234801561001057600080fd5b506004361061002b5760003560e01c806357de26a414610030575b600080fd5b61003861004a565b60408051918252519081900360200190f35b60008073773616e4d11a78f511299002da57a0a94577f1f490506000816001600160a01b03166350d25bcd6040518163ffffffff1660e01b815260040160206040518083038186803b15801561009f57600080fd5b505afa1580156100b3573d6000803e3d6000fd5b505050506040513d60208110156100c957600080fd5b505190506000811361010c5760405162461bcd60e51b815260040180806020018281038252602181526020018061021e6021913960400191505060405180910390fd5b61012b6ec097ce7bc90715b34b9f10000000008263ffffffff61013216565b9250505090565b600061017483836040518060400160405280601a81526020017f536166654d6174683a206469766973696f6e206279207a65726f00000000000081525061017b565b9392505050565b600081836102075760405162461bcd60e51b81526004018080602001828103825283818151815260200191508051906020019080838360005b838110156101cc5781810151838201526020016101b4565b50505050905090810190601f1680156101f95780820380516001836020036101000a031916815260200191505b509250505060405180910390fd5b50600083858161021357fe5b049594505050505056fe526174652073686f756c64206265206120706f73697469766520696e7465676572a265627a7a7231582031124b3c16f1d5e099fd1ba14289f7df6b9927f0e21465029a5daf8d01c5299964736f6c63430005110032",
  "linkReferences": {},
  "deployedLinkReferences": {}
}