{
  "_format": "hh-sol-artifact-1",
  "contractName": "MCR",
  "sourceName": "nexusmutual/contracts/modules/capital/MCR.sol",
  "abi": [
    {
      "anonymous": false,
      "inputs": [
        {
          "indexed": true,
          "internalType": "uint256",
          "name": "date",
          "type": "uint256"
        },
        {
          "indexed": false,
          "internalType": "uint256",
          "name": "blockNumber",
          "type": "uint256"
        },
        {
          "indexed": false,
          "internalType": "bytes4[]",
          "name": "allCurr",
          "type": "bytes4[]"
        },
        {
          "indexed": false,
          "internalType": "uint256[]",
          "name": "allCurrRates",
          "type": "uint256[]"
        },
        {
          "indexed": false,
          "internalType": "uint256",
          "name": "mcrEtherx100",
          "type": "uint256"
        },
        {
          "indexed": false,
          "internalType": "uint256",
          "name": "mcrPercx100",
          "type": "uint256"
        },
        {
          "indexed": false,
          "internalType": "uint256",
          "name": "vFull",
          "type": "uint256"
        }
      ],
      "name": "MCREvent",
      "type": "event"
    },
    {
      "constant": true,
      "inputs": [
        {
          "internalType": "uint256",
          "name": "poolBalance",
          "type": "uint256"
        }
      ],
      "name": "_calVtpAndMCRtp",
      "outputs": [
        {
          "internalType": "uint256",
          "name": "vtp",
          "type": "uint256"
        },
        {
          "internalType": "uint256",
          "name": "mcrtp",
          "type": "uint256"
        }
      ],
      "payable": false,
      "stateMutability": "view",
      "type": "function"
    },
    {
      "constant": false,
      "inputs": [
        {
          "internalType": "uint64",
          "name": "date",
          "type": "uint64"
        }
      ],
      "name": "addLastMCRData",
      "outputs": [],
      "payable": false,
      "stateMutability": "nonpayable",
      "type": "function"
    },
    {
      "constant": false,
      "inputs": [
        {
          "internalType": "uint256",
          "name": "mcrP",
          "type": "uint256"
        },
        {
          "internalType": "uint256",
          "name": "mcrE",
          "type": "uint256"
        },
        {
          "internalType": "uint256",
          "name": "vF",
          "type": "uint256"
        },
        {
          "internalType": "bytes4[]",
          "name": "curr",
          "type": "bytes4[]"
        },
        {
          "internalType": "uint256[]",
          "name": "_threeDayAvg",
          "type": "uint256[]"
        },
        {
          "internalType": "uint64",
          "name": "onlyDate",
          "type": "uint64"
        }
      ],
      "name": "addMCRData",
      "outputs": [],
      "payable": false,
      "stateMutability": "nonpayable",
      "type": "function"
    },
    {
      "constant": true,
      "inputs": [],
      "name": "calVtpAndMCRtp",
      "outputs": [
        {
          "internalType": "uint256",
          "name": "vtp",
          "type": "uint256"
        },
        {
          "internalType": "uint256",
          "name": "mcrtp",
          "type": "uint256"
        }
      ],
      "payable": false,
      "stateMutability": "view",
      "type": "function"
    },
    {
      "constant": true,
      "inputs": [
        {
          "internalType": "bytes4",
          "name": "curr",
          "type": "bytes4"
        },
        {
          "internalType": "uint256",
          "name": "mcrtp",
          "type": "uint256"
        }
      ],
      "name": "calculateStepTokenPrice",
      "outputs": [
        {
          "internalType": "uint256",
          "name": "tokenPrice",
          "type": "uint256"
        }
      ],
      "payable": false,
      "stateMutability": "view",
      "type": "function"
    },
    {
      "constant": true,
      "inputs": [
        {
          "internalType": "bytes4",
          "name": "curr",
          "type": "bytes4"
        }
      ],
      "name": "calculateTokenPrice",
      "outputs": [
        {
          "internalType": "uint256",
          "name": "tokenPrice",
          "type": "uint256"
        }
      ],
      "payable": false,
      "stateMutability": "view",
      "type": "function"
    },
    {
      "constant": true,
      "inputs": [
        {
          "internalType": "uint256",
          "name": "poolBalance",
          "type": "uint256"
        }
      ],
      "name": "calculateVtpAndMCRtp",
      "outputs": [
        {
          "internalType": "uint256",
          "name": "vtp",
          "type": "uint256"
        },
        {
          "internalType": "uint256",
          "name": "mcrtp",
          "type": "uint256"
        }
      ],
      "payable": false,
      "stateMutability": "view",
      "type": "function"
    },
    {
      "constant": false,
      "inputs": [],
      "name": "changeDependentContractAddress",
      "outputs": [],
      "payable": false,
      "stateMutability": "nonpayable",
      "type": "function"
    },
    {
      "constant": false,
      "inputs": [
        {
          "internalType": "address",
          "name": "_masterAddress",
          "type": "address"
        }
      ],
      "name": "changeMasterAddress",
      "outputs": [],
      "payable": false,
      "stateMutability": "nonpayable",
      "type": "function"
    },
    {
      "constant": true,
      "inputs": [],
      "name": "dynamicMincapIncrementx100",
      "outputs": [
        {
          "internalType": "uint256",
          "name": "",
          "type": "uint256"
        }
      ],
      "payable": false,
      "stateMutability": "view",
      "type": "function"
    },
    {
      "constant": true,
      "inputs": [],
      "name": "dynamicMincapThresholdx100",
      "outputs": [
        {
          "internalType": "uint256",
          "name": "",
          "type": "uint256"
        }
      ],
      "payable": false,
      "stateMutability": "view",
      "type": "function"
    },
    {
      "constant": true,
      "inputs": [],
      "name": "getAllSumAssurance",
      "outputs": [
        {
          "internalType": "uint256",
          "name": "amount",
          "type": "uint256"
        }
      ],
      "payable": false,
      "stateMutability": "view",
      "type": "function"
    },
    {
      "constant": true,
      "inputs": [],
      "name": "getMaxSellTokens",
      "outputs": [
        {
          "internalType": "uint256",
          "name": "maxTokens",
          "type": "uint256"
        }
      ],
      "payable": false,
      "stateMutability": "view",
      "type": "function"
    },
    {
      "constant": true,
      "inputs": [
        {
          "internalType": "uint256",
          "name": "vtp",
          "type": "uint256"
        },
        {
          "internalType": "uint256",
          "name": "vF",
          "type": "uint256"
        },
        {
          "internalType": "uint256",
          "name": "totalSA",
          "type": "uint256"
        },
        {
          "internalType": "uint256",
          "name": "minCap",
          "type": "uint256"
        }
      ],
      "name": "getThresholdValues",
      "outputs": [
        {
          "internalType": "uint256",
          "name": "lowerThreshold",
          "type": "uint256"
        },
        {
          "internalType": "uint256",
          "name": "upperThreshold",
          "type": "uint256"
        }
      ],
      "payable": false,
      "stateMutability": "view",
      "type": "function"
    },
    {
      "constant": true,
      "inputs": [
        {
          "internalType": "bytes8",
          "name": "code",
          "type": "bytes8"
        }
      ],
      "name": "getUintParameters",
      "outputs": [
        {
          "internalType": "bytes8",
          "name": "codeVal",
          "type": "bytes8"
        },
        {
          "internalType": "uint256",
          "name": "val",
          "type": "uint256"
        }
      ],
      "payable": false,
      "stateMutability": "view",
      "type": "function"
    },
    {
      "constant": true,
      "inputs": [],
      "name": "ms",
      "outputs": [
        {
          "internalType": "contract INXMMaster",
          "name": "",
          "type": "address"
        }
      ],
      "payable": false,
      "stateMutability": "view",
      "type": "function"
    },
    {
      "constant": true,
      "inputs": [],
      "name": "nxMasterAddress",
      "outputs": [
        {
          "internalType": "address",
          "name": "",
          "type": "address"
        }
      ],
      "payable": false,
      "stateMutability": "view",
      "type": "function"
    },
    {
      "constant": false,
      "inputs": [
        {
          "internalType": "bytes8",
          "name": "code",
          "type": "bytes8"
        },
        {
          "internalType": "uint256",
          "name": "val",
          "type": "uint256"
        }
      ],
      "name": "updateUintParameters",
      "outputs": [],
      "payable": false,
      "stateMutability": "nonpayable",
      "type": "function"
    },
    {
      "constant": true,
      "inputs": [],
      "name": "variableMincap",
      "outputs": [
        {
          "internalType": "uint256",
          "name": "",
          "type": "uint256"
        }
      ],
      "payable": false,
      "stateMutability": "view",
      "type": "function"
    }
  ],
  "bytecode": "0x60806040526132c8600a556064600b5534801561001b57600080fd5b506144dc8061002b6000396000f3fe608060405234801561001057600080fd5b50600436106101215760003560e01c80639671683b116100ad578063b345248711610071578063b3452487146105be578063d46655f4146105dc578063d9ed1a7a14610620578063f17a3bec14610645578063f8a556741461068f57610121565b80639671683b146103ba5780639af1f71f146104ba5780639dd86e0f146105035780639f3cd4ee14610556578063a0b2d57f1461057457610121565b8063456ee431116100f4578063456ee431146102165780636122f8401461025f5780636837a51f146102f95780636bd482e91461036457806380f342751461038257610121565b80630ea9c984146101265780632fb47b201461013057806336b7abd0146101975780633cb23b2d146101b5575b600080fd5b61012e6106ad565b005b61017a6004803603608081101561014657600080fd5b8101908080359060200190929190803590602001909291908035906020019092919080359060200190929190505050610ec1565b604051808381526020018281526020019250505060405180910390f35b61019f61110a565b6040518082815260200191505060405180910390f35b610200600480360360208110156101cb57600080fd5b8101908080357bffffffffffffffffffffffffffffffffffffffffffffffffffffffff1916906020019092919050505061144f565b6040518082815260200191505060405180910390f35b6102426004803603602081101561022c57600080fd5b81019080803590602001909291905050506114ac565b604051808381526020018281526020019250505060405180910390f35b6102a66004803603602081101561027557600080fd5b81019080803577ffffffffffffffffffffffffffffffffffffffffffffffff19169060200190929190505050611be3565b604051808377ffffffffffffffffffffffffffffffffffffffffffffffff191677ffffffffffffffffffffffffffffffffffffffffffffffff191681526020018281526020019250505060405180910390f35b61034e6004803603604081101561030f57600080fd5b8101908080357bffffffffffffffffffffffffffffffffffffffffffffffffffffffff1916906020019092919080359060200190929190505050611c85565b6040518082815260200191505060405180910390f35b61036c611d7b565b6040518082815260200191505060405180910390f35b6103b86004803603602081101561039857600080fd5b81019080803567ffffffffffffffff169060200190929190505050611d81565b005b6104b8600480360360c08110156103d057600080fd5b810190808035906020019092919080359060200190929190803590602001909291908035906020019064010000000081111561040b57600080fd5b82018360208201111561041d57600080fd5b8035906020019184602083028401116401000000008311171561043f57600080fd5b90919293919293908035906020019064010000000081111561046057600080fd5b82018360208201111561047257600080fd5b8035906020019184602083028401116401000000008311171561049457600080fd5b9091929391929390803567ffffffffffffffff1690602001909291905050506125fa565b005b6104e6600480360360208110156104d057600080fd5b8101908080359060200190929190505050612b6e565b604051808381526020018281526020019250505060405180910390f35b6105546004803603604081101561051957600080fd5b81019080803577ffffffffffffffffffffffffffffffffffffffffffffffff1916906020019092919080359060200190929190505050612b83565b005b61055e612d76565b6040518082815260200191505060405180910390f35b61057c612d7c565b604051808273ffffffffffffffffffffffffffffffffffffffff1673ffffffffffffffffffffffffffffffffffffffff16815260200191505060405180910390f35b6105c6612da1565b6040518082815260200191505060405180910390f35b61061e600480360360208110156105f257600080fd5b81019080803573ffffffffffffffffffffffffffffffffffffffff16906020019092919050505061336e565b005b61062861350a565b604051808381526020018281526020019250505060405180910390f35b61064d613557565b604051808273ffffffffffffffffffffffffffffffffffffffff1673ffffffffffffffffffffffffffffffffffffffff16815260200191505060405180910390f35b61069761357d565b6040518082815260200191505060405180910390f35b6000809054906101000a900473ffffffffffffffffffffffffffffffffffffffff1673ffffffffffffffffffffffffffffffffffffffff16638f16c41c336040518263ffffffff1660e01b8152600401808273ffffffffffffffffffffffffffffffffffffffff1673ffffffffffffffffffffffffffffffffffffffff16815260200191505060206040518083038186803b15801561074b57600080fd5b505afa15801561075f573d6000803e3d6000fd5b505050506040513d602081101561077557600080fd5b810190808051906020019092919050505061078f57600080fd5b6000809054906101000a900473ffffffffffffffffffffffffffffffffffffffff1673ffffffffffffffffffffffffffffffffffffffff1663013828586040518163ffffffff1660e01b815260040180807f5144000000000000000000000000000000000000000000000000000000000000815250602001905060206040518083038186803b15801561082157600080fd5b505afa158015610835573d6000803e3d6000fd5b505050506040513d602081101561084b57600080fd5b8101908080519060200190929190505050600560006101000a81548173ffffffffffffffffffffffffffffffffffffffff021916908373ffffffffffffffffffffffffffffffffffffffff1602179055506000809054906101000a900473ffffffffffffffffffffffffffffffffffffffff1673ffffffffffffffffffffffffffffffffffffffff1663013828586040518163ffffffff1660e01b815260040180807f5031000000000000000000000000000000000000000000000000000000000000815250602001905060206040518083038186803b15801561092e57600080fd5b505afa158015610942573d6000803e3d6000fd5b505050506040513d602081101561095857600080fd5b8101908080519060200190929190505050600260006101000a81548173ffffffffffffffffffffffffffffffffffffffff021916908373ffffffffffffffffffffffffffffffffffffffff1602179055506000809054906101000a900473ffffffffffffffffffffffffffffffffffffffff1673ffffffffffffffffffffffffffffffffffffffff1663013828586040518163ffffffff1660e01b815260040180807f5044000000000000000000000000000000000000000000000000000000000000815250602001905060206040518083038186803b158015610a3b57600080fd5b505afa158015610a4f573d6000803e3d6000fd5b505050506040513d6020811015610a6557600080fd5b8101908080519060200190929190505050600360006101000a81548173ffffffffffffffffffffffffffffffffffffffff021916908373ffffffffffffffffffffffffffffffffffffffff1602179055506000809054906101000a900473ffffffffffffffffffffffffffffffffffffffff1673ffffffffffffffffffffffffffffffffffffffff16639d76ea586040518163ffffffff1660e01b815260040160206040518083038186803b158015610b1d57600080fd5b505afa158015610b31573d6000803e3d6000fd5b505050506040513d6020811015610b4757600080fd5b8101908080519060200190929190505050600460006101000a81548173ffffffffffffffffffffffffffffffffffffffff021916908373ffffffffffffffffffffffffffffffffffffffff1602179055506000809054906101000a900473ffffffffffffffffffffffffffffffffffffffff1673ffffffffffffffffffffffffffffffffffffffff1663013828586040518163ffffffff1660e01b815260040180807f4d52000000000000000000000000000000000000000000000000000000000000815250602001905060206040518083038186803b158015610c2a57600080fd5b505afa158015610c3e573d6000803e3d6000fd5b505050506040513d6020811015610c5457600080fd5b8101908080519060200190929190505050600660006101000a81548173ffffffffffffffffffffffffffffffffffffffff021916908373ffffffffffffffffffffffffffffffffffffffff1602179055506000809054906101000a900473ffffffffffffffffffffffffffffffffffffffff1673ffffffffffffffffffffffffffffffffffffffff1663013828586040518163ffffffff1660e01b815260040180807f5444000000000000000000000000000000000000000000000000000000000000815250602001905060206040518083038186803b158015610d3757600080fd5b505afa158015610d4b573d6000803e3d6000fd5b505050506040513d6020811015610d6157600080fd5b8101908080519060200190929190505050600760006101000a81548173ffffffffffffffffffffffffffffffffffffffff021916908373ffffffffffffffffffffffffffffffffffffffff1602179055506000809054906101000a900473ffffffffffffffffffffffffffffffffffffffff1673ffffffffffffffffffffffffffffffffffffffff1663013828586040518163ffffffff1660e01b815260040180807f5043000000000000000000000000000000000000000000000000000000000000815250602001905060206040518083038186803b158015610e4457600080fd5b505afa158015610e58573d6000803e3d6000fd5b505050506040513d6020811015610e6e57600080fd5b8101908080519060200190929190505050600860006101000a81548173ffffffffffffffffffffffffffffffffffffffff021916908373ffffffffffffffffffffffffffffffffffffffff160217905550565b600080610eef600954610ee16015600a0a8661358390919063ffffffff16565b61360990919063ffffffff16565b92506000809050858710610f3d57610f3684610f286064610f1a60788c61358390919063ffffffff16565b61358390919063ffffffff16565b61369190919063ffffffff16565b9150610f79565b610f7684610f686064610f5a60788b61358390919063ffffffff16565b61358390919063ffffffff16565b61369190919063ffffffff16565b91505b60008711156110bb576110606064611052600360009054906101000a900473ffffffffffffffffffffffffffffffffffffffff1673ffffffffffffffffffffffffffffffffffffffff1663d3fdadf76040518163ffffffff1660e01b815260040160206040518083038186803b158015610ff257600080fd5b505afa158015611006573d6000803e3d6000fd5b505050506040513d602081101561101c57600080fd5b81019080805190602001909291905050506110446012600a0a8a61358390919063ffffffff16565b61358390919063ffffffff16565b61369190919063ffffffff16565b9050611089600a61107b600b8761358390919063ffffffff16565b61369190919063ffffffff16565b8110156110ba576110b7600a6110a9600b8761358390919063ffffffff16565b61369190919063ffffffff16565b90505b5b6000811115611100576110fd816110ef60646110e160648c61358390919063ffffffff16565b61358390919063ffffffff16565b61369190919063ffffffff16565b92505b5094509492505050565b600080600360009054906101000a900473ffffffffffffffffffffffffffffffffffffffff1673ffffffffffffffffffffffffffffffffffffffff16631c4a29ea6040518163ffffffff1660e01b815260040180807f4554480000000000000000000000000000000000000000000000000000000000815250602001905060206040518083038186803b1580156111a057600080fd5b505afa1580156111b4573d6000803e3d6000fd5b505050506040513d60208110156111ca57600080fd5b81019080805190602001909291905050509050600061120660646111f860328561358390919063ffffffff16565b61369190919063ffffffff16565b600260009054906101000a900473ffffffffffffffffffffffffffffffffffffffff1673ffffffffffffffffffffffffffffffffffffffff163111156112bb576112b8611270606461126260328661358390919063ffffffff16565b61369190919063ffffffff16565b600260009054906101000a900473ffffffffffffffffffffffffffffffffffffffff1673ffffffffffffffffffffffffffffffffffffffff16316136db90919063ffffffff16565b90505b61133461130f6103e86113016103cf6112f37f455448000000000000000000000000000000000000000000000000000000000061144f565b61358390919063ffffffff16565b61369190919063ffffffff16565b6113266012600a0a8461358390919063ffffffff16565b61369190919063ffffffff16565b90506000600360009054906101000a900473ffffffffffffffffffffffffffffffffffffffff1673ffffffffffffffffffffffffffffffffffffffff1663818acb826040518163ffffffff1660e01b815260040160206040518083038186803b1580156113a057600080fd5b505afa1580156113b4573d6000803e3d6000fd5b505050506040513d60208110156113ca57600080fd5b8101908080519060200190929190505050905061271081111561143d5761143a61271061142c6012600a0a61141e6107d0611410612710886136db90919063ffffffff16565b61358390919063ffffffff16565b61358390919063ffffffff16565b61369190919063ffffffff16565b93505b81841115611449578193505b50505090565b600080611494600260009054906101000a900473ffffffffffffffffffffffffffffffffffffffff1673ffffffffffffffffffffffffffffffffffffffff16316114ac565b9050809150506114a48382613725565b915050919050565b60008060009150600080600090506000600190505b600360009054906101000a900473ffffffffffffffffffffffffffffffffffffffff1673ffffffffffffffffffffffffffffffffffffffff1663255f50496040518163ffffffff1660e01b815260040160206040518083038186803b15801561152957600080fd5b505afa15801561153d573d6000803e3d6000fd5b505050506040513d602081101561155357600080fd5b8101908080519060200190929190505050811015611a0f576000600360009054906101000a900473ffffffffffffffffffffffffffffffffffffffff1673ffffffffffffffffffffffffffffffffffffffff16633c40b1f0836040518263ffffffff1660e01b81526004018082815260200191505060206040518083038186803b1580156115e057600080fd5b505afa1580156115f4573d6000803e3d6000fd5b505050506040513d602081101561160a57600080fd5b81019080805190602001909291905050509050600360009054906101000a900473ffffffffffffffffffffffffffffffffffffffff1673ffffffffffffffffffffffffffffffffffffffff1663e3dee239826040518263ffffffff1660e01b815260040180827bffffffffffffffffffffffffffffffffffffffffffffffffffffffff19167bffffffffffffffffffffffffffffffffffffffffffffffffffffffff1916815260200191505060206040518083038186803b1580156116ce57600080fd5b505afa1580156116e2573d6000803e3d6000fd5b505050506040513d60208110156116f857600080fd5b810190808051906020019092919050505093508373ffffffffffffffffffffffffffffffffffffffff166370a08231600260009054906101000a900473ffffffffffffffffffffffffffffffffffffffff166040518263ffffffff1660e01b8152600401808273ffffffffffffffffffffffffffffffffffffffff1673ffffffffffffffffffffffffffffffffffffffff16815260200191505060206040518083038186803b1580156117aa57600080fd5b505afa1580156117be573d6000803e3d6000fd5b505050506040513d60208110156117d457600080fd5b810190808051906020019092919050505092506000600360009054906101000a900473ffffffffffffffffffffffffffffffffffffffff1673ffffffffffffffffffffffffffffffffffffffff1663e26ff34c836040518263ffffffff1660e01b815260040180827bffffffffffffffffffffffffffffffffffffffffffffffffffffffff19167bffffffffffffffffffffffffffffffffffffffffffffffffffffffff1916815260200191505060206040518083038186803b15801561189a57600080fd5b505afa1580156118ae573d6000803e3d6000fd5b505050506040513d60208110156118c457600080fd5b81019080805190602001909291905050501115611a01576119fe6119ef600360009054906101000a900473ffffffffffffffffffffffffffffffffffffffff1673ffffffffffffffffffffffffffffffffffffffff1663e26ff34c846040518263ffffffff1660e01b815260040180827bffffffffffffffffffffffffffffffffffffffffffffffffffffffff19167bffffffffffffffffffffffffffffffffffffffffffffffffffffffff1916815260200191505060206040518083038186803b15801561199257600080fd5b505afa1580156119a6573d6000803e3d6000fd5b505050506040513d60208110156119bc57600080fd5b81019080805190602001909291905050506119e160648761358390919063ffffffff16565b61369190919063ffffffff16565b8761360990919063ffffffff16565b95505b5080806001019150506114c1565b611ad6600260009054906101000a900473ffffffffffffffffffffffffffffffffffffffff1673ffffffffffffffffffffffffffffffffffffffff166369b0b7376040518163ffffffff1660e01b815260040160206040518083038186803b158015611a7a57600080fd5b505afa158015611a8e573d6000803e3d6000fd5b505050506040513d6020811015611aa457600080fd5b8101908080519060200190929190505050611ac8888861360990919063ffffffff16565b61360990919063ffffffff16565b9450600080600360009054906101000a900473ffffffffffffffffffffffffffffffffffffffff1673ffffffffffffffffffffffffffffffffffffffff1663c94f740f6040518163ffffffff1660e01b815260040160806040518083038186803b158015611b4357600080fd5b505afa158015611b57573d6000803e3d6000fd5b505050506040513d6080811015611b6d57600080fd5b81019080805190602001909291908051906020019092919080519060200190929190805190602001909291905050509091505080925081935050506000811115611bd957611bd681611bc8898561358390919063ffffffff16565b61369190919063ffffffff16565b95505b5050505050915091565b6000808291507f444d4354000000000000000000000000000000000000000000000000000000008377ffffffffffffffffffffffffffffffffffffffffffffffff19161415611c3657600a549050611c80565b7f444d4349000000000000000000000000000000000000000000000000000000008377ffffffffffffffffffffffffffffffffffffffffffffffff19161415611c7f57600b5490505b5b915091565b60008060009054906101000a900473ffffffffffffffffffffffffffffffffffffffff1673ffffffffffffffffffffffffffffffffffffffff16638f16c41c336040518263ffffffff1660e01b8152600401808273ffffffffffffffffffffffffffffffffffffffff1673ffffffffffffffffffffffffffffffffffffffff16815260200191505060206040518083038186803b158015611d2557600080fd5b505afa158015611d39573d6000803e3d6000fd5b505050506040513d6020811015611d4f57600080fd5b8101908080519060200190929190505050611d6957600080fd5b611d738383613725565b905092915050565b600b5481565b600015156000809054906101000a900473ffffffffffffffffffffffffffffffffffffffff1673ffffffffffffffffffffffffffffffffffffffff1663ff0938a76040518163ffffffff1660e01b815260040160206040518083038186803b158015611dec57600080fd5b505afa158015611e00573d6000803e3d6000fd5b505050506040513d6020811015611e1657600080fd5b8101908080519060200190929190505050151514611e3357600080fd5b6000809054906101000a900473ffffffffffffffffffffffffffffffffffffffff1673ffffffffffffffffffffffffffffffffffffffff16638f16c41c336040518263ffffffff1660e01b8152600401808273ffffffffffffffffffffffffffffffffffffffff1673ffffffffffffffffffffffffffffffffffffffff16815260200191505060206040518083038186803b158015611ed157600080fd5b505afa158015611ee5573d6000803e3d6000fd5b505050506040513d6020811015611efb57600080fd5b8101908080519060200190929190505050611f1557600080fd5b6000600360009054906101000a900473ffffffffffffffffffffffffffffffffffffffff1673ffffffffffffffffffffffffffffffffffffffff1663ff0102396040518163ffffffff1660e01b815260040160206040518083038186803b158015611f7f57600080fd5b505afa158015611f93573d6000803e3d6000fd5b505050506040513d6020811015611fa957600080fd5b8101908080519060200190929190505050905060008290508167ffffffffffffffff168167ffffffffffffffff16106125f5576000806000600360009054906101000a900473ffffffffffffffffffffffffffffffffffffffff1673ffffffffffffffffffffffffffffffffffffffff1663c94f740f6040518163ffffffff1660e01b815260040160806040518083038186803b15801561204957600080fd5b505afa15801561205d573d6000803e3d6000fd5b505050506040513d608081101561207357600080fd5b8101908080519060200190929190805190602001909291908051906020019092919080519060200190929190505050508093508194508295505050506000600360009054906101000a900473ffffffffffffffffffffffffffffffffffffffff1673ffffffffffffffffffffffffffffffffffffffff1663255f50496040518163ffffffff1660e01b815260040160206040518083038186803b15801561211957600080fd5b505afa15801561212d573d6000803e3d6000fd5b505050506040513d602081101561214357600080fd5b81019080805190602001909291905050509050600360009054906101000a900473ffffffffffffffffffffffffffffffffffffffff1673ffffffffffffffffffffffffffffffffffffffff16637106767b8585858b6040518563ffffffff1660e01b8152600401808581526020018481526020018381526020018267ffffffffffffffff1667ffffffffffffffff168152602001945050505050600060405180830381600087803b1580156121f757600080fd5b505af115801561220b573d6000803e3d6000fd5b5050505060008090505b8181101561249b576000600360009054906101000a900473ffffffffffffffffffffffffffffffffffffffff1673ffffffffffffffffffffffffffffffffffffffff16633c40b1f0836040518263ffffffff1660e01b81526004018082815260200191505060206040518083038186803b15801561229257600080fd5b505afa1580156122a6573d6000803e3d6000fd5b505050506040513d60208110156122bc57600080fd5b81019080805190602001909291905050509050600360009054906101000a900473ffffffffffffffffffffffffffffffffffffffff1673ffffffffffffffffffffffffffffffffffffffff1663ade6a30382600360009054906101000a900473ffffffffffffffffffffffffffffffffffffffff1673ffffffffffffffffffffffffffffffffffffffff1663e26ff34c856040518263ffffffff1660e01b815260040180827bffffffffffffffffffffffffffffffffffffffffffffffffffffffff19167bffffffffffffffffffffffffffffffffffffffffffffffffffffffff1916815260200191505060206040518083038186803b1580156123bf57600080fd5b505afa1580156123d3573d6000803e3d6000fd5b505050506040513d60208110156123e957600080fd5b81019080805190602001909291905050506040518363ffffffff1660e01b815260040180837bffffffffffffffffffffffffffffffffffffffffffffffffffffffff19167bffffffffffffffffffffffffffffffffffffffffffffffffffffffff1916815260200182815260200192505050600060405180830381600087803b15801561247557600080fd5b505af1158015612489573d6000803e3d6000fd5b50505050508080600101915050612215565b508667ffffffffffffffff167fe4d7c0f9c1462bca57d9d1c2ec3a19d83c4781ceaf9a37a0f15dc55a6b43de4d4360006040519080825280602002602001820160405280156124f95781602001602082028038833980820191505090505b50600060405190808252806020026020018201604052801561252a5781602001602082028038833980820191505090505b50878988604051808781526020018060200180602001868152602001858152602001848152602001838103835288818151815260200191508051906020019060200280838360005b8381101561258d578082015181840152602081019050612572565b50505050905001838103825287818151815260200191508051906020019060200280838360005b838110156125cf5780820151818401526020810190506125b4565b505050509050019850505050505050505060405180910390a26125f0613a8c565b505050505b505050565b600015156000809054906101000a900473ffffffffffffffffffffffffffffffffffffffff1673ffffffffffffffffffffffffffffffffffffffff1663ff0938a76040518163ffffffff1660e01b815260040160206040518083038186803b15801561266557600080fd5b505afa158015612679573d6000803e3d6000fd5b505050506040513d602081101561268f57600080fd5b81019080805190602001909291905050501515146126ac57600080fd5b600860009054906101000a900473ffffffffffffffffffffffffffffffffffffffff1673ffffffffffffffffffffffffffffffffffffffff1663525050e16040518163ffffffff1660e01b815260040160206040518083038186803b15801561271457600080fd5b505afa158015612728573d6000803e3d6000fd5b505050506040513d602081101561273e57600080fd5b810190808051906020019092919050505061275857600080fd5b600360009054906101000a900473ffffffffffffffffffffffffffffffffffffffff1673ffffffffffffffffffffffffffffffffffffffff166362ae3721336040518263ffffffff1660e01b8152600401808273ffffffffffffffffffffffffffffffffffffffff1673ffffffffffffffffffffffffffffffffffffffff16815260200191505060206040518083038186803b1580156127f757600080fd5b505afa15801561280b573d6000803e3d6000fd5b505050506040513d602081101561282157600080fd5b810190808051906020019092919050505061283b57600080fd5b600660009054906101000a900473ffffffffffffffffffffffffffffffffffffffff1673ffffffffffffffffffffffffffffffffffffffff16638091f3bf6040518163ffffffff1660e01b815260040160206040518083038186803b1580156128a357600080fd5b505afa1580156128b7573d6000803e3d6000fd5b505050506040513d60208110156128cd57600080fd5b8101908080519060200190929190505050801561298d57506001600360009054906101000a900473ffffffffffffffffffffffffffffffffffffffff1673ffffffffffffffffffffffffffffffffffffffff16634f9359456040518163ffffffff1660e01b815260040160206040518083038186803b15801561294f57600080fd5b505afa158015612963573d6000803e3d6000fd5b505050506040513d602081101561297957600080fd5b810190808051906020019092919050505014155b15612a2b576127108810612a2a57600360009054906101000a900473ffffffffffffffffffffffffffffffffffffffff1673ffffffffffffffffffffffffffffffffffffffff1663e3cacb9c60016040518263ffffffff1660e01b815260040180828152602001915050600060405180830381600087803b158015612a1157600080fd5b505af1158015612a25573d6000803e3d6000fd5b505050505b5b6000600360009054906101000a900473ffffffffffffffffffffffffffffffffffffffff1673ffffffffffffffffffffffffffffffffffffffff1663a2e92aac6040518163ffffffff1660e01b815260040160206040518083038186803b158015612a9557600080fd5b505afa158015612aa9573d6000803e3d6000fd5b505050506040513d6020811015612abf57600080fd5b81019080805190602001909291905050509050612b638183888880806020026020016040519081016040528093929190818152602001838360200280828437600081840152601f19601f820116905080830192505050505050508b8d8c8a8a80806020026020016040519081016040528093929190818152602001838360200280828437600081840152601f19601f82011690508083019250505050505050613bbd565b505050505050505050565b600080612b7a836114ac565b91509150915091565b6000809054906101000a900473ffffffffffffffffffffffffffffffffffffffff1673ffffffffffffffffffffffffffffffffffffffff16635834e67a336040518263ffffffff1660e01b8152600401808273ffffffffffffffffffffffffffffffffffffffff1673ffffffffffffffffffffffffffffffffffffffff16815260200191505060206040518083038186803b158015612c2157600080fd5b505afa158015612c35573d6000803e3d6000fd5b505050506040513d6020811015612c4b57600080fd5b8101908080519060200190929190505050612c6557600080fd5b7f444d4354000000000000000000000000000000000000000000000000000000008277ffffffffffffffffffffffffffffffffffffffffffffffff19161415612cb45780600a81905550612d72565b7f444d4349000000000000000000000000000000000000000000000000000000008277ffffffffffffffffffffffffffffffffffffffffffffffff19161415612d035780600b81905550612d71565b6040517f08c379a00000000000000000000000000000000000000000000000000000000081526004018080602001828103825260128152602001807f496e76616c696420706172616d20636f6465000000000000000000000000000081525060200191505060405180910390fd5b5b5050565b600a5481565b6000809054906101000a900473ffffffffffffffffffffffffffffffffffffffff1681565b600080600360009054906101000a900473ffffffffffffffffffffffffffffffffffffffff1673ffffffffffffffffffffffffffffffffffffffff1663255f50496040518163ffffffff1660e01b815260040160206040518083038186803b158015612e0c57600080fd5b505afa158015612e20573d6000803e3d6000fd5b505050506040513d6020811015612e3657600080fd5b8101908080519060200190929190505050905060008090505b81811015613369576000600360009054906101000a900473ffffffffffffffffffffffffffffffffffffffff1673ffffffffffffffffffffffffffffffffffffffff16633c40b1f0836040518263ffffffff1660e01b81526004018082815260200191505060206040518083038186803b158015612ecc57600080fd5b505afa158015612ee0573d6000803e3d6000fd5b505050506040513d6020811015612ef657600080fd5b810190808051906020019092919050505090507f4554480000000000000000000000000000000000000000000000000000000000817bffffffffffffffffffffffffffffffffffffffffffffffffffffffff191614156130555761304e600560009054906101000a900473ffffffffffffffffffffffffffffffffffffffff1673ffffffffffffffffffffffffffffffffffffffff16633d5732a3836040518263ffffffff1660e01b815260040180827bffffffffffffffffffffffffffffffffffffffffffffffffffffffff19167bffffffffffffffffffffffffffffffffffffffffffffffffffffffff1916815260200191505060206040518083038186803b15801561300457600080fd5b505afa158015613018573d6000803e3d6000fd5b505050506040513d602081101561302e57600080fd5b81019080805190602001909291905050508561360990919063ffffffff16565b935061335b565b6000600360009054906101000a900473ffffffffffffffffffffffffffffffffffffffff1673ffffffffffffffffffffffffffffffffffffffff1663e26ff34c836040518263ffffffff1660e01b815260040180827bffffffffffffffffffffffffffffffffffffffffffffffffffffffff19167bffffffffffffffffffffffffffffffffffffffffffffffffffffffff1916815260200191505060206040518083038186803b15801561310857600080fd5b505afa15801561311c573d6000803e3d6000fd5b505050506040513d602081101561313257600080fd5b8101908080519060200190929190505050111561335a57613357613348600360009054906101000a900473ffffffffffffffffffffffffffffffffffffffff1673ffffffffffffffffffffffffffffffffffffffff1663e26ff34c846040518263ffffffff1660e01b815260040180827bffffffffffffffffffffffffffffffffffffffffffffffffffffffff19167bffffffffffffffffffffffffffffffffffffffffffffffffffffffff1916815260200191505060206040518083038186803b15801561320057600080fd5b505afa158015613214573d6000803e3d6000fd5b505050506040513d602081101561322a57600080fd5b810190808051906020019092919050505061333a6064600560009054906101000a900473ffffffffffffffffffffffffffffffffffffffff1673ffffffffffffffffffffffffffffffffffffffff16633d5732a3876040518263ffffffff1660e01b815260040180827bffffffffffffffffffffffffffffffffffffffffffffffffffffffff19167bffffffffffffffffffffffffffffffffffffffffffffffffffffffff1916815260200191505060206040518083038186803b1580156132f157600080fd5b505afa158015613305573d6000803e3d6000fd5b505050506040513d602081101561331b57600080fd5b810190808051906020019092919050505061358390919063ffffffff16565b61369190919063ffffffff16565b8561360990919063ffffffff16565b93505b5b508080600101915050612e4f565b505090565b600073ffffffffffffffffffffffffffffffffffffffff166000809054906101000a900473ffffffffffffffffffffffffffffffffffffffff1673ffffffffffffffffffffffffffffffffffffffff1614613486573373ffffffffffffffffffffffffffffffffffffffff166000809054906101000a900473ffffffffffffffffffffffffffffffffffffffff1673ffffffffffffffffffffffffffffffffffffffff1614613485576040517f08c379a000000000000000000000000000000000000000000000000000000000815260040180806020018281038252600a8152602001807f4e6f74206d61737465720000000000000000000000000000000000000000000081525060200191505060405180910390fd5b5b806000806101000a81548173ffffffffffffffffffffffffffffffffffffffff021916908373ffffffffffffffffffffffffffffffffffffffff16021790555080600160006101000a81548173ffffffffffffffffffffffffffffffffffffffff021916908373ffffffffffffffffffffffffffffffffffffffff16021790555050565b60008061354f600260009054906101000a900473ffffffffffffffffffffffffffffffffffffffff1673ffffffffffffffffffffffffffffffffffffffff16316114ac565b915091509091565b600160009054906101000a900473ffffffffffffffffffffffffffffffffffffffff1681565b60095481565b6000808314156135965760009050613603565b60008284029050828482816135a757fe5b04146135fe576040517f08c379a00000000000000000000000000000000000000000000000000000000081526004018080602001828103825260218152602001806144876021913960400191505060405180910390fd5b809150505b92915050565b600080828401905083811015613687576040517f08c379a000000000000000000000000000000000000000000000000000000000815260040180806020018281038252601b8152602001807f536166654d6174683a206164646974696f6e206f766572666c6f77000000000081525060200191505060405180910390fd5b8091505092915050565b60006136d383836040518060400160405280601a81526020017f536166654d6174683a206469766973696f6e206279207a65726f000000000000815250614300565b905092915050565b600061371d83836040518060400160405280601e81526020017f536166654d6174683a207375627472616374696f6e206f766572666c6f7700008152506143c6565b905092915050565b6000806000806000600760009054906101000a900473ffffffffffffffffffffffffffffffffffffffff1673ffffffffffffffffffffffffffffffffffffffff1663efd9066f6040518163ffffffff1660e01b815260040160206040518083038186803b15801561379557600080fd5b505afa1580156137a9573d6000803e3d6000fd5b505050506040513d60208110156137bf57600080fd5b81019080805190602001909291905050509050600081870a905060006137ef60048461358390919063ffffffff16565b9050600360009054906101000a900473ffffffffffffffffffffffffffffffffffffffff1673ffffffffffffffffffffffffffffffffffffffff16631d668c648a6040518263ffffffff1660e01b815260040180827bffffffffffffffffffffffffffffffffffffffffffffffffffffffff19167bffffffffffffffffffffffffffffffffffffffffffffffffffffffff1916815260200191505060606040518083038186803b1580156138a257600080fd5b505afa1580156138b6573d6000803e3d6000fd5b505050506040513d60608110156138cc57600080fd5b810190808051906020019092919080519060200190929190805190602001909291905050508096508197508298505050506000600360009054906101000a900473ffffffffffffffffffffffffffffffffffffffff1673ffffffffffffffffffffffffffffffffffffffff1663b775a49d6040518163ffffffff1660e01b815260040160206040518083038186803b15801561396757600080fd5b505afa15801561397b573d6000803e3d6000fd5b505050506040513d602081101561399157600080fd5b810190808051906020019092919050505090506139bb6012600a0a8761358390919063ffffffff16565b9550613a0d82600a0a6139ff886139f1876139e36012600a0a8861358390919063ffffffff16565b61358390919063ffffffff16565b61369190919063ffffffff16565b61369190919063ffffffff16565b9750613a4e613a3f6005600a0a613a316012600a0a8b61358390919063ffffffff16565b61369190919063ffffffff16565b8961360990919063ffffffff16565b9750613a66600a86028961358390919063ffffffff16565b9750613a7d6103e88961369190919063ffffffff16565b97505050505050505092915050565b600260009054906101000a900473ffffffffffffffffffffffffffffffffffffffff1673ffffffffffffffffffffffffffffffffffffffff1663c57dbe00600360009054906101000a900473ffffffffffffffffffffffffffffffffffffffff1673ffffffffffffffffffffffffffffffffffffffff16637920e2006040518163ffffffff1660e01b815260040160206040518083038186803b158015613b3257600080fd5b505afa158015613b46573d6000803e3d6000fd5b505050506040513d6020811015613b5c57600080fd5b81019080805190602001909291905050506040518263ffffffff1660e01b815260040180828152602001915050600060405180830381600087803b158015613ba357600080fd5b505af1158015613bb7573d6000803e3d6000fd5b50505050565b60008090506000809050600080905060018a1115613cda57613c17600260009054906101000a900473ffffffffffffffffffffffffffffffffffffffff1673ffffffffffffffffffffffffffffffffffffffff16316114ac565b5080935050613cd18386613c29612da1565b600360009054906101000a900473ffffffffffffffffffffffffffffffffffffffff1673ffffffffffffffffffffffffffffffffffffffff16633fa615b06040518163ffffffff1660e01b815260040160206040518083038186803b158015613c9157600080fd5b505afa158015613ca5573d6000803e3d6000fd5b505050506040513d6020811015613cbb57600080fd5b8101908080519060200190929190505050610ec1565b80925081935050505b600a54861115613e0857613e01612710613df3613dba613da7600b54600360009054906101000a900473ffffffffffffffffffffffffffffffffffffffff1673ffffffffffffffffffffffffffffffffffffffff16633fa615b06040518163ffffffff1660e01b815260040160206040518083038186803b158015613d5e57600080fd5b505afa158015613d72573d6000803e3d6000fd5b505050506040513d6020811015613d8857600080fd5b810190808051906020019092919050505061358390919063ffffffff16565b6015600a0a61358390919063ffffffff16565b613de5613dd4612710600b5461360990919063ffffffff16565b60095461358390919063ffffffff16565b61360990919063ffffffff16565b61369190919063ffffffff16565b6009819055505b60018a1480613e235750818610158015613e225750808611155b5b156141b257600360009054906101000a900473ffffffffffffffffffffffffffffffffffffffff1673ffffffffffffffffffffffffffffffffffffffff1663ff0102396040518163ffffffff1660e01b815260040160206040518083038186803b158015613e9057600080fd5b505afa158015613ea4573d6000803e3d6000fd5b505050506040513d6020811015613eba57600080fd5b810190808051906020019092919050505067ffffffffffffffff169250600360009054906101000a900473ffffffffffffffffffffffffffffffffffffffff1673ffffffffffffffffffffffffffffffffffffffff16637106767b8789888d6040518563ffffffff1660e01b8152600401808581526020018481526020018381526020018267ffffffffffffffff1667ffffffffffffffff168152602001945050505050600060405180830381600087803b158015613f7857600080fd5b505af1158015613f8c573d6000803e3d6000fd5b5050505060008090505b88518110156140a557600360009054906101000a900473ffffffffffffffffffffffffffffffffffffffff1673ffffffffffffffffffffffffffffffffffffffff1663ade6a3038a8381518110613fe957fe5b6020026020010151878481518110613ffd57fe5b60200260200101516040518363ffffffff1660e01b815260040180837bffffffffffffffffffffffffffffffffffffffffffffffffffffffff19167bffffffffffffffffffffffffffffffffffffffffffffffffffffffff1916815260200182815260200192505050600060405180830381600087803b15801561408057600080fd5b505af1158015614094573d6000803e3d6000fd5b505050508080600101915050613f96565b508867ffffffffffffffff167fe4d7c0f9c1462bca57d9d1c2ec3a19d83c4781ceaf9a37a0f15dc55a6b43de4d438a878b8b8b604051808781526020018060200180602001868152602001858152602001848152602001838103835288818151815260200191508051906020019060200280838360005b8381101561413757808201518184015260208101905061411c565b50505050905001838103825287818151815260200191508051906020019060200280838360005b8381101561417957808201518184015260208101905061415e565b505050509050019850505050505050505060405180910390a28867ffffffffffffffff168310156141ad576141ac613a8c565b5b6142f4565b600260009054906101000a900473ffffffffffffffffffffffffffffffffffffffff1673ffffffffffffffffffffffffffffffffffffffff16635085a0748a600360009054906101000a900473ffffffffffffffffffffffffffffffffffffffff1673ffffffffffffffffffffffffffffffffffffffff1663702ddaab6040518163ffffffff1660e01b815260040160206040518083038186803b15801561425957600080fd5b505afa15801561426d573d6000803e3d6000fd5b505050506040513d602081101561428357600080fd5b81019080805190602001909291905050506040518363ffffffff1660e01b8152600401808367ffffffffffffffff16815260200182815260200192505050600060405180830381600087803b1580156142db57600080fd5b505af11580156142ef573d6000803e3d6000fd5b505050505b50505050505050505050565b600080831182906143ac576040517f08c379a00000000000000000000000000000000000000000000000000000000081526004018080602001828103825283818151815260200191508051906020019080838360005b83811015614371578082015181840152602081019050614356565b50505050905090810190601f16801561439e5780820380516001836020036101000a031916815260200191505b509250505060405180910390fd5b5060008385816143b857fe5b049050809150509392505050565b6000838311158290614473576040517f08c379a00000000000000000000000000000000000000000000000000000000081526004018080602001828103825283818151815260200191508051906020019080838360005b8381101561443857808201518184015260208101905061441d565b50505050905090810190601f1680156144655780820380516001836020036101000a031916815260200191505b509250505060405180910390fd5b506000838503905080915050939250505056fe536166654d6174683a206d756c7469706c69636174696f6e206f766572666c6f77a265627a7a723158204d79ba17e397ca2fdbfe7c4998a3ff16174ee6353d368f104d1f7442f7d4350864736f6c63430005110032",
  "linkReferences": {},
  "deployedLinkReferences": {}
}