{
  "_format": "hh-sol-artifact-1",
  "contractName": "DisposableProposalCategory",
  "sourceName": "contracts/NexusMutual/mocks/DisposableProposalCategory.sol",
  "abi": [
    {
      "anonymous": false,
      "inputs": [
        {
          "indexed": true,
          "internalType": "uint256",
          "name": "categoryId",
          "type": "uint256"
        },
        {
          "indexed": false,
          "internalType": "string",
          "name": "categoryName",
          "type": "string"
        },
        {
          "indexed": false,
          "internalType": "string",
          "name": "actionHash",
          "type": "string"
        }
      ],
      "name": "Category",
      "type": "event"
    },
    {
      "constant": false,
      "inputs": [
        {
          "internalType": "string",
          "name": "_name",
          "type": "string"
        },
        {
          "internalType": "uint256",
          "name": "_memberRoleToVote",
          "type": "uint256"
        },
        {
          "internalType": "uint256",
          "name": "_majorityVotePerc",
          "type": "uint256"
        },
        {
          "internalType": "uint256",
          "name": "_quorumPerc",
          "type": "uint256"
        },
        {
          "internalType": "uint256[]",
          "name": "_allowedToCreateProposal",
          "type": "uint256[]"
        },
        {
          "internalType": "uint256",
          "name": "_closingTime",
          "type": "uint256"
        },
        {
          "internalType": "string",
          "name": "_actionHash",
          "type": "string"
        },
        {
          "internalType": "address",
          "name": "_contractAddress",
          "type": "address"
        },
        {
          "internalType": "bytes2",
          "name": "_contractName",
          "type": "bytes2"
        },
        {
          "internalType": "uint256[]",
          "name": "_incentives",
          "type": "uint256[]"
        }
      ],
      "name": "addCategory",
      "outputs": [],
      "payable": false,
      "stateMutability": "nonpayable",
      "type": "function"
    },
    {
      "constant": true,
      "inputs": [
        {
          "internalType": "uint256",
          "name": "_categoryId",
          "type": "uint256"
        }
      ],
      "name": "category",
      "outputs": [
        {
          "internalType": "uint256",
          "name": "",
          "type": "uint256"
        },
        {
          "internalType": "uint256",
          "name": "",
          "type": "uint256"
        },
        {
          "internalType": "uint256",
          "name": "",
          "type": "uint256"
        },
        {
          "internalType": "uint256",
          "name": "",
          "type": "uint256"
        },
        {
          "internalType": "uint256[]",
          "name": "",
          "type": "uint256[]"
        },
        {
          "internalType": "uint256",
          "name": "",
          "type": "uint256"
        },
        {
          "internalType": "uint256",
          "name": "",
          "type": "uint256"
        }
      ],
      "payable": false,
      "stateMutability": "view",
      "type": "function"
    },
    {
      "constant": true,
      "inputs": [
        {
          "internalType": "uint256",
          "name": "",
          "type": "uint256"
        }
      ],
      "name": "categoryABReq",
      "outputs": [
        {
          "internalType": "uint256",
          "name": "",
          "type": "uint256"
        }
      ],
      "payable": false,
      "stateMutability": "view",
      "type": "function"
    },
    {
      "constant": true,
      "inputs": [
        {
          "internalType": "uint256",
          "name": "_categoryId",
          "type": "uint256"
        }
      ],
      "name": "categoryAction",
      "outputs": [
        {
          "internalType": "uint256",
          "name": "",
          "type": "uint256"
        },
        {
          "internalType": "address",
          "name": "",
          "type": "address"
        },
        {
          "internalType": "bytes2",
          "name": "",
          "type": "bytes2"
        },
        {
          "internalType": "uint256",
          "name": "",
          "type": "uint256"
        }
      ],
      "payable": false,
      "stateMutability": "view",
      "type": "function"
    },
    {
      "constant": true,
      "inputs": [
        {
          "internalType": "uint256",
          "name": "_categoryId",
          "type": "uint256"
        }
      ],
      "name": "categoryActionDetails",
      "outputs": [
        {
          "internalType": "uint256",
          "name": "",
          "type": "uint256"
        },
        {
          "internalType": "address",
          "name": "",
          "type": "address"
        },
        {
          "internalType": "bytes2",
          "name": "",
          "type": "bytes2"
        },
        {
          "internalType": "uint256",
          "name": "",
          "type": "uint256"
        },
        {
          "internalType": "bytes",
          "name": "",
          "type": "bytes"
        }
      ],
      "payable": false,
      "stateMutability": "view",
      "type": "function"
    },
    {
      "constant": true,
      "inputs": [],
      "name": "categoryActionHashUpdated",
      "outputs": [
        {
          "internalType": "bool",
          "name": "",
          "type": "bool"
        }
      ],
      "payable": false,
      "stateMutability": "view",
      "type": "function"
    },
    {
      "constant": true,
      "inputs": [
        {
          "internalType": "uint256",
          "name": "",
          "type": "uint256"
        }
      ],
      "name": "categoryActionHashes",
      "outputs": [
        {
          "internalType": "bytes",
          "name": "",
          "type": "bytes"
        }
      ],
      "payable": false,
      "stateMutability": "view",
      "type": "function"
    },
    {
      "constant": true,
      "inputs": [
        {
          "internalType": "uint256",
          "name": "_categoryId",
          "type": "uint256"
        }
      ],
      "name": "categoryExtendedData",
      "outputs": [
        {
          "internalType": "uint256",
          "name": "",
          "type": "uint256"
        },
        {
          "internalType": "uint256",
          "name": "",
          "type": "uint256"
        },
        {
          "internalType": "uint256",
          "name": "",
          "type": "uint256"
        }
      ],
      "payable": false,
      "stateMutability": "view",
      "type": "function"
    },
    {
      "constant": false,
      "inputs": [],
      "name": "changeDependentContractAddress",
      "outputs": [],
      "payable": false,
      "stateMutability": "nonpayable",
      "type": "function"
    },
    {
      "constant": false,
      "inputs": [
        {
          "internalType": "address",
          "name": "_masterAddress",
          "type": "address"
        }
      ],
      "name": "changeMasterAddress",
      "outputs": [],
      "payable": false,
      "stateMutability": "nonpayable",
      "type": "function"
    },
    {
      "constant": true,
      "inputs": [],
      "name": "constructorCheck",
      "outputs": [
        {
          "internalType": "bool",
          "name": "",
          "type": "bool"
        }
      ],
      "payable": false,
      "stateMutability": "view",
      "type": "function"
    },
    {
      "constant": false,
      "inputs": [
        {
          "internalType": "uint256",
          "name": "_categoryId",
          "type": "uint256"
        },
        {
          "internalType": "string",
          "name": "_name",
          "type": "string"
        },
        {
          "internalType": "uint256",
          "name": "_memberRoleToVote",
          "type": "uint256"
        },
        {
          "internalType": "uint256",
          "name": "_majorityVotePerc",
          "type": "uint256"
        },
        {
          "internalType": "uint256",
          "name": "_quorumPerc",
          "type": "uint256"
        },
        {
          "internalType": "uint256[]",
          "name": "_allowedToCreateProposal",
          "type": "uint256[]"
        },
        {
          "internalType": "uint256",
          "name": "_closingTime",
          "type": "uint256"
        },
        {
          "internalType": "string",
          "name": "_actionHash",
          "type": "string"
        },
        {
          "internalType": "address",
          "name": "_contractAddress",
          "type": "address"
        },
        {
          "internalType": "bytes2",
          "name": "_contractName",
          "type": "bytes2"
        },
        {
          "internalType": "uint256[]",
          "name": "_incentives",
          "type": "uint256[]"
        },
        {
          "internalType": "string",
          "name": "_functionHash",
          "type": "string"
        }
      ],
      "name": "editCategory",
      "outputs": [],
      "payable": false,
      "stateMutability": "nonpayable",
      "type": "function"
    },
    {
      "constant": false,
      "inputs": [
        {
          "internalType": "address",
          "name": "_memberRolesAddress",
          "type": "address"
        }
      ],
      "name": "initialize",
      "outputs": [],
      "payable": false,
      "stateMutability": "nonpayable",
      "type": "function"
    },
    {
      "constant": true,
      "inputs": [
        {
          "internalType": "address",
          "name": "_toCheck",
          "type": "address"
        }
      ],
      "name": "isAuthorizedToGovern",
      "outputs": [
        {
          "internalType": "bool",
          "name": "",
          "type": "bool"
        }
      ],
      "payable": false,
      "stateMutability": "view",
      "type": "function"
    },
    {
      "constant": true,
      "inputs": [
        {
          "internalType": "uint256",
          "name": "",
          "type": "uint256"
        }
      ],
      "name": "isSpecialResolution",
      "outputs": [
        {
          "internalType": "uint256",
          "name": "",
          "type": "uint256"
        }
      ],
      "payable": false,
      "stateMutability": "view",
      "type": "function"
    },
    {
      "constant": true,
      "inputs": [],
      "name": "masterAddress",
      "outputs": [
        {
          "internalType": "address",
          "name": "",
          "type": "address"
        }
      ],
      "payable": false,
      "stateMutability": "view",
      "type": "function"
    },
    {
      "constant": true,
      "inputs": [],
      "name": "ms",
      "outputs": [
        {
          "internalType": "contract INXMMaster",
          "name": "",
          "type": "address"
        }
      ],
      "payable": false,
      "stateMutability": "view",
      "type": "function"
    },
    {
      "constant": false,
      "inputs": [
        {
          "internalType": "string",
          "name": "_name",
          "type": "string"
        },
        {
          "internalType": "uint256",
          "name": "_memberRoleToVote",
          "type": "uint256"
        },
        {
          "internalType": "uint256",
          "name": "_majorityVotePerc",
          "type": "uint256"
        },
        {
          "internalType": "uint256",
          "name": "_quorumPerc",
          "type": "uint256"
        },
        {
          "internalType": "uint256[]",
          "name": "_allowedToCreateProposal",
          "type": "uint256[]"
        },
        {
          "internalType": "uint256",
          "name": "_closingTime",
          "type": "uint256"
        },
        {
          "internalType": "string",
          "name": "_actionHash",
          "type": "string"
        },
        {
          "internalType": "address",
          "name": "_contractAddress",
          "type": "address"
        },
        {
          "internalType": "bytes2",
          "name": "_contractName",
          "type": "bytes2"
        },
        {
          "internalType": "uint256[]",
          "name": "_incentives",
          "type": "uint256[]"
        },
        {
          "internalType": "string",
          "name": "_functionHash",
          "type": "string"
        }
      ],
      "name": "newCategory",
      "outputs": [],
      "payable": false,
      "stateMutability": "nonpayable",
      "type": "function"
    },
    {
      "constant": true,
      "inputs": [],
      "name": "nxMasterAddress",
      "outputs": [
        {
          "internalType": "address",
          "name": "",
          "type": "address"
        }
      ],
      "payable": false,
      "stateMutability": "view",
      "type": "function"
    },
    {
      "constant": false,
      "inputs": [],
      "name": "proposalCategoryInitiate",
      "outputs": [],
      "payable": false,
      "stateMutability": "nonpayable",
      "type": "function"
    },
    {
      "constant": true,
      "inputs": [],
      "name": "totalCategories",
      "outputs": [
        {
          "internalType": "uint256",
          "name": "",
          "type": "uint256"
        }
      ],
      "payable": false,
      "stateMutability": "view",
      "type": "function"
    },
    {
      "constant": false,
      "inputs": [
        {
          "internalType": "uint256",
          "name": "_categoryId",
          "type": "uint256"
        },
        {
          "internalType": "string",
          "name": "_name",
          "type": "string"
        },
        {
          "internalType": "uint256",
          "name": "_memberRoleToVote",
          "type": "uint256"
        },
        {
          "internalType": "uint256",
          "name": "_majorityVotePerc",
          "type": "uint256"
        },
        {
          "internalType": "uint256",
          "name": "_quorumPerc",
          "type": "uint256"
        },
        {
          "internalType": "uint256[]",
          "name": "_allowedToCreateProposal",
          "type": "uint256[]"
        },
        {
          "internalType": "uint256",
          "name": "_closingTime",
          "type": "uint256"
        },
        {
          "internalType": "string",
          "name": "_actionHash",
          "type": "string"
        },
        {
          "internalType": "address",
          "name": "_contractAddress",
          "type": "address"
        },
        {
          "internalType": "bytes2",
          "name": "_contractName",
          "type": "bytes2"
        },
        {
          "internalType": "uint256[]",
          "name": "_incentives",
          "type": "uint256[]"
        }
      ],
      "name": "updateCategory",
      "outputs": [],
      "payable": false,
      "stateMutability": "nonpayable",
      "type": "function"
    },
    {
      "constant": false,
      "inputs": [],
      "name": "updateCategoryActionHashes",
      "outputs": [],
      "payable": false,
      "stateMutability": "nonpayable",
      "type": "function"
    }
  ],
  "bytecode": "0x608060405234801561001057600080fd5b50616abb80620000216000396000f3fe608060405234801561001057600080fd5b506004361061014d5760003560e01c806386957731116100c3578063cf3acfbc1161007c578063cf3acfbc14610fab578063d365a08e14610fb5578063d46655f414610fff578063d4aaafb414611043578063da3f7bd114611174578063f17a3bec146113605761014d565b806386957731146104cf57806395566ebd14610511578063a0b2d57f14610809578063aef8123614610853578063b02bc31614610bd8578063c4d66de814610f675761014d565b8063525050e111610115578063525050e1146102d357806354911e12146102f557806357c7bec114610317578063674aa712146103be5780636debdabf14610483578063780052971461048d5761014d565b806307149ba3146101525780630ea9c984146101a257806322ce7254146101ac578063253eca1f1461020857806339275b0a146102b5575b600080fd5b61017e6004803603602081101561016857600080fd5b81019080803590602001909291905050506113aa565b60405180848152602001838152602001828152602001935050505060405180910390f35b6101aa6113e5565b005b6101ee600480360360208110156101c257600080fd5b81019080803573ffffffffffffffffffffffffffffffffffffffff1690602001909291905050506114f5565b604051808215151515815260200191505060405180910390f35b6102346004803603602081101561021e57600080fd5b81019080803590602001909291905050506115fe565b6040518088815260200187815260200186815260200185815260200180602001848152602001838152602001828103825285818151815260200191508051906020019060200280838360005b8381101561029b578082015181840152602081019050610280565b505050509050019850505050505050505060405180910390f35b6102bd61172e565b6040518082815260200191505060405180910390f35b6102db61173b565b604051808215151515815260200191505060405180910390f35b6102fd61174e565b604051808215151515815260200191505060405180910390f35b6103436004803603602081101561032d57600080fd5b8101908080359060200190929190505050611761565b6040518080602001828103825283818151815260200191508051906020019080838360005b83811015610383578082015181840152602081019050610368565b50505050905090810190601f1680156103b05780820380516001836020036101000a031916815260200191505b509250505060405180910390f35b6103ea600480360360208110156103d457600080fd5b8101908080359060200190929190505050611811565b604051808581526020018473ffffffffffffffffffffffffffffffffffffffff1673ffffffffffffffffffffffffffffffffffffffff168152602001837dffffffffffffffffffffffffffffffffffffffffffffffffffffffffffff19167dffffffffffffffffffffffffffffffffffffffffffffffffffffffffffff1916815260200182815260200194505050505060405180910390f35b61048b611899565b005b6104b9600480360360208110156104a357600080fd5b8101908080359060200190929190505050612d5e565b6040518082815260200191505060405180910390f35b6104fb600480360360208110156104e557600080fd5b8101908080359060200190929190505050612d76565b6040518082815260200191505060405180910390f35b610807600480360361016081101561052857600080fd5b81019080803590602001909291908035906020019064010000000081111561054f57600080fd5b82018360208201111561056157600080fd5b8035906020019184600183028401116401000000008311171561058357600080fd5b91908080601f016020809104026020016040519081016040528093929190818152602001838380828437600081840152601f19601f8201169050808301925050505050505091929192908035906020019092919080359060200190929190803590602001909291908035906020019064010000000081111561060457600080fd5b82018360208201111561061657600080fd5b8035906020019184602083028401116401000000008311171561063857600080fd5b919080806020026020016040519081016040528093929190818152602001838360200280828437600081840152601f19601f82011690508083019250505050505050919291929080359060200190929190803590602001906401000000008111156106a257600080fd5b8201836020820111156106b457600080fd5b803590602001918460018302840111640100000000831117156106d657600080fd5b91908080601f016020809104026020016040519081016040528093929190818152602001838380828437600081840152601f19601f820116905080830192505050505050509192919290803573ffffffffffffffffffffffffffffffffffffffff16906020019092919080357dffffffffffffffffffffffffffffffffffffffffffffffffffffffffffff191690602001909291908035906020019064010000000081111561078457600080fd5b82018360208201111561079657600080fd5b803590602001918460208302840111640100000000831117156107b857600080fd5b919080806020026020016040519081016040528093929190818152602001838360200280828437600081840152601f19601f820116905080830192505050505050509192919290505050612d8e565b005b610811612d9b565b604051808273ffffffffffffffffffffffffffffffffffffffff1673ffffffffffffffffffffffffffffffffffffffff16815260200191505060405180910390f35b610bd6600480360361016081101561086a57600080fd5b810190808035906020019064010000000081111561088757600080fd5b82018360208201111561089957600080fd5b803590602001918460018302840111640100000000831117156108bb57600080fd5b91908080601f016020809104026020016040519081016040528093929190818152602001838380828437600081840152601f19601f8201169050808301925050505050505091929192908035906020019092919080359060200190929190803590602001909291908035906020019064010000000081111561093c57600080fd5b82018360208201111561094e57600080fd5b8035906020019184602083028401116401000000008311171561097057600080fd5b919080806020026020016040519081016040528093929190818152602001838360200280828437600081840152601f19601f82011690508083019250505050505050919291929080359060200190929190803590602001906401000000008111156109da57600080fd5b8201836020820111156109ec57600080fd5b80359060200191846001830284011164010000000083111715610a0e57600080fd5b91908080601f016020809104026020016040519081016040528093929190818152602001838380828437600081840152601f19601f820116905080830192505050505050509192919290803573ffffffffffffffffffffffffffffffffffffffff16906020019092919080357dffffffffffffffffffffffffffffffffffffffffffffffffffffffffffff1916906020019092919080359060200190640100000000811115610abc57600080fd5b820183602082011115610ace57600080fd5b80359060200191846020830284011164010000000083111715610af057600080fd5b919080806020026020016040519081016040528093929190818152602001838360200280828437600081840152601f19601f82011690508083019250505050505050919291929080359060200190640100000000811115610b5057600080fd5b820183602082011115610b6257600080fd5b80359060200191846001830284011164010000000083111715610b8457600080fd5b91908080601f016020809104026020016040519081016040528093929190818152602001838380828437600081840152601f19601f820116905080830192505050505050509192919290505050612dc1565b005b610f656004803603610180811015610bef57600080fd5b810190808035906020019092919080359060200190640100000000811115610c1657600080fd5b820183602082011115610c2857600080fd5b80359060200191846001830284011164010000000083111715610c4a57600080fd5b91908080601f016020809104026020016040519081016040528093929190818152602001838380828437600081840152601f19601f82011690508083019250505050505050919291929080359060200190929190803590602001909291908035906020019092919080359060200190640100000000811115610ccb57600080fd5b820183602082011115610cdd57600080fd5b80359060200191846020830284011164010000000083111715610cff57600080fd5b919080806020026020016040519081016040528093929190818152602001838360200280828437600081840152601f19601f8201169050808301925050505050505091929192908035906020019092919080359060200190640100000000811115610d6957600080fd5b820183602082011115610d7b57600080fd5b80359060200191846001830284011164010000000083111715610d9d57600080fd5b91908080601f016020809104026020016040519081016040528093929190818152602001838380828437600081840152601f19601f820116905080830192505050505050509192919290803573ffffffffffffffffffffffffffffffffffffffff16906020019092919080357dffffffffffffffffffffffffffffffffffffffffffffffffffffffffffff1916906020019092919080359060200190640100000000811115610e4b57600080fd5b820183602082011115610e5d57600080fd5b80359060200191846020830284011164010000000083111715610e7f57600080fd5b919080806020026020016040519081016040528093929190818152602001838360200280828437600081840152601f19601f82011690508083019250505050505050919291929080359060200190640100000000811115610edf57600080fd5b820183602082011115610ef157600080fd5b80359060200191846001830284011164010000000083111715610f1357600080fd5b91908080601f016020809104026020016040519081016040528093929190818152602001838380828437600081840152601f19601f8201169050808301925050505050505091929192905050506132ff565b005b610fa960048036036020811015610f7d57600080fd5b81019080803573ffffffffffffffffffffffffffffffffffffffff169060200190929190505050613bce565b005b610fb3615e8e565b005b610fbd615e90565b604051808273ffffffffffffffffffffffffffffffffffffffff1673ffffffffffffffffffffffffffffffffffffffff16815260200191505060405180910390f35b6110416004803603602081101561101557600080fd5b81019080803573ffffffffffffffffffffffffffffffffffffffff169060200190929190505050615eb5565b005b61106f6004803603602081101561105957600080fd5b8101908080359060200190929190505050616029565b604051808681526020018573ffffffffffffffffffffffffffffffffffffffff1673ffffffffffffffffffffffffffffffffffffffff168152602001847dffffffffffffffffffffffffffffffffffffffffffffffffffffffffffff19167dffffffffffffffffffffffffffffffffffffffffffffffffffffffffffff1916815260200183815260200180602001828103825283818151815260200191508051906020019080838360005b8381101561113557808201518184015260208101905061111a565b50505050905090810190601f1680156111625780820380516001836020036101000a031916815260200191505b50965050505050505060405180910390f35b61135e600480360361014081101561118b57600080fd5b81019080803590602001906401000000008111156111a857600080fd5b8201836020820111156111ba57600080fd5b803590602001918460018302840111640100000000831117156111dc57600080fd5b90919293919293908035906020019092919080359060200190929190803590602001909291908035906020019064010000000081111561121b57600080fd5b82018360208201111561122d57600080fd5b8035906020019184602083028401116401000000008311171561124f57600080fd5b9091929391929390803590602001909291908035906020019064010000000081111561127a57600080fd5b82018360208201111561128c57600080fd5b803590602001918460018302840111640100000000831117156112ae57600080fd5b9091929391929390803573ffffffffffffffffffffffffffffffffffffffff16906020019092919080357dffffffffffffffffffffffffffffffffffffffffffffffffffffffffffff191690602001909291908035906020019064010000000081111561131a57600080fd5b82018360208201111561132c57600080fd5b8035906020019184602083028401116401000000008311171561134e57600080fd5b9091929391929390505050616166565b005b611368616176565b604051808273ffffffffffffffffffffffffffffffffffffffff1673ffffffffffffffffffffffffffffffffffffffff16815260200191505060405180910390f35b600080600083600660008681526020019081526020016000205460076000878152602001908152602001600020549250925092509193909250565b600160009054906101000a900473ffffffffffffffffffffffffffffffffffffffff1673ffffffffffffffffffffffffffffffffffffffff1663013828586040518163ffffffff1660e01b815260040180807f4d52000000000000000000000000000000000000000000000000000000000000815250602001905060206040518083038186803b15801561147857600080fd5b505afa15801561148c573d6000803e3d6000fd5b505050506040513d60208110156114a257600080fd5b8101908080519060200190929190505050600360006101000a81548173ffffffffffffffffffffffffffffffffffffffff021916908373ffffffffffffffffffffffffffffffffffffffff160217905550565b6000806000809054906101000a900473ffffffffffffffffffffffffffffffffffffffff1690508273ffffffffffffffffffffffffffffffffffffffff168173ffffffffffffffffffffffffffffffffffffffff1663013828586040518163ffffffff1660e01b815260040180807f4756000000000000000000000000000000000000000000000000000000000000815250602001905060206040518083038186803b1580156115a457600080fd5b505afa1580156115b8573d6000803e3d6000fd5b505050506040513d60208110156115ce57600080fd5b810190808051906020019092919050505073ffffffffffffffffffffffffffffffffffffffff1614915050919050565b6000806000806060600080876004898154811061161757fe5b90600052602060002090600602016000015460048a8154811061163657fe5b90600052602060002090600602016001015460048b8154811061165557fe5b90600052602060002090600602016002015460048c8154811061167457fe5b906000526020600020906006020160030160048d8154811061169257fe5b90600052602060002090600602016004015460048e815481106116b157fe5b9060005260206000209060060201600501548280548060200260200160405190810160405280929190818152602001828054801561170e57602002820191906000526020600020905b8154815260200190600101908083116116fa575b505050505092509650965096509650965096509650919395979092949650565b6000600480549050905090565b600260149054906101000a900460ff1681565b600960009054906101000a900460ff1681565b60086020528060005260406000206000915090508054600181600116156101000203166002900480601f0160208091040260200160405190810160405280929190818152602001828054600181600116156101000203166002900480156118095780601f106117de57610100808354040283529160200191611809565b820191906000526020600020905b8154815290600101906020018083116117ec57829003601f168201915b505050505081565b600080600080846005600087815260200190815260200160002060010160009054906101000a900473ffffffffffffffffffffffffffffffffffffffff166005600088815260200190815260200160002060010160149054906101000a900460f01b600560008981526020019081526020016000206000015493509350935093509193509193565b600160009054906101000a900473ffffffffffffffffffffffffffffffffffffffff1673ffffffffffffffffffffffffffffffffffffffff16632f54bf6e336040518263ffffffff1660e01b8152600401808273ffffffffffffffffffffffffffffffffffffffff1673ffffffffffffffffffffffffffffffffffffffff16815260200191505060206040518083038186803b15801561193857600080fd5b505afa15801561194c573d6000803e3d6000fd5b505050506040513d602081101561196257600080fd5b810190808051906020019092919050505061197c57600080fd5b600960009054906101000a900460ff16156119e2576040517f08c379a00000000000000000000000000000000000000000000000000000000081526004018080602001828103825260268152602001806169f06026913960400191505060405180910390fd5b6001600960006101000a81548160ff0219169083151502179055506040516024016040516020818303038152906040527f2dc4bdca000000000000000000000000000000000000000000000000000000007bffffffffffffffffffffffffffffffffffffffffffffffffffffffff19166020820180517bffffffffffffffffffffffffffffffffffffffffffffffffffffffff838183161783525050505060086000600181526020019081526020016000209080519060200190611aa792919061677f565b506040516024016040516020818303038152906040527f2f473021000000000000000000000000000000000000000000000000000000007bffffffffffffffffffffffffffffffffffffffffffffffffffffffff19166020820180517bffffffffffffffffffffffffffffffffffffffffffffffffffffffff838183161783525050505060086000600281526020019081526020016000209080519060200190611b5292919061677f565b506040516024016040516020818303038152906040527faef81236000000000000000000000000000000000000000000000000000000007bffffffffffffffffffffffffffffffffffffffffffffffffffffffff19166020820180517bffffffffffffffffffffffffffffffffffffffffffffffffffffffff838183161783525050505060086000600381526020019081526020016000209080519060200190611bfd92919061677f565b506040516024016040516020818303038152906040527fb02bc316000000000000000000000000000000000000000000000000000000007bffffffffffffffffffffffffffffffffffffffffffffffffffffffff19166020820180517bffffffffffffffffffffffffffffffffffffffffffffffffffffffff838183161783525050505060086000600481526020019081526020016000209080519060200190611ca892919061677f565b506040516024016040516020818303038152906040527f65a8c523000000000000000000000000000000000000000000000000000000007bffffffffffffffffffffffffffffffffffffffffffffffffffffffff19166020820180517bffffffffffffffffffffffffffffffffffffffffffffffffffffffff838183161783525050505060086000600581526020019081526020016000209080519060200190611d5392919061677f565b506040516024016040516020818303038152906040527f872f1eb3000000000000000000000000000000000000000000000000000000007bffffffffffffffffffffffffffffffffffffffffffffffffffffffff19166020820180517bffffffffffffffffffffffffffffffffffffffffffffffffffffffff838183161783525050505060086000600681526020019081526020016000209080519060200190611dfe92919061677f565b506040516024016040516020818303038152906040527fffa39929000000000000000000000000000000000000000000000000000000007bffffffffffffffffffffffffffffffffffffffffffffffffffffffff19166020820180517bffffffffffffffffffffffffffffffffffffffffffffffffffffffff838183161783525050505060086000600781526020019081526020016000209080519060200190611ea992919061677f565b506040516024016040516020818303038152906040527fccace7df000000000000000000000000000000000000000000000000000000007bffffffffffffffffffffffffffffffffffffffffffffffffffffffff19166020820180517bffffffffffffffffffffffffffffffffffffffffffffffffffffffff838183161783525050505060086000600881526020019081526020016000209080519060200190611f5492919061677f565b506040516024016040516020818303038152906040527f623c2bca000000000000000000000000000000000000000000000000000000007bffffffffffffffffffffffffffffffffffffffffffffffffffffffff19166020820180517bffffffffffffffffffffffffffffffffffffffffffffffffffffffff838183161783525050505060086000600981526020019081526020016000209080519060200190611fff92919061677f565b506040516024016040516020818303038152906040527fbd03e501000000000000000000000000000000000000000000000000000000007bffffffffffffffffffffffffffffffffffffffffffffffffffffffff19166020820180517bffffffffffffffffffffffffffffffffffffffffffffffffffffffff838183161783525050505060086000600c815260200190815260200160002090805190602001906120aa92919061677f565b506040516024016040516020818303038152906040527fc6318c23000000000000000000000000000000000000000000000000000000007bffffffffffffffffffffffffffffffffffffffffffffffffffffffff19166020820180517bffffffffffffffffffffffffffffffffffffffffffffffffffffffff838183161783525050505060086000600d8152602001908152602001600020908051906020019061215592919061677f565b506040516024016040516020818303038152906040527fc85e5efd000000000000000000000000000000000000000000000000000000007bffffffffffffffffffffffffffffffffffffffffffffffffffffffff19166020820180517bffffffffffffffffffffffffffffffffffffffffffffffffffffffff838183161783525050505060086000600e8152602001908152602001600020908051906020019061220092919061677f565b506040516024016040516020818303038152906040527f42a049cd000000000000000000000000000000000000000000000000000000007bffffffffffffffffffffffffffffffffffffffffffffffffffffffff19166020820180517bffffffffffffffffffffffffffffffffffffffffffffffffffffffff838183161783525050505060086000600f815260200190815260200160002090805190602001906122ab92919061677f565b506040516024016040516020818303038152906040527fc578f230000000000000000000000000000000000000000000000000000000007bffffffffffffffffffffffffffffffffffffffffffffffffffffffff19166020820180517bffffffffffffffffffffffffffffffffffffffffffffffffffffffff83818316178352505050506008600060108152602001908152602001600020908051906020019061235692919061677f565b506040516024016040516020818303038152906040527febff71c3000000000000000000000000000000000000000000000000000000007bffffffffffffffffffffffffffffffffffffffffffffffffffffffff19166020820180517bffffffffffffffffffffffffffffffffffffffffffffffffffffffff83818316178352505050506008600060118152602001908152602001600020908051906020019061240192919061677f565b506040516024016040516020818303038152906040527f9dd86e0f000000000000000000000000000000000000000000000000000000007bffffffffffffffffffffffffffffffffffffffffffffffffffffffff19166020820180517bffffffffffffffffffffffffffffffffffffffffffffffffffffffff8381831617835250505050600860006014815260200190815260200160002090805190602001906124ac92919061677f565b506040516024016040516020818303038152906040527f9dd86e0f000000000000000000000000000000000000000000000000000000007bffffffffffffffffffffffffffffffffffffffffffffffffffffffff19166020820180517bffffffffffffffffffffffffffffffffffffffffffffffffffffffff83818316178352505050506008600060158152602001908152602001600020908051906020019061255792919061677f565b506040516024016040516020818303038152906040527f9dd86e0f000000000000000000000000000000000000000000000000000000007bffffffffffffffffffffffffffffffffffffffffffffffffffffffff19166020820180517bffffffffffffffffffffffffffffffffffffffffffffffffffffffff83818316178352505050506008600060168152602001908152602001600020908051906020019061260292919061677f565b506040516024016040516020818303038152906040527f9dd86e0f000000000000000000000000000000000000000000000000000000007bffffffffffffffffffffffffffffffffffffffffffffffffffffffff19166020820180517bffffffffffffffffffffffffffffffffffffffffffffffffffffffff8381831617835250505050600860006017815260200190815260200160002090805190602001906126ad92919061677f565b506040516024016040516020818303038152906040527f9dd86e0f000000000000000000000000000000000000000000000000000000007bffffffffffffffffffffffffffffffffffffffffffffffffffffffff19166020820180517bffffffffffffffffffffffffffffffffffffffffffffffffffffffff83818316178352505050506008600060188152602001908152602001600020908051906020019061275892919061677f565b506040516024016040516020818303038152906040527f9dd86e0f000000000000000000000000000000000000000000000000000000007bffffffffffffffffffffffffffffffffffffffffffffffffffffffff19166020820180517bffffffffffffffffffffffffffffffffffffffffffffffffffffffff83818316178352505050506008600060198152602001908152602001600020908051906020019061280392919061677f565b506040516024016040516020818303038152906040527f9dd86e0f000000000000000000000000000000000000000000000000000000007bffffffffffffffffffffffffffffffffffffffffffffffffffffffff19166020820180517bffffffffffffffffffffffffffffffffffffffffffffffffffffffff838183161783525050505060086000601a815260200190815260200160002090805190602001906128ae92919061677f565b506040516024016040516020818303038152906040527fad4cc43e000000000000000000000000000000000000000000000000000000007bffffffffffffffffffffffffffffffffffffffffffffffffffffffff19166020820180517bffffffffffffffffffffffffffffffffffffffffffffffffffffffff838183161783525050505060086000601b8152602001908152602001600020908051906020019061295992919061677f565b506040516024016040516020818303038152906040527fe2cab14d000000000000000000000000000000000000000000000000000000007bffffffffffffffffffffffffffffffffffffffffffffffffffffffff19166020820180517bffffffffffffffffffffffffffffffffffffffffffffffffffffffff838183161783525050505060086000601c81526020019081526020016000209080519060200190612a0492919061677f565b506040516024016040516020818303038152906040527f92b0a156000000000000000000000000000000000000000000000000000000007bffffffffffffffffffffffffffffffffffffffffffffffffffffffff19166020820180517bffffffffffffffffffffffffffffffffffffffffffffffffffffffff838183161783525050505060086000601d81526020019081526020016000209080519060200190612aaf92919061677f565b506040516024016040516020818303038152906040527feaad1b3b000000000000000000000000000000000000000000000000000000007bffffffffffffffffffffffffffffffffffffffffffffffffffffffff19166020820180517bffffffffffffffffffffffffffffffffffffffffffffffffffffffff838183161783525050505060086000601e81526020019081526020016000209080519060200190612b5a92919061677f565b506040516024016040516020818303038152906040527f496b4886000000000000000000000000000000000000000000000000000000007bffffffffffffffffffffffffffffffffffffffffffffffffffffffff19166020820180517bffffffffffffffffffffffffffffffffffffffffffffffffffffffff838183161783525050505060086000601f81526020019081526020016000209080519060200190612c0592919061677f565b506040516024016040516020818303038152906040527fa5263aa2000000000000000000000000000000000000000000000000000000007bffffffffffffffffffffffffffffffffffffffffffffffffffffffff19166020820180517bffffffffffffffffffffffffffffffffffffffffffffffffffffffff838183161783525050505060086000602081526020019081526020016000209080519060200190612cb092919061677f565b506040516024016040516020818303038152906040527ff720036c000000000000000000000000000000000000000000000000000000007bffffffffffffffffffffffffffffffffffffffffffffffffffffffff19166020820180517bffffffffffffffffffffffffffffffffffffffffffffffffffffffff838183161783525050505060086000602181526020019081526020016000209080519060200190612d5b92919061677f565b50565b60066020528060005260406000206000915090505481565b60076020528060005260406000206000915090505481565b5050505050505050505050565b600160009054906101000a900473ffffffffffffffffffffffffffffffffffffffff1681565b60008060009054906101000a900473ffffffffffffffffffffffffffffffffffffffff1690503373ffffffffffffffffffffffffffffffffffffffff168173ffffffffffffffffffffffffffffffffffffffff1663013828586040518163ffffffff1660e01b815260040180807f4756000000000000000000000000000000000000000000000000000000000000815250602001905060206040518083038186803b158015612e6f57600080fd5b505afa158015612e83573d6000803e3d6000fd5b505050506040513d6020811015612e9957600080fd5b810190808051906020019092919050505073ffffffffffffffffffffffffffffffffffffffff1614612f33576040517f08c379a000000000000000000000000000000000000000000000000000000000815260040180806020018281038252600e8152602001807f4e6f7420617574686f72697a656400000000000000000000000000000000000081525060200191505060405180910390fd5b60648911158015612f45575060648a11155b612fb7576040517f08c379a00000000000000000000000000000000000000000000000000000000081526004018080602001828103825260128152602001807f496e76616c69642070657263656e74616765000000000000000000000000000081525060200191505060405180910390fd5b7f4558000000000000000000000000000000000000000000000000000000000000847dffffffffffffffffffffffffffffffffffffffffffffffffffffffffffff19161480156130335750600073ffffffffffffffffffffffffffffffffffffffff168573ffffffffffffffffffffffffffffffffffffffff16145b8061303f575060008251115b61304857600080fd5b60018360038151811061305757fe5b602002602001015111156130d3576040517f08c379a000000000000000000000000000000000000000000000000000000000815260040180806020018281038252601f8152602001807f496e76616c6964207370656369616c207265736f6c7574696f6e20666c61670081525060200191505060405180910390fd5b6001836003815181106130e257fe5b6020026020010151141561311157600260038111156130fd57fe5b8b1461310857600080fd5b60009950600098505b6131238c8c8c8c8c8c8c8c8c8c61619c565b600082511180156131f85750600482604051602401604051602081830303815290604052906040518082805190602001908083835b6020831061317b5780518252602082019150602081019050602083039250613158565b6001836020036101000a03801982511681845116808217855250505050505090500191505060405180910390207bffffffffffffffffffffffffffffffffffffffffffffffffffffffff19166020820180517bffffffffffffffffffffffffffffffffffffffffffffffffffffffff838183161783525050505051145b156132f15781604051602401604051602081830303815290604052906040518082805190602001908083835b602083106132475780518252602082019150602081019050602083039250613224565b6001836020036101000a03801982511681845116808217855250505050505090500191505060405180910390207bffffffffffffffffffffffffffffffffffffffffffffffffffffffff19166020820180517bffffffffffffffffffffffffffffffffffffffffffffffffffffffff838183161783525050505060086000600160048054905003815260200190815260200160002090805190602001906132ef92919061677f565b505b505050505050505050505050565b60008060009054906101000a900473ffffffffffffffffffffffffffffffffffffffff1690503373ffffffffffffffffffffffffffffffffffffffff168173ffffffffffffffffffffffffffffffffffffffff1663013828586040518163ffffffff1660e01b815260040180807f4756000000000000000000000000000000000000000000000000000000000000815250602001905060206040518083038186803b1580156133ad57600080fd5b505afa1580156133c1573d6000803e3d6000fd5b505050506040513d60208110156133d757600080fd5b810190808051906020019092919050505073ffffffffffffffffffffffffffffffffffffffff1614613471576040517f08c379a000000000000000000000000000000000000000000000000000000000815260040180806020018281038252600e8152602001807f4e6f7420617574686f72697a656400000000000000000000000000000000000081525060200191505060405180910390fd5b600161347d8c8a616546565b146134f0576040517f08c379a000000000000000000000000000000000000000000000000000000000815260040180806020018281038252600c8152602001807f496e76616c696420526f6c65000000000000000000000000000000000000000081525060200191505060405180910390fd5b60648911158015613502575060648a11155b613574576040517f08c379a00000000000000000000000000000000000000000000000000000000081526004018080602001828103825260128152602001807f496e76616c69642070657263656e74616765000000000000000000000000000081525060200191505060405180910390fd5b7f4558000000000000000000000000000000000000000000000000000000000000847dffffffffffffffffffffffffffffffffffffffffffffffffffffffffffff19161480156135f05750600073ffffffffffffffffffffffffffffffffffffffff168573ffffffffffffffffffffffffffffffffffffffff16145b806135fc575060008251115b61360557600080fd5b60018360038151811061361457fe5b60200260200101511115613690576040517f08c379a000000000000000000000000000000000000000000000000000000000815260040180806020018281038252601f8152602001807f496e76616c6964207370656369616c207265736f6c7574696f6e20666c61670081525060200191505060405180910390fd5b60018360038151811061369f57fe5b602002602001015114156136ce57600260038111156136ba57fe5b8b146136c557600080fd5b60009950600098505b600860008e815260200190815260200160002060006136ed91906167ff565b600082511180156137c25750600482604051602401604051602081830303815290604052906040518082805190602001908083835b602083106137455780518252602082019150602081019050602083039250613722565b6001836020036101000a03801982511681845116808217855250505050505090500191505060405180910390207bffffffffffffffffffffffffffffffffffffffffffffffffffffffff19166020820180517bffffffffffffffffffffffffffffffffffffffffffffffffffffffff838183161783525050505051145b156138b35781604051602401604051602081830303815290604052906040518082805190602001908083835b6020831061381157805182526020820191506020810190506020830392506137ee565b6001836020036101000a03801982511681845116808217855250505050505090500191505060405180910390207bffffffffffffffffffffffffffffffffffffffffffffffffffffffff19166020820180517bffffffffffffffffffffffffffffffffffffffffffffffffffffffff8381831617835250505050600860008f815260200190815260200160002090805190602001906138b192919061677f565b505b8a60048e815481106138c157fe5b9060005260206000209060060201600001819055508960048e815481106138e457fe5b9060005260206000209060060201600101819055508660048e8154811061390757fe5b9060005260206000209060060201600401819055508760048e8154811061392a57fe5b9060005260206000209060060201600301908051906020019061394e929190616847565b508260008151811061395c57fe5b602002602001015160048e8154811061397157fe5b9060005260206000209060060201600501819055508860048e8154811061399457fe5b906000526020600020906006020160020181905550826001815181106139b657fe5b6020026020010151600560008f81526020019081526020016000206000018190555083600560008f815260200190815260200160002060010160146101000a81548161ffff021916908360f01c021790555084600560008f815260200190815260200160002060010160006101000a81548173ffffffffffffffffffffffffffffffffffffffff021916908373ffffffffffffffffffffffffffffffffffffffff16021790555082600281518110613a6a57fe5b6020026020010151600660008f81526020019081526020016000208190555082600381518110613a9657fe5b6020026020010151600760008f8152602001908152602001600020819055508c7f2a65d0fe76508fb4e604d4804927dce75b70f82e64a2025e3bffb2fc003418508d88604051808060200180602001838103835285818151815260200191508051906020019080838360005b83811015613b1d578082015181840152602081019050613b02565b50505050905090810190601f168015613b4a5780820380516001836020036101000a031916815260200191505b50838103825284818151815260200191508051906020019080838360005b83811015613b83578082015181840152602081019050613b68565b50505050905090810190601f168015613bb05780820380516001836020036101000a031916815260200191505b5094505050505060405180910390a250505050505050505050505050565b600260149054906101000a900460ff1615613be857600080fd5b6001600260146101000a81548160ff0219169083151502179055506001600960006101000a81548160ff02191690831515021790555080600360006101000a81548173ffffffffffffffffffffffffffffffffffffffff021916908373ffffffffffffffffffffffffffffffffffffffff160217905550613cc66040518060400160405280600d81526020017f556e63617465676f72697a6564000000000000000000000000000000000000008152507f4d52000000000000000000000000000000000000000000000000000000000000603c600f6001600061664d565b613d2d6040518060400160405280601381526020017f416464206e6577206d656d62657220726f6c65000000000000000000000000008152507f4d52000000000000000000000000000000000000000000000000000000000000603c600f6001600061664d565b613d946040518060400160405280601281526020017f557064617465206d656d62657220726f6c6500000000000000000000000000008152507f4d52000000000000000000000000000000000000000000000000000000000000603c600f6001600061664d565b613dfb6040518060400160405280601081526020017f416464206e65772063617465676f7279000000000000000000000000000000008152507f5043000000000000000000000000000000000000000000000000000000000000603c600f6001600061664d565b613e626040518060400160405280600d81526020017f456469742063617465676f7279000000000000000000000000000000000000008152507f5043000000000000000000000000000000000000000000000000000000000000603c600f6001600061664d565b613eac604051806060016040528060218152602001616a16602191397f4d530000000000000000000000000000000000000000000000000000000000006032600f6002605061664d565b613f136040518060400160405280601981526020017f496d706c656d656e7420456d657267656e6379205061757365000000000000008152507f4d530000000000000000000000000000000000000000000000000000000000006000600f6001600061664d565b613f5d604051806060016040528060248152602001616997602491397f4d530000000000000000000000000000000000000000000000000000000000006032600f6002600061664d565b613fc46040518060400160405280601981526020017f4275726e20436c61696d73204173736573736f7220426f6e64000000000000008152507f54460000000000000000000000000000000000000000000000000000000000006050600f6001600061664d565b61400e604051806060016040528060268152602001616a61602691397f4344000000000000000000000000000000000000000000000000000000000000603c600f6001600061664d565b6140756040518060400160405280601881526020017f4368616e67657320746f204361706974616c204d6f64656c00000000000000008152507f45580000000000000000000000000000000000000000000000000000000000006032600f6002603c61664d565b6140dc6040518060400160405280601881526020017f4368616e67657320746f2050726963696e67204d6f64656c00000000000000008152507f45580000000000000000000000000000000000000000000000000000000000006032600f6002603c61664d565b6141266040518060600160405280602a8152602001616a37602a91397f50310000000000000000000000000000000000000000000000000000000000006032600f6002605061664d565b61418d6040518060400160405280601481526020017f41646420496e766573746d656e742041737365740000000000000000000000008152507f50440000000000000000000000000000000000000000000000000000000000006032600f6002603c61664d565b6141d76040518060600160405280603581526020016169bb603591397f50440000000000000000000000000000000000000000000000000000000000006032600f6002603c61664d565b61423e6040518060400160405280601e81526020017f55706461746520496e766573746d656e742041737365742053746174757300008152507f50440000000000000000000000000000000000000000000000000000000000006032600f6002603c61664d565b6142a56040518060400160405280601081526020017f4368616e6765204142204d656d626572000000000000000000000000000000008152507f4d520000000000000000000000000000000000000000000000000000000000006032600f6002600061664d565b61430c6040518060400160405280601281526020017f4164642043757272656e637920417373657400000000000000000000000000008152507f50440000000000000000000000000000000000000000000000000000000000006032600f6002600061664d565b6143736040518060400160405280600e81526020017f416e79206f74686572204974656d0000000000000000000000000000000000008152507f45580000000000000000000000000000000000000000000000000000000000006032600f6002605061664d565b6143da6040518060400160405280601281526020017f5370656369616c205265736f6c7574696f6e00000000000000000000000000008152507f4558000000000000000000000000000000000000000000000000000000000000604b60006002600061664d565b6144416040518060400160405280601781526020017f55706461746520546f6b656e20506172616d65746572730000000000000000008152507f54440000000000000000000000000000000000000000000000000000000000006032600f6002603c61664d565b61448b604051806060016040528060218152602001616930602191397f54440000000000000000000000000000000000000000000000000000000000006032600f6002603c61664d565b6144f26040518060400160405280601c81526020017f55706461746520476f7665726e616e636520506172616d6574657273000000008152507f47560000000000000000000000000000000000000000000000000000000000006032600f6002603c61664d565b6145596040518060400160405280601b81526020017f5570646174652051756f746174696f6e20506172616d657465727300000000008152507f51440000000000000000000000000000000000000000000000000000000000006032600f6002603c61664d565b6145a3604051806060016040528060238152602001616974602391397f43440000000000000000000000000000000000000000000000000000000000006032600f6002603c61664d565b6145ed604051806060016040528060238152602001616951602391397f50440000000000000000000000000000000000000000000000000000000000006032600f6002603c61664d565b6146546040518060400160405280601f81526020017f557064617465204361706974616c204d6f64656c20506172616d6574657273008152507f50440000000000000000000000000000000000000000000000000000000000006032600f6002603c61664d565b6146bb6040518060400160405280601981526020017f557064617465204164647265737320506172616d6574657273000000000000008152507f4d530000000000000000000000000000000000000000000000000000000000006032600f6002603c61664d565b6147226040518060400160405280601781526020017f557064617465204f776e657220506172616d65746572730000000000000000008152507f4d530000000000000000000000000000000000000000000000000000000000006032600f6002600061664d565b6147896040518060400160405280601f81526020017f52656c65617365206e657720736d61727420636f6e747261637420636f6465008152507f4d530000000000000000000000000000000000000000000000000000000000006032600f6002605061664d565b6147f06040518060400160405280601b81526020017f456469742043757272656e6379204173736574204164647265737300000000008152507f50440000000000000000000000000000000000000000000000000000000000006032600f6001603c61664d565b6148576040518060400160405280601b81526020017f456469742043757272656e637920417373657420626173654d696e00000000008152507f50440000000000000000000000000000000000000000000000000000000000006032600f6002603c61664d565b6148a1604051806060016040528060298152602001616907602991397f50440000000000000000000000000000000000000000000000000000000000006032600f6002603c61664d565b6149086040518060400160405280601581526020017f54726164696e67205472696767657220436865636b00000000000000000000008152507f50440000000000000000000000000000000000000000000000000000000000006028600f6002603c61664d565b61496f6040518060400160405280601081526020017f416464206e657720636f6e7472616374000000000000000000000000000000008152507f4d53000000000000000000000000000000000000000000000000000000000000603c600f6002603c61664d565b6149d66040518060400160405280601b81526020017f546f6b656e20436f6e74726f6c6c657220506172616d657465727300000000008152507f5443000000000000000000000000000000000000000000000000000000000000603c600f6002603c61664d565b6040516024016040516020818303038152906040527f2dc4bdca000000000000000000000000000000000000000000000000000000007bffffffffffffffffffffffffffffffffffffffffffffffffffffffff19166020820180517bffffffffffffffffffffffffffffffffffffffffffffffffffffffff838183161783525050505060086000600181526020019081526020016000209080519060200190614a8092919061677f565b506040516024016040516020818303038152906040527f2f473021000000000000000000000000000000000000000000000000000000007bffffffffffffffffffffffffffffffffffffffffffffffffffffffff19166020820180517bffffffffffffffffffffffffffffffffffffffffffffffffffffffff838183161783525050505060086000600281526020019081526020016000209080519060200190614b2b92919061677f565b506040516024016040516020818303038152906040527faef81236000000000000000000000000000000000000000000000000000000007bffffffffffffffffffffffffffffffffffffffffffffffffffffffff19166020820180517bffffffffffffffffffffffffffffffffffffffffffffffffffffffff838183161783525050505060086000600381526020019081526020016000209080519060200190614bd692919061677f565b506040516024016040516020818303038152906040527fb02bc316000000000000000000000000000000000000000000000000000000007bffffffffffffffffffffffffffffffffffffffffffffffffffffffff19166020820180517bffffffffffffffffffffffffffffffffffffffffffffffffffffffff838183161783525050505060086000600481526020019081526020016000209080519060200190614c8192919061677f565b506040516024016040516020818303038152906040527f65a8c523000000000000000000000000000000000000000000000000000000007bffffffffffffffffffffffffffffffffffffffffffffffffffffffff19166020820180517bffffffffffffffffffffffffffffffffffffffffffffffffffffffff838183161783525050505060086000600581526020019081526020016000209080519060200190614d2c92919061677f565b506040516024016040516020818303038152906040527f872f1eb3000000000000000000000000000000000000000000000000000000007bffffffffffffffffffffffffffffffffffffffffffffffffffffffff19166020820180517bffffffffffffffffffffffffffffffffffffffffffffffffffffffff838183161783525050505060086000600681526020019081526020016000209080519060200190614dd792919061677f565b506040516024016040516020818303038152906040527fffa39929000000000000000000000000000000000000000000000000000000007bffffffffffffffffffffffffffffffffffffffffffffffffffffffff19166020820180517bffffffffffffffffffffffffffffffffffffffffffffffffffffffff838183161783525050505060086000600781526020019081526020016000209080519060200190614e8292919061677f565b506040516024016040516020818303038152906040527fccace7df000000000000000000000000000000000000000000000000000000007bffffffffffffffffffffffffffffffffffffffffffffffffffffffff19166020820180517bffffffffffffffffffffffffffffffffffffffffffffffffffffffff838183161783525050505060086000600881526020019081526020016000209080519060200190614f2d92919061677f565b506040516024016040516020818303038152906040527f623c2bca000000000000000000000000000000000000000000000000000000007bffffffffffffffffffffffffffffffffffffffffffffffffffffffff19166020820180517bffffffffffffffffffffffffffffffffffffffffffffffffffffffff838183161783525050505060086000600981526020019081526020016000209080519060200190614fd892919061677f565b506040516024016040516020818303038152906040527fbd03e501000000000000000000000000000000000000000000000000000000007bffffffffffffffffffffffffffffffffffffffffffffffffffffffff19166020820180517bffffffffffffffffffffffffffffffffffffffffffffffffffffffff838183161783525050505060086000600c8152602001908152602001600020908051906020019061508392919061677f565b506040516024016040516020818303038152906040527fc6318c23000000000000000000000000000000000000000000000000000000007bffffffffffffffffffffffffffffffffffffffffffffffffffffffff19166020820180517bffffffffffffffffffffffffffffffffffffffffffffffffffffffff838183161783525050505060086000600d8152602001908152602001600020908051906020019061512e92919061677f565b506040516024016040516020818303038152906040527fc85e5efd000000000000000000000000000000000000000000000000000000007bffffffffffffffffffffffffffffffffffffffffffffffffffffffff19166020820180517bffffffffffffffffffffffffffffffffffffffffffffffffffffffff838183161783525050505060086000600e815260200190815260200160002090805190602001906151d992919061677f565b506040516024016040516020818303038152906040527f42a049cd000000000000000000000000000000000000000000000000000000007bffffffffffffffffffffffffffffffffffffffffffffffffffffffff19166020820180517bffffffffffffffffffffffffffffffffffffffffffffffffffffffff838183161783525050505060086000600f8152602001908152602001600020908051906020019061528492919061677f565b506040516024016040516020818303038152906040527fc578f230000000000000000000000000000000000000000000000000000000007bffffffffffffffffffffffffffffffffffffffffffffffffffffffff19166020820180517bffffffffffffffffffffffffffffffffffffffffffffffffffffffff83818316178352505050506008600060108152602001908152602001600020908051906020019061532f92919061677f565b506040516024016040516020818303038152906040527febff71c3000000000000000000000000000000000000000000000000000000007bffffffffffffffffffffffffffffffffffffffffffffffffffffffff19166020820180517bffffffffffffffffffffffffffffffffffffffffffffffffffffffff8381831617835250505050600860006011815260200190815260200160002090805190602001906153da92919061677f565b506040516024016040516020818303038152906040527f9dd86e0f000000000000000000000000000000000000000000000000000000007bffffffffffffffffffffffffffffffffffffffffffffffffffffffff19166020820180517bffffffffffffffffffffffffffffffffffffffffffffffffffffffff83818316178352505050506008600060148152602001908152602001600020908051906020019061548592919061677f565b506040516024016040516020818303038152906040527f9dd86e0f000000000000000000000000000000000000000000000000000000007bffffffffffffffffffffffffffffffffffffffffffffffffffffffff19166020820180517bffffffffffffffffffffffffffffffffffffffffffffffffffffffff83818316178352505050506008600060158152602001908152602001600020908051906020019061553092919061677f565b506040516024016040516020818303038152906040527f9dd86e0f000000000000000000000000000000000000000000000000000000007bffffffffffffffffffffffffffffffffffffffffffffffffffffffff19166020820180517bffffffffffffffffffffffffffffffffffffffffffffffffffffffff8381831617835250505050600860006016815260200190815260200160002090805190602001906155db92919061677f565b506040516024016040516020818303038152906040527f9dd86e0f000000000000000000000000000000000000000000000000000000007bffffffffffffffffffffffffffffffffffffffffffffffffffffffff19166020820180517bffffffffffffffffffffffffffffffffffffffffffffffffffffffff83818316178352505050506008600060178152602001908152602001600020908051906020019061568692919061677f565b506040516024016040516020818303038152906040527f9dd86e0f000000000000000000000000000000000000000000000000000000007bffffffffffffffffffffffffffffffffffffffffffffffffffffffff19166020820180517bffffffffffffffffffffffffffffffffffffffffffffffffffffffff83818316178352505050506008600060188152602001908152602001600020908051906020019061573192919061677f565b506040516024016040516020818303038152906040527f9dd86e0f000000000000000000000000000000000000000000000000000000007bffffffffffffffffffffffffffffffffffffffffffffffffffffffff19166020820180517bffffffffffffffffffffffffffffffffffffffffffffffffffffffff8381831617835250505050600860006019815260200190815260200160002090805190602001906157dc92919061677f565b506040516024016040516020818303038152906040527f9dd86e0f000000000000000000000000000000000000000000000000000000007bffffffffffffffffffffffffffffffffffffffffffffffffffffffff19166020820180517bffffffffffffffffffffffffffffffffffffffffffffffffffffffff838183161783525050505060086000601a8152602001908152602001600020908051906020019061588792919061677f565b506040516024016040516020818303038152906040527fad4cc43e000000000000000000000000000000000000000000000000000000007bffffffffffffffffffffffffffffffffffffffffffffffffffffffff19166020820180517bffffffffffffffffffffffffffffffffffffffffffffffffffffffff838183161783525050505060086000601b8152602001908152602001600020908051906020019061593292919061677f565b506040516024016040516020818303038152906040527fe2cab14d000000000000000000000000000000000000000000000000000000007bffffffffffffffffffffffffffffffffffffffffffffffffffffffff19166020820180517bffffffffffffffffffffffffffffffffffffffffffffffffffffffff838183161783525050505060086000601c815260200190815260200160002090805190602001906159dd92919061677f565b506040516024016040516020818303038152906040527f92b0a156000000000000000000000000000000000000000000000000000000007bffffffffffffffffffffffffffffffffffffffffffffffffffffffff19166020820180517bffffffffffffffffffffffffffffffffffffffffffffffffffffffff838183161783525050505060086000601d81526020019081526020016000209080519060200190615a8892919061677f565b506040516024016040516020818303038152906040527feaad1b3b000000000000000000000000000000000000000000000000000000007bffffffffffffffffffffffffffffffffffffffffffffffffffffffff19166020820180517bffffffffffffffffffffffffffffffffffffffffffffffffffffffff838183161783525050505060086000601e81526020019081526020016000209080519060200190615b3392919061677f565b506040516024016040516020818303038152906040527f496b4886000000000000000000000000000000000000000000000000000000007bffffffffffffffffffffffffffffffffffffffffffffffffffffffff19166020820180517bffffffffffffffffffffffffffffffffffffffffffffffffffffffff838183161783525050505060086000601f81526020019081526020016000209080519060200190615bde92919061677f565b506040516024016040516020818303038152906040527fa5263aa2000000000000000000000000000000000000000000000000000000007bffffffffffffffffffffffffffffffffffffffffffffffffffffffff19166020820180517bffffffffffffffffffffffffffffffffffffffffffffffffffffffff838183161783525050505060086000602081526020019081526020016000209080519060200190615c8992919061677f565b506040516024016040516020818303038152906040527ff720036c000000000000000000000000000000000000000000000000000000007bffffffffffffffffffffffffffffffffffffffffffffffffffffffff19166020820180517bffffffffffffffffffffffffffffffffffffffffffffffffffffffff838183161783525050505060086000602181526020019081526020016000209080519060200190615d3492919061677f565b506040516024016040516020818303038152906040527f2c721353000000000000000000000000000000000000000000000000000000007bffffffffffffffffffffffffffffffffffffffffffffffffffffffff19166020820180517bffffffffffffffffffffffffffffffffffffffffffffffffffffffff838183161783525050505060086000602281526020019081526020016000209080519060200190615ddf92919061677f565b506040516024016040516020818303038152906040527f9dd86e0f000000000000000000000000000000000000000000000000000000007bffffffffffffffffffffffffffffffffffffffffffffffffffffffff19166020820180517bffffffffffffffffffffffffffffffffffffffffffffffffffffffff838183161783525050505060086000602381526020019081526020016000209080519060200190615e8a92919061677f565b5050565b565b6000809054906101000a900473ffffffffffffffffffffffffffffffffffffffff1681565b600073ffffffffffffffffffffffffffffffffffffffff166000809054906101000a900473ffffffffffffffffffffffffffffffffffffffff1673ffffffffffffffffffffffffffffffffffffffff1614615f64573373ffffffffffffffffffffffffffffffffffffffff166000809054906101000a900473ffffffffffffffffffffffffffffffffffffffff1673ffffffffffffffffffffffffffffffffffffffff1614615f6357600080fd5b5b806000806101000a81548173ffffffffffffffffffffffffffffffffffffffff021916908373ffffffffffffffffffffffffffffffffffffffff16021790555080600160006101000a81548173ffffffffffffffffffffffffffffffffffffffff021916908373ffffffffffffffffffffffffffffffffffffffff16021790555080600260006101000a81548173ffffffffffffffffffffffffffffffffffffffff021916908373ffffffffffffffffffffffffffffffffffffffff16021790555050565b6000806000806060856005600088815260200190815260200160002060010160009054906101000a900473ffffffffffffffffffffffffffffffffffffffff166005600089815260200190815260200160002060010160149054906101000a900460f01b600560008a815260200190815260200160002060000154600860008b8152602001908152602001600020808054600181600116156101000203166002900480601f01602080910402602001604051908101604052809291908181526020018280546001816001161561010002031660029004801561614c5780601f106161215761010080835404028352916020019161614c565b820191906000526020600020905b81548152906001019060200180831161612f57829003601f168201915b505050505090509450945094509450945091939590929450565b5050505050505050505050505050565b600260009054906101000a900473ffffffffffffffffffffffffffffffffffffffff1681565b60016161a88a88616546565b1461621b576040517f08c379a000000000000000000000000000000000000000000000000000000000815260040180806020018281038252600c8152602001807f496e76616c696420526f6c65000000000000000000000000000000000000000081525060200191505060405180910390fd5b60046040518060c001604052808b81526020018a81526020018981526020018881526020018781526020018360008151811061625357fe5b60200260200101518152509080600181540180825580915050906001820390600052602060002090600602016000909192909190915060008201518160000155602082015181600101556040820151816002015560608201518160030190805190602001906162c3929190616894565b506080820151816004015560a082015181600501555050506000600160048054905003905060405180606001604052808360018151811061630057fe5b602002602001015181526020018573ffffffffffffffffffffffffffffffffffffffff168152602001847dffffffffffffffffffffffffffffffffffffffffffffffffffffffffffff1916815250600560008381526020019081526020016000206000820151816000015560208201518160010160006101000a81548173ffffffffffffffffffffffffffffffffffffffff021916908373ffffffffffffffffffffffffffffffffffffffff16021790555060408201518160010160146101000a81548161ffff021916908360f01c0217905550905050816002815181106163e457fe5b602002602001015160066000838152602001908152602001600020819055508160038151811061641057fe5b60200260200101516007600083815260200190815260200160002081905550807f2a65d0fe76508fb4e604d4804927dce75b70f82e64a2025e3bffb2fc003418508c87604051808060200180602001838103835285818151815260200191508051906020019080838360005b8381101561649757808201518184015260208101905061647c565b50505050905090810190601f1680156164c45780820380516001836020036101000a031916815260200191505b50838103825284818151815260200191508051906020019080838360005b838110156164fd5780820151818401526020810190506164e2565b50505050905090810190601f16801561652a5780820380516001836020036101000a031916815260200191505b5094505050505060405180910390a25050505050505050505050565b600080600360009054906101000a900473ffffffffffffffffffffffffffffffffffffffff1673ffffffffffffffffffffffffffffffffffffffff1663790e118c6040518163ffffffff1660e01b815260040160206040518083038186803b1580156165b157600080fd5b505afa1580156165c5573d6000803e3d6000fd5b505050506040513d60208110156165db57600080fd5b810190808051906020019092919050505090508084106165ff576000915050616647565b60008090505b8351811015616640578184828151811061661b57fe5b60200260200101511061663357600092505050616647565b8080600101915050616605565b5060019150505b92915050565b6060600160405190808252806020026020018201604052801561667f5781602001602082028038833980820191505090505b509050606060046040519080825280602002602001820160405280156166b45781602001602082028038833980820191505090505b5090506002826000815181106166c657fe5b6020026020010181815250506000816000815181106166e157fe5b6020026020010181815250506000816001815181106166fc57fe5b602002602001018181525050828160028151811061671657fe5b60200260200101818152505060008514616731576000616734565b60015b60ff168160038151811061674457fe5b602002602001018181525050616775888588888662093a806040518060200160405280600081525060008f8a61619c565b5050505050505050565b828054600181600116156101000203166002900490600052602060002090601f016020900481019282601f106167c057805160ff19168380011785556167ee565b828001600101855582156167ee579182015b828111156167ed5782518255916020019190600101906167d2565b5b5090506167fb91906168e1565b5090565b50805460018160011615610100020316600290046000825580601f106168255750616844565b601f01602090049060005260206000209081019061684391906168e1565b5b50565b828054828255906000526020600020908101928215616883579160200282015b82811115616882578251825591602001919060010190616867565b5b50905061689091906168e1565b5090565b8280548282559060005260206000209081019282156168d0579160200282015b828111156168cf5782518255916020019190600101906168b4565b5b5090506168dd91906168e1565b5090565b61690391905b808211156168ff5760008160009055506001016168e7565b5090565b9056fe4564697420496e766573746d656e74204173736574204164647265737320616e6420646563696d616c557064617465205269736b204173736573736d656e7420506172616d657465727355706461746520496e766573746d656e74204d6f64756c6520506172616d657465727355706461746520436c61696d73204173736573736d656e7420506172616d6574657273457874656e64206f7220537769746368204f666620456d657267656e63792050617573654564697420496e766573746d656e74204173736574206d696e20616e64206d617820686f6c64696e672070657263656e746167657343617465676f727920616374696f6e2068617368657320616c7265616479207570646174656455706772616465206120636f6e747261637420496d706c656d656e746174696f6e57697468647261772066756e647320746f2050617920666f7220537570706f7274205365727669636573506175736520436c61696d204173736573736f7220566f74696e6720666f7220332064617973a265627a7a72315820312e87ecea96fee507729b5c457b5e29fc5be741134bd412a8b3645660d508ce64736f6c63430005110032",
  "linkReferences": {},
  "deployedLinkReferences": {}
}