{
  "_format": "hh-sol-artifact-1",
  "contractName": "DisposableProposalCategory",
  "sourceName": "contracts/NexusMutual/mocks/DisposableProposalCategory.sol",
  "abi": [
    {
      "anonymous": false,
      "inputs": [
        {
          "indexed": true,
          "internalType": "uint256",
          "name": "categoryId",
          "type": "uint256"
        },
        {
          "indexed": false,
          "internalType": "string",
          "name": "categoryName",
          "type": "string"
        },
        {
          "indexed": false,
          "internalType": "string",
          "name": "actionHash",
          "type": "string"
        }
      ],
      "name": "Category",
      "type": "event"
    },
    {
      "constant": false,
      "inputs": [
        {
          "internalType": "string",
          "name": "_name",
          "type": "string"
        },
        {
          "internalType": "uint256",
          "name": "_memberRoleToVote",
          "type": "uint256"
        },
        {
          "internalType": "uint256",
          "name": "_majorityVotePerc",
          "type": "uint256"
        },
        {
          "internalType": "uint256",
          "name": "_quorumPerc",
          "type": "uint256"
        },
        {
          "internalType": "uint256[]",
          "name": "_allowedToCreateProposal",
          "type": "uint256[]"
        },
        {
          "internalType": "uint256",
          "name": "_closingTime",
          "type": "uint256"
        },
        {
          "internalType": "string",
          "name": "_actionHash",
          "type": "string"
        },
        {
          "internalType": "address",
          "name": "_contractAddress",
          "type": "address"
        },
        {
          "internalType": "bytes2",
          "name": "_contractName",
          "type": "bytes2"
        },
        {
          "internalType": "uint256[]",
          "name": "_incentives",
          "type": "uint256[]"
        }
      ],
      "name": "addCategory",
      "outputs": [],
      "payable": false,
      "stateMutability": "nonpayable",
      "type": "function"
    },
    {
      "constant": true,
      "inputs": [
        {
          "internalType": "uint256",
          "name": "_categoryId",
          "type": "uint256"
        }
      ],
      "name": "category",
      "outputs": [
        {
          "internalType": "uint256",
          "name": "",
          "type": "uint256"
        },
        {
          "internalType": "uint256",
          "name": "",
          "type": "uint256"
        },
        {
          "internalType": "uint256",
          "name": "",
          "type": "uint256"
        },
        {
          "internalType": "uint256",
          "name": "",
          "type": "uint256"
        },
        {
          "internalType": "uint256[]",
          "name": "",
          "type": "uint256[]"
        },
        {
          "internalType": "uint256",
          "name": "",
          "type": "uint256"
        },
        {
          "internalType": "uint256",
          "name": "",
          "type": "uint256"
        }
      ],
      "payable": false,
      "stateMutability": "view",
      "type": "function"
    },
    {
      "constant": true,
      "inputs": [
        {
          "internalType": "uint256",
          "name": "",
          "type": "uint256"
        }
      ],
      "name": "categoryABReq",
      "outputs": [
        {
          "internalType": "uint256",
          "name": "",
          "type": "uint256"
        }
      ],
      "payable": false,
      "stateMutability": "view",
      "type": "function"
    },
    {
      "constant": true,
      "inputs": [
        {
          "internalType": "uint256",
          "name": "_categoryId",
          "type": "uint256"
        }
      ],
      "name": "categoryAction",
      "outputs": [
        {
          "internalType": "uint256",
          "name": "",
          "type": "uint256"
        },
        {
          "internalType": "address",
          "name": "",
          "type": "address"
        },
        {
          "internalType": "bytes2",
          "name": "",
          "type": "bytes2"
        },
        {
          "internalType": "uint256",
          "name": "",
          "type": "uint256"
        }
      ],
      "payable": false,
      "stateMutability": "view",
      "type": "function"
    },
    {
      "constant": true,
      "inputs": [
        {
          "internalType": "uint256",
          "name": "_categoryId",
          "type": "uint256"
        }
      ],
      "name": "categoryActionDetails",
      "outputs": [
        {
          "internalType": "uint256",
          "name": "",
          "type": "uint256"
        },
        {
          "internalType": "address",
          "name": "",
          "type": "address"
        },
        {
          "internalType": "bytes2",
          "name": "",
          "type": "bytes2"
        },
        {
          "internalType": "uint256",
          "name": "",
          "type": "uint256"
        },
        {
          "internalType": "bytes",
          "name": "",
          "type": "bytes"
        }
      ],
      "payable": false,
      "stateMutability": "view",
      "type": "function"
    },
    {
      "constant": true,
      "inputs": [],
      "name": "categoryActionHashUpdated",
      "outputs": [
        {
          "internalType": "bool",
          "name": "",
          "type": "bool"
        }
      ],
      "payable": false,
      "stateMutability": "view",
      "type": "function"
    },
    {
      "constant": true,
      "inputs": [
        {
          "internalType": "uint256",
          "name": "",
          "type": "uint256"
        }
      ],
      "name": "categoryActionHashes",
      "outputs": [
        {
          "internalType": "bytes",
          "name": "",
          "type": "bytes"
        }
      ],
      "payable": false,
      "stateMutability": "view",
      "type": "function"
    },
    {
      "constant": true,
      "inputs": [
        {
          "internalType": "uint256",
          "name": "_categoryId",
          "type": "uint256"
        }
      ],
      "name": "categoryExtendedData",
      "outputs": [
        {
          "internalType": "uint256",
          "name": "",
          "type": "uint256"
        },
        {
          "internalType": "uint256",
          "name": "",
          "type": "uint256"
        },
        {
          "internalType": "uint256",
          "name": "",
          "type": "uint256"
        }
      ],
      "payable": false,
      "stateMutability": "view",
      "type": "function"
    },
    {
      "constant": false,
      "inputs": [],
      "name": "changeDependentContractAddress",
      "outputs": [],
      "payable": false,
      "stateMutability": "nonpayable",
      "type": "function"
    },
    {
      "constant": false,
      "inputs": [
        {
          "internalType": "address",
          "name": "_masterAddress",
          "type": "address"
        }
      ],
      "name": "changeMasterAddress",
      "outputs": [],
      "payable": false,
      "stateMutability": "nonpayable",
      "type": "function"
    },
    {
      "constant": true,
      "inputs": [],
      "name": "constructorCheck",
      "outputs": [
        {
          "internalType": "bool",
          "name": "",
          "type": "bool"
        }
      ],
      "payable": false,
      "stateMutability": "view",
      "type": "function"
    },
    {
      "constant": false,
      "inputs": [
        {
          "internalType": "uint256",
          "name": "_categoryId",
          "type": "uint256"
        },
        {
          "internalType": "string",
          "name": "_name",
          "type": "string"
        },
        {
          "internalType": "uint256",
          "name": "_memberRoleToVote",
          "type": "uint256"
        },
        {
          "internalType": "uint256",
          "name": "_majorityVotePerc",
          "type": "uint256"
        },
        {
          "internalType": "uint256",
          "name": "_quorumPerc",
          "type": "uint256"
        },
        {
          "internalType": "uint256[]",
          "name": "_allowedToCreateProposal",
          "type": "uint256[]"
        },
        {
          "internalType": "uint256",
          "name": "_closingTime",
          "type": "uint256"
        },
        {
          "internalType": "string",
          "name": "_actionHash",
          "type": "string"
        },
        {
          "internalType": "address",
          "name": "_contractAddress",
          "type": "address"
        },
        {
          "internalType": "bytes2",
          "name": "_contractName",
          "type": "bytes2"
        },
        {
          "internalType": "uint256[]",
          "name": "_incentives",
          "type": "uint256[]"
        },
        {
          "internalType": "string",
          "name": "_functionHash",
          "type": "string"
        }
      ],
      "name": "editCategory",
      "outputs": [],
      "payable": false,
      "stateMutability": "nonpayable",
      "type": "function"
    },
    {
      "constant": false,
      "inputs": [
        {
          "internalType": "address",
          "name": "_memberRolesAddress",
          "type": "address"
        }
      ],
      "name": "initialize",
      "outputs": [],
      "payable": false,
      "stateMutability": "nonpayable",
      "type": "function"
    },
    {
      "constant": true,
      "inputs": [
        {
          "internalType": "address",
          "name": "_toCheck",
          "type": "address"
        }
      ],
      "name": "isAuthorizedToGovern",
      "outputs": [
        {
          "internalType": "bool",
          "name": "",
          "type": "bool"
        }
      ],
      "payable": false,
      "stateMutability": "view",
      "type": "function"
    },
    {
      "constant": true,
      "inputs": [
        {
          "internalType": "uint256",
          "name": "",
          "type": "uint256"
        }
      ],
      "name": "isSpecialResolution",
      "outputs": [
        {
          "internalType": "uint256",
          "name": "",
          "type": "uint256"
        }
      ],
      "payable": false,
      "stateMutability": "view",
      "type": "function"
    },
    {
      "constant": true,
      "inputs": [],
      "name": "masterAddress",
      "outputs": [
        {
          "internalType": "address",
          "name": "",
          "type": "address"
        }
      ],
      "payable": false,
      "stateMutability": "view",
      "type": "function"
    },
    {
      "constant": true,
      "inputs": [],
      "name": "ms",
      "outputs": [
        {
          "internalType": "contract INXMMaster",
          "name": "",
          "type": "address"
        }
      ],
      "payable": false,
      "stateMutability": "view",
      "type": "function"
    },
    {
      "constant": false,
      "inputs": [
        {
          "internalType": "string",
          "name": "_name",
          "type": "string"
        },
        {
          "internalType": "uint256",
          "name": "_memberRoleToVote",
          "type": "uint256"
        },
        {
          "internalType": "uint256",
          "name": "_majorityVotePerc",
          "type": "uint256"
        },
        {
          "internalType": "uint256",
          "name": "_quorumPerc",
          "type": "uint256"
        },
        {
          "internalType": "uint256[]",
          "name": "_allowedToCreateProposal",
          "type": "uint256[]"
        },
        {
          "internalType": "uint256",
          "name": "_closingTime",
          "type": "uint256"
        },
        {
          "internalType": "string",
          "name": "_actionHash",
          "type": "string"
        },
        {
          "internalType": "address",
          "name": "_contractAddress",
          "type": "address"
        },
        {
          "internalType": "bytes2",
          "name": "_contractName",
          "type": "bytes2"
        },
        {
          "internalType": "uint256[]",
          "name": "_incentives",
          "type": "uint256[]"
        },
        {
          "internalType": "string",
          "name": "_functionHash",
          "type": "string"
        }
      ],
      "name": "newCategory",
      "outputs": [],
      "payable": false,
      "stateMutability": "nonpayable",
      "type": "function"
    },
    {
      "constant": true,
      "inputs": [],
      "name": "nxMasterAddress",
      "outputs": [
        {
          "internalType": "address",
          "name": "",
          "type": "address"
        }
      ],
      "payable": false,
      "stateMutability": "view",
      "type": "function"
    },
    {
      "constant": false,
      "inputs": [],
      "name": "proposalCategoryInitiate",
      "outputs": [],
      "payable": false,
      "stateMutability": "nonpayable",
      "type": "function"
    },
    {
      "constant": true,
      "inputs": [],
      "name": "totalCategories",
      "outputs": [
        {
          "internalType": "uint256",
          "name": "",
          "type": "uint256"
        }
      ],
      "payable": false,
      "stateMutability": "view",
      "type": "function"
    },
    {
      "constant": false,
      "inputs": [
        {
          "internalType": "uint256",
          "name": "_categoryId",
          "type": "uint256"
        },
        {
          "internalType": "string",
          "name": "_name",
          "type": "string"
        },
        {
          "internalType": "uint256",
          "name": "_memberRoleToVote",
          "type": "uint256"
        },
        {
          "internalType": "uint256",
          "name": "_majorityVotePerc",
          "type": "uint256"
        },
        {
          "internalType": "uint256",
          "name": "_quorumPerc",
          "type": "uint256"
        },
        {
          "internalType": "uint256[]",
          "name": "_allowedToCreateProposal",
          "type": "uint256[]"
        },
        {
          "internalType": "uint256",
          "name": "_closingTime",
          "type": "uint256"
        },
        {
          "internalType": "string",
          "name": "_actionHash",
          "type": "string"
        },
        {
          "internalType": "address",
          "name": "_contractAddress",
          "type": "address"
        },
        {
          "internalType": "bytes2",
          "name": "_contractName",
          "type": "bytes2"
        },
        {
          "internalType": "uint256[]",
          "name": "_incentives",
          "type": "uint256[]"
        }
      ],
      "name": "updateCategory",
      "outputs": [],
      "payable": false,
      "stateMutability": "nonpayable",
      "type": "function"
    },
    {
      "constant": false,
      "inputs": [],
      "name": "updateCategoryActionHashes",
      "outputs": [],
      "payable": false,
      "stateMutability": "nonpayable",
      "type": "function"
    }
  ],
  "bytecode": "0x608060405234801561001057600080fd5b506146e9806100206000396000f3fe608060405234801561001057600080fd5b506004361061014d5760003560e01c806386957731116100c3578063cf3acfbc1161007c578063cf3acfbc14610c55578063d365a08e14610c5d578063d46655f414610c65578063d4aaafb414610c8b578063da3f7bd114610d62578063f17a3bec14610ef65761014d565b806386957731146103a157806395566ebd146103be578063a0b2d57f1461062c578063aef8123614610650578063b02bc3161461093c578063c4d66de814610c2f5761014d565b8063525050e111610115578063525050e11461028657806354911e121461028e57806357c7bec114610296578063674aa712146103285780636debdabf1461037c57806378005297146103845761014d565b806307149ba3146101525780630ea9c9841461018d57806322ce725414610197578063253eca1f146101d157806339275b0a1461026c575b600080fd5b61016f6004803603602081101561016857600080fd5b5035610efe565b60408051938452602084019290925282820152519081900360600190f35b610195610f20565b005b6101bd600480360360208110156101ad57600080fd5b50356001600160a01b0316610fbc565b604080519115158252519081900360200190f35b6101ee600480360360208110156101e757600080fd5b503561104e565b6040518088815260200187815260200186815260200185815260200180602001848152602001838152602001828103825285818151815260200191508051906020019060200280838360005b8381101561025257818101518382015260200161023a565b505050509050019850505050505050505060405180910390f35b61027461117e565b60408051918252519081900360200190f35b6101bd611185565b6101bd611195565b6102b3600480360360208110156102ac57600080fd5b503561119e565b6040805160208082528351818301528351919283929083019185019080838360005b838110156102ed5781810151838201526020016102d5565b50505050905090810190601f16801561031a5780820380516001836020036101000a031916815260200191505b509250505060405180910390f35b6103456004803603602081101561033e57600080fd5b5035611239565b604080519485526001600160a01b0390931660208501526001600160f01b0319909116838301526060830152519081900360800190f35b61019561126a565b6102746004803603602081101561039a57600080fd5b5035611e5a565b610274600480360360208110156103b757600080fd5b5035611e6c565b61019560048036036101608110156103d557600080fd5b81359190810190604081016020820135600160201b8111156103f657600080fd5b82018360208201111561040857600080fd5b803590602001918460018302840111600160201b8311171561042957600080fd5b91908080601f0160208091040260200160405190810160405280939291908181526020018383808284376000920191909152509295843595602086013595604081013595509193509150608081019060600135600160201b81111561048d57600080fd5b82018360208201111561049f57600080fd5b803590602001918460208302840111600160201b831117156104c057600080fd5b91908080602002602001604051908101604052809392919081815260200183836020028082843760009201919091525092958435959094909350604081019250602001359050600160201b81111561051757600080fd5b82018360208201111561052957600080fd5b803590602001918460018302840111600160201b8311171561054a57600080fd5b91908080601f01602080910402602001604051908101604052809392919081815260200183838082843760009201919091525092956001600160a01b03853516956001600160f01b031960208701351695919450925060608101915060400135600160201b8111156105bb57600080fd5b8201836020820111156105cd57600080fd5b803590602001918460208302840111600160201b831117156105ee57600080fd5b919080806020026020016040519081016040528093929190818152602001838360200280828437600092019190915250929550611e7e945050505050565b610634611e8b565b604080516001600160a01b039092168252519081900360200190f35b610195600480360361016081101561066757600080fd5b810190602081018135600160201b81111561068157600080fd5b82018360208201111561069357600080fd5b803590602001918460018302840111600160201b831117156106b457600080fd5b91908080601f0160208091040260200160405190810160405280939291908181526020018383808284376000920191909152509295843595602086013595604081013595509193509150608081019060600135600160201b81111561071857600080fd5b82018360208201111561072a57600080fd5b803590602001918460208302840111600160201b8311171561074b57600080fd5b91908080602002602001604051908101604052809392919081815260200183836020028082843760009201919091525092958435959094909350604081019250602001359050600160201b8111156107a257600080fd5b8201836020820111156107b457600080fd5b803590602001918460018302840111600160201b831117156107d557600080fd5b91908080601f01602080910402602001604051908101604052809392919081815260200183838082843760009201919091525092956001600160a01b03853516956001600160f01b031960208701351695919450925060608101915060400135600160201b81111561084657600080fd5b82018360208201111561085857600080fd5b803590602001918460208302840111600160201b8311171561087957600080fd5b9190808060200260200160405190810160405280939291908181526020018383602002808284376000920191909152509295949360208101935035915050600160201b8111156108c857600080fd5b8201836020820111156108da57600080fd5b803590602001918460018302840111600160201b831117156108fb57600080fd5b91908080601f016020809104026020016040519081016040528093929190818152602001838380828437600092019190915250929550611e9a945050505050565b610195600480360361018081101561095357600080fd5b81359190810190604081016020820135600160201b81111561097457600080fd5b82018360208201111561098657600080fd5b803590602001918460018302840111600160201b831117156109a757600080fd5b91908080601f0160208091040260200160405190810160405280939291908181526020018383808284376000920191909152509295843595602086013595604081013595509193509150608081019060600135600160201b811115610a0b57600080fd5b820183602082011115610a1d57600080fd5b803590602001918460208302840111600160201b83111715610a3e57600080fd5b91908080602002602001604051908101604052809392919081815260200183836020028082843760009201919091525092958435959094909350604081019250602001359050600160201b811115610a9557600080fd5b820183602082011115610aa757600080fd5b803590602001918460018302840111600160201b83111715610ac857600080fd5b91908080601f01602080910402602001604051908101604052809392919081815260200183838082843760009201919091525092956001600160a01b03853516956001600160f01b031960208701351695919450925060608101915060400135600160201b811115610b3957600080fd5b820183602082011115610b4b57600080fd5b803590602001918460208302840111600160201b83111715610b6c57600080fd5b9190808060200260200160405190810160405280939291908181526020018383602002808284376000920191909152509295949360208101935035915050600160201b811115610bbb57600080fd5b820183602082011115610bcd57600080fd5b803590602001918460018302840111600160201b83111715610bee57600080fd5b91908080601f016020809104026020016040519081016040528093929190818152602001838380828437600092019190915250929550612209945050505050565b61019560048036036020811015610c4557600080fd5b50356001600160a01b031661287e565b610195613dd2565b610634613dd4565b61019560048036036020811015610c7b57600080fd5b50356001600160a01b0316613de3565b610ca860048036036020811015610ca157600080fd5b5035613e41565b60405180868152602001856001600160a01b03166001600160a01b03168152602001846001600160f01b0319166001600160f01b031916815260200183815260200180602001828103825283818151815260200191508051906020019080838360005b83811015610d23578181015183820152602001610d0b565b50505050905090810190601f168015610d505780820380516001836020036101000a031916815260200191505b50965050505050505060405180910390f35b6101956004803603610140811015610d7957600080fd5b810190602081018135600160201b811115610d9357600080fd5b820183602082011115610da557600080fd5b803590602001918460018302840111600160201b83111715610dc657600080fd5b919390928235926020810135926040820135929091608081019060600135600160201b811115610df557600080fd5b820183602082011115610e0757600080fd5b803590602001918460208302840111600160201b83111715610e2857600080fd5b91939092823592604081019060200135600160201b811115610e4957600080fd5b820183602082011115610e5b57600080fd5b803590602001918460018302840111600160201b83111715610e7c57600080fd5b919390926001600160a01b03833516926001600160f01b0319602082013516929190606081019060400135600160201b811115610eb857600080fd5b820183602082011115610eca57600080fd5b803590602001918460208302840111600160201b83111715610eeb57600080fd5b509092509050613f21565b610634613f31565b6000818152600660209081526040808320546007909252909120549192909190565b600154604080516227050b60e31b81526126a960f11b600482015290516001600160a01b0390921691630138285891602480820192602092909190829003018186803b158015610f6f57600080fd5b505afa158015610f83573d6000803e3d6000fd5b505050506040513d6020811015610f9957600080fd5b5051600380546001600160a01b0319166001600160a01b03909216919091179055565b60008054604080516227050b60e31b81526123ab60f11b600482015290516001600160a01b03928316928516918391630138285891602480820192602092909190829003018186803b15801561101157600080fd5b505afa158015611025573d6000803e3d6000fd5b505050506040513d602081101561103b57600080fd5b50516001600160a01b0316149392505050565b6000806000806060600080876004898154811061106757fe5b90600052602060002090600602016000015460048a8154811061108657fe5b90600052602060002090600602016001015460048b815481106110a557fe5b90600052602060002090600602016002015460048c815481106110c457fe5b906000526020600020906006020160030160048d815481106110e257fe5b90600052602060002090600602016004015460048e8154811061110157fe5b9060005260206000209060060201600501548280548060200260200160405190810160405280929190818152602001828054801561115e57602002820191906000526020600020905b81548152602001906001019080831161114a575b505050505092509650965096509650965096509650919395979092949650565b6004545b90565b600254600160a01b900460ff1681565b60095460ff1681565b60086020908152600091825260409182902080548351601f6002600019610100600186161502019093169290920491820184900484028101840190945280845290918301828280156112315780601f1061120657610100808354040283529160200191611231565b820191906000526020600020905b81548152906001019060200180831161121457829003601f168201915b505050505081565b60008181526005602052604090206001810154905491926001600160a01b03821692600160a01b90920460f01b9190565b600154604080516317aa5fb760e11b815233600482015290516001600160a01b0390921691632f54bf6e91602480820192602092909190829003018186803b1580156112b557600080fd5b505afa1580156112c9573d6000803e3d6000fd5b505050506040513d60208110156112df57600080fd5b50516112ea57600080fd5b60095460ff161561132c5760405162461bcd60e51b815260040180806020018281038252602681526020018061461e6026913960400191505060405180910390fd5b6009805460ff19166001908117909155604080516004815260248101909152602080820180516001600160e01b03166316e25ee560e11b178152600093909352600890525161139c917fad67d757c34507f157cacfa2e3153e9f260a2244f30428821be7be64587ac55f9161441e565b50604080516004815260248101909152602080820180516001600160e01b0316632f47302160e01b1781526002600052600890915290516113fe917f6add646517a5b0f6793cd5891b7937d28a5b2981a5d88ebc7cd776088fea90419161441e565b50604080516004815260248101909152602080820180516001600160e01b031663577c091b60e11b178152600360005260089091529051611460917f625b35f5e76f098dd7c3a05b10e2e5e78a4a01228d60c3b143426cdf36d264559161441e565b5060408051600480825260248201909252602080820180516001600160e01b0316635815e18b60e11b17815260009390935260089052516114c2917f9321edea6e3be4df59a344b401fab4f888b556fda1f954244cff9204bad624b89161441e565b50604080516004815260248101909152602080820180516001600160e01b03166365a8c52360e01b178152600560005260089091529051611524917f91238f30f286c9a1c6e901c4eda3b214c381c846e3dbe48df95c21488e8e1fdb9161441e565b50604080516004815260248101909152602080820180516001600160e01b031663872f1eb360e01b178152600660005260089091529051611586917f13acf3fc7bed94759963f076d5d3443d88732026bffc8253bdf4a6e65f21ecc59161441e565b50604080516004815260248101909152602080820180516001600160e01b03166001625c66d760e01b03191781526007600052600890915290516115eb917f24cd397636bedc6cf9b490d0edd57c769c19b367fb7d5c2344ae1ddc7d21c1449161441e565b50604080516004815260248101909152602080820180516001600160e01b031663ccace7df60e01b17815260086000819052909152905161164d917fe4c2e8be66af8dd2d277000f4f830a10546f8b14e45cd850b875c98ba0f0d2cd9161441e565b50604080516004815260248101909152602080820180516001600160e01b031663311e15e560e11b1781526009600052600890915290516116af917f82c9e868e45873bb5a4f47c09e14a12f6a6314e13aabd611e4374762bb4e8b369161441e565b50604080516004815260248101909152602080820180516001600160e01b031663bd03e50160e01b178152600c60005260089091529051611711917faba08fc86a199da17c4b45fa0fb586714474d27e5e1f0220658b6275561b2e189161441e565b50604080516004815260248101909152602080820180516001600160e01b031663c6318c2360e01b178152600d60005260089091529051611773917f9006e1a1959cda25aa0dba7b7a958efb843c4c8cb81a2c2fb8637a074e0818f29161441e565b50604080516004815260248101909152602080820180516001600160e01b031663c85e5efd60e01b178152600e600052600890915290516117d5917fb6457486547dfd0925a66a479476c3a3e54935ea6192a908abe6bd58ec247b419161441e565b50604080516004815260248101909152602080820180516001600160e01b03166342a049cd60e01b178152600f60005260089091529051611837917f8fab3b3b6d3bf24f9b00213fe8dda2fb1e188fcd88f523fcb711ff1f6aed59e39161441e565b50604080516004815260248101909152602080820180516001600160e01b0316630c578f2360e41b178152601060005260089091529051611899917fdf6cae10d416b4d6f459eba806bebc4b85f190dfac647ab7cb4cd2638815444c9161441e565b50604080516004815260248101909152602080820180516001600160e01b031663ebff71c360e01b1781526011600052600890915290516118fb917fbb47c685b7a6169f9415fd073108f8b7da3e741b7dde8513850bca404684fa979161441e565b50604080516004815260248101909152602080820180516001600160e01b0316639dd86e0f60e01b17815260146000526008909152905161195d917fbb1110247bce6eaaf3cb168d5660645ab99866afefe1e7c6fa4388014157e5ba9161441e565b50604080516004815260248101909152602080820180516001600160e01b0316639dd86e0f60e01b1781526015600052600890915290516119bf917fb29f796e1978e2043677a1f0396c8f9106e30db6bae4734a9de4f7fffa6f3fb89161441e565b50604080516004815260248101909152602080820180516001600160e01b0316639dd86e0f60e01b178152601660005260089091529051611a21917fe34c1268cf989e507da6d357c2274f08fc653db420491bb916dfda9e5c93bd559161441e565b50604080516004815260248101909152602080820180516001600160e01b0316639dd86e0f60e01b178152601760005260089091529051611a83917f69dd648f27f59b1ee254e03cc0e7f3101ebd5768b9ab5a13693b554f528fc0c59161441e565b50604080516004815260248101909152602080820180516001600160e01b0316639dd86e0f60e01b178152601860005260089091529051611ae5917f83ba890607818823e46eb1e5ed8f7282277ac60de8c863727688b48d92a8da6d9161441e565b50604080516004815260248101909152602080820180516001600160e01b0316639dd86e0f60e01b178152601960005260089091529051611b47917f18fd5681ae57cb24534810e7d412d5f5690a9c6f8b4cd1522e2df7c22ae088869161441e565b50604080516004815260248101909152602080820180516001600160e01b0316639dd86e0f60e01b178152601a60005260089091529051611ba9917fb3f2dad8dfd667db2559ced4f80a5b7ba4238a3f650ecbeac793568105f8aa499161441e565b50604080516004815260248101909152602080820180516001600160e01b03166356a6621f60e11b178152601b60005260089091529051611c0b917fa7061849acf4dd50ca004db0f3783d22ac4c1e6e6ac4087d7aeaa0345df7c87b9161441e565b50604080516004815260248101909152602080820180516001600160e01b031663e2cab14d60e01b178152601c60005260089091529051611c6d917faec422c4c208375fe057bc4dcd2923fcfe7cde0b12bdd0474d1da225c34309b99161441e565b50604080516004815260248101909152602080820180516001600160e01b031663495850ab60e11b178152601d60005260089091529051611ccf917f103255ffe274dc2acf72b5305eaa32de1b2a3ce1e49af62b6d4c6ca9993c9e169161441e565b50604080516004815260248101909152602080820180516001600160e01b031663eaad1b3b60e01b178152601e60005260089091529051611d31917f8ff154b69b3b40c11effaf182586e40eb0e8eab5c2d51945cbe34b1b0bcf6e289161441e565b50604080516004815260248101909152602080820180516001600160e01b03166324b5a44360e11b178152601f60005260089091529051611d93917f3d4691043262bb71b358bddc6f01f8c4de71fc1f1a1b51e3a78463b85cab661e9161441e565b50604080516004815260248101909152602080820180516001600160e01b03166352931d5160e11b178152600082905260089091529051611df5917f67c7b623d08894662a80b2d62b2359114b69172cd083a38f4bea1a9a8dcc7eb89161441e565b50604080516004815260248101909152602080820180516001600160e01b0316633dc800db60e21b178152602160005260089091529051611e57917f1e00437c059ded11d56fbc0f9acb2b99126636f749097c5c8224b228fcea6fe19161441e565b50565b60066020526000908152604090205481565b60076020526000908152604090205481565b5050505050505050505050565b6001546001600160a01b031681565b600054604080516227050b60e31b81526123ab60f11b600482015290516001600160a01b039092169133918391630138285891602480820192602092909190829003018186803b158015611eed57600080fd5b505afa158015611f01573d6000803e3d6000fd5b505050506040513d6020811015611f1757600080fd5b50516001600160a01b031614611f65576040805162461bcd60e51b815260206004820152600e60248201526d139bdd08185d5d1a1bdc9a5e995960921b604482015290519081900360640190fd5b60648911158015611f77575060648a11155b611fbd576040805162461bcd60e51b8152602060048201526012602482015271496e76616c69642070657263656e7461676560701b604482015290519081900360640190fd5b6108ab60f31b6001600160f01b03198516148015611fe257506001600160a01b038516155b80611fee575060008251115b611ff757600080fd5b60018360038151811061200657fe5b60200260200101511115612061576040805162461bcd60e51b815260206004820152601f60248201527f496e76616c6964207370656369616c207265736f6c7574696f6e20666c616700604482015290519081900360640190fd5b8260038151811061206e57fe5b6020026020010151600114156120945760028b1461208b57600080fd5b60009950600098505b6120a68c8c8c8c8c8c8c8c8c8c613f40565b60008251118015612145575060408051600481526024810191829052835190918491819060208401908083835b602083106120f25780518252601f1990920191602091820191016120d3565b51815160209384036101000a600019018019909216911617905260405191909301819003902091850180516001600160e01b03199093166001600160e01b03909316929092179091525050905160041490505b156121fb5760408051600481526024810191829052835190918491819060208401908083835b6020831061218a5780518252601f19909201916020918201910161216b565b51815160001960209485036101000a810191821691199290921617909152604080519590930185900390942087820180516001600160e01b03166001600160e01b0319909216919091178152600454909401600090815260089091522094516121f995945091925061441e9050565b505b505050505050505050505050565b600054604080516227050b60e31b81526123ab60f11b600482015290516001600160a01b039092169133918391630138285891602480820192602092909190829003018186803b15801561225c57600080fd5b505afa158015612270573d6000803e3d6000fd5b505050506040513d602081101561228657600080fd5b50516001600160a01b0316146122d4576040805162461bcd60e51b815260206004820152600e60248201526d139bdd08185d5d1a1bdc9a5e995960921b604482015290519081900360640190fd5b6122de8b8961423d565b600114612321576040805162461bcd60e51b815260206004820152600c60248201526b496e76616c696420526f6c6560a01b604482015290519081900360640190fd5b60648911158015612333575060648a11155b612379576040805162461bcd60e51b8152602060048201526012602482015271496e76616c69642070657263656e7461676560701b604482015290519081900360640190fd5b6108ab60f31b6001600160f01b0319851614801561239e57506001600160a01b038516155b806123aa575060008251115b6123b357600080fd5b6001836003815181106123c257fe5b6020026020010151111561241d576040805162461bcd60e51b815260206004820152601f60248201527f496e76616c6964207370656369616c207265736f6c7574696f6e20666c616700604482015290519081900360640190fd5b8260038151811061242a57fe5b6020026020010151600114156124505760028b1461244757600080fd5b60009950600098505b60008d81526008602052604081206124679161449c565b60008251118015612506575060408051600481526024810191829052835190918491819060208401908083835b602083106124b35780518252601f199092019160209182019101612494565b51815160209384036101000a600019018019909216911617905260405191909301819003902091850180516001600160e01b03199093166001600160e01b03909316929092179091525050905160041490505b156125c35760408051600481526024810191829052835190918491819060208401908083835b6020831061254b5780518252601f19909201916020918201910161252c565b6001836020036101000a03801982511681845116808217855250505050505090500191505060405180910390206001600160e01b0319166020820180516001600160e01b038381831617835250505050600860008f815260200190815260200160002090805190602001906125c192919061441e565b505b8a60048e815481106125d157fe5b9060005260206000209060060201600001819055508960048e815481106125f457fe5b9060005260206000209060060201600101819055508660048e8154811061261757fe5b9060005260206000209060060201600401819055508760048e8154811061263a57fe5b9060005260206000209060060201600301908051906020019061265e9291906144e0565b508260008151811061266c57fe5b602002602001015160048e8154811061268157fe5b9060005260206000209060060201600501819055508860048e815481106126a457fe5b906000526020600020906006020160020181905550826001815181106126c657fe5b60209081029190910181015160008f815260059092526040909120908155600101805461ffff60a01b1916600160a01b60f087901c02176001600160a01b0319166001600160a01b03871617905582518390600290811061272357fe5b6020026020010151600660008f8152602001908152602001600020819055508260038151811061274f57fe5b6020026020010151600760008f8152602001908152602001600020819055508c7f2a65d0fe76508fb4e604d4804927dce75b70f82e64a2025e3bffb2fc003418508d88604051808060200180602001838103835285818151815260200191508051906020019080838360005b838110156127d35781810151838201526020016127bb565b50505050905090810190601f1680156128005780820380516001836020036101000a031916815260200191505b50838103825284518152845160209182019186019080838360005b8381101561283357818101518382015260200161281b565b50505050905090810190601f1680156128605780820380516001836020036101000a031916815260200191505b5094505050505060405180910390a250505050505050505050505050565b600254600160a01b900460ff161561289557600080fd5b6002805460ff60a01b1916600160a01b1790556009805460ff19166001908117909155600380546001600160a01b0384166001600160a01b031990911617905560408051808201909152600d81526c155b98d85d1959dbdc9a5e9959609a1b6020820152612911916126a960f11b90603c90600f906000614313565b61295360405180604001604052806013815260200172416464206e6577206d656d62657220726f6c6560681b8152506126a960f11b603c600f60016000614313565b61299460405180604001604052806012815260200171557064617465206d656d62657220726f6c6560701b8152506126a960f11b603c600f60016000614313565b6129d36040518060400160405280601081526020016f416464206e65772063617465676f727960801b81525061504360f01b603c600f60016000614313565b612a0f6040518060400160405280600d81526020016c456469742063617465676f727960981b81525061504360f01b603c600f60016000614313565b612a3e60405180606001604052806021815260200161464460219139614d5360f01b6032600f60026050614313565b612a8a6040518060400160405280601981526020017f496d706c656d656e7420456d657267656e637920506175736500000000000000815250614d5360f01b6000600f60016000614313565b612ab96040518060600160405280602481526020016145c560249139614d5360f01b6032600f60026000614313565b612b056040518060400160405280601981526020017f4275726e20436c61696d73204173736573736f7220426f6e6400000000000000815250612a2360f11b6050600f60016000614313565b612b3460405180606001604052806026815260200161468f602691396110d160f21b603c600f60016000614313565b612b806040518060400160405280601881526020017f4368616e67657320746f204361706974616c204d6f64656c00000000000000008152506108ab60f31b6032600f6002603c614313565b612bcc6040518060400160405280601881526020017f4368616e67657320746f2050726963696e67204d6f64656c00000000000000008152506108ab60f31b6032600f6002603c614313565b612bfb6040518060600160405280602a8152602001614665602a913961503160f01b6032600f60026050614313565b612c3e6040518060400160405280601481526020017310591908125b9d995cdd1b595b9d08105cdcd95d60621b81525061141160f21b6032600f6002603c614313565b612c6d6040518060600160405280603581526020016145e96035913961141160f21b6032600f6002603c614313565b612cb96040518060400160405280601e81526020017f55706461746520496e766573746d656e7420417373657420537461747573000081525061141160f21b6032600f6002603c614313565b612cf86040518060400160405280601081526020016f21b430b733b29020a11026b2b6b132b960811b8152506126a960f11b6032600f60026000614313565b612d39604051806040016040528060128152602001711059190810dd5c9c995b98de48105cdcd95d60721b81525061141160f21b6032600f60026000614313565b612d766040518060400160405280600e81526020016d416e79206f74686572204974656d60901b8152506108ab60f31b6032600f60026050614313565b612db76040518060400160405280601281526020017129b832b1b4b0b6102932b9b7b63aba34b7b760711b8152506108ab60f31b604b600060026000614313565b612e036040518060400160405280601781526020017f55706461746520546f6b656e20506172616d657465727300000000000000000081525061151160f21b6032600f6002603c614313565b612e3260405180606001604052806021815260200161455e6021913961151160f21b6032600f6002603c614313565b612e7e6040518060400160405280601c81526020017f55706461746520476f7665726e616e636520506172616d6574657273000000008152506123ab60f11b6032600f6002603c614313565b612eca6040518060400160405280601b81526020017f5570646174652051756f746174696f6e20506172616d6574657273000000000081525061145160f21b6032600f6002603c614313565b612ef96040518060600160405280602381526020016145a2602391396110d160f21b6032600f6002603c614313565b612f2860405180606001604052806023815260200161457f6023913961141160f21b6032600f6002603c614313565b612f746040518060400160405280601f81526020017f557064617465204361706974616c204d6f64656c20506172616d65746572730081525061141160f21b6032600f6002603c614313565b612fc06040518060400160405280601981526020017f557064617465204164647265737320506172616d657465727300000000000000815250614d5360f01b6032600f6002603c614313565b61300c6040518060400160405280601781526020017f557064617465204f776e657220506172616d6574657273000000000000000000815250614d5360f01b6032600f60026000614313565b6130586040518060400160405280601f81526020017f52656c65617365206e657720736d61727420636f6e747261637420636f646500815250614d5360f01b6032600f60026050614313565b6130a46040518060400160405280601b81526020017f456469742043757272656e63792041737365742041646472657373000000000081525061141160f21b6032600f6001603c614313565b6130f06040518060400160405280601b81526020017f456469742043757272656e637920417373657420626173654d696e000000000081525061141160f21b6032600f6002603c614313565b61311f6040518060600160405280602981526020016145356029913961141160f21b6032600f6002603c614313565b6131636040518060400160405280601581526020017454726164696e67205472696767657220436865636b60581b81525061141160f21b6028600f6002603c614313565b6131a26040518060400160405280601081526020016f105919081b995dc818dbdb9d1c9858dd60821b815250614d5360f01b603c600f6002603c614313565b6131ee6040518060400160405280601b81526020017f546f6b656e20436f6e74726f6c6c657220506172616d6574657273000000000081525061544360f01b603c600f6002603c614313565b604080516004815260248101909152602080820180516001600160e01b03166316e25ee560e11b17815260016000526008909152905161324f917fad67d757c34507f157cacfa2e3153e9f260a2244f30428821be7be64587ac55f9161441e565b50604080516004815260248101909152602080820180516001600160e01b0316632f47302160e01b1781526002600052600890915290516132b1917f6add646517a5b0f6793cd5891b7937d28a5b2981a5d88ebc7cd776088fea90419161441e565b50604080516004815260248101909152602080820180516001600160e01b031663577c091b60e11b178152600360005260089091529051613313917f625b35f5e76f098dd7c3a05b10e2e5e78a4a01228d60c3b143426cdf36d264559161441e565b5060408051600480825260248201909252602080820180516001600160e01b0316635815e18b60e11b1781526000939093526008905251613375917f9321edea6e3be4df59a344b401fab4f888b556fda1f954244cff9204bad624b89161441e565b50604080516004815260248101909152602080820180516001600160e01b03166365a8c52360e01b1781526005600052600890915290516133d7917f91238f30f286c9a1c6e901c4eda3b214c381c846e3dbe48df95c21488e8e1fdb9161441e565b50604080516004815260248101909152602080820180516001600160e01b031663872f1eb360e01b178152600660005260089091529051613439917f13acf3fc7bed94759963f076d5d3443d88732026bffc8253bdf4a6e65f21ecc59161441e565b50604080516004815260248101909152602080820180516001600160e01b03166001625c66d760e01b031917815260076000526008909152905161349e917f24cd397636bedc6cf9b490d0edd57c769c19b367fb7d5c2344ae1ddc7d21c1449161441e565b50604080516004815260248101909152602080820180516001600160e01b031663ccace7df60e01b178152600860008190529091529051613500917fe4c2e8be66af8dd2d277000f4f830a10546f8b14e45cd850b875c98ba0f0d2cd9161441e565b50604080516004815260248101909152602080820180516001600160e01b031663311e15e560e11b178152600960005260089091529051613562917f82c9e868e45873bb5a4f47c09e14a12f6a6314e13aabd611e4374762bb4e8b369161441e565b50604080516004815260248101909152602080820180516001600160e01b031663bd03e50160e01b178152600c600052600890915290516135c4917faba08fc86a199da17c4b45fa0fb586714474d27e5e1f0220658b6275561b2e189161441e565b50604080516004815260248101909152602080820180516001600160e01b031663c6318c2360e01b178152600d60005260089091529051613626917f9006e1a1959cda25aa0dba7b7a958efb843c4c8cb81a2c2fb8637a074e0818f29161441e565b50604080516004815260248101909152602080820180516001600160e01b031663c85e5efd60e01b178152600e60005260089091529051613688917fb6457486547dfd0925a66a479476c3a3e54935ea6192a908abe6bd58ec247b419161441e565b50604080516004815260248101909152602080820180516001600160e01b03166342a049cd60e01b178152600f600052600890915290516136ea917f8fab3b3b6d3bf24f9b00213fe8dda2fb1e188fcd88f523fcb711ff1f6aed59e39161441e565b50604080516004815260248101909152602080820180516001600160e01b0316630c578f2360e41b17815260106000526008909152905161374c917fdf6cae10d416b4d6f459eba806bebc4b85f190dfac647ab7cb4cd2638815444c9161441e565b50604080516004815260248101909152602080820180516001600160e01b031663ebff71c360e01b1781526011600052600890915290516137ae917fbb47c685b7a6169f9415fd073108f8b7da3e741b7dde8513850bca404684fa979161441e565b50604080516004815260248101909152602080820180516001600160e01b0316639dd86e0f60e01b178152601460005260089091529051613810917fbb1110247bce6eaaf3cb168d5660645ab99866afefe1e7c6fa4388014157e5ba9161441e565b50604080516004815260248101909152602080820180516001600160e01b0316639dd86e0f60e01b178152601560005260089091529051613872917fb29f796e1978e2043677a1f0396c8f9106e30db6bae4734a9de4f7fffa6f3fb89161441e565b50604080516004815260248101909152602080820180516001600160e01b0316639dd86e0f60e01b1781526016600052600890915290516138d4917fe34c1268cf989e507da6d357c2274f08fc653db420491bb916dfda9e5c93bd559161441e565b50604080516004815260248101909152602080820180516001600160e01b0316639dd86e0f60e01b178152601760005260089091529051613936917f69dd648f27f59b1ee254e03cc0e7f3101ebd5768b9ab5a13693b554f528fc0c59161441e565b50604080516004815260248101909152602080820180516001600160e01b0316639dd86e0f60e01b178152601860005260089091529051613998917f83ba890607818823e46eb1e5ed8f7282277ac60de8c863727688b48d92a8da6d9161441e565b50604080516004815260248101909152602080820180516001600160e01b0316639dd86e0f60e01b1781526019600052600890915290516139fa917f18fd5681ae57cb24534810e7d412d5f5690a9c6f8b4cd1522e2df7c22ae088869161441e565b50604080516004815260248101909152602080820180516001600160e01b0316639dd86e0f60e01b178152601a60005260089091529051613a5c917fb3f2dad8dfd667db2559ced4f80a5b7ba4238a3f650ecbeac793568105f8aa499161441e565b50604080516004815260248101909152602080820180516001600160e01b03166356a6621f60e11b178152601b60005260089091529051613abe917fa7061849acf4dd50ca004db0f3783d22ac4c1e6e6ac4087d7aeaa0345df7c87b9161441e565b50604080516004815260248101909152602080820180516001600160e01b031663e2cab14d60e01b178152601c60005260089091529051613b20917faec422c4c208375fe057bc4dcd2923fcfe7cde0b12bdd0474d1da225c34309b99161441e565b50604080516004815260248101909152602080820180516001600160e01b031663495850ab60e11b178152601d60005260089091529051613b82917f103255ffe274dc2acf72b5305eaa32de1b2a3ce1e49af62b6d4c6ca9993c9e169161441e565b50604080516004815260248101909152602080820180516001600160e01b031663eaad1b3b60e01b178152601e60005260089091529051613be4917f8ff154b69b3b40c11effaf182586e40eb0e8eab5c2d51945cbe34b1b0bcf6e289161441e565b50604080516004815260248101909152602080820180516001600160e01b03166324b5a44360e11b178152601f60005260089091529051613c46917f3d4691043262bb71b358bddc6f01f8c4de71fc1f1a1b51e3a78463b85cab661e9161441e565b50604080516004815260248101909152602080820180516001600160e01b03166352931d5160e11b178152600082905260089091529051613ca8917f67c7b623d08894662a80b2d62b2359114b69172cd083a38f4bea1a9a8dcc7eb89161441e565b50604080516004815260248101909152602080820180516001600160e01b0316633dc800db60e21b178152602160005260089091529051613d0a917f1e00437c059ded11d56fbc0f9acb2b99126636f749097c5c8224b228fcea6fe19161441e565b50604080516004815260248101909152602080820180516001600160e01b0316632c72135360e01b178152602260005260089091529051613d6c917f53e745d3a0288b4f074f91b5108d1f15cdc75852e87354269951b8a0b76f98089161441e565b50604080516004815260248101909152602080820180516001600160e01b0316639dd86e0f60e01b178152602360005260089091529051613dce917f2f904353aa0b08e30a8bee5eb29611b4fc31bb40ab4d96aba700ec64aa7fc9ae9161441e565b5050565b565b6000546001600160a01b031681565b6000546001600160a01b031615613e0b576000546001600160a01b03163314613e0b57600080fd5b600080546001600160a01b039092166001600160a01b031992831681179091556001805483168217905560028054909216179055565b600081815260056020908152604080832060018082015491546008855283862080548551600261010095831615959095026000190190911693909304601f81018790048702840187019095528483528695869586956060958b956001600160a01b03831695600160a01b90930460f01b9490938391830182828015613f075780601f10613edc57610100808354040283529160200191613f07565b820191906000526020600020905b815481529060010190602001808311613eea57829003601f168201915b505050505090509450945094509450945091939590929450565b5050505050505050505050505050565b6002546001600160a01b031681565b613f4a898761423d565b600114613f8d576040805162461bcd60e51b815260206004820152600c60248201526b496e76616c696420526f6c6560a01b604482015290519081900360640190fd5b60046040518060c001604052808b81526020018a815260200189815260200188815260200187815260200183600081518110613fc557fe5b60209081029190910181015190915282546001818101808655600095865294839020845160069093020191825583830151908201556040830151600282015560608301518051919261401f926003850192909101906144e0565b506080820151816004015560a082015181600501555050506000600160048054905003905060405180606001604052808360018151811061405c57fe5b60209081029190910181015182526001600160a01b03808816838301526001600160f01b03198716604093840152600085815260058352839020845181559184015160019092018054949093015160f01c600160a01b0261ffff60a01b19929091166001600160a01b031990941693909317169190911790558151829060029081106140e457fe5b602002602001015160066000838152602001908152602001600020819055508160038151811061411057fe5b60200260200101516007600083815260200190815260200160002081905550807f2a65d0fe76508fb4e604d4804927dce75b70f82e64a2025e3bffb2fc003418508c87604051808060200180602001838103835285818151815260200191508051906020019080838360005b8381101561419457818101518382015260200161417c565b50505050905090810190601f1680156141c15780820380516001836020036101000a031916815260200191505b50838103825284518152845160209182019186019080838360005b838110156141f45781810151838201526020016141dc565b50505050905090810190601f1680156142215780820380516001836020036101000a031916815260200191505b5094505050505060405180910390a25050505050505050505050565b600080600360009054906101000a90046001600160a01b03166001600160a01b031663790e118c6040518163ffffffff1660e01b815260040160206040518083038186803b15801561428e57600080fd5b505afa1580156142a2573d6000803e3d6000fd5b505050506040513d60208110156142b857600080fd5b505190508084106142cd57600091505061430d565b60005b835181101561430657818482815181106142e657fe5b6020026020010151106142fe5760009250505061430d565b6001016142d0565b5060019150505b92915050565b60408051600180825281830190925260609160208083019080388339505060408051600480825260a0820190925292935060609291506020820160808038833901905050905060028260008151811061436857fe5b60200260200101818152505060008160008151811061438357fe5b60200260200101818152505060008160018151811061439e57fe5b60200260200101818152505082816002815181106143b857fe5b602090810291909101015284156143d05760006143d3565b60015b60ff16816003815181106143e357fe5b602002602001018181525050614414888588888662093a806040518060200160405280600081525060008f8a613f40565b5050505050505050565b828054600181600116156101000203166002900490600052602060002090601f016020900481019282601f1061445f57805160ff191683800117855561448c565b8280016001018555821561448c579182015b8281111561448c578251825591602001919060010190614471565b5061449892915061451a565b5090565b50805460018160011615610100020316600290046000825580601f106144c25750611e57565b601f016020900490600052602060002090810190611e57919061451a565b82805482825590600052602060002090810192821561448c579160200282018281111561448c578251825591602001919060010190614471565b61118291905b80821115614498576000815560010161452056fe4564697420496e766573746d656e74204173736574204164647265737320616e6420646563696d616c557064617465205269736b204173736573736d656e7420506172616d657465727355706461746520496e766573746d656e74204d6f64756c6520506172616d657465727355706461746520436c61696d73204173736573736d656e7420506172616d6574657273457874656e64206f7220537769746368204f666620456d657267656e63792050617573654564697420496e766573746d656e74204173736574206d696e20616e64206d617820686f6c64696e672070657263656e746167657343617465676f727920616374696f6e2068617368657320616c7265616479207570646174656455706772616465206120636f6e747261637420496d706c656d656e746174696f6e57697468647261772066756e647320746f2050617920666f7220537570706f7274205365727669636573506175736520436c61696d204173736573736f7220566f74696e6720666f7220332064617973a265627a7a72315820ebeac92841b776e81d11febb1827c291708a29d17ea24c675dede6ad9977f5df64736f6c63430005110032",
  "linkReferences": {},
  "deployedLinkReferences": {}
}