{
  "_format": "hh-sol-artifact-1",
  "contractName": "ProposalCategory",
  "sourceName": "contracts/NexusMutual/modules/governance/ProposalCategory.sol",
  "abi": [
    {
      "anonymous": false,
      "inputs": [
        {
          "indexed": true,
          "internalType": "uint256",
          "name": "categoryId",
          "type": "uint256"
        },
        {
          "indexed": false,
          "internalType": "string",
          "name": "categoryName",
          "type": "string"
        },
        {
          "indexed": false,
          "internalType": "string",
          "name": "actionHash",
          "type": "string"
        }
      ],
      "name": "Category",
      "type": "event"
    },
    {
      "constant": false,
      "inputs": [
        {
          "internalType": "string",
          "name": "_name",
          "type": "string"
        },
        {
          "internalType": "uint256",
          "name": "_memberRoleToVote",
          "type": "uint256"
        },
        {
          "internalType": "uint256",
          "name": "_majorityVotePerc",
          "type": "uint256"
        },
        {
          "internalType": "uint256",
          "name": "_quorumPerc",
          "type": "uint256"
        },
        {
          "internalType": "uint256[]",
          "name": "_allowedToCreateProposal",
          "type": "uint256[]"
        },
        {
          "internalType": "uint256",
          "name": "_closingTime",
          "type": "uint256"
        },
        {
          "internalType": "string",
          "name": "_actionHash",
          "type": "string"
        },
        {
          "internalType": "address",
          "name": "_contractAddress",
          "type": "address"
        },
        {
          "internalType": "bytes2",
          "name": "_contractName",
          "type": "bytes2"
        },
        {
          "internalType": "uint256[]",
          "name": "_incentives",
          "type": "uint256[]"
        }
      ],
      "name": "addCategory",
      "outputs": [],
      "payable": false,
      "stateMutability": "nonpayable",
      "type": "function"
    },
    {
      "constant": true,
      "inputs": [
        {
          "internalType": "uint256",
          "name": "_categoryId",
          "type": "uint256"
        }
      ],
      "name": "category",
      "outputs": [
        {
          "internalType": "uint256",
          "name": "",
          "type": "uint256"
        },
        {
          "internalType": "uint256",
          "name": "",
          "type": "uint256"
        },
        {
          "internalType": "uint256",
          "name": "",
          "type": "uint256"
        },
        {
          "internalType": "uint256",
          "name": "",
          "type": "uint256"
        },
        {
          "internalType": "uint256[]",
          "name": "",
          "type": "uint256[]"
        },
        {
          "internalType": "uint256",
          "name": "",
          "type": "uint256"
        },
        {
          "internalType": "uint256",
          "name": "",
          "type": "uint256"
        }
      ],
      "payable": false,
      "stateMutability": "view",
      "type": "function"
    },
    {
      "constant": true,
      "inputs": [
        {
          "internalType": "uint256",
          "name": "",
          "type": "uint256"
        }
      ],
      "name": "categoryABReq",
      "outputs": [
        {
          "internalType": "uint256",
          "name": "",
          "type": "uint256"
        }
      ],
      "payable": false,
      "stateMutability": "view",
      "type": "function"
    },
    {
      "constant": true,
      "inputs": [
        {
          "internalType": "uint256",
          "name": "_categoryId",
          "type": "uint256"
        }
      ],
      "name": "categoryAction",
      "outputs": [
        {
          "internalType": "uint256",
          "name": "",
          "type": "uint256"
        },
        {
          "internalType": "address",
          "name": "",
          "type": "address"
        },
        {
          "internalType": "bytes2",
          "name": "",
          "type": "bytes2"
        },
        {
          "internalType": "uint256",
          "name": "",
          "type": "uint256"
        }
      ],
      "payable": false,
      "stateMutability": "view",
      "type": "function"
    },
    {
      "constant": true,
      "inputs": [
        {
          "internalType": "uint256",
          "name": "_categoryId",
          "type": "uint256"
        }
      ],
      "name": "categoryActionDetails",
      "outputs": [
        {
          "internalType": "uint256",
          "name": "",
          "type": "uint256"
        },
        {
          "internalType": "address",
          "name": "",
          "type": "address"
        },
        {
          "internalType": "bytes2",
          "name": "",
          "type": "bytes2"
        },
        {
          "internalType": "uint256",
          "name": "",
          "type": "uint256"
        },
        {
          "internalType": "bytes",
          "name": "",
          "type": "bytes"
        }
      ],
      "payable": false,
      "stateMutability": "view",
      "type": "function"
    },
    {
      "constant": true,
      "inputs": [],
      "name": "categoryActionHashUpdated",
      "outputs": [
        {
          "internalType": "bool",
          "name": "",
          "type": "bool"
        }
      ],
      "payable": false,
      "stateMutability": "view",
      "type": "function"
    },
    {
      "constant": true,
      "inputs": [
        {
          "internalType": "uint256",
          "name": "",
          "type": "uint256"
        }
      ],
      "name": "categoryActionHashes",
      "outputs": [
        {
          "internalType": "bytes",
          "name": "",
          "type": "bytes"
        }
      ],
      "payable": false,
      "stateMutability": "view",
      "type": "function"
    },
    {
      "constant": true,
      "inputs": [
        {
          "internalType": "uint256",
          "name": "_categoryId",
          "type": "uint256"
        }
      ],
      "name": "categoryExtendedData",
      "outputs": [
        {
          "internalType": "uint256",
          "name": "",
          "type": "uint256"
        },
        {
          "internalType": "uint256",
          "name": "",
          "type": "uint256"
        },
        {
          "internalType": "uint256",
          "name": "",
          "type": "uint256"
        }
      ],
      "payable": false,
      "stateMutability": "view",
      "type": "function"
    },
    {
      "constant": false,
      "inputs": [],
      "name": "changeDependentContractAddress",
      "outputs": [],
      "payable": false,
      "stateMutability": "nonpayable",
      "type": "function"
    },
    {
      "constant": false,
      "inputs": [
        {
          "internalType": "address",
          "name": "_masterAddress",
          "type": "address"
        }
      ],
      "name": "changeMasterAddress",
      "outputs": [],
      "payable": false,
      "stateMutability": "nonpayable",
      "type": "function"
    },
    {
      "constant": true,
      "inputs": [],
      "name": "constructorCheck",
      "outputs": [
        {
          "internalType": "bool",
          "name": "",
          "type": "bool"
        }
      ],
      "payable": false,
      "stateMutability": "view",
      "type": "function"
    },
    {
      "constant": false,
      "inputs": [
        {
          "internalType": "uint256",
          "name": "_categoryId",
          "type": "uint256"
        },
        {
          "internalType": "string",
          "name": "_name",
          "type": "string"
        },
        {
          "internalType": "uint256",
          "name": "_memberRoleToVote",
          "type": "uint256"
        },
        {
          "internalType": "uint256",
          "name": "_majorityVotePerc",
          "type": "uint256"
        },
        {
          "internalType": "uint256",
          "name": "_quorumPerc",
          "type": "uint256"
        },
        {
          "internalType": "uint256[]",
          "name": "_allowedToCreateProposal",
          "type": "uint256[]"
        },
        {
          "internalType": "uint256",
          "name": "_closingTime",
          "type": "uint256"
        },
        {
          "internalType": "string",
          "name": "_actionHash",
          "type": "string"
        },
        {
          "internalType": "address",
          "name": "_contractAddress",
          "type": "address"
        },
        {
          "internalType": "bytes2",
          "name": "_contractName",
          "type": "bytes2"
        },
        {
          "internalType": "uint256[]",
          "name": "_incentives",
          "type": "uint256[]"
        },
        {
          "internalType": "string",
          "name": "_functionHash",
          "type": "string"
        }
      ],
      "name": "editCategory",
      "outputs": [],
      "payable": false,
      "stateMutability": "nonpayable",
      "type": "function"
    },
    {
      "constant": true,
      "inputs": [
        {
          "internalType": "address",
          "name": "_toCheck",
          "type": "address"
        }
      ],
      "name": "isAuthorizedToGovern",
      "outputs": [
        {
          "internalType": "bool",
          "name": "",
          "type": "bool"
        }
      ],
      "payable": false,
      "stateMutability": "view",
      "type": "function"
    },
    {
      "constant": true,
      "inputs": [
        {
          "internalType": "uint256",
          "name": "",
          "type": "uint256"
        }
      ],
      "name": "isSpecialResolution",
      "outputs": [
        {
          "internalType": "uint256",
          "name": "",
          "type": "uint256"
        }
      ],
      "payable": false,
      "stateMutability": "view",
      "type": "function"
    },
    {
      "constant": true,
      "inputs": [],
      "name": "masterAddress",
      "outputs": [
        {
          "internalType": "address",
          "name": "",
          "type": "address"
        }
      ],
      "payable": false,
      "stateMutability": "view",
      "type": "function"
    },
    {
      "constant": true,
      "inputs": [],
      "name": "ms",
      "outputs": [
        {
          "internalType": "contract INXMMaster",
          "name": "",
          "type": "address"
        }
      ],
      "payable": false,
      "stateMutability": "view",
      "type": "function"
    },
    {
      "constant": false,
      "inputs": [
        {
          "internalType": "string",
          "name": "_name",
          "type": "string"
        },
        {
          "internalType": "uint256",
          "name": "_memberRoleToVote",
          "type": "uint256"
        },
        {
          "internalType": "uint256",
          "name": "_majorityVotePerc",
          "type": "uint256"
        },
        {
          "internalType": "uint256",
          "name": "_quorumPerc",
          "type": "uint256"
        },
        {
          "internalType": "uint256[]",
          "name": "_allowedToCreateProposal",
          "type": "uint256[]"
        },
        {
          "internalType": "uint256",
          "name": "_closingTime",
          "type": "uint256"
        },
        {
          "internalType": "string",
          "name": "_actionHash",
          "type": "string"
        },
        {
          "internalType": "address",
          "name": "_contractAddress",
          "type": "address"
        },
        {
          "internalType": "bytes2",
          "name": "_contractName",
          "type": "bytes2"
        },
        {
          "internalType": "uint256[]",
          "name": "_incentives",
          "type": "uint256[]"
        },
        {
          "internalType": "string",
          "name": "_functionHash",
          "type": "string"
        }
      ],
      "name": "newCategory",
      "outputs": [],
      "payable": false,
      "stateMutability": "nonpayable",
      "type": "function"
    },
    {
      "constant": true,
      "inputs": [],
      "name": "nxMasterAddress",
      "outputs": [
        {
          "internalType": "address",
          "name": "",
          "type": "address"
        }
      ],
      "payable": false,
      "stateMutability": "view",
      "type": "function"
    },
    {
      "constant": false,
      "inputs": [],
      "name": "proposalCategoryInitiate",
      "outputs": [],
      "payable": false,
      "stateMutability": "nonpayable",
      "type": "function"
    },
    {
      "constant": true,
      "inputs": [],
      "name": "totalCategories",
      "outputs": [
        {
          "internalType": "uint256",
          "name": "",
          "type": "uint256"
        }
      ],
      "payable": false,
      "stateMutability": "view",
      "type": "function"
    },
    {
      "constant": false,
      "inputs": [
        {
          "internalType": "uint256",
          "name": "_categoryId",
          "type": "uint256"
        },
        {
          "internalType": "string",
          "name": "_name",
          "type": "string"
        },
        {
          "internalType": "uint256",
          "name": "_memberRoleToVote",
          "type": "uint256"
        },
        {
          "internalType": "uint256",
          "name": "_majorityVotePerc",
          "type": "uint256"
        },
        {
          "internalType": "uint256",
          "name": "_quorumPerc",
          "type": "uint256"
        },
        {
          "internalType": "uint256[]",
          "name": "_allowedToCreateProposal",
          "type": "uint256[]"
        },
        {
          "internalType": "uint256",
          "name": "_closingTime",
          "type": "uint256"
        },
        {
          "internalType": "string",
          "name": "_actionHash",
          "type": "string"
        },
        {
          "internalType": "address",
          "name": "_contractAddress",
          "type": "address"
        },
        {
          "internalType": "bytes2",
          "name": "_contractName",
          "type": "bytes2"
        },
        {
          "internalType": "uint256[]",
          "name": "_incentives",
          "type": "uint256[]"
        }
      ],
      "name": "updateCategory",
      "outputs": [],
      "payable": false,
      "stateMutability": "nonpayable",
      "type": "function"
    },
    {
      "constant": false,
      "inputs": [],
      "name": "updateCategoryActionHashes",
      "outputs": [],
      "payable": false,
      "stateMutability": "nonpayable",
      "type": "function"
    }
  ],
  "bytecode": "0x608060405234801561001057600080fd5b50612eff806100206000396000f3fe608060405234801561001057600080fd5b50600436106101425760003560e01c806386957731116100b8578063cf3acfbc1161007c578063cf3acfbc14610c24578063d365a08e14610c2c578063d46655f414610c34578063d4aaafb414610c5a578063da3f7bd114610d31578063f17a3bec14610ec557610142565b8063869577311461039657806395566ebd146103b3578063a0b2d57f14610621578063aef8123614610645578063b02bc3161461093157610142565b8063525050e11161010a578063525050e11461027b57806354911e121461028357806357c7bec11461028b578063674aa7121461031d5780636debdabf14610371578063780052971461037957610142565b806307149ba3146101475780630ea9c9841461018257806322ce72541461018c578063253eca1f146101c657806339275b0a14610261575b600080fd5b6101646004803603602081101561015d57600080fd5b5035610ecd565b60408051938452602084019290925282820152519081900360600190f35b61018a610eef565b005b6101b2600480360360208110156101a257600080fd5b50356001600160a01b0316610f8b565b604080519115158252519081900360200190f35b6101e3600480360360208110156101dc57600080fd5b503561101d565b6040518088815260200187815260200186815260200185815260200180602001848152602001838152602001828103825285818151815260200191508051906020019060200280838360005b8381101561024757818101518382015260200161022f565b505050509050019850505050505050505060405180910390f35b61026961114d565b60408051918252519081900360200190f35b6101b2611154565b6101b2611164565b6102a8600480360360208110156102a157600080fd5b503561116d565b6040805160208082528351818301528351919283929083019185019080838360005b838110156102e25781810151838201526020016102ca565b50505050905090810190601f16801561030f5780820380516001836020036101000a031916815260200191505b509250505060405180910390f35b61033a6004803603602081101561033357600080fd5b5035611208565b604080519485526001600160a01b0390931660208501526001600160f01b0319909116838301526060830152519081900360800190f35b61018a611239565b6102696004803603602081101561038f57600080fd5b5035611e29565b610269600480360360208110156103ac57600080fd5b5035611e3b565b61018a60048036036101608110156103ca57600080fd5b81359190810190604081016020820135600160201b8111156103eb57600080fd5b8201836020820111156103fd57600080fd5b803590602001918460018302840111600160201b8311171561041e57600080fd5b91908080601f0160208091040260200160405190810160405280939291908181526020018383808284376000920191909152509295843595602086013595604081013595509193509150608081019060600135600160201b81111561048257600080fd5b82018360208201111561049457600080fd5b803590602001918460208302840111600160201b831117156104b557600080fd5b91908080602002602001604051908101604052809392919081815260200183836020028082843760009201919091525092958435959094909350604081019250602001359050600160201b81111561050c57600080fd5b82018360208201111561051e57600080fd5b803590602001918460018302840111600160201b8311171561053f57600080fd5b91908080601f01602080910402602001604051908101604052809392919081815260200183838082843760009201919091525092956001600160a01b03853516956001600160f01b031960208701351695919450925060608101915060400135600160201b8111156105b057600080fd5b8201836020820111156105c257600080fd5b803590602001918460208302840111600160201b831117156105e357600080fd5b919080806020026020016040519081016040528093929190818152602001838360200280828437600092019190915250929550611e4d945050505050565b610629611e5a565b604080516001600160a01b039092168252519081900360200190f35b61018a600480360361016081101561065c57600080fd5b810190602081018135600160201b81111561067657600080fd5b82018360208201111561068857600080fd5b803590602001918460018302840111600160201b831117156106a957600080fd5b91908080601f0160208091040260200160405190810160405280939291908181526020018383808284376000920191909152509295843595602086013595604081013595509193509150608081019060600135600160201b81111561070d57600080fd5b82018360208201111561071f57600080fd5b803590602001918460208302840111600160201b8311171561074057600080fd5b91908080602002602001604051908101604052809392919081815260200183836020028082843760009201919091525092958435959094909350604081019250602001359050600160201b81111561079757600080fd5b8201836020820111156107a957600080fd5b803590602001918460018302840111600160201b831117156107ca57600080fd5b91908080601f01602080910402602001604051908101604052809392919081815260200183838082843760009201919091525092956001600160a01b03853516956001600160f01b031960208701351695919450925060608101915060400135600160201b81111561083b57600080fd5b82018360208201111561084d57600080fd5b803590602001918460208302840111600160201b8311171561086e57600080fd5b9190808060200260200160405190810160405280939291908181526020018383602002808284376000920191909152509295949360208101935035915050600160201b8111156108bd57600080fd5b8201836020820111156108cf57600080fd5b803590602001918460018302840111600160201b831117156108f057600080fd5b91908080601f016020809104026020016040519081016040528093929190818152602001838380828437600092019190915250929550611e69945050505050565b61018a600480360361018081101561094857600080fd5b81359190810190604081016020820135600160201b81111561096957600080fd5b82018360208201111561097b57600080fd5b803590602001918460018302840111600160201b8311171561099c57600080fd5b91908080601f0160208091040260200160405190810160405280939291908181526020018383808284376000920191909152509295843595602086013595604081013595509193509150608081019060600135600160201b811115610a0057600080fd5b820183602082011115610a1257600080fd5b803590602001918460208302840111600160201b83111715610a3357600080fd5b91908080602002602001604051908101604052809392919081815260200183836020028082843760009201919091525092958435959094909350604081019250602001359050600160201b811115610a8a57600080fd5b820183602082011115610a9c57600080fd5b803590602001918460018302840111600160201b83111715610abd57600080fd5b91908080601f01602080910402602001604051908101604052809392919081815260200183838082843760009201919091525092956001600160a01b03853516956001600160f01b031960208701351695919450925060608101915060400135600160201b811115610b2e57600080fd5b820183602082011115610b4057600080fd5b803590602001918460208302840111600160201b83111715610b6157600080fd5b9190808060200260200160405190810160405280939291908181526020018383602002808284376000920191909152509295949360208101935035915050600160201b811115610bb057600080fd5b820183602082011115610bc257600080fd5b803590602001918460018302840111600160201b83111715610be357600080fd5b91908080601f0160208091040260200160405190810160405280939291908181526020018383808284376000920191909152509295506121d8945050505050565b61018a61284d565b61062961284f565b61018a60048036036020811015610c4a57600080fd5b50356001600160a01b031661285e565b610c7760048036036020811015610c7057600080fd5b50356128bc565b60405180868152602001856001600160a01b03166001600160a01b03168152602001846001600160f01b0319166001600160f01b031916815260200183815260200180602001828103825283818151815260200191508051906020019080838360005b83811015610cf2578181015183820152602001610cda565b50505050905090810190601f168015610d1f5780820380516001836020036101000a031916815260200191505b50965050505050505060405180910390f35b61018a6004803603610140811015610d4857600080fd5b810190602081018135600160201b811115610d6257600080fd5b820183602082011115610d7457600080fd5b803590602001918460018302840111600160201b83111715610d9557600080fd5b919390928235926020810135926040820135929091608081019060600135600160201b811115610dc457600080fd5b820183602082011115610dd657600080fd5b803590602001918460208302840111600160201b83111715610df757600080fd5b91939092823592604081019060200135600160201b811115610e1857600080fd5b820183602082011115610e2a57600080fd5b803590602001918460018302840111600160201b83111715610e4b57600080fd5b919390926001600160a01b03833516926001600160f01b0319602082013516929190606081019060400135600160201b811115610e8757600080fd5b820183602082011115610e9957600080fd5b803590602001918460208302840111600160201b83111715610eba57600080fd5b50909250905061299c565b6106296129ac565b6000818152600660209081526040808320546007909252909120549192909190565b600154604080516227050b60e31b81526126a960f11b600482015290516001600160a01b0390921691630138285891602480820192602092909190829003018186803b158015610f3e57600080fd5b505afa158015610f52573d6000803e3d6000fd5b505050506040513d6020811015610f6857600080fd5b5051600380546001600160a01b0319166001600160a01b03909216919091179055565b60008054604080516227050b60e31b81526123ab60f11b600482015290516001600160a01b03928316928516918391630138285891602480820192602092909190829003018186803b158015610fe057600080fd5b505afa158015610ff4573d6000803e3d6000fd5b505050506040513d602081101561100a57600080fd5b50516001600160a01b0316149392505050565b6000806000806060600080876004898154811061103657fe5b90600052602060002090600602016000015460048a8154811061105557fe5b90600052602060002090600602016001015460048b8154811061107457fe5b90600052602060002090600602016002015460048c8154811061109357fe5b906000526020600020906006020160030160048d815481106110b157fe5b90600052602060002090600602016004015460048e815481106110d057fe5b9060005260206000209060060201600501548280548060200260200160405190810160405280929190818152602001828054801561112d57602002820191906000526020600020905b815481526020019060010190808311611119575b505050505092509650965096509650965096509650919395979092949650565b6004545b90565b600254600160a01b900460ff1681565b60095460ff1681565b60086020908152600091825260409182902080548351601f6002600019610100600186161502019093169290920491820184900484028101840190945280845290918301828280156112005780601f106111d557610100808354040283529160200191611200565b820191906000526020600020905b8154815290600101906020018083116111e357829003601f168201915b505050505081565b60008181526005602052604090206001810154905491926001600160a01b03821692600160a01b90920460f01b9190565b600154604080516317aa5fb760e11b815233600482015290516001600160a01b0390921691632f54bf6e91602480820192602092909190829003018186803b15801561128457600080fd5b505afa158015611298573d6000803e3d6000fd5b505050506040513d60208110156112ae57600080fd5b50516112b957600080fd5b60095460ff16156112fb5760405162461bcd60e51b8152600401808060200182810382526026815260200180612ea56026913960400191505060405180910390fd5b6009805460ff19166001908117909155604080516004815260248101909152602080820180516001600160e01b03166316e25ee560e11b178152600093909352600890525161136b917fad67d757c34507f157cacfa2e3153e9f260a2244f30428821be7be64587ac55f91612d8e565b50604080516004815260248101909152602080820180516001600160e01b0316632f47302160e01b1781526002600052600890915290516113cd917f6add646517a5b0f6793cd5891b7937d28a5b2981a5d88ebc7cd776088fea904191612d8e565b50604080516004815260248101909152602080820180516001600160e01b031663577c091b60e11b17815260036000526008909152905161142f917f625b35f5e76f098dd7c3a05b10e2e5e78a4a01228d60c3b143426cdf36d2645591612d8e565b5060408051600480825260248201909252602080820180516001600160e01b0316635815e18b60e11b1781526000939093526008905251611491917f9321edea6e3be4df59a344b401fab4f888b556fda1f954244cff9204bad624b891612d8e565b50604080516004815260248101909152602080820180516001600160e01b03166365a8c52360e01b1781526005600052600890915290516114f3917f91238f30f286c9a1c6e901c4eda3b214c381c846e3dbe48df95c21488e8e1fdb91612d8e565b50604080516004815260248101909152602080820180516001600160e01b031663872f1eb360e01b178152600660005260089091529051611555917f13acf3fc7bed94759963f076d5d3443d88732026bffc8253bdf4a6e65f21ecc591612d8e565b50604080516004815260248101909152602080820180516001600160e01b03166001625c66d760e01b03191781526007600052600890915290516115ba917f24cd397636bedc6cf9b490d0edd57c769c19b367fb7d5c2344ae1ddc7d21c14491612d8e565b50604080516004815260248101909152602080820180516001600160e01b031663ccace7df60e01b17815260086000819052909152905161161c917fe4c2e8be66af8dd2d277000f4f830a10546f8b14e45cd850b875c98ba0f0d2cd91612d8e565b50604080516004815260248101909152602080820180516001600160e01b031663311e15e560e11b17815260096000526008909152905161167e917f82c9e868e45873bb5a4f47c09e14a12f6a6314e13aabd611e4374762bb4e8b3691612d8e565b50604080516004815260248101909152602080820180516001600160e01b031663bd03e50160e01b178152600c600052600890915290516116e0917faba08fc86a199da17c4b45fa0fb586714474d27e5e1f0220658b6275561b2e1891612d8e565b50604080516004815260248101909152602080820180516001600160e01b031663c6318c2360e01b178152600d60005260089091529051611742917f9006e1a1959cda25aa0dba7b7a958efb843c4c8cb81a2c2fb8637a074e0818f291612d8e565b50604080516004815260248101909152602080820180516001600160e01b031663c85e5efd60e01b178152600e600052600890915290516117a4917fb6457486547dfd0925a66a479476c3a3e54935ea6192a908abe6bd58ec247b4191612d8e565b50604080516004815260248101909152602080820180516001600160e01b03166342a049cd60e01b178152600f60005260089091529051611806917f8fab3b3b6d3bf24f9b00213fe8dda2fb1e188fcd88f523fcb711ff1f6aed59e391612d8e565b50604080516004815260248101909152602080820180516001600160e01b0316630c578f2360e41b178152601060005260089091529051611868917fdf6cae10d416b4d6f459eba806bebc4b85f190dfac647ab7cb4cd2638815444c91612d8e565b50604080516004815260248101909152602080820180516001600160e01b031663ebff71c360e01b1781526011600052600890915290516118ca917fbb47c685b7a6169f9415fd073108f8b7da3e741b7dde8513850bca404684fa9791612d8e565b50604080516004815260248101909152602080820180516001600160e01b0316639dd86e0f60e01b17815260146000526008909152905161192c917fbb1110247bce6eaaf3cb168d5660645ab99866afefe1e7c6fa4388014157e5ba91612d8e565b50604080516004815260248101909152602080820180516001600160e01b0316639dd86e0f60e01b17815260156000526008909152905161198e917fb29f796e1978e2043677a1f0396c8f9106e30db6bae4734a9de4f7fffa6f3fb891612d8e565b50604080516004815260248101909152602080820180516001600160e01b0316639dd86e0f60e01b1781526016600052600890915290516119f0917fe34c1268cf989e507da6d357c2274f08fc653db420491bb916dfda9e5c93bd5591612d8e565b50604080516004815260248101909152602080820180516001600160e01b0316639dd86e0f60e01b178152601760005260089091529051611a52917f69dd648f27f59b1ee254e03cc0e7f3101ebd5768b9ab5a13693b554f528fc0c591612d8e565b50604080516004815260248101909152602080820180516001600160e01b0316639dd86e0f60e01b178152601860005260089091529051611ab4917f83ba890607818823e46eb1e5ed8f7282277ac60de8c863727688b48d92a8da6d91612d8e565b50604080516004815260248101909152602080820180516001600160e01b0316639dd86e0f60e01b178152601960005260089091529051611b16917f18fd5681ae57cb24534810e7d412d5f5690a9c6f8b4cd1522e2df7c22ae0888691612d8e565b50604080516004815260248101909152602080820180516001600160e01b0316639dd86e0f60e01b178152601a60005260089091529051611b78917fb3f2dad8dfd667db2559ced4f80a5b7ba4238a3f650ecbeac793568105f8aa4991612d8e565b50604080516004815260248101909152602080820180516001600160e01b03166356a6621f60e11b178152601b60005260089091529051611bda917fa7061849acf4dd50ca004db0f3783d22ac4c1e6e6ac4087d7aeaa0345df7c87b91612d8e565b50604080516004815260248101909152602080820180516001600160e01b031663e2cab14d60e01b178152601c60005260089091529051611c3c917faec422c4c208375fe057bc4dcd2923fcfe7cde0b12bdd0474d1da225c34309b991612d8e565b50604080516004815260248101909152602080820180516001600160e01b031663495850ab60e11b178152601d60005260089091529051611c9e917f103255ffe274dc2acf72b5305eaa32de1b2a3ce1e49af62b6d4c6ca9993c9e1691612d8e565b50604080516004815260248101909152602080820180516001600160e01b031663eaad1b3b60e01b178152601e60005260089091529051611d00917f8ff154b69b3b40c11effaf182586e40eb0e8eab5c2d51945cbe34b1b0bcf6e2891612d8e565b50604080516004815260248101909152602080820180516001600160e01b03166324b5a44360e11b178152601f60005260089091529051611d62917f3d4691043262bb71b358bddc6f01f8c4de71fc1f1a1b51e3a78463b85cab661e91612d8e565b50604080516004815260248101909152602080820180516001600160e01b03166352931d5160e11b178152600082905260089091529051611dc4917f67c7b623d08894662a80b2d62b2359114b69172cd083a38f4bea1a9a8dcc7eb891612d8e565b50604080516004815260248101909152602080820180516001600160e01b0316633dc800db60e21b178152602160005260089091529051611e26917f1e00437c059ded11d56fbc0f9acb2b99126636f749097c5c8224b228fcea6fe191612d8e565b50565b60066020526000908152604090205481565b60076020526000908152604090205481565b5050505050505050505050565b6001546001600160a01b031681565b600054604080516227050b60e31b81526123ab60f11b600482015290516001600160a01b039092169133918391630138285891602480820192602092909190829003018186803b158015611ebc57600080fd5b505afa158015611ed0573d6000803e3d6000fd5b505050506040513d6020811015611ee657600080fd5b50516001600160a01b031614611f34576040805162461bcd60e51b815260206004820152600e60248201526d139bdd08185d5d1a1bdc9a5e995960921b604482015290519081900360640190fd5b60648911158015611f46575060648a11155b611f8c576040805162461bcd60e51b8152602060048201526012602482015271496e76616c69642070657263656e7461676560701b604482015290519081900360640190fd5b6108ab60f31b6001600160f01b03198516148015611fb157506001600160a01b038516155b80611fbd575060008251115b611fc657600080fd5b600183600381518110611fd557fe5b60200260200101511115612030576040805162461bcd60e51b815260206004820152601f60248201527f496e76616c6964207370656369616c207265736f6c7574696f6e20666c616700604482015290519081900360640190fd5b8260038151811061203d57fe5b6020026020010151600114156120635760028b1461205a57600080fd5b60009950600098505b6120758c8c8c8c8c8c8c8c8c8c6129bb565b60008251118015612114575060408051600481526024810191829052835190918491819060208401908083835b602083106120c15780518252601f1990920191602091820191016120a2565b51815160209384036101000a600019018019909216911617905260405191909301819003902091850180516001600160e01b03199093166001600160e01b03909316929092179091525050905160041490505b156121ca5760408051600481526024810191829052835190918491819060208401908083835b602083106121595780518252601f19909201916020918201910161213a565b51815160001960209485036101000a810191821691199290921617909152604080519590930185900390942087820180516001600160e01b03166001600160e01b0319909216919091178152600454909401600090815260089091522094516121c8959450919250612d8e9050565b505b505050505050505050505050565b600054604080516227050b60e31b81526123ab60f11b600482015290516001600160a01b039092169133918391630138285891602480820192602092909190829003018186803b15801561222b57600080fd5b505afa15801561223f573d6000803e3d6000fd5b505050506040513d602081101561225557600080fd5b50516001600160a01b0316146122a3576040805162461bcd60e51b815260206004820152600e60248201526d139bdd08185d5d1a1bdc9a5e995960921b604482015290519081900360640190fd5b6122ad8b89612cb8565b6001146122f0576040805162461bcd60e51b815260206004820152600c60248201526b496e76616c696420526f6c6560a01b604482015290519081900360640190fd5b60648911158015612302575060648a11155b612348576040805162461bcd60e51b8152602060048201526012602482015271496e76616c69642070657263656e7461676560701b604482015290519081900360640190fd5b6108ab60f31b6001600160f01b0319851614801561236d57506001600160a01b038516155b80612379575060008251115b61238257600080fd5b60018360038151811061239157fe5b602002602001015111156123ec576040805162461bcd60e51b815260206004820152601f60248201527f496e76616c6964207370656369616c207265736f6c7574696f6e20666c616700604482015290519081900360640190fd5b826003815181106123f957fe5b60200260200101516001141561241f5760028b1461241657600080fd5b60009950600098505b60008d815260086020526040812061243691612e0c565b600082511180156124d5575060408051600481526024810191829052835190918491819060208401908083835b602083106124825780518252601f199092019160209182019101612463565b51815160209384036101000a600019018019909216911617905260405191909301819003902091850180516001600160e01b03199093166001600160e01b03909316929092179091525050905160041490505b156125925760408051600481526024810191829052835190918491819060208401908083835b6020831061251a5780518252601f1990920191602091820191016124fb565b6001836020036101000a03801982511681845116808217855250505050505090500191505060405180910390206001600160e01b0319166020820180516001600160e01b038381831617835250505050600860008f81526020019081526020016000209080519060200190612590929190612d8e565b505b8a60048e815481106125a057fe5b9060005260206000209060060201600001819055508960048e815481106125c357fe5b9060005260206000209060060201600101819055508660048e815481106125e657fe5b9060005260206000209060060201600401819055508760048e8154811061260957fe5b9060005260206000209060060201600301908051906020019061262d929190612e50565b508260008151811061263b57fe5b602002602001015160048e8154811061265057fe5b9060005260206000209060060201600501819055508860048e8154811061267357fe5b9060005260206000209060060201600201819055508260018151811061269557fe5b60209081029190910181015160008f815260059092526040909120908155600101805461ffff60a01b1916600160a01b60f087901c02176001600160a01b0319166001600160a01b0387161790558251839060029081106126f257fe5b6020026020010151600660008f8152602001908152602001600020819055508260038151811061271e57fe5b6020026020010151600760008f8152602001908152602001600020819055508c7f2a65d0fe76508fb4e604d4804927dce75b70f82e64a2025e3bffb2fc003418508d88604051808060200180602001838103835285818151815260200191508051906020019080838360005b838110156127a257818101518382015260200161278a565b50505050905090810190601f1680156127cf5780820380516001836020036101000a031916815260200191505b50838103825284518152845160209182019186019080838360005b838110156128025781810151838201526020016127ea565b50505050905090810190601f16801561282f5780820380516001836020036101000a031916815260200191505b5094505050505060405180910390a250505050505050505050505050565b565b6000546001600160a01b031681565b6000546001600160a01b031615612886576000546001600160a01b0316331461288657600080fd5b600080546001600160a01b039092166001600160a01b031992831681179091556001805483168217905560028054909216179055565b600081815260056020908152604080832060018082015491546008855283862080548551600261010095831615959095026000190190911693909304601f81018790048702840187019095528483528695869586956060958b956001600160a01b03831695600160a01b90930460f01b94909383918301828280156129825780601f1061295757610100808354040283529160200191612982565b820191906000526020600020905b81548152906001019060200180831161296557829003601f168201915b505050505090509450945094509450945091939590929450565b5050505050505050505050505050565b6002546001600160a01b031681565b6129c58987612cb8565b600114612a08576040805162461bcd60e51b815260206004820152600c60248201526b496e76616c696420526f6c6560a01b604482015290519081900360640190fd5b60046040518060c001604052808b81526020018a815260200189815260200188815260200187815260200183600081518110612a4057fe5b602090810291909101810151909152825460018181018086556000958652948390208451600690930201918255838301519082015560408301516002820155606083015180519192612a9a92600385019290910190612e50565b506080820151816004015560a0820151816005015550505060006001600480549050039050604051806060016040528083600181518110612ad757fe5b60209081029190910181015182526001600160a01b03808816838301526001600160f01b03198716604093840152600085815260058352839020845181559184015160019092018054949093015160f01c600160a01b0261ffff60a01b19929091166001600160a01b03199094169390931716919091179055815182906002908110612b5f57fe5b6020026020010151600660008381526020019081526020016000208190555081600381518110612b8b57fe5b60200260200101516007600083815260200190815260200160002081905550807f2a65d0fe76508fb4e604d4804927dce75b70f82e64a2025e3bffb2fc003418508c87604051808060200180602001838103835285818151815260200191508051906020019080838360005b83811015612c0f578181015183820152602001612bf7565b50505050905090810190601f168015612c3c5780820380516001836020036101000a031916815260200191505b50838103825284518152845160209182019186019080838360005b83811015612c6f578181015183820152602001612c57565b50505050905090810190601f168015612c9c5780820380516001836020036101000a031916815260200191505b5094505050505060405180910390a25050505050505050505050565b600080600360009054906101000a90046001600160a01b03166001600160a01b031663790e118c6040518163ffffffff1660e01b815260040160206040518083038186803b158015612d0957600080fd5b505afa158015612d1d573d6000803e3d6000fd5b505050506040513d6020811015612d3357600080fd5b50519050808410612d48576000915050612d88565b60005b8351811015612d815781848281518110612d6157fe5b602002602001015110612d7957600092505050612d88565b600101612d4b565b5060019150505b92915050565b828054600181600116156101000203166002900490600052602060002090601f016020900481019282601f10612dcf57805160ff1916838001178555612dfc565b82800160010185558215612dfc579182015b82811115612dfc578251825591602001919060010190612de1565b50612e08929150612e8a565b5090565b50805460018160011615610100020316600290046000825580601f10612e325750611e26565b601f016020900490600052602060002090810190611e269190612e8a565b828054828255906000526020600020908101928215612dfc5791602002820182811115612dfc578251825591602001919060010190612de1565b61115191905b80821115612e085760008155600101612e9056fe43617465676f727920616374696f6e2068617368657320616c72656164792075706461746564a265627a7a72315820b1db9eac216cda5446a79a13983593c1788bfaae8045eb86eba5f6129a1acac264736f6c63430005110032",
  "linkReferences": {},
  "deployedLinkReferences": {}
}