{
  "_format": "hh-sol-artifact-1",
  "contractName": "QuotationData",
  "sourceName": "contracts/NexusMutual/modules/cover/QuotationData.sol",
  "abi": [
    {
      "inputs": [
        {
          "internalType": "address",
          "name": "_authQuoteAdd",
          "type": "address"
        },
        {
          "internalType": "address",
          "name": "_kycAuthAdd",
          "type": "address"
        }
      ],
      "payable": false,
      "stateMutability": "nonpayable",
      "type": "constructor"
    },
    {
      "anonymous": false,
      "inputs": [
        {
          "indexed": true,
          "internalType": "uint256",
          "name": "cid",
          "type": "uint256"
        },
        {
          "indexed": false,
          "internalType": "address",
          "name": "scAdd",
          "type": "address"
        },
        {
          "indexed": false,
          "internalType": "uint256",
          "name": "sumAssured",
          "type": "uint256"
        },
        {
          "indexed": false,
          "internalType": "uint256",
          "name": "expiry",
          "type": "uint256"
        },
        {
          "indexed": false,
          "internalType": "uint256",
          "name": "premium",
          "type": "uint256"
        },
        {
          "indexed": false,
          "internalType": "uint256",
          "name": "premiumNXM",
          "type": "uint256"
        },
        {
          "indexed": false,
          "internalType": "bytes4",
          "name": "curr",
          "type": "bytes4"
        }
      ],
      "name": "CoverDetailsEvent",
      "type": "event"
    },
    {
      "anonymous": false,
      "inputs": [
        {
          "indexed": true,
          "internalType": "uint256",
          "name": "cid",
          "type": "uint256"
        },
        {
          "indexed": false,
          "internalType": "uint8",
          "name": "statusNum",
          "type": "uint8"
        }
      ],
      "name": "CoverStatusEvent",
      "type": "event"
    },
    {
      "constant": false,
      "inputs": [
        {
          "internalType": "uint16",
          "name": "_coverPeriod",
          "type": "uint16"
        },
        {
          "internalType": "uint256",
          "name": "_sumAssured",
          "type": "uint256"
        },
        {
          "internalType": "address payable",
          "name": "_userAddress",
          "type": "address"
        },
        {
          "internalType": "bytes4",
          "name": "_currencyCode",
          "type": "bytes4"
        },
        {
          "internalType": "address",
          "name": "_scAddress",
          "type": "address"
        },
        {
          "internalType": "uint256",
          "name": "premium",
          "type": "uint256"
        },
        {
          "internalType": "uint256",
          "name": "premiumNXM",
          "type": "uint256"
        }
      ],
      "name": "addCover",
      "outputs": [],
      "payable": false,
      "stateMutability": "nonpayable",
      "type": "function"
    },
    {
      "constant": false,
      "inputs": [
        {
          "internalType": "address payable",
          "name": "from",
          "type": "address"
        },
        {
          "internalType": "address",
          "name": "scAddress",
          "type": "address"
        },
        {
          "internalType": "bytes4",
          "name": "coverCurr",
          "type": "bytes4"
        },
        {
          "internalType": "uint256[]",
          "name": "coverDetails",
          "type": "uint256[]"
        },
        {
          "internalType": "uint16",
          "name": "coverPeriod",
          "type": "uint16"
        }
      ],
      "name": "addHoldCover",
      "outputs": [],
      "payable": false,
      "stateMutability": "nonpayable",
      "type": "function"
    },
    {
      "constant": false,
      "inputs": [
        {
          "internalType": "bytes4",
          "name": "_curr",
          "type": "bytes4"
        },
        {
          "internalType": "uint256",
          "name": "_amount",
          "type": "uint256"
        }
      ],
      "name": "addInTotalSumAssured",
      "outputs": [],
      "payable": false,
      "stateMutability": "nonpayable",
      "type": "function"
    },
    {
      "constant": false,
      "inputs": [
        {
          "internalType": "address",
          "name": "_add",
          "type": "address"
        },
        {
          "internalType": "bytes4",
          "name": "_curr",
          "type": "bytes4"
        },
        {
          "internalType": "uint256",
          "name": "_amount",
          "type": "uint256"
        }
      ],
      "name": "addInTotalSumAssuredSC",
      "outputs": [],
      "payable": false,
      "stateMutability": "nonpayable",
      "type": "function"
    },
    {
      "constant": true,
      "inputs": [],
      "name": "authQuoteEngine",
      "outputs": [
        {
          "internalType": "address",
          "name": "",
          "type": "address"
        }
      ],
      "payable": false,
      "stateMutability": "view",
      "type": "function"
    },
    {
      "constant": false,
      "inputs": [
        {
          "internalType": "address",
          "name": "_add",
          "type": "address"
        }
      ],
      "name": "changeAuthQuoteEngine",
      "outputs": [],
      "payable": false,
      "stateMutability": "nonpayable",
      "type": "function"
    },
    {
      "constant": false,
      "inputs": [
        {
          "internalType": "uint256",
          "name": "_cid",
          "type": "uint256"
        },
        {
          "internalType": "uint8",
          "name": "_stat",
          "type": "uint8"
        }
      ],
      "name": "changeCoverStatusNo",
      "outputs": [],
      "payable": false,
      "stateMutability": "nonpayable",
      "type": "function"
    },
    {
      "constant": false,
      "inputs": [],
      "name": "changeDependentContractAddress",
      "outputs": [],
      "payable": false,
      "stateMutability": "nonpayable",
      "type": "function"
    },
    {
      "constant": false,
      "inputs": [
        {
          "internalType": "address",
          "name": "_masterAddress",
          "type": "address"
        }
      ],
      "name": "changeMasterAddress",
      "outputs": [],
      "payable": false,
      "stateMutability": "nonpayable",
      "type": "function"
    },
    {
      "constant": true,
      "inputs": [
        {
          "internalType": "uint256",
          "name": "",
          "type": "uint256"
        }
      ],
      "name": "coverStatus",
      "outputs": [
        {
          "internalType": "uint8",
          "name": "",
          "type": "uint8"
        }
      ],
      "payable": false,
      "stateMutability": "view",
      "type": "function"
    },
    {
      "constant": true,
      "inputs": [
        {
          "internalType": "address",
          "name": "_add",
          "type": "address"
        }
      ],
      "name": "getAllCoversOfUser",
      "outputs": [
        {
          "internalType": "uint256[]",
          "name": "allCover",
          "type": "uint256[]"
        }
      ],
      "payable": false,
      "stateMutability": "view",
      "type": "function"
    },
    {
      "constant": true,
      "inputs": [],
      "name": "getAuthQuoteEngine",
      "outputs": [
        {
          "internalType": "address",
          "name": "_add",
          "type": "address"
        }
      ],
      "payable": false,
      "stateMutability": "view",
      "type": "function"
    },
    {
      "constant": true,
      "inputs": [
        {
          "internalType": "uint256",
          "name": "_cid",
          "type": "uint256"
        }
      ],
      "name": "getCoverDetailsByCoverID1",
      "outputs": [
        {
          "internalType": "uint256",
          "name": "cid",
          "type": "uint256"
        },
        {
          "internalType": "address",
          "name": "_memberAddress",
          "type": "address"
        },
        {
          "internalType": "address",
          "name": "_scAddress",
          "type": "address"
        },
        {
          "internalType": "bytes4",
          "name": "_currencyCode",
          "type": "bytes4"
        },
        {
          "internalType": "uint256",
          "name": "_sumAssured",
          "type": "uint256"
        },
        {
          "internalType": "uint256",
          "name": "premiumNXM",
          "type": "uint256"
        }
      ],
      "payable": false,
      "stateMutability": "view",
      "type": "function"
    },
    {
      "constant": true,
      "inputs": [
        {
          "internalType": "uint256",
          "name": "_cid",
          "type": "uint256"
        }
      ],
      "name": "getCoverDetailsByCoverID2",
      "outputs": [
        {
          "internalType": "uint256",
          "name": "cid",
          "type": "uint256"
        },
        {
          "internalType": "uint8",
          "name": "status",
          "type": "uint8"
        },
        {
          "internalType": "uint256",
          "name": "sumAssured",
          "type": "uint256"
        },
        {
          "internalType": "uint16",
          "name": "coverPeriod",
          "type": "uint16"
        },
        {
          "internalType": "uint256",
          "name": "validUntil",
          "type": "uint256"
        }
      ],
      "payable": false,
      "stateMutability": "view",
      "type": "function"
    },
    {
      "constant": true,
      "inputs": [],
      "name": "getCoverLength",
      "outputs": [
        {
          "internalType": "uint256",
          "name": "len",
          "type": "uint256"
        }
      ],
      "payable": false,
      "stateMutability": "view",
      "type": "function"
    },
    {
      "constant": true,
      "inputs": [
        {
          "internalType": "uint256",
          "name": "_cid",
          "type": "uint256"
        }
      ],
      "name": "getCoverMemberAddress",
      "outputs": [
        {
          "internalType": "address payable",
          "name": "_add",
          "type": "address"
        }
      ],
      "payable": false,
      "stateMutability": "view",
      "type": "function"
    },
    {
      "constant": true,
      "inputs": [
        {
          "internalType": "uint256",
          "name": "_cid",
          "type": "uint256"
        }
      ],
      "name": "getCoverPeriod",
      "outputs": [
        {
          "internalType": "uint32",
          "name": "cp",
          "type": "uint32"
        }
      ],
      "payable": false,
      "stateMutability": "view",
      "type": "function"
    },
    {
      "constant": true,
      "inputs": [
        {
          "internalType": "uint256",
          "name": "_cid",
          "type": "uint256"
        }
      ],
      "name": "getCoverPremiumNXM",
      "outputs": [
        {
          "internalType": "uint256",
          "name": "_premiumNXM",
          "type": "uint256"
        }
      ],
      "payable": false,
      "stateMutability": "view",
      "type": "function"
    },
    {
      "constant": true,
      "inputs": [
        {
          "internalType": "uint256",
          "name": "_cid",
          "type": "uint256"
        }
      ],
      "name": "getCoverStatusNo",
      "outputs": [
        {
          "internalType": "uint8",
          "name": "",
          "type": "uint8"
        }
      ],
      "payable": false,
      "stateMutability": "view",
      "type": "function"
    },
    {
      "constant": true,
      "inputs": [
        {
          "internalType": "uint256",
          "name": "_cid",
          "type": "uint256"
        }
      ],
      "name": "getCoverSumAssured",
      "outputs": [
        {
          "internalType": "uint256",
          "name": "sa",
          "type": "uint256"
        }
      ],
      "payable": false,
      "stateMutability": "view",
      "type": "function"
    },
    {
      "constant": true,
      "inputs": [
        {
          "internalType": "uint256",
          "name": "_cid",
          "type": "uint256"
        }
      ],
      "name": "getCurrencyOfCover",
      "outputs": [
        {
          "internalType": "bytes4",
          "name": "curr",
          "type": "bytes4"
        }
      ],
      "payable": false,
      "stateMutability": "view",
      "type": "function"
    },
    {
      "constant": true,
      "inputs": [
        {
          "internalType": "uint256",
          "name": "_hcid",
          "type": "uint256"
        }
      ],
      "name": "getHoldedCoverDetailsByID1",
      "outputs": [
        {
          "internalType": "uint256",
          "name": "hcid",
          "type": "uint256"
        },
        {
          "internalType": "address",
          "name": "scAddress",
          "type": "address"
        },
        {
          "internalType": "bytes4",
          "name": "coverCurr",
          "type": "bytes4"
        },
        {
          "internalType": "uint16",
          "name": "coverPeriod",
          "type": "uint16"
        }
      ],
      "payable": false,
      "stateMutability": "view",
      "type": "function"
    },
    {
      "constant": true,
      "inputs": [
        {
          "internalType": "uint256",
          "name": "_hcid",
          "type": "uint256"
        }
      ],
      "name": "getHoldedCoverDetailsByID2",
      "outputs": [
        {
          "internalType": "uint256",
          "name": "hcid",
          "type": "uint256"
        },
        {
          "internalType": "address payable",
          "name": "memberAddress",
          "type": "address"
        },
        {
          "internalType": "uint256[]",
          "name": "coverDetails",
          "type": "uint256[]"
        }
      ],
      "payable": false,
      "stateMutability": "view",
      "type": "function"
    },
    {
      "constant": true,
      "inputs": [],
      "name": "getProductDetails",
      "outputs": [
        {
          "internalType": "uint256",
          "name": "_minDays",
          "type": "uint256"
        },
        {
          "internalType": "uint256",
          "name": "_pm",
          "type": "uint256"
        },
        {
          "internalType": "uint256",
          "name": "_stl",
          "type": "uint256"
        },
        {
          "internalType": "uint256",
          "name": "_stlp",
          "type": "uint256"
        }
      ],
      "payable": false,
      "stateMutability": "view",
      "type": "function"
    },
    {
      "constant": true,
      "inputs": [
        {
          "internalType": "bytes4",
          "name": "_curr",
          "type": "bytes4"
        }
      ],
      "name": "getTotalSumAssured",
      "outputs": [
        {
          "internalType": "uint256",
          "name": "amount",
          "type": "uint256"
        }
      ],
      "payable": false,
      "stateMutability": "view",
      "type": "function"
    },
    {
      "constant": true,
      "inputs": [
        {
          "internalType": "address",
          "name": "_add",
          "type": "address"
        },
        {
          "internalType": "bytes4",
          "name": "_curr",
          "type": "bytes4"
        }
      ],
      "name": "getTotalSumAssuredSC",
      "outputs": [
        {
          "internalType": "uint256",
          "name": "amount",
          "type": "uint256"
        }
      ],
      "payable": false,
      "stateMutability": "view",
      "type": "function"
    },
    {
      "constant": true,
      "inputs": [
        {
          "internalType": "bytes8",
          "name": "code",
          "type": "bytes8"
        }
      ],
      "name": "getUintParameters",
      "outputs": [
        {
          "internalType": "bytes8",
          "name": "codeVal",
          "type": "bytes8"
        },
        {
          "internalType": "uint256",
          "name": "val",
          "type": "uint256"
        }
      ],
      "payable": false,
      "stateMutability": "view",
      "type": "function"
    },
    {
      "constant": true,
      "inputs": [
        {
          "internalType": "address",
          "name": "_add",
          "type": "address"
        }
      ],
      "name": "getUserCoverLength",
      "outputs": [
        {
          "internalType": "uint256",
          "name": "len",
          "type": "uint256"
        }
      ],
      "payable": false,
      "stateMutability": "view",
      "type": "function"
    },
    {
      "constant": true,
      "inputs": [
        {
          "internalType": "address",
          "name": "_add",
          "type": "address"
        },
        {
          "internalType": "uint256",
          "name": "index",
          "type": "uint256"
        }
      ],
      "name": "getUserHoldedCoverByIndex",
      "outputs": [
        {
          "internalType": "uint256",
          "name": "",
          "type": "uint256"
        }
      ],
      "payable": false,
      "stateMutability": "view",
      "type": "function"
    },
    {
      "constant": true,
      "inputs": [
        {
          "internalType": "address",
          "name": "_add",
          "type": "address"
        }
      ],
      "name": "getUserHoldedCoverLength",
      "outputs": [
        {
          "internalType": "uint256",
          "name": "",
          "type": "uint256"
        }
      ],
      "payable": false,
      "stateMutability": "view",
      "type": "function"
    },
    {
      "constant": true,
      "inputs": [
        {
          "internalType": "uint256",
          "name": "_cid",
          "type": "uint256"
        }
      ],
      "name": "getValidityOfCover",
      "outputs": [
        {
          "internalType": "uint256",
          "name": "date",
          "type": "uint256"
        }
      ],
      "payable": false,
      "stateMutability": "view",
      "type": "function"
    },
    {
      "constant": true,
      "inputs": [
        {
          "internalType": "uint256",
          "name": "_cid",
          "type": "uint256"
        }
      ],
      "name": "getscAddressOfCover",
      "outputs": [
        {
          "internalType": "uint256",
          "name": "",
          "type": "uint256"
        },
        {
          "internalType": "address",
          "name": "",
          "type": "address"
        }
      ],
      "payable": false,
      "stateMutability": "view",
      "type": "function"
    },
    {
      "constant": true,
      "inputs": [
        {
          "internalType": "uint256",
          "name": "",
          "type": "uint256"
        }
      ],
      "name": "holdedCoverIDStatus",
      "outputs": [
        {
          "internalType": "uint256",
          "name": "",
          "type": "uint256"
        }
      ],
      "payable": false,
      "stateMutability": "view",
      "type": "function"
    },
    {
      "constant": true,
      "inputs": [],
      "name": "kycAuthAddress",
      "outputs": [
        {
          "internalType": "address",
          "name": "",
          "type": "address"
        }
      ],
      "payable": false,
      "stateMutability": "view",
      "type": "function"
    },
    {
      "constant": true,
      "inputs": [],
      "name": "minDays",
      "outputs": [
        {
          "internalType": "uint256",
          "name": "",
          "type": "uint256"
        }
      ],
      "payable": false,
      "stateMutability": "view",
      "type": "function"
    },
    {
      "constant": true,
      "inputs": [],
      "name": "ms",
      "outputs": [
        {
          "internalType": "contract INXMMaster",
          "name": "",
          "type": "address"
        }
      ],
      "payable": false,
      "stateMutability": "view",
      "type": "function"
    },
    {
      "constant": true,
      "inputs": [],
      "name": "nxMasterAddress",
      "outputs": [
        {
          "internalType": "address",
          "name": "",
          "type": "address"
        }
      ],
      "payable": false,
      "stateMutability": "view",
      "type": "function"
    },
    {
      "constant": true,
      "inputs": [],
      "name": "pm",
      "outputs": [
        {
          "internalType": "uint256",
          "name": "",
          "type": "uint256"
        }
      ],
      "payable": false,
      "stateMutability": "view",
      "type": "function"
    },
    {
      "constant": true,
      "inputs": [
        {
          "internalType": "address",
          "name": "",
          "type": "address"
        }
      ],
      "name": "refundEligible",
      "outputs": [
        {
          "internalType": "bool",
          "name": "",
          "type": "bool"
        }
      ],
      "payable": false,
      "stateMutability": "view",
      "type": "function"
    },
    {
      "constant": false,
      "inputs": [
        {
          "internalType": "uint256",
          "name": "holdedCoverID",
          "type": "uint256"
        },
        {
          "internalType": "uint256",
          "name": "status",
          "type": "uint256"
        }
      ],
      "name": "setHoldedCoverIDStatus",
      "outputs": [],
      "payable": false,
      "stateMutability": "nonpayable",
      "type": "function"
    },
    {
      "constant": false,
      "inputs": [
        {
          "internalType": "address",
          "name": "_add",
          "type": "address"
        }
      ],
      "name": "setKycAuthAddress",
      "outputs": [],
      "payable": false,
      "stateMutability": "nonpayable",
      "type": "function"
    },
    {
      "constant": false,
      "inputs": [
        {
          "internalType": "address",
          "name": "_add",
          "type": "address"
        },
        {
          "internalType": "bool",
          "name": "status",
          "type": "bool"
        }
      ],
      "name": "setRefundEligible",
      "outputs": [],
      "payable": false,
      "stateMutability": "nonpayable",
      "type": "function"
    },
    {
      "constant": false,
      "inputs": [
        {
          "internalType": "uint256",
          "name": "_timestamp",
          "type": "uint256"
        }
      ],
      "name": "setTimestampRepeated",
      "outputs": [],
      "payable": false,
      "stateMutability": "nonpayable",
      "type": "function"
    },
    {
      "constant": true,
      "inputs": [],
      "name": "stl",
      "outputs": [
        {
          "internalType": "uint256",
          "name": "",
          "type": "uint256"
        }
      ],
      "payable": false,
      "stateMutability": "view",
      "type": "function"
    },
    {
      "constant": true,
      "inputs": [],
      "name": "stlp",
      "outputs": [
        {
          "internalType": "uint256",
          "name": "",
          "type": "uint256"
        }
      ],
      "payable": false,
      "stateMutability": "view",
      "type": "function"
    },
    {
      "constant": false,
      "inputs": [
        {
          "internalType": "bytes4",
          "name": "_curr",
          "type": "bytes4"
        },
        {
          "internalType": "uint256",
          "name": "_amount",
          "type": "uint256"
        }
      ],
      "name": "subFromTotalSumAssured",
      "outputs": [],
      "payable": false,
      "stateMutability": "nonpayable",
      "type": "function"
    },
    {
      "constant": false,
      "inputs": [
        {
          "internalType": "address",
          "name": "_add",
          "type": "address"
        },
        {
          "internalType": "bytes4",
          "name": "_curr",
          "type": "bytes4"
        },
        {
          "internalType": "uint256",
          "name": "_amount",
          "type": "uint256"
        }
      ],
      "name": "subFromTotalSumAssuredSC",
      "outputs": [],
      "payable": false,
      "stateMutability": "nonpayable",
      "type": "function"
    },
    {
      "constant": true,
      "inputs": [
        {
          "internalType": "uint256",
          "name": "",
          "type": "uint256"
        }
      ],
      "name": "timestampRepeated",
      "outputs": [
        {
          "internalType": "bool",
          "name": "",
          "type": "bool"
        }
      ],
      "payable": false,
      "stateMutability": "view",
      "type": "function"
    },
    {
      "constant": true,
      "inputs": [],
      "name": "tokensRetained",
      "outputs": [
        {
          "internalType": "uint256",
          "name": "",
          "type": "uint256"
        }
      ],
      "payable": false,
      "stateMutability": "view",
      "type": "function"
    },
    {
      "constant": false,
      "inputs": [
        {
          "internalType": "bytes8",
          "name": "code",
          "type": "bytes8"
        },
        {
          "internalType": "uint256",
          "name": "val",
          "type": "uint256"
        }
      ],
      "name": "updateUintParameters",
      "outputs": [],
      "payable": false,
      "stateMutability": "nonpayable",
      "type": "function"
    },
    {
      "constant": true,
      "inputs": [
        {
          "internalType": "address",
          "name": "",
          "type": "address"
        },
        {
          "internalType": "uint256",
          "name": "",
          "type": "uint256"
        }
      ],
      "name": "userHoldedCover",
      "outputs": [
        {
          "internalType": "uint256",
          "name": "",
          "type": "uint256"
        }
      ],
      "payable": false,
      "stateMutability": "view",
      "type": "function"
    }
  ],
  "bytecode": "0x60806040523480156200001157600080fd5b506040516200276238038062002762833981810160405260408110156200003757600080fd5b81019080805190602001909291908051906020019092919050505081600260006101000a8154816001600160a01b0302191690836001600160a01b0316021790555080601260006101000a8154816001600160a01b0302191690836001600160a01b03160217905550605a600d819055506064600e81905550601e600f81905550601e601081905550600a601181905550600b6040518060e0016040528060006001600160a01b03168152602001630307830360e41b6001600160e01b031916815260200160008152602001600061ffff1681526020016000815260200160006001600160a01b0316815260200160008152509080600181540180825580915050906001820390600052602060002090600602016000909192909190915060008201518160000160006101000a8154816001600160a01b0302191690836001600160a01b0316021790555060208201518160000160146101000a81548163ffffffff021916908360e01c02179055506040820151816001015560608201518160020160006101000a81548161ffff021916908361ffff1602179055506080820151816003015560a08201518160040160006101000a8154816001600160a01b0302191690836001600160a01b0316021790555060c082015181600501555050506060600160405190808252806020026020018201604052801562000245578160200160208202803883390190505b506040805160c08101825260008082526020808301828152938301828152606084018381526080850187815260a08601859052600c8054600181018083559190965286517fdf6966c971051c3d54ec59162606531493a51404a002842f56009d7e5cf4a8c7600590970296870190815597517fdf6966c971051c3d54ec59162606531493a51404a002842f56009d7e5cf4a8c8870180546001600160a01b03199081166001600160a01b039384161790915594517fdf6966c971051c3d54ec59162606531493a51404a002842f56009d7e5cf4a8c98801805495519590961691161763ffffffff60a01b1916600160a01b60e09490941c939093029290921790925590518051969750909593949362000386937fdf6966c971051c3d54ec59162606531493a51404a002842f56009d7e5cf4a8ca01929190910190620003b1565b5060a091909101516004909101805461ffff191661ffff909216919091179055506200042192505050565b828054828255906000526020600020908101928215620003ef579160200282015b82811115620003ef578251825591602001919060010190620003d2565b50620003fd92915062000401565b5090565b6200041e91905b80821115620003fd576000815560010162000408565b90565b61233180620004316000396000f3fe608060405234801561001057600080fd5b50600436106102f15760003560e01c80638970cdff1161019d578063c60781bd116100e9578063e8d3ae9c116100a2578063f17a3bec1161007c578063f17a3bec14610b41578063f3ab26cc14610b49578063f63a87d414610b51578063fe7cfbfc14610b7f576102f1565b8063e8d3ae9c14610b05578063e8f5fb1c14610b0d578063f0bd022214610b15576102f1565b8063c60781bd14610995578063cc41241c146109bb578063d46655f414610a4c578063de75b5ea14610a72578063df09fea714610a98578063e2c2a5bb14610afd576102f1565b8063a0b2d57f11610156578063ae1c5eca11610130578063ae1c5eca14610918578063b1351bfd1461093e578063ba38de351461095b578063baaa46f914610978576102f1565b8063a0b2d57f146108b7578063a2c6bc25146108bf578063a2fd8262146108ec576102f1565b80638970cdff1461077f5780638b5722f4146107875780638ce80a65146107c15780638d16a1051461081b578063922fd67f146108595780639dd86e0f1461088a576102f1565b80634b2cc0a11161025c57806367157ff011610215578063811833a8116101ef578063811833a8146106e857806381d760ae1461071e57806383fa95851461075a57806384434b9f14610777576102f1565b806367157ff0146106a05780636e13d8c5146106a8578063711acf86146106cb576102f1565b80634b2cc0a1146105735780635444ca75146105a6578063544ef03d146105dc578063549a65f41461060257806360a230e7146106285780636122f84014610655576102f1565b80632ce65f5a116102ae5780632ce65f5a146104295780633327a2fa146104315780633994b3d51461047f5780633c2d4daf146104bb5780633d5732a3146104f45780633f77ea651461051b576102f1565b80630ea9c984146102f65780631407264b146103005780631ce48f3d1461032657806323bc839b1461035557806328111dd814610383578063292ad50a1461038b575b600080fd5b6102fe610bf5565b005b6102fe6004803603602081101561031657600080fd5b50356001600160a01b0316610bf7565b6103436004803603602081101561033c57600080fd5b5035610c99565b60408051918252519081900360200190f35b61035d610cc1565b604080519485526020850193909352838301919091526060830152519081900360800190f35b610343610cd5565b6102fe600480360360a08110156103a157600080fd5b6001600160a01b0382358116926020810135909116916001600160e01b031960408301351691908101906080810160608201356401000000008111156103e657600080fd5b8201836020820111156103f857600080fd5b8035906020019184602083028401116401000000008311171561041a57600080fd5b91935091503561ffff16610cdb565b610343610eed565b61044e6004803603602081101561044757600080fd5b5035610ef3565b6040805195865260ff90941660208601528484019290925261ffff1660608401526080830152519081900360a00190f35b6102fe6004803603606081101561049557600080fd5b506001600160a01b03813516906001600160e01b03196020820135169060400135610f91565b6104d8600480360360208110156104d157600080fd5b5035611087565b604080516001600160a01b039092168252519081900360200190f35b6103436004803603602081101561050a57600080fd5b50356001600160e01b0319166110b6565b6105386004803603602081101561053157600080fd5b50356110d2565b604080519485526001600160a01b0390931660208501526001600160e01b03199091168383015261ffff166060830152519081900360800190f35b6105906004803603602081101561058957600080fd5b503561116c565b6040805160ff9092168252519081900360200190f35b610343600480360360408110156105bc57600080fd5b5080356001600160a01b031690602001356001600160e01b031916611181565b610343600480360360208110156105f257600080fd5b50356001600160a01b03166111b3565b6102fe6004803603602081101561061857600080fd5b50356001600160a01b03166111ce565b6102fe6004803603604081101561063e57600080fd5b506001600160e01b03198135169060200135611270565b61067c6004803603602081101561066b57600080fd5b50356001600160c01b03191661133b565b604080516001600160c01b0319909316835260208301919091528051918290030190f35b6103436113eb565b6102fe600480360360408110156106be57600080fd5b50803590602001356113f2565b610343600480360360208110156106e157600080fd5b5035611484565b610705600480360360208110156106fe57600080fd5b50356114ac565b6040805163ffffffff9092168252519081900360200190f35b6102fe6004803603606081101561073457600080fd5b506001600160a01b03813516906001600160e01b031960208201351690604001356114d9565b6102fe6004803603602081101561077057600080fd5b5035611597565b6104d8611632565b610343611641565b6107a46004803603602081101561079d57600080fd5b5035611647565b604080516001600160e01b03199092168252519081900360200190f35b6102fe600480360360e08110156107d757600080fd5b5061ffff813516906020810135906001600160a01b0360408201358116916001600160e01b0319606082013516916080820135169060a08101359060c00135611677565b6108386004803603602081101561083157600080fd5b503561191b565b604080519283526001600160a01b0390911660208301528051918290030190f35b6108766004803603602081101561086f57600080fd5b5035611953565b604080519115158252519081900360200190f35b6102fe600480360360408110156108a057600080fd5b506001600160c01b03198135169060200135611968565b6104d8611adf565b6102fe600480360360408110156108d557600080fd5b506001600160e01b03198135169060200135611aee565b6103436004803603604081101561090257600080fd5b506001600160a01b038135169060200135611b98565b6102fe6004803603604081101561092e57600080fd5b508035906020013560ff16611bc6565b6105906004803603602081101561095457600080fd5b5035611c9e565b6103436004803603602081101561097157600080fd5b5035611cb3565b6103436004803603602081101561098e57600080fd5b5035611cdb565b610343600480360360208110156109ab57600080fd5b50356001600160a01b0316611ced565b6109d8600480360360208110156109d157600080fd5b5035611d08565b60405180848152602001836001600160a01b03166001600160a01b0316815260200180602001828103825283818151815260200191508051906020019060200280838360005b83811015610a36578181015183820152602001610a1e565b5050505090500194505050505060405180910390f35b6102fe60048036036020811015610a6257600080fd5b50356001600160a01b0316611dbd565b61087660048036036020811015610a8857600080fd5b50356001600160a01b0316611e46565b610ab560048036036020811015610aae57600080fd5b5035611e5b565b604080519687526001600160a01b03958616602088015293909416858401526001600160e01b03199091166060850152608084015260a0830191909152519081900360c00190f35b6104d8611f42565b6104d8611f51565b610343611f60565b61034360048036036040811015610b2b57600080fd5b506001600160a01b038135169060200135611f66565b6104d8611f9e565b610343611fad565b6102fe60048036036040811015610b6757600080fd5b506001600160a01b0381351690602001351515611fb3565b610ba560048036036020811015610b9557600080fd5b50356001600160a01b031661205e565b60408051602080825283518183015283519192839290830191858101910280838360005b83811015610be1578181015183820152602001610bc9565b505050509050019250505060405180910390f35b565b600054604080516323c5b10760e21b815233600482015290516001600160a01b0390921691638f16c41c91602480820192602092909190829003018186803b158015610c4257600080fd5b505afa158015610c56573d6000803e3d6000fd5b505050506040513d6020811015610c6c57600080fd5b5051610c7757600080fd5b600280546001600160a01b0319166001600160a01b0392909216919091179055565b6000600b8281548110610ca857fe5b9060005260206000209060060201600101549050919050565b601054600f54600e54600d54929391929091565b600e5481565b600054604080516323c5b10760e21b815233600482015290516001600160a01b0390921691638f16c41c91602480820192602092909190829003018186803b158015610d2657600080fd5b505afa158015610d3a573d6000803e3d6000fd5b505050506040513d6020811015610d5057600080fd5b5051610d5b57600080fd5b600c5460016009600083815260200190815260200160002081905550600c6040518060c00160405280838152602001896001600160a01b03168152602001886001600160a01b03168152602001876001600160e01b0319168152602001868680806020026020016040519081016040528093929190818152602001838360200280828437600092018290525093855250505061ffff8616602092830152835460018181018087559583529183902084516005909202019081558383015191810180546001600160a01b039384166001600160a01b0319918216179091556040850151600283018054606088015160e01c600160a01b0263ffffffff60a01b19939096169316929092171692909217909155608083015180519192610e8792600385019290910190612276565b5060a091909101516004909101805461ffff191661ffff909216919091179055506001600160a01b0387166000908152600560205260409020600c54610ece9060016120ca565b8154600181018355600092835260209092209091015550505050505050565b600d5481565b600081815260086020526040812054600b80548392839283928392889260ff9091169183908110610f2057fe5b906000526020600020906006020160010154600b8981548110610f3f57fe5b906000526020600020906006020160020160009054906101000a900461ffff16600b8a81548110610f6c57fe5b9060005260206000209060060201600301549450945094509450945091939590929450565b600054604080516323c5b10760e21b815233600482015290516001600160a01b0390921691638f16c41c91602480820192602092909190829003018186803b158015610fdc57600080fd5b505afa158015610ff0573d6000803e3d6000fd5b505050506040513d602081101561100657600080fd5b505161101157600080fd5b6001600160a01b03831660009081526007602090815260408083206001600160e01b03198616845290915290205461104f908263ffffffff61211316565b6001600160a01b0390931660009081526007602090815260408083206001600160e01b03199095168352939052919091209190915550565b6000600b828154811061109657fe5b60009182526020909120600690910201546001600160a01b031692915050565b6001600160e01b03191660009081526003602052604090205490565b60008060008084600c86815481106110e657fe5b906000526020600020906005020160020160009054906101000a90046001600160a01b0316600c878154811061111857fe5b906000526020600020906005020160020160149054906101000a900460e01b600c888154811061114457fe5b60009182526020909120600590910201600401549298919750955061ffff9091169350915050565b60009081526008602052604090205460ff1690565b6001600160a01b0390911660009081526007602090815260408083206001600160e01b03199094168352929052205490565b6001600160a01b031660009081526004602052604090205490565b600054604080516323c5b10760e21b815233600482015290516001600160a01b0390921691638f16c41c91602480820192602092909190829003018186803b15801561121957600080fd5b505afa15801561122d573d6000803e3d6000fd5b505050506040513d602081101561124357600080fd5b505161124e57600080fd5b601280546001600160a01b0319166001600160a01b0392909216919091179055565b600054604080516323c5b10760e21b815233600482015290516001600160a01b0390921691638f16c41c91602480820192602092909190829003018186803b1580156112bb57600080fd5b505afa1580156112cf573d6000803e3d6000fd5b505050506040513d60208110156112e557600080fd5b50516112f057600080fd5b6001600160e01b0319821660009081526003602052604090205461131a908263ffffffff6120ca16565b6001600160e01b031990921660009081526003602052604090209190915550565b80600063053544c560e41b6001600160c01b0319831614156113605750600d546113e6565b6214d51360ea1b6001600160c01b0319841614156113815750600e546113e6565b61504d60f01b6001600160c01b0319841614156113a15750600f546113e6565b66145553d352539160ca1b6001600160c01b0319841614156113c657506010546113e6565b6551554f544f4b60d01b6001600160c01b0319841614156113e657506011545b915091565b600b545b90565b600054604080516323c5b10760e21b815233600482015290516001600160a01b0390921691638f16c41c91602480820192602092909190829003018186803b15801561143d57600080fd5b505afa158015611451573d6000803e3d6000fd5b505050506040513d602081101561146757600080fd5b505161147257600080fd5b60009182526009602052604090912055565b6000600b828154811061149357fe5b9060005260206000209060060201600301549050919050565b6000600b82815481106114bb57fe5b600091825260209091206002600690920201015461ffff1692915050565b600054604080516323c5b10760e21b815233600482015290516001600160a01b0390921691638f16c41c91602480820192602092909190829003018186803b15801561152457600080fd5b505afa158015611538573d6000803e3d6000fd5b505050506040513d602081101561154e57600080fd5b505161155957600080fd5b6001600160a01b03831660009081526007602090815260408083206001600160e01b03198616845290915290205461104f908263ffffffff6120ca16565b600054604080516323c5b10760e21b815233600482015290516001600160a01b0390921691638f16c41c91602480820192602092909190829003018186803b1580156115e257600080fd5b505afa1580156115f6573d6000803e3d6000fd5b505050506040513d602081101561160c57600080fd5b505161161757600080fd5b6000908152600a60205260409020805460ff19166001179055565b6012546001600160a01b031681565b600f5481565b6000600b828154811061165657fe5b6000918252602090912060069091020154600160a01b900460e01b92915050565b600054604080516323c5b10760e21b815233600482015290516001600160a01b0390921691638f16c41c91602480820192602092909190829003018186803b1580156116c257600080fd5b505afa1580156116d6573d6000803e3d6000fd5b505050506040513d60208110156116ec57600080fd5b50516116f757600080fd5b600061172061171361ffff8a166201518063ffffffff61216d16565b429063ffffffff61211316565b9050600b6040518060e00160405280886001600160a01b03168152602001876001600160e01b03191681526020018981526020018a61ffff168152602001838152602001866001600160a01b03168152602001848152509080600181540180825580915050906001820390600052602060002090600602016000909192909190915060008201518160000160006101000a8154816001600160a01b0302191690836001600160a01b0316021790555060208201518160000160146101000a81548163ffffffff021916908360e01c02179055506040820151816001015560608201518160020160006101000a81548161ffff021916908361ffff1602179055506080820151816003015560a08201518160040160006101000a8154816001600160a01b0302191690836001600160a01b0316021790555060c08201518160050155505050600061187f6001600b805490506120ca90919063ffffffff16565b6001600160a01b0380891660009081526004602090815260408083208054600181018255908452928290209092018490558151928916835282018b905281810185905260608201879052608082018690526001600160e01b0319891660a08301525191925082917f535c0318711210e1ce39e443c5948dd7fa396c2774d0949812fcb74800e227309181900360c00190a2505050505050505050565b60008082600b848154811061192c57fe5b60009182526020909120600460069092020101549092506001600160a01b03169050915091565b600a6020526000908152604090205460ff1681565b60005460408051632c1a733d60e11b815233600482015290516001600160a01b0390921691635834e67a91602480820192602092909190829003018186803b1580156119b357600080fd5b505afa1580156119c7573d6000803e3d6000fd5b505050506040513d60208110156119dd57600080fd5b50516119e857600080fd5b63053544c560e41b6001600160c01b031983161415611a0f57611a0a816121c6565b611adb565b6214d51360ea1b6001600160c01b031983161415611a3057611a0a816121cb565b61504d60f01b6001600160c01b031983161415611a5057611a0a816121d0565b66145553d352539160ca1b6001600160c01b031983161415611a7557611a0a816121d5565b6551554f544f4b60d01b6001600160c01b031983161415611a9957611a0a816121da565b6040805162461bcd60e51b8152602060048201526012602482015271496e76616c696420706172616d20636f646560701b604482015290519081900360640190fd5b5050565b6000546001600160a01b031681565b600054604080516323c5b10760e21b815233600482015290516001600160a01b0390921691638f16c41c91602480820192602092909190829003018186803b158015611b3957600080fd5b505afa158015611b4d573d6000803e3d6000fd5b505050506040513d6020811015611b6357600080fd5b5051611b6e57600080fd5b6001600160e01b0319821660009081526003602052604090205461131a908263ffffffff61211316565b60056020528160005260406000208181548110611bb157fe5b90600052602060002001600091509150505481565b600054604080516323c5b10760e21b815233600482015290516001600160a01b0390921691638f16c41c91602480820192602092909190829003018186803b158015611c1157600080fd5b505afa158015611c25573d6000803e3d6000fd5b505050506040513d6020811015611c3b57600080fd5b5051611c4657600080fd5b600082815260086020908152604091829020805460ff191660ff85169081179091558251908152915184927f7f1cec39abbda212a819b9165ccfc4064f73eb454b052a312807b2270067a53d92908290030190a25050565b60086020526000908152604090205460ff1681565b6000600b8281548110611cc257fe5b9060005260206000209060060201600501549050919050565b60096020526000908152604090205481565b6001600160a01b031660009081526005602052604090205490565b600080606083600c8581548110611d1b57fe5b906000526020600020906005020160010160009054906101000a90046001600160a01b0316600c8681548110611d4d57fe5b906000526020600020906005020160030180805480602002602001604051908101604052809291908181526020018280548015611da957602002820191906000526020600020905b815481526020019060010190808311611d95575b505050505090509250925092509193909250565b6000546001600160a01b031615611e1a576000546001600160a01b03163314611e1a576040805162461bcd60e51b815260206004820152600a6024820152692737ba1036b0b9ba32b960b11b604482015290519081900360640190fd5b600080546001600160a01b039092166001600160a01b0319928316811790915560018054909216179055565b60066020526000908152604090205460ff1681565b60008060008060008086600b8881548110611e7257fe5b6000918252602090912060069091020154600b80546001600160a01b03909216918a908110611e9d57fe5b906000526020600020906006020160040160009054906101000a90046001600160a01b0316600b8a81548110611ecf57fe5b906000526020600020906006020160000160149054906101000a900460e01b600b8b81548110611efb57fe5b906000526020600020906006020160010154600b8c81548110611f1a57fe5b6000918252602090912060056006909202010154949c939b5091995097509550909350915050565b6002546001600160a01b031681565b6002546001600160a01b031690565b60105481565b6001600160a01b0382166000908152600560205260408120805483908110611f8a57fe5b906000526020600020015490505b92915050565b6001546001600160a01b031681565b60115481565b600054604080516323c5b10760e21b815233600482015290516001600160a01b0390921691638f16c41c91602480820192602092909190829003018186803b158015611ffe57600080fd5b505afa158015612012573d6000803e3d6000fd5b505050506040513d602081101561202857600080fd5b505161203357600080fd5b6001600160a01b03919091166000908152600660205260409020805460ff1916911515919091179055565b6001600160a01b0381166000908152600460209081526040918290208054835181840281018401909452808452606093928301828280156120be57602002820191906000526020600020905b8154815260200190600101908083116120aa575b50505050509050919050565b600061210c83836040518060400160405280601e81526020017f536166654d6174683a207375627472616374696f6e206f766572666c6f7700008152506121df565b9392505050565b60008282018381101561210c576040805162461bcd60e51b815260206004820152601b60248201527f536166654d6174683a206164646974696f6e206f766572666c6f770000000000604482015290519081900360640190fd5b60008261217c57506000611f98565b8282028284828161218957fe5b041461210c5760405162461bcd60e51b81526004018080602001828103825260218152602001806122dc6021913960400191505060405180910390fd5b600d55565b600e55565b600f55565b601055565b601155565b6000818484111561226e5760405162461bcd60e51b81526004018080602001828103825283818151815260200191508051906020019080838360005b8381101561223357818101518382015260200161221b565b50505050905090810190601f1680156122605780820380516001836020036101000a031916815260200191505b509250505060405180910390fd5b505050900390565b8280548282559060005260206000209081019282156122b1579160200282015b828111156122b1578251825591602001919060010190612296565b506122bd9291506122c1565b5090565b6113ef91905b808211156122bd57600081556001016122c756fe536166654d6174683a206d756c7469706c69636174696f6e206f766572666c6f77a265627a7a723158203024b0d87edc59ad51ebf3372f4d02aab6d361e1a388d58f72ff8cc0f0bcd2ee64736f6c63430005110032",
  "linkReferences": {},
  "deployedLinkReferences": {}
}