{
  "_format": "hh-sol-artifact-1",
  "contractName": "Pool2",
  "sourceName": "contracts/NexusMutual/modules/capital/Pool2.sol",
  "abi": [
    {
      "inputs": [
        {
          "internalType": "address",
          "name": "_uniswapFactoryAdd",
          "type": "address"
        }
      ],
      "payable": false,
      "stateMutability": "nonpayable",
      "type": "constructor"
    },
    {
      "anonymous": false,
      "inputs": [
        {
          "indexed": false,
          "internalType": "bytes16",
          "name": "typeOf",
          "type": "bytes16"
        },
        {
          "indexed": false,
          "internalType": "bytes16",
          "name": "functionName",
          "type": "bytes16"
        }
      ],
      "name": "Liquidity",
      "type": "event"
    },
    {
      "anonymous": false,
      "inputs": [
        {
          "indexed": false,
          "internalType": "bytes4",
          "name": "iaCurr",
          "type": "bytes4"
        },
        {
          "indexed": false,
          "internalType": "uint256",
          "name": "tokenAmount",
          "type": "uint256"
        }
      ],
      "name": "Rebalancing",
      "type": "event"
    },
    {
      "payable": true,
      "stateMutability": "payable",
      "type": "fallback"
    },
    {
      "constant": true,
      "inputs": [
        {
          "internalType": "bytes4",
          "name": "_curr",
          "type": "bytes4"
        }
      ],
      "name": "_getCurrencyAssetsBalance",
      "outputs": [
        {
          "internalType": "uint256",
          "name": "caBalance",
          "type": "uint256"
        }
      ],
      "payable": false,
      "stateMutability": "view",
      "type": "function"
    },
    {
      "constant": false,
      "inputs": [],
      "name": "changeDependentContractAddress",
      "outputs": [],
      "payable": false,
      "stateMutability": "nonpayable",
      "type": "function"
    },
    {
      "constant": false,
      "inputs": [
        {
          "internalType": "address",
          "name": "_masterAddress",
          "type": "address"
        }
      ],
      "name": "changeMasterAddress",
      "outputs": [],
      "payable": false,
      "stateMutability": "nonpayable",
      "type": "function"
    },
    {
      "constant": false,
      "inputs": [
        {
          "internalType": "address",
          "name": "newFactoryAddress",
          "type": "address"
        }
      ],
      "name": "changeUniswapFactoryAddress",
      "outputs": [],
      "payable": false,
      "stateMutability": "nonpayable",
      "type": "function"
    },
    {
      "constant": false,
      "inputs": [],
      "name": "externalLiquidityTrade",
      "outputs": [],
      "payable": false,
      "stateMutability": "nonpayable",
      "type": "function"
    },
    {
      "constant": false,
      "inputs": [
        {
          "internalType": "bytes4",
          "name": "curr",
          "type": "bytes4"
        }
      ],
      "name": "internalLiquiditySwap",
      "outputs": [],
      "payable": false,
      "stateMutability": "nonpayable",
      "type": "function"
    },
    {
      "constant": true,
      "inputs": [],
      "name": "ms",
      "outputs": [
        {
          "internalType": "contract INXMMaster",
          "name": "",
          "type": "address"
        }
      ],
      "payable": false,
      "stateMutability": "view",
      "type": "function"
    },
    {
      "constant": true,
      "inputs": [],
      "name": "nxMasterAddress",
      "outputs": [
        {
          "internalType": "address",
          "name": "",
          "type": "address"
        }
      ],
      "payable": false,
      "stateMutability": "view",
      "type": "function"
    },
    {
      "constant": false,
      "inputs": [
        {
          "internalType": "bytes4[]",
          "name": "curr",
          "type": "bytes4[]"
        },
        {
          "internalType": "uint64[]",
          "name": "rate",
          "type": "uint64[]"
        },
        {
          "internalType": "uint64",
          "name": "date",
          "type": "uint64"
        },
        {
          "internalType": "bool",
          "name": "bit",
          "type": "bool"
        }
      ],
      "name": "saveIADetails",
      "outputs": [],
      "payable": false,
      "stateMutability": "nonpayable",
      "type": "function"
    },
    {
      "constant": false,
      "inputs": [],
      "name": "sendEther",
      "outputs": [],
      "payable": true,
      "stateMutability": "payable",
      "type": "function"
    },
    {
      "constant": true,
      "inputs": [],
      "name": "uniswapFactoryAddress",
      "outputs": [
        {
          "internalType": "address",
          "name": "",
          "type": "address"
        }
      ],
      "payable": false,
      "stateMutability": "view",
      "type": "function"
    },
    {
      "constant": false,
      "inputs": [
        {
          "internalType": "address payable",
          "name": "newPoolAddress",
          "type": "address"
        }
      ],
      "name": "upgradeInvestmentPool",
      "outputs": [],
      "payable": false,
      "stateMutability": "nonpayable",
      "type": "function"
    }
  ],
  "bytecode": "0x608060405234801561001057600080fd5b5060405162005530380380620055308339818101604052602081101561003557600080fd5b5051600680546001600160a01b039092166001600160a01b03199283168117909155600580549092161790556154bf80620000716000396000f3fe6080604052600436106100a75760003560e01c806383e4a6741161006457806383e4a6741461023e578063a0b2d57f14610284578063b19ab66d14610299578063d46655f4146102cc578063f17a3bec146102ff578063f720036c14610314576100a7565b80630e29df22146100a95780630ea9c984146100b15780632d9fa500146100c65780633655ac3c146100fa5780634a0d95d61461012b5780636dce9b3d1461020b575b005b6100a7610329565b3480156100bd57600080fd5b506100a761032b565b3480156100d257600080fd5b506100a7600480360360208110156100e957600080fd5b50356001600160e01b031916610565565b34801561010657600080fd5b5061010f61075b565b604080516001600160a01b039092168252519081900360200190f35b34801561013757600080fd5b506100a76004803603608081101561014e57600080fd5b81019060208101813564010000000081111561016957600080fd5b82018360208201111561017b57600080fd5b8035906020019184602083028401116401000000008311171561019d57600080fd5b9193909290916020810190356401000000008111156101bb57600080fd5b8201836020820111156101cd57600080fd5b803590602001918460208302840111640100000000831117156101ef57600080fd5b91935091506001600160401b038135169060200135151561076a565b34801561021757600080fd5b506100a76004803603602081101561022e57600080fd5b50356001600160a01b0316610c2a565b34801561024a57600080fd5b506102726004803603602081101561026157600080fd5b50356001600160e01b031916610ea2565b60408051918252519081900360200190f35b34801561029057600080fd5b5061010f610fd9565b3480156102a557600080fd5b506100a7600480360360208110156102bc57600080fd5b50356001600160a01b0316610fe8565b3480156102d857600080fd5b506100a7600480360360208110156102ef57600080fd5b50356001600160a01b0316611097565b34801561030b57600080fd5b5061010f611120565b34801561032057600080fd5b506100a761112f565b565b600054604080516323c5b10760e21b815233600482015290516001600160a01b0390921691638f16c41c91602480820192602092909190829003018186803b15801561037657600080fd5b505afa15801561038a573d6000803e3d6000fd5b505050506040513d60208110156103a057600080fd5b50516103ab57600080fd5b600054604080516227050b60e31b8152614d4360f01b600482015290516001600160a01b0390921691630138285891602480820192602092909190829003018186803b1580156103fa57600080fd5b505afa15801561040e573d6000803e3d6000fd5b505050506040513d602081101561042457600080fd5b5051600280546001600160a01b0319166001600160a01b03928316179055600054604080516227050b60e31b815261141160f21b6004820152905191909216916301382858916024808301926020929190829003018186803b15801561048957600080fd5b505afa15801561049d573d6000803e3d6000fd5b505050506040513d60208110156104b357600080fd5b5051600480546001600160a01b0319166001600160a01b03928316178155600054604080516227050b60e31b815261503160f01b9381019390935251921691630138285891602480820192602092909190829003018186803b15801561051857600080fd5b505afa15801561052c573d6000803e3d6000fd5b505050506040513d602081101561054257600080fd5b5051600380546001600160a01b0319166001600160a01b03909216919091179055565b600054604080516323c5b10760e21b815233600482015290516001600160a01b0390921691638f16c41c91602480820192602092909190829003018186803b1580156105b057600080fd5b505afa1580156105c4573d6000803e3d6000fd5b505050506040513d60208110156105da57600080fd5b50516105e557600080fd5b600654600160a01b900460ff1615610636576040805162461bcd60e51b815260206004820152600f60248201526e2932b2b73a3930b73a1031b0b6361760891b604482015290519081900360640190fd5b6006805460ff60a01b1916600160a01b17905560048054604080516377449c0b60e01b81526001600160e01b031985169381019390935251600092839283926001600160a01b03909116916377449c0b916024808301926060929190829003018186803b1580156106a657600080fd5b505afa1580156106ba573d6000803e3d6000fd5b505050506040513d60608110156106d057600080fd5b50602081015160409091015190925090506106ea84610ea2565b925061070d6002610701848463ffffffff6115b216565b9063ffffffff61161516565b831115610725576107208483838661166e565b610748565b610735828263ffffffff6115b216565b83101561074857610748848383866118a8565b50506006805460ff60a01b191690555050565b6006546001600160a01b031681565b6000809054906101000a90046001600160a01b03166001600160a01b031663ff0938a76040518163ffffffff1660e01b815260040160206040518083038186803b1580156107b757600080fd5b505afa1580156107cb573d6000803e3d6000fd5b505050506040513d60208110156107e157600080fd5b5051156107ed57600080fd5b600654600160a01b900460ff161561083e576040805162461bcd60e51b815260206004820152600f60248201526e2932b2b73a3930b73a1031b0b6361760891b604482015290519081900360640190fd5b6006805460ff60a01b1916600160a01b17905560048054604080516362ae372160e01b81523393810193909352516000928392839283926001600160a01b03909216916362ae3721916024808301926020929190829003018186803b1580156108a657600080fd5b505afa1580156108ba573d6000803e3d6000fd5b505050506040513d60208110156108d057600080fd5b50516108db57600080fd5b6109488a8a8080602002602001604051908101604052809392919081815260200183836020028082843760009201919091525050604080516020808e0282810182019093528d82529093508d92508c918291850190849080828437600092019190915250611c0b92505050565b6004805460408051632108255760e11b81526001600160e01b0319808916948201949094526001600160401b03808816602483015293861660448201528385166064820152928d1660848401525195995092975092955093506001600160a01b0316916342104aae9160a48082019260009290919082900301818387803b1580156109d257600080fd5b505af11580156109e6573d6000803e3d6000fd5b505060048054604080516352d0e20160e11b81526001600160401b038c1693810193909352516001600160a01b03909116935063a5a1c4029250602480830192600092919082900301818387803b158015610a4057600080fd5b505af1158015610a54573d6000803e3d6000fd5b508b925060009150505b81811015610b2e576004546001600160a01b0316637deb85768d8d84818110610a8357fe5b905060200201356001600160e01b0319168c8c85818110610aa057fe5b905060200201356001600160401b03166040518363ffffffff1660e01b815260040180836001600160e01b0319166001600160e01b0319168152602001826001600160401b0316815260200192505050600060405180830381600087803b158015610b0a57600080fd5b505af1158015610b1e573d6000803e3d6000fd5b505060019092019150610a5e9050565b508515610b3f57610b3f8584611e1e565b6003546004805460408051634c69d49760e01b815290516001600160a01b0394851694630a7000f094931692634c69d49792808201926020929091829003018186803b158015610b8e57600080fd5b505afa158015610ba2573d6000803e3d6000fd5b505050506040513d6020811015610bb857600080fd5b5051604080516001600160e01b031960e085901b168152600481019290925251602480830192600092919082900301818387803b158015610bf857600080fd5b505af1158015610c0c573d6000803e3d6000fd5b50506006805460ff60a01b1916905550505050505050505050505050565b600054604080516323c5b10760e21b815233600482015290516001600160a01b0390921691638f16c41c91602480820192602092909190829003018186803b158015610c7557600080fd5b505afa158015610c89573d6000803e3d6000fd5b505050506040513d6020811015610c9f57600080fd5b5051610caa57600080fd5b600654600160a01b900460ff1615610cfb576040805162461bcd60e51b815260206004820152600f60248201526e2932b2b73a3930b73a1031b0b6361760891b604482015290519081900360640190fd5b6006805460ff60a01b1916600160a01b1790556004805460408051637d03238f60e01b815290516000936001600160a01b0390931692637d03238f92808201926020929091829003018186803b158015610d5457600080fd5b505afa158015610d68573d6000803e3d6000fd5b505050506040513d6020811015610d7e57600080fd5b5051905060015b81816001600160401b03161015610e2f57600480546040805163dc68e16b60e01b81526001600160401b03851693810193909352516000926001600160a01b039092169163dc68e16b916024808301926020929190829003018186803b158015610dee57600080fd5b505afa158015610e02573d6000803e3d6000fd5b505050506040513d6020811015610e1857600080fd5b50519050610e2681856126c9565b50600101610d85565b504715610e91576000829050806001600160a01b0316630e29df22476040518263ffffffff1660e01b81526004016000604051808303818588803b158015610e7657600080fd5b505af1158015610e8a573d6000803e3d6000fd5b5050505050505b50506006805460ff60a01b19169055565b60006208aa8960eb1b6001600160e01b031983161415610ecf57506003546001600160a01b031631610fd4565b600480546040805163e3dee23960e01b81526001600160e01b0319861693810193909352516000926001600160a01b039092169163e3dee239916024808301926020929190829003018186803b158015610f2857600080fd5b505afa158015610f3c573d6000803e3d6000fd5b505050506040513d6020811015610f5257600080fd5b5051600354604080516370a0823160e01b81526001600160a01b0392831660048201529051929350908316916370a0823191602480820192602092909190829003018186803b158015610fa457600080fd5b505afa158015610fb8573d6000803e3d6000fd5b505050506040513d6020811015610fce57600080fd5b50519150505b919050565b6000546001600160a01b031681565b600054604080516323c5b10760e21b815233600482015290516001600160a01b0390921691638f16c41c91602480820192602092909190829003018186803b15801561103357600080fd5b505afa158015611047573d6000803e3d6000fd5b505050506040513d602081101561105d57600080fd5b505161106857600080fd5b600680546001600160a01b03199081166001600160a01b03938416179182905560058054929093169116179055565b6000546001600160a01b0316156110f4576000546001600160a01b031633146110f4576040805162461bcd60e51b815260206004820152600a6024820152692737ba1036b0b9ba32b960b11b604482015290519081900360640190fd5b600080546001600160a01b039092166001600160a01b0319928316811790915560018054909216179055565b6001546001600160a01b031681565b600054604080516323c5b10760e21b815233600482015290516001600160a01b0390921691638f16c41c91602480820192602092909190829003018186803b15801561117a57600080fd5b505afa15801561118e573d6000803e3d6000fd5b505050506040513d60208110156111a457600080fd5b50516111af57600080fd5b60048054604080516356571fc360e01b815290516000938493849384938493849384938493849384936001600160a01b031692630e412f5c9284926356571fc392808201926020929091829003018186803b15801561120d57600080fd5b505afa158015611221573d6000803e3d6000fd5b505050506040513d602081101561123757600080fd5b5051604080516001600160e01b031960e085901b1681526001600160401b039092166004830152516024808301926080929190829003018186803b15801561127e57600080fd5b505afa158015611292573d6000803e3d6000fd5b505050506040513d60808110156112a857600080fd5b50805160208083015160408085015160609095015160048054835163255f504960e01b81529351979f50959d506001600160401b039182169b50921698506000946001600160a01b039094169363255f504993828401939092829003018186803b15801561131557600080fd5b505afa158015611329573d6000803e3d6000fd5b505050506040513d602081101561133f57600080fd5b5051905060005b81816001600160401b031610156115a45760048054604080516303c40b1f60e41b81526001600160401b03851693810193909352516001600160a01b0390911691633c40b1f0916024808301926020929190829003018186803b1580156113ac57600080fd5b505afa1580156113c0573d6000803e3d6000fd5b505050506040513d60208110156113d657600080fd5b505160048054604080516377449c0b60e01b81526001600160e01b031985169381019390935251929d506001600160a01b0316916377449c0b91602480820192606092909190829003018186803b15801561143057600080fd5b505afa158015611444573d6000803e3d6000fd5b505050506040513d606081101561145a57600080fd5b50602081015160409091015190955093506114748b610ea2565b925061148b6002610701878763ffffffff6115b216565b8311156114dc576114c86114bb60026114af60036107018a8a63ffffffff6115b216565b9063ffffffff6128d216565b849063ffffffff61291416565b97506114d58b8b8a612956565b9b5061152d565b6114ec858563ffffffff6115b216565b83101561152d5761151d8361151160026114af60036107018b8b63ffffffff6115b216565b9063ffffffff61291416565b975061152a8b8a8a613a35565b9b505b8b1561159c57600360009054906101000a90046001600160a01b03166001600160a01b0316639c1fe9276040518163ffffffff1660e01b8152600401600060405180830381600087803b15801561158357600080fd5b505af1158015611597573d6000803e3d6000fd5b505050505b600101611346565b505050505050505050505050565b60008282018381101561160c576040805162461bcd60e51b815260206004820152601b60248201527f536166654d6174683a206164646974696f6e206f766572666c6f770000000000604482015290519081900360640190fd5b90505b92915050565b6000826116245750600061160f565b8282028284828161163157fe5b041461160c5760405162461bcd60e51b815260040180806020018281038252602181526020018061546a6021913960400191505060405180910390fd5b60048054604080516356571fc360e01b815290516000936001600160a01b0390931692630e412f5c9284926356571fc392828101926020929190829003018186803b1580156116bc57600080fd5b505afa1580156116d0573d6000803e3d6000fd5b505050506040513d60208110156116e657600080fd5b5051604080516001600160e01b031960e085901b1681526001600160401b039092166004830152516024808301926080929190829003018186803b15801561172d57600080fd5b505afa158015611741573d6000803e3d6000fd5b505050506040513d608081101561175757600080fd5b506040015190506001600160e01b0319858116908216141561183857600380546001600160a01b031690631fac40b49087906117b5906117a8906002906114af906107018c8c63ffffffff6115b216565b869063ffffffff61291416565b6040518363ffffffff1660e01b815260040180836001600160e01b0319166001600160e01b031916815260200182815260200192505050602060405180830381600087803b15801561180657600080fd5b505af115801561181a573d6000803e3d6000fd5b505050506040513d602081101561183057600080fd5b506118a19050565b600360009054906101000a90046001600160a01b03166001600160a01b0316639c1fe9276040518163ffffffff1660e01b8152600401600060405180830381600087803b15801561188857600080fd5b505af115801561189c573d6000803e3d6000fd5b505050505b5050505050565b60048054604080516356571fc360e01b8152905160009384936001600160a01b031692630e412f5c9284926356571fc392808201926020929091829003018186803b1580156118f657600080fd5b505afa15801561190a573d6000803e3d6000fd5b505050506040513d602081101561192057600080fd5b5051604080516001600160e01b031960e085901b1681526001600160401b039092166004830152516024808301926080929190829003018186803b15801561196757600080fd5b505afa15801561197b573d6000803e3d6000fd5b505050506040513d608081101561199157600080fd5b505191506001600160e01b03198681169083161415611a54576119c88361151160026114af60036107018b8b63ffffffff6115b216565b600054604080516227050b60e31b815261503160f01b60048201529051929350611a4f9289926001600160a01b0316916301382858916024808301926020929190829003018186803b158015611a1d57600080fd5b505afa158015611a31573d6000803e3d6000fd5b505050506040513d6020811015611a4757600080fd5b505183614cf1565b611c03565b6004805460408051637e2d14d960e01b81526001600160e01b0319861693810193909352516000926001600160a01b0390921691637e2d14d9916024808301926020929190829003018186803b158015611aad57600080fd5b505afa158015611ac1573d6000803e3d6000fd5b505050506040513d6020811015611ad757600080fd5b505190506208aa8960eb1b6001600160e01b03198416148015611afa5750600047115b80611b9357506208aa8960eb1b6001600160e01b0319841614801590611b935750604080516370a0823160e01b815230600482015290516000916001600160a01b038416916370a0823191602480820192602092909190829003018186803b158015611b6557600080fd5b505afa158015611b79573d6000803e3d6000fd5b505050506040513d6020811015611b8f57600080fd5b5051115b15611c0157600360009054906101000a90046001600160a01b03166001600160a01b0316639c1fe9276040518163ffffffff1660e01b8152600401600060405180830381600087803b158015611be857600080fd5b505af1158015611bfc573d6000803e3d6000fd5b505050505b505b505050505050565b60025460408051636cf68d3d60e11b815281516000938493849384938493600019938593849384936001600160a01b03169263d9ed1a7a9260048082019391829003018186803b158015611c5e57600080fd5b505afa158015611c72573d6000803e3d6000fd5b505050506040513d6040811015611c8857600080fd5b50518b5190915060005b81811015611e0e576004548d51600096508695506001600160a01b03909116906324da1128908f9084908110611cc457fe5b60200260200101516040518263ffffffff1660e01b815260040180826001600160e01b0319166001600160e01b031916815260200191505060206040518083038186803b158015611d1457600080fd5b505afa158015611d28573d6000803e3d6000fd5b505050506040513d6020811015611d3e57600080fd5b505115611e0657611d768d8281518110611d5457fe5b60200260200101518d8381518110611d6857fe5b602002602001015185614f94565b909550935086851380611d87575080155b15611dbc578496508c8181518110611d9b57fe5b60200260200101519a508b8181518110611db157fe5b602002602001015199505b85841280611dc8575083155b80611dd1575080155b15611e06578395508c8181518110611de557fe5b602002602001015198508b8181518110611dfb57fe5b602002602001015197505b600101611c92565b5050505050505092959194509250565b6000809054906101000a90046001600160a01b03166001600160a01b031663ff0938a76040518163ffffffff1660e01b815260040160206040518083038186803b158015611e6b57600080fd5b505afa158015611e7f573d6000803e3d6000fd5b505050506040513d6020811015611e9557600080fd5b505115611ea157600080fd5b600480546040805163e3d22ebd60e01b8152905160009384936001600160a01b03169263e3d22ebd9281830192602092829003018186803b158015611ee557600080fd5b505afa158015611ef9573d6000803e3d6000fd5b505050506040513d6020811015611f0f57600080fd5b505160048054604080516371283da560e11b8152905193945060009384936001600160a01b039093169263e2507b4a92808201926020929091829003018186803b158015611f5c57600080fd5b505afa158015611f70573d6000803e3d6000fd5b505050506040513d6020811015611f8657600080fd5b50519050611fa9670de0b6b3a76400006114af85620186a063ffffffff61161516565b925060008315611c0157612054633b9aca006114af600460009054906101000a90046001600160a01b03166001600160a01b0316638c3f8fa46040518163ffffffff1660e01b815260040160206040518083038186803b15801561200c57600080fd5b505afa158015612020573d6000803e3d6000fd5b505050506040513d602081101561203657600080fd5b50516107016001600160401b038b16818a600263ffffffff61161516565b6004805460408051632dcbbf1f60e21b81526001600160e01b03198c1693810193909352519297506120f6926064926114af926001600160a01b03169163b72efc7c91602480820192602092909190829003018186803b1580156120b757600080fd5b505afa1580156120cb573d6000803e3d6000fd5b505050506040513d60208110156120e157600080fd5b5051889060ff16600a0a63ffffffff61161516565b94506208aa8960eb1b6001600160e01b031988161480159061211e575061211e878786615090565b156125ca576005546004805460408051637e2d14d960e01b81526001600160e01b03198c1693810193909352516001600160a01b03938416936306f2bf6293921691637e2d14d9916024808301926020929190829003018186803b15801561218557600080fd5b505afa158015612199573d6000803e3d6000fd5b505050506040513d60208110156121af57600080fd5b5051604080516001600160e01b031960e085901b1681526001600160a01b039092166004830152516024808301926020929190829003018186803b1580156121f657600080fd5b505afa15801561220a573d6000803e3d6000fd5b505050506040513d602081101561222057600080fd5b5051604080516395b68fe760e01b81526004810188905290519192506001600160a01b038316916395b68fe791602480820192602092909190829003018186803b15801561226d57600080fd5b505afa158015612281573d6000803e3d6000fd5b505050506040513d602081101561229757600080fd5b505192506122ba60646114af6001600160a01b038416318563ffffffff61161516565b83111561236d576122e060646114af6001600160a01b038416318563ffffffff61161516565b925061236a6103e86114af6103e3846001600160a01b031663cd7724c3886040518263ffffffff1660e01b81526004018082815260200191505060206040518083038186803b15801561233257600080fd5b505afa158015612346573d6000803e3d6000fd5b505050506040513d602081101561235c57600080fd5b50519063ffffffff61161516565b94505b600480546040805163e3dee23960e01b81526001600160e01b03198b1693810193909352516000926001600160a01b039092169163e3dee239916024808301926020929190829003018186803b1580156123c657600080fd5b505afa1580156123da573d6000803e3d6000fd5b505050506040513d60208110156123f057600080fd5b50516040805163095ea7b360e01b81526001600160a01b038581166004830152602482018a905291519293509083169163095ea7b3916044808201926020929091908290030181600087803b15801561244857600080fd5b505af115801561245c573d6000803e3d6000fd5b505050506040513d602081101561247257600080fd5b5050604080516395b68fe760e01b81526004810188905290516001600160a01b038416916395e3c50b9189916124d6916103e8916114af916103e39188916395b68fe791602480820192602092909190829003018186803b15801561233257600080fd5b60048054604080516339d2ad2960e01b815290516125539342936001600160a01b0316926339d2ad299281830192602092829003018186803b15801561251b57600080fd5b505afa15801561252f573d6000803e3d6000fd5b505050506040513d602081101561254557600080fd5b50519063ffffffff6115b216565b6040518463ffffffff1660e01b8152600401808481526020018381526020018281526020019350505050602060405180830381600087803b15801561259757600080fd5b505af11580156125ab573d6000803e3d6000fd5b505050506040513d60208110156125c157600080fd5b5061267b915050565b6208aa8960eb1b6001600160e01b031988161480156125ef57506125ef878786615090565b1561267b57600054604080516227050b60e31b815261503160f01b6004820152905161267b928a926001600160a01b0390911691630138285891602480820192602092909190829003018186803b15801561264957600080fd5b505afa15801561265d573d6000803e3d6000fd5b505050506040513d602081101561267357600080fd5b505187614cf1565b604080516001600160e01b0319891681526020810187905281517f5b9a4c8e608b5c093e929f19155d286db4301c8af758938fc5b1418915c37ca8929181900390910190a150505050505050565b6004805460408051637e2d14d960e01b81526001600160e01b0319861693810193909352516000926001600160a01b0390921691637e2d14d9916024808301926020929190829003018186803b15801561272257600080fd5b505afa158015612736573d6000803e3d6000fd5b505050506040513d602081101561274c57600080fd5b5051604080516370a0823160e01b815230600482015290519192506000916001600160a01b038416916370a08231916024808301926020929190829003018186803b15801561279a57600080fd5b505afa1580156127ae573d6000803e3d6000fd5b505050506040513d60208110156127c457600080fd5b505111156128cd57604080516370a0823160e01b815230600482015290516001600160a01b0383169163a9059cbb91859184916370a0823191602480820192602092909190829003018186803b15801561281d57600080fd5b505afa158015612831573d6000803e3d6000fd5b505050506040513d602081101561284757600080fd5b5051604080516001600160e01b031960e086901b1681526001600160a01b03909316600484015260248301919091525160448083019260209291908290030181600087803b15801561289857600080fd5b505af11580156128ac573d6000803e3d6000fd5b505050506040513d60208110156128c257600080fd5b50516128cd57600080fd5b505050565b600061160c83836040518060400160405280601a81526020017f536166654d6174683a206469766973696f6e206279207a65726f00000000000081525061527d565b600061160c83836040518060400160405280601e81526020017f536166654d6174683a207375627472616374696f6e206f766572666c6f77000081525061531f565b6000806000806000600460009054906101000a90046001600160a01b03166001600160a01b031663e2507b4a6040518163ffffffff1660e01b815260040160206040518083038186803b1580156129ac57600080fd5b505afa1580156129c0573d6000803e3d6000fd5b505050506040513d60208110156129d657600080fd5b505190506001600160e01b03198881169088161415612a7f57600354604080516307eb102d60e21b81526001600160e01b03198b1660048201526024810189905290516001600160a01b0390921691631fac40b4916044808201926020929091908290030181600087803b158015612a4d57600080fd5b505af1158015612a61573d6000803e3d6000fd5b505050506040513d6020811015612a7757600080fd5b50613a2a9050565b6208aa8960eb1b6001600160e01b03198916148015612aae57506208aa8960eb1b6001600160e01b0319881614155b15612d98576005546004805460408051637e2d14d960e01b81526001600160e01b03198c1693810193909352516001600160a01b03938416936306f2bf6293921691637e2d14d9916024808301926020929190829003018186803b158015612b1557600080fd5b505afa158015612b29573d6000803e3d6000fd5b505050506040513d6020811015612b3f57600080fd5b5051604080516001600160e01b031960e085901b1681526001600160a01b039092166004830152516024808301926020929190829003018186803b158015612b8657600080fd5b505afa158015612b9a573d6000803e3d6000fd5b505050506040513d6020811015612bb057600080fd5b50519250612bd360646114af6001600160a01b038616318463ffffffff61161516565b861115612c0057612bf960646114af6001600160a01b038616318463ffffffff61161516565b9550600194505b600354604080516307eb102d60e21b81526001600160e01b03198b1660048201526024810189905290516001600160a01b0390921691631fac40b4916044808201926020929091908290030181600087803b158015612c5e57600080fd5b505af1158015612c72573d6000803e3d6000fd5b505050506040513d6020811015612c8857600080fd5b50506040805163cd7724c360e01b81526004810188905290516001600160a01b0385169163f39b5b9b918991612cec916103e8916114af916103e391889163cd7724c391602480820192602092909190829003018186803b15801561233257600080fd5b60048054604080516339d2ad2960e01b81529051612d319342936001600160a01b0316926339d2ad299281830192602092829003018186803b15801561251b57600080fd5b6040518463ffffffff1660e01b815260040180838152602001828152602001925050506020604051808303818588803b158015612d6d57600080fd5b505af1158015612d81573d6000803e3d6000fd5b50505050506040513d6020811015612a7757600080fd5b6208aa8960eb1b6001600160e01b0319891614801590612dc757506208aa8960eb1b6001600160e01b03198816145b156132b757600554600480546040805163e3dee23960e01b81526001600160e01b03198d1693810193909352516001600160a01b03938416936306f2bf629392169163e3dee239916024808301926020929190829003018186803b158015612e2e57600080fd5b505afa158015612e42573d6000803e3d6000fd5b505050506040513d6020811015612e5857600080fd5b5051604080516001600160e01b031960e085901b1681526001600160a01b039092166004830152516024808301926020929190829003018186803b158015612e9f57600080fd5b505afa158015612eb3573d6000803e3d6000fd5b505050506040513d6020811015612ec957600080fd5b5051600480546040805163e3dee23960e01b81526001600160e01b03198d1693810193909352519295506001600160a01b03169163e3dee23991602480820192602092909190829003018186803b158015612f2357600080fd5b505afa158015612f37573d6000803e3d6000fd5b505050506040513d6020811015612f4d57600080fd5b5051604080516395b68fe760e01b81526004810189905290519193506001600160a01b038516916395b68fe791602480820192602092909190829003018186803b158015612f9a57600080fd5b505afa158015612fae573d6000803e3d6000fd5b505050506040513d6020811015612fc457600080fd5b50519350612fe760646114af6001600160a01b038616318463ffffffff61161516565b8411156130fd5761300d60646114af6001600160a01b038616318463ffffffff61161516565b9350826001600160a01b031663cd7724c3856040518263ffffffff1660e01b81526004018082815260200191505060206040518083038186803b15801561305357600080fd5b505afa158015613067573d6000803e3d6000fd5b505050506040513d602081101561307d57600080fd5b5051604080516395b68fe760e01b81526004810183905290519197506001600160a01b038516916395b68fe791602480820192602092909190829003018186803b1580156130ca57600080fd5b505afa1580156130de573d6000803e3d6000fd5b505050506040513d60208110156130f457600080fd5b50516001955093505b600354604080516307eb102d60e21b81526001600160e01b03198b1660048201526024810189905290516001600160a01b0390921691631fac40b4916044808201926020929091908290030181600087803b15801561315b57600080fd5b505af115801561316f573d6000803e3d6000fd5b505050506040513d602081101561318557600080fd5b50506040805163095ea7b360e01b81526001600160a01b0385811660048301526024820189905291519184169163095ea7b3916044808201926020929091908290030181600087803b1580156131da57600080fd5b505af11580156131ee573d6000803e3d6000fd5b505050506040513d602081101561320457600080fd5b50506001600160a01b0383166395e3c50b8761322e6103e86114af896103e363ffffffff61161516565b60048054604080516339d2ad2960e01b815290516132739342936001600160a01b0316926339d2ad299281830192602092829003018186803b15801561251b57600080fd5b6040518463ffffffff1660e01b8152600401808481526020018381526020018281526020019350505050602060405180830381600087803b158015612a4d57600080fd5b600554600480546040805163e3dee23960e01b81526001600160e01b03198d1693810193909352516001600160a01b03938416936306f2bf629392169163e3dee239916024808301926020929190829003018186803b15801561331957600080fd5b505afa15801561332d573d6000803e3d6000fd5b505050506040513d602081101561334357600080fd5b5051604080516001600160e01b031960e085901b1681526001600160a01b039092166004830152516024808301926020929190829003018186803b15801561338a57600080fd5b505afa15801561339e573d6000803e3d6000fd5b505050506040513d60208110156133b457600080fd5b5051604080516395b68fe760e01b81526004810189905290519194506001600160a01b038516916395b68fe791602480820192602092909190829003018186803b15801561340157600080fd5b505afa158015613415573d6000803e3d6000fd5b505050506040513d602081101561342b57600080fd5b5051935061344e60646114af6001600160a01b038616318463ffffffff61161516565b8411156134ed5761347460646114af6001600160a01b038616318463ffffffff61161516565b9350826001600160a01b031663cd7724c3856040518263ffffffff1660e01b81526004018082815260200191505060206040518083038186803b1580156134ba57600080fd5b505afa1580156134ce573d6000803e3d6000fd5b505050506040513d60208110156134e457600080fd5b50519550600194505b6005546004805460408051637e2d14d960e01b81526001600160e01b03198c1693810193909352516000936001600160a01b03908116936306f2bf629390911691637e2d14d991602480820192602092909190829003018186803b15801561355457600080fd5b505afa158015613568573d6000803e3d6000fd5b505050506040513d602081101561357e57600080fd5b5051604080516001600160e01b031960e085901b1681526001600160a01b039092166004830152516024808301926020929190829003018186803b1580156135c557600080fd5b505afa1580156135d9573d6000803e3d6000fd5b505050506040513d60208110156135ef57600080fd5b5051905061361260646114af6001600160a01b038416318563ffffffff61161516565b8511156136b15761363860646114af6001600160a01b038416318563ffffffff61161516565b9450836001600160a01b031663cd7724c3866040518263ffffffff1660e01b81526004018082815260200191505060206040518083038186803b15801561367e57600080fd5b505afa158015613692573d6000803e3d6000fd5b505050506040513d60208110156136a857600080fd5b50519650600195505b600354604080516307eb102d60e21b81526001600160e01b03198c166004820152602481018a905290516001600160a01b0390921691631fac40b4916044808201926020929091908290030181600087803b15801561370f57600080fd5b505af1158015613723573d6000803e3d6000fd5b505050506040513d602081101561373957600080fd5b5050600480546040805163e3dee23960e01b81526001600160e01b03198d1693810193909352516001600160a01b039091169163e3dee239916024808301926020929190829003018186803b15801561379157600080fd5b505afa1580156137a5573d6000803e3d6000fd5b505050506040513d60208110156137bb57600080fd5b50516040805163095ea7b360e01b81526001600160a01b038781166004830152602482018b905291519295509085169163095ea7b3916044808201926020929091908290030181600087803b15801561381357600080fd5b505af1158015613827573d6000803e3d6000fd5b505050506040513d602081101561383d57600080fd5b50506040805163cd7724c360e01b81526004810187905290516001600160a01b038087169263ddf7e1a7928b926138a4926103e8926114af926103e392908a169163cd7724c391602480820192602092909190829003018186803b15801561233257600080fd5b6138bc6103e86114af8b6103e363ffffffff61161516565b60048054604080516339d2ad2960e01b815290516139019342936001600160a01b0316926339d2ad299281830192602092829003018186803b15801561251b57600080fd5b600460009054906101000a90046001600160a01b03166001600160a01b0316637e2d14d98f6040518263ffffffff1660e01b815260040180826001600160e01b0319166001600160e01b031916815260200191505060206040518083038186803b15801561396e57600080fd5b505afa158015613982573d6000803e3d6000fd5b505050506040513d602081101561399857600080fd5b5051604080516001600160e01b031960e089901b16815260048101969096526024860194909452604485019290925260648401526001600160a01b031660848301525160a48083019260209291908290030181600087803b1580156139fc57600080fd5b505af1158015613a10573d6000803e3d6000fd5b505050506040513d6020811015613a2657600080fd5b5050505b505050509392505050565b60008080806001600160e01b03198781169087161415613aa957600054604080516227050b60e31b815261503160f01b60048201529051613aa4928a926001600160a01b0390911691630138285891602480820192602092909190829003018186803b15801561264957600080fd5b614ce7565b6208aa8960eb1b6001600160e01b03198816148015613ad857506208aa8960eb1b6001600160e01b0319871614155b156140f2576005546004805460408051637e2d14d960e01b81526001600160e01b03198b1693810193909352516001600160a01b03938416936306f2bf6293921691637e2d14d9916024808301926020929190829003018186803b158015613b3f57600080fd5b505afa158015613b53573d6000803e3d6000fd5b505050506040513d6020811015613b6957600080fd5b5051604080516001600160e01b031960e085901b1681526001600160a01b039092166004830152516024808301926020929190829003018186803b158015613bb057600080fd5b505afa158015613bc4573d6000803e3d6000fd5b505050506040513d6020811015613bda57600080fd5b50516040805163cd7724c360e01b81526004810188905290519194506001600160a01b0385169163cd7724c391602480820192602092909190829003018186803b158015613c2757600080fd5b505afa158015613c3b573d6000803e3d6000fd5b505050506040513d6020811015613c5157600080fd5b505160048054604080516371283da560e11b81529051939450613ce3936064936114af936001600160a01b03169263e2507b4a9281830192602092829003018186803b158015613ca057600080fd5b505afa158015613cb4573d6000803e3d6000fd5b505050506040513d6020811015613cca57600080fd5b50516001600160a01b038716319063ffffffff61161516565b851115613db957613d4060646114af600460009054906101000a90046001600160a01b03166001600160a01b031663e2507b4a6040518163ffffffff1660e01b815260040160206040518083038186803b158015613ca057600080fd5b9450826001600160a01b031663cd7724c3866040518263ffffffff1660e01b81526004018082815260200191505060206040518083038186803b158015613d8657600080fd5b505afa158015613d9a573d6000803e3d6000fd5b505050506040513d6020811015613db057600080fd5b50516001945090505b600480546040805163e3dee23960e01b81526001600160e01b03198a1693810193909352516001600160a01b039091169163e3dee239916024808301926020929190829003018186803b158015613e0f57600080fd5b505afa158015613e23573d6000803e3d6000fd5b505050506040513d6020811015613e3957600080fd5b5051604080516370a0823160e01b815230600482015290519193506001600160a01b038416916370a0823191602480820192602092909190829003018186803b158015613e8557600080fd5b505afa158015613e99573d6000803e3d6000fd5b505050506040513d6020811015613eaf57600080fd5b5051811115613f2d57604080516370a0823160e01b815230600482015290516001600160a01b038416916370a08231916024808301926020929190829003018186803b158015613efe57600080fd5b505afa158015613f12573d6000803e3d6000fd5b505050506040513d6020811015613f2857600080fd5b505190505b816001600160a01b031663095ea7b384836040518363ffffffff1660e01b815260040180836001600160a01b03166001600160a01b0316815260200182815260200192505050602060405180830381600087803b158015613f8d57600080fd5b505af1158015613fa1573d6000803e3d6000fd5b505050506040513d6020811015613fb757600080fd5b5050604080516395b68fe760e01b81526004810183905290516001600160a01b03851691637237e03191849161401b916103e8916114af916103e39188916395b68fe791602480820192602092909190829003018186803b15801561233257600080fd5b60048054604080516339d2ad2960e01b815290516140609342936001600160a01b0316926339d2ad299281830192602092829003018186803b15801561251b57600080fd5b600354604080516001600160e01b031960e088901b1681526004810195909552602485019390935260448401919091526001600160a01b031660648301525160848083019260209291908290030181600087803b1580156140c057600080fd5b505af11580156140d4573d6000803e3d6000fd5b505050506040513d60208110156140ea57600080fd5b50614ce79050565b6208aa8960eb1b6001600160e01b031988161480159061412157506208aa8960eb1b6001600160e01b03198716145b1561448a57600554600480546040805163e3dee23960e01b81526001600160e01b03198c1693810193909352516001600160a01b03938416936306f2bf629392169163e3dee239916024808301926020929190829003018186803b15801561418857600080fd5b505afa15801561419c573d6000803e3d6000fd5b505050506040513d60208110156141b257600080fd5b5051604080516001600160e01b031960e085901b1681526001600160a01b039092166004830152516024808301926020929190829003018186803b1580156141f957600080fd5b505afa15801561420d573d6000803e3d6000fd5b505050506040513d602081101561422357600080fd5b5051604080516395b68fe760e01b81526004810188905290519194506001600160a01b038516916395b68fe791602480820192602092909190829003018186803b15801561427057600080fd5b505afa158015614284573d6000803e3d6000fd5b505050506040513d602081101561429a57600080fd5b50519050478111156142a95750475b6142ff60646114af600460009054906101000a90046001600160a01b03166001600160a01b031663e2507b4a6040518163ffffffff1660e01b815260040160206040518083038186803b158015613ca057600080fd5b8111156143635761435c60646114af600460009054906101000a90046001600160a01b03166001600160a01b031663e2507b4a6040518163ffffffff1660e01b815260040160206040518083038186803b158015613ca057600080fd5b9050600193505b826001600160a01b031663ad65d76d826143c36103e86114af6103e3896001600160a01b031663cd7724c3896040518263ffffffff1660e01b81526004018082815260200191505060206040518083038186803b15801561233257600080fd5b60048054604080516339d2ad2960e01b815290516144089342936001600160a01b0316926339d2ad299281830192602092829003018186803b15801561251b57600080fd5b600354604080516001600160e01b031960e088901b168152600481019490945260248401929092526001600160a01b0316604483015251606480830192602092919082900301818588803b15801561445f57600080fd5b505af1158015614473573d6000803e3d6000fd5b50505050506040513d60208110156140ea57600080fd5b600480546040805163e3dee23960e01b81526001600160e01b03198b1693810193909352516000926001600160a01b039092169163e3dee239916024808301926020929190829003018186803b1580156144e357600080fd5b505afa1580156144f7573d6000803e3d6000fd5b505050506040513d602081101561450d57600080fd5b5051600554604080516303795fb160e11b81526001600160a01b03808516600483015291519394509116916306f2bf6291602480820192602092909190829003018186803b15801561455e57600080fd5b505afa158015614572573d6000803e3d6000fd5b505050506040513d602081101561458857600080fd5b5051604080516395b68fe760e01b81526004810189905290519195506001600160a01b038616916395b68fe791602480820192602092909190829003018186803b1580156145d557600080fd5b505afa1580156145e9573d6000803e3d6000fd5b505050506040513d60208110156145ff57600080fd5b505160048054604080516371283da560e11b81529051939550614691936064936114af936001600160a01b03169263e2507b4a9281830192602092829003018186803b15801561464e57600080fd5b505afa158015614662573d6000803e3d6000fd5b505050506040513d602081101561467857600080fd5b50516001600160a01b038816319063ffffffff61161516565b8211156146f5576146ee60646114af600460009054906101000a90046001600160a01b03166001600160a01b031663e2507b4a6040518163ffffffff1660e01b815260040160206040518083038186803b15801561464e57600080fd5b9150600194505b6005546004805460408051637e2d14d960e01b81526001600160e01b03198c1693810193909352516000936001600160a01b03908116936306f2bf629390911691637e2d14d991602480820192602092909190829003018186803b15801561475c57600080fd5b505afa158015614770573d6000803e3d6000fd5b505050506040513d602081101561478657600080fd5b5051604080516001600160e01b031960e085901b1681526001600160a01b039092166004830152516024808301926020929190829003018186803b1580156147cd57600080fd5b505afa1580156147e1573d6000803e3d6000fd5b505050506040513d60208110156147f757600080fd5b505160048054604080516371283da560e11b81529051939450614889936064936114af936001600160a01b03169263e2507b4a9281830192602092829003018186803b15801561484657600080fd5b505afa15801561485a573d6000803e3d6000fd5b505050506040513d602081101561487057600080fd5b50516001600160a01b038516319063ffffffff61161516565b8311156148ed576148e660646114af600460009054906101000a90046001600160a01b03166001600160a01b031663e2507b4a6040518163ffffffff1660e01b815260040160206040518083038186803b15801561484657600080fd5b9250600195505b6000816001600160a01b031663cd7724c3856040518263ffffffff1660e01b81526004018082815260200191505060206040518083038186803b15801561493357600080fd5b505afa158015614947573d6000803e3d6000fd5b505050506040513d602081101561495d57600080fd5b50516004805460408051637e2d14d960e01b81526001600160e01b03198e1693810193909352519293506001600160a01b031691637e2d14d991602480820192602092909190829003018186803b1580156149b757600080fd5b505afa1580156149cb573d6000803e3d6000fd5b505050506040513d60208110156149e157600080fd5b5051604080516370a0823160e01b815230600482015290519196506000916001600160a01b038816916370a08231916024808301926020929190829003018186803b158015614a2f57600080fd5b505afa158015614a43573d6000803e3d6000fd5b505050506040513d6020811015614a5957600080fd5b5051905080821115614adb57809150826001600160a01b03166395b68fe7836040518263ffffffff1660e01b81526004018082815260200191505060206040518083038186803b158015614aac57600080fd5b505afa158015614ac0573d6000803e3d6000fd5b505050506040513d6020811015614ad657600080fd5b505194505b866001600160a01b031663cd7724c3866040518263ffffffff1660e01b81526004018082815260200191505060206040518083038186803b158015614b1f57600080fd5b505afa158015614b33573d6000803e3d6000fd5b505050506040513d6020811015614b4957600080fd5b50516040805163095ea7b360e01b81526001600160a01b038681166004830152602482018690529151929b509088169163095ea7b3916044808201926020929091908290030181600087803b158015614ba157600080fd5b505af1158015614bb5573d6000803e3d6000fd5b505050506040513d6020811015614bcb57600080fd5b50506001600160a01b03831663f552d91b83614bf56103e86114af8e6103e363ffffffff61161516565b88614c4842600460009054906101000a90046001600160a01b03166001600160a01b03166339d2ad296040518163ffffffff1660e01b815260040160206040518083038186803b15801561251b57600080fd5b600354604080516001600160e01b031960e089901b16815260048101969096526024860194909452604485019290925260648401526001600160a01b039081166084840152881660a48301525160c48083019260209291908290030181600087803b158015614cb657600080fd5b505af1158015614cca573d6000803e3d6000fd5b505050506040513d6020811015614ce057600080fd5b5050505050505b5050509392505050565b6208aa8960eb1b6001600160e01b031984161415614d825747811115614d145750475b600360009054906101000a90046001600160a01b03166001600160a01b0316630e29df22826040518263ffffffff1660e01b81526004016000604051808303818588803b158015614d6457600080fd5b505af1158015614d78573d6000803e3d6000fd5b50505050506128cd565b6004805460408051637e2d14d960e01b81526001600160e01b0319871693810193909352516000926001600160a01b0390921691637e2d14d9916024808301926020929190829003018186803b158015614ddb57600080fd5b505afa158015614def573d6000803e3d6000fd5b505050506040513d6020811015614e0557600080fd5b5051604080516370a0823160e01b815230600482015290519192506001600160a01b038316916370a0823191602480820192602092909190829003018186803b158015614e5157600080fd5b505afa158015614e65573d6000803e3d6000fd5b505050506040513d6020811015614e7b57600080fd5b5051821115614ef957604080516370a0823160e01b815230600482015290516001600160a01b038316916370a08231916024808301926020929190829003018186803b158015614eca57600080fd5b505afa158015614ede573d6000803e3d6000fd5b505050506040513d6020811015614ef457600080fd5b505191505b806001600160a01b031663a9059cbb84846040518363ffffffff1660e01b815260040180836001600160a01b03166001600160a01b0316815260200182815260200192505050602060405180830381600087803b158015614f5957600080fd5b505af1158015614f6d573d6000803e3d6000fd5b505050506040513d6020811015614f8357600080fd5b5051614f8e57600080fd5b50505050565b6000806000806000614fa588615379565b60048054604080516395dcbd1f60e01b81526001600160e01b03198d169381019390935280519394506001600160a01b03909116926395dcbd1f926024808201939291829003018186803b158015614ffc57600080fd5b505afa158015615010573d6000803e3d6000fd5b505050506040513d604081101561502657600080fd5b5080516020909101516001600160401b0390811694509081169250871615615085576000615079615066886001600160401b038b1663ffffffff61161516565b6114af84620f424063ffffffff61161516565b84810396508390039450505b505050935093915050565b60006001600160401b038316156152765760006150b8670de0b6b3a76400006114af87615379565b90506000811180156150ca5750600083115b156152745760048054604080516395dcbd1f60e01b81526001600160e01b031989169381019390935280516000938493849384936001600160a01b03909216926395dcbd1f9260248083019392829003018186803b15801561512b57600080fd5b505afa15801561513f573d6000803e3d6000fd5b505050506040513d604081101561515557600080fd5b508051602091820151600480546040805163230fe3e960e21b815290516001600160401b039485169a509390941697506001600160a01b031693638c3f8fa49380830193919290829003018186803b1580156151b057600080fd5b505afa1580156151c4573d6000803e3d6000fd5b505050506040513d60208110156151da57600080fd5b5051905061520d6151fa886001600160401b038b1663ffffffff61161516565b6114af876298968063ffffffff61161516565b915061523b60646114af620186a061070161522e898763ffffffff6115b216565b8c9063ffffffff61161516565b821180615265575061526260646114af620186a061070161522e888763ffffffff61291416565b82105b1561526f57600195505b505050505b505b9392505050565b600081836153095760405162461bcd60e51b81526004018080602001828103825283818151815260200191508051906020019080838360005b838110156152ce5781810151838201526020016152b6565b50505050905090810190601f1680156152fb5780820380516001836020036101000a031916815260200191505b509250505060405180910390fd5b50600083858161531557fe5b0495945050505050565b600081848411156153715760405162461bcd60e51b81526020600482018181528351602484015283519092839260449091019190850190808383600083156152ce5781810151838201526020016152b6565b505050900390565b60006208aa8960eb1b6001600160e01b03198316141561539a575047610fd4565b6004805460408051637e2d14d960e01b81526001600160e01b0319861693810193909352516000926001600160a01b0390921691637e2d14d9916024808301926020929190829003018186803b1580156153f357600080fd5b505afa158015615407573d6000803e3d6000fd5b505050506040513d602081101561541d57600080fd5b5051604080516370a0823160e01b815230600482015290519192506001600160a01b038316916370a0823191602480820192602092909190829003018186803b158015610fa457600080fdfe536166654d6174683a206d756c7469706c69636174696f6e206f766572666c6f77a265627a7a72315820eba13e80803588600875242c53cd0548d7025f035ad93768077f38de9989c99a64736f6c63430005110032",
  "linkReferences": {},
  "deployedLinkReferences": {}
}