{
  "_format": "hh-sol-artifact-1",
  "contractName": "Pool1",
  "sourceName": "contracts/NexusMutual/modules/capital/Pool1.sol",
  "abi": [
    {
      "anonymous": false,
      "inputs": [
        {
          "indexed": true,
          "internalType": "address",
          "name": "sender",
          "type": "address"
        },
        {
          "indexed": false,
          "internalType": "string",
          "name": "msg",
          "type": "string"
        },
        {
          "indexed": false,
          "internalType": "bytes32",
          "name": "myid",
          "type": "bytes32"
        }
      ],
      "name": "Apiresult",
      "type": "event"
    },
    {
      "anonymous": false,
      "inputs": [
        {
          "indexed": true,
          "internalType": "address",
          "name": "to",
          "type": "address"
        },
        {
          "indexed": false,
          "internalType": "uint256",
          "name": "coverId",
          "type": "uint256"
        },
        {
          "indexed": false,
          "internalType": "uint256",
          "name": "tokens",
          "type": "uint256"
        }
      ],
      "name": "Payout",
      "type": "event"
    },
    {
      "payable": true,
      "stateMutability": "payable",
      "type": "fallback"
    },
    {
      "constant": false,
      "inputs": [
        {
          "internalType": "bytes32",
          "name": "myid",
          "type": "bytes32"
        },
        {
          "internalType": "string",
          "name": "result",
          "type": "string"
        }
      ],
      "name": "__callback",
      "outputs": [],
      "payable": false,
      "stateMutability": "nonpayable",
      "type": "function"
    },
    {
      "constant": false,
      "inputs": [
        {
          "internalType": "bytes32",
          "name": "_myid",
          "type": "bytes32"
        },
        {
          "internalType": "string",
          "name": "_result",
          "type": "string"
        },
        {
          "internalType": "bytes",
          "name": "_proof",
          "type": "bytes"
        }
      ],
      "name": "__callback",
      "outputs": [],
      "payable": false,
      "stateMutability": "nonpayable",
      "type": "function"
    },
    {
      "constant": false,
      "inputs": [],
      "name": "buyToken",
      "outputs": [
        {
          "internalType": "bool",
          "name": "success",
          "type": "bool"
        }
      ],
      "payable": true,
      "stateMutability": "payable",
      "type": "function"
    },
    {
      "constant": true,
      "inputs": [],
      "name": "c1",
      "outputs": [
        {
          "internalType": "contract Claims",
          "name": "",
          "type": "address"
        }
      ],
      "payable": false,
      "stateMutability": "view",
      "type": "function"
    },
    {
      "constant": false,
      "inputs": [],
      "name": "changeDependentContractAddress",
      "outputs": [],
      "payable": false,
      "stateMutability": "nonpayable",
      "type": "function"
    },
    {
      "constant": false,
      "inputs": [
        {
          "internalType": "address",
          "name": "_masterAddress",
          "type": "address"
        }
      ],
      "name": "changeMasterAddress",
      "outputs": [],
      "payable": false,
      "stateMutability": "nonpayable",
      "type": "function"
    },
    {
      "constant": false,
      "inputs": [
        {
          "internalType": "uint256",
          "name": "id",
          "type": "uint256"
        },
        {
          "internalType": "uint256",
          "name": "time",
          "type": "uint256"
        }
      ],
      "name": "closeClaimsOraclise",
      "outputs": [],
      "payable": false,
      "stateMutability": "nonpayable",
      "type": "function"
    },
    {
      "constant": false,
      "inputs": [
        {
          "internalType": "uint256",
          "name": "id",
          "type": "uint256"
        },
        {
          "internalType": "uint64",
          "name": "time",
          "type": "uint64"
        }
      ],
      "name": "closeCoverOraclise",
      "outputs": [],
      "payable": false,
      "stateMutability": "nonpayable",
      "type": "function"
    },
    {
      "constant": false,
      "inputs": [
        {
          "internalType": "uint256",
          "name": "time",
          "type": "uint256"
        }
      ],
      "name": "closeEmergencyPause",
      "outputs": [],
      "payable": false,
      "stateMutability": "nonpayable",
      "type": "function"
    },
    {
      "constant": true,
      "inputs": [],
      "name": "getInvestmentAssetBalance",
      "outputs": [
        {
          "internalType": "uint256",
          "name": "balance",
          "type": "uint256"
        }
      ],
      "payable": false,
      "stateMutability": "view",
      "type": "function"
    },
    {
      "constant": true,
      "inputs": [
        {
          "internalType": "uint256",
          "name": "weiPaid",
          "type": "uint256"
        }
      ],
      "name": "getToken",
      "outputs": [
        {
          "internalType": "uint256",
          "name": "tokenToGet",
          "type": "uint256"
        }
      ],
      "payable": false,
      "stateMutability": "view",
      "type": "function"
    },
    {
      "constant": true,
      "inputs": [
        {
          "internalType": "uint256",
          "name": "amount",
          "type": "uint256"
        }
      ],
      "name": "getWei",
      "outputs": [
        {
          "internalType": "uint256",
          "name": "weiToPay",
          "type": "uint256"
        }
      ],
      "payable": false,
      "stateMutability": "view",
      "type": "function"
    },
    {
      "constant": false,
      "inputs": [
        {
          "internalType": "address",
          "name": "smartCAdd",
          "type": "address"
        },
        {
          "internalType": "bytes4",
          "name": "coverCurr",
          "type": "bytes4"
        },
        {
          "internalType": "uint256[]",
          "name": "coverDetails",
          "type": "uint256[]"
        },
        {
          "internalType": "uint16",
          "name": "coverPeriod",
          "type": "uint16"
        },
        {
          "internalType": "uint8",
          "name": "_v",
          "type": "uint8"
        },
        {
          "internalType": "bytes32",
          "name": "_r",
          "type": "bytes32"
        },
        {
          "internalType": "bytes32",
          "name": "_s",
          "type": "bytes32"
        }
      ],
      "name": "makeCoverBegin",
      "outputs": [],
      "payable": true,
      "stateMutability": "payable",
      "type": "function"
    },
    {
      "constant": false,
      "inputs": [
        {
          "internalType": "address",
          "name": "smartCAdd",
          "type": "address"
        },
        {
          "internalType": "bytes4",
          "name": "coverCurr",
          "type": "bytes4"
        },
        {
          "internalType": "uint256[]",
          "name": "coverDetails",
          "type": "uint256[]"
        },
        {
          "internalType": "uint16",
          "name": "coverPeriod",
          "type": "uint16"
        },
        {
          "internalType": "uint8",
          "name": "_v",
          "type": "uint8"
        },
        {
          "internalType": "bytes32",
          "name": "_r",
          "type": "bytes32"
        },
        {
          "internalType": "bytes32",
          "name": "_s",
          "type": "bytes32"
        }
      ],
      "name": "makeCoverUsingCA",
      "outputs": [],
      "payable": false,
      "stateMutability": "nonpayable",
      "type": "function"
    },
    {
      "constant": false,
      "inputs": [
        {
          "internalType": "uint256",
          "name": "time",
          "type": "uint256"
        }
      ],
      "name": "mcrOraclise",
      "outputs": [],
      "payable": false,
      "stateMutability": "nonpayable",
      "type": "function"
    },
    {
      "constant": false,
      "inputs": [
        {
          "internalType": "uint256",
          "name": "id",
          "type": "uint256"
        },
        {
          "internalType": "uint256",
          "name": "time",
          "type": "uint256"
        }
      ],
      "name": "mcrOracliseFail",
      "outputs": [],
      "payable": false,
      "stateMutability": "nonpayable",
      "type": "function"
    },
    {
      "constant": true,
      "inputs": [],
      "name": "ms",
      "outputs": [
        {
          "internalType": "contract INXMMaster",
          "name": "",
          "type": "address"
        }
      ],
      "payable": false,
      "stateMutability": "view",
      "type": "function"
    },
    {
      "constant": true,
      "inputs": [],
      "name": "nxMasterAddress",
      "outputs": [
        {
          "internalType": "address",
          "name": "",
          "type": "address"
        }
      ],
      "payable": false,
      "stateMutability": "view",
      "type": "function"
    },
    {
      "constant": false,
      "inputs": [
        {
          "internalType": "uint256",
          "name": "time",
          "type": "uint256"
        }
      ],
      "name": "saveIADetailsOracalise",
      "outputs": [],
      "payable": false,
      "stateMutability": "nonpayable",
      "type": "function"
    },
    {
      "constant": false,
      "inputs": [
        {
          "internalType": "uint256",
          "name": "_amount",
          "type": "uint256"
        }
      ],
      "name": "sellNXMTokens",
      "outputs": [
        {
          "internalType": "bool",
          "name": "success",
          "type": "bool"
        }
      ],
      "payable": false,
      "stateMutability": "nonpayable",
      "type": "function"
    },
    {
      "constant": false,
      "inputs": [
        {
          "internalType": "uint256",
          "name": "coverid",
          "type": "uint256"
        },
        {
          "internalType": "uint256",
          "name": "claimid",
          "type": "uint256"
        },
        {
          "internalType": "uint256",
          "name": "sumAssured",
          "type": "uint256"
        },
        {
          "internalType": "address payable",
          "name": "coverHolder",
          "type": "address"
        },
        {
          "internalType": "bytes4",
          "name": "coverCurr",
          "type": "bytes4"
        }
      ],
      "name": "sendClaimPayout",
      "outputs": [
        {
          "internalType": "bool",
          "name": "succ",
          "type": "bool"
        }
      ],
      "payable": false,
      "stateMutability": "nonpayable",
      "type": "function"
    },
    {
      "constant": false,
      "inputs": [],
      "name": "sendEther",
      "outputs": [],
      "payable": true,
      "stateMutability": "payable",
      "type": "function"
    },
    {
      "constant": false,
      "inputs": [
        {
          "internalType": "bytes4",
          "name": "curr",
          "type": "bytes4"
        },
        {
          "internalType": "uint256",
          "name": "amount",
          "type": "uint256"
        }
      ],
      "name": "transferCurrencyAsset",
      "outputs": [
        {
          "internalType": "bool",
          "name": "",
          "type": "bool"
        }
      ],
      "payable": false,
      "stateMutability": "nonpayable",
      "type": "function"
    },
    {
      "constant": false,
      "inputs": [
        {
          "internalType": "uint256",
          "name": "amount",
          "type": "uint256"
        },
        {
          "internalType": "address payable",
          "name": "_add",
          "type": "address"
        }
      ],
      "name": "transferEther",
      "outputs": [
        {
          "internalType": "bool",
          "name": "succ",
          "type": "bool"
        }
      ],
      "payable": false,
      "stateMutability": "nonpayable",
      "type": "function"
    },
    {
      "constant": false,
      "inputs": [],
      "name": "triggerExternalLiquidityTrade",
      "outputs": [],
      "payable": false,
      "stateMutability": "nonpayable",
      "type": "function"
    },
    {
      "constant": false,
      "inputs": [
        {
          "internalType": "address payable",
          "name": "newPoolAddress",
          "type": "address"
        }
      ],
      "name": "upgradeCapitalPool",
      "outputs": [],
      "payable": false,
      "stateMutability": "nonpayable",
      "type": "function"
    }
  ],
  "bytecode": "0x608060405234801561001057600080fd5b5061574280620000216000396000f3fe6080604052600436106101815760003560e01c806399bb5856116100d1578063bd03e5011161008a578063d8ea6b0811610064578063d8ea6b0814610836578063e4b50cb814610860578063e942c5641461088a578063f17a3bec146108b457610181565b8063bd03e501146107a0578063c57dbe00146107d9578063d46655f41461080357610181565b806399bb5856146106af5780639c1fe927146107045780639cb341e314610719578063a0b2d57f14610753578063a19ed78314610768578063a48217191461079857610181565b80635085a0741161013e57806368da80af1161011857806368da80af146104a157806369b0b7371461057957806374bd0ace146105a05780638076083d146105ca57610181565b80635085a0741461040d5780635f57697c1461043d57806366fd551d1461046e57610181565b80630a7000f0146101835780630e29df22146101ad5780630ea9c984146101b55780631fac40b4146101ca57806327dc297e1461021857806338bbfa50146102d0575b005b34801561018f57600080fd5b50610181600480360360208110156101a657600080fd5b50356108c9565b6101816109a6565b3480156101c157600080fd5b506101816109a8565b3480156101d657600080fd5b50610204600480360360408110156101ed57600080fd5b506001600160e01b03198135169060200135610eb2565b604080519115158252519081900360200190f35b34801561022457600080fd5b506101816004803603604081101561023b57600080fd5b81359190810190604081016020820135600160201b81111561025c57600080fd5b82018360208201111561026e57600080fd5b803590602001918460018302840111600160201b8311171561028f57600080fd5b91908080601f016020809104026020016040519081016040528093929190818152602001838380828437600092019190915250929550610fb4945050505050565b3480156102dc57600080fd5b50610181600480360360608110156102f357600080fd5b81359190810190604081016020820135600160201b81111561031457600080fd5b82018360208201111561032657600080fd5b803590602001918460018302840111600160201b8311171561034757600080fd5b91908080601f0160208091040260200160405190810160405280939291908181526020018383808284376000920191909152509295949360208101935035915050600160201b81111561039957600080fd5b8201836020820111156103ab57600080fd5b803590602001918460018302840111600160201b831117156103cc57600080fd5b91908080601f01602080910402602001604051908101604052809392919081815260200183838082843760009201919091525092955061101d945050505050565b34801561041957600080fd5b506101816004803603604081101561043057600080fd5b5080359060200135611022565b34801561044957600080fd5b506104526110f3565b604080516001600160a01b039092168252519081900360200190f35b34801561047a57600080fd5b506101816004803603602081101561049157600080fd5b50356001600160a01b0316611102565b610181600480360360e08110156104b757600080fd5b6001600160a01b03823516916001600160e01b031960208201351691810190606081016040820135600160201b8111156104f057600080fd5b82018360208201111561050257600080fd5b803590602001918460208302840111600160201b8311171561052357600080fd5b9190808060200260200160405190810160405280939291908181526020018383602002808284376000920191909152509295505061ffff83351693505060ff60208301351691604081013591506060013561137c565b34801561058557600080fd5b5061058e6115d4565b60408051918252519081900360200190f35b3480156105ac57600080fd5b50610204600480360360208110156105c357600080fd5b5035611946565b3480156105d657600080fd5b50610181600480360360e08110156105ed57600080fd5b6001600160a01b03823516916001600160e01b031960208201351691810190606081016040820135600160201b81111561062657600080fd5b82018360208201111561063857600080fd5b803590602001918460208302840111600160201b8311171561065957600080fd5b9190808060200260200160405190810160405280939291908181526020018383602002808284376000920191909152509295505061ffff83351693505060ff602083013516916040810135915060600135611df3565b3480156106bb57600080fd5b50610204600480360360a08110156106d257600080fd5b5080359060208101359060408101359060608101356001600160a01b031690608001356001600160e01b0319166121b3565b34801561071057600080fd5b5061018161279a565b34801561072557600080fd5b506101816004803603604081101561073c57600080fd5b508035906020013567ffffffffffffffff16612822565b34801561075f57600080fd5b50610452612916565b34801561077457600080fd5b506101816004803603604081101561078b57600080fd5b5080359060200135612925565b6102046129f5565b3480156107ac57600080fd5b50610204600480360360408110156107c357600080fd5b50803590602001356001600160a01b0316612bbd565b3480156107e557600080fd5b50610181600480360360208110156107fc57600080fd5b5035612da2565b34801561080f57600080fd5b506101816004803603602081101561082657600080fd5b50356001600160a01b0316612e7a565b34801561084257600080fd5b506101816004803603602081101561085957600080fd5b5035612f03565b34801561086c57600080fd5b5061058e6004803603602081101561088357600080fd5b5035612fd3565b34801561089657600080fd5b5061058e600480360360208110156108ad57600080fd5b5035612ff6565b3480156108c057600080fd5b50610452613001565b600554604080516323c5b10760e21b815233600482015290516001600160a01b0390921691638f16c41c91602480820192602092909190829003018186803b15801561091457600080fd5b505afa158015610928573d6000803e3d6000fd5b505050506040513d602081101561093e57600080fd5b505161094957600080fd5b600061098d6003836040518060400160405280600381526020016215549360ea1b8152506040518060600160405280602b815260200161569d602b91396000613010565b90506109a2816324a0a92160e11b6000613058565b5050565b565b600554604080516227050b60e31b8152614d4360f01b600482015290516001600160a01b0390921691630138285891602480820192602092909190829003018186803b1580156109f757600080fd5b505afa158015610a0b573d6000803e3d6000fd5b505050506040513d6020811015610a2157600080fd5b5051600d80546001600160a01b0319166001600160a01b03928316179055600554604080516313aedd4b60e31b815290519190921691639d76ea58916004808301926020929190829003018186803b158015610a7c57600080fd5b505afa158015610a90573d6000803e3d6000fd5b505050506040513d6020811015610aa657600080fd5b5051600880546001600160a01b0319166001600160a01b03928316179055600554604080516227050b60e31b8152612a2360f11b6004820152905191909216916301382858916024808301926020929190829003018186803b158015610b0b57600080fd5b505afa158015610b1f573d6000803e3d6000fd5b505050506040513d6020811015610b3557600080fd5b5051600a80546001600160a01b0319166001600160a01b03928316179055600554604080516227050b60e31b815261544360f01b6004820152905191909216916301382858916024808301926020929190829003018186803b158015610b9a57600080fd5b505afa158015610bae573d6000803e3d6000fd5b505050506040513d6020811015610bc457600080fd5b5051600980546001600160a01b0319166001600160a01b03928316179055600554604080516227050b60e31b815261141160f21b6004820152905191909216916301382858916024808301926020929190829003018186803b158015610c2957600080fd5b505afa158015610c3d573d6000803e3d6000fd5b505050506040513d6020811015610c5357600080fd5b5051600c80546001600160a01b0319166001600160a01b03928316179055600554604080516227050b60e31b815261145560f21b6004820152905191909216916301382858916024808301926020929190829003018186803b158015610cb857600080fd5b505afa158015610ccc573d6000803e3d6000fd5b505050506040513d6020811015610ce257600080fd5b5051600780546001600160a01b0319166001600160a01b03928316179055600554604080516227050b60e31b815261281960f11b6004820152905191909216916301382858916024808301926020929190829003018186803b158015610d4757600080fd5b505afa158015610d5b573d6000803e3d6000fd5b505050506040513d6020811015610d7157600080fd5b5051600b80546001600160a01b0319166001600160a01b03928316179055600554604080516227050b60e31b81526110d360f21b6004820152905191909216916301382858916024808301926020929190829003018186803b158015610dd657600080fd5b505afa158015610dea573d6000803e3d6000fd5b505050506040513d6020811015610e0057600080fd5b5051600e80546001600160a01b0319166001600160a01b03928316179055600554604080516227050b60e31b815261151160f21b6004820152905191909216916301382858916024808301926020929190829003018186803b158015610e6557600080fd5b505afa158015610e79573d6000803e3d6000fd5b505050506040513d6020811015610e8f57600080fd5b5051600f80546001600160a01b0319166001600160a01b03909216919091179055565b600554604080516323c5b10760e21b815233600482015290516000926001600160a01b031691638f16c41c916024808301926020929190829003018186803b158015610efd57600080fd5b505afa158015610f11573d6000803e3d6000fd5b505050506040513d6020811015610f2757600080fd5b5051610f3257600080fd5b600f54600160a01b900460ff1615610f83576040805162461bcd60e51b815260206004820152600f60248201526e2932b2b73a3930b73a1031b0b6361760891b604482015290519081900360640190fd5b600f805460ff60a01b1916600160a01b179055610fa0838361313e565b600f805460ff60a01b191690559392505050565b600554604080516346ebffcd60e11b81526004810185905290516001600160a01b0390921691638dd7ff9a9160248082019260009290919082900301818387803b15801561100157600080fd5b505af1158015611015573d6000803e3d6000fd5b505050505050565b505050565b600554604080516323c5b10760e21b815233600482015290516001600160a01b0390921691638f16c41c91602480820192602092909190829003018186803b15801561106d57600080fd5b505afa158015611081573d6000803e3d6000fd5b505050506040513d602081101561109757600080fd5b50516110a257600080fd5b60006110df6004836040518060400160405280600381526020016215549360ea1b81525060405180602001604052806000815250620f4240613010565b905061101d816326a1a92360e11b85613058565b600e546001600160a01b031681565b600f54600160a01b900460ff1615611153576040805162461bcd60e51b815260206004820152600f60248201526e2932b2b73a3930b73a1031b0b6361760891b604482015290519081900360640190fd5b600f805460ff60a01b1916600160a01b179055600554604080516323c5b10760e21b815233600482015290516001600160a01b0390921691638f16c41c91602480820192602092909190829003018186803b1580156111b157600080fd5b505afa1580156111c5573d6000803e3d6000fd5b505050506040513d60208110156111db57600080fd5b50516111e657600080fd5b60015b600c60009054906101000a90046001600160a01b03166001600160a01b031663255f50496040518163ffffffff1660e01b815260040160206040518083038186803b15801561123757600080fd5b505afa15801561124b573d6000803e3d6000fd5b505050506040513d602081101561126157600080fd5b505167ffffffffffffffff8216101561130a57600c54604080516303c40b1f60e41b815267ffffffffffffffff8416600482015290516000926001600160a01b031691633c40b1f0916024808301926020929190829003018186803b1580156112c957600080fd5b505afa1580156112dd573d6000803e3d6000fd5b505050506040513d60208110156112f357600080fd5b5051905061130181846133e0565b506001016111e9565b50471561136c576000819050806001600160a01b0316630e29df22476040518263ffffffff1660e01b81526004016000604051808303818588803b15801561135157600080fd5b505af1158015611365573d6000803e3d6000fd5b5050505050505b50600f805460ff60a01b19169055565b6005546040805163288c314960e21b815233600482015290516001600160a01b039092169163a230c52491602480820192602092909190829003018186803b1580156113c757600080fd5b505afa1580156113db573d6000803e3d6000fd5b505050506040513d60208110156113f157600080fd5b5051611431576040805162461bcd60e51b815260206004820152600a6024820152692737ba1036b2b6b132b960b11b604482015290519081900360640190fd5b600560009054906101000a90046001600160a01b03166001600160a01b031663ff0938a76040518163ffffffff1660e01b815260040160206040518083038186803b15801561147f57600080fd5b505afa158015611493573d6000803e3d6000fd5b505050506040513d60208110156114a957600080fd5b5051156114b557600080fd5b846001815181106114c257fe5b602002602001015134146114d557600080fd5b60075460405163250bc23960e11b815233600482018181526001600160a01b038b811660248501526001600160e01b03198b16604485015261ffff8916608485015260ff881660a485015260c4840187905260e48401869052610100606485019081528a516101048601528a519190951694634a178472948d938d938d938d938d938d938d93919261012401906020808a01910280838360005b8381101561158757818101518382015260200161156f565b505050509050019950505050505050505050600060405180830381600087803b1580156115b357600080fd5b505af11580156115c7573d6000803e3d6000fd5b5050505050505050505050565b6000808060015b600c60009054906101000a90046001600160a01b03166001600160a01b0316637d03238f6040518163ffffffff1660e01b815260040160206040518083038186803b15801561162957600080fd5b505afa15801561163d573d6000803e3d6000fd5b505050506040513d602081101561165357600080fd5b505181101561192057600c546040805163dc68e16b60e01b81526004810184905290516000926001600160a01b03169163dc68e16b916024808301926020929190829003018186803b1580156116a857600080fd5b505afa1580156116bc573d6000803e3d6000fd5b505050506040513d60208110156116d257600080fd5b5051600c5460408051637e2d14d960e01b81526001600160e01b03198416600482015290519293506001600160a01b0390911691637e2d14d991602480820192602092909190829003018186803b15801561172c57600080fd5b505afa158015611740573d6000803e3d6000fd5b505050506040513d602081101561175657600080fd5b5051600b54604080516370a0823160e01b81526001600160a01b0392831660048201529051929650908616916370a0823191602480820192602092909190829003018186803b1580156117a857600080fd5b505afa1580156117bc573d6000803e3d6000fd5b505050506040513d60208110156117d257600080fd5b5051600c5460408051637e33261b60e11b81526001600160e01b03198516600482015290519295506000926001600160a01b039092169163fc664c3691602480820192602092909190829003018186803b15801561182f57600080fd5b505afa158015611843573d6000803e3d6000fd5b505050506040513d602081101561185957600080fd5b5051111561191757600c5460408051637e33261b60e11b81526001600160e01b031984166004820152905161191492611907926001600160a01b039091169163fc664c3691602480820192602092909190829003018186803b1580156118be57600080fd5b505afa1580156118d2573d6000803e3d6000fd5b505050506040513d60208110156118e857600080fd5b50516118fb86606463ffffffff6135e016565b9063ffffffff61364016565b869063ffffffff61368216565b94505b506001016115db565b50600b5461193f9084906001600160a01b03163163ffffffff61368216565b9250505090565b6005546040805163288c314960e21b815233600482015290516000926001600160a01b03169163a230c524916024808301926020929190829003018186803b15801561199157600080fd5b505afa1580156119a5573d6000803e3d6000fd5b505050506040513d60208110156119bb57600080fd5b50516119fb576040805162461bcd60e51b815260206004820152600a6024820152692737ba1036b2b6b132b960b11b604482015290519081900360640190fd5b600f54600160a01b900460ff1615611a4c576040805162461bcd60e51b815260206004820152600f60248201526e2932b2b73a3930b73a1031b0b6361760891b604482015290519081900360640190fd5b600f805460ff60a01b1916600160a01b17905560055460408051600162f6c75960e01b0319815290516001600160a01b039092169163ff0938a791600480820192602092909190829003018186803b158015611aa757600080fd5b505afa158015611abb573d6000803e3d6000fd5b505050506040513d6020811015611ad157600080fd5b505115611add57600080fd5b600854604080516370a0823160e01b8152336004820152905184926001600160a01b0316916370a08231916024808301926020929190829003018186803b158015611b2757600080fd5b505afa158015611b3b573d6000803e3d6000fd5b505050506040513d6020811015611b5157600080fd5b50511015611b9b576040805162461bcd60e51b81526020600482015260126024820152714e6f7420656e6f7567682062616c616e636560701b604482015290519081900360640190fd5b600a546040805163562d6d7b60e11b815233600482015290516001600160a01b039092169163ac5adaf691602480820192602092909190829003018186803b158015611be657600080fd5b505afa158015611bfa573d6000803e3d6000fd5b505050506040513d6020811015611c1057600080fd5b505115611c53576040805162461bcd60e51b815260206004820152600c60248201526b13595b58995c881d9bdd195960a21b604482015290519081900360640190fd5b600d60009054906101000a90046001600160a01b03166001600160a01b03166336b7abd06040518163ffffffff1660e01b815260040160206040518083038186803b158015611ca157600080fd5b505afa158015611cb5573d6000803e3d6000fd5b505050506040513d6020811015611ccb57600080fd5b5051821115611d21576040805162461bcd60e51b815260206004820181905260248201527f65786365656473206d6178696d756d20746f6b656e2073656c6c206c696d6974604482015290519081900360640190fd5b6000611d2c836136dc565b6009546040805163079cc67960e41b81523360048201526024810187905290519293506001600160a01b03909116916379cc6790916044808201926020929091908290030181600087803b158015611d8357600080fd5b505af1158015611d97573d6000803e3d6000fd5b505050506040513d6020811015611dad57600080fd5b5050604051339082156108fc029083906000818181858888f19350505050158015611ddc573d6000803e3d6000fd5b5050600f805460ff60a01b19169055506001919050565b6005546040805163288c314960e21b815233600482015290516001600160a01b039092169163a230c52491602480820192602092909190829003018186803b158015611e3e57600080fd5b505afa158015611e52573d6000803e3d6000fd5b505050506040513d6020811015611e6857600080fd5b5051611ea8576040805162461bcd60e51b815260206004820152600a6024820152692737ba1036b2b6b132b960b11b604482015290519081900360640190fd5b600560009054906101000a90046001600160a01b03166001600160a01b031663ff0938a76040518163ffffffff1660e01b815260040160206040518083038186803b158015611ef657600080fd5b505afa158015611f0a573d6000803e3d6000fd5b505050506040513d6020811015611f2057600080fd5b505115611f2c57600080fd5b600c546040805163e3dee23960e01b81526001600160e01b03198916600482015290516000926001600160a01b03169163e3dee239916024808301926020929190829003018186803b158015611f8157600080fd5b505afa158015611f95573d6000803e3d6000fd5b505050506040513d6020811015611fab57600080fd5b505186519091506001600160a01b038216906323b872dd90339030908a906001908110611fd457fe5b60200260200101516040518463ffffffff1660e01b815260040180846001600160a01b03166001600160a01b03168152602001836001600160a01b03166001600160a01b031681526020018281526020019350505050602060405180830381600087803b15801561204457600080fd5b505af1158015612058573d6000803e3d6000fd5b505050506040513d602081101561206e57600080fd5b50516120b3576040805162461bcd60e51b815260206004820152600f60248201526e151c985b9cd9995c8819985a5b1959608a1b604482015290519081900360640190fd5b60075460405163250bc23960e11b815233600482018181526001600160a01b038c811660248501526001600160e01b03198c16604485015261ffff8a16608485015260ff891660a485015260c4840188905260e48401879052610100606485019081528b516101048601528b519190951694634a178472948e938e938e938e938e938e938e93919261012401906020808a01910280838360005b8381101561216557818101518382015260200161214d565b505050509050019950505050505050505050600060405180830381600087803b15801561219157600080fd5b505af11580156121a5573d6000803e3d6000fd5b505050505050505050505050565b600554604080516323c5b10760e21b815233600482015290516000926001600160a01b031691638f16c41c916024808301926020929190829003018186803b1580156121fe57600080fd5b505afa158015612212573d6000803e3d6000fd5b505050506040513d602081101561222857600080fd5b505161223357600080fd5b600f54600160a01b900460ff1615612284576040805162461bcd60e51b815260206004820152600f60248201526e2932b2b73a3930b73a1031b0b6361760891b604482015290519081900360640190fd5b600f805460ff60a01b1916600160a01b17905560006122b185670de0b6b3a764000063ffffffff61364016565b600c546040805163e3dee23960e01b81526001600160e01b031987166004820152905192935060009283926001600160a01b03169163e3dee239916024808301926020929190829003018186803b15801561230b57600080fd5b505afa15801561231f573d6000803e3d6000fd5b505050506040513d602081101561233557600080fd5b505190506208aa8960eb1b6001600160e01b031986161480156123585750864710155b1561239d576040516001600160a01b0387169088156108fc029089906000818181858888f19350505050158015612393573d6000803e3d6000fd5b50600191506124c5565b6244414960e81b6001600160e01b0319861614801561242f5750604080516370a0823160e01b8152306004820152905188916001600160a01b038416916370a0823191602480820192602092909190829003018186803b15801561240057600080fd5b505afa158015612414573d6000803e3d6000fd5b505050506040513d602081101561242a57600080fd5b505110155b156124c557806001600160a01b031663a9059cbb87896040518363ffffffff1660e01b815260040180836001600160a01b03166001600160a01b0316815260200182815260200192505050602060405180830381600087803b15801561249457600080fd5b505af11580156124a8573d6000803e3d6000fd5b505050506040513d60208110156124be57600080fd5b5060019250505b6001821515141561268f5760075460408051633fb453cf60e11b8152600481018c90526024810186905290516001600160a01b0390921691637f68a79e9160448082019260009290919082900301818387803b15801561252457600080fd5b505af1158015612538573d6000803e3d6000fd5b5050600c546040805162487d2d60e81b81526001600160e01b03198a16600482015290516001600160a01b03909216935063d1750585925088916125d7918c91869163487d2d00916024808301926020929190829003018186803b15801561259f57600080fd5b505afa1580156125b3573d6000803e3d6000fd5b505050506040513d60208110156125c957600080fd5b50519063ffffffff613b3e16565b6040518363ffffffff1660e01b815260040180836001600160e01b0319166001600160e01b031916815260200182815260200192505050600060405180830381600087803b15801561262857600080fd5b505af115801561263c573d6000803e3d6000fd5b5050604080518c8152602081018b905281516001600160a01b038b1694507f634235fcf5af0adbca1a405ec65f6f6c08f55e1f379c2c45cd10f23cb29e0e3193509081900390910190a2600193506126fc565b600e5460408051637a88deff60e11b8152600481018b9052600c602482015290516001600160a01b039092169163f511bdfe9160448082019260009290919082900301818387803b1580156126e357600080fd5b505af11580156126f7573d6000803e3d6000fd5b505050505b612704613b80565b600a5460408051631f35958160e31b8152600481018c90526001600160e01b031988166024820152604481018a905290516001600160a01b039092169163f9acac089160648082019260009290919082900301818387803b15801561276857600080fd5b505af115801561277c573d6000803e3d6000fd5b5050600f805460ff60a01b1916905550939998505050505050505050565b600554604080516323c5b10760e21b815233600482015290516001600160a01b0390921691638f16c41c91602480820192602092909190829003018186803b1580156127e557600080fd5b505afa1580156127f9573d6000803e3d6000fd5b505050506040513d602081101561280f57600080fd5b505161281a57600080fd5b6109a6613b80565b600554604080516323c5b10760e21b815233600482015290516001600160a01b0390921691638f16c41c91602480820192602092909190829003018186803b15801561286d57600080fd5b505afa158015612881573d6000803e3d6000fd5b505050506040513d602081101561289757600080fd5b50516128a257600080fd5b600061290360048367ffffffffffffffff166040518060400160405280600381526020016215549360ea1b8152506128fa604051806060016040528060348152602001615669603491396128f589613d9e565b613e5f565b620f4240613010565b905061101d816221a7ab60e91b85613058565b6005546001600160a01b031681565b600554604080516323c5b10760e21b815233600482015290516001600160a01b0390921691638f16c41c91602480820192602092909190829003018186803b15801561297057600080fd5b505afa158015612984573d6000803e3d6000fd5b505050506040513d602081101561299a57600080fd5b50516129a557600080fd5b60006129e26004836040518060400160405280600381526020016215549360ea1b81525060405180602001604052806000815250622dc6c0613010565b905061101d8162434c4160e81b85613058565b6005546040805163288c314960e21b815233600482015290516000926001600160a01b03169163a230c524916024808301926020929190829003018186803b158015612a4057600080fd5b505afa158015612a54573d6000803e3d6000fd5b505050506040513d6020811015612a6a57600080fd5b5051612aaa576040805162461bcd60e51b815260206004820152600a6024820152692737ba1036b2b6b132b960b11b604482015290519081900360640190fd5b600560009054906101000a90046001600160a01b03166001600160a01b031663ff0938a76040518163ffffffff1660e01b815260040160206040518083038186803b158015612af857600080fd5b505afa158015612b0c573d6000803e3d6000fd5b505050506040513d6020811015612b2257600080fd5b505115612b2e57600080fd5b60003411612b3b57600080fd5b6000612b474734613e9b565b600954604080516340c10f1960e01b81523360048201526024810184905290519293506001600160a01b03909116916340c10f199160448082019260009290919082900301818387803b158015612b9d57600080fd5b505af1158015612bb1573d6000803e3d6000fd5b50505050600191505090565b600f54600090600160a01b900460ff1615612c11576040805162461bcd60e51b815260206004820152600f60248201526e2932b2b73a3930b73a1031b0b6361760891b604482015290519081900360640190fd5b600f805460ff60a01b1916600160a01b17905560055460408051600162f6c75960e01b0319815290516001600160a01b039092169163ff0938a791600480820192602092909190829003018186803b158015612c6c57600080fd5b505afa158015612c80573d6000803e3d6000fd5b505050506040513d6020811015612c9657600080fd5b505115612ca257600080fd5b60055460408051632c1a733d60e11b815233600482015290516001600160a01b0390921691635834e67a91602480820192602092909190829003018186803b158015612ced57600080fd5b505afa158015612d01573d6000803e3d6000fd5b505050506040513d6020811015612d1757600080fd5b5051612d6a576040805162461bcd60e51b815260206004820152601860248201527f4e6f7420617574686f72697a656420746f20476f7665726e0000000000000000604482015290519081900360640190fd5b6040516001600160a01b0383169084156108fc029085906000818181858888f1600f805460ff60a01b19169055979650505050505050565b600554604080516323c5b10760e21b815233600482015290516001600160a01b0390921691638f16c41c91602480820192602092909190829003018186803b158015612ded57600080fd5b505afa158015612e01573d6000803e3d6000fd5b505050506040513d6020811015612e1757600080fd5b5051612e2257600080fd5b6000612e666003836040518060400160405280600381526020016215549360ea1b8152506040518060600160405280602581526020016156e9602591396000613010565b90506109a2816226a1a960e91b6000613058565b6005546001600160a01b031615612ed7576005546001600160a01b03163314612ed7576040805162461bcd60e51b815260206004820152600a6024820152692737ba1036b0b9ba32b960b11b604482015290519081900360640190fd5b600580546001600160a01b039092166001600160a01b0319928316811790915560068054909216179055565b600554604080516323c5b10760e21b815233600482015290516001600160a01b0390921691638f16c41c91602480820192602092909190829003018186803b158015612f4e57600080fd5b505afa158015612f62573d6000803e3d6000fd5b505050506040513d6020811015612f7857600080fd5b5051612f8357600080fd5b6000612fc06004836040518060400160405280600381526020016215549360ea1b81525060405180602001604052806000815250620493e0613010565b90506109a28161045560f41b6000613058565b6000612fee612fe8478463ffffffff61368216565b83613e9b565b90505b919050565b6000612fee826136dc565b6006546001600160a01b031681565b6000856004141561302e57613027858585856143fe565b905061304f565b8560031415613042576130278585856147d5565b61304c8484614b9c565b90505b95945050505050565b600c5460408051630424593b60e41b8152600481018690526001600160e01b0319851660248201526044810184905290516001600160a01b039092169163424593b09160648082019260009290919082900301818387803b1580156130bc57600080fd5b505af11580156130d0573d6000803e3d6000fd5b5050600c546040805163d676ee9160e01b81526004810188905290516001600160a01b03909216935063d676ee91925060248082019260009290919082900301818387803b15801561312157600080fd5b505af1158015613135573d6000803e3d6000fd5b50505050505050565b60006208aa8960eb1b6001600160e01b0319841614156131d65781471015613164574791505b600b60009054906101000a90046001600160a01b03166001600160a01b0316630e29df22836040518263ffffffff1660e01b81526004016000604051808303818588803b1580156131b457600080fd5b505af11580156131c8573d6000803e3d6000fd5b5050505050600190506133da565b600c546040805163e3dee23960e01b81526001600160e01b03198616600482015290516000926001600160a01b03169163e3dee239916024808301926020929190829003018186803b15801561322b57600080fd5b505afa15801561323f573d6000803e3d6000fd5b505050506040513d602081101561325557600080fd5b5051604080516370a0823160e01b8152306004820152905191925084916001600160a01b038416916370a08231916024808301926020929190829003018186803b1580156132a257600080fd5b505afa1580156132b6573d6000803e3d6000fd5b505050506040513d60208110156132cc57600080fd5b5051101561334957604080516370a0823160e01b815230600482015290516001600160a01b038316916370a08231916024808301926020929190829003018186803b15801561331a57600080fd5b505afa15801561332e573d6000803e3d6000fd5b505050506040513d602081101561334457600080fd5b505192505b600b546040805163a9059cbb60e01b81526001600160a01b0392831660048201526024810186905290519183169163a9059cbb916044808201926020929091908290030181600087803b15801561339f57600080fd5b505af11580156133b3573d6000803e3d6000fd5b505050506040513d60208110156133c957600080fd5b50516133d457600080fd5b60019150505b92915050565b600c546040805163e3dee23960e01b81526001600160e01b03198516600482015290516000926001600160a01b03169163e3dee239916024808301926020929190829003018186803b15801561343557600080fd5b505afa158015613449573d6000803e3d6000fd5b505050506040513d602081101561345f57600080fd5b5051604080516370a0823160e01b815230600482015290519192506000916001600160a01b038416916370a08231916024808301926020929190829003018186803b1580156134ad57600080fd5b505afa1580156134c1573d6000803e3d6000fd5b505050506040513d60208110156134d757600080fd5b5051111561101d57604080516370a0823160e01b815230600482015290516001600160a01b0383169163a9059cbb91859184916370a0823191602480820192602092909190829003018186803b15801561353057600080fd5b505afa158015613544573d6000803e3d6000fd5b505050506040513d602081101561355a57600080fd5b5051604080516001600160e01b031960e086901b1681526001600160a01b03909316600484015260248301919091525160448083019260209291908290030181600087803b1580156135ab57600080fd5b505af11580156135bf573d6000803e3d6000fd5b505050506040513d60208110156135d557600080fd5b505161101d57600080fd5b6000826135ef575060006133da565b828202828482816135fc57fe5b04146136395760405162461bcd60e51b81526004018080602001828103825260218152602001806156c86021913960400191505060405180910390fd5b9392505050565b600061363983836040518060400160405280601a81526020017f536166654d6174683a206469766973696f6e206279207a65726f000000000000815250614f5a565b600082820183811015613639576040805162461bcd60e51b815260206004820152601b60248201527f536166654d6174683a206164646974696f6e206f766572666c6f770000000000604482015290519081900360640190fd5b600080600080600860009054906101000a90046001600160a01b03166001600160a01b03166318160ddd6040518163ffffffff1660e01b815260040160206040518083038186803b15801561373057600080fd5b505afa158015613744573d6000803e3d6000fd5b505050506040513d602081101561375a57600080fd5b5051600c546040805163c94f740f60e01b815290519293506000928392839283926001600160a01b039092169163c94f740f91600480820192608092909190829003018186803b1580156137ad57600080fd5b505afa1580156137c1573d6000803e3d6000fd5b505050506040513d60808110156137d757600080fd5b508051604091820151600d548351636cf68d3d60e11b815284519397509195506001600160a01b03169263d9ed1a7a92600480840193829003018186803b15801561382157600080fd5b505afa158015613835573d6000803e3d6000fd5b505050506040513d604081101561384b57600080fd5b505193505b8815613b325761386a826118fb858763ffffffff6135e016565b600d5460408051636837a51f60e01b81526208aa8960eb1b60048201526024810184905290519293506001600160a01b0390911691636837a51f91604480820192602092909190829003018186803b1580156138c557600080fd5b505afa1580156138d9573d6000803e3d6000fd5b505050506040513d60208110156138ef57600080fd5b5051965061390b6103e86118fb896103cf63ffffffff6135e016565b600f5460408051632235467160e21b8152905192995061399692670de0b6b3a7640000926001600160a01b0316916388d519c4916004808301926020929190829003018186803b15801561395e57600080fd5b505afa158015613972573d6000803e3d6000fd5b505050506040513d602081101561398857600080fd5b50519063ffffffff6135e016565b89116139cf576139c86139bb670de0b6b3a76400006118fb8a8d63ffffffff6135e016565b899063ffffffff61368216565b9750613b32565b613a35613a286012600a0a600f60009054906101000a90046001600160a01b03166001600160a01b03166388d519c46040518163ffffffff1660e01b815260040160206040518083038186803b15801561395e57600080fd5b8a9063ffffffff613b3e16565b9850613a9d613a906012600a0a600f60009054906101000a90046001600160a01b03166001600160a01b03166388d519c46040518163ffffffff1660e01b815260040160206040518083038186803b15801561395e57600080fd5b869063ffffffff613b3e16565b600f5460408051632235467160e21b81529051929750613b0792670de0b6b3a7640000926118fb92613afa9285926001600160a01b0316916388d519c4916004808301926020929190829003018186803b15801561395e57600080fd5b8a9063ffffffff6135e016565b9550613b19848763ffffffff613b3e16565b9350613b2b888763ffffffff61368216565b9750613850565b50505050505050919050565b600061363983836040518060400160405280601e81526020017f536166654d6174683a207375627472616374696f6e206f766572666c6f770000815250614ffc565b600c5460408051630ca93feb60e31b81529051613c6f926001600160a01b031691636549ff58916004808301926020929190829003018186803b158015613bc657600080fd5b505afa158015613bda573d6000803e3d6000fd5b505050506040513d6020811015613bf057600080fd5b5051600c5460408051634e55a69b60e01b815290516001600160a01b0390921691634e55a69b91600480820192602092909190829003018186803b158015613c3757600080fd5b505afa158015613c4b573d6000803e3d6000fd5b505050506040513d6020811015613c6157600080fd5b50519063ffffffff61368216565b4211156109a657600c60009054906101000a90046001600160a01b03166001600160a01b03166384769f446040518163ffffffff1660e01b8152600401600060405180830381600087803b158015613cc657600080fd5b505af1158015613cda573d6000803e3d6000fd5b5050600c5460408051630ca93feb60e31b8152905160009450613d8793506004926001600160a01b031691636549ff5891818501916020919081900386018186803b158015613d2857600080fd5b505afa158015613d3c573d6000803e3d6000fd5b505050506040513d6020811015613d5257600080fd5b5051604080518082018252600381526215549360ea1b60208281019190915282519081019092526000825290620493e0613010565b9050613d9b816215531560ea1b6000613058565b50565b606081613dc357506040805180820190915260018152600360fc1b6020820152612ff1565b8160005b8115613ddb57600101600a82049150613dc7565b6060816040519080825280601f01601f191660200182016040528015613e08576020820181803883390190505b50905060001982015b8515613e5657600a860660300160f81b82828060019003935081518110613e3457fe5b60200101906001600160f81b031916908160001a905350600a86049550613e11565b50949350505050565b60606136398383604051806020016040528060008152506040518060200160405280600081525060405180602001604052806000815250615056565b60008080613eb784670de0b6b3a764000063ffffffff6135e016565b90506000806000600860009054906101000a90046001600160a01b03166001600160a01b03166318160ddd6040518163ffffffff1660e01b815260040160206040518083038186803b158015613f0c57600080fd5b505afa158015613f20573d6000803e3d6000fd5b505050506040513d6020811015613f3657600080fd5b5051600c546040805163c94f740f60e01b815290519293506000928392839283926001600160a01b039092169163c94f740f91600480820192608092909190829003018186803b158015613f8957600080fd5b505afa158015613f9d573d6000803e3d6000fd5b505050506040513d6080811015613fb357600080fd5b508051604090910151600d5491945092506001600160a01b0316639af1f71f613fe28e8e63ffffffff613b3e16565b6040518263ffffffff1660e01b815260040180828152602001915050604080518083038186803b15801561401557600080fd5b505afa158015614029573d6000803e3d6000fd5b505050506040513d604081101561403f57600080fd5b5051600d5460408051633cb23b2d60e01b81526208aa8960eb1b600482015290519296506000926001600160a01b0390921691633cb23b2d91602480820192602092909190829003018186803b15801561409857600080fd5b505afa1580156140ac573d6000803e3d6000fd5b505050506040513d60208110156140c257600080fd5b505111614116576040805162461bcd60e51b815260206004820152601b60248201527f546f6b656e2070726963652063616e206e6f74206265207a65726f0000000000604482015290519081900360640190fd5b87156143ef57614130826118fb858763ffffffff6135e016565b600d5460408051636837a51f60e01b81526208aa8960eb1b60048201526024810184905290519293506001600160a01b0390911691636837a51f91604480820192602092909190829003018186803b15801561418b57600080fd5b505afa15801561419f573d6000803e3d6000fd5b505050506040513d60208110156141b557600080fd5b505198506141c9888a63ffffffff61364016565b600f5460408051632235467160e21b8152905192995061421c92670de0b6b3a7640000926001600160a01b0316916388d519c4916004808301926020929190829003018186803b15801561395e57600080fd5b8711614239576142328a8863ffffffff61368216565b99506143ef565b61429f6142926012600a0a600f60009054906101000a90046001600160a01b03166001600160a01b03166388d519c46040518163ffffffff1660e01b815260040160206040518083038186803b15801561395e57600080fd5b8b9063ffffffff61368216565b99506142fa6119076012600a0a600f60009054906101000a90046001600160a01b03166001600160a01b03166388d519c46040518163ffffffff1660e01b815260040160206040518083038186803b15801561395e57600080fd5b9450614362896143566012600a0a600f60009054906101000a90046001600160a01b03166001600160a01b03166388d519c46040518163ffffffff1660e01b815260040160206040518083038186803b15801561395e57600080fd5b9063ffffffff6135e016565b9550614374888763ffffffff613b3e16565b97506143e86143db6012600a0a6118fb8c6143566012600a0a600f60009054906101000a90046001600160a01b03166001600160a01b03166388d519c46040518163ffffffff1660e01b815260040160206040518083038186803b15801561395e57600080fd5b859063ffffffff61368216565b9350614116565b50505050505050505092915050565b6001546000906001600160a01b0316158061442b5750600154614429906001600160a01b031661526a565b155b1561443c5761443a600061526e565b505b600160009054906101000a90046001600160a01b03166001600160a01b03166338cc48316040518163ffffffff1660e01b8152600401602060405180830381600087803b15801561448c57600080fd5b505af11580156144a0573d6000803e3d6000fd5b505050506040513d60208110156144b657600080fd5b50516000546001600160a01b0390811691161461456957600160009054906101000a90046001600160a01b03166001600160a01b03166338cc48316040518163ffffffff1660e01b8152600401602060405180830381600087803b15801561451d57600080fd5b505af1158015614531573d6000803e3d6000fd5b505050506040513d602081101561454757600080fd5b5051600080546001600160a01b0319166001600160a01b039092169190911790555b6000805460408051630bbceb3360e21b815260248101869052600481019182528751604482015287516001600160a01b0390931692632ef3accc928992889282916064019060208601908083838c5b838110156145d05781810151838201526020016145b8565b50505050905090810190601f1680156145fd5780820380516001836020036101000a031916815260200191505b509350505050602060405180830381600087803b15801561461d57600080fd5b505af1158015614631573d6000803e3d6000fd5b505050506040513d602081101561464757600080fd5b50519050670de0b6b3a76400003a8402018111156146695750600090506147cd565b6000809054906101000a90046001600160a01b03166001600160a01b031663c51be90f82888888886040518663ffffffff1660e01b8152600401808581526020018060200180602001848152602001838103835286818151815260200191508051906020019080838360005b838110156146ed5781810151838201526020016146d5565b50505050905090810190601f16801561471a5780820380516001836020036101000a031916815260200191505b50838103825285518152855160209182019187019080838360005b8381101561474d578181015183820152602001614735565b50505050905090810190601f16801561477a5780820380516001836020036101000a031916815260200191505b5096505050505050506020604051808303818588803b15801561479c57600080fd5b505af11580156147b0573d6000803e3d6000fd5b50505050506040513d60208110156147c757600080fd5b50519150505b949350505050565b6001546000906001600160a01b031615806148025750600154614800906001600160a01b031661526a565b155b1561481357614811600061526e565b505b600160009054906101000a90046001600160a01b03166001600160a01b03166338cc48316040518163ffffffff1660e01b8152600401602060405180830381600087803b15801561486357600080fd5b505af1158015614877573d6000803e3d6000fd5b505050506040513d602081101561488d57600080fd5b50516000546001600160a01b0390811691161461494057600160009054906101000a90046001600160a01b03166001600160a01b03166338cc48316040518163ffffffff1660e01b8152600401602060405180830381600087803b1580156148f457600080fd5b505af1158015614908573d6000803e3d6000fd5b505050506040513d602081101561491e57600080fd5b5051600080546001600160a01b0319166001600160a01b039092169190911790555b6000805460405163524f388960e01b81526020600482018181528751602484015287516001600160a01b039094169363524f38899389938392604490920191908501908083838b5b838110156149a0578181015183820152602001614988565b50505050905090810190601f1680156149cd5780820380516001836020036101000a031916815260200191505b5092505050602060405180830381600087803b1580156149ec57600080fd5b505af1158015614a00573d6000803e3d6000fd5b505050506040513d6020811015614a1657600080fd5b50519050670de0b6b3a764000062030d403a0201811115614a3b575060009050613639565b6000809054906101000a90046001600160a01b03166001600160a01b031663adf59f99828787876040518563ffffffff1660e01b8152600401808481526020018060200180602001838103835285818151815260200191508051906020019080838360005b83811015614ab8578181015183820152602001614aa0565b50505050905090810190601f168015614ae55780820380516001836020036101000a031916815260200191505b50838103825284518152845160209182019186019080838360005b83811015614b18578181015183820152602001614b00565b50505050905090810190601f168015614b455780820380516001836020036101000a031916815260200191505b50955050505050506020604051808303818588803b158015614b6657600080fd5b505af1158015614b7a573d6000803e3d6000fd5b50505050506040513d6020811015614b9157600080fd5b505195945050505050565b6001546000906001600160a01b03161580614bc95750600154614bc7906001600160a01b031661526a565b155b15614bda57614bd8600061526e565b505b600160009054906101000a90046001600160a01b03166001600160a01b03166338cc48316040518163ffffffff1660e01b8152600401602060405180830381600087803b158015614c2a57600080fd5b505af1158015614c3e573d6000803e3d6000fd5b505050506040513d6020811015614c5457600080fd5b50516000546001600160a01b03908116911614614d0757600160009054906101000a90046001600160a01b03166001600160a01b03166338cc48316040518163ffffffff1660e01b8152600401602060405180830381600087803b158015614cbb57600080fd5b505af1158015614ccf573d6000803e3d6000fd5b505050506040513d6020811015614ce557600080fd5b5051600080546001600160a01b0319166001600160a01b039092169190911790555b6000805460405163524f388960e01b81526020600482018181528751602484015287516001600160a01b039094169363524f38899389938392604490920191908501908083838b5b83811015614d67578181015183820152602001614d4f565b50505050905090810190601f168015614d945780820380516001836020036101000a031916815260200191505b5092505050602060405180830381600087803b158015614db357600080fd5b505af1158015614dc7573d6000803e3d6000fd5b505050506040513d6020811015614ddd57600080fd5b50519050670de0b6b3a764000062030d403a0201811115614e025750600090506133da565b6000805460405163adf59f9960e01b8152600481018381526060602483019081528851606484015288516001600160a01b039094169463adf59f9994879491938b938b9391929091604481019160849091019060208701908083838b5b83811015614e77578181015183820152602001614e5f565b50505050905090810190601f168015614ea45780820380516001836020036101000a031916815260200191505b50838103825284518152845160209182019186019080838360005b83811015614ed7578181015183820152602001614ebf565b50505050905090810190601f168015614f045780820380516001836020036101000a031916815260200191505b50955050505050506020604051808303818588803b158015614f2557600080fd5b505af1158015614f39573d6000803e3d6000fd5b50505050506040513d6020811015614f5057600080fd5b5051949350505050565b60008183614fe65760405162461bcd60e51b81526004018080602001828103825283818151815260200191508051906020019080838360005b83811015614fab578181015183820152602001614f93565b50505050905090810190601f168015614fd85780820380516001836020036101000a031916815260200191505b509250505060405180910390fd5b506000838581614ff257fe5b0495945050505050565b6000818484111561504e5760405162461bcd60e51b8152602060048201818152835160248401528351909283926044909101919085019080838360008315614fab578181015183820152602001614f93565b505050900390565b6060808690506060869050606086905060608690506060869050606081518351855187518951010101016040519080825280601f01601f1916602001820160405280156150aa576020820181803883390190505b509050806000805b8851811015615103578881815181106150c757fe5b602001015160f81c60f81b8383806001019450815181106150e457fe5b60200101906001600160f81b031916908160001a9053506001016150b2565b5060005b87518110156151585787818151811061511c57fe5b602001015160f81c60f81b83838060010194508151811061513957fe5b60200101906001600160f81b031916908160001a905350600101615107565b5060005b86518110156151ad5786818151811061517157fe5b602001015160f81c60f81b83838060010194508151811061518e57fe5b60200101906001600160f81b031916908160001a90535060010161515c565b5060005b8551811015615202578581815181106151c657fe5b602001015160f81c60f81b8383806001019450815181106151e357fe5b60200101906001600160f81b031916908160001a9053506001016151b1565b5060005b84518110156152575784818151811061521b57fe5b602001015160f81c60f81b83838060010194508151811061523857fe5b60200101906001600160f81b031916908160001a905350600101615206565b50909d9c50505050505050505050505050565b3b90565b6000612fee600080615293731d3b2638a7cc9f2cb3d298a3da7a90b67e5506ed61526a565b11156152f257600180546001600160a01b031916731d3b2638a7cc9f2cb3d298a3da7a90b67e5506ed17905560408051808201909152600b81526a195d1a17db585a5b9b995d60aa1b60208201526152ea906155c2565b5060016155bf565b600061531173c03a2615d5efaf5f49f60b7bb6583eaec212fdf161526a565b111561536957600180546001600160a01b03191673c03a2615d5efaf5f49f60b7bb6583eaec212fdf117905560408051808201909152600c81526b6574685f726f707374656e3360a01b60208201526152ea906155c2565b600061538873b7a07bcf2ba2f2703b24c0691b5278999c59ac7e61526a565b11156153dd57600180546001600160a01b03191673b7a07bcf2ba2f2703b24c0691b5278999c59ac7e17905560408051808201909152600981526832ba342fb5b7bb30b760b91b60208201526152ea906155c2565b60006153fc73146500cfd35b22e4a392fe0adc06de1a1368ed4861526a565b111561545357600180546001600160a01b03191673146500cfd35b22e4a392fe0adc06de1a1368ed4817905560408051808201909152600b81526a6574685f72696e6b65627960a81b60208201526152ea906155c2565b600061547273a2998efd205fb9d4b4963afb70778d6354ad3a4161526a565b11156154c857600180546001600160a01b03191673a2998efd205fb9d4b4963afb70778d6354ad3a4117905560408051808201909152600a8152696574685f676f65726c6960b01b60208201526152ea906155c2565b60006154e7736f485c8bf6fc43ea212e93bbf8ce046c7f1cb47561526a565b11156155195750600180546001600160a01b031916736f485c8bf6fc43ea212e93bbf8ce046c7f1cb4751781556155bf565b60006155387320e12a1f859b3feae5fb2a0a32c18f5a65555bbf61526a565b111561556a5750600180546001600160a01b0319167320e12a1f859b3feae5fb2a0a32c18f5a65555bbf1781556155bf565b60006155897351efaf4c8b3c9afbd5ab9f4bbc82784ab6ef8faa61526a565b11156155bb5750600180546001600160a01b0319167351efaf4c8b3c9afbd5ab9f4bbc82784ab6ef8faa1781556155bf565b5060005b90565b80516109a2906002906020840190828054600181600116156101000203166002900490600052602060002090601f016020900481019282601f1061561157805160ff191683800117855561563e565b8280016001018555821561563e579182015b8281111561563e578251825591602001919060010190615623565b5061564a92915061564e565b5090565b6155bf91905b8082111561564a576000815560010161565456fe687474703a2f2f61312e6e657875736d757475616c2e696f2f6170692f436c61696d732f636c6f7365436c61696d5f686173682f68747470733a2f2f6170692e6e657875736d757475616c2e696f2f73617665494144657461696c732f4d31536166654d6174683a206d756c7469706c69636174696f6e206f766572666c6f7768747470733a2f2f6170692e6e657875736d757475616c2e696f2f706f73744d43522f4d31a265627a7a723158209ae6915ecf8bef512f65d8c742db2c12cbd6ac2809cdbb3eb0fc36a4370c111a64736f6c63430005110032",
  "linkReferences": {},
  "deployedLinkReferences": {}
}