{
  "_format": "hh-sol-artifact-1",
  "contractName": "Claims",
  "sourceName": "contracts/NexusMutual/modules/claims/Claims.sol",
  "abi": [
    {
      "constant": false,
      "inputs": [],
      "name": "changeDependentContractAddress",
      "outputs": [],
      "payable": false,
      "stateMutability": "nonpayable",
      "type": "function"
    },
    {
      "constant": false,
      "inputs": [
        {
          "internalType": "address",
          "name": "_masterAddress",
          "type": "address"
        }
      ],
      "name": "changeMasterAddress",
      "outputs": [],
      "payable": false,
      "stateMutability": "nonpayable",
      "type": "function"
    },
    {
      "constant": false,
      "inputs": [],
      "name": "changePendingClaimStart",
      "outputs": [],
      "payable": false,
      "stateMutability": "nonpayable",
      "type": "function"
    },
    {
      "constant": true,
      "inputs": [
        {
          "internalType": "uint256",
          "name": "claimId",
          "type": "uint256"
        }
      ],
      "name": "checkVoteClosing",
      "outputs": [
        {
          "internalType": "int8",
          "name": "close",
          "type": "int8"
        }
      ],
      "payable": false,
      "stateMutability": "view",
      "type": "function"
    },
    {
      "constant": true,
      "inputs": [
        {
          "internalType": "uint256",
          "name": "claimId",
          "type": "uint256"
        },
        {
          "internalType": "uint256",
          "name": "member",
          "type": "uint256"
        }
      ],
      "name": "getCATokens",
      "outputs": [
        {
          "internalType": "uint256",
          "name": "tokens",
          "type": "uint256"
        }
      ],
      "payable": false,
      "stateMutability": "view",
      "type": "function"
    },
    {
      "constant": true,
      "inputs": [
        {
          "internalType": "uint256",
          "name": "index",
          "type": "uint256"
        }
      ],
      "name": "getClaimFromNewStart",
      "outputs": [
        {
          "internalType": "uint256",
          "name": "coverId",
          "type": "uint256"
        },
        {
          "internalType": "uint256",
          "name": "claimId",
          "type": "uint256"
        },
        {
          "internalType": "int8",
          "name": "voteCA",
          "type": "int8"
        },
        {
          "internalType": "int8",
          "name": "voteMV",
          "type": "int8"
        },
        {
          "internalType": "uint256",
          "name": "statusnumber",
          "type": "uint256"
        }
      ],
      "payable": false,
      "stateMutability": "view",
      "type": "function"
    },
    {
      "constant": true,
      "inputs": [
        {
          "internalType": "uint256",
          "name": "_claimId",
          "type": "uint256"
        }
      ],
      "name": "getClaimbyIndex",
      "outputs": [
        {
          "internalType": "uint256",
          "name": "claimId",
          "type": "uint256"
        },
        {
          "internalType": "uint256",
          "name": "status",
          "type": "uint256"
        },
        {
          "internalType": "int8",
          "name": "finalVerdict",
          "type": "int8"
        },
        {
          "internalType": "address",
          "name": "claimOwner",
          "type": "address"
        },
        {
          "internalType": "uint256",
          "name": "coverId",
          "type": "uint256"
        }
      ],
      "payable": false,
      "stateMutability": "view",
      "type": "function"
    },
    {
      "constant": true,
      "inputs": [
        {
          "internalType": "uint256",
          "name": "index",
          "type": "uint256"
        }
      ],
      "name": "getUserClaimByIndex",
      "outputs": [
        {
          "internalType": "uint256",
          "name": "status",
          "type": "uint256"
        },
        {
          "internalType": "uint256",
          "name": "coverId",
          "type": "uint256"
        },
        {
          "internalType": "uint256",
          "name": "claimId",
          "type": "uint256"
        }
      ],
      "payable": false,
      "stateMutability": "view",
      "type": "function"
    },
    {
      "constant": true,
      "inputs": [],
      "name": "ms",
      "outputs": [
        {
          "internalType": "contract INXMMaster",
          "name": "",
          "type": "address"
        }
      ],
      "payable": false,
      "stateMutability": "view",
      "type": "function"
    },
    {
      "constant": true,
      "inputs": [],
      "name": "nxMasterAddress",
      "outputs": [
        {
          "internalType": "address",
          "name": "",
          "type": "address"
        }
      ],
      "payable": false,
      "stateMutability": "view",
      "type": "function"
    },
    {
      "constant": false,
      "inputs": [],
      "name": "pauseAllPendingClaimsVoting",
      "outputs": [],
      "payable": false,
      "stateMutability": "nonpayable",
      "type": "function"
    },
    {
      "constant": false,
      "inputs": [
        {
          "internalType": "uint256",
          "name": "claimId",
          "type": "uint256"
        },
        {
          "internalType": "uint256",
          "name": "stat",
          "type": "uint256"
        }
      ],
      "name": "setClaimStatus",
      "outputs": [],
      "payable": false,
      "stateMutability": "nonpayable",
      "type": "function"
    },
    {
      "constant": false,
      "inputs": [],
      "name": "startAllPendingClaimsVoting",
      "outputs": [],
      "payable": false,
      "stateMutability": "nonpayable",
      "type": "function"
    },
    {
      "constant": false,
      "inputs": [
        {
          "internalType": "uint256",
          "name": "claimId",
          "type": "uint256"
        },
        {
          "internalType": "int8",
          "name": "verdict",
          "type": "int8"
        }
      ],
      "name": "submitCAVote",
      "outputs": [],
      "payable": false,
      "stateMutability": "nonpayable",
      "type": "function"
    },
    {
      "constant": false,
      "inputs": [
        {
          "internalType": "uint256",
          "name": "coverId",
          "type": "uint256"
        }
      ],
      "name": "submitClaim",
      "outputs": [],
      "payable": false,
      "stateMutability": "nonpayable",
      "type": "function"
    },
    {
      "constant": false,
      "inputs": [],
      "name": "submitClaimAfterEPOff",
      "outputs": [],
      "payable": false,
      "stateMutability": "nonpayable",
      "type": "function"
    },
    {
      "constant": false,
      "inputs": [
        {
          "internalType": "uint256",
          "name": "claimId",
          "type": "uint256"
        },
        {
          "internalType": "int8",
          "name": "verdict",
          "type": "int8"
        }
      ],
      "name": "submitMemberVote",
      "outputs": [],
      "payable": false,
      "stateMutability": "nonpayable",
      "type": "function"
    }
  ],
  "bytecode": "0x608060405234801561001057600080fd5b506148c8806100206000396000f3fe608060405234801561001057600080fd5b506004361061010b5760003560e01c8063a0b2d57f116100a2578063ed2f21c511610071578063ed2f21c51461028d578063ef154cf2146102b3578063f17a3bec146102e9578063f511bdfe146102f1578063fe589997146103145761010b565b8063a0b2d57f14610215578063b23d763414610239578063bfa52b1214610241578063d46655f4146102675761010b565b806357af0515116100de57806357af0515146101b35780636aa14a96146101e857806375a0f521146102055780639755fafe1461020d5761010b565b80630ea9c98414610110578063380216711461011a5780633c836e521461012257806355d9dc5f14610178575b600080fd5b610118610366565b005b610118610a16565b61013f6004803603602081101561013857600080fd5b5035610d24565b604080519586526020860194909452600092830b90920b848401526001600160a01b031660608401526080830152519081900360a00190f35b6101956004803603602081101561018e57600080fd5b5035610e43565b60408051938452602084019290925282820152519081900360600190f35b6101d6600480360360408110156101c957600080fd5b5080359060200135610ee0565b60408051918252519081900360200190f35b610118600480360360208110156101fe57600080fd5b50356111c1565b6101186114e6565b610118611861565b61021d611e98565b604080516001600160a01b039092168252519081900360200190f35b610118611ea7565b6101186004803603604081101561025757600080fd5b508035906020013560000b61215a565b6101186004803603602081101561027d57600080fd5b50356001600160a01b0316612a62565b610118600480360360408110156102a357600080fd5b508035906020013560000b612aeb565b6102d0600480360360208110156102c957600080fd5b5035613166565b60408051600092830b90920b8252519081900360200190f35b61021d6134b1565b6101186004803603604081101561030757600080fd5b50803590602001356134c0565b6103316004803603602081101561032a57600080fd5b503561354e565b604080519586526020860194909452600092830b830b8585015290820b90910b60608401526080830152519081900360a00190f35b600054604080516323c5b10760e21b815233600482015290516001600160a01b0390921691638f16c41c91602480820192602092909190829003018186803b1580156103b157600080fd5b505afa1580156103c5573d6000803e3d6000fd5b505050506040513d60208110156103db57600080fd5b50516103e657600080fd5b6000809054906101000a90046001600160a01b03166001600160a01b0316639d76ea586040518163ffffffff1660e01b815260040160206040518083038186803b15801561043357600080fd5b505afa158015610447573d6000803e3d6000fd5b505050506040513d602081101561045d57600080fd5b5051600380546001600160a01b0319166001600160a01b03928316179055600054604080516227050b60e31b815261151160f21b6004820152905191909216916301382858916024808301926020929190829003018186803b1580156104c257600080fd5b505afa1580156104d6573d6000803e3d6000fd5b505050506040513d60208110156104ec57600080fd5b5051600880546001600160a01b0319166001600160a01b03928316179055600054604080516227050b60e31b8152612a2360f11b6004820152905191909216916301382858916024808301926020929190829003018186803b15801561055157600080fd5b505afa158015610565573d6000803e3d6000fd5b505050506040513d602081101561057b57600080fd5b5051600280546001600160a01b0319166001600160a01b03928316179055600054604080516227050b60e31b815261544360f01b6004820152905191909216916301382858916024808301926020929190829003018186803b1580156105e057600080fd5b505afa1580156105f4573d6000803e3d6000fd5b505050506040513d602081101561060a57600080fd5b5051600480546001600160a01b0319166001600160a01b03928316178155600054604080516227050b60e31b815261503160f01b9381019390935251921691630138285891602480820192602092909190829003018186803b15801561066f57600080fd5b505afa158015610683573d6000803e3d6000fd5b505050506040513d602081101561069957600080fd5b5051600680546001600160a01b0319166001600160a01b03928316179055600054604080516227050b60e31b815261281960f11b6004820152905191909216916301382858916024808301926020929190829003018186803b1580156106fe57600080fd5b505afa158015610712573d6000803e3d6000fd5b505050506040513d602081101561072857600080fd5b5051600a80546001600160a01b0319166001600160a01b03928316179055600054604080516227050b60e31b815261141160f21b6004820152905191909216916301382858916024808301926020929190829003018186803b15801561078d57600080fd5b505afa1580156107a1573d6000803e3d6000fd5b505050506040513d60208110156107b757600080fd5b5051600980546001600160a01b0319166001600160a01b03928316179055600054604080516227050b60e31b81526121a960f11b6004820152905191909216916301382858916024808301926020929190829003018186803b15801561081c57600080fd5b505afa158015610830573d6000803e3d6000fd5b505050506040513d602081101561084657600080fd5b5051600580546001600160a01b0319166001600160a01b03928316179055600054604080516227050b60e31b81526110d160f21b6004820152905191909216916301382858916024808301926020929190829003018186803b1580156108ab57600080fd5b505afa1580156108bf573d6000803e3d6000fd5b505050506040513d60208110156108d557600080fd5b5051600780546001600160a01b0319166001600160a01b03928316179055600054604080516227050b60e31b815261145160f21b6004820152905191909216916301382858916024808301926020929190829003018186803b15801561093a57600080fd5b505afa15801561094e573d6000803e3d6000fd5b505050506040513d602081101561096457600080fd5b5051600b80546001600160a01b0319166001600160a01b03928316179055600054604080516227050b60e31b8152614d4360f01b6004820152905191909216916301382858916024808301926020929190829003018186803b1580156109c957600080fd5b505afa1580156109dd573d6000803e3d6000fd5b505050506040513d60208110156109f357600080fd5b5051600c80546001600160a01b0319166001600160a01b03909216919091179055565b600054604080516323c5b10760e21b815233600482015290516001600160a01b0390921691638f16c41c91602480820192602092909190829003018186803b158015610a6157600080fd5b505afa158015610a75573d6000803e3d6000fd5b505050506040513d6020811015610a8b57600080fd5b5051610a9657600080fd5b600754604080516327d3593960e11b815290516000926001600160a01b031691634fa6b272916004808301926020929190829003018186803b158015610adb57600080fd5b505afa158015610aef573d6000803e3d6000fd5b505050506040513d6020811015610b0557600080fd5b505160075460408051636235bbe160e11b815290519293506000926001600160a01b039092169163c46b77c291600480820192602092909190829003018186803b158015610b5257600080fd5b505afa158015610b66573d6000803e3d6000fd5b505050506040513d6020811015610b7c57600080fd5b50519050815b81811015610d1f57610b9381613166565b60000b610d175760075460408051630a9a1f1b60e31b81526004810184905290516000926001600160a01b0316916354d0f8d8916024808301926020929190829003018186803b158015610be657600080fd5b505afa158015610bfa573d6000803e3d6000fd5b505050506040513d6020811015610c1057600080fd5b505160075460408051630e14a8bb60e21b815290519293506001600160a01b0390911691637eb7b2ee918591610cb3914291610ca7918791633852a2ec91600480820192602092909190829003018186803b158015610c6e57600080fd5b505afa158015610c82573d6000803e3d6000fd5b505050506040513d6020811015610c9857600080fd5b5051879063ffffffff6135fe16565b9063ffffffff61366116565b60006040518463ffffffff1660e01b815260040180848152602001838152602001821515151581526020019350505050600060405180830381600087803b158015610cfd57600080fd5b505af1158015610d11573d6000803e3d6000fd5b50505050505b600101610b82565b505050565b60075460408051635aef244760e01b8152600481018490529051839260009283928392839283926001600160a01b0390921691635aef24479160248082019260c092909190829003018186803b158015610d7d57600080fd5b505afa158015610d91573d6000803e3d6000fd5b505050506040513d60c0811015610da757600080fd5b50602080820151604080840151606090940151600b548251633c2d4daf60e01b815260048101859052925195995092965094506001600160a01b0390911692633c2d4daf92602480840193919291829003018186803b158015610e0957600080fd5b505afa158015610e1d573d6000803e3d6000fd5b505050506040513d6020811015610e3357600080fd5b5051959790965092949350919050565b6007546040805163371cbcf160e11b81526004810184905233602482015290516000928392839283926001600160a01b031691636e3979e2916044808301926060929190829003018186803b158015610e9b57600080fd5b505afa158015610eaf573d6000803e3d6000fd5b505050506040513d6060811015610ec557600080fd5b50805160208201516040909201519097919650945092505050565b600754604080516396ff592f60e01b815260048101859052815160009384936001600160a01b03909116926396ff592f9260248083019392829003018186803b158015610f2c57600080fd5b505afa158015610f40573d6000803e3d6000fd5b505050506040513d6040811015610f5657600080fd5b50602090810151600b54604080516322d5c8bd60e21b81526004810184905290519294506000936001600160a01b0390921692638b5722f492602480840193919291829003018186803b158015610fac57600080fd5b505afa158015610fc0573d6000803e3d6000fd5b505050506040513d6020811015610fd657600080fd5b5051600c5460408051633cb23b2d60e01b81526001600160e01b03198416600482015290519293506000926001600160a01b0390921691633cb23b2d91602480820192602092909190829003018186803b15801561103357600080fd5b505afa158015611047573d6000803e3d6000fd5b505050506040513d602081101561105d57600080fd5b50519050600080866110f557600754604080516336f4019360e21b8152600481018b905290516001600160a01b039092169163dbd0064c91602480820192606092909190829003018186803b1580156110b557600080fd5b505afa1580156110c9573d6000803e3d6000fd5b505050506040513d60608110156110df57600080fd5b506020810151604090910151909250905061117d565b60075460408051634a4ecebb60e11b8152600481018b905290516001600160a01b039092169163949d9d7691602480820192606092909190829003018186803b15801561114157600080fd5b505afa158015611155573d6000803e3d6000fd5b505050506040513d606081101561116b57600080fd5b50602081015160409091015190925090505b6111b5670de0b6b3a76400006111a98561119d868663ffffffff6135fe16565b9063ffffffff6136a316565b9063ffffffff6136fc16565b98975050505050505050565b600b5460408051633c2d4daf60e01b81526004810184905290516000926001600160a01b031691633c2d4daf916024808301926020929190829003018186803b15801561120d57600080fd5b505afa158015611221573d6000803e3d6000fd5b505050506040513d602081101561123757600080fd5b505190506001600160a01b038116331461125057600080fd5b600b5460408051631993d17d60e11b81526004810185905290516000926001600160a01b031691633327a2fa9160248083019260a0929190829003018186803b15801561129c57600080fd5b505afa1580156112b0573d6000803e3d6000fd5b505050506040513d60a08110156112c657600080fd5b5060200151905060ff811660041415611326576040805162461bcd60e51b815260206004820152601760248201527f436c61696d20616c7265616479207375626d6974746564000000000000000000604482015290519081900360640190fd5b60ff811660031415611377576040805162461bcd60e51b815260206004820152601560248201527410dbdd995c88185b1c9958591e48195e1c1a5c9959605a1b604482015290519081900360640190fd5b6000809054906101000a90046001600160a01b03166001600160a01b031663ff0938a76040518163ffffffff1660e01b815260040160206040518083038186803b1580156113c457600080fd5b505afa1580156113d8573d6000803e3d6000fd5b505050506040513d60208110156113ee57600080fd5b5051611404576113ff83428461373e565b610d1f565b60075460408051634a2482c960e11b81526004810186905242602482015260006044820181905291516001600160a01b039093169263944905929260648084019391929182900301818387803b15801561145d57600080fd5b505af1158015611471573d6000803e3d6000fd5b5050600b546040805163570e2f6560e11b8152600481018890526005602482015290516001600160a01b03909216935063ae1c5eca925060448082019260009290919082900301818387803b1580156114c957600080fd5b505af11580156114dd573d6000803e3d6000fd5b50505050505050565b600054604080516323c5b10760e21b815233600482015290516001600160a01b0390921691638f16c41c91602480820192602092909190829003018186803b15801561153157600080fd5b505afa158015611545573d6000803e3d6000fd5b505050506040513d602081101561155b57600080fd5b505161156657600080fd5b60075460408051637532b09160e01b815290516000926001600160a01b031691637532b091916004808301926020929190829003018186803b1580156115ab57600080fd5b505afa1580156115bf573d6000803e3d6000fd5b505050506040513d60208110156115d557600080fd5b50516007546040805163af3bd83f60e01b815290519293506000926001600160a01b039092169163af3bd83f91600480820192602092909190829003018186803b15801561162257600080fd5b505afa158015611636573d6000803e3d6000fd5b505050506040513d602081101561164c57600080fd5b505190506000808080845b868110156117f3576007546040805163965bfafb60e01b81526004810184905290516001600160a01b039092169163965bfafb91602480820192606092909190829003018186803b1580156116ab57600080fd5b505afa1580156116bf573d6000803e3d6000fd5b505050506040513d60608110156116d557600080fd5b5080516020820151604090920151909650909450925082156116f657600080fd5b600b5460408051633c2d4daf60e01b81526004810188905290516001600160a01b0390921691633c2d4daf91602480820192602092909190829003018186803b15801561174257600080fd5b505afa158015611756573d6000803e3d6000fd5b505050506040513d602081101561176c57600080fd5b5051915061177b85858461373e565b600754604080516361a2666360e11b8152600481018490526001602482015290516001600160a01b039092169163c344ccc69160448082019260009290919082900301818387803b1580156117cf57600080fd5b505af11580156117e3573d6000803e3d6000fd5b5050600190920191506116579050565b5060075460408051635492409b60e11b81526004810189905290516001600160a01b039092169163a92481369160248082019260009290919082900301818387803b15801561184157600080fd5b505af1158015611855573d6000803e3d6000fd5b50505050505050505050565b600054604080516323c5b10760e21b815233600482015290516001600160a01b0390921691638f16c41c91602480820192602092909190829003018186803b1580156118ac57600080fd5b505afa1580156118c0573d6000803e3d6000fd5b505050506040513d60208110156118d657600080fd5b50516118e157600080fd5b6007546040805163b18e594160e01b815290516000926001600160a01b03169163b18e5941916004808301926020929190829003018186803b15801561192657600080fd5b505afa15801561193a573d6000803e3d6000fd5b505050506040513d602081101561195057600080fd5b5051600754604080516344d88e7f60e11b8152905192935060009283926001600160a01b0316916389b11cfe916004808301926020929190829003018186803b15801561199c57600080fd5b505afa1580156119b0573d6000803e3d6000fd5b505050506040513d60208110156119c657600080fd5b505183925090505b80821015611e4b5760075460408051631481a6a360e31b815260048101859052905160009283926001600160a01b039091169163a40d351891602480820192606092909190829003018186803b158015611a2757600080fd5b505afa158015611a3b573d6000803e3d6000fd5b505050506040513d6060811015611a5157600080fd5b50805160209182015160075460408051630e14a8bb60e21b81529051929650929450600093611af0938793611ae4936001600160a01b031692633852a2ec9260048082019391829003018186803b158015611aab57600080fd5b505afa158015611abf573d6000803e3d6000fd5b505050506040513d6020811015611ad557600080fd5b5051429063ffffffff61366116565b9063ffffffff6135fe16565b60075460408051633e157b7760e11b8152600481018690526024810184905290519293506001600160a01b0390911691637c2af6ee9160448082019260009290919082900301818387803b158015611b4757600080fd5b505af1158015611b5b573d6000803e3d6000fd5b50506007546040805163a788c1ff60e01b8152600481018a90526001602482015290516001600160a01b03909216935063a788c1ff925060448082019260009290919082900301818387803b158015611bb357600080fd5b505af1158015611bc7573d6000803e3d6000fd5b5050600754604080516396ff592f60e01b8152600481018790528151600095506001600160a01b0390931693506396ff592f9260248083019392829003018186803b158015611c1557600080fd5b505afa158015611c29573d6000803e3d6000fd5b505050506040513d6040811015611c3f57600080fd5b50602090810151600b5460408051633c2d4daf60e01b81526004810184905290519294506000936001600160a01b0390921692633c2d4daf92602480840193919291829003018186803b158015611c9557600080fd5b505afa158015611ca9573d6000803e3d6000fd5b505050506040513d6020811015611cbf57600080fd5b50516002546007546040805163a90a6e1160e01b815290519394506001600160a01b039283169363e8ed92149386938893611d5793919092169163a90a6e11916004808301926020929190829003018186803b158015611d1e57600080fd5b505afa158015611d32573d6000803e3d6000fd5b505050506040513d6020811015611d4857600080fd5b50518a9063ffffffff6135fe16565b6040518463ffffffff1660e01b815260040180846001600160a01b03166001600160a01b031681526020018381526020018281526020019350505050600060405180830381600087803b158015611dad57600080fd5b505af1158015611dc1573d6000803e3d6000fd5b50506006546040805163a19ed78360e01b81526004810189905267ffffffffffffffff8816602482015290516001600160a01b03909216935063a19ed783925060448082019260009290919082900301818387803b158015611e2257600080fd5b505af1158015611e36573d6000803e3d6000fd5b5050600190980197506119ce95505050505050565b6007546040805163f2eb3b6b60e01b81526004810185905290516001600160a01b039092169163f2eb3b6b9160248082019260009290919082900301818387803b1580156114c957600080fd5b6000546001600160a01b031681565b600054604080516323c5b10760e21b815233600482015290516001600160a01b0390921691638f16c41c91602480820192602092909190829003018186803b158015611ef257600080fd5b505afa158015611f06573d6000803e3d6000fd5b505050506040513d6020811015611f1c57600080fd5b5051611f2757600080fd5b6000806000600760009054906101000a90046001600160a01b03166001600160a01b0316634fa6b2726040518163ffffffff1660e01b815260040160206040518083038186803b158015611f7a57600080fd5b505afa158015611f8e573d6000803e3d6000fd5b505050506040513d6020811015611fa457600080fd5b505160075460408051636235bbe160e11b815290519293506000926001600160a01b039092169163c46b77c291600480820192602092909190829003018186803b158015611ff157600080fd5b505afa158015612005573d6000803e3d6000fd5b505050506040513d602081101561201b57600080fd5b50519050815b818110156121535760075460408051635aef244760e01b81526004810184905290516001600160a01b0390921691635aef24479160248082019260c092909190829003018186803b15801561207557600080fd5b505afa158015612089573d6000803e3d6000fd5b505050506040513d60c081101561209f57600080fd5b50606081015160a09091015190955093506005851180156120d7575084600c1415806120d7575084600c1480156120d75750603c8410155b1561214657600754604080516367ed090360e11b81526004810184905290516001600160a01b039092169163cfda12069160248082019260009290919082900301818387803b15801561212957600080fd5b505af115801561213d573d6000803e3d6000fd5b5050505061214b565b612153565b600101612021565b5050505050565b6000809054906101000a90046001600160a01b03166001600160a01b031663ff0938a76040518163ffffffff1660e01b815260040160206040518083038186803b1580156121a757600080fd5b505afa1580156121bb573d6000803e3d6000fd5b505050506040513d60208110156121d157600080fd5b505115801561225857506000546040805163288c314960e21b815233600482015290516001600160a01b039092169163a230c52491602480820192602092909190829003018186803b15801561222657600080fd5b505afa15801561223a573d6000803e3d6000fd5b505050506040513d602081101561225057600080fd5b505115156001145b61226157600080fd5b61226a82613166565b60000b6001141561227a57600080fd5b4261237b600760009054906101000a90046001600160a01b03166001600160a01b031663bb67643a6040518163ffffffff1660e01b815260040160206040518083038186803b1580156122cc57600080fd5b505afa1580156122e0573d6000803e3d6000fd5b505050506040513d60208110156122f657600080fd5b5051600754604080516307f9c86560e31b815233600482015290516001600160a01b0390921691633fce432891602480820192602092909190829003018186803b15801561234357600080fd5b505afa158015612357573d6000803e3d6000fd5b505050506040513d602081101561236d57600080fd5b50519063ffffffff6135fe16565b1061238557600080fd5b600480546007546040805163a90a6e1160e01b815290516000946001600160a01b039485169463179e91f194339461241794929091169263a90a6e11928282019260209290829003018186803b1580156123de57600080fd5b505afa1580156123f2573d6000803e3d6000fd5b505050506040513d602081101561240857600080fd5b5051429063ffffffff6135fe16565b6040518363ffffffff1660e01b815260040180836001600160a01b03166001600160a01b031681526020018062434c4160e81b8152506020018281526020019250505060206040518083038186803b15801561247257600080fd5b505afa158015612486573d6000803e3d6000fd5b505050506040513d602081101561249c57600080fd5b50519050806124aa57600080fd5b60075460408051630325ea3760e01b81526004810186905281516000936001600160a01b031692630325ea379260248082019391829003018186803b1580156124f257600080fd5b505afa158015612506573d6000803e3d6000fd5b505050506040513d604081101561251c57600080fd5b50602001519050801561252e57600080fd5b60075460408051630990dcb960e41b81523360048201526024810187905290516001600160a01b039092169163990dcb9091604480820192602092909190829003018186803b15801561258057600080fd5b505afa158015612594573d6000803e3d6000fd5b505050506040513d60208110156125aa57600080fd5b5051156125b657600080fd5b60085460408051633739e43960e01b815233600482015290516001600160a01b0390921691633739e4399160248082019260009290919082900301818387803b15801561260257600080fd5b505af1158015612616573d6000803e3d6000fd5b5050600754604080516386d2b20160e01b81523360048201526024810187905260448101899052600088810b810b606483015291516001600160a01b0390931694506386d2b20193506084808201939182900301818387803b15801561267b57600080fd5b505af115801561268f573d6000803e3d6000fd5b50506007546040805163bc82d08960e01b8152336004820152602481018990526221a0ab60e91b604482015260648101879052426084820152600088810b810b60a483015291516001600160a01b03909316945063bc82d089935060c4808201939182900301818387803b15801561270657600080fd5b505af115801561271a573d6000803e3d6000fd5b505050506000600760009054906101000a90046001600160a01b03166001600160a01b03166370e2630b6040518163ffffffff1660e01b815260040160206040518083038186803b15801561276e57600080fd5b505afa158015612782573d6000803e3d6000fd5b505050506040513d602081101561279857600080fd5b5051600754604080516351ae849d60e11b8152600481018990526024810184905290519293506001600160a01b039091169163a35d093a9160448082019260009290919082900301818387803b1580156127f157600080fd5b505af1158015612805573d6000803e3d6000fd5b50506007546040805163707eb74160e11b8152336004820152602481018a90526044810186905290516001600160a01b03909216935063e0fd6e82925060648082019260009290919082900301818387803b15801561286357600080fd5b505af1158015612877573d6000803e3d6000fd5b50506007546040805163787bac3d60e11b8152600481018a9052600089810b810b60248301526044820189905291516001600160a01b03909316945063f0f7587a93506064808201939182900301818387803b1580156128d657600080fd5b505af11580156128ea573d6000803e3d6000fd5b5050600480546008546040805163034b044160e21b815290516001600160a01b039384169650632c69d416955033949390921692630d2c1104928282019260209290829003018186803b15801561294057600080fd5b505afa158015612954573d6000803e3d6000fd5b505050506040513d602081101561296a57600080fd5b5051604080516001600160e01b031960e086901b1681526001600160a01b03909316600484015262434c4160e81b602484015260448301919091525160648083019260209291908290030181600087803b1580156129c757600080fd5b505af11580156129db573d6000803e3d6000fd5b505050506040513d60208110156129f157600080fd5b50600090506129ff86613166565b60000b90508060011415612a5a5760055460408051637f6715c960e01b81526004810189905290516001600160a01b0390921691637f6715c99160248082019260009290919082900301818387803b15801561184157600080fd5b505050505050565b6000546001600160a01b031615612abf576000546001600160a01b03163314612abf576040805162461bcd60e51b815260206004820152600a6024820152692737ba1036b0b9ba32b960b11b604482015290519081900360640190fd5b600080546001600160a01b039092166001600160a01b0319928316811790915560018054909216179055565b6000809054906101000a90046001600160a01b03166001600160a01b031663ff0938a76040518163ffffffff1660e01b815260040160206040518083038186803b158015612b3857600080fd5b505afa158015612b4c573d6000803e3d6000fd5b505050506040513d6020811015612b6257600080fd5b5051158015612be957506000546040805163288c314960e21b815233600482015290516001600160a01b039092169163a230c52491602480820192602092909190829003018186803b158015612bb757600080fd5b505afa158015612bcb573d6000803e3d6000fd5b505050506040513d6020811015612be157600080fd5b505115156001145b612bf257600080fd5b612bfb82613166565b60000b60011415612c0b57600080fd5b6004805460408051632587701560e11b815233938101939093525160009283926001600160a01b031691634b0ee02a91602480820192602092909190829003018186803b158015612c5b57600080fd5b505afa158015612c6f573d6000803e3d6000fd5b505050506040513d6020811015612c8557600080fd5b505160075460408051630325ea3760e01b81526004810188905281519394506001600160a01b0390921692630325ea37926024808201939291829003018186803b158015612cd257600080fd5b505afa158015612ce6573d6000803e3d6000fd5b505050506040513d6040811015612cfc57600080fd5b5060200151915060018210801590612d15575060058211155b612d1e57600080fd5b6007546040805163aee9274160e01b81523360048201526024810187905290516001600160a01b039092169163aee9274191604480820192602092909190829003018186803b158015612d7057600080fd5b505afa158015612d84573d6000803e3d6000fd5b505050506040513d6020811015612d9a57600080fd5b505115612da657600080fd5b600754604080516386d2b20160e01b81523360048201526024810184905260448101879052600086810b810b606483015291516001600160a01b03909316926386d2b2019260848084019391929182900301818387803b158015612e0957600080fd5b505af1158015612e1d573d6000803e3d6000fd5b50506007546040805163bc82d08960e01b8152336004820152602481018990526126ab60f11b604482015260648101869052426084820152600088810b810b60a483015291516001600160a01b03909316945063bc82d089935060c4808201939182900301818387803b158015612e9357600080fd5b505af1158015612ea7573d6000803e3d6000fd5b5050600480546008546040805163200e7ccf60e01b815290516001600160a01b039384169650634c47e71d95503394939092169263200e7ccf928282019260209290829003018186803b158015612efd57600080fd5b505afa158015612f11573d6000803e3d6000fd5b505050506040513d6020811015612f2757600080fd5b5051604080516001600160e01b031960e086901b1681526001600160a01b039093166004840152602483019190915251604480830192600092919082900301818387803b158015612f7757600080fd5b505af1158015612f8b573d6000803e3d6000fd5b505050506000600760009054906101000a90046001600160a01b03166001600160a01b03166370e2630b6040518163ffffffff1660e01b815260040160206040518083038186803b158015612fdf57600080fd5b505afa158015612ff3573d6000803e3d6000fd5b505050506040513d602081101561300957600080fd5b50516007546040805163b2dd6f7960e01b8152600481018990526024810184905290519293506001600160a01b039091169163b2dd6f799160448082019260009290919082900301818387803b15801561306257600080fd5b505af1158015613076573d6000803e3d6000fd5b505060075460408051631c7a21db60e31b8152336004820152602481018a90526044810186905290516001600160a01b03909216935063e3d10ed8925060648082019260009290919082900301818387803b1580156130d457600080fd5b505af11580156130e8573d6000803e3d6000fd5b505060075460408051635de93af760e11b8152600481018a9052600089810b810b60248301526044820188905291516001600160a01b03909316945063bbd275ee93506064808201939182900301818387803b15801561314757600080fd5b505af115801561315b573d6000803e3d6000fd5b5050505060006129ff865b60075460408051630325ea3760e01b815260048101849052815160009384936001600160a01b0390911692630325ea379260248083019392829003018186803b1580156131b257600080fd5b505afa1580156131c6573d6000803e3d6000fd5b505050506040513d60408110156131dc57600080fd5b5060209081015160075460408051630a9a1f1b60e31b81526004810188905290519294506000936001600160a01b03909216926354d0f8d892602480840193919291829003018186803b15801561323257600080fd5b505afa158015613246573d6000803e3d6000fd5b505050506040513d602081101561325c57600080fd5b50519050600c821480156132f85750426132f6600760009054906101000a90046001600160a01b03166001600160a01b031663ee8dea636040518163ffffffff1660e01b815260040160206040518083038186803b1580156132bd57600080fd5b505afa1580156132d1573d6000803e3d6000fd5b505050506040513d60208110156132e757600080fd5b5051839063ffffffff6135fe16565b105b156133805760075460408051630e62327f60e11b8152600481018790529051603c926001600160a01b031691631cc464fe916024808301926020929190829003018186803b15801561334957600080fd5b505afa15801561335d573d6000803e3d6000fd5b505050506040513d602081101561337357600080fd5b5051101561338057600192505b600582118015613391575081600c14155b156133a05760001992506134aa565b81600c141580156134015750426133fe600760009054906101000a90046001600160a01b03166001600160a01b0316633852a2ec6040518163ffffffff1660e01b815260040160206040518083038186803b1580156132bd57600080fd5b11155b1561340f57600192506134aa565b81600c1415801561347057504261346d600760009054906101000a90046001600160a01b03166001600160a01b03166379c80e726040518163ffffffff1660e01b815260040160206040518083038186803b1580156132bd57600080fd5b10155b1561347e57600092506134aa565b811580613498575060018210158015613498575060058211155b156134aa576134a78483613c9f565b92505b5050919050565b6001546001600160a01b031681565b600054604080516323c5b10760e21b815233600482015290516001600160a01b0390921691638f16c41c91602480820192602092909190829003018186803b15801561350b57600080fd5b505afa15801561351f573d6000803e3d6000fd5b505050506040513d602081101561353557600080fd5b505161354057600080fd5b61354a828261404c565b5050565b60075460408051630ebb8bdf60e21b815260048101849052336024820152905160009283928392839283926001600160a01b0390911691633aee2f7c9160448082019260a092909190829003018186803b1580156135ab57600080fd5b505afa1580156135bf573d6000803e3d6000fd5b505050506040513d60a08110156135d557600080fd5b508051602082015160408301516060840151608090940151929a91995097509195509350915050565b600082820183811015613658576040805162461bcd60e51b815260206004820152601b60248201527f536166654d6174683a206164646974696f6e206f766572666c6f770000000000604482015290519081900360640190fd5b90505b92915050565b600061365883836040518060400160405280601e81526020017f536166654d6174683a207375627472616374696f6e206f766572666c6f770000815250614776565b6000826136b25750600061365b565b828202828482816136bf57fe5b04146136585760405162461bcd60e51b81526004018080602001828103825260218152602001806148736021913960400191505060405180910390fd5b600061365883836040518060400160405280601a81526020017f536166654d6174683a206469766973696f6e206279207a65726f00000000000081525061480d565b60025460408051630982967560e31b81526004810186905290516001600160a01b0390921691634c14b3a8916024808201926020929091908290030181600087803b15801561378c57600080fd5b505af11580156137a0573d6000803e3d6000fd5b505050506040513d60208110156137b657600080fd5b505060075460408051636235bbe160e11b815290516000926001600160a01b03169163c46b77c2916004808301926020929190829003018186803b1580156137fd57600080fd5b505afa158015613811573d6000803e3d6000fd5b505050506040513d602081101561382757600080fd5b505160075460408051635568763d60e11b815260048101849052602481018890526001600160a01b038681166044830152426064830152915193945091169163aad0ec7a9160848082019260009290919082900301818387803b15801561388d57600080fd5b505af11580156138a1573d6000803e3d6000fd5b50506007546040805163037bc7f960e41b8152600481018990526001600160a01b038781166024830152604482018790526064820189905291519190921693506337bc7f909250608480830192600092919082900301818387803b15801561390857600080fd5b505af115801561391c573d6000803e3d6000fd5b5050600b546040805163570e2f6560e11b815260048181018a9052602482015290516001600160a01b03909216935063ae1c5eca925060448082019260009290919082900301818387803b15801561397357600080fd5b505af1158015613987573d6000803e3d6000fd5b5050600b54604080516322d5c8bd60e21b8152600481018990529051600094506001600160a01b039092169250638b5722f4916024808301926020929190829003018186803b1580156139d957600080fd5b505afa1580156139ed573d6000803e3d6000fd5b505050506040513d6020811015613a0357600080fd5b5051600b5460408051631ce48f3d60e01b8152600481018990529051929350600092613a9d92670de0b6b3a7640000926001600160a01b0390911691631ce48f3d91602480820192602092909190829003018186803b158015613a6557600080fd5b505afa158015613a79573d6000803e3d6000fd5b505050506040513d6020811015613a8f57600080fd5b50519063ffffffff6136a316565b6009546040805162487d2d60e81b81526001600160e01b03198616600482015290519293506001600160a01b039091169163d1750585918591613b03918691869163487d2d00916024808301926020929190829003018186803b15801561234357600080fd5b6040518363ffffffff1660e01b815260040180836001600160e01b0319166001600160e01b031916815260200182815260200192505050600060405180830381600087803b158015613b5457600080fd5b505af1158015613b68573d6000803e3d6000fd5b5050600a5460408051622d9fa560e81b81526001600160e01b03198716600482015290516001600160a01b039092169350632d9fa500925060248082019260009290919082900301818387803b158015613bc157600080fd5b505af1158015613bd5573d6000803e3d6000fd5b505060065460075460408051630e14a8bb60e21b815290516001600160a01b03938416955063a19ed7839450889390921691633852a2ec91600480820192602092909190829003018186803b158015613c2d57600080fd5b505afa158015613c41573d6000803e3d6000fd5b505050506040513d6020811015613c5757600080fd5b5051604080516001600160e01b031960e086901b1681526004810193909352602483019190915251604480830192600092919082900301818387803b15801561184157600080fd5b600754604080516396ff592f60e01b815260048101859052815160009384936001600160a01b03909116926396ff592f9260248083019392829003018186803b158015613ceb57600080fd5b505afa158015613cff573d6000803e3d6000fd5b505050506040513d6040811015613d1557600080fd5b50602090810151600b54604080516322d5c8bd60e21b81526004810184905290519294506000936001600160a01b0390921692638b5722f492602480840193919291829003018186803b158015613d6b57600080fd5b505afa158015613d7f573d6000803e3d6000fd5b505050506040513d6020811015613d9557600080fd5b5051600c5460408051633cb23b2d60e01b81526001600160e01b03198416600482015290519293506000926001600160a01b0390921691633cb23b2d91602480820192602092909190829003018186803b158015613df257600080fd5b505afa158015613e06573d6000803e3d6000fd5b505050506040513d6020811015613e1c57600080fd5b5051600754604080516336f4019360e21b8152600481018a9052905192935060009283926001600160a01b03169163dbd0064c916024808301926060929190829003018186803b158015613e6f57600080fd5b505afa158015613e83573d6000803e3d6000fd5b505050506040513d6060811015613e9957600080fd5b50602081015160409091015190925090506000613ecc670de0b6b3a76400006111a98661119d878763ffffffff6135fe16565b60075460408051634a4ecebb60e11b8152600481018d905290519293506001600160a01b039091169163949d9d7691602480820192606092909190829003018186803b158015613f1b57600080fd5b505afa158015613f2f573d6000803e3d6000fd5b505050506040513d6060811015613f4557600080fd5b50602081015160409091015190935091506000613f78670de0b6b3a76400006111a98761119d888863ffffffff6135fe16565b600b5460408051631ce48f3d60e01b8152600481018b90529051929350600092613fd892670de0b6b3a7640000926001600160a01b0390911691631ce48f3d91602480820192602092909190829003018186803b158015613a6557600080fd5b905089158015613ff85750613ff481600a63ffffffff6136a316565b8310155b15614006576001985061403e565b60018a10158015614018575060058a11155b8015614034575061403081600a63ffffffff6136a316565b8210155b1561403e57600198505b505050505050505092915050565b60075460408051635aef244760e01b81526004810185905290516000928392839283926001600160a01b031691635aef24479160248083019260c0929190829003018186803b15801561409e57600080fd5b505afa1580156140b2573d6000803e3d6000fd5b505050506040513d60c08110156140c857600080fd5b5060208101516060820151608083015160a09093015160075460408051630325ea3760e01b8152600481018d90528151949a509298509496509294506001600160a01b0390921692630325ea379260248082019391829003018186803b15801561413157600080fd5b505afa158015614145573d6000803e3d6000fd5b505050506040513d604081101561415b57600080fd5b50602001519350600c85148015614172575083600c145b156141e45760075460408051639bc5aa2360e01b8152600481018990526001602482015290516001600160a01b0390921691639bc5aa239160448082019260009290919082900301818387803b1580156141cb57600080fd5b505af11580156141df573d6000803e3d6000fd5b505050505b60075460408051637a88deff60e11b8152600481018990526024810188905290516001600160a01b039092169163f511bdfe9160448082019260009290919082900301818387803b15801561423857600080fd5b505af115801561424c573d6000803e3d6000fd5b50505050603c8310158015614261575084600c145b1561433f5760075460408051637a88deff60e11b815260048101899052600d602482015290516001600160a01b039092169163f511bdfe9160448082019260009290919082900301818387803b1580156142ba57600080fd5b505af11580156142ce573d6000803e3d6000fd5b5050600b546040805163570e2f6560e11b8152600481018690526002602482015290516001600160a01b03909216935063ae1c5eca925060448082019260009290919082900301818387803b15801561432657600080fd5b505af115801561433a573d6000803e3d6000fd5b505050505b60075460408051633e157b7760e11b8152600481018990524260248201819052915191926001600160a01b031691637c2af6ee9160448082019260009290919082900301818387803b15801561439457600080fd5b505af11580156143a8573d6000803e3d6000fd5b50505050600286101580156143be575060058611155b156144a15760065460075460408051630e14a8bb60e21b815290516001600160a01b039384169363a19ed783938c93911691633852a2ec91600480820192602092909190829003018186803b15801561441657600080fd5b505afa15801561442a573d6000803e3d6000fd5b505050506040513d602081101561444057600080fd5b5051604080516001600160e01b031960e086901b1681526004810193909352602483019190915251604480830192600092919082900301818387803b15801561448857600080fd5b505af115801561449c573d6000803e3d6000fd5b505050505b85600c14801561453a575042614537600760009054906101000a90046001600160a01b03166001600160a01b031663ee8dea636040518163ffffffff1660e01b815260040160206040518083038186803b1580156144fe57600080fd5b505afa158015614512573d6000803e3d6000fd5b505050506040513d602081101561452857600080fd5b5051859063ffffffff6135fe16565b11155b80156145465750603c84105b1561462d576006546007546040805163ee8dea6360e01b815290516001600160a01b039384169363a19ed783938c9391169163ee8dea6391600480820192602092909190829003018186803b15801561459e57600080fd5b505afa1580156145b2573d6000803e3d6000fd5b505050506040513d60208110156145c857600080fd5b5051604080516001600160e01b031960e086901b1681526004810193909352602483019190915251604480830192600092919082900301818387803b15801561461057600080fd5b505af1158015614624573d6000803e3d6000fd5b505050506114dd565b85600c14801561468c57504261468a600760009054906101000a90046001600160a01b03166001600160a01b031663ee8dea636040518163ffffffff1660e01b815260040160206040518083038186803b1580156144fe57600080fd5b115b80156146985750603c84105b156114dd5760006146f442610ca7600760009054906101000a90046001600160a01b03166001600160a01b031663ee8dea636040518163ffffffff1660e01b815260040160206040518083038186803b158015610c6e57600080fd5b6006546040805163a19ed78360e01b8152600481018c905267ffffffffffffffff8416602482015290519293506001600160a01b039091169163a19ed7839160448082019260009290919082900301818387803b15801561475457600080fd5b505af1158015614768573d6000803e3d6000fd5b505050505050505050505050565b600081848411156148055760405162461bcd60e51b81526004018080602001828103825283818151815260200191508051906020019080838360005b838110156147ca5781810151838201526020016147b2565b50505050905090810190601f1680156147f75780820380516001836020036101000a031916815260200191505b509250505060405180910390fd5b505050900390565b6000818361485c5760405162461bcd60e51b81526020600482018181528351602484015283519092839260449091019190850190808383600083156147ca5781810151838201526020016147b2565b50600083858161486857fe5b049594505050505056fe536166654d6174683a206d756c7469706c69636174696f6e206f766572666c6f77a265627a7a72315820022775ab5644af46d3ffb9a362a087d2c8e834020cacacab96eda1f83a5d81a764736f6c63430005110032",
  "linkReferences": {},
  "deployedLinkReferences": {}
}