{
  "_format": "hh-sol-artifact-1",
  "contractName": "DisposableMemberRoles",
  "sourceName": "contracts/NexusMutual/mocks/DisposableMemberRoles.sol",
  "abi": [
    {
      "anonymous": false,
      "inputs": [
        {
          "indexed": true,
          "internalType": "uint256",
          "name": "roleId",
          "type": "uint256"
        },
        {
          "indexed": false,
          "internalType": "bytes32",
          "name": "roleName",
          "type": "bytes32"
        },
        {
          "indexed": false,
          "internalType": "string",
          "name": "roleDescription",
          "type": "string"
        }
      ],
      "name": "MemberRole",
      "type": "event"
    },
    {
      "anonymous": false,
      "inputs": [
        {
          "indexed": true,
          "internalType": "address",
          "name": "previousMember",
          "type": "address"
        },
        {
          "indexed": true,
          "internalType": "address",
          "name": "newMember",
          "type": "address"
        },
        {
          "indexed": false,
          "internalType": "uint256",
          "name": "timeStamp",
          "type": "uint256"
        }
      ],
      "name": "switchedMembership",
      "type": "event"
    },
    {
      "constant": false,
      "inputs": [
        {
          "internalType": "address[]",
          "name": "abArray",
          "type": "address[]"
        }
      ],
      "name": "addInitialABMembers",
      "outputs": [],
      "payable": false,
      "stateMutability": "nonpayable",
      "type": "function"
    },
    {
      "constant": false,
      "inputs": [
        {
          "internalType": "address[]",
          "name": "userArray",
          "type": "address[]"
        },
        {
          "internalType": "uint256[]",
          "name": "tokens",
          "type": "uint256[]"
        }
      ],
      "name": "addMembersBeforeLaunch",
      "outputs": [],
      "payable": false,
      "stateMutability": "nonpayable",
      "type": "function"
    },
    {
      "constant": false,
      "inputs": [
        {
          "internalType": "bytes32",
          "name": "_roleName",
          "type": "bytes32"
        },
        {
          "internalType": "string",
          "name": "_roleDescription",
          "type": "string"
        },
        {
          "internalType": "address",
          "name": "_authorized",
          "type": "address"
        }
      ],
      "name": "addRole",
      "outputs": [],
      "payable": false,
      "stateMutability": "nonpayable",
      "type": "function"
    },
    {
      "constant": true,
      "inputs": [
        {
          "internalType": "uint256",
          "name": "_memberRoleId",
          "type": "uint256"
        }
      ],
      "name": "authorized",
      "outputs": [
        {
          "internalType": "address",
          "name": "",
          "type": "address"
        }
      ],
      "payable": false,
      "stateMutability": "view",
      "type": "function"
    },
    {
      "constant": false,
      "inputs": [
        {
          "internalType": "uint256",
          "name": "_roleId",
          "type": "uint256"
        },
        {
          "internalType": "address",
          "name": "_newAuthorized",
          "type": "address"
        }
      ],
      "name": "changeAuthorized",
      "outputs": [],
      "payable": false,
      "stateMutability": "nonpayable",
      "type": "function"
    },
    {
      "constant": false,
      "inputs": [],
      "name": "changeDependentContractAddress",
      "outputs": [],
      "payable": false,
      "stateMutability": "nonpayable",
      "type": "function"
    },
    {
      "constant": false,
      "inputs": [
        {
          "internalType": "address",
          "name": "_masterAddress",
          "type": "address"
        }
      ],
      "name": "changeMasterAddress",
      "outputs": [],
      "payable": false,
      "stateMutability": "nonpayable",
      "type": "function"
    },
    {
      "constant": false,
      "inputs": [
        {
          "internalType": "uint256",
          "name": "_val",
          "type": "uint256"
        }
      ],
      "name": "changeMaxABCount",
      "outputs": [],
      "payable": false,
      "stateMutability": "nonpayable",
      "type": "function"
    },
    {
      "constant": true,
      "inputs": [
        {
          "internalType": "address",
          "name": "_memberAddress",
          "type": "address"
        },
        {
          "internalType": "uint256",
          "name": "_roleId",
          "type": "uint256"
        }
      ],
      "name": "checkRole",
      "outputs": [
        {
          "internalType": "bool",
          "name": "",
          "type": "bool"
        }
      ],
      "payable": false,
      "stateMutability": "view",
      "type": "function"
    },
    {
      "constant": true,
      "inputs": [],
      "name": "dAppToken",
      "outputs": [
        {
          "internalType": "contract TokenController",
          "name": "",
          "type": "address"
        }
      ],
      "payable": false,
      "stateMutability": "view",
      "type": "function"
    },
    {
      "constant": true,
      "inputs": [],
      "name": "getMemberLengthForAllRoles",
      "outputs": [
        {
          "internalType": "uint256[]",
          "name": "totalMembers",
          "type": "uint256[]"
        }
      ],
      "payable": false,
      "stateMutability": "view",
      "type": "function"
    },
    {
      "constant": false,
      "inputs": [
        {
          "internalType": "address",
          "name": "_owner",
          "type": "address"
        },
        {
          "internalType": "address",
          "name": "_masterAddress",
          "type": "address"
        },
        {
          "internalType": "address",
          "name": "_tokenControllerAddress",
          "type": "address"
        },
        {
          "internalType": "address[]",
          "name": "_initialMembers",
          "type": "address[]"
        },
        {
          "internalType": "uint256[]",
          "name": "_initialMemberTokens",
          "type": "uint256[]"
        },
        {
          "internalType": "address[]",
          "name": "_initialABMembers",
          "type": "address[]"
        }
      ],
      "name": "initialize",
      "outputs": [],
      "payable": false,
      "stateMutability": "nonpayable",
      "type": "function"
    },
    {
      "constant": true,
      "inputs": [
        {
          "internalType": "address",
          "name": "_toCheck",
          "type": "address"
        }
      ],
      "name": "isAuthorizedToGovern",
      "outputs": [
        {
          "internalType": "bool",
          "name": "",
          "type": "bool"
        }
      ],
      "payable": false,
      "stateMutability": "view",
      "type": "function"
    },
    {
      "constant": false,
      "inputs": [
        {
          "internalType": "address payable",
          "name": "_userAddress",
          "type": "address"
        },
        {
          "internalType": "bool",
          "name": "verdict",
          "type": "bool"
        }
      ],
      "name": "kycVerdict",
      "outputs": [],
      "payable": false,
      "stateMutability": "nonpayable",
      "type": "function"
    },
    {
      "constant": true,
      "inputs": [],
      "name": "launched",
      "outputs": [
        {
          "internalType": "bool",
          "name": "",
          "type": "bool"
        }
      ],
      "payable": false,
      "stateMutability": "view",
      "type": "function"
    },
    {
      "constant": true,
      "inputs": [],
      "name": "launchedOn",
      "outputs": [
        {
          "internalType": "uint256",
          "name": "",
          "type": "uint256"
        }
      ],
      "payable": false,
      "stateMutability": "view",
      "type": "function"
    },
    {
      "constant": true,
      "inputs": [],
      "name": "masterAddress",
      "outputs": [
        {
          "internalType": "address",
          "name": "",
          "type": "address"
        }
      ],
      "payable": false,
      "stateMutability": "view",
      "type": "function"
    },
    {
      "constant": true,
      "inputs": [],
      "name": "maxABCount",
      "outputs": [
        {
          "internalType": "uint256",
          "name": "",
          "type": "uint256"
        }
      ],
      "payable": false,
      "stateMutability": "view",
      "type": "function"
    },
    {
      "constant": true,
      "inputs": [
        {
          "internalType": "uint256",
          "name": "_memberRoleId",
          "type": "uint256"
        },
        {
          "internalType": "uint256",
          "name": "index",
          "type": "uint256"
        }
      ],
      "name": "memberAtIndex",
      "outputs": [
        {
          "internalType": "address",
          "name": "",
          "type": "address"
        },
        {
          "internalType": "bool",
          "name": "",
          "type": "bool"
        }
      ],
      "payable": false,
      "stateMutability": "view",
      "type": "function"
    },
    {
      "constant": false,
      "inputs": [
        {
          "internalType": "address",
          "name": "_firstAB",
          "type": "address"
        },
        {
          "internalType": "address",
          "name": "memberAuthority",
          "type": "address"
        }
      ],
      "name": "memberRolesInitiate",
      "outputs": [],
      "payable": false,
      "stateMutability": "nonpayable",
      "type": "function"
    },
    {
      "constant": true,
      "inputs": [
        {
          "internalType": "uint256",
          "name": "_memberRoleId",
          "type": "uint256"
        }
      ],
      "name": "members",
      "outputs": [
        {
          "internalType": "uint256",
          "name": "",
          "type": "uint256"
        },
        {
          "internalType": "address[]",
          "name": "memberArray",
          "type": "address[]"
        }
      ],
      "payable": false,
      "stateMutability": "view",
      "type": "function"
    },
    {
      "constant": true,
      "inputs": [
        {
          "internalType": "uint256",
          "name": "_memberRoleId",
          "type": "uint256"
        }
      ],
      "name": "membersLength",
      "outputs": [
        {
          "internalType": "uint256",
          "name": "",
          "type": "uint256"
        }
      ],
      "payable": false,
      "stateMutability": "view",
      "type": "function"
    },
    {
      "constant": true,
      "inputs": [],
      "name": "ms",
      "outputs": [
        {
          "internalType": "contract INXMMaster",
          "name": "",
          "type": "address"
        }
      ],
      "payable": false,
      "stateMutability": "view",
      "type": "function"
    },
    {
      "constant": true,
      "inputs": [
        {
          "internalType": "uint256",
          "name": "_memberRoleId",
          "type": "uint256"
        }
      ],
      "name": "numberOfMembers",
      "outputs": [
        {
          "internalType": "uint256",
          "name": "",
          "type": "uint256"
        }
      ],
      "payable": false,
      "stateMutability": "view",
      "type": "function"
    },
    {
      "constant": true,
      "inputs": [],
      "name": "nxMasterAddress",
      "outputs": [
        {
          "internalType": "address",
          "name": "",
          "type": "address"
        }
      ],
      "payable": false,
      "stateMutability": "view",
      "type": "function"
    },
    {
      "constant": false,
      "inputs": [
        {
          "internalType": "address",
          "name": "_userAddress",
          "type": "address"
        }
      ],
      "name": "payJoiningFee",
      "outputs": [],
      "payable": true,
      "stateMutability": "payable",
      "type": "function"
    },
    {
      "constant": true,
      "inputs": [
        {
          "internalType": "address",
          "name": "_memberAddress",
          "type": "address"
        }
      ],
      "name": "roles",
      "outputs": [
        {
          "internalType": "uint256[]",
          "name": "",
          "type": "uint256[]"
        }
      ],
      "payable": false,
      "stateMutability": "view",
      "type": "function"
    },
    {
      "constant": false,
      "inputs": [
        {
          "internalType": "address",
          "name": "_newABAddress",
          "type": "address"
        },
        {
          "internalType": "address",
          "name": "_removeAB",
          "type": "address"
        }
      ],
      "name": "swapABMember",
      "outputs": [],
      "payable": false,
      "stateMutability": "nonpayable",
      "type": "function"
    },
    {
      "constant": false,
      "inputs": [
        {
          "internalType": "address",
          "name": "_newOwnerAddress",
          "type": "address"
        }
      ],
      "name": "swapOwner",
      "outputs": [],
      "payable": false,
      "stateMutability": "nonpayable",
      "type": "function"
    },
    {
      "constant": false,
      "inputs": [
        {
          "internalType": "address",
          "name": "_add",
          "type": "address"
        }
      ],
      "name": "switchMembership",
      "outputs": [],
      "payable": false,
      "stateMutability": "nonpayable",
      "type": "function"
    },
    {
      "constant": true,
      "inputs": [],
      "name": "tk",
      "outputs": [
        {
          "internalType": "contract NXMToken",
          "name": "",
          "type": "address"
        }
      ],
      "payable": false,
      "stateMutability": "view",
      "type": "function"
    },
    {
      "constant": true,
      "inputs": [],
      "name": "totalRoles",
      "outputs": [
        {
          "internalType": "uint256",
          "name": "",
          "type": "uint256"
        }
      ],
      "payable": false,
      "stateMutability": "view",
      "type": "function"
    },
    {
      "constant": false,
      "inputs": [
        {
          "internalType": "address",
          "name": "_memberAddress",
          "type": "address"
        },
        {
          "internalType": "uint256",
          "name": "_roleId",
          "type": "uint256"
        },
        {
          "internalType": "bool",
          "name": "_active",
          "type": "bool"
        }
      ],
      "name": "updateRole",
      "outputs": [],
      "payable": false,
      "stateMutability": "nonpayable",
      "type": "function"
    },
    {
      "constant": false,
      "inputs": [],
      "name": "withdrawMembership",
      "outputs": [],
      "payable": false,
      "stateMutability": "nonpayable",
      "type": "function"
    }
  ],
  "bytecode": "0x608060405234801561001057600080fd5b5061633880620000216000396000f3fe6080604052600436106101f95760003560e01c8063790e118c1161010d578063ae393df9116100a0578063d46655f41161006f578063d46655f414610f0a578063d8b2114e14610f5b578063df05eef514610fb8578063eaf2c47714610fe3578063f17a3bec1461103a576101f9565b8063ae393df914610d9b578063b53e467914610db2578063c578f23014610e42578063d365a08e14610eb3576101f9565b806390a79368116100dc57806390a7936814610bf25780639937464214610c43578063a0b2d57f14610ce9578063aa561f9d14610d40576101f9565b8063790e118c14610b0e5780638091f3bf14610b395780638bed69eb14610b685780638f8c009414610bb7576101f9565b80632f473021116101905780635daf08ca1161015f5780635daf08ca1461069c578063648edd9c146107335780636d1c31d2146107b95780636eb4b91f146108255780637623bac51461097e576101f9565b80632f4730211461054657806337f15a58146105ad5780634ed75d47146105d8578063505ef22f14610629576101f9565b80631b5c6ded116101cc5780631b5c6ded1461032357806321f408be1461039457806322ce7254146103eb5780632dc4bdca14610454576101f9565b80630d48669a146101fe5780630dc6f847146102795780630ea9c984146102c85780630ead3e72146102df575b600080fd5b34801561020a57600080fd5b506102376004803603602081101561022157600080fd5b8101908080359060200190929190505050611091565b604051808273ffffffffffffffffffffffffffffffffffffffff1673ffffffffffffffffffffffffffffffffffffffff16815260200191505060405180910390f35b34801561028557600080fd5b506102b26004803603602081101561029c57600080fd5b81019080803590602001909291905050506110d9565b6040518082815260200191505060405180910390f35b3480156102d457600080fd5b506102dd611101565b005b610321600480360360208110156102f557600080fd5b81019080803573ffffffffffffffffffffffffffffffffffffffff16906020019092919050505061183a565b005b34801561032f57600080fd5b506103926004803603604081101561034657600080fd5b81019080803573ffffffffffffffffffffffffffffffffffffffff169060200190929190803573ffffffffffffffffffffffffffffffffffffffff1690602001909291905050506120cf565b005b3480156103a057600080fd5b506103a9612112565b604051808273ffffffffffffffffffffffffffffffffffffffff1673ffffffffffffffffffffffffffffffffffffffff16815260200191505060405180910390f35b3480156103f757600080fd5b5061043a6004803603602081101561040e57600080fd5b81019080803573ffffffffffffffffffffffffffffffffffffffff169060200190929190505050612138565b604051808215151515815260200191505060405180910390f35b34801561046057600080fd5b506105446004803603606081101561047757600080fd5b81019080803590602001909291908035906020019064010000000081111561049e57600080fd5b8201836020820111156104b057600080fd5b803590602001918460018302840111640100000000831117156104d257600080fd5b91908080601f016020809104026020016040519081016040528093929190818152602001838380828437600081840152601f19601f820116905080830192505050505050509192919290803573ffffffffffffffffffffffffffffffffffffffff169060200190929190505050612241565b005b34801561055257600080fd5b506105ab6004803603606081101561056957600080fd5b81019080803573ffffffffffffffffffffffffffffffffffffffff169060200190929190803590602001909291908035151590602001909291905050506123c4565b005b3480156105b957600080fd5b506105c261253f565b6040518082815260200191505060405180910390f35b3480156105e457600080fd5b50610627600480360360208110156105fb57600080fd5b81019080803573ffffffffffffffffffffffffffffffffffffffff169060200190929190505050612545565b005b34801561063557600080fd5b506106826004803603604081101561064c57600080fd5b81019080803573ffffffffffffffffffffffffffffffffffffffff1690602001909291908035906020019092919050505061307e565b604051808215151515815260200191505060405180910390f35b3480156106a857600080fd5b506106d5600480360360208110156106bf57600080fd5b810190808035906020019092919050505061311e565b6040518083815260200180602001828103825283818151815260200191508051906020019060200280838360005b8381101561071e578082015181840152602081019050610703565b50505050905001935050505060405180910390f35b34801561073f57600080fd5b506107b76004803603602081101561075657600080fd5b810190808035906020019064010000000081111561077357600080fd5b82018360208201111561078557600080fd5b803590602001918460208302840111640100000000831117156107a757600080fd5b90919293919293905050506132f1565b005b3480156107c557600080fd5b506107ce613559565b6040518080602001828103825283818151815260200191508051906020019060200280838360005b838110156108115780820151818401526020810190506107f6565b505050509050019250505060405180910390f35b34801561083157600080fd5b5061097c6004803603604081101561084857600080fd5b810190808035906020019064010000000081111561086557600080fd5b82018360208201111561087757600080fd5b8035906020019184602083028401116401000000008311171561089957600080fd5b919080806020026020016040519081016040528093929190818152602001838360200280828437600081840152601f19601f820116905080830192505050505050509192919290803590602001906401000000008111156108f957600080fd5b82018360208201111561090b57600080fd5b8035906020019184602083028401116401000000008311171561092d57600080fd5b919080806020026020016040519081016040528093929190818152602001838360200280828437600081840152601f19601f8201169050808301925050505050505091929192905050506135d7565b005b34801561098a57600080fd5b50610b0c600480360360c08110156109a157600080fd5b81019080803573ffffffffffffffffffffffffffffffffffffffff169060200190929190803573ffffffffffffffffffffffffffffffffffffffff169060200190929190803573ffffffffffffffffffffffffffffffffffffffff16906020019092919080359060200190640100000000811115610a1e57600080fd5b820183602082011115610a3057600080fd5b80359060200191846020830284011164010000000083111715610a5257600080fd5b909192939192939080359060200190640100000000811115610a7357600080fd5b820183602082011115610a8557600080fd5b80359060200191846020830284011164010000000083111715610aa757600080fd5b909192939192939080359060200190640100000000811115610ac857600080fd5b820183602082011115610ada57600080fd5b80359060200191846020830284011164010000000083111715610afc57600080fd5b90919293919293905050506139ec565b005b348015610b1a57600080fd5b50610b23613dac565b6040518082815260200191505060405180910390f35b348015610b4557600080fd5b50610b4e613db9565b604051808215151515815260200191505060405180910390f35b348015610b7457600080fd5b50610ba160048036036020811015610b8b57600080fd5b8101908080359060200190929190505050613dcc565b6040518082815260200191505060405180910390f35b348015610bc357600080fd5b50610bf060048036036020811015610bda57600080fd5b8101908080359060200190929190505050613df7565b005b348015610bfe57600080fd5b50610c4160048036036020811015610c1557600080fd5b81019080803573ffffffffffffffffffffffffffffffffffffffff169060200190929190505050613ee4565b005b348015610c4f57600080fd5b50610c9260048036036020811015610c6657600080fd5b81019080803573ffffffffffffffffffffffffffffffffffffffff169060200190929190505050614011565b6040518080602001828103825283818151815260200191508051906020019060200280838360005b83811015610cd5578082015181840152602081019050610cba565b505050509050019250505060405180910390f35b348015610cf557600080fd5b50610cfe61410e565b604051808273ffffffffffffffffffffffffffffffffffffffff1673ffffffffffffffffffffffffffffffffffffffff16815260200191505060405180910390f35b348015610d4c57600080fd5b50610d9960048036036040811015610d6357600080fd5b8101908080359060200190929190803573ffffffffffffffffffffffffffffffffffffffff169060200190929190505050614134565b005b348015610da757600080fd5b50610db0614300565b005b348015610dbe57600080fd5b50610df560048036036040811015610dd557600080fd5b810190808035906020019092919080359060200190929190505050614beb565b604051808373ffffffffffffffffffffffffffffffffffffffff1673ffffffffffffffffffffffffffffffffffffffff168152602001821515151581526020019250505060405180910390f35b348015610e4e57600080fd5b50610eb160048036036040811015610e6557600080fd5b81019080803573ffffffffffffffffffffffffffffffffffffffff169060200190929190803573ffffffffffffffffffffffffffffffffffffffff169060200190929190505050614cbc565b005b348015610ebf57600080fd5b50610ec8614e67565b604051808273ffffffffffffffffffffffffffffffffffffffff1673ffffffffffffffffffffffffffffffffffffffff16815260200191505060405180910390f35b348015610f1657600080fd5b50610f5960048036036020811015610f2d57600080fd5b81019080803573ffffffffffffffffffffffffffffffffffffffff169060200190929190505050614e8c565b005b348015610f6757600080fd5b50610fb660048036036040811015610f7e57600080fd5b81019080803573ffffffffffffffffffffffffffffffffffffffff169060200190929190803515159060200190929190505050615000565b005b348015610fc457600080fd5b50610fcd61586f565b6040518082815260200191505060405180910390f35b348015610fef57600080fd5b50610ff8615875565b604051808273ffffffffffffffffffffffffffffffffffffffff1673ffffffffffffffffffffffffffffffffffffffff16815260200191505060405180910390f35b34801561104657600080fd5b5061104f61589b565b604051808273ffffffffffffffffffffffffffffffffffffffff1673ffffffffffffffffffffffffffffffffffffffff16815260200191505060405180910390f35b6000600a82815481106110a057fe5b906000526020600020906004020160030160009054906101000a900473ffffffffffffffffffffffffffffffffffffffff169050919050565b6000600a82815481106110e857fe5b9060005260206000209060040201600001549050919050565b600160009054906101000a900473ffffffffffffffffffffffffffffffffffffffff1673ffffffffffffffffffffffffffffffffffffffff1663013828586040518163ffffffff1660e01b815260040180807f5444000000000000000000000000000000000000000000000000000000000000815250602001905060206040518083038186803b15801561119457600080fd5b505afa1580156111a8573d6000803e3d6000fd5b505050506040513d60208110156111be57600080fd5b8101908080519060200190929190505050600460006101000a81548173ffffffffffffffffffffffffffffffffffffffff021916908373ffffffffffffffffffffffffffffffffffffffff160217905550600160009054906101000a900473ffffffffffffffffffffffffffffffffffffffff1673ffffffffffffffffffffffffffffffffffffffff1663013828586040518163ffffffff1660e01b815260040180807f4352000000000000000000000000000000000000000000000000000000000000815250602001905060206040518083038186803b1580156112a257600080fd5b505afa1580156112b6573d6000803e3d6000fd5b505050506040513d60208110156112cc57600080fd5b8101908080519060200190929190505050600660006101000a81548173ffffffffffffffffffffffffffffffffffffffff021916908373ffffffffffffffffffffffffffffffffffffffff160217905550600160009054906101000a900473ffffffffffffffffffffffffffffffffffffffff1673ffffffffffffffffffffffffffffffffffffffff1663013828586040518163ffffffff1660e01b815260040180807f5144000000000000000000000000000000000000000000000000000000000000815250602001905060206040518083038186803b1580156113b057600080fd5b505afa1580156113c4573d6000803e3d6000fd5b505050506040513d60208110156113da57600080fd5b8101908080519060200190929190505050600560006101000a81548173ffffffffffffffffffffffffffffffffffffffff021916908373ffffffffffffffffffffffffffffffffffffffff160217905550600160009054906101000a900473ffffffffffffffffffffffffffffffffffffffff1673ffffffffffffffffffffffffffffffffffffffff1663013828586040518163ffffffff1660e01b815260040180807f4756000000000000000000000000000000000000000000000000000000000000815250602001905060206040518083038186803b1580156114be57600080fd5b505afa1580156114d2573d6000803e3d6000fd5b505050506040513d60208110156114e857600080fd5b8101908080519060200190929190505050600760006101000a81548173ffffffffffffffffffffffffffffffffffffffff021916908373ffffffffffffffffffffffffffffffffffffffff160217905550600160009054906101000a900473ffffffffffffffffffffffffffffffffffffffff1673ffffffffffffffffffffffffffffffffffffffff1663013828586040518163ffffffff1660e01b815260040180807f5446000000000000000000000000000000000000000000000000000000000000815250602001905060206040518083038186803b1580156115cc57600080fd5b505afa1580156115e0573d6000803e3d6000fd5b505050506040513d60208110156115f657600080fd5b8101908080519060200190929190505050600860006101000a81548173ffffffffffffffffffffffffffffffffffffffff021916908373ffffffffffffffffffffffffffffffffffffffff160217905550600160009054906101000a900473ffffffffffffffffffffffffffffffffffffffff1673ffffffffffffffffffffffffffffffffffffffff16639d76ea586040518163ffffffff1660e01b815260040160206040518083038186803b1580156116af57600080fd5b505afa1580156116c3573d6000803e3d6000fd5b505050506040513d60208110156116d957600080fd5b8101908080519060200190929190505050600960006101000a81548173ffffffffffffffffffffffffffffffffffffffff021916908373ffffffffffffffffffffffffffffffffffffffff160217905550600160009054906101000a900473ffffffffffffffffffffffffffffffffffffffff1673ffffffffffffffffffffffffffffffffffffffff1663013828586040518163ffffffff1660e01b815260040180807f5443000000000000000000000000000000000000000000000000000000000000815250602001905060206040518083038186803b1580156117bd57600080fd5b505afa1580156117d1573d6000803e3d6000fd5b505050506040513d60208110156117e757600080fd5b8101908080519060200190929190505050600360006101000a81548173ffffffffffffffffffffffffffffffffffffffff021916908373ffffffffffffffffffffffffffffffffffffffff160217905550565b600073ffffffffffffffffffffffffffffffffffffffff168173ffffffffffffffffffffffffffffffffffffffff16141561187457600080fd5b600160009054906101000a900473ffffffffffffffffffffffffffffffffffffffff1673ffffffffffffffffffffffffffffffffffffffff1663ff0938a76040518163ffffffff1660e01b815260040160206040518083038186803b1580156118dc57600080fd5b505afa1580156118f0573d6000803e3d6000fd5b505050506040513d602081101561190657600080fd5b81019080805190602001909291905050501561198a576040517f08c379a00000000000000000000000000000000000000000000000000000000081526004018080602001828103825260178152602001807f456d657267656e6379205061757365204170706c69656400000000000000000081525060200191505060405180910390fd5b600160009054906101000a900473ffffffffffffffffffffffffffffffffffffffff1673ffffffffffffffffffffffffffffffffffffffff1663013828586040518163ffffffff1660e01b815260040180807f5154000000000000000000000000000000000000000000000000000000000000815250602001905060206040518083038186803b158015611a1d57600080fd5b505afa158015611a31573d6000803e3d6000fd5b505050506040513d6020811015611a4757600080fd5b810190808051906020019092919050505073ffffffffffffffffffffffffffffffffffffffff163373ffffffffffffffffffffffffffffffffffffffff161415611d8f57600073ffffffffffffffffffffffffffffffffffffffff16600460009054906101000a900473ffffffffffffffffffffffffffffffffffffffff1673ffffffffffffffffffffffffffffffffffffffff16636ad5b3ea6040518163ffffffff1660e01b815260040160206040518083038186803b158015611b0b57600080fd5b505afa158015611b1f573d6000803e3d6000fd5b505050506040513d6020811015611b3557600080fd5b810190808051906020019092919050505073ffffffffffffffffffffffffffffffffffffffff161415611bd0576040517f08c379a00000000000000000000000000000000000000000000000000000000081526004018080602001828103825260188152602001807f4e6f2077616c6c6574416464726573732070726573656e74000000000000000081525060200191505060405180910390fd5b600360009054906101000a900473ffffffffffffffffffffffffffffffffffffffff1673ffffffffffffffffffffffffffffffffffffffff1663e43252d7826040518263ffffffff1660e01b8152600401808273ffffffffffffffffffffffffffffffffffffffff1673ffffffffffffffffffffffffffffffffffffffff168152602001915050600060405180830381600087803b158015611c7157600080fd5b505af1158015611c85573d6000803e3d6000fd5b50505050611ca18160026003811115611c9a57fe5b60016158c1565b600460009054906101000a900473ffffffffffffffffffffffffffffffffffffffff1673ffffffffffffffffffffffffffffffffffffffff16636ad5b3ea6040518163ffffffff1660e01b815260040160206040518083038186803b158015611d0957600080fd5b505afa158015611d1d573d6000803e3d6000fd5b505050506040513d6020811015611d3357600080fd5b810190808051906020019092919050505073ffffffffffffffffffffffffffffffffffffffff166108fc349081150290604051600060405180830381858888f19350505050158015611d89573d6000803e3d6000fd5b506120cc565b600560009054906101000a900473ffffffffffffffffffffffffffffffffffffffff1673ffffffffffffffffffffffffffffffffffffffff1663de75b5ea826040518263ffffffff1660e01b8152600401808273ffffffffffffffffffffffffffffffffffffffff1673ffffffffffffffffffffffffffffffffffffffff16815260200191505060206040518083038186803b158015611e2e57600080fd5b505afa158015611e42573d6000803e3d6000fd5b505050506040513d6020811015611e5857600080fd5b810190808051906020019092919050505015611e7357600080fd5b600160009054906101000a900473ffffffffffffffffffffffffffffffffffffffff1673ffffffffffffffffffffffffffffffffffffffff1663a230c524826040518263ffffffff1660e01b8152600401808273ffffffffffffffffffffffffffffffffffffffff1673ffffffffffffffffffffffffffffffffffffffff16815260200191505060206040518083038186803b158015611f1257600080fd5b505afa158015611f26573d6000803e3d6000fd5b505050506040513d6020811015611f3c57600080fd5b810190808051906020019092919050505015611f5757600080fd5b600460009054906101000a900473ffffffffffffffffffffffffffffffffffffffff1673ffffffffffffffffffffffffffffffffffffffff16636eeeaaa56040518163ffffffff1660e01b815260040160206040518083038186803b158015611fbf57600080fd5b505afa158015611fd3573d6000803e3d6000fd5b505050506040513d6020811015611fe957600080fd5b8101908080519060200190929190505050341461200557600080fd5b600560009054906101000a900473ffffffffffffffffffffffffffffffffffffffff1673ffffffffffffffffffffffffffffffffffffffff1663f63a87d48260016040518363ffffffff1660e01b8152600401808373ffffffffffffffffffffffffffffffffffffffff1673ffffffffffffffffffffffffffffffffffffffff1681526020018215151515815260200192505050600060405180830381600087803b1580156120b357600080fd5b505af11580156120c7573d6000803e3d6000fd5b505050505b50565b600b60009054906101000a900460ff16156120e957600080fd5b6120f38282615bae565b6001600b60006101000a81548160ff0219169083151502179055505050565b600960009054906101000a900473ffffffffffffffffffffffffffffffffffffffff1681565b6000806000809054906101000a900473ffffffffffffffffffffffffffffffffffffffff1690508273ffffffffffffffffffffffffffffffffffffffff168173ffffffffffffffffffffffffffffffffffffffff1663013828586040518163ffffffff1660e01b815260040180807f4756000000000000000000000000000000000000000000000000000000000000815250602001905060206040518083038186803b1580156121e757600080fd5b505afa1580156121fb573d6000803e3d6000fd5b505050506040513d602081101561221157600080fd5b810190808051906020019092919050505073ffffffffffffffffffffffffffffffffffffffff1614915050919050565b60008060009054906101000a900473ffffffffffffffffffffffffffffffffffffffff1690503373ffffffffffffffffffffffffffffffffffffffff168173ffffffffffffffffffffffffffffffffffffffff1663013828586040518163ffffffff1660e01b815260040180807f4756000000000000000000000000000000000000000000000000000000000000815250602001905060206040518083038186803b1580156122ef57600080fd5b505afa158015612303573d6000803e3d6000fd5b505050506040513d602081101561231957600080fd5b810190808051906020019092919050505073ffffffffffffffffffffffffffffffffffffffff16146123b3576040517f08c379a000000000000000000000000000000000000000000000000000000000815260040180806020018281038252600e8152602001807f4e6f7420617574686f72697a656400000000000000000000000000000000000081525060200191505060405180910390fd5b6123be848484615d40565b50505050565b81600073ffffffffffffffffffffffffffffffffffffffff16600a82815481106123ea57fe5b906000526020600020906004020160030160009054906101000a900473ffffffffffffffffffffffffffffffffffffffff1673ffffffffffffffffffffffffffffffffffffffff16146124b257600a818154811061244457fe5b906000526020600020906004020160030160009054906101000a900473ffffffffffffffffffffffffffffffffffffffff1673ffffffffffffffffffffffffffffffffffffffff163373ffffffffffffffffffffffffffffffffffffffff16146124ad57600080fd5b61252e565b6124bb33612138565b61252d576040517f08c379a000000000000000000000000000000000000000000000000000000000815260040180806020018281038252600e8152602001807f4e6f7420417574686f72697a656400000000000000000000000000000000000081525060200191505060405180910390fd5b5b6125398484846158c1565b50505050565b600c5481565b600160009054906101000a900473ffffffffffffffffffffffffffffffffffffffff1673ffffffffffffffffffffffffffffffffffffffff1663ff0938a76040518163ffffffff1660e01b815260040160206040518083038186803b1580156125ad57600080fd5b505afa1580156125c1573d6000803e3d6000fd5b505050506040513d60208110156125d757600080fd5b81019080805190602001909291905050501580156126cb5750600160009054906101000a900473ffffffffffffffffffffffffffffffffffffffff1673ffffffffffffffffffffffffffffffffffffffff1663a230c524336040518263ffffffff1660e01b8152600401808273ffffffffffffffffffffffffffffffffffffffff1673ffffffffffffffffffffffffffffffffffffffff16815260200191505060206040518083038186803b15801561268f57600080fd5b505afa1580156126a3573d6000803e3d6000fd5b505050506040513d60208110156126b957600080fd5b81019080805190602001909291905050505b80156127ae5750600160009054906101000a900473ffffffffffffffffffffffffffffffffffffffff1673ffffffffffffffffffffffffffffffffffffffff1663a230c524826040518263ffffffff1660e01b8152600401808273ffffffffffffffffffffffffffffffffffffffff1673ffffffffffffffffffffffffffffffffffffffff16815260200191505060206040518083038186803b15801561277157600080fd5b505afa158015612785573d6000803e3d6000fd5b505050506040513d602081101561279b57600080fd5b8101908080519060200190929190505050155b6127b757600080fd5b6000600360009054906101000a900473ffffffffffffffffffffffffffffffffffffffff1673ffffffffffffffffffffffffffffffffffffffff166339081b9233426040518363ffffffff1660e01b8152600401808373ffffffffffffffffffffffffffffffffffffffff1673ffffffffffffffffffffffffffffffffffffffff1681526020018281526020019250505060206040518083038186803b15801561286057600080fd5b505afa158015612874573d6000803e3d6000fd5b505050506040513d602081101561288a57600080fd5b8101908080519060200190929190505050146128a557600080fd5b600860009054906101000a900473ffffffffffffffffffffffffffffffffffffffff1673ffffffffffffffffffffffffffffffffffffffff1663ac5adaf6336040518263ffffffff1660e01b8152600401808273ffffffffffffffffffffffffffffffffffffffff1673ffffffffffffffffffffffffffffffffffffffff16815260200191505060206040518083038186803b15801561294457600080fd5b505afa158015612958573d6000803e3d6000fd5b505050506040513d602081101561296e57600080fd5b81019080805190602001909291905050501561298957600080fd5b6000600660009054906101000a900473ffffffffffffffffffffffffffffffffffffffff1673ffffffffffffffffffffffffffffffffffffffff166335afb14e336040518263ffffffff1660e01b8152600401808273ffffffffffffffffffffffffffffffffffffffff1673ffffffffffffffffffffffffffffffffffffffff16815260200191505060206040518083038186803b158015612a2a57600080fd5b505afa158015612a3e573d6000803e3d6000fd5b505050506040513d6020811015612a5457600080fd5b810190808051906020019092919050505014612a6f57600080fd5b6000600360009054906101000a900473ffffffffffffffffffffffffffffffffffffffff1673ffffffffffffffffffffffffffffffffffffffff16635294d0e8336040518263ffffffff1660e01b8152600401808273ffffffffffffffffffffffffffffffffffffffff1673ffffffffffffffffffffffffffffffffffffffff168152602001807f434c41000000000000000000000000000000000000000000000000000000000081525060200191505060206040518083038186803b158015612b3857600080fd5b505afa158015612b4c573d6000803e3d6000fd5b505050506040513d6020811015612b6257600080fd5b810190808051906020019092919050505014612bc9576040517f08c379a000000000000000000000000000000000000000000000000000000000815260040180806020018281038252602b815260200180616295602b913960400191505060405180910390fd5b600760009054906101000a900473ffffffffffffffffffffffffffffffffffffffff1673ffffffffffffffffffffffffffffffffffffffff1663f0466c73336040518263ffffffff1660e01b8152600401808273ffffffffffffffffffffffffffffffffffffffff1673ffffffffffffffffffffffffffffffffffffffff168152602001915050600060405180830381600087803b158015612c6a57600080fd5b505af1158015612c7e573d6000803e3d6000fd5b50505050600360009054906101000a900473ffffffffffffffffffffffffffffffffffffffff1673ffffffffffffffffffffffffffffffffffffffff1663e43252d7826040518263ffffffff1660e01b8152600401808273ffffffffffffffffffffffffffffffffffffffff1673ffffffffffffffffffffffffffffffffffffffff168152602001915050600060405180830381600087803b158015612d2357600080fd5b505af1158015612d37573d6000803e3d6000fd5b50505050612d538160026003811115612d4c57fe5b60016158c1565b600960009054906101000a900473ffffffffffffffffffffffffffffffffffffffff1673ffffffffffffffffffffffffffffffffffffffff166323b872dd3383600960009054906101000a900473ffffffffffffffffffffffffffffffffffffffff1673ffffffffffffffffffffffffffffffffffffffff166370a08231336040518263ffffffff1660e01b8152600401808273ffffffffffffffffffffffffffffffffffffffff1673ffffffffffffffffffffffffffffffffffffffff16815260200191505060206040518083038186803b158015612e3257600080fd5b505afa158015612e46573d6000803e3d6000fd5b505050506040513d6020811015612e5c57600080fd5b81019080805190602001909291905050506040518463ffffffff1660e01b8152600401808473ffffffffffffffffffffffffffffffffffffffff1673ffffffffffffffffffffffffffffffffffffffff1681526020018373ffffffffffffffffffffffffffffffffffffffff1673ffffffffffffffffffffffffffffffffffffffff1681526020018281526020019350505050602060405180830381600087803b158015612f0957600080fd5b505af1158015612f1d573d6000803e3d6000fd5b505050506040513d6020811015612f3357600080fd5b810190808051906020019092919050505050612f5d3360026003811115612f5657fe5b60006158c1565b600360009054906101000a900473ffffffffffffffffffffffffffffffffffffffff1673ffffffffffffffffffffffffffffffffffffffff16638ab1d681336040518263ffffffff1660e01b8152600401808273ffffffffffffffffffffffffffffffffffffffff1673ffffffffffffffffffffffffffffffffffffffff168152602001915050600060405180830381600087803b158015612ffe57600080fd5b505af1158015613012573d6000803e3d6000fd5b505050508073ffffffffffffffffffffffffffffffffffffffff163373ffffffffffffffffffffffffffffffffffffffff167f192a4c3625bef7938e23abe9b048e44af0928d8ea055694936e5269479ae2ca1426040518082815260200191505060405180910390a350565b600080600381111561308c57fe5b82141561309c5760019050613118565b600a82815481106130a957fe5b906000526020600020906004020160010160008473ffffffffffffffffffffffffffffffffffffffff1673ffffffffffffffffffffffffffffffffffffffff16815260200190815260200160002060009054906101000a900460ff16156131135760019050613118565b600090505b92915050565b600060606000600a848154811061313157fe5b906000526020600020906004020160020180549050905060008060009050600a868154811061315c57fe5b90600052602060002090600402016000015460405190808252806020026020018201604052801561319c5781602001602082028038833980820191505090505b509350600091505b828210156132e3576000600a87815481106131bb57fe5b906000526020600020906004020160020183815481106131d757fe5b9060005260206000200160009054906101000a900473ffffffffffffffffffffffffffffffffffffffff169050600a878154811061321157fe5b906000526020600020906004020160010160008273ffffffffffffffffffffffffffffffffffffffff1673ffffffffffffffffffffffffffffffffffffffff16815260200190815260200160002060009054906101000a900460ff168015613280575061327e8186615eef565b155b156132d5578085838151811061329257fe5b602002602001019073ffffffffffffffffffffffffffffffffffffffff16908173ffffffffffffffffffffffffffffffffffffffff168152505081806001019250505b5081806001019250506131a4565b858494509450505050915091565b600160009054906101000a900473ffffffffffffffffffffffffffffffffffffffff1673ffffffffffffffffffffffffffffffffffffffff16632f54bf6e336040518263ffffffff1660e01b8152600401808273ffffffffffffffffffffffffffffffffffffffff1673ffffffffffffffffffffffffffffffffffffffff16815260200191505060206040518083038186803b15801561339057600080fd5b505afa1580156133a4573d6000803e3d6000fd5b505050506040513d60208110156133ba57600080fd5b81019080805190602001909291905050506133d457600080fd5b600160009054906101000a900473ffffffffffffffffffffffffffffffffffffffff1673ffffffffffffffffffffffffffffffffffffffff1663c15041d56040518163ffffffff1660e01b815260040160206040518083038186803b15801561343c57600080fd5b505afa158015613450573d6000803e3d6000fd5b505050506040513d602081101561346657600080fd5b810190808051906020019092919050505061348057600080fd5b6134a16134986001600381111561349357fe5b6110d9565b83839050615f64565b600c5410156134af57600080fd5b60008090505b82829050811015613554576134fe8383838181106134cf57fe5b9050602002013573ffffffffffffffffffffffffffffffffffffffff16600260038111156134f957fe5b61307e565b61350757600080fd5b61354783838381811061351657fe5b9050602002013573ffffffffffffffffffffffffffffffffffffffff166001600381111561354057fe5b60016158c1565b80806001019150506134b5565b505050565b6060600a8054905060405190808252806020026020018201604052801561358f5781602001602082028038833980820191505090505b50905060008090505b600a805490508110156135d3576135ae816110d9565b8282815181106135ba57fe5b6020026020010181815250508080600101915050613598565b5090565b600160009054906101000a900473ffffffffffffffffffffffffffffffffffffffff1673ffffffffffffffffffffffffffffffffffffffff16632f54bf6e336040518263ffffffff1660e01b8152600401808273ffffffffffffffffffffffffffffffffffffffff1673ffffffffffffffffffffffffffffffffffffffff16815260200191505060206040518083038186803b15801561367657600080fd5b505afa15801561368a573d6000803e3d6000fd5b505050506040513d60208110156136a057600080fd5b81019080805190602001909291905050506136ba57600080fd5b600d60009054906101000a900460ff16156136d457600080fd5b60008090505b82518110156139c557600160009054906101000a900473ffffffffffffffffffffffffffffffffffffffff1673ffffffffffffffffffffffffffffffffffffffff1663a230c52484838151811061372d57fe5b60200260200101516040518263ffffffff1660e01b8152600401808273ffffffffffffffffffffffffffffffffffffffff1673ffffffffffffffffffffffffffffffffffffffff16815260200191505060206040518083038186803b15801561379557600080fd5b505afa1580156137a9573d6000803e3d6000fd5b505050506040513d60208110156137bf57600080fd5b8101908080519060200190929190505050156137da57600080fd5b600360009054906101000a900473ffffffffffffffffffffffffffffffffffffffff1673ffffffffffffffffffffffffffffffffffffffff1663e43252d784838151811061382457fe5b60200260200101516040518263ffffffff1660e01b8152600401808273ffffffffffffffffffffffffffffffffffffffff1673ffffffffffffffffffffffffffffffffffffffff168152602001915050600060405180830381600087803b15801561388e57600080fd5b505af11580156138a2573d6000803e3d6000fd5b505050506138d18382815181106138b557fe5b6020026020010151600260038111156138ca57fe5b60016158c1565b600360009054906101000a900473ffffffffffffffffffffffffffffffffffffffff1673ffffffffffffffffffffffffffffffffffffffff166340c10f1984838151811061391b57fe5b602002602001015184848151811061392f57fe5b60200260200101516040518363ffffffff1660e01b8152600401808373ffffffffffffffffffffffffffffffffffffffff1673ffffffffffffffffffffffffffffffffffffffff16815260200182815260200192505050600060405180830381600087803b1580156139a057600080fd5b505af11580156139b4573d6000803e3d6000fd5b5050505080806001019150506136da565b506001600d60006101000a81548160ff02191690831515021790555042600e819055505050565b600b60009054906101000a900460ff1615613a0657600080fd5b6001600b60006101000a81548160ff0219169083151502179055506001600d60006101000a81548160ff02191690831515021790555042600e81905550838390508686905014613aa1576040517f08c379a00000000000000000000000000000000000000000000000000000000081526004018080602001828103825260448152602001806162c06044913960600191505060405180910390fd5b86600360006101000a81548173ffffffffffffffffffffffffffffffffffffffff021916908373ffffffffffffffffffffffffffffffffffffffff160217905550613aeb88614e8c565b613af5898a615bae565b60008090505b86869050811015613d2f57613b46878783818110613b1557fe5b9050602002013573ffffffffffffffffffffffffffffffffffffffff1660026003811115613b3f57fe5b60016158c1565b600360009054906101000a900473ffffffffffffffffffffffffffffffffffffffff1673ffffffffffffffffffffffffffffffffffffffff1663e43252d7888884818110613b9057fe5b9050602002013573ffffffffffffffffffffffffffffffffffffffff166040518263ffffffff1660e01b8152600401808273ffffffffffffffffffffffffffffffffffffffff1673ffffffffffffffffffffffffffffffffffffffff168152602001915050600060405180830381600087803b158015613c0f57600080fd5b505af1158015613c23573d6000803e3d6000fd5b50505050600360009054906101000a900473ffffffffffffffffffffffffffffffffffffffff1673ffffffffffffffffffffffffffffffffffffffff166340c10f19888884818110613c7157fe5b9050602002013573ffffffffffffffffffffffffffffffffffffffff16878785818110613c9a57fe5b905060200201356040518363ffffffff1660e01b8152600401808373ffffffffffffffffffffffffffffffffffffffff1673ffffffffffffffffffffffffffffffffffffffff16815260200182815260200192505050600060405180830381600087803b158015613d0a57600080fd5b505af1158015613d1e573d6000803e3d6000fd5b505050508080600101915050613afb565b50600c54828290501115613d4257600080fd5b60008090505b82829050811015613da057613d93838383818110613d6257fe5b9050602002013573ffffffffffffffffffffffffffffffffffffffff1660016003811115613d8c57fe5b60016158c1565b8080600101915050613d48565b50505050505050505050565b6000600a80549050905090565b600d60009054906101000a900460ff1681565b6000600a8281548110613ddb57fe5b9060005260206000209060040201600201805490509050919050565b600160009054906101000a900473ffffffffffffffffffffffffffffffffffffffff1673ffffffffffffffffffffffffffffffffffffffff16638f16c41c336040518263ffffffff1660e01b8152600401808273ffffffffffffffffffffffffffffffffffffffff1673ffffffffffffffffffffffffffffffffffffffff16815260200191505060206040518083038186803b158015613e9657600080fd5b505afa158015613eaa573d6000803e3d6000fd5b505050506040513d6020811015613ec057600080fd5b8101908080519060200190929190505050613eda57600080fd5b80600c8190555050565b600160009054906101000a900473ffffffffffffffffffffffffffffffffffffffff1673ffffffffffffffffffffffffffffffffffffffff163373ffffffffffffffffffffffffffffffffffffffff1614613f3e57600080fd5b613ff7600160009054906101000a900473ffffffffffffffffffffffffffffffffffffffff1673ffffffffffffffffffffffffffffffffffffffff16638da5cb5b6040518163ffffffff1660e01b815260040160206040518083038186803b158015613fa957600080fd5b505afa158015613fbd573d6000803e3d6000fd5b505050506040513d6020811015613fd357600080fd5b8101908080519060200190929190505050600380811115613ff057fe5b60006158c1565b61400e8160038081111561400757fe5b60016158c1565b50565b60606000600a80549050905060608160405190808252806020026020018201604052801561404e5781602001602082028038833980820191505090505b50905060008090506000600190505b8381101561410257600a818154811061407257fe5b906000526020600020906004020160010160008773ffffffffffffffffffffffffffffffffffffffff1673ffffffffffffffffffffffffffffffffffffffff16815260200190815260200160002060009054906101000a900460ff16156140f557808383815181106140e057fe5b60200260200101818152505081806001019250505b808060010191505061405d565b50819350505050919050565b600160009054906101000a900473ffffffffffffffffffffffffffffffffffffffff1681565b81600073ffffffffffffffffffffffffffffffffffffffff16600a828154811061415a57fe5b906000526020600020906004020160030160009054906101000a900473ffffffffffffffffffffffffffffffffffffffff1673ffffffffffffffffffffffffffffffffffffffff161461422257600a81815481106141b457fe5b906000526020600020906004020160030160009054906101000a900473ffffffffffffffffffffffffffffffffffffffff1673ffffffffffffffffffffffffffffffffffffffff163373ffffffffffffffffffffffffffffffffffffffff161461421d57600080fd5b61429e565b61422b33612138565b61429d576040517f08c379a000000000000000000000000000000000000000000000000000000000815260040180806020018281038252600e8152602001807f4e6f7420417574686f72697a656400000000000000000000000000000000000081525060200191505060405180910390fd5b5b81600a84815481106142ac57fe5b906000526020600020906004020160030160006101000a81548173ffffffffffffffffffffffffffffffffffffffff021916908373ffffffffffffffffffffffffffffffffffffffff160217905550505050565b600160009054906101000a900473ffffffffffffffffffffffffffffffffffffffff1673ffffffffffffffffffffffffffffffffffffffff1663ff0938a76040518163ffffffff1660e01b815260040160206040518083038186803b15801561436857600080fd5b505afa15801561437c573d6000803e3d6000fd5b505050506040513d602081101561439257600080fd5b81019080805190602001909291905050501580156144865750600160009054906101000a900473ffffffffffffffffffffffffffffffffffffffff1673ffffffffffffffffffffffffffffffffffffffff1663a230c524336040518263ffffffff1660e01b8152600401808273ffffffffffffffffffffffffffffffffffffffff1673ffffffffffffffffffffffffffffffffffffffff16815260200191505060206040518083038186803b15801561444a57600080fd5b505afa15801561445e573d6000803e3d6000fd5b505050506040513d602081101561447457600080fd5b81019080805190602001909291905050505b61448f57600080fd5b6000600360009054906101000a900473ffffffffffffffffffffffffffffffffffffffff1673ffffffffffffffffffffffffffffffffffffffff166339081b9233426040518363ffffffff1660e01b8152600401808373ffffffffffffffffffffffffffffffffffffffff1673ffffffffffffffffffffffffffffffffffffffff1681526020018281526020019250505060206040518083038186803b15801561453857600080fd5b505afa15801561454c573d6000803e3d6000fd5b505050506040513d602081101561456257600080fd5b81019080805190602001909291905050501461457d57600080fd5b600860009054906101000a900473ffffffffffffffffffffffffffffffffffffffff1673ffffffffffffffffffffffffffffffffffffffff1663ac5adaf6336040518263ffffffff1660e01b8152600401808273ffffffffffffffffffffffffffffffffffffffff1673ffffffffffffffffffffffffffffffffffffffff16815260200191505060206040518083038186803b15801561461c57600080fd5b505afa158015614630573d6000803e3d6000fd5b505050506040513d602081101561464657600080fd5b81019080805190602001909291905050501561466157600080fd5b6000600660009054906101000a900473ffffffffffffffffffffffffffffffffffffffff1673ffffffffffffffffffffffffffffffffffffffff166335afb14e336040518263ffffffff1660e01b8152600401808273ffffffffffffffffffffffffffffffffffffffff1673ffffffffffffffffffffffffffffffffffffffff16815260200191505060206040518083038186803b15801561470257600080fd5b505afa158015614716573d6000803e3d6000fd5b505050506040513d602081101561472c57600080fd5b81019080805190602001909291905050501461474757600080fd5b6000600360009054906101000a900473ffffffffffffffffffffffffffffffffffffffff1673ffffffffffffffffffffffffffffffffffffffff16635294d0e8336040518263ffffffff1660e01b8152600401808273ffffffffffffffffffffffffffffffffffffffff1673ffffffffffffffffffffffffffffffffffffffff168152602001807f434c41000000000000000000000000000000000000000000000000000000000081525060200191505060206040518083038186803b15801561481057600080fd5b505afa158015614824573d6000803e3d6000fd5b505050506040513d602081101561483a57600080fd5b8101908080519060200190929190505050146148a1576040517f08c379a000000000000000000000000000000000000000000000000000000000815260040180806020018281038252602b815260200180616295602b913960400191505060405180910390fd5b600760009054906101000a900473ffffffffffffffffffffffffffffffffffffffff1673ffffffffffffffffffffffffffffffffffffffff1663f0466c73336040518263ffffffff1660e01b8152600401808273ffffffffffffffffffffffffffffffffffffffff1673ffffffffffffffffffffffffffffffffffffffff168152602001915050600060405180830381600087803b15801561494257600080fd5b505af1158015614956573d6000803e3d6000fd5b50505050600360009054906101000a900473ffffffffffffffffffffffffffffffffffffffff1673ffffffffffffffffffffffffffffffffffffffff166379cc679033600960009054906101000a900473ffffffffffffffffffffffffffffffffffffffff1673ffffffffffffffffffffffffffffffffffffffff166370a08231336040518263ffffffff1660e01b8152600401808273ffffffffffffffffffffffffffffffffffffffff1673ffffffffffffffffffffffffffffffffffffffff16815260200191505060206040518083038186803b158015614a3857600080fd5b505afa158015614a4c573d6000803e3d6000fd5b505050506040513d6020811015614a6257600080fd5b81019080805190602001909291905050506040518363ffffffff1660e01b8152600401808373ffffffffffffffffffffffffffffffffffffffff1673ffffffffffffffffffffffffffffffffffffffff16815260200182815260200192505050602060405180830381600087803b158015614adc57600080fd5b505af1158015614af0573d6000803e3d6000fd5b505050506040513d6020811015614b0657600080fd5b810190808051906020019092919050505050614b303360026003811115614b2957fe5b60006158c1565b600360009054906101000a900473ffffffffffffffffffffffffffffffffffffffff1673ffffffffffffffffffffffffffffffffffffffff16638ab1d681336040518263ffffffff1660e01b8152600401808273ffffffffffffffffffffffffffffffffffffffff1673ffffffffffffffffffffffffffffffffffffffff168152602001915050600060405180830381600087803b158015614bd157600080fd5b505af1158015614be5573d6000803e3d6000fd5b50505050565b6000806000600a8581548110614bfd57fe5b90600052602060002090600402016002018481548110614c1957fe5b9060005260206000200160009054906101000a900473ffffffffffffffffffffffffffffffffffffffff16905080600a8681548110614c5457fe5b906000526020600020906004020160010160008373ffffffffffffffffffffffffffffffffffffffff1673ffffffffffffffffffffffffffffffffffffffff16815260200190815260200160002060009054906101000a900460ff1692509250509250929050565b60016003811115614cc957fe5b600073ffffffffffffffffffffffffffffffffffffffff16600a8281548110614cee57fe5b906000526020600020906004020160030160009054906101000a900473ffffffffffffffffffffffffffffffffffffffff1673ffffffffffffffffffffffffffffffffffffffff1614614db657600a8181548110614d4857fe5b906000526020600020906004020160030160009054906101000a900473ffffffffffffffffffffffffffffffffffffffff1673ffffffffffffffffffffffffffffffffffffffff163373ffffffffffffffffffffffffffffffffffffffff1614614db157600080fd5b614e32565b614dbf33612138565b614e31576040517f08c379a000000000000000000000000000000000000000000000000000000000815260040180806020018281038252600e8152602001807f4e6f7420417574686f72697a656400000000000000000000000000000000000081525060200191505060405180910390fd5b5b614e4a8360016003811115614e4357fe5b60016158c1565b614e628260016003811115614e5b57fe5b60006158c1565b505050565b6000809054906101000a900473ffffffffffffffffffffffffffffffffffffffff1681565b600073ffffffffffffffffffffffffffffffffffffffff166000809054906101000a900473ffffffffffffffffffffffffffffffffffffffff1673ffffffffffffffffffffffffffffffffffffffff1614614f3b573373ffffffffffffffffffffffffffffffffffffffff166000809054906101000a900473ffffffffffffffffffffffffffffffffffffffff1673ffffffffffffffffffffffffffffffffffffffff1614614f3a57600080fd5b5b806000806101000a81548173ffffffffffffffffffffffffffffffffffffffff021916908373ffffffffffffffffffffffffffffffffffffffff16021790555080600160006101000a81548173ffffffffffffffffffffffffffffffffffffffff021916908373ffffffffffffffffffffffffffffffffffffffff16021790555080600260006101000a81548173ffffffffffffffffffffffffffffffffffffffff021916908373ffffffffffffffffffffffffffffffffffffffff16021790555050565b600560009054906101000a900473ffffffffffffffffffffffffffffffffffffffff1673ffffffffffffffffffffffffffffffffffffffff166384434b9f6040518163ffffffff1660e01b815260040160206040518083038186803b15801561506857600080fd5b505afa15801561507c573d6000803e3d6000fd5b505050506040513d602081101561509257600080fd5b810190808051906020019092919050505073ffffffffffffffffffffffffffffffffffffffff163373ffffffffffffffffffffffffffffffffffffffff16146150da57600080fd5b600160009054906101000a900473ffffffffffffffffffffffffffffffffffffffff1673ffffffffffffffffffffffffffffffffffffffff1663ff0938a76040518163ffffffff1660e01b815260040160206040518083038186803b15801561514257600080fd5b505afa158015615156573d6000803e3d6000fd5b505050506040513d602081101561516c57600080fd5b81019080805190602001909291905050501561518757600080fd5b600073ffffffffffffffffffffffffffffffffffffffff168273ffffffffffffffffffffffffffffffffffffffff1614156151c157600080fd5b600160009054906101000a900473ffffffffffffffffffffffffffffffffffffffff1673ffffffffffffffffffffffffffffffffffffffff1663a230c524836040518263ffffffff1660e01b8152600401808273ffffffffffffffffffffffffffffffffffffffff1673ffffffffffffffffffffffffffffffffffffffff16815260200191505060206040518083038186803b15801561526057600080fd5b505afa158015615274573d6000803e3d6000fd5b505050506040513d602081101561528a57600080fd5b8101908080519060200190929190505050156152a557600080fd5b600560009054906101000a900473ffffffffffffffffffffffffffffffffffffffff1673ffffffffffffffffffffffffffffffffffffffff1663de75b5ea836040518263ffffffff1660e01b8152600401808273ffffffffffffffffffffffffffffffffffffffff1673ffffffffffffffffffffffffffffffffffffffff16815260200191505060206040518083038186803b15801561534457600080fd5b505afa158015615358573d6000803e3d6000fd5b505050506040513d602081101561536e57600080fd5b810190808051906020019092919050505061538857600080fd5b80156156bb57600560009054906101000a900473ffffffffffffffffffffffffffffffffffffffff1673ffffffffffffffffffffffffffffffffffffffff1663f63a87d48360006040518363ffffffff1660e01b8152600401808373ffffffffffffffffffffffffffffffffffffffff1673ffffffffffffffffffffffffffffffffffffffff1681526020018215151515815260200192505050600060405180830381600087803b15801561543c57600080fd5b505af1158015615450573d6000803e3d6000fd5b505050506000600460009054906101000a900473ffffffffffffffffffffffffffffffffffffffff1673ffffffffffffffffffffffffffffffffffffffff16636eeeaaa56040518163ffffffff1660e01b815260040160206040518083038186803b1580156154be57600080fd5b505afa1580156154d2573d6000803e3d6000fd5b505050506040513d60208110156154e857600080fd5b81019080805190602001909291905050509050600360009054906101000a900473ffffffffffffffffffffffffffffffffffffffff1673ffffffffffffffffffffffffffffffffffffffff1663e43252d7846040518263ffffffff1660e01b8152600401808273ffffffffffffffffffffffffffffffffffffffff1673ffffffffffffffffffffffffffffffffffffffff168152602001915050600060405180830381600087803b15801561559c57600080fd5b505af11580156155b0573d6000803e3d6000fd5b505050506155cc83600260038111156155c557fe5b60016158c1565b600460009054906101000a900473ffffffffffffffffffffffffffffffffffffffff1673ffffffffffffffffffffffffffffffffffffffff16636ad5b3ea6040518163ffffffff1660e01b815260040160206040518083038186803b15801561563457600080fd5b505afa158015615648573d6000803e3d6000fd5b505050506040513d602081101561565e57600080fd5b810190808051906020019092919050505073ffffffffffffffffffffffffffffffffffffffff166108fc829081150290604051600060405180830381858888f193505050501580156156b4573d6000803e3d6000fd5b505061586b565b600560009054906101000a900473ffffffffffffffffffffffffffffffffffffffff1673ffffffffffffffffffffffffffffffffffffffff1663f63a87d48360006040518363ffffffff1660e01b8152600401808373ffffffffffffffffffffffffffffffffffffffff1673ffffffffffffffffffffffffffffffffffffffff1681526020018215151515815260200192505050600060405180830381600087803b15801561576957600080fd5b505af115801561577d573d6000803e3d6000fd5b505050508173ffffffffffffffffffffffffffffffffffffffff166108fc600460009054906101000a900473ffffffffffffffffffffffffffffffffffffffff1673ffffffffffffffffffffffffffffffffffffffff16636eeeaaa56040518163ffffffff1660e01b815260040160206040518083038186803b15801561580357600080fd5b505afa158015615817573d6000803e3d6000fd5b505050506040513d602081101561582d57600080fd5b81019080805190602001909291905050509081150290604051600060405180830381858888f19350505050158015615869573d6000803e3d6000fd5b505b5050565b600e5481565b600360009054906101000a900473ffffffffffffffffffffffffffffffffffffffff1681565b600260009054906101000a900473ffffffffffffffffffffffffffffffffffffffff1681565b8015615a8057600a82815481106158d457fe5b906000526020600020906004020160010160008473ffffffffffffffffffffffffffffffffffffffff1673ffffffffffffffffffffffffffffffffffffffff16815260200190815260200160002060009054906101000a900460ff161561593a57600080fd5b615963600a838154811061594a57fe5b9060005260206000209060040201600001546001615f64565b600a838154811061597057fe5b9060005260206000209060040201600001819055506001600a838154811061599457fe5b906000526020600020906004020160010160008573ffffffffffffffffffffffffffffffffffffffff1673ffffffffffffffffffffffffffffffffffffffff16815260200190815260200160002060006101000a81548160ff021916908315150217905550600a8281548110615a0657fe5b90600052602060002090600402016002018390806001815401808255809150509060018203906000526020600020016000909192909190916101000a81548173ffffffffffffffffffffffffffffffffffffffff021916908373ffffffffffffffffffffffffffffffffffffffff16021790555050615ba9565b600a8281548110615a8d57fe5b906000526020600020906004020160010160008473ffffffffffffffffffffffffffffffffffffffff1673ffffffffffffffffffffffffffffffffffffffff16815260200190815260200160002060009054906101000a900460ff16615af257600080fd5b615b1b600a8381548110615b0257fe5b9060005260206000209060040201600001546001615fec565b600a8381548110615b2857fe5b906000526020600020906004020160000181905550600a8281548110615b4a57fe5b906000526020600020906004020160010160008473ffffffffffffffffffffffffffffffffffffffff1673ffffffffffffffffffffffffffffffffffffffff16815260200190815260200160002060006101000a81549060ff02191690555b505050565b6005600c81905550615c177f556e61737369676e6564000000000000000000000000000000000000000000006040518060400160405280600a81526020017f556e61737369676e6564000000000000000000000000000000000000000000008152506000615d40565b615c5c7f41647669736f727920426f61726400000000000000000000000000000000000060405180610100016040528060d181526020016161c460d191396000615d40565b615cbc7f4d656d62657200000000000000000000000000000000000000000000000000006040518060400160405280601f81526020017f526570726573656e747320616c6c207573657273206f66204d757475616c2e0081525083615d40565b615d1d7f4f776e65720000000000000000000000000000000000000000000000000000006040518060400160405280601b81526020017f526570726573656e7473204f776e6572206f66204d757475616c2e00000000008152506000615d40565b615d3482600380811115615d2d57fe5b60016158c1565b6000600e819055505050565b600a805490507fe2981862bbf692aa30ba39d4eca9c69e5dcebf3eae5fb93332940c23c1c4c3c584846040518083815260200180602001828103825283818151815260200191508051906020019080838360005b83811015615daf578082015181840152602081019050615d94565b50505050905090810190601f168015615ddc5780820380516001836020036101000a031916815260200191505b50935050505060405180910390a2600a6040518060600160405280600081526020016000604051908082528060200260200182016040528015615e2e5781602001602082028038833980820191505090505b5081526020018373ffffffffffffffffffffffffffffffffffffffff1681525090806001815401808255809150509060018203906000526020600020906004020160009091929091909150600082015181600001556020820151816002019080519060200190615e9f9291906160f6565b5060408201518160030160006101000a81548173ffffffffffffffffffffffffffffffffffffffff021916908373ffffffffffffffffffffffffffffffffffffffff160217905550505050505050565b600080600090505b8251811015615f5d578373ffffffffffffffffffffffffffffffffffffffff16838281518110615f2357fe5b602002602001015173ffffffffffffffffffffffffffffffffffffffff161415615f505760019150615f5d565b8080600101915050615ef7565b5092915050565b600080828401905083811015615fe2576040517f08c379a000000000000000000000000000000000000000000000000000000000815260040180806020018281038252601b8152602001807f536166654d6174683a206164646974696f6e206f766572666c6f77000000000081525060200191505060405180910390fd5b8091505092915050565b600061602e83836040518060400160405280601e81526020017f536166654d6174683a207375627472616374696f6e206f766572666c6f770000815250616036565b905092915050565b60008383111582906160e3576040517f08c379a00000000000000000000000000000000000000000000000000000000081526004018080602001828103825283818151815260200191508051906020019080838360005b838110156160a857808201518184015260208101905061608d565b50505050905090810190601f1680156160d55780820380516001836020036101000a031916815260200191505b509250505060405180910390fd5b5060008385039050809150509392505050565b82805482825590600052602060002090810192821561616f579160200282015b8281111561616e5782518260006101000a81548173ffffffffffffffffffffffffffffffffffffffff021916908373ffffffffffffffffffffffffffffffffffffffff16021790555091602001919060010190616116565b5b50905061617c9190616180565b5090565b6161c091905b808211156161bc57600081816101000a81549073ffffffffffffffffffffffffffffffffffffffff021916905550600101616186565b5090565b9056fe53656c656374656420666577206d656d6265727320746861742061726520646565706c7920656e747275737465642062792074686520644170702e20416e20696465616c2061647669736f727920626f6172642073686f756c642062652061206d6978206f6620736b696c6c73206f6620646f6d61696e2c20676f7665726e616e63652c2072657365617263682c20746563686e6f6c6f67792c20636f6e73756c74696e672065746320746f20696d70726f76652074686520706572666f726d616e6365206f662074686520644170702e4d656d6265722073686f756c642068617665206e6f20434c4120756e6c6f636b61626c6520746f6b656e73696e697469616c206d656d6265727320616e64206d656d62657220746f6b656e73206172726179732073686f756c642068617665207468652073616d65206c656e677468a265627a7a72315820b3f01fdfc5f93414b5705dec66a8df971abdfa386f5b2a72c593919e96a923ff64736f6c63430005110032",
  "linkReferences": {},
  "deployedLinkReferences": {}
}