{
  "_format": "hh-sol-artifact-1",
  "contractName": "DisposableMemberRoles",
  "sourceName": "contracts/NexusMutual/mocks/DisposableMemberRoles.sol",
  "abi": [
    {
      "anonymous": false,
      "inputs": [
        {
          "indexed": true,
          "internalType": "uint256",
          "name": "roleId",
          "type": "uint256"
        },
        {
          "indexed": false,
          "internalType": "bytes32",
          "name": "roleName",
          "type": "bytes32"
        },
        {
          "indexed": false,
          "internalType": "string",
          "name": "roleDescription",
          "type": "string"
        }
      ],
      "name": "MemberRole",
      "type": "event"
    },
    {
      "anonymous": false,
      "inputs": [
        {
          "indexed": true,
          "internalType": "address",
          "name": "previousMember",
          "type": "address"
        },
        {
          "indexed": true,
          "internalType": "address",
          "name": "newMember",
          "type": "address"
        },
        {
          "indexed": false,
          "internalType": "uint256",
          "name": "timeStamp",
          "type": "uint256"
        }
      ],
      "name": "switchedMembership",
      "type": "event"
    },
    {
      "constant": false,
      "inputs": [
        {
          "internalType": "address[]",
          "name": "abArray",
          "type": "address[]"
        }
      ],
      "name": "addInitialABMembers",
      "outputs": [],
      "payable": false,
      "stateMutability": "nonpayable",
      "type": "function"
    },
    {
      "constant": false,
      "inputs": [
        {
          "internalType": "address[]",
          "name": "userArray",
          "type": "address[]"
        },
        {
          "internalType": "uint256[]",
          "name": "tokens",
          "type": "uint256[]"
        }
      ],
      "name": "addMembersBeforeLaunch",
      "outputs": [],
      "payable": false,
      "stateMutability": "nonpayable",
      "type": "function"
    },
    {
      "constant": false,
      "inputs": [
        {
          "internalType": "bytes32",
          "name": "_roleName",
          "type": "bytes32"
        },
        {
          "internalType": "string",
          "name": "_roleDescription",
          "type": "string"
        },
        {
          "internalType": "address",
          "name": "_authorized",
          "type": "address"
        }
      ],
      "name": "addRole",
      "outputs": [],
      "payable": false,
      "stateMutability": "nonpayable",
      "type": "function"
    },
    {
      "constant": true,
      "inputs": [
        {
          "internalType": "uint256",
          "name": "_memberRoleId",
          "type": "uint256"
        }
      ],
      "name": "authorized",
      "outputs": [
        {
          "internalType": "address",
          "name": "",
          "type": "address"
        }
      ],
      "payable": false,
      "stateMutability": "view",
      "type": "function"
    },
    {
      "constant": false,
      "inputs": [
        {
          "internalType": "uint256",
          "name": "_roleId",
          "type": "uint256"
        },
        {
          "internalType": "address",
          "name": "_newAuthorized",
          "type": "address"
        }
      ],
      "name": "changeAuthorized",
      "outputs": [],
      "payable": false,
      "stateMutability": "nonpayable",
      "type": "function"
    },
    {
      "constant": false,
      "inputs": [],
      "name": "changeDependentContractAddress",
      "outputs": [],
      "payable": false,
      "stateMutability": "nonpayable",
      "type": "function"
    },
    {
      "constant": false,
      "inputs": [
        {
          "internalType": "address",
          "name": "_masterAddress",
          "type": "address"
        }
      ],
      "name": "changeMasterAddress",
      "outputs": [],
      "payable": false,
      "stateMutability": "nonpayable",
      "type": "function"
    },
    {
      "constant": false,
      "inputs": [
        {
          "internalType": "uint256",
          "name": "_val",
          "type": "uint256"
        }
      ],
      "name": "changeMaxABCount",
      "outputs": [],
      "payable": false,
      "stateMutability": "nonpayable",
      "type": "function"
    },
    {
      "constant": true,
      "inputs": [
        {
          "internalType": "address",
          "name": "_memberAddress",
          "type": "address"
        },
        {
          "internalType": "uint256",
          "name": "_roleId",
          "type": "uint256"
        }
      ],
      "name": "checkRole",
      "outputs": [
        {
          "internalType": "bool",
          "name": "",
          "type": "bool"
        }
      ],
      "payable": false,
      "stateMutability": "view",
      "type": "function"
    },
    {
      "constant": true,
      "inputs": [],
      "name": "dAppToken",
      "outputs": [
        {
          "internalType": "contract TokenController",
          "name": "",
          "type": "address"
        }
      ],
      "payable": false,
      "stateMutability": "view",
      "type": "function"
    },
    {
      "constant": true,
      "inputs": [],
      "name": "getMemberLengthForAllRoles",
      "outputs": [
        {
          "internalType": "uint256[]",
          "name": "totalMembers",
          "type": "uint256[]"
        }
      ],
      "payable": false,
      "stateMutability": "view",
      "type": "function"
    },
    {
      "constant": false,
      "inputs": [
        {
          "internalType": "address",
          "name": "_owner",
          "type": "address"
        },
        {
          "internalType": "address",
          "name": "_masterAddress",
          "type": "address"
        },
        {
          "internalType": "address",
          "name": "_tokenControllerAddress",
          "type": "address"
        },
        {
          "internalType": "address[]",
          "name": "_initialMembers",
          "type": "address[]"
        },
        {
          "internalType": "uint256[]",
          "name": "_initialMemberTokens",
          "type": "uint256[]"
        },
        {
          "internalType": "address[]",
          "name": "_initialABMembers",
          "type": "address[]"
        }
      ],
      "name": "initialize",
      "outputs": [],
      "payable": false,
      "stateMutability": "nonpayable",
      "type": "function"
    },
    {
      "constant": true,
      "inputs": [
        {
          "internalType": "address",
          "name": "_toCheck",
          "type": "address"
        }
      ],
      "name": "isAuthorizedToGovern",
      "outputs": [
        {
          "internalType": "bool",
          "name": "",
          "type": "bool"
        }
      ],
      "payable": false,
      "stateMutability": "view",
      "type": "function"
    },
    {
      "constant": false,
      "inputs": [
        {
          "internalType": "address payable",
          "name": "_userAddress",
          "type": "address"
        },
        {
          "internalType": "bool",
          "name": "verdict",
          "type": "bool"
        }
      ],
      "name": "kycVerdict",
      "outputs": [],
      "payable": false,
      "stateMutability": "nonpayable",
      "type": "function"
    },
    {
      "constant": true,
      "inputs": [],
      "name": "launched",
      "outputs": [
        {
          "internalType": "bool",
          "name": "",
          "type": "bool"
        }
      ],
      "payable": false,
      "stateMutability": "view",
      "type": "function"
    },
    {
      "constant": true,
      "inputs": [],
      "name": "launchedOn",
      "outputs": [
        {
          "internalType": "uint256",
          "name": "",
          "type": "uint256"
        }
      ],
      "payable": false,
      "stateMutability": "view",
      "type": "function"
    },
    {
      "constant": true,
      "inputs": [],
      "name": "masterAddress",
      "outputs": [
        {
          "internalType": "address",
          "name": "",
          "type": "address"
        }
      ],
      "payable": false,
      "stateMutability": "view",
      "type": "function"
    },
    {
      "constant": true,
      "inputs": [],
      "name": "maxABCount",
      "outputs": [
        {
          "internalType": "uint256",
          "name": "",
          "type": "uint256"
        }
      ],
      "payable": false,
      "stateMutability": "view",
      "type": "function"
    },
    {
      "constant": true,
      "inputs": [
        {
          "internalType": "uint256",
          "name": "_memberRoleId",
          "type": "uint256"
        },
        {
          "internalType": "uint256",
          "name": "index",
          "type": "uint256"
        }
      ],
      "name": "memberAtIndex",
      "outputs": [
        {
          "internalType": "address",
          "name": "",
          "type": "address"
        },
        {
          "internalType": "bool",
          "name": "",
          "type": "bool"
        }
      ],
      "payable": false,
      "stateMutability": "view",
      "type": "function"
    },
    {
      "constant": false,
      "inputs": [
        {
          "internalType": "address",
          "name": "_firstAB",
          "type": "address"
        },
        {
          "internalType": "address",
          "name": "memberAuthority",
          "type": "address"
        }
      ],
      "name": "memberRolesInitiate",
      "outputs": [],
      "payable": false,
      "stateMutability": "nonpayable",
      "type": "function"
    },
    {
      "constant": true,
      "inputs": [
        {
          "internalType": "uint256",
          "name": "_memberRoleId",
          "type": "uint256"
        }
      ],
      "name": "members",
      "outputs": [
        {
          "internalType": "uint256",
          "name": "",
          "type": "uint256"
        },
        {
          "internalType": "address[]",
          "name": "memberArray",
          "type": "address[]"
        }
      ],
      "payable": false,
      "stateMutability": "view",
      "type": "function"
    },
    {
      "constant": true,
      "inputs": [
        {
          "internalType": "uint256",
          "name": "_memberRoleId",
          "type": "uint256"
        }
      ],
      "name": "membersLength",
      "outputs": [
        {
          "internalType": "uint256",
          "name": "",
          "type": "uint256"
        }
      ],
      "payable": false,
      "stateMutability": "view",
      "type": "function"
    },
    {
      "constant": true,
      "inputs": [],
      "name": "ms",
      "outputs": [
        {
          "internalType": "contract INXMMaster",
          "name": "",
          "type": "address"
        }
      ],
      "payable": false,
      "stateMutability": "view",
      "type": "function"
    },
    {
      "constant": true,
      "inputs": [
        {
          "internalType": "uint256",
          "name": "_memberRoleId",
          "type": "uint256"
        }
      ],
      "name": "numberOfMembers",
      "outputs": [
        {
          "internalType": "uint256",
          "name": "",
          "type": "uint256"
        }
      ],
      "payable": false,
      "stateMutability": "view",
      "type": "function"
    },
    {
      "constant": true,
      "inputs": [],
      "name": "nxMasterAddress",
      "outputs": [
        {
          "internalType": "address",
          "name": "",
          "type": "address"
        }
      ],
      "payable": false,
      "stateMutability": "view",
      "type": "function"
    },
    {
      "constant": false,
      "inputs": [
        {
          "internalType": "address",
          "name": "_userAddress",
          "type": "address"
        }
      ],
      "name": "payJoiningFee",
      "outputs": [],
      "payable": true,
      "stateMutability": "payable",
      "type": "function"
    },
    {
      "constant": true,
      "inputs": [
        {
          "internalType": "address",
          "name": "_memberAddress",
          "type": "address"
        }
      ],
      "name": "roles",
      "outputs": [
        {
          "internalType": "uint256[]",
          "name": "",
          "type": "uint256[]"
        }
      ],
      "payable": false,
      "stateMutability": "view",
      "type": "function"
    },
    {
      "constant": false,
      "inputs": [
        {
          "internalType": "address",
          "name": "_newABAddress",
          "type": "address"
        },
        {
          "internalType": "address",
          "name": "_removeAB",
          "type": "address"
        }
      ],
      "name": "swapABMember",
      "outputs": [],
      "payable": false,
      "stateMutability": "nonpayable",
      "type": "function"
    },
    {
      "constant": false,
      "inputs": [
        {
          "internalType": "address",
          "name": "_newOwnerAddress",
          "type": "address"
        }
      ],
      "name": "swapOwner",
      "outputs": [],
      "payable": false,
      "stateMutability": "nonpayable",
      "type": "function"
    },
    {
      "constant": false,
      "inputs": [
        {
          "internalType": "address",
          "name": "_add",
          "type": "address"
        }
      ],
      "name": "switchMembership",
      "outputs": [],
      "payable": false,
      "stateMutability": "nonpayable",
      "type": "function"
    },
    {
      "constant": true,
      "inputs": [],
      "name": "tk",
      "outputs": [
        {
          "internalType": "contract NXMToken",
          "name": "",
          "type": "address"
        }
      ],
      "payable": false,
      "stateMutability": "view",
      "type": "function"
    },
    {
      "constant": true,
      "inputs": [],
      "name": "totalRoles",
      "outputs": [
        {
          "internalType": "uint256",
          "name": "",
          "type": "uint256"
        }
      ],
      "payable": false,
      "stateMutability": "view",
      "type": "function"
    },
    {
      "constant": false,
      "inputs": [
        {
          "internalType": "address",
          "name": "_memberAddress",
          "type": "address"
        },
        {
          "internalType": "uint256",
          "name": "_roleId",
          "type": "uint256"
        },
        {
          "internalType": "bool",
          "name": "_active",
          "type": "bool"
        }
      ],
      "name": "updateRole",
      "outputs": [],
      "payable": false,
      "stateMutability": "nonpayable",
      "type": "function"
    },
    {
      "constant": false,
      "inputs": [],
      "name": "withdrawMembership",
      "outputs": [],
      "payable": false,
      "stateMutability": "nonpayable",
      "type": "function"
    }
  ],
  "bytecode": "0x608060405234801561001057600080fd5b50613e08806100206000396000f3fe6080604052600436106101f95760003560e01c8063790e118c1161010d578063ae393df9116100a0578063d46655f41161006f578063d46655f414610a94578063d8b2114e14610ac7578063df05eef514610b02578063eaf2c47714610b17578063f17a3bec14610b2c576101f9565b8063ae393df9146109dc578063b53e4679146109f1578063c578f23014610a44578063d365a08e14610a7f576101f9565b806390a79368116100dc57806390a7936814610928578063993746421461095b578063a0b2d57f1461098e578063aa561f9d146109a3576101f9565b8063790e118c146108aa5780638091f3bf146108bf5780638bed69eb146108d45780638f8c0094146108fe576101f9565b80632f473021116101905780635daf08ca1161015f5780635daf08ca146104d9578063648edd9c1461055e5780636d1c31d2146105d95780636eb4b91f1461063e5780637623bac51461076e576101f9565b80632f4730211461041757806337f15a58146104585780634ed75d471461046d578063505ef22f146104a0576101f9565b80631b5c6ded116101cc5780631b5c6ded146102bd57806321f408be146102f857806322ce72541461030d5780632dc4bdca14610354576101f9565b80630d48669a146101fe5780630dc6f847146102445780630ea9c984146102805780630ead3e7214610297575b600080fd5b34801561020a57600080fd5b506102286004803603602081101561022157600080fd5b5035610b41565b604080516001600160a01b039092168252519081900360200190f35b34801561025057600080fd5b5061026e6004803603602081101561026757600080fd5b5035610b73565b60408051918252519081900360200190f35b34801561028c57600080fd5b50610295610b9b565b005b610295600480360360208110156102ad57600080fd5b50356001600160a01b0316610f87565b3480156102c957600080fd5b50610295600480360360408110156102e057600080fd5b506001600160a01b03813581169160200135166114d0565b34801561030457600080fd5b506102286114fb565b34801561031957600080fd5b506103406004803603602081101561033057600080fd5b50356001600160a01b031661150a565b604080519115158252519081900360200190f35b34801561036057600080fd5b506102956004803603606081101561037757600080fd5b81359190810190604081016020820135600160201b81111561039857600080fd5b8201836020820111156103aa57600080fd5b803590602001918460018302840111600160201b831117156103cb57600080fd5b91908080601f016020809104026020016040519081016040528093929190818152602001838380828437600092019190915250929550505090356001600160a01b0316915061159c9050565b34801561042357600080fd5b506102956004803603606081101561043a57600080fd5b506001600160a01b0381351690602081013590604001351515611678565b34801561046457600080fd5b5061026e611743565b34801561047957600080fd5b506102956004803603602081101561049057600080fd5b50356001600160a01b0316611749565b3480156104ac57600080fd5b50610340600480360360408110156104c357600080fd5b506001600160a01b038135169060200135611da9565b3480156104e557600080fd5b50610503600480360360208110156104fc57600080fd5b5035611e08565b6040518083815260200180602001828103825283818151815260200191508051906020019060200280838360005b83811015610549578181015183820152602001610531565b50505050905001935050505060405180910390f35b34801561056a57600080fd5b506102956004803603602081101561058157600080fd5b810190602081018135600160201b81111561059b57600080fd5b8201836020820111156105ad57600080fd5b803590602001918460208302840111600160201b831117156105ce57600080fd5b509092509050611f66565b3480156105e557600080fd5b506105ee612108565b60408051602080825283518183015283519192839290830191858101910280838360005b8381101561062a578181015183820152602001610612565b505050509050019250505060405180910390f35b34801561064a57600080fd5b506102956004803603604081101561066157600080fd5b810190602081018135600160201b81111561067b57600080fd5b82018360208201111561068d57600080fd5b803590602001918460208302840111600160201b831117156106ae57600080fd5b9190808060200260200160405190810160405280939291908181526020018383602002808284376000920191909152509295949360208101935035915050600160201b8111156106fd57600080fd5b82018360208201111561070f57600080fd5b803590602001918460208302840111600160201b8311171561073057600080fd5b919080806020026020016040519081016040528093929190818152602001838360200280828437600092019190915250929550612172945050505050565b34801561077a57600080fd5b50610295600480360360c081101561079157600080fd5b6001600160a01b0382358116926020810135821692604082013590921691810190608081016060820135600160201b8111156107cc57600080fd5b8201836020820111156107de57600080fd5b803590602001918460208302840111600160201b831117156107ff57600080fd5b919390929091602081019035600160201b81111561081c57600080fd5b82018360208201111561082e57600080fd5b803590602001918460208302840111600160201b8311171561084f57600080fd5b919390929091602081019035600160201b81111561086c57600080fd5b82018360208201111561087e57600080fd5b803590602001918460208302840111600160201b8311171561089f57600080fd5b50909250905061242c565b3480156108b657600080fd5b5061026e612680565b3480156108cb57600080fd5b50610340612687565b3480156108e057600080fd5b5061026e600480360360208110156108f757600080fd5b5035612690565b34801561090a57600080fd5b506102956004803603602081101561092157600080fd5b50356126b9565b34801561093457600080fd5b506102956004803603602081101561094b57600080fd5b50356001600160a01b031661273e565b34801561096757600080fd5b506105ee6004803603602081101561097e57600080fd5b50356001600160a01b03166127d9565b34801561099a57600080fd5b5061022861288a565b3480156109af57600080fd5b50610295600480360360408110156109c657600080fd5b50803590602001356001600160a01b0316612899565b3480156109e857600080fd5b506102956129a1565b3480156109fd57600080fd5b50610a2160048036036040811015610a1457600080fd5b5080359060200135612ebe565b604080516001600160a01b03909316835290151560208301528051918290030190f35b348015610a5057600080fd5b5061029560048036036040811015610a6757600080fd5b506001600160a01b0381358116916020013516612f4f565b348015610a8b57600080fd5b50610228613026565b348015610aa057600080fd5b5061029560048036036020811015610ab757600080fd5b50356001600160a01b0316613035565b348015610ad357600080fd5b5061029560048036036040811015610aea57600080fd5b506001600160a01b0381351690602001351515613093565b348015610b0e57600080fd5b5061026e6135ea565b348015610b2357600080fd5b506102286135f0565b348015610b3857600080fd5b506102286135ff565b6000600a8281548110610b5057fe5b60009182526020909120600490910201600301546001600160a01b031692915050565b6000600a8281548110610b8257fe5b9060005260206000209060040201600001549050919050565b600154604080516227050b60e31b815261151160f21b600482015290516001600160a01b0390921691630138285891602480820192602092909190829003018186803b158015610bea57600080fd5b505afa158015610bfe573d6000803e3d6000fd5b505050506040513d6020811015610c1457600080fd5b5051600480546001600160a01b0319166001600160a01b03928316178155600154604080516227050b60e31b81526121a960f11b9381019390935251921691630138285891602480820192602092909190829003018186803b158015610c7957600080fd5b505afa158015610c8d573d6000803e3d6000fd5b505050506040513d6020811015610ca357600080fd5b5051600680546001600160a01b0319166001600160a01b03928316179055600154604080516227050b60e31b815261145160f21b6004820152905191909216916301382858916024808301926020929190829003018186803b158015610d0857600080fd5b505afa158015610d1c573d6000803e3d6000fd5b505050506040513d6020811015610d3257600080fd5b5051600580546001600160a01b0319166001600160a01b03928316179055600154604080516227050b60e31b81526123ab60f11b6004820152905191909216916301382858916024808301926020929190829003018186803b158015610d9757600080fd5b505afa158015610dab573d6000803e3d6000fd5b505050506040513d6020811015610dc157600080fd5b5051600780546001600160a01b0319166001600160a01b03928316179055600154604080516227050b60e31b8152612a2360f11b6004820152905191909216916301382858916024808301926020929190829003018186803b158015610e2657600080fd5b505afa158015610e3a573d6000803e3d6000fd5b505050506040513d6020811015610e5057600080fd5b5051600880546001600160a01b0319166001600160a01b03928316179055600154604080516313aedd4b60e31b815290519190921691639d76ea58916004808301926020929190829003018186803b158015610eab57600080fd5b505afa158015610ebf573d6000803e3d6000fd5b505050506040513d6020811015610ed557600080fd5b5051600980546001600160a01b0319166001600160a01b03928316179055600154604080516227050b60e31b815261544360f01b6004820152905191909216916301382858916024808301926020929190829003018186803b158015610f3a57600080fd5b505afa158015610f4e573d6000803e3d6000fd5b505050506040513d6020811015610f6457600080fd5b5051600380546001600160a01b0319166001600160a01b03909216919091179055565b6001600160a01b038116610f9a57600080fd5b600160009054906101000a90046001600160a01b03166001600160a01b031663ff0938a76040518163ffffffff1660e01b815260040160206040518083038186803b158015610fe857600080fd5b505afa158015610ffc573d6000803e3d6000fd5b505050506040513d602081101561101257600080fd5b505115611066576040805162461bcd60e51b815260206004820152601760248201527f456d657267656e6379205061757365204170706c696564000000000000000000604482015290519081900360640190fd5b600154604080516227050b60e31b815261145560f21b600482015290516001600160a01b0390921691630138285891602480820192602092909190829003018186803b1580156110b557600080fd5b505afa1580156110c9573d6000803e3d6000fd5b505050506040513d60208110156110df57600080fd5b50516001600160a01b03163314156112e057600480546040805163356ad9f560e11b815290516000936001600160a01b0390931692636ad5b3ea92808201926020929091829003018186803b15801561113757600080fd5b505afa15801561114b573d6000803e3d6000fd5b505050506040513d602081101561116157600080fd5b50516001600160a01b031614156111bf576040805162461bcd60e51b815260206004820152601860248201527f4e6f2077616c6c6574416464726573732070726573656e740000000000000000604482015290519081900360640190fd5b6003546040805163e43252d760e01b81526001600160a01b0384811660048301529151919092169163e43252d791602480830192600092919082900301818387803b15801561120d57600080fd5b505af1158015611221573d6000803e3d6000fd5b506112369250839150600290505b600161360e565b600480546040805163356ad9f560e11b815290516001600160a01b0390921692636ad5b3ea928282019260209290829003018186803b15801561127857600080fd5b505afa15801561128c573d6000803e3d6000fd5b505050506040513d60208110156112a257600080fd5b50516040516001600160a01b03909116903480156108fc02916000818181858888f193505050501580156112da573d6000803e3d6000fd5b506114cd565b60055460408051636f3adaf560e11b81526001600160a01b0384811660048301529151919092169163de75b5ea916024808301926020929190829003018186803b15801561132d57600080fd5b505afa158015611341573d6000803e3d6000fd5b505050506040513d602081101561135757600080fd5b50511561136357600080fd5b6001546040805163288c314960e21b81526001600160a01b0384811660048301529151919092169163a230c524916024808301926020929190829003018186803b1580156113b057600080fd5b505afa1580156113c4573d6000803e3d6000fd5b505050506040513d60208110156113da57600080fd5b5051156113e657600080fd5b6004805460408051636eeeaaa560e01b815290516001600160a01b0390921692636eeeaaa5928282019260209290829003018186803b15801561142857600080fd5b505afa15801561143c573d6000803e3d6000fd5b505050506040513d602081101561145257600080fd5b5051341461145f57600080fd5b60055460408051633d8ea1f560e21b81526001600160a01b038481166004830152600160248301529151919092169163f63a87d491604480830192600092919082900301818387803b1580156114b457600080fd5b505af11580156114c8573d6000803e3d6000fd5b505050505b50565b600b5460ff16156114e057600080fd5b6114ea8282613804565b5050600b805460ff19166001179055565b6009546001600160a01b031681565b60008054604080516227050b60e31b81526123ab60f11b600482015290516001600160a01b03928316928516918391630138285891602480820192602092909190829003018186803b15801561155f57600080fd5b505afa158015611573573d6000803e3d6000fd5b505050506040513d602081101561158957600080fd5b50516001600160a01b0316149392505050565b600054604080516227050b60e31b81526123ab60f11b600482015290516001600160a01b039092169133918391630138285891602480820192602092909190829003018186803b1580156115ef57600080fd5b505afa158015611603573d6000803e3d6000fd5b505050506040513d602081101561161957600080fd5b50516001600160a01b031614611667576040805162461bcd60e51b815260206004820152600e60248201526d139bdd08185d5d1a1bdc9a5e995960921b604482015290519081900360640190fd5b611672848484613913565b50505050565b8160006001600160a01b0316600a828154811061169157fe5b60009182526020909120600360049092020101546001600160a01b0316146116ed57600a81815481106116c057fe5b60009182526020909120600490910201600301546001600160a01b031633146116e857600080fd5b611738565b6116f63361150a565b611738576040805162461bcd60e51b815260206004820152600e60248201526d139bdd08105d5d1a1bdc9a5e995960921b604482015290519081900360640190fd5b61167284848461360e565b600c5481565b600160009054906101000a90046001600160a01b03166001600160a01b031663ff0938a76040518163ffffffff1660e01b815260040160206040518083038186803b15801561179757600080fd5b505afa1580156117ab573d6000803e3d6000fd5b505050506040513d60208110156117c157600080fd5b505115801561184357506001546040805163288c314960e21b815233600482015290516001600160a01b039092169163a230c52491602480820192602092909190829003018186803b15801561181657600080fd5b505afa15801561182a573d6000803e3d6000fd5b505050506040513d602081101561184057600080fd5b50515b80156118c557506001546040805163288c314960e21b81526001600160a01b0384811660048301529151919092169163a230c524916024808301926020929190829003018186803b15801561189757600080fd5b505afa1580156118ab573d6000803e3d6000fd5b505050506040513d60208110156118c157600080fd5b5051155b6118ce57600080fd5b60035460408051631c840dc960e11b815233600482015242602482015290516001600160a01b03909216916339081b9291604480820192602092909190829003018186803b15801561191f57600080fd5b505afa158015611933573d6000803e3d6000fd5b505050506040513d602081101561194957600080fd5b50511561195557600080fd5b6008546040805163562d6d7b60e11b815233600482015290516001600160a01b039092169163ac5adaf691602480820192602092909190829003018186803b1580156119a057600080fd5b505afa1580156119b4573d6000803e3d6000fd5b505050506040513d60208110156119ca57600080fd5b5051156119d657600080fd5b60065460408051631ad7d8a760e11b815233600482015290516001600160a01b03909216916335afb14e91602480820192602092909190829003018186803b158015611a2157600080fd5b505afa158015611a35573d6000803e3d6000fd5b505050506040513d6020811015611a4b57600080fd5b505115611a5757600080fd5b60035460408051630a529a1d60e31b815233600482015262434c4160e81b602482015290516001600160a01b0390921691635294d0e891604480820192602092909190829003018186803b158015611aae57600080fd5b505afa158015611ac2573d6000803e3d6000fd5b505050506040513d6020811015611ad857600080fd5b505115611b165760405162461bcd60e51b815260040180806020018281038252602b815260200180613d65602b913960400191505060405180910390fd5b6007546040805163f0466c7360e01b815233600482015290516001600160a01b039092169163f0466c739160248082019260009290919082900301818387803b158015611b6257600080fd5b505af1158015611b76573d6000803e3d6000fd5b50506003546040805163e43252d760e01b81526001600160a01b038681166004830152915191909216935063e43252d79250602480830192600092919082900301818387803b158015611bc857600080fd5b505af1158015611bdc573d6000803e3d6000fd5b50611bee92508391506002905061122f565b600954604080516370a0823160e01b8152336004820181905291516001600160a01b03909316926323b872dd9291859185916370a08231916024808301926020929190829003018186803b158015611c4557600080fd5b505afa158015611c59573d6000803e3d6000fd5b505050506040513d6020811015611c6f57600080fd5b5051604080516001600160e01b031960e087901b1681526001600160a01b0394851660048201529290931660248301526044820152905160648083019260209291908290030181600087803b158015611cc757600080fd5b505af1158015611cdb573d6000803e3d6000fd5b505050506040513d6020811015611cf157600080fd5b50611d0290503360025b600061360e565b60035460408051638ab1d68160e01b815233600482015290516001600160a01b0390921691638ab1d6819160248082019260009290919082900301818387803b158015611d4e57600080fd5b505af1158015611d62573d6000803e3d6000fd5b50506040805142815290516001600160a01b03851693503392507f192a4c3625bef7938e23abe9b048e44af0928d8ea055694936e5269479ae2ca19181900360200190a350565b600081611db857506001611e02565b600a8281548110611dc557fe5b600091825260208083206001600160a01b03871684526001600490930201919091019052604090205460ff1615611dfe57506001611e02565b5060005b92915050565b600060606000600a8481548110611e1b57fe5b60009182526020822060026004909202010154600a8054919350829187908110611e4157fe5b906000526020600020906004020160000154604051908082528060200260200182016040528015611e7c578160200160208202803883390190505b509350600091505b82821015611f5b576000600a8781548110611e9b57fe5b90600052602060002090600402016002018381548110611eb757fe5b600091825260209091200154600a80546001600160a01b0390921692509088908110611edf57fe5b600091825260208083206001600160a01b03851684526001600490930201919091019052604090205460ff168015611f1e5750611f1c8186613a8d565b155b15611f4f5780858381518110611f3057fe5b6001600160a01b03909216602092830291909101909101526001909101905b50600190910190611e84565b508493505050915091565b600154604080516317aa5fb760e11b815233600482015290516001600160a01b0390921691632f54bf6e91602480820192602092909190829003018186803b158015611fb157600080fd5b505afa158015611fc5573d6000803e3d6000fd5b505050506040513d6020811015611fdb57600080fd5b5051611fe657600080fd5b600160009054906101000a90046001600160a01b03166001600160a01b031663c15041d56040518163ffffffff1660e01b815260040160206040518083038186803b15801561203457600080fd5b505afa158015612048573d6000803e3d6000fd5b505050506040513d602081101561205e57600080fd5b505161206957600080fd5b61207c6120766001610b73565b82613adf565b600c54101561208a57600080fd5b60005b81811015612103576120c68383838181106120a457fe5b905060200201356001600160a01b0316600260038111156120c157fe5b611da9565b6120cf57600080fd5b6120fb8383838181106120de57fe5b905060200201356001600160a01b03166001600381111561122f57fe5b60010161208d565b505050565b600a546040805182815260208084028201019091526060918015612136578160200160208202803883390190505b50905060005b600a5481101561216e5761214f81610b73565b82828151811061215b57fe5b602090810291909101015260010161213c565b5090565b600154604080516317aa5fb760e11b815233600482015290516001600160a01b0390921691632f54bf6e91602480820192602092909190829003018186803b1580156121bd57600080fd5b505afa1580156121d1573d6000803e3d6000fd5b505050506040513d60208110156121e757600080fd5b50516121f257600080fd5b600d5460ff161561220257600080fd5b60005b82518110156124165760015483516001600160a01b039091169063a230c5249085908490811061223157fe5b60200260200101516040518263ffffffff1660e01b815260040180826001600160a01b03166001600160a01b0316815260200191505060206040518083038186803b15801561227f57600080fd5b505afa158015612293573d6000803e3d6000fd5b505050506040513d60208110156122a957600080fd5b5051156122b557600080fd5b60035483516001600160a01b039091169063e43252d7908590849081106122d857fe5b60200260200101516040518263ffffffff1660e01b815260040180826001600160a01b03166001600160a01b03168152602001915050600060405180830381600087803b15801561232857600080fd5b505af115801561233c573d6000803e3d6000fd5b5050505061236483828151811061234f57fe5b60200260200101516002600381111561122f57fe5b60035483516001600160a01b03909116906340c10f199085908490811061238757fe5b602002602001015184848151811061239b57fe5b60200260200101516040518363ffffffff1660e01b815260040180836001600160a01b03166001600160a01b0316815260200182815260200192505050600060405180830381600087803b1580156123f257600080fd5b505af1158015612406573d6000803e3d6000fd5b5050600190920191506122059050565b5050600d805460ff191660011790555042600e55565b600b5460ff161561243c57600080fd5b600b8054600160ff199182168117909255600d8054909116909117905542600e5582851461249b5760405162461bcd60e51b8152600401808060200182810382526044815260200180613d906044913960600191505060405180910390fd5b600380546001600160a01b0319166001600160a01b0389161790556124bf88613035565b6124c9898a613804565b60005b85811015612642576125008787838181106124e357fe5b905060200201356001600160a01b03166002600381111561122f57fe5b6003546001600160a01b031663e43252d788888481811061251d57fe5b905060200201356001600160a01b03166040518263ffffffff1660e01b815260040180826001600160a01b03166001600160a01b03168152602001915050600060405180830381600087803b15801561257557600080fd5b505af1158015612589573d6000803e3d6000fd5b50506003546001600160a01b031691506340c10f1990508888848181106125ac57fe5b905060200201356001600160a01b03168787858181106125c857fe5b905060200201356040518363ffffffff1660e01b815260040180836001600160a01b03166001600160a01b0316815260200182815260200192505050600060405180830381600087803b15801561261e57600080fd5b505af1158015612632573d6000803e3d6000fd5b5050600190920191506124cc9050565b50600c5481111561265257600080fd5b60005b818110156126745761266c8383838181106120de57fe5b600101612655565b50505050505050505050565b600a545b90565b600d5460ff1681565b6000600a828154811061269f57fe5b600091825260209091206002600490920201015492915050565b600154604080516323c5b10760e21b815233600482015290516001600160a01b0390921691638f16c41c91602480820192602092909190829003018186803b15801561270457600080fd5b505afa158015612718573d6000803e3d6000fd5b505050506040513d602081101561272e57600080fd5b505161273957600080fd5b600c55565b6001546001600160a01b0316331461275557600080fd5b60015460408051638da5cb5b60e01b815290516127ce926001600160a01b031691638da5cb5b916004808301926020929190829003018186803b15801561279b57600080fd5b505afa1580156127af573d6000803e3d6000fd5b505050506040513d60208110156127c557600080fd5b50516003611cfb565b6114cd81600361122f565b600a5460408051828152602080840282010190915260609190829082801561280b578160200160208202803883390190505b509050600060015b8381101561288057600a818154811061282857fe5b600091825260208083206001600160a01b038a1684526001600490930201919091019052604090205460ff1615612878578083838151811061286657fe5b60209081029190910101526001909101905b600101612813565b5090949350505050565b6001546001600160a01b031681565b8160006001600160a01b0316600a82815481106128b257fe5b60009182526020909120600360049092020101546001600160a01b03161461290e57600a81815481106128e157fe5b60009182526020909120600490910201600301546001600160a01b0316331461290957600080fd5b612959565b6129173361150a565b612959576040805162461bcd60e51b815260206004820152600e60248201526d139bdd08105d5d1a1bdc9a5e995960921b604482015290519081900360640190fd5b81600a848154811061296757fe5b906000526020600020906004020160030160006101000a8154816001600160a01b0302191690836001600160a01b03160217905550505050565b600160009054906101000a90046001600160a01b03166001600160a01b031663ff0938a76040518163ffffffff1660e01b815260040160206040518083038186803b1580156129ef57600080fd5b505afa158015612a03573d6000803e3d6000fd5b505050506040513d6020811015612a1957600080fd5b5051158015612a9b57506001546040805163288c314960e21b815233600482015290516001600160a01b039092169163a230c52491602480820192602092909190829003018186803b158015612a6e57600080fd5b505afa158015612a82573d6000803e3d6000fd5b505050506040513d6020811015612a9857600080fd5b50515b612aa457600080fd5b60035460408051631c840dc960e11b815233600482015242602482015290516001600160a01b03909216916339081b9291604480820192602092909190829003018186803b158015612af557600080fd5b505afa158015612b09573d6000803e3d6000fd5b505050506040513d6020811015612b1f57600080fd5b505115612b2b57600080fd5b6008546040805163562d6d7b60e11b815233600482015290516001600160a01b039092169163ac5adaf691602480820192602092909190829003018186803b158015612b7657600080fd5b505afa158015612b8a573d6000803e3d6000fd5b505050506040513d6020811015612ba057600080fd5b505115612bac57600080fd5b60065460408051631ad7d8a760e11b815233600482015290516001600160a01b03909216916335afb14e91602480820192602092909190829003018186803b158015612bf757600080fd5b505afa158015612c0b573d6000803e3d6000fd5b505050506040513d6020811015612c2157600080fd5b505115612c2d57600080fd5b60035460408051630a529a1d60e31b815233600482015262434c4160e81b602482015290516001600160a01b0390921691635294d0e891604480820192602092909190829003018186803b158015612c8457600080fd5b505afa158015612c98573d6000803e3d6000fd5b505050506040513d6020811015612cae57600080fd5b505115612cec5760405162461bcd60e51b815260040180806020018281038252602b815260200180613d65602b913960400191505060405180910390fd5b6007546040805163f0466c7360e01b815233600482015290516001600160a01b039092169163f0466c739160248082019260009290919082900301818387803b158015612d3857600080fd5b505af1158015612d4c573d6000803e3d6000fd5b5050600354600954604080516370a0823160e01b8152336004820181905291516001600160a01b0394851696506379cc679095509193909216916370a08231916024808301926020929190829003018186803b158015612dab57600080fd5b505afa158015612dbf573d6000803e3d6000fd5b505050506040513d6020811015612dd557600080fd5b5051604080516001600160e01b031960e086901b1681526001600160a01b03909316600484015260248301919091525160448083019260209291908290030181600087803b158015612e2657600080fd5b505af1158015612e3a573d6000803e3d6000fd5b505050506040513d6020811015612e5057600080fd5b50612e5e9050336002611cfb565b60035460408051638ab1d68160e01b815233600482015290516001600160a01b0390921691638ab1d6819160248082019260009290919082900301818387803b158015612eaa57600080fd5b505af1158015611672573d6000803e3d6000fd5b6000806000600a8581548110612ed057fe5b90600052602060002090600402016002018481548110612eec57fe5b600091825260209091200154600a80546001600160a01b039092169250829187908110612f1557fe5b600091825260208083206001600160a01b039095168352600160049092029094010190925260409091205490925060ff1690509250929050565b600160006001600160a01b0316600a8281548110612f6957fe5b60009182526020909120600360049092020101546001600160a01b031614612fc557600a8181548110612f9857fe5b60009182526020909120600490910201600301546001600160a01b03163314612fc057600080fd5b613010565b612fce3361150a565b613010576040805162461bcd60e51b815260206004820152600e60248201526d139bdd08105d5d1a1bdc9a5e995960921b604482015290519081900360640190fd5b61301b83600161122f565b612103826001611cfb565b6000546001600160a01b031681565b6000546001600160a01b03161561305d576000546001600160a01b0316331461305d57600080fd5b600080546001600160a01b039092166001600160a01b031992831681179091556001805483168217905560028054909216179055565b600560009054906101000a90046001600160a01b03166001600160a01b03166384434b9f6040518163ffffffff1660e01b815260040160206040518083038186803b1580156130e157600080fd5b505afa1580156130f5573d6000803e3d6000fd5b505050506040513d602081101561310b57600080fd5b50516001600160a01b0316331461312157600080fd5b600160009054906101000a90046001600160a01b03166001600160a01b031663ff0938a76040518163ffffffff1660e01b815260040160206040518083038186803b15801561316f57600080fd5b505afa158015613183573d6000803e3d6000fd5b505050506040513d602081101561319957600080fd5b5051156131a557600080fd5b6001600160a01b0382166131b857600080fd5b6001546040805163288c314960e21b81526001600160a01b0385811660048301529151919092169163a230c524916024808301926020929190829003018186803b15801561320557600080fd5b505afa158015613219573d6000803e3d6000fd5b505050506040513d602081101561322f57600080fd5b50511561323b57600080fd5b60055460408051636f3adaf560e11b81526001600160a01b0385811660048301529151919092169163de75b5ea916024808301926020929190829003018186803b15801561328857600080fd5b505afa15801561329c573d6000803e3d6000fd5b505050506040513d60208110156132b257600080fd5b50516132bd57600080fd5b80156134cc5760055460408051633d8ea1f560e21b81526001600160a01b038581166004830152600060248301819052925193169263f63a87d49260448084019391929182900301818387803b15801561331657600080fd5b505af115801561332a573d6000803e3d6000fd5b505050506000600460009054906101000a90046001600160a01b03166001600160a01b0316636eeeaaa56040518163ffffffff1660e01b815260040160206040518083038186803b15801561337e57600080fd5b505afa158015613392573d6000803e3d6000fd5b505050506040513d60208110156133a857600080fd5b50516003546040805163e43252d760e01b81526001600160a01b038781166004830152915193945091169163e43252d79160248082019260009290919082900301818387803b1580156133fa57600080fd5b505af115801561340e573d6000803e3d6000fd5b5061342092508591506002905061122f565b600480546040805163356ad9f560e11b815290516001600160a01b0390921692636ad5b3ea928282019260209290829003018186803b15801561346257600080fd5b505afa158015613476573d6000803e3d6000fd5b505050506040513d602081101561348c57600080fd5b50516040516001600160a01b039091169082156108fc029083906000818181858888f193505050501580156134c5573d6000803e3d6000fd5b50506135e6565b60055460408051633d8ea1f560e21b81526001600160a01b038581166004830152600060248301819052925193169263f63a87d49260448084019391929182900301818387803b15801561351f57600080fd5b505af1158015613533573d6000803e3d6000fd5b50505050816001600160a01b03166108fc600460009054906101000a90046001600160a01b03166001600160a01b0316636eeeaaa56040518163ffffffff1660e01b815260040160206040518083038186803b15801561359257600080fd5b505afa1580156135a6573d6000803e3d6000fd5b505050506040513d60208110156135bc57600080fd5b50516040518115909202916000818181858888f19350505050158015612103573d6000803e3d6000fd5b5050565b600e5481565b6003546001600160a01b031681565b6002546001600160a01b031681565b801561373857600a828154811061362157fe5b600091825260208083206001600160a01b03871684526001600490930201919091019052604090205460ff161561365757600080fd5b613680600a838154811061366757fe5b9060005260206000209060040201600001546001613adf565b600a838154811061368d57fe5b9060005260206000209060040201600001819055506001600a83815481106136b157fe5b600091825260208083206001600160a01b0388168452600492909202909101600101905260409020805460ff1916911515919091179055600a8054839081106136f657fe5b60009182526020808320600492909202909101600201805460018101825590835291200180546001600160a01b0319166001600160a01b038516179055612103565b600a828154811061374557fe5b600091825260208083206001600160a01b03871684526001600490930201919091019052604090205460ff1661377a57600080fd5b6137a3600a838154811061378a57fe5b9060005260206000209060040201600001546001613b40565b600a83815481106137b057fe5b6000918252602090912060049091020155600a8054839081106137cf57fe5b600091825260208083206001600160a01b0387168452600160049093020191909101905260409020805460ff19169055505050565b6005600c5560408051808201909152600a815269155b985cdcda59db995960b21b60208201819052613837916000613913565b61386d6d10591d9a5cdbdc9e48109bd85c9960921b60405180610100016040528060d18152602001613c9460d191396000613913565b6138b66526b2b6b132b960d11b6040518060400160405280601f81526020017f526570726573656e747320616c6c207573657273206f66204d757475616c2e0081525083613913565b6138ff6427bbb732b960d91b6040518060400160405280601b81526020017f526570726573656e7473204f776e6572206f66204d757475616c2e00000000008152506000613913565b61390a82600361122f565b50506000600e55565b600a805490507fe2981862bbf692aa30ba39d4eca9c69e5dcebf3eae5fb93332940c23c1c4c3c584846040518083815260200180602001828103825283818151815260200191508051906020019080838360005b8381101561397f578181015183820152602001613967565b50505050905090810190601f1680156139ac5780820380516001836020036101000a031916815260200191505b50935050505060405180910390a26040805160608101825260008082528251818152602080820185528084019182526001600160a01b03861694840194909452600a80546001810180835591909352835160049093027fc65a7bb8d6351c1cf70c95a316cc6a92839c986682d98bc35f958f4883f9d2a88101938455915180519195613a5d937fc65a7bb8d6351c1cf70c95a316cc6a92839c986682d98bc35f958f4883f9d2aa0192910190613c14565b5060409190910151600390910180546001600160a01b0319166001600160a01b0390921691909117905550505050565b6000805b8251811015613ad857836001600160a01b0316838281518110613ab057fe5b60200260200101516001600160a01b03161415613ad05760019150613ad8565b600101613a91565b5092915050565b600082820183811015613b39576040805162461bcd60e51b815260206004820152601b60248201527f536166654d6174683a206164646974696f6e206f766572666c6f770000000000604482015290519081900360640190fd5b9392505050565b6000613b3983836040518060400160405280601e81526020017f536166654d6174683a207375627472616374696f6e206f766572666c6f77000081525060008184841115613c0c5760405162461bcd60e51b81526004018080602001828103825283818151815260200191508051906020019080838360005b83811015613bd1578181015183820152602001613bb9565b50505050905090810190601f168015613bfe5780820380516001836020036101000a031916815260200191505b509250505060405180910390fd5b505050900390565b828054828255906000526020600020908101928215613c69579160200282015b82811115613c6957825182546001600160a01b0319166001600160a01b03909116178255602090920191600190910190613c34565b5061216e926126849250905b8082111561216e5780546001600160a01b0319168155600101613c7556fe53656c656374656420666577206d656d6265727320746861742061726520646565706c7920656e747275737465642062792074686520644170702e20416e20696465616c2061647669736f727920626f6172642073686f756c642062652061206d6978206f6620736b696c6c73206f6620646f6d61696e2c20676f7665726e616e63652c2072657365617263682c20746563686e6f6c6f67792c20636f6e73756c74696e672065746320746f20696d70726f76652074686520706572666f726d616e6365206f662074686520644170702e4d656d6265722073686f756c642068617665206e6f20434c4120756e6c6f636b61626c6520746f6b656e73696e697469616c206d656d6265727320616e64206d656d62657220746f6b656e73206172726179732073686f756c642068617665207468652073616d65206c656e677468a265627a7a72315820f96c964da22d224324a0b0ff3e281e7becc078a4577d36ca2938f77515d20d3464736f6c63430005110032",
  "linkReferences": {},
  "deployedLinkReferences": {}
}