{
  "_format": "hh-sol-artifact-1",
  "contractName": "ExchangeFactoryMock",
  "sourceName": "contracts/NexusMutual/mocks/ExchangeFactoryMock.sol",
  "abi": [
    {
      "constant": true,
      "inputs": [
        {
          "internalType": "address",
          "name": "_tokenAddress",
          "type": "address"
        }
      ],
      "name": "getExchange",
      "outputs": [
        {
          "internalType": "address",
          "name": "",
          "type": "address"
        }
      ],
      "payable": false,
      "stateMutability": "view",
      "type": "function"
    },
    {
      "constant": true,
      "inputs": [
        {
          "internalType": "address",
          "name": "_exchangeAddress",
          "type": "address"
        }
      ],
      "name": "getToken",
      "outputs": [
        {
          "internalType": "address",
          "name": "",
          "type": "address"
        }
      ],
      "payable": false,
      "stateMutability": "view",
      "type": "function"
    },
    {
      "constant": false,
      "inputs": [
        {
          "internalType": "address",
          "name": "_tokenAddress",
          "type": "address"
        },
        {
          "internalType": "address",
          "name": "_exchangeAddress",
          "type": "address"
        }
      ],
      "name": "setFactory",
      "outputs": [],
      "payable": false,
      "stateMutability": "nonpayable",
      "type": "function"
    }
  ],
  "bytecode": "0x608060405234801561001057600080fd5b50610195806100206000396000f3fe608060405234801561001057600080fd5b50600436106100415760003560e01c806306f2bf621461004657806359770438146100885780635e825564146100ae575b600080fd5b61006c6004803603602081101561005c57600080fd5b50356001600160a01b03166100de565b604080516001600160a01b039092168252519081900360200190f35b61006c6004803603602081101561009e57600080fd5b50356001600160a01b03166100fc565b6100dc600480360360408110156100c457600080fd5b506001600160a01b038135811691602001351661011a565b005b6001600160a01b039081166000908152602081905260409020541690565b6001600160a01b039081166000908152600160205260409020541690565b6001600160a01b039182166000818152602081815260408083208054969095166001600160a01b031996871681179095559382526001905291909120805490921617905556fea265627a7a72315820a999a22cb10000be8a9bb0109b4021ee74fa0da7d5f77121f7c48e5482b6bb7864736f6c63430005110032",
  "linkReferences": {},
  "deployedLinkReferences": {}
}