{
  "_format": "hh-sol-artifact-1",
  "contractName": "OwnedUpgradeabilityProxy",
  "sourceName": "contracts/NexusMutual/modules/governance/external/OwnedUpgradeabilityProxy.sol",
  "abi": [
    {
      "inputs": [
        {
          "internalType": "address",
          "name": "_implementation",
          "type": "address"
        }
      ],
      "payable": false,
      "stateMutability": "nonpayable",
      "type": "constructor"
    },
    {
      "anonymous": false,
      "inputs": [
        {
          "indexed": false,
          "internalType": "address",
          "name": "previousOwner",
          "type": "address"
        },
        {
          "indexed": false,
          "internalType": "address",
          "name": "newOwner",
          "type": "address"
        }
      ],
      "name": "ProxyOwnershipTransferred",
      "type": "event"
    },
    {
      "anonymous": false,
      "inputs": [
        {
          "indexed": true,
          "internalType": "address",
          "name": "implementation",
          "type": "address"
        }
      ],
      "name": "Upgraded",
      "type": "event"
    },
    {
      "payable": true,
      "stateMutability": "payable",
      "type": "fallback"
    },
    {
      "constant": true,
      "inputs": [],
      "name": "implementation",
      "outputs": [
        {
          "internalType": "address",
          "name": "impl",
          "type": "address"
        }
      ],
      "payable": false,
      "stateMutability": "view",
      "type": "function"
    },
    {
      "constant": true,
      "inputs": [],
      "name": "proxyOwner",
      "outputs": [
        {
          "internalType": "address",
          "name": "owner",
          "type": "address"
        }
      ],
      "payable": false,
      "stateMutability": "view",
      "type": "function"
    },
    {
      "constant": false,
      "inputs": [
        {
          "internalType": "address",
          "name": "_newOwner",
          "type": "address"
        }
      ],
      "name": "transferProxyOwnership",
      "outputs": [],
      "payable": false,
      "stateMutability": "nonpayable",
      "type": "function"
    },
    {
      "constant": false,
      "inputs": [
        {
          "internalType": "address",
          "name": "_implementation",
          "type": "address"
        }
      ],
      "name": "upgradeTo",
      "outputs": [],
      "payable": false,
      "stateMutability": "nonpayable",
      "type": "function"
    }
  ],
  "bytecode": "0x608060405234801561001057600080fd5b506040516106e93803806106e98339818101604052602081101561003357600080fd5b81019080805190602001909291905050506100533361006860201b60201c565b610062816100a960201b60201c565b50610194565b600060405180807f6f72672e676f76626c6f636b732e70726f78792e6f776e6572000000000000008152506019019050604051809103902090508181555050565b60006100b961014a60201b60201c565b90508173ffffffffffffffffffffffffffffffffffffffff168173ffffffffffffffffffffffffffffffffffffffff1614156100f457600080fd5b6101038261017060201b60201c565b8173ffffffffffffffffffffffffffffffffffffffff167fbc7cd75a20ee27fd9adebab32041f755214dbc6bffa90cc0225b39da2e5c2d3b60405160405180910390a25050565b60008060405180806106c760229139602201905060405180910390209050805491505090565b600060405180806106c7602291396022019050604051809103902090508181555050565b610524806101a36000396000f3fe60806040526004361061003f5760003560e01c8063025313a2146100ac5780633659cfe6146101035780635c60da1b14610154578063f1739cae146101ab575b60006100496101fc565b9050600073ffffffffffffffffffffffffffffffffffffffff168173ffffffffffffffffffffffffffffffffffffffff16141561008557600080fd5b60405136600082376000803683855af43d806000843e81600081146100a8578184f35b8184fd5b3480156100b857600080fd5b506100c1610222565b604051808273ffffffffffffffffffffffffffffffffffffffff1673ffffffffffffffffffffffffffffffffffffffff16815260200191505060405180910390f35b34801561010f57600080fd5b506101526004803603602081101561012657600080fd5b81019080803573ffffffffffffffffffffffffffffffffffffffff169060200190929190505050610265565b005b34801561016057600080fd5b506101696101fc565b604051808273ffffffffffffffffffffffffffffffffffffffff1673ffffffffffffffffffffffffffffffffffffffff16815260200191505060405180910390f35b3480156101b757600080fd5b506101fa600480360360208110156101ce57600080fd5b81019080803573ffffffffffffffffffffffffffffffffffffffff1690602001909291905050506102b0565b005b60008060405180806104ce60229139602201905060405180910390209050805491505090565b60008060405180807f6f72672e676f76626c6f636b732e70726f78792e6f776e657200000000000000815250601901905060405180910390209050805491505090565b61026d610222565b73ffffffffffffffffffffffffffffffffffffffff163373ffffffffffffffffffffffffffffffffffffffff16146102a457600080fd5b6102ad816103d3565b50565b6102b8610222565b73ffffffffffffffffffffffffffffffffffffffff163373ffffffffffffffffffffffffffffffffffffffff16146102ef57600080fd5b600073ffffffffffffffffffffffffffffffffffffffff168173ffffffffffffffffffffffffffffffffffffffff16141561032957600080fd5b61033281610468565b7f5a3e66efaa1e445ebd894728a69d6959842ea1e97bd79b892797106e270efcd961035b610222565b82604051808373ffffffffffffffffffffffffffffffffffffffff1673ffffffffffffffffffffffffffffffffffffffff1681526020018273ffffffffffffffffffffffffffffffffffffffff1673ffffffffffffffffffffffffffffffffffffffff1681526020019250505060405180910390a150565b60006103dd6101fc565b90508173ffffffffffffffffffffffffffffffffffffffff168173ffffffffffffffffffffffffffffffffffffffff16141561041857600080fd5b610421826104a9565b8173ffffffffffffffffffffffffffffffffffffffff167fbc7cd75a20ee27fd9adebab32041f755214dbc6bffa90cc0225b39da2e5c2d3b60405160405180910390a25050565b600060405180807f6f72672e676f76626c6f636b732e70726f78792e6f776e6572000000000000008152506019019050604051809103902090508181555050565b600060405180806104ce60229139602201905060405180910390209050818155505056fe6f72672e676f76626c6f636b732e70726f78792e696d706c656d656e746174696f6ea265627a7a723158208e3ff7816ad060f72bf6e561b4097a77130eb5f418a1ee31077131fecc61ec1d64736f6c634300051100326f72672e676f76626c6f636b732e70726f78792e696d706c656d656e746174696f6e",
  "linkReferences": {},
  "deployedLinkReferences": {}
}