{
  "_format": "hh-sol-artifact-1",
  "contractName": "MasterMock",
  "sourceName": "contracts/NexusMutual/mocks/MasterMock.sol",
  "abi": [
    {
      "constant": true,
      "inputs": [
        {
          "internalType": "address",
          "name": "caller",
          "type": "address"
        }
      ],
      "name": "checkIsAuthToGoverned",
      "outputs": [
        {
          "internalType": "bool",
          "name": "",
          "type": "bool"
        }
      ],
      "payable": false,
      "stateMutability": "view",
      "type": "function"
    },
    {
      "constant": true,
      "inputs": [],
      "name": "dAppLocker",
      "outputs": [
        {
          "internalType": "address",
          "name": "",
          "type": "address"
        }
      ],
      "payable": false,
      "stateMutability": "view",
      "type": "function"
    },
    {
      "constant": true,
      "inputs": [],
      "name": "dAppToken",
      "outputs": [
        {
          "internalType": "address",
          "name": "",
          "type": "address"
        }
      ],
      "payable": false,
      "stateMutability": "view",
      "type": "function"
    },
    {
      "constant": false,
      "inputs": [
        {
          "internalType": "bytes32",
          "name": "",
          "type": "bytes32"
        }
      ],
      "name": "delegateCallBack",
      "outputs": [],
      "payable": false,
      "stateMutability": "nonpayable",
      "type": "function"
    },
    {
      "constant": false,
      "inputs": [
        {
          "internalType": "address",
          "name": "newGov",
          "type": "address"
        }
      ],
      "name": "enrollGovernance",
      "outputs": [],
      "payable": false,
      "stateMutability": "nonpayable",
      "type": "function"
    },
    {
      "constant": false,
      "inputs": [
        {
          "internalType": "address",
          "name": "newInternal",
          "type": "address"
        }
      ],
      "name": "enrollInternal",
      "outputs": [],
      "payable": false,
      "stateMutability": "nonpayable",
      "type": "function"
    },
    {
      "constant": false,
      "inputs": [
        {
          "internalType": "address",
          "name": "newMember",
          "type": "address"
        },
        {
          "internalType": "enum MasterMock.Role",
          "name": "role",
          "type": "uint8"
        }
      ],
      "name": "enrollMember",
      "outputs": [],
      "payable": false,
      "stateMutability": "nonpayable",
      "type": "function"
    },
    {
      "constant": true,
      "inputs": [
        {
          "internalType": "bytes2",
          "name": "contractName",
          "type": "bytes2"
        }
      ],
      "name": "getLatestAddress",
      "outputs": [
        {
          "internalType": "address payable",
          "name": "",
          "type": "address"
        }
      ],
      "payable": false,
      "stateMutability": "view",
      "type": "function"
    },
    {
      "constant": true,
      "inputs": [
        {
          "internalType": "address",
          "name": "caller",
          "type": "address"
        }
      ],
      "name": "isInternal",
      "outputs": [
        {
          "internalType": "bool",
          "name": "",
          "type": "bool"
        }
      ],
      "payable": false,
      "stateMutability": "view",
      "type": "function"
    },
    {
      "constant": true,
      "inputs": [
        {
          "internalType": "address",
          "name": "caller",
          "type": "address"
        }
      ],
      "name": "isMember",
      "outputs": [
        {
          "internalType": "bool",
          "name": "",
          "type": "bool"
        }
      ],
      "payable": false,
      "stateMutability": "view",
      "type": "function"
    },
    {
      "constant": true,
      "inputs": [
        {
          "internalType": "address",
          "name": "",
          "type": "address"
        }
      ],
      "name": "isOwner",
      "outputs": [
        {
          "internalType": "bool",
          "name": "",
          "type": "bool"
        }
      ],
      "payable": false,
      "stateMutability": "view",
      "type": "function"
    },
    {
      "constant": true,
      "inputs": [],
      "name": "isPause",
      "outputs": [
        {
          "internalType": "bool",
          "name": "",
          "type": "bool"
        }
      ],
      "payable": false,
      "stateMutability": "view",
      "type": "function"
    },
    {
      "constant": true,
      "inputs": [],
      "name": "masterInitialized",
      "outputs": [
        {
          "internalType": "bool",
          "name": "",
          "type": "bool"
        }
      ],
      "payable": false,
      "stateMutability": "view",
      "type": "function"
    },
    {
      "constant": true,
      "inputs": [],
      "name": "owner",
      "outputs": [
        {
          "internalType": "address",
          "name": "",
          "type": "address"
        }
      ],
      "payable": false,
      "stateMutability": "view",
      "type": "function"
    },
    {
      "constant": false,
      "inputs": [],
      "name": "pause",
      "outputs": [],
      "payable": false,
      "stateMutability": "nonpayable",
      "type": "function"
    },
    {
      "constant": true,
      "inputs": [],
      "name": "pauseTime",
      "outputs": [
        {
          "internalType": "uint256",
          "name": "",
          "type": "uint256"
        }
      ],
      "payable": false,
      "stateMutability": "view",
      "type": "function"
    },
    {
      "constant": false,
      "inputs": [
        {
          "internalType": "bytes2",
          "name": "contractName",
          "type": "bytes2"
        },
        {
          "internalType": "address payable",
          "name": "contractAddress",
          "type": "address"
        }
      ],
      "name": "setLatestAddress",
      "outputs": [],
      "payable": false,
      "stateMutability": "nonpayable",
      "type": "function"
    },
    {
      "constant": false,
      "inputs": [
        {
          "internalType": "address",
          "name": "_tokenAddress",
          "type": "address"
        }
      ],
      "name": "setTokenAddress",
      "outputs": [],
      "payable": false,
      "stateMutability": "nonpayable",
      "type": "function"
    },
    {
      "constant": true,
      "inputs": [],
      "name": "tokenAddress",
      "outputs": [
        {
          "internalType": "address",
          "name": "",
          "type": "address"
        }
      ],
      "payable": false,
      "stateMutability": "view",
      "type": "function"
    },
    {
      "constant": false,
      "inputs": [],
      "name": "unpause",
      "outputs": [],
      "payable": false,
      "stateMutability": "nonpayable",
      "type": "function"
    },
    {
      "constant": false,
      "inputs": [
        {
          "internalType": "uint256",
          "name": "",
          "type": "uint256"
        }
      ],
      "name": "updatePauseTime",
      "outputs": [],
      "payable": false,
      "stateMutability": "nonpayable",
      "type": "function"
    }
  ],
  "bytecode": "0x608060405234801561001057600080fd5b506105fa806100206000396000f3fe608060405234801561001057600080fd5b50600436106101375760003560e01c80638da5cb5b116100b8578063a628316d1161007c578063a628316d146102d8578063b6888bb01461030e578063c15041d514610334578063cf772bdf1461033c578063eaf2c477146101fb578063ff0938a71461036b57610137565b80638da5cb5b1461027c5780638dd7ff9a146102575780638f16c41c146102845780639d76ea58146102aa578063a230c524146102b257610137565b80633f4ba83a116100ff5780633f4ba83a146102035780635834e67a1461020b5780635c55d6ca1461023157806378ddbed4146102575780638456cb591461027457610137565b8063013828581461013c578063015cb3ff1461017f57806326a4e8d2146101995780632f54bf6e146101c15780633a12507f146101fb575b600080fd5b6101636004803603602081101561015257600080fd5b50356001600160f01b031916610373565b604080516001600160a01b039092168252519081900360200190f35b610187610398565b60408051918252519081900360200190f35b6101bf600480360360208110156101af57600080fd5b50356001600160a01b031661039d565b005b6101e7600480360360208110156101d757600080fd5b50356001600160a01b03166103c5565b604080519115158252519081900360200190f35b6101636103c5565b6101bf610414565b6101e76004803603602081101561022157600080fd5b50356001600160a01b0316610420565b6101bf6004803603602081101561024757600080fd5b50356001600160a01b031661043e565b6101bf6004803603602081101561026d57600080fd5b5035610462565b6101bf6104af565b610163610398565b6101e76004803603602081101561029a57600080fd5b50356001600160a01b03166104be565b6101636104dc565b6101e7600480360360208110156102c857600080fd5b50356001600160a01b03166104f0565b6101bf600480360360408110156102ee57600080fd5b5080356001600160f01b03191690602001356001600160a01b0316610523565b6101bf6004803603602081101561032457600080fd5b50356001600160a01b031661055d565b6101e76103c5565b6101bf6004803603604081101561035257600080fd5b5080356001600160a01b0316906020013560ff16610584565b6101e76105bc565b6001600160f01b0319166000908152600360205260409020546001600160a01b031690565b600090565b600480546001600160a01b0390921661010002610100600160a81b0319909216919091179055565b60006040805162461bcd60e51b815260206004820152601a60248201527f556e6578706563746564204d61737465724d6f636b2063616c6c000000000000604482015290519081900360640190fd5b6004805460ff19169055565b6001600160a01b031660009081526002602052604090205460ff1690565b6001600160a01b03166000908152600260205260409020805460ff19166001179055565b6040805162461bcd60e51b815260206004820152601a60248201527f556e6578706563746564204d61737465724d6f636b2063616c6c000000000000604482015290519081900360640190fd5b6004805460ff19166001179055565b6001600160a01b031660009081526001602052604090205460ff1690565b60045461010090046001600160a01b031681565b600060016001600160a01b03831660009081526020819052604090205460ff16600381111561051b57fe5b101592915050565b6001600160f01b031991909116600090815260036020526040902080546001600160a01b0319166001600160a01b03909216919091179055565b6001600160a01b03166000908152600160208190526040909120805460ff19169091179055565b6001600160a01b0382166000908152602081905260409020805482919060ff191660018360038111156105b357fe5b02179055505050565b60045460ff169056fea265627a7a72315820e0297df049a6ab3f0f9269303c2f7de5f9e9efb51cf4e390ccf02d254cde57fc64736f6c63430005110032",
  "linkReferences": {},
  "deployedLinkReferences": {}
}