{
  "_format": "hh-sol-artifact-1",
  "contractName": "FixedPoint",
  "sourceName": "contracts/Uniswap/lib/libraries/FixedPoint.sol",
  "abi": [
    {
      "inputs": [],
      "name": "Q112",
      "outputs": [
        {
          "internalType": "uint256",
          "name": "",
          "type": "uint256"
        }
      ],
      "stateMutability": "view",
      "type": "function"
    },
    {
      "inputs": [],
      "name": "RESOLUTION",
      "outputs": [
        {
          "internalType": "uint8",
          "name": "",
          "type": "uint8"
        }
      ],
      "stateMutability": "view",
      "type": "function"
    }
  ],
  "bytecode": "0x60ce610025600b82828239805160001a60731461001857fe5b30600052607381538281f3fe7300000000000000000000000000000000000000003014608060405260043610603d5760003560e01c80633bf7a83e146042578063552f888a14605e575b600080fd5b60486080565b6040518082815260200191505060405180910390f35b60646093565b604051808260ff1660ff16815260200191505060405180910390f35b6e01000000000000000000000000000081565b60708156fea2646970667358221220c787b1a5ee46b6c2989b6c11f8cc80a98797938fdc09e63081eac9aca0993c9a64736f6c63430006060033",
  "linkReferences": {},
  "deployedLinkReferences": {}
}