{
  "_format": "hh-sol-artifact-1",
  "contractName": "TokenFunctions",
  "sourceName": "contracts/NexusMutual/modules/token/TokenFunctions.sol",
  "abi": [
    {
      "anonymous": false,
      "inputs": [
        {
          "indexed": false,
          "internalType": "uint256",
          "name": "claimId",
          "type": "uint256"
        },
        {
          "indexed": false,
          "internalType": "address",
          "name": "addr",
          "type": "address"
        },
        {
          "indexed": false,
          "internalType": "uint256",
          "name": "amount",
          "type": "uint256"
        }
      ],
      "name": "BurnCATokens",
      "type": "event"
    },
    {
      "constant": true,
      "inputs": [
        {
          "internalType": "address",
          "name": "_stakerAddress",
          "type": "address"
        },
        {
          "internalType": "address",
          "name": "_stakedContractAddress",
          "type": "address"
        },
        {
          "internalType": "uint256",
          "name": "_stakedContractIndex",
          "type": "uint256"
        }
      ],
      "name": "_deprecated_getStakerUnlockableTokensOnSmartContract",
      "outputs": [
        {
          "internalType": "uint256",
          "name": "amount",
          "type": "uint256"
        }
      ],
      "payable": false,
      "stateMutability": "view",
      "type": "function"
    },
    {
      "constant": true,
      "inputs": [
        {
          "internalType": "address",
          "name": "stakerAdd",
          "type": "address"
        },
        {
          "internalType": "address",
          "name": "stakedAdd",
          "type": "address"
        },
        {
          "internalType": "uint256",
          "name": "stakerIndex",
          "type": "uint256"
        }
      ],
      "name": "_deprecated_unlockableBeforeBurningAndCanBurn",
      "outputs": [
        {
          "internalType": "uint256",
          "name": "amount",
          "type": "uint256"
        },
        {
          "internalType": "uint256",
          "name": "canBurn",
          "type": "uint256"
        }
      ],
      "payable": false,
      "stateMutability": "view",
      "type": "function"
    },
    {
      "constant": false,
      "inputs": [
        {
          "internalType": "uint256",
          "name": "claimid",
          "type": "uint256"
        },
        {
          "internalType": "uint256",
          "name": "_value",
          "type": "uint256"
        },
        {
          "internalType": "address",
          "name": "_of",
          "type": "address"
        }
      ],
      "name": "burnCAToken",
      "outputs": [],
      "payable": false,
      "stateMutability": "nonpayable",
      "type": "function"
    },
    {
      "constant": false,
      "inputs": [
        {
          "internalType": "uint256",
          "name": "coverId",
          "type": "uint256"
        }
      ],
      "name": "burnDepositCN",
      "outputs": [
        {
          "internalType": "bool",
          "name": "success",
          "type": "bool"
        }
      ],
      "payable": false,
      "stateMutability": "nonpayable",
      "type": "function"
    },
    {
      "constant": false,
      "inputs": [
        {
          "internalType": "uint256",
          "name": "coverId",
          "type": "uint256"
        },
        {
          "internalType": "bytes4",
          "name": "coverCurrency",
          "type": "bytes4"
        },
        {
          "internalType": "uint256",
          "name": "sumAssured",
          "type": "uint256"
        }
      ],
      "name": "burnStakedTokens",
      "outputs": [],
      "payable": false,
      "stateMutability": "nonpayable",
      "type": "function"
    },
    {
      "constant": false,
      "inputs": [
        {
          "internalType": "uint256",
          "name": "",
          "type": "uint256"
        },
        {
          "internalType": "bytes4",
          "name": "",
          "type": "bytes4"
        },
        {
          "internalType": "uint256",
          "name": "",
          "type": "uint256"
        }
      ],
      "name": "burnStakerLockedToken",
      "outputs": [],
      "payable": false,
      "stateMutability": "nonpayable",
      "type": "function"
    },
    {
      "constant": false,
      "inputs": [],
      "name": "changeDependentContractAddress",
      "outputs": [],
      "payable": false,
      "stateMutability": "nonpayable",
      "type": "function"
    },
    {
      "constant": false,
      "inputs": [
        {
          "internalType": "address",
          "name": "_masterAddress",
          "type": "address"
        }
      ],
      "name": "changeMasterAddress",
      "outputs": [],
      "payable": false,
      "stateMutability": "nonpayable",
      "type": "function"
    },
    {
      "constant": false,
      "inputs": [
        {
          "internalType": "uint256",
          "name": "coverId",
          "type": "uint256"
        }
      ],
      "name": "depositCN",
      "outputs": [
        {
          "internalType": "bool",
          "name": "success",
          "type": "bool"
        }
      ],
      "payable": false,
      "stateMutability": "nonpayable",
      "type": "function"
    },
    {
      "constant": true,
      "inputs": [
        {
          "internalType": "address",
          "name": "_stakerAddress",
          "type": "address"
        }
      ],
      "name": "deprecated_getStakerAllLockedTokens",
      "outputs": [
        {
          "internalType": "uint256",
          "name": "amount",
          "type": "uint256"
        }
      ],
      "payable": false,
      "stateMutability": "view",
      "type": "function"
    },
    {
      "constant": true,
      "inputs": [
        {
          "internalType": "address",
          "name": "_stakerAddress",
          "type": "address"
        }
      ],
      "name": "deprecated_getStakerAllUnlockableStakedTokens",
      "outputs": [
        {
          "internalType": "uint256",
          "name": "amount",
          "type": "uint256"
        }
      ],
      "payable": false,
      "stateMutability": "view",
      "type": "function"
    },
    {
      "constant": true,
      "inputs": [
        {
          "internalType": "address",
          "name": "_stakerAddress",
          "type": "address"
        },
        {
          "internalType": "address",
          "name": "_stakedContractAddress",
          "type": "address"
        },
        {
          "internalType": "uint256",
          "name": "_stakedContractIndex",
          "type": "uint256"
        }
      ],
      "name": "deprecated_getStakerLockedTokensOnSmartContract",
      "outputs": [
        {
          "internalType": "uint256",
          "name": "amount",
          "type": "uint256"
        }
      ],
      "payable": false,
      "stateMutability": "view",
      "type": "function"
    },
    {
      "constant": true,
      "inputs": [
        {
          "internalType": "address",
          "name": "stakerAddress",
          "type": "address"
        },
        {
          "internalType": "address",
          "name": "stakedContractAddress",
          "type": "address"
        },
        {
          "internalType": "uint256",
          "name": "stakerIndex",
          "type": "uint256"
        }
      ],
      "name": "deprecated_getStakerUnlockableTokensOnSmartContract",
      "outputs": [
        {
          "internalType": "uint256",
          "name": "",
          "type": "uint256"
        }
      ],
      "payable": false,
      "stateMutability": "view",
      "type": "function"
    },
    {
      "constant": true,
      "inputs": [
        {
          "internalType": "address",
          "name": "_stakedContractAddress",
          "type": "address"
        }
      ],
      "name": "deprecated_getTotalStakedTokensOnSmartContract",
      "outputs": [
        {
          "internalType": "uint256",
          "name": "",
          "type": "uint256"
        }
      ],
      "payable": false,
      "stateMutability": "view",
      "type": "function"
    },
    {
      "constant": false,
      "inputs": [
        {
          "internalType": "address",
          "name": "_stakerAddress",
          "type": "address"
        }
      ],
      "name": "deprecated_unlockStakerUnlockableTokens",
      "outputs": [],
      "payable": false,
      "stateMutability": "nonpayable",
      "type": "function"
    },
    {
      "constant": false,
      "inputs": [
        {
          "internalType": "address",
          "name": "_of",
          "type": "address"
        },
        {
          "internalType": "uint256",
          "name": "_coverId",
          "type": "uint256"
        },
        {
          "internalType": "uint256",
          "name": "_lockTime",
          "type": "uint256"
        }
      ],
      "name": "extendCNEPOff",
      "outputs": [],
      "payable": false,
      "stateMutability": "nonpayable",
      "type": "function"
    },
    {
      "constant": true,
      "inputs": [
        {
          "internalType": "uint256",
          "name": "_coverId",
          "type": "uint256"
        }
      ],
      "name": "getLockedCNAgainstCover",
      "outputs": [
        {
          "internalType": "uint256",
          "name": "",
          "type": "uint256"
        }
      ],
      "payable": false,
      "stateMutability": "view",
      "type": "function"
    },
    {
      "constant": true,
      "inputs": [
        {
          "internalType": "bytes4",
          "name": "curr",
          "type": "bytes4"
        }
      ],
      "name": "getTokenPrice",
      "outputs": [
        {
          "internalType": "uint256",
          "name": "price",
          "type": "uint256"
        }
      ],
      "payable": false,
      "stateMutability": "view",
      "type": "function"
    },
    {
      "constant": true,
      "inputs": [
        {
          "internalType": "address",
          "name": "_of",
          "type": "address"
        }
      ],
      "name": "getUserAllLockedCNTokens",
      "outputs": [
        {
          "internalType": "uint256",
          "name": "amount",
          "type": "uint256"
        }
      ],
      "payable": false,
      "stateMutability": "view",
      "type": "function"
    },
    {
      "constant": true,
      "inputs": [
        {
          "internalType": "address",
          "name": "_of",
          "type": "address"
        },
        {
          "internalType": "uint256",
          "name": "_coverId",
          "type": "uint256"
        }
      ],
      "name": "getUserLockedCNTokens",
      "outputs": [
        {
          "internalType": "uint256",
          "name": "",
          "type": "uint256"
        }
      ],
      "payable": false,
      "stateMutability": "view",
      "type": "function"
    },
    {
      "constant": true,
      "inputs": [
        {
          "internalType": "address",
          "name": "_of",
          "type": "address"
        }
      ],
      "name": "isLockedForMemberVote",
      "outputs": [
        {
          "internalType": "bool",
          "name": "",
          "type": "bool"
        }
      ],
      "payable": false,
      "stateMutability": "view",
      "type": "function"
    },
    {
      "constant": false,
      "inputs": [
        {
          "internalType": "uint256",
          "name": "coverNoteAmount",
          "type": "uint256"
        },
        {
          "internalType": "uint256",
          "name": "coverPeriod",
          "type": "uint256"
        },
        {
          "internalType": "uint256",
          "name": "coverId",
          "type": "uint256"
        },
        {
          "internalType": "address",
          "name": "_of",
          "type": "address"
        }
      ],
      "name": "lockCN",
      "outputs": [],
      "payable": false,
      "stateMutability": "nonpayable",
      "type": "function"
    },
    {
      "constant": true,
      "inputs": [],
      "name": "ms",
      "outputs": [
        {
          "internalType": "contract INXMMaster",
          "name": "",
          "type": "address"
        }
      ],
      "payable": false,
      "stateMutability": "view",
      "type": "function"
    },
    {
      "constant": true,
      "inputs": [],
      "name": "nxMasterAddress",
      "outputs": [
        {
          "internalType": "address",
          "name": "",
          "type": "address"
        }
      ],
      "payable": false,
      "stateMutability": "view",
      "type": "function"
    },
    {
      "constant": false,
      "inputs": [
        {
          "internalType": "address",
          "name": "_contractAddress",
          "type": "address"
        },
        {
          "internalType": "uint256",
          "name": "_coverPriceNXM",
          "type": "uint256"
        }
      ],
      "name": "pushStakerRewards",
      "outputs": [],
      "payable": false,
      "stateMutability": "nonpayable",
      "type": "function"
    },
    {
      "constant": true,
      "inputs": [],
      "name": "tk",
      "outputs": [
        {
          "internalType": "contract NXMToken",
          "name": "",
          "type": "address"
        }
      ],
      "payable": false,
      "stateMutability": "view",
      "type": "function"
    },
    {
      "constant": false,
      "inputs": [
        {
          "internalType": "uint256",
          "name": "coverId",
          "type": "uint256"
        }
      ],
      "name": "unlockCN",
      "outputs": [],
      "payable": false,
      "stateMutability": "nonpayable",
      "type": "function"
    }
  ],
  "bytecode": "0x608060405234801561001057600080fd5b506132ec806100206000396000f3fe608060405234801561001057600080fd5b50600436106101a95760003560e01c80638df30fad116100f9578063d3e3c5f211610097578063f075be1f11610071578063f075be1f1461055c578063f17a3bec14610594578063f9acac081461059c578063fd5509b7146105cf576101a9565b8063d3e3c5f2146104b5578063d46655f414610504578063e8ed92141461052a576101a9565b8063ac5adaf6116100d3578063ac5adaf6146103fb578063b2a59c9214610421578063ba90320214610457578063ccace7df14610483576101a9565b80638df30fad146103a757806390c510cf146103cd578063a0b2d57f146103f3576101a9565b806354d20439116101665780636a4e9268116101405780636a4e92681461031b5780637dded30d1461034157806385f522041461035e578063899ec98f1461037b576101a9565b806354d2043914610299578063626ad88a146102bf57806364cc59d8146102e5576101a9565b80630ea9c984146101ae578063200537a4146101b857806321f408be146101e7578063448a0bb31461020b578063463c24a3146102415780634c14b3a814610268575b600080fd5b6101b6610602565b005b6101d5600480360360208110156101ce57600080fd5b5035610ba3565b60408051918252519081900360200190f35b6101ef610bb4565b604080516001600160a01b039092168252519081900360200190f35b6101d56004803603606081101561022157600080fd5b506001600160a01b03813581169160208101359091169060400135610bc3565b6101d56004803603602081101561025757600080fd5b50356001600160e01b031916610da5565b6102856004803603602081101561027e57600080fd5b5035610e2c565b604080519115158252519081900360200190f35b6101d5600480360360208110156102af57600080fd5b50356001600160a01b0316610f7e565b6101d5600480360360208110156102d557600080fd5b50356001600160a01b0316611156565b6101d5600480360360608110156102fb57600080fd5b506001600160a01b03813581169160208101359091169060400135611310565b6101d56004803603602081101561033157600080fd5b50356001600160a01b0316611325565b6102856004803603602081101561035757600080fd5b50356114dc565b6101b66004803603602081101561037457600080fd5b503561173a565b6101b66004803603604081101561039157600080fd5b506001600160a01b0381351690602001356119be565b6101d5600480360360208110156103bd57600080fd5b50356001600160a01b0316611b43565b6101b6600480360360208110156103e357600080fd5b50356001600160a01b0316611d07565b6101ef6120e1565b6102856004803603602081101561041157600080fd5b50356001600160a01b03166120f0565b6101d56004803603606081101561043757600080fd5b506001600160a01b03813581169160208101359091169060400135612177565b6101d56004803603604081101561046d57600080fd5b506001600160a01b03813516906020013561220e565b6101b66004803603606081101561049957600080fd5b50803590602081013590604001356001600160a01b031661221a565b6104eb600480360360608110156104cb57600080fd5b506001600160a01b03813581169160208101359091169060400135612361565b6040805192835260208301919091528051918290030190f35b6101b66004803603602081101561051a57600080fd5b50356001600160a01b0316612647565b6101b66004803603606081101561054057600080fd5b506001600160a01b0381351690602081013590604001356126d0565b6101b66004803603608081101561057257600080fd5b50803590602081013590604081013590606001356001600160a01b03166128bf565b6101ef612ae9565b6101b6600480360360608110156105b257600080fd5b508035906001600160e01b031960208201351690604001356119b9565b6101b6600480360360608110156105e557600080fd5b508035906001600160e01b03196020820135169060400135612af8565b6000809054906101000a90046001600160a01b03166001600160a01b0316639d76ea586040518163ffffffff1660e01b815260040160206040518083038186803b15801561064f57600080fd5b505afa158015610663573d6000803e3d6000fd5b505050506040513d602081101561067957600080fd5b5051600480546001600160a01b0319166001600160a01b03928316178155600054604080516227050b60e31b815261151160f21b9381019390935251921691630138285891602480820192602092909190829003018186803b1580156106de57600080fd5b505afa1580156106f2573d6000803e3d6000fd5b505050506040513d602081101561070857600080fd5b5051600680546001600160a01b0319166001600160a01b03928316179055600054604080516227050b60e31b815261544360f01b6004820152905191909216916301382858916024808301926020929190829003018186803b15801561076d57600080fd5b505afa158015610781573d6000803e3d6000fd5b505050506040513d602081101561079757600080fd5b5051600580546001600160a01b0319166001600160a01b03928316179055600054604080516227050b60e31b81526121a960f11b6004820152905191909216916301382858916024808301926020929190829003018186803b1580156107fc57600080fd5b505afa158015610810573d6000803e3d6000fd5b505050506040513d602081101561082657600080fd5b5051600880546001600160a01b0319166001600160a01b03928316179055600054604080516227050b60e31b815261145160f21b6004820152905191909216916301382858916024808301926020929190829003018186803b15801561088b57600080fd5b505afa15801561089f573d6000803e3d6000fd5b505050506040513d60208110156108b557600080fd5b5051600780546001600160a01b0319166001600160a01b03928316179055600054604080516227050b60e31b8152614d4360f01b6004820152905191909216916301382858916024808301926020929190829003018186803b15801561091a57600080fd5b505afa15801561092e573d6000803e3d6000fd5b505050506040513d602081101561094457600080fd5b5051600280546001600160a01b0319166001600160a01b03928316179055600054604080516227050b60e31b81526123ab60f11b6004820152905191909216916301382858916024808301926020929190829003018186803b1580156109a957600080fd5b505afa1580156109bd573d6000803e3d6000fd5b505050506040513d60208110156109d357600080fd5b5051600980546001600160a01b0319166001600160a01b03928316179055600054604080516227050b60e31b81526126a960f11b6004820152905191909216916301382858916024808301926020929190829003018186803b158015610a3857600080fd5b505afa158015610a4c573d6000803e3d6000fd5b505050506040513d6020811015610a6257600080fd5b5051600380546001600160a01b0319166001600160a01b03928316179055600054604080516227050b60e31b815261141160f21b6004820152905191909216916301382858916024808301926020929190829003018186803b158015610ac757600080fd5b505afa158015610adb573d6000803e3d6000fd5b505050506040513d6020811015610af157600080fd5b5051600a80546001600160a01b0319166001600160a01b03928316179055600054604080516227050b60e31b815261505360f01b6004820152905191909216916301382858916024808301926020929190829003018186803b158015610b5657600080fd5b505afa158015610b6a573d6000803e3d6000fd5b505050506040513d6020811015610b8057600080fd5b5051600b80546001600160a01b0319166001600160a01b03909216919091179055565b6000610bae82612d0c565b92915050565b6004546001600160a01b031681565b600654604080516324da7b6960e01b81526001600160a01b038581166004830152602482018590529151600093849384939116916324da7b6991604480820192602092909190829003018186803b158015610c1d57600080fd5b505afa158015610c31573d6000803e3d6000fd5b505050506040513d6020811015610c4757600080fd5b50516006546040805163307b569d60e21b81526001600160a01b038a81166004830152602482018590529151939450600093919092169163c1ed5a749160448083019260e0929190829003018186803b158015610ca357600080fd5b505afa158015610cb7573d6000803e3d6000fd5b505050506040513d60e0811015610ccd57600080fd5b50606081015160a09091015160065460408051600162392ebf60e21b031981526001600160a01b038c8116600483015260248201889052915194975092945060009391169163ff1b4504916044808301926020929190829003018186803b158015610d3757600080fd5b505afa158015610d4b573d6000803e3d6000fd5b505050506040513d6020811015610d6157600080fd5b505190506000610d72898986612361565b9150610d98905083610d8c8481898663ffffffff612e5c16565b9063ffffffff612e5c16565b9998505050505050505050565b60025460408051633cb23b2d60e01b81526001600160e01b03198416600482015290516000926001600160a01b031691633cb23b2d916024808301926020929190829003018186803b158015610dfa57600080fd5b505afa158015610e0e573d6000803e3d6000fd5b505050506040513d6020811015610e2457600080fd5b505192915050565b60008054604080516323c5b10760e21b815233600482015290516001600160a01b0390921691638f16c41c91602480820192602092909190829003018186803b158015610e7857600080fd5b505afa158015610e8c573d6000803e3d6000fd5b505050506040513d6020811015610ea257600080fd5b5051610ead57600080fd5b6000610eb883612d0c565b11610f0a576040805162461bcd60e51b815260206004820152601760248201527f4e6f20636f766572206e6f746520617661696c61626c65000000000000000000604482015290519081900360640190fd5b600654604080516308831d5960e41b8152600481018590526001602482015290516001600160a01b0390921691638831d5909160448082019260009290919082900301818387803b158015610f5e57600080fd5b505af1158015610f72573d6000803e3d6000fd5b50600195945050505050565b6000805b6007546040805163544ef03d60e01b81526001600160a01b0386811660048301529151919092169163544ef03d916024808301926020929190829003018186803b158015610fcf57600080fd5b505afa158015610fe3573d6000803e3d6000fd5b505050506040513d6020811015610ff957600080fd5b50518110156111505760075460408051633f9f3eff60e21b81526001600160a01b03808716600483015291516111469361113993889391169163fe7cfbfc91602480820192600092909190829003018186803b15801561105857600080fd5b505afa15801561106c573d6000803e3d6000fd5b505050506040513d6000823e601f3d908101601f19168201604052602081101561109557600080fd5b81019080805160405193929190846401000000008211156110b557600080fd5b9083019060208201858111156110ca57600080fd5b82518660208202830111640100000000821117156110e757600080fd5b82525081516020918201928201910280838360005b838110156111145781810151838201526020016110fc565b50505050905001604052505050848151811061112c57fe5b6020026020010151612e9e565b839063ffffffff612f3e16565b9150600101610f82565b50919050565b6000808080805b600654604080516338c97bdd60e21b81526001600160a01b0389811660048301529151919092169163e325ef74916024808301926020929190829003018186803b1580156111aa57600080fd5b505afa1580156111be573d6000803e3d6000fd5b505050506040513d60208110156111d457600080fd5b505181101561130657600654604080516396cf145560e01b81526001600160a01b03898116600483015260248201859052915191909216916396cf1455916044808301926020929190829003018186803b15801561123157600080fd5b505afa158015611245573d6000803e3d6000fd5b505050506040513d602081101561125b57600080fd5b5051600654604080516379ade32f60e01b81526001600160a01b038a811660048301526024820186905291519396509116916379ade32f91604480820192602092909190829003018186803b1580156112b357600080fd5b505afa1580156112c7573d6000803e3d6000fd5b505050506040513d60208110156112dd57600080fd5b505191506112fc6112ef878585610bc3565b859063ffffffff612f3e16565b935060010161115d565b5091949350505050565b600061131d848484612f98565b949350505050565b6000808080805b600654604080516338c97bdd60e21b81526001600160a01b0389811660048301529151919092169163e325ef74916024808301926020929190829003018186803b15801561137957600080fd5b505afa15801561138d573d6000803e3d6000fd5b505050506040513d60208110156113a357600080fd5b505181101561130657600654604080516396cf145560e01b81526001600160a01b03898116600483015260248201859052915191909216916396cf1455916044808301926020929190829003018186803b15801561140057600080fd5b505afa158015611414573d6000803e3d6000fd5b505050506040513d602081101561142a57600080fd5b5051600654604080516379ade32f60e01b81526001600160a01b038a811660048301526024820186905291519396509116916379ade32f91604480820192602092909190829003018186803b15801561148257600080fd5b505afa158015611496573d6000803e3d6000fd5b505050506040513d60208110156114ac57600080fd5b5051915060006114bd878584612361565b91506114d19050858263ffffffff612f3e16565b94505060010161132c565b60008054604080516323c5b10760e21b815233600482015290516001600160a01b0390921691638f16c41c91602480820192602092909190829003018186803b15801561152857600080fd5b505afa15801561153c573d6000803e3d6000fd5b505050506040513d602081101561155257600080fd5b505161155d57600080fd5b60075460408051633c2d4daf60e01b81526004810185905290516000926001600160a01b031691633c2d4daf916024808301926020929190829003018186803b1580156115a957600080fd5b505afa1580156115bd573d6000803e3d6000fd5b505050506040513d60208110156115d357600080fd5b505160065460408051630ee0985160e11b81526004810187905281519394506000936001600160a01b0390931692631dc130a292602480840193919291829003018186803b15801561162457600080fd5b505afa158015611638573d6000803e3d6000fd5b505050506040513d604081101561164e57600080fd5b50519050611674606461166883603263ffffffff61307216565b9063ffffffff6130cb16565b604080516121a760f11b6020808301919091526001600160601b0319606087901b1660228301526036808301899052835180840390910181526056830180855281519190920120600554637aef5b7360e01b9092526001600160a01b03808816605a850152607a8401829052609a8401869052935194955093921691637aef5b739160ba8082019260009290919082900301818387803b15801561171757600080fd5b505af115801561172b573d6000803e3d6000fd5b50600198975050505050505050565b600054604080516323c5b10760e21b815233600482015290516001600160a01b0390921691638f16c41c91602480820192602092909190829003018186803b15801561178557600080fd5b505afa158015611799573d6000803e3d6000fd5b505050506040513d60208110156117af57600080fd5b50516117ba57600080fd5b60065460408051630ee0985160e11b81526004810184905281516000936001600160a01b031692631dc130a29260248082019391829003018186803b15801561180257600080fd5b505afa158015611816573d6000803e3d6000fd5b505050506040513d604081101561182c57600080fd5b5060200151905080156118705760405162461bcd60e51b815260040180806020018281038252602f815260200180613289602f913960400191505060405180910390fd5b600061187b83612d0c565b905080156119b95760075460408051633c2d4daf60e01b81526004810186905290516000926001600160a01b031691633c2d4daf916024808301926020929190829003018186803b1580156118cf57600080fd5b505afa1580156118e3573d6000803e3d6000fd5b505050506040513d60208110156118f957600080fd5b5051604080516121a760f11b6020828101919091526001600160601b0319606085901b1660228301526036808301899052835180840390910181526056830180855281519190920120600554634063ab0d60e11b9092526001600160a01b03808616605a850152607a8401829052609a84018890529351949550939216916380c7561a9160ba8082019260009290919082900301818387803b15801561199e57600080fd5b505af11580156119b2573d6000803e3d6000fd5b5050505050505b505050565b600054604080516323c5b10760e21b815233600482015290516001600160a01b0390921691638f16c41c91602480820192602092909190829003018186803b158015611a0957600080fd5b505afa158015611a1d573d6000803e3d6000fd5b505050506040513d6020811015611a3357600080fd5b5051611a3e57600080fd5b6000611acf6064611668600660009054906101000a90046001600160a01b03166001600160a01b031663e22648506040518163ffffffff1660e01b815260040160206040518083038186803b158015611a9657600080fd5b505afa158015611aaa573d6000803e3d6000fd5b505050506040513d6020811015611ac057600080fd5b5051859063ffffffff61307216565b600b54604080516303c3e48f60e61b81526001600160a01b03878116600483015260248201859052915193945091169163f0f923c09160448082019260009290919082900301818387803b158015611b2657600080fd5b505af1158015611b3a573d6000803e3d6000fd5b50505050505050565b60065460408051637a4022a560e11b81526001600160a01b0384811660048301529151600093849384938493919092169163f480454a916024808301926020929190829003018186803b158015611b9957600080fd5b505afa158015611bad573d6000803e3d6000fd5b505050506040513d6020811015611bc357600080fd5b5051905060005b81811015611306576006546040805163053961a960e51b81526001600160a01b038981166004830152602482018590529151919092169163a72c3520916044808301926020929190829003018186803b158015611c2657600080fd5b505afa158015611c3a573d6000803e3d6000fd5b505050506040513d6020811015611c5057600080fd5b5051600654604080516324da7b6960e01b81526001600160a01b038a8116600483015260248201869052915193965060009391909216916324da7b69916044808301926020929190829003018186803b158015611cac57600080fd5b505afa158015611cc0573d6000803e3d6000fd5b505050506040513d6020811015611cd657600080fd5b505190506000611ce7858984612361565b9150611cfb9050868263ffffffff612f3e16565b95505050600101611bca565b6000809054906101000a90046001600160a01b03166001600160a01b031663ff0938a76040518163ffffffff1660e01b815260040160206040518083038186803b158015611d5457600080fd5b505afa158015611d68573d6000803e3d6000fd5b505050506040513d6020811015611d7e57600080fd5b505115611d8a57600080fd5b6000808080805b600654604080516338c97bdd60e21b81526001600160a01b0389811660048301529151919092169163e325ef74916024808301926020929190829003018186803b158015611dde57600080fd5b505afa158015611df2573d6000803e3d6000fd5b505050506040513d6020811015611e0857600080fd5b50518110156120d957600654604080516396cf145560e01b81526001600160a01b03898116600483015260248201859052915191909216916396cf1455916044808301926020929190829003018186803b158015611e6557600080fd5b505afa158015611e79573d6000803e3d6000fd5b505050506040513d6020811015611e8f57600080fd5b5051600654604080516379ade32f60e01b81526001600160a01b038a811660048301526024820186905291519397509116916379ade32f91604480820192602092909190829003018186803b158015611ee757600080fd5b505afa158015611efb573d6000803e3d6000fd5b505050506040513d6020811015611f1157600080fd5b50519150611f20868584610bc3565b60065460408051631fdaafe360e31b81526001600160a01b038a811660048301526024820186905260006044830181905292519499509092169263fed57f1892606480820193929182900301818387803b158015611f7d57600080fd5b505af1158015611f91573d6000803e3d6000fd5b50506006546040805163025d103560e61b81526001600160a01b038b8116600483015260248201879052604482018b905291519190921693506397440d409250606480830192600092919082900301818387803b158015611ff157600080fd5b505af1158015612005573d6000803e3d6000fd5b50506040805161555760f01b6020808301919091526001600160601b031960608c811b821660228501528a901b166036830152604a80830188905283518084039091018152606a830180855281519190920120600554634063ab0d60e11b9092526001600160a01b03808d16606e850152608e840182905260ae84018c90529351909850921693506380c7561a925060ce8082019260009290919082900301818387803b1580156120b557600080fd5b505af11580156120c9573d6000803e3d6000fd5b505060019092019150611d919050565b505050505050565b6000546001600160a01b031681565b60048054604080516398fd371f60e01b81526001600160a01b03858116948201949094529051600093909216916398fd371f91602480820192602092909190829003018186803b15801561214357600080fd5b505afa158015612157573d6000803e3d6000fd5b505050506040513d602081101561216d57600080fd5b5051421092915050565b600654604080516379ade32f60e01b81526001600160a01b03808716600483015260248201859052915160009361131d938893889391909216916379ade32f916044808301926020929190829003018186803b1580156121d657600080fd5b505afa1580156121ea573d6000803e3d6000fd5b505050506040513d602081101561220057600080fd5b5051610bc3565b9392505050565b60006122078383612e9e565b60005460408051632c1a733d60e11b815233600482015290516001600160a01b0390921691635834e67a91602480820192602092909190829003018186803b15801561226557600080fd5b505afa158015612279573d6000803e3d6000fd5b505050506040513d602081101561228f57600080fd5b505161229a57600080fd5b60055460408051637aef5b7360e01b81526001600160a01b03848116600483015262434c4160e81b60248301526044820186905291519190921691637aef5b7391606480830192600092919082900301818387803b1580156122fb57600080fd5b505af115801561230f573d6000803e3d6000fd5b5050604080518681526001600160a01b038516602082015280820186905290517fbe5088ade50b808020f6e22db338b1dc96918b163ce3cffedfcccfe68f08477f9350908190036060019150a1505050565b6006546040805163307b569d60e21b81526001600160a01b03868116600483015260248201859052915160009384938493849384938493169163c1ed5a749160448083019260e0929190829003018186803b1580156123bf57600080fd5b505afa1580156123d3573d6000803e3d6000fd5b505050506040513d60e08110156123e957600080fd5b506040810151606082015160a083015160c090930151919650945090925090506124a38361242462015180611668428963ffffffff612e5c16565b600660009054906101000a90046001600160a01b03166001600160a01b031663c47ac1ac6040518163ffffffff1660e01b815260040160206040518083038186803b15801561247257600080fd5b505afa158015612486573d6000803e3d6000fd5b505050506040513d602081101561249c57600080fd5b505161310d565b60065460408051600162392ebf60e21b031981526001600160a01b038d81166004830152602482018c905291519398506000938593929092169163ff1b450491604480820192602092909190829003018186803b15801561250357600080fd5b505afa158015612517573d6000803e3d6000fd5b505050506040513d602081101561252d57600080fd5b810190808051906020019092919050505084888703030303905060006125f28b8b600660009054906101000a90046001600160a01b03166001600160a01b03166379ade32f8f8e6040518363ffffffff1660e01b815260040180836001600160a01b03166001600160a01b031681526020018281526020019250505060206040518083038186803b1580156125c157600080fd5b505afa1580156125d5573d6000803e3d6000fd5b505050506040513d60208110156125eb57600080fd5b5051612f98565b9050600082121561260257600091505b909650869061261b83610d8c838563ffffffff612e5c16565b8711156126395761263683610d8c838b63ffffffff612e5c16565b96505b505050505050935093915050565b6000546001600160a01b0316156126a4576000546001600160a01b031633146126a4576040805162461bcd60e51b815260206004820152600a6024820152692737ba1036b0b9ba32b960b11b604482015290519081900360640190fd5b600080546001600160a01b039092166001600160a01b0319928316811790915560018054909216179055565b600054604080516323c5b10760e21b815233600482015290516001600160a01b0390921691638f16c41c91602480820192602092909190829003018186803b15801561271b57600080fd5b505afa15801561272f573d6000803e3d6000fd5b505050506040513d602081101561274557600080fd5b505161275057600080fd5b6000612762428363ffffffff612f3e16565b6007546040805163388d67c360e11b81526004810187905290519293506000926001600160a01b039092169163711acf8691602480820192602092909190829003018186803b1580156127b457600080fd5b505afa1580156127c8573d6000803e3d6000fd5b505050506040513d60208110156127de57600080fd5b505190508082106128b857604080516121a760f11b602080830191909152606088901b6001600160601b031916602283015260368083018890528351808403909101815260568301808552815191830191909120600554631634ea0b60e11b9092526001600160a01b03808b16605a860152607a8501829052609a85018890529451909490911692632c69d4169260ba8083019391928290030181600087803b15801561288a57600080fd5b505af115801561289e573d6000803e3d6000fd5b505050506040513d60208110156128b457600080fd5b5050505b5050505050565b600054604080516323c5b10760e21b815233600482015290516001600160a01b0390921691638f16c41c91602480820192602092909190829003018186803b15801561290a57600080fd5b505afa15801561291e573d6000803e3d6000fd5b505050506040513d602081101561293457600080fd5b505161293f57600080fd5b60006129d0600660009054906101000a90046001600160a01b03166001600160a01b031663ce0a6d5f6040518163ffffffff1660e01b815260040160206040518083038186803b15801561299257600080fd5b505afa1580156129a6573d6000803e3d6000fd5b505050506040513d60208110156129bc57600080fd5b50516201518086029063ffffffff612f3e16565b604080516121a760f11b602080830191909152606086901b6001600160601b03191660228301526036808301889052835180840390910181526056830180855281519190920120600654634e71865960e01b909252605a8301889052607a83018a9052925193945091926001600160a01b0390921691634e71865991609a8082019260009290919082900301818387803b158015612a6d57600080fd5b505af1158015612a81573d6000803e3d6000fd5b50506005546040805163fa64f8c160e01b81526001600160a01b03888116600483015260248201879052604482018c905260648201889052915191909216935063fa64f8c1925060848083019260209291908290030181600087803b15801561288a57600080fd5b6001546001600160a01b031681565b600054604080516323c5b10760e21b815233600482015290516001600160a01b0390921691638f16c41c91602480820192602092909190829003018186803b158015612b4357600080fd5b505afa158015612b57573d6000803e3d6000fd5b505050506040513d6020811015612b6d57600080fd5b5051612b7857600080fd5b60075460408051638d16a10560e01b81526004810186905281516000936001600160a01b031692638d16a1059260248082019391829003018186803b158015612bc057600080fd5b505afa158015612bd4573d6000803e3d6000fd5b505050506040513d6040811015612bea57600080fd5b5060209081015160025460408051633cb23b2d60e01b81526001600160e01b03198816600482015290519294506000936001600160a01b0390921692633cb23b2d92602480840193919291829003018186803b158015612c4957600080fd5b505afa158015612c5d573d6000803e3d6000fd5b505050506040513d6020811015612c7357600080fd5b505190506000612c958261166886670de0b6b3a764000063ffffffff61307216565b600b54604080516368989a5960e01b81526001600160a01b0387811660048301526024820185905291519394509116916368989a599160448082019260009290919082900301818387803b158015612cec57600080fd5b505af1158015612d00573d6000803e3d6000fd5b50505050505050505050565b60075460408051633c2d4daf60e01b815260048101849052905160009283926001600160a01b0390911691633c2d4daf91602480820192602092909190829003018186803b158015612d5d57600080fd5b505afa158015612d71573d6000803e3d6000fd5b505050506040513d6020811015612d8757600080fd5b5051604080516121a760f11b6020828101919091526001600160601b0319606085901b1660228301526036808301889052835180840390910181526056830180855281519183019190912060055463179e91f160e01b9092526001600160a01b03808716605a860152607a850182905242609a86015294519596509493169263179e91f19260ba808201939291829003018186803b158015612e2857600080fd5b505afa158015612e3c573d6000803e3d6000fd5b505050506040513d6020811015612e5257600080fd5b5051949350505050565b600061220783836040518060400160405280601e81526020017f536166654d6174683a207375627472616374696f6e206f766572666c6f77000081525061316b565b604080516121a760f11b602080830191909152606085901b6001600160601b03191660228301526036808301859052835180840390910181526056830180855281519183019190912060055463179e91f160e01b9092526001600160a01b03808816605a860152607a850182905242609a86015294516000959194919092169263179e91f19260ba80840193829003018186803b158015612e2857600080fd5b600082820183811015612207576040805162461bcd60e51b815260206004820152601b60248201527f536166654d6174683a206164646974696f6e206f766572666c6f770000000000604482015290519081900360640190fd5b6040805161555760f01b6020808301919091526001600160601b0319606087811b8216602285015286901b166036830152604a80830185905283518084039091018152606a8301808552815191830191909120600554631729236360e21b9092526001600160a01b03808916606e860152608e8501829052945160009591949290911692635ca48d8c9260ae8082019391829003018186803b15801561303d57600080fd5b505afa158015613051573d6000803e3d6000fd5b505050506040513d602081101561306757600080fd5b505195945050505050565b60008261308157506000610bae565b8282028284828161308e57fe5b04146122075760405162461bcd60e51b81526004018080602001828103825260218152602001806132686021913960400191505060405180910390fd5b600061220783836040518060400160405280601a81526020017f536166654d6174683a206469766973696f6e206279207a65726f000000000000815250613202565b60008282111561316157600061314083611668620186a0613134838963ffffffff612e5c16565b9063ffffffff61307216565b9050613159620186a0611668838863ffffffff61307216565b915050612207565b5060009392505050565b600081848411156131fa5760405162461bcd60e51b81526004018080602001828103825283818151815260200191508051906020019080838360005b838110156131bf5781810151838201526020016131a7565b50505050905090810190601f1680156131ec5780820380516001836020036101000a031916815260200191505b509250505060405180910390fd5b505050900390565b600081836132515760405162461bcd60e51b81526020600482018181528351602484015283519092839260449091019190850190808383600083156131bf5781810151838201526020016131a7565b50600083858161325d57fe5b049594505050505056fe536166654d6174683a206d756c7469706c69636174696f6e206f766572666c6f77436f766572206e6f7465206973206465706f736974656420616e642063616e206e6f742062652072656c6561736564a265627a7a7231582007ae419b59cd262d03ba8fbeb5d04a80c81c17238b485fe72b76a63b3cf6708464736f6c63430005110032",
  "linkReferences": {},
  "deployedLinkReferences": {}
}