{
  "_format": "hh-sol-artifact-1",
  "contractName": "DisposableTokenController",
  "sourceName": "contracts/NexusMutual/mocks/DisposableTokenController.sol",
  "abi": [
    {
      "anonymous": false,
      "inputs": [
        {
          "indexed": true,
          "internalType": "address",
          "name": "member",
          "type": "address"
        },
        {
          "indexed": false,
          "internalType": "bytes32",
          "name": "lockedUnder",
          "type": "bytes32"
        },
        {
          "indexed": false,
          "internalType": "uint256",
          "name": "amount",
          "type": "uint256"
        }
      ],
      "name": "Burned",
      "type": "event"
    },
    {
      "anonymous": false,
      "inputs": [
        {
          "indexed": true,
          "internalType": "address",
          "name": "_of",
          "type": "address"
        },
        {
          "indexed": true,
          "internalType": "bytes32",
          "name": "_reason",
          "type": "bytes32"
        },
        {
          "indexed": false,
          "internalType": "uint256",
          "name": "_amount",
          "type": "uint256"
        },
        {
          "indexed": false,
          "internalType": "uint256",
          "name": "_validity",
          "type": "uint256"
        }
      ],
      "name": "Locked",
      "type": "event"
    },
    {
      "anonymous": false,
      "inputs": [
        {
          "indexed": true,
          "internalType": "address",
          "name": "_of",
          "type": "address"
        },
        {
          "indexed": true,
          "internalType": "bytes32",
          "name": "_reason",
          "type": "bytes32"
        },
        {
          "indexed": false,
          "internalType": "uint256",
          "name": "_amount",
          "type": "uint256"
        }
      ],
      "name": "Unlocked",
      "type": "event"
    },
    {
      "constant": false,
      "inputs": [
        {
          "internalType": "address",
          "name": "_member",
          "type": "address"
        }
      ],
      "name": "addToWhitelist",
      "outputs": [],
      "payable": false,
      "stateMutability": "nonpayable",
      "type": "function"
    },
    {
      "constant": false,
      "inputs": [
        {
          "internalType": "address",
          "name": "_of",
          "type": "address"
        },
        {
          "internalType": "uint256",
          "name": "amount",
          "type": "uint256"
        }
      ],
      "name": "burnFrom",
      "outputs": [
        {
          "internalType": "bool",
          "name": "",
          "type": "bool"
        }
      ],
      "payable": false,
      "stateMutability": "nonpayable",
      "type": "function"
    },
    {
      "constant": false,
      "inputs": [
        {
          "internalType": "address",
          "name": "_of",
          "type": "address"
        },
        {
          "internalType": "bytes32",
          "name": "_reason",
          "type": "bytes32"
        },
        {
          "internalType": "uint256",
          "name": "_amount",
          "type": "uint256"
        }
      ],
      "name": "burnLockedTokens",
      "outputs": [],
      "payable": false,
      "stateMutability": "nonpayable",
      "type": "function"
    },
    {
      "constant": false,
      "inputs": [],
      "name": "changeDependentContractAddress",
      "outputs": [],
      "payable": false,
      "stateMutability": "nonpayable",
      "type": "function"
    },
    {
      "constant": false,
      "inputs": [
        {
          "internalType": "address",
          "name": "_masterAddress",
          "type": "address"
        }
      ],
      "name": "changeMasterAddress",
      "outputs": [],
      "payable": false,
      "stateMutability": "nonpayable",
      "type": "function"
    },
    {
      "constant": false,
      "inputs": [
        {
          "internalType": "address",
          "name": "_newOperator",
          "type": "address"
        }
      ],
      "name": "changeOperator",
      "outputs": [],
      "payable": false,
      "stateMutability": "nonpayable",
      "type": "function"
    },
    {
      "constant": false,
      "inputs": [
        {
          "internalType": "bytes32",
          "name": "_reason",
          "type": "bytes32"
        },
        {
          "internalType": "uint256",
          "name": "_time",
          "type": "uint256"
        }
      ],
      "name": "extendLock",
      "outputs": [
        {
          "internalType": "bool",
          "name": "",
          "type": "bool"
        }
      ],
      "payable": false,
      "stateMutability": "nonpayable",
      "type": "function"
    },
    {
      "constant": false,
      "inputs": [
        {
          "internalType": "address",
          "name": "_of",
          "type": "address"
        },
        {
          "internalType": "bytes32",
          "name": "_reason",
          "type": "bytes32"
        },
        {
          "internalType": "uint256",
          "name": "_time",
          "type": "uint256"
        }
      ],
      "name": "extendLockOf",
      "outputs": [
        {
          "internalType": "bool",
          "name": "",
          "type": "bool"
        }
      ],
      "payable": false,
      "stateMutability": "nonpayable",
      "type": "function"
    },
    {
      "constant": true,
      "inputs": [
        {
          "internalType": "address",
          "name": "_of",
          "type": "address"
        },
        {
          "internalType": "bytes32",
          "name": "reason",
          "type": "bytes32"
        }
      ],
      "name": "getLockedTokensValidity",
      "outputs": [
        {
          "internalType": "uint256",
          "name": "validity",
          "type": "uint256"
        }
      ],
      "payable": false,
      "stateMutability": "view",
      "type": "function"
    },
    {
      "constant": true,
      "inputs": [
        {
          "internalType": "address",
          "name": "_of",
          "type": "address"
        }
      ],
      "name": "getUnlockableTokens",
      "outputs": [
        {
          "internalType": "uint256",
          "name": "unlockableTokens",
          "type": "uint256"
        }
      ],
      "payable": false,
      "stateMutability": "view",
      "type": "function"
    },
    {
      "constant": false,
      "inputs": [
        {
          "internalType": "bytes32",
          "name": "_reason",
          "type": "bytes32"
        },
        {
          "internalType": "uint256",
          "name": "_amount",
          "type": "uint256"
        }
      ],
      "name": "increaseLockAmount",
      "outputs": [
        {
          "internalType": "bool",
          "name": "",
          "type": "bool"
        }
      ],
      "payable": false,
      "stateMutability": "nonpayable",
      "type": "function"
    },
    {
      "constant": false,
      "inputs": [
        {
          "internalType": "address",
          "name": "_masterAddress",
          "type": "address"
        },
        {
          "internalType": "address",
          "name": "_tokenAddress",
          "type": "address"
        },
        {
          "internalType": "address",
          "name": "_pooledStakingAddress",
          "type": "address"
        },
        {
          "internalType": "uint256",
          "name": "_claimsAssessmentLockTime",
          "type": "uint256"
        }
      ],
      "name": "initialize",
      "outputs": [],
      "payable": false,
      "stateMutability": "nonpayable",
      "type": "function"
    },
    {
      "constant": false,
      "inputs": [
        {
          "internalType": "bytes32",
          "name": "_reason",
          "type": "bytes32"
        },
        {
          "internalType": "uint256",
          "name": "_amount",
          "type": "uint256"
        },
        {
          "internalType": "uint256",
          "name": "_time",
          "type": "uint256"
        }
      ],
      "name": "lock",
      "outputs": [
        {
          "internalType": "bool",
          "name": "",
          "type": "bool"
        }
      ],
      "payable": false,
      "stateMutability": "nonpayable",
      "type": "function"
    },
    {
      "constant": false,
      "inputs": [
        {
          "internalType": "address",
          "name": "_of",
          "type": "address"
        },
        {
          "internalType": "uint256",
          "name": "_days",
          "type": "uint256"
        }
      ],
      "name": "lockForMemberVote",
      "outputs": [],
      "payable": false,
      "stateMutability": "nonpayable",
      "type": "function"
    },
    {
      "constant": false,
      "inputs": [
        {
          "internalType": "address",
          "name": "_of",
          "type": "address"
        },
        {
          "internalType": "bytes32",
          "name": "_reason",
          "type": "bytes32"
        },
        {
          "internalType": "uint256",
          "name": "_amount",
          "type": "uint256"
        },
        {
          "internalType": "uint256",
          "name": "_time",
          "type": "uint256"
        }
      ],
      "name": "lockOf",
      "outputs": [
        {
          "internalType": "bool",
          "name": "",
          "type": "bool"
        }
      ],
      "payable": false,
      "stateMutability": "nonpayable",
      "type": "function"
    },
    {
      "constant": true,
      "inputs": [
        {
          "internalType": "address",
          "name": "",
          "type": "address"
        },
        {
          "internalType": "uint256",
          "name": "",
          "type": "uint256"
        }
      ],
      "name": "lockReason",
      "outputs": [
        {
          "internalType": "bytes32",
          "name": "",
          "type": "bytes32"
        }
      ],
      "payable": false,
      "stateMutability": "view",
      "type": "function"
    },
    {
      "constant": true,
      "inputs": [
        {
          "internalType": "address",
          "name": "",
          "type": "address"
        },
        {
          "internalType": "bytes32",
          "name": "",
          "type": "bytes32"
        }
      ],
      "name": "locked",
      "outputs": [
        {
          "internalType": "uint256",
          "name": "amount",
          "type": "uint256"
        },
        {
          "internalType": "uint256",
          "name": "validity",
          "type": "uint256"
        },
        {
          "internalType": "bool",
          "name": "claimed",
          "type": "bool"
        }
      ],
      "payable": false,
      "stateMutability": "view",
      "type": "function"
    },
    {
      "constant": true,
      "inputs": [],
      "name": "minCALockTime",
      "outputs": [
        {
          "internalType": "uint256",
          "name": "",
          "type": "uint256"
        }
      ],
      "payable": false,
      "stateMutability": "view",
      "type": "function"
    },
    {
      "constant": false,
      "inputs": [
        {
          "internalType": "address",
          "name": "_member",
          "type": "address"
        },
        {
          "internalType": "uint256",
          "name": "_amount",
          "type": "uint256"
        }
      ],
      "name": "mint",
      "outputs": [],
      "payable": false,
      "stateMutability": "nonpayable",
      "type": "function"
    },
    {
      "constant": true,
      "inputs": [],
      "name": "ms",
      "outputs": [
        {
          "internalType": "contract INXMMaster",
          "name": "",
          "type": "address"
        }
      ],
      "payable": false,
      "stateMutability": "view",
      "type": "function"
    },
    {
      "constant": true,
      "inputs": [],
      "name": "nxMasterAddress",
      "outputs": [
        {
          "internalType": "address",
          "name": "",
          "type": "address"
        }
      ],
      "payable": false,
      "stateMutability": "view",
      "type": "function"
    },
    {
      "constant": false,
      "inputs": [
        {
          "internalType": "address",
          "name": "_from",
          "type": "address"
        },
        {
          "internalType": "address",
          "name": "_to",
          "type": "address"
        },
        {
          "internalType": "uint256",
          "name": "_value",
          "type": "uint256"
        }
      ],
      "name": "operatorTransfer",
      "outputs": [
        {
          "internalType": "bool",
          "name": "",
          "type": "bool"
        }
      ],
      "payable": false,
      "stateMutability": "nonpayable",
      "type": "function"
    },
    {
      "constant": true,
      "inputs": [],
      "name": "pooledStaking",
      "outputs": [
        {
          "internalType": "contract IPooledStaking",
          "name": "",
          "type": "address"
        }
      ],
      "payable": false,
      "stateMutability": "view",
      "type": "function"
    },
    {
      "constant": false,
      "inputs": [
        {
          "internalType": "address",
          "name": "_of",
          "type": "address"
        },
        {
          "internalType": "bytes32",
          "name": "_reason",
          "type": "bytes32"
        },
        {
          "internalType": "uint256",
          "name": "_time",
          "type": "uint256"
        }
      ],
      "name": "reduceLock",
      "outputs": [],
      "payable": false,
      "stateMutability": "nonpayable",
      "type": "function"
    },
    {
      "constant": false,
      "inputs": [
        {
          "internalType": "address",
          "name": "_of",
          "type": "address"
        },
        {
          "internalType": "bytes32",
          "name": "_reason",
          "type": "bytes32"
        },
        {
          "internalType": "uint256",
          "name": "_amount",
          "type": "uint256"
        }
      ],
      "name": "releaseLockedTokens",
      "outputs": [],
      "payable": false,
      "stateMutability": "nonpayable",
      "type": "function"
    },
    {
      "constant": false,
      "inputs": [
        {
          "internalType": "address",
          "name": "_member",
          "type": "address"
        }
      ],
      "name": "removeFromWhitelist",
      "outputs": [],
      "payable": false,
      "stateMutability": "nonpayable",
      "type": "function"
    },
    {
      "constant": true,
      "inputs": [],
      "name": "token",
      "outputs": [
        {
          "internalType": "contract NXMToken",
          "name": "",
          "type": "address"
        }
      ],
      "payable": false,
      "stateMutability": "view",
      "type": "function"
    },
    {
      "constant": true,
      "inputs": [
        {
          "internalType": "address",
          "name": "_of",
          "type": "address"
        },
        {
          "internalType": "bytes32",
          "name": "_reason",
          "type": "bytes32"
        }
      ],
      "name": "tokensLocked",
      "outputs": [
        {
          "internalType": "uint256",
          "name": "amount",
          "type": "uint256"
        }
      ],
      "payable": false,
      "stateMutability": "view",
      "type": "function"
    },
    {
      "constant": true,
      "inputs": [
        {
          "internalType": "address",
          "name": "_of",
          "type": "address"
        },
        {
          "internalType": "bytes32",
          "name": "_reason",
          "type": "bytes32"
        },
        {
          "internalType": "uint256",
          "name": "_time",
          "type": "uint256"
        }
      ],
      "name": "tokensLockedAtTime",
      "outputs": [
        {
          "internalType": "uint256",
          "name": "amount",
          "type": "uint256"
        }
      ],
      "payable": false,
      "stateMutability": "view",
      "type": "function"
    },
    {
      "constant": true,
      "inputs": [
        {
          "internalType": "address",
          "name": "_of",
          "type": "address"
        },
        {
          "internalType": "bytes32",
          "name": "_reason",
          "type": "bytes32"
        }
      ],
      "name": "tokensUnlockable",
      "outputs": [
        {
          "internalType": "uint256",
          "name": "amount",
          "type": "uint256"
        }
      ],
      "payable": false,
      "stateMutability": "view",
      "type": "function"
    },
    {
      "constant": true,
      "inputs": [
        {
          "internalType": "address",
          "name": "_of",
          "type": "address"
        }
      ],
      "name": "totalBalanceOf",
      "outputs": [
        {
          "internalType": "uint256",
          "name": "amount",
          "type": "uint256"
        }
      ],
      "payable": false,
      "stateMutability": "view",
      "type": "function"
    },
    {
      "constant": true,
      "inputs": [
        {
          "internalType": "address",
          "name": "_of",
          "type": "address"
        },
        {
          "internalType": "uint256",
          "name": "_time",
          "type": "uint256"
        }
      ],
      "name": "totalLockedBalance",
      "outputs": [
        {
          "internalType": "uint256",
          "name": "amount",
          "type": "uint256"
        }
      ],
      "payable": false,
      "stateMutability": "view",
      "type": "function"
    },
    {
      "constant": true,
      "inputs": [],
      "name": "totalSupply",
      "outputs": [
        {
          "internalType": "uint256",
          "name": "",
          "type": "uint256"
        }
      ],
      "payable": false,
      "stateMutability": "view",
      "type": "function"
    },
    {
      "constant": false,
      "inputs": [
        {
          "internalType": "address",
          "name": "_of",
          "type": "address"
        }
      ],
      "name": "unlock",
      "outputs": [
        {
          "internalType": "uint256",
          "name": "unlockableTokens",
          "type": "uint256"
        }
      ],
      "payable": false,
      "stateMutability": "nonpayable",
      "type": "function"
    },
    {
      "constant": false,
      "inputs": [
        {
          "internalType": "bytes8",
          "name": "code",
          "type": "bytes8"
        },
        {
          "internalType": "uint256",
          "name": "val",
          "type": "uint256"
        }
      ],
      "name": "updateUintParameters",
      "outputs": [],
      "payable": false,
      "stateMutability": "nonpayable",
      "type": "function"
    }
  ],
  "bytecode": "0x60806040526200002262015180601e6200003960201b6200283a1790919060201c565b6006553480156200003257600080fd5b50620000a0565b6000826200004a575060006200009a565b828202828482816200005857fe5b0414620000975760405162461bcd60e51b815260040180806020018281038252602181526020018062002be06021913960400191505060405180910390fd5b90505b92915050565b612b3080620000b06000396000f3fe608060405234801561001057600080fd5b50600436106102115760003560e01c806371d66f0011610125578063ab4a2eb3116100ad578063d71be8db1161007c578063d71be8db146106ce578063e43252d71461071a578063f17a3bec14610740578063fa64f8c114610748578063fc0c546a1461078057610211565b8063ab4a2eb31461063e578063ceed948d14610664578063cf756fdf1461066c578063d46655f4146106a857610211565b806381fc4d90116100f457806381fc4d901461059d5780638ab1d681146105c05780639dd86e0f146105e6578063a0b2d57f14610613578063a9dab1671461061b57610211565b806371d66f00146104e157806379cc67901461050d5780637aef5b731461053957806380c7561a1461056b57610211565b80632c69d416116101a857806340c10f191161017757806340c10f191461040b5780634b0ee02a146104375780634c47e71d1461045d5780635294d0e8146104895780635ca48d8c146104b557610211565b80632c69d4161461035e5780632e82aaf2146103905780632f6c493c146103b957806339081b92146103df57610211565b8063133663f9116101e4578063133663f9146102ce578063179e91f1146102f257806318160ddd146103245780631fea558f1461032c57610211565b806306394c9b1461021657806308f802cc1461023e5780630d1af1031461027c5780630ea9c984146102c6575b600080fd5b61023c6004803603602081101561022c57600080fd5b50356001600160a01b0316610788565b005b61026a6004803603604081101561025457600080fd5b506001600160a01b03813516906020013561088a565b60408051918252519081900360200190f35b6102b26004803603606081101561029257600080fd5b506001600160a01b038135811691602081013590911690604001356108b4565b604080519115158252519081900360200190f35b61023c610b36565b6102d6610c60565b604080516001600160a01b039092168252519081900360200190f35b61026a6004803603606081101561030857600080fd5b506001600160a01b038135169060208101359060400135610c6f565b61026a610c84565b61023c6004803603606081101561034257600080fd5b506001600160a01b038135169060208101359060400135610d05565b6102b26004803603606081101561037457600080fd5b506001600160a01b038135169060208101359060400135610d90565b6102b2600480360360608110156103a657600080fd5b5080359060208101359060400135610e1b565b61026a600480360360208110156103cf57600080fd5b50356001600160a01b0316610f51565b61026a600480360360408110156103f557600080fd5b506001600160a01b0381351690602001356110d8565b61023c6004803603604081101561042157600080fd5b506001600160a01b0381351690602001356111e6565b61026a6004803603602081101561044d57600080fd5b50356001600160a01b03166112db565b61023c6004803603604081101561047357600080fd5b506001600160a01b0381351690602001356114ee565b61026a6004803603604081101561049f57600080fd5b506001600160a01b0381351690602001356115c7565b61026a600480360360408110156104cb57600080fd5b506001600160a01b0381351690602001356115d9565b61026a600480360360408110156104f757600080fd5b506001600160a01b0381351690602001356115e5565b6102b26004803603604081101561052357600080fd5b506001600160a01b038135169060200135611613565b61023c6004803603606081101561054f57600080fd5b506001600160a01b038135169060208101359060400135611720565b61023c6004803603606081101561058157600080fd5b506001600160a01b0381351690602081013590604001356117ab565b6102b2600480360360408110156105b357600080fd5b5080359060200135611836565b61023c600480360360208110156105d657600080fd5b50356001600160a01b0316611a2b565b61023c600480360360408110156105fc57600080fd5b506001600160c01b03198135169060200135611afd565b6102d6611bf8565b6102b26004803603604081101561063157600080fd5b5080359060200135611c07565b61026a6004803603602081101561065457600080fd5b50356001600160a01b0316611cee565b61026a611d68565b61023c6004803603608081101561068257600080fd5b506001600160a01b03813581169160208101358216916040820135169060600135611d6e565b61023c600480360360208110156106be57600080fd5b50356001600160a01b0316611e2d565b6106fa600480360360408110156106e457600080fd5b506001600160a01b038135169060200135611eb6565b604080519384526020840192909252151582820152519081900360600190f35b61023c6004803603602081101561073057600080fd5b50356001600160a01b0316611ee1565b6102d6611fb4565b6102b26004803603608081101561075e57600080fd5b506001600160a01b038135169060208101359060408101359060600135611fc3565b6102d661205a565b600254604080516323c5b10760e21b815233600482015290516001600160a01b0390921691638f16c41c91602480820192602092909190829003018186803b1580156107d357600080fd5b505afa1580156107e7573d6000803e3d6000fd5b505050506040513d60208110156107fd57600080fd5b505161080857600080fd5b60048054604080516306394c9b60e01b81526001600160a01b0385811694820194909452905192909116916306394c9b916024808201926020929091908290030181600087803b15801561085b57600080fd5b505af115801561086f573d6000803e3d6000fd5b505050506040513d602081101561088557600080fd5b505050565b6001600160a01b039091166000908152600160208181526040808420948452939052919020015490565b600254604080516323c5b10760e21b815233600482015290516000926001600160a01b031691638f16c41c916024808301926020929190829003018186803b1580156108ff57600080fd5b505afa158015610913573d6000803e3d6000fd5b505050506040513d602081101561092957600080fd5b505161093457600080fd5b6005546001600160a01b0316331461097d5760405162461bcd60e51b815260040180806020018281038252602f815260200180612acd602f913960400191505060405180910390fd5b600480546040805163b0e65d0760e01b81526001600160a01b0388811694820194909452602481018690529051929091169163b0e65d07916044808201926020929091908290030181600087803b1580156109d757600080fd5b505af11580156109eb573d6000803e3d6000fd5b505050506040513d6020811015610a0157600080fd5b5051610a54576040805162461bcd60e51b815260206004820152601860248201527f4f70657261746f72207472616e73666572206661696c65640000000000000000604482015290519081900360640190fd5b600480546040805163a9059cbb60e01b81526001600160a01b0387811694820194909452602481018690529051929091169163a9059cbb916044808201926020929091908290030181600087803b158015610aae57600080fd5b505af1158015610ac2573d6000803e3d6000fd5b505050506040513d6020811015610ad857600080fd5b5051610b2b576040805162461bcd60e51b815260206004820152601860248201527f496e7465726e616c207472616e73666572206661696c65640000000000000000604482015290519081900360640190fd5b5060015b9392505050565b600260009054906101000a90046001600160a01b03166001600160a01b0316639d76ea586040518163ffffffff1660e01b815260040160206040518083038186803b158015610b8457600080fd5b505afa158015610b98573d6000803e3d6000fd5b505050506040513d6020811015610bae57600080fd5b5051600480546001600160a01b0319166001600160a01b03928316178155600254604080516227050b60e31b815261505360f01b9381019390935251921691630138285891602480820192602092909190829003018186803b158015610c1357600080fd5b505afa158015610c27573d6000803e3d6000fd5b505050506040513d6020811015610c3d57600080fd5b5051600580546001600160a01b0319166001600160a01b03909216919091179055565b6005546001600160a01b031681565b6000610c7c848484612069565b949350505050565b6000600460009054906101000a90046001600160a01b03166001600160a01b03166318160ddd6040518163ffffffff1660e01b815260040160206040518083038186803b158015610cd457600080fd5b505afa158015610ce8573d6000803e3d6000fd5b505050506040513d6020811015610cfe57600080fd5b5051905090565b600254604080516323c5b10760e21b815233600482015290516001600160a01b0390921691638f16c41c91602480820192602092909190829003018186803b158015610d5057600080fd5b505afa158015610d64573d6000803e3d6000fd5b505050506040513d6020811015610d7a57600080fd5b5051610d8557600080fd5b6108858383836120bf565b600254604080516323c5b10760e21b815233600482015290516000926001600160a01b031691638f16c41c916024808301926020929190829003018186803b158015610ddb57600080fd5b505afa158015610def573d6000803e3d6000fd5b505050506040513d6020811015610e0557600080fd5b5051610e1057600080fd5b610b2b8484846121bb565b60025460408051600162f6c75960e01b0319815290516000926001600160a01b03169163ff0938a7916004808301926020929190829003018186803b158015610e6357600080fd5b505afa158015610e77573d6000803e3d6000fd5b505050506040513d6020811015610e8d57600080fd5b505115610e9957600080fd5b62434c4160e81b8414610eee576040805162461bcd60e51b81526020600482015260186024820152775265737472696374656420746f20726561736f6e20434c4160401b604482015290519081900360640190fd5b816006541115610f45576040805162461bcd60e51b815260206004820152601c60248201527f53686f756c64206c6f636b20666f72206d696e696d756d2074696d6500000000604482015290519081900360640190fd5b610b2b3385858561224d565b60025460408051600162f6c75960e01b0319815290516000926001600160a01b03169163ff0938a7916004808301926020929190829003018186803b158015610f9957600080fd5b505afa158015610fad573d6000803e3d6000fd5b505050506040513d6020811015610fc357600080fd5b505115610fcf57600080fd5b610fdf8262434c4160e81b612400565b905080156110d3576001600160a01b038216600081815260016020818152604080842062434c4160e81b80865290835293819020600201805460ff191690931790925581518581529151929392600080516020612aad8339815191529281900390910190a3600480546040805163a9059cbb60e01b81526001600160a01b0386811694820194909452602481018590529051929091169163a9059cbb916044808201926020929091908290030181600087803b15801561109e57600080fd5b505af11580156110b2573d6000803e3d6000fd5b505050506040513d60208110156110c857600080fd5b50516110d357600080fd5b919050565b6000805b6001600160a01b03841660009081526020819052604090205481101561115a5761115061114385600080886001600160a01b03166001600160a01b03168152602001908152602001600020848154811061113257fe5b906000526020600020015486612069565b839063ffffffff61248916565b91506001016110dc565b50600554604080516339ac5eb960e01b81526001600160a01b0386811660048301529151610b2f9392909216916339ac5eb991602480820192602092909190829003018186803b1580156111ad57600080fd5b505afa1580156111c1573d6000803e3d6000fd5b505050506040513d60208110156111d757600080fd5b5051829063ffffffff61248916565b600254604080516323c5b10760e21b815233600482015290516001600160a01b0390921691638f16c41c91602480820192602092909190829003018186803b15801561123157600080fd5b505afa158015611245573d6000803e3d6000fd5b505050506040513d602081101561125b57600080fd5b505161126657600080fd5b60048054604080516340c10f1960e01b81526001600160a01b038681169482019490945260248101859052905192909116916340c10f199160448082019260009290919082900301818387803b1580156112bf57600080fd5b505af11580156112d3573d6000803e3d6000fd5b505050505050565b60048054604080516370a0823160e01b81526001600160a01b03858116948201949094529051600093909216916370a0823191602480820192602092909190829003018186803b15801561132e57600080fd5b505afa158015611342573d6000803e3d6000fd5b505050506040513d602081101561135857600080fd5b5051905060005b6001600160a01b0383166000908152602081905260409020548110156113cf576113c561114384600080876001600160a01b03166001600160a01b0316815260200190815260200160002084815481106113b557fe5b90600052602060002001546124e3565b915060010161135f565b5060055460408051630ea474c760e01b81526001600160a01b03858116600483015291516000939290921691630ea474c791602480820192602092909190829003018186803b15801561142157600080fd5b505afa158015611435573d6000803e3d6000fd5b505050506040513d602081101561144b57600080fd5b5051600554604080516339ac5eb960e01b81526001600160a01b038781166004830152915193945060009391909216916339ac5eb9916024808301926020929190829003018186803b1580156114a057600080fd5b505afa1580156114b4573d6000803e3d6000fd5b505050506040513d60208110156114ca57600080fd5b50519050610c7c826114e2858463ffffffff61248916565b9063ffffffff61248916565b600254604080516323c5b10760e21b815233600482015290516001600160a01b0390921691638f16c41c91602480820192602092909190829003018186803b15801561153957600080fd5b505afa15801561154d573d6000803e3d6000fd5b505050506040513d602081101561156357600080fd5b505161156e57600080fd5b6004805460408051634c47e71d60e01b81526001600160a01b03868116948201949094526024810185905290519290911691634c47e71d9160448082019260009290919082900301818387803b1580156112bf57600080fd5b6000610b2f8383612400565b92915050565b6000610b2f83836124e3565b600060205281600052604060002081815481106115fe57fe5b90600052602060002001600091509150505481565b600254604080516323c5b10760e21b815233600482015290516000926001600160a01b031691638f16c41c916024808301926020929190829003018186803b15801561165e57600080fd5b505afa158015611672573d6000803e3d6000fd5b505050506040513d602081101561168857600080fd5b505161169357600080fd5b600480546040805163079cc67960e41b81526001600160a01b038781169482019490945260248101869052905192909116916379cc6790916044808201926020929091908290030181600087803b1580156116ed57600080fd5b505af1158015611701573d6000803e3d6000fd5b505050506040513d602081101561171757600080fd5b50519392505050565b600254604080516323c5b10760e21b815233600482015290516001600160a01b0390921691638f16c41c91602480820192602092909190829003018186803b15801561176b57600080fd5b505afa15801561177f573d6000803e3d6000fd5b505050506040513d602081101561179557600080fd5b50516117a057600080fd5b61088583838361253a565b600254604080516323c5b10760e21b815233600482015290516001600160a01b0390921691638f16c41c91602480820192602092909190829003018186803b1580156117f657600080fd5b505afa15801561180a573d6000803e3d6000fd5b505050506040513d602081101561182057600080fd5b505161182b57600080fd5b6108858383836126b9565b60025460408051600162f6c75960e01b0319815290516000926001600160a01b03169163ff0938a7916004808301926020929190829003018186803b15801561187e57600080fd5b505afa158015611892573d6000803e3d6000fd5b505050506040513d60208110156118a857600080fd5b5051156118b457600080fd5b62434c4160e81b8314611909576040805162461bcd60e51b81526020600482015260186024820152775265737472696374656420746f20726561736f6e20434c4160401b604482015290519081900360640190fd5b600061191533856124e3565b1161191f57600080fd5b600480546040805163b0e65d0760e01b8152339381019390935260248301859052516001600160a01b039091169163b0e65d079160448083019260209291908290030181600087803b15801561197457600080fd5b505af1158015611988573d6000803e3d6000fd5b505050506040513d602081101561199e57600080fd5b50503360009081526001602090815260408083208684529091529020546119cb908363ffffffff61248916565b336000818152600160208181526040808420898552825292839020948555930154815186815293840152805186937fea90ef40963535482537f0689e05cb8d259e459ebd21530e826702294d0eafdd92908290030190a350600192915050565b600254604080516323c5b10760e21b815233600482015290516001600160a01b0390921691638f16c41c91602480820192602092909190829003018186803b158015611a7657600080fd5b505afa158015611a8a573d6000803e3d6000fd5b505050506040513d6020811015611aa057600080fd5b5051611aab57600080fd5b60048054604080516237ecc960e31b81526001600160a01b0385811694820194909452905192909116916301bf6648916024808201926020929091908290030181600087803b15801561085b57600080fd5b60025460408051632c1a733d60e11b815233600482015290516001600160a01b0390921691635834e67a91602480820192602092909190829003018186803b158015611b4857600080fd5b505afa158015611b5c573d6000803e3d6000fd5b505050506040513d6020811015611b7257600080fd5b5051611b7d57600080fd5b64135390d31560da1b6001600160c01b031983161415611bb257611baa816201518063ffffffff61283a16565b600655611bf4565b6040805162461bcd60e51b8152602060048201526012602482015271496e76616c696420706172616d20636f646560701b604482015290519081900360640190fd5b5050565b6002546001600160a01b031681565b60025460408051600162f6c75960e01b0319815290516000926001600160a01b03169163ff0938a7916004808301926020929190829003018186803b158015611c4f57600080fd5b505afa158015611c63573d6000803e3d6000fd5b505050506040513d6020811015611c7957600080fd5b505115611c8557600080fd5b62434c4160e81b8314611cda576040805162461bcd60e51b81526020600482015260186024820152775265737472696374656420746f20726561736f6e20434c4160401b604482015290519081900360640190fd5b611ce53384846121bb565b50600192915050565b6000805b6001600160a01b038316600090815260208190526040902054811015611d6257611d5861114384600080876001600160a01b03166001600160a01b031681526020019081526020016000208481548110611d4857fe5b9060005260206000200154612400565b9150600101611cf2565b50919050565b60065481565b600480546001600160a01b0319166001600160a01b0385811691909117808355604080516306394c9b60e01b81523094810194909452519116916306394c9b9160248083019260209291908290030181600087803b158015611dcf57600080fd5b505af1158015611de3573d6000803e3d6000fd5b505050506040513d6020811015611df957600080fd5b50611e05905084611e2d565b600580546001600160a01b0319166001600160a01b0393909316929092179091556006555050565b6002546001600160a01b031615611e8a576002546001600160a01b03163314611e8a576040805162461bcd60e51b815260206004820152600a6024820152692737ba1036b0b9ba32b960b11b604482015290519081900360640190fd5b600280546001600160a01b039092166001600160a01b0319928316811790915560038054909216179055565b6001602081815260009384526040808520909152918352912080549181015460029091015460ff1683565b600254604080516323c5b10760e21b815233600482015290516001600160a01b0390921691638f16c41c91602480820192602092909190829003018186803b158015611f2c57600080fd5b505afa158015611f40573d6000803e3d6000fd5b505050506040513d6020811015611f5657600080fd5b5051611f6157600080fd5b60048054604080516311fb80e560e21b81526001600160a01b0385811694820194909452905192909116916347ee0394916024808201926020929091908290030181600087803b15801561085b57600080fd5b6003546001600160a01b031681565b600254604080516323c5b10760e21b815233600482015290516000926001600160a01b031691638f16c41c916024808301926020929190829003018186803b15801561200e57600080fd5b505afa158015612022573d6000803e3d6000fd5b505050506040513d602081101561203857600080fd5b505161204357600080fd5b61204f8585858561224d565b506001949350505050565b6004546001600160a01b031681565b6001600160a01b038316600090815260016020818152604080842086855290915282200154821015610b2f5750506001600160a01b03919091166000908152600160209081526040808320938352929052205490565b60006120cb84846124e3565b116120d557600080fd5b6001600160a01b03831660008181526001602090815260408083208684528252918290205482519081529151859392600080516020612aad83398151915292908290030190a36001600160a01b03831660009081526001602081815260408084208685529091529091200154612151908263ffffffff61289316565b6001600160a01b03841660008181526001602081815260408084208885528252928390209182018590559054825190815290810193909352805185937fea90ef40963535482537f0689e05cb8d259e459ebd21530e826702294d0eafdd92908290030190a3505050565b60006121c784846124e3565b116121d157600080fd5b6001600160a01b03831660008181526001602090815260408083208684528252918290205482519081529151859392600080516020612aad83398151915292908290030190a36001600160a01b03831660009081526001602081815260408084208685529091529091200154612151908263ffffffff61248916565b61225784846124e3565b1561226157600080fd5b8161226b57600080fd5b6001600160a01b03841660009081526001602090815260408083208684529091529020546122bd576001600160a01b038416600090815260208181526040822080546001810182559083529120018390555b600480546040805163b0e65d0760e01b81526001600160a01b0388811694820194909452602481018690529051929091169163b0e65d07916044808201926020929091908290030181600087803b15801561231757600080fd5b505af115801561232b573d6000803e3d6000fd5b505050506040513d602081101561234157600080fd5b505161234c57600080fd5b600061235e428363ffffffff61248916565b60408051606081018252858152602080820184815260008385018181526001600160a01b038c1680835260018086528784208d855286529287902095518655925191850191909155516002909301805460ff19169315159390931790925582518781529081018490528251939450879391927fea90ef40963535482537f0689e05cb8d259e459ebd21530e826702294d0eafdd92918290030190a35050505050565b6001600160a01b038216600090815260016020818152604080842085855290915282200154421080159061245b57506001600160a01b038316600090815260016020908152604080832085845290915290206002015460ff16155b156115d357506001600160a01b03919091166000908152600160209081526040808320938352929052205490565b600082820183811015610b2f576040805162461bcd60e51b815260206004820152601b60248201527f536166654d6174683a206164646974696f6e206f766572666c6f770000000000604482015290519081900360640190fd5b6001600160a01b038216600090815260016020908152604080832084845290915281206002015460ff166115d357506001600160a01b03919091166000908152600160209081526040808320938352929052205490565b600061254684846124e3565b90508181101561255557600080fd5b81811415612590576001600160a01b0384166000908152600160208181526040808420878552909152909120600201805460ff191690911790555b6001600160a01b03841660009081526001602090815260408083208684529091529020546125c4908363ffffffff61289316565b6001600160a01b038516600090815260016020908152604080832087845290915290208190556125f8576125f884846128d5565b6004805460408051630852cd8d60e31b8152928301859052516001600160a01b03909116916342966c689160248083019260209291908290030181600087803b15801561264457600080fd5b505af1158015612658573d6000803e3d6000fd5b505050506040513d602081101561266e57600080fd5b5050604080518481526020810184905281516001600160a01b038716927f7298c49d4a02f128c91eac867376070b76cb09e92a8867b22356c6c797cac1b2928290030190a250505050565b60006126c584846124e3565b9050818110156126d457600080fd5b8181141561270f576001600160a01b0384166000908152600160208181526040808420878552909152909120600201805460ff191690911790555b6001600160a01b0384166000908152600160209081526040808320868452909152902054612743908363ffffffff61289316565b6001600160a01b038516600090815260016020908152604080832087845290915290208190556127775761277784846128d5565b600480546040805163a9059cbb60e01b81526001600160a01b0388811694820194909452602481018690529051929091169163a9059cbb916044808201926020929091908290030181600087803b1580156127d157600080fd5b505af11580156127e5573d6000803e3d6000fd5b505050506040513d60208110156127fb57600080fd5b505161280657600080fd5b60408051838152905184916001600160a01b03871691600080516020612aad8339815191529181900360200190a350505050565b600082612849575060006115d3565b8282028284828161285657fe5b0414610b2f5760405162461bcd60e51b8152600401808060200182810382526021815260200180612a8c6021913960400191505060405180910390fd5b6000610b2f83836040518060400160405280601e81526020017f536166654d6174683a207375627472616374696f6e206f766572666c6f7700008152506129f4565b6001600160a01b038216600090815260208190526040812054905b818110156129ee576001600160a01b038416600090815260208190526040902080548491908390811061291f57fe5b906000526020600020015414156129e6576001600160a01b038416600090815260208190526040902061295983600163ffffffff61289316565b8154811061296357fe5b9060005260206000200154600080866001600160a01b03166001600160a01b03168152602001908152602001600020828154811061299d57fe5b60009182526020808320909101929092556001600160a01b038616815290819052604090208054806129cb57fe5b600190038181906000526020600020016000905590556129ee565b6001016128f0565b50505050565b60008184841115612a835760405162461bcd60e51b81526004018080602001828103825283818151815260200191508051906020019080838360005b83811015612a48578181015183820152602001612a30565b50505050905090810190601f168015612a755780820380516001836020036101000a031916815260200191505b509250505060405180910390fd5b50505090039056fe536166654d6174683a206d756c7469706c69636174696f6e206f766572666c6f7711f87fd5adcd05786919b8b868f59a70d78ae4eb6f305c5927f9c5b1659841a443616c6c206973206f6e6c7920616c6c6f7765642066726f6d20506f6f6c65645374616b696e672061646472657373a265627a7a723158208d9c53404f17f5c1e1c340b7b889827a186687aae416e5541e83b5f9ea9584b264736f6c63430005110032536166654d6174683a206d756c7469706c69636174696f6e206f766572666c6f77",
  "linkReferences": {},
  "deployedLinkReferences": {}
}