{
  "_format": "hh-sol-artifact-1",
  "contractName": "MemberRolesMock",
  "sourceName": "contracts/NexusMutual/mocks/MemberRolesMock.sol",
  "abi": [
    {
      "constant": false,
      "inputs": [
        {
          "internalType": "uint256",
          "name": "",
          "type": "uint256"
        },
        {
          "internalType": "uint256",
          "name": "",
          "type": "uint256"
        }
      ],
      "name": "memberAtIndex",
      "outputs": [
        {
          "internalType": "address",
          "name": "",
          "type": "address"
        },
        {
          "internalType": "bool",
          "name": "",
          "type": "bool"
        }
      ],
      "payable": false,
      "stateMutability": "nonpayable",
      "type": "function"
    },
    {
      "constant": false,
      "inputs": [
        {
          "internalType": "uint256",
          "name": "",
          "type": "uint256"
        }
      ],
      "name": "membersLength",
      "outputs": [
        {
          "internalType": "uint256",
          "name": "",
          "type": "uint256"
        }
      ],
      "payable": false,
      "stateMutability": "nonpayable",
      "type": "function"
    }
  ],
  "bytecode": "0x608060405234801561001057600080fd5b50610133806100206000396000f3fe6080604052348015600f57600080fd5b506004361060325760003560e01c80638bed69eb146037578063b53e4679146063575b600080fd5b605160048036036020811015604b57600080fd5b503560a6565b60408051918252519081900360200190f35b608360048036036040811015607757600080fd5b508035906020013560ac565b604080516001600160a01b03909316835290151560208301528051918290030190f35b50600090565b6040805162461bcd60e51b815260206004820152601f60248201527f556e6578706563746564204d656d626572526f6c65734d6f636b2063616c6c006044820152905160009182919081900360640190fdfea265627a7a723158203ad53b611b93232adf5aff1944f5684199f396f18fecf5904475b0676b44035a64736f6c63430005110032",
  "linkReferences": {},
  "deployedLinkReferences": {}
}