{
  "_format": "hh-sol-artifact-1",
  "contractName": "MemberRolesMock",
  "sourceName": "contracts/NexusMutual/mocks/MemberRolesMock.sol",
  "abi": [
    {
      "constant": false,
      "inputs": [
        {
          "internalType": "uint256",
          "name": "",
          "type": "uint256"
        },
        {
          "internalType": "uint256",
          "name": "",
          "type": "uint256"
        }
      ],
      "name": "memberAtIndex",
      "outputs": [
        {
          "internalType": "address",
          "name": "",
          "type": "address"
        },
        {
          "internalType": "bool",
          "name": "",
          "type": "bool"
        }
      ],
      "payable": false,
      "stateMutability": "nonpayable",
      "type": "function"
    },
    {
      "constant": false,
      "inputs": [
        {
          "internalType": "uint256",
          "name": "",
          "type": "uint256"
        }
      ],
      "name": "membersLength",
      "outputs": [
        {
          "internalType": "uint256",
          "name": "",
          "type": "uint256"
        }
      ],
      "payable": false,
      "stateMutability": "nonpayable",
      "type": "function"
    }
  ],
  "bytecode": "0x608060405234801561001057600080fd5b506101b0806100206000396000f3fe608060405234801561001057600080fd5b50600436106100365760003560e01c80638bed69eb1461003b578063b53e46791461007d575b600080fd5b6100676004803603602081101561005157600080fd5b8101908080359060200190929190505050610100565b6040518082815260200191505060405180910390f35b6100b36004803603604081101561009357600080fd5b81019080803590602001909291908035906020019092919050505061010a565b604051808373ffffffffffffffffffffffffffffffffffffffff1673ffffffffffffffffffffffffffffffffffffffff168152602001821515151581526020019250505060405180910390f35b6000809050919050565b6000806040517f08c379a000000000000000000000000000000000000000000000000000000000815260040180806020018281038252601f8152602001807f556e6578706563746564204d656d626572526f6c65734d6f636b2063616c6c0081525060200191505060405180910390fdfea265627a7a723158204923224b0e46c2184c7041408d32fdf269f1e6d409e4a8e972f661d61b4765fd64736f6c63430005110032",
  "linkReferences": {},
  "deployedLinkReferences": {}
}