{
  "_format": "hh-sol-artifact-1",
  "contractName": "Pool2",
  "sourceName": "nexusmutual/contracts/modules/capital/Pool2.sol",
  "abi": [
    {
      "inputs": [
        {
          "internalType": "address",
          "name": "_uniswapFactoryAdd",
          "type": "address"
        }
      ],
      "payable": false,
      "stateMutability": "nonpayable",
      "type": "constructor"
    },
    {
      "anonymous": false,
      "inputs": [
        {
          "indexed": false,
          "internalType": "bytes16",
          "name": "typeOf",
          "type": "bytes16"
        },
        {
          "indexed": false,
          "internalType": "bytes16",
          "name": "functionName",
          "type": "bytes16"
        }
      ],
      "name": "Liquidity",
      "type": "event"
    },
    {
      "anonymous": false,
      "inputs": [
        {
          "indexed": false,
          "internalType": "bytes4",
          "name": "iaCurr",
          "type": "bytes4"
        },
        {
          "indexed": false,
          "internalType": "uint256",
          "name": "tokenAmount",
          "type": "uint256"
        }
      ],
      "name": "Rebalancing",
      "type": "event"
    },
    {
      "payable": true,
      "stateMutability": "payable",
      "type": "fallback"
    },
    {
      "constant": true,
      "inputs": [
        {
          "internalType": "bytes4",
          "name": "_curr",
          "type": "bytes4"
        }
      ],
      "name": "_getCurrencyAssetsBalance",
      "outputs": [
        {
          "internalType": "uint256",
          "name": "caBalance",
          "type": "uint256"
        }
      ],
      "payable": false,
      "stateMutability": "view",
      "type": "function"
    },
    {
      "constant": false,
      "inputs": [],
      "name": "changeDependentContractAddress",
      "outputs": [],
      "payable": false,
      "stateMutability": "nonpayable",
      "type": "function"
    },
    {
      "constant": false,
      "inputs": [
        {
          "internalType": "address",
          "name": "_masterAddress",
          "type": "address"
        }
      ],
      "name": "changeMasterAddress",
      "outputs": [],
      "payable": false,
      "stateMutability": "nonpayable",
      "type": "function"
    },
    {
      "constant": false,
      "inputs": [
        {
          "internalType": "address",
          "name": "newFactoryAddress",
          "type": "address"
        }
      ],
      "name": "changeUniswapFactoryAddress",
      "outputs": [],
      "payable": false,
      "stateMutability": "nonpayable",
      "type": "function"
    },
    {
      "constant": false,
      "inputs": [],
      "name": "externalLiquidityTrade",
      "outputs": [],
      "payable": false,
      "stateMutability": "nonpayable",
      "type": "function"
    },
    {
      "constant": false,
      "inputs": [
        {
          "internalType": "bytes4",
          "name": "curr",
          "type": "bytes4"
        }
      ],
      "name": "internalLiquiditySwap",
      "outputs": [],
      "payable": false,
      "stateMutability": "nonpayable",
      "type": "function"
    },
    {
      "constant": true,
      "inputs": [],
      "name": "ms",
      "outputs": [
        {
          "internalType": "contract INXMMaster",
          "name": "",
          "type": "address"
        }
      ],
      "payable": false,
      "stateMutability": "view",
      "type": "function"
    },
    {
      "constant": true,
      "inputs": [],
      "name": "nxMasterAddress",
      "outputs": [
        {
          "internalType": "address",
          "name": "",
          "type": "address"
        }
      ],
      "payable": false,
      "stateMutability": "view",
      "type": "function"
    },
    {
      "constant": false,
      "inputs": [
        {
          "internalType": "bytes4[]",
          "name": "curr",
          "type": "bytes4[]"
        },
        {
          "internalType": "uint64[]",
          "name": "rate",
          "type": "uint64[]"
        },
        {
          "internalType": "uint64",
          "name": "date",
          "type": "uint64"
        },
        {
          "internalType": "bool",
          "name": "bit",
          "type": "bool"
        }
      ],
      "name": "saveIADetails",
      "outputs": [],
      "payable": false,
      "stateMutability": "nonpayable",
      "type": "function"
    },
    {
      "constant": false,
      "inputs": [],
      "name": "sendEther",
      "outputs": [],
      "payable": true,
      "stateMutability": "payable",
      "type": "function"
    },
    {
      "constant": true,
      "inputs": [],
      "name": "uniswapFactoryAddress",
      "outputs": [
        {
          "internalType": "address",
          "name": "",
          "type": "address"
        }
      ],
      "payable": false,
      "stateMutability": "view",
      "type": "function"
    },
    {
      "constant": false,
      "inputs": [
        {
          "internalType": "address payable",
          "name": "newPoolAddress",
          "type": "address"
        }
      ],
      "name": "upgradeInvestmentPool",
      "outputs": [],
      "payable": false,
      "stateMutability": "nonpayable",
      "type": "function"
    }
  ],
  "bytecode": "0x60806040523480156200001157600080fd5b5060405162008e1e38038062008e1e833981810160405260208110156200003757600080fd5b810190808051906020019092919050505080600660006101000a81548173ffffffffffffffffffffffffffffffffffffffff021916908373ffffffffffffffffffffffffffffffffffffffff16021790555080600560006101000a81548173ffffffffffffffffffffffffffffffffffffffff021916908373ffffffffffffffffffffffffffffffffffffffff16021790555050618d4380620000db6000396000f3fe6080604052600436106100a75760003560e01c806383e4a6741161006457806383e4a674146102c7578063a0b2d57f14610335578063b19ab66d1461038c578063d46655f4146103dd578063f17a3bec1461042e578063f720036c14610485576100a7565b80630e29df22146100a95780630ea9c984146100b35780632d9fa500146100ca5780633655ac3c146101245780634a0d95d61461017b5780636dce9b3d14610276575b005b6100b161049c565b005b3480156100bf57600080fd5b506100c861049e565b005b3480156100d657600080fd5b50610122600480360360208110156100ed57600080fd5b8101908080357bffffffffffffffffffffffffffffffffffffffffffffffffffffffff191690602001909291905050506108a9565b005b34801561013057600080fd5b50610139610bcb565b604051808273ffffffffffffffffffffffffffffffffffffffff1673ffffffffffffffffffffffffffffffffffffffff16815260200191505060405180910390f35b34801561018757600080fd5b506102746004803603608081101561019e57600080fd5b81019080803590602001906401000000008111156101bb57600080fd5b8201836020820111156101cd57600080fd5b803590602001918460208302840111640100000000831117156101ef57600080fd5b90919293919293908035906020019064010000000081111561021057600080fd5b82018360208201111561022257600080fd5b8035906020019184602083028401116401000000008311171561024457600080fd5b9091929391929390803567ffffffffffffffff169060200190929190803515159060200190929190505050610bf1565b005b34801561028257600080fd5b506102c56004803603602081101561029957600080fd5b81019080803573ffffffffffffffffffffffffffffffffffffffff169060200190929190505050611382565b005b3480156102d357600080fd5b5061031f600480360360208110156102ea57600080fd5b8101908080357bffffffffffffffffffffffffffffffffffffffffffffffffffffffff19169060200190929190505050611727565b6040518082815260200191505060405180910390f35b34801561034157600080fd5b5061034a611984565b604051808273ffffffffffffffffffffffffffffffffffffffff1673ffffffffffffffffffffffffffffffffffffffff16815260200191505060405180910390f35b34801561039857600080fd5b506103db600480360360208110156103af57600080fd5b81019080803573ffffffffffffffffffffffffffffffffffffffff1690602001909291905050506119a9565b005b3480156103e957600080fd5b5061042c6004803603602081101561040057600080fd5b81019080803573ffffffffffffffffffffffffffffffffffffffff169060200190929190505050611b32565b005b34801561043a57600080fd5b50610443611cce565b604051808273ffffffffffffffffffffffffffffffffffffffff1673ffffffffffffffffffffffffffffffffffffffff16815260200191505060405180910390f35b34801561049157600080fd5b5061049a611cf4565b005b565b6000809054906101000a900473ffffffffffffffffffffffffffffffffffffffff1673ffffffffffffffffffffffffffffffffffffffff16638f16c41c336040518263ffffffff1660e01b8152600401808273ffffffffffffffffffffffffffffffffffffffff1673ffffffffffffffffffffffffffffffffffffffff16815260200191505060206040518083038186803b15801561053c57600080fd5b505afa158015610550573d6000803e3d6000fd5b505050506040513d602081101561056657600080fd5b810190808051906020019092919050505061058057600080fd5b6000809054906101000a900473ffffffffffffffffffffffffffffffffffffffff1673ffffffffffffffffffffffffffffffffffffffff1663013828586040518163ffffffff1660e01b815260040180807f4d43000000000000000000000000000000000000000000000000000000000000815250602001905060206040518083038186803b15801561061257600080fd5b505afa158015610626573d6000803e3d6000fd5b505050506040513d602081101561063c57600080fd5b8101908080519060200190929190505050600260006101000a81548173ffffffffffffffffffffffffffffffffffffffff021916908373ffffffffffffffffffffffffffffffffffffffff1602179055506000809054906101000a900473ffffffffffffffffffffffffffffffffffffffff1673ffffffffffffffffffffffffffffffffffffffff1663013828586040518163ffffffff1660e01b815260040180807f5044000000000000000000000000000000000000000000000000000000000000815250602001905060206040518083038186803b15801561071f57600080fd5b505afa158015610733573d6000803e3d6000fd5b505050506040513d602081101561074957600080fd5b8101908080519060200190929190505050600460006101000a81548173ffffffffffffffffffffffffffffffffffffffff021916908373ffffffffffffffffffffffffffffffffffffffff1602179055506000809054906101000a900473ffffffffffffffffffffffffffffffffffffffff1673ffffffffffffffffffffffffffffffffffffffff1663013828586040518163ffffffff1660e01b815260040180807f5031000000000000000000000000000000000000000000000000000000000000815250602001905060206040518083038186803b15801561082c57600080fd5b505afa158015610840573d6000803e3d6000fd5b505050506040513d602081101561085657600080fd5b8101908080519060200190929190505050600360006101000a81548173ffffffffffffffffffffffffffffffffffffffff021916908373ffffffffffffffffffffffffffffffffffffffff160217905550565b6000809054906101000a900473ffffffffffffffffffffffffffffffffffffffff1673ffffffffffffffffffffffffffffffffffffffff16638f16c41c336040518263ffffffff1660e01b8152600401808273ffffffffffffffffffffffffffffffffffffffff1673ffffffffffffffffffffffffffffffffffffffff16815260200191505060206040518083038186803b15801561094757600080fd5b505afa15801561095b573d6000803e3d6000fd5b505050506040513d602081101561097157600080fd5b810190808051906020019092919050505061098b57600080fd5b600660149054906101000a900460ff1615610a0e576040517f08c379a000000000000000000000000000000000000000000000000000000000815260040180806020018281038252600f8152602001807f5265656e7472616e742063616c6c2e000000000000000000000000000000000081525060200191505060405180910390fd5b6001600660146101000a81548160ff0219169083151502179055506000806000600460009054906101000a900473ffffffffffffffffffffffffffffffffffffffff1673ffffffffffffffffffffffffffffffffffffffff166377449c0b856040518263ffffffff1660e01b815260040180827bffffffffffffffffffffffffffffffffffffffffffffffffffffffff19167bffffffffffffffffffffffffffffffffffffffffffffffffffffffff1916815260200191505060606040518083038186803b158015610adf57600080fd5b505afa158015610af3573d6000803e3d6000fd5b505050506040513d6060811015610b0957600080fd5b810190808051906020019092919080519060200190929190805190602001909291905050509091508092508193505050610b4284611727565b9250610b6a6002610b5c83856123c690919063ffffffff16565b61244e90919063ffffffff16565b831115610b8257610b7d848383866124d4565b610baa565b610b9581836123c690919063ffffffff16565b831015610ba957610ba88483838661287a565b5b5b5050506000600660146101000a81548160ff02191690831515021790555050565b600660009054906101000a900473ffffffffffffffffffffffffffffffffffffffff1681565b600015156000809054906101000a900473ffffffffffffffffffffffffffffffffffffffff1673ffffffffffffffffffffffffffffffffffffffff1663ff0938a76040518163ffffffff1660e01b815260040160206040518083038186803b158015610c5c57600080fd5b505afa158015610c70573d6000803e3d6000fd5b505050506040513d6020811015610c8657600080fd5b8101908080519060200190929190505050151514610ca357600080fd5b600660149054906101000a900460ff1615610d26576040517f08c379a000000000000000000000000000000000000000000000000000000000815260040180806020018281038252600f8152602001807f5265656e7472616e742063616c6c2e000000000000000000000000000000000081525060200191505060405180910390fd5b6001600660146101000a81548160ff021916908315150217905550600080600080600460009054906101000a900473ffffffffffffffffffffffffffffffffffffffff1673ffffffffffffffffffffffffffffffffffffffff166362ae3721336040518263ffffffff1660e01b8152600401808273ffffffffffffffffffffffffffffffffffffffff1673ffffffffffffffffffffffffffffffffffffffff16815260200191505060206040518083038186803b158015610de657600080fd5b505afa158015610dfa573d6000803e3d6000fd5b505050506040513d6020811015610e1057600080fd5b8101908080519060200190929190505050610e2a57600080fd5b610eb68a8a80806020026020016040519081016040528093929190818152602001838360200280828437600081840152601f19601f82011690508083019250505050505050898980806020026020016040519081016040528093929190818152602001838360200280828437600081840152601f19601f82011690508083019250505050505050612e55565b80945081965082955083975050505050600460009054906101000a900473ffffffffffffffffffffffffffffffffffffffff1673ffffffffffffffffffffffffffffffffffffffff166342104aae858486858b6040518663ffffffff1660e01b815260040180867bffffffffffffffffffffffffffffffffffffffffffffffffffffffff19167bffffffffffffffffffffffffffffffffffffffffffffffffffffffff191681526020018567ffffffffffffffff1667ffffffffffffffff168152602001847bffffffffffffffffffffffffffffffffffffffffffffffffffffffff19167bffffffffffffffffffffffffffffffffffffffffffffffffffffffff191681526020018367ffffffffffffffff1667ffffffffffffffff1681526020018267ffffffffffffffff1667ffffffffffffffff16815260200195505050505050600060405180830381600087803b15801561101357600080fd5b505af1158015611027573d6000803e3d6000fd5b50505050600460009054906101000a900473ffffffffffffffffffffffffffffffffffffffff1673ffffffffffffffffffffffffffffffffffffffff1663a5a1c402876040518263ffffffff1660e01b8152600401808267ffffffffffffffff1667ffffffffffffffff168152602001915050600060405180830381600087803b1580156110b457600080fd5b505af11580156110c8573d6000803e3d6000fd5b5050505060008a8a9050905060008090505b8181101561121957600460009054906101000a900473ffffffffffffffffffffffffffffffffffffffff1673ffffffffffffffffffffffffffffffffffffffff16637deb85768d8d8481811061112c57fe5b905060200201357bffffffffffffffffffffffffffffffffffffffffffffffffffffffff19168c8c8581811061115e57fe5b9050602002013567ffffffffffffffff166040518363ffffffff1660e01b815260040180837bffffffffffffffffffffffffffffffffffffffffffffffffffffffff19167bffffffffffffffffffffffffffffffffffffffffffffffffffffffff191681526020018267ffffffffffffffff16815260200192505050600060405180830381600087803b1580156111f457600080fd5b505af1158015611208573d6000803e3d6000fd5b5050505080806001019150506110da565b50851561122b5761122a8584613143565b5b600360009054906101000a900473ffffffffffffffffffffffffffffffffffffffff1673ffffffffffffffffffffffffffffffffffffffff16630a7000f0600460009054906101000a900473ffffffffffffffffffffffffffffffffffffffff1673ffffffffffffffffffffffffffffffffffffffff16634c69d4976040518163ffffffff1660e01b815260040160206040518083038186803b1580156112d157600080fd5b505afa1580156112e5573d6000803e3d6000fd5b505050506040513d60208110156112fb57600080fd5b81019080805190602001909291905050506040518263ffffffff1660e01b815260040180828152602001915050600060405180830381600087803b15801561134257600080fd5b505af1158015611356573d6000803e3d6000fd5b5050505050505050506000600660146101000a81548160ff021916908315150217905550505050505050565b6000809054906101000a900473ffffffffffffffffffffffffffffffffffffffff1673ffffffffffffffffffffffffffffffffffffffff16638f16c41c336040518263ffffffff1660e01b8152600401808273ffffffffffffffffffffffffffffffffffffffff1673ffffffffffffffffffffffffffffffffffffffff16815260200191505060206040518083038186803b15801561142057600080fd5b505afa158015611434573d6000803e3d6000fd5b505050506040513d602081101561144a57600080fd5b810190808051906020019092919050505061146457600080fd5b600660149054906101000a900460ff16156114e7576040517f08c379a000000000000000000000000000000000000000000000000000000000815260040180806020018281038252600f8152602001807f5265656e7472616e742063616c6c2e000000000000000000000000000000000081525060200191505060405180910390fd5b6001600660146101000a81548160ff0219169083151502179055506000600460009054906101000a900473ffffffffffffffffffffffffffffffffffffffff1673ffffffffffffffffffffffffffffffffffffffff16637d03238f6040518163ffffffff1660e01b815260040160206040518083038186803b15801561156c57600080fd5b505afa158015611580573d6000803e3d6000fd5b505050506040513d602081101561159657600080fd5b810190808051906020019092919050505090506000600190505b818167ffffffffffffffff161015611696576000600460009054906101000a900473ffffffffffffffffffffffffffffffffffffffff1673ffffffffffffffffffffffffffffffffffffffff1663dc68e16b836040518263ffffffff1660e01b8152600401808267ffffffffffffffff16815260200191505060206040518083038186803b15801561164157600080fd5b505afa158015611655573d6000803e3d6000fd5b505050506040513d602081101561166b57600080fd5b810190808051906020019092919050505090506116888185613ef5565b5080806001019150506115b0565b5060004711156117085760008290508073ffffffffffffffffffffffffffffffffffffffff16630e29df22476040518263ffffffff1660e01b81526004016000604051808303818588803b1580156116ed57600080fd5b505af1158015611701573d6000803e3d6000fd5b5050505050505b506000600660146101000a81548160ff02191690831515021790555050565b60007f4554480000000000000000000000000000000000000000000000000000000000827bffffffffffffffffffffffffffffffffffffffffffffffffffffffff191614156117b157600360009054906101000a900473ffffffffffffffffffffffffffffffffffffffff1673ffffffffffffffffffffffffffffffffffffffff1631905061197f565b6000600460009054906101000a900473ffffffffffffffffffffffffffffffffffffffff1673ffffffffffffffffffffffffffffffffffffffff1663e3dee239846040518263ffffffff1660e01b815260040180827bffffffffffffffffffffffffffffffffffffffffffffffffffffffff19167bffffffffffffffffffffffffffffffffffffffffffffffffffffffff1916815260200191505060206040518083038186803b15801561186457600080fd5b505afa158015611878573d6000803e3d6000fd5b505050506040513d602081101561188e57600080fd5b810190808051906020019092919050505090508073ffffffffffffffffffffffffffffffffffffffff166370a08231600360009054906101000a900473ffffffffffffffffffffffffffffffffffffffff166040518263ffffffff1660e01b8152600401808273ffffffffffffffffffffffffffffffffffffffff1673ffffffffffffffffffffffffffffffffffffffff16815260200191505060206040518083038186803b15801561194057600080fd5b505afa158015611954573d6000803e3d6000fd5b505050506040513d602081101561196a57600080fd5b81019080805190602001909291905050509150505b919050565b6000809054906101000a900473ffffffffffffffffffffffffffffffffffffffff1681565b6000809054906101000a900473ffffffffffffffffffffffffffffffffffffffff1673ffffffffffffffffffffffffffffffffffffffff16638f16c41c336040518263ffffffff1660e01b8152600401808273ffffffffffffffffffffffffffffffffffffffff1673ffffffffffffffffffffffffffffffffffffffff16815260200191505060206040518083038186803b158015611a4757600080fd5b505afa158015611a5b573d6000803e3d6000fd5b505050506040513d6020811015611a7157600080fd5b8101908080519060200190929190505050611a8b57600080fd5b80600660006101000a81548173ffffffffffffffffffffffffffffffffffffffff021916908373ffffffffffffffffffffffffffffffffffffffff160217905550600660009054906101000a900473ffffffffffffffffffffffffffffffffffffffff16600560006101000a81548173ffffffffffffffffffffffffffffffffffffffff021916908373ffffffffffffffffffffffffffffffffffffffff16021790555050565b600073ffffffffffffffffffffffffffffffffffffffff166000809054906101000a900473ffffffffffffffffffffffffffffffffffffffff1673ffffffffffffffffffffffffffffffffffffffff1614611c4a573373ffffffffffffffffffffffffffffffffffffffff166000809054906101000a900473ffffffffffffffffffffffffffffffffffffffff1673ffffffffffffffffffffffffffffffffffffffff1614611c49576040517f08c379a000000000000000000000000000000000000000000000000000000000815260040180806020018281038252600a8152602001807f4e6f74206d61737465720000000000000000000000000000000000000000000081525060200191505060405180910390fd5b5b806000806101000a81548173ffffffffffffffffffffffffffffffffffffffff021916908373ffffffffffffffffffffffffffffffffffffffff16021790555080600160006101000a81548173ffffffffffffffffffffffffffffffffffffffff021916908373ffffffffffffffffffffffffffffffffffffffff16021790555050565b600160009054906101000a900473ffffffffffffffffffffffffffffffffffffffff1681565b6000809054906101000a900473ffffffffffffffffffffffffffffffffffffffff1673ffffffffffffffffffffffffffffffffffffffff16638f16c41c336040518263ffffffff1660e01b8152600401808273ffffffffffffffffffffffffffffffffffffffff1673ffffffffffffffffffffffffffffffffffffffff16815260200191505060206040518083038186803b158015611d9257600080fd5b505afa158015611da6573d6000803e3d6000fd5b505050506040513d6020811015611dbc57600080fd5b8101908080519060200190929190505050611dd657600080fd5b600080600080600080600080600080600460009054906101000a900473ffffffffffffffffffffffffffffffffffffffff1673ffffffffffffffffffffffffffffffffffffffff16630e412f5c600460009054906101000a900473ffffffffffffffffffffffffffffffffffffffff1673ffffffffffffffffffffffffffffffffffffffff166356571fc36040518163ffffffff1660e01b815260040160206040518083038186803b158015611e8b57600080fd5b505afa158015611e9f573d6000803e3d6000fd5b505050506040513d6020811015611eb557600080fd5b81019080805190602001909291905050506040518263ffffffff1660e01b8152600401808267ffffffffffffffff1667ffffffffffffffff16815260200191505060806040518083038186803b158015611f0e57600080fd5b505afa158015611f22573d6000803e3d6000fd5b505050506040513d6080811015611f3857600080fd5b81019080805190602001909291908051906020019092919080519060200190929190805190602001909291905050508267ffffffffffffffff1692508067ffffffffffffffff169050809850819b50829750839a50505050506000600460009054906101000a900473ffffffffffffffffffffffffffffffffffffffff1673ffffffffffffffffffffffffffffffffffffffff1663255f50496040518163ffffffff1660e01b815260040160206040518083038186803b158015611ffb57600080fd5b505afa15801561200f573d6000803e3d6000fd5b505050506040513d602081101561202557600080fd5b8101908080519060200190929190505050905060008090505b818167ffffffffffffffff1610156123b857600460009054906101000a900473ffffffffffffffffffffffffffffffffffffffff1673ffffffffffffffffffffffffffffffffffffffff16633c40b1f0826040518263ffffffff1660e01b8152600401808267ffffffffffffffff16815260200191505060206040518083038186803b1580156120cd57600080fd5b505afa1580156120e1573d6000803e3d6000fd5b505050506040513d60208110156120f757600080fd5b81019080805190602001909291905050509a50600460009054906101000a900473ffffffffffffffffffffffffffffffffffffffff1673ffffffffffffffffffffffffffffffffffffffff166377449c0b8c6040518263ffffffff1660e01b815260040180827bffffffffffffffffffffffffffffffffffffffffffffffffffffffff19167bffffffffffffffffffffffffffffffffffffffffffffffffffffffff1916815260200191505060606040518083038186803b1580156121bb57600080fd5b505afa1580156121cf573d6000803e3d6000fd5b505050506040513d60608110156121e557600080fd5b81019080805190602001909291908051906020019092919080519060200190929190505050909150809550819650505061221e8b611727565b9250612246600261223886886123c690919063ffffffff16565b61244e90919063ffffffff16565b8311156122ac57612298612289600261227b600361226d898b6123c690919063ffffffff16565b61244e90919063ffffffff16565b61422d90919063ffffffff16565b8461427790919063ffffffff16565b97506122a58b8b8a6142c1565b9b50612322565b6122bf84866123c690919063ffffffff16565b831015612321576123118361230360026122f560036122e78a8c6123c690919063ffffffff16565b61244e90919063ffffffff16565b61422d90919063ffffffff16565b61427790919063ffffffff16565b975061231e8b8a8a615f95565b9b505b5b8b156123ab57600360009054906101000a900473ffffffffffffffffffffffffffffffffffffffff1673ffffffffffffffffffffffffffffffffffffffff16639c1fe9276040518163ffffffff1660e01b8152600401600060405180830381600087803b15801561239257600080fd5b505af11580156123a6573d6000803e3d6000fd5b505050505b808060010191505061203e565b505050505050505050505050565b600080828401905083811015612444576040517f08c379a000000000000000000000000000000000000000000000000000000000815260040180806020018281038252601b8152602001807f536166654d6174683a206164646974696f6e206f766572666c6f77000000000081525060200191505060405180910390fd5b8091505092915050565b60008083141561246157600090506124ce565b600082840290508284828161247257fe5b04146124c9576040517f08c379a0000000000000000000000000000000000000000000000000000000008152600401808060200182810382526021815260200180618cee6021913960400191505060405180910390fd5b809150505b92915050565b6000600460009054906101000a900473ffffffffffffffffffffffffffffffffffffffff1673ffffffffffffffffffffffffffffffffffffffff16630e412f5c600460009054906101000a900473ffffffffffffffffffffffffffffffffffffffff1673ffffffffffffffffffffffffffffffffffffffff166356571fc36040518163ffffffff1660e01b815260040160206040518083038186803b15801561257c57600080fd5b505afa158015612590573d6000803e3d6000fd5b505050506040513d60208110156125a657600080fd5b81019080805190602001909291905050506040518263ffffffff1660e01b8152600401808267ffffffffffffffff1667ffffffffffffffff16815260200191505060806040518083038186803b1580156125ff57600080fd5b505afa158015612613573d6000803e3d6000fd5b505050506040513d608081101561262957600080fd5b8101908080519060200190929190805190602001909291908051906020019092919080519060200190929190505050909192509091505080915050807bffffffffffffffffffffffffffffffffffffffffffffffffffffffff1916857bffffffffffffffffffffffffffffffffffffffffffffffffffffffff191614156127f057600360009054906101000a900473ffffffffffffffffffffffffffffffffffffffff1673ffffffffffffffffffffffffffffffffffffffff16631fac40b486612734612725600261271760036127098b8d6123c690919063ffffffff16565b61244e90919063ffffffff16565b61422d90919063ffffffff16565b8661427790919063ffffffff16565b6040518363ffffffff1660e01b815260040180837bffffffffffffffffffffffffffffffffffffffffffffffffffffffff19167bffffffffffffffffffffffffffffffffffffffffffffffffffffffff1916815260200182815260200192505050602060405180830381600087803b1580156127af57600080fd5b505af11580156127c3573d6000803e3d6000fd5b505050506040513d60208110156127d957600080fd5b810190808051906020019092919050505050612873565b600360009054906101000a900473ffffffffffffffffffffffffffffffffffffffff1673ffffffffffffffffffffffffffffffffffffffff16639c1fe9276040518163ffffffff1660e01b8152600401600060405180830381600087803b15801561285a57600080fd5b505af115801561286e573d6000803e3d6000fd5b505050505b5050505050565b600080600460009054906101000a900473ffffffffffffffffffffffffffffffffffffffff1673ffffffffffffffffffffffffffffffffffffffff16630e412f5c600460009054906101000a900473ffffffffffffffffffffffffffffffffffffffff1673ffffffffffffffffffffffffffffffffffffffff166356571fc36040518163ffffffff1660e01b815260040160206040518083038186803b15801561292357600080fd5b505afa158015612937573d6000803e3d6000fd5b505050506040513d602081101561294d57600080fd5b81019080805190602001909291905050506040518263ffffffff1660e01b8152600401808267ffffffffffffffff1667ffffffffffffffff16815260200191505060806040518083038186803b1580156129a657600080fd5b505afa1580156129ba573d6000803e3d6000fd5b505050506040513d60808110156129d057600080fd5b810190808051906020019092919080519060200190929190805190602001909291908051906020019092919050505090915090505080925050817bffffffffffffffffffffffffffffffffffffffffffffffffffffffff1916867bffffffffffffffffffffffffffffffffffffffffffffffffffffffff19161415612b7857612a9a83612a8c6002612a7e6003612a708a8c6123c690919063ffffffff16565b61244e90919063ffffffff16565b61422d90919063ffffffff16565b61427790919063ffffffff16565b9050612b73866000809054906101000a900473ffffffffffffffffffffffffffffffffffffffff1673ffffffffffffffffffffffffffffffffffffffff1663013828586040518163ffffffff1660e01b815260040180807f5031000000000000000000000000000000000000000000000000000000000000815250602001905060206040518083038186803b158015612b3257600080fd5b505afa158015612b46573d6000803e3d6000fd5b505050506040513d6020811015612b5c57600080fd5b8101908080519060200190929190505050836180a1565b612e4d565b6000600460009054906101000a900473ffffffffffffffffffffffffffffffffffffffff1673ffffffffffffffffffffffffffffffffffffffff16637e2d14d9846040518263ffffffff1660e01b815260040180827bffffffffffffffffffffffffffffffffffffffffffffffffffffffff19167bffffffffffffffffffffffffffffffffffffffffffffffffffffffff1916815260200191505060206040518083038186803b158015612c2b57600080fd5b505afa158015612c3f573d6000803e3d6000fd5b505050506040513d6020811015612c5557600080fd5b810190808051906020019092919050505090507f4554480000000000000000000000000000000000000000000000000000000000837bffffffffffffffffffffffffffffffffffffffffffffffffffffffff1916148015612cb65750600047115b80612dc357507f4554480000000000000000000000000000000000000000000000000000000000837bffffffffffffffffffffffffffffffffffffffffffffffffffffffff191614158015612dc2575060008173ffffffffffffffffffffffffffffffffffffffff166370a08231306040518263ffffffff1660e01b8152600401808273ffffffffffffffffffffffffffffffffffffffff1673ffffffffffffffffffffffffffffffffffffffff16815260200191505060206040518083038186803b158015612d8557600080fd5b505afa158015612d99573d6000803e3d6000fd5b505050506040513d6020811015612daf57600080fd5b8101908080519060200190929190505050115b5b15612e4b57600360009054906101000a900473ffffffffffffffffffffffffffffffffffffffff1673ffffffffffffffffffffffffffffffffffffffff16639c1fe9276040518163ffffffff1660e01b8152600401600060405180830381600087803b158015612e3257600080fd5b505af1158015612e46573d6000803e3d6000fd5b505050505b505b505050505050565b600080600080600080905060007fffffffffffffffffffffffffffffffffffffffffffffffffffffffffffffffff90506000806000600260009054906101000a900473ffffffffffffffffffffffffffffffffffffffff1673ffffffffffffffffffffffffffffffffffffffff1663d9ed1a7a6040518163ffffffff1660e01b8152600401604080518083038186803b158015612ef157600080fd5b505afa158015612f05573d6000803e3d6000fd5b505050506040513d6040811015612f1b57600080fd5b810190808051906020019092919080519060200190929190505050508091505060008b51905060008090505b81811015613133576000935060009450600460009054906101000a900473ffffffffffffffffffffffffffffffffffffffff1673ffffffffffffffffffffffffffffffffffffffff166324da11288e8381518110612fa157fe5b60200260200101516040518263ffffffff1660e01b815260040180827bffffffffffffffffffffffffffffffffffffffffffffffffffffffff19167bffffffffffffffffffffffffffffffffffffffffffffffffffffffff1916815260200191505060206040518083038186803b15801561301b57600080fd5b505afa15801561302f573d6000803e3d6000fd5b505050506040513d602081101561304557600080fd5b8101908080519060200190929190505050156131265761308c8d828151811061306a57fe5b60200260200101518d838151811061307e57fe5b6020026020010151856184b8565b8095508196505050868513806130a25750600081145b156130d7578496508c81815181106130b657fe5b60200260200101519a508b81815181106130cc57fe5b602002602001015199505b858412806130e55750600084145b806130f05750600081145b15613125578395508c818151811061310457fe5b602002602001015198508b818151811061311a57fe5b602002602001015197505b5b8080600101915050612f47565b5050505050505092959194509250565b600015156000809054906101000a900473ffffffffffffffffffffffffffffffffffffffff1673ffffffffffffffffffffffffffffffffffffffff1663ff0938a76040518163ffffffff1660e01b815260040160206040518083038186803b1580156131ae57600080fd5b505afa1580156131c2573d6000803e3d6000fd5b505050506040513d60208110156131d857600080fd5b81019080805190602001909291905050501515146131f557600080fd5b600080600460009054906101000a900473ffffffffffffffffffffffffffffffffffffffff1673ffffffffffffffffffffffffffffffffffffffff1663e3d22ebd6040518163ffffffff1660e01b815260040160206040518083038186803b15801561326057600080fd5b505afa158015613274573d6000803e3d6000fd5b505050506040513d602081101561328a57600080fd5b81019080805190602001909291905050509050600080600460009054906101000a900473ffffffffffffffffffffffffffffffffffffffff1673ffffffffffffffffffffffffffffffffffffffff1663e2507b4a6040518163ffffffff1660e01b815260040160206040518083038186803b15801561330857600080fd5b505afa15801561331c573d6000803e3d6000fd5b505050506040513d602081101561333257600080fd5b810190808051906020019092919050505090506133716012600a0a613363620186a08661244e90919063ffffffff16565b61422d90919063ffffffff16565b9250600080841115613eec57613477633b9aca00613469600460009054906101000a900473ffffffffffffffffffffffffffffffffffffffff1673ffffffffffffffffffffffffffffffffffffffff16638c3f8fa46040518163ffffffff1660e01b815260040160206040518083038186803b1580156133f057600080fd5b505afa158015613404573d6000803e3d6000fd5b505050506040513d602081101561341a57600080fd5b810190808051906020019092919050505061345b8a67ffffffffffffffff1661344d60028b61244e90919063ffffffff16565b61244e90919063ffffffff16565b61244e90919063ffffffff16565b61422d90919063ffffffff16565b94506135906064613582600460009054906101000a900473ffffffffffffffffffffffffffffffffffffffff1673ffffffffffffffffffffffffffffffffffffffff1663b72efc7c8b6040518263ffffffff1660e01b815260040180827bffffffffffffffffffffffffffffffffffffffffffffffffffffffff19167bffffffffffffffffffffffffffffffffffffffffffffffffffffffff1916815260200191505060206040518083038186803b15801561353257600080fd5b505afa158015613546573d6000803e3d6000fd5b505050506040513d602081101561355c57600080fd5b810190808051906020019092919050505060ff16600a0a8861244e90919063ffffffff16565b61422d90919063ffffffff16565b94507f4554480000000000000000000000000000000000000000000000000000000000877bffffffffffffffffffffffffffffffffffffffffffffffffffffffff1916141580156135e857506135e7878786618654565b5b15613d3b57600560009054906101000a900473ffffffffffffffffffffffffffffffffffffffff1673ffffffffffffffffffffffffffffffffffffffff166306f2bf62600460009054906101000a900473ffffffffffffffffffffffffffffffffffffffff1673ffffffffffffffffffffffffffffffffffffffff16637e2d14d98a6040518263ffffffff1660e01b815260040180827bffffffffffffffffffffffffffffffffffffffffffffffffffffffff19167bffffffffffffffffffffffffffffffffffffffffffffffffffffffff1916815260200191505060206040518083038186803b1580156136dc57600080fd5b505afa1580156136f0573d6000803e3d6000fd5b505050506040513d602081101561370657600080fd5b81019080805190602001909291905050506040518263ffffffff1660e01b8152600401808273ffffffffffffffffffffffffffffffffffffffff1673ffffffffffffffffffffffffffffffffffffffff16815260200191505060206040518083038186803b15801561377757600080fd5b505afa15801561378b573d6000803e3d6000fd5b505050506040513d60208110156137a157600080fd5b810190808051906020019092919050505090508073ffffffffffffffffffffffffffffffffffffffff166395b68fe7866040518263ffffffff1660e01b81526004018082815260200191505060206040518083038186803b15801561380557600080fd5b505afa158015613819573d6000803e3d6000fd5b505050506040513d602081101561382f57600080fd5b8101908080519060200190929190505050925061387f6064613871848473ffffffffffffffffffffffffffffffffffffffff163161244e90919063ffffffff16565b61422d90919063ffffffff16565b83111561397c576138c360646138b5848473ffffffffffffffffffffffffffffffffffffffff163161244e90919063ffffffff16565b61422d90919063ffffffff16565b92506139796103e861396b6103e38473ffffffffffffffffffffffffffffffffffffffff1663cd7724c3886040518263ffffffff1660e01b81526004018082815260200191505060206040518083038186803b15801561392257600080fd5b505afa158015613936573d6000803e3d6000fd5b505050506040513d602081101561394c57600080fd5b810190808051906020019092919050505061244e90919063ffffffff16565b61422d90919063ffffffff16565b94505b6000600460009054906101000a900473ffffffffffffffffffffffffffffffffffffffff1673ffffffffffffffffffffffffffffffffffffffff1663e3dee239896040518263ffffffff1660e01b815260040180827bffffffffffffffffffffffffffffffffffffffffffffffffffffffff19167bffffffffffffffffffffffffffffffffffffffffffffffffffffffff1916815260200191505060206040518083038186803b158015613a2f57600080fd5b505afa158015613a43573d6000803e3d6000fd5b505050506040513d6020811015613a5957600080fd5b810190808051906020019092919050505090508073ffffffffffffffffffffffffffffffffffffffff1663095ea7b383886040518363ffffffff1660e01b8152600401808373ffffffffffffffffffffffffffffffffffffffff1673ffffffffffffffffffffffffffffffffffffffff16815260200182815260200192505050602060405180830381600087803b158015613af357600080fd5b505af1158015613b07573d6000803e3d6000fd5b505050506040513d6020811015613b1d57600080fd5b8101908080519060200190929190505050508173ffffffffffffffffffffffffffffffffffffffff166395e3c50b87613c006103e8613bf26103e38873ffffffffffffffffffffffffffffffffffffffff166395b68fe78e6040518263ffffffff1660e01b81526004018082815260200191505060206040518083038186803b158015613ba957600080fd5b505afa158015613bbd573d6000803e3d6000fd5b505050506040513d6020811015613bd357600080fd5b810190808051906020019092919050505061244e90919063ffffffff16565b61422d90919063ffffffff16565b613cb542600460009054906101000a900473ffffffffffffffffffffffffffffffffffffffff1673ffffffffffffffffffffffffffffffffffffffff166339d2ad296040518163ffffffff1660e01b815260040160206040518083038186803b158015613c6c57600080fd5b505afa158015613c80573d6000803e3d6000fd5b505050506040513d6020811015613c9657600080fd5b81019080805190602001909291905050506123c690919063ffffffff16565b6040518463ffffffff1660e01b8152600401808481526020018381526020018281526020019350505050602060405180830381600087803b158015613cf957600080fd5b505af1158015613d0d573d6000803e3d6000fd5b505050506040513d6020811015613d2357600080fd5b81019080805190602001909291905050505050613e6e565b7f4554480000000000000000000000000000000000000000000000000000000000877bffffffffffffffffffffffffffffffffffffffffffffffffffffffff1916148015613d905750613d8f878786618654565b5b15613e6d57613e6c876000809054906101000a900473ffffffffffffffffffffffffffffffffffffffff1673ffffffffffffffffffffffffffffffffffffffff1663013828586040518163ffffffff1660e01b815260040180807f5031000000000000000000000000000000000000000000000000000000000000815250602001905060206040518083038186803b158015613e2b57600080fd5b505afa158015613e3f573d6000803e3d6000fd5b505050506040513d6020811015613e5557600080fd5b8101908080519060200190929190505050876180a1565b5b5b7f5b9a4c8e608b5c093e929f19155d286db4301c8af758938fc5b1418915c37ca8878660405180837bffffffffffffffffffffffffffffffffffffffffffffffffffffffff19167bffffffffffffffffffffffffffffffffffffffffffffffffffffffff191681526020018281526020019250505060405180910390a15b50505050505050565b6000600460009054906101000a900473ffffffffffffffffffffffffffffffffffffffff1673ffffffffffffffffffffffffffffffffffffffff16637e2d14d9846040518263ffffffff1660e01b815260040180827bffffffffffffffffffffffffffffffffffffffffffffffffffffffff19167bffffffffffffffffffffffffffffffffffffffffffffffffffffffff1916815260200191505060206040518083038186803b158015613fa857600080fd5b505afa158015613fbc573d6000803e3d6000fd5b505050506040513d6020811015613fd257600080fd5b8101908080519060200190929190505050905060008173ffffffffffffffffffffffffffffffffffffffff166370a08231306040518263ffffffff1660e01b8152600401808273ffffffffffffffffffffffffffffffffffffffff1673ffffffffffffffffffffffffffffffffffffffff16815260200191505060206040518083038186803b15801561406457600080fd5b505afa158015614078573d6000803e3d6000fd5b505050506040513d602081101561408e57600080fd5b81019080805190602001909291905050501115614228578073ffffffffffffffffffffffffffffffffffffffff1663a9059cbb838373ffffffffffffffffffffffffffffffffffffffff166370a08231306040518263ffffffff1660e01b8152600401808273ffffffffffffffffffffffffffffffffffffffff1673ffffffffffffffffffffffffffffffffffffffff16815260200191505060206040518083038186803b15801561413f57600080fd5b505afa158015614153573d6000803e3d6000fd5b505050506040513d602081101561416957600080fd5b81019080805190602001909291905050506040518363ffffffff1660e01b8152600401808373ffffffffffffffffffffffffffffffffffffffff1673ffffffffffffffffffffffffffffffffffffffff16815260200182815260200192505050602060405180830381600087803b1580156141e357600080fd5b505af11580156141f7573d6000803e3d6000fd5b505050506040513d602081101561420d57600080fd5b810190808051906020019092919050505061422757600080fd5b5b505050565b600061426f83836040518060400160405280601a81526020017f536166654d6174683a206469766973696f6e206279207a65726f000000000000815250618965565b905092915050565b60006142b983836040518060400160405280601e81526020017f536166654d6174683a207375627472616374696f6e206f766572666c6f770000815250618a2b565b905092915050565b6000806000806000600460009054906101000a900473ffffffffffffffffffffffffffffffffffffffff1673ffffffffffffffffffffffffffffffffffffffff1663e2507b4a6040518163ffffffff1660e01b815260040160206040518083038186803b15801561433157600080fd5b505afa158015614345573d6000803e3d6000fd5b505050506040513d602081101561435b57600080fd5b81019080805190602001909291905050509050867bffffffffffffffffffffffffffffffffffffffffffffffffffffffff1916887bffffffffffffffffffffffffffffffffffffffffffffffffffffffff191614156144b057600360009054906101000a900473ffffffffffffffffffffffffffffffffffffffff1673ffffffffffffffffffffffffffffffffffffffff16631fac40b489886040518363ffffffff1660e01b815260040180837bffffffffffffffffffffffffffffffffffffffffffffffffffffffff19167bffffffffffffffffffffffffffffffffffffffffffffffffffffffff1916815260200182815260200192505050602060405180830381600087803b15801561446f57600080fd5b505af1158015614483573d6000803e3d6000fd5b505050506040513d602081101561449957600080fd5b810190808051906020019092919050505050615f8a565b7f4554480000000000000000000000000000000000000000000000000000000000887bffffffffffffffffffffffffffffffffffffffffffffffffffffffff191614801561453d57507f4554480000000000000000000000000000000000000000000000000000000000877bffffffffffffffffffffffffffffffffffffffffffffffffffffffff191614155b15614a8c57600560009054906101000a900473ffffffffffffffffffffffffffffffffffffffff1673ffffffffffffffffffffffffffffffffffffffff166306f2bf62600460009054906101000a900473ffffffffffffffffffffffffffffffffffffffff1673ffffffffffffffffffffffffffffffffffffffff16637e2d14d98a6040518263ffffffff1660e01b815260040180827bffffffffffffffffffffffffffffffffffffffffffffffffffffffff19167bffffffffffffffffffffffffffffffffffffffffffffffffffffffff1916815260200191505060206040518083038186803b15801561463157600080fd5b505afa158015614645573d6000803e3d6000fd5b505050506040513d602081101561465b57600080fd5b81019080805190602001909291905050506040518263ffffffff1660e01b8152600401808273ffffffffffffffffffffffffffffffffffffffff1673ffffffffffffffffffffffffffffffffffffffff16815260200191505060206040518083038186803b1580156146cc57600080fd5b505afa1580156146e0573d6000803e3d6000fd5b505050506040513d60208110156146f657600080fd5b810190808051906020019092919050505092506147466064614738838673ffffffffffffffffffffffffffffffffffffffff163161244e90919063ffffffff16565b61422d90919063ffffffff16565b8611156147915761478a606461477c838673ffffffffffffffffffffffffffffffffffffffff163161244e90919063ffffffff16565b61422d90919063ffffffff16565b9550600194505b600360009054906101000a900473ffffffffffffffffffffffffffffffffffffffff1673ffffffffffffffffffffffffffffffffffffffff16631fac40b489886040518363ffffffff1660e01b815260040180837bffffffffffffffffffffffffffffffffffffffffffffffffffffffff19167bffffffffffffffffffffffffffffffffffffffffffffffffffffffff1916815260200182815260200192505050602060405180830381600087803b15801561484c57600080fd5b505af1158015614860573d6000803e3d6000fd5b505050506040513d602081101561487657600080fd5b8101908080519060200190929190505050508273ffffffffffffffffffffffffffffffffffffffff1663f39b5b9b876149596103e861494b6103e38973ffffffffffffffffffffffffffffffffffffffff1663cd7724c38e6040518263ffffffff1660e01b81526004018082815260200191505060206040518083038186803b15801561490257600080fd5b505afa158015614916573d6000803e3d6000fd5b505050506040513d602081101561492c57600080fd5b810190808051906020019092919050505061244e90919063ffffffff16565b61422d90919063ffffffff16565b614a0e42600460009054906101000a900473ffffffffffffffffffffffffffffffffffffffff1673ffffffffffffffffffffffffffffffffffffffff166339d2ad296040518163ffffffff1660e01b815260040160206040518083038186803b1580156149c557600080fd5b505afa1580156149d9573d6000803e3d6000fd5b505050506040513d60208110156149ef57600080fd5b81019080805190602001909291905050506123c690919063ffffffff16565b6040518463ffffffff1660e01b815260040180838152602001828152602001925050506020604051808303818588803b158015614a4a57600080fd5b505af1158015614a5e573d6000803e3d6000fd5b50505050506040513d6020811015614a7557600080fd5b810190808051906020019092919050505050615f89565b7f4554480000000000000000000000000000000000000000000000000000000000887bffffffffffffffffffffffffffffffffffffffffffffffffffffffff191614158015614b1957507f4554480000000000000000000000000000000000000000000000000000000000877bffffffffffffffffffffffffffffffffffffffffffffffffffffffff1916145b1561533f57600560009054906101000a900473ffffffffffffffffffffffffffffffffffffffff1673ffffffffffffffffffffffffffffffffffffffff166306f2bf62600460009054906101000a900473ffffffffffffffffffffffffffffffffffffffff1673ffffffffffffffffffffffffffffffffffffffff1663e3dee2398b6040518263ffffffff1660e01b815260040180827bffffffffffffffffffffffffffffffffffffffffffffffffffffffff19167bffffffffffffffffffffffffffffffffffffffffffffffffffffffff1916815260200191505060206040518083038186803b158015614c0d57600080fd5b505afa158015614c21573d6000803e3d6000fd5b505050506040513d6020811015614c3757600080fd5b81019080805190602001909291905050506040518263ffffffff1660e01b8152600401808273ffffffffffffffffffffffffffffffffffffffff1673ffffffffffffffffffffffffffffffffffffffff16815260200191505060206040518083038186803b158015614ca857600080fd5b505afa158015614cbc573d6000803e3d6000fd5b505050506040513d6020811015614cd257600080fd5b81019080805190602001909291905050509250600460009054906101000a900473ffffffffffffffffffffffffffffffffffffffff1673ffffffffffffffffffffffffffffffffffffffff1663e3dee239896040518263ffffffff1660e01b815260040180827bffffffffffffffffffffffffffffffffffffffffffffffffffffffff19167bffffffffffffffffffffffffffffffffffffffffffffffffffffffff1916815260200191505060206040518083038186803b158015614d9657600080fd5b505afa158015614daa573d6000803e3d6000fd5b505050506040513d6020811015614dc057600080fd5b810190808051906020019092919050505091508273ffffffffffffffffffffffffffffffffffffffff166395b68fe7876040518263ffffffff1660e01b81526004018082815260200191505060206040518083038186803b158015614e2457600080fd5b505afa158015614e38573d6000803e3d6000fd5b505050506040513d6020811015614e4e57600080fd5b81019080805190602001909291905050509350614e9e6064614e90838673ffffffffffffffffffffffffffffffffffffffff163161244e90919063ffffffff16565b61422d90919063ffffffff16565b84111561500557614ee26064614ed4838673ffffffffffffffffffffffffffffffffffffffff163161244e90919063ffffffff16565b61422d90919063ffffffff16565b93508273ffffffffffffffffffffffffffffffffffffffff1663cd7724c3856040518263ffffffff1660e01b81526004018082815260200191505060206040518083038186803b158015614f3557600080fd5b505afa158015614f49573d6000803e3d6000fd5b505050506040513d6020811015614f5f57600080fd5b810190808051906020019092919050505095508273ffffffffffffffffffffffffffffffffffffffff166395b68fe7876040518263ffffffff1660e01b81526004018082815260200191505060206040518083038186803b158015614fc357600080fd5b505afa158015614fd7573d6000803e3d6000fd5b505050506040513d6020811015614fed57600080fd5b81019080805190602001909291905050509350600194505b600360009054906101000a900473ffffffffffffffffffffffffffffffffffffffff1673ffffffffffffffffffffffffffffffffffffffff16631fac40b489886040518363ffffffff1660e01b815260040180837bffffffffffffffffffffffffffffffffffffffffffffffffffffffff19167bffffffffffffffffffffffffffffffffffffffffffffffffffffffff1916815260200182815260200192505050602060405180830381600087803b1580156150c057600080fd5b505af11580156150d4573d6000803e3d6000fd5b505050506040513d60208110156150ea57600080fd5b8101908080519060200190929190505050508173ffffffffffffffffffffffffffffffffffffffff1663095ea7b384886040518363ffffffff1660e01b8152600401808373ffffffffffffffffffffffffffffffffffffffff1673ffffffffffffffffffffffffffffffffffffffff16815260200182815260200192505050602060405180830381600087803b15801561518357600080fd5b505af1158015615197573d6000803e3d6000fd5b505050506040513d60208110156151ad57600080fd5b8101908080519060200190929190505050508273ffffffffffffffffffffffffffffffffffffffff166395e3c50b876152056103e86151f76103e38a61244e90919063ffffffff16565b61422d90919063ffffffff16565b6152ba42600460009054906101000a900473ffffffffffffffffffffffffffffffffffffffff1673ffffffffffffffffffffffffffffffffffffffff166339d2ad296040518163ffffffff1660e01b815260040160206040518083038186803b15801561527157600080fd5b505afa158015615285573d6000803e3d6000fd5b505050506040513d602081101561529b57600080fd5b81019080805190602001909291905050506123c690919063ffffffff16565b6040518463ffffffff1660e01b8152600401808481526020018381526020018281526020019350505050602060405180830381600087803b1580156152fe57600080fd5b505af1158015615312573d6000803e3d6000fd5b505050506040513d602081101561532857600080fd5b810190808051906020019092919050505050615f88565b600560009054906101000a900473ffffffffffffffffffffffffffffffffffffffff1673ffffffffffffffffffffffffffffffffffffffff166306f2bf62600460009054906101000a900473ffffffffffffffffffffffffffffffffffffffff1673ffffffffffffffffffffffffffffffffffffffff1663e3dee2398b6040518263ffffffff1660e01b815260040180827bffffffffffffffffffffffffffffffffffffffffffffffffffffffff19167bffffffffffffffffffffffffffffffffffffffffffffffffffffffff1916815260200191505060206040518083038186803b15801561542e57600080fd5b505afa158015615442573d6000803e3d6000fd5b505050506040513d602081101561545857600080fd5b81019080805190602001909291905050506040518263ffffffff1660e01b8152600401808273ffffffffffffffffffffffffffffffffffffffff1673ffffffffffffffffffffffffffffffffffffffff16815260200191505060206040518083038186803b1580156154c957600080fd5b505afa1580156154dd573d6000803e3d6000fd5b505050506040513d60208110156154f357600080fd5b810190808051906020019092919050505092508273ffffffffffffffffffffffffffffffffffffffff166395b68fe7876040518263ffffffff1660e01b81526004018082815260200191505060206040518083038186803b15801561555757600080fd5b505afa15801561556b573d6000803e3d6000fd5b505050506040513d602081101561558157600080fd5b810190808051906020019092919050505093506155d160646155c3838673ffffffffffffffffffffffffffffffffffffffff163161244e90919063ffffffff16565b61422d90919063ffffffff16565b8411156156aa576156156064615607838673ffffffffffffffffffffffffffffffffffffffff163161244e90919063ffffffff16565b61422d90919063ffffffff16565b93508273ffffffffffffffffffffffffffffffffffffffff1663cd7724c3856040518263ffffffff1660e01b81526004018082815260200191505060206040518083038186803b15801561566857600080fd5b505afa15801561567c573d6000803e3d6000fd5b505050506040513d602081101561569257600080fd5b81019080805190602001909291905050509550600194505b6000600560009054906101000a900473ffffffffffffffffffffffffffffffffffffffff1673ffffffffffffffffffffffffffffffffffffffff166306f2bf62600460009054906101000a900473ffffffffffffffffffffffffffffffffffffffff1673ffffffffffffffffffffffffffffffffffffffff16637e2d14d98b6040518263ffffffff1660e01b815260040180827bffffffffffffffffffffffffffffffffffffffffffffffffffffffff19167bffffffffffffffffffffffffffffffffffffffffffffffffffffffff1916815260200191505060206040518083038186803b15801561579b57600080fd5b505afa1580156157af573d6000803e3d6000fd5b505050506040513d60208110156157c557600080fd5b81019080805190602001909291905050506040518263ffffffff1660e01b8152600401808273ffffffffffffffffffffffffffffffffffffffff1673ffffffffffffffffffffffffffffffffffffffff16815260200191505060206040518083038186803b15801561583657600080fd5b505afa15801561584a573d6000803e3d6000fd5b505050506040513d602081101561586057600080fd5b810190808051906020019092919050505090506158b060646158a2848473ffffffffffffffffffffffffffffffffffffffff163161244e90919063ffffffff16565b61422d90919063ffffffff16565b851115615989576158f460646158e6848473ffffffffffffffffffffffffffffffffffffffff163161244e90919063ffffffff16565b61422d90919063ffffffff16565b94508373ffffffffffffffffffffffffffffffffffffffff1663cd7724c3866040518263ffffffff1660e01b81526004018082815260200191505060206040518083038186803b15801561594757600080fd5b505afa15801561595b573d6000803e3d6000fd5b505050506040513d602081101561597157600080fd5b81019080805190602001909291905050509650600195505b600360009054906101000a900473ffffffffffffffffffffffffffffffffffffffff1673ffffffffffffffffffffffffffffffffffffffff16631fac40b48a896040518363ffffffff1660e01b815260040180837bffffffffffffffffffffffffffffffffffffffffffffffffffffffff19167bffffffffffffffffffffffffffffffffffffffffffffffffffffffff1916815260200182815260200192505050602060405180830381600087803b158015615a4457600080fd5b505af1158015615a58573d6000803e3d6000fd5b505050506040513d6020811015615a6e57600080fd5b810190808051906020019092919050505050600460009054906101000a900473ffffffffffffffffffffffffffffffffffffffff1673ffffffffffffffffffffffffffffffffffffffff1663e3dee2398a6040518263ffffffff1660e01b815260040180827bffffffffffffffffffffffffffffffffffffffffffffffffffffffff19167bffffffffffffffffffffffffffffffffffffffffffffffffffffffff1916815260200191505060206040518083038186803b158015615b3157600080fd5b505afa158015615b45573d6000803e3d6000fd5b505050506040513d6020811015615b5b57600080fd5b810190808051906020019092919050505092508273ffffffffffffffffffffffffffffffffffffffff1663095ea7b385896040518363ffffffff1660e01b8152600401808373ffffffffffffffffffffffffffffffffffffffff1673ffffffffffffffffffffffffffffffffffffffff16815260200182815260200192505050602060405180830381600087803b158015615bf557600080fd5b505af1158015615c09573d6000803e3d6000fd5b505050506040513d6020811015615c1f57600080fd5b8101908080519060200190929190505050508373ffffffffffffffffffffffffffffffffffffffff1663ddf7e1a788615d026103e8615cf46103e38773ffffffffffffffffffffffffffffffffffffffff1663cd7724c38d6040518263ffffffff1660e01b81526004018082815260200191505060206040518083038186803b158015615cab57600080fd5b505afa158015615cbf573d6000803e3d6000fd5b505050506040513d6020811015615cd557600080fd5b810190808051906020019092919050505061244e90919063ffffffff16565b61422d90919063ffffffff16565b615d2b6103e8615d1d6103e38c61244e90919063ffffffff16565b61422d90919063ffffffff16565b615de042600460009054906101000a900473ffffffffffffffffffffffffffffffffffffffff1673ffffffffffffffffffffffffffffffffffffffff166339d2ad296040518163ffffffff1660e01b815260040160206040518083038186803b158015615d9757600080fd5b505afa158015615dab573d6000803e3d6000fd5b505050506040513d6020811015615dc157600080fd5b81019080805190602001909291905050506123c690919063ffffffff16565b600460009054906101000a900473ffffffffffffffffffffffffffffffffffffffff1673ffffffffffffffffffffffffffffffffffffffff16637e2d14d98f6040518263ffffffff1660e01b815260040180827bffffffffffffffffffffffffffffffffffffffffffffffffffffffff19167bffffffffffffffffffffffffffffffffffffffffffffffffffffffff1916815260200191505060206040518083038186803b158015615e9157600080fd5b505afa158015615ea5573d6000803e3d6000fd5b505050506040513d6020811015615ebb57600080fd5b81019080805190602001909291905050506040518663ffffffff1660e01b8152600401808681526020018581526020018481526020018381526020018273ffffffffffffffffffffffffffffffffffffffff1673ffffffffffffffffffffffffffffffffffffffff16815260200195505050505050602060405180830381600087803b158015615f4a57600080fd5b505af1158015615f5e573d6000803e3d6000fd5b505050506040513d6020811015615f7457600080fd5b810190808051906020019092919050505050505b5b5b505050509392505050565b600080600080857bffffffffffffffffffffffffffffffffffffffffffffffffffffffff1916877bffffffffffffffffffffffffffffffffffffffffffffffffffffffff191614156160bd576160b8876000809054906101000a900473ffffffffffffffffffffffffffffffffffffffff1673ffffffffffffffffffffffffffffffffffffffff1663013828586040518163ffffffff1660e01b815260040180807f5031000000000000000000000000000000000000000000000000000000000000815250602001905060206040518083038186803b15801561607757600080fd5b505afa15801561608b573d6000803e3d6000fd5b505050506040513d60208110156160a157600080fd5b8101908080519060200190929190505050876180a1565b618097565b7f4554480000000000000000000000000000000000000000000000000000000000877bffffffffffffffffffffffffffffffffffffffffffffffffffffffff191614801561614a57507f4554480000000000000000000000000000000000000000000000000000000000867bffffffffffffffffffffffffffffffffffffffffffffffffffffffff191614155b15616b8a57600560009054906101000a900473ffffffffffffffffffffffffffffffffffffffff1673ffffffffffffffffffffffffffffffffffffffff166306f2bf62600460009054906101000a900473ffffffffffffffffffffffffffffffffffffffff1673ffffffffffffffffffffffffffffffffffffffff16637e2d14d9896040518263ffffffff1660e01b815260040180827bffffffffffffffffffffffffffffffffffffffffffffffffffffffff19167bffffffffffffffffffffffffffffffffffffffffffffffffffffffff1916815260200191505060206040518083038186803b15801561623e57600080fd5b505afa158015616252573d6000803e3d6000fd5b505050506040513d602081101561626857600080fd5b81019080805190602001909291905050506040518263ffffffff1660e01b8152600401808273ffffffffffffffffffffffffffffffffffffffff1673ffffffffffffffffffffffffffffffffffffffff16815260200191505060206040518083038186803b1580156162d957600080fd5b505afa1580156162ed573d6000803e3d6000fd5b505050506040513d602081101561630357600080fd5b810190808051906020019092919050505092508273ffffffffffffffffffffffffffffffffffffffff1663cd7724c3866040518263ffffffff1660e01b81526004018082815260200191505060206040518083038186803b15801561636757600080fd5b505afa15801561637b573d6000803e3d6000fd5b505050506040513d602081101561639157600080fd5b810190808051906020019092919050505090506164836064616475600460009054906101000a900473ffffffffffffffffffffffffffffffffffffffff1673ffffffffffffffffffffffffffffffffffffffff1663e2507b4a6040518163ffffffff1660e01b815260040160206040518083038186803b15801561641457600080fd5b505afa158015616428573d6000803e3d6000fd5b505050506040513d602081101561643e57600080fd5b81019080805190602001909291905050508673ffffffffffffffffffffffffffffffffffffffff163161244e90919063ffffffff16565b61422d90919063ffffffff16565b8511156165fe57616569606461655b600460009054906101000a900473ffffffffffffffffffffffffffffffffffffffff1673ffffffffffffffffffffffffffffffffffffffff1663e2507b4a6040518163ffffffff1660e01b815260040160206040518083038186803b1580156164fa57600080fd5b505afa15801561650e573d6000803e3d6000fd5b505050506040513d602081101561652457600080fd5b81019080805190602001909291905050508673ffffffffffffffffffffffffffffffffffffffff163161244e90919063ffffffff16565b61422d90919063ffffffff16565b94508273ffffffffffffffffffffffffffffffffffffffff1663cd7724c3866040518263ffffffff1660e01b81526004018082815260200191505060206040518083038186803b1580156165bc57600080fd5b505afa1580156165d0573d6000803e3d6000fd5b505050506040513d60208110156165e657600080fd5b81019080805190602001909291905050509050600193505b600460009054906101000a900473ffffffffffffffffffffffffffffffffffffffff1673ffffffffffffffffffffffffffffffffffffffff1663e3dee239876040518263ffffffff1660e01b815260040180827bffffffffffffffffffffffffffffffffffffffffffffffffffffffff19167bffffffffffffffffffffffffffffffffffffffffffffffffffffffff1916815260200191505060206040518083038186803b1580156166af57600080fd5b505afa1580156166c3573d6000803e3d6000fd5b505050506040513d60208110156166d957600080fd5b810190808051906020019092919050505091508173ffffffffffffffffffffffffffffffffffffffff166370a08231306040518263ffffffff1660e01b8152600401808273ffffffffffffffffffffffffffffffffffffffff1673ffffffffffffffffffffffffffffffffffffffff16815260200191505060206040518083038186803b15801561676957600080fd5b505afa15801561677d573d6000803e3d6000fd5b505050506040513d602081101561679357600080fd5b8101908080519060200190929190505050811115616866578173ffffffffffffffffffffffffffffffffffffffff166370a08231306040518263ffffffff1660e01b8152600401808273ffffffffffffffffffffffffffffffffffffffff1673ffffffffffffffffffffffffffffffffffffffff16815260200191505060206040518083038186803b15801561682857600080fd5b505afa15801561683c573d6000803e3d6000fd5b505050506040513d602081101561685257600080fd5b810190808051906020019092919050505090505b8173ffffffffffffffffffffffffffffffffffffffff1663095ea7b384836040518363ffffffff1660e01b8152600401808373ffffffffffffffffffffffffffffffffffffffff1673ffffffffffffffffffffffffffffffffffffffff16815260200182815260200192505050602060405180830381600087803b1580156168ed57600080fd5b505af1158015616901573d6000803e3d6000fd5b505050506040513d602081101561691757600080fd5b8101908080519060200190929190505050508273ffffffffffffffffffffffffffffffffffffffff16637237e031826169fa6103e86169ec6103e38973ffffffffffffffffffffffffffffffffffffffff166395b68fe7896040518263ffffffff1660e01b81526004018082815260200191505060206040518083038186803b1580156169a357600080fd5b505afa1580156169b7573d6000803e3d6000fd5b505050506040513d60208110156169cd57600080fd5b810190808051906020019092919050505061244e90919063ffffffff16565b61422d90919063ffffffff16565b616aaf42600460009054906101000a900473ffffffffffffffffffffffffffffffffffffffff1673ffffffffffffffffffffffffffffffffffffffff166339d2ad296040518163ffffffff1660e01b815260040160206040518083038186803b158015616a6657600080fd5b505afa158015616a7a573d6000803e3d6000fd5b505050506040513d6020811015616a9057600080fd5b81019080805190602001909291905050506123c690919063ffffffff16565b600360009054906101000a900473ffffffffffffffffffffffffffffffffffffffff166040518563ffffffff1660e01b8152600401808581526020018481526020018381526020018273ffffffffffffffffffffffffffffffffffffffff1673ffffffffffffffffffffffffffffffffffffffff168152602001945050505050602060405180830381600087803b158015616b4957600080fd5b505af1158015616b5d573d6000803e3d6000fd5b505050506040513d6020811015616b7357600080fd5b810190808051906020019092919050505050618096565b7f4554480000000000000000000000000000000000000000000000000000000000877bffffffffffffffffffffffffffffffffffffffffffffffffffffffff191614158015616c1757507f4554480000000000000000000000000000000000000000000000000000000000867bffffffffffffffffffffffffffffffffffffffffffffffffffffffff1916145b156172a357600560009054906101000a900473ffffffffffffffffffffffffffffffffffffffff1673ffffffffffffffffffffffffffffffffffffffff166306f2bf62600460009054906101000a900473ffffffffffffffffffffffffffffffffffffffff1673ffffffffffffffffffffffffffffffffffffffff1663e3dee2398a6040518263ffffffff1660e01b815260040180827bffffffffffffffffffffffffffffffffffffffffffffffffffffffff19167bffffffffffffffffffffffffffffffffffffffffffffffffffffffff1916815260200191505060206040518083038186803b158015616d0b57600080fd5b505afa158015616d1f573d6000803e3d6000fd5b505050506040513d6020811015616d3557600080fd5b81019080805190602001909291905050506040518263ffffffff1660e01b8152600401808273ffffffffffffffffffffffffffffffffffffffff1673ffffffffffffffffffffffffffffffffffffffff16815260200191505060206040518083038186803b158015616da657600080fd5b505afa158015616dba573d6000803e3d6000fd5b505050506040513d6020811015616dd057600080fd5b810190808051906020019092919050505092508273ffffffffffffffffffffffffffffffffffffffff166395b68fe7866040518263ffffffff1660e01b81526004018082815260200191505060206040518083038186803b158015616e3457600080fd5b505afa158015616e48573d6000803e3d6000fd5b505050506040513d6020811015616e5e57600080fd5b8101908080519060200190929190505050905047811115616e7d574790505b616f5c6064616f4e600460009054906101000a900473ffffffffffffffffffffffffffffffffffffffff1673ffffffffffffffffffffffffffffffffffffffff1663e2507b4a6040518163ffffffff1660e01b815260040160206040518083038186803b158015616eed57600080fd5b505afa158015616f01573d6000803e3d6000fd5b505050506040513d6020811015616f1757600080fd5b81019080805190602001909291905050508673ffffffffffffffffffffffffffffffffffffffff163161244e90919063ffffffff16565b61422d90919063ffffffff16565b811115617049576170426064617034600460009054906101000a900473ffffffffffffffffffffffffffffffffffffffff1673ffffffffffffffffffffffffffffffffffffffff1663e2507b4a6040518163ffffffff1660e01b815260040160206040518083038186803b158015616fd357600080fd5b505afa158015616fe7573d6000803e3d6000fd5b505050506040513d6020811015616ffd57600080fd5b81019080805190602001909291905050508673ffffffffffffffffffffffffffffffffffffffff163161244e90919063ffffffff16565b61422d90919063ffffffff16565b9050600193505b8273ffffffffffffffffffffffffffffffffffffffff1663ad65d76d8261711a6103e861710c6103e38973ffffffffffffffffffffffffffffffffffffffff1663cd7724c3896040518263ffffffff1660e01b81526004018082815260200191505060206040518083038186803b1580156170c357600080fd5b505afa1580156170d7573d6000803e3d6000fd5b505050506040513d60208110156170ed57600080fd5b810190808051906020019092919050505061244e90919063ffffffff16565b61422d90919063ffffffff16565b6171cf42600460009054906101000a900473ffffffffffffffffffffffffffffffffffffffff1673ffffffffffffffffffffffffffffffffffffffff166339d2ad296040518163ffffffff1660e01b815260040160206040518083038186803b15801561718657600080fd5b505afa15801561719a573d6000803e3d6000fd5b505050506040513d60208110156171b057600080fd5b81019080805190602001909291905050506123c690919063ffffffff16565b600360009054906101000a900473ffffffffffffffffffffffffffffffffffffffff166040518563ffffffff1660e01b8152600401808481526020018381526020018273ffffffffffffffffffffffffffffffffffffffff1673ffffffffffffffffffffffffffffffffffffffff16815260200193505050506020604051808303818588803b15801561726157600080fd5b505af1158015617275573d6000803e3d6000fd5b50505050506040513d602081101561728c57600080fd5b810190808051906020019092919050505050618095565b6000600460009054906101000a900473ffffffffffffffffffffffffffffffffffffffff1673ffffffffffffffffffffffffffffffffffffffff1663e3dee239896040518263ffffffff1660e01b815260040180827bffffffffffffffffffffffffffffffffffffffffffffffffffffffff19167bffffffffffffffffffffffffffffffffffffffffffffffffffffffff1916815260200191505060206040518083038186803b15801561735657600080fd5b505afa15801561736a573d6000803e3d6000fd5b505050506040513d602081101561738057600080fd5b81019080805190602001909291905050509050600560009054906101000a900473ffffffffffffffffffffffffffffffffffffffff1673ffffffffffffffffffffffffffffffffffffffff166306f2bf62826040518263ffffffff1660e01b8152600401808273ffffffffffffffffffffffffffffffffffffffff1673ffffffffffffffffffffffffffffffffffffffff16815260200191505060206040518083038186803b15801561743257600080fd5b505afa158015617446573d6000803e3d6000fd5b505050506040513d602081101561745c57600080fd5b810190808051906020019092919050505093508373ffffffffffffffffffffffffffffffffffffffff166395b68fe7876040518263ffffffff1660e01b81526004018082815260200191505060206040518083038186803b1580156174c057600080fd5b505afa1580156174d4573d6000803e3d6000fd5b505050506040513d60208110156174ea57600080fd5b810190808051906020019092919050505091506175dc60646175ce600460009054906101000a900473ffffffffffffffffffffffffffffffffffffffff1673ffffffffffffffffffffffffffffffffffffffff1663e2507b4a6040518163ffffffff1660e01b815260040160206040518083038186803b15801561756d57600080fd5b505afa158015617581573d6000803e3d6000fd5b505050506040513d602081101561759757600080fd5b81019080805190602001909291905050508773ffffffffffffffffffffffffffffffffffffffff163161244e90919063ffffffff16565b61422d90919063ffffffff16565b8211156176c9576176c260646176b4600460009054906101000a900473ffffffffffffffffffffffffffffffffffffffff1673ffffffffffffffffffffffffffffffffffffffff1663e2507b4a6040518163ffffffff1660e01b815260040160206040518083038186803b15801561765357600080fd5b505afa158015617667573d6000803e3d6000fd5b505050506040513d602081101561767d57600080fd5b81019080805190602001909291905050508773ffffffffffffffffffffffffffffffffffffffff163161244e90919063ffffffff16565b61422d90919063ffffffff16565b9150600194505b6000600560009054906101000a900473ffffffffffffffffffffffffffffffffffffffff1673ffffffffffffffffffffffffffffffffffffffff166306f2bf62600460009054906101000a900473ffffffffffffffffffffffffffffffffffffffff1673ffffffffffffffffffffffffffffffffffffffff16637e2d14d98b6040518263ffffffff1660e01b815260040180827bffffffffffffffffffffffffffffffffffffffffffffffffffffffff19167bffffffffffffffffffffffffffffffffffffffffffffffffffffffff1916815260200191505060206040518083038186803b1580156177ba57600080fd5b505afa1580156177ce573d6000803e3d6000fd5b505050506040513d60208110156177e457600080fd5b81019080805190602001909291905050506040518263ffffffff1660e01b8152600401808273ffffffffffffffffffffffffffffffffffffffff1673ffffffffffffffffffffffffffffffffffffffff16815260200191505060206040518083038186803b15801561785557600080fd5b505afa158015617869573d6000803e3d6000fd5b505050506040513d602081101561787f57600080fd5b810190808051906020019092919050505090506179716064617963600460009054906101000a900473ffffffffffffffffffffffffffffffffffffffff1673ffffffffffffffffffffffffffffffffffffffff1663e2507b4a6040518163ffffffff1660e01b815260040160206040518083038186803b15801561790257600080fd5b505afa158015617916573d6000803e3d6000fd5b505050506040513d602081101561792c57600080fd5b81019080805190602001909291905050508473ffffffffffffffffffffffffffffffffffffffff163161244e90919063ffffffff16565b61422d90919063ffffffff16565b831115617a5e57617a576064617a49600460009054906101000a900473ffffffffffffffffffffffffffffffffffffffff1673ffffffffffffffffffffffffffffffffffffffff1663e2507b4a6040518163ffffffff1660e01b815260040160206040518083038186803b1580156179e857600080fd5b505afa1580156179fc573d6000803e3d6000fd5b505050506040513d6020811015617a1257600080fd5b81019080805190602001909291905050508473ffffffffffffffffffffffffffffffffffffffff163161244e90919063ffffffff16565b61422d90919063ffffffff16565b9250600195505b60008173ffffffffffffffffffffffffffffffffffffffff1663cd7724c3856040518263ffffffff1660e01b81526004018082815260200191505060206040518083038186803b158015617ab157600080fd5b505afa158015617ac5573d6000803e3d6000fd5b505050506040513d6020811015617adb57600080fd5b81019080805190602001909291905050509050600460009054906101000a900473ffffffffffffffffffffffffffffffffffffffff1673ffffffffffffffffffffffffffffffffffffffff16637e2d14d98a6040518263ffffffff1660e01b815260040180827bffffffffffffffffffffffffffffffffffffffffffffffffffffffff19167bffffffffffffffffffffffffffffffffffffffffffffffffffffffff1916815260200191505060206040518083038186803b158015617b9f57600080fd5b505afa158015617bb3573d6000803e3d6000fd5b505050506040513d6020811015617bc957600080fd5b8101908080519060200190929190505050945060008573ffffffffffffffffffffffffffffffffffffffff166370a08231306040518263ffffffff1660e01b8152600401808273ffffffffffffffffffffffffffffffffffffffff1673ffffffffffffffffffffffffffffffffffffffff16815260200191505060206040518083038186803b158015617c5b57600080fd5b505afa158015617c6f573d6000803e3d6000fd5b505050506040513d6020811015617c8557600080fd5b8101908080519060200190929190505050905080821115617d32578091508273ffffffffffffffffffffffffffffffffffffffff166395b68fe7836040518263ffffffff1660e01b81526004018082815260200191505060206040518083038186803b158015617cf457600080fd5b505afa158015617d08573d6000803e3d6000fd5b505050506040513d6020811015617d1e57600080fd5b810190808051906020019092919050505094505b8673ffffffffffffffffffffffffffffffffffffffff1663cd7724c3866040518263ffffffff1660e01b81526004018082815260200191505060206040518083038186803b158015617d8357600080fd5b505afa158015617d97573d6000803e3d6000fd5b505050506040513d6020811015617dad57600080fd5b810190808051906020019092919050505098508573ffffffffffffffffffffffffffffffffffffffff1663095ea7b384846040518363ffffffff1660e01b8152600401808373ffffffffffffffffffffffffffffffffffffffff1673ffffffffffffffffffffffffffffffffffffffff16815260200182815260200192505050602060405180830381600087803b158015617e4757600080fd5b505af1158015617e5b573d6000803e3d6000fd5b505050506040513d6020811015617e7157600080fd5b8101908080519060200190929190505050508273ffffffffffffffffffffffffffffffffffffffff1663f552d91b83617ec96103e8617ebb6103e38f61244e90919063ffffffff16565b61422d90919063ffffffff16565b88617f7f42600460009054906101000a900473ffffffffffffffffffffffffffffffffffffffff1673ffffffffffffffffffffffffffffffffffffffff166339d2ad296040518163ffffffff1660e01b815260040160206040518083038186803b158015617f3657600080fd5b505afa158015617f4a573d6000803e3d6000fd5b505050506040513d6020811015617f6057600080fd5b81019080805190602001909291905050506123c690919063ffffffff16565b600360009054906101000a900473ffffffffffffffffffffffffffffffffffffffff168a6040518763ffffffff1660e01b8152600401808781526020018681526020018581526020018481526020018373ffffffffffffffffffffffffffffffffffffffff1673ffffffffffffffffffffffffffffffffffffffff1681526020018273ffffffffffffffffffffffffffffffffffffffff1673ffffffffffffffffffffffffffffffffffffffff1681526020019650505050505050602060405180830381600087803b15801561805457600080fd5b505af1158015618068573d6000803e3d6000fd5b505050506040513d602081101561807e57600080fd5b810190808051906020019092919050505050505050505b5b5b5050509392505050565b7f4554480000000000000000000000000000000000000000000000000000000000837bffffffffffffffffffffffffffffffffffffffffffffffffffffffff1916141561817c57478111156180f4574790505b600360009054906101000a900473ffffffffffffffffffffffffffffffffffffffff1673ffffffffffffffffffffffffffffffffffffffff16630e29df22826040518263ffffffff1660e01b81526004016000604051808303818588803b15801561815e57600080fd5b505af1158015618172573d6000803e3d6000fd5b50505050506184b3565b6000600460009054906101000a900473ffffffffffffffffffffffffffffffffffffffff1673ffffffffffffffffffffffffffffffffffffffff16637e2d14d9856040518263ffffffff1660e01b815260040180827bffffffffffffffffffffffffffffffffffffffffffffffffffffffff19167bffffffffffffffffffffffffffffffffffffffffffffffffffffffff1916815260200191505060206040518083038186803b15801561822f57600080fd5b505afa158015618243573d6000803e3d6000fd5b505050506040513d602081101561825957600080fd5b810190808051906020019092919050505090508073ffffffffffffffffffffffffffffffffffffffff166370a08231306040518263ffffffff1660e01b8152600401808273ffffffffffffffffffffffffffffffffffffffff1673ffffffffffffffffffffffffffffffffffffffff16815260200191505060206040518083038186803b1580156182e957600080fd5b505afa1580156182fd573d6000803e3d6000fd5b505050506040513d602081101561831357600080fd5b81019080805190602001909291905050508211156183e6578073ffffffffffffffffffffffffffffffffffffffff166370a08231306040518263ffffffff1660e01b8152600401808273ffffffffffffffffffffffffffffffffffffffff1673ffffffffffffffffffffffffffffffffffffffff16815260200191505060206040518083038186803b1580156183a857600080fd5b505afa1580156183bc573d6000803e3d6000fd5b505050506040513d60208110156183d257600080fd5b810190808051906020019092919050505091505b8073ffffffffffffffffffffffffffffffffffffffff1663a9059cbb84846040518363ffffffff1660e01b8152600401808373ffffffffffffffffffffffffffffffffffffffff1673ffffffffffffffffffffffffffffffffffffffff16815260200182815260200192505050602060405180830381600087803b15801561846d57600080fd5b505af1158015618481573d6000803e3d6000fd5b505050506040513d602081101561849757600080fd5b81019080805190602001909291905050506184b157600080fd5b505b505050565b60008060008060006184c988618aeb565b9050600460009054906101000a900473ffffffffffffffffffffffffffffffffffffffff1673ffffffffffffffffffffffffffffffffffffffff166395dcbd1f896040518263ffffffff1660e01b815260040180827bffffffffffffffffffffffffffffffffffffffffffffffffffffffff19167bffffffffffffffffffffffffffffffffffffffffffffffffffffffff19168152602001915050604080518083038186803b15801561857b57600080fd5b505afa15801561858f573d6000803e3d6000fd5b505050506040513d60408110156185a557600080fd5b8101908080519060200190929190805190602001909291905050508167ffffffffffffffff1691508067ffffffffffffffff169050809450819350505060008767ffffffffffffffff16111561864957600061863b6186178967ffffffffffffffff168961244e90919063ffffffff16565b61862d620f42408561244e90919063ffffffff16565b61422d90919063ffffffff16565b905083810395508281039450505b505050935093915050565b6000808367ffffffffffffffff16111561895e5760006186896012600a0a61867b87618aeb565b61422d90919063ffffffff16565b905060008111801561869b5750600083115b1561895c57600080600080600460009054906101000a900473ffffffffffffffffffffffffffffffffffffffff1673ffffffffffffffffffffffffffffffffffffffff166395dcbd1f8a6040518263ffffffff1660e01b815260040180827bffffffffffffffffffffffffffffffffffffffffffffffffffffffff19167bffffffffffffffffffffffffffffffffffffffffffffffffffffffff19168152602001915050604080518083038186803b15801561875657600080fd5b505afa15801561876a573d6000803e3d6000fd5b505050506040513d604081101561878057600080fd5b8101908080519060200190929190805190602001909291905050508167ffffffffffffffff1691508067ffffffffffffffff1690508095508194505050600460009054906101000a900473ffffffffffffffffffffffffffffffffffffffff1673ffffffffffffffffffffffffffffffffffffffff16638c3f8fa46040518163ffffffff1660e01b815260040160206040518083038186803b15801561882557600080fd5b505afa158015618839573d6000803e3d6000fd5b505050506040513d602081101561884f57600080fd5b810190808051906020019092919050505090506188a66188828967ffffffffffffffff168961244e90919063ffffffff16565b618898629896808861244e90919063ffffffff16565b61422d90919063ffffffff16565b91506188f560646188e7620186a06188d96188ca868a6123c690919063ffffffff16565b8c61244e90919063ffffffff16565b61244e90919063ffffffff16565b61422d90919063ffffffff16565b82118061894d575061894a606461893c620186a061892e61891f868961427790919063ffffffff16565b8c61244e90919063ffffffff16565b61244e90919063ffffffff16565b61422d90919063ffffffff16565b82105b1561895757600195505b505050505b505b9392505050565b60008083118290618a11576040517f08c379a00000000000000000000000000000000000000000000000000000000081526004018080602001828103825283818151815260200191508051906020019080838360005b838110156189d65780820151818401526020810190506189bb565b50505050905090810190601f168015618a035780820380516001836020036101000a031916815260200191505b509250505060405180910390fd5b506000838581618a1d57fe5b049050809150509392505050565b6000838311158290618ad8576040517f08c379a00000000000000000000000000000000000000000000000000000000081526004018080602001828103825283818151815260200191508051906020019080838360005b83811015618a9d578082015181840152602081019050618a82565b50505050905090810190601f168015618aca5780820380516001836020036101000a031916815260200191505b509250505060405180910390fd5b5060008385039050809150509392505050565b60007f4554480000000000000000000000000000000000000000000000000000000000827bffffffffffffffffffffffffffffffffffffffffffffffffffffffff19161415618b3c57479050618ce8565b6000600460009054906101000a900473ffffffffffffffffffffffffffffffffffffffff1673ffffffffffffffffffffffffffffffffffffffff16637e2d14d9846040518263ffffffff1660e01b815260040180827bffffffffffffffffffffffffffffffffffffffffffffffffffffffff19167bffffffffffffffffffffffffffffffffffffffffffffffffffffffff1916815260200191505060206040518083038186803b158015618bef57600080fd5b505afa158015618c03573d6000803e3d6000fd5b505050506040513d6020811015618c1957600080fd5b810190808051906020019092919050505090508073ffffffffffffffffffffffffffffffffffffffff166370a08231306040518263ffffffff1660e01b8152600401808273ffffffffffffffffffffffffffffffffffffffff1673ffffffffffffffffffffffffffffffffffffffff16815260200191505060206040518083038186803b158015618ca957600080fd5b505afa158015618cbd573d6000803e3d6000fd5b505050506040513d6020811015618cd357600080fd5b81019080805190602001909291905050509150505b91905056fe536166654d6174683a206d756c7469706c69636174696f6e206f766572666c6f77a265627a7a72315820f322bdb1a366c5f6156503efcda98025350bb2de4fa5f14cdf59cc7b6f72be3164736f6c63430005110032",
  "linkReferences": {},
  "deployedLinkReferences": {}
}