{
  "_format": "hh-sol-artifact-1",
  "contractName": "TokenController",
  "sourceName": "contracts/NexusMutual/modules/token/TokenController.sol",
  "abi": [
    {
      "anonymous": false,
      "inputs": [
        {
          "indexed": true,
          "internalType": "address",
          "name": "member",
          "type": "address"
        },
        {
          "indexed": false,
          "internalType": "bytes32",
          "name": "lockedUnder",
          "type": "bytes32"
        },
        {
          "indexed": false,
          "internalType": "uint256",
          "name": "amount",
          "type": "uint256"
        }
      ],
      "name": "Burned",
      "type": "event"
    },
    {
      "anonymous": false,
      "inputs": [
        {
          "indexed": true,
          "internalType": "address",
          "name": "_of",
          "type": "address"
        },
        {
          "indexed": true,
          "internalType": "bytes32",
          "name": "_reason",
          "type": "bytes32"
        },
        {
          "indexed": false,
          "internalType": "uint256",
          "name": "_amount",
          "type": "uint256"
        },
        {
          "indexed": false,
          "internalType": "uint256",
          "name": "_validity",
          "type": "uint256"
        }
      ],
      "name": "Locked",
      "type": "event"
    },
    {
      "anonymous": false,
      "inputs": [
        {
          "indexed": true,
          "internalType": "address",
          "name": "_of",
          "type": "address"
        },
        {
          "indexed": true,
          "internalType": "bytes32",
          "name": "_reason",
          "type": "bytes32"
        },
        {
          "indexed": false,
          "internalType": "uint256",
          "name": "_amount",
          "type": "uint256"
        }
      ],
      "name": "Unlocked",
      "type": "event"
    },
    {
      "constant": false,
      "inputs": [
        {
          "internalType": "address",
          "name": "_member",
          "type": "address"
        }
      ],
      "name": "addToWhitelist",
      "outputs": [],
      "payable": false,
      "stateMutability": "nonpayable",
      "type": "function"
    },
    {
      "constant": false,
      "inputs": [
        {
          "internalType": "address",
          "name": "_of",
          "type": "address"
        },
        {
          "internalType": "uint256",
          "name": "amount",
          "type": "uint256"
        }
      ],
      "name": "burnFrom",
      "outputs": [
        {
          "internalType": "bool",
          "name": "",
          "type": "bool"
        }
      ],
      "payable": false,
      "stateMutability": "nonpayable",
      "type": "function"
    },
    {
      "constant": false,
      "inputs": [
        {
          "internalType": "address",
          "name": "_of",
          "type": "address"
        },
        {
          "internalType": "bytes32",
          "name": "_reason",
          "type": "bytes32"
        },
        {
          "internalType": "uint256",
          "name": "_amount",
          "type": "uint256"
        }
      ],
      "name": "burnLockedTokens",
      "outputs": [],
      "payable": false,
      "stateMutability": "nonpayable",
      "type": "function"
    },
    {
      "constant": false,
      "inputs": [],
      "name": "changeDependentContractAddress",
      "outputs": [],
      "payable": false,
      "stateMutability": "nonpayable",
      "type": "function"
    },
    {
      "constant": false,
      "inputs": [
        {
          "internalType": "address",
          "name": "_masterAddress",
          "type": "address"
        }
      ],
      "name": "changeMasterAddress",
      "outputs": [],
      "payable": false,
      "stateMutability": "nonpayable",
      "type": "function"
    },
    {
      "constant": false,
      "inputs": [
        {
          "internalType": "address",
          "name": "_newOperator",
          "type": "address"
        }
      ],
      "name": "changeOperator",
      "outputs": [],
      "payable": false,
      "stateMutability": "nonpayable",
      "type": "function"
    },
    {
      "constant": false,
      "inputs": [
        {
          "internalType": "bytes32",
          "name": "_reason",
          "type": "bytes32"
        },
        {
          "internalType": "uint256",
          "name": "_time",
          "type": "uint256"
        }
      ],
      "name": "extendLock",
      "outputs": [
        {
          "internalType": "bool",
          "name": "",
          "type": "bool"
        }
      ],
      "payable": false,
      "stateMutability": "nonpayable",
      "type": "function"
    },
    {
      "constant": false,
      "inputs": [
        {
          "internalType": "address",
          "name": "_of",
          "type": "address"
        },
        {
          "internalType": "bytes32",
          "name": "_reason",
          "type": "bytes32"
        },
        {
          "internalType": "uint256",
          "name": "_time",
          "type": "uint256"
        }
      ],
      "name": "extendLockOf",
      "outputs": [
        {
          "internalType": "bool",
          "name": "",
          "type": "bool"
        }
      ],
      "payable": false,
      "stateMutability": "nonpayable",
      "type": "function"
    },
    {
      "constant": true,
      "inputs": [
        {
          "internalType": "address",
          "name": "_of",
          "type": "address"
        },
        {
          "internalType": "bytes32",
          "name": "reason",
          "type": "bytes32"
        }
      ],
      "name": "getLockedTokensValidity",
      "outputs": [
        {
          "internalType": "uint256",
          "name": "validity",
          "type": "uint256"
        }
      ],
      "payable": false,
      "stateMutability": "view",
      "type": "function"
    },
    {
      "constant": true,
      "inputs": [
        {
          "internalType": "address",
          "name": "_of",
          "type": "address"
        }
      ],
      "name": "getUnlockableTokens",
      "outputs": [
        {
          "internalType": "uint256",
          "name": "unlockableTokens",
          "type": "uint256"
        }
      ],
      "payable": false,
      "stateMutability": "view",
      "type": "function"
    },
    {
      "constant": false,
      "inputs": [
        {
          "internalType": "bytes32",
          "name": "_reason",
          "type": "bytes32"
        },
        {
          "internalType": "uint256",
          "name": "_amount",
          "type": "uint256"
        }
      ],
      "name": "increaseLockAmount",
      "outputs": [
        {
          "internalType": "bool",
          "name": "",
          "type": "bool"
        }
      ],
      "payable": false,
      "stateMutability": "nonpayable",
      "type": "function"
    },
    {
      "constant": false,
      "inputs": [
        {
          "internalType": "bytes32",
          "name": "_reason",
          "type": "bytes32"
        },
        {
          "internalType": "uint256",
          "name": "_amount",
          "type": "uint256"
        },
        {
          "internalType": "uint256",
          "name": "_time",
          "type": "uint256"
        }
      ],
      "name": "lock",
      "outputs": [
        {
          "internalType": "bool",
          "name": "",
          "type": "bool"
        }
      ],
      "payable": false,
      "stateMutability": "nonpayable",
      "type": "function"
    },
    {
      "constant": false,
      "inputs": [
        {
          "internalType": "address",
          "name": "_of",
          "type": "address"
        },
        {
          "internalType": "uint256",
          "name": "_days",
          "type": "uint256"
        }
      ],
      "name": "lockForMemberVote",
      "outputs": [],
      "payable": false,
      "stateMutability": "nonpayable",
      "type": "function"
    },
    {
      "constant": false,
      "inputs": [
        {
          "internalType": "address",
          "name": "_of",
          "type": "address"
        },
        {
          "internalType": "bytes32",
          "name": "_reason",
          "type": "bytes32"
        },
        {
          "internalType": "uint256",
          "name": "_amount",
          "type": "uint256"
        },
        {
          "internalType": "uint256",
          "name": "_time",
          "type": "uint256"
        }
      ],
      "name": "lockOf",
      "outputs": [
        {
          "internalType": "bool",
          "name": "",
          "type": "bool"
        }
      ],
      "payable": false,
      "stateMutability": "nonpayable",
      "type": "function"
    },
    {
      "constant": true,
      "inputs": [
        {
          "internalType": "address",
          "name": "",
          "type": "address"
        },
        {
          "internalType": "uint256",
          "name": "",
          "type": "uint256"
        }
      ],
      "name": "lockReason",
      "outputs": [
        {
          "internalType": "bytes32",
          "name": "",
          "type": "bytes32"
        }
      ],
      "payable": false,
      "stateMutability": "view",
      "type": "function"
    },
    {
      "constant": true,
      "inputs": [
        {
          "internalType": "address",
          "name": "",
          "type": "address"
        },
        {
          "internalType": "bytes32",
          "name": "",
          "type": "bytes32"
        }
      ],
      "name": "locked",
      "outputs": [
        {
          "internalType": "uint256",
          "name": "amount",
          "type": "uint256"
        },
        {
          "internalType": "uint256",
          "name": "validity",
          "type": "uint256"
        },
        {
          "internalType": "bool",
          "name": "claimed",
          "type": "bool"
        }
      ],
      "payable": false,
      "stateMutability": "view",
      "type": "function"
    },
    {
      "constant": true,
      "inputs": [],
      "name": "minCALockTime",
      "outputs": [
        {
          "internalType": "uint256",
          "name": "",
          "type": "uint256"
        }
      ],
      "payable": false,
      "stateMutability": "view",
      "type": "function"
    },
    {
      "constant": false,
      "inputs": [
        {
          "internalType": "address",
          "name": "_member",
          "type": "address"
        },
        {
          "internalType": "uint256",
          "name": "_amount",
          "type": "uint256"
        }
      ],
      "name": "mint",
      "outputs": [],
      "payable": false,
      "stateMutability": "nonpayable",
      "type": "function"
    },
    {
      "constant": true,
      "inputs": [],
      "name": "ms",
      "outputs": [
        {
          "internalType": "contract INXMMaster",
          "name": "",
          "type": "address"
        }
      ],
      "payable": false,
      "stateMutability": "view",
      "type": "function"
    },
    {
      "constant": true,
      "inputs": [],
      "name": "nxMasterAddress",
      "outputs": [
        {
          "internalType": "address",
          "name": "",
          "type": "address"
        }
      ],
      "payable": false,
      "stateMutability": "view",
      "type": "function"
    },
    {
      "constant": false,
      "inputs": [
        {
          "internalType": "address",
          "name": "_from",
          "type": "address"
        },
        {
          "internalType": "address",
          "name": "_to",
          "type": "address"
        },
        {
          "internalType": "uint256",
          "name": "_value",
          "type": "uint256"
        }
      ],
      "name": "operatorTransfer",
      "outputs": [
        {
          "internalType": "bool",
          "name": "",
          "type": "bool"
        }
      ],
      "payable": false,
      "stateMutability": "nonpayable",
      "type": "function"
    },
    {
      "constant": true,
      "inputs": [],
      "name": "pooledStaking",
      "outputs": [
        {
          "internalType": "contract IPooledStaking",
          "name": "",
          "type": "address"
        }
      ],
      "payable": false,
      "stateMutability": "view",
      "type": "function"
    },
    {
      "constant": false,
      "inputs": [
        {
          "internalType": "address",
          "name": "_of",
          "type": "address"
        },
        {
          "internalType": "bytes32",
          "name": "_reason",
          "type": "bytes32"
        },
        {
          "internalType": "uint256",
          "name": "_time",
          "type": "uint256"
        }
      ],
      "name": "reduceLock",
      "outputs": [],
      "payable": false,
      "stateMutability": "nonpayable",
      "type": "function"
    },
    {
      "constant": false,
      "inputs": [
        {
          "internalType": "address",
          "name": "_of",
          "type": "address"
        },
        {
          "internalType": "bytes32",
          "name": "_reason",
          "type": "bytes32"
        },
        {
          "internalType": "uint256",
          "name": "_amount",
          "type": "uint256"
        }
      ],
      "name": "releaseLockedTokens",
      "outputs": [],
      "payable": false,
      "stateMutability": "nonpayable",
      "type": "function"
    },
    {
      "constant": false,
      "inputs": [
        {
          "internalType": "address",
          "name": "_member",
          "type": "address"
        }
      ],
      "name": "removeFromWhitelist",
      "outputs": [],
      "payable": false,
      "stateMutability": "nonpayable",
      "type": "function"
    },
    {
      "constant": true,
      "inputs": [],
      "name": "token",
      "outputs": [
        {
          "internalType": "contract NXMToken",
          "name": "",
          "type": "address"
        }
      ],
      "payable": false,
      "stateMutability": "view",
      "type": "function"
    },
    {
      "constant": true,
      "inputs": [
        {
          "internalType": "address",
          "name": "_of",
          "type": "address"
        },
        {
          "internalType": "bytes32",
          "name": "_reason",
          "type": "bytes32"
        }
      ],
      "name": "tokensLocked",
      "outputs": [
        {
          "internalType": "uint256",
          "name": "amount",
          "type": "uint256"
        }
      ],
      "payable": false,
      "stateMutability": "view",
      "type": "function"
    },
    {
      "constant": true,
      "inputs": [
        {
          "internalType": "address",
          "name": "_of",
          "type": "address"
        },
        {
          "internalType": "bytes32",
          "name": "_reason",
          "type": "bytes32"
        },
        {
          "internalType": "uint256",
          "name": "_time",
          "type": "uint256"
        }
      ],
      "name": "tokensLockedAtTime",
      "outputs": [
        {
          "internalType": "uint256",
          "name": "amount",
          "type": "uint256"
        }
      ],
      "payable": false,
      "stateMutability": "view",
      "type": "function"
    },
    {
      "constant": true,
      "inputs": [
        {
          "internalType": "address",
          "name": "_of",
          "type": "address"
        },
        {
          "internalType": "bytes32",
          "name": "_reason",
          "type": "bytes32"
        }
      ],
      "name": "tokensUnlockable",
      "outputs": [
        {
          "internalType": "uint256",
          "name": "amount",
          "type": "uint256"
        }
      ],
      "payable": false,
      "stateMutability": "view",
      "type": "function"
    },
    {
      "constant": true,
      "inputs": [
        {
          "internalType": "address",
          "name": "_of",
          "type": "address"
        }
      ],
      "name": "totalBalanceOf",
      "outputs": [
        {
          "internalType": "uint256",
          "name": "amount",
          "type": "uint256"
        }
      ],
      "payable": false,
      "stateMutability": "view",
      "type": "function"
    },
    {
      "constant": true,
      "inputs": [
        {
          "internalType": "address",
          "name": "_of",
          "type": "address"
        },
        {
          "internalType": "uint256",
          "name": "_time",
          "type": "uint256"
        }
      ],
      "name": "totalLockedBalance",
      "outputs": [
        {
          "internalType": "uint256",
          "name": "amount",
          "type": "uint256"
        }
      ],
      "payable": false,
      "stateMutability": "view",
      "type": "function"
    },
    {
      "constant": true,
      "inputs": [],
      "name": "totalSupply",
      "outputs": [
        {
          "internalType": "uint256",
          "name": "",
          "type": "uint256"
        }
      ],
      "payable": false,
      "stateMutability": "view",
      "type": "function"
    },
    {
      "constant": false,
      "inputs": [
        {
          "internalType": "address",
          "name": "_of",
          "type": "address"
        }
      ],
      "name": "unlock",
      "outputs": [
        {
          "internalType": "uint256",
          "name": "unlockableTokens",
          "type": "uint256"
        }
      ],
      "payable": false,
      "stateMutability": "nonpayable",
      "type": "function"
    },
    {
      "constant": false,
      "inputs": [
        {
          "internalType": "bytes8",
          "name": "code",
          "type": "bytes8"
        },
        {
          "internalType": "uint256",
          "name": "val",
          "type": "uint256"
        }
      ],
      "name": "updateUintParameters",
      "outputs": [],
      "payable": false,
      "stateMutability": "nonpayable",
      "type": "function"
    }
  ],
  "bytecode": "0x60806040526200002262015180601e6200003960201b620027341790919060201c565b6006553480156200003257600080fd5b50620000a0565b6000826200004a575060006200009a565b828202828482816200005857fe5b0414620000975760405162461bcd60e51b815260040180806020018281038252602181526020018062002ada6021913960400191505060405180910390fd5b90505b92915050565b612a2a80620000b06000396000f3fe608060405234801561001057600080fd5b50600436106102065760003560e01c806371d66f001161011a578063a9dab167116100ad578063d71be8db1161007c578063d71be8db14610687578063e43252d7146106d3578063f17a3bec146106f9578063fa64f8c114610701578063fc0c546a1461073957610206565b8063a9dab16714610610578063ab4a2eb314610633578063ceed948d14610659578063d46655f41461066157610206565b806381fc4d90116100e957806381fc4d90146105925780638ab1d681146105b55780639dd86e0f146105db578063a0b2d57f1461060857610206565b806371d66f00146104d657806379cc6790146105025780637aef5b731461052e57806380c7561a1461056057610206565b80632c69d4161161019d57806340c10f191161016c57806340c10f19146104005780634b0ee02a1461042c5780634c47e71d146104525780635294d0e81461047e5780635ca48d8c146104aa57610206565b80632c69d416146103535780632e82aaf2146103855780632f6c493c146103ae57806339081b92146103d457610206565b8063133663f9116101d9578063133663f9146102c3578063179e91f1146102e757806318160ddd146103195780631fea558f1461032157610206565b806306394c9b1461020b57806308f802cc146102335780630d1af103146102715780630ea9c984146102bb575b600080fd5b6102316004803603602081101561022157600080fd5b50356001600160a01b0316610741565b005b61025f6004803603604081101561024957600080fd5b506001600160a01b038135169060200135610843565b60408051918252519081900360200190f35b6102a76004803603606081101561028757600080fd5b506001600160a01b0381358116916020810135909116906040013561086d565b604080519115158252519081900360200190f35b610231610aef565b6102cb610c19565b604080516001600160a01b039092168252519081900360200190f35b61025f600480360360608110156102fd57600080fd5b506001600160a01b038135169060208101359060400135610c28565b61025f610c3d565b6102316004803603606081101561033757600080fd5b506001600160a01b038135169060208101359060400135610cbe565b6102a76004803603606081101561036957600080fd5b506001600160a01b038135169060208101359060400135610d49565b6102a76004803603606081101561039b57600080fd5b5080359060208101359060400135610dd4565b61025f600480360360208110156103c457600080fd5b50356001600160a01b0316610f0a565b61025f600480360360408110156103ea57600080fd5b506001600160a01b038135169060200135611091565b6102316004803603604081101561041657600080fd5b506001600160a01b03813516906020013561119f565b61025f6004803603602081101561044257600080fd5b50356001600160a01b0316611294565b6102316004803603604081101561046857600080fd5b506001600160a01b0381351690602001356114a7565b61025f6004803603604081101561049457600080fd5b506001600160a01b038135169060200135611580565b61025f600480360360408110156104c057600080fd5b506001600160a01b038135169060200135611592565b61025f600480360360408110156104ec57600080fd5b506001600160a01b03813516906020013561159e565b6102a76004803603604081101561051857600080fd5b506001600160a01b0381351690602001356115cc565b6102316004803603606081101561054457600080fd5b506001600160a01b0381351690602081013590604001356116d9565b6102316004803603606081101561057657600080fd5b506001600160a01b038135169060208101359060400135611764565b6102a7600480360360408110156105a857600080fd5b50803590602001356117ef565b610231600480360360208110156105cb57600080fd5b50356001600160a01b03166119e4565b610231600480360360408110156105f157600080fd5b506001600160c01b03198135169060200135611ab6565b6102cb611bb1565b6102a76004803603604081101561062657600080fd5b5080359060200135611bc0565b61025f6004803603602081101561064957600080fd5b50356001600160a01b0316611ca7565b61025f611d21565b6102316004803603602081101561067757600080fd5b50356001600160a01b0316611d27565b6106b36004803603604081101561069d57600080fd5b506001600160a01b038135169060200135611db0565b604080519384526020840192909252151582820152519081900360600190f35b610231600480360360208110156106e957600080fd5b50356001600160a01b0316611ddb565b6102cb611eae565b6102a76004803603608081101561071757600080fd5b506001600160a01b038135169060208101359060408101359060600135611ebd565b6102cb611f54565b600254604080516323c5b10760e21b815233600482015290516001600160a01b0390921691638f16c41c91602480820192602092909190829003018186803b15801561078c57600080fd5b505afa1580156107a0573d6000803e3d6000fd5b505050506040513d60208110156107b657600080fd5b50516107c157600080fd5b60048054604080516306394c9b60e01b81526001600160a01b0385811694820194909452905192909116916306394c9b916024808201926020929091908290030181600087803b15801561081457600080fd5b505af1158015610828573d6000803e3d6000fd5b505050506040513d602081101561083e57600080fd5b505050565b6001600160a01b039091166000908152600160208181526040808420948452939052919020015490565b600254604080516323c5b10760e21b815233600482015290516000926001600160a01b031691638f16c41c916024808301926020929190829003018186803b1580156108b857600080fd5b505afa1580156108cc573d6000803e3d6000fd5b505050506040513d60208110156108e257600080fd5b50516108ed57600080fd5b6005546001600160a01b031633146109365760405162461bcd60e51b815260040180806020018281038252602f8152602001806129c7602f913960400191505060405180910390fd5b600480546040805163b0e65d0760e01b81526001600160a01b0388811694820194909452602481018690529051929091169163b0e65d07916044808201926020929091908290030181600087803b15801561099057600080fd5b505af11580156109a4573d6000803e3d6000fd5b505050506040513d60208110156109ba57600080fd5b5051610a0d576040805162461bcd60e51b815260206004820152601860248201527f4f70657261746f72207472616e73666572206661696c65640000000000000000604482015290519081900360640190fd5b600480546040805163a9059cbb60e01b81526001600160a01b0387811694820194909452602481018690529051929091169163a9059cbb916044808201926020929091908290030181600087803b158015610a6757600080fd5b505af1158015610a7b573d6000803e3d6000fd5b505050506040513d6020811015610a9157600080fd5b5051610ae4576040805162461bcd60e51b815260206004820152601860248201527f496e7465726e616c207472616e73666572206661696c65640000000000000000604482015290519081900360640190fd5b5060015b9392505050565b600260009054906101000a90046001600160a01b03166001600160a01b0316639d76ea586040518163ffffffff1660e01b815260040160206040518083038186803b158015610b3d57600080fd5b505afa158015610b51573d6000803e3d6000fd5b505050506040513d6020811015610b6757600080fd5b5051600480546001600160a01b0319166001600160a01b03928316178155600254604080516227050b60e31b815261505360f01b9381019390935251921691630138285891602480820192602092909190829003018186803b158015610bcc57600080fd5b505afa158015610be0573d6000803e3d6000fd5b505050506040513d6020811015610bf657600080fd5b5051600580546001600160a01b0319166001600160a01b03909216919091179055565b6005546001600160a01b031681565b6000610c35848484611f63565b949350505050565b6000600460009054906101000a90046001600160a01b03166001600160a01b03166318160ddd6040518163ffffffff1660e01b815260040160206040518083038186803b158015610c8d57600080fd5b505afa158015610ca1573d6000803e3d6000fd5b505050506040513d6020811015610cb757600080fd5b5051905090565b600254604080516323c5b10760e21b815233600482015290516001600160a01b0390921691638f16c41c91602480820192602092909190829003018186803b158015610d0957600080fd5b505afa158015610d1d573d6000803e3d6000fd5b505050506040513d6020811015610d3357600080fd5b5051610d3e57600080fd5b61083e838383611fb9565b600254604080516323c5b10760e21b815233600482015290516000926001600160a01b031691638f16c41c916024808301926020929190829003018186803b158015610d9457600080fd5b505afa158015610da8573d6000803e3d6000fd5b505050506040513d6020811015610dbe57600080fd5b5051610dc957600080fd5b610ae48484846120b5565b60025460408051600162f6c75960e01b0319815290516000926001600160a01b03169163ff0938a7916004808301926020929190829003018186803b158015610e1c57600080fd5b505afa158015610e30573d6000803e3d6000fd5b505050506040513d6020811015610e4657600080fd5b505115610e5257600080fd5b62434c4160e81b8414610ea7576040805162461bcd60e51b81526020600482015260186024820152775265737472696374656420746f20726561736f6e20434c4160401b604482015290519081900360640190fd5b816006541115610efe576040805162461bcd60e51b815260206004820152601c60248201527f53686f756c64206c6f636b20666f72206d696e696d756d2074696d6500000000604482015290519081900360640190fd5b610ae433858585612147565b60025460408051600162f6c75960e01b0319815290516000926001600160a01b03169163ff0938a7916004808301926020929190829003018186803b158015610f5257600080fd5b505afa158015610f66573d6000803e3d6000fd5b505050506040513d6020811015610f7c57600080fd5b505115610f8857600080fd5b610f988262434c4160e81b6122fa565b9050801561108c576001600160a01b038216600081815260016020818152604080842062434c4160e81b80865290835293819020600201805460ff1916909317909255815185815291519293926000805160206129a78339815191529281900390910190a3600480546040805163a9059cbb60e01b81526001600160a01b0386811694820194909452602481018590529051929091169163a9059cbb916044808201926020929091908290030181600087803b15801561105757600080fd5b505af115801561106b573d6000803e3d6000fd5b505050506040513d602081101561108157600080fd5b505161108c57600080fd5b919050565b6000805b6001600160a01b038416600090815260208190526040902054811015611113576111096110fc85600080886001600160a01b03166001600160a01b0316815260200190815260200160002084815481106110eb57fe5b906000526020600020015486611f63565b839063ffffffff61238316565b9150600101611095565b50600554604080516339ac5eb960e01b81526001600160a01b0386811660048301529151610ae89392909216916339ac5eb991602480820192602092909190829003018186803b15801561116657600080fd5b505afa15801561117a573d6000803e3d6000fd5b505050506040513d602081101561119057600080fd5b5051829063ffffffff61238316565b600254604080516323c5b10760e21b815233600482015290516001600160a01b0390921691638f16c41c91602480820192602092909190829003018186803b1580156111ea57600080fd5b505afa1580156111fe573d6000803e3d6000fd5b505050506040513d602081101561121457600080fd5b505161121f57600080fd5b60048054604080516340c10f1960e01b81526001600160a01b038681169482019490945260248101859052905192909116916340c10f199160448082019260009290919082900301818387803b15801561127857600080fd5b505af115801561128c573d6000803e3d6000fd5b505050505050565b60048054604080516370a0823160e01b81526001600160a01b03858116948201949094529051600093909216916370a0823191602480820192602092909190829003018186803b1580156112e757600080fd5b505afa1580156112fb573d6000803e3d6000fd5b505050506040513d602081101561131157600080fd5b5051905060005b6001600160a01b0383166000908152602081905260409020548110156113885761137e6110fc84600080876001600160a01b03166001600160a01b03168152602001908152602001600020848154811061136e57fe5b90600052602060002001546123dd565b9150600101611318565b5060055460408051630ea474c760e01b81526001600160a01b03858116600483015291516000939290921691630ea474c791602480820192602092909190829003018186803b1580156113da57600080fd5b505afa1580156113ee573d6000803e3d6000fd5b505050506040513d602081101561140457600080fd5b5051600554604080516339ac5eb960e01b81526001600160a01b038781166004830152915193945060009391909216916339ac5eb9916024808301926020929190829003018186803b15801561145957600080fd5b505afa15801561146d573d6000803e3d6000fd5b505050506040513d602081101561148357600080fd5b50519050610c358261149b858463ffffffff61238316565b9063ffffffff61238316565b600254604080516323c5b10760e21b815233600482015290516001600160a01b0390921691638f16c41c91602480820192602092909190829003018186803b1580156114f257600080fd5b505afa158015611506573d6000803e3d6000fd5b505050506040513d602081101561151c57600080fd5b505161152757600080fd5b6004805460408051634c47e71d60e01b81526001600160a01b03868116948201949094526024810185905290519290911691634c47e71d9160448082019260009290919082900301818387803b15801561127857600080fd5b6000610ae883836122fa565b92915050565b6000610ae883836123dd565b600060205281600052604060002081815481106115b757fe5b90600052602060002001600091509150505481565b600254604080516323c5b10760e21b815233600482015290516000926001600160a01b031691638f16c41c916024808301926020929190829003018186803b15801561161757600080fd5b505afa15801561162b573d6000803e3d6000fd5b505050506040513d602081101561164157600080fd5b505161164c57600080fd5b600480546040805163079cc67960e41b81526001600160a01b038781169482019490945260248101869052905192909116916379cc6790916044808201926020929091908290030181600087803b1580156116a657600080fd5b505af11580156116ba573d6000803e3d6000fd5b505050506040513d60208110156116d057600080fd5b50519392505050565b600254604080516323c5b10760e21b815233600482015290516001600160a01b0390921691638f16c41c91602480820192602092909190829003018186803b15801561172457600080fd5b505afa158015611738573d6000803e3d6000fd5b505050506040513d602081101561174e57600080fd5b505161175957600080fd5b61083e838383612434565b600254604080516323c5b10760e21b815233600482015290516001600160a01b0390921691638f16c41c91602480820192602092909190829003018186803b1580156117af57600080fd5b505afa1580156117c3573d6000803e3d6000fd5b505050506040513d60208110156117d957600080fd5b50516117e457600080fd5b61083e8383836125b3565b60025460408051600162f6c75960e01b0319815290516000926001600160a01b03169163ff0938a7916004808301926020929190829003018186803b15801561183757600080fd5b505afa15801561184b573d6000803e3d6000fd5b505050506040513d602081101561186157600080fd5b50511561186d57600080fd5b62434c4160e81b83146118c2576040805162461bcd60e51b81526020600482015260186024820152775265737472696374656420746f20726561736f6e20434c4160401b604482015290519081900360640190fd5b60006118ce33856123dd565b116118d857600080fd5b600480546040805163b0e65d0760e01b8152339381019390935260248301859052516001600160a01b039091169163b0e65d079160448083019260209291908290030181600087803b15801561192d57600080fd5b505af1158015611941573d6000803e3d6000fd5b505050506040513d602081101561195757600080fd5b5050336000908152600160209081526040808320868452909152902054611984908363ffffffff61238316565b336000818152600160208181526040808420898552825292839020948555930154815186815293840152805186937fea90ef40963535482537f0689e05cb8d259e459ebd21530e826702294d0eafdd92908290030190a350600192915050565b600254604080516323c5b10760e21b815233600482015290516001600160a01b0390921691638f16c41c91602480820192602092909190829003018186803b158015611a2f57600080fd5b505afa158015611a43573d6000803e3d6000fd5b505050506040513d6020811015611a5957600080fd5b5051611a6457600080fd5b60048054604080516237ecc960e31b81526001600160a01b0385811694820194909452905192909116916301bf6648916024808201926020929091908290030181600087803b15801561081457600080fd5b60025460408051632c1a733d60e11b815233600482015290516001600160a01b0390921691635834e67a91602480820192602092909190829003018186803b158015611b0157600080fd5b505afa158015611b15573d6000803e3d6000fd5b505050506040513d6020811015611b2b57600080fd5b5051611b3657600080fd5b64135390d31560da1b6001600160c01b031983161415611b6b57611b63816201518063ffffffff61273416565b600655611bad565b6040805162461bcd60e51b8152602060048201526012602482015271496e76616c696420706172616d20636f646560701b604482015290519081900360640190fd5b5050565b6002546001600160a01b031681565b60025460408051600162f6c75960e01b0319815290516000926001600160a01b03169163ff0938a7916004808301926020929190829003018186803b158015611c0857600080fd5b505afa158015611c1c573d6000803e3d6000fd5b505050506040513d6020811015611c3257600080fd5b505115611c3e57600080fd5b62434c4160e81b8314611c93576040805162461bcd60e51b81526020600482015260186024820152775265737472696374656420746f20726561736f6e20434c4160401b604482015290519081900360640190fd5b611c9e3384846120b5565b50600192915050565b6000805b6001600160a01b038316600090815260208190526040902054811015611d1b57611d116110fc84600080876001600160a01b03166001600160a01b031681526020019081526020016000208481548110611d0157fe5b90600052602060002001546122fa565b9150600101611cab565b50919050565b60065481565b6002546001600160a01b031615611d84576002546001600160a01b03163314611d84576040805162461bcd60e51b815260206004820152600a6024820152692737ba1036b0b9ba32b960b11b604482015290519081900360640190fd5b600280546001600160a01b039092166001600160a01b0319928316811790915560038054909216179055565b6001602081815260009384526040808520909152918352912080549181015460029091015460ff1683565b600254604080516323c5b10760e21b815233600482015290516001600160a01b0390921691638f16c41c91602480820192602092909190829003018186803b158015611e2657600080fd5b505afa158015611e3a573d6000803e3d6000fd5b505050506040513d6020811015611e5057600080fd5b5051611e5b57600080fd5b60048054604080516311fb80e560e21b81526001600160a01b0385811694820194909452905192909116916347ee0394916024808201926020929091908290030181600087803b15801561081457600080fd5b6003546001600160a01b031681565b600254604080516323c5b10760e21b815233600482015290516000926001600160a01b031691638f16c41c916024808301926020929190829003018186803b158015611f0857600080fd5b505afa158015611f1c573d6000803e3d6000fd5b505050506040513d6020811015611f3257600080fd5b5051611f3d57600080fd5b611f4985858585612147565b506001949350505050565b6004546001600160a01b031681565b6001600160a01b038316600090815260016020818152604080842086855290915282200154821015610ae85750506001600160a01b03919091166000908152600160209081526040808320938352929052205490565b6000611fc584846123dd565b11611fcf57600080fd5b6001600160a01b038316600081815260016020908152604080832086845282529182902054825190815291518593926000805160206129a783398151915292908290030190a36001600160a01b0383166000908152600160208181526040808420868552909152909120015461204b908263ffffffff61278d16565b6001600160a01b03841660008181526001602081815260408084208885528252928390209182018590559054825190815290810193909352805185937fea90ef40963535482537f0689e05cb8d259e459ebd21530e826702294d0eafdd92908290030190a3505050565b60006120c184846123dd565b116120cb57600080fd5b6001600160a01b038316600081815260016020908152604080832086845282529182902054825190815291518593926000805160206129a783398151915292908290030190a36001600160a01b0383166000908152600160208181526040808420868552909152909120015461204b908263ffffffff61238316565b61215184846123dd565b1561215b57600080fd5b8161216557600080fd5b6001600160a01b03841660009081526001602090815260408083208684529091529020546121b7576001600160a01b038416600090815260208181526040822080546001810182559083529120018390555b600480546040805163b0e65d0760e01b81526001600160a01b0388811694820194909452602481018690529051929091169163b0e65d07916044808201926020929091908290030181600087803b15801561221157600080fd5b505af1158015612225573d6000803e3d6000fd5b505050506040513d602081101561223b57600080fd5b505161224657600080fd5b6000612258428363ffffffff61238316565b60408051606081018252858152602080820184815260008385018181526001600160a01b038c1680835260018086528784208d855286529287902095518655925191850191909155516002909301805460ff19169315159390931790925582518781529081018490528251939450879391927fea90ef40963535482537f0689e05cb8d259e459ebd21530e826702294d0eafdd92918290030190a35050505050565b6001600160a01b038216600090815260016020818152604080842085855290915282200154421080159061235557506001600160a01b038316600090815260016020908152604080832085845290915290206002015460ff16155b1561158c57506001600160a01b03919091166000908152600160209081526040808320938352929052205490565b600082820183811015610ae8576040805162461bcd60e51b815260206004820152601b60248201527f536166654d6174683a206164646974696f6e206f766572666c6f770000000000604482015290519081900360640190fd5b6001600160a01b038216600090815260016020908152604080832084845290915281206002015460ff1661158c57506001600160a01b03919091166000908152600160209081526040808320938352929052205490565b600061244084846123dd565b90508181101561244f57600080fd5b8181141561248a576001600160a01b0384166000908152600160208181526040808420878552909152909120600201805460ff191690911790555b6001600160a01b03841660009081526001602090815260408083208684529091529020546124be908363ffffffff61278d16565b6001600160a01b038516600090815260016020908152604080832087845290915290208190556124f2576124f284846127cf565b6004805460408051630852cd8d60e31b8152928301859052516001600160a01b03909116916342966c689160248083019260209291908290030181600087803b15801561253e57600080fd5b505af1158015612552573d6000803e3d6000fd5b505050506040513d602081101561256857600080fd5b5050604080518481526020810184905281516001600160a01b038716927f7298c49d4a02f128c91eac867376070b76cb09e92a8867b22356c6c797cac1b2928290030190a250505050565b60006125bf84846123dd565b9050818110156125ce57600080fd5b81811415612609576001600160a01b0384166000908152600160208181526040808420878552909152909120600201805460ff191690911790555b6001600160a01b038416600090815260016020908152604080832086845290915290205461263d908363ffffffff61278d16565b6001600160a01b038516600090815260016020908152604080832087845290915290208190556126715761267184846127cf565b600480546040805163a9059cbb60e01b81526001600160a01b0388811694820194909452602481018690529051929091169163a9059cbb916044808201926020929091908290030181600087803b1580156126cb57600080fd5b505af11580156126df573d6000803e3d6000fd5b505050506040513d60208110156126f557600080fd5b505161270057600080fd5b60408051838152905184916001600160a01b038716916000805160206129a78339815191529181900360200190a350505050565b6000826127435750600061158c565b8282028284828161275057fe5b0414610ae85760405162461bcd60e51b81526004018080602001828103825260218152602001806129866021913960400191505060405180910390fd5b6000610ae883836040518060400160405280601e81526020017f536166654d6174683a207375627472616374696f6e206f766572666c6f7700008152506128ee565b6001600160a01b038216600090815260208190526040812054905b818110156128e8576001600160a01b038416600090815260208190526040902080548491908390811061281957fe5b906000526020600020015414156128e0576001600160a01b038416600090815260208190526040902061285383600163ffffffff61278d16565b8154811061285d57fe5b9060005260206000200154600080866001600160a01b03166001600160a01b03168152602001908152602001600020828154811061289757fe5b60009182526020808320909101929092556001600160a01b038616815290819052604090208054806128c557fe5b600190038181906000526020600020016000905590556128e8565b6001016127ea565b50505050565b6000818484111561297d5760405162461bcd60e51b81526004018080602001828103825283818151815260200191508051906020019080838360005b8381101561294257818101518382015260200161292a565b50505050905090810190601f16801561296f5780820380516001836020036101000a031916815260200191505b509250505060405180910390fd5b50505090039056fe536166654d6174683a206d756c7469706c69636174696f6e206f766572666c6f7711f87fd5adcd05786919b8b868f59a70d78ae4eb6f305c5927f9c5b1659841a443616c6c206973206f6e6c7920616c6c6f7765642066726f6d20506f6f6c65645374616b696e672061646472657373a265627a7a72315820447bcd8138a8031fe27459d411e94c22b69747e1e9ebfc8e57269aed912cb84864736f6c63430005110032536166654d6174683a206d756c7469706c69636174696f6e206f766572666c6f77",
  "linkReferences": {},
  "deployedLinkReferences": {}
}